ACAM4PM
HFDTE131224
HFFXA050
HFPLTPILOT:Andres Totorica         
HFGTYGLIDERTYPE:SZD-48-2 Ja 
HFGIDGLIDERID:LV-DNP      
HFDTM100GPSDATUM:
HFRFWFIRMWAREVERSION:F2.6
HFRHWHARDWAREVERSION:300 Series Version 2
HFFTYFRTYPE:CAMBRIDGE AERO INSTRUMENTS, 302+
HFGPS:GARMIN,LVS-25,12,18000
HFPRSPRESSALTSENSOR:INTERSEMA, MS5534-AP, 20000
I033638FXA3941ENL4247REX
LCAMSBVER:5FWVER:F26300
C121224163105121224000103
C0000000N00000000WTAKEOFF     
C3801767S06008133W001-OttoBall
C3813900S05950083W122r75AoCrMt
C3815083S06044503W119Pter85/QS
C3749283S06028817W081JuanEBarr
C3801767S06008133W001-OttoBall
C0000000N00000000WLANDING     
B1518233801652S06008128WA0021500201000000000000
B1518253801652S06008128WA0021500201000000000000
B1518273801652S06008128WA0021300201000000000000
B1518293801652S06008128WA0021300201000000000000
B1518313801652S06008128WA0021400201000000000000
B1518333801652S06008128WA0021300201000000000000
B1518353801652S06008128WA0021400201000000000000
B1518373801652S06008128WA0021500201000000000000
B1518393801652S06008128WA0021300201000000000000
B1518413801652S06008128WA0021300201000000000000
B1518433801652S06008128WA0021400201000000000000
B1518453801652S06008128WA0021400201000000000000
B1518473801652S06008128WA0021400201000000000000
B1518493801652S06008128WA0021400201000000000000
B1518513801654S06008128WA0021300201000000000000
B1518543801661S06008129WA0021300200000000000000
B1518563801670S06008130WA0021200200000000000000
B1518583801682S06008133WA0021300199000000000000
B1519003801696S06008132WA0021200199000000000000
B1519023801713S06008132WA0021100198000000000000
B1519043801732S06008130WA0021100198000000000000
B1519063801755S06008130WA0021100197000000000000
B1519083801779S06008128WA0021100198000000000000
B1519103801805S06008125WA0021200198000000000000
B1519123801834S06008121WA0021200198000000000000
B1519143801864S06008119WA0021200199000000000000
B1519163801895S06008116WA0021500203000000000000
B1519183801926S06008111WA0022100206000000000000
B1519203801959S06008107WA0022300209000000000000
B1519223801992S06008104WA0022500212000000000000
B1519243802025S06008102WA0022800217000000000000
B1519263802057S06008099WA0023300222000000000000
B1519283802089S06008098WA0023900229000000000000
B1519303802120S06008095WA0024500238000000000000
B1519323802151S06008093WA0025400247000000000000
B1519343802182S06008093WA0026300254000000000000
B1519363802212S06008093WA0026900259000000000000
B1519383802243S06008093WA0027400265000000000000
B1519403802275S06008090WA0028100274000000000000
B1519423802306S06008090WA0028800283000000000000
B1519443802336S06008093WA0029800294000000000000
B1519463802366S06008097WA0030800302000000000000
B1519483802397S06008099WA0031500308000000000000
B1519503802429S06008106WA0032100316000000000000
B1519523802460S06008120WA0032800323000000000000
B1519543802490S06008138WA0033500332000000000000
B1519563802520S06008155WA0034300344000000000000
B1519583802548S06008175WA0035200348000000000000
B1520003802574S06008198WA0035700350000000000000
B1520023802598S06008220WA0036000354000000000000
B1520043802623S06008244WA0036500359000000000000
B1520063802645S06008268WA0037000364000000000000
B1520083802668S06008292WA0037500368000000000000
B1520103802691S06008315WA0037900372000000000000
B1520123802714S06008337WA0038200374000000000000
B1520143802739S06008361WA0038500375000000000000
B1520163802761S06008387WA0038500375000000000000
B1520183802783S06008413WA0038600376000000000000
B1520203802806S06008440WA0038800381000000000000
B1520223802830S06008467WA0039100384000000000000
B1520243802852S06008496WA0039500389000000000000
B1520263802874S06008526WA0040000397000000000000
B1520283802899S06008553WA0040900407000000000000
B1520303802923S06008580WA0041800417000000000000
B1520323802945S06008610WA0042800428000000000000
B1520343802967S06008641WA0043900438000000000000
B1520363802991S06008670WA0044400441000000000000
B1520383803013S06008697WA0044700443000000000000
B1520403803032S06008723WA0045400453000000000000
B1520423803053S06008751WA0046200460000000000000
B1520443803073S06008775WA0046700465000000000000
B1520463803095S06008801WA0047100467000000000000
B1520483803116S06008826WA0047500468000000000000
B1520503803138S06008853WA0047800469000000000000
B1520513803148S06008866WA0047900468000000000000
B1520543803182S06008905WA0048100473000000000000
B1520563803204S06008929WA0048400477000000000000
B1520583803227S06008951WA0048900481000000000000
B1521003803250S06008975WA0049200484000000000000
B1521023803273S06008999WA0049300484000000000000
B1521043803298S06009022WA0049300483000000000000
B1521063803324S06009044WA0049300482000000000000
B1521083803348S06009068WA0049300485000000000000
B1521103803373S06009091WA0049500488000000000000
B1521123803398S06009113WA0049900493000000000000
B1521143803421S06009134WA0050400499000000000000
B1521163803445S06009156WA0050900501000000000000
B1521183803469S06009177WA0051000502000000000000
B1521203803494S06009198WA0051200505000000000000
B1521223803516S06009222WA0051500509000000000000
B1521243803538S06009246WA0051900512000000000000
B1521263803562S06009268WA0052200514000000000000
B1521283803585S06009289WA0052300515000000000000
B1521303803608S06009311WA0052400516000000000000
B1521323803630S06009336WA0052600519000000000000
B1521343803655S06009358WA0052900521000000000000
B1521363803680S06009378WA0053000522000000000000
B1521383803707S06009398WA0053000520000000000000
B1521403803736S06009412WA0052900518000000000000
B1521423803764S06009424WA0052900517000000000000
B1521443803796S06009429WA0052700515000000000000
B1521463803825S06009430WA0052600515000000000000
B1521483803855S06009430WA0052700516000000000000
B1521503803884S06009429WA0053000523000000000000
B1521523803915S06009424WA0053500528000000000000
B1521543803944S06009416WA0053800530000000000000
B1521563803975S06009412WA0053800527000000000000
B1521583804006S06009410WA0053700529000000000000
B1522003804037S06009406WA0053900529000000000000
B1522023804067S06009398WA0054100533000000000000
B1522043804098S06009385WA0054300536000000000000
B1522063804128S06009371WA0054600538000000000000
B1522083804157S06009352WA0054700538000000000000
B1522103804186S06009333WA0054900540000000000000
B1522123804213S06009311WA0055200545000000000000
B1522143804241S06009287WA0055700552000000000000
B1522163804269S06009263WA0056300557000000000000
B1522183804292S06009234WA0057000567000000000000
B1522203804317S06009204WA0057600570000000000000
B1522223804339S06009172WA0058000576000000000000
B1522243804361S06009138WA0058100575000000000000
B1522263804378S06009099WA0058200574000000000000
B1522283804394S06009056WA0058200576000000000000
B1522303804407S06009012WA0058300578000000000000
B1522323804418S06008966WA0058500580000000000000
B1522343804427S06008921WA0058700583000000000000
B1522363804435S06008874WA0058900583000000000000
B1522383804442S06008827WA0058900582000000000000
B1522403804444S06008779WA0058900583000000000000
B1522423804440S06008728WA0059300588000000000000
B1522443804435S06008678WA0059700593000000000000
B1522463804430S06008627WA0060200598000000000000
B1522483804425S06008578WA0060800606000000000000
B1522503804416S06008530WA0061500613000000000000
B1522523804407S06008483WA0062100621000000000000
B1522543804400S06008436WA0062400621000000000000
B1522563804392S06008389WA0062400621000000000000
B1522583804382S06008340WA0062200616000000000000
B1523003804373S06008292WA0062200614000000000000
B1523023804365S06008242WA0062200620000000000000
B1523043804356S06008192WA0062900629000000000000
B1523063804355S06008141WA0063700637000000000000
B1523083804357S06008093WA0064500644000000000000
B1523103804358S06008049WA0065000651000000000000
B1523123804357S06008003WA0065500655000000000000
B1523143804357S06007958WA0065800659000000000000
B1523163804361S06007912WA0066300665000000000000
B1523183804364S06007865WA0066800668000000000000
B1523203804364S06007818WA0066900667000000000000
B1523223804364S06007773WA0066900668000000000000
B1523243804366S06007726WA0067100668000000000000
B1523263804373S06007681WA0067000667000000000000
B1523283804378S06007635WA0066900667000000000000
B1523303804383S06007590WA0066800666000000000000
B1523323804386S06007544WA0066800666000000000000
B1523343804388S06007497WA0067100670000000000000
B1523363804390S06007452WA0067400672000000000000
B1523383804387S06007406WA0067700676000000000000
B1523403804384S06007361WA0068200682000000000000
B1523423804378S06007317WA0068400684000000000000
B1523443804370S06007271WA0068600687000000000000
B1523463804361S06007226WA0068800690000000000000
B1523483804348S06007180WA0069100690000000000000
B1523503804332S06007136WA0069300692000000000000
B1523523804313S06007093WA0069400694000000000000
B1523543804291S06007053WA0069600695000000000000
B1523563804265S06007014WA0069800697000000000000
B1523583804239S06006976WA0070100703000000000000
B1524003804213S06006938WA0070600709000000000000
B1524023804186S06006901WA0071200714000000000000
B1524043804158S06006863WA0071700719000000000000
B1524063804131S06006825WA0072200725000000000000
B1524083804105S06006788WA0072900730000000000000
B1524103804076S06006751WA0073400736000000000000
B1524123804044S06006717WA0074200745000000000000
B1524143804013S06006682WA0075400761000000000000
B1524163803983S06006651WA0076700775000000000000
B1524183803946S06006635WA0077800785000000000000
B1524203803913S06006650WA0078600791000000000000
B1524223803892S06006681WA0078800792000000000000
B1524243803896S06006716WA0079000790000000000000
B1524263803915S06006732WA0079100791000000000000
B1524283803937S06006717WA0079100794000000000000
B1524303803945S06006684WA0079400797000000000000
B1524323803932S06006646WA0079800802000000000000
B1524343803910S06006616WA0080200809000000000000
B1524363803879S06006602WA0080700811000000000000
B1524383803850S06006613WA0080900810000000000000
B1524403803836S06006645WA0080800807000000000000
B1524423803844S06006677WA0080600804000000000000
B1524443803866S06006689WA0080400806000000000000
B1524463803889S06006678WA0080600810000000000000
B1524483803909S06006658WA0081000815000000000000
B1524503803916S06006625WA0081500818000000000000
B1524523803906S06006589WA0081900823000000000000
B1524543803879S06006564WA0082400829000000000000
B1524563803845S06006563WA0083000835000000000000
B1524583803818S06006582WA0083300837000000000000
B1525003803803S06006615WA0083700838000000000000
B1525023803809S06006645WA0083700837000000000000
B1525043803827S06006661WA0083600835000000000000
B1525063803851S06006656WA0083600836000000000000
B1525083803867S06006629WA0083800841000000000000
B1525103803868S06006591WA0084400848000000000000
B1525123803855S06006554WA0085100856000000000000
B1525143803828S06006530WA0085800863000000000000
B1525163803793S06006529WA0086500868000000000000
B1525183803766S06006548WA0087000872000000000000
B1525203803755S06006582WA0087200874000000000000
B1525223803763S06006612WA0087400875000000000000
B1525243803784S06006622WA0087500874000000000000
B1525263803806S06006608WA0087400873000000000000
B1525283803814S06006576WA0087400874000000000000
B1525303803799S06006538WA0087700880000000000000
B1525323803768S06006521WA0088300885000000000000
B1525343803733S06006530WA0088700888000000000000
B1525363803711S06006559WA0089000890000000000000
B1525383803708S06006594WA0089200891000000000000
B1525403803724S06006617WA0089200891000000000000
B1525423803749S06006619WA0089300892000000000000
B1525443803767S06006594WA0089300896000000000000
B1525463803768S06006556WA0089700903000000000000
B1525483803750S06006522WA0090300907000000000000
B1525503803718S06006505WA0090900912000000000000
B1525523803682S06006513WA0091300916000000000000
B1525543803658S06006538WA0091700918000000000000
B1525563803650S06006573WA0091800918000000000000
B1525583803659S06006603WA0091700916000000000000
B1526003803682S06006612WA0091600915000000000000
B1526023803705S06006598WA0091700920000000000000
B1526043803716S06006567WA0092200926000000000000
B1526063803711S06006529WA0092900932000000000000
B1526083803689S06006495WA0093400937000000000000
B1526103803656S06006477WA0093900943000000000000
B1526123803621S06006478WA0094500949000000000000
B1526143803591S06006498WA0094900951000000000000
B1526163803576S06006530WA0095100954000000000000
B1526183803578S06006563WA0095500955000000000000
B1526203803595S06006582WA0095600956000000000000
B1526223803617S06006581WA0095800959000000000000
B1526243803634S06006561WA0095900961000000000000
B1526263803641S06006529WA0096300966000000000000
B1526283803630S06006492WA0096700972000000000000
B1526303803607S06006463WA0097400977000000000000
B1526323803575S06006448WA0097900982000000000000
B1526343803539S06006450WA0098300989000000000000
B1526363803511S06006468WA0098900994000000000000
B1526383803493S06006498WA0099100997000000000000
B1526403803489S06006531WA0099400997000000000000
B1526423803500S06006557WA0099400995000000000000
B1526443803521S06006567WA0099300995000000000000
B1526463803542S06006552WA0099500997000000000000
B1526483803550S06006521WA0099701000000000000000
B1526503803542S06006482WA0099901005000000000000
B1526523803521S06006446WA0100401013000000000000
B1526543803493S06006418WA0101101019000000000000
B1526563803458S06006411WA0101801024000000000000
B1526583803425S06006425WA0102101026000000000000
B1527003803407S06006456WA0102201027000000000000
B1527023803407S06006490WA0102301028000000000000
B1527043803424S06006511WA0102601030000000000000
B1527063803446S06006511WA0102701030000000000000
B1527083803461S06006486WA0102901034000000000000
B1527103803464S06006450WA0103401044000000000000
B1527123803451S06006412WA0104301051000000000000
B1527143803424S06006385WA0105001057000000000000
B1527163803390S06006373WA0105501061000000000000
B1527183803356S06006381WA0105601061000000000000
B1527203803333S06006408WA0105601060000000000000
B1527223803325S06006443WA0105501058000000000000
B1527243803334S06006473WA0105501057000000000000
B1527263803355S06006487WA0105401057000000000000
B1527283803380S06006489WA0105401057000000000000
B1527303803404S06006486WA0105501060000000000000
B1527323803429S06006477WA0105801067000000000000
B1527343803447S06006455WA0106601079000000000000
B1527363803455S06006424WA0107501089000000000000
B1527383803446S06006390WA0108501095000000000000
B1527403803424S06006362WA0109101100000000000000
B1527423803391S06006352WA0109601104000000000000
B1527443803360S06006364WA0110001110000000000000
B1527463803338S06006391WA0110601117000000000000
B1527483803331S06006424WA0111301123000000000000
B1527503803334S06006455WA0111801126000000000000
B1527523803348S06006473WA0112101127000000000000
B1527543803370S06006469WA0112101129000000000000
B1527563803386S06006446WA0112301133000000000000
B1527583803387S06006411WA0112801138000000000000
B1528003803372S06006377WA0113301143000000000000
B1528023803346S06006349WA0113901149000000000000
B1528043803316S06006331WA0114501153000000000000
B1528063803282S06006334WA0114801156000000000000
B1528083803255S06006357WA0115001159000000000000
B1528103803238S06006391WA0115301162000000000000
B1528123803231S06006426WA0115601164000000000000
B1528143803242S06006457WA0116001169000000000000
B1528163803261S06006472WA0116601178000000000000
B1528183803283S06006469WA0116901185000000000000
B1528203803300S06006451WA0117601191000000000000
B1528223803307S06006421WA0118201196000000000000
B1528243803299S06006387WA0118701200000000000000
B1528263803277S06006359WA0119101203000000000000
B1528283803246S06006344WA0119501207000000000000
B1528303803212S06006349WA0120001213000000000000
B1528323803183S06006369WA0120501219000000000000
B1528343803165S06006400WA0121001223000000000000
B1528363803162S06006434WA0121401226000000000000
B1528383803173S06006460WA0121701230000000000000
B1528403803191S06006472WA0122001235000000000000
B1528423803212S06006464WA0122501241000000000000
B1528443803226S06006440WA0123101247000000000000
B1528463803229S06006407WA0123801251000000000000
B1528483803216S06006374WA0124201255000000000000
B1528503803190S06006352WA0124501258000000000000
B1528523803157S06006348WA0124901261000000000000
B1528543803125S06006361WA0125201265000000000000
B1528563803103S06006388WA0125401270000000000000
B1528583803092S06006422WA0125701272000000000000
B1529003803096S06006455WA0126001274000000000000
B1529023803110S06006474WA0126201276000000000000
B1529043803133S06006476WA0126501277000000000000
B1529063803152S06006460WA0126601279000000000000
B1529083803169S06006437WA0126901283000000000000
B1529103803178S06006404WA0127301290000000000000
B1529123803173S06006370WA0127801295000000000000
B1529143803155S06006340WA0128201296000000000000
B1529163803125S06006325WA0128301297000000000000
B1529183803091S06006325WA0128401300000000000000
B1529203803061S06006342WA0128801305000000000000
B1529223803040S06006372WA0129301310000000000000
B1529243803030S06006405WA0129701313000000000000
B1529263803035S06006437WA0129901315000000000000
B1529283803052S06006457WA0130101318000000000000
B1529303803073S06006466WA0130501321000000000000
B1529323803095S06006456WA0130801323000000000000
B1529343803109S06006426WA0131101327000000000000
B1529363803108S06006390WA0131501333000000000000
B1529383803092S06006356WA0132001334000000000000
B1529403803064S06006331WA0132001334000000000000
B1529423803027S06006327WA0132101338000000000000
B1529443802992S06006342WA0132401343000000000000
B1529463802966S06006370WA0132801346000000000000
B1529483802949S06006407WA0133201349000000000000
B1529503802945S06006444WA0133401352000000000000
B1529523802953S06006477WA0133801357000000000000
B1529543802970S06006496WA0134201360000000000000
B1529563802993S06006499WA0134501361000000000000
B1529583803014S06006482WA0134701364000000000000
B1529593803021S06006468WA0134901367000000000000
B1530023803029S06006414WA0135201370000000000000
B1530043803023S06006374WA0135501371000000000000
B1530063803008S06006338WA0135601373000000000000
B1530083802982S06006309WA0135901376000000000000
B1530103802947S06006294WA0136301379000000000000
B1530123802912S06006294WA0136901388000000000000
B1530143802878S06006303WA0137101388000000000000
B1530163802850S06006327WA0137201389000000000000
B1530183802835S06006362WA0137201391000000000000
B1530203802835S06006399WA0137501391000000000000
B1530223802849S06006426WA0137501392000000000000
B1530243802870S06006440WA0137601395000000000000
B1530263802893S06006440WA0137901397000000000000
B1530283802914S06006424WA0138101400000000000000
B1530303802926S06006394WA0138401404000000000000
B1530323802930S06006357WA0138801409000000000000
B1530343802922S06006320WA0139301412000000000000
B1530363802902S06006287WA0139401413000000000000
B1530383802873S06006268WA0139501414000000000000
B1530403802839S06006264WA0139801417000000000000
B1530423802808S06006277WA0140001418000000000000
B1530443802780S06006300WA0139901417000000000000
B1530463802761S06006331WA0139801416000000000000
B1530483802748S06006366WA0139701414000000000000
B1530503802745S06006404WA0139701414000000000000
B1530523802750S06006438WA0139701415000000000000
B1530543802766S06006461WA0139901418000000000000
B1530563802788S06006468WA0140001419000000000000
B1530583802810S06006459WA0140201419000000000000
B1531003802828S06006438WA0140101419000000000000
B1531023802844S06006411WA0140201423000000000000
B1531043802850S06006378WA0140601429000000000000
B1531063802844S06006344WA0141101431000000000000
B1531083802823S06006316WA0141301430000000000000
B1531103802792S06006301WA0141201427000000000000
B1531123802757S06006308WA0141001429000000000000
B1531143802732S06006334WA0141101432000000000000
B1531163802720S06006368WA0141401431000000000000
B1531183802727S06006401WA0141401430000000000000
B1531203802744S06006422WA0141201429000000000000
B1531223802767S06006424WA0141201429000000000000
B1531243802791S06006409WA0141201430000000000000
B1531263802813S06006395WA0141301431000000000000
B1531283802837S06006391WA0141401432000000000000
B1531303802862S06006401WA0141401431000000000000
B1531323802884S06006420WA0141301429000000000000
B1531343802905S06006442WA0141301431000000000000
B1531363802927S06006464WA0141401434000000000000
B1531383802952S06006481WA0141701439000000000000
B1531403802977S06006495WA0142001441000000000000
B1531423803003S06006511WA0142401446000000000000
B1531443803029S06006517WA0142901455000000000000
B1531463803052S06006505WA0143601457000000000000
B1531483803062S06006472WA0143701453000000000000
B1531503803052S06006430WA0143501447000000000000
B1531523803023S06006401WA0143101443000000000000
B1531543802988S06006394WA0142801443000000000000
B1531563802956S06006405WA0142701446000000000000
B1531583802927S06006425WA0142901449000000000000
B1532003802902S06006450WA0143101450000000000000
B1532023802891S06006483WA0143101451000000000000
B1532043802889S06006520WA0143401455000000000000
B1532063802889S06006557WA0143901462000000000000
B1532083802887S06006593WA0144801471000000000000
B1532103802876S06006628WA0145301474000000000000
B1532123802862S06006664WA0145401474000000000000
B1532143802847S06006702WA0145401476000000000000
B1532163802830S06006739WA0145601479000000000000
B1532183802813S06006778WA0145801478000000000000
B1532203802793S06006817WA0145701475000000000000
B1532223802774S06006856WA0145301471000000000000
B1532243802750S06006893WA0145101468000000000000
B1532263802726S06006929WA0144801463000000000000
B1532283802700S06006967WA0144001451000000000000
B1532303802674S06007007WA0142401439000000000000
B1532323802646S06007049WA0141801429000000000000
B1532343802616S06007093WA0140901422000000000000
B1532363802587S06007139WA0140401418000000000000
B1532383802555S06007184WA0140001416000000000000
B1532403802523S06007230WA0139701413000000000000
B1532423802490S06007274WA0139501411000000000000
B1532443802458S06007317WA0139301409000000000000
B1532463802424S06007357WA0139101407000000000000
B1532483802393S06007397WA0139201411000000000000
B1532503802363S06007435WA0139401414000000000000
B1532523802334S06007471WA0139501414000000000000
B1532543802304S06007508WA0139501414000000000000
B1532563802276S06007543WA0139601418000000000000
B1532583802250S06007577WA0140001424000000000000
B1533003802224S06007609WA0140401427000000000000
B1533023802200S06007642WA0140701429000000000000
B1533043802177S06007673WA0140901432000000000000
B1533063802154S06007701WA0141101433000000000000
B1533083802129S06007731WA0141101430000000000000
B1533103802107S06007761WA0141001428000000000000
B1533123802083S06007792WA0140601425000000000000
B1533143802059S06007822WA0140301423000000000000
B1533163802035S06007854WA0140001421000000000000
B1533183802009S06007887WA0139201405000000000000
B1533203801983S06007925WA0138201396000000000000
B1533223801957S06007963WA0137301387000000000000
B1533243801930S06008003WA0136301375000000000000
B1533263801903S06008046WA0135601373000000000000
B1533283801874S06008089WA0135501374000000000000
B1533303801844S06008129WA0135401371000000000000
B1533323801814S06008172WA0135001367000000000000
B1533343801784S06008215WA0134801366000000000000
B1533363801756S06008259WA0134801369000000000000
B1533383801727S06008302WA0135101372000000000000
B1533403801699S06008344WA0135301372000000000000
B1533423801670S06008384WA0135401377000000000000
B1533443801640S06008423WA0135801381000000000000
B1533463801610S06008458WA0136301387000000000000
B1533483801580S06008491WA0136701390000000000000
B1533503801552S06008522WA0137001392000000000000
B1533523801524S06008556WA0137201394000000000000
B1533543801500S06008589WA0137401396000000000000
B1533563801478S06008624WA0137301394000000000000
B1533583801458S06008661WA0137001390000000000000
B1534003801444S06008700WA0136701386000000000000
B1534023801444S06008738WA0136601387000000000000
B1534043801459S06008764WA0136701388000000000000
B1534063801480S06008773WA0136701384000000000000
B1534083801502S06008764WA0136201376000000000000
B1534103801518S06008738WA0135501371000000000000
B1534123801526S06008706WA0135101368000000000000
B1534143801531S06008671WA0135001362000000000000
B1534163801539S06008636WA0134501358000000000000
B1534183801541S06008597WA0134001353000000000000
B1534203801539S06008556WA0133701354000000000000
B1534223801531S06008514WA0133701357000000000000
B1534243801523S06008474WA0133801357000000000000
B1534263801513S06008433WA0133901355000000000000
B1534283801498S06008394WA0133801354000000000000
B1534303801483S06008354WA0133701353000000000000
B1534323801467S06008315WA0133601353000000000000
B1534343801448S06008276WA0133501352000000000000
B1534363801427S06008240WA0133601354000000000000
B1534383801406S06008202WA0133801357000000000000
B1534403801388S06008164WA0134201360000000000000
B1534423801376S06008128WA0134501367000000000000
B1534443801375S06008093WA0135101372000000000000
B1534463801387S06008065WA0135501373000000000000
B1534483801406S06008051WA0135501374000000000000
B1534503801427S06008033WA0135701377000000000000
B1534523801437S06008003WA0136001381000000000000
B1534543801433S06007967WA0136301386000000000000
B1534563801415S06007932WA0136801390000000000000
B1534583801384S06007909WA0137301393000000000000
B1535003801349S06007908WA0137501394000000000000
B1535023801318S06007925WA0137601395000000000000
B1535043801300S06007956WA0137601394000000000000
B1535063801296S06007989WA0137401391000000000000
B1535083801307S06008016WA0137301389000000000000
B1535103801328S06008029WA0137201389000000000000
B1535123801353S06008020WA0137201392000000000000
B1535143801374S06008000WA0137401394000000000000
B1535163801388S06007969WA0137901399000000000000
B1535183801388S06007930WA0138401404000000000000
B1535203801371S06007895WA0138901409000000000000
B1535223801340S06007877WA0139201413000000000000
B1535243801307S06007878WA0139601415000000000000
B1535263801280S06007898WA0139701414000000000000
B1535283801264S06007929WA0139501410000000000000
B1535303801266S06007963WA0139201407000000000000
B1535323801283S06007986WA0139101409000000000000
B1535343801306S06007993WA0139201413000000000000
B1535363801331S06007985WA0139601416000000000000
B1535383801353S06007968WA0139901422000000000000
B1535403801370S06007942WA0140401428000000000000
B1535423801370S06007907WA0140901431000000000000
B1535443801348S06007877WA0141301431000000000000
B1535463801315S06007868WA0141301432000000000000
B1535483801285S06007886WA0141401435000000000000
B1535503801271S06007919WA0141701437000000000000
B1535523801274S06007954WA0142001439000000000000
B1535543801292S06007976WA0142101441000000000000
B1535563801316S06007980WA0142401446000000000000
B1535583801341S06007973WA0142801452000000000000
B1536003801358S06007948WA0143401456000000000000
B1536023801357S06007912WA0143801458000000000000
B1536043801332S06007883WA0144101460000000000000
B1536063801297S06007882WA0144201459000000000000
B1536083801271S06007909WA0144301461000000000000
B1536103801270S06007947WA0144501465000000000000
B1536123801287S06007972WA0144901471000000000000
B1536143801310S06007982WA0145501476000000000000
B1536163801335S06007976WA0146001481000000000000
B1536183801348S06007947WA0146301485000000000000
B1536203801342S06007912WA0146601486000000000000
B1536223801318S06007886WA0146801488000000000000
B1536243801283S06007881WA0146901487000000000000
B1536263801253S06007902WA0146901486000000000000
B1536283801237S06007938WA0146901488000000000000
B1536303801238S06007974WA0147101492000000000000
B1536323801255S06007997WA0147501496000000000000
B1536343801277S06008004WA0147801500000000000000
B1536363801303S06008003WA0148201505000000000000
B1536383801328S06007998WA0148601506000000000000
B1536403801357S06007991WA0148401504000000000000
B1536423801385S06007990WA0147801496000000000000
B1536443801417S06007990WA0147001485000000000000
B1536463801449S06007989WA0145801470000000000000
B1536483801487S06007987WA0144401455000000000000
B1536503801526S06007986WA0143301445000000000000
B1536523801566S06007986WA0142801441000000000000
B1536543801606S06007985WA0142301438000000000000
B1536563801645S06007985WA0142301436000000000000
B1536583801684S06007984WA0142001433000000000000
B1537003801723S06007982WA0141701431000000000000
B1537023801764S06007981WA0141501430000000000000
B1537043801804S06007981WA0141401433000000000000
B1537063801843S06007982WA0141901441000000000000
B1537083801882S06007984WA0142401445000000000000
B1537103801918S06007984WA0142801447000000000000
B1537123801956S06007985WA0142801444000000000000
B1537143801992S06007986WA0142501439000000000000
B1537163802030S06007987WA0142101435000000000000
B1537183802068S06007987WA0141601431000000000000
B1537203802104S06007987WA0141301428000000000000
B1537223802142S06007989WA0141101427000000000000
B1537243802178S06007989WA0141101430000000000000
B1537263802212S06007990WA0141301433000000000000
B1537283802246S06007990WA0141501434000000000000
B1537303802278S06007990WA0141401433000000000000
B1537323802310S06007990WA0141301431000000000000
B1537343802341S06007990WA0141101427000000000000
B1537363802371S06007991WA0140601422000000000000
B1537383802401S06007991WA0140601422000000000000
B1537403802429S06007989WA0140701427000000000000
B1537423802458S06007987WA0140901427000000000000
B1537443802486S06007985WA0140901425000000000000
B1537463802516S06007982WA0140501421000000000000
B1537483802546S06007980WA0140101413000000000000
B1537503802579S06007978WA0139401406000000000000
B1537523802614S06007978WA0138601396000000000000
B1537543802648S06007977WA0137601389000000000000
B1537563802683S06007978WA0136901381000000000000
B1537583802719S06007980WA0136101370000000000000
B1538003802757S06007981WA0135201363000000000000
B1538023802795S06007984WA0134501355000000000000
B1538043802832S06007987WA0133701346000000000000
B1538063802873S06007990WA0133001340000000000000
B1538083802912S06007993WA0132501337000000000000
B1538103802951S06007997WA0132401339000000000000
B1538123802987S06008003WA0132601342000000000000
B1538143803022S06008010WA0132601341000000000000
B1538163803057S06008017WA0132401339000000000000
B1538183803091S06008026WA0132401335000000000000
B1538203803126S06008036WA0131901329000000000000
B1538223803161S06008043WA0131401325000000000000
B1538243803198S06008051WA0130901316000000000000
B1538263803237S06008058WA0129901305000000000000
B1538283803277S06008064WA0129101298000000000000
B1538303803318S06008071WA0128801300000000000000
B1538323803360S06008076WA0129001308000000000000
B1538343803398S06008080WA0129801322000000000000
B1538363803433S06008084WA0131301340000000000000
B1538383803464S06008078WA0132701355000000000000
B1538403803489S06008056WA0134101365000000000000
B1538423803502S06008020WA0135001371000000000000
B1538443803499S06007978WA0135501373000000000000
B1538453803493S06007959WA0135901375000000000000
B1538483803448S06007919WA0136001377000000000000
B1538503803411S06007917WA0136101375000000000000
B1538523803377S06007930WA0136001374000000000000
B1538543803347S06007955WA0136001377000000000000
B1538563803331S06007989WA0136301378000000000000
B1538583803334S06008024WA0136501378000000000000
B1539003803352S06008050WA0136601382000000000000
B1539023803376S06008065WA0137001388000000000000
B1539043803402S06008065WA0137501393000000000000
B1539063803425S06008051WA0137801396000000000000
B1539083803439S06008020WA0138101398000000000000
B1539103803435S06007981WA0138301399000000000000
B1539123803415S06007950WA0138501398000000000000
B1539143803380S06007935WA0138501399000000000000
B1539163803343S06007939WA0138501400000000000000
B1539183803312S06007960WA0138301398000000000000
B1539203803298S06007998WA0138301397000000000000
B1539223803304S06008034WA0138201397000000000000
B1539243803326S06008058WA0138301400000000000000
B1539263803354S06008068WA0138601405000000000000
B1539283803380S06008062WA0139001410000000000000
B1539303803399S06008034WA0139501413000000000000
B1539323803403S06007994WA0139701413000000000000
B1539343803389S06007955WA0139901415000000000000
B1539363803359S06007930WA0140001416000000000000
B1539383803325S06007926WA0140201417000000000000
B1539403803292S06007945WA0140101414000000000000
B1539423803274S06007978WA0139901412000000000000
B1539443803277S06008016WA0139901414000000000000
B1539463803290S06008047WA0140001416000000000000
B1539483803309S06008069WA0140301419000000000000
B1539503803334S06008076WA0140601423000000000000
B1539523803359S06008063WA0140801427000000000000
B1539543803373S06008033WA0141301433000000000000
B1539563803370S06007995WA0142001439000000000000
B1539583803350S06007963WA0142501444000000000000
B1540003803320S06007948WA0142801445000000000000
B1540023803290S06007956WA0142901443000000000000
B1540043803269S06007984WA0142601438000000000000
B1540063803264S06008017WA0142201435000000000000
B1540083803278S06008043WA0142001434000000000000
B1540103803302S06008047WA0141901435000000000000
B1540123803326S06008034WA0142101441000000000000
B1540143803348S06008015WA0142501445000000000000
B1540163803365S06007986WA0142901447000000000000
B1540183803374S06007951WA0143001445000000000000
B1540203803370S06007911WA0142801439000000000000
B1540223803351S06007876WA0142301436000000000000
B1540243803321S06007855WA0142101438000000000000
B1540263803287S06007856WA0142201437000000000000
B1540283803261S06007878WA0142101435000000000000
B1540303803250S06007913WA0141801432000000000000
B1540323803247S06007951WA0141601431000000000000
B1540343803246S06007989WA0141601432000000000000
B1540363803235S06008026WA0141801435000000000000
B1540383803214S06008059WA0142001436000000000000
B1540403803185S06008084WA0142001437000000000000
B1540423803148S06008094WA0142001437000000000000
B1540443803109S06008089WA0142101437000000000000
B1540463803073S06008071WA0142201438000000000000
B1540483803038S06008046WA0142301439000000000000
B1540503803004S06008020WA0142401441000000000000
B1540523802971S06007995WA0142701445000000000000
B1540543802938S06007974WA0143001448000000000000
B1540563802902S06007958WA0143101450000000000000
B1540583802866S06007958WA0143301450000000000000
B1541003802839S06007981WA0143301447000000000000
B1541023802830S06008017WA0142901442000000000000
B1541043802844S06008047WA0142401438000000000000
B1541063802871S06008049WA0142201438000000000000
B1541083802896S06008030WA0142201439000000000000
B1541103802918S06008004WA0142301439000000000000
B1541123802939S06007976WA0142201438000000000000
B1541143802960S06007948WA0142301441000000000000
B1541163802980S06007924WA0142601444000000000000
B1541183802999S06007900WA0142701444000000000000
B1541203803018S06007877WA0142601443000000000000
B1541223803035S06007851WA0142401441000000000000
B1541243803049S06007822WA0142301438000000000000
B1541263803064S06007792WA0142001432000000000000
B1541283803079S06007760WA0141301420000000000000
B1541303803097S06007726WA0140401413000000000000
B1541323803120S06007694WA0139701410000000000000
B1541343803143S06007661WA0139501408000000000000
B1541363803169S06007634WA0139301408000000000000
B1541383803195S06007608WA0139201410000000000000
B1541403803221S06007586WA0139201409000000000000
B1541423803247S06007564WA0139201408000000000000
B1541443803273S06007540WA0139201408000000000000
B1541463803300S06007519WA0139101408000000000000
B1541483803326S06007499WA0139201411000000000000
B1541503803354S06007479WA0139501414000000000000
B1541523803380S06007461WA0139701415000000000000
B1541543803407S06007444WA0140001419000000000000
B1541563803435S06007434WA0140601427000000000000
B1541583803463S06007428WA0141201432000000000000
B1542003803490S06007425WA0141401433000000000000
B1542023803517S06007419WA0141401432000000000000
B1542043803545S06007414WA0141401433000000000000
B1542063803569S06007405WA0141501434000000000000
B1542083803588S06007383WA0141601435000000000000
B1542103803598S06007349WA0141701438000000000000
B1542123803604S06007313WA0141901441000000000000
B1542143803607S06007275WA0142201442000000000000
B1542163803610S06007237WA0142301442000000000000
B1542183803611S06007200WA0142101438000000000000
B1542203803611S06007162WA0141901437000000000000
B1542223803610S06007123WA0141801437000000000000
B1542243803608S06007084WA0141801437000000000000
B1542263803608S06007044WA0141501432000000000000
B1542283803610S06007002WA0141101429000000000000
B1542303803610S06006960WA0140801428000000000000
B1542323803608S06006919WA0140601426000000000000
B1542343803595S06006879WA0140601422000000000000
B1542363803567S06006850WA0140201418000000000000
B1542383803530S06006847WA0139801413000000000000
B1542403803499S06006868WA0139201405000000000000
B1542423803477S06006905WA0138801401000000000000
B1542443803464S06006944WA0138301397000000000000
B1542463803454S06006983WA0137901394000000000000
B1542483803443S06007023WA0137701393000000000000
B1542503803432S06007061WA0137401390000000000000
B1542533803412S06007119WA0137001386000000000000
B1542553803398S06007158WA0136701384000000000000
B1542573803385S06007198WA0136501383000000000000
B1542593803370S06007237WA0136301379000000000000
B1543013803348S06007275WA0136101379000000000000
B1543033803320S06007306WA0136201381000000000000
B1543053803287S06007334WA0136201382000000000000
B1543073803255S06007361WA0136401383000000000000
B1543093803221S06007387WA0136401383000000000000
B1543113803187S06007413WA0136401381000000000000
B1543133803152S06007438WA0136501385000000000000
B1543153803114S06007461WA0137001391000000000000
B1543173803078S06007482WA0137401393000000000000
B1543193803042S06007503WA0137601395000000000000
B1543213803006S06007523WA0137601395000000000000
B1543233802971S06007543WA0137501394000000000000
B1543253802938S06007561WA0137501392000000000000
B1543273802902S06007579WA0137201391000000000000
B1543293802867S06007595WA0137101389000000000000
B1543313802831S06007609WA0136901387000000000000
B1543333802795S06007623WA0136501383000000000000
B1543353802757S06007639WA0136301379000000000000
B1543373802718S06007655WA0135901376000000000000
B1543393802679S06007672WA0135701373000000000000
B1543413802640S06007690WA0135401370000000000000
B1543433802601S06007708WA0135101367000000000000
B1543453802561S06007726WA0135001366000000000000
B1543473802522S06007743WA0134801366000000000000
B1543493802483S06007760WA0134701365000000000000
B1543513802445S06007777WA0134701365000000000000
B1543533802407S06007792WA0134801366000000000000
B1543553802369S06007808WA0134801367000000000000
B1543573802333S06007822WA0134801366000000000000
B1543593802297S06007838WA0134701362000000000000
B1544013802262S06007856WA0134401358000000000000
B1544033802226S06007877WA0134001355000000000000
B1544053802190S06007895WA0133701350000000000000
B1544073802151S06007906WA0133301345000000000000
B1544093802109S06007906WA0132601336000000000000
B1544113802067S06007899WA0131901331000000000000
B1544133802025S06007893WA0131501330000000000000
B1544153801983S06007891WA0131101323000000000000
B1544173801940S06007896WA0130301312000000000000
B1544193801899S06007913WA0129501307000000000000
B1544213801860S06007938WA0129101304000000000000
B1544233801823S06007968WA0128601296000000000000
B1544253801790S06008002WA0127901290000000000000
B1544273801755S06008037WA0127301286000000000000
B1544293801719S06008075WA0126901283000000000000
B1544313801684S06008111WA0126601278000000000000
B1544333801652S06008150WA0126001272000000000000
B1544353801619S06008190WA0125801268000000000000
B1544373801586S06008231WA0125401264000000000000
B1544393801550S06008268WA0125001261000000000000
B1544413801515S06008306WA0124601257000000000000
B1544433801482S06008345WA0124401255000000000000
B1544453801445S06008385WA0124101253000000000000
B1544473801410S06008424WA0124301264000000000000
B1544493801374S06008459WA0125601283000000000000
B1544513801342S06008494WA0127401300000000000000
B1544533801337S06008535WA0128801311000000000000
B1544553801355S06008558WA0129801316000000000000
B1544573801381S06008552WA0130301319000000000000
B1544593801396S06008520WA0130601322000000000000
B1545013801387S06008479WA0131101329000000000000
B1545033801357S06008450WA0131801336000000000000
B1545053801320S06008442WA0132401340000000000000
B1545073801289S06008463WA0133001345000000000000
B1545093801280S06008500WA0133501351000000000000
B1545113801290S06008528WA0134001356000000000000
B1545133801311S06008536WA0134501361000000000000
B1545153801331S06008520WA0134801364000000000000
B1545173801336S06008485WA0135301368000000000000
B1545193801323S06008448WA0135601371000000000000
B1545213801294S06008416WA0135901373000000000000
B1545233801258S06008401WA0136201377000000000000
B1545253801223S06008411WA0136601382000000000000
B1545273801203S06008444WA0137001386000000000000
B1545293801206S06008479WA0137201387000000000000
B1545313801227S06008496WA0137501392000000000000
B1545333801250S06008484WA0138201400000000000000
B1545353801261S06008450WA0138901410000000000000
B1545373801250S06008413WA0139701416000000000000
B1545393801222S06008384WA0140201417000000000000
B1545413801185S06008379WA0140501422000000000000
B1545433801155S06008401WA0140901426000000000000
B1545453801145S06008436WA0141301428000000000000
B1545473801155S06008467WA0141401428000000000000
B1545493801179S06008476WA0141501431000000000000
B1545513801198S06008457WA0142001439000000000000
B1545533801201S06008420WA0142801448000000000000
B1545553801184S06008385WA0143401451000000000000
B1545573801151S06008367WA0143701453000000000000
B1545593801116S06008374WA0143901456000000000000
B1546013801092S06008401WA0144301461000000000000
B1546033801085S06008437WA0144601466000000000000
B1546053801097S06008465WA0145101469000000000000
B1546073801119S06008471WA0145401474000000000000
B1546093801138S06008453WA0145801479000000000000
B1546113801142S06008420WA0146401483000000000000
B1546133801128S06008384WA0146701485000000000000
B1546153801097S06008361WA0146901487000000000000
B1546173801060S06008361WA0147101490000000000000
B1546193801034S06008385WA0147301492000000000000
B1546213801027S06008422WA0147601496000000000000
B1546233801037S06008450WA0147901503000000000000
B1546253801056S06008458WA0148501508000000000000
B1546273801076S06008444WA0149001511000000000000
B1546293801084S06008414WA0149401516000000000000
B1546313801077S06008377WA0149901522000000000000
B1546333801055S06008345WA0150301526000000000000
B1546353801023S06008329WA0150801529000000000000
B1546373800988S06008335WA0150901530000000000000
B1546393800963S06008362WA0151101532000000000000
B1546413800956S06008398WA0151301534000000000000
B1546433800968S06008427WA0151601536000000000000
B1546453800993S06008435WA0151801537000000000000
B1546473801015S06008415WA0152001539000000000000
B1546493801020S06008377WA0152401545000000000000
B1546513801004S06008340WA0152801548000000000000
B1546533800972S06008319WA0153101550000000000000
B1546553800937S06008322WA0153201551000000000000
B1546573800910S06008348WA0153301552000000000000
B1546593800902S06008385WA0153401552000000000000
B1547013800912S06008416WA0153401554000000000000
B1547033800936S06008429WA0153701557000000000000
B1547053800959S06008419WA0154201562000000000000
B1547073800971S06008388WA0154701567000000000000
B1547093800965S06008350WA0155001571000000000000
B1547113800945S06008315WA0155401575000000000000
B1547133800912S06008297WA0155701576000000000000
B1547153800877S06008298WA0155701575000000000000
B1547173800848S06008322WA0155701577000000000000
B1547193800834S06008355WA0155701579000000000000
B1547213800834S06008389WA0156001581000000000000
B1547233800846S06008418WA0156201582000000000000
B1547253800868S06008432WA0156301585000000000000
B1547273800890S06008432WA0156601587000000000000
B1547293800912S06008422WA0156901591000000000000
B1547313800928S06008398WA0157201595000000000000
B1547333800933S06008366WA0157501596000000000000
B1547353800923S06008329WA0157501593000000000000
B1547373800895S06008299WA0157501594000000000000
B1547393800860S06008289WA0157801601000000000000
B1547413800825S06008298WA0158401608000000000000
B1547433800799S06008322WA0158901612000000000000
B1547453800785S06008353WA0159101612000000000000
B1547473800785S06008388WA0159201611000000000000
B1547493800799S06008414WA0158901609000000000000
B1547513800822S06008423WA0158701608000000000000
B1547533800847S06008415WA0158901610000000000000
B1547553800868S06008396WA0159101613000000000000
B1547573800878S06008363WA0159101613000000000000
B1547593800873S06008323WA0159301611000000000000
B1548013800851S06008288WA0159201611000000000000
B1548033800817S06008268WA0159201615000000000000
B1548053800778S06008270WA0159601619000000000000
B1548073800746S06008290WA0159901624000000000000
B1548093800725S06008325WA0160301628000000000000
B1548113800718S06008364WA0160701627000000000000
B1548133800729S06008397WA0160601626000000000000
B1548153800752S06008415WA0160501625000000000000
B1548173800780S06008413WA0160501625000000000000
B1548193800800S06008388WA0160501627000000000000
B1548213800808S06008351WA0160601628000000000000
B1548233800799S06008312WA0160701627000000000000
B1548253800772S06008283WA0160701625000000000000
B1548273800734S06008271WA0160701628000000000000
B1548293800695S06008267WA0160901633000000000000
B1548313800656S06008266WA0161401638000000000000
B1548333800617S06008264WA0161601640000000000000
B1548353800578S06008263WA0161801639000000000000
B1548373800540S06008266WA0161801640000000000000
B1548393800507S06008281WA0161901643000000000000
B1548413800484S06008314WA0162001642000000000000
B1548433800481S06008351WA0161901640000000000000
B1548453800494S06008381WA0161801640000000000000
B1548473800516S06008394WA0161701637000000000000
B1548493800539S06008385WA0161501635000000000000
B1548513800557S06008362WA0161401633000000000000
B1548533800574S06008333WA0161301634000000000000
B1548553800590S06008305WA0161301636000000000000
B1548573800603S06008273WA0161401637000000000000
B1548593800609S06008236WA0161401636000000000000
B1549013800616S06008198WA0161401637000000000000
B1549033800627S06008164WA0161801641000000000000
B1549053800647S06008143WA0162301645000000000000
B1549073800669S06008133WA0162301643000000000000
B1549093800692S06008133WA0161801638000000000000
B1549113800716S06008143WA0161601634000000000000
B1549133800734S06008163WA0161101627000000000000
B1549153800752S06008188WA0160401618000000000000
B1549173800770S06008212WA0159501608000000000000
B1549193800790S06008241WA0158401595000000000000
B1549213800813S06008270WA0157301586000000000000
B1549233800837S06008301WA0156401575000000000000
B1549253800863S06008333WA0155301563000000000000
B1549273800891S06008367WA0154201553000000000000
B1549293800920S06008401WA0153201547000000000000
B1549313800949S06008435WA0152501543000000000000
B1549333800976S06008470WA0152301542000000000000
B1549353801003S06008504WA0152201541000000000000
B1549373801030S06008535WA0152201541000000000000
B1549393801059S06008563WA0152001538000000000000
B1549413801090S06008587WA0151901538000000000000
B1549433801121S06008608WA0151801537000000000000
B1549453801153S06008627WA0151701535000000000000
B1549473801184S06008649WA0151401532000000000000
B1549493801214S06008675WA0151101529000000000000
B1549513801238S06008713WA0150801527000000000000
B1549533801254S06008760WA0150701524000000000000
B1549553801264S06008812WA0150401521000000000000
B1549573801268S06008865WA0150101520000000000000
B1549593801272S06008917WA0150201524000000000000
B1550013801277S06008968WA0150501529000000000000
B1550033801283S06009017WA0151001534000000000000
B1550053801288S06009064WA0151601544000000000000
B1550073801292S06009108WA0152501553000000000000
B1550093801298S06009148WA0153301561000000000000
B1550113801316S06009173WA0154101567000000000000
B1550133801341S06009172WA0154601570000000000000
B1550153801358S06009148WA0154901569000000000000
B1550173801365S06009112WA0154801567000000000000
B1550193801362S06009073WA0154701565000000000000
B1550213801342S06009038WA0154601565000000000000
B1550233801310S06009017WA0154601564000000000000
B1550253801275S06009022WA0154401562000000000000
B1550273801248S06009050WA0154201562000000000000
B1550293801240S06009086WA0154301563000000000000
B1550313801244S06009125WA0154501564000000000000
B1550333801249S06009161WA0154801567000000000000
B1550353801251S06009199WA0154901567000000000000
B1550373801255S06009239WA0154101558000000000000
B1550393801257S06009284WA0153601550000000000000
B1550413801259S06009332WA0152801542000000000000
B1550433801263S06009381WA0152101536000000000000
B1550453801268S06009430WA0151501532000000000000
B1550473801274S06009480WA0151101527000000000000
B1550493801280S06009529WA0150501523000000000000
B1550513801285S06009577WA0150401520000000000000
B1550533801292S06009624WA0150001518000000000000
B1550553801298S06009671WA0149801516000000000000
B1550573801303S06009716WA0149401513000000000000
B1550593801309S06009763WA0149101508000000000000
B1551013801315S06009810WA0148601503000000000000
B1551033801322S06009857WA0148101496000000000000
B1551053801327S06009906WA0147401488000000000000
B1551073801333S06009958WA0146601480000000000000
B1551093801340S06010012WA0146001476000000000000
B1551113801346S06010065WA0145601474000000000000
B1551133801353S06010118WA0145401473000000000000
B1551153801357S06010171WA0145401473000000000000
B1551173801361S06010225WA0145301472000000000000
B1551193801365S06010278WA0145101469000000000000
B1551213801370S06010331WA0144901465000000000000
B1551233801375S06010385WA0144701464000000000000
B1551253801380S06010435WA0144501461000000000000
B1551273801387S06010485WA0144101457000000000000
B1551293801391S06010535WA0143901455000000000000
B1551313801394S06010585WA0143501452000000000000
B1551333801398S06010633WA0143301448000000000000
B1551353801404S06010680WA0142801442000000000000
B1551373801413S06010728WA0142201436000000000000
B1551393801427S06010772WA0141701432000000000000
B1551413801446S06010814WA0141101424000000000000
B1551433801470S06010854WA0140301417000000000000
B1551453801491S06010897WA0139701409000000000000
B1551473801509S06010944WA0139001403000000000000
B1551493801526S06010993WA0138601401000000000000
B1551513801541S06011041WA0138501399000000000000
B1551533801556S06011091WA0138301395000000000000
B1551553801569S06011141WA0138001390000000000000
B1551573801579S06011195WA0137501388000000000000
B1551593801588S06011248WA0137401392000000000000
B1552013801601S06011296WA0137701399000000000000
B1552033801618S06011339WA0138301405000000000000
B1552053801639S06011374WA0138801408000000000000
B1552073801662S06011405WA0138901404000000000000
B1552093801687S06011436WA0138601399000000000000
B1552113801710S06011468WA0138101397000000000000
B1552133801735S06011499WA0138001396000000000000
B1552153801758S06011527WA0138201400000000000000
B1552173801781S06011553WA0138401400000000000000
B1552193801804S06011579WA0138401399000000000000
B1552213801827S06011603WA0138301398000000000000
B1552233801851S06011627WA0137801391000000000000
B1552253801875S06011652WA0137201383000000000000
B1552273801900S06011677WA0136601378000000000000
B1552293801926S06011702WA0136401374000000000000
B1552313801952S06011726WA0135901371000000000000
B1552333801979S06011751WA0135701367000000000000
B1552353802005S06011777WA0135401363000000000000
B1552373802033S06011803WA0134901359000000000000
B1552393802060S06011829WA0134501355000000000000
B1552413802086S06011854WA0134301354000000000000
B1552433802112S06011878WA0134101352000000000000
B1552453802137S06011904WA0133801349000000000000
B1552473802161S06011929WA0133501344000000000000
B1552493802186S06011955WA0133101341000000000000
B1552513802207S06011984WA0133001342000000000000
B1552533802228S06012014WA0132901338000000000000
B1552553802249S06012045WA0132301332000000000000
B1552573802269S06012077WA0131901328000000000000
B1552593802290S06012111WA0131601327000000000000
B1553013802312S06012145WA0131601329000000000000
B1553033802334S06012179WA0131701334000000000000
B1553053802356S06012209WA0132101341000000000000
B1553073802382S06012235WA0132801351000000000000
B1553093802407S06012259WA0133701363000000000000
B1553113802431S06012284WA0134801372000000000000
B1553133802454S06012307WA0135701379000000000000
B1553153802479S06012310WA0136401385000000000000
B1553173802496S06012283WA0137101391000000000000
B1553193802494S06012242WA0137601396000000000000
B1553213802472S06012209WA0138201399000000000000
B1553233802437S06012197WA0138601403000000000000
B1553253802402S06012210WA0139001407000000000000
B1553273802381S06012240WA0139401411000000000000
B1553293802379S06012274WA0139701414000000000000
B1553313802390S06012300WA0139901414000000000000
B1553333802411S06012311WA0140001415000000000000
B1553353802434S06012305WA0140201419000000000000
B1553373802450S06012277WA0140501421000000000000
B1553393802450S06012237WA0140601420000000000000
B1553413802436S06012197WA0140601420000000000000
B1553433802403S06012170WA0140601422000000000000
B1553453802364S06012170WA0140801425000000000000
B1553473802333S06012197WA0141201430000000000000
B1553493802321S06012237WA0141701436000000000000
B1553513802320S06012277WA0142301440000000000000
B1553533802324S06012315WA0142601442000000000000
B1553553802337S06012346WA0142701446000000000000
B1553573802359S06012362WA0143001448000000000000
B1553593802384S06012363WA0143201448000000000000
B1554013802410S06012354WA0143201448000000000000
B1554033802432S06012336WA0143101448000000000000
B1554053802446S06012306WA0143301453000000000000
B1554073802453S06012270WA0143801457000000000000
B1554093802451S06012231WA0144101458000000000000
B1554113802447S06012190WA0144201457000000000000
B1554133802438S06012150WA0144201458000000000000
B1554153802421S06012112WA0144201460000000000000
B1554173802395S06012081WA0144401462000000000000
B1554193802362S06012062WA0144601464000000000000
B1554213802325S06012059WA0145101469000000000000
B1554233802290S06012071WA0145501472000000000000
B1554253802256S06012085WA0145901477000000000000
B1554273802220S06012092WA0146201482000000000000
B1554293802184S06012086WA0146901489000000000000
B1554313802147S06012077WA0147401495000000000000
B1554333802112S06012080WA0147901501000000000000
B1554353802087S06012105WA0148401504000000000000
B1554373802086S06012137WA0148501501000000000000
B1554393802106S06012157WA0148501499000000000000
B1554413802130S06012142WA0148401503000000000000
B1554433802137S06012103WA0148701506000000000000
B1554453802117S06012064WA0148901509000000000000
B1554473802080S06012047WA0149301513000000000000
B1554493802042S06012053WA0149701518000000000000
B1554513802018S06012082WA0150101523000000000000
B1554533802017S06012118WA0150501524000000000000
B1554553802034S06012141WA0150701524000000000000
B1554573802061S06012137WA0150701526000000000000
B1554593802080S06012103WA0151001532000000000000
B1555013802074S06012059WA0151601538000000000000
B1555033802048S06012023WA0152101543000000000000
B1555053802011S06012011WA0152601546000000000000
B1555073801976S06012027WA0153101549000000000000
B1555093801956S06012059WA0153301554000000000000
B1555113801953S06012097WA0153501555000000000000
B1555133801968S06012124WA0153601554000000000000
B1555153801994S06012128WA0153801558000000000000
B1555173802015S06012105WA0154301567000000000000
B1555193802022S06012067WA0155101577000000000000
B1555213802015S06012024WA0155901583000000000000
B1555233801991S06011990WA0156601589000000000000
B1555253801956S06011972WA0157001592000000000000
B1555273801921S06011977WA0157301594000000000000
B1555293801895S06012002WA0157601598000000000000
B1555313801886S06012037WA0158001602000000000000
B1555333801894S06012067WA0158001599000000000000
B1555353801914S06012081WA0157901598000000000000
B1555373801939S06012071WA0158101604000000000000
B1555393801961S06012050WA0158401611000000000000
B1555413801976S06012019WA0159101617000000000000
B1555433801973S06011978WA0159701623000000000000
B1555453801951S06011942WA0160301627000000000000
B1555473801916S06011924WA0160701633000000000000
B1555493801882S06011932WA0161201637000000000000
B1555513801861S06011959WA0161501637000000000000
B1555533801861S06011991WA0161601635000000000000
B1555553801878S06012011WA0161501636000000000000
B1555573801903S06012006WA0161601639000000000000
B1555593801918S06011976WA0161901646000000000000
B1556013801918S06011934WA0162501652000000000000
B1556033801901S06011891WA0163201658000000000000
B1556053801870S06011861WA0163901664000000000000
B1556073801834S06011858WA0164401671000000000000
B1556093801805S06011876WA0165001672000000000000
B1556113801795S06011907WA0165101671000000000000
B1556133801803S06011934WA0165001673000000000000
B1556153801823S06011943WA0165101677000000000000
B1556173801844S06011930WA0165701683000000000000
B1556193801857S06011897WA0166201687000000000000
B1556213801859S06011855WA0166501688000000000000
B1556233801844S06011813WA0166701690000000000000
B1556253801814S06011785WA0166901692000000000000
B1556273801778S06011778WA0167201697000000000000
B1556293801745S06011795WA0167601701000000000000
B1556313801730S06011825WA0168001706000000000000
B1556333801734S06011854WA0168401710000000000000
B1556353801753S06011865WA0168701711000000000000
B1556373801778S06011856WA0168701712000000000000
B1556393801796S06011825WA0169101717000000000000
B1556413801799S06011782WA0169301722000000000000
B1556433801786S06011739WA0169901726000000000000
B1556453801761S06011705WA0170201726000000000000
B1556473801726S06011685WA0170201728000000000000
B1556493801691S06011687WA0170501732000000000000
B1556513801664S06011709WA0170801735000000000000
B1556533801651S06011739WA0171101736000000000000
B1556553801654S06011769WA0171201737000000000000
B1556573801674S06011783WA0171201738000000000000
B1556593801697S06011781WA0171401743000000000000
B1557013801722S06011768WA0171701744000000000000
B1557033801745S06011755WA0172001745000000000000
B1557053801770S06011752WA0172101749000000000000
B1557073801791S06011760WA0172401751000000000000
B1557093801809S06011774WA0172401749000000000000
B1557113801826S06011793WA0172001741000000000000
B1557133801840S06011816WA0171201732000000000000
B1557153801851S06011845WA0170501725000000000000
B1557173801859S06011876WA0169801717000000000000
B1557193801862S06011910WA0169001711000000000000
B1557213801864S06011946WA0168401705000000000000
B1557233801859S06011982WA0167901700000000000000
B1557253801851S06012019WA0167501695000000000000
B1557273801839S06012056WA0167101689000000000000
B1557293801822S06012092WA0166601686000000000000
B1557313801803S06012127WA0166301684000000000000
B1557333801778S06012157WA0166001681000000000000
B1557353801748S06012181WA0165701676000000000000
B1557373801716S06012202WA0165101671000000000000
B1557393801680S06012219WA0164801667000000000000
B1557413801641S06012229WA0164301660000000000000
B1557433801601S06012227WA0163601649000000000000
B1557453801560S06012211WA0162401632000000000000
B1557473801518S06012180WA0160701607000000000000
B1557493801482S06012133WA0158301578000000000000
B1557513801456S06012071WA0155801556000000000000
B1557533801445S06012002WA0154201550000000000000
B1557553801448S06011933WA0154001556000000000000
B1557573801454S06011868WA0154701569000000000000
B1557593801461S06011807WA0155901582000000000000
B1558013801465S06011750WA0157001595000000000000
B1558033801467S06011692WA0158001606000000000000
B1558053801471S06011642WA0159301624000000000000
B1558073801480S06011599WA0160901639000000000000
B1558093801493S06011564WA0162101643000000000000
B1558113801511S06011531WA0162201639000000000000
B1558133801531S06011501WA0161301623000000000000
B1558153801556S06011471WA0159501595000000000000
B1558173801586S06011436WA0156801568000000000000
B1558193801619S06011400WA0155001563000000000000
B1558213801651S06011364WA0154701564000000000000
B1558233801682S06011331WA0154701567000000000000
B1558253801712S06011301WA0155001569000000000000
B1558273801742S06011273WA0155101569000000000000
B1558293801771S06011245WA0154901565000000000000
B1558313801801S06011219WA0154501559000000000000
B1558333801833S06011193WA0153901554000000000000
B1558353801864S06011170WA0153401550000000000000
B1558373801895S06011146WA0153101548000000000000
B1558393801926S06011122WA0153101547000000000000
B1558413801952S06011093WA0152901548000000000000
B1558433801974S06011058WA0153001549000000000000
B1558453801995S06011022WA0153101549000000000000
B1558473802015S06010985WA0153101547000000000000
B1558493802037S06010950WA0152801541000000000000
B1558513802063S06010919WA0152101536000000000000
B1558533802090S06010890WA0152001543000000000000
B1558553802116S06010864WA0152501547000000000000
B1558573802141S06010838WA0152601547000000000000
B1558593802164S06010812WA0152501545000000000000
B1559013802189S06010786WA0152301545000000000000
B1559033802212S06010762WA0152501549000000000000
B1559053802234S06010736WA0153001556000000000000
B1559073802256S06010710WA0153801565000000000000
B1559093802276S06010685WA0154401570000000000000
B1559113802298S06010662WA0154601570000000000000
B1559133802321S06010639WA0154901575000000000000
B1559153802345S06010617WA0155201578000000000000
B1559173802368S06010597WA0155501580000000000000
B1559193802390S06010576WA0155701584000000000000
B1559213802412S06010554WA0156001584000000000000
B1559233802434S06010533WA0155901571000000000000
B1559253802460S06010508WA0154601553000000000000
B1559273802489S06010482WA0153201542000000000000
B1559293802522S06010456WA0152201535000000000000
B1559313802555S06010433WA0151601531000000000000
B1559333802588S06010408WA0151401534000000000000
B1559353802619S06010383WA0152001548000000000000
B1559373802648S06010360WA0153101561000000000000
B1559393802675S06010338WA0154201570000000000000
B1559413802700S06010312WA0155001579000000000000
B1559433802722S06010287WA0155801584000000000000
B1559453802743S06010262WA0156201584000000000000
B1559473802763S06010238WA0156101579000000000000
B1559493802787S06010212WA0155401567000000000000
B1559513802813S06010186WA0154101552000000000000
B1559533802843S06010164WA0152801539000000000000
B1559553802875S06010144WA0151301522000000000000
B1559573802912S06010125WA0149601501000000000000
B1559593802952S06010104WA0148101489000000000000
B1600013802992S06010083WA0147401487000000000000
B1600033803031S06010064WA0147301488000000000000
B1600053803070S06010044WA0147301490000000000000
B1600073803107S06010025WA0147501494000000000000
B1600093803142S06010006WA0147701498000000000000
B1600113803174S06009988WA0148001499000000000000
B1600133803208S06009973WA0148101498000000000000
B1600153803240S06009957WA0148101498000000000000
B1600173803272S06009941WA0147801494000000000000
B1600193803303S06009924WA0147501489000000000000
B1600213803334S06009906WA0147101486000000000000
B1600233803363S06009887WA0146901485000000000000
B1600253803393S06009870WA0146701481000000000000
B1600273803422S06009856WA0146401479000000000000
B1600293803452S06009841WA0146201478000000000000
B1600313803484S06009826WA0146301480000000000000
B1600333803513S06009804WA0146601486000000000000
B1600353803538S06009775WA0147001489000000000000
B1600373803555S06009736WA0147401493000000000000
B1600393803559S06009690WA0148001499000000000000
B1600413803556S06009645WA0148501504000000000000
B1600433803541S06009599WA0149001510000000000000
B1600453803512S06009563WA0149301517000000000000
B1600473803473S06009538WA0150001524000000000000
B1600493803432S06009524WA0150601529000000000000
B1600513803387S06009523WA0151101532000000000000
B1600533803347S06009538WA0151401537000000000000
B1600553803316S06009570WA0151801543000000000000
B1600573803296S06009610WA0152401548000000000000
B1600593803292S06009650WA0152901553000000000000
B1601013803302S06009683WA0153401558000000000000
B1601033803321S06009697WA0153801560000000000000
B1601053803344S06009696WA0153901559000000000000
B1601073803369S06009680WA0154001560000000000000
B1601093803394S06009666WA0154201563000000000000
B1601113803417S06009645WA0154401565000000000000
B1601133803426S06009612WA0154801572000000000000
B1601153803421S06009576WA0155401579000000000000
B1601173803400S06009542WA0155901580000000000000
B1601193803367S06009523WA0156001581000000000000
B1601213803326S06009520WA0156301585000000000000
B1601233803287S06009533WA0156601588000000000000
B1601253803257S06009563WA0157001591000000000000
B1601273803244S06009601WA0157401596000000000000
B1601293803248S06009636WA0157601600000000000000
B1601313803266S06009655WA0157901600000000000000
B1601333803291S06009658WA0157801597000000000000
B1601353803315S06009644WA0157701599000000000000
B1601373803329S06009616WA0157901604000000000000
B1601393803329S06009581WA0158401608000000000000
B1601413803312S06009549WA0158801607000000000000
B1601433803278S06009531WA0158801607000000000000
B1601453803240S06009529WA0158801607000000000000
B1601473803201S06009541WA0158901609000000000000
B1601493803168S06009563WA0159001610000000000000
B1601513803149S06009598WA0159001609000000000000
B1601533803152S06009635WA0159001606000000000000
B1601553803170S06009661WA0158701603000000000000
B1601573803195S06009675WA0158601603000000000000
B1601593803222S06009679WA0158701606000000000000
B1602013803248S06009671WA0158801610000000000000
B1602033803264S06009646WA0159201616000000000000
B1602053803266S06009614WA0159801620000000000000
B1602073803255S06009581WA0160101622000000000000
B1602093803230S06009555WA0160101622000000000000
B1602113803199S06009537WA0160201622000000000000
B1602133803162S06009534WA0160301621000000000000
B1602153803127S06009551WA0160301621000000000000
B1602173803099S06009583WA0160401625000000000000
B1602193803079S06009620WA0160701627000000000000
B1602213803074S06009659WA0160701627000000000000
B1602233803088S06009688WA0160701627000000000000
B1602253803110S06009694WA0160701628000000000000
B1602273803131S06009679WA0160901631000000000000
B1602293803142S06009648WA0161001632000000000000
B1602313803143S06009612WA0161101633000000000000
B1602333803135S06009576WA0161201634000000000000
B1602353803109S06009547WA0161301635000000000000
B1602373803074S06009534WA0161401636000000000000
B1602393803036S06009536WA0161501637000000000000
B1602413803003S06009553WA0161601638000000000000
B1602433802975S06009583WA0161701641000000000000
B1602453802961S06009619WA0162001643000000000000
B1602473802958S06009655WA0162001641000000000000
B1602493802966S06009687WA0161901640000000000000
B1602513802983S06009709WA0161801639000000000000
B1602533803006S06009715WA0161601635000000000000
B1602553803029S06009701WA0161401635000000000000
B1602573803045S06009674WA0161401636000000000000
B1602593803062S06009645WA0160901627000000000000
B1603013803083S06009615WA0160201620000000000000
B1603033803109S06009586WA0159301608000000000000
B1603053803138S06009559WA0157801592000000000000
B1603073803170S06009533WA0156301576000000000000
B1603093803204S06009506WA0154901562000000000000
B1603113803240S06009479WA0153801550000000000000
B1603133803277S06009450WA0152601535000000000000
B1603153803315S06009419WA0152001529000000000000
B1603173803352S06009385WA0151401529000000000000
B1603193803389S06009355WA0151701536000000000000
B1603213803422S06009325WA0152201544000000000000
B1603233803455S06009295WA0152901551000000000000
B1603253803486S06009265WA0153501558000000000000
B1603273803516S06009237WA0154101567000000000000
B1603293803543S06009211WA0154801570000000000000
B1603313803569S06009183WA0155001571000000000000
B1603333803594S06009156WA0155001569000000000000
B1603353803619S06009129WA0154901568000000000000
B1603373803642S06009102WA0154701567000000000000
B1603393803666S06009074WA0154501562000000000000
B1603413803690S06009046WA0154001552000000000000
B1603433803715S06009013WA0153001545000000000000
B1603453803742S06008979WA0152201535000000000000
B1603473803770S06008946WA0151401525000000000000
B1603493803798S06008910WA0150701522000000000000
B1603513803825S06008875WA0150401520000000000000
B1603533803853S06008840WA0150201515000000000000
B1603553803880S06008804WA0150001512000000000000
B1603573803906S06008769WA0149801516000000000000
B1603593803932S06008734WA0150001515000000000000
B1604013803958S06008700WA0149901512000000000000
B1604033803984S06008666WA0149301503000000000000
B1604053804013S06008631WA0148501495000000000000
B1604073804041S06008596WA0147801490000000000000
B1604093804070S06008559WA0147501488000000000000
B1604113804098S06008523WA0147201486000000000000
B1604133804127S06008488WA0147101485000000000000
B1604153804156S06008454WA0147101486000000000000
B1604173804183S06008420WA0147201490000000000000
B1604193804210S06008388WA0147301492000000000000
B1604213804236S06008355WA0147501493000000000000
B1604233804261S06008324WA0147601494000000000000
B1604253804284S06008292WA0147801494000000000000
B1604273804308S06008260WA0147801495000000000000
B1604293804331S06008229WA0147601493000000000000
B1604313804353S06008197WA0147501490000000000000
B1604333804375S06008166WA0147401488000000000000
B1604353804397S06008133WA0147101485000000000000
B1604373804420S06008099WA0146801481000000000000
B1604393804442S06008065WA0146401476000000000000
B1604413804466S06008030WA0145601464000000000000
B1604433804494S06007995WA0144701459000000000000
B1604453804521S06007960WA0144301456000000000000
B1604473804547S06007928WA0144001454000000000000
B1604493804573S06007895WA0143801451000000000000
B1604513804598S06007864WA0143501447000000000000
B1604533804622S06007831WA0143201446000000000000
B1604553804648S06007803WA0143001443000000000000
B1604573804677S06007787WA0142801441000000000000
B1604593804709S06007783WA0142601440000000000000
B1605013804742S06007787WA0142501437000000000000
B1605033804774S06007796WA0142201432000000000000
B1605053804810S06007811WA0141801430000000000000
B1605073804843S06007826WA0141701431000000000000
B1605093804877S06007843WA0141801434000000000000
B1605113804910S06007860WA0142001436000000000000
B1605133804942S06007880WA0142201441000000000000
B1605153804972S06007900WA0142601448000000000000
B1605173804999S06007922WA0143301455000000000000
B1605193805025S06007946WA0144201464000000000000
B1605213805051S06007961WA0145001473000000000000
B1605233805073S06007947WA0145901483000000000000
B1605253805083S06007913WA0146901491000000000000
B1605273805073S06007874WA0147401491000000000000
B1605293805044S06007846WA0147701490000000000000
B1605313805007S06007843WA0147701490000000000000
B1605333804979S06007865WA0147701492000000000000
B1605353804968S06007900WA0147901496000000000000
B1605373804975S06007930WA0148201500000000000000
B1605393804993S06007943WA0148601503000000000000
B1605413805012S06007935WA0148801505000000000000
B1605433805024S06007908WA0149101507000000000000
B1605453805021S06007870WA0149301509000000000000
B1605473805002S06007835WA0149401512000000000000
B1605493804972S06007813WA0149501513000000000000
B1605513804937S06007813WA0149701513000000000000
B1605533804907S06007831WA0149801515000000000000
B1605553804890S06007861WA0149901515000000000000
B1605573804889S06007894WA0149901513000000000000
B1605593804903S06007916WA0149701513000000000000
B1606013804924S06007920WA0149701514000000000000
B1606033804943S06007904WA0149901517000000000000
B1606053804954S06007872WA0150201523000000000000
B1606073804950S06007834WA0150901528000000000000
B1606093804932S06007800WA0151001530000000000000
B1606113804903S06007778WA0151201529000000000000
B1606133804868S06007774WA0151201528000000000000
B1606153804837S06007790WA0151001527000000000000
B1606173804816S06007818WA0150901526000000000000
B1606193804810S06007852WA0150801527000000000000
B1606213804819S06007881WA0150901526000000000000
B1606233804838S06007895WA0150901524000000000000
B1606253804862S06007889WA0150601522000000000000
B1606273804885S06007867WA0150501527000000000000
B1606293804899S06007835WA0150801531000000000000
B1606313804901S06007795WA0151301535000000000000
B1606333804885S06007756WA0151801538000000000000
B1606353804856S06007727WA0152001540000000000000
B1606373804820S06007717WA0152101539000000000000
B1606393804782S06007720WA0152001537000000000000
B1606413804750S06007737WA0151701533000000000000
B1606433804732S06007768WA0151601534000000000000
B1606453804737S06007799WA0151601535000000000000
B1606473804759S06007812WA0151601533000000000000
B1606493804784S06007805WA0151501535000000000000
B1606513804808S06007795WA0151901540000000000000
B1606533804830S06007787WA0152301544000000000000
B1606553804852S06007778WA0152601547000000000000
B1606573804869S06007755WA0152801548000000000000
B1606593804872S06007720WA0152801547000000000000
B1607013804856S06007683WA0152701543000000000000
B1607033804826S06007659WA0152401535000000000000
B1607053804787S06007651WA0151801532000000000000
B1607073804750S06007655WA0151601537000000000000
B1607093804713S06007662WA0151801537000000000000
B1607113804676S06007665WA0151601533000000000000
B1607133804637S06007666WA0151201528000000000000
B1607153804598S06007666WA0150901526000000000000
B1607173804557S06007665WA0150501520000000000000
B1607193804517S06007662WA0150001512000000000000
B1607213804477S06007660WA0149501507000000000000
B1607233804435S06007655WA0148701499000000000000
B1607253804394S06007648WA0148101493000000000000
B1607273804351S06007643WA0147401487000000000000
B1607293804308S06007638WA0146801481000000000000
B1607313804265S06007631WA0146201474000000000000
B1607333804221S06007623WA0145401466000000000000
B1607353804175S06007613WA0144601459000000000000
B1607373804131S06007605WA0143901450000000000000
B1607393804085S06007596WA0143301441000000000000
B1607413804040S06007586WA0142501434000000000000
B1607433803994S06007575WA0141801425000000000000
B1607453803948S06007568WA0140701410000000000000
B1607473803897S06007570WA0139401402000000000000
B1607493803848S06007586WA0138801399000000000000
B1607513803799S06007608WA0138601400000000000000
B1607533803753S06007631WA0138601402000000000000
B1607553803706S06007655WA0138701403000000000000
B1607573803659S06007670WA0138901404000000000000
B1607593803611S06007673WA0138901404000000000000
B1608013803563S06007666WA0138801402000000000000
B1608033803516S06007656WA0138601400000000000000
B1608053803469S06007646WA0138601403000000000000
B1608073803425S06007635WA0138901406000000000000
B1608093803382S06007627WA0139001407000000000000
B1608113803338S06007620WA0138901404000000000000
B1608133803295S06007613WA0138501400000000000000
B1608153803251S06007605WA0138201397000000000000
B1608173803207S06007596WA0138001395000000000000
B1608193803161S06007587WA0137801392000000000000
B1608213803117S06007578WA0137501388000000000000
B1608233803071S06007569WA0137101380000000000000
B1608253803025S06007561WA0136401372000000000000
B1608273802977S06007552WA0135701366000000000000
B1608293802928S06007543WA0135101362000000000000
B1608313802880S06007532WA0134601356000000000000
B1608333802832S06007521WA0134001348000000000000
B1608353802783S06007509WA0133201342000000000000
B1608373802733S06007497WA0132801339000000000000
B1608393802685S06007487WA0132601338000000000000
B1608413802637S06007477WA0132301336000000000000
B1608433802590S06007467WA0132101334000000000000
B1608453802542S06007457WA0132201335000000000000
B1608473802496S06007443WA0132201336000000000000
B1608493802449S06007430WA0132201336000000000000
B1608513802403S06007415WA0132201334000000000000
B1608533802358S06007401WA0132001334000000000000
B1608553802312S06007388WA0132001333000000000000
B1608573802267S06007376WA0131901331000000000000
B1608593802220S06007365WA0131701329000000000000
B1609013802174S06007353WA0131601328000000000000
B1609033802129S06007343WA0131401326000000000000
B1609053802083S06007332WA0131101323000000000000
B1609073802038S06007323WA0130801319000000000000
B1609093801992S06007315WA0130401315000000000000
B1609113801947S06007306WA0130101313000000000000
B1609133801901S06007298WA0129801311000000000000
B1609153801857S06007289WA0129601309000000000000
B1609173801812S06007280WA0129501305000000000000
B1609193801768S06007271WA0129001301000000000000
B1609213801722S06007261WA0128701299000000000000
B1609233801677S06007250WA0128601298000000000000
B1609253801632S06007239WA0128601300000000000000
B1609273801591S06007228WA0128801303000000000000
B1609293801550S06007215WA0128901302000000000000
B1609313801510S06007205WA0128801302000000000000
B1609333801470S06007194WA0128801300000000000000
B1609353801431S06007184WA0128601297000000000000
B1609373801391S06007175WA0128301294000000000000
B1609393801352S06007166WA0128001293000000000000
B1609413801311S06007158WA0127901291000000000000
B1609433801272S06007150WA0127801290000000000000
B1609453801235S06007144WA0127501288000000000000
B1609473801196S06007136WA0127201284000000000000
B1609493801157S06007129WA0127001279000000000000
B1609513801116S06007123WA0126401273000000000000
B1609533801076S06007115WA0125801266000000000000
B1609553801034S06007106WA0125201263000000000000
B1609573800993S06007096WA0125101263000000000000
B1609593800950S06007085WA0125201265000000000000
B1610013800910S06007075WA0125601270000000000000
B1610033800869S06007063WA0125801272000000000000
B1610053800830S06007048WA0125801272000000000000
B1610073800793S06007031WA0125901276000000000000
B1610093800756S06007019WA0126401281000000000000
B1610113800720S06007016WA0126701283000000000000
B1610133800689S06007029WA0126901284000000000000
B1610153800666S06007057WA0126801281000000000000
B1610173800660S06007090WA0126701278000000000000
B1610193800668S06007119WA0126201273000000000000
B1610213800687S06007132WA0125701266000000000000
B1610233800713S06007126WA0124901256000000000000
B1610253800738S06007103WA0124201250000000000000
B1610273800761S06007076WA0123801248000000000000
B1610293800782S06007045WA0123501246000000000000
B1610313800802S06007012WA0123301243000000000000
B1610333800820S06006979WA0123101241000000000000
B1610353800835S06006941WA0123001243000000000000
B1610373800850S06006903WA0123101243000000000000
B1610393800861S06006864WA0123201245000000000000
B1610413800871S06006825WA0123301246000000000000
B1610433800876S06006786WA0123301245000000000000
B1610453800871S06006746WA0123501249000000000000
B1610473800865S06006706WA0123701251000000000000
B1610493800873S06006672WA0123901254000000000000
B1610513800891S06006650WA0124201258000000000000
B1610533800916S06006641WA0124501260000000000000
B1610553800939S06006646WA0124701261000000000000
B1610573800963S06006658WA0124701260000000000000
B1610593800986S06006659WA0124601258000000000000
B1611013801004S06006639WA0124601256000000000000
B1611033801007S06006606WA0124301253000000000000
B1611053800985S06006574WA0124101248000000000000
B1611073800949S06006568WA0123801244000000000000
B1611093800913S06006586WA0123401242000000000000
B1611113800884S06006615WA0123301243000000000000
B1611133800856S06006647WA0123401244000000000000
B1611153800829S06006680WA0123501246000000000000
B1611173800804S06006712WA0123601249000000000000
B1611193800785S06006749WA0123801250000000000000
B1611213800780S06006786WA0123801250000000000000
B1611233800786S06006823WA0123601250000000000000
B1611253800800S06006850WA0123601250000000000000
B1611273800822S06006866WA0123401248000000000000
B1611293800847S06006869WA0123001241000000000000
B1611313800874S06006868WA0122101230000000000000
B1611333800903S06006867WA0121001217000000000000
B1611353800934S06006864WA0119901206000000000000
B1611373800968S06006862WA0118801195000000000000
B1611393801003S06006854WA0118401186000000000000
B1611413801036S06006830WA0117601180000000000000
B1611433801066S06006797WA0117101178000000000000
B1611453801093S06006763WA0117001179000000000000
B1611473801119S06006732WA0117101179000000000000
B1611493801147S06006707WA0117201181000000000000
B1611513801179S06006691WA0117401183000000000000
B1611533801209S06006681WA0117501183000000000000
B1611553801238S06006674WA0117401181000000000000
B1611573801267S06006669WA0117201176000000000000
B1611593801297S06006665WA0116601170000000000000
B1612013801328S06006663WA0115901164000000000000
B1612033801359S06006656WA0115401162000000000000
B1612053801391S06006647WA0115301161000000000000
B1612073801422S06006638WA0115201160000000000000
B1612093801453S06006629WA0114901157000000000000
B1612113801484S06006621WA0114501152000000000000
B1612133801515S06006616WA0114101148000000000000
B1612153801548S06006613WA0113601144000000000000
B1612173801582S06006611WA0112901133000000000000
B1612193801617S06006608WA0112501125000000000000
B1612213801653S06006603WA0111701118000000000000
B1612233801690S06006598WA0111101113000000000000
B1612253801726S06006594WA0110601109000000000000
B1612273801762S06006589WA0110201105000000000000
B1612293801797S06006583WA0110001105000000000000
B1612313801831S06006580WA0109801104000000000000
B1612333801865S06006574WA0109601102000000000000
B1612353801899S06006573WA0109501099000000000000
B1612373801933S06006572WA0109001094000000000000
B1612393801966S06006569WA0108601090000000000000
B1612413802000S06006567WA0108201086000000000000
B1612433802035S06006564WA0107901084000000000000
B1612453802069S06006563WA0107601082000000000000
B1612473802104S06006560WA0107501081000000000000
B1612493802138S06006559WA0107501080000000000000
B1612513802172S06006556WA0107501080000000000000
B1612533802206S06006555WA0107401079000000000000
B1612553802239S06006555WA0107401080000000000000
B1612573802273S06006557WA0107401084000000000000
B1612593802306S06006565WA0107701088000000000000
B1613013802336S06006577WA0108201093000000000000
B1613033802364S06006590WA0108701098000000000000
B1613053802392S06006604WA0109101102000000000000
B1613073802419S06006616WA0109501106000000000000
B1613093802446S06006629WA0110001112000000000000
B1613113802472S06006633WA0110501118000000000000
B1613133802496S06006619WA0111101124000000000000
B1613153802507S06006585WA0111601127000000000000
B1613173802502S06006544WA0112001130000000000000
B1613193802480S06006511WA0112201133000000000000
B1613213802446S06006494WA0112501135000000000000
B1613233802411S06006500WA0112801135000000000000
B1613253802382S06006526WA0112901137000000000000
B1613273802368S06006563WA0113001137000000000000
B1613293802369S06006600WA0113201142000000000000
B1613313802380S06006633WA0113401146000000000000
B1613333802394S06006660WA0113801150000000000000
B1613353802414S06006680WA0114101154000000000000
B1613373802436S06006689WA0114501158000000000000
B1613393802458S06006698WA0114801162000000000000
B1613413802477S06006712WA0115101164000000000000
B1613433802497S06006728WA0115301166000000000000
B1613453802516S06006746WA0115301163000000000000
B1613473802538S06006768WA0115101158000000000000
B1613493802562S06006790WA0114501153000000000000
B1613513802587S06006814WA0114201152000000000000
B1613533802613S06006841WA0114101156000000000000
B1613553802636S06006868WA0114801171000000000000
B1613573802658S06006895WA0116101184000000000000
B1613593802680S06006916WA0117301193000000000000
B1614013802705S06006914WA0118101200000000000000
B1614033802719S06006885WA0118801204000000000000
B1614053802713S06006846WA0119301204000000000000
B1614073802685S06006817WA0119501204000000000000
B1614093802646S06006815WA0119601207000000000000
B1614113802616S06006838WA0119901214000000000000
B1614133802606S06006875WA0120501220000000000000
B1614153802619S06006905WA0121001223000000000000
B1614173802642S06006911WA0121401227000000000000
B1614193802665S06006892WA0121701230000000000000
B1614213802668S06006854WA0121901233000000000000
B1614233802653S06006816WA0122301236000000000000
B1614253802622S06006794WA0122701240000000000000
B1614273802584S06006797WA0123301247000000000000
B1614293802553S06006816WA0123901255000000000000
B1614313802533S06006849WA0124601261000000000000
B1614333802538S06006880WA0125201266000000000000
B1614353802558S06006894WA0125601271000000000000
B1614373802580S06006885WA0126201276000000000000
B1614393802594S06006858WA0126501277000000000000
B1614413802593S06006820WA0126701280000000000000
B1614433802575S06006784WA0127101284000000000000
B1614453802542S06006764WA0127601289000000000000
B1614473802507S06006768WA0128301298000000000000
B1614493802481S06006794WA0129001305000000000000
B1614513802473S06006829WA0129401313000000000000
B1614533802484S06006856WA0130001321000000000000
B1614553802505S06006863WA0130901327000000000000
B1614573802524S06006845WA0131401331000000000000
B1614593802529S06006808WA0131701333000000000000
B1615013802515S06006771WA0132001334000000000000
B1615033802483S06006747WA0132201336000000000000
B1615053802446S06006752WA0132401342000000000000
B1615073802419S06006780WA0133001349000000000000
B1615093802411S06006816WA0133701358000000000000
B1615113802423S06006845WA0134501365000000000000
B1615133802446S06006851WA0135301375000000000000
B1615153802467S06006832WA0136001380000000000000
B1615173802473S06006795WA0136401382000000000000
B1615193802459S06006756WA0136801384000000000000
B1615213802428S06006733WA0137101386000000000000
B1615233802390S06006733WA0137301391000000000000
B1615253802363S06006758WA0137701394000000000000
B1615273802350S06006794WA0138101400000000000000
B1615293802350S06006829WA0138801407000000000000
B1615313802367S06006850WA0139501415000000000000
B1615333802389S06006847WA0140101419000000000000
B1615353802406S06006824WA0140401422000000000000
B1615373802408S06006785WA0140601423000000000000
B1615393802392S06006747WA0140701421000000000000
B1615413802358S06006726WA0140601418000000000000
B1615433802321S06006732WA0140501417000000000000
B1615453802295S06006760WA0140601424000000000000
B1615473802290S06006797WA0141401436000000000000
B1615493802301S06006825WA0142201443000000000000
B1615513802321S06006833WA0142801449000000000000
B1615533802342S06006816WA0143301454000000000000
B1615553802351S06006781WA0143801459000000000000
B1615573802343S06006742WA0144101460000000000000
B1615593802319S06006710WA0144101457000000000000
B1616013802284S06006699WA0144001454000000000000
B1616033802249S06006715WA0143901453000000000000
B1616053802229S06006749WA0143801458000000000000
B1616073802228S06006788WA0144001465000000000000
B1616093802237S06006823WA0144701472000000000000
B1616113802255S06006847WA0145301478000000000000
B1616133802280S06006851WA0145901484000000000000
B1616153802302S06006829WA0146501488000000000000
B1616173802310S06006791WA0146701489000000000000
B1616193802295S06006751WA0147001490000000000000
B1616213802265S06006724WA0147101490000000000000
B1616233802228S06006720WA0147201488000000000000
B1616253802198S06006742WA0147201491000000000000
B1616273802185S06006777WA0147501497000000000000
B1616293802190S06006812WA0147901501000000000000
B1616313802206S06006840WA0148401506000000000000
B1616333802228S06006850WA0149101513000000000000
B1616353802252S06006840WA0149501516000000000000
B1616373802267S06006810WA0149701516000000000000
B1616393802264S06006769WA0149801515000000000000
B1616413802241S06006733WA0149601513000000000000
B1616433802204S06006717WA0149601517000000000000
B1616453802168S06006725WA0150001522000000000000
B1616473802141S06006751WA0150601529000000000000
B1616493802128S06006786WA0151201535000000000000
B1616513802130S06006821WA0151601538000000000000
B1616533802145S06006846WA0151901542000000000000
B1616553802168S06006854WA0152401549000000000000
B1616573802187S06006837WA0153101556000000000000
B1616593802193S06006804WA0153401557000000000000
B1617013802178S06006769WA0153401550000000000000
B1617033802146S06006746WA0152901544000000000000
B1617053802108S06006747WA0152401542000000000000
B1617073802080S06006772WA0152601548000000000000
B1617093802068S06006807WA0152901554000000000000
B1617113802069S06006842WA0153301557000000000000
B1617133802080S06006873WA0153601558000000000000
B1617153802102S06006889WA0153701559000000000000
B1617173802125S06006885WA0153801563000000000000
B1617193802143S06006866WA0154001565000000000000
B1617213802150S06006836WA0154201565000000000000
B1617233802142S06006803WA0154201559000000000000
B1617253802119S06006777WA0153701549000000000000
B1617273802083S06006769WA0152801543000000000000
B1617293802051S06006788WA0152501547000000000000
B1617313802034S06006820WA0152801556000000000000
B1617333802037S06006854WA0153501561000000000000
B1617353802050S06006880WA0153901563000000000000
B1617373802069S06006901WA0154001563000000000000
B1617393802089S06006919WA0153801560000000000000
B1617413802111S06006928WA0153301554000000000000
B1617433802135S06006928WA0152901553000000000000
B1617453802159S06006921WA0152901553000000000000
B1617473802181S06006908WA0152801551000000000000
B1617493802204S06006898WA0152601548000000000000
B1617513802230S06006898WA0152401546000000000000
B1617533802255S06006914WA0152101540000000000000
B1617553802277S06006937WA0151701537000000000000
B1617573802298S06006964WA0151301534000000000000
B1617593802320S06006993WA0150901532000000000000
B1618013802345S06007020WA0150601528000000000000
B1618033802368S06007049WA0150501525000000000000
B1618053802394S06007076WA0150201522000000000000
B1618073802420S06007103WA0150101522000000000000
B1618093802447S06007128WA0150001523000000000000
B1618113802473S06007153WA0150101525000000000000
B1618133802499S06007176WA0150401531000000000000
B1618153802524S06007200WA0150901536000000000000
B1618173802548S06007222WA0151401540000000000000
B1618193802570S06007244WA0151701542000000000000
B1618213802590S06007267WA0151901543000000000000
B1618233802611S06007289WA0152001542000000000000
B1618253802632S06007311WA0151901541000000000000
B1618273802653S06007332WA0151701538000000000000
B1618293802672S06007354WA0151501537000000000000
B1618313802691S06007376WA0151401536000000000000
B1618333802709S06007400WA0151201533000000000000
B1618353802727S06007423WA0150801526000000000000
B1618373802744S06007448WA0150201519000000000000
B1618393802763S06007475WA0149401511000000000000
B1618413802783S06007503WA0148701504000000000000
B1618433802801S06007531WA0148401497000000000000
B1618453802821S06007560WA0147801490000000000000
B1618473802841S06007587WA0147001482000000000000
B1618493802865S06007614WA0146301476000000000000
B1618513802889S06007643WA0145701470000000000000
B1618533802914S06007674WA0145101462000000000000
B1618553802940S06007705WA0144201453000000000000
B1618573802967S06007735WA0143401449000000000000
B1618593802993S06007768WA0143301451000000000000
B1619013803014S06007808WA0143601458000000000000
B1619033803030S06007851WA0144401469000000000000
B1619053803045S06007891WA0145301477000000000000
B1619073803066S06007921WA0146101485000000000000
B1619093803092S06007935WA0146901494000000000000
B1619113803118S06007933WA0147701500000000000000
B1619133803139S06007917WA0148101504000000000000
B1619153803153S06007889WA0148401504000000000000
B1619173803160S06007855WA0148401502000000000000
B1619193803160S06007818WA0148401503000000000000
B1619213803148S06007783WA0148501503000000000000
B1619233803127S06007751WA0148501503000000000000
B1619253803104S06007720WA0148501505000000000000
B1619273803078S06007691WA0148801509000000000000
B1619293803045S06007675WA0149001511000000000000
B1619313803010S06007681WA0149301514000000000000
B1619333802979S06007701WA0149801522000000000000
B1619353802960S06007734WA0150401529000000000000
B1619373802948S06007770WA0151101535000000000000
B1619393802949S06007808WA0151701540000000000000
B1619413802962S06007838WA0152101545000000000000
B1619433802983S06007852WA0152601549000000000000
B1619453803006S06007850WA0152901552000000000000
B1619473803026S06007831WA0153201554000000000000
B1619493803035S06007800WA0153501556000000000000
B1619513803032S06007763WA0153701557000000000000
B1619533803016S06007726WA0153801558000000000000
B1619553802990S06007698WA0154201565000000000000
B1619573802960S06007678WA0154701570000000000000
B1619593802926S06007669WA0155001574000000000000
B1620013802892S06007673WA0155501580000000000000
B1620033802861S06007688WA0156001583000000000000
B1620053802835S06007716WA0156301584000000000000
B1620073802819S06007750WA0156301583000000000000
B1620093802817S06007787WA0156301586000000000000
B1620113802827S06007822WA0156501591000000000000
B1620133802847S06007847WA0157101598000000000000
B1620153802869S06007861WA0157701602000000000000
B1620173802892S06007861WA0158001603000000000000
B1620193802913S06007846WA0158101602000000000000
B1620213802925S06007816WA0158201605000000000000
B1620233802927S06007779WA0158401606000000000000
B1620253802918S06007743WA0158501608000000000000
B1620273802899S06007711WA0158801612000000000000
B1620293802871S06007687WA0159301618000000000000
B1620313802841S06007672WA0159901622000000000000
B1620333802806S06007670WA0160301626000000000000
B1620353802774S06007679WA0160501629000000000000
B1620373802743S06007699WA0160701631000000000000
B1620393802719S06007726WA0161001633000000000000
B1620413802704S06007761WA0161201637000000000000
B1620433802704S06007798WA0161601641000000000000
B1620453802717S06007828WA0162001644000000000000
B1620473802739S06007843WA0162301646000000000000
B1620493802762S06007843WA0162401648000000000000
B1620513802783S06007833WA0162501646000000000000
B1620533802800S06007809WA0162301644000000000000
B1620553802809S06007777WA0162101643000000000000
B1620573802808S06007740WA0162001641000000000000
B1620593802795S06007705WA0161901643000000000000
B1621013802770S06007675WA0162201648000000000000
B1621033802740S06007657WA0162701653000000000000
B1621053802705S06007649WA0163101654000000000000
B1621073802670S06007652WA0163301658000000000000
B1621093802637S06007665WA0163601662000000000000
B1621113802610S06007687WA0163801665000000000000
B1621133802592S06007718WA0164301668000000000000
B1621153802583S06007756WA0164601671000000000000
B1621173802583S06007792WA0164701674000000000000
B1621193802590S06007825WA0165101677000000000000
B1621213802605S06007848WA0165301677000000000000
B1621233802623S06007865WA0165201674000000000000
B1621253802645S06007874WA0164901670000000000000
B1621273802666S06007869WA0164501664000000000000
B1621293802683S06007848WA0164001658000000000000
B1621313802694S06007820WA0163401652000000000000
B1621333802696S06007785WA0162801648000000000000
B1621353802684S06007747WA0162501645000000000000
B1621373802661S06007714WA0162401645000000000000
B1621393802633S06007685WA0162501649000000000000
B1621413802606S06007656WA0162901652000000000000
B1621433802575S06007635WA0163001654000000000000
B1621453802541S06007635WA0163101654000000000000
B1621473802512S06007657WA0163301655000000000000
B1621493802497S06007692WA0163301659000000000000
B1621513802498S06007727WA0163601663000000000000
B1621533802514S06007750WA0163901665000000000000
B1621553802535S06007752WA0164101664000000000000
B1621573802554S06007737WA0164101663000000000000
B1621593802570S06007711WA0164101663000000000000
B1622013802576S06007677WA0164101666000000000000
B1622033802567S06007642WA0164301668000000000000
B1622053802542S06007614WA0164401665000000000000
B1622073802509S06007605WA0164201659000000000000
B1622093802477S06007623WA0163601654000000000000
B1622113802459S06007659WA0163201654000000000000
B1622133802459S06007696WA0163201659000000000000
B1622153802468S06007730WA0163501660000000000000
B1622173802480S06007763WA0163401658000000000000
B1622193802497S06007790WA0163301657000000000000
B1622213802519S06007805WA0163201656000000000000
B1622233802542S06007807WA0163101651000000000000
B1622253802561S06007787WA0162501642000000000000
B1622273802564S06007753WA0161501631000000000000
B1622293802551S06007714WA0160401620000000000000
B1622313802522S06007683WA0160001618000000000000
B1622333802485S06007665WA0159801617000000000000
B1622353802446S06007648WA0159701619000000000000
B1622373802410S06007631WA0160001622000000000000
B1622393802375S06007614WA0160101623000000000000
B1622413802337S06007603WA0160101622000000000000
B1622433802299S06007597WA0160101622000000000000
B1622453802260S06007596WA0160001621000000000000
B1622473802220S06007596WA0160001621000000000000
B1622493802180S06007597WA0160001624000000000000
B1622513802138S06007600WA0160201627000000000000
B1622533802098S06007607WA0160601630000000000000
B1622553802057S06007614WA0160701630000000000000
B1622573802017S06007625WA0160501625000000000000
B1622593801976S06007635WA0160201620000000000000
B1623013801934S06007640WA0159701614000000000000
B1623033801892S06007638WA0159301610000000000000
B1623053801852S06007625WA0159001607000000000000
B1623073801812S06007612WA0158501603000000000000
B1623093801769S06007610WA0157901598000000000000
B1623113801727S06007622WA0157401592000000000000
B1623133801687S06007639WA0156801586000000000000
B1623153801645S06007657WA0156501579000000000000
B1623173801601S06007673WA0155801571000000000000
B1623193801554S06007690WA0155101563000000000000
B1623213801508S06007707WA0154401556000000000000
B1623233801457S06007722WA0153701552000000000000
B1623253801407S06007739WA0153401552000000000000
B1623273801358S06007753WA0153501554000000000000
B1623293801307S06007768WA0153601556000000000000
B1623313801259S06007782WA0153601555000000000000
B1623333801211S06007795WA0153601554000000000000
B1623353801163S06007808WA0153501555000000000000
B1623373801115S06007822WA0153501555000000000000
B1623393801068S06007835WA0153501555000000000000
B1623413801023S06007848WA0153601555000000000000
B1623433800978S06007860WA0153601555000000000000
B1623453800934S06007873WA0153401552000000000000
B1623473800890S06007886WA0153101550000000000000
B1623493800846S06007899WA0152901547000000000000
B1623513800802S06007913WA0152501544000000000000
B1623533800756S06007929WA0152001539000000000000
B1623553800711S06007943WA0151801535000000000000
B1623573800665S06007959WA0151501530000000000000
B1623593800618S06007973WA0151101529000000000000
B1624013800572S06007986WA0150901528000000000000
B1624033800525S06007999WA0150701525000000000000
B1624053800478S06008011WA0150401520000000000000
B1624073800430S06008024WA0150001517000000000000
B1624093800382S06008036WA0149701512000000000000
B1624113800332S06008049WA0149001506000000000000
B1624133800283S06008060WA0148601504000000000000
B1624153800232S06008073WA0148601506000000000000
B1624173800185S06008086WA0148801510000000000000
B1624193800140S06008101WA0149001512000000000000
B1624213800094S06008112WA0149201513000000000000
B1624233800050S06008123WA0149401514000000000000
B1624253800009S06008133WA0149401513000000000000
B1624273759967S06008143WA0149201511000000000000
B1624293759925S06008154WA0149001508000000000000
B1624313759884S06008162WA0148701506000000000000
B1624333759840S06008171WA0148701510000000000000
B1624353759798S06008179WA0149201522000000000000
B1624373759756S06008186WA0150401533000000000000
B1624393759716S06008194WA0151401543000000000000
B1624413759677S06008202WA0152301554000000000000
B1624433759641S06008210WA0153401565000000000000
B1624453759611S06008231WA0154501574000000000000
B1624473759599S06008264WA0155301579000000000000
B1624493759611S06008296WA0155601579000000000000
B1624513759637S06008301WA0155801584000000000000
B1624533759659S06008275WA0156201592000000000000
B1624553759658S06008232WA0157001600000000000000
B1624573759632S06008199WA0157901607000000000000
B1624593759597S06008194WA0158601612000000000000
B1625013759571S06008218WA0159101613000000000000
B1625033759567S06008254WA0159101614000000000000
B1625053759585S06008279WA0159201620000000000000
B1625073759611S06008273WA0159901629000000000000
B1625093759628S06008242WA0160801639000000000000
B1625113759626S06008201WA0161701646000000000000
B1625133759603S06008167WA0162301651000000000000
B1625153759568S06008155WA0162801657000000000000
B1625173759538S06008169WA0163401661000000000000
B1625193759524S06008201WA0163801663000000000000
B1625213759532S06008232WA0164001666000000000000
B1625233759554S06008245WA0164301671000000000000
B1625253759578S06008229WA0164901678000000000000
B1625273759590S06008194WA0165701689000000000000
B1625293759584S06008153WA0166501697000000000000
B1625313759560S06008121WA0167201701000000000000
B1625333759528S06008107WA0167701703000000000000
B1625353759498S06008115WA0167901702000000000000
B1625373759478S06008142WA0167801700000000000000
B1625393759477S06008176WA0167701703000000000000
B1625413759494S06008197WA0168101709000000000000
B1625433759519S06008194WA0168701717000000000000
B1625453759538S06008172WA0169501725000000000000
B1625473759546S06008137WA0170101731000000000000
B1625493759537S06008097WA0170401733000000000000
B1625513759513S06008064WA0170601732000000000000
B1625533759481S06008050WA0170601731000000000000
B1625553759447S06008052WA0170501728000000000000
B1625573759413S06008062WA0170201724000000000000
