ACAM4PM
HFDTE101224
HFFXA050
HFPLTPILOT:Andres Totorica         
HFGTYGLIDERTYPE:SZD-48-2 Ja 
HFGIDGLIDERID:LV-DNP      
HFDTM100GPSDATUM:
HFRFWFIRMWAREVERSION:F2.6
HFRHWHARDWAREVERSION:300 Series Version 2
HFFTYFRTYPE:CAMBRIDGE AERO INSTRUMENTS, 302+
HFGPS:GARMIN,LVS-25,12,18000
HFPRSPRESSALTSENSOR:INTERSEMA, MS5534-AP, 20000
I033638FXA3941ENL4247REX
LCAMSBVER:5FWVER:F26300
C231124161753231124000102
C0000000N00000000WTAKEOFF     
C3305567S06037750W02 Partida2 
C3355250S06038967WPergam AeDr 
C3327483S06119100WBombal      
C3303183S06035917W00 Llegada01
C0000000N00000000WLANDING     
B1633083801942S06007891WA0020000200000000000000
B1633103801942S06007891WA0020000200000000000000
B1633123801942S06007891WA0020000200000000000000
B1633143801942S06007891WA0020000200000000000000
B1633163801942S06007891WA0019900200000000000000
B1633183801942S06007891WA0020000200000000000000
B1633203801942S06007891WA0019900200000000000000
B1633223801942S06007891WA0020000200000000000000
B1633243801942S06007891WA0020000200000000000000
B1633263801942S06007891WA0019900200000000000000
B1633283801942S06007891WA0020000200000000000000
B1633303801942S06007891WA0020000200000000000000
B1633323801942S06007891WA0019900200000000000000
B1633343801942S06007891WA0019900200000000000000
B1633363801938S06007895WA0019800199000000000000
B1633373801937S06007898WA0019900199000000000000
B1633393801931S06007906WA0019900198000000000000
B1633413801922S06007916WA0019900198000000000000
B1633433801913S06007929WA0019900197000000000000
B1633453801901S06007945WA0019800196000000000000
B1633473801888S06007961WA0019700196000000000000
B1633493801873S06007982WA0019700195000000000000
B1633513801856S06008006WA0019700195000000000000
B1633533801838S06008029WA0019800194000000000000
B1633553801817S06008056WA0019800193000000000000
B1633573801796S06008085WA0019800194000000000000
B1633593801775S06008115WA0019800196000000000000
B1634013801751S06008143WA0020300199000000000000
B1634033801727S06008175WA0020600200000000000000
B1634053801703S06008206WA0021000204000000000000
B1634073801678S06008237WA0021200207000000000000
B1634093801652S06008268WA0021400211000000000000
B1634113801626S06008298WA0022200218000000000000
B1634133801599S06008327WA0022800223000000000000
B1634153801570S06008350WA0023400231000000000000
B1634173801539S06008368WA0023700236000000000000
B1634193801505S06008384WA0024100239000000000000
B1634213801472S06008401WA0024700245000000000000
B1634233801439S06008415WA0025400250000000000000
B1634253801402S06008422WA0025500249000000000000
B1634273801366S06008428WA0025500252000000000000
B1634293801329S06008433WA0025700252000000000000
B1634313801290S06008439WA0026000254000000000000
B1634333801253S06008445WA0026600259000000000000
B1634353801216S06008454WA0027300268000000000000
B1634373801179S06008459WA0027800272000000000000
B1634393801142S06008459WA0028100277000000000000
B1634413801105S06008461WA0028700281000000000000
B1634433801067S06008465WA0028700279000000000000
B1634453801029S06008467WA0028600279000000000000
B1634473800990S06008468WA0028500279000000000000
B1634493800951S06008472WA0028500281000000000000
B1634513800913S06008476WA0028800281000000000000
B1634533800874S06008478WA0029300286000000000000
B1634553800835S06008481WA0029800290000000000000
B1634573800796S06008484WA0029900295000000000000
B1634593800756S06008488WA0030400302000000000000
B1635013800718S06008492WA0031600314000000000000
B1635033800681S06008497WA0032100324000000000000
B1635053800643S06008501WA0033500333000000000000
B1635073800607S06008506WA0034100338000000000000
B1635093800570S06008518WA0034600343000000000000
B1635113800535S06008530WA0035100347000000000000
B1635133800500S06008549WA0035400350000000000000
B1635153800469S06008572WA0035600353000000000000
B1635173800440S06008600WA0035700357000000000000
B1635193800414S06008630WA0036000360000000000000
B1635213800391S06008663WA0036500365000000000000
B1635233800370S06008699WA0036800367000000000000
B1635253800352S06008736WA0037100368000000000000
B1635273800340S06008778WA0037100366000000000000
B1635293800334S06008822WA0037200368000000000000
B1635313800331S06008868WA0037300369000000000000
B1635333800331S06008913WA0037400372000000000000
B1635353800334S06008959WA0037700377000000000000
B1635373800341S06009003WA0038200383000000000000
B1635393800352S06009047WA0038800390000000000000
B1635413800361S06009089WA0039700403000000000000
B1635433800369S06009130WA0040700412000000000000
B1635453800378S06009170WA0041300418000000000000
B1635473800387S06009211WA0041900424000000000000
B1635493800397S06009250WA0042600431000000000000
B1635513800408S06009289WA0043300438000000000000
B1635533800418S06009325WA0043900445000000000000
B1635553800429S06009362WA0044800455000000000000
B1635583800443S06009414WA0045900470000000000000
B1636003800452S06009451WA0046500473000000000000
B1636023800461S06009488WA0046900477000000000000
B1636043800473S06009525WA0047300480000000000000
B1636063800488S06009564WA0047700487000000000000
B1636083800505S06009602WA0048200489000000000000
B1636103800527S06009636WA0048600494000000000000
B1636123800553S06009667WA0049200500000000000000
B1636143800579S06009697WA0049700506000000000000
B1636163800605S06009727WA0050200510000000000000
B1636183800635S06009753WA0050800514000000000000
B1636203800666S06009776WA0051300520000000000000
B1636223800698S06009802WA0051800523000000000000
B1636243800726S06009827WA0052300529000000000000
B1636263800757S06009850WA0052800534000000000000
B1636283800786S06009874WA0053400539000000000000
B1636303800815S06009900WA0054000546000000000000
B1636323800842S06009924WA0054400554000000000000
B1636343800871S06009948WA0055200561000000000000
B1636363800900S06009970WA0055500568000000000000
B1636383800928S06009996WA0056200572000000000000
B1636403800954S06010021WA0056800578000000000000
B1636423800982S06010044WA0057500586000000000000
B1636443801012S06010066WA0058000591000000000000
B1636463801041S06010090WA0058500598000000000000
B1636483801071S06010114WA0059200605000000000000
B1636503801099S06010139WA0060000614000000000000
B1636523801127S06010165WA0060900621000000000000
B1636543801153S06010190WA0061500627000000000000
B1636563801180S06010213WA0062200636000000000000
B1636583801206S06010235WA0062900642000000000000
B1637003801232S06010259WA0063300644000000000000
B1637023801258S06010285WA0063600646000000000000
B1637043801284S06010309WA0063900649000000000000
B1637063801314S06010329WA0064200652000000000000
B1637083801346S06010344WA0064300655000000000000
B1637103801380S06010357WA0064500653000000000000
B1637123801417S06010364WA0064500653000000000000
B1637143801454S06010370WA0064500656000000000000
B1637163801491S06010376WA0064800658000000000000
B1637183801527S06010378WA0065100661000000000000
B1637203801565S06010377WA0065400666000000000000
B1637223801601S06010377WA0065700667000000000000
B1637243801639S06010376WA0065900668000000000000
B1637263801677S06010373WA0066000673000000000000
B1637283801714S06010370WA0066200669000000000000
B1637303801755S06010369WA0066100669000000000000
B1637323801794S06010370WA0066100672000000000000
B1637343801833S06010373WA0066500677000000000000
B1637363801870S06010379WA0067300686000000000000
B1637383801907S06010385WA0068100695000000000000
B1637403801942S06010389WA0068500703000000000000
B1637423801977S06010398WA0069200706000000000000
B1637443802012S06010409WA0069600708000000000000
B1637463802047S06010422WA0069900712000000000000
B1637483802081S06010439WA0070300716000000000000
B1637503802113S06010460WA0070700720000000000000
B1637523802145S06010480WA0070900722000000000000
B1637543802177S06010490WA0071100724000000000000
B1637563802210S06010493WA0071300726000000000000
B1637583802238S06010502WA0071600730000000000000
B1638003802263S06010521WA0071900730000000000000
B1638023802281S06010550WA0071800727000000000000
B1638043802294S06010584WA0071400721000000000000
B1638063802303S06010620WA0071000716000000000000
B1638083802310S06010656WA0070500713000000000000
B1638103802314S06010694WA0070200709000000000000
B1638123802314S06010733WA0069700704000000000000
B1638143802311S06010772WA0069300699000000000000
B1638163802307S06010811WA0069000697000000000000
B1638183802303S06010850WA0068800697000000000000
B1638203802298S06010886WA0068800694000000000000
B1638223802289S06010924WA0068400686000000000000
B1638243802275S06010964WA0067700678000000000000
B1638263802259S06011006WA0067100674000000000000
B1638283802243S06011048WA0066700672000000000000
B1638303802228S06011091WA0066500671000000000000
B1638323802211S06011130WA0066300672000000000000
B1638343802190S06011166WA0066600677000000000000
B1638363802168S06011198WA0067100683000000000000
B1638383802147S06011231WA0067800692000000000000
B1638403802125S06011260WA0068700702000000000000
B1638423802104S06011288WA0069600711000000000000
B1638443802091S06011321WA0070400718000000000000
B1638463802095S06011353WA0071000723000000000000
B1638483802112S06011378WA0071100721000000000000
B1638503802138S06011386WA0071000718000000000000
B1638523802165S06011366WA0070900719000000000000
B1638543802178S06011327WA0071200723000000000000
B1638563802171S06011283WA0071400724000000000000
B1638583802146S06011250WA0071700729000000000000
B1639003802111S06011240WA0072400740000000000000
B1639023802078S06011243WA0072800747000000000000
B1639043802050S06011260WA0073500750000000000000
B1639063802034S06011291WA0073900754000000000000
B1639083802037S06011325WA0074200755000000000000
B1639103802056S06011352WA0074300755000000000000
B1639123802086S06011360WA0074300752000000000000
B1639143802115S06011345WA0074100750000000000000
B1639163802128S06011312WA0074000750000000000000
B1639183802117S06011274WA0074100750000000000000
B1639203802091S06011249WA0074200754000000000000
B1639223802060S06011240WA0074400757000000000000
B1639243802030S06011239WA0074700757000000000000
B1639263802007S06011253WA0074600757000000000000
B1639283801999S06011283WA0074600754000000000000
B1639303802012S06011312WA0074300752000000000000
B1639323802038S06011325WA0074200751000000000000
B1639343802069S06011321WA0074100750000000000000
B1639363802102S06011310WA0074100749000000000000
B1639383802130S06011291WA0074100751000000000000
B1639403802152S06011261WA0074400759000000000000
B1639423802168S06011224WA0075200768000000000000
B1639443802169S06011183WA0076000776000000000000
B1639463802154S06011144WA0076800782000000000000
B1639483802125S06011122WA0077300787000000000000
B1639503802094S06011126WA0077800793000000000000
B1639523802077S06011153WA0078200797000000000000
B1639543802081S06011185WA0078600799000000000000
B1639563802102S06011205WA0078500795000000000000
B1639583802132S06011198WA0078200791000000000000
B1640003802148S06011163WA0078100790000000000000
B1640023802141S06011120WA0078200792000000000000
B1640043802116S06011084WA0078400798000000000000
B1640063802082S06011063WA0078800804000000000000
B1640083802050S06011067WA0079200810000000000000
B1640103802028S06011093WA0079800816000000000000
B1640123802028S06011126WA0080500819000000000000
B1640143802046S06011152WA0080500817000000000000
B1640163802074S06011157WA0080300813000000000000
B1640183802103S06011137WA0080000809000000000000
B1640203802117S06011098WA0079700809000000000000
B1640223802116S06011053WA0079700813000000000000
B1640243802102S06011010WA0080200825000000000000
B1640263802077S06010977WA0081300836000000000000
B1640283802044S06010963WA0082500846000000000000
B1640303802016S06010970WA0083100849000000000000
B1640323802000S06010996WA0083300849000000000000
B1640343802005S06011024WA0083300844000000000000
B1640363802026S06011042WA0082900838000000000000
B1640383802055S06011037WA0082100829000000000000
B1640403802077S06011006WA0081600832000000000000
B1640423802085S06010964WA0082100845000000000000
B1640443802077S06010923WA0083200854000000000000
B1640463802052S06010898WA0084100860000000000000
B1640483802022S06010901WA0084600865000000000000
B1640503802008S06010924WA0085000866000000000000
B1640523802013S06010953WA0085000861000000000000
B1640543802035S06010970WA0084500853000000000000
B1640563802064S06010961WA0084000848000000000000
B1640583802083S06010925WA0083800858000000000000
B1641003802090S06010884WA0084800875000000000000
B1641023802085S06010845WA0086000882000000000000
B1641043802065S06010818WA0086700885000000000000
B1641063802038S06010814WA0086900885000000000000
B1641083802020S06010834WA0087000884000000000000
B1641103802022S06010864WA0086900883000000000000
B1641123802043S06010884WA0086900882000000000000
B1641143802073S06010879WA0086800885000000000000
B1641163802098S06010850WA0087300893000000000000
B1641183802112S06010810WA0088000904000000000000
B1641203802109S06010768WA0088800910000000000000
B1641223802089S06010741WA0089500915000000000000
B1641243802061S06010737WA0090000920000000000000
B1641263802044S06010758WA0090400924000000000000
B1641283802044S06010786WA0090800926000000000000
B1641303802061S06010808WA0090900928000000000000
B1641323802089S06010810WA0091200933000000000000
B1641343802112S06010786WA0091800943000000000000
B1641363802121S06010749WA0092500947000000000000
B1641383802112S06010710WA0092900946000000000000
B1641403802087S06010688WA0093000949000000000000
B1641423802061S06010690WA0093400957000000000000
B1641443802046S06010712WA0094100963000000000000
B1641463802050S06010740WA0094500965000000000000
B1641483802070S06010758WA0094700966000000000000
B1641503802099S06010751WA0095000973000000000000
B1641523802121S06010727WA0095600980000000000000
B1641543802137S06010693WA0096200983000000000000
B1641563802134S06010654WA0096400983000000000000
B1641583802115S06010624WA0096400982000000000000
B1642003802086S06010619WA0096300983000000000000
B1642023802065S06010638WA0096500988000000000000
B1642043802061S06010669WA0097100993000000000000
B1642063802077S06010698WA0097500998000000000000
B1642083802104S06010706WA0098101006000000000000
B1642103802133S06010693WA0098701012000000000000
B1642123802152S06010662WA0099101015000000000000
B1642143802152S06010621WA0099601020000000000000
B1642163802137S06010589WA0100001023000000000000
B1642183802111S06010574WA0100201026000000000000
B1642203802087S06010582WA0100701032000000000000
B1642223802074S06010608WA0101401039000000000000
B1642243802078S06010637WA0102101045000000000000
B1642263802095S06010659WA0102601052000000000000
B1642283802121S06010660WA0103101058000000000000
B1642303802146S06010645WA0103501060000000000000
B1642323802160S06010611WA0103701061000000000000
B1642343802163S06010572WA0103801060000000000000
B1642363802151S06010534WA0103601059000000000000
B1642383802126S06010512WA0103901065000000000000
B1642403802102S06010511WA0104101071000000000000
B1642423802082S06010526WA0104901077000000000000
B1642443802077S06010554WA0105401080000000000000
B1642463802087S06010580WA0105701085000000000000
B1642483802108S06010594WA0106201092000000000000
B1642503802133S06010595WA0106901097000000000000
B1642523802156S06010584WA0107101097000000000000
B1642543802174S06010556WA0107001094000000000000
B1642563802181S06010519WA0106801092000000000000
B1642583802173S06010480WA0106601089000000000000
B1643003802154S06010451WA0106501089000000000000
B1643023802128S06010441WA0106501091000000000000
B1643043802104S06010451WA0106801095000000000000
B1643063802085S06010469WA0107301101000000000000
B1643083802070S06010494WA0107801105000000000000
B1643103802068S06010524WA0108301110000000000000
B1643123802077S06010551WA0108601114000000000000
B1643143802098S06010568WA0108901117000000000000
B1643163802124S06010567WA0109101115000000000000
B1643183802147S06010546WA0108901113000000000000
B1643203802158S06010509WA0108701112000000000000
B1643223802154S06010468WA0108801114000000000000
B1643243802137S06010431WA0108701113000000000000
B1643263802109S06010411WA0108801112000000000000
B1643283802080S06010412WA0108801117000000000000
B1643303802054S06010426WA0109201123000000000000
B1643323802037S06010451WA0109801127000000000000
B1643343802034S06010483WA0110101129000000000000
B1643363802048S06010511WA0110301132000000000000
B1643383802074S06010519WA0110501135000000000000
B1643403802102S06010504WA0110801134000000000000
B1643423802121S06010474WA0110901136000000000000
B1643443802128S06010434WA0111001139000000000000
B1643463802119S06010394WA0111201138000000000000
B1643483802098S06010363WA0111301139000000000000
B1643503802068S06010350WA0111501145000000000000
B1643523802041S06010355WA0112101150000000000000
B1643543802020S06010377WA0112501153000000000000
B1643563802013S06010411WA0112801158000000000000
B1643583802021S06010443WA0113201162000000000000
B1644003802041S06010467WA0113601164000000000000
B1644023802069S06010473WA0113701168000000000000
B1644043802098S06010461WA0114001171000000000000
B1644063802120S06010433WA0114301174000000000000
B1644083802130S06010395WA0114701180000000000000
B1644103802128S06010355WA0115201183000000000000
B1644123802113S06010321WA0115501183000000000000
B1644143802089S06010298WA0115601185000000000000
B1644163802060S06010290WA0115701190000000000000
B1644183802034S06010298WA0116301196000000000000
B1644203802016S06010318WA0116901202000000000000
B1644223802009S06010346WA0117401207000000000000
B1644243802013S06010376WA0117701209000000000000
B1644263802029S06010400WA0117901210000000000000
B1644283802055S06010412WA0118101212000000000000
B1644303802083S06010404WA0118301214000000000000
B1644323802107S06010381WA0118501217000000000000
B1644343802119S06010346WA0118701219000000000000
B1644363802117S06010305WA0118901219000000000000
B1644383802100S06010272WA0118801217000000000000
B1644403802073S06010253WA0118701219000000000000
B1644423802044S06010252WA0118901222000000000000
B1644443802021S06010270WA0119301225000000000000
B1644463802012S06010300WA0119601229000000000000
B1644483802017S06010334WA0120001234000000000000
B1644503802035S06010360WA0120501239000000000000
B1644523802063S06010370WA0120901245000000000000
B1644543802093S06010364WA0121401250000000000000
B1644563802116S06010340WA0122001255000000000000
B1644583802128S06010303WA0122401259000000000000
B1645003802125S06010264WA0122901262000000000000
B1645023802108S06010233WA0123101264000000000000
B1645043802082S06010214WA0123101264000000000000
B1645063802055S06010216WA0123201265000000000000
B1645083802033S06010234WA0123501271000000000000
B1645103802022S06010262WA0123801275000000000000
B1645123802026S06010294WA0124301280000000000000
B1645143802043S06010318WA0124701284000000000000
B1645163802068S06010330WA0125001288000000000000
B1645183802096S06010324WA0125501293000000000000
B1645203802121S06010300WA0126001298000000000000
B1645223802137S06010265WA0126501303000000000000
B1645243802135S06010223WA0127001310000000000000
B1645263802122S06010187WA0127701318000000000000
B1645283802100S06010165WA0128201321000000000000
B1645303802074S06010158WA0128501322000000000000
B1645323802051S06010169WA0128601323000000000000
B1645343802035S06010194WA0128901325000000000000
B1645363802033S06010225WA0129101327000000000000
B1645383802044S06010253WA0129301329000000000000
B1645403802069S06010269WA0129501333000000000000
B1645423802099S06010270WA0130001339000000000000
B1645443802126S06010251WA0130901350000000000000
B1645463802145S06010217WA0132001362000000000000
B1645483802150S06010175WA0132901369000000000000
B1645503802141S06010134WA0133201375000000000000
B1645523802119S06010106WA0133801380000000000000
B1645543802093S06010100WA0134301383000000000000
B1645563802069S06010114WA0134501384000000000000
B1645583802059S06010143WA0134601387000000000000
B1646003802063S06010175WA0135101391000000000000
B1646023802082S06010197WA0135501397000000000000
B1646043802111S06010201WA0136101407000000000000
B1646063802138S06010187WA0137001417000000000000
B1646083802163S06010165WA0137801424000000000000
B1646103802180S06010132WA0138501426000000000000
B1646123802186S06010091WA0138801430000000000000
B1646143802176S06010051WA0139201434000000000000
B1646163802152S06010023WA0139701441000000000000
B1646183802125S06010018WA0140401447000000000000
B1646203802102S06010031WA0140801450000000000000
B1646223802089S06010058WA0141201454000000000000
B1646243802090S06010091WA0141501457000000000000
B1646263802104S06010118WA0141901461000000000000
B1646283802130S06010132WA0142201465000000000000
B1646303802160S06010127WA0142701470000000000000
B1646323802184S06010099WA0142901475000000000000
B1646343802198S06010060WA0143401480000000000000
B1646363802199S06010015WA0144001485000000000000
B1646383802187S06009975WA0144301486000000000000
B1646403802163S06009947WA0144701493000000000000
B1646423802133S06009937WA0145201498000000000000
B1646443802107S06009947WA0145701501000000000000
B1646463802090S06009973WA0146101506000000000000
B1646483802086S06010005WA0146601512000000000000
B1646503802098S06010035WA0147101517000000000000
B1646523802121S06010054WA0147501520000000000000
B1646543802151S06010060WA0147801523000000000000
B1646563802181S06010044WA0148201528000000000000
B1646583802203S06010013WA0148801534000000000000
B1647003802212S06009971WA0149301538000000000000
B1647023802207S06009928WA0149701541000000000000
B1647043802186S06009896WA0150001544000000000000
B1647063802159S06009883WA0150201546000000000000
B1647083802133S06009893WA0150301548000000000000
B1647103802117S06009922WA0150401548000000000000
B1647123802121S06009958WA0150501553000000000000
B1647143802142S06009984WA0151101560000000000000
B1647163802171S06009991WA0151801566000000000000
B1647183802200S06009974WA0152401571000000000000
B1647203802220S06009939WA0152801573000000000000
B1647223802225S06009893WA0153101577000000000000
B1647243802213S06009853WA0153601584000000000000
B1647263802190S06009828WA0154101591000000000000
B1647283802165S06009822WA0154801595000000000000
B1647303802143S06009836WA0155201595000000000000
B1647323802134S06009865WA0155101594000000000000
B1647343802143S06009898WA0155101594000000000000
B1647363802167S06009918WA0155101597000000000000
B1647383802199S06009918WA0155401601000000000000
B1647403802226S06009895WA0155901607000000000000
B1647423802245S06009858WA0156501611000000000000
B1647443802245S06009814WA0156701613000000000000
B1647463802228S06009776WA0156901615000000000000
B1647483802200S06009757WA0157201619000000000000
B1647503802171S06009759WA0157401619000000000000
B1647523802148S06009780WA0157601622000000000000
B1647543802141S06009814WA0158001626000000000000
B1647563802151S06009848WA0158401630000000000000
B1647583802176S06009869WA0158601633000000000000
B1648003802208S06009869WA0158801634000000000000
B1648023802237S06009846WA0159001637000000000000
B1648043802258S06009807WA0159201641000000000000
B1648063802263S06009762WA0159701646000000000000
B1648083802255S06009718WA0160101649000000000000
B1648103802233S06009685WA0160601652000000000000
B1648123802204S06009671WA0160801656000000000000
B1648143802177S06009675WA0161201659000000000000
B1648163802156S06009696WA0161501661000000000000
B1648183802147S06009727WA0161801665000000000000
B1648203802152S06009761WA0162101668000000000000
B1648223802171S06009787WA0162501670000000000000
B1648243802198S06009800WA0162801674000000000000
B1648263802229S06009793WA0163001676000000000000
B1648283802255S06009766WA0163201678000000000000
B1648303802269S06009727WA0163501680000000000000
B1648323802268S06009683WA0163601681000000000000
B1648343802252S06009644WA0163701685000000000000
B1648363802229S06009618WA0164101691000000000000
B1648383802202S06009606WA0164601694000000000000
B1648403802174S06009612WA0164801696000000000000
B1648423802155S06009633WA0165001698000000000000
B1648443802146S06009663WA0165301701000000000000
B1648463802150S06009696WA0165601705000000000000
B1648483802167S06009722WA0166101709000000000000
B1648503802191S06009736WA0166401711000000000000
B1648523802220S06009735WA0166501713000000000000
B1648543802249S06009716WA0166801715000000000000
B1648563802272S06009685WA0167001716000000000000
B1648583802284S06009644WA0167101716000000000000
B1649003802281S06009601WA0167101717000000000000
B1649023802264S06009564WA0167201718000000000000
B1649043802237S06009544WA0167301720000000000000
B1649063802210S06009546WA0167601723000000000000
B1649083802193S06009571WA0167901726000000000000
B1649103802194S06009603WA0168101727000000000000
B1649123802215S06009628WA0168201730000000000000
B1649143802245S06009629WA0168601735000000000000
B1649163802272S06009607WA0169101739000000000000
B1649183802285S06009568WA0169201738000000000000
B1649203802278S06009527WA0169301737000000000000
B1649223802255S06009501WA0169201738000000000000
B1649243802229S06009498WA0169201739000000000000
B1649263802211S06009519WA0169401741000000000000
B1649283802210S06009549WA0169501742000000000000
B1649303802226S06009573WA0169701745000000000000
B1649323802254S06009579WA0170001747000000000000
B1649343802282S06009558WA0170101746000000000000
B1649363802301S06009520WA0170001745000000000000
B1649383802301S06009475WA0170001747000000000000
B1649403802285S06009437WA0170101749000000000000
B1649423802259S06009417WA0170301751000000000000
B1649443802233S06009424WA0170501749000000000000
B1649463802220S06009451WA0170301747000000000000
B1649483802226S06009484WA0170101747000000000000
B1649503802251S06009503WA0170101749000000000000
B1649523802284S06009497WA0170401752000000000000
B1649543802308S06009462WA0170501751000000000000
B1649563802315S06009414WA0170401748000000000000
B1649583802302S06009369WA0170301749000000000000
B1650003802273S06009343WA0170601755000000000000
B1650023802245S06009336WA0171101760000000000000
B1650043802216S06009332WA0171401761000000000000
B1650063802186S06009330WA0171301758000000000000
B1650083802155S06009329WA0170901754000000000000
B1650103802124S06009332WA0170801757000000000000
B1650123802095S06009341WA0171201764000000000000
B1650143802070S06009352WA0172001770000000000000
B1650163802047S06009369WA0172301773000000000000
B1650183802028S06009393WA0172501773000000000000
B1650203802011S06009419WA0172501773000000000000
B1650223801995S06009449WA0172601775000000000000
B1650243801982S06009479WA0172801777000000000000
B1650263801970S06009511WA0173101782000000000000
B1650283801961S06009542WA0173701790000000000000
B1650303801953S06009575WA0174501799000000000000
B1650323801955S06009606WA0175201803000000000000
B1650343801972S06009631WA0175301799000000000000
B1650363802003S06009638WA0175001795000000000000
B1650383802034S06009619WA0174701795000000000000
B1650403802054S06009580WA0174701794000000000000
B1650423802057S06009532WA0174901798000000000000
B1650443802044S06009490WA0175201804000000000000
B1650463802022S06009458WA0175701809000000000000
B1650483801994S06009434WA0176301815000000000000
B1650503801964S06009425WA0176801817000000000000
B1650523801934S06009430WA0177001820000000000000
B1650543801912S06009451WA0177301822000000000000
B1650563801908S06009484WA0177601827000000000000
B1650583801927S06009508WA0178101834000000000000
B1651003801957S06009514WA0178401835000000000000
B1651023801989S06009494WA0178501834000000000000
B1651043802008S06009455WA0178401831000000000000
B1651063802004S06009408WA0178301830000000000000
B1651083801982S06009376WA0178201832000000000000
B1651103801951S06009367WA0178301834000000000000
B1651123801925S06009381WA0178501837000000000000
B1651143801912S06009412WA0178801841000000000000
B1651163801909S06009447WA0179201844000000000000
B1651183801921S06009479WA0179301845000000000000
B1651203801950S06009493WA0179501846000000000000
B1651223801982S06009480WA0179601848000000000000
B1651243802005S06009446WA0179801850000000000000
B1651263802012S06009402WA0180001849000000000000
B1651283801998S06009360WA0179801846000000000000
B1651303801970S06009334WA0179801850000000000000
B1651323801942S06009330WA0180301858000000000000
B1651343801920S06009343WA0181001865000000000000
B1651363801909S06009369WA0181501867000000000000
B1651383801917S06009397WA0181601867000000000000
B1651403801939S06009414WA0181601868000000000000
B1651423801970S06009412WA0181601868000000000000
B1651443802000S06009393WA0181701870000000000000
B1651463802022S06009358WA0181901871000000000000
B1651483802030S06009311WA0182001870000000000000
B1651503802024S06009264WA0182001872000000000000
B1651523802004S06009226WA0182101876000000000000
B1651543801977S06009208WA0182501879000000000000
B1651563801950S06009212WA0182801880000000000000
B1651583801933S06009235WA0183001885000000000000
B1652003801930S06009265WA0183401888000000000000
B1652023801946S06009291WA0183701890000000000000
B1652043801972S06009304WA0183901892000000000000
B1652063802003S06009306WA0184101894000000000000
B1652083802034S06009298WA0184201897000000000000
B1652103802065S06009282WA0184501899000000000000
B1652123802095S06009259WA0184801904000000000000
B1652143802121S06009229WA0185101907000000000000
B1652163802143S06009194WA0185601913000000000000
B1652183802163S06009155WA0186101919000000000000
B1652203802174S06009112WA0186701926000000000000
B1652223802174S06009068WA0187301929000000000000
B1652243802161S06009027WA0187501929000000000000
B1652263802141S06008991WA0187401926000000000000
B1652283802119S06008953WA0186901920000000000000
B1652303802095S06008914WA0186501918000000000000
B1652323802072S06008874WA0186501919000000000000
B1652343802047S06008834WA0186701920000000000000
B1652363802024S06008791WA0186701919000000000000
B1652383801999S06008749WA0186701922000000000000
B1652403801976S06008706WA0187001927000000000000
B1652423801952S06008665WA0187301931000000000000
B1652443801929S06008624WA0187801935000000000000
B1652463801907S06008585WA0188201939000000000000
B1652483801885S06008546WA0188501940000000000000
B1652503801862S06008506WA0188501939000000000000
B1652523801839S06008466WA0188401939000000000000
B1652543801816S06008426WA0188601943000000000000
B1652563801792S06008385WA0189001950000000000000
B1652583801768S06008346WA0189601955000000000000
B1653003801740S06008309WA0190001958000000000000
B1653023801714S06008270WA0190301962000000000000
B1653043801690S06008231WA0190501963000000000000
B1653063801666S06008190WA0190501962000000000000
B1653083801645S06008149WA0190401961000000000000
B1653103801623S06008107WA0190501962000000000000
B1653123801601S06008067WA0190501964000000000000
B1653143801578S06008028WA0190801968000000000000
B1653163801561S06007986WA0191401973000000000000
B1653183801553S06007941WA0191701973000000000000
B1653203801558S06007894WA0191501969000000000000
B1653223801574S06007851WA0191001960000000000000
B1653243801597S06007808WA0190001947000000000000
B1653263801626S06007769WA0189101942000000000000
B1653283801656S06007734WA0189001946000000000000
B1653303801687S06007713WA0189601950000000000000
B1653323801719S06007714WA0189801950000000000000
B1653343801745S06007730WA0189501946000000000000
B1653363801764S06007756WA0189201941000000000000
B1653383801774S06007790WA0188901939000000000000
B1653403801779S06007824WA0188801939000000000000
B1653423801783S06007859WA0188801939000000000000
B1653443801784S06007895WA0189001943000000000000
B1653463801786S06007929WA0189301947000000000000
B1653483801790S06007963WA0189501948000000000000
B1653503801792S06007998WA0189701949000000000000
B1653523801796S06008033WA0189701946000000000000
B1653543801796S06008072WA0189401946000000000000
B1653563801790S06008110WA0189701953000000000000
B1653583801778S06008141WA0190101964000000000000
B1654003801762S06008169WA0191001972000000000000
B1654023801747S06008198WA0191701976000000000000
B1654043801738S06008229WA0192401981000000000000
B1654063801742S06008260WA0192501983000000000000
B1654083801758S06008284WA0192701983000000000000
B1654103801784S06008293WA0192801984000000000000
B1654123801813S06008284WA0193001986000000000000
B1654143801838S06008257WA0193101991000000000000
B1654163801851S06008218WA0193501993000000000000
B1654183801853S06008173WA0193701992000000000000
B1654203801842S06008129WA0193701991000000000000
B1654223801818S06008095WA0193601992000000000000
B1654243801787S06008076WA0193801996000000000000
B1654263801753S06008072WA0194001998000000000000
B1654283801723S06008086WA0194302001000000000000
B1654303801700S06008110WA0194602005000000000000
B1654323801678S06008137WA0195002007000000000000
B1654343801656S06008163WA0195202008000000000000
B1654363801635S06008188WA0195202007000000000000
B1654383801615S06008214WA0195002006000000000000
B1654403801597S06008240WA0194902000000000000000
B1654423801580S06008267WA0194401992000000000000
B1654443801563S06008296WA0193601980000000000000
B1654463801545S06008327WA0192301966000000000000
B1654483801523S06008361WA0191101958000000000000
B1654493801513S06008377WA0190501954000000000000
B1654523801482S06008428WA0190001953000000000000
B1654543801463S06008461WA0190101958000000000000
B1654563801444S06008492WA0190601965000000000000
B1654583801426S06008520WA0191101970000000000000
B1655003801407S06008546WA0191601974000000000000
B1655023801389S06008572WA0191801973000000000000
B1655043801371S06008600WA0191601972000000000000
B1655063801362S06008630WA0191601972000000000000
B1655083801365S06008660WA0191601972000000000000
B1655103801380S06008684WA0191401966000000000000
B1655123801405S06008702WA0190601954000000000000
B1655143801435S06008721WA0189401941000000000000
B1655163801467S06008738WA0188301930000000000000
B1655183801500S06008758WA0187401921000000000000
B1655203801531S06008787WA0186601914000000000000
B1655223801558S06008821WA0186001909000000000000
B1655243801586S06008857WA0185701905000000000000
B1655263801612S06008897WA0185101897000000000000
B1655283801638S06008939WA0184701897000000000000
B1655303801664S06008978WA0184801903000000000000
B1655323801690S06009014WA0185401908000000000000
B1655343801713S06009052WA0185401901000000000000
B1655363801736S06009091WA0184701891000000000000
B1655383801761S06009131WA0183801882000000000000
B1655403801787S06009173WA0182901878000000000000
B1655423801813S06009212WA0182501875000000000000
B1655443801838S06009252WA0182301874000000000000
B1655463801861S06009291WA0182401876000000000000
B1655483801883S06009330WA0182501878000000000000
B1655503801905S06009369WA0182601878000000000000
B1655523801929S06009408WA0182801883000000000000
B1655543801951S06009446WA0183301887000000000000
B1655563801973S06009485WA0183901896000000000000
B1655583801992S06009524WA0184901909000000000000
B1656003802009S06009562WA0186201923000000000000
B1656023802028S06009598WA0187501936000000000000
B1656043802048S06009628WA0188501943000000000000
B1656063802078S06009637WA0188801945000000000000
B1656083802109S06009618WA0188801943000000000000
B1656103802128S06009577WA0188701940000000000000
B1656123802122S06009529WA0188601934000000000000
B1656143802095S06009497WA0188101930000000000000
B1656163802063S06009497WA0187901936000000000000
B1656183802042S06009523WA0188401946000000000000
B1656203802034S06009558WA0189301954000000000000
B1656223802033S06009592WA0189801954000000000000
B1656243802048S06009620WA0189801951000000000000
B1656263802080S06009624WA0189701950000000000000
B1656283802107S06009599WA0189601950000000000000
B1656303802117S06009555WA0189601950000000000000
B1656323802108S06009512WA0189601949000000000000
B1656343802082S06009482WA0189501946000000000000
B1656363802052S06009481WA0189401946000000000000
B1656383802030S06009502WA0189301948000000000000
B1656403802024S06009533WA0189501951000000000000
B1656423802026S06009566WA0189701952000000000000
B1656443802037S06009594WA0189701952000000000000
B1656463802054S06009620WA0189701950000000000000
B1656483802078S06009642WA0189401944000000000000
B1656503802111S06009655WA0189001942000000000000
B1656523802146S06009663WA0188901941000000000000
B1656543802181S06009666WA0188401933000000000000
B1656563802220S06009668WA0187801927000000000000
B1656583802262S06009668WA0187301923000000000000
B1657003802304S06009670WA0186801916000000000000
B1657023802349S06009666WA0186301913000000000000
B1657043802393S06009662WA0186201914000000000000
B1657063802434S06009661WA0186301916000000000000
B1657083802473S06009659WA0186401919000000000000
B1657103802512S06009659WA0186501918000000000000
B1657123802551S06009657WA0186401915000000000000
B1657143802592S06009653WA0186001910000000000000
B1657163802632S06009650WA0185601908000000000000
B1657183802672S06009649WA0185301905000000000000
B1657203802714S06009645WA0184901899000000000000
B1657223802757S06009642WA0184201890000000000000
B1657243802802S06009640WA0183401882000000000000
B1657263802849S06009638WA0182701875000000000000
B1657283802895S06009636WA0182201872000000000000
B1657303802940S06009635WA0182101870000000000000
B1657323802986S06009635WA0182001870000000000000
B1657343803029S06009636WA0182101872000000000000
B1657363803069S06009648WA0182201874000000000000
B1657383803105S06009670WA0182301873000000000000
B1657403803138S06009696WA0182101869000000000000
B1657423803172S06009723WA0181501859000000000000
B1657443803208S06009752WA0180701849000000000000
B1657463803246S06009783WA0179901844000000000000
B1657483803283S06009815WA0179401840000000000000
B1657503803321S06009846WA0179101838000000000000
B1657523803360S06009880WA0178901837000000000000
B1657543803398S06009913WA0179101840000000000000
B1657563803432S06009945WA0179801852000000000000
B1657583803465S06009976WA0180101851000000000000
B1658003803500S06010006WA0179901848000000000000
B1658023803534S06010038WA0179701845000000000000
B1658043803569S06010069WA0179501844000000000000
B1658063803606S06010097WA0179301843000000000000
B1658083803642S06010126WA0179201842000000000000
B1658103803679S06010156WA0179101841000000000000
B1658123803715S06010183WA0179001839000000000000
B1658143803753S06010212WA0178901837000000000000
B1658163803789S06010239WA0178701836000000000000
B1658183803825S06010268WA0178401832000000000000
B1658203803864S06010295WA0178001824000000000000
B1658223803903S06010322WA0177201814000000000000
B1658243803944S06010350WA0176201803000000000000
B1658263803985S06010376WA0175201796000000000000
B1658283804030S06010402WA0174601790000000000000
B1658303804072S06010429WA0174001785000000000000
B1658323804115S06010455WA0173601780000000000000
B1658343804158S06010481WA0173101776000000000000
B1658363804200S06010507WA0172601770000000000000
B1658383804241S06010533WA0172101765000000000000
B1658403804283S06010560WA0171701762000000000000
B1658423804325S06010587WA0171501760000000000000
B1658443804365S06010615WA0171401757000000000000
B1658463804404S06010643WA0170901749000000000000
B1658483804446S06010671WA0170301741000000000000
B1658503804485S06010702WA0169501734000000000000
B1658523804522S06010736WA0168801729000000000000
B1658543804557S06010773WA0168501726000000000000
B1658563804586S06010815WA0168201724000000000000
B1658583804615S06010859WA0167701719000000000000
B1659003804642S06010902WA0167201713000000000000
B1659023804669S06010948WA0166701708000000000000
B1659043804693S06010994WA0166401706000000000000
B1659063804715S06011041WA0166301707000000000000
B1659083804735S06011088WA0166201707000000000000
B1659103804756S06011136WA0166301706000000000000
B1659123804777S06011183WA0166501711000000000000
B1659143804794S06011230WA0167001720000000000000
B1659163804810S06011275WA0167501729000000000000
B1659183804821S06011318WA0168001740000000000000
B1659203804837S06011354WA0169001751000000000000
B1659223804864S06011374WA0169901759000000000000
B1659243804897S06011370WA0170601761000000000000
B1659263804924S06011343WA0170801760000000000000
B1659283804933S06011299WA0170901761000000000000
B1659303804921S06011254WA0171001763000000000000
B1659323804894S06011224WA0171201766000000000000
B1659343804862S06011219WA0171501766000000000000
B1659363804832S06011234WA0171501765000000000000
B1659383804808S06011260WA0171501765000000000000
B1659403804791S06011292WA0171501767000000000000
B1659423804780S06011327WA0171701770000000000000
B1659443804777S06011365WA0172001775000000000000
B1659463804781S06011400WA0172401778000000000000
B1659483804789S06011436WA0172701779000000000000
B1659503804799S06011471WA0172701780000000000000
B1659523804804S06011510WA0172801780000000000000
B1659543804798S06011552WA0173001783000000000000
B1659563804785S06011591WA0173501789000000000000
B1659583804765S06011626WA0173801793000000000000
B1700003804741S06011657WA0174501806000000000000
B1700023804716S06011686WA0175201815000000000000
B1700043804691S06011713WA0176201822000000000000
B1700063804665S06011739WA0177001829000000000000
B1700083804646S06011768WA0177601836000000000000
B1700103804646S06011799WA0178101837000000000000
B1700123804667S06011815WA0178301837000000000000
B1700143804694S06011799WA0178401838000000000000
B1700163804707S06011756WA0178501840000000000000
B1700183804691S06011711WA0178701841000000000000
B1700203804657S06011691WA0179001846000000000000
B1700223804624S06011702WA0179301854000000000000
B1700243804607S06011733WA0180001859000000000000
B1700263804615S06011763WA0181001862000000000000
B1700283804639S06011772WA0181301866000000000000
B1700303804665S06011752WA0181701868000000000000
B1700323804677S06011711WA0182001870000000000000
B1700343804672S06011663WA0182001872000000000000
B1700363804652S06011617WA0182401878000000000000
B1700383804624S06011585WA0182901885000000000000
B1700403804589S06011573WA0183601890000000000000
B1700423804559S06011586WA0184201897000000000000
B1700443804546S06011616WA0184701903000000000000
B1700463804552S06011646WA0185201903000000000000
B1700483804572S06011661WA0185301904000000000000
B1700503804598S06011655WA0185401906000000000000
B1700523804621S06011630WA0185601908000000000000
B1700543804634S06011592WA0185801911000000000000
B1700563804637S06011551WA0186201918000000000000
B1700583804626S06011509WA0186901925000000000000
B1701003804604S06011478WA0187501930000000000000
B1701023804574S06011461WA0187901933000000000000
B1701043804542S06011462WA0188201936000000000000
B1701063804517S06011482WA0188301939000000000000
B1701083804504S06011510WA0188501941000000000000
B1701103804504S06011544WA0188801941000000000000
B1701123804509S06011575WA0188901942000000000000
B1701143804517S06011608WA0189001944000000000000
B1701163804526S06011635WA0189201946000000000000
B1701183804548S06011648WA0189301946000000000000
B1701203804574S06011639WA0189401948000000000000
B1701223804599S06011618WA0189601949000000000000
B1701243804622S06011594WA0189601950000000000000
B1701263804648S06011574WA0189701952000000000000
B1701283804677S06011566WA0190001956000000000000
B1701303804704S06011574WA0190301960000000000000
B1701323804729S06011590WA0190901967000000000000
B1701343804756S06011600WA0191701975000000000000
B1701363804785S06011591WA0192501984000000000000
B1701383804802S06011559WA0193501993000000000000
B1701403804798S06011514WA0194101998000000000000
B1701423804773S06011482WA0194502001000000000000
B1701443804739S06011478WA0194902003000000000000
B1701463804717S06011503WA0195202005000000000000
B1701483804719S06011536WA0195402011000000000000
B1701503804741S06011555WA0196002021000000000000
B1701523804768S06011544WA0197002030000000000000
B1701543804784S06011508WA0197702036000000000000
B1701563804778S06011462WA0198202041000000000000
B1701583804755S06011427WA0198702045000000000000
B1702003804721S06011417WA0199102049000000000000
B1702023804693S06011435WA0199502051000000000000
B1702043804683S06011470WA0199902056000000000000
B1702063804695S06011500WA0200402063000000000000
B1702083804721S06011512WA0201102068000000000000
B1702103804748S06011496WA0201602074000000000000
B1702123804764S06011457WA0202202082000000000000
B1702143804761S06011412WA0202902090000000000000
B1702163804741S06011374WA0203302095000000000000
B1702183804709S06011352WA0203602095000000000000
B1702203804674S06011354WA0203802096000000000000
B1702223804647S06011379WA0204002098000000000000
B1702243804638S06011417WA0204402106000000000000
B1702263804650S06011449WA0205102116000000000000
B1702283804674S06011461WA0206002127000000000000
B1702303804702S06011448WA0207102136000000000000
B1702323804719S06011414WA0207902142000000000000
B1702343804719S06011369WA0208502147000000000000
B1702363804699S06011330WA0209102152000000000000
B1702383804667S06011310WA0209702156000000000000
B1702403804634S06011317WA0210002159000000000000
B1702423804615S06011344WA0210202163000000000000
B1702443804613S06011379WA0210602169000000000000
B1702463804630S06011404WA0211302176000000000000
B1702483804656S06011408WA0212002182000000000000
B1702503804682S06011386WA0212502186000000000000
B1702523804700S06011352WA0212902191000000000000
B1702543804704S06011306WA0213302196000000000000
B1702563804689S06011263WA0213702198000000000000
B1702583804657S06011239WA0214102204000000000000
B1703003804622S06011241WA0214702209000000000000
B1703023804598S06011265WA0215302212000000000000
B1703043804595S06011301WA0215602217000000000000
B1703063804612S06011327WA0216102223000000000000
B1703083804639S06011331WA0216702231000000000000
B1703103804664S06011312WA0217602240000000000000
B1703123804680S06011275WA0217902245000000000000
B1703143804678S06011231WA0218402249000000000000
B1703163804659S06011192WA0218802251000000000000
B1703183804628S06011171WA0219102252000000000000
B1703203804594S06011176WA0219302255000000000000
B1703223804570S06011206WA0219502258000000000000
B1703243804568S06011244WA0219802262000000000000
B1703263804585S06011274WA0220102265000000000000
B1703283804613S06011282WA0220502270000000000000
B1703303804643S06011262WA0221002277000000000000
B1703323804660S06011223WA0221602281000000000000
B1703343804659S06011176WA0222202287000000000000
B1703363804641S06011136WA0222802296000000000000
B1703383804611S06011113WA0223502300000000000000
B1703403804577S06011113WA0223902303000000000000
B1703423804552S06011136WA0224102306000000000000
B1703443804543S06011171WA0224502310000000000000
B1703463804555S06011204WA0225002312000000000000
B1703483804581S06011221WA0225202313000000000000
B1703503804611S06011210WA0225202315000000000000
B1703523804631S06011175WA0225502319000000000000
B1703543804631S06011128WA0225802324000000000000
B1703563804612S06011088WA0226202329000000000000
B1703583804579S06011067WA0226802336000000000000
B1704003804546S06011070WA0227402342000000000000
B1704023804522S06011093WA0228002347000000000000
B1704043804517S06011128WA0228402350000000000000
B1704063804531S06011158WA0228602351000000000000
B1704083804559S06011169WA0228702353000000000000
B1704103804587S06011154WA0229002355000000000000
B1704123804605S06011117WA0229402360000000000000
B1704143804603S06011072WA0229802364000000000000
B1704163804583S06011035WA0230302370000000000000
B1704183804552S06011015WA0230802375000000000000
B1704203804520S06011019WA0231102379000000000000
B1704223804498S06011044WA0231402382000000000000
B1704243804492S06011079WA0231702384000000000000
B1704263804507S06011110WA0232002386000000000000
B1704283804533S06011124WA0232002388000000000000
B1704303804563S06011114WA0232402392000000000000
B1704323804585S06011081WA0232702396000000000000
B1704343804590S06011036WA0233002398000000000000
B1704363804577S06010992WA0233402402000000000000
B1704383804550S06010963WA0233802407000000000000
B1704403804516S06010955WA0234302412000000000000
B1704423804486S06010968WA0234502414000000000000
B1704443804466S06010997WA0234902416000000000000
B1704463804465S06011033WA0235202420000000000000
B1704483804483S06011059WA0235702426000000000000
B1704503804511S06011065WA0236202430000000000000
B1704523804537S06011045WA0236502432000000000000
B1704543804552S06011009WA0236802435000000000000
B1704573804544S06010945WA0237302440000000000000
B1704593804520S06010914WA0237602443000000000000
B1705013804490S06010903WA0237902446000000000000
B1705033804461S06010915WA0238102447000000000000
B1705053804446S06010942WA0238302452000000000000
B1705073804448S06010975WA0238602455000000000000
B1705093804468S06010996WA0238702455000000000000
B1705113804496S06010997WA0238902457000000000000
B1705133804522S06010977WA0239102459000000000000
B1705153804539S06010941WA0239202461000000000000
B1705173804539S06010898WA0239302461000000000000
B1705193804524S06010857WA0239502463000000000000
B1705213804494S06010833WA0239702468000000000000
B1705233804462S06010831WA0240102471000000000000
B1705253804436S06010849WA0240402473000000000000
B1705273804427S06010880WA0240602472000000000000
B1705293804436S06010912WA0240602471000000000000
B1705313804464S06010927WA0240602472000000000000
B1705333804494S06010916WA0240602473000000000000
B1705353804518S06010884WA0240802476000000000000
B1705373804527S06010840WA0240902477000000000000
B1705393804518S06010793WA0241002479000000000000
B1705413804494S06010758WA0241302483000000000000
B1705433804460S06010745WA0241702486000000000000
B1705453804430S06010756WA0241902486000000000000
B1705473804412S06010788WA0241902487000000000000
B1705493804405S06010824WA0242002489000000000000
B1705513804418S06010857WA0242102489000000000000
B1705533804446S06010868WA0242302490000000000000
B1705553804474S06010850WA0242602494000000000000
B1705573804490S06010811WA0242902496000000000000
B1705593804486S06010766WA0243102499000000000000
B1706013804465S06010727WA0243502503000000000000
B1706033804433S06010708WA0243802507000000000000
B1706053804401S06010711WA0244002509000000000000
B1706073804378S06010733WA0244202511000000000000
B1706093804368S06010766WA0244402512000000000000
B1706113804374S06010798WA0244602511000000000000
B1706133804396S06010819WA0244502511000000000000
B1706153804425S06010829WA0244402512000000000000
B1706173804455S06010836WA0244302513000000000000
B1706193804486S06010840WA0244502515000000000000
B1706213804516S06010844WA0244702517000000000000
B1706233804547S06010847WA0244902520000000000000
B1706253804577S06010846WA0245302523000000000000
B1706273804608S06010841WA0245602523000000000000
B1706293804641S06010833WA0245502524000000000000
B1706313804673S06010825WA0245602527000000000000
B1706333804706S06010820WA0245902532000000000000
B1706353804738S06010812WA0246302534000000000000
B1706373804769S06010805WA0246402534000000000000
B1706393804800S06010795WA0246502535000000000000
B1706413804833S06010788WA0246702537000000000000
B1706433804865S06010782WA0246802537000000000000
B1706453804898S06010781WA0246802536000000000000
B1706473804930S06010782WA0246702537000000000000
B1706493804963S06010782WA0246802539000000000000
B1706513804994S06010780WA0246902540000000000000
B1706533805025S06010776WA0247202543000000000000
B1706553805057S06010769WA0247702550000000000000
B1706573805086S06010764WA0248302556000000000000
B1706593805115S06010760WA0248802560000000000000
B1707013805145S06010759WA0249002565000000000000
B1707033805174S06010758WA0249502571000000000000
B1707053805203S06010756WA0250202578000000000000
B1707073805233S06010746WA0250902581000000000000
B1707093805254S06010712WA0251202584000000000000
B1707113805255S06010665WA0251502587000000000000
B1707133805235S06010625WA0251802589000000000000
B1707153805202S06010606WA0252202591000000000000
B1707173805171S06010612WA0252302593000000000000
B1707193805155S06010638WA0252502592000000000000
B1707213805161S06010671WA0252302591000000000000
B1707233805185S06010689WA0252302594000000000000
B1707253805218S06010680WA0252502596000000000000
B1707273805242S06010643WA0252602598000000000000
B1707293805246S06010593WA0252802600000000000000
B1707313805229S06010547WA0253002602000000000000
B1707333805198S06010513WA0253202603000000000000
B1707353805161S06010494WA0253102600000000000000
B1707373805122S06010481WA0252802595000000000000
B1707393805077S06010468WA0251702580000000000000
B1707413805031S06010455WA0250402567000000000000
B1707433804980S06010444WA0249602562000000000000
B1707453804929S06010433WA0249202560000000000000
B1707473804878S06010421WA0249102560000000000000
B1707493804828S06010411WA0249202561000000000000
B1707513804778S06010399WA0249202562000000000000
B1707533804732S06010390WA0249802574000000000000
B1707553804687S06010383WA0250502578000000000000
B1707573804643S06010378WA0250802579000000000000
B1707593804602S06010374WA0250902579000000000000
B1708013804559S06010372WA0250902579000000000000
B1708033804517S06010370WA0250802577000000000000
B1708053804475S06010369WA0250602576000000000000
B1708073804433S06010366WA0250702578000000000000
B1708093804391S06010365WA0250702579000000000000
B1708113804349S06010364WA0250702580000000000000
B1708133804308S06010363WA0250902583000000000000
B1708153804266S06010361WA0251102586000000000000
B1708173804226S06010365WA0251602590000000000000
B1708193804187S06010369WA0251902591000000000000
B1708213804147S06010374WA0252002594000000000000
B1708233804108S06010377WA0252302599000000000000
B1708253804070S06010379WA0252802602000000000000
B1708273804032S06010381WA0253002604000000000000
B1708293803994S06010382WA0253102605000000000000
B1708313803958S06010382WA0253402609000000000000
B1708333803924S06010381WA0253802614000000000000
B1708353803892S06010382WA0254202617000000000000
B1708373803861S06010383WA0254202615000000000000
B1708393803828S06010385WA0254102609000000000000
B1708413803794S06010387WA0253602603000000000000
B1708433803759S06010387WA0253102600000000000000
B1708453803721S06010386WA0252602594000000000000
B1708473803685S06010385WA0252102590000000000000
B1708493803646S06010385WA0251702588000000000000
B1708513803610S06010383WA0251502587000000000000
B1708533803575S06010383WA0251402586000000000000
B1708553803541S06010382WA0251402586000000000000
B1708573803507S06010383WA0251202585000000000000
B1708593803474S06010385WA0251202584000000000000
B1709013803443S06010387WA0251002583000000000000
B1709033803412S06010387WA0251002581000000000000
B1709053803381S06010389WA0250902581000000000000
B1709073803348S06010389WA0250702580000000000000
B1709093803316S06010389WA0250702577000000000000
B1709113803282S06010389WA0250202572000000000000
B1709133803247S06010391WA0249902568000000000000
B1709153803212S06010392WA0249602565000000000000
B1709173803178S06010395WA0249202563000000000000
B1709193803144S06010398WA0249002560000000000000
B1709213803109S06010399WA0248802555000000000000
B1709233803074S06010400WA0248302549000000000000
B1709253803036S06010399WA0247702542000000000000
B1709273802999S06010399WA0247002534000000000000
B1709293802958S06010400WA0246302530000000000000
B1709313802919S06010402WA0245802526000000000000
B1709333802879S06010402WA0245602524000000000000
B1709353802837S06010400WA0245302521000000000000
B1709373802797S06010396WA0245102519000000000000
B1709393802756S06010391WA0244902518000000000000
B1709413802715S06010387WA0244802518000000000000
B1709433802674S06010382WA0244802518000000000000
B1709453802633S06010378WA0244802518000000000000
B1709473802592S06010373WA0244802519000000000000
B1709493802551S06010369WA0245002523000000000000
B1709513802512S06010366WA0245302529000000000000
B1709533802475S06010363WA0246002537000000000000
B1709553802440S06010360WA0246702541000000000000
B1709573802406S06010359WA0247102543000000000000
B1709593802372S06010357WA0247302545000000000000
B1710013802340S06010355WA0247402546000000000000
B1710033802307S06010353WA0247302545000000000000
B1710053802273S06010353WA0247202543000000000000
B1710073802241S06010355WA0247102541000000000000
B1710093802208S06010356WA0246902539000000000000
B1710113802174S06010357WA0246702536000000000000
B1710133802143S06010360WA0246502534000000000000
B1710153802109S06010361WA0246102530000000000000
B1710173802076S06010363WA0245902522000000000000
B1710193802041S06010361WA0245102514000000000000
B1710213802004S06010359WA0244302508000000000000
B1710233801966S06010355WA0243902505000000000000
B1710253801929S06010350WA0243602504000000000000
B1710273801892S06010344WA0243402501000000000000
B1710293801855S06010337WA0243202498000000000000
B1710313801818S06010329WA0242802494000000000000
B1710333801781S06010320WA0242402489000000000000
B1710353801744S06010311WA0242002485000000000000
B1710373801706S06010300WA0241502479000000000000
B1710393801669S06010290WA0240902473000000000000
B1710413801631S06010281WA0240602470000000000000
B1710433801592S06010270WA0240202466000000000000
B1710453801553S06010262WA0239602458000000000000
B1710473801511S06010255WA0238702449000000000000
B1710493801469S06010248WA0238002444000000000000
B1710513801426S06010242WA0237802442000000000000
B1710533801381S06010234WA0237602441000000000000
B1710553801337S06010225WA0237402439000000000000
B1710573801293S06010217WA0237302438000000000000
B1710593801249S06010210WA0237202437000000000000
B1711013801205S06010205WA0237102439000000000000
B1711033801163S06010201WA0237402445000000000000
B1711053801124S06010197WA0237902450000000000000
B1711073801085S06010197WA0238202452000000000000
B1711093801047S06010199WA0238302451000000000000
B1711113801011S06010200WA0238302452000000000000
B1711133800975S06010203WA0238402454000000000000
B1711153800939S06010207WA0238502455000000000000
B1711173800904S06010213WA0238702457000000000000
B1711193800872S06010222WA0238802458000000000000
B1711213800838S06010234WA0238902456000000000000
B1711233800804S06010247WA0238602454000000000000
B1711253800772S06010262WA0238502453000000000000
B1711273800739S06010279WA0238402454000000000000
B1711293800707S06010299WA0238502454000000000000
B1711313800677S06010320WA0238502455000000000000
B1711333800647S06010343WA0238802458000000000000
B1711353800620S06010369WA0238902460000000000000
B1711373800592S06010394WA0239102463000000000000
B1711393800565S06010420WA0239402466000000000000
B1711413800536S06010446WA0239802468000000000000
B1711433800509S06010472WA0240002468000000000000
B1711453800481S06010498WA0240002469000000000000
B1711473800452S06010525WA0240102472000000000000
B1711493800425S06010554WA0240202478000000000000
B1711513800399S06010582WA0240802485000000000000
B1711533800374S06010612WA0241402489000000000000
B1711553800354S06010646WA0241902492000000000000
B1711573800349S06010686WA0242302497000000000000
B1711593800360S06010723WA0242702503000000000000
B1712013800384S06010747WA0243202506000000000000
B1712033800416S06010753WA0243802511000000000000
B1712053800447S06010737WA0244102514000000000000
B1712073800469S06010702WA0244502515000000000000
B1712093800477S06010656WA0244602515000000000000
B1712113800468S06010610WA0244702516000000000000
B1712133800445S06010572WA0244902519000000000000
B1712153800412S06010552WA0245302523000000000000
B1712173800378S06010554WA0245702529000000000000
B1712193800351S06010576WA0246202533000000000000
B1712213800335S06010610WA0246702538000000000000
B1712233800328S06010646WA0247102542000000000000
B1712253800336S06010682WA0247402545000000000000
B1712273800356S06010710WA0247602548000000000000
B1712293800383S06010721WA0247902549000000000000
B1712313800416S06010715WA0248102548000000000000
B1712333800444S06010690WA0248002549000000000000
B1712353800464S06010652WA0248002551000000000000
B1712373800469S06010607WA0248202553000000000000
B1712393800461S06010561WA0248602557000000000000
B1712413800439S06010524WA0248902563000000000000
B1712433800408S06010503WA0249402568000000000000
B1712453800375S06010502WA0249802569000000000000
B1712473800348S06010521WA0250102569000000000000
B1712493800332S06010558WA0250102569000000000000
B1712513800335S06010598WA0250102570000000000000
B1712533800354S06010630WA0250202571000000000000
B1712553800386S06010649WA0250202570000000000000
B1712573800422S06010647WA0250202572000000000000
B1712593800455S06010625WA0250502577000000000000
B1713013800479S06010590WA0251002581000000000000
B1713033800488S06010545WA0251202585000000000000
B1713053800481S06010498WA0251502586000000000000
B1713073800456S06010459WA0251602584000000000000
B1713093800421S06010441WA0251402583000000000000
B1713113800383S06010447WA0251402586000000000000
B1713133800354S06010473WA0251802593000000000000
B1713153800339S06010511WA0252202598000000000000
B1713173800340S06010551WA0252802602000000000000
B1713193800358S06010585WA0253202604000000000000
B1713213800388S06010603WA0253302601000000000000
B1713233800425S06010599WA0253102602000000000000
B1713253800456S06010574WA0253402606000000000000
B1713273800478S06010535WA0253602606000000000000
B1713293800488S06010487WA0253402604000000000000
B1713313800484S06010435WA0253502606000000000000
B1713333800465S06010391WA0253902612000000000000
B1713353800434S06010364WA0254302616000000000000
B1713373800399S06010357WA0254602618000000000000
B1713393800365S06010372WA0254602616000000000000
B1713413800344S06010407WA0254402615000000000000
B1713433800341S06010451WA0254502615000000000000
B1713453800357S06010491WA0254402614000000000000
B1713473800388S06010515WA0254502614000000000000
B1713493800427S06010519WA0254502613000000000000
B1713513800466S06010498WA0254502615000000000000
E171354PEV
B1713543800503S06010435WA0254802622000000000000
B1713553800508S06010409WA0255102624000000000000
B1713563800510S06010383WA0255302625000000000000
B1713573800508S06010357WA0255402624000000000000
B1713583800501S06010331WA0255402623000000000000
B1713593800491S06010308WA0255502622000000000000
B1714003800475S06010288WA0255402621000000000000
B1714013800458S06010273WA0255302620000000000000
B1714023800439S06010261WA0255202619000000000000
B1714033800418S06010257WA0255002618000000000000
B1714043800397S06010259WA0254902618000000000000
B1714053800378S06010265WA0254802618000000000000
B1714063800361S06010278WA0254802617000000000000
B1714073800347S06010296WA0254802617000000000000
B1714083800336S06010317WA0254802617000000000000
B1714093800330S06010342WA0254802617000000000000
B1714103800328S06010366WA0254802619000000000000
B1714123800338S06010415WA0255002623000000000000
B1714143800362S06010451WA0255302624000000000000
B1714163800399S06010470WA0255502624000000000000
B1714183800440S06010470WA0255602624000000000000
B1714203800479S06010454WA0255602623000000000000
B1714223800514S06010422WA0255502622000000000000
B1714243800544S06010381WA0255302621000000000000
B1714263800566S06010330WA0255202622000000000000
B1714283800582S06010277WA0255502623000000000000
B1714303800594S06010221WA0255502621000000000000
B1714323800605S06010164WA0255302619000000000000
B1714343800620S06010106WA0255102617000000000000
B1714363800634S06010049WA0254702616000000000000
B1714383800650S06009991WA0254802616000000000000
B1714403800664S06009934WA0254802614000000000000
B1714423800679S06009874WA0254702610000000000000
B1714443800698S06009815WA0254102600000000000000
B1714463800720S06009755WA0253202589000000000000
B1714483800743S06009692WA0252202582000000000000
B1714503800765S06009628WA0251502576000000000000
B1714523800786S06009562WA0251002573000000000000
B1714543800808S06009497WA0251002574000000000000
B1714563800833S06009437WA0251102577000000000000
B1714583800864S06009388WA0251302578000000000000
B1715003800903S06009351WA0251402578000000000000
B1715023800946S06009326WA0251202575000000000000
B1715043800988S06009302WA0251002574000000000000
B1715063801029S06009274WA0251002573000000000000
B1715083801072S06009245WA0250702570000000000000
B1715103801114S06009215WA0250402567000000000000
B1715123801155S06009183WA0250002563000000000000
B1715143801198S06009151WA0249602559000000000000
B1715163801240S06009118WA0249202555000000000000
B1715183801283S06009091WA0248902553000000000000
B1715203801327S06009073WA0248702552000000000000
B1715223801371S06009059WA0248602552000000000000
B1715243801415S06009040WA0248602553000000000000
B1715263801458S06009020WA0248602552000000000000
B1715283801500S06008996WA0248402551000000000000
B1715303801541S06008972WA0248402552000000000000
B1715323801582S06008951WA0248402551000000000000
B1715343801622S06008930WA0248202544000000000000
B1715363801662S06008907WA0247602536000000000000
B1715383801703S06008879WA0246902530000000000000
B1715403801742S06008851WA0246302526000000000000
B1715423801782S06008821WA0245802520000000000000
B1715443801822S06008790WA0245202514000000000000
B1715463801862S06008758WA0244602511000000000000
B1715483801904S06008730WA0244202508000000000000
B1715503801946S06008700WA0244002505000000000000
B1715523801986S06008669WA0243802503000000000000
B1715543802026S06008636WA0243502500000000000000
B1715563802068S06008606WA0243202498000000000000
B1715583802111S06008582WA0243202499000000000000
B1716003802152S06008561WA0243302501000000000000
B1716023802194S06008541WA0243502500000000000000
B1716043802236S06008523WA0243302498000000000000
B1716063802277S06008505WA0243002494000000000000
B1716083802319S06008484WA0242702492000000000000
B1716103802359S06008463WA0242602494000000000000
B1716123802398S06008444WA0242602492000000000000
B1716143802440S06008422WA0242202485000000000000
B1716163802481S06008402WA0241902484000000000000
B1716183802524S06008389WA0242102490000000000000
B1716203802564S06008383WA0242702497000000000000
B1716223802602S06008385WA0243202501000000000000
B1716243802636S06008396WA0243502502000000000000
B1716263802667S06008413WA0243402500000000000000
B1716283802692S06008441WA0243302500000000000000
B1716303802706S06008479WA0243402499000000000000
B1716323802711S06008520WA0243302494000000000000
B1716343802711S06008565WA0242702486000000000000
B1716363802705S06008610WA0242102482000000000000
B1716383802696S06008657WA0241602476000000000000
B1716403802687S06008706WA0241002466000000000000
B1716423802679S06008760WA0240002456000000000000
B1716443802667S06008818WA0239202451000000000000
B1716463802655S06008878WA0238702451000000000000
B1716483802642S06008935WA0238802456000000000000
B1716503802631S06008991WA0239102458000000000000
B1716523802620S06009046WA0239302460000000000000
B1716543802611S06009099WA0239602466000000000000
B1716563802605S06009150WA0239802462000000000000
B1716583802597S06009200WA0239402454000000000000
B1717003802590S06009252WA0238602448000000000000
B1717023802588S06009304WA0237902443000000000000
B1717043802589S06009358WA0237502440000000000000
B1717063802590S06009410WA0237302434000000000000
B1717083802589S06009464WA0236702428000000000000
B1717103802585S06009520WA0236102426000000000000
B1717123802580S06009576WA0235802424000000000000
B1717143802575S06009632WA0235702421000000000000
B1717163802570S06009688WA0235302418000000000000
B1717183802563S06009744WA0235102416000000000000
B1717203802557S06009798WA0235002416000000000000
B1717223802549S06009853WA0235202421000000000000
B1717243802540S06009906WA0235702426000000000000
B1717263802532S06009960WA0236002429000000000000
B1717283802522S06010012WA0236202431000000000000
B1717303802512S06010062WA0236502433000000000000
B1717323802503S06010113WA0236602432000000000000
B1717343802492S06010164WA0236602436000000000000
B1717363802479S06010212WA0236902440000000000000
B1717383802467S06010256WA0237202441000000000000
B1717403802454S06010301WA0237302437000000000000
B1717423802442S06010347WA0237102429000000000000
B1717443802431S06010396WA0236102414000000000000
E171746PEV
B1717463802420S06010447WA0234502396000000000000
B1717473802414S06010474WA0233802388000000000000
B1717483802408S06010502WA0233002383000000000000
B1717493802403S06010529WA0232402379000000000000
B1717503802398S06010556WA0232002376000000000000
B1717513802392S06010584WA0231602372000000000000
B1717523802386S06010611WA0231202369000000000000
B1717533802381S06010639WA0230802365000000000000
B1717543802375S06010667WA0230402363000000000000
B1717553802369S06010694WA0230102361000000000000
B1717563802364S06010721WA0229802359000000000000
B1717573802359S06010749WA0229602358000000000000
B1717583802354S06010776WA0229702359000000000000
B1717593802350S06010803WA0229602359000000000000
B1718003802346S06010831WA0229502355000000000000
B1718013802342S06010859WA0229302351000000000000
B1718023802338S06010886WA0228902348000000000000
B1718043802330S06010945WA0228102342000000000000
B1718063802324S06011005WA0227802338000000000000
B1718083802319S06011063WA0227602338000000000000
B1718103802312S06011123WA0227502336000000000000
B1718123802306S06011183WA0227302335000000000000
B1718143802297S06011239WA0227302340000000000000
B1718163802289S06011292WA0227802345000000000000
B1718183802280S06011344WA0228002347000000000000
B1718203802272S06011395WA0228102347000000000000
B1718223802264S06011445WA0228202345000000000000
B1718243802258S06011496WA0227902341000000000000
B1718263802252S06011548WA0227702339000000000000
B1718283802245S06011599WA0227402338000000000000
B1718303802237S06011651WA0227402337000000000000
B1718323802228S06011702WA0227302336000000000000
B1718343802217S06011751WA0227102334000000000000
B1718363802207S06011800WA0226902333000000000000
B1718383802198S06011850WA0226702330000000000000
B1718403802187S06011900WA0226502328000000000000
B1718423802174S06011949WA0226402328000000000000
B1718443802159S06011995WA0226302328000000000000
B1718463802142S06012041WA0226302326000000000000
B1718483802124S06012085WA0226102322000000000000
B1718503802106S06012129WA0225902321000000000000
B1718523802087S06012173WA0225702318000000000000
B1718543802068S06012216WA0225502318000000000000
B1718563802047S06012259WA0225302319000000000000
B1718583802025S06012301WA0225402319000000000000
B1719003802003S06012344WA0225502319000000000000
B1719023801981S06012384WA0225602321000000000000
B1719043801957S06012424WA0225802325000000000000
B1719063801934S06012461WA0226202327000000000000
B1719093801896S06012514WA0226402330000000000000
B1719113801873S06012548WA0226702332000000000000
B1719133801849S06012582WA0226702332000000000000
B1719153801826S06012617WA0226702333000000000000
B1719173801804S06012653WA0226902336000000000000
B1719193801782S06012687WA0227202339000000000000
B1719213801760S06012722WA0227502343000000000000
B1719233801739S06012756WA0227802348000000000000
B1719253801721S06012790WA0228302350000000000000
B1719273801701S06012822WA0228402351000000000000
B1719293801680S06012853WA0228502354000000000000
B1719313801660S06012885WA0228802359000000000000
B1719333801638S06012914WA0229302364000000000000
B1719353801617S06012943WA0229902370000000000000
B1719373801595S06012973WA0230402375000000000000
B1719393801574S06013003WA0231002381000000000000
B1719413801554S06013033WA0231502386000000000000
B1719433801532S06013060WA0232002391000000000000
B1719453801510S06013087WA0232602397000000000000
B1719473801489S06013115WA0233202403000000000000
B1719493801472S06013145WA0233702409000000000000
B1719513801470S06013178WA0234402416000000000000
B1719533801483S06013207WA0234902419000000000000
B1719553801508S06013220WA0235202423000000000000
B1719573801537S06013213WA0235502423000000000000
B1719593801563S06013186WA0235502421000000000000
B1720013801576S06013143WA0235402419000000000000
B1720033801573S06013094WA0235202417000000000000
B1720053801550S06013054WA0235202416000000000000
B1720073801518S06013030WA0235102420000000000000
B1720093801485S06013030WA0235402424000000000000
B1720113801458S06013050WA0235802427000000000000
B1720133801445S06013082WA0236102430000000000000
B1720153801450S06013117WA0236402432000000000000
B1720173801470S06013145WA0236602437000000000000
B1720193801498S06013156WA0237002440000000000000
B1720213801530S06013147WA0237302442000000000000
B1720233801556S06013117WA0237402442000000000000
B1720253801566S06013073WA0237402442000000000000
B1720273801561S06013024WA0237502441000000000000
B1720293801540S06012983WA0237502441000000000000
B1720313801510S06012956WA0237802449000000000000
B1720333801479S06012947WA0238502456000000000000
B1720353801449S06012951WA0239102460000000000000
B1720373801426S06012970WA0239502462000000000000
B1720393801411S06012999WA0239502463000000000000
B1720413801410S06013034WA0239602466000000000000
B1720433801424S06013065WA0239802469000000000000
B1720453801448S06013085WA0240102474000000000000
B1720473801478S06013087WA0240602478000000000000
B1720493801508S06013073WA0241002480000000000000
B1720513801531S06013043WA0241202480000000000000
B1720533801544S06012999WA0241202480000000000000
B1720553801541S06012951WA0241202481000000000000
B1720573801528S06012905WA0241602486000000000000
B1720593801505S06012872WA0242002491000000000000
B1721013801475S06012853WA0242502495000000000000
B1721033801443S06012853WA0242902499000000000000
B1721053801415S06012868WA0243202502000000000000
B1721073801397S06012895WA0243402502000000000000
B1721093801389S06012930WA0243402502000000000000
B1721113801396S06012965WA0243602505000000000000
B1721133801415S06012994WA0244102512000000000000
B1721153801441S06013008WA0244502520000000000000
B1721173801471S06013009WA0245102523000000000000
B1721193801501S06012991WA0245402520000000000000
B1721213801527S06012963WA0245202519000000000000
B1721233801547S06012921WA0245202520000000000000
B1721253801550S06012872WA0245302522000000000000
B1721273801540S06012825WA0245402523000000000000
B1721293801517S06012786WA0245502524000000000000
B1721313801483S06012765WA0245702526000000000000
B1721333801448S06012765WA0246002528000000000000
B1721353801418S06012784WA0246202529000000000000
B1721373801400S06012820WA0246402531000000000000
B1721393801400S06012860WA0246602533000000000000
B1721413801417S06012895WA0246902538000000000000
B1721433801448S06012914WA0247402544000000000000
B1721453801483S06012913WA0247902550000000000000
B1721473801515S06012891WA0248602557000000000000
B1721493801537S06012853WA0249202562000000000000
B1721513801545S06012805WA0249402563000000000000
B1721533801537S06012757WA0249602561000000000000
B1721553801515S06012718WA0249502564000000000000
B1721573801483S06012695WA0249702570000000000000
B1721593801449S06012688WA0250302576000000000000
B1722013801419S06012700WA0251002580000000000000
B1722033801397S06012726WA0251202582000000000000
B1722053801385S06012760WA0251502583000000000000
B1722073801391S06012797WA0251702586000000000000
B1722093801410S06012826WA0252102593000000000000
B1722113801440S06012838WA0252702599000000000000
B1722133801474S06012831WA0253102600000000000000
B1722153801506S06012809WA0253102598000000000000
B1722173801534S06012774WA0253102599000000000000
B1722193801549S06012727WA0253302601000000000000
B1722213801552S06012677WA0253602604000000000000
B1722233801540S06012627WA0253802606000000000000
B1722253801522S06012582WA0253902609000000000000
B1722273801493S06012548WA0254102614000000000000
B1722293801461S06012534WA0254702621000000000000
B1722313801430S06012541WA0255302626000000000000
B1722333801407S06012566WA0255802628000000000000
B1722353801401S06012601WA0256002629000000000000
B1722373801411S06012636WA0256202632000000000000
B1722393801435S06012657WA0256602635000000000000
B1722413801469S06012657WA0256802639000000000000
B1722433801498S06012634WA0257202644000000000000
B1722453801518S06012593WA0257702647000000000000
B1722473801526S06012545WA0257902646000000000000
B1722493801526S06012493WA0257802645000000000000
B1722513801519S06012441WA0257702646000000000000
B1722533801504S06012393WA0257602646000000000000
B1722553801475S06012358WA0257902649000000000000
B1722573801441S06012344WA0258202651000000000000
B1722593801407S06012353WA0258302650000000000000
B1723013801383S06012383WA0258202647000000000000
B1723033801376S06012424WA0257802642000000000000
B1723053801391S06012466WA0257402640000000000000
B1723073801423S06012489WA0257202644000000000000
B1723093801461S06012487WA0257702655000000000000
B1723113801493S06012459WA0258602664000000000000
B1723133801514S06012418WA0259402669000000000000
B1723153801524S06012368WA0259802669000000000000
B1723173801530S06012316WA0259802668000000000000
B1723193801532S06012262WA0259702665000000000000
B1723213801536S06012206WA0259402662000000000000
B1723233801539S06012149WA0259002659000000000000
B1723253801545S06012090WA0258702658000000000000
B1723273801558S06012036WA0258802662000000000000
B1723293801576S06011986WA0259302667000000000000
B1723313801597S06011938WA0259802674000000000000
B1723333801617S06011893WA0260402679000000000000
B1723353801635S06011848WA0260702680000000000000
B1723373801652S06011803WA0260702680000000000000
B1723393801669S06011759WA0260702678000000000000
B1723413801686S06011713WA0260602675000000000000
B1723433801701S06011668WA0260402673000000000000
B1723453801717S06011622WA0260102671000000000000
B1723473801732S06011577WA0259802669000000000000
B1723493801749S06011531WA0259702667000000000000
B1723513801765S06011486WA0259502667000000000000
B1723533801779S06011440WA0259502668000000000000
B1723553801795S06011397WA0259702670000000000000
B1723573801813S06011354WA0259902673000000000000
B1723593801830S06011313WA0260202676000000000000
B1724013801846S06011271WA0260502678000000000000
B1724033801861S06011231WA0260602680000000000000
B1724053801878S06011192WA0260802683000000000000
B1724073801894S06011154WA0261102685000000000000
B1724093801905S06011115WA0261202684000000000000
B1724113801916S06011074WA0261102682000000000000
B1724133801925S06011031WA0260802679000000000000
B1724153801922S06010988WA0260202670000000000000
B1724163801914S06010967WA0259802660000000000000
B1724193801872S06010929WA0258902657000000000000
B1724213801839S06010931WA0258502654000000000000
B1724233801812S06010946WA0258402650000000000000
B1724253801790S06010974WA0258002642000000000000
B1724273801768S06011003WA0257302633000000000000
B1724293801740S06011029WA0256202621000000000000
B1724313801706S06011050WA0255002608000000000000
B1724333801670S06011070WA0253802595000000000000
B1724353801631S06011092WA0252702586000000000000
B1724373801592S06011115WA0251902579000000000000
B1724393801550S06011135WA0251202572000000000000
B1724413801505S06011144WA0250702568000000000000
B1724433801458S06011145WA0250102562000000000000
B1724453801409S06011144WA0249302554000000000000
B1724473801359S06011140WA0248502547000000000000
B1724493801310S06011137WA0247902543000000000000
B1724513801261S06011132WA0247502538000000000000
B1724533801211S06011126WA0247102535000000000000
B1724553801162S06011118WA0246802533000000000000
B1724573801115S06011107WA0246802534000000000000
B1724593801069S06011093WA0246902536000000000000
B1725013801025S06011075WA0246902538000000000000
B1725033800982S06011057WA0247102540000000000000
B1725053800942S06011036WA0247302542000000000000
B1725073800900S06011020WA0247402541000000000000
B1725093800859S06011015WA0247402542000000000000
B1725113800819S06011022WA0247502547000000000000
B1725133800781S06011033WA0247802548000000000000
B1725153800746S06011046WA0247802546000000000000
B1725173800709S06011059WA0247602543000000000000
B1725193800673S06011072WA0247402543000000000000
B1725213800638S06011084WA0247402542000000000000
B1725233800601S06011098WA0246702528000000000000
B1725253800562S06011114WA0245402512000000000000
B1725273800522S06011130WA0244102504000000000000
B1725293800481S06011146WA0243302495000000000000
B1725313800438S06011163WA0242302482000000000000
B1725333800393S06011179WA0240902468000000000000
B1725353800347S06011196WA0239702457000000000000
B1725373800300S06011214WA0238902453000000000000
B1725393800253S06011232WA0238502450000000000000
B1725413800208S06011250WA0238102443000000000000
B1725433800161S06011269WA0237702434000000000000
B1725453800114S06011288WA0236802426000000000000
B1725473800067S06011308WA0236102419000000000000
B1725493800020S06011326WA0235502417000000000000
B1725513759975S06011343WA0235402417000000000000
B1725533759931S06011358WA0235402420000000000000
B1725553759886S06011373WA0235602420000000000000
B1725573759842S06011387WA0235302413000000000000
B1725593759798S06011403WA0234702405000000000000
B1726013759753S06011418WA0234002399000000000000
B1726033759708S06011435WA0233502398000000000000
B1726053759664S06011452WA0233502401000000000000
B1726073759623S06011469WA0233702403000000000000
B1726093759581S06011486WA0233802404000000000000
B1726113759541S06011503WA0233902408000000000000
B1726133759503S06011518WA0234102407000000000000
B1726153759464S06011534WA0233802402000000000000
B1726173759426S06011549WA0233302394000000000000
B1726193759387S06011565WA0232302383000000000000
B1726213759347S06011583WA0231202371000000000000
B1726233759307S06011601WA0230602361000000000000
B1726253759265S06011624WA0229702353000000000000
B1726273759222S06011646WA0228402337000000000000
B1726293759178S06011670WA0227102325000000000000
B1726313759134S06011696WA0226102319000000000000
B1726333759088S06011720WA0225402315000000000000
B1726353759044S06011743WA0225002311000000000000
B1726373758999S06011767WA0224602307000000000000
B1726393758953S06011787WA0224202302000000000000
B1726413758908S06011808WA0223602297000000000000
B1726433758862S06011829WA0223202293000000000000
B1726453758817S06011847WA0222902290000000000000
B1726473758771S06011865WA0222802290000000000000
B1726493758726S06011885WA0222502285000000000000
B1726513758681S06011903WA0222102283000000000000
B1726533758638S06011921WA0222002282000000000000
B1726553758597S06011938WA0222002284000000000000
B1726573758555S06011954WA0222102288000000000000
B1726593758515S06011967WA0222402289000000000000
B1727013758475S06011978WA0222602291000000000000
B1727033758433S06011988WA0222602290000000000000
B1727053758393S06011995WA0222602291000000000000
B1727073758354S06012002WA0222802293000000000000
B1727093758316S06012010WA0223002295000000000000
B1727113758278S06012017WA0223202297000000000000
B1727143758222S06012029WA0223202294000000000000
B1727163758185S06012038WA0222702288000000000000
B1727183758144S06012049WA0222302284000000000000
B1727203758104S06012060WA0222002282000000000000
B1727223758064S06012073WA0222002283000000000000
B1727243758022S06012088WA0222002284000000000000
B1727263757982S06012103WA0222102286000000000000
B1727283757942S06012120WA0222402289000000000000
B1727303757903S06012136WA0223002298000000000000
B1727323757865S06012149WA0223902307000000000000
B1727343757829S06012163WA0224302316000000000000
B1727363757795S06012176WA0225102322000000000000
B1727383757762S06012189WA0225702325000000000000
B1727403757734S06012203WA0226102328000000000000
B1727423757714S06012228WA0226302328000000000000
B1727443757712S06012258WA0226202324000000000000
B1727463757728S06012284WA0225902318000000000000
B1727483757758S06012290WA0225502314000000000000
B1727503757790S06012268WA0225502320000000000000
B1727523757808S06012227WA0226002327000000000000
B1727543757810S06012180WA0226502330000000000000
B1727563757797S06012136WA0226802331000000000000
B1727583757779S06012097WA0226902328000000000000
B1728003757754S06012063WA0226502323000000000000
B1728023757725S06012043WA0225902317000000000000
B1728043757695S06012047WA0225502312000000000000
B1728063757674S06012069WA0225002309000000000000
B1728083757657S06012098WA0224502302000000000000
B1728103757641S06012128WA0224002297000000000000
B1728123757635S06012160WA0223602295000000000000
B1728143757644S06012192WA0223402292000000000000
B1728163757669S06012210WA0223102286000000000000
B1728183757701S06012215WA0222502281000000000000
B1728203757738S06012211WA0222102279000000000000
B1728223757775S06012207WA0222002280000000000000
B1728243757812S06012202WA0222302285000000000000
B1728263757848S06012190WA0222902292000000000000
B1728283757882S06012173WA0223502299000000000000
B1728303757914S06012150WA0224202306000000000000
B1728323757938S06012115WA0224602312000000000000
B1728343757948S06012069WA0225202318000000000000
B1728363757944S06012021WA0225802322000000000000
B1728383757931S06011975WA0226202325000000000000
B1728403757912S06011936WA0226402327000000000000
B1728423757879S06011917WA0226802331000000000000
B1728443757851S06011929WA0227002332000000000000
B1728463757835S06011959WA0227002331000000000000
B1728483757842S06011993WA0227002331000000000000
B1728503757864S06012012WA0227102334000000000000
B1728523757892S06012008WA0227502338000000000000
B1728543757918S06011984WA0227802341000000000000
B1728563757929S06011942WA0228102344000000000000
B1728583757923S06011898WA0228402347000000000000
B1729003757901S06011864WA0228602350000000000000
B1729023757870S06011847WA0229002353000000000000
B1729043757838S06011838WA0229302354000000000000
B1729063757805S06011825WA0229402355000000000000
B1729083757774S06011807WA0229402356000000000000
B1729103757741S06011793WA0229502357000000000000
B1729123757712S06011790WA0229402355000000000000
B1729143757686S06011803WA0229202352000000000000
B1729163757674S06011830WA0229002350000000000000
B1729183757682S06011858WA0228702344000000000000
B1729203757708S06011871WA0228002334000000000000
B1729223757743S06011864WA0227402329000000000000
B1729243757778S06011848WA0227202329000000000000
B1729263757810S06011820WA0227102330000000000000
B1729283757838S06011780WA0227202330000000000000
B1729303757861S06011733WA0227102330000000000000
B1729323757882S06011683WA0227102332000000000000
B1729343757900S06011633WA0227502335000000000000
B1729363757920S06011582WA0227702338000000000000
B1729383757939S06011533WA0228002342000000000000
B1729403757959S06011486WA0228502350000000000000
B1729423757978S06011440WA0229102355000000000000
B1729443757996S06011397WA0229702360000000000000
B1729463758014S06011354WA0230102364000000000000
B1729483758031S06011312WA0230502367000000000000
B1729503758040S06011266WA0230702371000000000000
B1729523758039S06011218WA0231002374000000000000
B1729543758031S06011172WA0231302375000000000000
B1729563758018S06011127WA0231402376000000000000
B1729583757999S06011087WA0231402376000000000000
B1730003757972S06011058WA0231402378000000000000
B1730023757940S06011054WA0231602379000000000000
B1730043757917S06011072WA0231602378000000000000
B1730063757912S06011106WA0231502375000000000000
B1730083757923S06011139WA0231302373000000000000
B1730103757948S06011165WA0231102372000000000000
B1730123757978S06011179WA0230902371000000000000
B1730143758012S06011191WA0230702371000000000000
B1730163758044S06011205WA0230802372000000000000
B1730183758072S06011227WA0231002374000000000000
B1730203758092S06011257WA0231202376000000000000
B1730223758104S06011295WA0231302376000000000000
B1730243758108S06011334WA0231302374000000000000
B1730263758108S06011377WA0231002369000000000000
B1730283758105S06011421WA0230502362000000000000
B1730303758103S06011469WA0229802355000000000000
B1730323758102S06011520WA0229202351000000000000
B1730343758100S06011572WA0228902346000000000000
B1730363758099S06011625WA0228602345000000000000
B1730383758094S06011678WA0228702351000000000000
B1730403758085S06011729WA0229502362000000000000
B1730423758073S06011777WA0230502372000000000000
B1730443758064S06011822WA0231402383000000000000
B1730463758055S06011865WA0232502394000000000000
B1730483758051S06011907WA0233002403000000000000
B1730503758048S06011947WA0234202411000000000000
B1730523758048S06011986WA0234602417000000000000
B1730543758050S06012024WA0235102420000000000000
B1730563758060S06012060WA0235502424000000000000
B1730583758077S06012092WA0235902430000000000000
B1731003758098S06012120WA0236502437000000000000
B1731023758120S06012145WA0237102441000000000000
B1731043758143S06012168WA0237702450000000000000
B1731063758172S06012177WA0238402456000000000000
B1731083758203S06012160WA0239002459000000000000
B1731103758224S06012124WA0239202458000000000000
B1731123758232S06012079WA0239302461000000000000
B1731143758226S06012032WA0239602468000000000000
B1731163758211S06011989WA0240302474000000000000
B1731183758194S06011950WA0240802476000000000000
B1731203758167S06011924WA0241102480000000000000
B1731223758137S06011921WA0241502485000000000000
B1731243758115S06011939WA0242102489000000000000
B1731263758107S06011971WA0242602495000000000000
B1731283758115S06011999WA0243002499000000000000
B1731303758137S06012017WA0243402502000000000000
B1731323758164S06012017WA0243702503000000000000
B1731343758194S06012004WA0243702505000000000000
B1731363758221S06011984WA0244002508000000000000
B1731383758242S06011949WA0244502514000000000000
B1731403758248S06011908WA0244702520000000000000
B1731423758239S06011868WA0245302522000000000000
B1731443758216S06011841WA0245602524000000000000
B1731463758186S06011833WA0245802527000000000000
B1731483758161S06011847WA0246202529000000000000
B1731503758150S06011874WA0246402530000000000000
B1731523758154S06011907WA0246602532000000000000
B1731543758172S06011930WA0246702533000000000000
B1731563758199S06011938WA0246902537000000000000
B1731583758229S06011924WA0247302540000000000000
B1732003758251S06011893WA0247602543000000000000
B1732023758265S06011852WA0247902546000000000000
B1732043758272S06011808WA0248102547000000000000
B1732063758271S06011763WA0248102549000000000000
B1732083758258S06011720WA0248502554000000000000
B1732103758233S06011692WA0249002560000000000000
B1732123758203S06011685WA0249502564000000000000
B1732143758178S06011700WA0249902565000000000000
B1732163758169S06011731WA0250002566000000000000
B1732183758177S06011764WA0250202567000000000000
B1732203758202S06011782WA0250202569000000000000
B1732223758232S06011778WA0250402573000000000000
B1732243758260S06011756WA0250702573000000000000
B1732263758284S06011725WA0250702573000000000000
B1732283758300S06011685WA0250702572000000000000
B1732303758303S06011637WA0250702574000000000000
B1732323758290S06011594WA0250902578000000000000
B1732343758268S06011556WA0251202582000000000000
B1732363758243S06011523WA0251502586000000000000
B1732383758215S06011499WA0252002589000000000000
B1732403758183S06011490WA0252302593000000000000
B1732423758155S06011500WA0252602596000000000000
B1732443758138S06011527WA0253002599000000000000
B1732463758135S06011561WA0253102600000000000000
B1732483758150S06011592WA0253302598000000000000
B1732503758173S06011614WA0253302601000000000000
B1732523758204S06011622WA0253602604000000000000
B1732543758235S06011617WA0253802606000000000000
B1732563758265S06011595WA0254002609000000000000
B1732583758286S06011561WA0254402614000000000000
B1733003758295S06011520WA0254602618000000000000
B1733023758289S06011477WA0255002621000000000000
B1733043758269S06011440WA0255202620000000000000
B1733063758239S06011419WA0255502623000000000000
B1733083758209S06011418WA0255702630000000000000
B1733103758183S06011431WA0256302635000000000000
B1733123758165S06011455WA0256802638000000000000
B1733143758160S06011486WA0257002637000000000000
B1733163758169S06011516WA0256902637000000000000
B1733183758190S06011538WA0257102641000000000000
B1733203758217S06011546WA0257502644000000000000
B1733223758246S06011535WA0257702645000000000000
B1733243758271S06011510WA0257802646000000000000
B1733263758286S06011473WA0258002648000000000000
B1733283758293S06011430WA0258002649000000000000
B1733303758289S06011384WA0258202652000000000000
B1733323758273S06011345WA0258702660000000000000
B1733343758250S06011319WA0259102662000000000000
B1733363758220S06011310WA0259202660000000000000
B1733383758193S06011323WA0259102659000000000000
B1733403758173S06011352WA0258902656000000000000
B1733423758170S06011390WA0258702654000000000000
B1733443758183S06011425WA0258602653000000000000
B1733463758212S06011444WA0258502657000000000000
B1733483758246S06011447WA0258902666000000000000
B1733503758280S06011436WA0259702672000000000000
B1733523758311S06011417WA0260302675000000000000
B1733543758342S06011392WA0260502676000000000000
B1733563758373S06011367WA0260802679000000000000
B1733583758407S06011347WA0261002677000000000000
B1734003758441S06011327WA0260702671000000000000
B1734023758476S06011308WA0259802659000000000000
B1734043758515S06011287WA0258602644000000000000
B1734063758555S06011262WA0257402633000000000000
B1734083758596S06011236WA0256602627000000000000
B1734103758636S06011210WA0256002621000000000000
B1734123758677S06011184WA0255202613000000000000
B1734143758719S06011162WA0254402607000000000000
B1734163758762S06011143WA0253602597000000000000
B1734183758806S06011123WA0252502585000000000000
B1734203758852S06011100WA0252002573000000000000
B1734223758898S06011075WA0251002567000000000000
B1734243758944S06011050WA0250402564000000000000
B1734263758991S06011027WA0249902561000000000000
B1734283759036S06011006WA0249602555000000000000
B1734303759083S06010985WA0249002549000000000000
B1734323759130S06010964WA0248402543000000000000
B1734343759177S06010944WA0247902542000000000000
B1734363759222S06010924WA0247702541000000000000
B1734383759268S06010906WA0247602539000000000000
B1734403759313S06010890WA0247502538000000000000
B1734423759360S06010875WA0247302536000000000000
B1734443759405S06010859WA0247202533000000000000
B1734463759451S06010845WA0247002532000000000000
B1734483759495S06010829WA0246802531000000000000
B1734503759539S06010815WA0246502528000000000000
B1734523759584S06010798WA0246102523000000000000
B1734543759629S06010782WA0245602517000000000000
B1734563759675S06010767WA0245302512000000000000
B1734583759720S06010750WA0244702505000000000000
B1735003759767S06010732WA0244002496000000000000
B1735023759815S06010715WA0243302492000000000000
B1735043759863S06010698WA0242802488000000000000
B1735063759911S06010681WA0242402484000000000000
B1735083759958S06010663WA0242102481000000000000
B1735103800006S06010646WA0241802478000000000000
B1735123800054S06010630WA0241402474000000000000
B1735143800102S06010617WA0241002471000000000000
B1735163800150S06010607WA0240802470000000000000
B1735183800196S06010600WA0240802470000000000000
B1735203800241S06010598WA0240802469000000000000
B1735223800287S06010603WA0240602466000000000000
B1735243800330S06010612WA0240302463000000000000
B1735263800371S06010628WA0240202465000000000000
B1735283800410S06010645WA0240402469000000000000
B1735303800449S06010662WA0240402467000000000000
B1735323800490S06010676WA0240202462000000000000
B1735343800530S06010689WA0239902459000000000000
B1735363800572S06010701WA0239402454000000000000
B1735383800616S06010702WA0239002448000000000000
B1735403800663S06010694WA0238402443000000000000
B1735423800709S06010680WA0238002440000000000000
B1735443800755S06010665WA0237702437000000000000
B1735463800800S06010649WA0237402435000000000000
B1735483800845S06010630WA0237202432000000000000
B1735503800887S06010611WA0236902428000000000000
B1735523800932S06010591WA0236402423000000000000
B1735543800976S06010568WA0235902418000000000000
B1735563801019S06010545WA0235502412000000000000
B1735583801063S06010520WA0234902407000000000000
B1736003801107S06010494WA0234502404000000000000
B1736023801151S06010469WA0234202402000000000000
B1736043801194S06010444WA0234202403000000000000
B1736063801238S06010422WA0234202406000000000000
B1736083801280S06010402WA0234502409000000000000
B1736103801320S06010379WA0234702411000000000000
B1736123801359S06010359WA0234702411000000000000
B1736143801400S06010338WA0234802411000000000000
B1736163801440S06010321WA0234802412000000000000
B1736183801479S06010305WA0235002416000000000000
B1736203801518S06010288WA0235502422000000000000
B1736223801556S06010270WA0236102428000000000000
B1736243801592S06010252WA0236502433000000000000
B1736263801628S06010235WA0237102440000000000000
B1736283801666S06010220WA0237602444000000000000
B1736303801701S06010205WA0238202451000000000000
B1736323801738S06010191WA0238902457000000000000
B1736343801773S06010179WA0239402461000000000000
B1736363801808S06010168WA0239502460000000000000
B1736383801842S06010156WA0239502459000000000000
B1736403801877S06010144WA0239402456000000000000
B1736423801913S06010134WA0239002450000000000000
B1736443801951S06010122WA0238502445000000000000
B1736463801989S06010112WA0238102442000000000000
B1736483802026S06010101WA0237802439000000000000
B1736503802065S06010088WA0237502434000000000000
B1736523802106S06010073WA0237102431000000000000
B1736543802145S06010057WA0236902431000000000000
B1736563802185S06010041WA0236902432000000000000
B1736583802225S06010025WA0237002433000000000000
B1737003802264S06010009WA0237202437000000000000
B1737023802303S06009995WA0237602439000000000000
B1737043802342S06009979WA0237802440000000000000
B1737063802381S06009962WA0237802441000000000000
B1737083802419S06009943WA0237902442000000000000
B1737103802455S06009922WA0238002444000000000000
B1737123802492S06009904WA0238202445000000000000
B1737143802527S06009882WA0238302446000000000000
B1737163802557S06009850WA0238302446000000000000
B1737183802576S06009809WA0238302448000000000000
B1737203802576S06009759WA0238502451000000000000
B1737223802561S06009715WA0238702450000000000000
B1737243802533S06009679WA0238602447000000000000
B1737263802502S06009649WA0238302443000000000000
B1737283802468S06009625WA0238002440000000000000
B1737303802433S06009622WA0237702437000000000000
B1737323802407S06009645WA0237502435000000000000
B1737343802399S06009685WA0237102428000000000000
B1737363802407S06009728WA0236402417000000000000
B1737383802419S06009774WA0235402402000000000000
B1737403802428S06009823WA0234302393000000000000
B1737423802436S06009875WA0233402383000000000000
B1737443802444S06009931WA0232202371000000000000
B1737463802453S06009988WA0231302364000000000000
B1737483802460S06010047WA0230902362000000000000
B1737503802467S06010105WA0230602359000000000000
B1737523802475S06010164WA0230302356000000000000
B1737543802483S06010222WA0230302358000000000000
B1737563802492S06010275WA0230702367000000000000
B1737583802499S06010327WA0231402373000000000000
B1738003802506S06010377WA0231902376000000000000
B1738023802512S06010426WA0232102379000000000000
B1738043802518S06010476WA0232502383000000000000
B1738063802524S06010524WA0232802385000000000000
B1738083802525S06010573WA0233102389000000000000
B1738103802522S06010621WA0233302391000000000000
B1738123802515S06010669WA0233602397000000000000
B1738143802511S06010712WA0234302407000000000000
B1738163802509S06010755WA0235102414000000000000
B1738183802510S06010797WA0235702419000000000000
B1738203802514S06010836WA0236202422000000000000
B1738223802519S06010873WA0236402424000000000000
B1738243802524S06010910WA0236602426000000000000
B1738263802531S06010945WA0236802426000000000000
B1738283802532S06010979WA0236702426000000000000
B1738303802531S06011013WA0236402420000000000000
B1738323802535S06011049WA0235702408000000000000
B1738343802542S06011088WA0234602397000000000000
B1738363802553S06011131WA0233502385000000000000
B1738383802566S06011176WA0232202373000000000000
B1738403802579S06011226WA0231302363000000000000
B1738423802590S06011275WA0231002359000000000000
B1738443802605S06011327WA0230402354000000000000
B1738463802620S06011378WA0229802346000000000000
B1738483802636S06011431WA0229202340000000000000
B1738503802652S06011484WA0228602336000000000000
B1738523802666S06011538WA0228102333000000000000
B1738543802678S06011592WA0227802330000000000000
B1738563802687S06011647WA0227802328000000000000
B1738583802694S06011702WA0227702331000000000000
B1739003802701S06011755WA0228202344000000000000
B1739023802707S06011803WA0229602359000000000000
B1739043802713S06011850WA0230802372000000000000
B1739063802718S06011893WA0231702379000000000000
B1739083802724S06011933WA0232402386000000000000
B1739103802733S06011971WA0233002391000000000000
B1739123802745S06012006WA0233502395000000000000
B1739143802757S06012041WA0233802398000000000000
B1739163802767S06012076WA0233802397000000000000
B1739183802776S06012112WA0233802398000000000000
B1739203802785S06012150WA0233802394000000000000
B1739223802796S06012190WA0233502390000000000000
B1739243802806S06012231WA0233102386000000000000
B1739263802817S06012274WA0232802382000000000000
B1739283802828S06012318WA0232402377000000000000
B1739303802843S06012363WA0232002373000000000000
B1739323802854S06012410WA0231502367000000000000
B1739343802865S06012459WA0231002364000000000000
B1739363802873S06012510WA0230702361000000000000
B1739383802879S06012561WA0230302359000000000000
B1739403802886S06012613WA0230202357000000000000
B1739423802892S06012664WA0230002355000000000000
B1739443802899S06012714WA0229802354000000000000
B1739463802904S06012765WA0229602353000000000000
B1739483802910S06012814WA0229402349000000000000
B1739503802918S06012865WA0229202346000000000000
B1739523802925S06012914WA0229102349000000000000
B1739543802931S06012963WA0229302353000000000000
B1739563802936S06013008WA0229502354000000000000
B1739583802936S06013052WA0229802356000000000000
B1740003802925S06013091WA0230102359000000000000
B1740023802899S06013119WA0230202359000000000000
B1740043802866S06013130WA0230102358000000000000
B1740063802831S06013130WA0230002355000000000000
B1740083802793S06013120WA0229702350000000000000
B1740103802756S06013107WA0229402347000000000000
B1740123802719S06013087WA0229002343000000000000
