ACAM4IR
HFDTE150125
HFFXA050
HFPLTPILOT:DINO GHIONI             
HFGTYGLIDERTYPE:LS-4        
HFGIDGLIDERID:KC          
HFDTM100GPSDATUM:
HFRFWFIRMWAREVERSION:F2.6
HFRHWHARDWAREVERSION:300 Series Version 2
HFFTYFRTYPE:CAMBRIDGE AERO INSTRUMENTS, 302+
HFGPS:GARMIN,LVS-25,12,18000
HFPRSPRESSALTSENSOR:INTERSEMA, MS5534-AP, 20000
I033638FXA3941ENL4247REX
LCAMSBVER:5FWVER:F26300
C021223160536021223000102
C0000000N00000000WTAKEOFF     
C3526206S06253971WHARAS       
C3602217S06316383WLAS 3 MARIAS
C3600901S06241720WC.P.T.LAUQUE
C3530355S06259367W1-CLUB      
C0000000N00000000WLANDING     
B1542143802146S06008112WA0024200191000000000000
B1542163802146S06008112WA0024200191000000000000
B1542183802146S06008112WA0024200191000000000000
B1542203802146S06008112WA0024200191000000000000
B1542223802146S06008112WA0024300191000000000000
B1542243802146S06008112WA0024200191000000000000
B1542263802146S06008112WA0024200191000000000000
B1542283802145S06008112WA0024200191000000000000
B1542303802143S06008114WA0024200191000000000000
B1542323802142S06008114WA0024200191000000000000
B1542343802141S06008114WA0024200191000000000000
B1542363802139S06008114WA0024200191000000000000
B1542383802137S06008115WA0024200192000000000000
B1542403802134S06008115WA0024300192000000000000
B1542423802128S06008116WA0024200192000000000000
B1542433802124S06008117WA0024200191000000000000
B1542473802100S06008124WA0024100191000000000000
B1542513802065S06008128WA0024000191000000000000
B1542553802020S06008130WA0023800191000000000000
B1542593801964S06008130WA0023700191000000000000
B1543033801901S06008133WA0023600196000000000000
B1543073801835S06008142WA0023900201000000000000
B1543113801770S06008145WA0025000218000000000000
B1543153801708S06008151WA0026600233000000000000
B1543193801649S06008154WA0027700247000000000000
B1543233801591S06008159WA0028800255000000000000
B1543273801528S06008164WA0029100254000000000000
B1543313801461S06008160WA0029700262000000000000
B1543353801394S06008147WA0030100271000000000000
B1543393801327S06008127WA0031800298000000000000
B1543433801263S06008111WA0033800312000000000000
B1543473801203S06008098WA0035100328000000000000
B1543513801146S06008089WA0036400340000000000000
B1543553801085S06008084WA0037000339000000000000
B1543593801025S06008094WA0037200339000000000000
B1544033800968S06008106WA0038400347000000000000
B1544073800912S06008132WA0038700351000000000000
B1544113800863S06008172WA0038900359000000000000
B1544153800825S06008221WA0039900373000000000000
B1544193800795S06008277WA0041000385000000000000
B1544233800777S06008341WA0042100400000000000000
B1544273800770S06008407WA0043500415000000000000
B1544313800773S06008475WA0045000428000000000000
B1544353800780S06008541WA0045900437000000000000
B1544393800794S06008610WA0046800450000000000000
B1544433800816S06008676WA0047900465000000000000
B1544473800843S06008745WA0049400482000000000000
B1544513800865S06008813WA0051000502000000000000
B1544553800889S06008881WA0052700511000000000000
B1544593800911S06008951WA0053200514000000000000
B1545033800934S06009021WA0053600520000000000000
B1545073800959S06009091WA0054600538000000000000
B1545113800984S06009164WA0055200540000000000000
B1545153801008S06009238WA0056000550000000000000
B1545193801038S06009310WA0056700563000000000000
B1545233801068S06009377WA0057900575000000000000
B1545273801093S06009445WA0059400588000000000000
B1545313801114S06009512WA0060500597000000000000
B1545353801128S06009579WA0061500609000000000000
B1545393801138S06009648WA0062400619000000000000
B1545433801144S06009716WA0063500633000000000000
B1545473801145S06009785WA0064800643000000000000
B1545513801140S06009849WA0065500653000000000000
B1545553801133S06009914WA0066300660000000000000
B1545593801128S06009979WA0067000667000000000000
B1546033801121S06010038WA0068300686000000000000
B1546073801112S06010099WA0069500693000000000000
B1546113801102S06010161WA0070400709000000000000
B1546153801090S06010222WA0072000718000000000000
B1546193801079S06010282WA0072600728000000000000
B1546233801066S06010343WA0073200731000000000000
B1546273801049S06010407WA0073400733000000000000
B1546313801033S06010469WA0073600739000000000000
B1546353801016S06010529WA0074500747000000000000
B1546393801011S06010593WA0074800744000000000000
B1546433801030S06010651WA0074700740000000000000
B1546473801088S06010680WA0074300736000000000000
B1546513801159S06010665WA0073700731000000000000
B1546553801220S06010603WA0073300727000000000000
B1546593801259S06010509WA0072600718000000000000
B1547033801261S06010403WA0072000713000000000000
B1547073801233S06010307WA0071400709000000000000
B1547113801198S06010222WA0071300711000000000000
B1547153801158S06010142WA0071300706000000000000
B1547193801121S06010056WA0071000704000000000000
B1547233801093S06009966WA0070800702000000000000
B1547273801068S06009875WA0070800704000000000000
B1547313801040S06009787WA0070900704000000000000
B1547353801006S06009701WA0070600693000000000000
B1547393800963S06009622WA0069900691000000000000
B1547433800911S06009558WA0069700690000000000000
B1547473800854S06009512WA0070000702000000000000
B1547513800800S06009468WA0071000709000000000000
B1547553800750S06009424WA0071600707000000000000
B1547593800696S06009380WA0071300707000000000000
B1548033800642S06009365WA0071300709000000000000
B1548073800591S06009364WA0071800711000000000000
B1548113800552S06009390WA0071700710000000000000
B1548153800523S06009430WA0071400702000000000000
B1548193800488S06009471WA0070800695000000000000
B1548233800455S06009512WA0070100689000000000000
B1548273800426S06009559WA0069500682000000000000
B1548313800432S06009620WA0068900677000000000000
B1548353800487S06009653WA0068800681000000000000
B1548393800557S06009636WA0068800678000000000000
B1548433800626S06009594WA0068500677000000000000
B1548473800695S06009546WA0068800679000000000000
B1548513800755S06009481WA0069000684000000000000
B1548553800777S06009381WA0069700692000000000000
B1548593800747S06009299WA0070200697000000000000
B1549033800695S06009294WA0070700703000000000000
B1549073800690S06009343WA0071400712000000000000
B1549113800738S06009368WA0071900715000000000000
B1549153800804S06009341WA0071900712000000000000
B1549193800863S06009276WA0071700711000000000000
B1549233800874S06009178WA0072200721000000000000
B1549273800832S06009122WA0073100729000000000000
B1549313800791S06009143WA0073500733000000000000
B1549353800796S06009198WA0073200723000000000000
B1549393800852S06009222WA0073400734000000000000
B1549433800917S06009196WA0074300737000000000000
B1549473800951S06009112WA0074500744000000000000
B1549513800916S06009044WA0074900748000000000000
B1549553800872S06009063WA0075500750000000000000
B1549593800887S06009118WA0075500753000000000000
B1550033800954S06009117WA0076100759000000000000
B1550073800997S06009043WA0076500766000000000000
B1550113800981S06008960WA0076700764000000000000
B1550153800928S06008931WA0076900770000000000000
B1550193800898S06008975WA0077300770000000000000
B1550233800932S06009030WA0077200772000000000000
B1550273801003S06009016WA0077800778000000000000
B1550313801040S06008930WA0078100782000000000000
B1550353801019S06008845WA0078400783000000000000
B1550393800964S06008816WA0078600788000000000000
B1550433800929S06008856WA0078700788000000000000
B1550473800937S06008916WA0078900788000000000000
B1550513800977S06008965WA0079200796000000000000
B1550553801042S06008960WA0079900801000000000000
B1550593801088S06008881WA0079800798000000000000
B1551033801075S06008783WA0080000804000000000000
B1551073801023S06008722WA0080200804000000000000
B1551113800965S06008731WA0080300808000000000000
B1551153800952S06008791WA0080900813000000000000
B1551193800998S06008836WA0081100819000000000000
B1551233801066S06008803WA0081800823000000000000
B1551273801082S06008705WA0081800824000000000000
B1551313801038S06008635WA0081900822000000000000
B1551353800982S06008634WA0082100826000000000000
B1551393800942S06008666WA0082600825000000000000
B1551433800933S06008725WA0082500829000000000000
B1551473800978S06008760WA0083300836000000000000
B1551513801037S06008710WA0083500836000000000000
B1551553801041S06008611WA0083400832000000000000
B1551593800994S06008540WA0083100835000000000000
B1552033800936S06008505WA0083100829000000000000
B1552073800894S06008535WA0083200835000000000000
B1552113800906S06008592WA0083000827000000000000
B1552153800959S06008624WA0082800836000000000000
B1552193801021S06008621WA0083500839000000000000
B1552233801066S06008541WA0083800837000000000000
B1552273801058S06008440WA0083400835000000000000
B1552313801006S06008383WA0083800844000000000000
B1552353800955S06008393WA0083500835000000000000
B1552393800942S06008453WA0082800827000000000000
B1552433800943S06008514WA0082800833000000000000
B1552473800946S06008574WA0082500824000000000000
B1552513800956S06008639WA0081800813000000000000
B1552553800975S06008702WA0080800804000000000000
B1552593800991S06008766WA0079800794000000000000
B1553033801007S06008829WA0079200788000000000000
B1553073801021S06008890WA0078800785000000000000
B1553113801032S06008952WA0078300781000000000000
B1553153801047S06009017WA0078000778000000000000
B1553193801064S06009082WA0077800776000000000000
B1553233801081S06009146WA0077900777000000000000
B1553273801089S06009209WA0077900776000000000000
B1553313801099S06009273WA0077400768000000000000
B1553353801132S06009334WA0076800760000000000000
B1553393801194S06009363WA0076300761000000000000
B1553433801264S06009356WA0076200754000000000000
B1553473801329S06009297WA0075600752000000000000
B1553513801379S06009219WA0075600750000000000000
B1553553801424S06009131WA0075400747000000000000
B1553593801467S06009039WA0075100746000000000000
B1554033801487S06008939WA0074600739000000000000
B1554073801458S06008851WA0074200737000000000000
B1554113801406S06008801WA0074100734000000000000
B1554153801349S06008771WA0073900729000000000000
B1554193801293S06008748WA0073300722000000000000
B1554233801242S06008761WA0073000725000000000000
B1554273801216S06008808WA0073100723000000000000
B1554313801225S06008866WA0072900719000000000000
B1554353801266S06008916WA0072400714000000000000
B1554393801332S06008931WA0071700706000000000000
B1554433801406S06008916WA0070900693000000000000
B1554473801480S06008887WA0070100691000000000000
B1554513801553S06008862WA0070400697000000000000
B1554553801625S06008851WA0070700695000000000000
B1554593801695S06008857WA0070600696000000000000
B1555033801761S06008873WA0070500693000000000000
B1555073801822S06008895WA0070500693000000000000
B1555113801878S06008930WA0070300688000000000000
B1555153801930S06008973WA0070000688000000000000
B1555193801985S06009018WA0069700683000000000000
B1555233802041S06009066WA0069400685000000000000
B1555273802091S06009115WA0070100701000000000000
B1555313802143S06009154WA0071700714000000000000
B1555353802213S06009126WA0072600722000000000000
B1555393802236S06009033WA0073000724000000000000
B1555433802191S06008970WA0073300733000000000000
B1555473802146S06008979WA0073900736000000000000
B1555513802138S06009035WA0074300744000000000000
B1555553802172S06009085WA0075100755000000000000
B1555593802241S06009061WA0075900754000000000000
B1556033802267S06008964WA0076000761000000000000
B1556073802234S06008886WA0076400764000000000000
B1556113802182S06008883WA0076700767000000000000
B1556153802172S06008940WA0077200774000000000000
B1556193802210S06008994WA0078100789000000000000
B1556233802252S06009042WA0078500779000000000000
B1556273802299S06009083WA0078500781000000000000
B1556313802359S06009112WA0079000782000000000000
B1556353802428S06009073WA0079000789000000000000
B1556393802476S06008991WA0079400791000000000000
B1556433802488S06008890WA0079500794000000000000
B1556473802471S06008792WA0079900799000000000000
B1556513802436S06008706WA0080300799000000000000
B1556553802385S06008641WA0079900803000000000000
B1556593802329S06008630WA0080800813000000000000
B1557033802294S06008666WA0082200829000000000000
B1557073802332S06008715WA0083500844000000000000
B1557113802402S06008686WA0084600851000000000000
B1557153802424S06008589WA0085000853000000000000
B1557193802382S06008523WA0085500860000000000000
B1557233802332S06008519WA0086500870000000000000
B1557273802311S06008565WA0087400880000000000000
B1557313802362S06008602WA0088100888000000000000
B1557353802431S06008562WA0088600892000000000000
B1557393802451S06008461WA0089000897000000000000
B1557433802412S06008380WA0089600903000000000000
B1557473802353S06008367WA0090400919000000000000
B1557513802321S06008413WA0091700928000000000000
B1557553802345S06008472WA0092300933000000000000
B1557593802415S06008467WA0093000951000000000000
B1558033802455S06008380WA0094200956000000000000
B1558073802425S06008292WA0094600962000000000000
B1558113802367S06008271WA0095600973000000000000
B1558153802346S06008323WA0096500984000000000000
B1558193802398S06008359WA0097400990000000000000
B1558233802463S06008303WA0098200999000000000000
B1558273802473S06008201WA0098801004000000000000
B1558313802421S06008140WA0099701017000000000000
B1558353802380S06008168WA0100701028000000000000
B1558393802410S06008224WA0101401032000000000000
B1558433802481S06008208WA0102001041000000000000
B1558473802522S06008119WA0102701048000000000000
B1558513802498S06008024WA0103401056000000000000
B1558553802441S06008007WA0104201065000000000000
B1558593802425S06008063WA0105001072000000000000
B1559033802476S06008102WA0105801081000000000000
B1559073802546S06008067WA0106601088000000000000
B1559113802577S06007968WA0107001091000000000000
B1559153802549S06007874WA0107701101000000000000
B1559193802492S06007848WA0108301106000000000000
B1559233802450S06007881WA0108601108000000000000
B1559273802444S06007945WA0108501109000000000000
B1559313802468S06008006WA0109201113000000000000
B1559353802518S06008050WA0109801118000000000000
B1559393802590S06008037WA0110501130000000000000
B1559433802641S06007959WA0110801126000000000000
B1559473802639S06007848WA0110201122000000000000
B1559513802583S06007777WA0110401123000000000000
B1559553802515S06007776WA0110301132000000000000
B1559593802467S06007815WA0111101135000000000000
B1600033802431S06007870WA0111301138000000000000
B1600073802402S06007930WA0111601139000000000000
B1600113802376S06007997WA0111601142000000000000
B1600153802350S06008065WA0111401137000000000000
B1600193802325S06008138WA0111301135000000000000
B1600233802299S06008215WA0111401145000000000000
B1600273802262S06008280WA0112701163000000000000
B1600313802234S06008340WA0115101189000000000000
B1600353802267S06008397WA0117801214000000000000
B1600393802338S06008377WA0119401229000000000000
B1600433802376S06008273WA0120901237000000000000
B1600473802342S06008177WA0121101244000000000000
B1600513802280S06008158WA0121901259000000000000
B1600553802252S06008207WA0123601276000000000000
B1600593802293S06008253WA0125101292000000000000
B1601033802364S06008216WA0126401305000000000000
B1601073802392S06008110WA0127801315000000000000
B1601113802349S06008023WA0128501323000000000000
B1601153802288S06008007WA0129801342000000000000
B1601193802271S06008060WA0131401362000000000000
B1601233802321S06008090WA0133201372000000000000
B1601273802386S06008030WA0133901383000000000000
B1601313802385S06007921WA0135001393000000000000
B1601353802325S06007876WA0136101408000000000000
B1601393802288S06007912WA0137801425000000000000
B1601433802307S06007964WA0139001436000000000000
B1601473802379S06007941WA0140201448000000000000
B1601513802405S06007837WA0141201456000000000000
B1601553802363S06007750WA0142201467000000000000
B1601593802306S06007752WA0143501484000000000000
B1602033802303S06007808WA0144801495000000000000
B1602073802359S06007831WA0145701506000000000000
B1602113802424S06007770WA0146701514000000000000
B1602153802436S06007662WA0147301520000000000000
B1602193802385S06007588WA0148001530000000000000
B1602233802325S06007583WA0149001544000000000000
B1602273802277S06007610WA0150301550000000000000
B1602313802269S06007669WA0150101539000000000000
B1602353802299S06007724WA0149601537000000000000
B1602393802349S06007763WA0149001531000000000000
B1602433802423S06007753WA0149101538000000000000
B1602473802492S06007701WA0150201548000000000000
B1602513802520S06007595WA0150501546000000000000
B1602553802481S06007496WA0150601555000000000000
B1602593802414S06007487WA0151901572000000000000
B1603033802402S06007547WA0153601590000000000000
B1603073802459S06007574WA0155301608000000000000
B1603113802524S06007517WA0157001618000000000000
B1603153802538S06007408WA0156801617000000000000
B1603193802490S06007324WA0157801634000000000000
B1603233802428S06007321WA0158801642000000000000
B1603273802403S06007376WA0160001657000000000000
B1603313802433S06007427WA0161101670000000000000
B1603353802503S06007422WA0161801670000000000000
B1603393802567S06007348WA0162301676000000000000
B1603433802592S06007236WA0162501683000000000000
B1603473802566S06007132WA0163601692000000000000
B1603513802502S06007092WA0164001692000000000000
B1603553802460S06007136WA0164201700000000000000
B1603593802476S06007198WA0165401715000000000000
B1604033802529S06007231WA0167601732000000000000
B1604073802601S06007213WA0168301737000000000000
B1604113802658S06007129WA0168601739000000000000
B1604153802655S06007016WA0168801751000000000000
B1604193802602S06006942WA0169701753000000000000
B1604233802538S06006938WA0169801758000000000000
B1604273802506S06006989WA0171101772000000000000
B1604313802532S06007046WA0172501783000000000000
B1604353802601S06007064WA0172701774000000000000
B1604393802680S06007010WA0172601781000000000000
B1604433802715S06006895WA0173401792000000000000
B1604473802679S06006798WA0174401804000000000000
B1604513802613S06006776WA0174701807000000000000
B1604553802585S06006833WA0175701823000000000000
B1604593802629S06006876WA0177001836000000000000
B1605033802707S06006853WA0177901837000000000000
B1605073802757S06006752WA0178101847000000000000
B1605113802741S06006643WA0179201856000000000000
B1605153802681S06006587WA0179701859000000000000
B1605193802628S06006608WA0180001861000000000000
B1605233802623S06006671WA0180201868000000000000
B1605273802675S06006712WA0181201873000000000000
B1605313802757S06006704WA0180801868000000000000
B1605353802826S06006617WA0181101876000000000000
B1605393802843S06006498WA0181601879000000000000
B1605433802798S06006407WA0181701882000000000000
B1605473802733S06006378WA0181901881000000000000
B1605513802678S06006398WA0182101886000000000000
B1605553802633S06006438WA0182301883000000000000
B1605593802597S06006492WA0182101876000000000000
B1606033802566S06006556WA0180701864000000000000
B1606073802536S06006622WA0180101862000000000000
B1606113802507S06006690WA0179701855000000000000
B1606153802477S06006756WA0179801852000000000000
B1606193802446S06006823WA0178801842000000000000
B1606233802411S06006890WA0177401828000000000000
B1606273802379S06006964WA0176701815000000000000
B1606313802345S06007038WA0175701804000000000000
B1606353802308S06007114WA0174701793000000000000
B1606393802273S06007194WA0173601786000000000000
B1606433802241S06007279WA0172401774000000000000
B1606473802207S06007365WA0171801761000000000000
B1606513802173S06007453WA0170701755000000000000
B1606553802137S06007540WA0170301754000000000000
B1606593802102S06007625WA0170001749000000000000
B1607033802069S06007711WA0169601745000000000000
B1607073802039S06007798WA0169401738000000000000
B1607113802008S06007883WA0168301729000000000000
B1607153801976S06007967WA0167901728000000000000
B1607193801938S06008049WA0167301721000000000000
B1607233801898S06008128WA0166401719000000000000
B1607273801857S06008205WA0166301720000000000000
B1607313801816S06008275WA0166201714000000000000
B1607353801771S06008345WA0165601709000000000000
B1607393801730S06008415WA0165301709000000000000
B1607433801687S06008481WA0165301708000000000000
B1607473801640S06008543WA0165401711000000000000
B1607513801591S06008596WA0165501709000000000000
B1607553801539S06008647WA0164901701000000000000
B1607593801483S06008696WA0164401695000000000000
B1608033801428S06008743WA0163801688000000000000
B1608073801371S06008787WA0163001678000000000000
B1608113801311S06008829WA0162101669000000000000
B1608153801249S06008871WA0161001656000000000000
B1608193801183S06008909WA0159901648000000000000
B1608233801115S06008949WA0158801636000000000000
B1608273801055S06009000WA0158401634000000000000
B1608313800999S06009053WA0158201634000000000000
B1608353800943S06009104WA0158101630000000000000
B1608393800887S06009151WA0157901632000000000000
B1608433800834S06009199WA0157901633000000000000
B1608473800787S06009248WA0158001632000000000000
B1608513800739S06009294WA0158001627000000000000
B1608553800691S06009341WA0157201616000000000000
B1608593800642S06009393WA0156101606000000000000
B1609033800590S06009443WA0155501600000000000000
B1609073800540S06009498WA0155001594000000000000
B1609113800492S06009554WA0154401588000000000000
B1609153800447S06009612WA0153901583000000000000
B1609193800397S06009668WA0153501578000000000000
B1609233800349S06009724WA0153001575000000000000
B1609273800305S06009781WA0152601570000000000000
B1609313800266S06009839WA0152301567000000000000
B1609353800224S06009895WA0151701558000000000000
B1609393800184S06009953WA0150701548000000000000
B1609433800144S06010014WA0149701536000000000000
B1609473800104S06010077WA0148501527000000000000
B1609513800065S06010139WA0148101525000000000000
B1609553800027S06010200WA0147901526000000000000
B1609593759987S06010259WA0147801521000000000000
B1610033759948S06010320WA0147101511000000000000
B1610073759909S06010385WA0146201500000000000000
B1610113759868S06010454WA0145001488000000000000
B1610153759828S06010521WA0144201482000000000000
B1610193759786S06010589WA0143801474000000000000
B1610233759742S06010652WA0143401471000000000000
B1610273759699S06010716WA0143201465000000000000
B1610313759654S06010776WA0142401459000000000000
B1610353759600S06010829WA0141301449000000000000
B1610393759546S06010879WA0140601443000000000000
B1610433759493S06010928WA0139901437000000000000
B1610473759447S06010987WA0139601436000000000000
B1610513759409S06011049WA0139701443000000000000
B1610553759376S06011105WA0140301440000000000000
B1610593759335S06011158WA0139801432000000000000
B1611033759283S06011198WA0139101427000000000000
B1611073759223S06011228WA0138901427000000000000
B1611113759160S06011249WA0138901428000000000000
B1611153759095S06011270WA0138901428000000000000
B1611193759031S06011292WA0138901424000000000000
B1611233758967S06011322WA0138301418000000000000
B1611273758906S06011354WA0138101423000000000000
B1611313758853S06011388WA0139501442000000000000
B1611353758804S06011413WA0140901448000000000000
B1611393758765S06011453WA0140901442000000000000
B1611433758741S06011505WA0140701449000000000000
B1611473758719S06011557WA0140901438000000000000
B1611513758694S06011616WA0139601422000000000000
B1611553758667S06011674WA0138201415000000000000
B1611593758635S06011730WA0137201400000000000000
B1612033758597S06011786WA0136101394000000000000
B1612073758559S06011845WA0135801395000000000000
B1612113758516S06011891WA0137401424000000000000
B1612153758497S06011945WA0139301438000000000000
B1612193758540S06011986WA0140401447000000000000
B1612233758602S06011934WA0141401454000000000000
B1612273758615S06011834WA0141801457000000000000
B1612313758572S06011764WA0142401465000000000000
B1612353758515S06011756WA0143301477000000000000
B1612393758497S06011807WA0144601493000000000000
B1612433758545S06011839WA0145601496000000000000
B1612473758606S06011783WA0146001501000000000000
B1612513758615S06011682WA0146101501000000000000
B1612553758584S06011594WA0147101521000000000000
B1612593758532S06011585WA0148701536000000000000
B1613033758527S06011635WA0150001546000000000000
B1613073758585S06011652WA0150601552000000000000
B1613113758641S06011583WA0151101554000000000000
B1613153758648S06011479WA0151501564000000000000
B1613193758616S06011396WA0152301573000000000000
B1613233758560S06011380WA0153301583000000000000
B1613273758538S06011434WA0154201587000000000000
B1613313758590S06011474WA0155001606000000000000
B1613353758655S06011421WA0156301613000000000000
B1613393758670S06011318WA0156901618000000000000
B1613433758624S06011252WA0157501627000000000000
B1613473758573S06011261WA0158401638000000000000
B1613513758567S06011314WA0159401647000000000000
B1613553758625S06011332WA0160601662000000000000
B1613593758687S06011267WA0161301663000000000000
B1614033758688S06011162WA0161601667000000000000
B1614073758633S06011111WA0162301679000000000000
B1614113758586S06011131WA0163201686000000000000
B1614153758597S06011185WA0163901691000000000000
B1614193758640S06011224WA0164301695000000000000
B1614233758709S06011201WA0164601702000000000000
B1614273758749S06011109WA0165601710000000000000
B1614313758728S06011013WA0166301716000000000000
B1614353758672S06010971WA0166801725000000000000
B1614393758625S06010988WA0167201725000000000000
B1614433758619S06011042WA0167301727000000000000
B1614473758631S06011104WA0166901723000000000000
B1614513758644S06011170WA0166801728000000000000
B1614553758651S06011230WA0168101743000000000000
B1614593758671S06011284WA0168801744000000000000
B1615033758693S06011345WA0168601736000000000000
B1615073758700S06011416WA0168001732000000000000
B1615113758693S06011488WA0167301724000000000000
B1615153758681S06011562WA0166601718000000000000
B1615193758670S06011638WA0165901709000000000000
B1615233758657S06011718WA0165301702000000000000
B1615273758638S06011800WA0164401695000000000000
B1615313758615S06011882WA0163801691000000000000
B1615353758589S06011962WA0163501689000000000000
B1615393758560S06012041WA0163001684000000000000
B1615433758529S06012118WA0162901681000000000000
B1615473758497S06012192WA0162601678000000000000
B1615513758462S06012262WA0162401680000000000000
B1615553758428S06012327WA0162801678000000000000
B1615593758395S06012394WA0162701669000000000000
B1616033758365S06012462WA0162501664000000000000
B1616073758336S06012532WA0161401651000000000000
B1616113758300S06012601WA0160301641000000000000
B1616153758264S06012671WA0159401634000000000000
B1616193758226S06012740WA0159001633000000000000
B1616233758187S06012808WA0158301624000000000000
B1616273758147S06012870WA0158301627000000000000
B1616313758111S06012931WA0158501631000000000000
B1616353758082S06012998WA0159001638000000000000
B1616393758052S06013061WA0159601650000000000000
B1616433758017S06013115WA0161201658000000000000
B1616473757992S06013174WA0161401657000000000000
B1616513757988S06013245WA0161801667000000000000
B1616553757988S06013314WA0162901679000000000000
B1616593758017S06013373WA0163601685000000000000
B1617033758069S06013412WA0164101686000000000000
B1617073758135S06013431WA0164501698000000000000
B1617113758204S06013388WA0165301700000000000000
B1617153758235S06013289WA0164801697000000000000
B1617193758211S06013198WA0164901702000000000000
B1617233758161S06013145WA0165401703000000000000
B1617273758109S06013126WA0165601710000000000000
B1617313758059S06013121WA0166301715000000000000
B1617353758005S06013116WA0165801702000000000000
B1617393757948S06013117WA0165001690000000000000
B1617433757886S06013117WA0164201685000000000000
B1617473757821S06013116WA0163201674000000000000
B1617513757751S06013112WA0162301666000000000000
B1617553757680S06013107WA0161601663000000000000
B1617593757606S06013093WA0161001656000000000000
B1618033757535S06013094WA0160301648000000000000
B1618073757471S06013119WA0159901648000000000000
B1618113757415S06013152WA0160001649000000000000
B1618153757359S06013180WA0160201648000000000000
B1618193757298S06013194WA0159701636000000000000
B1618233757229S06013198WA0158501624000000000000
B1618273757155S06013198WA0157501619000000000000
B1618313757082S06013193WA0157801617000000000000
B1618353757010S06013186WA0157601612000000000000
B1618393756938S06013178WA0156801606000000000000
B1618433756867S06013171WA0156601601000000000000
B1618473756795S06013155WA0156201598000000000000
B1618513756725S06013139WA0155801589000000000000
B1618553756656S06013134WA0155201589000000000000
B1618593756590S06013134WA0155201587000000000000
B1619033756521S06013129WA0154901585000000000000
B1619073756454S06013126WA0154901586000000000000
B1619113756388S06013124WA0154801580000000000000
B1619153756321S06013109WA0154001573000000000000
B1619193756252S06013096WA0153701570000000000000
B1619233756185S06013095WA0153001563000000000000
B1619273756120S06013098WA0152501561000000000000
B1619313756055S06013083WA0152801568000000000000
B1619353755990S06013060WA0152701568000000000000
B1619393755931S06013039WA0153401576000000000000
B1619433755875S06013016WA0153501578000000000000
B1619473755820S06012990WA0153801573000000000000
B1619513755760S06012986WA0153101561000000000000
B1619553755703S06013008WA0151601547000000000000
B1619593755646S06013029WA0150401537000000000000
B1620033755585S06013048WA0149501530000000000000
B1620073755521S06013063WA0149401539000000000000
B1620113755456S06013067WA0149701530000000000000
B1620153755387S06013064WA0148501518000000000000
B1620193755313S06013060WA0147801518000000000000
B1620233755247S06013052WA0148601527000000000000
B1620273755196S06013073WA0148601524000000000000
B1620313755151S06013104WA0148201513000000000000
B1620353755106S06013145WA0147001498000000000000
B1620393755071S06013198WA0145601491000000000000
B1620433755034S06013251WA0144901485000000000000
B1620473754992S06013301WA0144701482000000000000
B1620513754945S06013346WA0144101476000000000000
B1620553754896S06013389WA0143401469000000000000
B1620593754841S06013425WA0142901464000000000000
B1621033754783S06013455WA0142301453000000000000
B1621073754722S06013486WA0140901442000000000000
B1621113754666S06013529WA0139701430000000000000
B1621153754649S06013605WA0139601432000000000000
B1621193754654S06013680WA0139501436000000000000
B1621233754658S06013748WA0140101445000000000000
B1621273754655S06013806WA0141301454000000000000
B1621313754646S06013858WA0142101455000000000000
B1621353754632S06013910WA0141401445000000000000
B1621393754611S06013964WA0141101450000000000000
B1621433754581S06014006WA0141701452000000000000
B1621473754549S06014043WA0141601450000000000000
B1621513754514S06014075WA0142201464000000000000
B1621553754476S06014103WA0142901472000000000000
B1621593754433S06014120WA0143501472000000000000
B1622033754385S06014126WA0143701473000000000000
B1622073754334S06014130WA0143901480000000000000
B1622113754285S06014131WA0144401480000000000000
B1622153754230S06014131WA0144401482000000000000
B1622193754176S06014126WA0144501472000000000000
B1622233754120S06014140WA0142901459000000000000
B1622273754094S06014196WA0142801463000000000000
B1622313754118S06014259WA0142301457000000000000
B1622353754170S06014307WA0142301461000000000000
B1622393754222S06014352WA0142601463000000000000
B1622433754269S06014406WA0142501465000000000000
B1622473754307S06014456WA0143201477000000000000
B1622513754338S06014507WA0143901470000000000000
B1622553754371S06014565WA0142701464000000000000
B1622593754402S06014621WA0142101452000000000000
B1623033754460S06014660WA0140901446000000000000
B1623073754529S06014681WA0140501440000000000000
B1623113754595S06014708WA0140101435000000000000
B1623153754660S06014738WA0139101426000000000000
B1623193754735S06014757WA0138501419000000000000
B1623233754813S06014754WA0138201418000000000000
B1623273754889S06014747WA0138301415000000000000
B1623313754970S06014740WA0137201400000000000000
B1623353755053S06014698WA0136101395000000000000
B1623393755131S06014630WA0135001383000000000000
B1623433755197S06014543WA0134101379000000000000
B1623473755260S06014452WA0133801373000000000000
B1623513755325S06014367WA0133201365000000000000
B1623553755388S06014278WA0132701361000000000000
B1623593755450S06014187WA0132201360000000000000
B1624033755513S06014100WA0132101355000000000000
B1624073755578S06014012WA0131301346000000000000
B1624113755642S06013919WA0130401334000000000000
B1624153755706S06013821WA0129401320000000000000
B1624193755767S06013715WA0128201312000000000000
B1624233755828S06013606WA0127801311000000000000
B1624273755886S06013502WA0128301316000000000000
B1624313755944S06013401WA0128901319000000000000
B1624353755999S06013302WA0129101322000000000000
B1624393756062S06013211WA0129001326000000000000
B1624433756131S06013137WA0129801338000000000000
B1624473756196S06013069WA0130701336000000000000
B1624513756257S06012985WA0129401316000000000000
B1624553756305S06012877WA0127901305000000000000
B1624593756344S06012761WA0126801299000000000000
B1625033756376S06012643WA0126901293000000000000
B1625073756405S06012524WA0126401286000000000000
B1625113756434S06012406WA0125901278000000000000
B1625153756458S06012284WA0124801264000000000000
B1625193756479S06012154WA0123701261000000000000
B1625233756500S06012028WA0123801265000000000000
B1625273756522S06011907WA0123801273000000000000
B1625313756547S06011796WA0125401293000000000000
B1625353756571S06011698WA0126901304000000000000
B1625393756571S06011596WA0127101298000000000000
B1625433756521S06011531WA0127301307000000000000
B1625473756469S06011534WA0128101319000000000000
B1625513756447S06011578WA0129101328000000000000
B1625553756482S06011622WA0129501327000000000000
B1625593756552S06011607WA0129601330000000000000
B1626033756599S06011520WA0129801328000000000000
B1626073756582S06011421WA0129901334000000000000
B1626113756526S06011382WA0130301341000000000000
B1626153756484S06011414WA0130901344000000000000
B1626193756491S06011473WA0131401348000000000000
B1626233756549S06011501WA0131601348000000000000
B1626273756621S06011458WA0131701355000000000000
B1626313756657S06011364WA0132101356000000000000
B1626353756634S06011270WA0132301358000000000000
B1626393756577S06011232WA0132501364000000000000
B1626433756535S06011263WA0132901367000000000000
B1626473756536S06011326WA0133201369000000000000
B1626513756587S06011362WA0133801379000000000000
B1626553756657S06011338WA0134101374000000000000
B1626593756704S06011247WA0133901369000000000000
B1627033756695S06011140WA0134001378000000000000
B1627073756652S06011078WA0135501395000000000000
B1627113756603S06011074WA0136101393000000000000
B1627153756584S06011123WA0135601386000000000000
B1627193756613S06011182WA0135301390000000000000
B1627233756666S06011215WA0135301388000000000000
B1627273756740S06011208WA0135301384000000000000
B1627313756815S06011211WA0135001382000000000000
B1627353756878S06011231WA0135201389000000000000
B1627393756938S06011254WA0135301383000000000000
B1627433757000S06011275WA0134201361000000000000
B1627473757069S06011293WA0132301346000000000000
B1627513757136S06011315WA0131501345000000000000
B1627553757195S06011339WA0131501341000000000000
B1627593757254S06011365WA0130401326000000000000
B1628033757315S06011391WA0128901309000000000000
B1628073757387S06011405WA0127201293000000000000
B1628113757462S06011405WA0125701278000000000000
B1628153757539S06011406WA0124901273000000000000
B1628193757611S06011421WA0124301268000000000000
B1628233757676S06011443WA0124501264000000000000
B1628273757741S06011465WA0123501254000000000000
B1628313757810S06011491WA0122201240000000000000
B1628353757882S06011516WA0120901230000000000000
B1628393757959S06011533WA0119901219000000000000
B1628433758039S06011542WA0119001209000000000000
B1628473758121S06011547WA0118101202000000000000
B1628513758202S06011552WA0117301191000000000000
B1628553758285S06011557WA0116401178000000000000
B1628593758368S06011562WA0115201169000000000000
B1629033758451S06011568WA0114501163000000000000
B1629073758533S06011573WA0114001151000000000000
B1629113758616S06011578WA0113501144000000000000
B1629153758701S06011581WA0112801137000000000000
B1629193758785S06011583WA0111701133000000000000
B1629233758869S06011585WA0111201127000000000000
B1629273758954S06011587WA0110801127000000000000
B1629313759034S06011591WA0111401142000000000000
B1629353759105S06011600WA0112601144000000000000
B1629393759175S06011608WA0112401134000000000000
B1629433759253S06011612WA0111401123000000000000
B1629473759337S06011611WA0110001109000000000000
B1629513759424S06011611WA0108801102000000000000
B1629553759508S06011611WA0108401097000000000000
B1629593759597S06011611WA0107701083000000000000
B1630033759685S06011605WA0106401074000000000000
B1630073759776S06011600WA0105501064000000000000
B1630113759871S06011590WA0104601056000000000000
B1630153759964S06011569WA0104001050000000000000
B1630193800057S06011546WA0103301045000000000000
B1630233800146S06011527WA0103101048000000000000
B1630273800230S06011513WA0104101064000000000000
B1630313800304S06011501WA0105701076000000000000
B1630353800373S06011488WA0106801095000000000000
B1630393800426S06011423WA0108501109000000000000
B1630433800418S06011327WA0110301127000000000000
B1630473800356S06011300WA0111901138000000000000
B1630513800332S06011352WA0113201156000000000000
B1630553800374S06011391WA0113901155000000000000
B1630593800440S06011356WA0114401170000000000000
B1631033800478S06011270WA0115701185000000000000
B1631073800444S06011187WA0117301206000000000000
B1631113800388S06011179WA0118901218000000000000
B1631153800393S06011235WA0120501236000000000000
B1631193800452S06011234WA0122501256000000000000
B1631233800492S06011158WA0123601265000000000000
B1631273800458S06011078WA0125101286000000000000
B1631313800403S06011079WA0126601299000000000000
B1631353800405S06011135WA0128501323000000000000
B1631393800462S06011140WA0129901332000000000000
B1631433800505S06011062WA0130401341000000000000
B1631473800478S06010975WA0131801361000000000000
B1631513800418S06010961WA0133201372000000000000
B1631553800404S06011019WA0134801394000000000000
B1631593800458S06011041WA0136601408000000000000
B1632033800512S06010983WA0138101427000000000000
B1632073800510S06010892WA0139601438000000000000
B1632113800457S06010841WA0140501448000000000000
B1632153800412S06010875WA0142001464000000000000
B1632193800444S06010927WA0143601478000000000000
B1632233800508S06010883WA0145001494000000000000
B1632273800501S06010786WA0146301510000000000000
B1632313800442S06010758WA0147501522000000000000
B1632353800405S06010803WA0148901541000000000000
B1632393800439S06010854WA0150101545000000000000
B1632433800508S06010823WA0150601561000000000000
B1632473800529S06010730WA0152801585000000000000
B1632513800492S06010655WA0154201590000000000000
B1632553800429S06010656WA0155001604000000000000
B1632593800401S06010708WA0156701617000000000000
B1633033800447S06010750WA0157201621000000000000
B1633073800516S06010715WA0157601630000000000000
B1633113800535S06010617WA0159501653000000000000
B1633153800497S06010537WA0160901661000000000000
B1633193800432S06010526WA0162001676000000000000
B1633233800414S06010589WA0163101683000000000000
B1633273800465S06010625WA0163801692000000000000
B1633313800527S06010571WA0164701705000000000000
B1633353800529S06010470WA0166001719000000000000
B1633393800471S06010416WA0167501735000000000000
B1633433800421S06010451WA0169001748000000000000
B1633473800435S06010515WA0169501752000000000000
B1633513800503S06010515WA0170301759000000000000
B1633553800546S06010429WA0171201772000000000000
B1633593800516S06010340WA0173001791000000000000
B1634033800455S06010316WA0174701801000000000000
B1634073800410S06010357WA0175401806000000000000
B1634113800427S06010416WA0175501809000000000000
B1634153800491S06010430WA0175701806000000000000
B1634193800560S06010431WA0175801817000000000000
B1634233800626S06010404WA0177001833000000000000
B1634273800652S06010309WA0178001836000000000000
B1634313800604S06010231WA0178401845000000000000
B1634353800535S06010230WA0179401850000000000000
B1634393800486S06010282WA0179701861000000000000
B1634433800451S06010348WA0180101858000000000000
B1634473800414S06010418WA0179101842000000000000
B1634513800373S06010491WA0177601819000000000000
B1634553800328S06010565WA0175601805000000000000
B1634593800286S06010639WA0174601801000000000000
B1635033800243S06010711WA0174701808000000000000
B1635073800198S06010780WA0175201810000000000000
B1635113800154S06010846WA0175401807000000000000
B1635153800105S06010912WA0174501789000000000000
B1635193800046S06010974WA0173401787000000000000
B1635233759989S06011033WA0172301770000000000000
B1635273759931S06011093WA0171001753000000000000
B1635313759868S06011140WA0170701754000000000000
B1635353759803S06011179WA0170701758000000000000
B1635393759740S06011208WA0171801774000000000000
B1635433759680S06011240WA0172501773000000000000
B1635473759630S06011284WA0173001782000000000000
B1635513759587S06011336WA0174101805000000000000
B1635553759550S06011390WA0175801813000000000000
B1635593759551S06011456WA0176901828000000000000
B1636033759607S06011487WA0177601840000000000000
B1636073759676S06011444WA0178601845000000000000
B1636113759704S06011340WA0179201865000000000000
B1636153759685S06011245WA0181701890000000000000
B1636193759626S06011230WA0184101912000000000000
B1636233759603S06011279WA0184801908000000000000
B1636273759646S06011322WA0185101913000000000000
B1636313759716S06011314WA0185401910000000000000
B1636353759781S06011248WA0185401919000000000000
B1636393759801S06011141WA0186301927000000000000
B1636433759767S06011045WA0186801933000000000000
B1636473759704S06011007WA0187601946000000000000
B1636513759656S06011042WA0188601960000000000000
B1636553759656S06011106WA0189901966000000000000
B1636593759719S06011130WA0190801979000000000000
B1637033759790S06011075WA0191501984000000000000
B1637073759812S06010966WA0192502000000000000000
B1637113759772S06010877WA0193602008000000000000
B1637153759707S06010863WA0194902021000000000000
B1637193759662S06010898WA0196102034000000015000
B1637233759625S06010950WA0196402033000000015000
B1637273759590S06011007WA0196302029000000000000
B1637313759554S06011068WA0195802017000000000000
B1637353759516S06011137WA0194602004000000000000
B1637393759474S06011208WA0193602000000000000000
B1637433759431S06011275WA0193602006000000000000
B1637473759386S06011340WA0193902006000000000000
B1637513759342S06011403WA0193802000000000000000
B1637553759298S06011464WA0192901986000000000000
B1637593759247S06011516WA0192001984000000000000
B1638033759190S06011561WA0191701978000000000000
B1638073759129S06011596WA0191901983000000000000
B1638113759066S06011624WA0192001987000000000000
B1638153759015S06011666WA0192401985000000000000
B1638193758987S06011729WA0192101983000000000000
B1638233758979S06011800WA0191901986000000000000
B1638273758986S06011876WA0191901986000000000000
B1638313759001S06011951WA0192301992000000000000
B1638353759027S06012023WA0193301997000000000000
B1638393759079S06012076WA0193802005000000000000
B1638433759143S06012108WA0194902027000000000000
B1638473759216S06012071WA0196602044000000000000
B1638513759248S06011968WA0197802055000000000000
B1638553759209S06011882WA0198802061000000000000
B1638593759149S06011863WA0199502066000000000000
B1639033759126S06011916WA0199902069000000000000
B1639073759173S06011965WA0200402083000000000000
B1639113759246S06011951WA0201902096000000000000
B1639153759303S06011872WA0203102105000000000000
B1639193759303S06011768WA0203802112000000000000
B1639233759253S06011698WA0204202116000000000000
B1639273759191S06011686WA0204402113000000000000
B1639313759147S06011725WA0204202115000000000000
B1639353759118S06011782WA0204202119000000000000
B1639393759082S06011833WA0205002124000000000000
B1639433759032S06011872WA0205502134000000000000
B1639473758979S06011900WA0206002129000000000000
B1639513758926S06011923WA0206102133000000000000
B1639553758872S06011941WA0206202128000000000000
B1639593758818S06011967WA0205502124000000000000
B1640033758771S06012006WA0205202125000000000000
B1640073758731S06012059WA0205302116000000000000
B1640113758694S06012123WA0204202102000000000000
B1640153758658S06012197WA0202702084000000000000
B1640193758624S06012277WA0201202072000000000000
B1640233758590S06012363WA0200102061000000000000
B1640273758560S06012452WA0198902049000000000000
B1640313758532S06012541WA0198002035000000000000
B1640353758506S06012630WA0196602025000000000000
B1640393758473S06012712WA0195902020000000000000
B1640433758432S06012775WA0196002028000000000000
B1640473758385S06012822WA0196502038000000000000
B1640513758339S06012856WA0197202042000000000000
B1640553758298S06012885WA0197702045000000000000
B1640593758267S06012924WA0197402034000000000000
B1641033758287S06012982WA0196702028000000000000
B1641073758339S06013024WA0196102026000000000000
B1641113758388S06013069WA0195702012000000000000
B1641153758419S06013138WA0194402006000000000000
B1641193758436S06013215WA0193701999000000000000
B1641233758440S06013295WA0192801988000000000000
B1641273758438S06013375WA0192201987000000000000
B1641313758437S06013455WA0192001984000000000000
B1641353758433S06013535WA0192901996000000000000
B1641393758429S06013606WA0193701999000000000000
B1641433758423S06013672WA0194402014000000000000
B1641473758416S06013736WA0195302017000000000000
B1641513758411S06013796WA0196302027000000000000
B1641553758402S06013849WA0196802035000000000000
B1641593758391S06013902WA0197302037000000000000
B1642033758381S06013954WA0197602034000000000000
B1642073758371S06014009WA0197202028000000000000
B1642113758362S06014068WA0196802025000000000000
B1642153758354S06014127WA0196502024000000000000
B1642193758346S06014188WA0196302017000000000000
B1642233758336S06014248WA0195502009000000000000
B1642273758325S06014308WA0194802002000000000000
B1642313758316S06014368WA0193901992000000000000
B1642353758311S06014435WA0192001971000000000000
B1642393758306S06014511WA0189601951000000000000
B1642433758298S06014595WA0187701932000000000000
B1642473758282S06014681WA0186601923000000000000
B1642513758259S06014766WA0185701920000000000000
B1642553758226S06014841WA0186201928000000000000
B1642593758189S06014911WA0187001944000000000000
B1643033758144S06014963WA0188901962000000000000
B1643073758096S06015001WA0190401970000000000000
B1643113758047S06015037WA0191001970000000000000
B1643153757992S06015063WA0191701983000000000000
B1643193757939S06015075WA0193201997000000000000
B1643233757882S06015083WA0194202003000000000000
B1643273757825S06015088WA0195102018000000000000
B1643313757804S06015137WA0196002024000000000000
B1643353757851S06015179WA0196102029000000000000
B1643393757917S06015135WA0197102047000000000000
B1643433757935S06015035WA0198702060000000000000
B1643473757910S06014936WA0199702069000000000000
B1643513757852S06014876WA0201002080000000000000
B1643553757793S06014877WA0201302081000000000000
B1643593757778S06014931WA0201802085000000000000
B1644033757812S06014978WA0202702102000000000000
B1644073757878S06014963WA0203502109000000000000
B1644113757925S06014879WA0204102113000000000000
B1644153757917S06014768WA0204902126000000000000
B1644193757862S06014698WA0205802135000000000000
B1644233757806S06014707WA0206302132000000000000
B1644273757800S06014766WA0206502145000000000000
B1644313757852S06014792WA0208102163000000000000
B1644353757916S06014747WA0209302169000000000000
B1644393757943S06014647WA0209802171000000000000
B1644433757912S06014549WA0209902175000000000000
B1644473757848S06014511WA0210102172000000000000
B1644513757803S06014546WA0210002178000000000000
B1644553757803S06014604WA0210902190000000000000
B1644593757840S06014650WA0211702192000000000000
B1645033757912S06014636WA0212202204000000000000
B1645073757957S06014545WA0213402218000000000000
B1645113757933S06014438WA0214402225000000000000
B1645153757866S06014402WA0214902227000000000000
B1645193757818S06014438WA0215502234000000000000
B1645233757808S06014500WA0215902233000000000000
B1645273757835S06014565WA0215402234000000000000
B1645313757897S06014601WA0215902241000000000000
B1645353757975S06014572WA0216602254000000000000
B1645393758034S06014491WA0217902264000000000000
B1645433758044S06014377WA0219102274000000000000
B1645473757996S06014285WA0220002288000000000000
B1645513757927S06014266WA0221002294000000000000
B1645553757890S06014320WA0221802303000000000000
B1645593757901S06014386WA0222702317000000000000
B1646033757956S06014424WA0223902324000000000000
B1646073758031S06014391WA0224302328000000000000
B1646113758074S06014291WA0224702332000000000000
B1646153758066S06014173WA0224802327000000000000
B1646193758014S06014079WA0225202341000000000000
B1646233757942S06014042WA0226402351000000000000
B1646273757887S06014079WA0227502362000000000000
B1646313757874S06014146WA0227802360000000000000
B1646353757918S06014204WA0227902365000000000000
B1646393757996S06014204WA0228702376000000000000
B1646433758063S06014133WA0229202376000000000000
B1646473758099S06014023WA0229902377000000000000
B1646513758095S06013901WA0229902381000000000000
B1646553758043S06013805WA0230102382000000000000
B1646593757968S06013778WA0231102395000000000000
B1647033757912S06013808WA0232202409000000000000
B1647073757886S06013866WA0232002391000000000000
B1647113757914S06013936WA0231902397000000000000
B1647153757985S06013964WA0232002402000000000000
B1647193758065S06013934WA0232402402000000000000
B1647233758128S06013852WA0232602407000000000000
B1647273758150S06013737WA0233102416000000000000
B1647313758138S06013620WA0233302419000000000000
B1647353758090S06013525WA0233402412000000000000
B1647393758016S06013485WA0233502417000000000000
B1647433757951S06013503WA0234402428000000000000
B1647473757903S06013550WA0234302414000000000000
B1647513757871S06013618WA0233702408000000000000
B1647553757842S06013692WA0232702395000000000000
B1647593757812S06013765WA0231902394000000000000
B1648033757780S06013836WA0232102401000000000000
B1648073757752S06013902WA0232702406000000000000
B1648113757734S06013969WA0233402411000000000000
B1648153757719S06014038WA0233102399000000000000
B1648193757704S06014112WA0232202392000000000000
B1648233757688S06014186WA0231702388000000000000
B1648273757670S06014259WA0231602391000000000000
B1648313757648S06014329WA0231702389000000000000
B1648353757623S06014399WA0231902398000000000000
B1648393757595S06014458WA0233102413000000000000
B1648433757575S06014512WA0234402425000000000000
B1648473757617S06014558WA0235102438000000000000
B1648513757684S06014513WA0236502450000000000000
B1648553757691S06014403WA0237302457000000000000
B1648593757632S06014348WA0238002465000000000000
B1649033757592S06014387WA0238502469000000000000
B1649073757617S06014445WA0239202482000000000000
B1649113757684S06014446WA0240302499000000000000
B1649153757738S06014365WA0241802505000000000000
B1649193757727S06014256WA0242202507000000000000
B1649233757663S06014216WA0242702517000000000000
B1649273757619S06014251WA0243402524000000000000
B1649313757628S06014308WA0244502538000000000000
B1649353757691S06014316WA0245602546000000000000
B1649393757749S06014243WA0245102532000000000000
B1649433757752S06014125WA0245602547000000000000
B1649473757706S06014038WA0246602555000000000000
B1649513757641S06014014WA0247302562000000000000
B1649553757610S06014065WA0247602561000000000000
B1649593757653S06014121WA0247502560000000000000
B1650033757735S06014077WA0247802566000000000000
B1650073757747S06013949WA0248202568000000000000
B1650113757671S06013888WA0248402569000000000000
B1650153757609S06013938WA0247802562000000000000
B1650193757592S06014021WA0248202584000000000000
B1650233757589S06014091WA0250602598000000000000
B1650273757634S06014142WA0251402608000000000000
B1650313757708S06014103WA0252602618000000000000
B1650353757731S06013991WA0252802613000000000000
B1650393757684S06013910WA0252702620000000000000
B1650433757626S06013905WA0252602604000000000000
B1650473757583S06013945WA0251502596000000000000
B1650513757585S06014013WA0250802595000000000000
B1650553757627S06014066WA0251102604000000000000
B1650593757674S06014105WA0251702607000000000000
B1651033757723S06014138WA0252002610000000000000
B1651073757773S06014168WA0251902603000000000000
B1651113757823S06014201WA0251202593000000000000
B1651153757870S06014246WA0249902580000000000000
B1651193757909S06014300WA0248502562000000000000
B1651233757936S06014364WA0247002547000000000000
B1651273757947S06014432WA0246002532000000000000
B1651313757930S06014493WA0245602540000000000000
B1651353757897S06014538WA0246002547000000000000
B1651393757858S06014577WA0246502546000000000000
B1651433757814S06014617WA0245302532000000000000
B1651473757765S06014655WA0244202528000000000000
B1651513757719S06014697WA0243802520000000000000
B1651553757717S06014762WA0244702534000000000000
B1651593757762S06014803WA0245902544000000000000
B1652033757834S06014797WA0245802535000000000000
B1652073757903S06014721WA0244902531000000000000
B1652113757940S06014608WA0244202522000000000000
B1652153757968S06014485WA0243902514000000000000
B1652193757998S06014357WA0242602503000000000000
B1652233758034S06014235WA0242402511000000000000
B1652273758079S06014121WA0243202513000000000000
B1652313758121S06014006WA0242902504000000000000
B1652353758148S06013880WA0241502487000000000000
B1652393758157S06013748WA0239402461000000000000
B1652433758159S06013613WA0237702454000000000000
B1652473758159S06013477WA0237402451000000000000
B1652513758165S06013343WA0237302455000000000000
B1652553758180S06013215WA0237402449000000000000
B1652593758199S06013091WA0237302452000000000000
B1653033758220S06012970WA0237702454000000000000
B1653073758211S06012851WA0237602456000000000000
B1653113758159S06012766WA0237802465000000000000
B1653153758094S06012717WA0237902463000000000000
B1653193758025S06012699WA0237802464000000000000
B1653233757959S06012708WA0238102471000000000000
B1653273757908S06012749WA0238702477000000000000
B1653313757905S06012816WA0239402474000000000000
B1653353757939S06012881WA0238302461000000000000
B1653393757972S06012953WA0237602459000000000000
B1653433757995S06013031WA0236702441000000000000
B1653473758011S06013117WA0235302437000000000000
B1653513758022S06013200WA0235302440000000000000
B1653553758025S06013281WA0235002433000000000000
B1653593758033S06013362WA0234602427000000000000
B1654033758044S06013444WA0233502407000000000000
B1654073758059S06013528WA0232302397000000000000
B1654113758072S06013615WA0231102391000000000000
B1654153758074S06013697WA0231702406000000000000
B1654193758070S06013769WA0232702412000000000000
B1654233758061S06013830WA0233602422000000000000
B1654273758070S06013888WA0233902420000000000000
B1654313758137S06013906WA0234202429000000000000
B1654353758202S06013840WA0234502429000000000000
B1654393758216S06013731WA0234502424000000000000
B1654433758180S06013636WA0234602423000000000000
B1654473758117S06013593WA0234302426000000000000
B1654513758052S06013581WA0233902416000000000000
B1654553757983S06013575WA0233602413000000000000
B1654593757912S06013562WA0233102409000000000000
B1655033757840S06013541WA0232902413000000000000
B1655073757771S06013507WA0233102412000000000000
B1655113757713S06013433WA0232902408000000000000
B1655153757658S06013351WA0232902414000000000000
B1655193757591S06013319WA0233202415000000000000
B1655233757532S06013336WA0232802399000000000000
B1655273757507S06013393WA0231702397000000000000
B1655313757523S06013455WA0231702402000000000000
B1655353757548S06013514WA0231802403000000000000
B1655393757572S06013568WA0232702409000000000000
B1655433757598S06013618WA0233002411000000000000
B1655473757628S06013667WA0232802406000000000000
B1655513757666S06013717WA0232402403000000000000
B1655553757704S06013763WA0232102401000000000000
B1655593757744S06013810WA0231802398000000000000
B1656033757782S06013860WA0231402392000000000000
B1656073757823S06013909WA0230802384000000000000
B1656113757884S06013945WA0230102381000000000000
B1656153757957S06013953WA0230102383000000000000
B1656193758035S06013948WA0229902379000000000000
B1656233758116S06013944WA0229502374000000000000
B1656273758200S06013936WA0229302371000000000000
B1656313758286S06013910WA0229502368000000000000
B1656353758363S06013836WA0229302367000000000000
B1656393758419S06013732WA0229302367000000000000
B1656433758453S06013613WA0229302368000000000000
B1656473758472S06013492WA0229502371000000000000
B1656513758486S06013369WA0229802372000000000000
B1656553758498S06013250WA0230002375000000000000
B1656593758508S06013133WA0229902372000000000000
B1657033758518S06013018WA0229902371000000000000
B1657073758524S06012899WA0229502361000000000000
B1657113758534S06012782WA0229202371000000000000
B1657153758542S06012667WA0229302362000000000000
B1657193758537S06012549WA0228602359000000000000
B1657233758534S06012433WA0228602358000000000000
B1657273758532S06012322WA0229102371000000000000
B1657313758506S06012223WA0229002357000000000000
B1657353758482S06012116WA0227202341000000000000
B1657393758468S06012002WA0226702338000000000000
B1657433758459S06011886WA0226502337000000000000
B1657473758453S06011770WA0226302331000000000000
B1657513758454S06011653WA0225602324000000000000
B1657553758458S06011536WA0225402325000000000000
B1657593758442S06011419WA0224802318000000000000
B1658033758390S06011332WA0225002325000000000000
B1658073758325S06011276WA0225702328000000000000
B1658113758258S06011280WA0226002335000000000000
B1658153758228S06011343WA0226202335000000000000
B1658193758251S06011410WA0225702327000000000000
B1658233758316S06011444WA0224302315000000000000
B1658273758398S06011425WA0223002297000000000000
B1658313758468S06011345WA0221902297000000000000
B1658353758510S06011237WA0221802289000000000000
B1658393758525S06011117WA0221802291000000000000
B1658433758529S06010998WA0221702286000000000000
B1658473758545S06010880WA0221002278000000000000
B1658513758579S06010766WA0220002268000000000000
B1658553758620S06010658WA0219702264000000000000
B1658593758663S06010550WA0219502267000000000000
B1659033758705S06010444WA0220002269000000000000
B1659073758740S06010330WA0219602263000000000000
B1659113758767S06010210WA0219402261000000000000
B1659153758759S06010084WA0219402262000000000000
B1659193758713S06009993WA0219802266000000000000
B1659233758648S06009966WA0219402254000000000000
B1659273758598S06009997WA0218202241000000000000
B1659313758579S06010062WA0217002235000000000000
B1659353758590S06010130WA0217302246000000000000
B1659393758605S06010195WA0217802244000000000000
B1659433758601S06010264WA0217302226000000000000
B1659473758575S06010335WA0215402213000000000000
B1659513758534S06010402WA0214602208000000000000
B1659553758493S06010465WA0214302210000000000000
B1659593758447S06010528WA0214502212000000000000
B1700033758398S06010586WA0215502230000000000000
B1700073758382S06010658WA0217102238000000000000
B1700113758419S06010721WA0216702231000000000000
B1700153758488S06010723WA0216502232000000000000
B1700193758547S06010660WA0216302227000000000000
B1700233758580S06010563WA0215802223000000000000
B1700273758598S06010456WA0215702224000000000000
B1700313758589S06010347WA0215802228000000000000
B1700353758551S06010253WA0215702222000000000000
B1700393758484S06010213WA0215702224000000000000
B1700433758419S06010223WA0215602231000000000000
B1700473758390S06010281WA0216302241000000000000
B1700513758433S06010327WA0217002250000000000000
B1700553758506S06010290WA0218102257000000000000
B1700593758538S06010183WA0218402264000000000000
B1701033758498S06010092WA0219302274000000000000
B1701073758433S06010090WA0219802274000000000000
B1701113758419S06010152WA0220302281000000000000
B1701153758477S06010179WA0220902293000000000000
B1701193758537S06010109WA0221802297000000000000
B1701233758534S06009997WA0222402302000000000000
B1701273758471S06009948WA0222802308000000000000
B1701313758429S06009993WA0223302315000000000000
B1701353758459S06010052WA0223402313000000000000
B1701393758532S06010032WA0224102323000000000000
B1701433758588S06009948WA0224202324000000000000
B1701473758593S06009835WA0224602326000000000000
B1701513758541S06009752WA0224602322000000000000
B1701553758473S06009746WA0224502324000000000000
B1701593758432S06009794WA0224702330000000000000
B1702033758456S06009854WA0225402334000000000000
B1702073758523S06009867WA0225702343000000000000
B1702113758589S06009806WA0225702334000000000000
B1702153758609S06009690WA0226102344000000000000
B1702193758560S06009603WA0226802349000000000000
B1702233758497S06009606WA0227002350000000000000
B1702273758498S06009667WA0227302356000000000000
B1702313758563S06009680WA0227702359000000000000
B1702353758632S06009619WA0227502354000000000000
B1702393758657S06009505WA0227502357000000000000
B1702433758622S06009402WA0227702360000000000000
B1702473758553S06009356WA0228402359000000000000
B1702513758488S06009372WA0227902361000000000000
B1702553758466S06009432WA0228202366000000000000
B1702593758506S06009481WA0228502368000000000000
B1703033758580S06009463WA0228302362000000000000
B1703073758642S06009382WA0227902357000000000000
B1703113758662S06009264WA0227702359000000000000
B1703153758615S06009168WA0228002364000000000000
B1703193758546S06009121WA0228402369000000000000
B1703233758482S06009130WA0228702368000000000000
B1703273758473S06009193WA0229202366000000000000
B1703313758521S06009239WA0228602362000000000000
B1703353758593S06009226WA0229002373000000000000
B1703393758658S06009163WA0229402367000000000000
B1703433758722S06009086WA0228702359000000000000
B1703473758796S06009025WA0228402359000000000000
B1703513758875S06008983WA0228302357000000000000
B1703553758957S06008947WA0228202355000000000000
B1703593759040S06008922WA0227902354000000000000
B1704033759123S06008905WA0228202362000000000000
B1704073759201S06008891WA0229402376000000000000
B1704113759277S06008858WA0230102379000000000000
B1704153759324S06008760WA0230802386000000000000
B1704193759313S06008647WA0230502379000000000000
B1704233759252S06008583WA0230302378000000000000
B1704273759187S06008587WA0229602376000000000000
B1704313759145S06008634WA0229002371000000000000
B1704353759118S06008692WA0228902375000000000000
B1704393759092S06008751WA0229202370000000000000
B1704433759065S06008817WA0229302368000000000000
B1704473759038S06008888WA0229002363000000000000
B1704513759012S06008957WA0228902372000000000000
B1704553758988S06009021WA0228902370000000000000
B1704593758967S06009087WA0228602362000000000000
B1705033758947S06009156WA0227902355000000000000
B1705073758927S06009232WA0227102339000000000000
B1705113758904S06009310WA0225402324000000000000
B1705153758878S06009394WA0224902317000000000000
B1705193758849S06009477WA0224902329000000000000
B1705233758823S06009549WA0226602348000000000000
B1705273758798S06009611WA0228302364000000000000
B1705313758772S06009666WA0229102365000000000000
B1705353758746S06009718WA0229402361000000000000
B1705393758716S06009780WA0227702344000000000000
B1705433758685S06009852WA0226502331000000000000
B1705473758654S06009928WA0225402319000000000000
B1705513758623S06010009WA0224602313000000000000
B1705553758586S06010090WA0224002315000000000000
B1705593758554S06010166WA0224202318000000000000
B1706033758523S06010236WA0225202326000000000000
B1706073758495S06010304WA0225602330000000000000
B1706113758467S06010372WA0225302322000000000000
B1706153758441S06010443WA0224902315000000000000
B1706193758414S06010516WA0224102312000000000000
B1706233758389S06010590WA0224002310000000000000
B1706273758365S06010665WA0223602303000000000000
B1706313758339S06010742WA0222802295000000000000
B1706353758313S06010819WA0221902285000000000000
B1706393758290S06010898WA0221302282000000000000
B1706433758271S06010976WA0220902282000000000000
B1706473758255S06011050WA0221002280000000000000
B1706513758238S06011123WA0220902275000000000000
B1706553758225S06011196WA0220302264000000000000
B1706593758229S06011278WA0219102252000000000000
B1707033758246S06011358WA0218402252000000000000
B1707073758258S06011438WA0218602256000000000000
B1707113758265S06011509WA0219702269000000000000
B1707153758272S06011581WA0219102253000000000000
B1707193758263S06011657WA0217102236000000000000
B1707233758238S06011731WA0216302238000000000000
B1707273758204S06011795WA0216802250000000000000
B1707313758167S06011846WA0218202260000000000000
B1707353758130S06011889WA0219302278000000000000
B1707393758141S06011949WA0221102284000000000000
B1707433758215S06011954WA0222402296000000000000
B1707473758268S06011868WA0222902300000000000000
B1707513758248S06011767WA0222902304000000000000
B1707553758190S06011724WA0223002306000000000000
B1707593758133S06011720WA0223602319000000000000
B1708033758090S06011744WA0224702321000000000000
B1708073758090S06011802WA0224902316000000000000
B1708113758096S06011868WA0224102310000000000000
B1708153758086S06011933WA0224502333000000000000
B1708193758105S06011993WA0226302343000000000000
B1708233758174S06012002WA0227002348000000000000
B1708273758233S06011924WA0227502347000000000000
B1708313758228S06011813WA0226702347000000000000
B1708353758169S06011759WA0227002353000000000000
B1708393758120S06011785WA0227702363000000000000
B1708433758117S06011846WA0228602371000000000000
B1708473758155S06011897WA0228902369000000000000
B1708513758230S06011885WA0228702372000000000000
B1708553758280S06011793WA0229302367000000000000
B1708593758273S06011677WA0228202361000000000000
B1709033758221S06011596WA0228402375000000000000
B1709073758163S06011551WA0229702385000000000000
B1709113758109S06011564WA0230602384000000000000
B1709153758096S06011630WA0230602385000000000000
B1709193758144S06011685WA0230802390000000000000
B1709233758220S06011661WA0231502397000000000000
B1709273758263S06011561WA0231602396000000000000
B1709313758237S06011455WA0231902405000000000000
B1709353758173S06011419WA0232702410000000000000
B1709393758141S06011470WA0232902415000000000000
B1709433758178S06011525WA0233402425000000000000
B1709473758250S06011503WA0234302429000000000000
B1709513758290S06011403WA0234102424000000000000
B1709553758269S06011291WA0234302434000000000000
B1709593758213S06011228WA0234902435000000000000
B1710033758159S06011250WA0235602444000000000000
B1710073758165S06011314WA0236302450000000000000
B1710113758232S06011327WA0236402451000000000000
B1710153758295S06011252WA0236702454000000000000
B1710193758313S06011137WA0236702455000000000000
B1710233758281S06011041WA0237002453000000000000
B1710273758219S06010996WA0237102465000000000000
B1710313758165S06011013WA0238102465000000000000
B1710353758165S06011075WA0238402464000000000000
B1710393758217S06011120WA0237502458000000000000
B1710433758286S06011139WA0238002468000000000000
B1710473758364S06011102WA0238602475000000000000
B1710513758401S06010997WA0239202479000000000000
B1710553758376S06010894WA0239302477000000000000
B1710593758316S06010850WA0239302479000000000000
B1711033758264S06010872WA0239502484000000000000
B1711073758234S06010923WA0240002483000000000000
B1711113758246S06010989WA0239802479000000000000
B1711153758299S06011037WA0239402479000000000000
B1711193758376S06011031WA0240102493000000000000
B1711233758438S06010954WA0241002498000000000000
B1711273758441S06010845WA0241602508000000000000
B1711313758388S06010793WA0242602516000000000000
B1711353758346S06010828WA0242702512000000000000
B1711393758363S06010893WA0242602514000000000000
B1711433758429S06010925WA0243102521000000000000
B1711473758507S06010876WA0243302523000000000000
B1711513758545S06010769WA0243602528000000000000
B1711553758514S06010676WA0244402538000000000000
B1711593758455S06010662WA0244802538000000000000
B1712033758421S06010710WA0244702535000000000000
B1712073758398S06010766WA0245202547000000000000
B1712113758419S06010827WA0246202565000000000000
B1712153758490S06010834WA0247602563000000000000
B1712193758554S06010753WA0247402564000000000000
B1712233758559S06010637WA0247702571000000000000
B1712273758519S06010547WA0248202569000000000000
B1712313758458S06010503WA0248302568000000000000
B1712353758397S06010520WA0248002562000000000000
B1712393758369S06010585WA0247702563000000000000
B1712433758391S06010662WA0248402573000000000000
B1712473758454S06010708WA0249302580000000000000
B1712513758542S06010689WA0249602582000000000000
B1712553758607S06010593WA0250102589000000000000
B1712593758615S06010468WA0250502587000000000000
B1713033758564S06010374WA0250802595000000000000
B1713073758492S06010352WA0251302600000000000000
B1713113758438S06010396WA0251902607000000000000
B1713153758438S06010477WA0252702615000000000000
B1713193758493S06010534WA0253002621000000000000
B1713233758577S06010525WA0253502624000000000000
B1713273758645S06010441WA0254102633000000000000
B1713313758672S06010317WA0254402628000000000000
B1713353758632S06010208WA0254402634000000000000
B1713393758558S06010170WA0254902639000000000000
B1713433758498S06010216WA0255302641000000000000
B1713473758497S06010307WA0255402645000000000000
B1713513758558S06010374WA0255702647000000000000
B1713553758653S06010383WA0256002653000000000000
B1713593758746S06010320WA0256502658000000000000
B1714033758806S06010197WA0256702654000000000000
B1714073758824S06010053WA0256602651000000000000
E171409PEV
B1714093758820S06009982WA0256202647000000000000
B1714103758814S06009947WA0256102648000000000000
B1714113758807S06009913WA0256102650000000000000
B1714123758801S06009879WA0256102652000000000000
B1714133758793S06009846WA0256102652000000000000
B1714143758785S06009815WA0256202653000000000000
B1714153758776S06009784WA0256102652000000000000
B1714163758767S06009753WA0256202652000000000000
B1714173758757S06009724WA0256302654000000000000
B1714183758746S06009696WA0256402656000000000000
B1714193758736S06009667WA0256602656000000000000
B1714203758727S06009638WA0256702657000000000000
B1714213758716S06009610WA0256802656000000000000
B1714223758707S06009583WA0256802653000000000000
B1714233758698S06009554WA0256702649000000000000
B1714243758688S06009527WA0256402645000000000000
B1714253758675S06009499WA0256102640000000000000
B1714293758612S06009414WA0255002636000000000000
B1714333758545S06009369WA0255102640000000000000
B1714373758481S06009351WA0255402642000000000000
B1714413758419S06009330WA0255402640000000000000
B1714453758360S06009276WA0255302635000000000000
B1714493758308S06009196WA0254002621000000000000
B1714533758247S06009137WA0252902610000000000000
B1714573758191S06009155WA0252402605000000000000
B1715013758178S06009211WA0251302587000000000000
B1715053758200S06009271WA0250002575000000000000
B1715093758238S06009324WA0248502553000000000000
B1715133758278S06009381WA0246702539000000000000
B1715173758298S06009454WA0245502530000000000000
B1715213758311S06009532WA0244702537000000000000
B1715253758332S06009603WA0245802546000000000000
B1715293758373S06009664WA0246802550000000000000
B1715333758423S06009719WA0246702550000000000000
B1715373758475S06009770WA0246002540000000000000
B1715413758537S06009811WA0245202535000000000000
B1715453758606S06009843WA0245202535000000000000
B1715493758683S06009859WA0245402535000000000000
B1715533758765S06009850WA0245502537000000000000
B1715573758845S06009809WA0245902544000000000000
B1716013758913S06009737WA0246902559000000000000
B1716053758945S06009631WA0248102569000000000000
B1716093758926S06009523WA0249002573000000000000
B1716133758865S06009469WA0249402579000000000000
B1716173758814S06009501WA0249902584000000000000
B1716213758818S06009568WA0250402592000000000000
B1716253758878S06009599WA0251102602000000000000
B1716293758952S06009550WA0251702601000000000000
B1716333758992S06009442WA0252002609000000000000
B1716373758983S06009329WA0252702613000000000000
B1716413758934S06009246WA0252702620000000000000
B1716453758869S06009215WA0253102621000000000000
B1716493758807S06009229WA0253502629000000000000
B1716533758767S06009274WA0253802625000000000000
B1716573758744S06009342WA0253202626000000000000
B1717013758745S06009420WA0253002616000000000000
B1717053758781S06009494WA0252302613000000000000
B1717093758846S06009540WA0251902609000000000000
B1717133758924S06009554WA0251702606000000000000
B1717173759008S06009533WA0252002606000000000000
B1717213759083S06009467WA0252202611000000000000
B1717253759130S06009363WA0252602617000000000000
B1717293759144S06009243WA0252802623000000000000
B1717333759126S06009131WA0253302625000000000000
B1717373759074S06009046WA0253202624000000000000
B1717413759001S06009012WA0253102618000000000000
B1717453758940S06009050WA0252802622000000000000
B1717493758930S06009131WA0253502634000000000000
B1717533758987S06009193WA0254802646000000000000
B1717573759075S06009181WA0255902655000000000000
B1718013759149S06009095WA0256002649000000000000
B1718053759179S06008966WA0255302644000000000000
B1718093759149S06008844WA0255202647000000000000
B1718133759079S06008769WA0255202643000000000000
B1718173758995S06008758WA0254802643000000000000
B1718213758930S06008804WA0255102649000000000000
B1718253758895S06008882WA0255402649000000000000
B1718293758898S06008975WA0255402646000000000000
B1718333758936S06009063WA0253902627000000000000
B1718373759021S06009100WA0252702620000000000000
B1718413759113S06009066WA0253302623000000000000
B1718453759187S06008988WA0253802625000000000000
B1718493759247S06008888WA0253502619000000000000
B1718533759301S06008780WA0253202619000000000000
B1718573759364S06008678WA0253202615000000000000
B1719013759428S06008575WA0253302623000000000000
B1719053759494S06008484WA0253502616000000000000
B1719093759568S06008398WA0253102609000000000000
B1719133759639S06008307WA0252602607000000000000
B1719173759664S06008182WA0252702612000000000000
B1719213759626S06008080WA0253302618000000000000
B1719253759559S06008036WA0253302613000000000000
B1719293759490S06008026WA0252902610000000000000
B1719333759424S06008033WA0252402610000000000000
B1719373759366S06008062WA0252802613000000000000
B1719413759316S06008101WA0253202617000000000000
B1719453759265S06008138WA0253202615000000000000
B1719493759217S06008184WA0253502619000000000000
B1719533759168S06008225WA0253302615000000000000
B1719573759122S06008277WA0252802608000000000000
B1720013759110S06008349WA0252502610000000000000
E172002PEV
B1720023759114S06008368WA0252502609000000000000
B1720033759119S06008387WA0252502606000000000000
B1720043759127S06008403WA0252402605000000000000
B1720053759136S06008420WA0252302603000000000000
B1720063759148S06008437WA0252102600000000000000
B1720073759162S06008450WA0252002599000000000000
B1720083759179S06008462WA0251802599000000000000
B1720093759199S06008468WA0251602599000000000000
B1720103759218S06008472WA0251602598000000000000
B1720113759239S06008471WA0251502598000000000000
B1720123759261S06008466WA0251502598000000000000
B1720133759282S06008455WA0251602600000000000000
B1720143759301S06008440WA0251602602000000000000
B1720153759320S06008422WA0251702603000000000000
B1720163759335S06008401WA0251902605000000000000
B1720173759350S06008379WA0251902605000000000000
B1720183759361S06008353WA0252002606000000000000
B1720223759377S06008242WA0252802617000000000000
B1720263759356S06008140WA0253302620000000000000
B1720303759305S06008071WA0253602622000000000000
B1720343759242S06008047WA0253202613000000000000
B1720383759187S06008076WA0252502604000000000000
B1720423759164S06008145WA0251502594000000000000
B1720463759190S06008219WA0250902592000000000000
B1720503759257S06008254WA0250802592000000000000
B1720543759335S06008223WA0251002593000000000000
B1720583759398S06008141WA0250802589000000000000
B1721023759435S06008032WA0250402587000000000000
B1721063759441S06007912WA0250102582000000000000
B1721103759407S06007805WA0249802577000000000000
B1721143759352S06007720WA0249002569000000000000
B1721183759288S06007647WA0248502567000000000000
B1721223759221S06007587WA0248802574000000000000
B1721263759155S06007527WA0249502587000000000000
B1721303759096S06007466WA0250602593000000000000
B1721343759036S06007408WA0250502584000000000000
B1721383758971S06007348WA0250002580000000000000
B1721423758905S06007288WA0250002587000000000000
B1721463758843S06007224WA0250102586000000000000
B1721503758783S06007161WA0250402592000000000000
B1721543758718S06007128WA0250602588000000000000
B1721583758666S06007165WA0249902578000000000000
B1722023758629S06007219WA0249202573000000000000
B1722063758599S06007285WA0247802558000000000000
B1722103758570S06007352WA0247202558000000000000
B1722143758537S06007415WA0246902550000000000000
B1722183758507S06007480WA0246402548000000000000
B1722223758492S06007552WA0246002546000000000000
B1722263758494S06007625WA0246102548000000000000
B1722303758532S06007681WA0246302551000000000000
B1722343758593S06007705WA0246502550000000000000
B1722383758664S06007694WA0246002544000000000000
B1722423758741S06007669WA0245102533000000000000
B1722463758822S06007644WA0243702517000000000000
B1722503758905S06007618WA0242902513000000000000
B1722543758987S06007592WA0242502506000000000000
B1722583759067S06007573WA0241702496000000000000
B1723023759152S06007553WA0240502482000000000000
B1723063759235S06007547WA0239502476000000000000
B1723103759316S06007557WA0238902466000000000000
B1723143759395S06007573WA0238602476000000000000
B1723183759464S06007590WA0239702484000000000000
B1723223759528S06007616WA0240002480000000000000
B1723263759577S06007669WA0238802466000000000000
B1723303759606S06007739WA0238102462000000000000
B1723343759604S06007811WA0238302473000000000000
B1723383759604S06007878WA0239502487000000000000
B1723423759663S06007924WA0240502491000000000000
B1723463759740S06007886WA0241202498000000000000
B1723503759773S06007783WA0241102491000000000000
B1723543759736S06007687WA0240902497000000000000
B1723583759675S06007649WA0242602509000000000000
B1724023759621S06007668WA0243302520000000000000
B1724063759624S06007738WA0244102522000000000000
B1724103759690S06007776WA0244302528000000000000
B1724143759769S06007734WA0244502526000000000000
B1724183759820S06007647WA0244402527000000000000
B1724223759803S06007540WA0244902534000000000000
B1724263759745S06007495WA0245602544000000000000
B1724303759699S06007525WA0246102550000000000000
B1724343759721S06007595WA0246802554000000000000
B1724383759799S06007613WA0246902556000000000000
B1724423759872S06007551WA0247502563000000000000
B1724463759899S06007444WA0247702563000000000000
B1724503759867S06007348WA0248002568000000000000
B1724543759803S06007317WA0248602575000000000000
B1724583759766S06007363WA0249002582000000000000
B1725023759786S06007432WA0249602590000000000000
B1725063759853S06007466WA0250102589000000000000
B1725103759931S06007421WA0250602596000000000000
B1725143759970S06007323WA0250602592000000000000
B1725183759942S06007223WA0250602599000000000000
B1725223759885S06007185WA0251502607000000000000
B1725263759836S06007200WA0251902610000000000000
B1725303759818S06007252WA0252702619000000000000
B1725343759851S06007310WA0252502612000000000000
B1725383759929S06007305WA0252502613000000000000
B1725423759993S06007230WA0252402611000000000000
B1725463759997S06007120WA0252402613000000000000
B1725503759949S06007049WA0252702615000000000000
B1725543759892S06007049WA0252502612000000000000
B1725583759858S06007102WA0252902621000000000000
B1726023759828S06007158WA0252502601000000000000
B1726063759788S06007217WA0251002591000000000000
B1726103759734S06007259WA0250402592000000000000
B1726143759673S06007278WA0251302618000000000000
B1726183759623S06007304WA0253202624000000000000
B1726223759637S06007374WA0254102634000000000000
B1726263759716S06007357WA0255002648000000000000
B1726303759747S06007253WA0255702652000000000000
B1726343759693S06007180WA0255602649000000000000
B1726383759634S06007194WA0256102660000000000000
B1726423759612S06007257WA0257202672000000000000
B1726463759650S06007315WA0258602686000000000000
B1726503759728S06007295WA0259902702000000000000
B1726543759767S06007201WA0260902705000000000000
B1726583759734S06007103WA0260602696000000000000
B1727023759669S06007081WA0260302696000000000000
B1727063759639S06007141WA0261302713000000000000
B1727103759632S06007207WA0262102717000000000000
B1727143759677S06007254WA0263102725000000000000
B1727183759751S06007223WA0263202723000000000000
B1727223759792S06007123WA0262202715000000000000
B1727263759755S06007024WA0262302726000000000000
B1727303759689S06007007WA0262802729000000000000
B1727343759626S06007051WA0262502724000000000000
B1727383759567S06007007WA0263902748000000000000
B1727423759525S06006916WA0264502747000000000000
B1727463759498S06006819WA0264802744000000000000
B1727503759467S06006723WA0264602742000000000000
B1727543759425S06006637WA0264302733000000000000
B1727583759365S06006580WA0263602730000000000000
B1728023759309S06006591WA0263402729000000000000
B1728063759300S06006651WA0262902717000000000000
B1728103759351S06006694WA0261802708000000000000
B1728143759429S06006704WA0260602697000000000000
B1728183759509S06006711WA0259702690000000000000
B1728223759587S06006736WA0259402687000000000000
B1728263759651S06006777WA0260002688000000000000
B1728303759690S06006840WA0260202691000000000000
B1728343759716S06006911WA0260102689000000000000
B1728383759736S06006983WA0260202690000000000000
B1728423759755S06007058WA0259702683000000000000
B1728463759810S06007114WA0259402678000000000000
B1728503759896S06007123WA0258202659000000000000
B1728543759993S06007081WA0256502642000000000000
B1728583800089S06007012WA0254902626000000000000
B1729023800187S06006933WA0253302612000000000000
B1729063800283S06006846WA0252002598000000000000
B1729103800382S06006750WA0250302582000000000000
B1729143800481S06006651WA0249302573000000000000
B1729183800582S06006554WA0248702569000000000000
B1729223800685S06006459WA0248002560000000000000
B1729263800789S06006365WA0247102549000000000000
B1729303800894S06006277WA0246002538000000000000
B1729343800997S06006188WA0245302536000000000000
B1729383801098S06006105WA0245502539000000000000
B1729423801193S06006014WA0245602540000000000000
B1729463801277S06005915WA0246002543000000000000
B1729503801353S06005802WA0245702535000000000000
B1729543801427S06005683WA0244802524000000000000
B1729583801498S06005559WA0243802521000000000000
B1730023801565S06005438WA0243502513000000000000
B1730063801634S06005313WA0242602497000000000000
B1730103801704S06005192WA0241302487000000000000
B1730143801786S06005070WA0240202475000000000000
B1730183801868S06004960WA0238602463000000000000
B1730223801951S06004852WA0237902454000000000000
B1730263802034S06004747WA0237102446000000000000
B1730303802119S06004640WA0236202433000000000000
B1730343802203S06004533WA0235502430000000000000
B1730383802291S06004433WA0234402411000000000000
B1730423802386S06004338WA0232902398000000000000
B1730463802486S06004254WA0232002391000000000000
B1730503802585S06004169WA0231302384000000000000
B1730543802684S06004084WA0230602376000000000000
B1730583802784S06004002WA0229802369000000000000
B1731023802884S06003920WA0229802377000000000000
B1731063802973S06003848WA0231602417000000000000
B1731103803045S06003788WA0234902439000000000000
B1731143803116S06003731WA0236402431000000000000
B1731183803195S06003669WA0235002419000000000000
B1731223803281S06003603WA0233702397000000000000
B1731263803374S06003532WA0231402376000000000000
B1731303803474S06003462WA0229602362000000000000
B1731343803576S06003393WA0228602357000000000000
B1731383803676S06003324WA0228202354000000000000
B1731423803776S06003255WA0228002351000000000000
B1731463803876S06003187WA0227802350000000000000
B1731503803975S06003118WA0227702348000000000000
B1731543804074S06003047WA0227302340000000000000
B1731583804176S06002988WA0226302327000000000000
B1732023804282S06002936WA0225002315000000000000
B1732063804388S06002886WA0224202315000000000000
B1732103804494S06002838WA0224302312000000000000
B1732143804598S06002807WA0225102338000000000000
B1732183804686S06002784WA0227902371000000000000
B1732223804764S06002763WA0230602391000000000000
B1732263804836S06002747WA0232102392000000000000
B1732303804915S06002737WA0230902369000000000000
B1732343805005S06002729WA0228602347000000000000
B1732383805103S06002721WA0227102338000000000000
B1732423805194S06002720WA0228202380000000000000
B1732463805255S06002743WA0231802399000000000000
B1732503805327S06002742WA0230802366000000000000
B1732543805413S06002678WA0228202342000000000000
B1732583805487S06002570WA0225802320000000000000
B1733023805556S06002438WA0224102300000000000000
B1733063805631S06002288WA0221902292015000000000
B1733103805691S06002147WA0220502286000000000000
B1733143805752S06002006WA0220602280000000000000
B1733183805813S06001868WA0220002273000000000000
B1733223805881S06001727WA0219502270000000000000
B1733263805951S06001588WA0218802267015000000000
B1733303806009S06001460WA0219402286000000000000
B1733343806067S06001350WA0223202325000000000000
B1733383806128S06001273WA0226502352000000000000
B1733423806194S06001251WA0227602346000000000000
B1733463806269S06001205WA0225102303000000000000
B1733503806340S06001101WA0221802278000000000000
B1733543806388S06000964WA0219702260000000000000
B1733583806419S06000813WA0218802249000000000000
B1734023806448S06000659WA0217302226000000000000
B1734063806471S06000501WA0215302212000000000000
B1734103806492S06000340WA0214102206000000000000
B1734143806514S06000178WA0213402193000000000000
B1734183806540S06000022WA0212902201000000000000
B1734223806581S05959882WA0213202197000000000000
B1734263806648S05959765WA0213202197000000000000
B1734303806727S05959675WA0213002192000000000000
B1734343806814S05959606WA0212602182000000000000
B1734383806908S05959549WA0212102183000000000000
B1734423807001S05959502WA0212102188000000000000
B1734463807094S05959459WA0212202189000000000000
B1734503807187S05959428WA0211302177000000000000
B1734543807283S05959398WA0210202165000000000000
B1734583807382S05959353WA0209002154000000000000
B1735023807477S05959284WA0208602138000000000000
B1735063807564S05959194WA0207702138000000000000
B1735103807646S05959111WA0208202145000000000000
B1735143807727S05959032WA0208602145000000000000
B1735183807806S05958952WA0208302137000000000000
B1735223807889S05958869WA0207402128000000000000
B1735263807974S05958793WA0207502149000000000000
B1735303808049S05958731WA0210102171000000000000
B1735343808112S05958679WA0212302194000000000000
B1735383808175S05958637WA0212702177000000000000
B1735423808251S05958588WA0210902157000000000000
B1735463808334S05958539WA0209102150000000000000
B1735503808414S05958500WA0209902172000000000000
B1735543808491S05958465WA0210102155000000000000
B1735583808574S05958416WA0207902132000000000000
B1736023808660S05958349WA0206102112000000000000
B1736063808750S05958279WA0204202092000000000000
B1736103808843S05958209WA0202402086000000000000
B1736143808936S05958136WA0201902079000000000000
B1736183809027S05958066WA0201402074000000000000
B1736223809110S05957976WA0201402064000000000000
B1736263809171S05957853WA0200102051000000000000
B1736303809205S05957710WA0198502041000000000000
B1736343809230S05957564WA0197502022000000000000
B1736383809250S05957411WA0195802006000000000000
B1736423809271S05957256WA0194301992000000000000
B1736463809298S05957101WA0192701979000000000000
B1736503809350S05956962WA0193101992000000000000
B1736543809414S05956846WA0194501997000000000000
B1736583809484S05956739WA0193201977000000000000
B1737023809564S05956636WA0192601980000000000000
B1737063809642S05956537WA0192301974000000000000
B1737103809721S05956446WA0192301983000000000000
B1737143809799S05956362WA0193001981000000000000
B1737183809870S05956295WA0194702020000000000000
B1737223809934S05956241WA0196902022000000000000
B1737263810002S05956191WA0196902015000000000000
B1737303810069S05956126WA0196102007000000000000
B1737343810129S05956059WA0196502028000000000000
B1737383810182S05955998WA0197502025000000000000
B1737423810236S05955922WA0196802011000000000000
B1737463810290S05955835WA0195001996000000000000
B1737503810346S05955738WA0192901967000000000000
B1737543810401S05955634WA0190701957000000000000
B1737583810462S05955526WA0190301957000000000000
B1738023810517S05955423WA0190201957000000000000
B1738063810563S05955348WA0193002007000000000000
B1738103810631S05955327WA0196702017000000000000
B1738143810657S05955380WA0197102015000000000000
B1738183810605S05955390WA0196902015000000000000
B1738223810561S05955318WA0197102024000000000000
B1738263810561S05955219WA0198202042000000000000
B1738303810619S05955150WA0199202040000000000000
B1738343810680S05955084WA0199602054000000000000
B1738383810699S05954981WA0199902055000000000000
B1738423810649S05954906WA0200802067000000000000
B1738463810589S05954915WA0201602074000000000000
B1738503810591S05954984WA0202402084000000000000
B1738543810658S05955000WA0203202097000000000000
B1738583810722S05954937WA0204402103000000000000
B1739023810725S05954826WA0204402106000000000000
B1739063810665S05954763WA0205402121000000000000
B1739103810609S05954782WA0206402131000000000000
B1739143810622S05954852WA0207202139000000000000
B1739183810692S05954864WA0208202154000000000000
B1739223810756S05954792WA0209802162000000000000
B1739263810743S05954690WA0210202170000000000000
B1739303810680S05954652WA0211002182000000000000
B1739343810640S05954696WA0211802190000000000000
B1739383810661S05954759WA0212602199000000000000
B1739423810727S05954777WA0213102201000000000000
B1739463810796S05954722WA0213202200000000000000
B1739503810838S05954622WA0212902203000000000000
B1739543810878S05954529WA0213902219000000000000
B1739583810883S05954428WA0215302227000000000000
B1740023810825S05954378WA0215802226000000000000
B1740063810784S05954425WA0215702230000000000000
B1740103810818S05954479WA0216402234000000000000
B1740143810888S05954467WA0216902244000000000000
B1740183810956S05954421WA0217402247000000000000
B1740223811014S05954349WA0217902247000000000000
B1740263811055S05954258WA0218202253000000000000
B1740303811077S05954157WA0218002242000000000000
B1740343811096S05954054WA0217802251000000000000
B1740383811109S05953951WA0217702239000000000000
B1740423811087S05953849WA0217102244000000000000
B1740463811035S05953791WA0217502244000000000000
B1740503810975S05953798WA0217002231000000000000
B1740543810952S05953864WA0215502221000000000000
B1740583810988S05953927WA0214902214000000000000
B1741023811065S05953928WA0214002202000000000000
B1741063811141S05953864WA0212602190000000000000
B1741103811207S05953781WA0211902189000000000000
B1741143811276S05953698WA0212002190000000000000
B1741183811341S05953622WA0212602203000000000000
B1741223811403S05953548WA0213202193000000000000
B1741263811468S05953464WA0212402173000000000000
B1741303811536S05953369WA0210102159000000000000
B1741343811602S05953273WA0209402162000000000000
B1741383811667S05953192WA0210502176000000000000
B1741423811735S05953122WA0210802167000000000000
B1741463811806S05953050WA0210102153000000000000
B1741503811880S05952976WA0208802145000000000000
B1741543811954S05952902WA0207802139000000000000
B1741583812032S05952828WA0207302126000000000000
B1742023812116S05952753WA0206102118000000000000
B1742063812199S05952677WA0205602113000000000000
B1742103812285S05952603WA0204902107000000000000
B1742143812370S05952533WA0204802108000000000000
B1742183812455S05952462WA0204702107000000000000
B1742223812539S05952390WA0204402102000000000000
B1742263812625S05952319WA0204002093000000000000
B1742303812714S05952244WA0202802079000000000000
B1742343812806S05952165WA0201502073000000000000
B1742383812898S05952088WA0201202073000000000000
B1742423812988S05952017WA0201602083000000000000
B1742463813072S05951956WA0203102099000000000000
B1742503813148S05951908WA0204402105000000000000
B1742543813223S05951862WA0204602105000000000000
B1742583813296S05951823WA0204802106000000000000
B1743023813373S05951778WA0204202090000000000000
B1743063813456S05951718WA0202602073000000000000
B1743103813544S05951646WA0200902059000000000000
B1743143813631S05951568WA0200002052000000000000
B1743183813718S05951487WA0199402047000000000000
B1743223813807S05951406WA0198702039000000000000
B1743263813899S05951331WA0197902033000000000000
B1743303813993S05951258WA0197602027000000000000
B1743343814088S05951182WA0196702019000000000000
B1743383814183S05951107WA0196402024000000000000
B1743423814275S05951038WA0196702025000000000000
B1743463814365S05950978WA0197402034000000000000
B1743503814453S05950918WA0197202023000000000000
B1743543814544S05950859WA0196102019000000000000
B1743583814636S05950804WA0195602011000000000000
B1744023814730S05950744WA0194602006000000000000
B1744063814822S05950688WA0194402011000000000000
B1744103814911S05950640WA0195202017000000000000
B1744143814996S05950595WA0195402013000000000000
B1744183815083S05950548WA0194902006000000000000
B1744223815171S05950501WA0194402000000000000000
B1744263815260S05950452WA0193701994000000000000
B1744303815350S05950401WA0193301995000000000000
B1744343815438S05950353WA0193701990000000000000
B1744383815528S05950302WA0193401986000000000000
B1744423815616S05950250WA0193201986000000000000
B1744463815704S05950189WA0193001981000000000000
B1744503815789S05950124WA0192501975000000000000
B1744543815874S05950055WA0192101971000000000000
B1744583815958S05949984WA0191701965000000000000
B1745023816043S05949906WA0190901953000000000000
B1745063816125S05949817WA0189801945000000000000
B1745103816204S05949724WA0189001940000000000000
B1745143816283S05949629WA0188301929000000000000
B1745183816367S05949538WA0187301916000000000000
B1745223816456S05949453WA0186301904000000000000
B1745263816546S05949369WA0185001892000000000000
B1745303816640S05949284WA0184201884000000000000
B1745343816733S05949206WA0183301880000000000000
B1745383816831S05949135WA0182701874000000000000
B1745423816928S05949066WA0182001866000000000000
B1745463817024S05948996WA0181401861000000000000
B1745503817118S05948926WA0181301861000000000000
B1745543817209S05948857WA0180901851000000000000
B1745583817301S05948790WA0180201843000000000000
B1746023817392S05948721WA0179801841000000000000
B1746063817477S05948643WA0179401833000000000000
B1746103817557S05948551WA0178501821000000000000
B1746143817642S05948461WA0177201810000000000000
B1746183817729S05948380WA0176701805000000000000
B1746223817820S05948302WA0175901798000000000000
B1746263817911S05948227WA0175401792000000000000
B1746303818001S05948162WA0175501799000000000000
B1746343818089S05948105WA0175701800000000000000
B1746383818175S05948053WA0175801802000000000000
B1746423818259S05948004WA0176201803000000000000
B1746463818341S05947961WA0176501806000000000000
B1746503818419S05947922WA0176901816000000000000
B1746543818493S05947883WA0176601798000000000000
B1746583818575S05947827WA0174901784000000000000
B1747023818661S05947767WA0173301772000000000000
B1747063818747S05947705WA0172501769000000000000
B1747103818834S05947648WA0172301767000000000000
B1747143818920S05947597WA0172501782000000000000
B1747183818996S05947558WA0174801801000000000000
B1747223819058S05947566WA0176501812000000000000
B1747263819064S05947615WA0176801806000000000000
B1747303819006S05947613WA0175801798000000000000
B1747343818973S05947518WA0175701803000000000000
B1747383818993S05947407WA0175701799000000000000
B1747423819022S05947301WA0175801803000000000000
B1747463819058S05947197WA0175901806000000000000
B1747503819124S05947138WA0176301806000000000000
B1747543819188S05947147WA0175901803000000000000
B1747583819245S05947180WA0175601797000000000000
B1748023819299S05947219WA0175101791000000000000
B1748063819341S05947275WA0174301784000000000000
B1748103819373S05947340WA0173501773000000000000
B1748143819403S05947411WA0172301760000000000000
B1748183819432S05947490WA0171001749000000000000
B1748223819453S05947574WA0169901739000000000000
B1748263819472S05947661WA0168901730000000000000
B1748303819490S05947750WA0168601722000000000000
B1748343819506S05947841WA0168101715000000000000
B1748383819523S05947934WA0167501705000000000000
B1748423819542S05948025WA0166801701000000000000
B1748463819559S05948117WA0165901693000000000000
B1748503819575S05948208WA0165601689000000000000
B1748543819592S05948300WA0164801680000000000000
B1748583819602S05948393WA0163701681000000000000
B1749023819600S05948481WA0163501670000000000000
B1749063819601S05948572WA0163101661000000000000
B1749103819606S05948663WA0162401648000000000000
B1749143819615S05948757WA0161101636000000000000
B1749183819626S05948850WA0160001627000000000000
B1749223819637S05948945WA0159301620000000000000
B1749263819650S05949040WA0158201608000000000000
B1749303819663S05949136WA0157201599000000000000
B1749343819678S05949232WA0156501591000000000000
B1749383819687S05949330WA0155801585000000000000
B1749423819689S05949423WA0155601584000000000000
B1749463819693S05949518WA0155401582000000000000
B1749503819698S05949613WA0154901575000000000000
B1749543819704S05949704WA0154101564000000000000
B1749583819708S05949798WA0153201553000000000000
B1750023819713S05949895WA0151801542000000000000
B1750063819719S05949994WA0151001531000000000000
B1750103819727S05950094WA0149701514000000000000
B1750143819735S05950194WA0148201505000000000000
B1750183819740S05950292WA0147501496000000000000
B1750223819744S05950391WA0146701486000000000000
B1750263819748S05950489WA0145801473000000000000
B1750303819756S05950591WA0144301458000000000000
B1750343819771S05950695WA0142901444000000000000
B1750383819787S05950800WA0141501429000000000000
B1750423819801S05950908WA0140001417000000000000
B1750463819814S05951015WA0139101410000000000000
B1750503819828S05951119WA0138601404000000000000
B1750543819841S05951220WA0138701408000000000000
B1750583819849S05951310WA0139701429000000000000
B1751023819851S05951384WA0141501439000000000000
B1751063819845S05951450WA0142001457000000000000
B1751103819840S05951507WA0143301453000000000000
B1751143819835S05951572WA0142301440000000000000
B1751183819830S05951639WA0142101451000000000000
B1751223819805S05951692WA0143001461000000000000
B1751263819782S05951739WA0143901463000000000000
B1751303819774S05951796WA0143301452000000000000
B1751343819779S05951865WA0141801435000000000000
B1751383819786S05951945WA0139901415000000000000
B1751423819792S05952033WA0138201402000000000000
B1751463819797S05952125WA0137201391000000000000
B1751503819802S05952222WA0136001380000000000000
B1751543819808S05952322WA0134901370000000000000
B1751583819813S05952424WA0134001359000000000000
B1752023819815S05952525WA0133401359000000000000
B1752063819817S05952610WA0135901409000000000000
B1752103819817S05952671WA0139601431000000000000
B1752143819845S05952718WA0140901430000000000000
B1752183819884S05952762WA0141201437000000000000
B1752223819910S05952819WA0141301438000000000000
B1752263819921S05952885WA0142001448000000000000
B1752303819930S05952953WA0141901439000000000000
B1752343819935S05953034WA0140701428000000000000
B1752383819934S05953123WA0139401417000000000000
B1752423819931S05953219WA0138601403000000000000
B1752463819927S05953318WA0137001383000000000000
B1752503819922S05953421WA0135001366000000000000
B1752543819914S05953524WA0134101368000000000000
B1752583819909S05953616WA0135301403000000000000
B1753023819905S05953681WA0139401433000000000000
B1753063819930S05953733WA0141401439000000000000
B1753103819982S05953773WA0140501418000000000000
B1753143820017S05953847WA0138401394000000000000
B1753183820031S05953944WA0135301367000000000000
B1753223820027S05954049WA0133601358000000000000
B1753263820014S05954153WA0133101351000000000000
B1753303819994S05954257WA0132501349000000000000
B1753343819965S05954360WA0132501367000000000000
B1753383819943S05954440WA0135601406000000000000
B1753423819921S05954506WA0138401413000000000000
B1753463819896S05954575WA0138501396000000000000
B1753503819861S05954659WA0136401376000000000000
B1753543819819S05954750WA0135001376000000000000
B1753583819778S05954841WA0134601367000000000000
B1754023819735S05954939WA0133501355000000000000
B1754063819689S05955041WA0133301350000000000000
B1754103819632S05955121WA0134801399000000000000
B1754143819580S05955163WA0139201432000000000000
B1754183819549S05955223WA0140401434000000000000
B1754223819540S05955293WA0141101439000000000000
B1754263819545S05955359WA0141901450000000000000
B1754303819598S05955396WA0142601459000000000000
B1754343819665S05955362WA0143601466000000000000
B1754383819715S05955288WA0143701463000000000000
B1754423819724S05955180WA0143701472000000000000
B1754463819723S05955077WA0144801479000000000000
B1754503819696S05954989WA0146001496000000000000
B1754543819637S05954951WA0147201501000000000000
B1754583819583S05954981WA0147201503000000000000
B1755023819571S05955050WA0147701507000000000000
B1755063819583S05955116WA0148201517000000000000
