ACAM4IR
HFDTE060125
HFFXA050
HFPLTPILOT:DINO GHIONI             
HFGTYGLIDERTYPE:LS-4        
HFGIDGLIDERID:KC          
HFDTM100GPSDATUM:
HFRFWFIRMWAREVERSION:F2.6
HFRHWHARDWAREVERSION:300 Series Version 2
HFFTYFRTYPE:CAMBRIDGE AERO INSTRUMENTS, 302+
HFGPS:GARMIN,LVS-25,12,18000
HFPRSPRESSALTSENSOR:INTERSEMA, MS5534-AP, 20000
I033638FXA3941ENL4247REX
LCAMSBVER:5FWVER:F26300
C021223160536021223000102
C0000000N00000000WTAKEOFF     
C3526206S06253971WHARAS       
C3602217S06316383WLAS 3 MARIAS
C3600901S06241720WC.P.T.LAUQUE
C3530355S06259367W1-CLUB      
C0000000N00000000WLANDING     
B1738273802007S06007794WA0020500190000000000000
B1738293802007S06007794WA0020400190000000000000
B1738313802007S06007794WA0020400189000000000000
B1738333802007S06007794WA0020300188000000000000
B1738353802007S06007794WA0020300188000000000000
B1738373802007S06007794WA0020400188000000000000
B1738393802007S06007794WA0020400187000000000000
B1738413802007S06007794WA0020400187000000000000
B1738433802007S06007794WA0020400187000000000000
B1738453802007S06007794WA0020400188000000000000
B1738473802007S06007794WA0020400189000000000000
B1738493802005S06007795WA0020400189000000000000
B1738513802004S06007796WA0020400189000000000000
B1738533802004S06007798WA0020300189000000000000
B1738553802003S06007800WA0020300190000000000000
B1738583801995S06007809WA0020400190000000000000
B1739023801977S06007831WA0020200191000000000000
B1739063801951S06007864WA0020100190000000000000
B1739103801917S06007908WA0019900191000000000000
B1739143801878S06007961WA0019900191000000000000
B1739183801833S06008023WA0019900197000000000000
B1739223801790S06008085WA0020700213000000000000
B1739263801751S06008142WA0022600232000000000000
B1739303801710S06008197WA0024100244000000000000
B1739343801671S06008254WA0025600258000000000000
B1739383801628S06008312WA0026500265000000000000
B1739423801587S06008372WA0027200275000000000000
B1739463801556S06008440WA0028400292000000000000
B1739503801534S06008520WA0029800301000000000000
B1739543801521S06008608WA0030800315000000000000
B1739583801521S06008696WA0032300331000000000000
B1740023801539S06008786WA0033900345000000000000
B1740063801565S06008871WA0035200358000000000000
B1740103801593S06008955WA0036900379000000000000
B1740143801626S06009040WA0038400397000000000000
B1740183801661S06009131WA0039900410000000000000
B1740223801693S06009222WA0041300425000000000000
B1740263801719S06009312WA0042400427000000000000
B1740303801742S06009402WA0042500432000000000000
B1740343801752S06009492WA0043300447000000000000
B1740383801758S06009577WA0045300473000000000000
B1740423801760S06009658WA0047400490000000000000
B1740463801755S06009736WA0048900502000000000000
B1740503801742S06009810WA0050100513000000000000
B1740543801729S06009884WA0051400529000000000000
B1740583801708S06009950WA0052500538000000000000
B1741023801682S06010015WA0053600548000000000000
B1741063801641S06010069WA0054300557000000000000
B1741103801593S06010106WA0055200577000000000000
B1741143801543S06010140WA0057300587000000000000
B1741183801485S06010162WA0057700593000000000000
B1741223801427S06010175WA0058100602000000000000
B1741263801367S06010178WA0059300615000000000000
B1741303801307S06010170WA0060000620000000000000
B1741343801250S06010140WA0060600625000000000000
B1741383801197S06010104WA0061200633000000000000
B1741423801146S06010061WA0061600640000000000000
B1741463801097S06010013WA0062600656000000000000
B1741503801051S06009961WA0064300675000000000000
B1741543801006S06009905WA0066200684000000000000
B1741583800960S06009841WA0067300703000000000000
B1742023800919S06009776WA0069500731000000000000
B1742063800880S06009718WA0071800744000000000000
B1742103800825S06009706WA0073100753000000000000
B1742143800787S06009755WA0073500751000000000000
B1742183800799S06009831WA0073100746000000000000
B1742223800860S06009878WA0072500736000000000000
B1742263800934S06009854WA0071700728000000000000
B1742303800998S06009805WA0071100732000000000000
B1742343801058S06009752WA0071900745000000000000
B1742383801092S06009680WA0073000756000000000000
B1742423801071S06009612WA0074400767000000000000
B1742463801020S06009614WA0074600764000000000000
B1742503801004S06009689WA0074000758000000000000
B1742543801055S06009752WA0074600778000000000000
B1742583801129S06009755WA0076200787000000000000
B1743023801192S06009705WA0077000797000000000000
B1743063801218S06009628WA0077800806000000000000
B1743103801186S06009562WA0078600808000000000000
B1743143801132S06009563WA0078300808000000000000
B1743183801106S06009629WA0078300809000000000000
B1743223801127S06009707WA0078300811000000000000
B1743263801168S06009775WA0079400825000000000000
B1743303801240S06009800WA0080300833000000000000
B1743343801300S06009752WA0081300842000000000000
B1743383801298S06009668WA0082300865000000000000
B1743423801248S06009644WA0084100874000000000000
B1743463801210S06009700WA0084300874000000000000
B1743503801238S06009779WA0085000883000000000000
B1743543801307S06009815WA0086100898000000000000
B1743583801380S06009798WA0087200907000000000000
B1744023801415S06009718WA0088200919000000000000
B1744063801379S06009657WA0089700936000000000000
B1744103801332S06009697WA0091300954000000000000
B1744143801353S06009779WA0092700962000000000000
B1744183801432S06009796WA0093300970000000000000
B1744223801482S06009722WA0094600988000000000000
B1744263801452S06009657WA0096301010000000000000
B1744303801400S06009676WA0097901021000000000000
B1744343801404S06009757WA0099101036000000000000
B1744383801470S06009805WA0100201039000000000000
B1744423801547S06009771WA0100601052000000000000
B1744463801575S06009690WA0102401070000000000000
B1744503801543S06009628WA0104101084000000000000
B1744543801487S06009653WA0105201092000000000000
B1744583801496S06009740WA0106701116000000000000
B1745023801565S06009780WA0108401126000000000000
B1745063801634S06009741WA0109401139000000000000
B1745103801638S06009657WA0110301147000000000000
B1745143801579S06009635WA0111701164000000000000
B1745183801554S06009706WA0113601188000000000000
B1745223801608S06009766WA0115301200000000000000
B1745263801684S06009758WA0115801200000000000000
B1745303801719S06009674WA0116701212000000000000
B1745343801680S06009609WA0117901228000000000000
B1745383801621S06009625WA0119001239000000000000
B1745423801606S06009707WA0120501257000000000000
B1745463801657S06009776WA0122401272000000000000
B1745503801739S06009781WA0122801268000000000000
B1745543801796S06009716WA0123401275000000000000
B1745583801777S06009629WA0124801293000000000000
B1746023801716S06009607WA0126301309000000000000
B1746063801675S06009664WA0127601326000000000000
B1746103801700S06009748WA0129001337000000000000
B1746143801777S06009776WA0129901345000000000000
B1746183801848S06009739WA0130201348000000000000
B1746223801842S06009623WA0131501367000000000000
B1746263801790S06009592WA0133301386000000000000
B1746303801747S06009641WA0135201406000000000000
B1746343801756S06009723WA0136801420000000000000
B1746383801818S06009779WA0137201421000000000000
B1746423801900S06009767WA0137401423000000000000
B1746463801942S06009683WA0137901434000000000000
B1746503801914S06009602WA0139001447000000000000
B1746543801849S06009597WA0140201460000000000000
B1746583801825S06009675WA0142201487000000000000
B1747023801882S06009739WA0144101502000000000000
B1747063801963S06009719WA0145201505000000000000
B1747103801994S06009633WA0146001519000000000000
B1747143801963S06009559WA0147701536000000000000
B1747183801904S06009549WA0148701549000000000000
B1747223801877S06009614WA0150401569000000000000
B1747263801918S06009687WA0151701573000000000000
B1747303801999S06009700WA0151901574000000000000
B1747343802067S06009663WA0152301585000000000000
B1747383802063S06009538WA0154301611000000000000
B1747423802016S06009492WA0156201623000000000000
B1747463801960S06009516WA0157001632000000000000
B1747503801955S06009597WA0158501649000000000000
B1747543802012S06009659WA0159401651000000000000
B1747583802095S06009644WA0160001663000000000000
B1748023802143S06009560WA0160601673000000000000
B1748063802138S06009466WA0162301689000000000000
B1748103802087S06009412WA0163401704000000000000
B1748143802034S06009437WA0164801714000000000000
B1748183802031S06009516WA0166101731000000000000
B1748223802073S06009584WA0167201738000000000000
B1748263802154S06009597WA0168201750000000000000
B1748303802225S06009551WA0169401757000000000000
B1748343802239S06009456WA0170601771000000000000
B1748383802207S06009378WA0171101773000000000000
B1748423802145S06009365WA0171601785000000000000
B1748463802100S06009416WA0172201788000000000000
B1748503802096S06009497WA0173101799000000000000
B1748543802134S06009576WA0173801801000000000000
B1748583802212S06009610WA0174001808000000000000
B1749023802286S06009567WA0175101824000000000000
B1749063802323S06009472WA0175901826000000000000
B1749103802303S06009378WA0176301835000000000000
B1749143802246S06009332WA0176901838000000000000
B1749183802184S06009326WA0177701843000000000000
B1749223802138S06009377WA0178101855000000000000
B1749263802138S06009458WA0178901853000000000000
B1749303802197S06009529WA0178401854000000000000
B1749343802268S06009573WA0177801854000000000000
B1749383802356S06009566WA0178301861000000000000
B1749423802423S06009490WA0179501871000000000000
B1749463802433S06009388WA0180401882000000000000
B1749503802399S06009306WA0181401887000000000000
B1749543802336S06009271WA0181601887000000000000
B1749583802272S06009293WA0181601885000000000000
B1750023802208S06009329WA0181501881000000000000
B1750063802141S06009360WA0181301867000000000000
B1750103802068S06009384WA0179101853000000000000
B1750143801995S06009403WA0178201852000000000000
B1750183801926S06009427WA0178101847000000000000
B1750223801857S06009450WA0177201837000000000000
B1750263801788S06009473WA0176401822000000000000
B1750303801714S06009495WA0175101811000000000000
B1750343801639S06009518WA0173901798000000000000
B1750383801563S06009542WA0172601790000000000000
B1750423801488S06009568WA0172201786000000000000
B1750463801413S06009592WA0171901782000000000000
B1750503801339S06009615WA0172201780000000000000
B1750543801266S06009637WA0172101777000000000000
B1750583801193S06009658WA0171901778000000000000
B1751023801120S06009680WA0171901776000000000000
B1751063801049S06009700WA0171601772000000000000
B1751103800976S06009718WA0171201766000000000000
B1751143800904S06009732WA0171201768000000000000
B1751183800834S06009742WA0170801762000000000000
B1751223800763S06009752WA0170101752000000000000
B1751263800692S06009759WA0169001742000000000000
B1751303800624S06009768WA0168101731000000000000
B1751343800560S06009785WA0168001742000000000000
B1751383800500S06009789WA0168701752000000000000
B1751423800444S06009789WA0169501750000000000000
B1751463800403S06009840WA0169501751000000000000
B1751503800380S06009913WA0169301746000000000000
B1751543800351S06009984WA0169001744000000000000
B1751583800313S06010051WA0168301734000000000000
B1752023800261S06010104WA0167101722000000000000
B1752063800197S06010140WA0166101711000000000000
B1752103800128S06010162WA0166201729000000000000
B1752143800067S06010188WA0167901745000000000000
B1752183800031S06010253WA0169501757000000000000
B1752223800037S06010343WA0170301765000000000000
B1752263800100S06010408WA0170801762000000000000
B1752303800185S06010405WA0170501759000000000000
B1752343800244S06010340WA0170601759000000000000
B1752383800254S06010239WA0170201750000000000000
B1752423800221S06010155WA0169401752000000000000
B1752463800163S06010114WA0170101762000000000000
B1752503800101S06010087WA0170701769000000000000
B1752543800040S06010058WA0171601784000000000000
B1752583759980S06010031WA0172501781000000000000
B1753023759915S06010019WA0172001774000000000000
B1753063759849S06010023WA0171501768000000000000
B1753103759782S06010039WA0170501760000000000000
B1753143759719S06010074WA0169901755000000000000
B1753183759658S06010117WA0169301746000000000000
B1753223759597S06010160WA0168301733000000000000
B1753263759533S06010207WA0167101719000000000000
B1753303759467S06010252WA0166001707000000000000
B1753343759398S06010296WA0164801697000000000000
B1753383759329S06010343WA0163801689000000000000
B1753423759259S06010391WA0162701673000000000000
B1753463759184S06010438WA0161401663000000000000
B1753503759113S06010486WA0160601657000000000000
B1753543759044S06010537WA0160301657000000000000
B1753583758978S06010585WA0160201649000000000000
B1754023758913S06010634WA0159401640000000000000
B1754063758848S06010685WA0158501635000000000000
B1754103758783S06010736WA0158201629000000000000
B1754143758720S06010788WA0157701632000000000000
B1754183758661S06010842WA0158301640000000000000
B1754223758605S06010886WA0160201661000000000000
B1754263758555S06010933WA0162101687000000000000
B1754303758523S06010987WA0164601711000000000000
B1754343758550S06011058WA0166501727000000000000
B1754383758627S06011080WA0167301729000000000000
B1754423758692S06011020WA0167401729000000000000
B1754463758693S06010922WA0167501734000000000000
B1754503758657S06010842WA0168101742000000000000
B1754543758602S06010797WA0168701750000000000000
B1754583758546S06010798WA0168801746000000000000
B1755023758505S06010849WA0168101741000000000000
B1755063758482S06010919WA0168501742000000000000
B1755103758468S06011000WA0168201747000000000000
B1755143758449S06011075WA0168801758000000000000
B1755183758445S06011156WA0170201778000000000000
B1755223758490S06011228WA0172301796000000000000
B1755263758570S06011231WA0174101817000000000000
B1755303758624S06011169WA0175701826000000000000
B1755343758614S06011084WA0176401832000000000000
B1755383758564S06011049WA0177401844000000000000
B1755423758520S06011087WA0178601859000000000000
B1755463758520S06011162WA0179901862000000000000
B1755503758570S06011231WA0179401862000000000000
B1755543758654S06011236WA0179901873000000000000
B1755583758723S06011184WA0181001882000000000000
B1756023758735S06011089WA0182101893000000000000
B1756063758694S06011023WA0182901899000000000000
B1756103758635S06011019WA0183501910000000000000
B1756143758597S06011074WA0185201927000000000000
B1756183758599S06011152WA0185701926000000000000
B1756223758664S06011204WA0186101927000000000000
B1756263758746S06011178WA0186401943000000000000
B1756303758796S06011100WA0187901955000000000000
B1756343758794S06011005WA0188601958000000000000
B1756383758745S06010948WA0188901961000000000000
B1756423758688S06010967WA0189601972000000000000
B1756463758671S06011044WA0190701976000000000000
B1756503758714S06011117WA0190901980000000000000
B1756543758796S06011135WA0191001986000000000000
B1756583758862S06011070WA0192402002000000000000
B1757023758871S06010974WA0193002003000000000000
B1757063758827S06010907WA0193402008000000000000
B1757103758767S06010910WA0194202011000000000000
B1757143758744S06010981WA0194802018000000000000
B1757183758781S06011058WA0195102017000000000000
B1757223758854S06011105WA0195002021000000000000
B1757263758936S06011089WA0195902036000000000000
B1757303758995S06011018WA0196802037000000000000
B1757343758989S06010918WA0196302029000000000000
B1757383758932S06010866WA0195802026000000000000
B1757423758867S06010872WA0195902030000000000000
B1757463758822S06010929WA0196302031000000000000
B1757503758817S06011018WA0196402032000000000000
B1757543758856S06011104WA0196602032000000000000
B1757583758928S06011159WA0196302032000000000000
B1758023759014S06011172WA0196802042000000000000
B1758063759079S06011110WA0198102055000000000000
B1758103759091S06011007WA0198802047000000000000
B1758143759054S06010916WA0197602040000000000000
B1758183758983S06010879WA0197202034000000000000
B1758223758915S06010919WA0196902037000000000000
B1758263758896S06011013WA0197002041000000000000
B1758303758932S06011105WA0197002032000000000000
B1758343759015S06011158WA0196202022000000000000
B1758383759110S06011178WA0196102034000000000000
B1758423759203S06011139WA0196902040000000000000
B1758463759288S06011080WA0197202033000000000000
B1758503759376S06011026WA0196602026000000000000
B1758543759451S06010942WA0195602020000000000000
B1758583759473S06010823WA0195502025000000000000
B1759023759448S06010717WA0196102032000000000000
B1759063759408S06010630WA0196602039000000000000
B1759103759366S06010550WA0197002035000000000000
B1759143759324S06010472WA0197002036000000000000
B1759183759278S06010392WA0196302022000000000000
B1759223759225S06010318WA0195202011000000000000
B1759263759157S06010268WA0194402006000000000000
B1759303759084S06010256WA0193501998000000000000
B1759343759015S06010273WA0192801986000000000000
B1759383758949S06010305WA0191801977000000000000
B1759423758910S06010376WA0191201976000000000000
B1759463758901S06010463WA0190401959000000000000
B1759503758921S06010555WA0188601940000000000000
B1759543758954S06010642WA0186901929000000000000
B1759583758992S06010724WA0186701932000000000000
B1800023759040S06010798WA0186101920000000000000
B1800063759105S06010860WA0184901913000000000000
B1800103759179S06010910WA0184001907000000000000
B1800143759264S06010938WA0183701908000000000000
B1800183759350S06010953WA0183901921000000000000
B1800223759430S06010928WA0185501934000000000000
B1800263759495S06010868WA0186401940000000000000
B1800303759512S06010773WA0186801939000000000000
B1800343759481S06010690WA0186701935000000000000
B1800383759428S06010636WA0185901926000000000000
B1800423759365S06010608WA0186201941000000000000
B1800463759301S06010612WA0186801933000000000000
B1800503759243S06010654WA0185401920000000000000
B1800543759209S06010724WA0185301921000000000000
B1800583759207S06010810WA0184901908000000000000
B1801023759223S06010903WA0183601893000000000000
B1801063759265S06010990WA0182701887000000000000
B1801103759337S06011049WA0182301885000000000000
B1801143759425S06011067WA0181601876000000000000
B1801183759512S06011063WA0181501880000000000000
B1801223759595S06011050WA0181601879000000000000
B1801263759675S06011007WA0181401877000000000000
B1801303759715S06010922WA0181601884000000000000
B1801343759715S06010823WA0182001881000000000000
B1801383759691S06010730WA0181601879000000000000
B1801423759637S06010672WA0181701887000000000000
B1801463759573S06010675WA0182501890000000000000
B1801503759533S06010734WA0182901894000000000000
B1801543759542S06010816WA0182701889000000000000
B1801583759603S06010873WA0182501885000000000000
B1802023759688S06010868WA0182201883000000000000
B1802063759758S06010810WA0181901882000000000000
B1802103759785S06010716WA0182301890000000000000
B1802143759768S06010624WA0182301884000000000000
B1802183759714S06010564WA0182101885000000000000
B1802223759646S06010563WA0181901882000000000000
B1802263759585S06010595WA0181201873000000000000
B1802303759521S06010626WA0180601871000000000000
B1802343759456S06010651WA0179901860000000000000
B1802383759387S06010675WA0178901845000000000000
B1802423759316S06010702WA0177401823000000000000
B1802463759244S06010737WA0175501808000000000000
B1802503759170S06010776WA0174001796000000000000
B1802543759096S06010814WA0172901786000000000000
B1802583759022S06010853WA0172401786000000000000
B1803023758952S06010889WA0172701794000000000000
B1803063758882S06010914WA0173701804000000000000
B1803103758814S06010924WA0174701812000000000000
B1803143758748S06010929WA0174901809000000000000
B1803183758684S06010964WA0174301800000000000000
B1803223758641S06011036WA0173101789000000000000
B1803263758636S06011130WA0172001783000000000000
B1803303758644S06011224WA0171301775000000000000
B1803343758641S06011322WA0170301764000000000000
B1803383758615S06011414WA0169401756000000000000
B1803423758577S06011499WA0168501746000000000000
B1803463758532S06011575WA0168001743000000000000
B1803503758484S06011647WA0167401735000000000000
B1803543758429S06011712WA0166801726000000000000
B1803583758372S06011773WA0165701722000000000000
B1804023758312S06011830WA0165801726000000000000
B1804063758250S06011885WA0166101733000000000000
B1804103758190S06011932WA0168101762000000000000
B1804143758134S06011971WA0170301776000000000000
B1804183758078S06012006WA0172201793000000000000
B1804223758038S06012063WA0173101807000000000000
B1804263758064S06012140WA0174901818000000000000
B1804303758139S06012149WA0175501823000000000000
B1804343758187S06012082WA0176101827000000000000
B1804383758182S06011993WA0176301823000000000000
B1804423758129S06011942WA0176301831000000000000
B1804463758069S06011937WA0176801837000000000000
B1804503758027S06011991WA0177001834000000000000
B1804543758038S06012075WA0176701831000000000000
B1804583758070S06012153WA0176401827000000000000
B1805023758141S06012196WA0176001821000000000000
B1805063758220S06012164WA0175801830000000000000
B1805103758287S06012111WA0177201847000000000000
B1805143758320S06012021WA0178201850000000000000
B1805183758298S06011934WA0178601851000000000000
B1805223758238S06011894WA0178501855000000000000
B1805263758180S06011921WA0179401863000000000000
B1805303758159S06011998WA0179501865000000000000
B1805343758187S06012081WA0179401855000000000000
B1805383758215S06012171WA0178501851000000000000
B1805423758229S06012264WA0178301848000000000000
B1805463758233S06012362WA0177501834000000000000
B1805503758226S06012465WA0176101821000000000000
B1805543758215S06012569WA0175201815000000000000
B1805583758206S06012677WA0174401805000000000000
B1806023758215S06012790WA0173501803000000000000
B1806063758233S06012901WA0173201799000000000000
B1806103758258S06013012WA0173001798000000000000
B1806143758277S06013124WA0173101793000000000000
B1806183758297S06013233WA0173401793000000000000
B1806223758312S06013343WA0172901786000000000000
B1806263758328S06013454WA0172501778000000000000
B1806303758347S06013559WA0172501790000000000000
B1806343758371S06013658WA0172701781000000000000
B1806383758391S06013761WA0171401763000000000000
B1806423758406S06013867WA0170401754000000000000
B1806463758397S06013967WA0169201745000000000000
B1806503758368S06014053WA0168901745000000000000
B1806543758332S06014130WA0168401738000000000000
B1806583758286S06014201WA0167501730000000000000
B1807023758237S06014269WA0167101727000000000000
B1807063758183S06014333WA0166901726000000000000
B1807103758130S06014394WA0167001729000000000000
B1807143758079S06014459WA0167201726000000000000
B1807183758026S06014520WA0166801721000000000000
B1807223757972S06014573WA0166801721000000000000
B1807263757933S06014651WA0166801730000000000000
B1807303757903S06014729WA0168501748000000000000
B1807343757899S06014819WA0169201747000000000000
B1807383757946S06014900WA0169001746000000000000
B1807423758025S06014923WA0169201751000000000000
B1807463758104S06014902WA0169601751000000000000
B1807503758168S06014841WA0169001742000000000000
B1807543758191S06014742WA0167801733000000000000
B1807583758222S06014645WA0167401733000000000000
B1808023758260S06014551WA0166901723000000000000
B1808063758315S06014471WA0166401721000000000000
B1808103758388S06014417WA0166501723000000000000
B1808143758466S06014373WA0166801728000000000000
B1808183758523S06014298WA0167701741000000000000
B1808223758518S06014208WA0168101739000000000000
B1808263758468S06014161WA0167701737000000000000
B1808303758411S06014168WA0167501735000000000000
B1808343758352S06014178WA0167301734000000000000
B1808383758294S06014178WA0167401736000000000000
B1808423758230S06014175WA0167601740000000000000
B1808463758167S06014179WA0168201751000000000000
B1808503758112S06014216WA0169301763000000000000
B1808543758096S06014294WA0170801787000000000000
B1808583758129S06014374WA0172401786000000000000
B1809023758212S06014398WA0173401802000000000000
B1809063758277S06014338WA0175001815000000000000
B1809103758293S06014250WA0175401811000000000000
B1809143758252S06014181WA0174801807000000000000
B1809183758194S06014144WA0175101814000000000000
B1809223758135S06014169WA0175401819000000000000
B1809263758133S06014255WA0176601830000000000000
B1809303758194S06014322WA0177201833000000000000
B1809343758280S06014318WA0177601845000000000000
B1809383758329S06014237WA0179101859000000000000
B1809423758303S06014151WA0180001861000000000000
B1809463758238S06014138WA0180801877000000000000
B1809503758200S06014200WA0182101890000000000000
B1809543758230S06014286WA0183301896000000000000
B1809583758308S06014325WA0183801904000000000000
B1810023758382S06014277WA0185201922000000000000
B1810063758423S06014191WA0185301912000000000000
B1810103758401S06014100WA0184501915000000000000
B1810143758334S06014078WA0185001921000000000000
B1810183758286S06014130WA0186201930000000000000
B1810223758289S06014217WA0187001936000000000000
B1810263758345S06014289WA0187301939000000000000
B1810303758428S06014289WA0188101951000000000000
B1810343758489S06014222WA0188601947000000000000
B1810383758498S06014126WA0187401941000000000000
B1810423758451S06014058WA0187501946000000000000
B1810463758386S06014062WA0188901962000000000000
B1810503758346S06014129WA0189901974000000000000
B1810543758359S06014218WA0190501970000000000000
B1810583758424S06014279WA0190301969000000000000
B1811023758508S06014309WA0189901965000000000000
B1811063758594S06014338WA0189401957000000000000
B1811103758674S06014386WA0188701953000000000000
B1811143758729S06014458WA0188601951000000000000
B1811183758778S06014530WA0188701947000000000000
B1811223758853S06014568WA0187901941000000000000
B1811263758935S06014565WA0187501931000000000000
B1811303759005S06014510WA0186201919000000000000
B1811343759017S06014413WA0186801931000000000000
B1811383758984S06014339WA0187901939000000000000
B1811423758924S06014311WA0188201945000000000000
B1811463758870S06014352WA0188201940000000000000
B1811503758867S06014445WA0187601943000000000000
B1811543758918S06014520WA0187601938000000000000
B1811583759002S06014534WA0187401940000000000000
B1812023759067S06014476WA0187401938000000000000
B1812063759099S06014383WA0187001938000000000000
B1812103759125S06014292WA0187301943000000000000
B1812143759147S06014201WA0187801950000000000000
B1812183759151S06014110WA0188701965000000000000
B1812223759104S06014062WA0190101972000000000000
B1812263759054S06014091WA0189701965000000000000
B1812303759054S06014179WA0188801952000000000000
B1812343759095S06014264WA0188001948000000000000
B1812383759169S06014308WA0188601958000000000000
B1812423759252S06014300WA0189001957000000000000
B1812463759329S06014255WA0188901947000000000000
B1812503759383S06014172WA0188101943000000000000
B1812543759391S06014070WA0187901948000000000000
B1812583759366S06013986WA0189001965000000000000
B1813023759307S06013964WA0189701976000000000000
B1813063759286S06014036WA0190801983000000000000
B1813103759347S06014097WA0191701990000000000000
B1813143759429S06014082WA0192101988000000000000
B1813183759483S06014006WA0192001985000000000000
B1813223759473S06013908WA0192601998000000000000
B1813263759415S06013880WA0193702005000000000000
B1813303759368S06013918WA0194702009000000000000
B1813343759368S06014004WA0194702010000000000000
B1813383759434S06014064WA0195102020000000000000
B1813423759517S06014044WA0195402022000000000000
B1813463759551S06013953WA0196102029000000000000
B1813503759520S06013873WA0196802034000000000000
B1813543759459S06013852WA0197002039000000000000
B1813583759411S06013902WA0197002037000000000000
B1814023759412S06013995WA0197302041000000000000
B1814063759470S06014069WA0197702049000000000000
B1814103759554S06014087WA0198302045000000000000
B1814143759637S06014049WA0197402032000000000000
B1814183759695S06013969WA0196202026000000000000
B1814223759698S06013862WA0196102024000000000000
B1814263759656S06013776WA0196202029000000000000
B1814303759587S06013744WA0196702033000000000000
B1814343759522S06013762WA0196802037000000000000
B1814383759477S06013828WA0197102034000000000000
B1814423759446S06013913WA0196502033000000000000
B1814463759450S06014009WA0196202027000000000000
B1814503759503S06014092WA0195702018000000000000
B1814543759589S06014116WA0195302023000000000000
B1814583759675S06014096WA0195102012000000000000
B1815023759741S06014030WA0194302004000000000000
B1815063759781S06013934WA0193602000000000000000
B1815103759794S06013828WA0193402002000000000000
B1815143759776S06013731WA0193702009000000000000
B1815183759733S06013652WA0193902009000000000000
B1815223759682S06013585WA0194402020000000000000
B1815263759621S06013546WA0195402025000000000000
B1815303759559S06013568WA0195702030000000000000
B1815343759537S06013648WA0196402037000000000000
B1815383759561S06013737WA0196802033000000000000
B1815423759632S06013792WA0196202028000000000000
B1815463759719S06013772WA0196102032000000000000
B1815503759780S06013700WA0196402034000000000000
B1815543759815S06013602WA0196202028000000000000
B1815583759812S06013501WA0196402035000000000000
B1816023759775S06013420WA0196602037000000000000
B1816063759714S06013386WA0196902039000000000000
B1816103759662S06013424WA0196902041000000000000
B1816143759656S06013509WA0197202040000000000000
B1816183759701S06013592WA0197002040000000000000
B1816223759779S06013635WA0196402030000000000000
B1816263759867S06013622WA0196002035000000000000
B1816303759941S06013558WA0196602036000000000000
B1816343759972S06013454WA0196502031000000000000
B1816383759958S06013351WA0195702021000000000000
B1816423759902S06013282WA0195202017000000000000
E181644PEV
B1816443759867S06013275WA0195102020000000000000
B1816453759853S06013275WA0195102020000000000000
B1816463759834S06013282WA0195102018000000000000
B1816473759820S06013294WA0195102019000000000000
B1816483759807S06013308WA0195102021000000000000
B1816493759797S06013324WA0195202022000000000000
B1816503759789S06013342WA0195202019000000000000
B1816513759782S06013363WA0195102016000000000000
B1816523759780S06013386WA0195102016000000000000
B1816533759780S06013410WA0194902016000000000000
B1816543759784S06013433WA0194902014000000000000
B1816553759790S06013457WA0194702013000000000000
B1816563759799S06013479WA0194602011000000000000
B1816573759811S06013501WA0194602010000000000000
B1816583759825S06013519WA0194502012000000000000
B1816593759842S06013537WA0194402010000000000000
B1817003759860S06013551WA0194202007000000000000
B1817043759950S06013576WA0193602003000000000000
B1817083800039S06013538WA0193502005000000000000
B1817123800104S06013450WA0193602002000000000000
B1817163800119S06013336WA0192901991000000000000
B1817203800083S06013236WA0191701980000000000000
B1817243800016S06013177WA0190701976000000000000
B1817283759945S06013181WA0190701979000000000000
B1817323759896S06013238WA0191001980000000000000
B1817363759872S06013320WA0191101978000000000000
B1817403759893S06013415WA0190901974000000000000
B1817443759955S06013489WA0190201962000000000000
B1817483800046S06013531WA0189001953000000000000
B1817523800148S06013518WA0188701955000000000000
B1817563800237S06013455WA0188701952000000000000
B1818003800302S06013358WA0188401950000000000000
B1818043800344S06013242WA0187901942000000000000
B1818083800384S06013122WA0187301938000000000000
B1818123800425S06013004WA0186801931000000000000
B1818163800471S06012888WA0186401925000000000000
B1818203800522S06012779WA0185701921000000000000
B1818243800573S06012675WA0185601923000000000000
B1818283800625S06012579WA0185801924000000000000
B1818323800682S06012491WA0185801923000000000000
B1818363800743S06012415WA0185901925000000000000
B1818403800815S06012359WA0186001926000000000000
B1818443800889S06012316WA0186101924000000000000
B1818483800959S06012263WA0185901920000000000000
B1818523801017S06012183WA0185201907000000000000
B1818563801072S06012094WA0184301901000000000000
B1819003801114S06011998WA0183401894000000000000
B1819043801132S06011897WA0182601884000000000000
B1819083801132S06011793WA0182101888000000000000
B1819123801124S06011692WA0182701890000000000000
B1819163801086S06011608WA0182701896000000000000
B1819203801029S06011552WA0183201897000000000000
B1819243800962S06011539WA0183501901000000000000
B1819283800904S06011581WA0183701898000000000000
B1819323800872S06011661WA0183301892000000000000
B1819363800885S06011761WA0182501886000000000000
B1819403800925S06011856WA0181801879000000000000
B1819443800971S06011950WA0181401873000000000000
B1819483801023S06012043WA0180301860000000000000
B1819523801075S06012140WA0178901847000000000000
B1819563801129S06012235WA0178401848000000000000
B1820003801184S06012328WA0178301841000000000000
B1820043801249S06012413WA0178101842000000000000
B1820083801319S06012489WA0178001843000000000000
B1820123801391S06012562WA0178201839000000000000
B1820163801462S06012634WA0177801841000000000000
B1820203801528S06012706WA0177601838000000000000
B1820243801589S06012782WA0177101830000000000000
B1820283801651S06012860WA0176601823000000000000
B1820323801710S06012939WA0175901814000000000000
B1820363801765S06013024WA0175201807000000000000
B1820403801825S06013104WA0174801808000000000000
B1820443801896S06013174WA0174701806000000000000
B1820483801977S06013233WA0174901810000000000000
B1820523802057S06013289WA0175201814000000000000
B1820563802138S06013342WA0175001806000000000000
B1821003802221S06013394WA0174401803000000000000
B1821043802304S06013444WA0174001798000000000000
B1821083802388S06013489WA0173601796000000000000
B1821123802468S06013542WA0173301791000000000000
B1821163802541S06013606WA0172901788000000000000
B1821203802610S06013676WA0172401782000000000000
B1821243802681S06013740WA0171801773000000000000
B1821283802756S06013805WA0170701764000000000000
B1821323802828S06013873WA0169801755000000000000
B1821363802904S06013939WA0169101746000000000000
B1821403802984S06013997WA0168501740000000000000
B1821443803068S06014052WA0167901739000000000000
B1821483803151S06014101WA0167601731000000000000
B1821523803230S06014157WA0167301732000000000000
B1821563803303S06014220WA0167201733000000000000
B1822003803369S06014290WA0167101729000000000000
B1822043803425S06014370WA0166701724000000000000
B1822083803467S06014461WA0166401720000000000000
B1822123803494S06014559WA0165901708000000000000
B1822163803526S06014656WA0165001702000000000000
B1822203803555S06014757WA0164101689000000000000
B1822243803565S06014863WA0163001678000000000000
B1822283803565S06014972WA0161501665000000000000
B1822323803562S06015079WA0161001662000000000000
B1822363803550S06015182WA0160401658000000000000
B1822403803534S06015283WA0160001655000000000000
B1822443803519S06015382WA0159701648000000000000
B1822483803502S06015478WA0159201644000000000000
B1822523803486S06015576WA0158801638000000000000
B1822563803472S06015674WA0158101630000000000000
B1823003803459S06015776WA0157301626000000000000
B1823043803464S06015877WA0157501636000000000000
B1823083803499S06015967WA0159201655000000000000
B1823123803547S06016042WA0160601665000000000000
B1823163803617S06016080WA0161901682000000000000
B1823203803695S06016075WA0163501701000000000000
B1823243803762S06016012WA0164501694000000000000
B1823283803762S06015914WA0164601704000000000000
B1823323803716S06015855WA0165401712000000000000
B1823363803658S06015858WA0165701715000000000000
B1823403803616S06015912WA0165601715000000000000
B1823443803614S06015997WA0165701717000000000000
B1823483803651S06016072WA0166401727000000000000
B1823523803727S06016094WA0167701744000000000000
B1823563803794S06016034WA0168601754000000000000
B1824003803803S06015937WA0169701766000000000000
B1824043803757S06015886WA0170701772000000000000
B1824083803714S06015924WA0171201771000000000000
B1824123803723S06016003WA0171101777000000000000
B1824163803767S06016068WA0172101789000000000000
B1824203803841S06016092WA0172801797000000000000
B1824243803911S06016037WA0173401802000000000000
B1824283803919S06015936WA0174001806000000000000
B1824323803876S06015864WA0175001821000000000000
B1824363803819S06015860WA0175501826000000000000
B1824403803789S06015919WA0176501829000000000000
B1824443803814S06015997WA0176901834000000000000
B1824483803887S06016028WA0176901841000000000000
B1824523803962S06015988WA0177601846000000000000
B1824563804004S06015898WA0177901848000000000000
B1825003803994S06015802WA0178401850000000000000
B1825043803946S06015746WA0178901858000000000000
B1825083803884S06015750WA0178601846000000000000
B1825123803833S06015804WA0178201840000000000000
B1825163803814S06015894WA0177801838000000000000
B1825203803842S06015985WA0178101851000000000000
B1825243803914S06016037WA0179401863000000000000
B1825283804000S06016028WA0180401872000000000000
B1825323804069S06015958WA0180801874000000000000
B1825363804101S06015859WA0181601886000000000000
B1825403804087S06015764WA0182601892000000000000
B1825443804035S06015711WA0182601889000000000000
B1825483803970S06015728WA0182401887000000000000
B1825523803924S06015791WA0182101882000000000000
B1825563803927S06015881WA0182201897000000000000
B1826003803962S06015964WA0183301902000000000000
B1826043804019S06016023WA0184101913000000000000
B1826083804100S06015994WA0185101922000000000000
B1826123804137S06015903WA0185901921000000000000
B1826163804135S06015802WA0185901923000000000000
B1826203804079S06015750WA0186601934000000000000
B1826243804020S06015758WA0186701935000000000000
B1826283804002S06015836WA0186801934000000000000
B1826323804033S06015917WA0186701938000000000000
B1826363804105S06015960WA0187501947000000000000
B1826403804188S06015940WA0187901946000000000000
B1826443804239S06015849WA0188301955000000000000
B1826483804240S06015746WA0189101955000000000000
B1826523804193S06015669WA0188901956000000000000
B1826563804124S06015655WA0189001961000000000000
B1827003804066S06015691WA0189801968000000000000
B1827043804030S06015758WA0190001969000000000000
B1827083804023S06015841WA0190001967000000000000
B1827123804058S06015919WA0190401976000000000000
B1827163804124S06015967WA0190601971000000000000
B1827203804210S06015972WA0190901980000000000000
B1827243804293S06015936WA0191601987000000000000
B1827283804355S06015855WA0192401998000000000000
B1827323804370S06015751WA0193002003000000000000
B1827363804342S06015660WA0193202001000000000000
B1827403804283S06015611WA0193502005000000000000
B1827443804215S06015607WA0193602008000000000000
B1827483804160S06015656WA0193702008000000000000
B1827523804139S06015737WA0194002008000000000000
B1827563804169S06015824WA0194002009000000000000
B1828003804241S06015875WA0194302014000000000000
B1828043804327S06015894WA0194802026000000000000
B1828083804416S06015885WA0196002035000000000000
B1828123804479S06015808WA0196802045000000000000
B1828163804492S06015708WA0197502043000000000000
B1828203804462S06015617WA0197102036000000000000
B1828243804408S06015546WA0196302028000000000000
B1828283804343S06015500WA0196502031000000000000
B1828323804273S06015486WA0196602035000000000000
B1828363804212S06015518WA0196602034000000000000
B1828403804180S06015589WA0196702034000000000000
B1828443804178S06015670WA0196802038000000000000
B1828483804200S06015750WA0196802032000000000000
B1828523804249S06015820WA0196402030000000000000
B1828563804322S06015858WA0197102048000000000000
B1829003804403S06015856WA0198402055000000000000
B1829043804481S06015812WA0198902055000000000000
B1829083804544S06015739WA0199002058000000000000
B1829123804581S06015642WA0199002057000000000000
B1829163804569S06015542WA0199302064000000000000
B1829203804520S06015475WA0199102057000000000000
B1829243804449S06015461WA0198502051000000000000
B1829283804388S06015492WA0198302054000000000000
B1829323804345S06015553WA0198602054000000000000
B1829363804322S06015629WA0198502053000000000000
B1829403804329S06015713WA0198402047000000000000
B1829443804365S06015795WA0197902053000000000000
B1829483804418S06015864WA0198602058000000000000
B1829523804494S06015903WA0199202062000000000000
B1829563804579S06015886WA0199502065000000000000
B1830003804650S06015821WA0199502063000000000000
B1830043804686S06015722WA0199102060000000000000
B1830083804686S06015615WA0198602050000000000000
B1830123804657S06015513WA0198002052000000000000
B1830163804607S06015431WA0198002049000000000000
B1830203804547S06015369WA0198202051000000000000
B1830243804478S06015343WA0197802048000000000000
B1830283804414S06015374WA0197902048000000000000
B1830323804377S06015444WA0197702043000000000000
B1830363804361S06015531WA0197202037000000000000
B1830403804358S06015624WA0196202028000000000000
B1830443804366S06015717WA0195502018000000000000
B1830483804388S06015811WA0194902012000000000000
B1830523804444S06015884WA0194602015000000000000
B1830563804522S06015919WA0194702009000000000000
B1831003804605S06015886WA0194802021000000000000
B1831043804652S06015800WA0195802033000000000000
B1831083804650S06015700WA0196602034000000000000
B1831123804599S06015634WA0197202041000000000000
B1831163804534S06015654WA0197902051000000000000
B1831203804521S06015733WA0198802059000000000000
B1831243804565S06015803WA0199002053000000000000
B1831283804643S06015825WA0198602050000000000000
B1831323804719S06015774WA0198802061000000000000
B1831363804750S06015682WA0199602063000000000000
B1831403804728S06015592WA0199802065000000000000
B1831443804672S06015546WA0199702062000000000000
B1831483804607S06015557WA0199602061000000000000
B1831523804568S06015625WA0199602061000000000000
B1831563804583S06015716WA0199302053000000000000
B1832003804647S06015778WA0198902052000000000000
B1832043804732S06015784WA0198802053000000000000
B1832083804803S06015728WA0199002058000000000000
B1832123804833S06015633WA0198902054000000000000
B1832163804815S06015539WA0198802058000000000000
B1832203804761S06015481WA0198802050000000000000
B1832243804693S06015475WA0198302048000000000000
B1832283804644S06015529WA0198402049000000000000
B1832323804641S06015615WA0197802043000000000000
B1832363804690S06015687WA0197402034000000000000
B1832403804772S06015709WA0196502029000000000000
B1832443804851S06015668WA0196102026000000000000
B1832483804888S06015572WA0196202033000000000000
B1832523804871S06015475WA0196802035000000000000
B1832563804813S06015421WA0196302024000000000000
B1833003804750S06015439WA0195902026000000000000
B1833043804725S06015514WA0195802022000000000000
B1833083804758S06015592WA0195702021000000000000
B1833123804832S06015621WA0195702022000000000000
B1833163804904S06015579WA0195402014000000000000
B1833203804946S06015490WA0195102014000000000000
B1833243804943S06015386WA0194902012000000000000
B1833283804928S06015284WA0193701992000000000000
B1833323804934S06015170WA0192501985000000000000
B1833363804967S06015057WA0191601972000000000000
B1833403805014S06014946WA0190001961000000000000
B1833443805066S06014840WA0189301956000000000000
B1833483805115S06014732WA0188601944000000000000
B1833523805164S06014623WA0188001939000000000000
B1833563805215S06014513WA0186801928000000000000
B1834003805262S06014402WA0186101924000000000000
B1834043805301S06014291WA0186001923000000000000
B1834083805335S06014175WA0185501920000000000000
B1834123805367S06014062WA0185601920000000000000
B1834163805402S06013949WA0185201911000000000000
B1834203805435S06013837WA0184901914000000000000
B1834243805469S06013730WA0184701908000000000000
B1834283805505S06013622WA0184401909000000000000
B1834323805544S06013519WA0184401906000000000000
B1834363805580S06013419WA0184401906000000000000
B1834403805616S06013319WA0183901893000000000000
B1834443805651S06013215WA0183001886000000000000
B1834483805687S06013109WA0182101875000000000000
B1834523805725S06013002WA0180801865000000000000
B1834563805762S06012892WA0180101860000000000000
B1835003805800S06012784WA0179701852000000000000
B1835043805838S06012675WA0178901839000000000000
B1835083805878S06012558WA0176901810000000000000
B1835123805924S06012428WA0173701780000000000000
B1835163805970S06012290WA0171401763000000000000
B1835203806017S06012154WA0169901749000000000000
B1835243806061S06012015WA0168601740000000000000
B1835283806104S06011878WA0167701728000000000000
B1835323806149S06011741WA0166301711000000000000
B1835363806191S06011600WA0165101700000000000000
B1835403806236S06011461WA0164301694000000000000
B1835443806273S06011321WA0163601692000000000000
B1835483806310S06011183WA0163601692000000000000
B1835523806347S06011048WA0163301685000000000000
B1835563806386S06010910WA0162101664000000000000
B1836003806435S06010768WA0159801640000000000000
B1836043806490S06010628WA0158201637000000000000
B1836083806555S06010511WA0159901672000000000000
B1836123806626S06010420WA0161801669000000000000
B1836163806697S06010326WA0161001650000000000000
B1836203806760S06010216WA0159001632000000000000
B1836243806812S06010092WA0157201617000000000000
B1836283806857S06009960WA0155701605000000000000
B1836323806903S06009823WA0154801594000000000000
B1836363806947S06009687WA0153601586000000000000
B1836403806994S06009550WA0152801571000000000000
B1836443807049S06009414WA0151301560000000000000
B1836483807107S06009280WA0151201563000000000000
B1836523807165S06009151WA0151201560000000000000
B1836563807228S06009025WA0150101546000000000000
B1837003807291S06008896WA0149201537000000000000
B1837043807356S06008769WA0148601534000000000000
B1837083807421S06008643WA0148101526000000000000
B1837123807488S06008518WA0147501518000000000000
B1837163807556S06008397WA0146501508000000000000
B1837203807624S06008277WA0145901506000000000000
B1837243807688S06008156WA0145601502000000000000
B1837283807745S06008034WA0145501503000000000000
B1837323807798S06007912WA0145101499000000000000
B1837363807852S06007791WA0144901493000000000000
B1837403807893S06007666WA0144301485000000000000
B1837443807924S06007536WA0143301474000000000000
B1837483807946S06007405WA0142201466000000000000
B1837523807961S06007274WA0141401446000000000000
B1837563807971S06007139WA0139101431000000000000
B1838003807987S06007005WA0138401422000000000000
B1838043808004S06006873WA0137501415000000000000
B1838083808040S06006751WA0138301436000000000000
B1838123808084S06006654WA0140901473000000000000
B1838163808134S06006574WA0144001489000000000000
B1838203808184S06006503WA0144601482000000000000
B1838243808238S06006418WA0142801446000000000000
B1838283808291S06006313WA0139401413000000000000
B1838323808325S06006188WA0136701397000000000000
B1838363808353S06006058WA0134801376000000000000
B1838403808388S06005927WA0132901361000000000000
B1838443808426S06005794WA0131401344000000000000
B1838483808469S06005662WA0130301337000000000000
B1838523808516S06005530WA0129501330000000000000
B1838563808565S06005399WA0128501319000000000000
B1839003808617S06005269WA0127801316000000000000
B1839043808671S06005139WA0127401307000000000000
B1839083808726S06005009WA0126601300000000000000
B1839123808782S06004878WA0125901290000000000000
B1839163808837S06004745WA0124901284000000000000
B1839203808893S06004614WA0124301276000000000000
B1839243808946S06004481WA0123201261000000000000
B1839283808998S06004346WA0121801252000000000000
B1839323809050S06004212WA0120901242000000000000
B1839363809102S06004078WA0120001230000000000000
B1839403809154S06003946WA0118601221000000000000
B1839443809207S06003813WA0117801210000000000000
B1839483809263S06003684WA0116801192000000000000
B1839523809317S06003553WA0115001174000000000000
B1839563809366S06003419WA0113201164000000000000
B1840003809415S06003289WA0112701156000000000000
B1840043809465S06003162WA0111701147000000000000
B1840083809517S06003034WA0110901142000000000000
B1840123809569S06002910WA0111201147000000000000
B1840163809621S06002784WA0110701144000000000000
B1840203809673S06002670WA0112601190000000000000
B1840243809724S06002578WA0116201202000000000000
B1840283809773S06002478WA0116501204000000000000
B1840323809820S06002377WA0116601198000000000000
B1840363809868S06002265WA0115701183000000000000
B1840403809911S06002144WA0114501171000000000000
B1840443809955S06002018WA0112701156000000000000
B1840483809998S06001887WA0111601142000000000000
B1840523810037S06001751WA0110401130000000000000
B1840563810075S06001615WA0109201116000000000000
B1841003810114S06001481WA0108301113000000000000
B1841043810151S06001350WA0107801102000000000000
B1841083810189S06001214WA0106501083000000000000
B1841123810225S06001077WA0105101072000000000000
B1841163810260S06000939WA0104101067000000000000
B1841203810292S06000802WA0103401062000000000000
B1841243810320S06000668WA0102801053000000000000
B1841283810357S06000541WA0102701058000000000000
B1841323810406S06000427WA0103601073000000000000
B1841363810453S06000314WA0104501093000000000000
B1841403810491S06000210WA0106701121000000000000
B1841443810501S06000124WA0109901151000000000000
B1841483810520S06000044WA0111901151000000000000
B1841523810593S06000024WA0111401148000000000000
B1841563810631S06000094WA0111501147000000000000
B1842003810592S06000145WA0111401157000000000000
B1842043810544S06000158WA0112401159000000000000
B1842083810500S06000121WA0112601158000000000000
B1842123810489S06000038WA0111801141000000000000
B1842163810522S05959938WA0110601131000000000000
B1842203810567S05959836WA0110101135000000000000
B1842243810615S05959743WA0110901158000000000000
B1842283810660S05959661WA0112901166000000000000
B1842323810710S05959578WA0112301142000000000000
B1842363810786S05959497WA0111201151000000000000
B1842403810853S05959430WA0113601182000000000000
B1842443810917S05959372WA0115101180000000000000
B1842483810991S05959307WA0113501157000000000000
B1842523811076S05959237WA0111401118000000000000
B1842563811170S05959167WA0107701087000000000000
B1843003811272S05959098WA0105501087000000000000
B1843043811375S05959037WA0105501076000000000000
B1843083811481S05958977WA0103901057000000000000
B1843123811590S05958923WA0102201044000000000000
B1843163811703S05958871WA0100801026000000000000
B1843203811817S05958820WA0099301014000000000000
B1843243811931S05958770WA0098101000000000000000
B1843283812047S05958724WA0097000985000000000000
B1843323812166S05958678WA0095600974000000000000
B1843363812283S05958637WA0095000974000000000000
B1843403812389S05958618WA0096701035000000000000
B1843443812461S05958587WA0102501081000000000000
B1843483812482S05958514WA0105301090000000000000
B1843523812442S05958473WA0105501083000000000000
B1843563812396S05958521WA0105601097000000000000
B1844003812396S05958598WA0107001108000000000000
B1844043812456S05958644WA0108601128000000000000
B1844083812520S05958604WA0109701135000000000000
B1844123812522S05958529WA0111101154000000000000
B1844163812481S05958491WA0111801145000000000000
B1844203812433S05958530WA0111801162000000000000
B1844243812429S05958600WA0113201168000000000000
B1844283812486S05958646WA0113401176000000000000
B1844323812558S05958616WA0114101182000000000000
B1844363812581S05958536WA0115501200000000000000
B1844403812538S05958487WA0116401201000000000000
B1844443812498S05958540WA0116901214000000000000
B1844483812543S05958604WA0118401230000000000000
B1844523812615S05958585WA0119201233000000000000
B1844563812621S05958504WA0119901239000000000000
B1845003812558S05958464WA0120901253000000000000
B1845043812530S05958522WA0121901260000000000000
B1845083812576S05958583WA0122601267000000000000
B1845123812649S05958568WA0123001270000000000000
B1845163812681S05958484WA0123701282000000000000
B1845203812643S05958423WA0124701297000000000000
B1845243812595S05958458WA0125701304000000000000
B1845283812617S05958534WA0126701314000000000000
B1845323812690S05958539WA0127401323000000000000
B1845363812741S05958473WA0128201330000000000000
B1845403812708S05958404WA0129401348000000000000
B1845443812660S05958423WA0130401351000000000000
B1845483812672S05958499WA0130801357000000000000
B1845523812746S05958517WA0131401365000000000000
B1845563812794S05958449WA0132401376000000000000
B1846003812782S05958373WA0133501386000000000000
B1846043812729S05958358WA0134101392000000000000
B1846083812702S05958423WA0134701399000000000000
B1846123812723S05958503WA0135301405000000000000
B1846163812786S05958542WA0135401398000000000000
B1846203812864S05958509WA0135001398000000000000
B1846243812931S05958443WA0134701399000000000000
B1846283812987S05958354WA0134401396000000000000
B1846323813036S05958265WA0136401420000000000000
B1846363813076S05958180WA0137301415000000000000
B1846403813114S05958080WA0135601389000000000000
B1846443813148S05957970WA0133501372000000000000
B1846483813184S05957857WA0132301367000000000000
B1846523813223S05957742WA0131401363000000000000
B1846563813266S05957626WA0131101362000000000000
B1847003813310S05957515WA0130601354000000000000
B1847043813360S05957398WA0129501341000000000000
B1847083813412S05957279WA0128501331000000000000
B1847123813461S05957161WA0127701325000000000000
B1847163813513S05957047WA0127601339000000000000
B1847203813564S05956941WA0129001348000000000000
B1847243813609S05956846WA0130901376000000000000
B1847283813652S05956759WA0132401371000000000000
B1847323813692S05956663WA0131901366000000000000
B1847363813738S05956562WA0130701346000000000000
B1847403813786S05956447WA0129401328000000000000
B1847443813837S05956326WA0127701312000000000000
B1847483813900S05956206WA0127101329000000000000
B1847523813967S05956094WA0128101323000000000000
B1847563814032S05955979WA0127401304000000000000
B1848003814093S05955856WA0125701292000000000000
B1848043814155S05955734WA0124601281000000000000
B1848083814215S05955611WA0123801274000000000000
B1848123814271S05955491WA0123301269000000000000
B1848163814326S05955367WA0122301254000000000000
B1848203814379S05955242WA0121901261000000000000
B1848243814430S05955125WA0122801274000000000000
B1848283814480S05955011WA0123301262000000000000
B1848323814534S05954893WA0122101251000000000000
B1848363814591S05954774WA0121001238000000000000
B1848403814648S05954652WA0119901232000000000000
B1848443814705S05954531WA0119401227000000000000
B1848483814765S05954410WA0119101216000000000000
B1848523814825S05954291WA0118101208000000000000
B1848563814886S05954172WA0117201203000000000000
B1849003814950S05954064WA0117701230000000000000
B1849043815020S05953986WA0120601248000000000000
B1849083815090S05953908WA0121001241000000000000
B1849123815158S05953833WA0121301244000000000000
B1849163815224S05953747WA0119801216000000000000
B1849203815277S05953638WA0116801186000000000000
B1849243815319S05953518WA0114601174000000000000
B1849283815355S05953404WA0115001194000000000000
B1849323815392S05953299WA0116001195000000000000
B1849363815428S05953216WA0119401248000000000000
B1849403815483S05953165WA0122601266000000000000
B1849443815546S05953212WA0123701275000000000000
B1849483815538S05953284WA0124701279000000000000
B1849523815485S05953277WA0125401281000000000000
B1849563815457S05953204WA0125901297000000000000
B1850003815506S05953132WA0127401311000000000000
B1850043815576S05953171WA0128301327000000000000
B1850083815561S05953251WA0129701338000000000000
B1850123815507S05953225WA0131001351000000000000
B1850163815519S05953143WA0132101362000000000000
B1850203815597S05953127WA0133201373000000000000
B1850243815637S05953206WA0134301388000000000000
B1850283815611S05953268WA0136101399000000000000
B1850323815561S05953235WA0137201406000000000000
B1850363815566S05953147WA0137901415000000000000
B1850403815636S05953105WA0139101432000000000000
B1850443815693S05953157WA0140501449000000000000
B1850483815671S05953230WA0141401454000000000000
B1850523815619S05953205WA0142001468000000000000
B1850563815631S05953121WA0143001476000000000000
B1851003815704S05953092WA0144001487000000000000
B1851043815749S05953160WA0144901494000000000000
B1851083815714S05953219WA0145801499000000000000
B1851123815678S05953160WA0146701510000000000000
B1851163815722S05953082WA0147401520000000000000
B1851203815795S05953100WA0149001537000000000000
B1851243815806S05953178WA0149601540000000000000
B1851283815752S05953173WA0150101552000000000000
B1851323815750S05953087WA0151501563000000000000
B1851363815800S05953017WA0152701579000000000000
B1851403815875S05953027WA0153501585000000000000
B1851443815889S05953113WA0154201592000000000000
B1851483815837S05953156WA0154801603000000000000
B1851523815792S05953105WA0155601611000000000000
B1851563815788S05953018WA0156501618000000000000
B1852003815834S05952941WA0157501634000000000000
B1852043815910S05952952WA0158601637000000000000
B1852083815906S05953044WA0159701650000000000000
B1852123815857S05953066WA0160501655000000000000
B1852163815822S05953008WA0161001661000000000000
B1852203815862S05952931WA0162201674000000000000
B1852243815935S05952933WA0162501670000000000000
B1852283815965S05953014WA0163001677000000000000
B1852323815949S05953096WA0162701675000000000000
B1852363815923S05953178WA0162701687000000000000
B1852403815887S05953248WA0163901696000000000000
B1852443815832S05953240WA0165701711000000000000
B1852483815823S05953161WA0167101715000000000000
B1852523815887S05953110WA0167501719000000000000
B1852563815953S05953154WA0167901725000000000000
B1853003815961S05953243WA0167901728000000000000
B1853043815932S05953313WA0168801748000000000000
B1853083815878S05953291WA0170601763000000000000
B1853123815860S05953209WA0170801757000000000000
B1853163815865S05953106WA0169501747000000000000
B1853203815889S05952992WA0168101729000000000000
B1853243815927S05952870WA0167101718000000000000
B1853283815967S05952741WA0166301708000000000000
B1853323816013S05952612WA0165301703000000000000
B1853363816062S05952488WA0165201705000000000000
B1853403816121S05952368WA0164901698000000000000
B1853443816183S05952250WA0164401690000000000000
B1853483816251S05952134WA0163301676000000000000
B1853523816320S05952014WA0161701662000000000000
B1853563816395S05951900WA0160401649000000000000
B1854003816471S05951787WA0159401641000000000000
B1854043816547S05951675WA0158501623000000000000
B1854083816624S05951559WA0156901615000000000000
B1854123816699S05951444WA0155801602000000000000
B1854163816773S05951325WA0155001598000000000000
B1854203816845S05951210WA0154601595000000000000
B1854243816918S05951098WA0154401592000000000000
B1854283816989S05950991WA0154301592000000000000
B1854323817059S05950882WA0153901585000000000000
B1854363817131S05950774WA0152801569000000000000
B1854403817205S05950665WA0151701557000000000000
B1854443817279S05950556WA0150501545000000000000
B1854483817356S05950447WA0149301532000000000000
B1854523817434S05950339WA0148101521000000000000
B1854563817513S05950229WA0147201511000000000000
B1855003817592S05950120WA0146001499000000000000
B1855043817676S05950012WA0144901491000000000000
B1855083817767S05949920WA0144201482000000000000
B1855123817869S05949849WA0143501471000000000000
B1855163817979S05949793WA0142301463000000000000
B1855203818090S05949750WA0142201467000000000000
B1855243818206S05949720WA0142801473000000000000
B1855283818320S05949699WA0142501474000000000000
B1855323818428S05949712WA0144101500000000000000
B1855363818523S05949748WA0146901532000000000000
B1855403818609S05949773WA0150001559000000000000
B1855443818679S05949724WA0152801589000000000000
B1855483818675S05949635WA0155401611000000000000
B1855523818618S05949615WA0156601614000000000000
B1855563818573S05949673WA0156701622000000000000
B1856003818561S05949756WA0157801631000000000000
B1856043818609S05949834WA0158201641000000000000
B1856083818688S05949867WA0159401652000000000000
B1856123818762S05949821WA0160801670000000000000
B1856163818773S05949730WA0162301685000000000000
B1856203818720S05949687WA0164201706000000000000
B1856243818677S05949752WA0165701720000000000000
B1856283818723S05949838WA0167201738000000000000
B1856323818804S05949823WA0169001753000000000000
B1856363818831S05949735WA0169901759000000000000
B1856403818779S05949683WA0171401779000000000000
B1856443818738S05949745WA0173401801000000000000
B1856483818787S05949824WA0174801812000000000000
B1856523818866S05949799WA0175701822000000000000
B1856563818882S05949711WA0177001842000000000000
B1857003818831S05949669WA0178801858000000000000
B1857043818794S05949735WA0180601873000000000000
B1857083818842S05949815WA0181601882000000000000
B1857123818921S05949795WA0182901893000000000000
B1857163818977S05949721WA0183101887000000000000
B1857203819028S05949626WA0182401879000000000000
B1857243819087S05949525WA0180901859000000000000
B1857283819154S05949421WA0180501876000000000000
B1857323819216S05949325WA0182201888000000000000
B1857363819277S05949234WA0184301913000000000000
B1857403819337S05949143WA0185201908000000000000
B1857443819398S05949048WA0184001893000000000000
B1857483819466S05948952WA0183401898000000000000
B1857523819532S05948858WA0183901898000000000000
B1857563819598S05948762WA0183401888000000000000
B1858003819665S05948659WA0182201875000000000000
B1858043819730S05948552WA0181301870000000000000
B1858083819792S05948445WA0181101868000000000000
B1858123819852S05948337WA0180801863000000000000
B1858163819910S05948227WA0179601848000000000000
B1858203819970S05948120WA0178801840000000000000
B1858243820031S05948009WA0177901827000000000000
B1858283820094S05947901WA0176901821000000000000
B1858323820159S05947798WA0176201810000000000000
B1858363820228S05947693WA0175001794000000000000
B1858403820303S05947592WA0173001773000000000000
B1858443820385S05947490WA0171301761000000000000
B1858483820469S05947390WA0170001746000000000000
B1858523820551S05947286WA0168601735000000000000
B1858563820629S05947178WA0168401749000000000000
B1859003820692S05947081WA0170901788000000000000
B1859043820740S05946989WA0174401817000000000000
B1859083820775S05946895WA0176501823000000000000
B1859123820806S05946791WA0176501820000000000000
B1859163820842S05946687WA0176601822000000000000
B1859203820883S05946579WA0176401818000000000000
B1859243820927S05946467WA0175901813000000000000
B1859283820975S05946353WA0175701815000000000000
B1859323821026S05946245WA0176301817000000000000
B1859363821079S05946136WA0175701806000000000000
B1859403821139S05946032WA0175501811000000000000
B1859443821201S05945930WA0174901799000000000000
B1859483821266S05945832WA0174301796000000000000
B1859523821333S05945731WA0173501783000000000000
B1859563821398S05945626WA0172001763000000000000
B1900003821461S05945516WA0170601753000000000000
B1900043821535S05945419WA0170201755000000000000
B1900083821613S05945340WA0171001790000000000000
B1900123821685S05945276WA0173901802000000000000
B1900163821741S05945191WA0174201795000000000000
B1900203821781S05945093WA0173901792000000000000
B1900243821806S05944987WA0173201776000000000000
B1900283821817S05944870WA0171301756000000000000
B1900323821828S05944746WA0169201734000000000000
B1900363821842S05944615WA0167301717000000000000
B1900403821858S05944478WA0165601704000000000000
B1900443821877S05944342WA0165001696000000000000
B1900483821902S05944204WA0164201679000000000000
B1900523821933S05944069WA0162401667000000000000
B1900563821970S05943936WA0161801666000000000000
B1901003822010S05943805WA0161401662000000000000
B1901043822051S05943674WA0161101662000000000000
B1901083822093S05943545WA0161001650000000000000
B1901123822127S05943411WA0159801641000000000000
B1901163822152S05943276WA0159301659000000000000
B1901203822174S05943167WA0162601704000000000000
B1901243822204S05943078WA0165701718000000000000
B1901283822240S05942992WA0166201705000000000000
B1901323822289S05942903WA0164801692000000000000
B1901363822361S05942819WA0163601677000000000000
B1901403822449S05942749WA0162501671000000000000
B1901443822542S05942676WA0161601659000000000000
B1901483822638S05942600WA0160501656000000000000
B1901523822733S05942527WA0160701658000000000000
B1901563822824S05942450WA0160601652000000000000
B1902003822911S05942364WA0159801646000000000000
B1902043822998S05942280WA0159401647000000000000
B1902083823082S05942198WA0159801648000000000000
B1902123823164S05942114WA0159101636000000000000
B1902163823242S05942021WA0158501636000000000000
B1902203823319S05941928WA0157701622000000000000
B1902243823393S05941848WA0158601656000000000000
B1902283823449S05941759WA0158901646000000000000
B1902323823513S05941659WA0157501636000000000000
B1902363823584S05941562WA0156801622000000000000
B1902403823656S05941456WA0154901599000000000000
B1902443823727S05941349WA0153601592000000000000
B1902483823795S05941244WA0153201584000000000000
B1902523823848S05941132WA0152501580000000000000
B1902563823883S05941016WA0152301573000000000000
B1903003823923S05940902WA0151001554000000000000
B1903043823968S05940786WA0149301540000000000000
B1903083824017S05940668WA0147901524000000000000
B1903123824069S05940550WA0146301510000000000000
B1903163824124S05940433WA0145601507000000000000
B1903203824177S05940320WA0145501503000000000000
B1903243824226S05940204WA0144901493000000000000
B1903283824268S05940080WA0143401476000000000000
B1903323824311S05939956WA0142301470000000000000
B1903363824349S05939832WA0141701466000000000000
B1903403824365S05939709WA0141801470000000000000
B1903443824351S05939592WA0141901464000000000000
B1903483824320S05939481WA0140901448000000000000
B1903523824281S05939371WA0139501435000000000000
B1903563824233S05939265WA0138501424000000000000
B1904003824178S05939163WA0137501413000000000000
B1904043824120S05939065WA0136401402000000000000
B1904083824063S05938964WA0135601395000000000000
B1904123824001S05938871WA0135001393000000000000
B1904163823936S05938783WA0134801388000000000000
B1904203823869S05938698WA0134201385000000000000
B1904243823803S05938613WA0133901383000000000000
B1904283823739S05938526WA0133501374000000000000
B1904323823678S05938435WA0132601364000000000000
B1904363823611S05938346WA0131601352000000000000
B1904403823537S05938273WA0130501343000000000000
B1904443823466S05938217WA0131501382000000000000
B1904483823416S05938173WA0135501415000000000000
B1904523823361S05938177WA0137501425000000000000
B1904563823329S05938236WA0137801427000000000000
B1905003823370S05938303WA0138001424000000000000
B1905043823449S05938299WA0137601424000000000000
B1905083823511S05938243WA0137301420000000000000
B1905123823563S05938171WA0137201425000000000000
B1905163823580S05938080WA0137501425000000000000
B1905203823561S05937995WA0137601430000000000000
B1905243823530S05937924WA0138401439000000000000
B1905283823487S05937870WA0139101447000000000000
B1905323823428S05937864WA0139801451000000000000
B1905363823379S05937913WA0140101459000000000000
B1905403823379S05937995WA0141901483000000000000
B1905443823444S05938039WA0143401489000000000000
B1905483823497S05937976WA0144601503000000000000
B1905523823471S05937909WA0145901514000000000000
B1905563823420S05937933WA0146901525000000000000
B1906003823419S05938015WA0147801534000000000000
B1906043823485S05938061WA0148501542000000000000
B1906083823552S05938012WA0149601555000000000000
B1906123823556S05937929WA0150901568000000000000
B1906163823504S05937907WA0151901576000000000000
B1906203823470S05937970WA0153101592000000000000
B1906243823505S05938047WA0154201601000000000000
B1906283823585S05938045WA0154701610000000000000
B1906323823637S05937972WA0155801623000000000000
B1906363823617S05937904WA0157401638000000000000
B1906403823562S05937909WA0158001640000000000000
B1906443823546S05937985WA0158901655000000000000
B1906483823604S05938039WA0159901660000000000000
B1906523823676S05938000WA0160201663000000000000
B1906563823680S05937916WA0161201679000000000000
B1907003823627S05937900WA0162201686000000000000
B1907043823597S05937974WA0162201687000000000000
B1907083823624S05938060WA0163101700000000000000
B1907123823700S05938078WA0164501713000000000000
B1907163823749S05938007WA0165101717000000000000
B1907203823718S05937946WA0166001727000000000000
B1907243823665S05937970WA0166101720000000000000
B1907283823648S05938055WA0166001729000000000000
B1907323823656S05938143WA0166801733000000000000
B1907363823718S05938198WA0167901746000000000000
B1907403823787S05938165WA0168101735000000000000
B1907443823806S05938076WA0167001730000000000000
B1907483823783S05937989WA0166201721000000000000
B1907523823780S05937890WA0165901724000000000000
B1907563823808S05937795WA0166501741000000000000
B1908003823843S05937708WA0168001749000000000000
B1908043823879S05937627WA0169501765000000000000
B1908083823916S05937545WA0170001758000000000000
B1908123823955S05937463WA0171001781000000000000
B1908163823991S05937384WA0171601770000000000000
B1908203824035S05937294WA0169601746000000000000
B1908243824086S05937196WA0166701720000000000000
B1908283824134S05937093WA0165801715000000000000
B1908323824185S05936990WA0165301698000000000000
B1908363824243S05936886WA0163601677000000000000
B1908403824304S05936782WA0162301677000000000000
B1908443824364S05936680WA0161801671000000000000
B1908483824421S05936577WA0161201663000000000000
B1908523824479S05936475WA0160901661000000000000
B1908563824533S05936374WA0160501654000000000000
B1909003824579S05936265WA0159801652000000000000
B1909043824620S05936154WA0159201641000000000000
B1909083824659S05936043WA0158501634000000000000
B1909123824700S05935932WA0158101633000000000000
B1909163824739S05935827WA0157901634000000000000
B1909203824780S05935723WA0157801626000000000000
B1909243824823S05935616WA0156801613000000000000
B1909283824859S05935503WA0155401602000000000000
B1909323824891S05935387WA0154901599000000000000
B1909363824927S05935273WA0154001585000000000000
B1909403824978S05935162WA0153301582000000000000
B1909443825048S05935070WA0153601594000000000000
B1909483825142S05935042WA0154701605000000000000
B1909523825229S05935079WA0155101606000000000000
B1909563825291S05935159WA0155201609000000000000
B1910003825321S05935257WA0155701612000000000000
B1910043825312S05935357WA0156101619000000000000
B1910083825273S05935441WA0156501615000000000000
B1910123825229S05935521WA0154901595000000000000
B1910163825177S05935602WA0153701576000000000000
B1910203825119S05935682WA0152101565000000000000
B1910243825058S05935762WA0151001554000000000000
B1910283824991S05935832WA0150101547000000000000
B1910323824922S05935900WA0149201539000000000000
B1910363824853S05935970WA0148401525000000000000
B1910403824781S05936039WA0147001515000000000000
B1910443824707S05936101WA0146301510000000000000
B1910483824631S05936161WA0145301496000000000000
B1910523824559S05936230WA0144401484000000000000
B1910563824497S05936314WA0143201478000000000000
B1911003824445S05936408WA0142701468000000000000
B1911043824394S05936505WA0141601457000000000000
B1911083824349S05936607WA0140501444000000000000
B1911123824302S05936709WA0139201428000000000000
B1911163824258S05936817WA0137701410000000000000
B1911203824211S05936925WA0135901395000000000000
B1911243824167S05937032WA0135101387000000000000
B1911283824124S05937136WA0134301383000000000000
B1911323824079S05937233WA0134001380000000000000
B1911363824030S05937324WA0133801385000000000000
B1911403823985S05937417WA0134901403000000000000
B1911443823946S05937493WA0137701432000000000000
B1911483823923S05937574WA0139701447000000000000
B1911523823913S05937660WA0141101453000000000000
B1911563823927S05937751WA0140901464000000000000
B1912003823964S05937821WA0143601488000000000000
B1912043824030S05937825WA0144801489000000000000
B1912083824072S05937746WA0144301485000000000000
B1912123824053S05937652WA0144701508000000000000
B1912163824004S05937618WA0147601537000000000000
B1912203823956S05937656WA0149001533000000000000
B1912243823973S05937740WA0148801540000000000000
B1912283824040S05937765WA0150401558000000000000
B1912323824102S05937727WA0151701567000000015000
B1912363824113S05937644WA0152101575000000000000
B1912403824074S05937591WA0153001582000000000000
B1912443824017S05937612WA0153701594000000000000
B1912483823978S05937665WA0154201597000000000000
B1912523823983S05937744WA0155201604000000000000
B1912563824047S05937782WA0155801613000000000000
B1913003824116S05937749WA0156201612000000000000
B1913043824152S05937662WA0156401624000000000000
B1913083824150S05937573WA0157901640000000000000
B1913123824094S05937543WA0159701652000000000000
B1913163824057S05937604WA0159701648000000000000
B1913203824085S05937688WA0159601661000000000000
B1913243824157S05937714WA0160901676000000000000
B1913283824219S05937662WA0162401688000000000000
B1913323824222S05937571WA0163201689000000000000
B1913363824167S05937534WA0164301702000000000000
B1913403824131S05937592WA0165201711000000000000
B1913443824174S05937661WA0166001722000000000000
B1913483824241S05937617WA0167701745000000000000
B1913523824226S05937534WA0169301753000000000000
B1913563824170S05937535WA0170101759000000000000
B1914003824150S05937608WA0170301762000000000000
B1914043824195S05937677WA0171001771000000000000
B1914083824271S05937670WA0171801779000000000000
B1914123824300S05937580WA0172701794000000000000
B1914163824259S05937519WA0174101801000000000000
B1914203824208S05937557WA0175501814000000000000
B1914243824220S05937640WA0176001821000000000000
B1914283824289S05937670WA0177001827000000000000
B1914323824355S05937614WA0177401833000000000000
B1914363824367S05937522WA0178801848000000000000
B1914403824317S05937469WA0179701856000000000000
B1914443824255S05937492WA0179801851000000000000
B1914483824228S05937575WA0179401851000000000000
B1914523824215S05937674WA0178901838000000000000
B1914563824202S05937786WA0177501824000000000000
B1915003824187S05937908WA0176001812000000000000
B1915043824173S05938034WA0174801801000000000000
B1915083824157S05938159WA0173901788000000000000
B1915123824147S05938286WA0172101766000000000000
B1915163824135S05938418WA0170101745000000000000
B1915203824124S05938553WA0168201733000000000000
B1915243824118S05938692WA0167201714000000000000
B1915283824118S05938834WA0165701703000000000000
B1915323824121S05938975WA0164401688000000000000
B1915363824122S05939117WA0163001674000000000000
B1915403824122S05939259WA0162001670000000000000
B1915443824117S05939394WA0161301660000000000000
B1915483824108S05939527WA0160301648000000000000
B1915523824094S05939657WA0158801635000000000000
B1915563824079S05939784WA0158001629000000000000
B1916003824061S05939909WA0157201612000000000000
B1916043824048S05940037WA0155801601000000000000
B1916083824040S05940164WA0155101597000000000000
B1916123824033S05940287WA0154201585000000000000
B1916163824027S05940405WA0154501601000000000000
B1916203824020S05940518WA0155101602000000000000
B1916243824011S05940629WA0155401602000000000000
B1916283824003S05940743WA0155201602000000000000
B1916323823991S05940851WA0156401623000000000000
B1916363823988S05940954WA0158001639000000000000
B1916403824029S05941051WA0159401646000000000000
B1916443824099S05941129WA0159301638000000000000
B1916483824155S05941228WA0158801640000000000000
B1916523824185S05941345WA0158801636000000000000
B1916563824206S05941465WA0158501634000000000000
B1917003824221S05941587WA0158101625000000000000
B1917043824233S05941714WA0156501606000000000000
B1917083824241S05941847WA0154801589000000000000
B1917123824248S05941985WA0153601575000000000000
B1917163824254S05942124WA0152401565000000000000
B1917203824252S05942263WA0151301561000000000000
B1917243824247S05942392WA0152001582000000000000
B1917283824238S05942510WA0153201576000000000000
B1917323824235S05942635WA0152001554000000000000
B1917363824241S05942766WA0150501544000000000000
B1917403824246S05942900WA0149001532000000000000
B1917443824248S05943027WA0149901560000000000000
B1917483824245S05943137WA0151801572000000000000
B1917523824239S05943243WA0151401542000000000000
B1917563824237S05943363WA0148701519000000000000
B1918003824237S05943488WA0146501503000000000000
B1918043824237S05943611WA0145001486000000000000
B1918083824242S05943736WA0143601471000000000000
B1918123824250S05943863WA0142001457000000000000
B1918163824264S05943989WA0140801442000000000000
B1918203824284S05944116WA0139501434000000000000
B1918243824310S05944239WA0138801425000000000000
B1918283824336S05944364WA0137801416000000000000
B1918323824363S05944487WA0137201407000000000000
B1918363824390S05944610WA0136001395000000000000
B1918403824415S05944733WA0135201388000000000000
B1918443824449S05944854WA0134601384000000000000
B1918483824477S05944977WA0133901371000000000000
B1918523824507S05945101WA0133201369000000000000
B1918563824534S05945224WA0132801369000000000000
B1919003824553S05945345WA0133101369000000000000
B1919043824562S05945468WA0132601359000000000000
B1919083824562S05945590WA0131501347000000000000
B1919123824555S05945712WA0130201333000000000000
B1919163824542S05945834WA0128901319000000000000
B1919203824524S05945959WA0127201300000000000000
B1919243824512S05946082WA0126601309000000000000
B1919283824503S05946198WA0127001305000000000000
B1919323824507S05946318WA0126501301000000000000
B1919363824505S05946436WA0126301296000000000000
B1919403824492S05946540WA0127001332000000000000
B1919443824471S05946609WA0131901373000000000000
B1919483824423S05946609WA0133501377000000000000
B1919523824373S05946580WA0133201372000000000000
B1919563824317S05946573WA0132701370000000000000
B1920003824256S05946579WA0132301367000000000000
B1920043824199S05946613WA0132501363000000000000
B1920083824150S05946678WA0131001337000000000000
B1920123824105S05946768WA0129501338000000000000
B1920163824063S05946851WA0130701361000000000000
B1920203824020S05946927WA0132001360000000000000
B1920243823974S05947009WA0130401328000000000000
B1920283823930S05947113WA0127401302000000000000
B1920323823914S05947238WA0126101295000000000000
B1920363823913S05947366WA0125701297000000000000
B1920403823907S05947490WA0125001276000000000000
B1920443823884S05947611WA0123901270000000000000
B1920483823856S05947726WA0123501267000000000000
B1920523823817S05947824WA0123301279000000000000
B1920563823770S05947899WA0124501282000000000000
B1921003823721S05947975WA0123401263000000000000
B1921043823669S05948057WA0121701248000000000000
B1921083823613S05948136WA0120601237000000000000
B1921123823553S05948214WA0119901224000000000000
B1921163823492S05948295WA0118801215000000000000
B1921203823435S05948377WA0118001214000000000000
B1921243823376S05948458WA0117301194000000000000
B1921283823310S05948532WA0115401181000000000000
B1921323823238S05948591WA0114201168000000000000
B1921363823164S05948645WA0113101157000000000000
B1921403823089S05948694WA0111801143000000000000
B1921443823013S05948744WA0110701132000000000000
B1921483822938S05948790WA0110101128000000000000
B1921523822864S05948832WA0109601120000000000000
B1921563822792S05948883WA0108701115000000000000
B1922003822725S05948935WA0108801123000000000000
B1922043822661S05948988WA0108801106000000000000
B1922083822603S05949065WA0106801086000000000000
B1922123822553S05949150WA0106301093000000000000
B1922163822503S05949231WA0106301089000000000000
B1922203822453S05949313WA0105601071000000000000
B1922243822413S05949416WA0103301042000000000000
B1922283822383S05949533WA0100701019000000000000
B1922323822361S05949656WA0098901005000000000000
B1922363822343S05949781WA0097200986000000000000
B1922403822335S05949907WA0096000979000000000000
B1922443822336S05950032WA0095500975000000000000
B1922483822339S05950157WA0094900968000000000000
B1922523822347S05950280WA0094200960000000000000
B1922563822371S05950404WA0093400947000000000000
B1923003822406S05950528WA0092100937000000000000
B1923043822445S05950652WA0091600936000000000000
B1923083822470S05950774WA0091700935000000000000
B1923123822454S05950889WA0092200954000000000000
B1923163822430S05950987WA0093400953000000000000
B1923203822402S05951089WA0092900945000000000000
B1923243822380S05951199WA0091700935000000000000
B1923283822358S05951314WA0091000925000000000000
B1923323822332S05951424WA0090800928000000000000
B1923363822304S05951532WA0090800927000000000000
B1923403822272S05951637WA0091000945000000000000
B1923443822239S05951721WA0093600968000000000000
B1923483822205S05951792WA0095100975000000000000
B1923523822166S05951865WA0094600956000000000000
B1923563822124S05951955WA0092600941000000000000
B1924003822083S05952044WA0091800942000000000000
B1924043822042S05952135WA0091500931000000000000
B1924083822012S05952239WA0090100917000000000000
B1924123822003S05952356WA0089000911000000000000
B1924163821988S05952471WA0088900917000000000000
B1924203821960S05952576WA0090000916000000000000
B1924243821928S05952676WA0090000920000000000000
B1924283821885S05952767WA0089900913000000000000
B1924323821829S05952844WA0090000925000000000000
B1924363821772S05952910WA0090600924000000000000
B1924403821708S05952965WA0090200910000000000000
B1924443821635S05953006WA0088700894000000000000
B1924483821561S05953049WA0087400882000000000000
B1924523821486S05953091WA0086300872000000000000
B1924563821408S05953131WA0085100860000000000000
B1925003821327S05953166WA0084200847000000000000
B1925043821244S05953193WA0083200842000000000000
B1925083821164S05953221WA0082900836000000000000
B1925123821092S05953269WA0082400838000000000000
B1925163821023S05953313WA0082400833000000000000
B1925203820974S05953392WA0082000839000000000000
B1925243820958S05953489WA0083000863000000000000
B1925283820965S05953577WA0085300880000000000000
B1925323821037S05953634WA0087300900000000000000
B1925363821121S05953616WA0088600909000000000000
B1925403821140S05953537WA0089500916000000000000
B1925443821097S05953495WA0089200908000000000000
B1925483821048S05953531WA0089000917000000000000
B1925523821013S05953590WA0089700927000000000000
B1925563821018S05953673WA0091400953000000000000
B1926003821082S05953724WA0094100976000000000000
B1926043821161S05953698WA0095500987000000000000
B1926083821186S05953617WA0096400998000000000000
B1926123821151S05953572WA0097401007000000000000
B1926163821106S05953595WA0098001015000000000000
B1926203821093S05953665WA0099201025000000000000
B1926243821127S05953741WA0101001039000000000000
B1926283821209S05953764WA0101601048000000000000
B1926323821269S05953700WA0103501071000000000000
B1926363821255S05953634WA0104701083000000000000
B1926403821213S05953652WA0105801089000000000000
B1926443821209S05953729WA0106301104000000000000
B1926483821253S05953803WA0107101102000000000000
B1926523821335S05953814WA0108101120000000000000
B1926563821396S05953759WA0108901115000000000000
B1927003821396S05953673WA0108001110000000000000
B1927043821349S05953641WA0108301118000000000000
B1927083821304S05953633WA0110501139000000000000
B1927123821281S05953687WA0112401157000000000000
B1927163821327S05953762WA0113201156000000000000
B1927203821420S05953763WA0112901161000000000000
B1927243821470S05953682WA0113701175000000000000
B1927283821455S05953609WA0115101191000000000000
B1927323821411S05953595WA0116301205000000000000
B1927363821377S05953633WA0118001218000000000000
B1927403821403S05953717WA0118501221000000000000
B1927443821491S05953738WA0119601240000000000000
B1927483821555S05953676WA0120501248000000000000
B1927523821559S05953587WA0120801246000000000000
B1927563821513S05953554WA0121701250000000000000
B1928003821474S05953590WA0123601272000000000000
B1928043821456S05953660WA0124201276000000000000
B1928083821482S05953752WA0124301288000000000000
B1928123821529S05953828WA0125201290000000000000
B1928163821612S05953841WA0125601299000000000000
B1928203821690S05953816WA0126301299000000000000
B1928243821729S05953739WA0126701303000000000000
B1928283821730S05953655WA0126001295000000000000
B1928323821712S05953576WA0125301288000000000000
B1928363821660S05953552WA0125301295000000000000
B1928403821615S05953580WA0126701315000000000000
B1928443821582S05953634WA0127601311000000000000
B1928483821569S05953719WA0127801320000000000000
B1928523821567S05953806WA0128301317000000000000
B1928563821600S05953901WA0128501331000000000000
B1929003821687S05953925WA0129701345000000000000
B1929043821752S05953863WA0130801357000000000000
B1929083821756S05953778WA0131601357000000000000
B1929123821713S05953739WA0131801356000000000000
B1929163821659S05953752WA0132701373000000000000
B1929203821609S05953788WA0133201366000000000000
B1929243821559S05953830WA0133301377000000000000
B1929283821512S05953876WA0134301382000000000000
B1929323821483S05953949WA0134801392000000000000
B1929363821486S05954028WA0136001404000000000000
B1929403821534S05954093WA0136001389000000000000
B1929443821616S05954096WA0134901383000000000000
B1929483821691S05954045WA0134101375000000000000
B1929523821746S05953970WA0134501401000000000000
B1929563821785S05953889WA0136301412000000000000
B1930003821781S05953798WA0137001411000000000000
B1930043821737S05953741WA0136701413000000000000
B1930083821684S05953749WA0137001416000000000000
B1930123821643S05953807WA0136301398000000000000
B1930163821617S05953895WA0135001391000000000000
B1930203821591S05953989WA0134501388000000000000
B1930243821563S05954084WA0134101380000000000000
B1930283821533S05954184WA0133001367000000000000
B1930323821502S05954292WA0130801335000000000000
B1930363821466S05954406WA0128001314000000000000
B1930403821431S05954522WA0126701299000000000000
B1930443821407S05954644WA0125601290000000000000
B1930483821403S05954770WA0125401286000000000000
B1930523821414S05954896WA0124801282000000000000
B1930563821439S05955019WA0124401276000000000000
B1931003821463S05955142WA0123701268000000000000
B1931043821483S05955264WA0122801255000000000000
B1931083821500S05955388WA0121601244000000000000
B1931123821522S05955514WA0120001230000000000000
B1931163821546S05955639WA0119401228000000000000
B1931203821572S05955761WA0119301224000000000000
B1931243821603S05955878WA0119401231000000000000
B1931283821633S05955988WA0119501237000000000000
B1931323821659S05956083WA0121101253000000000000
B1931363821680S05956178WA0121001244000000000000
B1931403821680S05956278WA0120001231000000000000
B1931443821659S05956378WA0119201235000000000000
B1931483821628S05956462WA0121101268000000000000
B1931523821598S05956529WA0124001289000000000000
B1931563821565S05956590WA0125801302000000000000
B1932003821513S05956610WA0127001313000000000000
B1932043821482S05956546WA0127201317000000000000
B1932083821525S05956475WA0127201320000000000000
B1932123821616S05956489WA0126201310000000000000
B1932163821686S05956534WA0126501324000000000000
B1932203821750S05956589WA0127801334000000000000
B1932243821780S05956666WA0128801335000000000000
B1932283821773S05956746WA0128801336000000000000
B1932323821758S05956828WA0128301316000000000000
B1932363821728S05956919WA0126401300000000000000
B1932403821689S05957012WA0124701282000000000000
B1932443821654S05957114WA0123301272000000000000
B1932483821626S05957222WA0123001266000000000000
B1932523821602S05957335WA0122501258000000000000
B1932563821580S05957451WA0121601249000000000000
B1933003821556S05957565WA0121001243000000000000
B1933043821530S05957678WA0120501242000000000000
B1933083821507S05957793WA0120301234000000000000
B1933123821485S05957909WA0119501222000000000000
B1933163821464S05958029WA0118501212000000000000
B1933203821442S05958149WA0117501204000000000000
B1933243821418S05958270WA0116801197000000000000
B1933283821398S05958391WA0116101189000000000000
B1933323821381S05958513WA0115301178000000000000
B1933363821365S05958639WA0114101169000000000000
B1933403821347S05958764WA0113601168000000000000
B1933443821329S05958877WA0115801203000000000000
B1933483821321S05958975WA0118801232000000000000
B1933523821336S05959069WA0120501247000000000000
B1933563821357S05959162WA0121601252000000000000
B1934003821412S05959233WA0122501264000000000000
B1934043821490S05959250WA0123201264000000000000
B1934083821565S05959210WA0122601249000000000000
B1934123821596S05959111WA0121701250000000000000
B1934163821578S05959019WA0121401245000000000000
B1934203821529S05958950WA0121401253000000000000
B1934243821478S05958895WA0122901272000000000000
B1934283821421S05958874WA0124201284000000000000
B1934323821373S05958915WA0125801302000000000000
B1934363821385S05958999WA0126701310000000000000
B1934403821452S05959045WA0127001314000000000000
B1934443821524S05959003WA0127401316000000000000
B1934483821531S05958920WA0128101328000000000000
B1934523821507S05958852WA0128901335000000000000
B1934563821456S05958821WA0129901344000000000000
B1935003821404S05958822WA0130501343000000000000
B1935043821378S05958890WA0131001352000000000000
B1935083821404S05958972WA0131501358000000000000
B1935123821474S05959014WA0131801358000000000000
B1935163821550S05958980WA0132001360000000000000
B1935203821582S05958898WA0132601375000000000000
B1935243821577S05958820WA0133601377000000000000
B1935283821526S05958787WA0134001382000000000000
B1935323821472S05958803WA0134101377000000000000
B1935363821430S05958869WA0133401365000000000000
B1935403821394S05958954WA0132201353000000000000
B1935443821353S05959043WA0130801334000000000000
B1935483821310S05959140WA0129301330000000000000
B1935523821268S05959229WA0129301328000000000000
B1935563821223S05959314WA0129001329000000000000
B1936003821177S05959393WA0129001321000000000000
B1936043821128S05959469WA0128701325000000000000
B1936083821078S05959539WA0129101335000000000000
B1936123821031S05959601WA0130301343000000000000
B1936163820983S05959666WA0130501344000000000000
B1936203820935S05959731WA0130201332000000000000
B1936243820885S05959809WA0128801314000000000000
B1936283820837S05959895WA0126701295000000000000
B1936323820793S05959989WA0125701289000000000000
B1936363820753S06000080WA0125501292000000000000
B1936403820712S06000172WA0124901276000000000000
B1936443820673S06000267WA0123801261000000000000
B1936483820634S06000372WA0122101248000000000000
B1936523820598S06000480WA0121601249000000000000
B1936563820563S06000584WA0122501263000000000000
B1937003820525S06000685WA0122401257000000000000
B1937043820485S06000783WA0122501262000000000000
B1937083820443S06000874WA0123501270000000000000
B1937123820398S06000964WA0123001254000000000000
B1937163820348S06001057WA0121501239000000000000
B1937203820299S06001152WA0120201228000000000000
B1937243820246S06001247WA0119101219000000000000
B1937283820191S06001341WA0117901202000000000000
B1937323820134S06001435WA0116501190000000000000
B1937363820075S06001530WA0115501180000000000000
B1937403820016S06001625WA0114801176000000000000
B1937443819955S06001714WA0114901192000000000000
B1937483819903S06001784WA0117801236000000000000
B1937523819857S06001837WA0121001249000000000000
B1937563819819S06001900WA0121601241000000000000
B1938003819800S06001991WA0120401224000000000000
B1938043819795S06002098WA0118801210000000000000
B1938083819795S06002215WA0117301193000000000000
B1938123819793S06002343WA0115701182000000000000
B1938163819791S06002470WA0115401189000000000000
B1938203819787S06002592WA0116201194000000000000
B1938243819783S06002713WA0115901179000000000000
B1938283819776S06002839WA0114701170000000000000
B1938323819770S06002971WA0113501161000000000000
B1938363819765S06003103WA0113201169000000000000
B1938403819761S06003228WA0114601181000000000000
B1938443819756S06003353WA0113801160000000000000
B1938483819760S06003483WA0112201144000000000000
B1938523819773S06003616WA0111001135000000000000
B1938563819796S06003744WA0110601135000000000000
B1939003819825S06003869WA0110501130000000000000
B1939043819854S06003991WA0110001122000000000000
B1939083819882S06004116WA0108801106000000000000
B1939123819916S06004242WA0107101088000000000000
B1939163819957S06004368WA0105601074000000000000
B1939203820001S06004492WA0104701068000000000000
B1939243820044S06004614WA0104201065000000000000
B1939283820088S06004731WA0103901063000000000000
B1939323820133S06004845WA0103701058000000000000
B1939363820182S06004956WA0103201058000000000000
B1939403820231S06005064WA0103201054000000000000
B1939443820285S06005172WA0102401044000000000000
B1939483820338S06005281WA0101501037000000000000
B1939523820382S06005395WA0101001031000000000000
B1939563820421S06005512WA0100201019000000000000
B1940003820467S06005629WA0098601005000000000000
B1940043820516S06005748WA0097600994000000000000
B1940083820566S06005866WA0097401001000000000000
B1940123820618S06005979WA0097701004000000000000
B1940163820672S06006083WA0098901029000000000000
B1940203820725S06006177WA0100901043000000000000
B1940243820768S06006266WA0102601065000000000000
B1940283820794S06006355WA0104501079000000000000
B1940323820777S06006429WA0106301095000000000000
B1940363820724S06006433WA0107301100000000000000
B1940403820702S06006356WA0107501102000000000000
B1940443820753S06006291WA0108001112000000000000
B1940483820820S06006330WA0109001117000000000000
B1940523820848S06006409WA0109401119000000000000
B1940563820835S06006486WA0109901125000000000000
B1941003820781S06006509WA0109901123000000000000
B1941043820746S06006446WA0110301125000000000000
B1941083820779S06006357WA0110001119000000000000
B1941123820815S06006275WA0110301128000000000000
B1941163820879S06006222WA0111301139000000000000
B1941203820950S06006255WA0111801138000000000000
B1941243820985S06006342WA0111601141000000000000
B1941283820980S06006429WA0112201152000000000000
B1941323820949S06006504WA0112401149000000000000
B1941363820928S06006594WA0111801148000000000000
B1941403820920S06006686WA0113001170000000000000
B1941443820898S06006754WA0114801190000000000000
B1941483820854S06006785WA0116201198000000000000
B1941523820815S06006743WA0117101202000000000000
B1941563820833S06006661WA0117001200000000000000
B1942003820905S06006629WA0116301191000000000000
B1942043820987S06006639WA0115501185000000000000
B1942083821070S06006652WA0115501193000000000000
B1942123821153S06006664WA0116601207000000000000
B1942163821226S06006698WA0118001217000000000000
B1942203821279S06006760WA0118001205000000000000
B1942243821318S06006845WA0116601186000000000000
B1942283821346S06006942WA0114701170000000000000
B1942323821375S06007046WA0113001151000000000000
B1942363821411S06007153WA0111301137000000000000
B1942403821451S06007259WA0109901127000000000000
B1942443821492S06007366WA0109001117000000000000
B1942483821539S06007469WA0108501110000000000000
B1942523821586S06007573WA0108001097000000000000
B1942563821634S06007679WA0106901087000000000000
B1943003821681S06007789WA0105801074000000000000
B1943043821724S06007899WA0104801060000000000000
B1943083821768S06008013WA0103701054000000000000
B1943123821811S06008129WA0102701045000000000000
B1943163821855S06008244WA0101901038000000000000
B1943203821899S06008355WA0101601035000000000000
B1943243821944S06008455WA0102101049000000000000
B1943283821989S06008550WA0102001035000000000000
B1943323822028S06008650WA0101201032000000000000
B1943363822042S06008754WA0100901030000000000000
B1943403822038S06008861WA0100001009000000000000
B1943443822018S06008966WA0098300991000000000000
B1943483821994S06009070WA0096700978000000000000
B1943523821963S06009172WA0095500964000000000000
B1943563821932S06009272WA0094100948000000000000
B1944003821901S06009376WA0092100929000000000000
B1944043821868S06009484WA0090600918000000000000
B1944083821840S06009592WA0089600909000000000000
B1944123821816S06009698WA0089600921000000000000
B1944163821795S06009792WA0090300916000000000000
B1944203821773S06009887WA0089600902000000000000
B1944243821751S06009983WA0088400894000000000000
B1944283821728S06010082WA0087400885000000000000
B1944323821703S06010181WA0086700880000000000000
B1944363821687S06010285WA0086400876000000000000
B1944403821677S06010381WA0087300903000000000000
B1944443821669S06010463WA0089500915000000000000
B1944483821659S06010538WA0090300922000000000000
B1944523821647S06010610WA0090800926000000000000
B1944563821635S06010680WA0090800924000000000000
B1945003821602S06010729WA0090600927000000000000
B1945043821554S06010746WA0090600928000000000000
B1945083821507S06010720WA0091100933000000000000
B1945123821490S06010645WA0091200925000000000000
B1945163821500S06010556WA0090400923000000000000
B1945203821569S06010500WA0090700926000000000000
B1945243821650S06010483WA0091100928000000000000
B1945283821712S06010550WA0090800922000000000000
B1945323821723S06010643WA0089800915000000000000
B1945363821708S06010725WA0090000920000000000000
B1945403821682S06010799WA0090400933000000000000
B1945443821656S06010864WA0091500935000000000000
B1945483821625S06010925WA0091500933000000000000
B1945523821593S06010987WA0091500939000000000000
B1945563821559S06011046WA0091600931000000000000
B1946003821517S06011106WA0090400917000000000000
B1946043821473S06011174WA0089100906000000000000
B1946083821435S06011247WA0089300920000000000000
B1946123821405S06011325WA0089800915000000000000
B1946163821377S06011409WA0089100904000000000000
B1946203821349S06011499WA0088200894000000000000
B1946243821320S06011591WA0087000884000000000000
B1946283821292S06011685WA0086300877000000000000
B1946323821262S06011780WA0086100865000000000000
B1946363821216S06011865WA0084600851000000000000
B1946403821156S06011939WA0083800847000000000000
B1946443821093S06012004WA0084000847000000000000
B1946483821031S06012069WA0083100837000000000000
B1946523820967S06012133WA0082700830000000000000
B1946563820910S06012203WA0082300838000000000000
B1947003820870S06012279WA0083500874000000000000
B1947043820854S06012345WA0087100898000000000000
B1947083820905S06012402WA0088700903000000000000
B1947123820979S06012370WA0089100911000000000000
B1947163820984S06012281WA0090700928000000000000
B1947203820936S06012242WA0090900926000000000000
B1947243820883S06012264WA0090900933000000000000
B1947283820848S06012319WA0091600936000000000000
B1947323820852S06012401WA0092100949000000000000
B1947363820875S06012478WA0092900956000000000000
B1947403820949S06012506WA0094100968000000000000
B1947443821010S06012452WA0094400981000000000000
B1947483821005S06012374WA0094800974000000000000
B1947523820957S06012348WA0094300974000000000000
B1947563820909S06012378WA0094700975000000000000
B1948003820867S06012426WA0095100985000000000000
B1948043820880S06012502WA0096200997000000000000
B1948083820952S06012522WA0097401005000000000000
B1948123821001S06012453WA0097501003000000000000
B1948163820976S06012383WA0097401006000000000000
B1948203820924S06012365WA0097501004000000000000
B1948243820876S06012397WA0098301020000000000000
B1948283820884S06012471WA0099401028000000000000
B1948323820956S06012505WA0099601025000000000000
B1948363821017S06012436WA0099801034000000000000
B1948403821002S06012357WA0100801046000000000000
B1948443820953S06012361WA0101901056000000000000
B1948483820961S06012439WA0103001065000000000000
B1948523821031S06012479WA0103701068000000000000
B1948563821108S06012439WA0104301075000000000000
B1949003821125S06012353WA0105101083000000000000
B1949043821084S06012303WA0106001093000000000000
B1949083821044S06012342WA0106801097000000000000
B1949123821067S06012423WA0107201104000000000000
B1949163821140S06012446WA0108501117000000000000
B1949203821204S06012387WA0108501115000000000000
B1949243821209S06012296WA0108401122000000000000
B1949283821164S06012238WA0109701135000000000000
B1949323821122S06012267WA0111201143000000000000
B1949363821136S06012341WA0111601152000000000000
B1949403821209S06012367WA0112201152000000000000
B1949443821265S06012301WA0112601159000000000000
B1949483821253S06012219WA0113201173000000000000
B1949523821205S06012186WA0114501179000000000000
B1949563821166S06012222WA0115201185000000000000
B1950003821180S06012297WA0115501194000000000000
B1950043821248S06012337WA0116301196000000000000
B1950083821326S06012303WA0116401203000000000000
B1950123821351S06012216WA0117101212000000000000
B1950163821308S06012162WA0118001219000000000000
B1950203821264S06012197WA0118701227000000000000
B1950243821282S06012276WA0119201233000000000000
B1950283821353S06012315WA0120101244000000000000
B1950323821422S06012270WA0120801243000000000000
B1950363821431S06012176WA0120701248000000000000
B1950403821382S06012134WA0121601259000000000000
B1950443821330S06012163WA0121801260000000000000
B1950483821340S06012241WA0123301280000000000000
B1950523821398S06012297WA0123901279000000000000
B1950563821474S06012266WA0124401284000000000000
B1951003821503S06012179WA0124501291000000000000
B1951043821460S06012121WA0125201296000000000000
B1951083821409S06012155WA0125701298000000000000
B1951123821412S06012236WA0125701295000000000000
B1951163821473S06012302WA0126401307000000000000
B1951203821554S06012306WA0127201314000000000000
B1951243821609S06012236WA0128001323000000000000
B1951283821595S06012154WA0128801332000000000000
B1951323821543S06012131WA0129301332000000000000
B1951363821495S06012179WA0129201332000000000000
B1951403821465S06012261WA0128501321000000000000
B1951443821442S06012353WA0127201298000000000000
B1951483821424S06012456WA0125301278000000000000
B1951523821409S06012566WA0123301255000000000000
B1951563821399S06012683WA0121001229000000000000
B1952003821388S06012804WA0118701207000000000000
B1952043821374S06012933WA0117301197000000000000
B1952083821364S06013059WA0116501190000000000000
B1952123821355S06013185WA0115801176000000000000
B1952163821348S06013312WA0114301159000000000000
