ACAM3FF
HFDTE150125
HFFXA050
HFPLTPILOT:Ole Refsgaard           
HFGTYGLIDERTYPE:Nimbus 4T   
HFGIDGLIDERID:OY-LIX 4T   
HFDTM100GPSDATUM:
HFRFWFIRMWAREVERSION:F2.6
HFRHWHARDWAREVERSION:300 Series Version 2
HFFTYFRTYPE:CAMBRIDGE AERO INSTRUMENTS, 302+
HFGPS:GARMIN,LVS-25,12,18000
HFPRSPRESSALTSENSOR:INTERSEMA, MS5534-AP, 20000
I033638FXA3941ENL4247REX
LCAMSBVER:5FWVER:F26300
C230423093639230423000103
C0000000N00000000WTAKEOFF     
C5600850N00859833E0001ArnborgR
C5555633N00940883E0761NimKrk  
C5637383N00946250E0152FyrkatBr
C5558083N00944933E0170Oestbirk
C5600633N00900867E0851ArnborgF
C0000000N00000000WLANDING     
B1534123802116S06008110WA0024600181000056000000
B1534143802116S06008110WA0024600181000056000000
B1534163802116S06008110WA0024600181000056000000
B1534183802116S06008110WA0024700181000056000000
B1534203802116S06008110WA0024600181000056000000
B1534223802116S06008110WA0024700181000052000000
B1534243802116S06008110WA0024700181000048000000
B1534263802116S06008110WA0024700181000048000000
B1534283802116S06008110WA0024700181000048000000
B1534303802116S06008110WA0024600181000048000000
B1534323802116S06008110WA0024600181000048000000
B1534343802116S06008110WA0024600181000048000000
B1534363802116S06008110WA0024600181000048000000
B1534383802115S06008110WA0024700181000108000000
B1534403802111S06008110WA0024700181000200000000
B1534413802107S06008110WA0024600181000316000000
B1534453802089S06008112WA0024700181000784000000
B1534493802057S06008116WA0024700182000996000000
B1534533802016S06008120WA0024800182000996000000
B1534573801964S06008124WA0025000184000760000000
B1535013801903S06008128WA0025100188000580000000
B1535053801840S06008133WA0025700202000380000000
B1535093801782S06008137WA0027500222000276000000
B1535133801726S06008142WA0029300239000188000000
B1535173801670S06008146WA0030300252000132000000
B1535213801610S06008149WA0031400261000104000000
B1535253801549S06008149WA0032400276000088000000
B1535293801488S06008145WA0033800290000080000000
B1535333801428S06008125WA0035600309000080000000
B1535373801370S06008093WA0037100325000072000000
B1535413801314S06008055WA0038300339000072000000
B1535453801253S06008017WA0038700344000072000000
B1535493801193S06007984WA0039800357000068000000
B1535533801133S06007950WA0041200371000068000000
B1535573801071S06007920WA0042300383000068000000
B1536013801008S06007894WA0043000390000072000000
B1536053800943S06007867WA0043700398000076000000
B1536093800877S06007842WA0044000402000072000000
B1536133800812S06007828WA0045200416000076000000
B1536173800748S06007830WA0046500431000068000000
B1536213800689S06007846WA0047700442000068000000
B1536253800635S06007874WA0048200447000076000000
B1536293800587S06007915WA0048700454000076000000
B1536333800547S06007965WA0049300460000080000000
B1536373800512S06008020WA0050000471000080000000
B1536413800487S06008080WA0051000482000072000000
B1536453800469S06008142WA0052200492000064000000
B1536493800457S06008211WA0052800499000068000000
B1536533800452S06008279WA0053800510000064000000
B1536573800452S06008346WA0054800519000064000000
B1537013800460S06008415WA0055700528000064000000
B1537053800473S06008485WA0056200535000064000000
B1537093800490S06008554WA0056900544000064000000
B1537133800510S06008622WA0057700551000064000000
B1537173800533S06008687WA0058500559000072000000
B1537213800553S06008751WA0059000561000076000000
B1537253800582S06008812WA0059500569000076000000
B1537293800609S06008874WA0060700580000072000000
B1537333800635S06008938WA0061300586000072000000
B1537373800661S06009004WA0061800595000072000000
B1537413800690S06009065WA0063000611000068000000
B1537453800713S06009130WA0064500623000064000000
B1537493800734S06009200WA0065400633000072000000
B1537533800757S06009272WA0066900652000072000000
B1537573800778S06009343WA0068700671000068000000
B1538013800798S06009415WA0070600690000068000000
B1538053800815S06009486WA0072100704000064000000
B1538093800826S06009558WA0073700723000064000000
B1538133800837S06009631WA0074800736000064000000
B1538173800848S06009702WA0076000751000064000000
B1538213800861S06009771WA0077200760000076000000
B1538253800880S06009833WA0077700760000076000000
B1538293800899S06009897WA0077200755000068000000
B1538333800921S06009962WA0077200752000064000000
B1538373800947S06010026WA0077400759000072000000
B1538413800985S06010078WA0077500757000064000000
B1538453801020S06010131WA0077000750000064000000
B1538493801051S06010190WA0076400745000064000000
B1538533801076S06010251WA0076000744000072000000
B1538573801099S06010311WA0076100740000064000000
B1539013801116S06010369WA0075100726000080000000
B1539053801118S06010433WA0073900717000084000000
B1539093801107S06010491WA0073600714000088000000
B1539133801098S06010547WA0073000710000076000000
B1539173801102S06010607WA0072400701000080000000
B1539213801118S06010672WA0072200704000072000000
B1539253801138S06010730WA0073300717000072000000
B1539293801190S06010767WA0074200726000068000000
B1539333801258S06010738WA0074900735000072000000
B1539373801283S06010654WA0076100749000068015000
B1539413801249S06010591WA0077100751000076030000
B1539453801207S06010610WA0077500756000072030000
B1539493801206S06010667WA0078100759000068030000
B1539533801255S06010697WA0079100765000072030000
B1539573801315S06010645WA0080100774000064045000
B1540013801309S06010558WA0081100784000052045000
B1540053801257S06010533WA0081400783000056060000
B1540093801246S06010590WA0081800799000060045000
B1540133801313S06010589WA0083400819000060045000
B1540173801337S06010502WA0084900833000060060000
B1540213801296S06010460WA0085800847000056060000
B1540253801275S06010504WA0086600853000064045000
B1540293801320S06010545WA0087100863000072045000
B1540333801387S06010496WA0088400880000068045000
B1540373801383S06010407WA0090100896000064060000
B1540413801335S06010399WA0090800900000068045000
B1540453801348S06010456WA0091300911000072045000
B1540493801420S06010441WA0092600927000068045000
B1540533801450S06010348WA0093900943000060045000
B1540573801413S06010287WA0095200952000056045000
B1541013801368S06010304WA0095700955000056045000
B1541053801358S06010359WA0096800970000060030000
B1541093801404S06010399WA0098000982000060030000
B1541133801465S06010351WA0098900992000068030000
B1541173801458S06010264WA0099901001000064045000
B1541213801411S06010262WA0100401007000096045000
B1541253801435S06010314WA0101801025000080045000
B1541293801496S06010279WA0103101038000072045000
B1541333801500S06010194WA0104501054000064045000
B1541373801456S06010165WA0105701060000064045000
B1541413801437S06010208WA0106401070000060045000
B1541453801484S06010233WA0107401077000056045000
B1541493801534S06010170WA0108101088000052060000
B1541533801537S06010079WA0109301095000048060000
B1541573801501S06010014WA0109901101000056060000
B1542013801457S06010030WA0110501110000064060000
B1542053801485S06010074WA0111601127000060045000
B1542093801543S06010034WA0112501132000064045000
B1542133801536S06009948WA0113001137000072060000
B1542173801489S06009948WA0113601143000064045000
B1542213801509S06009993WA0114601154000060045000
B1542253801571S06009962WA0115101160000068045000
B1542293801574S06009871WA0116201175000060060000
B1542333801524S06009849WA0117401181000060060000
B1542373801517S06009897WA0118101192000060045000
B1542413801571S06009915WA0118801199000064045000
B1542453801626S06009853WA0119401205000064045000
B1542493801613S06009762WA0119801209000068060000
B1542533801558S06009749WA0119901209000076045000
B1542573801557S06009804WA0120701221000072045000
B1543013801615S06009814WA0121601229000080045000
B1543053801665S06009745WA0122101234000080060000
B1543093801649S06009658WA0122801244000076060000
B1543133801600S06009642WA0123501248000072060000
B1543173801592S06009692WA0123901250000076045000
B1543213801645S06009715WA0124001253000084045000
B1543253801704S06009657WA0124201257000072060000
B1543293801703S06009560WA0124601260000080060000
B1543333801648S06009533WA0124801259000092060000
B1543373801632S06009590WA0124801259000084045000
B1543413801678S06009637WA0125101264000072045000
B1543453801748S06009603WA0125101271000068045000
B1543493801773S06009505WA0126201279000068060000
B1543533801738S06009423WA0126601280000072060000
B1543573801675S06009399WA0126601281000080045000
B1544013801618S06009410WA0126701284000084030000
B1544053801596S06009467WA0126401280000076030000
B1544093801631S06009527WA0125901275000072030000
B1544133801701S06009542WA0125501273000072030000
B1544173801771S06009498WA0125801278000076030000
B1544213801813S06009412WA0126301284000068030000
B1544253801810S06009313WA0127001287000084030000
B1544293801769S06009234WA0127201287000092030000
B1544333801708S06009207WA0126901283000100030000
B1544373801652S06009220WA0126601282000092015000
B1544413801625S06009269WA0126401278000108015000
B1544453801634S06009333WA0125901273000096015000
B1544493801679S06009382WA0125101266000100015000
B1544533801745S06009393WA0125001262000096015000
B1544573801813S06009346WA0124501256000100015000
B1545013801857S06009260WA0124201258000088015000
B1545053801866S06009159WA0124501260000080015000
B1545093801846S06009061WA0124701261000084015000
B1545133801795S06008991WA0124901264000080015000
B1545173801734S06008956WA0124701260000080015000
B1545213801674S06008955WA0124501257000072015000
B1545253801626S06008979WA0124401259000072015000
B1545293801595S06009024WA0124701262000064015000
B1545333801587S06009082WA0124801262000072000000
B1545373801606S06009143WA0124601257000072000000
B1545413801665S06009173WA0123901248000088000000
B1545453801736S06009143WA0123101242000092015000
B1545493801786S06009060WA0122501236000084015000
B1545533801796S06008956WA0122101229000076015000
B1545573801768S06008865WA0121501223000068015000
B1546013801719S06008803WA0120901216000068015000
B1546053801665S06008791WA0120701216000072015000
B1546093801622S06008818WA0121201219000068015000
B1546133801605S06008871WA0121201217000076015000
B1546173801651S06008908WA0121101219000072015000
B1546213801706S06008848WA0120901212000080015000
B1546253801687S06008760WA0120001207000080030000
B1546293801639S06008754WA0120201210000072030000
B1546333801608S06008792WA0119801207000084015000
B1546373801580S06008836WA0119801210000076015000
B1546413801560S06008887WA0120301215000076015000
B1546453801566S06008947WA0120101211000080015000
B1546493801582S06009012WA0119701209000076015000
B1546533801593S06009078WA0120101212000072015000
B1546573801648S06009107WA0120001213000080015000
B1547013801708S06009057WA0119701203000088015000
B1547053801710S06008959WA0118601194000084030000
B1547093801658S06008913WA0118301194000080030000
B1547133801613S06008938WA0118201193000080030000
B1547173801575S06008979WA0117601184000068030000
B1547213801540S06009029WA0116201170000068015000
B1547253801511S06009090WA0114701155000088015000
B1547293801485S06009156WA0113801144000092015000
B1547333801462S06009229WA0112801135000084015000
B1547373801443S06009304WA0112101128000068015000
B1547413801423S06009380WA0112001128000064015000
B1547453801405S06009451WA0111801124000060015000
B1547493801384S06009525WA0111101116000060015000
B1547533801365S06009598WA0111301120000068015000
B1547573801332S06009661WA0111101116000064015000
B1548013801288S06009713WA0110701107000060015000
B1548053801244S06009766WA0109801105000076000000
B1548093801199S06009817WA0109701098000076000000
B1548133801157S06009871WA0108401087000068000000
B1548173801118S06009930WA0108201085000088000000
B1548213801079S06009987WA0107901081000088000000
B1548253801047S06010048WA0107201074000076000000
B1548293801029S06010116WA0106501067000084000000
B1548333801020S06010188WA0106201063000108000000
B1548373801020S06010261WA0105601057000088000000
B1548413801033S06010339WA0104901046000092000000
B1548453801051S06010418WA0104101040000092000000
B1548493801072S06010500WA0103601035000080000000
B1548533801090S06010582WA0103901047000084000000
B1548573801101S06010656WA0105101055000088000000
B1549013801107S06010729WA0105201055000076000000
B1549053801115S06010801WA0105901065000080000000
B1549093801151S06010854WA0106601069000092000000
B1549133801216S06010845WA0106401067000088015000
B1549173801266S06010771WA0106401068000072015000
B1549213801267S06010669WA0106401066000072030000
B1549253801228S06010591WA0106501067000072030000
B1549293801173S06010539WA0106601066000064015000
B1549333801112S06010524WA0106401068000068015000
B1549373801060S06010537WA0107301076000080015000
B1549413801064S06010590WA0107501079000084015000
B1549453801121S06010584WA0107801082000092015000
B1549493801146S06010502WA0107201071000080030000
B1549533801106S06010421WA0107001074000080030000
B1549573801050S06010370WA0107501081000080030000
B1550013801011S06010399WA0107801085000080015000
B1550053801049S06010433WA0108101085000076030000
B1550093801094S06010373WA0107701077000076030000
B1550133801075S06010282WA0107101072000064030000
B1550173801025S06010214WA0106801074000068030000
B1550213800969S06010177WA0107301079000072030000
B1550253800946S06010216WA0107901088000068030000
B1550293800997S06010231WA0108101086000060030000
B1550333801037S06010149WA0107901087000064030000
B1550373801006S06010075WA0108401093000068030000
B1550413800965S06010079WA0109201099000064030000
B1550453800988S06010118WA0109001095000060030000
B1550493801047S06010067WA0108401094000056030000
B1550533801037S06009973WA0108901101000064030000
B1550573800989S06009919WA0109301102000072030000
B1551013800967S06009956WA0109401106000088030000
B1551053801017S06009973WA0110001111000104030000
B1551093801079S06009928WA0110101113000112030000
B1551133801105S06009837WA0110501117000108030000
B1551173801077S06009749WA0110901120000092030000
B1551213801023S06009709WA0111101122000084030000
B1551253800973S06009724WA0111101120000100030000
B1551293800941S06009762WA0110701113000092015000
B1551333800942S06009815WA0110201110000104015000
B1551373800988S06009845WA0109701106000136015000
B1551413801055S06009822WA0109201099000116015000
B1551453801116S06009752WA0108701096000092015000
B1551493801153S06009651WA0108501094000080015000
B1551533801144S06009547WA0109001103000076015000
B1551573801101S06009475WA0109701103000072015000
B1552013801043S06009453WA0109401099000060015000
B1552053800999S06009481WA0108801093000060015000
B1552093800980S06009537WA0108001081000056015000
B1552133800999S06009598WA0107201075000060015000
B1552173801060S06009623WA0107101076000056015000
B1552213801131S06009601WA0107101077000056015000
B1552253801193S06009536WA0107201077000060015000
B1552293801225S06009437WA0107301080000060015000
B1552333801209S06009339WA0107801085000056015000
B1552373801162S06009280WA0108301087000060015000
B1552413801111S06009281WA0107901083000060015000
B1552453801089S06009329WA0107801082000064015000
B1552493801102S06009382WA0107401078000092000000
B1552533801149S06009421WA0107201074000092000000
B1552573801215S06009423WA0107101075000088000000
B1553013801279S06009364WA0107001071000092015000
B1553053801302S06009260WA0106701069000088015000
B1553093801267S06009174WA0106601070000088015000
B1553133801207S06009141WA0106701068000092015000
B1553173801159S06009163WA0106801071000092015000
B1553213801134S06009216WA0106701068000092015000
B1553253801138S06009277WA0106301063000088015000
B1553293801186S06009317WA0106201065000084015000
B1553333801254S06009306WA0106301066000076015000
B1553373801310S06009238WA0106301064000068015000
B1553413801323S06009142WA0106101061000068015000
B1553453801288S06009063WA0105801058000072015000
B1553493801231S06009037WA0105701056000072015000
B1553533801181S06009055WA0105401051000064015000
B1553573801149S06009102WA0104601045000060015000
B1554013801154S06009161WA0104201043000056015000
B1554053801202S06009200WA0103901041000068015000
B1554093801271S06009190WA0103801040000068015000
B1554133801329S06009130WA0103701036000060015000
B1554173801352S06009031WA0103101030000068030000
B1554213801320S06008946WA0102801026000072030000
B1554253801267S06008891WA0102801030000068030000
B1554293801211S06008864WA0102801028000064015000
B1554333801167S06008881WA0102401023000060015000
B1554373801149S06008929WA0101901018000068015000
B1554413801149S06008990WA0101001008000064015000
B1554453801159S06009056WA0100000998000076015000
B1554493801170S06009126WA0099300989000088015000
B1554533801179S06009199WA0098500978000184015000
B1554573801184S06009274WA0097100964000152015000
B1555013801176S06009350WA0095800953000124015000
B1555053801147S06009417WA0095000943000112000000
B1555093801101S06009467WA0094200938000108000000
B1555133801056S06009516WA0094300942000108000000
B1555173801024S06009577WA0094700947000116000000
B1555213800998S06009641WA0095300955000100000000
B1555253800975S06009703WA0096200964000096000000
B1555293800964S06009770WA0096900966000088000000
B1555333800998S06009826WA0097100972000088000000
B1555373801066S06009815WA0097400969000080015000
B1555413801106S06009737WA0097000966000076015000
B1555453801086S06009659WA0096900965000084015000
B1555493801038S06009644WA0097200968000092030000
B1555533800993S06009663WA0097100967000088030000
B1555573800988S06009720WA0096800967000084030000
B1556013801040S06009748WA0097100971000076030000
B1556053801095S06009697WA0097100966000068030000
B1556093801106S06009610WA0096400963000072030000
B1556133801067S06009557WA0096300967000072030000
B1556173801030S06009579WA0096700965000068030000
B1556213801047S06009631WA0096400965000072030000
B1556253801108S06009632WA0096300963000076030000
B1556293801155S06009563WA0096300964000072030000
B1556333801150S06009476WA0096000959000076045000
B1556373801103S06009437WA0096200964000064045000
B1556413801071S06009467WA0096500964000064030000
B1556453801097S06009515WA0096300963000072030000
B1556493801155S06009493WA0096400964000068045000
B1556533801176S06009408WA0096300962000076045000
B1556573801136S06009352WA0096700970000080045000
B1557013801097S06009372WA0096700961000084030000
B1557053801127S06009420WA0095700958000076030000
B1557093801184S06009386WA0095900960000076030000
B1557133801184S06009303WA0096100958000088030000
B1557173801132S06009289WA0095800956000100045000
B1557213801120S06009341WA0095600951000092045000
B1557253801162S06009377WA0095100948000092030000
B1557293801223S06009354WA0094900941000100030000
B1557333801280S06009291WA0094500941000092030000
B1557373801339S06009221WA0094300938000084030000
B1557413801374S06009130WA0094100936000080015000
B1557453801345S06009051WA0093900929000088015000
B1557493801289S06009046WA0092900920000092030000
B1557533801263S06009095WA0092500922000084030000
B1557573801285S06009152WA0092800926000076030000
B1558013801344S06009167WA0093600934000076030000
B1558053801413S06009160WA0093700931000076030000
B1558093801487S06009154WA0093500930000084015000
B1558133801563S06009155WA0092600916000072015000
B1558173801643S06009168WA0091400907000076015000
B1558213801719S06009186WA0091200908000072015000
B1558253801792S06009198WA0091800921000076015000
B1558293801861S06009209WA0092400919000068015000
B1558333801931S06009228WA0091900917000064015000
B1558373802002S06009245WA0092300926000068015000
B1558413802070S06009248WA0093400937000064015000
B1558453802135S06009232WA0094400946000060015000
B1558493802177S06009150WA0095300957000064015000
B1558533802145S06009076WA0096300961000072015000
B1558573802103S06009100WA0097200978000064030000
B1559013802142S06009138WA0098800992000060030000
B1559053802202S06009085WA0099500998000068030000
B1559093802191S06008992WA0100101006000072030000
B1559133802137S06008968WA0101101017000068045000
B1559173802113S06009009WA0102101029000064045000
B1559213802167S06009024WA0103401043000072045000
B1559253802208S06008949WA0104301049000080045000
B1559293802177S06008874WA0104901057000076045000
B1559333802119S06008857WA0105701059000084045000
B1559373802089S06008891WA0106001070000088030000
B1559413802129S06008920WA0107101076000092030000
B1559453802187S06008873WA0107101079000088030000
B1559493802189S06008782WA0108001095000080030000
B1559533802143S06008761WA0109001097000076045000
B1559573802146S06008806WA0108901094000080030000
B1600013802204S06008810WA0109301104000076030000
B1600053802246S06008731WA0110201109000068030000
B1600093802219S06008648WA0110801118000068030000
B1600133802165S06008635WA0111401123000068030000
B1600173802164S06008680WA0112101128000072030000
B1600213802224S06008674WA0112401134000068030000
B1600253802247S06008585WA0113001143000064030000
B1600293802204S06008524WA0114101150000064030000
B1600333802155S06008527WA0114601153000064030000
B1600373802160S06008574WA0114701151000068030000
B1600413802225S06008563WA0114201152000080030000
B1600453802249S06008471WA0114701161000072045000
B1600493802200S06008420WA0115901172000072030000
B1600533802180S06008455WA0116401172000072030000
B1600573802234S06008479WA0116101168000080030000
B1601013802302S06008431WA0116401175000072030000
B1601053802362S06008359WA0117201186000068030000
B1601093802399S06008271WA0118301196000068015000
B1601133802406S06008168WA0119001202000072015000
B1601173802368S06008089WA0119801214000064015000
B1601213802316S06008082WA0120801222000068015000
B1601253802308S06008133WA0121801233000064015000
B1601293802367S06008138WA0122901253000056030000
B1601333802392S06008047WA0124701270000048030000
B1601373802345S06007985WA0126201282000052030000
B1601413802314S06008020WA0127301294000048030000
B1601453802360S06008049WA0128701311000048030000
B1601493802418S06007980WA0130101325000048030000
B1601533802423S06007870WA0131601340000044030000
B1601573802372S06007807WA0132801351000068030000
B1602013802330S06007835WA0134001363000064030000
B1602053802346S06007886WA0135201371000056030000
B1602093802408S06007891WA0136901391000052030000
B1602133802464S06007821WA0138601409000048030000
B1602173802470S06007714WA0139801417000044030000
B1602213802420S06007644WA0140401422000056030000
B1602253802368S06007656WA0140701430000056030000
B1602293802364S06007713WA0142001445000056030000
B1602333802411S06007751WA0143601463000052030000
B1602373802479S06007720WA0145401484000052030000
B1602413802519S06007629WA0146701491000060030000
B1602453802498S06007531WA0147501501000056030000
B1602493802441S06007492WA0148101506000060030000
B1602533802402S06007526WA0148601511000060030000
B1602573802418S06007586WA0149701523000056030000
B1603013802484S06007594WA0151501540000052030000
B1603053802544S06007522WA0152701547000064030000
B1603093802546S06007414WA0153101555000068030000
B1603133802490S06007356WA0153501561000072030000
B1603173802436S06007370WA0154101568000076030000
B1603213802424S06007430WA0155201581000064030000
B1603253802473S06007466WA0156401592000056030000
B1603293802540S06007421WA0157301597000060030000
B1603333802559S06007313WA0157101594000068030000
B1603373802507S06007232WA0157701608000064030000
B1603413802449S06007241WA0158901618000068030000
B1603453802446S06007297WA0160501635000056030000
B1603493802505S06007311WA0161801645000064030000
B1603533802561S06007240WA0162301649000072030000
B1603573802554S06007133WA0162801663000072030000
B1604013802498S06007083WA0164201680000068030000
B1604053802457S06007110WA0165401687000068030000
B1604093802472S06007161WA0166201694000076030000
B1604133802535S06007178WA0166001693000088030000
B1604173802609S06007140WA0166301704000088030000
B1604213802653S06007044WA0167301711000080030000
B1604253802632S06006941WA0168201722000072030000
B1604293802572S06006894WA0168801726000080030000
B1604333802522S06006918WA0169701733000080030000
B1604373802518S06006973WA0170401739000068030000
B1604413802562S06007015WA0170801739000072030000
B1604453802639S06007011WA0170001729000072030000
B1604493802710S06006940WA0169901738000076030000
B1604533802733S06006832WA0171001751000072030000
B1604573802704S06006738WA0171801756000068030000
B1605013802645S06006685WA0171801751000068030000
B1605053802580S06006676WA0171701754000072015000
B1605093802541S06006717WA0172701766000076015000
B1605133802577S06006762WA0173501776000072030000
B1605173802648S06006734WA0174601787000068030000
B1605213802700S06006648WA0174601786000068030000
B1605253802681S06006547WA0175301797000064030000
B1605293802624S06006528WA0176201805000064030000
B1605333802610S06006576WA0176801811000064030000
B1605373802650S06006619WA0177101814000080030000
B1605413802717S06006621WA0177401813000080030000
B1605453802789S06006576WA0177301818000088030000
B1605493802835S06006482WA0177801826000080030000
B1605533802834S06006381WA0178601827000076030000
B1605573802791S06006304WA0178001815000084030000
B1606013802724S06006278WA0176801806000088030000
B1606053802658S06006287WA0176201797000096030000
B1606093802600S06006329WA0175501794000100015000
B1606133802549S06006383WA0175301787000108015000
B1606173802507S06006448WA0174601779000100015000
B1606213802472S06006520WA0174101771000088015000
B1606253802442S06006599WA0173101757000084015000
B1606293802425S06006686WA0171701748000076015000
B1606333802420S06006776WA0171001740000076015000
B1606373802402S06006863WA0170001727000064015000
B1606413802363S06006940WA0169001722000068015000
B1606453802315S06007005WA0168701717000076015000
B1606493802267S06007071WA0168001708000068015000
B1606533802225S06007144WA0167301704000060015000
B1606573802193S06007222WA0166601694000056015000
B1607013802168S06007309WA0165301680000056015000
B1607053802147S06007400WA0164701675000060015000
B1607093802137S06007490WA0164901684000068000000
B1607133802128S06007577WA0165501681000064015000
B1607173802117S06007668WA0163901668000060015000
B1607213802102S06007763WA0162901656000060000000
B1607253802082S06007856WA0162001647000064000000
B1607293802052S06007939WA0162301652000060000000
B1607333802015S06008013WA0162301652000056000000
B1607373801973S06008085WA0161801642000056000000
B1607413801931S06008163WA0160701632000064000000
B1607453801892S06008240WA0159901629000060000000
B1607493801852S06008310WA0160001629000056000000
B1607533801807S06008374WA0159301621000060000000
B1607573801752S06008431WA0158301611000056000000
B1608013801693S06008488WA0157601601000060000000
B1608053801632S06008545WA0157001597000064000000
B1608093801573S06008598WA0156401587000072000000
B1608133801511S06008650WA0155701586000068000000
B1608173801453S06008696WA0155601583000068000000
B1608213801394S06008739WA0154101565000076000000
B1608253801333S06008787WA0152601552000076000000
B1608293801277S06008835WA0152501554000064000000
B1608333801223S06008883WA0151601544000056000000
B1608373801164S06008922WA0151201539000052000000
B1608413801101S06008960WA0150001521000052000000
B1608453801033S06008999WA0149301522000060000000
B1608493800971S06009031WA0149801524000068000000
B1608533800911S06009070WA0148601504000072000000
B1608573800847S06009120WA0146901490000068000000
B1609013800789S06009173WA0146501484000064000000
B1609053800733S06009229WA0146201492000056000000
B1609093800685S06009282WA0146601489000048000000
B1609133800637S06009341WA0145501476000048000000
B1609173800590S06009404WA0144801471000044000000
B1609213800546S06009466WA0144801475000056000000
B1609253800504S06009520WA0145201479000056000000
B1609293800469S06009571WA0145301480000048000000
B1609333800436S06009620WA0145301478000048000000
B1609373800400S06009670WA0144501465000048000000
B1609413800365S06009720WA0143101453000072000000
B1609453800327S06009776WA0142101442000076000000
B1609493800288S06009833WA0141101432000064000000
B1609533800248S06009895WA0140201423000072000000
B1609573800208S06009958WA0139801424000072000000
B1610013800182S06010023WA0140201428000084000000
B1610053800183S06010091WA0140201426000096000000
B1610093800217S06010151WA0139701420000092000000
B1610133800274S06010190WA0139201415000080000000
B1610173800339S06010214WA0138601412000072000000
B1610213800406S06010235WA0138401407000088000000
B1610253800475S06010255WA0138001404000080000000
B1610293800544S06010269WA0137501398000072000000
B1610333800618S06010278WA0136601388000072000000
B1610373800696S06010286WA0136801395000076000000
B1610413800764S06010299WA0138601412000076000000
B1610453800835S06010283WA0138901416000096000000
B1610493800903S06010230WA0139601425000096000000
B1610533800923S06010135WA0140501436000092000000
B1610573800882S06010077WA0141701445000092015000
B1611013800850S06010108WA0142501452000080015000
B1611053800890S06010145WA0143101460000076015000
B1611093800950S06010091WA0143901467000076030000
B1611133800934S06010005WA0144601474000096030000
B1611173800887S06010002WA0145401485000084030000
B1611213800898S06010051WA0146501493000104030000
B1611253800960S06010039WA0147401503000092030000
B1611293800988S06009954WA0148101506000096030000
B1611333800950S06009895WA0148501514000088030000
B1611373800919S06009921WA0149001515000084030000
B1611413800959S06009957WA0149501526000076030000
B1611453801019S06009911WA0150601536000068030000
B1611493801019S06009824WA0151001536000076030000
B1611533800968S06009805WA0151001539000092030000
B1611573800975S06009857WA0151401548000120030000
B1612013801040S06009854WA0152501558000104030000
B1612053801076S06009772WA0153101557000096030000
B1612093801029S06009722WA0153001562000088030000
B1612133801008S06009768WA0153501565000100030000
B1612173801072S06009783WA0154101575000104030000
B1612213801132S06009719WA0154901583000092030000
B1612253801125S06009632WA0155601592000104030000
B1612293801080S06009620WA0156501595000116030000
B1612333801082S06009668WA0156801600000128030000
B1612373801144S06009670WA0157101603000108030000
B1612413801189S06009597WA0157401604000096030000
B1612453801173S06009511WA0157501606000084030000
B1612493801127S06009498WA0157801613000084030000
B1612533801124S06009547WA0158301616000076030000
B1612573801181S06009554WA0158601618000084030000
B1613013801218S06009475WA0158201610000080030000
B1613053801184S06009411WA0158301621000084030000
B1613093801141S06009419WA0159001624000084030000
B1613133801102S06009454WA0158501617000076030000
B1613173801064S06009499WA0158601617000076030000
B1613213801027S06009546WA0158401611000076015000
B1613253800982S06009593WA0157901606000068015000
B1613293800937S06009645WA0157001597000064015000
B1613333800889S06009702WA0156201591000072015000
B1613373800839S06009758WA0155601584000072015000
B1613413800789S06009806WA0156101594000072015000
B1613453800747S06009850WA0157201601000060015000
B1613493800703S06009893WA0156401582000056015000
B1613533800647S06009934WA0154501566000068015000
B1613573800585S06009971WA0153201555000068015000
B1614013800518S06010004WA0152201548000064015000
B1614053800449S06010034WA0151701541000056015000
B1614093800379S06010069WA0150701529000052015000
B1614133800308S06010104WA0149401518000052015000
B1614173800234S06010138WA0148601510000056015000
B1614213800159S06010173WA0147701499000056000000
B1614253800088S06010210WA0147001492000060000000
B1614293800018S06010246WA0146601490000060000000
B1614333759946S06010279WA0146001481000072000000
B1614373759873S06010318WA0145101472000076000000
B1614413759799S06010359WA0144701473000080000000
B1614453759725S06010398WA0144501469000108000000
B1614493759650S06010434WA0143701457000092000000
B1614533759571S06010469WA0141601434000084000000
B1614573759486S06010504WA0140301425000108000000
B1615013759404S06010535WA0140401429000100000000
B1615053759326S06010567WA0140101423000088000000
B1615093759247S06010599WA0139001411000080000000
B1615133759168S06010634WA0138401410000080000000
B1615173759091S06010669WA0137801400000076000000
B1615213759013S06010706WA0136501388000076000000
B1615253758937S06010740WA0136601394000072000000
B1615293758865S06010767WA0137201400000072000000
B1615333758797S06010797WA0137801405000076000000
B1615373758746S06010844WA0139201431000068000000
B1615413758774S06010901WA0141801457000064015000
B1615453758839S06010890WA0144001478000056015000
B1615493758875S06010808WA0145401487000048015000
B1615533758841S06010742WA0146401499000048015000
B1615573758792S06010745WA0147801508000044015000
B1616013758784S06010794WA0148301513000048030000
B1616053758840S06010801WA0149501529000044030000
B1616093758878S06010719WA0149801518000060030000
B1616133758839S06010639WA0150001539000060030000
B1616173758785S06010636WA0152201555000088030000
B1616213758749S06010677WA0152401550000100030000
B1616253758761S06010742WA0151701545000088015000
B1616293758833S06010753WA0151701549000092030000
B1616333758891S06010675WA0152001558000092030000
B1616373758857S06010590WA0153301568000080030000
B1616413758810S06010612WA0154101576000076030000
B1616453758835S06010665WA0154701582000096030000
B1616493758898S06010647WA0155801596000088030000
B1616533758932S06010564WA0157101607000084030000
B1616573758906S06010480WA0157501603000092030000
B1617013758854S06010477WA0157501611000104030000
B1617053758852S06010530WA0158101615000096030000
B1617093758909S06010546WA0158401616000100030000
B1617133758950S06010463WA0158401618000088030000
B1617173758910S06010390WA0158801626000080045000
B1617213758867S06010412WA0159501632000100030000
B1617253758882S06010468WA0160001635000100030000
B1617293758944S06010467WA0160501642000088030000
B1617333758986S06010386WA0161501651000080030000
B1617373758958S06010307WA0162001657000072030000
B1617413758910S06010304WA0162701658000068030000
B1617453758904S06010360WA0162101652000064030000
B1617493758958S06010392WA0162001654000076030000
B1617533759022S06010333WA0162401664000068030000
B1617573759014S06010235WA0163001663000068030000
B1618013758958S06010204WA0163001669000064030000
B1618053758935S06010249WA0164001675000068030000
B1618093758983S06010286WA0163701671000064030000
B1618133759041S06010235WA0164801695000060030000
B1618173759049S06010148WA0166401701000060030000
B1618213759018S06010070WA0166301702000068030000
B1618253758970S06010031WA0166501705000076030000
B1618293758941S06010067WA0167301710000080030000
B1618333758962S06010117WA0167001702000072015000
B1618373759025S06010126WA0166301700000084015000
B1618413759087S06010073WA0166401703000092015000
B1618453759109S06009983WA0166901708000104015000
B1618493759086S06009902WA0167401709000112030000
B1618533759034S06009869WA0167001709000132030000
B1618573758992S06009885WA0167701716000128030000
B1619013758969S06009926WA0168201717000124015000
B1619053758957S06009979WA0167401706000112015000
B1619093758953S06010039WA0166701698000104015000
B1619133758954S06010105WA0166201694000132015000
B1619173758969S06010171WA0165501685000124015000
B1619213758988S06010239WA0164701679000104015000
B1619253759018S06010303WA0164401679000096015000
B1619293759052S06010363WA0164301678000072015000
B1619333759084S06010421WA0164101676000064015000
B1619373759119S06010481WA0164001674000064015000
B1619413759156S06010537WA0163901678000072015000
B1619453759188S06010594WA0164101675000064015000
B1619493759201S06010656WA0163501665000072000000
B1619533759187S06010719WA0162501655000080000000
B1619573759153S06010777WA0161401647000076000000
B1620013759104S06010821WA0161401649000092000000
B1620053759054S06010859WA0161201646000072000000
B1620093759006S06010902WA0160601640000080000000
B1620133758961S06010950WA0160001635000076000000
B1620173758918S06011001WA0159501633000064000000
B1620213758879S06011053WA0159301628000080000000
B1620253758840S06011105WA0158701621000088000000
B1620293758798S06011157WA0158301616000084000000
B1620333758758S06011209WA0157901613000072000000
B1620373758715S06011257WA0157401609000104000000
B1620413758670S06011297WA0157301606000092000000
B1620453758624S06011336WA0156701599000092000000
B1620493758583S06011382WA0155801592000088000000
B1620533758550S06011436WA0155701596000088000000
B1620573758523S06011490WA0156501602000080000000
B1621013758503S06011544WA0157201610000084000000
B1621053758494S06011601WA0157701614000076000000
B1621093758498S06011660WA0158201619000088000000
B1621133758536S06011700WA0158801627000088000000
B1621173758602S06011682WA0159201630000092000000
B1621213758644S06011598WA0159401632000096015000
B1621253758625S06011508WA0159701637000092015000
B1621293758575S06011468WA0160101642000084015000
B1621333758525S06011473WA0160801643000080015000
B1621373758484S06011504WA0160401639000076015000
B1621413758449S06011549WA0159901633000096015000
B1621453758416S06011605WA0159601632000088015000
B1621493758385S06011670WA0159001619000084015000
B1621533758352S06011742WA0157901603000076015000
B1621573758317S06011822WA0155901580000072015000
B1622013758277S06011906WA0154501571000076015000
B1622053758235S06011986WA0154001568000080015000
B1622093758191S06012068WA0153601564000088015000
B1622133758147S06012150WA0153101563000088015000
B1622173758104S06012229WA0153501563000080015000
B1622213758055S06012305WA0152501550000080015000
B1622253757999S06012374WA0151301541000072015000
B1622293757938S06012436WA0150901538000068015000
B1622333757877S06012493WA0150801539000100015000
B1622373757823S06012556WA0150701537000100015000
B1622413757791S06012634WA0150901543000096000000
B1622453757795S06012717WA0151801552000128000000
B1622493757838S06012784WA0152301558000112000000
B1622533757912S06012820WA0152701565000108015000
B1622573757996S06012809WA0153901576000096015000
B1623013758055S06012730WA0155601596000108015000
B1623053758052S06012628WA0156701602000100015000
B1623093757999S06012573WA0157301611000096015000
B1623133757952S06012592WA0157901617000100030000
B1623173757957S06012649WA0158501621000092030000
B1623213758012S06012682WA0158101616000096030000
B1623253758079S06012640WA0158501627000092030000
B1623293758099S06012545WA0159501634000088030000
B1623333758061S06012467WA0159901640000084030000
B1623373758012S06012470WA0160501647000120030000
B1623413758009S06012524WA0160401642000108030000
B1623453758061S06012562WA0159901638000096030000
B1623493758134S06012539WA0160201639000100030000
B1623533758182S06012448WA0160501645000092030000
B1623573758157S06012348WA0161301651000080030000
B1624013758095S06012331WA0161701654000084030000
B1624053758078S06012389WA0162201661000084030000
B1624093758129S06012430WA0162401663000080045000
B1624133758200S06012393WA0162901670000080030000
B1624173758232S06012294WA0163701677000100030000
B1624213758200S06012202WA0164501683000088030000
B1624253758139S06012181WA0164701684000084045000
B1624293758100S06012225WA0164801684000108030000
B1624333758109S06012292WA0164901686000104030000
B1624373758172S06012326WA0165001686000100030000
B1624413758251S06012297WA0164901690000096030000
B1624453758302S06012209WA0165401697000092030000
B1624493758291S06012105WA0165701698000092030000
B1624533758235S06012038WA0166001701000088030000
B1624573758168S06012023WA0166101695000092030000
B1625013758108S06012056WA0165701693000096015000
B1625053758065S06012120WA0165201681000100015000
B1625093758034S06012198WA0164101668000136015000
B1625133758017S06012289WA0163201655000136015000
B1625173758009S06012387WA0162101644000128015000
B1625213758004S06012488WA0160801633000116015000
B1625253758003S06012593WA0160001626000116015000
B1625293758003S06012697WA0159501619000112015000
B1625333758007S06012800WA0158601612000092015000
B1625373758014S06012900WA0158101609000096015000
B1625413758025S06012998WA0158001606000088015000
B1625453758035S06013094WA0157401601000088015000
B1625493758050S06013187WA0156901593000080015000
B1625533758066S06013282WA0155801583000088015000
B1625573758083S06013380WA0155001574000084015000
B1626013758096S06013477WA0153901563000088015000
B1626053758105S06013576WA0153201557000092000000
B1626093758115S06013675WA0152501549000088000000
B1626133758128S06013774WA0152001547000100000000
B1626173758143S06013870WA0152001547000096000000
B1626213758157S06013965WA0151601542000092000000
B1626253758172S06014060WA0151101534000084000000
B1626293758186S06014156WA0150401525000084000000
B1626333758203S06014252WA0149401515000096000000
B1626373758220S06014350WA0148601505000088000000
B1626413758238S06014445WA0147501496000084000000
B1626453758259S06014539WA0146501485000080000000
B1626493758276S06014634WA0145201470000076000000
B1626533758294S06014729WA0143801457000080000000
B1626573758317S06014822WA0143001449000084000000
B1627013758350S06014909WA0142601448000088000000
B1627053758394S06014991WA0142301446000096000000
B1627093758437S06015070WA0142501450000104000000
B1627133758471S06015148WA0143401465000096000000
B1627173758488S06015222WA0143901465000084000000
B1627213758503S06015293WA0143201455000076000000
B1627253758515S06015368WA0142201445000068000000
B1627293758521S06015449WA0140801429000064000000
B1627333758523S06015543WA0139601416000076000000
B1627373758514S06015635WA0139901437000080000000
B1627413758497S06015707WA0143301468000088000000
B1627453758495S06015777WA0145101479000076000000
B1627493758529S06015838WA0145501485000072000000
B1627533758590S06015873WA0146201487000072015000
B1627573758662S06015890WA0146401494000072000000
B1628013758733S06015894WA0147001499000092000000
B1628053758806S06015890WA0146901491000088000000
B1628093758879S06015845WA0145701481000124000000
B1628133758909S06015742WA0145401480000124015000
B1628173758897S06015638WA0145201472000104015000
B1628213758869S06015540WA0144801469000084015000
B1628253758826S06015456WA0144501471000080000000
B1628293758767S06015399WA0144301469000076000000
B1628333758703S06015353WA0144701476000076000000
B1628373758638S06015313WA0145501484000092000000
B1628413758576S06015304WA0146701500000092000000
B1628453758523S06015329WA0148201512000076000000
B1628493758477S06015374WA0148801518000088000000
B1628533758425S06015425WA0149801535000092000000
B1628573758386S06015490WA0151701552000080000000
B1629013758410S06015557WA0154001580000072000000
B1629053758476S06015553WA0156001593000088015000
B1629093758516S06015469WA0156901602000096015000
B1629133758489S06015387WA0158201618000116015000
B1629173758434S06015382WA0159201625000096030000
B1629213758423S06015439WA0160101632000080030000
B1629253758476S06015469WA0160901640000076030000
B1629293758536S06015405WA0161201643000088030000
B1629333758541S06015300WA0161801655000096030000
B1629373758511S06015210WA0163301669000088030000
B1629413758454S06015201WA0164601688000076030000
B1629453758446S06015262WA0166001702000080030000
B1629493758503S06015291WA0167301717000076030000
B1629533758564S06015227WA0168501727000072030000
B1629573758564S06015126WA0169601738000068030000
B1630013758508S06015063WA0170601754000068030000
B1630053758445S06015071WA0173101777000064045000
B1630093758434S06015134WA0175301802000056045000
B1630133758486S06015163WA0177101817000088045000
B1630173758549S06015111WA0178001822000076030000
B1630213758566S06015009WA0178101830000076030000
B1630253758520S06014937WA0179801857000072045000
B1630293758468S06014959WA0182101873000108045000
B1630333758475S06015026WA0183201881000112045000
B1630373758540S06015043WA0184101892000092045000
B1630413758599S06014974WA0185201903000084030000
B1630453758596S06014870WA0186101912000080045000
B1630493758538S06014815WA0187201932000072045000
B1630533758494S06014851WA0189301948000060045000
B1630573758521S06014913WA0190101955000080045000
B1631013758597S06014894WA0190601959000084045000
B1631053758632S06014794WA0191601973000088045000
B1631093758593S06014712WA0192801993000076045000
B1631133758534S06014716WA0194902013000064045000
B1631173758529S06014779WA0196502024000056045000
B1631213758584S06014810WA0197402031000064045000
B1631253758646S06014751WA0198102038000068045000
B1631293758645S06014651WA0198702046000060045000
B1631333758590S06014595WA0200202063000056045000
B1631373758538S06014616WA0201502074000056045000
B1631413758538S06014682WA0202102077000056045000
B1631453758602S06014702WA0202402079000060045000
B1631493758663S06014636WA0202402079000064030000
B1631533758674S06014528WA0202502084000060045000
B1631573758627S06014455WA0203602100000056045000
B1632013758568S06014473WA0205002111000052045000
B1632053758572S06014543WA0205502114000052045000
B1632093758637S06014576WA0205802119000060045000
B1632133758714S06014533WA0206502125000064030000
B1632173758749S06014434WA0207202134000060030000
B1632213758718S06014351WA0208502148000064045000
B1632253758657S06014331WA0209802163000072045000
B1632293758623S06014383WA0210502169000072045000
B1632333758655S06014443WA0211002171000080045000
B1632373758729S06014435WA0211402176000084030000
B1632413758792S06014368WA0211502173000092030000
B1632453758830S06014268WA0211202171000084030000
B1632493758854S06014157WA0211902180000076030000
B1632533758854S06014044WA0213302198000068030000
B1632573758811S06013966WA0215402219000060030000
B1633013758755S06013961WA0216902231000060030000
B1633053758736S06014014WA0217702234000052030000
B1633093758768S06014069WA0218402241000056030000
B1633133758833S06014091WA0218602239000064030000
B1633173758906S06014042WA0218702255000060030000
B1633213758932S06013943WA0221002277000052030000
B1633253758900S06013862WA0222302290000052030000
B1633293758846S06013861WA0223302300000080045000
B1633333758830S06013915WA0224002306000072030000
B1633373758863S06013969WA0224702314000096030000
B1633413758931S06013970WA0225202316000092030000
B1633453758984S06013896WA0225902326000076030000
B1633493758979S06013801WA0226802337000064030000
B1633533758932S06013744WA0227602347000064030000
B1633573758880S06013749WA0228702354000076030000
B1634013758863S06013805WA0229302355000068030000
B1634053758895S06013862WA0229202351000072030000
B1634093758970S06013862WA0228002343000072030000
B1634133759025S06013782WA0228002348000068030000
B1634173759032S06013676WA0228602355000060030000
B1634213758999S06013593WA0229802369000056030000
B1634253758944S06013576WA0230902378000064030000
B1634293758922S06013626WA0231202380000092030000
B1634333758961S06013678WA0231302383000104030000
B1634373759031S06013680WA0231402381000104030000
B1634413759093S06013614WA0231002378000092030000
B1634453759130S06013516WA0230902382000088030000
B1634493759131S06013410WA0231402386000080030000
B1634533759091S06013328WA0231902392000084030000
B1634573759035S06013304WA0232502396000084030000
B1635013759006S06013347WA0233002398000088030000
B1635053759027S06013402WA0233402403000092015000
B1635093759091S06013424WA0233502405000088015000
B1635133759165S06013398WA0233802405000088015000
B1635173759223S06013317WA0233802408000092015000
B1635213759243S06013212WA0234102413000088015000
B1635253759218S06013120WA0234702419000076015000
B1635293759168S06013065WA0235002419000084015000
B1635333759106S06013041WA0234402410000084015000
B1635373759041S06013028WA0234402415000084015000
B1635413758982S06013017WA0235302421000080015000
B1635453758922S06013015WA0235402424000080015000
B1635493758858S06013007WA0235702430000072015000
B1635533758801S06013011WA0236802439000068015000
B1635573758759S06013050WA0237102437000076015000
B1636013758772S06013104WA0237302446000076015000
B1636053758831S06013099WA0237702442000060015000
B1636093758883S06013022WA0237302444000060015000
B1636133758924S06012927WA0237702447000060015000
B1636173758976S06012844WA0237602447000056015000
B1636213759047S06012796WA0237802451000064015000
B1636253759121S06012791WA0237902450000068015000
B1636293759188S06012809WA0238202454000080015000
B1636333759260S06012807WA0238202458000076015000
B1636373759325S06012753WA0238402458000064015000
B1636413759352S06012656WA0238302455000076015000
B1636453759321S06012570WA0238202454000076015000
B1636493759268S06012526WA0237502443000068015000
B1636533759207S06012501WA0236502438000060015000
B1636573759144S06012478WA0236402436000076015000
B1637013759080S06012440WA0236502438000080015000
B1637053759017S06012406WA0236502437000072015000
B1637093758950S06012384WA0236702442000072015000
B1637133758888S06012383WA0237602448000072015000
B1637173758843S06012417WA0238002454000072015000
B1637213758845S06012469WA0238602459000072015000
B1637253758905S06012474WA0238802462000072015000
B1637293758953S06012398WA0239202467000072015000
B1637333758965S06012297WA0239502465000080015000
B1637373758947S06012193WA0239402466000080015000
B1637413758898S06012114WA0239602465000076015000
B1637453758836S06012119WA0238802453000068015000
B1637493758830S06012184WA0237902449000072030000
B1637533758876S06012225WA0238202456000084030000
B1637573758940S06012235WA0238602460000076030000
B1638013759008S06012220WA0239002467000068015000
B1638053759071S06012168WA0239802471000064015000
B1638093759109S06012069WA0239502462000064015000
B1638133759073S06011975WA0239402468000068015000
B1638173759014S06011963WA0240302477000088030000
B1638213759001S06012010WA0240702480000092030000
B1638253759045S06012037WA0241102486000088030000
B1638293759109S06011995WA0241102482000080030000
B1638333759155S06011903WA0240602474000112030000
B1638373759145S06011796WA0240302476000108030000
B1638413759087S06011742WA0240602473000088030000
B1638453759022S06011742WA0239402458000076015000
B1638493758969S06011780WA0238402453000092015000
B1638533758953S06011842WA0238802460000140015000
B1638573758958S06011903WA0239602468000116015000
B1639013758973S06011955WA0240402476000100015000
B1639053759002S06011997WA0240302470000084015000
B1639093759064S06012001WA0239202465000076015000
B1639133759125S06011936WA0238602459000064015000
B1639173759130S06011828WA0238402464000068030000
B1639213759079S06011763WA0238902468000084030000
B1639253759032S06011782WA0239102468000088030000
B1639293759038S06011834WA0239102467000072030000
B1639333759093S06011851WA0239002464000068030000
B1639373759158S06011806WA0238602458000068030000
B1639413759191S06011707WA0238302458000076030000
B1639453759173S06011605WA0238502462000068030000
B1639493759119S06011553WA0239002468000072045000
B1639533759067S06011557WA0239302465000068030000
B1639573759017S06011575WA0238502455000068030000
B1640013758958S06011587WA0237102442000072030000
B1640053758893S06011595WA0236202434000076030000
B1640093758836S06011613WA0236302440000080015000
B1640133758789S06011643WA0236902446000100015000
B1640173758757S06011686WA0237302450000104015000
B1640213758741S06011743WA0237002451000100030000
B1640253758758S06011802WA0237302457000096030000
B1640293758813S06011830WA0237702461000092030000
B1640333758885S06011819WA0237902456000092030000
B1640373758958S06011759WA0237502453000096015000
B1640413759004S06011652WA0236902445000092015000
B1640453759002S06011526WA0236702441000084015000
B1640493758954S06011426WA0237002442000084015000
B1640533758889S06011379WA0237502449000076030000
B1640573758828S06011378WA0238402458000076015000
B1641013758794S06011418WA0238802458000084015000
B1641053758801S06011474WA0238802458000088015000
B1641093758852S06011509WA0238802458000088015000
B1641133758927S06011487WA0238602457000088015000
B1641173758993S06011410WA0238602458000092015000
B1641213759022S06011295WA0238802457000100015000
B1641253759001S06011175WA0238402453000092015000
B1641293758947S06011092WA0238702461000104030000
B1641333758883S06011076WA0239302468000092030000
B1641373758844S06011110WA0239702468000084030000
B1641413758849S06011166WA0239602466000084015000
B1641453758909S06011191WA0239702470000088015000
B1641493758984S06011152WA0239902472000092030000
B1641533759038S06011053WA0240102472000084030000
B1641573759051S06010932WA0240802482000080030000
B1642013759015S06010831WA0241302489000076030000
B1642053758956S06010769WA0241702488000068030000
B1642093758889S06010746WA0241402489000064030000
B1642133758837S06010762WA0242002493000068015000
B1642173758810S06010807WA0242202491000076015000
B1642213758818S06010866WA0242102489000084015000
B1642253758852S06010916WA0242102491000084015000
B1642293758897S06010954WA0242502497000072015000
B1642333758954S06010970WA0242902502000076015000
B1642373759019S06010966WA0243002502000080015000
B1642413759090S06010945WA0242902501000080015000
B1642453759162S06010903WA0242802499000084015000
B1642493759236S06010845WA0242502497000092015000
B1642533759308S06010773WA0242802499000096015000
B1642573759364S06010677WA0242902499000076015000
B1643013759385S06010559WA0242602500000084015000
B1643053759357S06010455WA0243202506000088015000
B1643093759308S06010378WA0243202498000072015000
B1643133759244S06010321WA0242202485000060015000
B1643173759178S06010265WA0241002473000068015000
B1643213759106S06010222WA0240302469000072015000
B1643253759035S06010208WA0240102470000084000000
B1643293758973S06010221WA0240802477000084000000
B1643333758932S06010260WA0241102481000088000000
B1643373758914S06010314WA0241202480000068000000
B1643413758918S06010374WA0241102477000068000000
B1643453758943S06010434WA0240602475000076000000
B1643493758986S06010486WA0240602475000076000000
B1643533759041S06010522WA0240902482000080000000
B1643573759106S06010542WA0241102482000076000000
B1644013759177S06010555WA0240802479000072000000
B1644053759246S06010577WA0240702479000064000000
B1644093759311S06010603WA0240802482000076000000
B1644133759373S06010632WA0241102483000084000000
B1644173759437S06010662WA0241002481000080000000
B1644213759507S06010681WA0241102485000068000000
B1644253759585S06010665WA0241602491000072000000
B1644293759658S06010611WA0242102496000080000000
B1644333759714S06010520WA0242002493000084000000
B1644373759745S06010407WA0241902493000080000000
B1644413759741S06010290WA0241802490000076000000
B1644453759703S06010195WA0241602488000076000000
B1644493759646S06010136WA0241502485000076000000
B1644533759586S06010117WA0241202479000072000000
B1644573759528S06010118WA0240602475000060000000
B1645013759476S06010140WA0240302470000060000000
B1645053759442S06010186WA0240102470000076000000
B1645093759424S06010244WA0239602466000076000000
B1645133759434S06010313WA0239402465000072015000
B1645173759483S06010364WA0239502470000072015000
B1645213759559S06010372WA0239902472000088030000
B1645253759642S06010335WA0239702465000084015000
B1645293759717S06010255WA0239102462000092015000
B1645333759771S06010140WA0238802458000104015000
B1645373759794S06010009WA0238402453000100015000
B1645413759792S06009874WA0238802458000092015000
B1645453759760S06009753WA0238402454000072015000
B1645493759704S06009658WA0238402455000060015000
B1645533759636S06009602WA0238402455000056015000
B1645573759567S06009598WA0238002447000048015000
B1646013759519S06009641WA0237302440000052015000
B1646053759517S06009711WA0236902436000048015000
B1646093759569S06009763WA0236802439000048015000
B1646133759649S06009761WA0237202444000056015000
B1646173759720S06009690WA0237802449000060015000
B1646213759750S06009581WA0238202452000060030000
B1646253759742S06009467WA0238202449000060030000
B1646293759711S06009359WA0237502440000056015000
B1646343759651S06009238WA0236602432000056015000
B1646383759594S06009155WA0236202430000052015000
B1646423759525S06009096WA0235902427000044015000
B1646463759455S06009065WA0235502423000068015000
B1646503759385S06009053WA0235002416000056015000
B1646543759316S06009056WA0234202408000048015000
B1646583759248S06009070WA0233602401000044015000
B1647023759187S06009098WA0232902393000040015000
B1647063759132S06009139WA0232302387000052015000
B1647103759087S06009189WA0231802382000048015000
B1647143759049S06009248WA0231202378000060015000
B1647183759022S06009320WA0230302374000072015000
B1647223759002S06009399WA0230202375000080015000
B1647263758988S06009475WA0230502380000084015000
B1647303758976S06009549WA0230702380000080015000
B1647343758963S06009625WA0230802379000080015000
B1647383758950S06009702WA0230302372000072015000
B1647423758935S06009783WA0229102358000060015000
B1647463758919S06009866WA0227502341000064015000
B1647503758900S06009952WA0225702325000056015000
B1647543758878S06010035WA0224902320000056015000
B1647583758849S06010110WA0224602314000068015000
B1648023758810S06010174WA0223902304000072015000
B1648063758763S06010229WA0222902295000076015000
B1648103758714S06010278WA0221902288000076015000
B1648143758662S06010322WA0221102281000072015000
B1648183758612S06010365WA0220402273000072015000
B1648223758564S06010409WA0219302260000076015000
B1648263758520S06010457WA0217902246000080015000
B1648303758481S06010515WA0216802234000080015000
B1648343758446S06010576WA0215702228000084015000
B1648383758417S06010641WA0215502227000068015000
B1648423758407S06010706WA0215702229000064015000
B1648463758411S06010773WA0216202235000064015000
B1648503758436S06010834WA0217102246000068015000
B1648543758497S06010863WA0217902249000056015000
B1648583758575S06010837WA0217902250000056015000
B1649023758628S06010749WA0218302255000072015000
B1649063758629S06010632WA0218602254000080015000
B1649103758596S06010525WA0218502253000080015000
B1649143758532S06010465WA0218502255000076015000
B1649183758471S06010478WA0218602259000084030000
B1649223758454S06010538WA0219102262000096030000
B1649263758488S06010594WA0219802265000088030000
B1649303758560S06010595WA0220302268000116030000
B1649343758625S06010520WA0220102266000100030000
B1649383758641S06010402WA0220102268000100045000
B1649423758602S06010303WA0220402273000092045000
B1649463758542S06010269WA0220902281000092045000
B1649503758495S06010288WA0221402280000092045000
B1649543758471S06010339WA0220902271000092030000
B1649583758462S06010409WA0220002259000088030000
B1650023758463S06010489WA0219202252000088030000
B1650063758468S06010571WA0219102253000084030000
B1650103758475S06010654WA0218302239000072030000
B1650143758473S06010742WA0217302231000064015000
B1650183758464S06010829WA0217302237000088015000
B1650223758458S06010909WA0217802244000092015000
B1650263758447S06010997WA0217102239000084015000
B1650303758434S06011085WA0216902238000088015000
B1650343758417S06011175WA0216902239000084015000
B1650383758401S06011262WA0217002239000080015000
B1650423758377S06011341WA0217102239000076015000
B1650463758351S06011416WA0216902235000076015000
B1650503758326S06011488WA0215802217000088015000
B1650543758304S06011565WA0214702218000080015000
B1650583758290S06011637WA0214802218000068015000
B1651023758277S06011702WA0214902215000060015000
B1651063758268S06011769WA0213902206000068015000
B1651103758265S06011838WA0213602203000060015000
B1651143758267S06011910WA0213702203000052015000
B1651183758267S06011978WA0213502199000060015000
B1651223758251S06012046WA0213202196000060015000
B1651263758230S06012108WA0213602206000064015000
B1651303758212S06012172WA0213802203000064015000
B1651343758196S06012241WA0213202196000068015000
B1651383758178S06012313WA0213102200000080015000
B1651423758167S06012383WA0213402201000068015000
B1651463758159S06012456WA0212802192000068015000
B1651503758146S06012531WA0211702181000076015000
B1651543758120S06012604WA0211102177000072000000
B1651583758081S06012667WA0211302181000072000000
B1652023758033S06012721WA0211702181000072000000
B1652063757988S06012778WA0211402179000064015000
B1652103757952S06012844WA0211302180000068015000
B1652143757921S06012909WA0211802184000060015000
B1652183757897S06012979WA0211402181000056015000
B1652223757870S06013056WA0211902180000060015000
B1652263757861S06013141WA0212502187000060015000
B1652303757887S06013216WA0213802201000060015000
B1652343757947S06013255WA0214302212000064015000
B1652383758022S06013224WA0215202217000064015000
B1652423758081S06013134WA0215102215000060015000
B1652463758094S06013020WA0215002216000068030000
B1652503758055S06012926WA0215702224000072030000
B1652543757991S06012885WA0216902238000068045000
B1652583757930S06012898WA0217902243000068045000
B1653023757903S06012957WA0218402247000064045000
B1653063757931S06013024WA0218902253000068045000
B1653103757996S06013047WA0219102256000068045000
B1653143758070S06013016WA0219402261000068030000
B1653183758128S06012938WA0219702264000068030000
B1653223758146S06012831WA0219602258000072030000
B1653263758141S06012719WA0219102257000084030000
B1653303758107S06012627WA0219702268000076015000
B1653343758047S06012588WA0220402268000076030000
B1653383757995S06012622WA0220202269000084030000
B1653423757999S06012691WA0220902277000076030000
B1653463758065S06012700WA0221802288000076030000
B1653503758108S06012614WA0222602294000068045000
B1653543758070S06012534WA0223102300000068045000
B1653583758018S06012550WA0223402305000064060000
B1654023758025S06012612WA0223802307000072045000
B1654063758094S06012614WA0224302319000072045000
B1654103758139S06012530WA0225302324000064045000
B1654143758115S06012439WA0225302327000064060000
B1654183758057S06012427WA0225902332000072060000
B1654223758042S06012482WA0226302336000076060000
B1654263758098S06012509WA0226902343000076045000
B1654303758159S06012449WA0227402346000076045000
B1654343758170S06012346WA0227402346000076060000
B1654383758131S06012268WA0227802353000076060000
B1654423758073S06012245WA0228102353000076060000
B1654463758024S06012268WA0228002353000072060000
B1654503758017S06012335WA0227802351000080045000
B1654543758064S06012384WA0227702350000092045000
B1654583758139S06012363WA0227802354000084045000
B1655023758193S06012279WA0228102358000080045000
B1655063758211S06012172WA0228102356000084045000
B1655103758182S06012073WA0227602349000084045000
B1655143758125S06012003WA0227802350000088045000
B1655183758056S06011988WA0228002356000096060000
B1655223758004S06012023WA0228302356000096045000
B1655263757988S06012094WA0228102353000092045000
B1655303758022S06012154WA0228002350000112045000
B1655343758095S06012158WA0227702347000108045000
B1655383758169S06012110WA0227802350000108030000
B1655423758216S06012019WA0228302356000096030000
B1655463758207S06011915WA0228402353000096030000
B1655503758148S06011858WA0227802344000080045000
B1655543758087S06011877WA0226902338000072045000
B1655583758052S06011939WA0226302330000064045000
B1656023758044S06012019WA0225702321000060030000
B1656063758048S06012106WA0224502308000056030000
B1656103758059S06012198WA0223302301000060030000
B1656143758066S06012292WA0222902291000076030000
B1656183758072S06012388WA0221702281000068030000
B1656223758074S06012484WA0220802271000088015000
B1656263758069S06012579WA0220002263000088015000
B1656303758060S06012673WA0218502246000092015000
B1656343758044S06012764WA0218102249000096015000
B1656383758018S06012848WA0218702255000112015000
B1656423758000S06012930WA0219102258000112015000
B1656463757998S06013012WA0219302261000096015000
B1656503758011S06013090WA0219602266000080015000
B1656543758037S06013160WA0219202259000076015000
B1656583758068S06013230WA0218402251000072015000
B1657023758103S06013302WA0217602242000076015000
B1657063758128S06013379WA0217302244000068015000
B1657103758138S06013453WA0218402255000064015000
B1657143758147S06013523WA0218802253000060015000
B1657183758155S06013596WA0218102245000076015000
B1657223758159S06013668WA0217802245000072015000
B1657263758157S06013735WA0218202253000068015000
B1657303758152S06013796WA0218102248000064015000
B1657343758144S06013857WA0217902247000076015000
B1657383758133S06013919WA0217202235000072015000
B1657423758111S06013982WA0216002226000068015000
B1657463758085S06014042WA0215302220000064015000
B1657503758057S06014103WA0214702210000072015000
B1657543758034S06014165WA0213802204000060015000
B1657583758008S06014226WA0213202195000064015000
B1658023757979S06014287WA0212202185000068015000
B1658063757940S06014341WA0211002174000068015000
B1658103757875S06014364WA0210102167000084015000
B1658143757800S06014346WA0209502161000080015000
B1658183757728S06014282WA0208402157000080015000
B1658223757679S06014181WA0207802157000084030000
B1658263757650S06014070WA0208002155000088015000
B1658303757631S06013957WA0208002150000088015000
B1658343757613S06013841WA0207202138000088015000
B1658383757602S06013719WA0206102125000088015000
B1658423757608S06013590WA0205402117000076015000
B1658463757631S06013462WA0204002103000076015000
B1658503757670S06013338WA0203002096000096015000
B1658543757717S06013220WA0202602091000092015000
B1658583757765S06013103WA0202102084000084015000
B1659023757806S06012981WA0201702082000080015000
B1659063757838S06012860WA0201702085000120015000
B1659103757852S06012739WA0201602079000100015000
B1659143757830S06012622WA0200702072000104015000
B1659183757782S06012521WA0200102064000080015000
B1659223757725S06012426WA0199902067000080015000
B1659263757671S06012335WA0200302070000064015000
B1659303757615S06012251WA0199902063000056015000
B1659343757558S06012170WA0199202057000056015000
B1659383757504S06012093WA0199902073000060015000
B1659423757448S06012053WA0201502085000064015000
B1659463757414S06012082WA0202202085000072015000
B1659503757442S06012129WA0202402092000076015000
B1659543757506S06012110WA0203102097000076015000
B1659583757545S06012024WA0203702100000080030000
B1700023757535S06011933WA0204402108000084030000
B1700063757487S06011910WA0204902110000084030000
B1700103757481S06011954WA0204502105000080030000
B1700143757540S06011963WA0204302106000088030000
B1700183757588S06011889WA0205002115000080030000
B1700223757584S06011796WA0205602118000080045000
B1700263757544S06011726WA0205402115000084045000
B1700303757492S06011718WA0205002114000080060000
B1700343757487S06011763WA0205202111000076045000
B1700383757544S06011772WA0204302104000068045000
B1700423757593S06011694WA0204402111000068045000
B1700463757580S06011603WA0205202112000096045000
B1700503757532S06011544WA0205202110000100045000
B1700543757474S06011520WA0204602104000092045000
B1700583757414S06011520WA0203702092000088030000
B1701023757357S06011531WA0202602082000104030000
B1701063757307S06011557WA0202202080000108030000
B1701103757270S06011599WA0202102078000164030000
B1701143757242S06011652WA0202302080000156030000
B1701183757228S06011713WA0202402080000140015000
B1701223757232S06011778WA0202102076000132015000
B1701263757244S06011847WA0201902072000116015000
B1701303757257S06011920WA0201802075000100015000
B1701343757271S06011991WA0202002069000112015000
B1701383757294S06012068WA0200702055000136015000
B1701423757324S06012149WA0199702051000108015000
B1701463757342S06012232WA0199402048000100015000
B1701503757349S06012314WA0199502049000092015000
B1701543757346S06012394WA0199202045000076015000
B1701583757344S06012480WA0198302033000068015000
B1702023757344S06012570WA0197102022000108015000
B1702063757346S06012661WA0196402016000096015000
B1702103757349S06012749WA0195902009000076015000
B1702143757351S06012840WA0194501997000080015000
B1702183757349S06012934WA0193801993000080015000
B1702223757346S06013026WA0193501987000072015000
B1702263757345S06013116WA0193501990000080015000
B1702303757341S06013203WA0193101986000068015000
B1702343757338S06013286WA0193001984000060000000
B1702383757332S06013369WA0192401977000060000000
B1702423757325S06013451WA0192601986000076000000
B1702463757320S06013529WA0193701998000088000000
B1702503757316S06013603WA0194001994000084000000
B1702543757309S06013679WA0192901984000076000000
B1702583757296S06013754WA0192801985000068000000
B1703023757284S06013830WA0192701985000060015000
B1703063757275S06013905WA0193101989000072015000
B1703103757258S06013974WA0193801993000088015000
B1703143757241S06014039WA0194302000000088015000
B1703183757228S06014103WA0195502014000084015000
B1703223757253S06014161WA0196102016000096015000
B1703263757320S06014165WA0196602025000088015000
B1703303757362S06014081WA0197802041000076015000
B1703343757336S06013992WA0198602037000076030000
B1703383757276S06013983WA0198402043000072045000
B1703423757262S06014035WA0199402055000060060000
B1703463757284S06014090WA0200002058000056030000
B1703503757346S06014103WA0200402065000116030000
B1703543757393S06014025WA0201502084000092030000
B1703583757363S06013941WA0203102091000088045000
B1704023757309S06013944WA0203002091000080045000
B1704063757324S06014000WA0203402102000104045000
B1704103757387S06013969WA0204802118000088045000
B1704143757385S06013873WA0206102118000076045000
B1704183757323S06013841WA0205802123000072060000
B1704223757286S06013887WA0206602130000072060000
B1704263757307S06013940WA0207502139000092030000
B1704303757374S06013918WA0208302147000104030000
B1704343757394S06013824WA0209202155000096030000
B1704383757346S06013754WA0209902158000104045000
B1704423757293S06013775WA0210302163000096060000
B1704463757301S06013837WA0210502164000084045000
B1704503757370S06013839WA0210902173000076030000
B1704543757420S06013759WA0212402181000064045000
B1704583757392S06013670WA0212902190000064045000
B1705023757348S06013693WA0213802202000072045000
B1705063757385S06013731WA0214702211000080045000
B1705103757445S06013685WA0215102217000104030000
B1705143757461S06013588WA0216002224000084045000
B1705183757419S06013509WA0216402227000076060000
B1705223757358S06013501WA0216302229000072060000
B1705263757331S06013550WA0217202237000064045000
B1705303757324S06013609WA0217302234000080045000
B1705343757325S06013674WA0216702228000076030000
B1705383757376S06013717WA0217302246000072030000
B1705423757439S06013672WA0219302261000072030000
B1705463757445S06013572WA0220602273000072030000
B1705503757389S06013520WA0221702287000068045000
B1705543757351S06013562WA0222602290000076060000
B1705583757388S06013616WA0222902296000092045000
B1706023757452S06013581WA0224602315000104045000
B1706063757461S06013484WA0226202331000080045000
B1706103757414S06013411WA0227602344000068060000
B1706143757355S06013412WA0228302352000072060000
B1706183757336S06013466WA0229102356000080045000
B1706223757368S06013511WA0229702366000080045000
B1706263757431S06013488WA0230702373000084045000
B1706303757461S06013401WA0231602380000100045000
B1706343757427S06013312WA0232102389000088060000
B1706383757362S06013302WA0232602395000096060000
B1706423757346S06013362WA0232902400000096060000
B1706463757400S06013389WA0233602406000080045000
B1706503757458S06013328WA0234202412000080045000
B1706543757459S06013220WA0234902418000084045000
B1706583757402S06013151WA0235602425000084060000
B1707023757345S06013172WA0235502424000080060000
B1707063757342S06013236WA0235602431000080060000
B1707103757392S06013268WA0236302440000080045000
B1707143757455S06013233WA0237002443000072045000
B1707183757488S06013142WA0237502453000064030000
B1707223757461S06013048WA0238702467000064030000
B1707263757400S06013011WA0238902465000064030000
B1707303757358S06013055WA0237802461000064030000
B1707343757394S06013104WA0238202469000064030000
B1707383757458S06013090WA0239002471000072030000
B1707423757524S06013047WA0239002469000076030000
B1707463757592S06012992WA0239402472000068030000
B1707503757658S06012926WA0240002475000060030000
B1707543757718S06012851WA0241402482000056030000
B1707583757748S06012744WA0241902486000052030000
B1708023757708S06012648WA0242902500000052030000
B1708063757645S06012649WA0243902512000060045000
B1708103757649S06012704WA0244202516000072045000
B1708143757710S06012706WA0244402523000080030000
B1708183757767S06012643WA0244802529000072030000
B1708223757777S06012537WA0245602535000068045000
B1708263757723S06012467WA0246502550000080045000
B1708303757669S06012485WA0247402557000104045000
B1708343757673S06012541WA0247902559000108045000
B1708383757734S06012543WA0248002563000104030000
B1708423757779S06012463WA0248702568000092030000
B1708463757756S06012370WA0249302575000084045000
B1708503757692S06012350WA0249602577000076045000
B1708543757670S06012402WA0250002581000076045000
B1708583757717S06012435WA0250002580000080045000
B1709023757778S06012374WA0250102582000072045000
B1709063757773S06012270WA0250702592000072045000
B1709103757712S06012215WA0251202591000084045000
B1709143757660S06012249WA0250902588000096045000
B1709183757678S06012309WA0250402583000080045000
B1709223757747S06012296WA0250202586000084030000
B1709263757788S06012199WA0250602587000084030000
B1709303757757S06012095WA0250802593000084045000
B1709343757688S06012068WA0251502600000080045000
B1709383757650S06012114WA0251802598000104045000
B1709423757671S06012167WA0251502595000084030000
B1709463757739S06012158WA0251202595000112030000
B1709503757791S06012076WA0251202594000104030000
B1709543757780S06011964WA0251202599000096045000
B1709583757715S06011907WA0251502602000088045000
B1710023757657S06011934WA0251502600000072045000
B1710063757656S06011998WA0251102596000080045000
B1710103757713S06012025WA0250602589000080045000
B1710143757784S06011977WA0250302585000092030000
B1710183757830S06011881WA0250302588000100030000
B1710223757816S06011769WA0250602586000104030000
B1710263757748S06011699WA0249902581000100030000
B1710303757671S06011696WA0250102587000092045000
B1710343757636S06011751WA0250402590000092045000
B1710383757658S06011813WA0250502590000108045000
B1710423757717S06011837WA0250302585000108045000
B1710463757791S06011832WA0249902580000104030000
B1710503757866S06011825WA0250202581000096030000
B1710543757938S06011817WA0250302582000132030000
B1710583758008S06011822WA0249802579000104030000
B1711023758081S06011830WA0248402574000084030000
B1711063758156S06011838WA0248202574000076030000
B1711103758233S06011848WA0247702571000064030000
B1711143758310S06011851WA0248002575000064030000
B1711183758389S06011846WA0248102578000068030000
B1711223758469S06011842WA0248802582000060030000
B1711263758547S06011843WA0249702586000056030000
B1711303758624S06011837WA0250302590000056030000
B1711343758702S06011809WA0250202588000056030000
B1711383758775S06011743WA0250202591000064015000
B1711423758824S06011651WA0250802593000068030000
B1711463758850S06011544WA0250702591000064030000
B1711503758850S06011436WA0251302592000068030000
B1711543758836S06011331WA0251902595000064030000
B1711583758807S06011240WA0252302598000064030000
B1712023758757S06011183WA0253202606000060030000
B1712063758706S06011197WA0253902614000068045000
B1712103758693S06011254WA0254602621000068030000
B1712143758711S06011322WA0254602618000068030000
B1712183758762S06011377WA0254102616000064030000
B1712223758841S06011375WA0254102622000064030000
B1712263758896S06011297WA0254802631000084030000
B1712303758892S06011200WA0255302628000084045000
B1712343758836S06011158WA0254202616000080045000
B1712383758789S06011202WA0254002619000084075000
B1712423758776S06011275WA0254202621000092045000
B1712463758813S06011340WA0254402629000080045000
B1712503758887S06011335WA0254902630000072045000
B1712543758943S06011253WA0254402623000076045000
B1712583758950S06011146WA0254602623000084045000
B1713023758914S06011062WA0254302619000080045000
B1713063758853S06011046WA0254002618000076060000
B1713103758805S06011085WA0253802614000080045000
B1713143758783S06011153WA0253002611000080045000
B1713183758788S06011234WA0252302606000076045000
B1713223758839S06011288WA0252302612000072045000
B1713263758915S06011267WA0253002616000064030000
B1713303758973S06011179WA0252202600000064030000
B1713343758974S06011061WA0250602586000088045000
B1713383758936S06010963WA0250002584000080060000
B1713423758872S06010918WA0249802579000076060000
B1713463758811S06010933WA0249302572000076060000
B1713503758804S06011009WA0248402563000072060000
B1713543758845S06011072WA0247802558000080045000
B1713583758923S06011080WA0247302551000088045000
B1714023759002S06011026WA0246402546000092030000
B1714063759066S06010933WA0245002522000088030000
B1714103759095S06010811WA0243502508000092030000
B1714143759083S06010685WA0242502502000084030000
B1714183759075S06010561WA0242402502000100030000
B1714223759118S06010451WA0242702505000120030000
B1714263759199S06010396WA0243502511000112030000
B1714303759278S06010372WA0244102518000112030000
B1714343759352S06010359WA0244102520000116030000
B1714383759425S06010369WA0243802518000100030000
B1714423759478S06010412WA0243402516000096030000
B1714463759511S06010472WA0242702511000096030000
B1714503759520S06010533WA0242302509000080030000
B1714543759499S06010586WA0241702506000084030000
B1714583759455S06010633WA0240102499000088030000
B1715023759398S06010671WA0239302493000080030000
B1715063759334S06010706WA0238002486000096030000
B1715103759269S06010745WA0236302478000096045000
B1715143759203S06010788WA0234602470000100045000
B1715183759132S06010832WA0233202461000124045000
B1715223759060S06010873WA0232602459000132045000
B1715263758983S06010901WA0232202456000136045000
B1715303758897S06010888WA0231702451000104045000
B1715343758819S06010819WA0231002443000092045000
B1715383758766S06010710WA0230602432000096060000
B1715423758753S06010580WA0230002420000092075000
B1715463758791S06010454WA0230402413000096075000
B1715503758840S06010340WA0231102412000096060000
B1715543758871S06010225WA0232002414000100060000
B1715583758897S06010104WA0231902407000096045000
B1716023758930S06009980WA0231602403000092045000
B1716063758970S06009866WA0233302409000084045000
B1716103758995S06009746WA0234102414000072045000
B1716143759002S06009623WA0234602415000076045000
B1716183758989S06009503WA0235102420000068030000
B1716223758945S06009407WA0235602424000060030000
B1716263758878S06009359WA0236502432000064045000
B1716303758813S06009367WA0237502444000060060000
B1716343758778S06009421WA0238202452000060060000
B1716383758796S06009495WA0239402456000056045000
B1716423758856S06009534WA0240402472000060045000
B1716463758931S06009510WA0241702485000056030000
B1716503758983S06009424WA0242702491000052045000
B1716543758980S06009316WA0243202496000060045000
B1716583758939S06009230WA0243602503000060045000
B1717023758875S06009185WA0244002505000064030000
B1717063758805S06009182WA0244102504000084030000
B1717103758768S06009254WA0244502506000104030000
B1717143758766S06009337WA0244502506000120030000
B1717183758813S06009403WA0244102505000108030000
B1717223758888S06009420WA0243902503000108030000
B1717263758975S06009399WA0244102504000104030000
B1717303759060S06009356WA0244302507000092030000
B1717343759135S06009286WA0245202515000080030000
B1717383759181S06009182WA0245702521000076030000
B1717423759177S06009065WA0245702522000076030000
B1717463759119S06008990WA0245702524000068030000
B1717503759049S06008961WA0245602521000100045000
B1717543758978S06008959WA0245602522000104045000
B1717583758926S06009003WA0246002523000104045000
B1718023758910S06009077WA0247002528000096045000
B1718063758932S06009146WA0248002536000080030000
B1718103758995S06009181WA0248002534000080030000
B1718143759075S06009154WA0247802537000076030000
B1718183759143S06009078WA0248402546000068030000
B1718223759186S06008977WA0248602550000064030000
B1718263759203S06008860WA0248702552000064030000
B1718303759194S06008741WA0248602552000064030000
B1718343759156S06008639WA0248602555000076030000
B1718383759110S06008548WA0248902560000076030000
B1718423759051S06008483WA0249602566000064030000
B1718463758982S06008452WA0250102570000064030000
B1718503758909S06008429WA0250002571000072030000
B1718543758869S06008478WA0250402579000076030000
B1718583758885S06008544WA0250402576000072030000
B1719023758928S06008606WA0249202572000072030000
B1719063758992S06008670WA0248802571000076030000
B1719103759057S06008722WA0249102575000072030000
B1719143759136S06008738WA0248902575000068030000
B1719183759221S06008699WA0249302578000060030000
B1719223759279S06008609WA0250102583000088030000
B1719263759287S06008492WA0250602590000088045000
B1719303759238S06008405WA0251502604000100045000
B1719343759173S06008392WA0252802610000108045000
B1719383759126S06008433WA0252602609000100045000
B1719423759129S06008510WA0251702603000104030000
E171945PEV
B1719453759169S06008554WA0251202598000104030000
B1719453759169S06008554WA0251202598000104030000
B1719473759209S06008562WA0251102599000096030000
B1719483759231S06008557WA0251002600000124030000
B1719493759252S06008548WA0251102601000124030000
B1719503759272S06008532WA0251302602000124030000
B1719513759288S06008514WA0251502603000120030000
B1719523759304S06008492WA0251702604000116030000
B1719533759316S06008467WA0251902606000116030000
B1719543759325S06008440WA0252002607000116030000
B1719553759330S06008411WA0252202608000112045000
B1719563759333S06008383WA0252302610000108045000
B1719573759331S06008355WA0252502611000108045000
B1719583759327S06008328WA0252802612000120045000
B1719593759320S06008302WA0252902612000120045000
B1720003759311S06008277WA0253002612000128045000
B1720013759299S06008255WA0253102612000124045000
B1720053759234S06008206WA0253302612000104045000
B1720093759166S06008215WA0252602607000084045000
B1720133759135S06008280WA0252302602000084045000
B1720173759152S06008362WA0252002597000072030000
B1720213759217S06008407WA0251702599000068030000
B1720253759298S06008389WA0251902603000060030000
B1720293759366S06008320WA0252302605000068030000
B1720333759411S06008215WA0252102601000076015000
B1720373759418S06008094WA0252002599000072015000
B1720413759376S06007997WA0251802601000072030000
B1720453759305S06007967WA0251902599000088030000
B1720493759252S06008007WA0251402592000096045000
B1720533759223S06008075WA0251202588000096030000
B1720573759240S06008150WA0251002588000096030000
B1721013759311S06008180WA0251202591000088030000
B1721053759389S06008150WA0251102587000088030000
B1721093759454S06008068WA0251102590000088045000
B1721133759500S06007964WA0251102589000084045000
B1721173759530S06007854WA0251702593000088045000
B1721213759530S06007742WA0252002596000092045000
B1721253759490S06007651WA0252202598000084030000
B1721293759426S06007621WA0252302597000068045000
B1721333759368S06007635WA0251802593000072045000
B1721373759344S06007701WA0251402588000072045000
B1721413759357S06007774WA0251302585000060030000
B1721453759398S06007838WA0250702580000052030000
B1721493759473S06007859WA0250702583000048030000
B1721533759546S06007813WA0251002588000048030000
B1721573759587S06007720WA0251202592000056030000
B1722013759600S06007616WA0251402593000084030000
B1722053759590S06007508WA0250902588000088030000
B1722093759565S06007404WA0250302584000084030000
B1722133759525S06007314WA0250202584000080030000
B1722173759469S06007246WA0250102582000076030000
B1722213759402S06007228WA0249302576000080030000
B1722253759351S06007266WA0249202573000080030000
B1722293759360S06007345WA0249502573000064030000
B1722333759404S06007402WA0248902569000080030000
B1722373759491S06007408WA0248202562000068030000
B1722413759577S06007369WA0246902556000068030000
B1722453759643S06007278WA0245402548000072030000
B1722493759675S06007159WA0244802542000068030000
B1722533759658S06007045WA0244502534000060030000
B1722573759600S06006950WA0243502525000068030000
B1723013759519S06006895WA0241902514000092030000
B1723053759430S06006873WA0240402506000084030000
B1723093759340S06006859WA0239402498000084030000
B1723133759251S06006833WA0238802493000096030000
B1723173759160S06006804WA0237602486000092045000
B1723213759066S06006785WA0236902481000092045000
B1723253758976S06006784WA0236302476000080045000
B1723293758888S06006786WA0235602467000092045000
B1723333758800S06006795WA0235002461000100045000
B1723373758714S06006810WA0235002458000088045000
B1723413758636S06006829WA0235902460000096045000
B1723453758572S06006863WA0236002459000084045000
B1723493758547S06006929WA0235802453000076030000
B1723533758567S06006999WA0235102445000072030000
B1723573758627S06007041WA0234702438000076030000
B1724013758698S06007054WA0234502434000064030000
B1724053758771S06007037WA0234502434000052030000
B1724093758828S06006964WA0234502432000064030000
B1724133758844S06006851WA0234502430000080030000
B1724173758817S06006742WA0234702426000084030000
B1724213758754S06006669WA0234802426000108030000
B1724253758688S06006669WA0234902422000128030000
B1724293758658S06006726WA0234502416000108030000
B1724333758677S06006790WA0234202415000100030000
B1724373758753S06006775WA0234002412000092030000
B1724413758814S06006704WA0233002406000100030000
B1724453758876S06006613WA0232102397000128045000
B1724493758930S06006511WA0231102389000108045000
B1724533758986S06006405WA0230702383000084045000
B1724573759045S06006300WA0229802376000080045000
B1725013759112S06006196WA0228902373000068045000
B1725053759181S06006096WA0228402371000100045000
B1725093759255S06006005WA0227802367000116045000
B1725133759330S06005926WA0228002367000116045000
B1725173759402S06005855WA0228802370000088060000
B1725213759463S06005780WA0229202373000088060000
B1725253759528S06005703WA0228402372000068060000
B1725293759611S06005683WA0229002372000072060000
B1725333759684S06005729WA0229402373000076045000
B1725373759725S06005806WA0228902370000104045000
B1725413759737S06005897WA0227802363000088045000
B1725453759740S06005989WA0226702358000080045000
B1725493759742S06006084WA0225302354000080045000
B1725533759745S06006180WA0224602351000084045000
B1725573759751S06006275WA0224402351000080045000
B1726013759766S06006364WA0224702353000076045000
B1726053759781S06006448WA0225302356000084045000
B1726093759788S06006530WA0225202357000084045000
B1726133759785S06006616WA0225502359000080045000
B1726173759768S06006694WA0225802363000084045000
B1726213759742S06006769WA0226102365000092045000
B1726253759727S06006850WA0226702368000076045000
B1726293759740S06006937WA0226802363000068045000
B1726333759816S06006980WA0227602364000072030000
B1726373759893S06006927WA0228902372000072030000
B1726413759903S06006820WA0230002372000072045000
B1726453759853S06006764WA0230402380000072045000
B1726493759805S06006781WA0231002383000076045000
B1726533759771S06006829WA0230702383000076045000
B1726573759738S06006886WA0230602382000076045000
B1727013759702S06006949WA0230902385000068045000
B1727053759681S06007023WA0231402387000060045000
B1727093759695S06007103WA0232902393000064030000
B1727133759772S06007128WA0234902409000092030000
B1727173759842S06007072WA0236902419000076030000
B1727213759863S06006972WA0237702424000064045000
B1727253759824S06006897WA0238202435000068045000
B1727293759766S06006892WA0238802443000068060000
B1727333759730S06006941WA0239802455000060045000
B1727373759755S06007007WA0241502467000052030000
B1727413759825S06007024WA0242502478000048030000
B1727453759886S06006950WA0243402484000048030000
B1727493759867S06006858WA0243902493000052045000
B1727533759806S06006825WA0244502501000052045000
B1727573759745S06006841WA0245002506000056045000
B1728013759721S06006915WA0245602512000064030000
B1728053759764S06006977WA0246602519000064030000
B1728093759836S06006960WA0247602520000084030000
B1728133759898S06006873WA0247302515000080045000
B1728173759927S06006759WA0247202513000092045000
B1728213759918S06006651WA0247702520000080045000
B1728253759863S06006582WA0248702533000072030000
B1728293759801S06006580WA0249402541000076030000
B1728333759769S06006642WA0249502547000084030000
B1728373759792S06006726WA0249802553000080030000
B1728413759868S06006759WA0250202563000104030000
B1728453759945S06006710WA0251602572000088030000
B1728493759980S06006608WA0252402578000076030000
B1728533759951S06006511WA0253002586000072030000
B1728573759889S06006482WA0253702594000076030000
B1729013759845S06006535WA0254202601000072030000
B1729053759862S06006619WA0254502605000088030000
B1729093759955S06006596WA0254302611000088030000
B1729133759993S06006495WA0255302624000076030000
B1729173759958S06006409WA0256102638000088045000
B1729213759901S06006409WA0256902644000072045000
B1729253759858S06006460WA0256502643000072045000
B1729293759824S06006530WA0255702640000096045000
B1729333759789S06006604WA0255002636000112045000
B1729373759753S06006681WA0254002631000092045000
B1729413759716S06006756WA0253502626000084045000
B1729453759684S06006833WA0252802619000076045000
B1729493759664S06006911WA0252302613000064045000
B1729533759667S06006994WA0251702606000064030000
B1729573759736S06007044WA0250502597000064030000
B1730013759829S06007024WA0249702590000052030000
B1730053759920S06006959WA0248202583000052030000
B1730093800010S06006879WA0247102578000048060000
B1730133800096S06006788WA0246202565000064090000
B1730173800182S06006693WA0244502550000076135000
B1730213800270S06006595WA0242502535000064195000
B1730253800364S06006504WA0241102522000080000000
B1730293800461S06006420WA0239602509000072030000
B1730333800560S06006335WA0238402491000072060000
B1730373800661S06006252WA0237302477000084075000
B1730413800764S06006169WA0236502466000092060000
B1730453800864S06006083WA0235802454000084060000
B1730493800963S06005997WA0235002439000080045000
B1730533801060S06005907WA0233802426000072045000
B1730573801157S06005816WA0233002420000064075000
B1731013801250S06005725WA0232602414000068045000
B1731053801345S06005647WA0232702417000076045000
B1731093801436S06005577WA0232902417000072000000
B1731133801526S06005507WA0232702420000064225000
B1731173801614S06005437WA0232302421000068225000
B1731213801701S06005367WA0231802420000068225000
B1731253801786S06005294WA0231302419000072225000
B1731293801873S06005229WA0231202415000068225000
B1731333801951S06005164WA0231702415000068225000
B1731373802028S06005095WA0231202414000060225000
B1731413802107S06005020WA0229902409000060210000
B1731453802189S06004943WA0228902399000076195000
B1731493802272S06004864WA0228002392000076180000
B1731533802356S06004786WA0227702388000076180000
B1731573802441S06004709WA0227802386000076165000
B1732013802524S06004631WA0227502382000084150000
B1732053802611S06004553WA0227302379000084150000
B1732093802696S06004475WA0226702375000080135000
B1732133802780S06004393WA0226002369000072135000
B1732173802867S06004305WA0224502355000068120000
B1732213802960S06004212WA0222702338000064135000
B1732253803055S06004119WA0221502329000080150000
B1732293803151S06004028WA0221402330000112180000
B1732333803244S06003938WA0221302323000108195000
B1732373803339S06003852WA0220602316000104225000
B1732413803438S06003773WA0220202305000104225000
B1732453803538S06003695WA0219602299000096015000
B1732493803637S06003618WA0219102290000092015000
B1732533803736S06003543WA0218402282000100015000
B1732573803835S06003470WA0218302277000092030000
B1733013803932S06003397WA0217702264000088045000
B1733053804030S06003322WA0217302255000088045000
B1733093804127S06003246WA0216502246000088045000
B1733133804225S06003171WA0215802235000088060000
B1733173804325S06003097WA0215102227000080045000
B1733213804423S06003024WA0214802223000080030000
B1733253804521S06002947WA0214102214000076030000
B1733293804616S06002867WA0213302206000072030000
B1733333804711S06002785WA0212802201000072015000
B1733373804804S06002700WA0211802186000068015000
B1733413804902S06002613WA0210302171000068015000
B1733453805001S06002527WA0209702169000076030000
B1733493805099S06002440WA0209402164015080030000
B1733533805202S06002358WA0210302178015076060000
B1733573805285S06002265WA0211102180015072045000
B1734013805362S06002158WA0211102180015068030000
B1734053805435S06002050WA0210702173000064000000
B1734093805505S06001937WA0209802161000060210000
B1734133805577S06001820WA0208302138000060195000
B1734173805648S06001698WA0206702125000076165000
B1734213805713S06001582WA0207002138000092150000
B1734253805775S06001474WA0208002140000092105000
B1734293805840S06001370WA0208002137000092075000
B1734333805889S06001257WA0208702143000100060000
B1734373805938S06001148WA0209002145000092060000
B1734413805985S06001044WA0209802152000088060000
B1734453806035S06000932WA0209702152000092045000
B1734493806093S06000817WA0210002154000084045000
B1734533806154S06000697WA0208702138000080045000
B1734573806227S06000581WA0207602134000076060000
B1735013806306S06000472WA0206602123000076075000
B1735053806390S06000367WA0205302112000076105000
B1735093806475S06000265WA0204602108000072120000
B1735133806557S06000168WA0204002101000068135000
B1735173806639S06000072WA0203102097000076180000
B1735213806718S05959989WA0204002108000072180000
B1735253806796S05959929WA0205002115000064150000
B1735293806877S05959873WA0204102116000056135000
B1735333806964S05959816WA0202502108000060135000
B1735373807057S05959761WA0202702105000064135000
B1735413807135S05959693WA0202602107000064135000
B1735453807216S05959613WA0201202101000060135000
B1735493807296S05959524WA0199702091000056120000
B1735533807380S05959430WA0198402082000060135000
B1735573807462S05959336WA0197402084000064165000
B1736013807542S05959246WA0197502083000088180000
B1736053807629S05959163WA0196102075000096165000
B1736093807729S05959094WA0194902072000124195000
B1736133807833S05959043WA0195002082000140225000
B1736173807932S05959002WA0195102083000108210000
B1736213808035S05958956WA0194002090000104210000
B1736253808141S05958908WA0192302089000088225000
B1736293808248S05958851WA0191502094000108030000
B1736333808349S05958794WA0191302099000120090000
B1736373808446S05958728WA0190402087000092135000
B1736413808490S05958637WA0190402010000084225000
B1736453808543S05958525WA0190902003000112210000
B1736493808590S05958412WA0191601998000108120000
B1736533808632S05958286WA0189801977000088090000
B1736573808676S05958150WA0187501953000100090000
B1737013808724S05958016WA0186201940000088105000
B1737053808755S05957880WA0185401933000084120000
B1737093808767S05957749WA0186001929000080105000
B1737133808790S05957619WA0186101926000104075000
B1737173808841S05957498WA0185601923000128060000
B1737213808903S05957394WA0185901926000148060000
B1737253808968S05957295WA0185301925000132060000
B1737293809032S05957194WA0183701914000116045000
B1737333809092S05957083WA0182701904000112045000
B1737373809144S05956966WA0181901896000116045000
B1737413809183S05956844WA0182101898000120075000
B1737453809235S05956752WA0183001891000104060000
B1737493809300S05956668WA0182601886000088060000
B1737533809363S05956593WA0182901886000084045000
B1737573809423S05956510WA0181601879000080045000
B1738013809497S05956425WA0180001870000096045000
B1738053809579S05956354WA0180201867000132060000
B1738093809659S05956285WA0180701870000116060000
B1738133809734S05956204WA0180301868000108060000
B1738173809808S05956117WA0179901865000112060000
B1738213809878S05956027WA0180001864000120060000
B1738253809948S05955938WA0180001863000108060000
B1738293810019S05955851WA0179801861000096060000
B1738333810090S05955760WA0178701854000104060000
B1738373810160S05955662WA0177401845000092060000
B1738413810228S05955559WA0176301834000092060000
B1738453810290S05955457WA0175401827000084045000
B1738493810340S05955349WA0175501824000088045000
B1738533810383S05955234WA0174801815000084045000
B1738573810446S05955130WA0174001812000080045000
B1739013810533S05955067WA0174701815000072045000
B1739053810622S05955026WA0176501822000068045000
B1739093810695S05954965WA0178301825000064045000
B1739133810712S05954859WA0180001832000060045000
B1739173810670S05954761WA0180801838000084045000
B1739213810613S05954735WA0181501845000092030000
B1739253810578S05954804WA0181801850000104030000
B1739293810591S05954881WA0181701850000084030000
B1739333810623S05954948WA0182501854000076030000
B1739373810697S05954916WA0183401856000068030000
B1739413810756S05954825WA0184101860000060030000
B1739453810753S05954714WA0184701863000068030000
B1739493810700S05954644WA0185001868000076030000
B1739533810649S05954655WA0184801870000076030000
B1739573810656S05954742WA0185501885000076030000
B1740013810717S05954772WA0186001888000076030000
B1740053810790S05954748WA0185801883000080030000
B1740093810858S05954686WA0186901885000108045000
B1740133810917S05954599WA0187901892000096045000
B1740173810948S05954495WA0188401898000084030000
B1740213810926S05954389WA0189001909000084030000
B1740253810862S05954352WA0189801922000092030000
B1740293810825S05954402WA0190201932000096030000
B1740333810853S05954461WA0190501937000128030000
B1740373810907S05954480WA0190701936000112030000
B1740413810978S05954423WA0191301936000096030000
B1740453811018S05954322WA0191201937000092030000
B1740493810981S05954228WA0191901946000084030000
B1740533810926S05954196WA0192101951000080015000
B1740573810916S05954282WA0192101956000208030000
B1741013810959S05954334WA0192601962000192015000
B1741053811025S05954310WA0193001964000180030000
B1741093811087S05954231WA0193001961000136030000
B1741133811139S05954133WA0192901961000112030000
B1741173811183S05954025WA0192901960000100030000
B1741213811232S05953924WA0193101960000084030000
B1741253811286S05953827WA0192701960000080030000
B1741293811345S05953729WA0191901954000088030000
B1741333811408S05953634WA0191501949000092030000
B1741373811469S05953538WA0191501947000092030000
B1741413811527S05953444WA0192501950000088045000
B1741453811573S05953343WA0193001955000088045000
B1741493811622S05953247WA0193901962000080045000
B1741533811671S05953162WA0194401967000092045000
B1741573811732S05953084WA0192901963000092045000
B1742013811807S05953018WA0191301957000080045000
B1742053811889S05952963WA0191301957000088045000
B1742093811970S05952901WA0190601955000088045000
B1742133812051S05952833WA0189701950000080045000
B1742173812134S05952764WA0188901944000076045000
B1742213812220S05952696WA0188401939000076060000
B1742253812309S05952632WA0187901936000072060000
B1742293812398S05952572WA0187901934000080060000
B1742333812486S05952510WA0187601932000072060000
B1742373812576S05952443WA0187101929000080060000
B1742413812663S05952371WA0186501924000072060000
B1742453812750S05952294WA0186101919000080060000
B1742493812837S05952213WA0185101913000072060000
B1742533812924S05952129WA0184401906000068075000
B1742573813015S05952048WA0183801901000088105000
B1743013813105S05951974WA0183701903000144120000
B1743053813192S05951906WA0184001906000164105000
B1743093813280S05951844WA0183501907000168090000
B1743133813371S05951784WA0182701899000132090000
B1743173813462S05951723WA0182201895000108090000
B1743213813552S05951656WA0181701891000108090000
B1743253813643S05951581WA0180801886000092090000
B1743293813733S05951507WA0180401881000096090000
B1743333813825S05951442WA0180301886000092105000
B1743373813916S05951381WA0180201888000080090000
B1743413814006S05951321WA0179601884000072090000
B1743453814098S05951262WA0179101880000068090000
B1743493814190S05951194WA0177701872000072090000
B1743533814283S05951120WA0176601866000076090000
B1743573814375S05951048WA0176301864000104120000
B1744013814467S05950983WA0176401868000096105000
B1744053814560S05950928WA0176401868000108105000
B1744093814653S05950874WA0176501869000104105000
B1744133814745S05950822WA0176301870000092105000
B1744173814838S05950768WA0175501864000076105000
B1744213814927S05950708WA0175401862000080105000
B1744253815017S05950647WA0174601857000068105000
B1744293815109S05950584WA0174401855000076105000
B1744333815194S05950517WA0174501856000104105000
B1744373815280S05950447WA0174301853000088105000
B1744413815369S05950380WA0174101853000092105000
B1744453815459S05950317WA0173901853000084105000
B1744493815553S05950254WA0173301850000076120000
B1744533815646S05950192WA0172801847000076120000
B1744573815741S05950131WA0172301843000064120000
B1745013815837S05950070WA0171801839000060120000
B1745053815932S05950005WA0170701833000052135000
B1745093816026S05949928WA0170101827000052150000
B1745133816114S05949842WA0169101818000052180000
B1745173816198S05949748WA0168201815000060210000
B1745213816263S05949657WA0168201790000056165000
B1745253816337S05949564WA0167301779000044135000
B1745293816417S05949466WA0166301767000044135000
B1745333816494S05949369WA0164601742000044135000
B1745373816576S05949277WA0163701727000056135000
B1745413816664S05949199WA0163201715000084150000
B1745453816759S05949131WA0162701710000092150000
B1745493816854S05949074WA0162201704000084135000
B1745533816949S05949020WA0161301693000076135000
B1745573817041S05948971WA0161001687000068135000
B1746013817132S05948920WA0160701684000060135000
B1746053817223S05948859WA0159401679000056135000
B1746093817317S05948790WA0158001674000144135000
B1746133817413S05948719WA0156701668000116150000
B1746173817505S05948642WA0156101667000084180000
B1746213817592S05948559WA0155201663000076225000
B1746253817678S05948472WA0154301654000068000000
B1746293817765S05948383WA0153101650000056060000
B1746333817852S05948299WA0152501650000072120000
B1746373817940S05948214WA0152101652000096060000
B1746413818028S05948130WA0150901648000140075000
B1746453818112S05948035WA0149701646000112135000
B1746493818193S05947935WA0149301643000088180000
B1746533818278S05947848WA0149101637000076195000
B1746573818370S05947780WA0148801631000072165000
B1747013818437S05947749WA0148801558000072195000
B1747053818515S05947711WA0150501564000064165000
B1747093818590S05947667WA0150501564000056165000
B1747133818666S05947626WA0149601555000104150000
B1747173818744S05947590WA0149101549000112150000
B1747213818822S05947566WA0149401547000092135000
B1747253818896S05947546WA0150101549000076135000
B1747293818967S05947518WA0150101549000068120000
B1747333819034S05947475WA0150001548000076120000
B1747373819102S05947431WA0149701544000072105000
B1747413819177S05947398WA0148801538000096120000
B1747453819250S05947366WA0148901538000120120000
B1747493819320S05947333WA0148701536000128120000
B1747533819396S05947315WA0147801529000116105000
B1747573819471S05947291WA0147401523000136105000
