ACAM4IR
HFDTE120125
HFFXA050
HFPLTPILOT:DINO GHIONI             
HFGTYGLIDERTYPE:LS-4        
HFGIDGLIDERID:KC          
HFDTM100GPSDATUM:
HFRFWFIRMWAREVERSION:F2.6
HFRHWHARDWAREVERSION:300 Series Version 2
HFFTYFRTYPE:CAMBRIDGE AERO INSTRUMENTS, 302+
HFGPS:GARMIN,LVS-25,12,18000
HFPRSPRESSALTSENSOR:INTERSEMA, MS5534-AP, 20000
I033638FXA3941ENL4247REX
LCAMSBVER:5FWVER:F26300
C021223160536021223000102
C0000000N00000000WTAKEOFF     
C3526206S06253971WHARAS       
C3602217S06316383WLAS 3 MARIAS
C3600901S06241720WC.P.T.LAUQUE
C3530355S06259367W1-CLUB      
C0000000N00000000WLANDING     
B1614143801956S06007847WA0019400193000000000000
B1614163801956S06007847WA0019400192000000000000
B1614183801956S06007847WA0019400192000000000000
B1614203801956S06007847WA0019400192000000000000
B1614223801956S06007847WA0019400192000000000000
B1614243801956S06007847WA0019500192000000000000
B1614263801956S06007847WA0019500193000000000000
B1614283801956S06007847WA0019600193000000000000
B1614303801956S06007847WA0019500192000000000000
B1614323801956S06007847WA0019600192000000000000
B1614343801956S06007847WA0019600192000000000000
B1614363801956S06007847WA0019600192000000000000
B1614383801956S06007847WA0019600193000000000000
B1614403801956S06007847WA0019500193000000000000
B1614423801953S06007854WA0019500193000000000000
B1614433801951S06007857WA0019400193000000000000
B1614473801937S06007877WA0019300193000000000000
B1614513801916S06007907WA0019200193000000000000
B1614553801886S06007945WA0019100193000000000000
B1614593801851S06007991WA0018900194000000000000
B1615033801812S06008046WA0018900196000000000000
B1615073801766S06008102WA0019000202000000000000
B1615113801727S06008162WA0020200220000000000000
B1615153801691S06008219WA0021800239000000000000
B1615193801658S06008271WA0023500255000000000000
B1615233801625S06008325WA0024700262000000000000
B1615273801599S06008392WA0025000261000000000000
B1615313801582S06008462WA0026000264000000000000
B1615353801573S06008539WA0026900267000000000000
B1615393801571S06008614WA0027600280000000000000
B1615433801582S06008691WA0029000303000000000000
B1615473801601S06008765WA0030700319000000000000
B1615513801630S06008839WA0031800322000000000000
B1615553801657S06008916WA0032300329000000000000
B1615593801680S06008996WA0032800335000000000000
B1616033801708S06009082WA0033100345000000000000
B1616073801726S06009165WA0034600371000000000000
B1616113801740S06009245WA0036700393000000000000
B1616153801764S06009323WA0038600408000000000000
B1616193801783S06009406WA0039700413000000000000
B1616233801799S06009486WA0040300435000000000000
B1616273801809S06009566WA0042400449000000000000
B1616313801809S06009649WA0042900444000000000000
B1616353801794S06009726WA0043200454000000000000
B1616393801773S06009797WA0044300469000000000000
B1616433801743S06009858WA0045600479000000000000
B1616473801706S06009915WA0046500489000000000000
B1616513801662S06009960WA0047500508000000000000
B1616553801613S06009992WA0048900515000000000000
B1616593801560S06010015WA0049700525000000000000
B1617033801506S06010035WA0050900539000000000000
B1617073801452S06010043WA0051700541000000000000
B1617113801397S06010031WA0052800560000000000000
B1617153801341S06010010WA0054200568000000000000
B1617193801285S06009975WA0055100579000000000000
B1617233801235S06009927WA0056200591000000000000
B1617273801192S06009867WA0057300608000000000000
B1617313801157S06009797WA0058500613000000000000
B1617353801124S06009722WA0058900626000000000000
B1617393801094S06009646WA0060100636000000000000
B1617433801064S06009572WA0060900641000000000000
B1617473801032S06009498WA0061300641000000000000
B1617513800997S06009421WA0061100641000000000000
B1617553800964S06009349WA0061600651000000000000
B1617593800933S06009276WA0062100652000000000000
B1618033800902S06009204WA0062500658000000000000
B1618073800871S06009131WA0063200664000000000000
B1618113800839S06009061WA0063400668000000000000
B1618153800811S06008994WA0063800674000000000000
B1618193800785S06008923WA0064500682000000000000
B1618233800755S06008849WA0065200681000000000000
B1618273800718S06008779WA0065500697000000000000
B1618313800678S06008709WA0067200713000000000000
B1618353800640S06008640WA0068600729000000000000
B1618393800601S06008571WA0069700734000000000000
B1618433800568S06008498WA0070300743000000000000
B1618473800533S06008426WA0071000746000000000000
B1618513800500S06008357WA0071600758000000000000
B1618553800468S06008285WA0072400760000000000000
B1618593800432S06008212WA0072300761000000000000
B1619033800396S06008149WA0072400755000000000000
B1619073800362S06008080WA0071500743000000000000
B1619113800335S06008002WA0070700740000000000000
B1619153800312S06007921WA0070500737000000000000
B1619193800293S06007841WA0069800728000000000000
B1619233800279S06007757WA0069300724000000000000
B1619273800269S06007674WA0069100724000000000000
B1619313800262S06007594WA0069500736000000000000
B1619353800250S06007517WA0070200736000000000000
B1619393800217S06007464WA0070400742000000000000
B1619433800172S06007423WA0069800731000000000000
B1619473800133S06007370WA0069000728000000000000
B1619513800107S06007298WA0068600720000000000000
B1619553800089S06007218WA0067800704000000000000
B1619593800075S06007132WA0066600691000000000000
B1620033800063S06007045WA0065300681000000000000
B1620073800058S06006954WA0064200674000000000000
B1620113800066S06006859WA0063600664000000000000
B1620153800081S06006764WA0062800660000000000000
B1620193800100S06006671WA0062300656000000000000
B1620233800119S06006580WA0062300657000000000000
B1620273800140S06006492WA0062600659000000000000
B1620313800161S06006404WA0062500660000000000000
B1620353800184S06006316WA0062400651000000000000
B1620393800211S06006227WA0062000657000000000000
B1620433800241S06006144WA0062600661000000000000
B1620473800270S06006065WA0063500670000000000000
B1620513800253S06005997WA0064100679000000000000
B1620553800214S06005991WA0064900682000000000000
B1620593800206S06006052WA0065400688000000000000
B1621033800261S06006104WA0066200698000000000000
B1621073800335S06006079WA0066900703000000000000
B1621113800365S06006001WA0067700711000000000000
B1621153800338S06005952WA0068500722000000000000
B1621193800302S06005979WA0068800724000000000000
B1621233800314S06006045WA0069300733000000000000
B1621273800378S06006082WA0070400742000000000000
B1621313800447S06006045WA0071000747000000000000
B1621353800471S06005966WA0071600758000000000000
B1621393800436S06005924WA0072000764000000000000
B1621433800408S06005963WA0072400763000000000000
B1621473800423S06006034WA0072800773000000000000
B1621513800487S06006073WA0073700778000000000000
B1621553800562S06006049WA0074200778000000000000
B1621593800609S06005976WA0074300778000000000000
B1622033800611S06005894WA0074300785000000000000
B1622073800585S06005837WA0074900790000000000000
B1622113800544S06005854WA0075500797000000000000
B1622153800557S06005930WA0076000800000000000000
B1622193800633S06005959WA0076400807000000000000
B1622233800696S06005902WA0077400816000000000000
B1622273800696S06005822WA0077800814000000000000
B1622313800651S06005805WA0078100821000000000000
B1622353800633S06005867WA0078700830000000000000
B1622393800679S06005933WA0079400838000000000000
B1622433800759S06005926WA0080300846000000000000
B1622473800803S06005853WA0081000849000000000000
B1622513800785S06005784WA0081000851000000000000
B1622553800741S06005788WA0081300855000000000000
B1622593800731S06005858WA0081900862000000000000
B1623033800783S06005923WA0082400869000000000000
B1623073800864S06005922WA0083400880000000000000
B1623113800912S06005845WA0083900877000000000000
B1623153800887S06005776WA0083900888000000000000
B1623193800848S06005789WA0084700895000000000000
B1623233800852S06005862WA0085300897000000000000
B1623273800900S06005930WA0086000904000000000000
B1623313800980S06005945WA0086500908000000000000
B1623353801040S06005879WA0086400900000000000000
B1623393801037S06005793WA0085400895000000000000
B1623433800997S06005746WA0085600900000000000000
B1623473800959S06005707WA0086400913000000000000
B1623513800916S06005699WA0087600924000000000000
B1623553800893S06005755WA0088400928000000000000
B1623593800929S06005832WA0088500926000000000000
B1624033801015S06005837WA0089400937000000000000
B1624073801072S06005763WA0089700939000000000000
B1624113801064S06005681WA0090500954000000000000
B1624153801028S06005634WA0091800965000000000000
B1624193800984S06005655WA0092500971000000000000
B1624233800988S06005732WA0092500972000000000000
B1624273801058S06005777WA0092900982000000000000
B1624313801132S06005735WA0094100990000000000000
B1624353801155S06005649WA0095001002000000000000
B1624393801121S06005597WA0096201016000000000000
B1624433801085S06005636WA0097301024000000000000
B1624473801114S06005711WA0097601023000000000000
B1624513801196S06005724WA0098201032000000000000
B1624553801261S06005666WA0099101048000000000000
B1624593801271S06005584WA0100501056000000000000
B1625033801229S06005547WA0100901058000000000000
B1625073801196S06005595WA0102101073000000000000
B1625113801216S06005675WA0102601074000000000000
B1625153801296S06005703WA0103001086000000000000
B1625193801370S06005654WA0103901087000000000000
B1625233801394S06005562WA0104401098000000000000
B1625273801370S06005489WA0105501103000000000000
B1625313801315S06005481WA0105901113000000000000
B1625353801298S06005551WA0107101132000000000000
B1625393801350S06005615WA0108501136000000000000
B1625433801433S06005593WA0109001145000000000000
B1625473801470S06005507WA0110201157000000000000
B1625513801452S06005430WA0111001164000000000000
B1625553801404S06005403WA0111601174000000000000
B1625593801363S06005443WA0112801184000000000000
B1626033801389S06005519WA0113901200000000000000
B1626073801470S06005528WA0115301207000000000000
B1626113801519S06005447WA0115901211000000000000
B1626153801491S06005373WA0117001222000000000000
B1626193801440S06005397WA0117801232000000000000
B1626233801449S06005477WA0119001249000000000000
B1626273801519S06005517WA0121001267000000000000
B1626313801595S06005469WA0121701270000000000000
B1626353801600S06005377WA0122901285000000000000
B1626393801550S06005346WA0123801292000000000000
B1626433801514S06005397WA0124501301000000000000
B1626473801545S06005473WA0125501320000000000000
B1626513801625S06005486WA0126801333000000000000
B1626553801683S06005415WA0127801341000000000000
B1626593801671S06005330WA0128601354000000000000
B1627033801623S06005304WA0129401359000000000000
B1627073801586S06005348WA0129801359000000000000
B1627113801588S06005429WA0130801375000000000000
B1627153801648S06005484WA0132501394000000000000
B1627193801723S06005459WA0134201402000000000000
B1627233801753S06005371WA0135001415000000000000
B1627273801719S06005307WA0136101425000000000000
B1627313801667S06005306WA0136901430000000000000
B1627353801645S06005374WA0137601440000000000000
B1627393801687S06005447WA0138901456000000000000
B1627433801770S06005441WA0140201467000000000000
B1627473801808S06005355WA0140901480000000000000
B1627513801777S06005286WA0142601494000000000000
B1627553801721S06005295WA0143201498000000000000
B1627593801706S06005377WA0143801501000000000000
B1628033801775S06005428WA0145801525000000000000
B1628073801851S06005391WA0147301540000000000000
B1628113801864S06005304WA0148301552000000000000
B1628153801814S06005270WA0149201558000000000000
B1628193801774S06005321WA0150001567000000000000
B1628233801786S06005400WA0150901582000000000000
B1628273801831S06005471WA0152901597000000000000
B1628313801911S06005473WA0154101602000000000000
B1628353801953S06005394WA0154801610000000000000
B1628393801926S06005321WA0155501620000000000000
B1628433801869S06005329WA0156701635000000000000
B1628473801852S06005408WA0157701655000000000000
B1628513801900S06005480WA0159701667000000000000
B1628553801981S06005467WA0160001669000000000000
B1628593802017S06005385WA0160301675000000000000
B1629033801996S06005311WA0161101691000000000000
B1629073801946S06005295WA0162701705000000000000
B1629113801901S06005341WA0163301707000000000000
B1629153801904S06005428WA0163901716000000000000
B1629193801965S06005491WA0164501722000000000000
B1629233802044S06005478WA0164701720000000000000
B1629273802089S06005398WA0164301712000000000000
B1629313802076S06005309WA0163901717000000000000
B1629353802035S06005247WA0164901732000000000000
B1629393801989S06005199WA0166401748000000000000
B1629433801930S06005204WA0167101744000000000000
B1629473801873S06005246WA0166201735000000000000
B1629513801814S06005294WA0164701713000000000000
B1629553801755S06005345WA0163301703000000000000
B1629593801695S06005395WA0162501699000000000000
B1630033801635S06005445WA0162301695000000000000
B1630073801573S06005491WA0162001690000000000000
B1630113801509S06005536WA0161301685000000000000
B1630153801444S06005580WA0161001683000000000000
B1630193801380S06005621WA0161001685000000000000
B1630233801319S06005660WA0161101686000000000000
B1630273801261S06005694WA0161401685000000000000
B1630313801203S06005724WA0161401684000000000000
B1630353801145S06005748WA0161101681000000000000
B1630393801086S06005775WA0160701675000000000000
B1630433801028S06005805WA0160301669000000000000
B1630473800969S06005840WA0159601661000000000000
B1630513800911S06005879WA0158701657000000000000
B1630553800852S06005922WA0158401654000000000000
B1630593800793S06005969WA0158301656000000000000
B1631033800735S06006017WA0158401656000000000000
B1631073800677S06006063WA0157901647000000000000
B1631113800622S06006115WA0158001646000000000000
B1631153800570S06006170WA0158001641000000000000
B1631193800518S06006226WA0157501635000000000000
B1631233800466S06006283WA0156401622000000000000
B1631273800410S06006336WA0155201611000000000000
B1631313800352S06006385WA0154301602000000000000
B1631353800293S06006427WA0153501597000000000000
B1631393800234S06006469WA0152301590000000000000
B1631433800175S06006513WA0151401579000000000000
B1631473800114S06006559WA0150101565000000000000
B1631513800053S06006604WA0149101552000000000000
B1631553759988S06006645WA0148201549000000000000
B1631593759927S06006682WA0148801567000000000000
B1632033759872S06006717WA0150601587000000000000
B1632073759824S06006751WA0152201594000000000000
B1632113759773S06006785WA0152401592000000000000
B1632153759717S06006815WA0151901585000000000000
B1632193759658S06006834WA0151501585000000000000
B1632233759595S06006846WA0151101578000000000000
B1632273759530S06006847WA0150601572000000000000
B1632313759465S06006842WA0149901565000000000000
B1632353759398S06006830WA0149201559000000000000
B1632393759334S06006815WA0149401563000000000000
B1632433759272S06006797WA0149601565000000000000
B1632473759210S06006789WA0150301574000000000000
B1632513759151S06006799WA0150501568000000000000
B1632553759091S06006820WA0150201570000000000000
B1632593759034S06006847WA0150201567000000000000
B1633033758979S06006885WA0149301554000000000000
B1633073758924S06006931WA0148401545000000000000
B1633113758872S06006983WA0147701536000000000000
B1633153758819S06007038WA0146701522000000000000
B1633193758765S06007098WA0145401519000000000000
B1633233758709S06007157WA0144801509000000000000
B1633273758654S06007213WA0144601509000000000000
B1633313758601S06007270WA0144401507000000000000
B1633353758550S06007324WA0144701513000000000000
B1633393758499S06007380WA0145301525000000000000
B1633433758450S06007438WA0146901541000000000000
B1633473758402S06007493WA0147901547000000000000
B1633513758354S06007549WA0148201547000000000000
B1633553758306S06007607WA0147901544000000000000
B1633593758258S06007666WA0147801544000000000000
B1634033758221S06007737WA0147701538000000000000
B1634073758195S06007818WA0147201540000000000000
B1634113758168S06007894WA0147801547000000000000
B1634153758135S06007963WA0148201551000000000000
B1634193758096S06008024WA0148301545000000000000
B1634233758052S06008088WA0147601537000000000000
B1634273758001S06008146WA0146701530000000000000
B1634313757949S06008201WA0146301530000000000000
B1634353757900S06008251WA0146201529000000000000
B1634393757848S06008301WA0146101527000000000000
B1634433757797S06008351WA0145801524000000000000
B1634473757744S06008400WA0146001531000000000000
B1634513757687S06008436WA0146301532000000000000
B1634553757630S06008470WA0146701537000000000000
B1634593757571S06008500WA0147001541000000000000
B1635033757511S06008528WA0147301537000000000000
B1635073757450S06008553WA0146901539000000000000
B1635113757390S06008574WA0147201542000000000000
B1635153757331S06008591WA0147201541000000000000
B1635193757272S06008606WA0147201537000000000000
B1635233757211S06008609WA0147301539000000000000
B1635273757149S06008609WA0147201533000000000000
B1635313757085S06008610WA0146201523000000000000
B1635353757021S06008615WA0145401514000000000000
B1635393756959S06008618WA0144901515000000000000
B1635433756899S06008615WA0145001514000000000000
B1635473756839S06008610WA0144601500000000000000
B1635513756777S06008604WA0143201483000000000000
B1635553756712S06008591WA0142001482000000000000
B1635593756647S06008572WA0142001484000000000000
B1636033756582S06008545WA0142001479000000000000
B1636073756516S06008514WA0141201476000000000000
B1636113756448S06008487WA0140701464000000000000
B1636153756379S06008467WA0139501451000000000000
B1636193756310S06008461WA0138301441000000000000
B1636233756244S06008476WA0138301457000000000000
B1636273756184S06008501WA0140401477000000000000
B1636313756137S06008556WA0141201473000000000000
B1636353756135S06008643WA0141501485000000000000
B1636393756170S06008723WA0142901494000000000000
B1636433756245S06008760WA0143701503000000000000
B1636473756323S06008730WA0144201501000000000000
B1636513756376S06008650WA0144501518000000000000
B1636553756367S06008569WA0146401536000000000000
B1636593756315S06008550WA0147501541000000000000
B1637033756293S06008614WA0148301548000000000000
B1637073756336S06008689WA0148001544000000000000
B1637113756421S06008693WA0148201546000000000000
B1637153756483S06008619WA0148301556000000000000
B1637193756486S06008526WA0149501567000000000000
B1637233756448S06008453WA0150501581000000000000
B1637273756392S06008444WA0151601591000000000000
B1637313756366S06008504WA0152701596000000000000
B1637353756396S06008583WA0152901596000000000000
B1637393756473S06008619WA0152501593000000000000
B1637433756551S06008580WA0152901602000000000000
B1637473756594S06008497WA0153901620000000000000
B1637513756622S06008411WA0155101625000000000000
B1637553756648S06008324WA0155101611000000000000
B1637593756673S06008227WA0153501594000000000000
B1638033756700S06008128WA0151801578000000000000
B1638073756738S06008029WA0150501569000000000000
B1638113756782S06007937WA0149601560000000000000
B1638153756842S06007860WA0149201564000000000000
B1638193756913S06007817WA0150201574000000000000
B1638233756990S06007818WA0150801576000000000000
B1638273757065S06007838WA0150401570000000000000
B1638313757146S06007835WA0150301575000000000000
B1638353757206S06007764WA0151301595000000000000
B1638393757203S06007665WA0152901600000000000000
B1638433757149S06007626WA0153001599000000000000
B1638473757104S06007673WA0152901596000000000000
B1638513757102S06007751WA0152601591000000000000
B1638553757136S06007826WA0152601594000000000000
B1638593757185S06007887WA0153601612000000000000
B1639033757238S06007946WA0154601620000000000000
B1639073757318S06007958WA0155701632000000000000
B1639113757381S06007887WA0156401636000000000000
B1639153757379S06007794WA0156801644000000000000
B1639193757329S06007751WA0157101645000000000000
B1639233757283S06007776WA0157901658000000000000
B1639273757284S06007844WA0159301671000000000000
B1639313757349S06007889WA0160201678000000000000
B1639353757426S06007838WA0161001685000000000000
B1639393757441S06007740WA0161201685000000000000
B1639433757394S06007685WA0161201684000000000000
B1639473757345S06007713WA0161601698000000000000
B1639513757315S06007768WA0162501703000000000000
B1639553757344S06007841WA0163301710000000000000
B1639593757424S06007843WA0164101721000000000000
B1640033757476S06007759WA0164601720000000000000
B1640073757459S06007665WA0164501722000000000000
B1640113757403S06007640WA0165301727000000000000
B1640153757370S06007700WA0165301725000000000000
B1640193757407S06007781WA0165901738000000000000
B1640233757492S06007798WA0167601756000000000000
B1640273757559S06007730WA0169401771000000000000
B1640313757569S06007633WA0169801767000000000000
B1640353757519S06007575WA0170101777000000000000
B1640393757463S06007591WA0170401775000000000000
B1640433757446S06007661WA0170701783000000000000
B1640473757492S06007734WA0171501795000000000000
B1640513757571S06007756WA0173101809000000000000
B1640553757647S06007705WA0174201820000000000000
B1640593757665S06007607WA0174701825000000000000
B1641033757619S06007548WA0174401819000000000000
B1641073757569S06007581WA0174601824000000000000
B1641113757562S06007660WA0175501829000000000000
B1641153757600S06007735WA0176301840000000000000
B1641193757675S06007770WA0177301850000000000000
B1641233757757S06007729WA0178601862000000000000
B1641273757801S06007636WA0179401870000000000000
B1641313757786S06007542WA0179401870000000000000
B1641353757730S06007517WA0179401873000000000000
B1641393757692S06007564WA0179701880000000000000
B1641433757692S06007639WA0180501886000000000000
B1641473757722S06007716WA0181301895000000000000
B1641513757787S06007764WA0181801900000000000000
B1641553757870S06007730WA0182601913000000000000
B1641593757899S06007633WA0183301917000000000000
B1642033757858S06007560WA0183601917000000000000
B1642073757800S06007570WA0184301931000000000000
B1642113757782S06007640WA0185201936000000000000
B1642153757819S06007718WA0185501932000000000000
B1642193757900S06007748WA0185301938000000000000
B1642233757983S06007704WA0186201946000000000000
B1642273758029S06007612WA0186401939000000000000
B1642313758027S06007506WA0185801941000000000000
B1642353757982S06007434WA0186201946000000000000
B1642393757918S06007412WA0186401947000000000000
B1642433757866S06007444WA0187401965000000000000
B1642473757857S06007514WA0188601972000000000000
B1642513757894S06007586WA0188701962000000000000
B1642553757951S06007653WA0187901965000000000000
B1642593758000S06007726WA0188701983000000000000
B1643033758037S06007803WA0190401995000000000000
B1643073758072S06007880WA0191401995000000000000
B1643113758116S06007956WA0190701988000000000000
B1643153758169S06008029WA0190101982000000000000
B1643193758220S06008099WA0190101993000000000000
B1643233758264S06008162WA0191602005000000000000
B1643273758302S06008214WA0192402008000000000000
B1643313758342S06008262WA0192001996000000000000
B1643353758391S06008305WA0191201981000000000000
B1643393758450S06008344WA0189401964000000000000
B1643433758524S06008355WA0188001952000000000000
B1643473758598S06008315WA0187101946000000000000
B1643513758648S06008234WA0186501941000000000000
B1643553758658S06008134WA0186201936000000000000
B1643593758632S06008041WA0185001925000000000000
B1644033758599S06007950WA0183901915000000000000
B1644073758564S06007861WA0183101908000000000000
B1644113758521S06007778WA0182601915000000000000
B1644153758475S06007712WA0183501924000000000000
B1644193758411S06007708WA0184601935000000000000
B1644233758358S06007747WA0185801947000000000000
B1644273758324S06007818WA0186801948000000000000
B1644313758339S06007909WA0186701944000000000000
B1644353758410S06007954WA0186101939000000000000
B1644393758485S06007916WA0185001927000000000000
B1644433758515S06007825WA0184501924000000000000
B1644473758497S06007737WA0184501930000000000000
B1644513758464S06007666WA0185401937000000000000
B1644553758412S06007625WA0186001945000000000000
B1644593758354S06007626WA0187001955000000000000
B1645033758323S06007688WA0187901958000000000000
B1645073758354S06007768WA0187401940000000000000
B1645113758432S06007789WA0185701929000000000000
B1645153758494S06007725WA0184801924000000000000
B1645193758499S06007631WA0184601926000000000000
B1645233758481S06007549WA0185001933000000000000
B1645273758458S06007469WA0185201929000000000000
B1645313758425S06007393WA0184801924000000000000
B1645353758371S06007354WA0184601922000000000000
B1645393758313S06007375WA0184401919000000000000
B1645433758285S06007447WA0184001915000000000000
B1645473758299S06007531WA0183001904000000000000
B1645513758326S06007612WA0182201890000000000000
B1645553758350S06007700WA0180401876000000000000
B1645593758363S06007792WA0179601865000000000000
B1646033758371S06007890WA0178601855000000000000
B1646073758375S06007989WA0178101855000000000000
B1646113758358S06008080WA0178201859000000000000
B1646153758324S06008154WA0178801864000000000000
B1646193758281S06008215WA0178401854000000000000
B1646233758229S06008272WA0177001836000000000000
B1646273758170S06008319WA0175701827000000000000
B1646313758105S06008358WA0174801819000000000000
B1646353758038S06008387WA0174201813000000000000
B1646393757968S06008407WA0173701808000000000000
B1646433757897S06008423WA0173101799000000000000
B1646473757830S06008455WA0173001792000000000000
B1646513757779S06008528WA0172101785000000000000
B1646553757747S06008618WA0171001777000000000000
B1646593757728S06008718WA0169801765000000000000
B1647033757721S06008825WA0169001758000000000000
B1647073757714S06008930WA0168401749000000000000
B1647113757708S06009037WA0167601743000000000000
B1647153757701S06009143WA0167201740000000000000
B1647193757693S06009250WA0166501729000000000000
B1647233757683S06009356WA0165901723000000000000
B1647273757676S06009463WA0165101718000000000000
B1647313757670S06009571WA0164601712000000000000
B1647353757663S06009675WA0164301709000000000000
B1647393757652S06009774WA0164101712000000000000
B1647433757634S06009862WA0164401713000000000000
B1647473757611S06009949WA0164201706000000000000
B1647513757587S06010039WA0163401697000000000000
B1647553757559S06010126WA0163201697000000000000
B1647593757537S06010214WA0163301697000000000000
B1648033757536S06010308WA0163401699000000000000
B1648073757543S06010402WA0163501697000000000000
B1648113757540S06010489WA0163501704000000000000
B1648153757532S06010567WA0164301709000000000000
B1648193757533S06010646WA0164401714000000000000
B1648233757587S06010711WA0165001724000000000000
B1648273757667S06010690WA0166001739000000000000
B1648313757699S06010599WA0167401748000000000000
B1648353757662S06010533WA0168201756000000000000
B1648393757614S06010556WA0168601754000000000000
B1648433757608S06010633WA0168901765000000000000
B1648473757632S06010703WA0169801774000000000000
B1648513757704S06010728WA0170701779000000000000
B1648553757771S06010675WA0171101784000000000000
B1648593757803S06010590WA0171801798000000000000
B1649033757766S06010526WA0172801806000000000000
B1649073757721S06010556WA0173101805000000000000
B1649113757736S06010634WA0173401807000000000000
B1649153757806S06010665WA0173701817000000000000
B1649193757875S06010616WA0174401820000000000000
B1649233757890S06010522WA0175201830000000000000
B1649273757844S06010470WA0175501833000000000000
B1649313757795S06010502WA0175701831000000000000
B1649353757797S06010580WA0175901834000000000000
B1649393757864S06010620WA0176001837000000000000
B1649433757940S06010581WA0176001837000000000000
B1649473757982S06010491WA0176501843000000000000
B1649513757962S06010402WA0176601841000000000000
B1649553757904S06010376WA0176701841000000000000
B1649593757858S06010418WA0176801836000000000000
B1650033757864S06010502WA0176701841000000000000
B1650073757909S06010568WA0177201844000000000000
B1650113757985S06010597WA0176601839000000000000
B1650153758064S06010563WA0176401849000000000000
B1650193758113S06010486WA0177601859000000000000
B1650233758108S06010400WA0178401858000000000000
B1650273758056S06010368WA0178101853000000000000
B1650313758012S06010416WA0177401845000000000000
B1650353758027S06010500WA0177001846000000000000
B1650393758091S06010551WA0177201850000000000000
B1650433758168S06010569WA0177501856000000000000
B1650473758245S06010573WA0178601866000000000000
B1650513758312S06010529WA0179201872000000000000
B1650553758334S06010442WA0179501869000000000000
B1650593758293S06010378WA0179401876000000000000
B1651033758242S06010411WA0180401883000000000000
B1651073758243S06010491WA0180301879000000000000
B1651113758302S06010546WA0180801886000000000000
B1651153758380S06010530WA0181001888000000000000
B1651193758430S06010450WA0180501879000000000000
B1651233758425S06010352WA0180201881000000000000
B1651273758372S06010296WA0180401882000000000000
B1651313758310S06010312WA0180401884000000000000
B1651353758276S06010379WA0180301877000000015000
B1651393758290S06010469WA0180201878000000000000
B1651433758356S06010529WA0179801876000000000000
B1651473758441S06010537WA0179601876000000000000
B1651513758524S06010526WA0180101882000000000000
B1651553758609S06010517WA0179801874000000000000
B1651593758693S06010499WA0179401872000000000000
B1652033758768S06010447WA0179501871000000000000
B1652073758817S06010360WA0179301869000000000000
B1652113758828S06010261WA0179201868000000000000
B1652153758826S06010164WA0178901860000000000000
B1652193758785S06010093WA0178101857000000000000
B1652233758727S06010090WA0177401852000000000000
B1652273758676S06010118WA0177101847000000000000
B1652313758631S06010164WA0177201852000000000000
B1652353758586S06010213WA0177601854000000000000
B1652393758544S06010262WA0177701848000000000000
B1652433758493S06010305WA0177001838000000000000
B1652473758441S06010347WA0176901841000000000000
B1652513758386S06010387WA0176901833000000000000
B1652553758330S06010428WA0176101824000000000000
B1652593758271S06010464WA0174901815000000000000
B1653033758208S06010494WA0174301807000000000000
B1653073758141S06010519WA0173401798000000000000
B1653113758069S06010538WA0172801790000000000000
B1653153757998S06010555WA0172001783000000000000
B1653193757923S06010567WA0171301774000000000000
B1653233757849S06010574WA0170601769000000000000
B1653273757775S06010578WA0170101767000000000000
B1653313757702S06010577WA0169701761000000000000
B1653353757630S06010572WA0169401757000000000000
B1653393757558S06010561WA0168901754000000000000
B1653433757488S06010539WA0169101763000000000000
B1653473757424S06010506WA0170201776000000000000
B1653513757364S06010493WA0171401783000000000000
B1653553757322S06010535WA0171601777000000000000
B1653593757290S06010604WA0169901751000000000000
B1654033757259S06010686WA0167401731000000000000
B1654073757228S06010776WA0165801717000000000000
B1654113757198S06010870WA0164701708000000000000
B1654153757171S06010964WA0163801698000000000000
B1654193757146S06011061WA0163101694000000000000
B1654233757123S06011157WA0162901688000000000000
B1654273757101S06011252WA0162401683000000000000
B1654313757078S06011344WA0162201683000000000000
B1654353757052S06011431WA0162301690000000000000
B1654393757019S06011504WA0163401707000000000000
B1654433756985S06011569WA0164601724000000000000
B1654473756954S06011624WA0166301733000000000000
B1654513756961S06011698WA0166701741000000000000
B1654553757028S06011738WA0167201740000000000000
B1654593757106S06011696WA0167301744000000000000
B1655033757127S06011598WA0168001763000000000000
B1655073757088S06011536WA0169501773000000000000
B1655113757051S06011585WA0170301775000000000000
B1655153757101S06011650WA0170601777000000000000
B1655193757181S06011622WA0171101790000000000000
B1655233757205S06011527WA0172401807000000000000
B1655273757155S06011488WA0173601812000000000000
B1655313757130S06011555WA0173901808000000000000
B1655353757184S06011621WA0173801812000000000000
B1655393757267S06011611WA0174601826000000000000
B1655433757315S06011529WA0176101844000000000000
B1655473757298S06011436WA0177001846000000000000
B1655513757242S06011438WA0177901857000000000000
B1655553757236S06011516WA0178001857000000000000
B1655593757297S06011573WA0178501866000000000000
B1656033757379S06011562WA0179101872000000000000
B1656073757441S06011499WA0180001879000000000000
B1656113757453S06011405WA0180301877000000000000
B1656153757418S06011331WA0180201883000000000000
B1656193757364S06011309WA0181201897000000000000
B1656233757333S06011356WA0182701907000000000000
B1656273757367S06011427WA0182601897000000000000
B1656313757446S06011435WA0183101909000000000000
B1656353757491S06011349WA0184001921000000000000
B1656393757453S06011284WA0184601926000000000000
B1656433757410S06011321WA0185101928000000000000
B1656473757435S06011399WA0185001925000000000000
B1656513757514S06011419WA0185101933000000000000
B1656553757576S06011349WA0186001942000000000000
B1656593757574S06011252WA0185901935000000000000
B1657033757517S06011209WA0185801942000000000000
B1657073757470S06011250WA0186601948000000000000
B1657113757475S06011332WA0186501943000000000000
B1657153757528S06011399WA0186901952000000000000
B1657193757606S06011417WA0187201950000000000000
B1657233757686S06011379WA0187301959000000000000
B1657273757734S06011300WA0187901957000000000000
B1657313757718S06011211WA0187901956000000000000
B1657353757662S06011174WA0187301945000000000000
B1657393757606S06011170WA0187601964000000000000
B1657433757566S06011200WA0188801970000000000000
B1657473757582S06011276WA0188201956000000000000
B1657513757654S06011317WA0187601957000000000000
B1657553757734S06011282WA0187801962000000000000
B1657593757777S06011197WA0188301963000000000000
B1658033757777S06011100WA0187901951000000000000
B1658073757732S06011026WA0186801949000000000000
B1658113757670S06011019WA0187201953000000000000
B1658153757623S06011066WA0187401947000000000000
B1658193757615S06011149WA0187201944000000000000
B1658233757630S06011232WA0186601937000000000000
B1658273757669S06011313WA0185701923000000000000
B1658313757741S06011364WA0184701916000000000000
B1658353757829S06011365WA0184001912000000000000
B1658393757909S06011326WA0183801910000000000000
B1658433757975S06011250WA0183701904000000000000
B1658473758025S06011158WA0183201903000000000000
B1658513758047S06011055WA0183101905000000000000
B1658553758047S06010955WA0183101900000000000000
B1658593758022S06010863WA0182201893000000000000
B1659033757981S06010781WA0181601885000000000000
B1659073757930S06010706WA0180901880000000000000
B1659113757874S06010633WA0180601879000000000000
B1659153757817S06010561WA0179801857000000000000
B1659193757754S06010483WA0178301854000000000000
B1659233757691S06010405WA0177601837000000000000
B1659273757626S06010329WA0176401830000000000000
B1659313757559S06010253WA0175601825000000000000
B1659353757494S06010183WA0175401821000000000000
B1659393757429S06010110WA0174701816000000000000
B1659433757366S06010038WA0174301811000000000000
B1659473757303S06009965WA0173901806000000000000
B1659513757240S06009893WA0173601805000000000000
B1659553757177S06009820WA0173601804000000000000
B1659593757116S06009749WA0173201802000000000000
B1700033757058S06009680WA0173201801000000000000
B1700073757003S06009609WA0172901796000000000000
B1700113756948S06009538WA0172401790000000000000
B1700153756894S06009467WA0171801785000000000000
B1700193756842S06009398WA0171401784000000000000
B1700233756790S06009342WA0171801789000000000000
B1700273756744S06009280WA0171801784000000000000
B1700313756717S06009196WA0171401780000000000000
B1700353756688S06009111WA0170801771000000000000
B1700393756648S06009034WA0169901764000000000000
B1700433756597S06008966WA0169501765000000000000
B1700473756542S06008912WA0169801769000000000000
B1700513756483S06008864WA0169801766000000000000
B1700553756422S06008818WA0168801753000000000000
B1700593756358S06008771WA0168101744000000000000
B1701033756293S06008726WA0167101737000000000000
B1701073756227S06008687WA0166301724000000000000
B1701113756163S06008643WA0165601729000000000000
B1701153756103S06008601WA0166101741000000000000
B1701193756045S06008567WA0166401730000000000000
B1701233755977S06008553WA0165101719000000000000
B1701273755906S06008544WA0164301708000000000000
B1701313755838S06008572WA0164101713000000000000
B1701353755782S06008619WA0164501720000000000000
B1701393755732S06008665WA0165101720000000000000
B1701433755681S06008706WA0164501704000000000000
B1701473755630S06008753WA0163401697000000000000
B1701513755582S06008806WA0162701688000000000000
B1701553755531S06008860WA0161801682000000000000
B1701593755481S06008912WA0161201676000000000000
B1702033755431S06008964WA0160701672000000000000
B1702073755382S06009017WA0160601671000000000000
B1702113755338S06009068WA0160601672000000000000
B1702153755292S06009115WA0160401669000000000000
B1702193755247S06009160WA0159901662000000000000
B1702233755204S06009208WA0159301653000000000000
B1702273755158S06009255WA0158601650000000000000
B1702313755115S06009297WA0158701652000000000000
B1702353755075S06009334WA0159001655000000000000
B1702393755035S06009368WA0159001652000000000000
B1702433755013S06009425WA0158601649000000000000
B1702473755021S06009499WA0158301644000000000000
B1702513755030S06009575WA0157901643000000000000
B1702553755044S06009653WA0157701642000000000000
B1702593755099S06009714WA0158101646000000000000
B1703033755183S06009715WA0158601657000000000000
B1703073755249S06009648WA0159401662000000000000
B1703113755255S06009553WA0159501654000000000000
B1703153755213S06009507WA0158701651000000000000
B1703193755171S06009537WA0157901639000000000000
B1703233755174S06009612WA0157401641000000000000
B1703273755182S06009684WA0158201654000000000000
B1703313755187S06009752WA0159301665000000000000
B1703353755217S06009818WA0160101664000000000000
B1703393755296S06009844WA0159601662000000000000
B1703433755370S06009789WA0159001653000000000000
B1703473755387S06009693WA0158501654000000000000
B1703513755348S06009637WA0159101661000000000000
B1703553755301S06009642WA0159501672000000000000
B1703593755262S06009664WA0160701674000000000000
B1704033755257S06009731WA0160801677000000000000
B1704073755313S06009788WA0161301685000000000000
B1704113755392S06009767WA0162001688000000000000
B1704153755437S06009683WA0161501674000000000000
B1704193755429S06009590WA0160601675000000000000
B1704233755386S06009544WA0161201683000000000000
B1704273755338S06009532WA0161701679000000000000
B1704313755300S06009579WA0161201678000000000000
B1704353755308S06009658WA0160801672000000000000
B1704393755373S06009714WA0160601677000000000000
B1704433755457S06009719WA0161501685000000000000
B1704473755538S06009681WA0162001690000000000000
B1704513755611S06009623WA0162001684000000000000
B1704553755672S06009542WA0160901667000000000000
B1704593755716S06009442WA0160301666000000000000
B1705033755747S06009338WA0160001662000000000000
B1705073755754S06009235WA0159501656000000000000
B1705113755738S06009139WA0158801637000000000000
B1705153755716S06009040WA0156801619000000000000
B1705193755687S06008935WA0155101604000000000000
B1705233755652S06008830WA0153601589000000000000
B1705273755613S06008722WA0152101574000000000000
B1705313755572S06008614WA0150901565000000000000
B1705353755526S06008509WA0150301558000000000000
B1705393755474S06008411WA0149801553000000000000
B1705433755416S06008323WA0149101546000000000000
B1705473755353S06008241WA0148501538000000000000
B1705513755291S06008159WA0147701531000000000000
B1705553755227S06008080WA0147101527000000000000
B1705593755166S06007999WA0146601522000000000000
B1706033755109S06007917WA0146201516000000000000
B1706073755054S06007833WA0145401508000000000000
B1706113755000S06007750WA0145001507000000000000
B1706153754945S06007670WA0145501526000000000000
B1706193754894S06007600WA0146901522000000000000
B1706233754841S06007527WA0146001515000000000000
B1706273754785S06007453WA0146001518000000000000
B1706313754729S06007383WA0146801530000000000000
B1706353754673S06007318WA0147501532000000000000
B1706393754615S06007254WA0146401508000000000000
B1706433754554S06007183WA0144501495000000000000
B1706473754494S06007109WA0144101512000000000000
B1706513754456S06007035WA0146601546000000000000
B1706553754432S06006966WA0149101550000000000000
B1706593754425S06006884WA0148801532000000000000
B1707033754424S06006785WA0146101495000000000000
B1707073754426S06006669WA0143301474000000000000
B1707113754434S06006552WA0141801473000000000000
B1707153754443S06006437WA0141401466000000000000
B1707193754455S06006322WA0141201475000000000000
B1707233754475S06006221WA0143101505000000000000
B1707273754501S06006134WA0144601507000000000000
B1707313754536S06006049WA0145101518000000000000
B1707353754580S06005978WA0146401524000000000000
B1707393754629S06005905WA0146501522000000000000
B1707433754677S06005832WA0146301524000000000000
B1707473754716S06005753WA0146001519000000000000
B1707513754711S06005667WA0145501512000000000000
B1707553754683S06005597WA0145601520000000000000
B1707593754651S06005530WA0146001521000000000000
B1708033754610S06005480WA0145201505000000000000
B1708073754559S06005458WA0145001500000000000000
B1708113754504S06005464WA0143601487000000000000
B1708153754463S06005514WA0143301488000000000000
B1708193754425S06005567WA0143001482000000000000
B1708233754390S06005625WA0142101479000000000000
B1708273754354S06005677WA0142101474000000000000
B1708313754319S06005724WA0142401485000000000000
B1708353754282S06005763WA0143001492000000000000
B1708393754248S06005794WA0144601509000000000000
B1708433754251S06005868WA0145301513000000000000
B1708473754320S06005917WA0145501508000000000000
B1708513754389S06005862WA0144701506000000000000
B1708553754403S06005772WA0144201490000000000000
B1708593754363S06005710WA0143101498000000000000
B1709033754316S06005676WA0144401514000000000000
B1709073754268S06005658WA0145801524000000000000
B1709113754234S06005703WA0146701532000000000000
B1709153754274S06005774WA0147501543000000000000
B1709193754356S06005758WA0148401548000000000000
B1709233754380S06005673WA0149201560000000000000
B1709273754338S06005631WA0150101563000000000000
B1709313754294S06005664WA0150301563000000000000
B1709353754299S06005744WA0151001578000000000000
B1709393754374S06005777WA0151901586000000000000
B1709433754438S06005719WA0152301589000000000000
B1709473754437S06005633WA0152401592000000000000
B1709513754398S06005584WA0153401608000000000000
B1709553754354S06005618WA0154101606000000000000
B1709593754376S06005699WA0154601619000000000000
B1710033754458S06005716WA0155601624000000000000
B1710073754511S06005640WA0156001628000000000000
B1710113754495S06005558WA0156501635000000000000
B1710153754442S06005543WA0156901637000000000000
B1710193754404S06005598WA0157801653000000000000
B1710233754395S06005668WA0159301664000000000000
B1710273754459S06005714WA0159901670000000000000
B1710313754530S06005666WA0160601676000000000000
B1710353754527S06005585WA0161001682000000000000
B1710393754473S06005594WA0161501687000000000000
B1710433754451S06005657WA0162701701000000000000
B1710473754486S06005723WA0163601705000000000000
B1710513754564S06005715WA0163301698000000000000
B1710553754595S06005629WA0163101698000000000000
B1710593754553S06005577WA0164101721000000000000
B1711033754504S06005599WA0165201725000000000000
B1711073754484S06005660WA0165801724000000000000
B1711113754465S06005724WA0165601728000000000000
B1711153754441S06005785WA0165401718000000000000
B1711193754410S06005840WA0164801719000000000000
B1711233754377S06005888WA0165101715000000000000
B1711273754334S06005924WA0164201700000000000000
B1711313754293S06005971WA0163401703000000000000
B1711353754264S06006030WA0163801712000000000000
B1711393754244S06006089WA0164801712000000000000
B1711433754255S06006166WA0164601713000000000000
B1711473754312S06006229WA0164301704000000000000
B1711513754400S06006227WA0163401692000000000000
B1711553754472S06006158WA0162301683000000000000
B1711593754521S06006067WA0161601677000000000000
B1712033754567S06005971WA0160701669000000000000
B1712073754614S06005875WA0159901660000000000000
B1712113754660S06005779WA0159401660000000000000
B1712153754709S06005686WA0159201660000000000000
B1712193754755S06005595WA0159601656000000000000
B1712233754802S06005508WA0159801666000000000000
B1712273754853S06005432WA0160601674000000000000
B1712313754900S06005358WA0161301681000000000000
B1712353754898S06005274WA0162301690000000000000
B1712393754850S06005243WA0162301681000000000000
B1712433754820S06005295WA0162401689000000000000
B1712473754857S06005371WA0163001692000000000000
B1712513754940S06005390WA0163301693000000000000
B1712553755015S06005334WA0163501703000000000000
B1712593755034S06005246WA0164501714000000000000
B1713033754993S06005198WA0164901720000000000000
B1713073754953S06005235WA0165401729000000000000
B1713113754974S06005309WA0166201732000000000000
B1713153755048S06005342WA0166601732000000000000
B1713193755126S06005303WA0166501733000000000000
B1713233755148S06005213WA0167001741000000000000
B1713273755128S06005131WA0167501746000000000000
B1713313755087S06005088WA0168301758000000000000
B1713353755043S06005111WA0168401754000000000000
B1713393755047S06005183WA0169001760000000000000
B1713433755114S06005228WA0169101764000000000000
B1713473755184S06005174WA0169801764000000000000
B1713513755203S06005078WA0170001771000000000000
B1713553755187S06004995WA0170601776000000000000
B1713593755139S06004945WA0170501764000000000000
B1714033755086S06004917WA0170401779000000000000
B1714073755035S06004912WA0171001771000000000000
B1714113754998S06004960WA0170401771000000000000
B1714153754989S06005033WA0170501774000000000000
B1714193754993S06005105WA0170401769000000000000
B1714233755041S06005174WA0169901768000000000000
B1714273755119S06005212WA0169301761000000000000
B1714313755212S06005209WA0169201766000000000000
B1714353755300S06005192WA0169501764000000000000
B1714393755388S06005178WA0169801769000000000000
B1714433755472S06005168WA0170601776000000000000
B1714473755547S06005182WA0171601787000000000000
B1714513755619S06005207WA0171801784000000000000
B1714553755686S06005246WA0171401784000000000000
B1714593755734S06005308WA0171401787000000000000
B1715033755785S06005369WA0171001774000000000000
B1715073755864S06005393WA0170401775000000000000
B1715113755944S06005376WA0170801787000000000000
B1715153756003S06005308WA0172001799000000000000
B1715193756001S06005220WA0173401807000000000000
B1715233755947S06005213WA0173401807000000000000
B1715273755944S06005289WA0173601808000000000000
B1715313755999S06005348WA0173701811000000000000
B1715353756080S06005345WA0174401823000000000000
B1715393756129S06005268WA0175501832000000000000
B1715433756110S06005190WA0176401841000000000000
B1715473756057S06005196WA0176501838000000000000
B1715513756057S06005273WA0176801844000000000000
B1715553756123S06005321WA0177301849000000000000
B1715593756198S06005282WA0177801858000000000000
B1716033756218S06005190WA0178501861000000000000
B1716073756170S06005146WA0179001870000000000000
B1716113756139S06005195WA0179901879000000000000
B1716153756181S06005263WA0180401878000000000000
B1716193756266S06005252WA0180501885000000000000
B1716233756313S06005166WA0181001882000000000000
B1716273756292S06005079WA0181301884000000000000
B1716313756236S06005047WA0181301887000000000000
B1716353756183S06005062WA0180701884000000000000
B1716393756158S06005124WA0180701881000000000000
B1716433756196S06005192WA0180701885000000000000
B1716473756270S06005218WA0181101892000000000000
B1716513756345S06005183WA0182101900000000000000
B1716553756352S06005088WA0183001905000000000000
B1716593756297S06005075WA0183301911000000000000
B1717033756295S06005153WA0183901918000000000000
B1717073756361S06005194WA0184001925000000000000
B1717113756425S06005125WA0185001933000000000000
B1717153756414S06005034WA0185501937000000000000
B1717193756361S06005033WA0186101944000000000000
B1717233756361S06005111WA0186801941000000000000
B1717273756435S06005144WA0187001947000000000000
B1717313756505S06005085WA0187701954000000000000
B1717353756508S06004987WA0187901948000000000000
B1717393756452S06004945WA0187801953000000000000
B1717433756402S06004981WA0188001952000000000000
B1717473756399S06005059WA0187801948000000000000
E171748PEV
B1717483756408S06005079WA0187701947000000000000
B1717493756421S06005098WA0187601947000000000000
B1717503756435S06005113WA0187501946000000000000
E171751PEV
B1717513756453S06005126WA0187401947000000000000
B1717523756471S06005137WA0187401949000000000000
B1717533756492S06005143WA0187401952000000000000
B1717543756513S06005146WA0187501955000000000000
B1717553756534S06005144WA0187701960000000000000
B1717563756555S06005139WA0187901960000000000000
B1717573756575S06005131WA0188201961000000000000
B1717583756595S06005122WA0188501962000000000000
B1717593756613S06005111WA0188501962000000000000
B1718003756630S06005094WA0188501964000000000000
B1718013756643S06005073WA0188601968000000000000
B1718023756652S06005049WA0188601969000000000000
B1718033756659S06005026WA0188801968000000000000
B1718043756661S06005003WA0188901967000000000000
B1718053756659S06004979WA0189101968000000000000
B1718063756652S06004958WA0189301969000000000000
B1718073756643S06004940WA0189301967000000000000
B1718113756591S06004897WA0189001962000000000000
B1718153756538S06004918WA0188801970000000000000
B1718193756516S06004983WA0189601972000000000000
B1718233756548S06005057WA0189701969000000000000
B1718273756621S06005091WA0189901974000000000000
B1718313756701S06005062WA0189801976000000000000
B1718353756770S06005001WA0190101980000000000000
B1718393756835S06004929WA0190301976000000000000
B1718433756909S06004861WA0189801969000000000000
B1718473756986S06004792WA0189401964000000000000
B1718513757072S06004741WA0188901958000000000000
B1718553757162S06004730WA0188901965000000000000
B1718593757245S06004722WA0189301963000000000000
B1719033757327S06004715WA0189201958000000000000
B1719073757411S06004723WA0188101943000000000000
B1719113757496S06004750WA0186801932000000000000
B1719153757578S06004788WA0185601921000000000000
B1719193757658S06004835WA0185001920000000000000
B1719233757735S06004882WA0185001917000000000000
B1719273757810S06004934WA0184401911000000000000
B1719313757884S06004987WA0184301909000000000000
B1719353757957S06005039WA0183901906000000000000
B1719393758031S06005090WA0183601906000000000000
B1719433758104S06005138WA0183601904000000000000
B1719473758176S06005186WA0183401907000000000000
B1719513758242S06005235WA0183701906000000000000
B1719553758307S06005287WA0183401897000000000000
B1719593758376S06005338WA0182401889000000000000
B1720033758443S06005395WA0181601882000000000000
B1720073758514S06005450WA0181101880000000000000
B1720113758584S06005506WA0180801871000000000000
B1720153758654S06005567WA0180201868000000000000
B1720193758722S06005631WA0179801864000000000000
B1720233758794S06005690WA0179301860000000000000
B1720273758867S06005753WA0178901855000000000000
B1720313758941S06005811WA0178601855000000000000
B1720353759014S06005871WA0178201845000000000000
B1720393759090S06005928WA0177501841000000000000
B1720433759164S06005984WA0177101834000000000000
B1720473759240S06006040WA0176401828000000000000
B1720513759312S06006100WA0175901823000000000000
B1720553759386S06006160WA0175401818000000000000
B1720593759457S06006217WA0175001814000000000000
B1721033759529S06006275WA0174601810000000000000
B1721073759603S06006330WA0174001802000000000000
B1721113759682S06006379WA0173101794000000000000
B1721153759763S06006426WA0172301786000000000000
B1721193759838S06006479WA0171901784000000000000
B1721233759915S06006529WA0171501789000000000000
B1721273759994S06006564WA0172001796000000000000
B1721313800074S06006595WA0172801796000000000000
B1721353800152S06006629WA0172201786000000000000
B1721393800239S06006635WA0172301799000000000000
B1721433800322S06006599WA0173101806000000000000
B1721473800371S06006517WA0174001816000000000000
B1721513800362S06006427WA0174801820000000000000
B1721553800309S06006388WA0174701821000000000000
B1721593800275S06006438WA0174901821000000000000
B1722033800302S06006508WA0175101822000000000000
B1722073800365S06006551WA0175001821000000000000
B1722113800440S06006546WA0175201823000000000000
B1722153800499S06006485WA0175301827000000000000
B1722193800514S06006396WA0175401820000000000000
B1722233800483S06006323WA0175201823000000000000
B1722273800438S06006277WA0174901817000000000000
B1722313800387S06006282WA0174701815000000000000
B1722353800362S06006342WA0174301805000000000000
B1722393800375S06006417WA0173101798000000000000
B1722433800396S06006491WA0172701796000000000000
B1722473800404S06006565WA0173101806000000000000
B1722513800399S06006633WA0174001810000000000000
B1722553800408S06006707WA0174201811000000000000
B1722593800453S06006776WA0174501816000000000000
B1723033800527S06006814WA0174601819000000000000
B1723063800585S06006788WA0175501831000000000000
B1723113800607S06006690WA0176101839000000000000
B1723153800555S06006671WA0176701846000000000000
B1723193800527S06006739WA0177601858000000000000
B1723233800575S06006808WA0178801866000000000000
B1723273800650S06006793WA0179701877000000000000
B1723313800681S06006717WA0179801876000000000000
B1723353800648S06006652WA0180001877000000000000
B1723393800591S06006658WA0180501887000000000000
B1723433800564S06006721WA0181401900000000000000
B1723473800607S06006786WA0182401902000000000000
B1723513800682S06006767WA0182501911000000000000
B1723553800713S06006685WA0182701905000000000000
B1723593800682S06006620WA0182901915000000000000
B1724033800629S06006616WA0183601917000000000000
B1724073800605S06006685WA0183901918000000000000
B1724113800647S06006759WA0183701910000000000000
B1724153800726S06006772WA0183401914000000000000
B1724193800791S06006710WA0183501914000000000000
B1724233800804S06006621WA0183901918000000000000
B1724273800770S06006556WA0184401917000000000000
B1724313800716S06006548WA0184501924000000000000
B1724353800677S06006603WA0184401919000000000000
B1724393800689S06006689WA0184101917000000000000
B1724433800751S06006741WA0184501922000000000000
B1724473800826S06006720WA0185301924000000000000
B1724513800881S06006651WA0185101918000000000000
B1724553800893S06006561WA0184501916000000000000
B1724593800859S06006495WA0184001918000000000000
B1725033800803S06006490WA0184501922000000000000
B1725073800759S06006533WA0185001924000000000000
B1725113800747S06006611WA0184601918000000000000
B1725153800790S06006680WA0184501919000000000000
B1725193800865S06006695WA0184401918000000000000
B1725233800938S06006660WA0184201913000000000000
B1725273800989S06006583WA0184101916000000000000
B1725313801003S06006491WA0183501907000000000000
B1725353800958S06006433WA0183501918000000000000
B1725393800903S06006425WA0183901914000000000000
B1725433800856S06006466WA0184301911000000000000
B1725473800843S06006544WA0184301911000000000000
B1725513800889S06006613WA0184101909000000000000
B1725553800967S06006625WA0183901908000000000000
B1725593801038S06006578WA0183701905000000000000
B1726033801090S06006502WA0183101903000000000000
B1726073801089S06006407WA0183101905000000000000
B1726113801042S06006355WA0183101907000000000000
B1726153800990S06006379WA0183301909000000000000
B1726193800988S06006455WA0183601911000000000000
B1726233801043S06006512WA0183801912000000000000
B1726273801120S06006502WA0183801910000000000000
B1726313801190S06006461WA0183501907000000000000
B1726353801264S06006435WA0183501909000000000000
B1726393801339S06006411WA0183401905000000000000
B1726433801402S06006355WA0182901903000000000000
B1726473801443S06006275WA0183301907000000000000
B1726513801440S06006191WA0183601914000000000000
B1726553801396S06006141WA0184001913000000000000
B1726593801346S06006164WA0184201921000000000000
B1727033801341S06006235WA0184701918000000000000
B1727073801387S06006304WA0184101913000000000000
B1727113801463S06006321WA0184101915000000000000
B1727153801537S06006292WA0184201918000000000000
B1727193801586S06006223WA0184901926000000000000
B1727233801600S06006141WA0185001919000000000000
B1727273801576S06006062WA0184001907000000000000
B1727313801539S06005988WA0183201906000000000000
B1727353801505S06005911WA0182701898000000000000
B1727393801475S06005826WA0181801886000000000000
B1727433801439S06005744WA0180901874000000000000
B1727473801392S06005667WA0179601860000000000000
B1727513801341S06005594WA0178301848000000000000
B1727553801281S06005528WA0176801836000000000000
B1727593801216S06005469WA0176301835000000000000
B1728033801151S06005421WA0176401842000000000000
B1728073801089S06005391WA0177201852000000000000
B1728113801037S06005364WA0178901869000000000000
B1728153800989S06005360WA0179701867000000000000
B1728193800937S06005347WA0178901849000000000000
B1728233800887S06005283WA0176901824000000000000
B1728273800837S06005203WA0174301808000000000000
B1728313800789S06005113WA0173201801000000000000
B1728353800742S06005021WA0172801794000000000000
B1728393800699S06004923WA0172301782000000000000
B1728433800659S06004819WA0170901772000000000000
B1728473800625S06004708WA0170501769000000000000
B1728513800594S06004596WA0170201766000000000000
B1728553800566S06004485WA0169801759000000000000
B1728593800535S06004375WA0168701743000000000000
B1729033800501S06004263WA0167501734000000000000
B1729073800469S06004149WA0166501721000000000000
B1729113800434S06004032WA0165301710000000000000
B1729153800395S06003915WA0164301704000000000000
B1729193800357S06003796WA0164101704000000000000
B1729233800319S06003677WA0164501711000000000000
B1729273800287S06003554WA0164601708000000000000
B1729313800256S06003427WA0163901697000000000000
B1729353800228S06003294WA0163201685000000000000
B1729393800204S06003158WA0162001676000000000000
B1729433800182S06003019WA0161001663000000000000
B1729473800158S06002880WA0159901657000000000000
B1729513800135S06002738WA0158901645000000000000
B1729553800114S06002596WA0158001637000000000000
B1729593800094S06002456WA0157501634000000000000
B1730033800074S06002317WA0157001626000000000000
B1730073800055S06002179WA0155901615000000000000
B1730113800037S06002043WA0154901602000000000000
B1730153800020S06001906WA0153801589000000000000
B1730193800003S06001768WA0152301575000000000000
B1730233759997S06001627WA0151901589000000000000
B1730273800000S06001498WA0154001622000000000000
B1730313800006S06001387WA0157101650000000000000
B1730353800009S06001279WA0158201651000000000000
B1730393759994S06001172WA0157901639000000000000
B1730433759953S06001083WA0157501646000000000000
B1730473759901S06001013WA0157401637000000000000
B1730513759840S06000948WA0156801630000000000000
B1730553759772S06000880WA0155501606000000000000
B1730593759697S06000813WA0152801583000000000000
B1731033759616S06000750WA0151301586000000000000
B1731073759543S06000697WA0154001610000000000000
B1731113759472S06000648WA0154201595000000000000
B1731153759398S06000597WA0153301590000000000000
B1731193759322S06000538WA0152301576000000000000
B1731233759249S06000466WA0151401566000000000000
B1731273759179S06000384WA0150201555000000000000
B1731313759108S06000299WA0149201544000000000000
B1731353759039S06000210WA0148001527000000000000
B1731393758969S06000120WA0147401529000000000000
B1731433758905S06000024WA0147501531000000000000
B1731473758853S05959918WA0147401537000000000000
B1731513758805S05959810WA0146801524000000000000
B1731553758757S05959701WA0146301513000000000000
B1731593758711S05959591WA0145001498000000000000
B1732033758664S05959479WA0143901492000000000000
B1732073758615S05959372WA0143401483000000000000
B1732113758553S05959275WA0142401473000000000000
B1732153758486S05959184WA0141801473000000000000
B1732193758420S05959097WA0142001471000000000000
B1732233758343S05959023WA0141401461000000000000
B1732273758260S05958964WA0140801462000000000000
B1732313758177S05958907WA0140901459000000000000
B1732353758099S05958838WA0140601458000000000000
B1732393758027S05958759WA0140701454000000000000
B1732433757966S05958657WA0139801443000000000000
B1732473757913S05958549WA0138801434000000000000
B1732513757864S05958438WA0137601416000000000000
B1732553757814S05958323WA0136401408000000000000
B1732593757764S05958213WA0135601399000000000000
B1733033757715S05958101WA0134701393000000000000
B1733073757667S05957989WA0133901383000000000000
B1733113757621S05957875WA0133401383000000000000
B1733153757575S05957759WA0133301375000000000000
B1733193757530S05957645WA0132701362000000000000
B1733233757485S05957526WA0131001346000000000000
B1733273757440S05957408WA0129801334000000000000
B1733313757398S05957285WA0128001321000000000000
B1733353757363S05957156WA0127101306000000000000
B1733393757332S05957025WA0125601294000000000000
B1733433757315S05956891WA0125101294000000000000
B1733473757303S05956758WA0124801285000000000000
B1733513757293S05956632WA0124701298000000000000
B1733553757279S05956510WA0125601303000000000000
B1733593757262S05956390WA0125801300000000000000
B1734033757240S05956272WA0125401291000000000000
B1734073757214S05956150WA0123501268000000000000
B1734113757190S05956020WA0121301252000000000000
B1734153757169S05955888WA0119901236000000000000
B1734193757153S05955756WA0119401251000000000000
B1734233757134S05955635WA0121401267000000000000
B1734273757110S05955528WA0123601302000000000000
B1734313757089S05955449WA0128001345000000000000
B1734353757047S05955411WA0130001354000000000000
B1734393757003S05955427WA0130701353000000000000
B1734433756947S05955403WA0129301334000000000000
B1734473756903S05955322WA0127501324000000000000
B1734513756861S05955229WA0127701327000000000000
B1734553756818S05955133WA0127901329000000000000
B1734593756774S05955036WA0128001324000000000000
B1735033756729S05954933WA0126401296000000000000
B1735073756679S05954821WA0123701273000000000000
B1735113756629S05954705WA0121401250000000000000
B1735153756575S05954588WA0119701239000000000000
B1735193756523S05954473WA0118501225000000000000
B1735233756478S05954348WA0117601212000000000000
B1735273756431S05954223WA0116101197000000000000
B1735313756380S05954101WA0115001189000000000000
B1735353756330S05953980WA0114101182000000000000
B1735393756275S05953862WA0113401173000000000000
B1735433756220S05953745WA0112401160000000000000
B1735473756170S05953624WA0111601160000000000000
B1735513756124S05953502WA0111101147000000000000
B1735553756085S05953374WA0110301139000000000000
B1735593756053S05953245WA0109701135000000000000
B1736033756028S05953117WA0109401138000000000000
B1736073756007S05952991WA0109201128000000000000
B1736113755996S05952858WA0108001114000000000000
B1736153755992S05952720WA0107501116000000000000
B1736193755992S05952584WA0107501112000000000000
B1736233756001S05952445WA0107101112000000000000
B1736273756011S05952313WA0108201138000000000000
B1736313756022S05952205WA0112601185000000000000
B1736353756053S05952124WA0115501209000000000000
B1736393756127S05952112WA0116501214000000000000
B1736433756162S05952181WA0116801211000000000000
B1736473756133S05952244WA0116401216000000000000
B1736513756094S05952282WA0117801236000000000000
B1736553756045S05952272WA0119001248000000000000
B1736593756031S05952200WA0120401261000000000000
B1737033756081S05952135WA0121401268000000000000
B1737073756150S05952147WA0122801286000000000000
B1737113756168S05952217WA0123801294000000000000
B1737153756123S05952251WA0124501298000000000000
B1737193756080S05952200WA0125301312000000000000
B1737233756070S05952118WA0126201317000000000000
B1737273756109S05952039WA0127101332000000000000
B1737313756180S05952035WA0128601349000000000000
B1737353756201S05952104WA0130001358000000000000
B1737393756157S05952125WA0130701366000000000000
B1737433756129S05952053WA0131801379000000000000
B1737473756157S05951971WA0133001389000000000000
B1737513756228S05951938WA0134001397000000000000
B1737553756293S05951979WA0134501405000000000000
B1737593756276S05952038WA0136201423000000000000
B1738033756233S05951995WA0136801429000000000000
B1738073756271S05951914WA0138101443000000000000
B1738113756348S05951919WA0139201450000000000000
B1738153756365S05951995WA0139701463000000000000
B1738193756322S05952018WA0141001475000000000000
B1738233756304S05951945WA0142101486000000000000
B1738273756363S05951886WA0143401498000000000000
B1738313756428S05951929WA0144301505000000000000
B1738353756413S05951995WA0145001512000000000000
B1738393756365S05951962WA0145801523000000000000
B1738433756392S05951875WA0146801533000000000000
B1738473756467S05951875WA0148101547000000000000
B1738513756475S05951951WA0148901547000000000000
B1738553756430S05951958WA0149101547000000000000
B1738593756417S05951875WA0150501561000000000000
B1739033756475S05951814WA0151201572000000000000
B1739073756545S05951841WA0152201580000000000000
B1739113756555S05951917WA0152801586000000000000
B1739153756508S05951953WA0152901587000000000000
B1739193756451S05951936WA0153501599000000000000
B1739233756396S05951900WA0154601609000000000000
B1739273756345S05951843WA0154601600000000000000
B1739313756287S05951782WA0153501585000000000000
B1739353756224S05951714WA0152001574000000000000
B1739393756157S05951650WA0150701567000000000000
B1739433756087S05951591WA0150701558000000000000
B1739473756015S05951529WA0150301564000000000000
B1739513755951S05951468WA0152301602000000000000
B1739553755894S05951415WA0154101591000000000000
B1739593755824S05951380WA0152601573000000000000
B1740033755746S05951355WA0150701553000000000000
B1740073755658S05951333WA0148501530000000000000
B1740113755564S05951312WA0146801509000000000000
B1740153755468S05951288WA0144801492000000000000
B1740193755373S05951259WA0143501484000000000000
B1740233755279S05951228WA0142801477000000000000
B1740273755186S05951193WA0141901468000000000000
B1740313755095S05951151WA0141101464000000000000
B1740353755006S05951106WA0140601455000000000000
B1740393754918S05951054WA0140301457000000000000
B1740433754836S05951004WA0142201489000000000000
B1740473754764S05950964WA0145301529000000000000
B1740513754712S05950928WA0150101576000000000000
B1740553754666S05950908WA0152601595000000000000
B1740593754636S05950957WA0153901606000000000000
B1741033754681S05951017WA0154601607000000000000
B1741073754755S05950985WA0154701610000000000000
B1741113754772S05950896WA0155301618000000000000
B1741153754728S05950840WA0156201632000000000000
B1741193754672S05950816WA0157401646000000000000
B1741233754616S05950830WA0158801657000000000000
B1741273754598S05950900WA0160101672000000000000
B1741313754658S05950951WA0161201685000000000000
B1741353754723S05950908WA0162401696000000000000
B1741393754705S05950830WA0163801710000000000000
B1741433754653S05950850WA0164801720000000000000
B1741473754680S05950924WA0165601731000000000000
B1741513754754S05950908WA0166501736000000000000
B1741553754763S05950825WA0167701752000000000000
B1741593754715S05950781WA0169101761000000000000
B1742033754681S05950833WA0170101770000000000000
B1742073754723S05950904WA0170901790000000000000
B1742113754794S05950900WA0172201801000000000000
B1742153754822S05950820WA0173401810000000000000
B1742193754774S05950770WA0174601818000000000000
B1742233754712S05950774WA0174901814000000000000
B1742273754649S05950755WA0174201810000000000000
B1742313754581S05950708WA0172701787000000000000
B1742353754510S05950642WA0170601758000000000000
B1742393754434S05950560WA0167801731000000000000
B1742433754359S05950470WA0165801719000000000000
B1742473754283S05950378WA0165001710000000000000
B1742513754213S05950280WA0164601706000000000000
B1742553754148S05950177WA0164301703000000000000
B1742593754091S05950073WA0164001699000000000000
B1743033754035S05949968WA0163401691000000000000
B1743073753974S05949871WA0162701680000000000000
B1743113753906S05949777WA0161201668000000000000
B1743153753836S05949685WA0160101658000000000000
B1743193753765S05949595WA0159101646000000000000
B1743233753692S05949508WA0158301637000000000000
B1743273753620S05949422WA0157501627000000000000
B1743313753549S05949335WA0156401619000000000000
B1743353753479S05949251WA0155701617000000000000
B1743393753412S05949179WA0157001650000000000000
B1743433753357S05949124WA0160301689000000000000
B1743473753306S05949091WA0163301713000000000000
B1743513753260S05949065WA0165701732000000000000
B1743553753217S05949032WA0166801733000000000000
B1743593753177S05948984WA0166801726000000000000
B1744033753139S05948918WA0165301710000000000000
B1744073753097S05948842WA0164101704000000000000
B1744113753050S05948760WA0162901683000000000000
B1744153752996S05948671WA0161001653000000000000
B1744193752941S05948569WA0158601631000000000000
B1744233752885S05948460WA0156801617000000000000
B1744273752829S05948347WA0155201600000000000000
B1744313752774S05948233WA0153701585000000000000
B1744353752718S05948117WA0152301570000000000000
B1744393752662S05948001WA0150901559000000000000
B1744433752604S05947892WA0150501562000000000000
B1744473752548S05947792WA0150601566000000000000
B1744513752493S05947700WA0150901556000000000000
B1744553752443S05947597WA0149701543000000000000
B1744593752392S05947490WA0148601530000000000000
B1745033752341S05947379WA0147301520000000000000
B1745073752289S05947267WA0146201510000000000000
B1745113752239S05947154WA0145201498000000000000
B1745153752184S05947044WA0144001486000000000000
B1745193752132S05946935WA0142801478000000000000
B1745233752083S05946826WA0142101471000000000000
B1745273752032S05946718WA0141101457000000000000
B1745313751980S05946610WA0140601461000000000000
B1745353751932S05946502WA0140701465000000000000
B1745393751893S05946397WA0141301478000000000000
B1745433751859S05946292WA0142001470000000000000
B1745473751826S05946180WA0140801454000000000000
B1745513751793S05946066WA0139601441000000000000
B1745553751760S05945947WA0138401434000000000000
B1745593751726S05945826WA0138101429000000000000
B1746033751694S05945704WA0137901427000000000000
B1746073751663S05945578WA0137101413000000000000
B1746113751631S05945451WA0135801401000000000000
B1746153751602S05945319WA0134601388000000000000
B1746193751577S05945183WA0133401378000000000000
B1746233751556S05945048WA0132401367000000000000
B1746273751540S05944910WA0131401359000000000000
B1746313751529S05944773WA0130801352000000000000
B1746353751520S05944637WA0130001346000000000000
B1746393751512S05944503WA0129601341000000000000
B1746433751504S05944369WA0128601327000000000000
B1746473751496S05944233WA0127401316000000000000
B1746513751490S05944097WA0126701307000000000000
B1746553751483S05943962WA0125901298000000000000
B1746593751477S05943828WA0124601285000000000000
B1747033751474S05943693WA0123701282000000000000
B1747073751478S05943562WA0123401275000000000000
B1747113751485S05943429WA0122701266000000000000
B1747153751492S05943297WA0121501253000000000000
B1747193751499S05943163WA0120101243000000000000
B1747233751507S05943033WA0119901243000000000000
B1747273751513S05942908WA0120101247000000000000
B1747313751522S05942787WA0120401260000000000000
B1747353751537S05942680WA0122201287000000000000
B1747393751556S05942596WA0125701315000000000000
B1747433751576S05942519WA0126801306000000000000
B1747473751573S05942433WA0125401284000000000000
B1747513751543S05942344WA0122701265000000000000
B1747553751507S05942247WA0120601243000000000000
B1747593751482S05942136WA0119701263000000000000
B1748033751472S05942036WA0123501300000000000000
B1748073751459S05941954WA0125301320000000000000
B1748113751420S05941903WA0127201323000000000000
B1748153751369S05941920WA0127601336000000000000
B1748193751369S05941995WA0129001346000000000000
B1748233751425S05942046WA0129401349000000000000
B1748273751501S05942039WA0130101361000000000000
B1748313751570S05942010WA0131301372000000000000
B1748353751613S05941935WA0132001378000000000000
B1748393751604S05941861WA0132801391000000000000
B1748433751573S05941844WA0133701400000000000000
B1748473751543S05941909WA0132301381000000000000
B1748513751548S05941991WA0132901397000000000000
B1748553751564S05942064WA0134001411000000000000
B1748593751628S05942091WA0135601425000000000000
B1749033751678S05942033WA0136801430000000000000
B1749073751656S05941967WA0136801432000000000000
B1749113751607S05941977WA0138101454000000000000
B1749153751602S05942046WA0139601461000000000000
B1749193751667S05942086WA0140101465000000000000
B1749233751730S05942036WA0140701474000000000000
B1749273751737S05941955WA0141701481000000000000
B1749313751689S05941942WA0142901494000000000000
B1749353751677S05942011WA0143701496000000000000
B1749393751741S05942064WA0144001505000000000000
B1749433751813S05942036WA0145201517000000000000
B1749473751842S05941955WA0145901521000000000000
B1749513751803S05941907WA0146301528000000000000
B1749553751756S05941945WA0147301536000000000000
B1749593751763S05942028WA0147901540000000000000
B1750033751836S05942069WA0148501551000000000000
B1750073751908S05942029WA0149401558000000000000
B1750113751941S05941942WA0149801562000000000000
B1750153751919S05941868WA0150301574000000000000
B1750193751871S05941851WA0151601580000000000000
B1750233751837S05941904WA0152101581000000000000
B1750273751855S05941990WA0152301587000000000000
B1750313751919S05942047WA0152901596000000000000
B1750353751999S05942056WA0153501601000000000000
B1750393752070S05942004WA0153901606000000000000
B1750433752088S05941915WA0154301612000000000000
B1750473752057S05941837WA0154201608000000000000
B1750513752011S05941770WA0154701605000000000000
B1750553751964S05941700WA0153801591000000000000
B1750593751925S05941608WA0152601580000000000000
B1751033751890S05941504WA0151701570000000000000
B1751073751858S05941396WA0151601580000000000000
B1751113751821S05941308WA0153201615000000000000
B1751153751789S05941223WA0155101606000000000000
B1751193751754S05941129WA0153501578000000000000
B1751233751717S05941020WA0151001556000000000000
B1751273751681S05940903WA0149101541000000000000
B1751313751643S05940782WA0147701531000000000000
B1751353751607S05940663WA0146801522000000000000
B1751393751570S05940542WA0145901513000000000000
B1751433751531S05940422WA0145101504000000000000
B1751473751488S05940305WA0144301494000000000000
B1751513751443S05940192WA0143601486000000000000
B1751553751397S05940079WA0142501475000000000000
B1751593751351S05939966WA0141901470000000000000
B1752033751306S05939850WA0141001459000000000000
B1752073751262S05939732WA0139501440000000000000
B1752113751219S05939610WA0138201427000000000000
B1752153751175S05939486WA0136901417000000000000
B1752193751131S05939364WA0136401409000000000000
B1752233751089S05939244WA0136201436000000000000
B1752273751070S05939142WA0140201490000000000000
B1752313751052S05939055WA0144001497000000000000
B1752353751027S05938964WA0143001461000000000000
B1752393750996S05938852WA0139101420000000000000
B1752433750961S05938724WA0135401384000000000000
B1752473750924S05938589WA0132601367000000000000
B1752513750889S05938453WA0131001352000000000000
B1752553750849S05938319WA0129701341000000000000
B1752593750805S05938189WA0128801334000000000000
B1753033750759S05938060WA0128001327000000000000
B1753073750715S05937935WA0127501323000000000000
B1753113750672S05937814WA0127301325000000000000
B1753153750630S05937697WA0127201312000000000000
B1753193750589S05937578WA0125601295000000000000
B1753233750549S05937458WA0124001282000000000000
B1753273750508S05937339WA0122701268000000000000
B1753313750472S05937215WA0121701259000000000000
B1753353750437S05937092WA0120401245000000000000
B1753393750398S05936969WA0119301235000000000000
B1753433750365S05936845WA0118401231000000000000
B1753473750342S05936720WA0118701243000000000000
B1753513750334S05936604WA0120701283000000000000
B1753553750360S05936511WA0124901322000000000000
B1753593750396S05936433WA0128101344000000000000
B1754033750381S05936364WA0130101361000000000000
B1754073750331S05936387WA0131401370000000000000
B1754113750342S05936470WA0132101371000000000000
B1754153750413S05936504WA0132101371000000000000
B1754193750480S05936453WA0132201379000000000000
B1754233750521S05936384WA0133201391000000000000
B1754273750523S05936304WA0134001395000000000000
B1754313750480S05936254WA0134101403000000000000
B1754353750428S05936238WA0135301414000000000000
B1754393750408S05936169WA0136201424000000000000
B1754433750451S05936096WA0137301434000000000000
B1754473750528S05936108WA0137501427000000000000
B1754513750558S05936188WA0137201429000000000000
B1754553750532S05936251WA0137501438000000000000
B1754593750497S05936299WA0138401441000000000000
B1755033750498S05936379WA0139301460000000000000
B1755073750565S05936418WA0140901476000000000000
B1755113750616S05936356WA0142201490000000000000
B1755153750585S05936299WA0143701494000000000000
B1755193750536S05936326WA0144101504000000000000
B1755233750550S05936408WA0145501519000000000000
B1755273750623S05936431WA0147001532000000000000
B1755313750671S05936365WA0147701543000000000000
B1755353750642S05936303WA0148301554000000000000
B1755393750593S05936316WA0149601563000000000000
B1755433750578S05936388WA0150401566000000000000
B1755473750645S05936438WA0151001586000000000000
B1755513750707S05936391WA0152701598000000000000
B1755553750694S05936314WA0153601604000000000000
B1755593750637S05936305WA0154601616000000000000
B1756033750624S05936381WA0155601626000000000000
B1756073750688S05936438WA0156201635000000000000
B1756113750763S05936409WA0157401649000000000000
B1756153750781S05936329WA0158701658000000000000
B1756193750737S05936287WA0159601669000000000000
B1756233750692S05936318WA0160601679000000000000
B1756273750695S05936400WA0161001681000000000000
B1756313750764S05936446WA0161701697000000000000
B1756353750828S05936400WA0163301708000000000000
B1756393750831S05936318WA0164001711000000000000
B1756433750777S05936295WA0164501717000000000000
B1756473750728S05936319WA0165201727000000000000
B1756513750685S05936362WA0165201718000000000000
B1756553750638S05936405WA0165401727000000000000
B1756593750595S05936452WA0166201737000000000000
B1757033750585S05936530WA0166801742000000000000
B1757073750636S05936596WA0167401743000000000000
B1757113750706S05936590WA0167601748000000000000
B1757153750746S05936521WA0168001754000000000000
B1757193750732S05936438WA0168301753000000000000
B1757233750693S05936362WA0167601745000000000000
B1757273750642S05936290WA0166901741000000000000
B1757313750586S05936217WA0166101720000000000000
B1757353750520S05936152WA0164401702000000000000
B1757393750448S05936088WA0162601680000000000000
B1757433750374S05936014WA0161101667000000000000
B1757473750299S05935942WA0159701651000000000000
B1757513750217S05935874WA0158201638000000000000
B1757553750134S05935806WA0157101628000000000000
B1757593750049S05935737WA0156001616000000000000
B1758033749966S05935667WA0155401613000000000000
B1758073749886S05935599WA0155101611000000000000
B1758113749804S05935532WA0154401599000000000000
B1758153749720S05935463WA0153301585000000000000
B1758193749637S05935394WA0152301574000000000000
B1758233749553S05935325WA0151301565000000000000
B1758273749470S05935257WA0150301556000000000000
B1758313749388S05935188WA0149301546000000000000
B1758353749310S05935117WA0148601539000000000000
B1758393749233S05935048WA0147801529000000000000
B1758433749159S05934973WA0146701519000000000000
B1758473749086S05934895WA0145601509000000000000
B1758513749015S05934815WA0145001498000000000000
B1758553748943S05934735WA0143801486000000000000
B1758593748872S05934657WA0142601472000000000000
B1759033748801S05934571WA0141001456000000000000
B1759073748734S05934479WA0139701443000000000000
B1759113748667S05934384WA0138501433000000000000
B1759153748602S05934288WA0137601422000000000000
B1759193748536S05934194WA0136201405000000000000
B1759233748466S05934100WA0134901392000000000000
B1759273748393S05934008WA0133701379000000000000
B1759313748320S05933917WA0132401363000000000000
B1759353748249S05933823WA0130801351000000000000
B1759393748177S05933732WA0130101352000000000000
B1759433748111S05933640WA0130401351000000000000
B1759473748045S05933548WA0129801339000000000000
B1759513747976S05933454WA0128501332000000000000
B1759553747908S05933359WA0127901325000000000000
B1759593747839S05933267WA0127601322000000000000
B1800033747773S05933175WA0127401319000000000000
B1800073747707S05933084WA0126601307000000000000
B1800113747644S05932993WA0125601298000000000000
B1800153747582S05932902WA0124801291000000000000
B1800193747520S05932812WA0123901282000000000000
B1800233747457S05932721WA0123201273000000000000
B1800273747392S05932629WA0121801257000000000000
B1800313747327S05932531WA0120401246000000000000
B1800353747263S05932435WA0119801234000000000000
B1800393747196S05932338WA0118201215000000000000
B1800433747126S05932241WA0116701200000000000000
B1800473747054S05932149WA0115201186000000000000
B1800513746984S05932052WA0113801170000000000000
B1800553746915S05931951WA0112401161000000000000
B1800593746851S05931850WA0111701156000000000000
B1801033746788S05931751WA0111001146000000000000
B1801073746728S05931651WA0110101135000000000000
B1801113746668S05931547WA0109001122000000000000
B1801153746611S05931439WA0107801112000000000000
B1801193746556S05931333WA0107201108000000000000
B1801233746508S05931225WA0106501100000000000000
B1801273746467S05931112WA0105701085000000000000
B1801313746433S05930989WA0104101068000000000000
B1801353746403S05930866WA0102401052000000000000
B1801393746376S05930749WA0102001060000000000000
B1801433746353S05930642WA0103601091000000000000
B1801473746334S05930546WA0105601095000000000000
B1801513746311S05930453WA0105701096000000000000
B1801553746287S05930359WA0106201104000000000000
B1801593746266S05930272WA0107101125000000000000
B1802033746249S05930193WA0108501124000000000000
B1802073746233S05930108WA0108101111000000000000
B1802113746213S05930018WA0107501124000000000000
B1802153746194S05929931WA0108101116000000000000
B1802193746169S05929842WA0107401108000000000000
B1802233746143S05929747WA0106701099000000000000
B1802273746116S05929647WA0105501079000000000000
B1802313746083S05929543WA0103501060000000000000
B1802353746040S05929444WA0101801049000000000000
B1802393745995S05929348WA0100801041000000000000
B1802433745954S05929251WA0100901056000000000000
B1802473745919S05929163WA0102101065000000000000
B1802513745872S05929102WA0103701085000000000000
B1802553745828S05929060WA0105301093000000000000
B1802593745785S05929016WA0105701097000000000000
B1803033745748S05928963WA0106001098000000000000
B1803073745713S05928902WA0105301080000000000000
B1803113745675S05928835WA0103301063000000000000
B1803153745635S05928763WA0101201047000000000000
B1803193745594S05928685WA0100201037000000000000
B1803233745555S05928605WA0099101029000000000000
B1803273745515S05928525WA0098701024000000000000
B1803313745476S05928440WA0097701013000000000000
B1803353745446S05928349WA0097301012000000000000
B1803393745424S05928258WA0097401020000000000000
B1803433745415S05928172WA0098301026000000000000
B1803473745414S05928093WA0098901031000000000000
B1803513745415S05928019WA0099101022000000000000
B1803553745408S05927938WA0097500998000000000000
B1803593745382S05927853WA0095300979000000000000
B1804033745350S05927767WA0093500968000000000000
B1804073745316S05927678WA0092400953000000000000
B1804113745276S05927591WA0091100948000000000000
B1804153745250S05927500WA0091400958000000000000
B1804193745239S05927408WA0092000958000000000000
B1804233745232S05927318WA0091900953000000000000
B1804273745193S05927255WA0091800958000000000000
B1804313745142S05927231WA0091900951000000000000
B1804353745086S05927219WA0090900944000000000000
B1804393745034S05927209WA0091000944000000000000
B1804433744983S05927200WA0090900948000000000000
B1804473744936S05927186WA0091400950000000000000
B1804513744900S05927144WA0091400946000000000000
B1804553744886S05927075WA0091200952000000000000
B1804593744879S05927008WA0091900961000000000000
B1805033744878S05926937WA0092400956000000000000
B1805073744899S05926863WA0092400963000000000000
B1805113744922S05926793WA0093100970000000000000
B1805153744961S05926729WA0093400971000000000000
B1805193745017S05926673WA0093300971000000000000
B1805233745070S05926615WA0093100960000000000000
B1805273745085S05926530WA0092100955000000000000
B1805313745044S05926495WA0092000955000000000000
B1805353745001S05926520WA0090900939000000000000
B1805393744973S05926579WA0089700924000000000000
B1805433744955S05926657WA0088000910000000000000
B1805473744940S05926740WA0087000907000000000000
B1805513744920S05926814WA0088000926000000000000
B1805553744900S05926876WA0089700942000000000000
B1805593744929S05926948WA0090800948000000000000
B1806033744999S05926972WA0091000950000000000000
B1806073745052S05926915WA0091300951000000000000
B1806113745040S05926844WA0091200952000000000000
B1806153744996S05926816WA0091700959000000000000
B1806193744952S05926798WA0092300962000000000000
B1806233744910S05926768WA0093000978000000000000
B1806273744874S05926733WA0094300983000000000000
B1806313744836S05926690WA0094500984000000000000
B1806353744800S05926654WA0095801006000000000000
B1806393744769S05926679WA0097001016000000000000
B1806433744805S05926742WA0097501014000000000000
B1806473744887S05926736WA0097701023000000000000
B1806513744957S05926698WA0099201042000000000000
B1806553744964S05926624WA0100501049000000000000
B1806593744921S05926618WA0100801053000000000000
B1807033744925S05926690WA0101601069000000000000
B1807073744987S05926738WA0102701083000000000000
B1807113745053S05926696WA0104101089000000000000
B1807153745043S05926627WA0104701093000000000000
B1807193744999S05926636WA0104901093000000000000
B1807233744975S05926697WA0105401112000000000000
B1807273745013S05926762WA0107101122000000000000
B1807313745090S05926736WA0108301136000000000000
B1807353745095S05926659WA0109201139000000000000
B1807393745051S05926650WA0109901151000000000000
B1807433745025S05926697WA0110801159000000000000
B1807473745050S05926763WA0111601163000000000000
B1807513745124S05926781WA0112701183000000000000
B1807553745181S05926720WA0114001194000000000000
B1807593745160S05926655WA0114701198000000000000
B1808033745122S05926683WA0115201205000000000000
B1808073745143S05926755WA0115901217000000000000
B1808113745200S05926802WA0117101229000000000000
B1808153745269S05926768WA0118301241000000000000
B1808193745276S05926690WA0119301248000000000000
B1808233745233S05926675WA0119901255000000000000
B1808273745233S05926749WA0120201264000000000000
B1808313745302S05926785WA0121101278000000000000
B1808353745365S05926742WA0122601287000000000000
B1808393745368S05926667WA0122901284000000000000
B1808433745320S05926650WA0123101291000000000000
B1808473745284S05926692WA0123701303000000000000
B1808513745285S05926755WA0125401322000000000000
B1808553745349S05926796WA0126601320000000000000
B1808593745410S05926737WA0126801332000000000000
B1809033745378S05926675WA0127901340000000000000
B1809073745339S05926710WA0128801353000000000000
B1809113745380S05926776WA0130401370000000000000
B1809153745455S05926768WA0131601376000000000000
B1809193745475S05926690WA0132501386000000000000
B1809233745430S05926659WA0133001391000000000000
B1809273745397S05926699WA0134001407000000000000
B1809313745420S05926768WA0135001409000000000000
B1809353745497S05926789WA0136001425000000000000
B1809393745553S05926732WA0137201438000000000000
B1809433745536S05926663WA0138001438000000000000
B1809473745486S05926677WA0138001446000000000000
B1809513745492S05926749WA0139101462000000000000
B1809553745560S05926783WA0140801476000000000000
B1809593745616S05926725WA0142101487000000000000
B1810033745601S05926655WA0142601482000000000000
B1810073745551S05926667WA0142601494000000000000
B1810113745532S05926725WA0143601497000000000000
B1810153745554S05926797WA0144601515000000000000
B1810193745627S05926824WA0145601526000000000000
B1810233745672S05926753WA0147301546000000000000
B1810273745636S05926702WA0148801558000000000000
B1810313745609S05926761WA0149901573000000000000
B1810353745666S05926818WA0151301583000000000000
B1810393745739S05926777WA0152301600000000000000
B1810433745740S05926697WA0154301614000000000000
B1810473745692S05926680WA0154901621000000000000
B1810513745681S05926746WA0156201638000000000000
B1810553745739S05926800WA0157301646000000000000
B1810593745815S05926781WA0158701660000000000000
B1811033745835S05926701WA0159701672000000000000
B1811073745789S05926667WA0160301677000000000000
B1811113745757S05926714WA0161701692000000000000
B1811153745785S05926785WA0162801701000000000000
B1811193745861S05926789WA0164201719000000000000
B1811233745900S05926712WA0165101727000000000000
B1811273745863S05926663WA0166101737000000000000
B1811313745830S05926711WA0166901748000000000000
B1811353745867S05926779WA0167901761000000000000
B1811393745944S05926763WA0169701775000000000000
B1811433745965S05926681WA0170301780000000000000
B1811473745919S05926649WA0171101791000000000000
B1811513745889S05926703WA0171801795000000000000
B1811553745923S05926779WA0172201809000000000000
B1811593745993S05926802WA0174101825000000000000
B1812033746048S05926742WA0175001827000000000000
B1812073746032S05926667WA0175201831000000000000
B1812113745982S05926671WA0176101839000000000000
B1812153745949S05926728WA0176401842000000000000
B1812193745939S05926797WA0178401874000000000000
B1812233745993S05926855WA0180401882000000000000
B1812273746070S05926822WA0180701886000000000000
B1812313746065S05926740WA0181601892000000000000
B1812353746012S05926740WA0181701896000000000000
B1812393745978S05926800WA0182701905000000000000
B1812433745961S05926879WA0182101887000000000000
B1812473745943S05926969WA0181201875000000000000
B1812513745915S05927061WA0179601855000000000000
B1812553745884S05927160WA0177801841000000000000
B1812593745843S05927258WA0176401827000000000000
B1813033745791S05927356WA0175901830000000000000
B1813073745740S05927455WA0175401818000000000000
B1813113745687S05927555WA0174101806000000000000
B1813153745633S05927654WA0173001794000000000000
B1813193745579S05927755WA0172201782000000000000
B1813233745523S05927856WA0170901770000000000000
B1813273745467S05927957WA0169901763000000000000
B1813313745410S05928055WA0169001754000000000000
B1813353745356S05928154WA0168401750000000000000
B1813393745300S05928248WA0168001743000000000000
B1813433745239S05928337WA0166801732000000000000
B1813473745174S05928428WA0165601717000000000000
B1813513745107S05928519WA0164801706000000000000
B1813553745042S05928612WA0163701697000000000000
B1813593744978S05928705WA0162801690000000000000
B1814033744918S05928802WA0162301683000000000000
B1814073744860S05928898WA0161601673000000000000
B1814113744801S05928997WA0160501662000000000000
B1814153744745S05929097WA0159601658000000000000
B1814193744688S05929192WA0159001649000000000000
B1814233744632S05929288WA0158201641000000000000
B1814273744575S05929381WA0157701634000000000000
B1814313744518S05929479WA0156801623000000000000
B1814353744462S05929575WA0155801614000000000000
B1814393744405S05929671WA0154901607000000000000
B1814433744350S05929771WA0153901595000000000000
B1814473744296S05929873WA0152801585000000000000
B1814513744242S05929973WA0151901577000000000000
B1814553744190S05930073WA0151401570000000000000
B1814593744137S05930174WA0150501563000000000000
B1815033744085S05930271WA0150401563000000000000
B1815073744033S05930367WA0150201559000000000000
B1815113743978S05930462WA0149501549000000000000
B1815153743924S05930555WA0149001548000000000000
B1815193743868S05930646WA0148701546000000000000
B1815233743809S05930732WA0148601544000000000000
B1815273743748S05930818WA0148501546000000000000
B1815313743682S05930889WA0149001551000000000000
B1815353743610S05930954WA0149101545000000000000
B1815393743538S05931021WA0148101529000000000000
B1815433743461S05931087WA0146801518000000000000
B1815473743384S05931156WA0145501506000000000000
B1815513743308S05931225WA0144801503000000000000
B1815553743230S05931291WA0144101488000000000000
B1815593743149S05931359WA0142501472000000000000
B1816033743067S05931426WA0141301460000000000000
B1816073742989S05931498WA0140401459000000000000
B1816113742910S05931564WA0140301458000000000000
B1816153742832S05931630WA0140101457000000000000
B1816193742756S05931699WA0140301458000000000000
B1816233742685S05931776WA0140101456000000000000
B1816273742612S05931849WA0139901450000000000000
B1816313742535S05931914WA0140401473000000000000
B1816353742463S05931964WA0142701493000000000000
B1816393742392S05932011WA0143701496000000000000
B1816433742322S05932058WA0144101494000000000000
B1816473742252S05932105WA0143201480000000000000
B1816513742177S05932157WA0141701459000000000000
B1816553742100S05932215WA0140001448000000000000
B1816593742021S05932276WA0138901436000000000000
B1817033741940S05932336WA0138001432000000000000
B1817073741861S05932397WA0137501431000000000000
B1817113741785S05932461WA0138101439000000000000
B1817153741712S05932527WA0138701448000000000000
B1817193741642S05932591WA0139601455000000000000
B1817233741573S05932656WA0140501468000000000000
B1817273741506S05932715WA0141701479000000000000
B1817313741439S05932765WA0142301475000000000000
B1817353741371S05932816WA0141501460000000000000
B1817393741298S05932867WA0140201447000000000000
B1817433741224S05932919WA0138601430000000000000
B1817473741146S05932976WA0137101415000000000000
B1817513741065S05933036WA0135301393000000000000
B1817553740983S05933101WA0133901385000000000000
B1817593740901S05933167WA0132801366000000000000
B1818033740819S05933236WA0131001355000000000000
B1818073740739S05933305WA0129901342000000000000
B1818113740659S05933374WA0128601327000000000000
B1818153740581S05933445WA0127401315000000000000
B1818193740503S05933515WA0126101304000000000000
B1818233740425S05933587WA0125201295000000000000
B1818273740346S05933657WA0124901296000000000000
B1818313740264S05933722WA0125001304000000000000
B1818353740186S05933782WA0125801300000000000000
B1818393740103S05933835WA0124601283000000000000
B1818433740017S05933894WA0122701263000000000000
B1818473739929S05933953WA0121201246000000000000
B1818513739839S05934015WA0119401229000000000000
B1818553739751S05934077WA0118001213000000000000
B1818593739664S05934143WA0116401196000000000000
B1819033739579S05934216WA0115001185000000000000
B1819073739496S05934290WA0113801172000000000000
B1819113739415S05934366WA0112801161000000000000
B1819153739337S05934442WA0111501147000000000000
B1819193739261S05934523WA0110401137000000000000
B1819233739185S05934605WA0109301123000000000000
B1819273739114S05934689WA0108201117000000000000
B1819313739045S05934776WA0107301103000000000000
B1819353738977S05934861WA0105901088000000000000
B1819393738910S05934943WA0104601076000000000000
B1819433738842S05935027WA0103601068000000000000
B1819473738776S05935112WA0102801067000000000000
B1819513738707S05935192WA0103201072000000000000
B1819553738638S05935270WA0103301067000000000000
B1819593738570S05935346WA0102901063000000000000
B1820033738503S05935420WA0102201053000000000000
B1820073738436S05935494WA0101401045000000000000
B1820113738374S05935569WA0100701042000000000000
B1820153738318S05935646WA0100501040000000000000
B1820193738266S05935727WA0100301038000000000000
B1820233738221S05935811WA0099901036000000000000
B1820273738184S05935898WA0100301050000000000000
B1820313738166S05935988WA0101801062000000000000
B1820353738162S05936069WA0103601083000000000000
B1820393738167S05936152WA0104201089000000000000
B1820433738205S05936225WA0105401108000000000000
B1820473738279S05936217WA0107301126000000000000
B1820513738299S05936136WA0109001137000000000000
B1820553738257S05936096WA0109401140000000000000
B1820593738209S05936109WA0110101150000000000000
B1821033738163S05936139WA0110801160000000000000
B1821073738153S05936204WA0112501178000000000000
B1821113738196S05936265WA0113501183000000000000
B1821153738267S05936260WA0114301192000000000000
B1821193738309S05936186WA0115001210000000000000
B1821233738290S05936122WA0116601223000000000000
B1821273738243S05936134WA0118001236000000000000
B1821313738245S05936208WA0119001243000000000000
B1821353738314S05936244WA0119601252000000000000
B1821393738374S05936192WA0120601262000000000000
B1821433738366S05936114WA0121901276000000000000
B1821473738318S05936123WA0123301290000000000000
B1821513738329S05936197WA0124601306000000000000
B1821553738400S05936219WA0125601310000000000000
B1821593738452S05936158WA0126201326000000000000
B1822033738438S05936084WA0127401337000000000000
B1822073738390S05936088WA0128401348000000000000
B1822113738375S05936152WA0129601360000000000000
B1822153738416S05936213WA0130801372000000000000
B1822193738487S05936202WA0131901378000000000000
B1822233738503S05936119WA0132101384000000000000
B1822273738455S05936091WA0132801388000000000000
B1822313738426S05936153WA0133601402000000000000
B1822353738468S05936221WA0134801412000000000000
B1822393738542S05936214WA0136101431000000000000
B1822433738582S05936154WA0137401440000000000000
B1822473738546S05936104WA0138101448000000000000
B1822513738501S05936137WA0138501452000000000000
B1822553738494S05936209WA0139701464000000000000
B1822593738530S05936279WA0140301466000000000000
B1823033738599S05936297WA0141101475000000000000
B1823073738643S05936231WA0142001494000000000000
B1823113738617S05936167WA0143301503000000000000
B1823153738569S05936193WA0144301514000000000000
B1823193738560S05936269WA0145301520000000000000
B1823233738600S05936336WA0145601520000000000000
B1823273738673S05936343WA0146301535000000000000
B1823313738735S05936308WA0148301555000000000000
B1823353738738S05936230WA0150101574000000000000
B1823393738689S05936206WA0152001595000000000000
B1823433738665S05936273WA0154001611000000000000
B1823473738713S05936336WA0154901616000000000000
B1823513738786S05936331WA0155801639000000000000
B1823553738826S05936266WA0157801657000000000000
B1823593738794S05936212WA0159101670000000000000
B1824033738747S05936249WA0160901692000000000000
B1824073738750S05936329WA0162401699000000000000
B1824113738811S05936381WA0163301714000000000000
B1824153738880S05936340WA0165501734000000000000
B1824193738897S05936260WA0166901739000000000000
B1824233738850S05936217WA0167801758000000000000
B1824273738807S05936266WA0170201781000000000000
B1824313738829S05936348WA0171801790000000000000
B1824353738906S05936365WA0173201813000000000000
B1824393738949S05936292WA0175201831000000000000
B1824433738917S05936227WA0175501840000000000000
B1824473738863S05936256WA0176701868000000000000
B1824513738863S05936336WA0179101879000000000000
B1824553738932S05936375WA0179701886000000000000
B1824593738990S05936318WA0181801914000000000000
B1825033738990S05936240WA0183301913000000000000
B1825073738932S05936227WA0183801929000000000000
B1825113738886S05936270WA0186001953000000000000
B1825153738891S05936348WA0187301955000000000000
B1825193738960S05936377WA0187901965000000000000
B1825233739029S05936336WA0188701985000000000000
B1825273739057S05936258WA0190501993000000000000
B1825313739010S05936208WA0191402004000000000000
B1825353738960S05936249WA0192802024000000000000
B1825393738968S05936332WA0194202028000000000000
B1825433739037S05936371WA0194602033000000000000
B1825473739109S05936334WA0195702052000000000000
B1825513739142S05936257WA0197302062000000000000
B1825553739119S05936184WA0198102067000000000000
B1825593739058S05936186WA0199002078000000000000
B1826033739010S05936240WA0199302077000000000000
B1826073738968S05936313WA0198602063000000000000
B1826113738924S05936396WA0197702041000000000000
B1826153738869S05936485WA0196302034000000000000
B1826193738808S05936573WA0194702011000000000000
B1826233738741S05936663WA0192801997000000000000
B1826273738670S05936752WA0191401983000000000000
B1826313738600S05936843WA0190401976000000000000
B1826353738534S05936934WA0189701969000000000000
B1826393738468S05937027WA0188801959000000000000
B1826433738403S05937120WA0188401954000000000000
B1826473738339S05937213WA0187901951000000000000
B1826513738274S05937301WA0187501947000000000000
B1826553738209S05937388WA0186901938000000000000
B1826593738144S05937474WA0186301932000000000000
B1827033738080S05937560WA0185801930000000000000
B1827073738018S05937642WA0185701928000000000000
B1827113737955S05937722WA0185301924000000000000
B1827153737893S05937800WA0185201922000000000000
B1827193737831S05937877WA0184701903000000000000
B1827233737766S05937957WA0182701885000000000000
B1827273737699S05938042WA0181301875000000000000
B1827313737632S05938128WA0180301865000000000000
B1827353737565S05938217WA0179301859000000000000
B1827393737500S05938306WA0178701853000000000000
B1827433737435S05938393WA0178101846000000000000
B1827473737372S05938479WA0177601843000000000000
