ACAM4AZ
HFDTE070125
HFFXA050
HFPLTPILOT:SEBASTIAN FULQUET       
HFGTYGLIDERTYPE:ASW-20      
HFGIDGLIDERID:zz          
HFDTM100GPSDATUM:
HFRFWFIRMWAREVERSION:F2.6
HFRHWHARDWAREVERSION:300 Series Version 2
HFFTYFRTYPE:CAMBRIDGE AERO INSTRUMENTS, 302+
HFGPS:GARMIN,LVS-25,12,18000
HFPRSPRESSALTSENSOR:INTERSEMA, MS5534-AP, 20000
I033638FXA3941ENL4247REX
LCAMSBVER:5FWVER:F26300
C070125153542070125000103
C0000000N00000000WTAKEOFF     
C3803868S06011189W005-LagdelCo
C3820047S05937826W014AeroSanCa
C3833250S06105000W060ElZorro  
C3749283S06028817W081JuanEBarr
C3801767S06008133W001-OttoBall
C0000000N00000000WLANDING     
B1603253801978S06007838WA0020500214000004015000
B1603273801978S06007838WA0020500213000004015000
B1603293801978S06007838WA0020500213000004015000
B1603313801978S06007838WA0020500213000004015000
B1603333801978S06007838WA0020500213000008015000
B1603353801978S06007838WA0020500213000008015000
B1603373801978S06007838WA0020500213000004015000
B1603393801978S06007838WA0020500213000004015000
B1603413801978S06007838WA0020500213000004015000
B1603433801978S06007838WA0020500213000004015000
B1603453801978S06007838WA0020500213000004015000
B1603473801978S06007838WA0020500213000004015000
B1603493801978S06007838WA0020500212000004015000
B1603513801978S06007838WA0020500212000004015000
B1603533801976S06007841WA0020500212000004015000
B1603563801968S06007850WA0020500212000004015000
B1604003801951S06007870WA0020300212000008015000
B1604043801925S06007906WA0020100212000008015000
B1604083801888S06007955WA0020000213000008015000
B1604123801847S06008012WA0020000213000012015000
B1604163801799S06008076WA0020400217000008015000
B1604203801751S06008142WA0021000228000012015000
B1604243801704S06008208WA0022000239000012015000
B1604283801658S06008277WA0023000246000012015000
B1604323801621S06008357WA0023700257000012015000
B1604363801592S06008444WA0025000272000012015000
B1604403801570S06008537WA0026300281000012015000
B1604443801556S06008632WA0027500296000012015000
B1604483801537S06008727WA0028300300000012015000
B1604523801522S06008822WA0029100311000012015000
B1604563801510S06008914WA0030900332000012015000
B1605003801501S06009001WA0032400345000012015000
B1605043801493S06009090WA0033000349000012015000
B1605083801487S06009180WA0033600353000012015000
B1605123801480S06009272WA0034000360000012015000
B1605163801476S06009364WA0034600366000012015000
B1605203801474S06009454WA0035400376000012015000
B1605243801469S06009541WA0036300384000012015000
B1605283801466S06009629WA0037600400000012015000
B1605323801459S06009716WA0039800409000012015000
B1605363801452S06009806WA0040300415000012015000
B1605403801445S06009897WA0040800419000012015000
B1605443801437S06009987WA0041400429000012015000
B1605483801428S06010077WA0042300439000012015000
B1605523801422S06010169WA0043400454000012015000
B1605563801417S06010260WA0044700463000012015000
B1606003801411S06010348WA0045400468000012015000
B1606043801409S06010435WA0046400484000012015000
B1606083801409S06010526WA0047700495000012015000
B1606123801411S06010621WA0048300495000012015000
B1606163801410S06010717WA0048700501000012015000
B1606203801391S06010806WA0049300509000012015000
B1606243801361S06010884WA0049900517000012015000
B1606283801331S06010961WA0051000531000012015000
B1606323801294S06011032WA0052800553000012015000
B1606363801244S06011088WA0054400565000012015000
B1606403801181S06011120WA0055300575000012015000
B1606443801112S06011123WA0056500584000012015000
B1606483801050S06011092WA0058100608000012015000
B1606523800999S06011037WA0060500633000012015000
B1606563800959S06010976WA0062100648000012015000
B1607003800915S06010972WA0063200656000012015000
B1607043800912S06011037WA0063000648000016015000
B1607083800971S06011079WA0061900636000020015000
B1607123801045S06011062WA0061400631000012015000
B1607163801111S06011026WA0061500643000012015000
B1607203801162S06010968WA0062500649000012015000
B1607243801168S06010897WA0062300642000012015000
B1607283801131S06010855WA0061300628000008015000
B1607323801077S06010870WA0060500625000004015000
B1607363801040S06010916WA0060700630000004015000
B1607403801033S06010988WA0061100635000004015000
B1607443801072S06011054WA0060800628000004015000
B1607483801141S06011065WA0060200620000004030000
B1607523801207S06011016WA0059800617000004030000
B1607563801268S06010957WA0059800620000008015000
B1608003801326S06010890WA0059700608000008015000
B1608043801379S06010812WA0058100595000012015000
B1608083801431S06010733WA0057300588000016015000
B1608123801487S06010656WA0056400575000016015000
B1608163801545S06010581WA0055200563000020015000
B1608203801604S06010503WA0054300555000020015000
B1608243801654S06010418WA0053500545000020015000
B1608283801706S06010335WA0052800538000024015000
B1608323801757S06010253WA0052300534000020015000
B1608363801801S06010169WA0052500548000020015000
B1608403801799S06010095WA0054400565000016015000
B1608443801760S06010091WA0054900566000012015000
B1608483801744S06010145WA0054800564000008015000
B1608523801778S06010210WA0054300558000008015000
B1608563801842S06010249WA0054000560000004015000
B1609003801913S06010252WA0054200563000008015000
B1609043801953S06010192WA0054300563000008015000
B1609083801937S06010129WA0054500562000008015000
B1609123801891S06010143WA0054600560000008015000
B1609163801891S06010217WA0054500564000008015000
B1609203801951S06010259WA0055200573000012015000
B1609243802012S06010234WA0056000577015012030000
B1609283802035S06010169WA0056100579000012015000
B1609323802007S06010123WA0056000576000012015000
B1609363801969S06010151WA0056000577000012015000
B1609403801963S06010220WA0056100578000012015000
B1609443801995S06010288WA0056000574000012015000
B1609483802069S06010309WA0055200561000008015000
B1609523802137S06010257WA0055300565015008015000
B1609563802150S06010183WA0056400579000008015000
B1610003802113S06010149WA0057100585000012015000
B1610043802082S06010203WA0057000587000012015000
B1610083802098S06010281WA0057300592000012015000
B1610123802168S06010312WA0057600596000012015000
B1610163802212S06010255WA0058200602000012030000
B1610203802198S06010190WA0058600608000008015000
B1610243802139S06010231WA0058400604000008015000
B1610283802138S06010313WA0058400606000008015000
B1610323802189S06010376WA0058900614000012015000
B1610363802262S06010363WA0059300623000012015000
B1610403802278S06010292WA0059800624000012015000
B1610443802239S06010260WA0059900629000012015000
B1610483802210S06010307WA0060800641000012015000
B1610523802246S06010372WA0061800645000012015000
B1610563802317S06010374WA0062100652000012015000
B1611003802347S06010312WA0062900657000012015000
B1611043802319S06010270WA0063000656000008015000
B1611083802281S06010301WA0063300663000012015000
B1611123802306S06010368WA0064200670000012015000
B1611163802375S06010353WA0064800676000012015000
B1611203802389S06010287WA0065700684000012015000
B1611243802350S06010260WA0066100688000012015000
B1611283802321S06010309WA0066500692000012015000
B1611323802351S06010379WA0067000695000012015000
B1611363802421S06010395WA0066600689000008015000
B1611403802467S06010335WA0067100691015008015000
B1611443802462S06010277WA0068000696000012015000
B1611483802420S06010275WA0068000699000012015000
B1611523802415S06010344WA0068700710000012015000
B1611563802471S06010394WA0069300713000012015000
B1612003802535S06010365WA0069700720000012015000
B1612043802545S06010299WA0070100726000012015000
B1612083802505S06010277WA0070600733000012015000
B1612123802484S06010335WA0071300743000012015000
B1612163802522S06010396WA0072500750000012015000
B1612203802589S06010389WA0072700745000012015000
B1612243802620S06010322WA0073100753000012015000
B1612283802588S06010285WA0073600760000012015000
B1612323802564S06010337WA0074500770000012015000
B1612363802597S06010399WA0075100774000012015000
B1612403802667S06010386WA0075100773000012015000
B1612443802689S06010318WA0075700772000012015000
B1612483802652S06010290WA0075800776000012015000
B1612523802633S06010348WA0076500788000012015000
B1612563802676S06010412WA0077200793000012015000
B1613003802740S06010456WA0077500798000012015000
B1613043802808S06010491WA0078000803000012015000
B1613083802880S06010496WA0079000814000012015000
B1613123802939S06010450WA0079700825015012015000
B1613163802948S06010379WA0081300837000012015000
B1613203802908S06010365WA0081800839000012015000
B1613243802892S06010431WA0082100843000012015000
B1613283802932S06010504WA0082800860000012015000
B1613323802996S06010534WA0084300873000012015000
B1613363803051S06010487WA0085300880000012015000
B1613403803031S06010429WA0086600889000012015000
B1613443802995S06010469WA0087600899000012015000
B1613483803043S06010530WA0088600908000012015000
B1613523803109S06010495WA0089600921000012015000
B1613563803112S06010425WA0091200937000012015000
B1614003803069S06010405WA0091900947000012015000
B1614043803039S06010457WA0093300968000012015000
B1614083803071S06010524WA0094500975000012015000
B1614123803142S06010545WA0095200985000012015000
B1614163803199S06010494WA0096200992000012015000
B1614203803185S06010429WA0097601012000012015000
B1614243803144S06010457WA0099101025000012015000
B1614283803170S06010528WA0099901034000012015000
B1614323803240S06010526WA0100401045000012015000
B1614363803268S06010455WA0101401054000012015000
B1614403803230S06010413WA0102401071000012015000
B1614443803200S06010461WA0104001086000012015000
B1614483803234S06010525WA0104901096000012015000
B1614523803303S06010522WA0106001108000012015000
B1614563803338S06010456WA0106801115000012015000
B1615003803305S06010411WA0108201132000012015000
B1615043803274S06010457WA0109501144000012015000
B1615083803312S06010521WA0110501156000012015000
B1615123803381S06010516WA0111701170000012015000
B1615163803411S06010448WA0113101183000012015000
B1615203803381S06010405WA0114401196000012015000
B1615243803348S06010447WA0115101202000012015000
B1615283803374S06010513WA0116301215000012015000
B1615323803445S06010521WA0117101221000012015000
B1615363803489S06010454WA0117801231000012015000
B1615403803468S06010398WA0119301247000012015000
B1615443803430S06010418WA0120401255000012015000
B1615483803442S06010487WA0121101264000012015000
B1615523803504S06010521WA0122201273000012015000
B1615563803564S06010480WA0122601276000012015000
B1616003803569S06010408WA0123401285000012015000
B1616043803528S06010395WA0124101293000012015000
B1616083803500S06010450WA0124501297000012015000
B1616123803506S06010525WA0125101304000012015000
B1616163803559S06010582WA0125901315000012015000
B1616203803627S06010574WA0127301328000012015000
B1616243803645S06010506WA0128301336000012015000
B1616283803599S06010490WA0128901340000012015000
B1616323803582S06010554WA0129901355000012015000
B1616363803610S06010620WA0131001365000012015000
B1616403803672S06010650WA0132201376000012015000
B1616443803724S06010606WA0132601378000012015000
B1616483803719S06010534WA0133201382000012015000
B1616523803675S06010517WA0134001397000012015000
B1616563803656S06010572WA0134901405000012015000
B1617003803699S06010629WA0135701415000012015000
B1617043803764S06010617WA0136801422000012015000
B1617083803785S06010550WA0137401429000012015000
B1617123803753S06010503WA0138201437000012015000
B1617163803712S06010533WA0138201442000012015000
B1617203803715S06010603WA0139001453000012015000
B1617243803770S06010650WA0139901460000012015000
B1617283803837S06010639WA0140701468000012015000
B1617323803863S06010572WA0140901470000012015000
B1617363803816S06010499WA0141201477000012015000
B1617403803771S06010520WA0142001485000012015000
B1617443803773S06010593WA0142601493000012015000
B1617483803829S06010638WA0143701504000012015000
B1617523803893S06010623WA0144301509000012015000
B1617563803907S06010547WA0144601516000012000000
B1618003803876S06010502WA0145401520000012000000
B1618043803836S06010525WA0145601522000012000000
B1618083803836S06010595WA0146301530000012015000
B1618123803888S06010641WA0146701532000012015000
B1618163803953S06010617WA0146901534000012015000
B1618203803974S06010547WA0147701545000012000000
B1618243803948S06010496WA0148001544000012000000
B1618283803902S06010506WA0147801542000016000000
B1618323803885S06010569WA0148201550000012000000
B1618363803916S06010637WA0148801551000012015000
B1618403803981S06010652WA0148801552000012015000
B1618443804032S06010606WA0149201556000012000000
B1618483804041S06010528WA0149101553000012000000
B1618523804039S06010447WA0149301558000012000000
B1618563804014S06010377WA0149401557000012000000
B1619003803965S06010347WA0149601566000012000000
B1619043803926S06010386WA0150801580000012000000
B1619083803939S06010456WA0151801586000012000000
B1619123803996S06010498WA0152101589000012015000
B1619163804063S06010489WA0152701593000012015000
B1619203804097S06010425WA0153201595000012000000
B1619243804083S06010357WA0152901591000008000000
B1619283804035S06010339WA0153301599000012000000
B1619323803996S06010372WA0153901607000012000000
B1619363803994S06010441WA0154101602000008000000
B1619403804041S06010495WA0153901602000004015000
B1619443804109S06010493WA0153601595000004015000
B1619483804175S06010452WA0153201595000008015000
B1619523804226S06010390WA0153301597000008000000
B1619563804235S06010311WA0153501600000008000000
B1620003804208S06010253WA0153801604000008000000
B1620043804162S06010226WA0154201606000008000000
B1620083804119S06010249WA0154201607000008000000
B1620123804117S06010318WA0154801615000012000000
B1620163804162S06010377WA0155001615000012015000
B1620203804232S06010383WA0155001616000012000000
B1620243804278S06010322WA0155101613000008000000
B1620283804270S06010247WA0154901616000008000000
B1620323804232S06010216WA0155301620000008000000
B1620363804200S06010251WA0155501620000012000000
B1620403804218S06010320WA0155301618000008015000
B1620443804279S06010356WA0155501622000008015000
B1620483804344S06010325WA0155301614000004015000
B1620523804369S06010246WA0154601608000004000000
B1620563804344S06010184WA0154801611000004000000
B1621003804301S06010188WA0155101614000008000000
B1621043804264S06010227WA0154901610000008000000
B1621083804226S06010275WA0155101608000008000000
B1621123804199S06010343WA0154001592000008000000
B1621163804174S06010422WA0152901581000004000000
B1621203804134S06010495WA0151701570000004000000
B1621243804078S06010556WA0150401553000004000000
B1621283804010S06010603WA0149801550000008000000
B1621323803944S06010647WA0149801567000004000000
B1621363803883S06010702WA0149501580000004000000
B1621403803825S06010760WA0149401570000004000000
B1621443803770S06010824WA0148501558000004000000
B1621483803710S06010880WA0147901550000008000000
B1621523803643S06010920WA0147701547000012000000
B1621563803575S06010949WA0147701546000012000000
B1622003803508S06010958WA0148201552000008015000
B1622043803446S06010945WA0148601553000008015000
B1622083803387S06010909WA0148201543000012000000
B1622123803331S06010859WA0147401536000016000000
B1622163803276S06010808WA0147101531000016000000
B1622203803220S06010755WA0146501527000012000000
B1622243803165S06010699WA0146601522000012000000
B1622283803109S06010646WA0146501521000012000000
B1622323803053S06010595WA0146401521000008000000
B1622363802997S06010546WA0146301515000008000000
B1622403802938S06010496WA0145901515000008000000
B1622443802878S06010447WA0146401520000012000000
B1622483802823S06010398WA0146301526000012000000
B1622523802771S06010347WA0146801521000012000000
B1622563802717S06010291WA0146301518000012000000
B1623003802666S06010226WA0146201512000012000000
B1623043802614S06010157WA0145801511000016000000
B1623083802562S06010092WA0145501504000012000000
B1623123802501S06010040WA0144801496000016000000
B1623163802429S06010015WA0143801487000020000000
B1623203802354S06010017WA0143201481000016000000
B1623243802281S06010019WA0143101482000008000000
B1623283802212S06010021WA0143401486000008000000
B1623323802146S06010028WA0142901483000008000000
B1623363802080S06010049WA0142001471000012000000
B1623403802013S06010084WA0141001463000012000000
B1623443801950S06010125WA0140601460000008000000
B1623483801888S06010168WA0140201458000008000000
B1623523801833S06010216WA0139901453000012000000
B1623563801779S06010273WA0139001441000016000000
B1624003801727S06010331WA0138201432000016000000
B1624043801675S06010387WA0137601429000020000000
B1624083801623S06010443WA0137301423000020000000
B1624123801567S06010493WA0136601415000020000000
B1624163801509S06010542WA0135901408000020000000
B1624203801448S06010589WA0135401405000016000000
B1624243801389S06010634WA0135201404000012000000
B1624283801332S06010678WA0135101400000008000000
B1624323801275S06010725WA0134301393000004000000
B1624363801219S06010775WA0133901387000004000000
B1624403801160S06010821WA0133501384000004000000
B1624443801103S06010870WA0133101378000004000000
B1624483801046S06010918WA0132501371000008000000
B1624523800989S06010968WA0131701365000012000000
B1624563800934S06011022WA0131101357000016000000
B1625003800878S06011072WA0130401350000012000000
B1625043800821S06011118WA0129801343000016000000
B1625083800764S06011166WA0129001335000016000000
B1625123800705S06011214WA0128601330000012000000
B1625163800647S06011265WA0127901322000008000000
B1625203800590S06011318WA0127401312000016000000
B1625243800533S06011371WA0127401311000016000000
B1625283800478S06011426WA0127201308000008000000
B1625323800422S06011483WA0127101308000008000000
B1625363800367S06011540WA0127301313000008015000
B1625403800312S06011592WA0128101323000008015000
B1625443800256S06011634WA0129001333000008015000
B1625483800200S06011663WA0129301339000008000000
B1625523800143S06011674WA0129401353000012000000
B1625563800092S06011678WA0131701372000012000000
B1626003800044S06011692WA0133101385000012000000
B1626043800014S06011748WA0134001396000012000000
B1626083800032S06011824WA0135401406000012015000
B1626123800096S06011863WA0136801420000012000000
B1626163800158S06011837WA0137901432000012000000
B1626203800184S06011767WA0138701440000012000000
B1626243800156S06011715WA0139701451000012000000
B1626283800115S06011739WA0140701461000012000000
B1626323800123S06011809WA0141601468000012015000
B1626363800180S06011847WA0142501480000012000000
B1626403800235S06011811WA0143501487000012015000
B1626443800241S06011738WA0143801494000012000000
B1626483800201S06011708WA0144601503000012015000
B1626523800161S06011739WA0145401515000012000000
B1626563800161S06011809WA0146701528000012015000
B1627003800211S06011858WA0147701535000012000000
B1627043800276S06011842WA0148301543000012000000
B1627083800305S06011778WA0149201552000012000000
B1627123800279S06011724WA0149601556000012000000
B1627163800232S06011728WA0150301571000012000000
B1627203800209S06011778WA0151801588000012000000
B1627243800221S06011848WA0153001595000012015000
B1627283800279S06011891WA0153701600000012015000
B1627323800341S06011864WA0153901608000012000000
B1627363800361S06011796WA0154701616000012000000
B1627403800335S06011743WA0155301620000012000000
B1627443800287S06011739WA0155801629000012000000
B1627483800270S06011802WA0157201643000012015000
B1627523800313S06011863WA0158001650000012015000
B1627563800378S06011859WA0159001660000012000000
B1628003800413S06011800WA0159601669000012000000
B1628043800403S06011737WA0160201671000012000000
B1628083800357S06011718WA0160601675000012015000
B1628123800319S06011759WA0161701692000012000000
B1628163800319S06011828WA0163001699000012000000
B1628203800367S06011881WA0163501704000012000000
B1628243800431S06011869WA0164401714000012000000
B1628283800453S06011806WA0165001718000012000000
B1628323800421S06011756WA0165101718000012000000
B1628363800377S06011780WA0165701735000012000000
B1628403800371S06011847WA0167001741000012015000
B1628443800417S06011906WA0167501745000012015000
B1628483800483S06011910WA0167901750000012000000
B1628523800525S06011856WA0168201753000012000000
B1628563800520S06011789WA0168301750000012000000
B1629003800475S06011752WA0168601757000012000000
B1629043800431S06011774WA0169501767000012000000
B1629083800439S06011848WA0170401776000012015000
B1629123800500S06011877WA0171101782000012015000
B1629163800555S06011837WA0171801790000012015000
B1629203800568S06011772WA0172301794000012000000
B1629243800531S06011738WA0172201788000012000000
B1629283800486S06011770WA0172701796000012000000
B1629323800482S06011843WA0173101803000012015000
B1629363800534S06011891WA0173801807000012015000
B1629403800598S06011874WA0174101811000012015000
B1629443800621S06011808WA0174201809000012000000
B1629483800585S06011764WA0173801806000012000000
B1629523800533S06011781WA0174201814000012000000
B1629563800512S06011846WA0175201824000012000000
B1630003800552S06011907WA0175701832015012015000
B1630043800618S06011906WA0175201825000008000000
B1630083800655S06011846WA0175301830000004000000
B1630123800640S06011785WA0175201829000004000000
B1630163800591S06011760WA0175001822000008000000
B1630203800534S06011747WA0174301810000008000000
B1630243800471S06011739WA0173101791000004000000
B1630283800401S06011733WA0172101773000008000000
B1630323800326S06011729WA0170801764000012000000
B1630363800252S06011731WA0170101758000012000000
B1630403800178S06011737WA0169501756000008000000
B1630443800105S06011739WA0169101753000008000000
B1630483800035S06011742WA0168701747000012000000
B1630523759963S06011750WA0167901736000012000000
B1630563759890S06011765WA0167001728000012015000
B1631003759818S06011785WA0166601725000012015000
B1631043759747S06011806WA0165801721000016015000
B1631083759677S06011830WA0165101713000016000000
B1631123759608S06011859WA0164701716000012000000
B1631163759543S06011891WA0165101716000008000000
B1631203759480S06011921WA0164901713000008000000
B1631243759417S06011949WA0164201707000012000000
B1631283759353S06011972WA0163701703000016000000
B1631323759290S06011995WA0163701708000016000000
B1631363759229S06012010WA0164401716000012000000
B1631403759171S06012007WA0165201723000012000000
B1631443759118S06012019WA0165301720000012000000
B1631483759080S06012072WA0164901716000016000000
B1631523759075S06012151WA0164201709000020000000
B1631563759095S06012237WA0163801707000012000000
B1632003759110S06012326WA0163901708000008000000
B1632043759097S06012411WA0163101690000008000000
B1632083759052S06012483WA0161101667000004000000
B1632123758988S06012531WA0159801660000004000000
B1632163758917S06012556WA0159201652000004000000
B1632203758841S06012558WA0158501643000000000000
B1632243758767S06012553WA0157901636000004000000
B1632283758693S06012544WA0157101627000004000000
B1632323758619S06012534WA0156301622000004000000
B1632363758544S06012519WA0156101621000004000000
B1632403758471S06012502WA0156301627000004000000
B1632443758403S06012482WA0157001633000008000000
B1632483758334S06012462WA0157201631000008000000
B1632523758264S06012441WA0157001632000008000000
B1632563758198S06012417WA0157101631000008000000
B1633003758130S06012391WA0156301619000012000000
B1633043758060S06012361WA0155001610000016000000
B1633083757987S06012331WA0154601604000016000000
B1633123757916S06012301WA0154101599000008000000
B1633163757844S06012274WA0153901596000012000000
B1633203757771S06012246WA0153301588000012000000
B1633243757699S06012223WA0152701584000012000000
B1633283757627S06012202WA0152601583000008000000
B1633323757554S06012183WA0152201580000004000000
B1633363757484S06012159WA0152101579000004000000
B1633403757414S06012133WA0152101577000004000000
B1633443757348S06012103WA0151801574000004000000
B1633483757281S06012072WA0151301569000004000000
B1633523757215S06012042WA0150601559000008000000
B1633563757147S06012017WA0149501550000012000000
B1634003757077S06011993WA0148501538000016000000
B1634043757008S06011962WA0147701532000012000000
B1634083756939S06011932WA0147301528000016000000
B1634123756869S06011904WA0146701521000012000000
B1634163756798S06011878WA0145801509000016000000
B1634203756725S06011852WA0144801502000020000000
B1634243756653S06011821WA0144501500000012000000
B1634283756584S06011791WA0144401499000008000000
B1634323756517S06011764WA0143701488000012000000
B1634363756449S06011738WA0142901482000016000000
B1634403756380S06011715WA0142901487000016000000
B1634443756313S06011689WA0143801498000012000000
B1634483756248S06011655WA0144701513000012000000
B1634523756187S06011625WA0146201531000012000000
B1634563756127S06011601WA0147901540000012000000
B1635003756068S06011603WA0147801541000012000000
B1635043756031S06011659WA0148201552000012000000
B1635083756023S06011731WA0149401563000012015000
B1635123756053S06011806WA0150201567000012015000
B1635163756114S06011858WA0150701570000012015000
B1635203756188S06011861WA0150901572000012015000
B1635243756258S06011830WA0151801588000012000000
B1635283756314S06011778WA0152801595000012015000
B1635323756334S06011699WA0153101598000012000000
B1635363756317S06011622WA0153701607000012000000
B1635403756271S06011586WA0154901619000012015000
B1635443756224S06011611WA0155001610000012000000
B1635483756194S06011670WA0154601612000008000000
B1635523756187S06011743WA0155001618000012000000
B1635563756219S06011815WA0155501621000012015000
B1636003756282S06011856WA0155601623000012015000
B1636043756352S06011859WA0156201635000012015000
B1636083756395S06011804WA0157601644000012000000
B1636123756380S06011739WA0157601638000012000000
B1636163756327S06011724WA0157901649000012000000
B1636203756297S06011770WA0159001665000012000000
B1636243756313S06011833WA0159701656000012015000
B1636283756371S06011876WA0158101642000008015000
B1636323756449S06011878WA0158001651000012000000
B1636363756527S06011867WA0158601644000012015000
B1636403756612S06011852WA0157701640000008015000
B1636443756696S06011848WA0158101652000012015000
B1636483756774S06011859WA0159501663000012015000
B1636523756852S06011869WA0159301651000012015000
B1636563756934S06011884WA0158101639000016015000
B1637003757020S06011898WA0157101628000020015000
B1637043757106S06011906WA0156201619000020015000
B1637083757194S06011912WA0155301609000020015000
B1637123757284S06011924WA0154401602000020015000
B1637163757372S06011941WA0154101598000020015000
B1637203757461S06011950WA0153801591000020015000
B1637243757545S06011929WA0153401594000016015000
B1637283757618S06011878WA0154301603000016000000
B1637323757660S06011802WA0154701607000016000000
B1637363757663S06011724WA0155301614000016000000
B1637403757635S06011660WA0155401615000016015000
B1637443757592S06011613WA0156001622000012015000
B1637483757543S06011627WA0156901633000016015000
B1637523757539S06011698WA0157701642000012015000
B1637563757583S06011757WA0157801638000012015000
B1638003757660S06011777WA0157001626000008015000
B1638043757730S06011734WA0156101625000008015000
B1638083757754S06011652WA0156601631000008015000
B1638123757730S06011587WA0157301639000008000000
B1638163757682S06011566WA0158201650000012015000
B1638203757647S06011611WA0158901653000012015000
B1638243757656S06011686WA0159001656000012015000
B1638283757709S06011742WA0159201657000008015000
B1638323757783S06011747WA0159001654000008015000
B1638363757840S06011699WA0159301661000008015000
B1638403757855S06011629WA0159701666000012015000
B1638443757831S06011574WA0160001669000012000000
B1638483757786S06011557WA0160401676000012000000
B1638523757752S06011592WA0161101680000012015000
B1638563757758S06011663WA0161301682000012015000
B1639003757808S06011718WA0161501683000012015000
B1639043757875S06011741WA0161701687000012015000
B1639083757938S06011712WA0162001687000012015000
B1639123757964S06011646WA0161801682000012015000
B1639163757944S06011583WA0161401682000008015000
B1639203757903S06011551WA0161701685000012015000
B1639243757857S06011570WA0161701685000012000000
B1639283757842S06011637WA0161801685000008000000
B1639323757875S06011708WA0161901686000008015000
B1639363757943S06011739WA0162101685000008015000
B1639403758012S06011708WA0161901681000004015000
B1639443758039S06011634WA0161401677000004015000
B1639483758017S06011569WA0161101676000004000000
B1639523757972S06011551WA0161501685000004000000
B1639563757931S06011570WA0162101692000008000000
B1640003757904S06011616WA0162401692000008000000
B1640043757900S06011683WA0162201684000008015000
B1640083757935S06011756WA0161401677000004015000
B1640123758000S06011794WA0161101679000004015000
B1640163758069S06011777WA0161101675000004015000
B1640203758122S06011720WA0160501669000004015000
B1640243758156S06011644WA0160601678000004000000
B1640283758154S06011573WA0161401683000008000000
B1640323758113S06011548WA0162101693000008015000
B1640363758081S06011585WA0162501696000008000000
B1640403758092S06011657WA0162501695000012015000
B1640443758154S06011700WA0162501691000008015000
B1640483758226S06011677WA0162101686000004015000
B1640523758259S06011607WA0161901687000008015000
B1640563758237S06011549WA0161901688000008015000
B1641003758195S06011552WA0162701701000012015000
B1641043758178S06011609WA0163201703000012000000
B1641083758206S06011678WA0163301703000012015000
B1641123758269S06011716WA0163101697000008015000
B1641163758341S06011689WA0162401687000008015000
B1641203758373S06011613WA0162001687000008015000
B1641243758365S06011547WA0162301693000004015000
B1641283758333S06011518WA0162701693000008015000
B1641323758293S06011548WA0162201687000008000000
B1641363758290S06011620WA0162301696000008015000
B1641403758336S06011679WA0163001699000008015000
B1641443758411S06011690WA0162501690000004015000
B1641483758473S06011640WA0162101688000004015000
B1641523758489S06011569WA0162001686000004015000
B1641563758458S06011525WA0161701684000004015000
B1642003758416S06011538WA0161801687000004015000
B1642043758398S06011600WA0162301693000008015000
B1642083758423S06011676WA0162601692000008015000
B1642123758492S06011711WA0162401692000008015000
B1642163758560S06011681WA0162801692000008015000
B1642203758597S06011616WA0162601688000004015000
B1642243758588S06011551WA0161901678000004015000
B1642283758545S06011508WA0160901671000000015000
B1642323758497S06011487WA0161401680000004015000
B1642363758456S06011513WA0162001682000008000000
B1642403758454S06011579WA0161901682000004015000
B1642443758498S06011642WA0161601675000004015000
B1642483758567S06011673WA0161301674000004015000
B1642523758637S06011655WA0161401677000008015000
B1642563758683S06011599WA0161601682000008015000
B1643003758689S06011534WA0161701678000008015000
B1643043758654S06011495WA0161201674000008015000
B1643083758611S06011514WA0161301681000008000000
B1643123758602S06011577WA0161801684000008000000
B1643163758645S06011643WA0161701674000008015000
B1643203758720S06011664WA0161401679000008015000
B1643243758781S06011626WA0161801684000008015000
B1643283758804S06011559WA0161901681015012030000
B1643323758783S06011504WA0162001683000012015000
B1643363758741S06011497WA0162101683000012000000
B1643403758714S06011544WA0162301686000012015000
B1643443758731S06011616WA0162201680000008015000
B1643483758794S06011659WA0161801678000004015000
B1643523758866S06011642WA0161801681000004015000
B1643563758911S06011590WA0162001684000004015000
B1644003758928S06011521WA0161801673000004015000
B1644043758901S06011460WA0160801668000004015000
B1644083758857S06011436WA0161101675000008015000
B1644123758814S06011452WA0161501674000008015000
B1644163758805S06011514WA0160901669000004015000
B1644203758846S06011579WA0160701667000004015000
B1644243758914S06011603WA0160901669000008015000
B1644283758978S06011572WA0160401661000004015000
B1644323759006S06011503WA0160101658000004015000
B1644363758987S06011444WA0159901657000004015000
B1644403758943S06011436WA0159701657000004015000
B1644443758906S06011477WA0159501657000004015000
B1644483758879S06011533WA0160101664000008015000
B1644523758891S06011603WA0160401665000008015000
B1644563758945S06011651WA0160301663000004015000
B1645003759018S06011650WA0159901656000004015000
B1645043759074S06011595WA0159301653000004015000
B1645083759083S06011523WA0159101652000004015000
B1645123759051S06011481WA0158901647000004015000
B1645163759005S06011492WA0158201647000000015000
B1645203758961S06011526WA0158001643000008015000
B1645243758917S06011565WA0158201649000008015000
B1645283758885S06011625WA0158001637000008015000
B1645323758871S06011704WA0156601623000004015000
B1645363758861S06011794WA0155001604000004015000
B1645403758848S06011890WA0153901600000004015000
B1645443758828S06011980WA0153301592000008015000
B1645483758802S06012068WA0152101578000012015000
B1645523758776S06012160WA0151101571000016015000
B1645563758766S06012255WA0150901573000020015000
B1646003758787S06012350WA0151001571000020015000
B1646043758817S06012443WA0150801566000020015000
B1646083758844S06012537WA0150201559000020015000
B1646123758865S06012638WA0149401547000020015000
B1646163758865S06012743WA0148101537000016015000
B1646203758846S06012843WA0147501532000008015000
B1646243758830S06012944WA0147101527000008015000
B1646283758814S06013044WA0146501519000004015000
B1646323758783S06013135WA0146101517000008015000
B1646363758739S06013211WA0145701511000012015000
B1646403758687S06013275WA0145001500000012015000
B1646443758632S06013340WA0143801487000016015000
B1646483758575S06013405WA0143401496000012015000
B1646523758520S06013454WA0145601525000012015000
B1646563758514S06013529WA0148201556000012015000
B1647003758571S06013571WA0150701576000012015000
B1647043758637S06013545WA0151301577000012015000
B1647083758663S06013468WA0152001588000012015000
B1647123758636S06013411WA0153001597000012015000
B1647163758589S06013401WA0153901608000012015000
B1647203758555S06013440WA0155001617000012015000
B1647243758554S06013507WA0155801626000012015000
B1647283758597S06013566WA0157001644000012015000
B1647323758662S06013559WA0158801659000012015000
B1647363758700S06013498WA0159201653000012015000
B1647403758681S06013429WA0159201657000012015000
B1647443758636S06013415WA0160201673000012015000
B1647483758611S06013463WA0161301680000012015000
B1647523758636S06013532WA0161801683000012015000
B1647563758706S06013554WA0162601697000012015000
B1648003758759S06013503WA0164001707000012015000
B1648043758766S06013425WA0164301707000012015000
B1648083758726S06013384WA0165101718000012015000
B1648123758689S06013407WA0166401730000012015000
B1648163758684S06013471WA0166901729000012015000
B1648203758726S06013537WA0167001735000012015000
B1648243758797S06013548WA0168101750000012015000
B1648283758852S06013497WA0169101756000012015000
B1648323758863S06013420WA0169701761000012015000
B1648363758830S06013375WA0170501772000012015000
B1648403758794S06013403WA0170601773000012015000
B1648443758794S06013472WA0170601777000012015000
B1648483758843S06013532WA0171301785000012015000
B1648523758914S06013532WA0172201791000012015000
B1648563758954S06013462WA0172801797000012015000
B1649003758935S06013401WA0173501810000012015000
B1649043758897S06013408WA0174701817000012015000
B1649083758891S06013471WA0174701813000012015000
B1649123758939S06013531WA0174701820000008015000
B1649163759010S06013525WA0175701828000012015000
B1649203759054S06013459WA0176201834000012015000
B1649243759040S06013390WA0176701839000012015000
B1649283758999S06013382WA0177301851000012015000
B1649323758978S06013432WA0178101852000008015000
B1649363758995S06013502WA0178001853000012015000
B1649403759052S06013553WA0178401859000012015000
B1649443759125S06013551WA0178901866000012015000
B1649483759170S06013490WA0179601871000012015000
B1649523759158S06013421WA0179801870000012015000
B1649563759114S06013419WA0179801879000012015000
B1650003759093S06013471WA0180801885000012015000
B1650043759116S06013537WA0181001883000012015000
B1650083759182S06013571WA0180901882000012015000
B1650123759247S06013528WA0180901883000012015000
B1650163759262S06013451WA0181201885000012015000
B1650203759227S06013408WA0181401890000012015000
B1650243759192S06013437WA0181801894000012015000
B1650283759204S06013506WA0181901893000012015000
B1650323759268S06013549WA0181501888000012015000
B1650363759351S06013525WA0180401874000008000000
B1650403759439S06013480WA0178901861000008000000
B1650443759532S06013433WA0178701868000008000000
B1650483759617S06013392WA0180401885000008015000
B1650523759703S06013364WA0180901874000008000000
B1650563759795S06013332WA0179201855000012000000
B1651003759889S06013289WA0178001848000012015000
B1651043759983S06013243WA0177501844000008000000
B1651083800075S06013194WA0177201839000008015000
B1651123800167S06013150WA0176601832000008015000
B1651163800261S06013104WA0175801824000016015000
B1651203800356S06013061WA0175401821000012015000
B1651243800452S06013021WA0175101815000008015000
B1651283800548S06012981WA0174501809000008015000
B1651323800644S06012938WA0173901804000004000000
B1651363800739S06012894WA0173501800000004000000
B1651403800834S06012855WA0173401799000004000000
B1651443800926S06012810WA0173101795000004000000
B1651483801016S06012761WA0172701791000004000000
B1651523801106S06012716WA0172201785000004000000
B1651563801196S06012671WA0171601782000008015000
B1652003801285S06012630WA0171401779000008000000
B1652043801375S06012586WA0171201777000004000000
B1652083801463S06012545WA0171001773000004015000
B1652123801552S06012505WA0170501767000004000000
B1652163801641S06012467WA0169601756000008015000
B1652203801734S06012439WA0168501748000012000000
B1652243801826S06012415WA0168201746000016015000
B1652283801920S06012400WA0167901743000020015000
B1652323802012S06012392WA0168001750000016015000
B1652363802095S06012410WA0169301764000012000000
B1652403802161S06012463WA0170701776000012015000
B1652443802228S06012508WA0171901786000012015000
B1652483802301S06012504WA0172401792000012015000
B1652523802362S06012458WA0172901797000012000000
B1652563802385S06012385WA0173301803000012015000
B1653003802359S06012331WA0173901811000012015000
B1653043802316S06012332WA0174901819000012015000
B1653083802302S06012394WA0175001820000012015000
B1653123802343S06012462WA0175101821000012015000
B1653163802416S06012489WA0175701828000012015000
B1653203802485S06012457WA0176201833000012015000
B1653243802518S06012385WA0176401833000012015000
B1653283802498S06012320WA0176401832000012015000
B1653323802451S06012294WA0176401836000012015000
B1653363802402S06012305WA0176901842000012000000
B1653403802373S06012365WA0177201844000012015000
B1653443802390S06012446WA0177601848000012015000
B1653483802449S06012498WA0178301853000012015000
B1653523802522S06012483WA0178401854000012015000
B1653563802566S06012414WA0178501853000012015000
B1654003802561S06012339WA0178201850000008015000
B1654043802523S06012290WA0178101851000008015000
B1654083802475S06012257WA0178001851000008015000
B1654123802425S06012207WA0177901846000008015000
B1654163802373S06012151WA0177501849000012015000
B1654203802320S06012103WA0178101857000012015000
B1654243802267S06012059WA0179001869000012015000
B1654283802217S06012014WA0180401883000012015000
B1654323802165S06011991WA0181601893000012015000
B1654363802119S06012025WA0181801892000012015000
B1654403802103S06012102WA0181401885000008015000
B1654443802138S06012179WA0181101880000008015000
B1654483802211S06012209WA0180701877000004015000
B1654523802281S06012157WA0180701880000008015000
B1654563802332S06012076WA0181101889000008015000
B1655003802350S06011986WA0182101898000012015000
B1655043802319S06011920WA0182901908000012015000
B1655083802267S06011919WA0183601914000012015000
B1655123802233S06011971WA0183801912000012015000
B1655163802238S06012047WA0183501910000012015000
B1655203802290S06012106WA0183501910000012015000
B1655243802368S06012108WA0183501912000012015000
B1655283802432S06012053WA0184001920000012015000
B1655323802459S06011969WA0184801925000012015000
B1655363802438S06011893WA0185001925000012015000
B1655403802384S06011855WA0184801924000012015000
B1655443802324S06011854WA0184701918000012015000
B1655483802263S06011864WA0182901894000008015000
B1655523802189S06011882WA0180001868000004015000
B1655563802111S06011906WA0178401852000004015000
B1656003802033S06011937WA0177201842000008015000
B1656043801953S06011977WA0176501834000008015000
B1656083801875S06012030WA0175801822000004015000
B1656123801797S06012092WA0174801815000004015000
B1656163801722S06012155WA0174401811000004015000
B1656203801645S06012216WA0174101806000004015000
B1656243801570S06012277WA0173201795000000015000
B1656283801496S06012341WA0172201786000000015000
B1656323801422S06012406WA0171401779000004015000
B1656363801348S06012470WA0170801773000004015000
B1656403801276S06012535WA0170201764000000015000
B1656443801203S06012600WA0169601753000000015000
B1656483801128S06012664WA0168701743000004015000
B1656523801049S06012725WA0167901731000000015000
B1656563800971S06012786WA0166901722000004015000
B1657003800891S06012843WA0166001712000004015000
B1657043800811S06012896WA0164901703000000015000
B1657083800729S06012944WA0164001695000000015000
B1657123800646S06012987WA0163401696000000015000
B1657163800565S06013028WA0163801707000004015000
B1657203800495S06013059WA0165701742000008015000
B1657243800436S06013081WA0168501757000008015000
B1657283800387S06013119WA0169001758000008015000
B1657323800361S06013187WA0169601771000012015000
B1657363800366S06013268WA0171201789000012015000
B1657403800418S06013325WA0173101807000012015000
B1657443800490S06013325WA0174201813000012015000
B1657483800539S06013262WA0175001825000012015000
B1657523800529S06013193WA0176001835000012015000
B1657563800488S06013197WA0176901844000012015000
B1658003800486S06013267WA0177401847000012015000
B1658043800539S06013327WA0177901851000012015000
B1658083800617S06013317WA0178501860000012015000
B1658123800657S06013245WA0179201869000012015000
B1658163800642S06013174WA0180001877000012015000
B1658203800598S06013156WA0180801885000012015000
B1658243800568S06013202WA0181701893000012015000
B1658283800578S06013277WA0182401898000012015000
B1658323800642S06013328WA0182701902000012015000
B1658363800715S06013308WA0183601916000012015000
B1658403800748S06013239WA0184601921000012015000
B1658443800728S06013174WA0184601919000012015000
B1658483800681S06013160WA0184901927000012015000
B1658523800653S06013208WA0185701936000012015000
B1658563800666S06013280WA0186401944000012015000
B1659003800725S06013324WA0187001943000012015000
B1659043800796S06013304WA0187101951000012015000
B1659083800828S06013234WA0187701951000012015000
B1659123800802S06013172WA0187401949000012015000
B1659163800756S06013172WA0187801960000012015000
B1659203800733S06013224WA0188601967000012015000
B1659243800743S06013294WA0189001965000012015000
B1659283800798S06013349WA0189001968000012015000
B1659323800872S06013347WA0189701977000012015000
B1659363800921S06013289WA0190001974000012015000
B1659403800915S06013215WA0189701972000008015000
B1659443800868S06013187WA0189301968000008015000
B1659483800820S06013215WA0189501974000008015000
B1659523800806S06013284WA0189801973000008015000
B1659563800845S06013356WA0189601973000008015000
B1700003800917S06013384WA0190101981000008015000
B1700043800980S06013343WA0190801986000008015000
B1700083800994S06013268WA0190901984000008015000
B1700123800962S06013212WA0190301976000004015000
B1700163800911S06013217WA0190301983000008015000
B1700203800891S06013281WA0190601980000008015000
B1700243800930S06013353WA0190301979000004015000
B1700283801004S06013373WA0190501981000008015000
B1700323801072S06013342WA0191001985000008015000
B1700363801099S06013269WA0191001984000004015000
B1700403801082S06013198WA0190801981000004015000
B1700443801038S06013168WA0190601982000004015000
B1700483800994S06013193WA0190601978000004015000
B1700523800986S06013264WA0189901972000004015000
B1700563801025S06013343WA0188801958000004015000
B1701003801090S06013412WA0188201952000004015000
B1701043801171S06013471WA0187001936000000015000
B1701083801258S06013532WA0185701924000000015000
B1701123801350S06013588WA0184501913000004015000
B1701163801440S06013646WA0183601903000012015000
B1701203801528S06013707WA0182801896000016015000
B1701243801618S06013766WA0182201888000016015000
B1701283801708S06013819WA0181801886000008015000
E170132PEV
B1701323801797S06013871WA0181401879000008015000
B1701333801821S06013883WA0181401879000008015000
B1701343801844S06013896WA0181201876000008015000
B1701353801866S06013908WA0181101874000012015000
B1701363801890S06013921WA0180901871000016015000
B1701373801912S06013934WA0180701868000016015000
B1701383801934S06013948WA0180601865000016015000
B1701393801957S06013964WA0180301862000016015000
B1701403801979S06013978WA0180101859000016015000
B1701413802002S06013993WA0179901856000012015000
B1701423802025S06014009WA0179701854000012015000
B1701433802047S06014025WA0179501852000012015000
B1701443802070S06014042WA0179301851000012015000
B1701453802094S06014057WA0179101849000008015000
B1701463802116S06014073WA0179001849000008015000
B1701473802138S06014088WA0178801848000008015000
B1701483802160S06014104WA0178801847000008015000
B1701523802247S06014170WA0178201840000004015000
B1701563802329S06014243WA0177701838000008015000
B1702003802416S06014302WA0178501850000008015000
B1702043802509S06014296WA0180001869000008015000
B1702083802566S06014227WA0181301888000008015000
B1702123802567S06014146WA0182701901000012015000
B1702163802522S06014105WA0183601910000012015000
B1702203802472S06014131WA0184001912000012015000
B1702243802462S06014205WA0184401915000012015000
B1702283802511S06014269WA0184401918000012015000
B1702323802585S06014266WA0184801925000012015000
B1702363802636S06014205WA0185701933000012015000
B1702403802639S06014127WA0186401940000012015000
B1702443802597S06014083WA0187001946000012015000
B1702483802549S06014105WA0187101948000012015000
B1702523802541S06014179WA0187601953000012015000
B1702563802583S06014246WA0187801954000012015000
B1703003802654S06014256WA0188101958000012015000
B1703043802705S06014196WA0188501959000012015000
B1703083802698S06014118WA0188601963000012015000
B1703123802652S06014078WA0189301970000012015000
B1703163802600S06014092WA0190001976000012015000
B1703203802577S06014156WA0190001972000012015000
B1703243802610S06014234WA0189301963000008015000
B1703283802681S06014270WA0188901962000008015000
B1703323802757S06014244WA0189001968000008015000
B1703363802805S06014177WA0189701974000012015000
B1703403802800S06014097WA0190401982000012015000
B1703443802753S06014061WA0190801987000012015000
B1703483802707S06014090WA0191401990000012015000
B1703523802707S06014168WA0191201983000012015000
B1703563802770S06014217WA0190401976000008015000
B1704003802843S06014187WA0190101978000008015000
B1704043802875S06014109WA0190501983000012015000
B1704083802867S06014029WA0190701981000012015000
B1704123802819S06013990WA0190601983000012015000
B1704163802775S06014032WA0191101989000012015000
B1704203802770S06014107WA0191201985000008015000
B1704243802804S06014181WA0190401977000008015000
B1704283802866S06014233WA0190001973000004015000
B1704323802945S06014238WA0189701971000004015000
B1704363803017S06014196WA0189701972000004015000
B1704403803073S06014131WA0189801972000008015000
B1704443803099S06014047WA0189801974000012015000
B1704483803092S06013966WA0190301980000012015000
B1704523803053S06013922WA0190701985000012015000
B1704563803008S06013931WA0191101987000012015000
B1705003802986S06013995WA0191201987000012015000
B1705043803010S06014071WA0191201986000012015000
B1705083803077S06014112WA0190901981000008015000
B1705123803149S06014081WA0190901983000008015000
B1705163803186S06014004WA0191201987000008015000
B1705203803173S06013930WA0191001983000008015000
B1705243803123S06013908WA0190601982000008015000
B1705283803077S06013941WA0190701980000008015000
B1705323803048S06014008WA0190401979000008015000
B1705363803045S06014091WA0190201971000008015000
B1705403803055S06014181WA0189001954000004015000
B1705443803071S06014282WA0187601938000004015000
B1705483803091S06014391WA0186401928000008015000
B1705523803113S06014506WA0185301919000008015000
B1705563803135S06014620WA0184701913000004015000
B1706003803159S06014737WA0183901905000004015000
B1706043803178S06014853WA0183901910000004015000
B1706083803192S06014958WA0185001923000008015000
B1706123803201S06015061WA0185201919000008015000
B1706163803214S06015169WA0184501909000004015000
B1706203803257S06015274WA0183601898000004015000
B1706243803330S06015366WA0182701889000004015000
B1706283803420S06015442WA0182001880000004015000
B1706323803513S06015508WA0181201872000004015000
B1706363803610S06015570WA0180401864000004015000
B1706403803703S06015630WA0179701857000000015000
B1706443803798S06015690WA0178801849000000015000
B1706483803893S06015751WA0178301843000000015000
B1706523803988S06015811WA0177201828000000015000
B1706563804082S06015877WA0176301820000004015000
B1707003804173S06015945WA0175701816000000015000
B1707043804264S06016011WA0175601812000000015000
B1707083804356S06016076WA0175001806000000015000
B1707123804448S06016142WA0173901791000000015000
B1707163804542S06016213WA0172701781000000015000
B1707203804633S06016284WA0172401782000000015000
B1707243804721S06016356WA0172401782000000015000
B1707283804806S06016428WA0172501785000004015000
B1707323804888S06016506WA0172201775000000015000
B1707363804967S06016587WA0171301765000000015000
B1707403805042S06016671WA0170501760000004015000
B1707443805120S06016749WA0170001752000004015000
B1707483805202S06016825WA0169501751000004015000
B1707523805284S06016896WA0169501750000004015000
B1707563805367S06016965WA0168801743000004015000
B1708003805450S06017038WA0168001736000004015000
B1708043805534S06017112WA0167401730000000015000
B1708083805618S06017190WA0166801719000000015000
B1708123805704S06017267WA0165801712000004015000
B1708163805790S06017347WA0165101702000004015000
B1708203805876S06017428WA0164601698000004015000
B1708243805960S06017507WA0164001693000004015000
B1708283806046S06017587WA0163301692000000015000
B1708323806132S06017662WA0163701698000004015000
B1708363806215S06017734WA0164101703000004015000
B1708403806293S06017804WA0164401706000004015000
B1708443806367S06017871WA0164401706000004015000
B1708483806444S06017936WA0164201701000008015000
B1708523806520S06018001WA0163801697000008015000
B1708563806597S06018070WA0163301693000008015000
B1709003806667S06018146WA0163001690000004000000
B1709043806734S06018225WA0162501687000004000000
B1709083806792S06018308WA0162201681000008000000
B1709123806841S06018399WA0161901681000012000000
B1709163806886S06018495WA0161601677000012000000
B1709203806927S06018594WA0161601680000008000000
B1709243806966S06018693WA0162101689000008000000
B1709283806996S06018790WA0163201703000012000000
B1709323807012S06018883WA0164501719000012000000
B1709363807012S06018969WA0166101733000012000000
B1709403807046S06019049WA0167001745000012000000
B1709443807114S06019052WA0168901765000012015000
B1709483807134S06018985WA0170101774000012015000
B1709523807096S06018945WA0170901785000012015000
B1709563807046S06018959WA0172501801000012015000
B1710003806996S06018987WA0173901817000012015000
B1710043806964S06019043WA0175301834000012015000
B1710083806969S06019119WA0177601853000012015000
B1710123807023S06019173WA0179101877000012015000
B1710163807087S06019153WA0181301895000012015000
B1710203807104S06019089WA0183101917000012015000
B1710243807072S06019054WA0184701928000012015000
B1710283807031S06019084WA0186001944000012015000
B1710323807031S06019157WA0187901964000012015000
B1710363807085S06019209WA0189701979000012015000
B1710403807151S06019192WA0191301995000012015000
B1710443807170S06019127WA0193202018000012015000
B1710483807143S06019076WA0194802026000012015000
B1710523807098S06019089WA0196102044000012015000
B1710563807092S06019162WA0197802059000012015000
B1711003807139S06019223WA0199102079000012015000
B1711043807208S06019231WA0201002094000012015000
B1711083807252S06019179WA0202202108000012015000
E171110PEV
B1711103807254S06019144WA0203002116000012015000
B1711113807250S06019127WA0203402118000012015000
B1711123807242S06019113WA0203702122000012015000
B1711133807233S06019102WA0204002125000016015000
B1711143807224S06019093WA0204302128000016015000
B1711153807212S06019088WA0204702132000016015000
B1711163807200S06019086WA0205202136000016015000
B1711173807187S06019088WA0205602140000016015000
B1711183807177S06019095WA0206002143000016015000
B1711193807166S06019105WA0206302146000016015000
B1711203807159S06019121WA0206602149000016015000
B1711213807153S06019138WA0206802153000012015000
B1711223807152S06019157WA0207202157000012015000
B1711233807155S06019177WA0207502161000012015000
B1711243807160S06019196WA0207802166000012015000
B1711253807169S06019214WA0208302170000012015000
B1711263807181S06019230WA0208702174000012015000
B1711303807243S06019265WA0210602191000012015000
B1711343807304S06019245WA0211302198000012015000
B1711383807329S06019178WA0211902206000012015000
B1711423807309S06019115WA0213002215000012015000
B1711463807260S06019102WA0214002228000012015000
B1711503807225S06019153WA0215502244000012015000
B1711543807239S06019232WA0216802257000012015000
B1711583807296S06019284WA0217902266000012015000
B1712023807367S06019278WA0218702273000012015000
B1712063807408S06019216WA0219902287000012015000
B1712103807403S06019141WA0220802297000012015000
B1712143807358S06019109WA0221702310000012015000
B1712183807313S06019139WA0223302326000012015000
B1712223807306S06019213WA0224702338000012015000
B1712263807341S06019283WA0225402341000012015000
B1712303807408S06019304WA0225802345000012015000
B1712343807475S06019268WA0226302352000012015000
B1712383807503S06019188WA0226902360000012015000
B1712423807480S06019114WA0227902371000012015000
B1712463807429S06019087WA0229202385000012015000
B1712503807385S06019122WA0230102400000012015000
B1712543807377S06019193WA0231902411000012015000
B1712583807407S06019268WA0232402417000012015000
B1713023807464S06019314WA0232602415000012015000
B1713063807538S06019313WA0232802419000012015000
B1713103807594S06019256WA0233702432000012015000
B1713143807601S06019173WA0234402433000012015000
B1713183807559S06019115WA0234602439000012015000
B1713223807502S06019117WA0235502450000012015000
B1713263807465S06019171WA0236302456000012015000
B1713303807469S06019255WA0236802459000012015000
B1713343807519S06019322WA0236602456000008015000
B1713383807593S06019346WA0236402454000008015000
B1713423807664S06019313WA0236802463000008015000
B1713463807707S06019238WA0237602467000012015000
B1713503807703S06019147WA0237402463000012015000
B1713543807651S06019091WA0237502466000012015000
B1713583807586S06019102WA0237502466000012015000
B1714023807546S06019175WA0237802471000012000000
B1714063807547S06019277WA0237902468000012015000
B1714103807597S06019368WA0237702459000008000000
B1714143807679S06019413WA0236702452000008000000
B1714183807770S06019396WA0236502454000008015000
B1714223807833S06019321WA0236902457000008015000
B1714263807854S06019217WA0237202457000008015000
B1714303807831S06019119WA0237202461000008015000
B1714343807771S06019067WA0237902470000012015000
B1714383807702S06019079WA0238102471000012015000
B1714423807650S06019144WA0238302475000012000000
B1714463807638S06019240WA0238802481000012000000
B1714503807663S06019336WA0238902479000008000000
B1714543807723S06019413WA0238002466000008000000
B1714583807807S06019447WA0237302461000004000000
B1715023807891S06019425WA0237502464000004015000
B1715063807952S06019355WA0237802469000008015000
B1715103807970S06019262WA0238302478000008000000
B1715143807949S06019180WA0238902482000008000000
B1715183807896S06019131WA0239002484000008000000
B1715223807832S06019134WA0239502489000012000000
B1715263807787S06019192WA0239902494000012000000
B1715303807781S06019281WA0240302496000012000000
B1715343807826S06019364WA0239802485000008000000
B1715383807904S06019403WA0238802477000004015000
B1715423807988S06019377WA0238402471000004015000
B1715463808060S06019314WA0238502480000004015000
B1715503808086S06019223WA0239402487000008000000
B1715543808056S06019145WA0239702492000008015000
B1715583807997S06019118WA0240002492000008015000
B1716023807939S06019153WA0240102494000008000000
B1716063807910S06019236WA0239902492000008000000
B1716103807940S06019330WA0239702491000004000000
B1716143808014S06019385WA0239302486000004015000
B1716183808100S06019382WA0239302487000004015000
B1716223808162S06019318WA0239402488000008015000
B1716263808182S06019229WA0239502486000008015000
B1716303808158S06019147WA0239102483000008015000
B1716343808101S06019100WA0239002482000008000000
B1716383808030S06019100WA0238902481000008000000
B1716423807956S06019127WA0238302478000008000000
B1716463807885S06019177WA0238102478000008000000
B1716503807816S06019221WA0237602467000008000000
B1716543807744S06019260WA0236602458000004000000
B1716583807671S06019294WA0236302456000004000000
B1717023807603S06019325WA0236502460000004000000
B1717063807534S06019347WA0236602456000004000000
B1717103807460S06019353WA0235902444000004000000
B1717143807384S06019356WA0234902434000004000000
B1717183807304S06019353WA0234302430000004000000
B1717223807226S06019347WA0234002425000000000000
B1717263807147S06019342WA0233402417000004000000
B1717303807068S06019340WA0232502409000004000000
B1717343806991S06019338WA0231902406000004000000
B1717383806913S06019338WA0231702405000004000000
B1717423806836S06019333WA0231502401000004000000
B1717463806760S06019322WA0230902396000004000000
B1717503806683S06019312WA0230502391000004000000
B1717543806606S06019303WA0230002387000000000000
B1717583806532S06019292WA0229702382000000000000
B1718023806457S06019287WA0229202374000000000000
B1718063806380S06019284WA0228302366000004000000
B1718103806303S06019282WA0227602358000004000000
B1718143806225S06019281WA0227202354000000000000
B1718183806147S06019279WA0227002353000000000000
B1718223806069S06019284WA0227402351000004000000
B1718263805989S06019291WA0227002348000004000000
B1718303805908S06019299WA0226502349000008000000
B1718343805827S06019303WA0226602351000004000000
B1718383805744S06019301WA0226002342000004000000
B1718423805662S06019292WA0225702341000008000000
B1718463805578S06019278WA0225202334000008000000
B1718503805496S06019256WA0224502325000004000000
B1718543805418S06019239WA0224402327000008000000
B1718583805346S06019218WA0224302328000012000000
B1719023805278S06019197WA0224902339000016000000
B1719063805215S06019180WA0226702361000012000000
B1719103805164S06019208WA0228202373000012000000
B1719143805163S06019281WA0228802376000012000000
B1719183805223S06019322WA0228602371000008000000
B1719223805292S06019286WA0228602375000008000000
B1719263805328S06019212WA0228802378000008000000
B1719303805324S06019131WA0229102381000008000000
B1719343805287S06019079WA0229702388000012000000
B1719383805241S06019095WA0230302391000012000000
B1719423805235S06019162WA0230202389000008000000
B1719463805274S06019229WA0229902382000004000000
B1719503805345S06019260WA0228902372000004000000
B1719543805424S06019231WA0228602372000004000000
B1719583805463S06019149WA0228702374000004000000
B1720023805448S06019062WA0228802373000004000000
B1720063805411S06018989WA0228802377000008000000
B1720103805378S06018913WA0229002378000008000000
B1720143805344S06018836WA0229502389000012000000
B1720183805320S06018758WA0230302390000012000000
B1720223805300S06018668WA0229502373000012000000
B1720263805276S06018567WA0228302359000012000000
B1720303805254S06018458WA0227502356000012000000
B1720343805228S06018347WA0227102348000008000000
B1720383805202S06018233WA0225702332000008000000
B1720423805175S06018117WA0224702324000008000000
B1720463805148S06018004WA0224302323000008000000
B1720503805120S06017890WA0224002320000004000000
B1720543805093S06017773WA0224002321000008000000
B1720583805068S06017658WA0224802333000008000000
B1721023805054S06017555WA0226602356000008000000
B1721063805047S06017464WA0227802363000012000000
B1721103805047S06017376WA0227902362000012000000
B1721143805050S06017284WA0227402350000016000000
B1721183805041S06017182WA0225702327000020000000
B1721223805025S06017073WA0223902317000016000000
B1721263805007S06016961WA0223102304000012000000
B1721303804981S06016850WA0221402288000016000000
B1721343804954S06016735WA0220502283000012000000
B1721383804925S06016623WA0220302279000008000000
B1721423804902S06016508WA0219702275000008000000
B1721463804885S06016389WA0219602273000004000000
B1721503804873S06016270WA0219202269000004000000
B1721543804867S06016148WA0218702262000004000000
B1721583804873S06016021WA0218002253000004000000
B1722023804895S06015893WA0217202245000004000000
B1722063804917S06015763WA0216402239000000000000
B1722103804940S06015633WA0215902233000000000000
B1722143804975S06015504WA0215302228000000000000
B1722183805024S06015381WA0214802222000000000000
B1722223805075S06015257WA0214102216000000000000
B1722263805123S06015132WA0213602205000004000000
B1722303805167S06015004WA0212602197000000000000
B1722343805210S06014874WA0211902195000000000000
B1722383805249S06014747WA0211902198000000000000
B1722423805285S06014625WA0212102199000004000000
B1722463805320S06014503WA0211802194000004000000
B1722503805356S06014380WA0211202189000004000000
B1722543805389S06014256WA0210802183000000000000
B1722583805427S06014133WA0210002175000004000000
B1723023805470S06014009WA0209602169000004000000
B1723063805514S06013887WA0208802160000000000000
B1723103805560S06013763WA0208002150000000000000
B1723143805606S06013641WA0206902138000004000000
B1723183805655S06013520WA0205702127000004000000
B1723223805705S06013398WA0204802120000004000000
B1723263805755S06013278WA0204502119000000000000
B1723303805803S06013160WA0204502121000000000000
B1723343805848S06013046WA0204702123000000000000
B1723383805892S06012930WA0205002127000004000000
B1723423805938S06012820WA0205502138000004000000
B1723463805982S06012713WA0205902128000004000000
B1723503806028S06012601WA0204602113000004000000
B1723543806074S06012484WA0203202097000004000000
B1723583806125S06012365WA0201902083000004000000
B1724023806178S06012246WA0200502072000000000000
B1724063806236S06012128WA0199702065000004000000
B1724103806297S06012012WA0199102061000004000000
B1724143806359S06011897WA0198602054000004000000
B1724183806423S06011782WA0198002049000004000000
B1724223806485S06011668WA0197502042000004000000
B1724263806546S06011553WA0196602036000004000000
B1724303806606S06011438WA0196302033000004000000
B1724343806665S06011323WA0196002029000004000000
B1724383806722S06011209WA0195502021000004000000
B1724423806780S06011094WA0194702018000004000000
B1724463806838S06010983WA0194502015000000000000
B1724503806893S06010868WA0193802006000000000000
B1724543806949S06010753WA0193001998000004000000
B1724583807003S06010641WA0193702015000004000000
B1725023807062S06010539WA0194102011000004000000
B1725063807125S06010437WA0192601987000004000000
B1725103807189S06010324WA0190601970000004000000
B1725143807251S06010203WA0189601961000004000000
B1725183807313S06010082WA0188901957000004000000
B1725223807373S06009960WA0188601950000000000000
B1725263807433S06009836WA0187701939000004000000
B1725303807497S06009715WA0187101935000004000000
B1725343807560S06009594WA0186501927000000000000
B1725383807620S06009471WA0185901922000004000000
B1725423807681S06009349WA0185901930000004000000
B1725463807731S06009230WA0186801940000012000000
B1725503807771S06009113WA0187201937000008000000
B1725543807815S06008994WA0186001915000008000000
B1725583807867S06008868WA0183801898000004000000
B1726023807922S06008741WA0183001891000004000000
B1726063807982S06008621WA0182601891000004000000
B1726103808043S06008504WA0182501886000004000000
B1726143808106S06008388WA0181801877000000000000
B1726183808171S06008272WA0181201876000000000000
B1726223808238S06008158WA0180701868000000000000
B1726263808304S06008045WA0180101862000000000000
B1726303808370S06007929WA0179501854000000000000
B1726343808437S06007812WA0178901855000000000000
B1726383808499S06007699WA0179201853000004000000
B1726423808561S06007583WA0178601845000000000000
B1726463808624S06007467WA0178101845000000000000
B1726503808685S06007352WA0178001843000000000000
B1726543808745S06007236WA0177701837000000000000
B1726583808804S06007122WA0177101834000000000000
B1727023808866S06007009WA0176801829000000000000
B1727063808925S06006894WA0176201820000000000000
B1727103808984S06006777WA0175201810000000000000
B1727143809045S06006661WA0174501805000000000000
B1727183809103S06006543WA0174001802000000000000
B1727223809165S06006427WA0173401794000000000000
B1727263809227S06006310WA0172801786000004000000
B1727303809289S06006193WA0172101779000004000000
B1727343809352S06006076WA0171601774000004000000
B1727383809412S06005959WA0171201772000004000000
B1727423809471S06005844WA0170901766000004000000
B1727463809536S06005729WA0170001759000000000000
B1727503809601S06005616WA0169601756000000000000
B1727543809666S06005503WA0169401753000000000000
B1727583809735S06005393WA0169001747000000000000
B1728023809805S06005283WA0168301739000000000000
B1728063809877S06005174WA0167601735000000000000
B1728103809943S06005065WA0167401732000000000000
B1728143810008S06004956WA0167201728000004000000
B1728183810073S06004844WA0166701721000004000000
B1728223810130S06004728WA0166001714000004000000
B1728263810188S06004613WA0165501714000004000000
B1728303810242S06004497WA0165401708000004000000
B1728343810298S06004384WA0165001711000004000000
B1728383810359S06004282WA0165401716000004000000
B1728423810424S06004190WA0165601710000004000000
B1728463810493S06004099WA0164801703000004000000
B1728503810561S06004008WA0164301704000004000000
B1728543810627S06003915WA0164001704000000000000
B1728583810692S06003816WA0164501717000004000000
B1729023810740S06003720WA0167001756000008000000
B1729063810723S06003647WA0170501789000008000000
B1729103810682S06003652WA0172301795000012000000
B1729143810679S06003718WA0172201790000012000000
B1729183810741S06003757WA0172101792000012000000
B1729223810814S06003726WA0172601803000012000000
B1729263810860S06003656WA0173901807000012000000
B1729303810853S06003577WA0173901806000012000000
B1729343810803S06003548WA0173801807000012000000
B1729383810754S06003578WA0174201811000012000000
B1729423810752S06003656WA0174501814000012000000
B1729463810800S06003723WA0175001822000012000000
B1729503810871S06003710WA0176101841000012000000
B1729543810892S06003639WA0177501848000012000000
B1729583810853S06003595WA0177901847000012000000
B1730023810819S06003639WA0177901848000012000000
B1730063810861S06003705WA0177701843000012000000
B1730103810942S06003692WA0177201840000012000000
B1730143810996S06003605WA0176801828000012000000
B1730183811020S06003487WA0175801821000012000000
B1730223811035S06003361WA0175101812000012000000
B1730263811050S06003229WA0173601790000008000000
B1730303811059S06003093WA0171701774000012000000
B1730343811059S06002955WA0170701766000008000000
B1730383811055S06002815WA0169501749000004000000
B1730423811050S06002672WA0167901732000004000000
B1730463811043S06002526WA0166701722000004000000
B1730503811040S06002383WA0166501721000004000000
B1730543811040S06002240WA0166001710000004000000
B1730583811040S06002097WA0165001705000004000000
B1731023811040S06001954WA0164501698000004000000
B1731063811044S06001812WA0163901695000004000000
B1731103811052S06001672WA0163501690000004000000
B1731143811066S06001533WA0162801682000004000000
B1731183811078S06001398WA0162101675000004000000
B1731223811086S06001263WA0161601670000000000000
B1731263811092S06001130WA0161101665000000000000
B1731303811098S06000997WA0160701661000000000000
B1731343811103S06000866WA0160101657000004000000
B1731383811109S06000736WA0159801653000004000000
B1731423811116S06000607WA0159201647000000000000
B1731463811121S06000476WA0158901643000000000000
B1731503811125S06000347WA0158401638000000000000
B1731543811128S06000220WA0158001635000004000000
B1731583811137S06000098WA0157801633000004000000
B1732023811155S05959976WA0156801622000004000000
B1732063811168S05959852WA0156401622000004000000
B1732103811186S05959736WA0157901660000008000000
B1732143811237S05959656WA0162301705000008000000
B1732183811304S05959677WA0166301743000008000000
B1732223811319S05959743WA0168001747000012000000
B1732263811285S05959778WA0168501752000012000000
B1732303811245S05959752WA0168701751000012000000
B1732343811209S05959692WA0168801751000012000000
B1732383811195S05959610WA0168401747000008000000
B1732423811219S05959517WA0168301744000008000000
B1732463811278S05959439WA0168601753000008000000
B1732503811341S05959370WA0169801764000008000000
B1732543811351S05959284WA0171001781000008000000
B1732583811308S05959271WA0172801801000008000000
B1733023811291S05959332WA0173501803000012000000
B1733063811333S05959404WA0174401814000012000000
B1733103811407S05959440WA0174501815000012000000
B1733143811486S05959479WA0175101823000012000000
B1733183811547S05959545WA0175801832000012000000
B1733223811567S05959632WA0177201845000012000000
B1733263811536S05959696WA0178701864000012000000
B1733303811489S05959693WA0180501881000012000000
B1733343811472S05959632WA0182001896000012000000
B1733383811507S05959566WA0183001903000012000000
B1733423811580S05959540WA0183501909000012000000
B1733463811650S05959573WA0184401920000012000000
B1733503811674S05959649WA0185701932000012000000
B1733543811644S05959701WA0186801951000012000000
B1733583811605S05959687WA0188601966000012000000
B1734023811601S05959619WA0189601974000012000000
B1734063811653S05959561WA0190601986000012000000
B1734103811723S05959575WA0192102002000012000000
B1734143811755S05959647WA0192802003000012000000
B1734183811735S05959710WA0193602015000012000000
B1734223811693S05959710WA0194702023000012000000
B1734263811671S05959651WA0195402029000012000000
B1734303811706S05959580WA0195902036000012000000
B1734343811780S05959579WA0196902047000012000000
B1734383811832S05959639WA0197702058000012000000
B1734423811839S05959713WA0198302058000012000000
B1734463811797S05959747WA0198302057000012000000
B1734503811750S05959716WA0198602063000012000000
B1734543811732S05959645WA0198802062000012000000
B1734583811763S05959565WA0198402054000008000000
B1735023811840S05959530WA0198202053000008000000
B1735063811922S05959554WA0198502061000008000000
B1735103811970S05959630WA0199402076000008000000
B1735143811965S05959704WA0200502081000008000000
B1735183811921S05959732WA0201102085000012000000
B1735223811880S05959692WA0201402088000012000000
B1735263811883S05959613WA0201802089000012000000
B1735303811940S05959556WA0201902093000008000000
B1735343812021S05959545WA0202202096000008000000
B1735383812097S05959587WA0202302095000008000000
B1735423812147S05959667WA0202302094000008000000
B1735463812144S05959755WA0202502100000008000000
B1735503812106S05959813WA0203002107000008000000
B1735543812054S05959814WA0203902116000012000000
B1735583812035S05959751WA0204302121000012000000
B1736023812058S05959673WA0204502121000012000000
B1736063812099S05959591WA0204402111000012000000
B1736103812135S05959491WA0202902096000008000000
B1736143812160S05959379WA0202002087000008000000
B1736183812182S05959261WA0201402086000004000000
B1736223812204S05959140WA0201802088000008000000
B1736263812223S05959015WA0200702067000008000000
B1736303812247S05958884WA0198702051000012000000
B1736343812273S05958750WA0197602040000012000000
B1736383812299S05958613WA0196002024000008000000
B1736423812327S05958477WA0195202018000008000000
B1736463812352S05958343WA0195402025000008000000
B1736503812368S05958213WA0196202037000008000000
B1736543812376S05958093WA0197802063000008000000
B1736583812383S05957987WA0199302067000008000000
B1737023812391S05957875WA0198502044000008000000
B1737063812405S05957750WA0196502027000008000000
B1737103812425S05957620WA0195102016000004000000
B1737143812450S05957490WA0194502011000004000000
B1737183812476S05957359WA0193902002000004000000
B1737223812504S05957226WA0193101995000004000000
B1737263812537S05957092WA0192601986000004000000
B1737303812577S05956958WA0191601976000000000000
B1737343812621S05956826WA0190501959000000000000
B1737383812669S05956692WA0188801942000000000000
B1737423812719S05956555WA0186801920000000000000
B1737463812769S05956415WA0185301911000000000000
B1737503812820S05956278WA0184901910000004000000
B1737543812871S05956143WA0185201913000004000000
B1737583812912S05956005WA0185001910000004000000
B1738023812949S05955866WA0183901899000004000000
B1738063812984S05955726WA0183001891000004000000
B1738103813018S05955585WA0182601884000004000000
B1738143813053S05955444WA0181701871000004000000
B1738183813089S05955298WA0180401859000004000000
B1738223813132S05955154WA0179501852000004000000
B1738263813178S05955012WA0179101849000004000000
B1738303813221S05954873WA0178801847000004000000
B1738343813262S05954735WA0178501842000004000000
B1738383813305S05954601WA0178101837000004000000
B1738423813345S05954467WA0177701835000004000000
B1738463813384S05954340WA0177701840000004000000
B1738503813423S05954211WA0177201839000004000000
B1738543813461S05954081WA0176701833000004000000
B1738583813500S05953953WA0176001827000004000000
B1739023813539S05953827WA0176001827000004000000
B1739063813575S05953708WA0176601839000004000000
B1739103813613S05953593WA0176101839000004000000
B1739143813653S05953476WA0175601833000004000000
B1739183813695S05953357WA0175201827000004000000
B1739223813737S05953238WA0174701819000004000000
B1739263813781S05953118WA0173801809000004000000
B1739303813825S05952998WA0173101800000004000000
B1739343813872S05952879WA0172301788000004000000
B1739383813919S05952758WA0171401776000004000000
B1739423813967S05952637WA0170301767000004000000
B1739463814015S05952516WA0169301753000004000000
B1739503814063S05952394WA0168301747000008000000
B1739543814097S05952267WA0167301729000004000000
B1739583814118S05952134WA0166101718000004000000
B1740023814140S05952003WA0165301711000004000000
B1740063814170S05951873WA0164401701000000000000
B1740103814203S05951743WA0163501691000004000000
B1740143814241S05951615WA0162801683000004000000
B1740183814283S05951489WA0161901672000004000000
B1740223814326S05951364WA0160901665000004000000
B1740263814371S05951241WA0160601659000004000000
B1740303814417S05951117WA0160001649000004000000
B1740343814466S05950994WA0159101641000004000000
B1740383814515S05950870WA0158501635000004000000
B1740423814565S05950747WA0157701628000000000000
B1740463814614S05950625WA0157101623000000000000
B1740503814665S05950505WA0157001621000004000000
B1740543814714S05950387WA0156601614000004000000
B1740583814765S05950270WA0155801607000004000000
B1741023814814S05950154WA0155201601000000000000
B1741063814865S05950040WA0154901596000004000000
B1741103814918S05949925WA0154501593000004000000
B1741143814972S05949810WA0153801585000004000000
B1741183815024S05949690WA0153101577000004000000
B1741223815074S05949570WA0152601573000004000000
B1741263815129S05949452WA0151801562000004000000
B1741303815186S05949334WA0151001552000004000000
B1741343815247S05949218WA0150201544000004000000
B1741383815311S05949105WA0149701548000004000000
B1741423815377S05949006WA0151401573000004000000
B1741463815445S05948929WA0153801611000008000000
B1741503815451S05948863WA0158101648000008000000
B1741543815418S05948871WA0159301653000012000000
B1741583815427S05948949WA0159501657000012000000
B1742023815498S05948985WA0160301669000012000000
B1742063815557S05948939WA0161401681000012000000
B1742103815570S05948870WA0162001681000012000000
B1742143815546S05948812WA0162401688000012000000
B1742183815499S05948797WA0163101696000012000000
B1742223815468S05948849WA0164601719000012000000
B1742263815503S05948916WA0166301729000012000000
B1742303815580S05948923WA0166601730000012000000
B1742343815624S05948858WA0167201740000012000000
B1742383815610S05948793WA0168101752000012000000
B1742423815571S05948768WA0169701767000012000000
B1742463815532S05948801WA0171001780000012000000
B1742503815542S05948875WA0172101794000012000000
B1742543815609S05948910WA0173001795000012000000
B1742583815675S05948864WA0173101802000012000000
B1743023815700S05948786WA0174501818000012000000
B1743063815674S05948737WA0176101833000012000000
B1743103815635S05948768WA0177201843000012000000
B1743143815648S05948846WA0178401860000012000000
B1743183815718S05948883WA0179401864000012000000
B1743223815779S05948829WA0180201875000012000000
B1743263815769S05948760WA0181501891000012000000
B1743303815724S05948763WA0183101908000012000000
B1743343815719S05948832WA0184601925000012000000
B1743383815779S05948883WA0185701931000012000000
B1743423815849S05948845WA0186001934000012000000
B1743463815862S05948768WA0187401954000012000000
B1743503815831S05948728WA0189001970000012000000
B1743543815793S05948757WA0190201979000012000000
B1743583815806S05948829WA0190801989000012000000
B1744023815879S05948858WA0191701998000012000000
B1744063815939S05948806WA0192602002000012000000
B1744103815931S05948738WA0193502019000012000000
B1744143815889S05948727WA0195002031000012000000
B1744183815870S05948785WA0195602034000012000000
B1744223815921S05948849WA0196402045000012000000
B1744263815992S05948816WA0197602060000012000000
B1744303816001S05948745WA0199302074000012000000
B1744343815967S05948695WA0199902077000012000000
B1744383815923S05948719WA0200402087000012000000
B1744423815944S05948790WA0202002102000012000000
B1744463816017S05948802WA0202602103000012000000
B1744503816066S05948736WA0203102117000012000000
B1744543816062S05948663WA0204502130000012000000
B1744583816018S05948659WA0205302136000012000000
B1745023816012S05948727WA0206002146000012000000
B1745063816070S05948775WA0206902152000012000000
B1745103816136S05948732WA0207302158000012000000
B1745143816134S05948660WA0208502176000012000000
B1745183816092S05948654WA0209802181000012000000
B1745223816082S05948719WA0210002184000012000000
B1745263816140S05948764WA0210602192000012000000
B1745303816203S05948720WA0211102194000012000000
B1745343816199S05948645WA0211602205000012000000
B1745383816155S05948633WA0212502211000012000000
B1745423816133S05948690WA0213002215000012000000
B1745463816166S05948760WA0213702225000012000000
B1745503816239S05948759WA0214402229000012000000
B1745543816272S05948685WA0214602233000012000000
B1745583816239S05948637WA0215102242000012000000
B1746023816200S05948669WA0215702244000012000000
B1746063816218S05948744WA0215702244000012000000
B1746103816289S05948768WA0216102250000012000000
B1746143816344S05948712WA0216602255000012000000
B1746183816337S05948643WA0217302265000012000000
B1746223816298S05948612WA0218102267000012000000
B1746263816261S05948651WA0217502256000012000000
B1746303816299S05948727WA0216302247000008000000
B1746343816383S05948716WA0216102249000008000000
B1746383816443S05948640WA0216102244000008000000
B1746423816482S05948541WA0215702241000008000000
B1746463816516S05948437WA0214902232000008000000
B1746503816547S05948326WA0214002214000008000000
B1746543816576S05948209WA0212802211000012000000
B1746583816606S05948095WA0212202202000016000000
B1747023816643S05947983WA0211402192000012000000
B1747063816688S05947871WA0210502183000016000000
B1747103816732S05947759WA0209602173000016000000
B1747143816772S05947645WA0209602170000012000000
B1747183816811S05947529WA0209102166000008000000
B1747223816850S05947410WA0208802160000008000000
B1747263816889S05947289WA0208302155000008000000
B1747303816931S05947165WA0207802149000008000000
B1747343816970S05947039WA0206402134000004000000
B1747383817009S05946909WA0205402120000004000000
B1747423817046S05946775WA0204402112000004000000
B1747463817083S05946640WA0203702105000004000000
B1747503817121S05946505WA0203102097000000000000
B1747543817161S05946371WA0202102086000000000000
B1747583817200S05946235WA0201102074000000000000
B1748023817236S05946099WA0200102066000004000000
B1748063817271S05945963WA0199402059000004000000
B1748103817305S05945826WA0198502051000000000000
B1748143817339S05945687WA0198002043000004000000
B1748183817371S05945548WA0197002031000000000000
B1748223817404S05945409WA0196302029000004000000
B1748263817439S05945273WA0196002025000004000000
B1748303817472S05945136WA0195602017000000000000
B1748343817504S05944998WA0194802008000000000000
B1748383817535S05944859WA0194202004000004000000
B1748423817568S05944721WA0193501996000000000000
B1748463817598S05944582WA0192701989000004000000
B1748503817630S05944444WA0192301985000000000000
B1748543817667S05944305WA0191601978000004000000
B1748583817709S05944169WA0191001970000004000000
B1749023817759S05944034WA0190301963000004000000
B1749063817810S05943898WA0189701956000004000000
B1749103817858S05943765WA0188901949000000000000
B1749143817904S05943631WA0188301942000000000000
B1749183817947S05943494WA0187301928000000000000
B1749223817988S05943354WA0186001917000000000000
B1749263818025S05943213WA0185301911000000000000
B1749303818062S05943074WA0184601901000000000000
B1749343818103S05942935WA0183701893000000000000
B1749383818149S05942800WA0182801885000000000000
B1749423818198S05942666WA0181901876000000000000
B1749463818248S05942532WA0181501870000000000000
B1749503818301S05942401WA0180801861000000000000
B1749543818352S05942268WA0179801853000000000000
B1749583818396S05942133WA0179101845000004000000
B1750023818443S05941999WA0178601844000004000000
B1750063818489S05941870WA0178601844000004000000
B1750103818536S05941742WA0178101833000004000000
B1750143818588S05941613WA0177301829000004000000
B1750183818639S05941487WA0176901824000000000000
B1750223818691S05941361WA0176101813000000000000
B1750263818744S05941235WA0175501811000000000000
B1750303818796S05941111WA0175101805000004000000
B1750343818847S05940986WA0174601800000000000000
B1750383818896S05940863WA0174201798000004000000
B1750423818948S05940738WA0173301782000004000000
B1750463819000S05940609WA0172201775000004000000
B1750503819051S05940481WA0171401765000004000000
B1750543819099S05940353WA0170401759000004000000
B1750583819149S05940230WA0170101756000004000000
B1751023819207S05940112WA0169701751000000000000
B1751063819273S05939998WA0168901742000000000000
B1751103819336S05939881WA0168201734000000000000
B1751143819385S05939763WA0168101743000004000000
B1751183819433S05939650WA0169101762000008000000
B1751223819487S05939555WA0171101778000008000000
B1751263819540S05939465WA0170701759000012000000
B1751303819593S05939363WA0168901733000016000000
B1751343819635S05939247WA0166701717000016000000
B1751383819670S05939124WA0165501701000016000000
B1751423819702S05938996WA0164001686000016000000
B1751463819735S05938867WA0162101672000012000000
B1751503819765S05938739WA0161401659000012000000
B1751543819796S05938606WA0160301652000008000000
B1751583819827S05938477WA0160101654000008000000
B1752023819864S05938353WA0160101653000012000000
B1752063819904S05938230WA0160001648000008000000
B1752103819947S05938111WA0159001638000004000000
B1752143819987S05937990WA0158201631000004000000
B1752183820025S05937869WA0157601627000004000000
B1752223820061S05937749WA0157201624000004000000
B1752263820095S05937632WA0157001616000004000000
B1752303820126S05937513WA0155801603000004000000
B1752343820151S05937393WA0154601590000004000000
B1752383820170S05937272WA0153401582000008000000
B1752423820187S05937153WA0152801579000008000000
B1752463820207S05937033WA0152601575000008000000
B1752503820228S05936915WA0152301577000004000000
B1752543820247S05936798WA0153001593000008000000
B1752583820270S05936691WA0155201623000008000000
B1753023820272S05936602WA0157601641000008000000
B1753063820233S05936561WA0158701652000008000000
B1753103820194S05936591WA0159101646000012000000
B1753143820204S05936669WA0158701647000008000000
B1753183820274S05936717WA0158101649000004000000
B1753223820356S05936691WA0158401654000008000000
B1753263820410S05936616WA0159401660000008000000
B1753303820472S05936555WA0160001667000012000000
B1753343820546S05936569WA0160601672000012000000
B1753383820566S05936639WA0160801672000012000000
B1753423820524S05936663WA0161101676000012000000
B1753463820480S05936618WA0161201673000012000000
B1753503820456S05936530WA0160601657000012000000
B1753543820465S05936420WA0159101642000008000000
B1753583820493S05936303WA0157901628000004000000
B1754023820524S05936183WA0156801619000004000000
B1754063820559S05936062WA0156201615000004000000
B1754103820594S05935941WA0155601606000004000000
B1754143820629S05935819WA0155101605000000000000
B1754183820664S05935699WA0155101607000000000000
B1754223820693S05935580WA0154001598000000000000
B1754263820702S05935461WA0153601593000000000000
B1754303820690S05935348WA0153101589000000000000
B1754343820664S05935240WA0152401577000000000000
B1754383820629S05935134WA0151601567000000000000
B1754423820590S05935029WA0150801559000004000000
B1754463820550S05934923WA0149701548000004000000
B1754503820510S05934815WA0148901538000004000000
B1754543820472S05934707WA0148001528000004000000
B1754583820436S05934600WA0147001520000004000000
B1755023820400S05934492WA0146101508000004000000
B1755063820365S05934381WA0144701497000004000000
B1755103820329S05934272WA0144101489000000000000
B1755143820296S05934163WA0143301481000000000000
B1755183820265S05934054WA0142501472000004000000
B1755223820237S05933944WA0141801464000000000000
B1755263820208S05933834WA0140901450000004000000
B1755303820182S05933725WA0139701439000000000000
B1755343820157S05933615WA0138401425000000000000
B1755383820133S05933505WA0137201416000000000000
B1755423820109S05933392WA0136601413000000000000
B1755463820086S05933275WA0136701415000004000000
B1755503820065S05933159WA0137501435000008000000
B1755543820047S05933055WA0139901461000008000000
B1755583820029S05932956WA0140801458000008000000
B1756023820012S05932850WA0139501430000008000000
B1756063819984S05932735WA0136901406000012000000
B1756103819955S05932618WA0135201392000008000000
B1756143819929S05932499WA0134301384000004000000
B1756183819904S05932378WA0133301371000004000000
B1756223819880S05932257WA0132101360000004000000
B1756263819858S05932137WA0131801361000004000000
B1756303819841S05932018WA0132001363000004000000
B1756343819836S05931896WA0131901361000004000000
B1756383819839S05931776WA0132101370000008000000
B1756423819839S05931663WA0133201385000008000000
B1756463819843S05931571WA0136201429000008000000
B1756503819834S05931506WA0139101451000008000000
B1756543819797S05931483WA0140101454000008000000
B1756583819750S05931494WA0140301457000012000000
B1757023819715S05931552WA0141401474000012000000
B1757063819730S05931634WA0143201495000012000000
B1757103819793S05931671WA0145401516000012000000
B1757143819848S05931632WA0146901530000012000000
B1757183819841S05931574WA0148501547000012000000
B1757223819801S05931589WA0149601556000012000000
B1757263819802S05931667WA0150501565000012000000
B1757303819866S05931710WA0151701582000012000000
B1757343819927S05931673WA0153101595000012000000
B1757383819923S05931612WA0154301609000012000000
B1757423819880S05931624WA0155801627000012000000
B1757463819879S05931699WA0157401641000012000000
B1757503819940S05931753WA0158301645000012000000
B1757543820009S05931716WA0159201659000012000000
B1757583820021S05931650WA0161101683000012000000
B1758023819982S05931645WA0162401691000012000000
B1758063819969S05931719WA0163501707000012000000
B1758103820029S05931772WA0165101720000012000000
B1758143820092S05931733WA0166201731000012000000
B1758183820086S05931675WA0167701750000012000000
B1758223820048S05931689WA0168701757000012000000
B1758263820052S05931768WA0169801771000012000000
B1758303820121S05931812WA0170901778000012000000
B1758343820187S05931769WA0171601787000012000000
B1758383820199S05931701WA0172601797000012000000
B1758423820163S05931684WA0172601794000008000000
B1758463820138S05931751WA0172701798000008000000
B1758503820170S05931836WA0174201819000012000000
B1758543820246S05931847WA0175701834000012000000
B1758583820286S05931786WA0176401840000012000000
B1759023820264S05931743WA0176801841000012000000
B1759063820220S05931764WA0177101848000012000000
B1759103820199S05931831WA0178201863000012000000
B1759143820235S05931905WA0179401868000012000000
B1759183820311S05931918WA0179501861000008000000
B1759223820378S05931868WA0179501868000012000000
B1759263820374S05931803WA0180301879000012000000
B1759303820333S05931801WA0180601875000012000000
B1759343820311S05931872WA0180701885000012000000
B1759383820348S05931950WA0182001894000012000000
B1759423820425S05931970WA0182201895000012000000
B1759463820477S05931911WA0182801901000012000000
B1759503820459S05931847WA0182501893000012000000
B1759543820407S05931868WA0181801885000008000000
B1759583820399S05931968WA0181301881000012000000
B1800023820438S05932078WA0180901875000008000000
B1800063820484S05932191WA0180201864000008000000
B1800103820530S05932309WA0179401857000004000000
B1800143820566S05932432WA0178401841000008000000
B1800183820590S05932564WA0176601820000016000000
B1800223820611S05932700WA0174501801000012000000
B1800263820629S05932839WA0173801798000008000000
B1800303820649S05932972WA0173901799000008000000
B1800343820671S05933098WA0174901830000008000000
B1800383820694S05933209WA0177501848000012000000
B1800423820719S05933318WA0176901836000012000000
B1800463820749S05933441WA0175601825000008000000
B1800503820783S05933569WA0174401811000004000000
B1800543820818S05933696WA0174101813000004000000
B1800583820853S05933825WA0174101801000004000000
B1801023820888S05933953WA0173101797000008000000
B1801063820923S05934082WA0172701790000004000000
B1801103820958S05934210WA0171801782000004000000
B1801143820995S05934336WA0171401779000004000000
B1801183821034S05934459WA0170801769000004000000
B1801223821075S05934584WA0170101759000004000000
B1801263821117S05934709WA0169201753000000000000
B1801303821158S05934836WA0168601743000000000000
B1801343821199S05934964WA0167701735000004000000
B1801383821238S05935092WA0167101730000004000000
B1801423821275S05935218WA0166801728000000000000
B1801463821313S05935342WA0166701723000000000000
B1801503821352S05935467WA0165701710000004000000
B1801543821388S05935594WA0164301696000004000000
B1801583821426S05935723WA0163501690000004000000
B1802023821461S05935850WA0163101684000004015000
B1802063821494S05935976WA0162301675000004015000
B1802103821526S05936102WA0161001657000004000000
B1802143821550S05936232WA0160001654000004000000
B1802183821559S05936358WA0160001658000000000000
B1802223821554S05936478WA0160001655000000000000
B1802263821531S05936587WA0160201662000004000000
B1802303821508S05936689WA0161301678000008000000
B1802343821490S05936784WA0162801692000008000000
B1802383821466S05936871WA0163601700000012000000
B1802423821443S05936951WA0164701716000012000000
B1802463821416S05937025WA0165201710000012000000
B1802503821392S05937116WA0164001690000012000000
B1802543821388S05937227WA0162201673000008000000
B1802583821403S05937346WA0160801660000012000000
B1803023821429S05937466WA0159701651000012000000
B1803063821456S05937587WA0158901642000016000000
B1803103821481S05937707WA0158201636000008000000
B1803143821503S05937824WA0157701631000008000000
B1803183821522S05937942WA0156801618000004000000
B1803223821539S05938061WA0155801609000004000000
B1803263821556S05938184WA0154901602000000000000
B1803303821570S05938306WA0154401596000000000000
B1803343821585S05938429WA0153401586000000000000
B1803383821600S05938554WA0152701578000000000000
B1803423821619S05938680WA0152301574000000000000
B1803463821635S05938804WA0151901569000004000000
B1803503821647S05938927WA0151301562000000000000
B1803543821650S05939051WA0150601556000000000000
B1803583821642S05939172WA0150201551000000000000
B1804023821629S05939289WA0149801548000000000000
B1804063821615S05939406WA0149801550000004000000
B1804103821602S05939520WA0150101554000008000000
B1804143821590S05939632WA0150201549000004000000
B1804183821581S05939751WA0149201538000004000000
B1804223821573S05939874WA0148801538000004000000
B1804263821567S05939993WA0148701539000004000000
B1804303821563S05940110WA0149101549000004000000
B1804343821577S05940221WA0150701573000008000000
B1804383821612S05940317WA0152601586000008000000
B1804423821660S05940404WA0153601593000008000000
B1804463821708S05940498WA0153801592000008000000
B1804503821755S05940600WA0153501587000008000000
B1804543821794S05940712WA0153001580000008000000
B1804583821825S05940833WA0151901564000008000000
B1805023821850S05940959WA0150801555000004000000
B1805063821873S05941085WA0149901545000004000000
B1805103821898S05941214WA0148801533000004000000
B1805143821920S05941343WA0148001522000004000000
B1805183821942S05941470WA0147601529000004000000
B1805223821962S05941578WA0149901573000008000000
B1805263821984S05941672WA0152801586000008000000
B1805303822007S05941765WA0153301588000008000000
B1805343822025S05941864WA0153401588000012000000
B1805383822044S05941972WA0153101582000012000000
B1805423822063S05942089WA0152201566000008000000
B1805463822087S05942218WA0150201544000008000000
B1805503822115S05942355WA0148701524000004000000
B1805543822149S05942500WA0147201506000004000000
B1805583822187S05942648WA0145501493000004000000
B1806023822226S05942797WA0144601483000000000000
B1806063822267S05942940WA0144101483000004000000
B1806103822311S05943079WA0143701475000004015000
B1806143822352S05943217WA0142701468000004015000
B1806183822386S05943354WA0142101460000000015000
B1806223822418S05943489WA0141501456000004015000
B1806263822449S05943620WA0141401464000004000000
B1806303822480S05943742WA0142401470000008000000
B1806343822512S05943862WA0142401467000008000000
B1806383822538S05943983WA0141701453000004000000
B1806423822564S05944110WA0140001440000004000000
B1806463822587S05944239WA0139401432000004000000
B1806503822609S05944368WA0138701426000004000000
B1806543822627S05944496WA0138001418000000000000
B1806583822647S05944626WA0137101410000000000000
B1807023822669S05944756WA0136301402000004000000
B1807063822692S05944883WA0136101405000000000000
B1807103822714S05945003WA0136101402000004000000
B1807143822735S05945126WA0135401390000004000000
B1807183822751S05945249WA0134601387000004000000
B1807223822766S05945373WA0134901394000004000000
B1807263822779S05945488WA0135801410000008000000
B1807303822790S05945592WA0137001417000008000000
B1807343822798S05945700WA0136101392000004000000
B1807383822803S05945819WA0133801368000012000000
B1807423822809S05945947WA0131901356000008000000
B1807463822815S05946077WA0131701359000008000000
B1807503822824S05946198WA0132601375000008000000
B1807543822835S05946307WA0134001388000012000000
B1807583822850S05946409WA0134601388000008000000
B1808023822843S05946508WA0134101375000008000000
B1808063822825S05946609WA0132301355000012000000
B1808103822813S05946721WA0130601339000016000000
B1808143822821S05946840WA0129001323000020000000
B1808183822839S05946963WA0127801312000020000000
B1808223822857S05947086WA0126801304000012000000
B1808263822874S05947208WA0126101295000008000000
B1808303822887S05947332WA0125601296000004000000
B1808343822898S05947447WA0126401308000008000000
B1808383822893S05947546WA0128301335000008000000
B1808423822856S05947613WA0130401355000008000000
B1808463822813S05947588WA0132101366000008000000
B1808503822829S05947516WA0131101349000008000000
B1808543822900S05947480WA0129101327000004000000
B1808583822984S05947490WA0128301326000004000000
B1809023823060S05947532WA0129101342000008000000
B1809063823106S05947597WA0130701362000008000000
B1809103823099S05947662WA0132001373000012000000
B1809143823062S05947681WA0132601372000012000000
B1809183823038S05947626WA0132801379000012000000
B1809223823072S05947559WA0133801391000012000000
B1809263823137S05947558WA0134701398000012000000
B1809303823168S05947619WA0135301403000012000000
B1809343823140S05947662WA0135601404000012000000
B1809383823104S05947631WA0136601420000012000000
B1809423823119S05947566WA0137501423000012000000
B1809463823181S05947533WA0137901432000012000000
B1809503823233S05947568WA0139001439000012000000
B1809543823232S05947631WA0139201440000012000000
B1809583823189S05947644WA0139101441000012000000
B1810023823153S05947602WA0139801448000012000000
B1810063823169S05947523WA0140501456000012000000
B1810103823232S05947497WA0141601472000012000000
B1810143823263S05947554WA0142601476000012000000
B1810183823228S05947596WA0142601477000012000000
B1810223823195S05947550WA0143201484000012000000
B1810263823205S05947470WA0143201482000012000000
B1810303823257S05947414WA0143601489000012000000
B1810343823327S05947421WA0143801485000012000000
B1810383823385S05947479WA0144101495000012000000
B1810423823398S05947553WA0144701502000012000000
B1810463823358S05947588WA0145701511000012000000
B1810503823332S05947532WA0146601521000012000000
B1810543823375S05947475WA0147601534000012000000
B1810583823437S05947493WA0148301536000012000000
B1811023823453S05947562WA0148201534000012000000
B1811063823415S05947603WA0148901545000012000000
B1811103823372S05947583WA0149701551000012000000
B1811143823355S05947515WA0149901553000012000000
B1811183823392S05947442WA0150201561000012000000
B1811223823459S05947444WA0151401576000012000000
B1811263823485S05947506WA0152201578000012000000
B1811303823454S05947551WA0152301581000012000000
B1811343823415S05947518WA0152901587000012000000
B1811383823423S05947441WA0153101589000012000000
B1811423823484S05947402WA0153901603000012000000
B1811463823540S05947436WA0155101609000012000000
B1811503823543S05947505WA0154901605000012000000
B1811543823498S05947532WA0154901609000012000000
B1811583823470S05947476WA0155301611000012000000
B1812023823506S05947406WA0154901604000008000000
B1812063823582S05947405WA0154501600000008000000
B1812103823634S05947476WA0154101592000008000000
B1812143823654S05947575WA0153201582000008000000
B1812183823657S05947683WA0152501572000008000000
B1812223823660S05947798WA0151901563000004000000
B1812263823658S05947919WA0150701550000004000000
B1812303823652S05948042WA0149601537000004000000
B1812343823640S05948165WA0148301522000004000000
B1812383823627S05948295WA0146301500000000000000
B1812423823611S05948428WA0144701484000004000000
B1812463823592S05948560WA0143301473000004000000
B1812503823567S05948692WA0142401456000004000000
B1812543823543S05948825WA0140901445000004000000
B1812583823523S05948955WA0141001470000004000000
B1813023823514S05949067WA0145401527000008000000
B1813063823563S05949144WA0149701565000008000000
B1813103823636S05949128WA0152001584000008000000
B1813143823652S05949052WA0153301594000012000000
B1813183823608S05949026WA0154501608000012000000
B1813223823580S05949082WA0155901625000012000000
B1813263823621S05949148WA0157501635000012000000
B1813303823696S05949139WA0157701635000012000000
B1813343823722S05949056WA0158101644000012000000
B1813383823682S05949002WA0159501663000012000000
B1813423823635S05949019WA0161101677000012000000
B1813463823634S05949091WA0162801697000012000000
B1813503823692S05949134WA0164101705000012000000
B1813543823761S05949106WA0164501708000012000000
B1813583823790S05949023WA0164701707000012000000
B1814023823749S05948970WA0165501720000012000000
B1814063823710S05949009WA0167201738000012000000
B1814103823721S05949084WA0168301755000012000000
B1814143823787S05949113WA0169501766000012000000
B1814183823848S05949069WA0170401770000012000000
B1814223823858S05948987WA0170701775000012000000
B1814263823813S05948962WA0171801789000012000000
B1814303823784S05949013WA0173301804000012000000
B1814343823826S05949072WA0174601819000012000000
B1814383823897S05949057WA0176001833000012000000
B1814423823931S05948983WA0176601834000012000000
B1814463823901S05948922WA0177101844000012000000
B1814503823856S05948933WA0178301858000012000000
B1814543823843S05948996WA0179501871000012000000
B1814583823886S05949054WA0180601879000012000000
B1815023823959S05949059WA0181001884000012000000
B1815063824026S05949013WA0181401886000012000000
B1815103824048S05948928WA0181601894000012000000
B1815143824014S05948879WA0182601907000012000000
B1815183823978S05948907WA0184001917000012000000
B1815223823994S05948978WA0184801925000012000000
B1815263824066S05948996WA0185801936000012000000
B1815303824120S05948932WA0187001948000012000000
B1815343824109S05948857WA0187401947000012000000
B1815383824063S05948854WA0187901958000012000000
B1815423824051S05948920WA0188801966000012000000
B1815463824094S05948989WA0189701975000012000000
B1815503824173S05948989WA0190601987000012000000
B1815543824222S05948919WA0191401994000012000000
B1815583824216S05948841WA0191701992000012000000
B1816023824168S05948822WA0191501991000012000000
B1816063824135S05948876WA0192001997000012000000
B1816103824134S05948957WA0192602004000012000000
B1816143824193S05949009WA0193702021000012000000
B1816183824265S05948985WA0194702026000012000000
B1816223824297S05948905WA0194402016000012000000
