ACAM4AZ
HFDTE060125
HFFXA050
HFPLTPILOT:SEBASTIAN FULQUET       
HFGTYGLIDERTYPE:ASW-20      
HFGIDGLIDERID:zz          
HFDTM100GPSDATUM:
HFRFWFIRMWAREVERSION:F2.6
HFRHWHARDWAREVERSION:300 Series Version 2
HFFTYFRTYPE:CAMBRIDGE AERO INSTRUMENTS, 302+
HFGPS:GARMIN,LVS-25,12,18000
HFPRSPRESSALTSENSOR:INTERSEMA, MS5534-AP, 20000
I033638FXA3941ENL4247REX
LCAMSBVER:5FWVER:F26300
C060125155249060125000103
C0000000N00000000WTAKEOFF     
C3803868S06011189W005-LagdelCo
C3820047S05937826W014AeroSanCa
C3823163S06019366W028CPTres Ar
C3749283S06028817W081JuanEBarr
C3801767S06008133W001-OttoBall
C0000000N00000000WLANDING     
B1724273801985S06007811WA0021000214000000000000
B1724293801985S06007811WA0021000214000000000000
B1724313801985S06007811WA0021000214000000000000
B1724333801985S06007811WA0020900214000000000000
B1724353801985S06007809WA0021000214000000000000
B1724373801985S06007809WA0021000215000000000000
B1724393801985S06007809WA0021000215000000000000
B1724413801985S06007809WA0021000215000000000000
B1724433801985S06007809WA0021000215000000000000
B1724453801985S06007809WA0021000216000000000000
B1724473801985S06007809WA0021000216000000000000
B1724493801985S06007809WA0021000216000000000000
B1724513801985S06007809WA0021000216000000000000
B1724533801985S06007809WA0021000216000000000000
B1724553801982S06007812WA0021000217000000000000
B1724563801981S06007815WA0021000217000000000000
B1725003801969S06007829WA0020800216000000000000
B1725053801944S06007861WA0020500217000000000000
B1725093801920S06007899WA0020400217000000000000
B1725133801885S06007945WA0020400217000000000000
B1725173801847S06007997WA0020500219000000000000
B1725213801804S06008054WA0020800220000000000000
B1725253801760S06008117WA0021000224000000000000
B1725293801714S06008181WA0021600232000000000000
B1725333801669S06008241WA0022800246000000000000
B1725373801625S06008303WA0023800256000000000000
B1725413801582S06008368WA0024800262000000000000
B1725453801536S06008435WA0025300267000000000000
B1725493801491S06008506WA0025900276000000000000
B1725533801459S06008584WA0026900288000000000000
B1725573801433S06008666WA0028300297000000000000
B1726013801407S06008748WA0029300311000000000000
B1726053801378S06008826WA0030700324000000000000
B1726093801348S06008905WA0031800327000000000000
B1726133801314S06008986WA0032600336000000000000
B1726173801285S06009070WA0033900349000000000000
B1726213801281S06009163WA0035100366000000000000
B1726253801280S06009255WA0037000379000000000000
B1726293801264S06009337WA0037700389000000000000
B1726333801240S06009411WA0038600397000000000000
B1726373801212S06009482WA0039100401000000000000
B1726413801197S06009563WA0039800403000000015000
B1726453801210S06009654WA0040400416000000000000
B1726493801241S06009745WA0041300422000000000000
B1726533801268S06009837WA0042300434000000015000
B1726573801285S06009928WA0043500443000000015000
B1727013801296S06010018WA0044000448000000015000
B1727053801309S06010104WA0045000458000000000000
B1727093801318S06010199WA0045600464000000015000
B1727133801324S06010291WA0046600485000000000000
B1727173801331S06010382WA0048900504000000000000
B1727213801324S06010467WA0049400502000000000000
B1727253801300S06010542WA0049600507000000000000
B1727293801261S06010603WA0049800508000000000000
B1727333801209S06010647WA0050200512000000000000
B1727373801147S06010668WA0050900523000000000000
B1727413801086S06010662WA0051900533000000000000
B1727453801036S06010621WA0052900544000000000000
B1727493800995S06010565WA0053600556000000000000
B1727533800962S06010499WA0054400558000000000000
B1727573800928S06010431WA0054500559000000015000
B1728013800889S06010365WA0054900562000000015000
B1728053800838S06010317WA0054600557000000015000
B1728093800782S06010277WA0054800561000000015000
B1728133800724S06010253WA0055100565000000015000
B1728173800665S06010235WA0055900578000000015000
B1728213800607S06010222WA0056700585000000000000
B1728253800551S06010217WA0057200589000000000000
B1728293800494S06010218WA0057500594000000000000
B1728333800435S06010230WA0057900598000000000000
B1728373800377S06010225WA0058800610000000000000
B1728413800319S06010203WA0059700618000000000000
B1728453800265S06010171WA0060800634000000015000
B1728493800214S06010147WA0062900657000000015000
B1728533800166S06010131WA0064800675000000000000
B1728573800136S06010175WA0065700678000000000000
B1729013800165S06010247WA0065500672000000015000
B1729053800237S06010264WA0065100668000000015000
B1729093800295S06010213WA0064700663000000000000
B1729133800315S06010139WA0064400664000000000000
B1729173800319S06010067WA0064700671000000000000
B1729213800315S06010002WA0065500676000000000000
B1729253800289S06009954WA0065800678000000000000
B1729293800245S06009960WA0066000680000000015000
B1729333800228S06010023WA0066500688000000000000
B1729373800267S06010083WA0067100694000000000000
B1729413800334S06010083WA0067300694000000015000
B1729453800380S06010027WA0067400696000000000000
B1729493800390S06009957WA0067700702000000000000
B1729533800358S06009913WA0068300709000000000000
B1729573800319S06009935WA0068900713000000000000
B1730013800326S06010001WA0068900715000000000000
B1730053800383S06010039WA0069700724000000000000
B1730093800445S06010021WA0070500732000000000000
B1730133800481S06009962WA0070700730000000000000
B1730173800468S06009901WA0070800732000000000000
B1730213800423S06009893WA0071000738000000000000
B1730253800406S06009950WA0070900734000000000000
B1730293800455S06010004WA0070700731000000000000
B1730333800521S06009988WA0070700732000000000000
B1730373800573S06009935WA0070900736000000000000
B1730413800613S06009876WA0071600742000000000000
B1730453800640S06009809WA0072300748000000000000
B1730493800629S06009744WA0073000754000000000000
B1730533800590S06009731WA0073200756000000000000
B1730573800574S06009785WA0073200753000000015000
B1731013800613S06009846WA0072900749000000000000
B1731053800679S06009885WA0073200757000000000000
B1731093800750S06009887WA0073900763000000015000
B1731133800789S06009828WA0074400771000000000000
B1731173800767S06009776WA0075500780000000000000
B1731213800728S06009806WA0075800784000000015000
B1731253800747S06009879WA0076900798000000000000
B1731293800812S06009902WA0077600805000000000000
B1731333800861S06009856WA0078100809000000015000
B1731373800855S06009794WA0078500818000000015000
B1731413800816S06009798WA0079600831000000000000
B1731453800808S06009861WA0080600838000000000000
B1731493800856S06009917WA0080900840000000000000
B1731533800923S06009909WA0081500847000000000000
B1731573800962S06009849WA0081700846000000000000
B1732013800956S06009784WA0082200855000000000000
B1732053800925S06009757WA0082800863000000000000
B1732093800890S06009783WA0082800860000000000000
B1732133800877S06009848WA0083700872000000000000
B1732173800911S06009915WA0084500881000000000000
B1732213800976S06009944WA0085200890000000000000
B1732253801038S06009921WA0086000894000000000000
B1732293801069S06009856WA0085800888000000000000
B1732333801053S06009793WA0085900896000000000000
B1732373801016S06009771WA0087000907000000000000
B1732413800985S06009805WA0087700915000000000000
B1732453800995S06009872WA0089000928000000000000
B1732493801047S06009918WA0090000937000000000000
B1732533801111S06009905WA0090800946000000000000
B1732573801142S06009846WA0091300949000000000000
B1733013801125S06009794WA0091600955000000000000
B1733053801088S06009794WA0092300961000000000000
B1733093801056S06009832WA0093100972000000000000
B1733133801055S06009898WA0094200979000000000000
B1733173801099S06009954WA0094400980000000000000
B1733213801166S06009954WA0095000989000000000000
B1733253801196S06009892WA0095500990000000000000
B1733293801167S06009843WA0095700992000000000000
B1733333801125S06009865WA0096100999000000000000
B1733373801129S06009935WA0096500999000000000000
B1733413801193S06009969WA0096701003000000000000
B1733453801255S06009936WA0097401013000000000000
B1733493801274S06009871WA0097901018000000000000
B1733533801241S06009832WA0098201020000000000000
B1733573801209S06009863WA0098901029000000000000
B1734013801224S06009931WA0099501030000000000000
B1734053801289S06009956WA0099501033000000000000
B1734093801336S06009904WA0100201044000000000000
B1734133801326S06009845WA0100901044000000000000
B1734173801285S06009845WA0101201050000000000000
B1734213801272S06009908WA0101501054000000000000
B1734253801314S06009970WA0101701054000000000000
B1734293801384S06009973WA0102401065000000000000
B1734333801424S06009915WA0103301072000000000000
B1734373801413S06009857WA0103401070000000000000
B1734413801370S06009859WA0103201073000000000000
B1734453801357S06009924WA0103801083000000000000
B1734493801391S06009988WA0104601089000000000000
B1734533801461S06010002WA0104801089000000000000
B1734573801518S06009958WA0105301095000000000000
B1735013801527S06009889WA0105701095000000000000
B1735053801493S06009853WA0105501096000000000000
B1735093801456S06009879WA0105901101000000000000
B1735133801446S06009947WA0106501106000000000000
B1735173801484S06010014WA0106701108000000000000
B1735213801554S06010027WA0107401118000000000000
B1735253801605S06009982WA0108201124000000000000
B1735293801612S06009915WA0107901119000000000000
B1735333801582S06009863WA0107401107000000000000
B1735373801537S06009806WA0106101097000000000000
B1735413801489S06009741WA0105701091000000000000
B1735453801444S06009670WA0104801082000000000000
B1735493801401S06009590WA0104001073000000000000
B1735533801359S06009507WA0103401065000000000000
B1735573801320S06009423WA0102601059000000000000
B1736013801284S06009338WA0102001052000000000000
B1736053801249S06009254WA0101501049000000000000
B1736093801216S06009169WA0101601053000000000000
B1736133801188S06009087WA0101901056000000000000
B1736173801167S06009003WA0102501064000000000000
B1736213801158S06008916WA0103401072000000000000
B1736253801146S06008831WA0103901078000000000000
B1736293801112S06008774WA0105101095000000000000
B1736333801071S06008774WA0106501107000000000000
B1736373801049S06008821WA0107001110000000000000
B1736413801069S06008884WA0107301113000000000000
B1736453801129S06008917WA0107501112000000000000
B1736493801196S06008888WA0107501114000000000000
B1736533801233S06008818WA0107601114000000000000
B1736573801254S06008736WA0108001120000000000000
B1737013801244S06008667WA0108401128000000000000
B1737053801207S06008647WA0109001128000000000000
B1737093801163S06008669WA0107901109000000000000
B1737133801115S06008709WA0106901104000000000000
B1737173801067S06008756WA0106701108000000000000
B1737213801020S06008803WA0107601120000000000000
B1737253800972S06008838WA0109101135000000000000
B1737293800950S06008900WA0110601151000000000000
B1737333800984S06008962WA0111801164000000000000
B1737373801051S06008968WA0112901175000000000000
B1737413801088S06008904WA0113701185000000000000
B1737453801066S06008848WA0114701195000000000000
B1737493801027S06008860WA0115501202000000000000
B1737533801024S06008918WA0116401213000000000000
B1737573801059S06008975WA0117201215000000000000
B1738013801128S06009001WA0117301219000000000000
B1738053801194S06008978WA0118501234000000000000
B1738093801224S06008910WA0119501242000000000000
B1738133801201S06008853WA0120101249000000000000
B1738173801157S06008861WA0121301264000000000000
B1738213801158S06008922WA0122501275000000000000
B1738253801216S06008961WA0123101279000000000000
B1738293801276S06008923WA0124401298000000000000
B1738333801289S06008853WA0125901310000000000000
B1738373801259S06008804WA0126601318000000000000
B1738413801220S06008808WA0127801333000000000000
B1738453801207S06008857WA0128701337000000000000
B1738493801236S06008918WA0129101344000000000000
B1738533801300S06008944WA0129601345000000000000
B1738573801371S06008921WA0130201356000000000000
B1739013801415S06008857WA0131401365000000000000
B1739053801411S06008787WA0132101372000000000000
B1739093801368S06008766WA0132801380000000000000
B1739133801332S06008803WA0133701391000000000000
B1739173801340S06008869WA0134501400000000000000
B1739213801405S06008903WA0134901403000000000000
B1739253801463S06008852WA0135701413000000000000
B1739293801452S06008778WA0136501422000000000000
B1739333801406S06008791WA0137901440000000000000
B1739373801419S06008857WA0139301452000000000000
B1739413801484S06008878WA0140101459000000000000
B1739453801535S06008819WA0141001468000000000000
B1739493801536S06008741WA0141901478000000000000
B1739533801495S06008715WA0143001490000000000000
B1739573801474S06008766WA0144201500000000000000
B1740013801519S06008819WA0144801505000000000000
B1740053801587S06008793WA0145901520000000000000
B1740093801612S06008715WA0146801527000000000000
B1740133801586S06008658WA0147501539000000000000
B1740173801544S06008657WA0148701550000000000000
B1740213801527S06008708WA0149601556000000000000
B1740253801560S06008771WA0149901559000000000000
B1740293801628S06008793WA0150701571000000000000
B1740333801693S06008752WA0151901579000000000000
B1740373801713S06008673WA0152601589000000000000
B1740413801693S06008608WA0153901600000000000000
B1740453801654S06008595WA0154901609000000000000
B1740493801635S06008645WA0155201610000000000000
B1740533801648S06008713WA0155501618000000000000
B1740573801705S06008758WA0156401629000000000000
B1741013801774S06008739WA0157401638000000000000
B1741053801800S06008660WA0157701639000000000000
B1741093801769S06008604WA0158201643000000000000
B1741133801717S06008608WA0158701651000000000000
B1741173801691S06008662WA0159501662000000000000
B1741213801727S06008721WA0161601685000000000000
B1741253801794S06008710WA0162601688000000000000
B1741293801825S06008631WA0162601690000000000000
B1741333801792S06008567WA0163501701000000000000
B1741373801743S06008563WA0164301710000000000000
B1741413801723S06008619WA0165301722000000000000
B1741453801752S06008683WA0166501731000000000000
B1741493801821S06008697WA0167201736000000000000
B1741533801885S06008645WA0167601740000000000000
B1741573801890S06008561WA0168101748000000000000
B1742013801844S06008528WA0168901756000000000000
B1742053801813S06008574WA0169901769000000000000
B1742093801849S06008627WA0171401784000000000000
B1742133801918S06008605WA0172001789000000000000
B1742173801940S06008526WA0173201804000000000000
B1742213801909S06008468WA0173801805000000000000
B1742253801859S06008458WA0174101810000000000000
B1742293801823S06008504WA0174701819000000000000
B1742333801833S06008572WA0175001819000000000000
B1742373801883S06008622WA0175201824000000000000
B1742413801951S06008602WA0176201840000000000000
B1742453801976S06008530WA0177601850000000000000
B1742493801944S06008472WA0178201853000000000000
B1742533801901S06008493WA0178901862000000000000
B1742573801916S06008554WA0179401860000000000000
B1743013801981S06008571WA0179401868000000000000
B1743053802035S06008515WA0180601881000000000000
B1743093802050S06008432WA0181301886000000000000
B1743133802016S06008374WA0181801893000000000000
B1743173801969S06008385WA0182701900000000000000
B1743213801953S06008441WA0183001899000000000000
B1743253801978S06008504WA0182801897000000000000
B1743293802038S06008533WA0182901902000000000000
B1743333802103S06008506WA0183801913000000000000
B1743373802141S06008433WA0184501917000000000000
B1743413802141S06008350WA0184701920000000000000
B1743453802107S06008294WA0185301927000000000000
B1743493802063S06008289WA0186201933000000000000
B1743533802043S06008338WA0186001929000000000000
B1743573802065S06008401WA0185501922000000000000
B1744013802120S06008444WA0185401930000000000000
B1744053802185S06008431WA0186701944000000000000
B1744093802217S06008359WA0187401945000000000000
B1744133802193S06008292WA0187301946000000000000
B1744173802146S06008286WA0187901955000000000000
B1744213802115S06008324WA0188601957000000000000
B1744253802086S06008375WA0187501939000000000000
B1744293802044S06008432WA0185601920000000000000
B1744333801998S06008498WA0183801903000000000000
B1744373801947S06008567WA0182801892000000000000
B1744413801894S06008640WA0182201889000000000000
B1744453801840S06008709WA0182201890000000000000
B1744493801788S06008775WA0182401891000000000000
B1744533801734S06008832WA0182601895000000000000
B1744573801677S06008879WA0182601889000000000000
B1745013801619S06008931WA0181601883000000000000
B1745053801566S06008985WA0181801885000000000000
B1745093801513S06009034WA0181801884000000000000
B1745133801459S06009083WA0181501882000000000000
B1745173801410S06009133WA0181301881000000000000
B1745213801367S06009190WA0181001878000000000000
B1745253801333S06009256WA0181001878000000000000
B1745293801319S06009333WA0180901876000000000000
B1745333801328S06009415WA0180601874000000000000
B1745373801346S06009501WA0179801860000000000000
B1745413801349S06009597WA0178401844000000000000
B1745453801332S06009693WA0177601846000000000000
B1745493801307S06009781WA0178001843000000000000
B1745533801271S06009862WA0177301830000000000000
B1745573801222S06009935WA0176201823000000000000
B1746013801166S06009999WA0175601816000000000000
B1746053801107S06010061WA0174701808000000000000
B1746093801046S06010118WA0174301805000000000000
B1746133800986S06010175WA0173901801000000000000
B1746173800925S06010231WA0173101792000000000000
B1746213800861S06010287WA0172301784000000000000
B1746253800798S06010342WA0171901780000000000000
B1746293800737S06010399WA0171801780000000000000
B1746333800673S06010450WA0171601781000000000000
B1746373800609S06010496WA0171901785000000000000
B1746413800544S06010538WA0172401788000000000000
B1746453800479S06010576WA0172501788000000000000
B1746493800416S06010612WA0172601790000000000000
B1746533800356S06010652WA0172601789000000000000
B1746573800297S06010689WA0172301785000000000000
B1747013800232S06010704WA0171601776000000000000
B1747053800163S06010697WA0170601766000000000000
B1747093800097S06010663WA0170001760000000000000
B1747133800033S06010615WA0169501757000000000000
B1747173759975S06010564WA0169201758000000000000
B1747213759922S06010499WA0169601766000000000000
B1747253759879S06010424WA0170601775000000000000
B1747293759844S06010348WA0171901786000000000000
B1747333759798S06010311WA0173101803000000000000
B1747373759764S06010339WA0174601815000000000000
B1747413759777S06010402WA0174801815000000000000
B1747453759838S06010443WA0174801815000000000000
B1747493759912S06010417WA0175101820000000000000
B1747533759962S06010348WA0175301825000000000000
B1747573759964S06010265WA0175901829000000000000
B1748013759936S06010205WA0176401831000000000000
B1748053759894S06010212WA0176801839000000000000
B1748093759889S06010269WA0177301838000000000000
B1748133759937S06010326WA0176801836000000000000
B1748173800014S06010325WA0177001839000000000000
B1748213800071S06010256WA0177301841000000000000
B1748253800084S06010169WA0177301842000000000000
B1748293800052S06010112WA0177601843000000000000
B1748333800005S06010104WA0177701845000000000000
B1748373759967S06010134WA0177601838000000000000
B1748413759946S06010197WA0177301841000000000000
B1748453759970S06010272WA0178301858000000000000
B1748493800041S06010283WA0179701867000000000000
B1748533800096S06010222WA0179801863000000000000
B1748573800104S06010138WA0179501860000000000000
B1749013800072S06010079WA0179201855000000000000
B1749053800023S06010062WA0179301863000000000000
B1749093759980S06010083WA0180301868000000000000
B1749133759937S06010114WA0180001866000000000000
B1749173759901S06010166WA0180301872000000000000
B1749213759903S06010247WA0181201886000000000000
B1749253759961S06010294WA0182901903000000000000
B1749293800028S06010266WA0183901909000000000000
B1749333800062S06010188WA0184001908000000000000
B1749373800049S06010106WA0184401915000000000000
B1749413800006S06010067WA0185401928000000000000
B1749453759963S06010083WA0186701937000000000000
B1749493759949S06010138WA0186601934000000000000
B1749533759975S06010204WA0186701938000000000000
B1749573800037S06010240WA0187001940000000000000
B1750013800109S06010217WA0187301944000000000000
B1750053800157S06010148WA0187401942000000000000
B1750093800169S06010058WA0187001937000000000000
B1750133800146S06009979WA0187201943000000000000
B1750173800100S06009944WA0188101953000000000000
B1750213800058S06009970WA0188501953000000000000
B1750253800055S06010032WA0187801943000000000000
B1750293800093S06010099WA0187401944000000000000
B1750333800162S06010127WA0187701948000000000000
B1750373800231S06010084WA0187801946000000000000
B1750413800256S06009997WA0187801950000000000000
B1750453800231S06009927WA0188101950000000000000
B1750493800183S06009909WA0188501958000000000000
B1750533800143S06009944WA0188601947000000000000
B1750573800102S06009997WA0187301938000000000000
B1751013800062S06010056WA0187101935000000000000
B1751053800007S06010104WA0186601935000000000000
B1751093759979S06010161WA0188801965000000000000
B1751133759997S06010222WA0189501955000000000000
B1751173800005S06010300WA0186201919000000000000
B1751213759980S06010383WA0184301906000000000000
B1751253759929S06010456WA0183501900000000000000
B1751293759867S06010516WA0183401901000000000000
B1751333759799S06010561WA0183501898000000000000
B1751373759725S06010598WA0183201898000000000000
B1751413759652S06010628WA0183601901000000000000
B1751453759581S06010654WA0183801905000000000000
B1751493759511S06010678WA0183801903000000000000
B1751533759438S06010703WA0183801904000000000000
B1751573759368S06010729WA0184101907000000000000
B1752013759300S06010756WA0184501915000000000000
B1752053759236S06010785WA0184801914000000000000
B1752093759170S06010815WA0184401903000000000000
B1752133759097S06010844WA0182801884000000000000
B1752173759018S06010872WA0181201872000000000000
B1752213758940S06010905WA0180501868000000000000
B1752253758865S06010938WA0180201863000000000000
B1752293758789S06010970WA0179301854000000000000
B1752333758714S06011001WA0178501846000000000000
B1752373758640S06011037WA0177601837000000000000
B1752413758566S06011070WA0176901831000000000000
B1752453758493S06011098WA0177101840000000000000
B1752493758425S06011124WA0178101843000000000000
B1752533758358S06011145WA0178101840000000000000
B1752573758294S06011166WA0179701865000000000000
B1753013758238S06011176WA0182001886000000000000
B1753053758189S06011197WA0183001886000000000000
B1753093758155S06011252WA0183301889000000000000
B1753133758121S06011312WA0183001888000000000000
B1753173758082S06011370WA0183001893000000000000
B1753213758043S06011421WA0183701900000000000000
B1753253758027S06011487WA0184001903000000000000
B1753293758063S06011539WA0184801914000000000000
B1753333758125S06011542WA0184801904000000000000
B1753373758186S06011481WA0183201891000000000000
B1753413758235S06011392WA0183101906000000000000
B1753453758258S06011299WA0185701927000000000000
B1753493758228S06011234WA0186701936000000000000
B1753533758182S06011239WA0187101936000000000000
B1753573758173S06011299WA0187101935000000000000
B1754013758207S06011360WA0187001937000000000000
B1754053758277S06011375WA0187501946000000000000
B1754093758334S06011317WA0188701961000000000000
B1754133758330S06011239WA0190301975000000000000
B1754173758286S06011217WA0190601974000000000000
B1754213758255S06011258WA0190701978000000000000
B1754253758268S06011319WA0191201982000000000000
B1754293758324S06011354WA0191701984000000000000
B1754333758388S06011322WA0192101996000000000000
B1754373758414S06011247WA0193402009000000000000
B1754413758390S06011183WA0193702005000000000000
B1754453758341S06011182WA0193702008000000000000
B1754493758321S06011236WA0194202013000000000000
B1754533758355S06011295WA0194202011000000000000
B1754573758423S06011313WA0194102008000000000000
B1755013758488S06011271WA0193702005000000000000
B1755053758520S06011193WA0194302017000000000000
B1755093758490S06011143WA0195402027000000000000
B1755133758454S06011174WA0195702026000000000000
B1755173758468S06011243WA0195402023000000000000
B1755213758533S06011279WA0195402022000000000000
B1755253758602S06011241WA0195702036000000000000
B1755293758641S06011170WA0196702040000000000000
B1755333758627S06011097WA0196802041000000000000
B1755373758580S06011072WA0197302047000000000000
B1755413758540S06011110WA0197802050000000000000
B1755453758549S06011182WA0198102051000000000000
B1755493758606S06011231WA0198102054000000000000
B1755533758680S06011221WA0198702062000000000000
B1755573758728S06011157WA0199402067000000000000
B1756013758727S06011080WA0199502066000000000000
B1756053758688S06011029WA0199702070000000000000
B1756093758637S06011024WA0200102075000000000000
B1756133758607S06011076WA0200802085000000000000
B1756173758620S06011148WA0201102078000000000000
B1756213758685S06011187WA0200002071000000000000
B1756253758759S06011152WA0200602086000000000000
B1756293758785S06011070WA0201902095000000000000
B1756333758753S06011002WA0201902087000000000000
B1756373758688S06010989WA0201402088000000000000
B1756413758628S06011023WA0202202093000000000000
B1756453758584S06011084WA0201902088000000000000
B1756493758555S06011158WA0201302078000000000000
B1756533758523S06011231WA0200602076000000000000
B1756573758484S06011289WA0200902082000000000000
B1757013758445S06011338WA0201302081000000000000
B1757053758395S06011382WA0200202064000000000000
B1757093758334S06011416WA0199102057000000000000
B1757133758272S06011448WA0198802059000000000000
B1757173758212S06011474WA0198802053000000000000
B1757213758146S06011495WA0197302036000000000000
B1757253758078S06011522WA0196502031000000000000
B1757293758012S06011555WA0196402034000000000000
B1757333757949S06011586WA0197102041000000000000
B1757373757891S06011625WA0197202042000000000000
B1757413757836S06011663WA0197602047000000000000
B1757453757792S06011708WA0197802046000000000000
B1757493757766S06011768WA0197402040000000000000
B1757533757743S06011833WA0196702032000000000000
B1757573757721S06011897WA0196102028000000000000
B1758013757689S06011956WA0195102013000000000000
B1758053757643S06012003WA0194102000000000000000
B1758093757583S06012033WA0192801988000000000000
B1758133757515S06012049WA0192101985000000000000
B1758173757449S06012059WA0191701980000000000000
B1758213757383S06012067WA0191301977000000000000
B1758253757318S06012075WA0191201977000000000000
B1758293757253S06012082WA0191001974000000000000
B1758333757186S06012089WA0190501969000000000000
B1758373757121S06012094WA0190501971000000000000
B1758413757060S06012102WA0190601973000000000000
B1758453756998S06012111WA0190401967000000000000
B1758493756937S06012120WA0189901967000000000000
B1758533756878S06012131WA0189801963000000000000
B1758573756817S06012144WA0189101954000000000000
B1759013756756S06012157WA0188501950000000000000
B1759053756694S06012167WA0188201945000000000000
B1759093756633S06012173WA0187601940000000000000
B1759133756571S06012188WA0187001934000000000000
B1759173756510S06012211WA0186201926000000000000
B1759213756448S06012238WA0185601917000000000000
B1759253756383S06012268WA0185101914000000000000
B1759293756317S06012296WA0184901912000000000000
B1759333756249S06012316WA0184801912000000000000
B1759373756184S06012341WA0184701906000000000000
B1759413756120S06012368WA0184001903000000000000
B1759453756057S06012391WA0183701901000000000000
B1759493755993S06012413WA0183601902000000000000
B1759533755929S06012433WA0183701903000000000000
B1759573755867S06012449WA0184201911000000000000
B1800013755815S06012471WA0185301919000000000000
B1800053755791S06012527WA0185601922000000000000
B1800093755812S06012591WA0185501915000000000000
B1800133755867S06012640WA0184101893000000000000
B1800173755941S06012683WA0181601871000000000000
B1800213756018S06012731WA0180101860000000000000
B1800253756092S06012775WA0179901864000000000000
B1800293756159S06012823WA0180401870000000000000
B1800333756222S06012877WA0180801873000000000000
B1800373756295S06012907WA0181401879000000000000
B1800413756357S06012864WA0182001889000000000000
B1800453756373S06012790WA0182501889000000000000
B1800493756353S06012725WA0182301888000000000000
B1800533756318S06012680WA0182501891000000000000
B1800573756274S06012669WA0182501887000000000000
B1801013756232S06012695WA0182101883000000000000
B1801053756204S06012748WA0181801882000000000000
B1801093756187S06012814WA0181701878000000000000
B1801133756174S06012881WA0181501878000000000000
B1801173756165S06012947WA0181001873000000000000
B1801213756168S06013017WA0180801870000000000000
B1801253756181S06013087WA0180401863000000000000
B1801293756198S06013156WA0180101864000000000000
B1801333756211S06013221WA0180201866000000000000
B1801373756227S06013286WA0180001861000000000000
B1801413756244S06013354WA0179601856000000000000
B1801453756270S06013420WA0179201853000000000000
B1801493756324S06013467WA0178801848000000000000
B1801533756397S06013463WA0178301844000000000000
B1801573756453S06013402WA0177801836000000000000
B1802013756471S06013312WA0177001824000000000000
B1802053756471S06013220WA0176001815000000000000
B1802093756470S06013124WA0175401812000000000000
B1802133756470S06013029WA0175301811000000000000
B1802173756474S06012937WA0174901809000000000000
B1802213756483S06012847WA0174601803000000000000
B1802253756493S06012757WA0174101801000000000000
B1802293756503S06012671WA0174401804000000000000
B1802333756517S06012589WA0174301801000000000000
B1802373756534S06012511WA0174001794000000000000
B1802413756551S06012431WA0173201789000000000000
B1802453756542S06012357WA0172701782000000000000
B1802493756506S06012301WA0172001775000000000000
B1802533756469S06012249WA0171401772000000000000
B1802573756434S06012194WA0171101769000000000000
B1803013756405S06012131WA0170401754000000000000
B1803053756402S06012038WA0168701736000000000000
B1803093756440S06011949WA0167901733000000000000
B1803133756513S06011902WA0167701731000000000000
B1803173756595S06011894WA0167701730000000000000
B1803213756677S06011899WA0167201721000000000000
B1803253756759S06011911WA0166501716000000000000
B1803293756844S06011924WA0165701711000000000000
B1803333756934S06011936WA0165301706000000000000
B1803373757025S06011947WA0165101707000000000000
B1803413757112S06011959WA0165601717000000000000
B1803453757192S06011971WA0166301720000000000000
B1803493757268S06011984WA0166401722000000000000
B1803533757341S06011999WA0166201716000000000000
B1803573757414S06012017WA0165601710000000000000
B1804013757487S06012041WA0165201708000000000000
B1804053757559S06012062WA0165401709000000000000
B1804093757634S06012080WA0165301710000000000000
B1804133757705S06012095WA0165601713000000000000
B1804173757773S06012112WA0165501711000000000000
B1804213757842S06012131WA0165301706000000000000
B1804253757913S06012144WA0164801701000000000000
B1804293757986S06012146WA0164301695000000000000
B1804333758057S06012151WA0163801694000000000000
B1804373758126S06012144WA0164201703000000000000
B1804413758180S06012095WA0165201715000000000000
B1804453758202S06012023WA0166201724000000000000
B1804493758177S06011959WA0166901731000000000000
B1804533758133S06011968WA0168201745000000000000
B1804573758133S06012029WA0168901746000000000000
B1805013758186S06012067WA0169101751000000000000
B1805053758248S06012036WA0169701759000000000000
B1805093758274S06011960WA0170401769000000000000
B1805133758255S06011891WA0171201779000000000000
B1805173758212S06011885WA0172301789000000000000
B1805213758193S06011941WA0173101797000000000000
B1805253758216S06012006WA0173501797000000000000
B1805293758281S06012029WA0174101807000000000000
B1805333758341S06011986WA0175001817000000000000
B1805373758355S06011906WA0176401831000000000000
B1805413758320S06011852WA0177501841000000000000
B1805453758276S06011865WA0178701856000000000000
B1805493758263S06011924WA0179301858000000000000
B1805533758290S06011991WA0179101858000000000000
B1805573758346S06012030WA0179901868000000000000
B1806013758415S06012017WA0180601874000000000000
B1806053758460S06011951WA0181001875000000000000
B1806093758462S06011867WA0181201879000000000000
B1806133758428S06011798WA0181901882000000000000
B1806173758372S06011782WA0182501893000000000000
B1806213758329S06011822WA0183401903000000000000
B1806253758323S06011893WA0183501897000000000000
B1806293758364S06011955WA0183101895000000000000
B1806333758434S06011962WA0183501901000000000000
B1806373758493S06011910WA0183801908000000000000
B1806413758528S06011835WA0184801916000000000000
B1806453758523S06011757WA0185101916000000000000
B1806493758482S06011702WA0185201921000000000000
B1806533758432S06011709WA0186001932000000000000
B1806573758415S06011772WA0186901935000000000000
B1807013758451S06011830WA0186301924000000000000
B1807053758524S06011826WA0185701926000000000000
B1807093758575S06011761WA0186601932000000000000
B1807133758596S06011674WA0186901937000000000000
B1807173758571S06011601WA0187301945000000000000
B1807213758521S06011592WA0187901949000000000000
B1807253758497S06011650WA0188301950000000000000
B1807293758524S06011718WA0188401952000000000000
B1807333758592S06011738WA0188801958000000000000
B1807373758649S06011683WA0189401965000000000000
B1807413758667S06011596WA0189801969000000000000
B1807453758645S06011520WA0190401975000000000000
B1807493758596S06011496WA0190901980000000000000
B1807533758560S06011540WA0191001979000000000000
B1807573758568S06011614WA0190901977000000000000
B1808013758619S06011672WA0190501971000000000000
B1808053758693S06011669WA0190301972000000000000
B1808093758757S06011608WA0190501976000000000000
B1808133758791S06011521WA0191001981000000000000
B1808173758778S06011432WA0191401986000000000000
B1808213758732S06011382WA0192101991000000000000
B1808253758681S06011388WA0192301988000000000000
B1808293758651S06011443WA0192101989000000000000
B1808333758662S06011514WA0192401994000000000000
B1808373758706S06011569WA0192401991000000000000
B1808413758776S06011577WA0192201990000000000000
B1808453758845S06011535WA0192301989000000000000
B1808493758891S06011458WA0192001987000000000000
B1808533758896S06011364WA0191701985000000000000
B1808573758869S06011286WA0192101993000000000000
B1809013758819S06011250WA0192401991000000000000
B1809053758770S06011273WA0191901984000000000000
B1809093758749S06011338WA0191801987000000000000
B1809133758765S06011404WA0192301993000000000000
B1809173758810S06011453WA0192401992000000000000
B1809213758876S06011469WA0191901988000000000000
B1809253758940S06011426WA0191501985000000000000
B1809293758970S06011345WA0191501983000000000000
B1809333758963S06011263WA0191501986000000000000
B1809373758930S06011206WA0191601984000000000000
B1809413758878S06011193WA0191001976000000000000
B1809453758833S06011227WA0190601974000000000000
B1809493758810S06011283WA0190801980000000000000
B1809533758815S06011344WA0190901978000000000000
B1809573758837S06011405WA0190501970000000000000
B1810013758876S06011460WA0189701958000000000000
B1810053758939S06011483WA0188501952000000000000
B1810093759001S06011447WA0187901941000000000000
B1810133759027S06011362WA0187401935000000000000
B1810173759005S06011282WA0186501926000000000000
B1810213758950S06011241WA0185901922000000000000
B1810253758891S06011253WA0185201911000000000000
B1810293758837S06011300WA0183801897000000000000
B1810333758789S06011362WA0181801874000000000000
B1810373758742S06011432WA0179901858000000000000
B1810413758697S06011507WA0178701847000000000000
B1810453758653S06011583WA0177801833000000000000
B1810493758612S06011664WA0176101815000000000000
B1810533758575S06011748WA0175101814000000000000
B1810573758540S06011829WA0175801825000000000000
B1811013758501S06011899WA0177301846000000000000
B1811053758463S06011962WA0179001860000000000000
B1811093758445S06012036WA0180201873000000000000
B1811133758462S06012111WA0181401882000000000000
B1811173758518S06012162WA0181601883000000000000
B1811213758593S06012166WA0181601881000000000000
B1811253758655S06012112WA0181901889000000000000
B1811293758676S06012038WA0182701896000000000000
B1811333758655S06011975WA0182501891000000000000
B1811373758614S06011937WA0182201892000000000000
B1811413758563S06011926WA0182901902000000000000
B1811453758524S06011959WA0184001911000000000000
B1811493758529S06012027WA0184401911000000000000
B1811533758584S06012075WA0184101910000000000000
B1811573758651S06012055WA0184101909000000000000
B1812013758689S06011984WA0183701899000000000000
B1812053758684S06011903WA0183001902000000000000
B1812093758646S06011860WA0183901908000000000000
B1812133758609S06011897WA0184501918000000000000
B1812173758625S06011965WA0185201924000000000000
B1812213758687S06012002WA0185101919000000000000
B1812253758757S06011978WA0184901918000000000000
B1812293758800S06011913WA0184901917000000000000
B1812333758802S06011837WA0184601912000000000000
B1812373758778S06011769WA0184601917000000000000
B1812413758736S06011730WA0185501926000000000000
B1812453758697S06011752WA0186201933000000000000
B1812493758696S06011816WA0186401931000000000000
B1812533758736S06011881WA0186301933000000000000
B1812573758807S06011887WA0186901943000000000000
B1813013758863S06011832WA0187401941000000000000
B1813053758872S06011748WA0187301945000000000000
B1813093758839S06011703WA0188301957000000000000
B1813133758797S06011711WA0189001962000000000000
B1813173758775S06011763WA0189301964000000000000
B1813213758785S06011833WA0189301967000000000000
B1813253758840S06011881WA0190001972000000000000
B1813293758909S06011865WA0189801966000000000000
B1813333758952S06011791WA0189001958000000000000
B1813373758939S06011711WA0189201965000000000000
B1813413758895S06011694WA0190001975000000000000
B1813453758869S06011742WA0190701982000000000000
B1813493758893S06011807WA0191201985000000000000
B1813533758956S06011824WA0191801990000000000000
B1813573759013S06011778WA0190901971000000000000
B1814013759027S06011689WA0189601968000000000000
B1814053758987S06011638WA0190201977000000000000
B1814093758940S06011651WA0191201987000000000000
B1814133758941S06011730WA0191501990000000000000
B1814173758995S06011780WA0191901995000000000000
B1814213759062S06011760WA0192101991000000000000
B1814253759103S06011682WA0190901973000000000000
B1814293759090S06011598WA0190501982000000000000
B1814333759044S06011572WA0191301988000000000000
B1814373759008S06011605WA0191501985000000000000
B1814413759004S06011674WA0191301985000000000000
B1814453759036S06011742WA0191601989000000000000
B1814493759101S06011768WA0191701987000000000000
B1814533759170S06011737WA0190901975000000000000
B1814573759213S06011660WA0190001969000000000000
B1815013759208S06011575WA0189701967000000000000
B1815053759165S06011538WA0189501965000000000000
B1815093759135S06011582WA0189501963000000000000
B1815133759173S06011644WA0189001957000000000000
B1815173759249S06011669WA0188401946000000000000
B1815213759338S06011673WA0187501943000000000000
B1815253759428S06011666WA0187701946000000000000
B1815293759516S06011660WA0186801934000000000000
B1815333759608S06011665WA0185901922000000000000
B1815373759701S06011681WA0185101916000000000000
B1815413759790S06011699WA0184501909000000000000
B1815453759879S06011721WA0183301898000000000000
B1815493759963S06011755WA0182901896000000000000
B1815533800042S06011794WA0182901898000000000000
B1815573800118S06011833WA0183201899000000000000
B1816013800193S06011873WA0182801892000000000000
B1816053800271S06011921WA0182001880000000000000
B1816093800349S06011985WA0181001873000000000000
B1816133800434S06012027WA0181501890000000000000
B1816173800509S06011990WA0184101921000000000000
B1816213800525S06011916WA0186301938000000000000
B1816253800487S06011878WA0186901939000000000000
B1816293800452S06011917WA0187301945000000000000
B1816333800469S06011986WA0187701949000000000000
B1816373800529S06012027WA0188101952000000000000
B1816413800595S06011998WA0188801961000000000000
B1816453800614S06011923WA0189501967000000000000
B1816493800581S06011865WA0189901972000000000000
B1816533800534S06011880WA0190801985000000000000
B1816573800522S06011942WA0191601991000000000000
B1817013800562S06012002WA0191901988000000000000
B1817053800633S06012004WA0192101996000000000000
B1817093800678S06011947WA0193202007000000000000
B1817133800670S06011877WA0193502005000000000000
B1817173800625S06011867WA0193502008000000000000
B1817213800608S06011929WA0194002015000000000000
B1817253800647S06011989WA0194902021000000000000
B1817293800715S06011988WA0194702018000000000000
B1817333800760S06011923WA0194902021000000000000
B1817373800763S06011845WA0195302027000000000000
B1817413800720S06011809WA0195802031000000000000
B1817453800685S06011855WA0196102035000000000000
B1817493800709S06011923WA0196602038000000000000
B1817533800774S06011933WA0196902040000000000000
B1817573800820S06011873WA0197102044000000000000
B1818013800813S06011802WA0197402045000000000000
B1818053800768S06011769WA0197502052000000000000
B1818093800722S06011796WA0198202055000000000000
B1818133800717S06011871WA0198302055000000000000
B1818173800764S06011928WA0198302058000000000000
B1818213800830S06011925WA0198502060000000000000
B1818253800877S06011864WA0198402055000000000000
B1818293800886S06011782WA0198102054000000000000
B1818333800867S06011709WA0198302060000000000000
B1818373800820S06011674WA0199202067000000000000
B1818413800776S06011708WA0199402066000000000000
B1818453800772S06011782WA0199202064000000000000
B1818493800803S06011860WA0198702057000000000000
B1818533800851S06011936WA0197102042000000015000
B1818573800919S06012012WA0195702028000000000000
B1819013800995S06012086WA0194702015000000000000
B1819053801077S06012155WA0193502006000000000000
B1819093801160S06012222WA0193202009000000000000
B1819133801244S06012283WA0193802014000000000000
B1819173801324S06012340WA0194202021000000000000
B1819213801404S06012398WA0194802022000000000000
B1819253801484S06012457WA0194302013000000000000
B1819293801565S06012521WA0193402000000000000000
B1819333801649S06012587WA0192101988000000000000
B1819373801736S06012649WA0191301978000000000000
B1819413801825S06012712WA0190601971000000000000
B1819453801914S06012774WA0190001967000000000000
B1819493802004S06012834WA0189501963000000000000
B1819533802095S06012892WA0189201960000000000000
B1819573802186S06012951WA0189001958000000000000
B1820013802280S06013008WA0188701952000000000000
B1820053802373S06013068WA0187901945000000000000
B1820093802466S06013130WA0187501942000000000000
B1820133802558S06013191WA0187401939000000000000
B1820173802650S06013249WA0187001933000000000000
B1820213802739S06013308WA0186201927000000000000
B1820253802823S06013372WA0185701922000000000000
B1820293802904S06013438WA0185301920000000000000
B1820333802982S06013509WA0185201920000000000000
B1820373803055S06013580WA0185101918000000000000
B1820413803126S06013654WA0185001917000000000000
B1820453803198S06013726WA0184701910000000000000
B1820493803268S06013796WA0184201906000000000000
B1820533803330S06013871WA0183601901000000000000
B1820573803386S06013952WA0183201896000000000000
B1821013803438S06014034WA0182601887000000000000
B1821053803497S06014110WA0182201883000000000000
B1821093803555S06014183WA0181601880000000000000
B1821133803612S06014256WA0181601882000000000000
B1821173803672S06014325WA0181601883000000000000
B1821213803753S06014342WA0182201893000000000000
B1821253803825S06014299WA0183601912000000000000
B1821293803851S06014220WA0185101930000000000000
B1821333803831S06014151WA0186101931000000000000
B1821373803781S06014114WA0185901927000000000000
B1821413803725S06014131WA0185801926000000000000
B1821453803689S06014188WA0185601924000000000000
B1821493803660S06014259WA0184501910000000000000
B1821533803637S06014343WA0182301888000000000000
B1821573803614S06014434WA0180801873000000000000
B1822013803595S06014532WA0179501862000000000000
B1822053803580S06014632WA0178701853000000000000
B1822093803571S06014733WA0178301850000000000000
B1822133803567S06014833WA0178101848000000000000
B1822173803564S06014933WA0177701834000000000000
B1822213803559S06015037WA0176801827000000000000
B1822253803549S06015139WA0176301816000000000000
B1822293803537S06015243WA0175201804000000000000
B1822333803520S06015347WA0174101793000000000000
B1822373803500S06015452WA0173401785000000000000
B1822413803480S06015557WA0172201775000000000000
B1822453803461S06015663WA0171601775000000000000
B1822493803454S06015765WA0171901778000000000000
B1822533803465S06015865WA0172701793000000000000
B1822573803489S06015956WA0174301808000000000000
B1823013803532S06016031WA0175701826000000000000
B1823053803594S06016068WA0177301844000000000000
B1823093803667S06016050WA0178701856000000000000
B1823133803714S06015981WA0179901867000000000000
B1823173803703S06015904WA0181101880000000000000
B1823213803653S06015898WA0182201888000000000000
B1823253803630S06015958WA0182901900000000000000
B1823293803671S06016015WA0184101911000000000000
B1823333803742S06016008WA0185201922000000000000
B1823373803789S06015938WA0186001928000000000000
B1823413803783S06015856WA0186401938000000000000
B1823453803733S06015833WA0187801953000000000000
B1823493803699S06015880WA0189401964000000000000
B1823533803731S06015943WA0190001971000000000000
B1823573803802S06015949WA0190501977000000000000
B1824013803859S06015890WA0191401984000000000000
B1824053803864S06015804WA0192001990000000000000
B1824093803828S06015738WA0192801998000000000000
B1824133803779S06015720WA0194002015000000000000
B1824173803759S06015769WA0195202024000000000000
B1824213803793S06015829WA0195402030000000000000
B1824253803858S06015852WA0196302038000000000000
B1824293803926S06015820WA0197102046000000000000
B1824333803955S06015742WA0197802049000000000000
B1824373803926S06015672WA0197902050000000000000
B1824413803872S06015668WA0198502063000000000000
B1824453803833S06015708WA0199902076000000000000
B1824493803836S06015780WA0200402081000000000000
B1824533803884S06015838WA0201102088000000000000
B1824573803957S06015860WA0201402090000000000000
B1825013804030S06015824WA0201902097000000000000
B1825053804071S06015747WA0202402101000000000000
B1825093804053S06015672WA0202802106000000000000
B1825133804004S06015659WA0203702116000000000000
B1825173803974S06015711WA0204202120000000000000
B1825213803989S06015784WA0204602119000000000000
B1825253804046S06015839WA0203902109000000000000
B1825293804128S06015862WA0203802110000000000000
B1825333804215S06015869WA0204002111000000000000
B1825373804308S06015884WA0203702105000000000000
B1825413804396S06015924WA0203302101000000000000
B1825453804474S06015995WA0202302086000000000000
B1825493804543S06016090WA0201402077000000000000
B1825533804608S06016190WA0200702069000000000000
B1825573804674S06016291WA0200002061000000000000
B1826013804743S06016389WA0199402056000000000000
B1826053804811S06016489WA0199402061000000000000
B1826093804875S06016587WA0199802061000000000000
B1826133804929S06016691WA0199502057000000000000
B1826173804981S06016795WA0198602044000000000000
B1826213805034S06016899WA0196802026000000000000
B1826253805094S06017003WA0196002019000000000000
B1826293805154S06017106WA0195202007000000000000
B1826333805210S06017212WA0193901994000000000000
B1826373805266S06017320WA0192901983000000000000
B1826413805320S06017427WA0192101979000000000000
B1826453805372S06017531WA0191901980000000000000
B1826493805418S06017630WA0191901980000000000000
B1826533805461S06017726WA0192001984000000000000
B1826573805500S06017818WA0193101999000000000000
B1827013805536S06017903WA0194202009000000000000
B1827053805588S06017975WA0194602012000000000000
B1827093805662S06018021WA0194902015000000000000
B1827133805742S06018027WA0195502025000000000000
B1827173805808S06017978WA0196302033000000000000
B1827213805833S06017893WA0196602033000000000000
B1827253805814S06017813WA0196802044000000000000
B1827293805768S06017791WA0198302058000000000000
B1827333805734S06017838WA0198902064000000000000
B1827373805753S06017908WA0199502069000000000000
B1827413805820S06017935WA0200102076000000000000
B1827453805883S06017891WA0200702083000000015000
B1827493805899S06017812WA0201202091000000000000
B1827533805864S06017762WA0202202102000000000000
B1827573805821S06017789WA0203102106000000000000
B1828013805835S06017862WA0203502113000000000000
B1828053805905S06017888WA0203802113000000000000
B1828093805981S06017860WA0204002116000000000000
B1828133806025S06017784WA0204802125000000000000
B1828173806009S06017709WA0206202145000000000000
B1828213805961S06017684WA0207402148000000000000
B1828253805909S06017711WA0207202149000000000000
B1828293805885S06017782WA0207702157000000000000
B1828333805907S06017861WA0208102163000000000000
B1828373805963S06017916WA0208602166000000000000
B1828413806035S06017930WA0208802167000000000000
B1828453806110S06017900WA0208602164000000000000
B1828493806168S06017832WA0208702161000000000000
B1828533806189S06017734WA0207902151000000000000
B1828573806171S06017632WA0207802154000000000000
B1829013806121S06017555WA0207802156000000000000
B1829053806052S06017527WA0207902158000000000000
B1829093805982S06017553WA0208402164000000000000
B1829133805930S06017622WA0208902167000000000000
B1829173805909S06017715WA0209202173000000000000
B1829213805937S06017814WA0209702175000000000000
B1829253805987S06017901WA0209302163000000000000
B1829293806043S06017990WA0207802151000000000000
B1829333806103S06018075WA0207302150000000000000
B1829373806164S06018161WA0207002141000000000000
B1829413806229S06018248WA0205902131000000000000
B1829453806301S06018333WA0205102122000000000000
B1829493806366S06018425WA0204302113000000000000
B1829533806425S06018524WA0203602108000000000000
B1829573806484S06018624WA0203002099000000000000
B1830013806541S06018723WA0202302093000000000000
B1830053806596S06018823WA0201802087000000000000
B1830093806645S06018922WA0201502086000000000000
B1830133806689S06019023WA0201102077000000000000
B1830173806728S06019128WA0200002066000000000000
B1830213806762S06019234WA0199402066000000000000
B1830253806791S06019334WA0199602067000000000000
B1830293806815S06019431WA0199902072000000000000
B1830333806836S06019524WA0200402078000000000000
B1830373806826S06019609WA0200602072000000000000
B1830413806780S06019671WA0199602064000000000000
B1830453806714S06019677WA0198602054000000000000
B1830493806662S06019612WA0197302036000000000000
B1830533806648S06019503WA0196002024000000000000
B1830573806654S06019382WA0194802018000000000000
B1831013806665S06019260WA0194502011000000000000
B1831053806680S06019134WA0193702002000000000000
B1831093806691S06019006WA0192801991000000000000
B1831133806695S06018881WA0191901984000000000000
B1831173806695S06018850WV0190500000000000000128
B1831213806695S06018850WV0189700000000000000128
B1831253806696S06018507WA0188601971000000000000
B1831293806661S06018385WA0187801962000000000000
B1831333806652S06018265WA0187401959000000000000
B1831373806645S06018148WA0187201954000000000000
B1831413806649S06018033WA0186801949000000000000
B1831453806663S06017919WA0186401944000000000000
B1831493806684S06017809WA0186401944000000000000
B1831533806710S06017704WA0187001947000000000000
B1831573806734S06017605WA0187701952000000000000
B1832013806752S06017507WA0188001954000000000000
B1832053806754S06017407WA0188101952000000000000
B1832093806739S06017307WA0187801948000000000000
B1832133806713S06017217WA0188401964000000000000
B1832173806675S06017149WA0190301983000000000000
B1832213806628S06017124WA0191501992000000000000
B1832253806589S06017159WA0191701987000000000000
B1832293806576S06017233WA0191001978000000000000
B1832333806597S06017314WA0190801983000000000000
B1832373806658S06017351WA0191301987000000015000
B1832413806715S06017293WA0190901979000000000000
B1832453806723S06017197WA0190101969000000000000
B1832493806693S06017107WA0189401961000000000000
B1832533806643S06017033WA0188801960000000000000
B1832573806589S06016964WA0188901960000000000000
B1833013806532S06016896WA0188401948000000000000
B1833053806474S06016824WA0187101937000000000000
B1833093806415S06016749WA0186301932000000000000
B1833133806355S06016682WA0185601922000000000000
B1833173806294S06016613WA0184401911000000000000
B1833213806294S06016613WV0183500000000000000128
B1833253806169S06016476WA0182401904000000000000
B1833293806104S06016411WA0183001913000000000000
B1833333806043S06016348WA0183801916000000000000
B1833373805982S06016287WA0184501928000000000000
B1833413805930S06016229WA0186001943000000000000
B1833453805881S06016180WA0186901948000000000000
B1833493805833S06016129WA0186901944000000000000
B1833533805781S06016077WA0186301932000000000000
B1833573805725S06016020WA0185101919000000000000
B1834013805666S06015960WA0184301916000000000000
B1834053805606S06015903WA0184601924000000000000
B1834093805558S06015850WA0186701953000000000000
B1834133805523S06015798WA0188801967000000000000
B1834173805476S06015772WA0189301968000000000000
B1834213805434S06015811WA0189501972000000000000
B1834253805443S06015881WA0190301979000000000000
B1834293805500S06015917WA0190701983000000000000
B1834333805567S06015894WA0190401969000000015000
B1834373805610S06015819WA0189601967000000000000
B1834413805606S06015733WA0189601967000000000000
B1834453805557S06015677WA0189301963000000000000
B1834493805492S06015647WA0188701955000000000000
B1834533805423S06015609WA0187701946000000000000
B1834573805353S06015563WA0187301944000000000000
B1835013805280S06015520WA0187301948000000000000
B1835053805207S06015482WA0187701947000000000000
B1835093805132S06015444WA0187001939000000000000
B1835133805053S06015420WA0186401934000000000000
B1835173804973S06015427WA0186201928000000000000
B1835213804897S06015453WA0184701913000000000000
B1835253804824S06015496WA0183901904000000000000
B1835293804756S06015544WA0183401904000000000000
B1835333804695S06015596WA0183301903000000000000
B1835373804639S06015655WA0182701890000000000000
B1835413804582S06015712WA0181601884000000000000
B1835453804527S06015771WA0181701889000000000000
B1835493804477S06015830WA0182101892000000000000
B1835533804425S06015885WA0182001888000000000000
B1835573804371S06015940WA0181401881000000000000
B1836013804314S06015989WA0180401869000000000000
B1836053804248S06016028WA0179801863000000000000
B1836093804178S06016057WA0179001853000000000000
B1836133804105S06016083WA0178001841000000000000
B1836173804030S06016103WA0176901833000000000000
B1836213803957S06016123WA0176101827000000000000
B1836253803887S06016144WA0176001824000000000000
B1836293803818S06016162WA0175901820000000000000
B1836333803747S06016176WA0175201810000000000000
B1836373803673S06016179WA0174701811000000000000
B1836413803603S06016150WA0174701809000000000000
B1836453803534S06016109WA0174201804000000000000
B1836493803461S06016097WA0174101805000000000000
B1836533803391S06016116WA0173901802000000000000
B1836573803321S06016136WA0174001806000000000000
B1837013803253S06016154WA0174001803000000000000
B1837053803185S06016176WA0173701800000000000000
B1837093803118S06016210WA0173501796000000000000
B1837133803057S06016245WA0173301796000000000000
B1837173802995S06016275WA0173001794000000000000
B1837213802934S06016297WA0173501802000000000000
B1837253802876S06016315WA0173901802000000000000
B1837293802819S06016314WA0173501796000000000000
B1837333802757S06016291WA0172601787000000000000
B1837373802692S06016276WA0173401806000000000000
B1837413802637S06016279WA0175801828000000000000
B1837453802611S06016340WA0176801833000000000000
B1837493802655S06016400WA0177001831000000015000
B1837533802724S06016375WA0176801829000000015000
B1837573802757S06016296WA0176801827000000000000
B1838013802767S06016207WA0176901828000000000000
B1838053802753S06016120WA0177601833000000000000
B1838093802714S06016059WA0178301848000000000000
B1838133802667S06016072WA0179401855000000000000
B1838173802657S06016133WA0179001848000000000000
B1838213802687S06016205WA0178201839000000000000
B1838253802741S06016265WA0178001844000000000000
B1838293802811S06016289WA0178901852000000000000
B1838333802878S06016253WA0179201855000000000000
B1838373802902S06016174WA0179701869000000000000
B1838413802884S06016103WA0180301877000000000000
B1838453802840S06016077WA0181401890000000000000
B1838493802804S06016115WA0182401902000000000000
B1838533802809S06016183WA0183301909000000000000
B1838573802856S06016236WA0183301907000000000000
B1839013802925S06016232WA0183601912000000015000
B1839053802961S06016164WA0184001914000000000000
B1839093802941S06016092WA0184001910000000000000
B1839133802889S06016057WA0183801917000000000000
B1839173802843S06016084WA0185101931000000000000
B1839213802841S06016151WA0186201937000000000000
B1839253802889S06016203WA0186501938000000000000
B1839293802958S06016203WA0186701942000000000000
B1839333803009S06016150WA0187201945000000000000
B1839373803016S06016071WA0187301945000000000000
B1839413802992S06015998WA0187101943000000000000
B1839453802940S06015962WA0187601951000000000000
B1839493802889S06015977WA0188101956000000000000
B1839533802869S06016037WA0188201952000000000000
B1839573802889S06016109WA0187601941000000000000
B1840013802943S06016167WA0187001942000000000000
B1840053803014S06016189WA0187401944000000000000
B1840093803086S06016163WA0187401944000000000000
B1840133803143S06016107WA0187001937015000015000
B1840173803205S06016040WA0185901923000000000000
B1840213803285S06015992WA0185001918000000000000
B1840253803367S06015967WA0185001916000000000000
B1840293803459S06015985WA0184201908000000000000
B1840333803550S06016012WA0183501902000000000000
B1840373803641S06016034WA0183001894000000000000
B1840413803736S06016047WA0182001881000000000000
B1840453803833S06016059WA0181201875000000000000
B1840493803929S06016076WA0180501868000000000000
B1840533804026S06016094WA0180101866000000000000
B1840573804122S06016110WA0180201866000000000000
B1841013804214S06016124WA0180201869000000000000
B1841053804304S06016141WA0180801878000000000000
B1841093804386S06016162WA0181701888000000000000
B1841133804457S06016200WA0182301894000000000000
B1841173804500S06016271WA0182501891000000000000
B1841213804498S06016352WA0182301888000000000000
B1841253804473S06016423WA0182301894000000000000
B1841293804487S06016508WA0182801897000000000000
B1841333804548S06016544WA0184101918000000015000
B1841373804591S06016483WA0185401923000000000000
B1841413804568S06016417WA0185301920000000000000
B1841453804513S06016402WA0185601927000000000000
B1841493804479S06016450WA0186401937000000000000
B1841533804500S06016518WA0187301945000000000000
B1841573804563S06016526WA0188301956000000015000
B1842013804595S06016453WA0188701958000000000000
B1842053804563S06016392WA0188801961000000000000
B1842093804518S06016427WA0189401967000000000000
B1842133804527S06016504WA0189801976000000000000
B1842173804579S06016553WA0191001989000000000000
B1842213804641S06016532WA0192001996000000015000
B1842253804674S06016463WA0192001990000000000000
B1842293804664S06016380WA0191501986000000000000
B1842333804621S06016335WA0191901995000000000000
B1842373804576S06016359WA0192601999000000000000
B1842413804551S06016422WA0193302006000000000000
B1842453804563S06016496WA0193802012000000000000
B1842493804618S06016543WA0194502018000000015000
B1842533804682S06016515WA0194802020000000015000
B1842573804719S06016436WA0194502008000000000000
B1843013804733S06016336WA0193301998000000000000
B1843053804745S06016227WA0192401988000000000000
B1843093804755S06016114WA0191001977000000000000
B1843133804765S06015989WA0190001975000000000000
B1843173804778S06015867WA0190301981000000000000
B1843213804791S06015751WA0191001981000000000000
B1843253804810S06015634WA0190301970000000000000
B1843293804837S06015512WA0189101957000000000000
B1843333804864S06015387WA0188001943000000000000
B1843373804889S06015258WA0186901933000000000000
B1843413804903S06015127WA0186001919000000000000
B1843453804917S06014993WA0185001907000000000000
B1843493804938S06014858WA0184001894000000000000
B1843533804969S06014723WA0183001881000000000000
B1843573805011S06014589WA0182001874000000000000
B1844013805051S06014454WA0181101863000000000000
B1844053805092S06014317WA0180201857000000000000
B1844093805135S06014181WA0180201857000000000000
B1844133805180S06014045WA0180001858000000000000
B1844173805229S06013912WA0178601851000000000000
B1844213805293S06013784WA0177901841000000000000
B1844253805370S06013670WA0177301836000000000000
B1844293805450S06013562WA0176901828000000000000
B1844333805527S06013450WA0176101822000000000000
B1844373805597S06013334WA0175901821000000000000
B1844413805665S06013220WA0175601812000000000000
B1844453805730S06013100WA0174301797000000000000
B1844493805798S06012982WA0173301789000000000000
B1844533805866S06012866WA0172801781000000000000
B1844573805933S06012745WA0172101775000000000000
B1845013805998S06012626WA0171601770000000000000
B1845053806059S06012504WA0171001763000000000000
B1845093806119S06012381WA0170801762000000000000
B1845133806181S06012263WA0170401756000000000000
B1845173806251S06012153WA0169501746000000000000
B1845213806329S06012051WA0169501750000000000000
B1845253806411S06011958WA0169301743000000000000
B1845293806502S06011868WA0168701741000000000000
B1845333806593S06011781WA0168801739000000000000
B1845373806683S06011694WA0168901745000000000000
B1845413806779S06011616WA0168301728000000000000
B1845453806882S06011548WA0166601709000000000000
B1845493806988S06011478WA0164801691000000000000
B1845533807099S06011413WA0163501683000000000000
B1845573807211S06011352WA0163001682000000000000
B1846013807324S06011305WA0163501688000000000000
B1846053807428S06011309WA0164901723000000000000
B1846093807503S06011358WA0168501745000000000000
B1846133807592S06011369WA0168901739000000015000
B1846173807683S06011315WA0167601720000000000000
B1846213807768S06011234WA0166801717000000000000
B1846253807841S06011132WA0166301713000000000000
B1846293807901S06011016WA0165601699000000000000
B1846333807959S06010896WA0164301683000000000000
B1846373808019S06010772WA0162901673000000000000
B1846413808079S06010647WA0161901663000000000000
B1846453808138S06010520WA0161101654000000000000
B1846493808197S06010392WA0159801640000000000000
B1846533808260S06010265WA0159101635000000000000
B1846573808323S06010139WA0158701629000000000000
B1847013808388S06010013WA0157801621000000000000
B1847053808453S06009884WA0157001611000000000000
B1847093808517S06009754WA0155901601000000000000
B1847133808578S06009623WA0155301596000000000000
B1847173808639S06009490WA0154301581000000000000
B1847213808700S06009358WA0153201573000000000000
B1847253808764S06009224WA0152401566000000000000
B1847293808832S06009092WA0151901563000000000000
B1847333808906S06008969WA0151501557000000000000
B1847373808983S06008851WA0151201561000000000000
B1847413809067S06008752WA0151901568000000000000
B1847453809153S06008665WA0152401576000000000000
B1847493809237S06008589WA0153301590000000000000
B1847533809310S06008497WA0152301573000000000000
B1847573809367S06008380WA0150801559000000000000
B1848013809422S06008259WA0149901549000000000000
B1848053809478S06008137WA0149301542000000000000
B1848093809538S06008026WA0149601552000000000000
B1848133809601S06007926WA0149901559000000000000
B1848173809670S06007843WA0151001569000000000000
B1848213809731S06007763WA0151601575000000000000
B1848253809777S06007672WA0152201579000000000000
B1848293809821S06007581WA0152901588000000000000
B1848333809854S06007490WA0153701596000000000000
B1848373809852S06007404WA0154901608000000000000
B1848413809843S06007322WA0155701614000000000000
B1848453809856S06007239WA0155901610000000000000
B1848493809911S06007172WA0154301587000000000000
B1848533809997S06007128WA0152601562000000000000
B1848573810093S06007083WA0151101553000000000000
B1849013810186S06007028WA0150801552000000000000
B1849053810280S06006962WA0150401545000000000000
B1849093810374S06006889WA0149301530000000000000
B1849133810470S06006812WA0148401524000000000000
B1849173810563S06006738WA0147901519000000000000
B1849213810656S06006665WA0147201509000000000000
B1849253810753S06006598WA0146401501000000000000
B1849293810851S06006530WA0145901493000000000000
B1849333810947S06006460WA0144801483000000000000
B1849373811039S06006383WA0144401485000000000000
B1849413811125S06006303WA0144801487000000000000
B1849453811211S06006223WA0144201483000000015000
B1849493811298S06006143WA0143401476000000000000
B1849533811385S06006058WA0142201469000000000000
B1849573811468S06005967WA0141601467000000000000
B1850013811547S06005871WA0141401465000000000000
B1850053811618S06005771WA0141701466000000000000
B1850093811684S06005668WA0141601464000000000000
B1850133811733S06005559WA0141801463000000000000
B1850173811776S06005443WA0141001450000000000000
B1850213811815S06005325WA0140201445000000015000
B1850253811849S06005205WA0139401443000000000000
B1850293811883S06005081WA0138801428000000000000
B1850333811922S06004953WA0137301412000000000000
B1850373811966S06004828WA0136201402000000000000
B1850413812013S06004708WA0135601392000000000000
B1850453812060S06004588WA0135001386000000000000
B1850493812096S06004467WA0134101378000000000000
B1850533812140S06004354WA0134201387000000000000
B1850573812196S06004256WA0135101394000000000000
B1851013812259S06004169WA0135301637000000000000
B1851053812320S06004077WA0134101390000000015000
B1851093812370S06003964WA0132401352000000015000
B1851133812418S06003846WA0131901348000000000000
B1851173812464S06003729WA0131201342000000000000
B1851213812509S06003612WA0131001343000000000000
B1851253812552S06003499WA0131201348000000000000
B1851293812594S06003396WA0132601375000000000000
B1851333812636S06003306WA0134801394000000000000
B1851373812663S06003219WA0136401413000000000000
B1851413812656S06003142WA0137801424000000000000
B1851453812626S06003092WA0138901432000000000000
B1851493812590S06003046WA0139001430000000000000
B1851533812581S06002966WA0139301437000000000000
B1851573812600S06002873WA0139701437000000000000
B1852013812643S06002780WA0139201424000000000000
B1852053812703S06002680WA0137701409000000000000
B1852093812768S06002574WA0136101391000000000000
B1852133812837S06002469WA0135301388000000000000
B1852173812907S06002365WA0135101386000000000000
B1852213812981S06002267WA0134501377000000000000
B1852253813058S06002171WA0133801369000000000000
B1852293813136S06002079WA0133201366000000000000
B1852333813214S06001991WA0132801361000000000000
B1852373813296S06001913WA0132601360000000000000
B1852413813383S06001846WA0132001350000000000000
B1852453813475S06001785WA0130801339000000000000
B1852493813569S06001727WA0130101332000000000000
B1852533813664S06001671WA0129201322000000000000
B1852573813760S06001617WA0128401311000000000000
B1853013813858S06001563WA0127801308000000000000
B1853053813949S06001504WA0127401302000000000000
B1853093814034S06001434WA0126601297000000000000
B1853133814114S06001357WA0126201293000000000000
B1853173814184S06001273WA0125701287000000000000
B1853213814245S06001179WA0125101281000000000000
B1853253814296S06001081WA0124301272000000000000
B1853293814342S06000974WA0123101259000000000000
B1853333814388S06000861WA0122201250000000000000
B1853373814430S06000745WA0121501243000000000000
B1853413814469S06000629WA0120901234000000000000
B1853453814508S06000514WA0120301237000000000000
B1853493814545S06000406WA0121701259000000000000
B1853533814596S06000319WA0123501275000000000000
B1853573814656S06000245WA0123801268000000000000
B1854013814713S06000159WA0122201247000000000000
B1854053814761S06000060WA0120601233000000000000
B1854093814792S05959951WA0119001217000000000000
B1854133814809S05959835WA0117901209000000000000
B1854173814814S05959722WA0117401203000000000000
B1854213814816S05959606WA0116501189000000000000
B1854253814814S05959489WA0115501179000000000000
B1854293814814S05959372WA0114901181000000000000
B1854333814817S05959264WA0115401189000000000000
B1854373814814S05959158WA0115001177000000000000
B1854413814810S05959049WA0114101169000000000000
B1854453814805S05958941WA0114201179000000000000
B1854493814803S05958837WA0115201187000000000000
B1854533814804S05958742WA0116801208000000000000
B1854573814805S05958655WA0118301219000000000000
B1855013814779S05958585WA0119201232000000000000
B1855053814734S05958557WA0120201247000000000000
B1855093814696S05958587WA0121201254000000000000
B1855133814709S05958650WA0121601252000000000000
B1855173814771S05958648WA0121101242000000015000
B1855213814800S05958560WA0119901229000000000000
B1855253814773S05958466WA0119301226000000000000
B1855293814731S05958377WA0119001226000000000000
B1855333814697S05958280WA0120201243000000000000
B1855373814644S05958234WA0121901265000000000000
B1855413814613S05958287WA0124101290000000000000
B1855453814651S05958344WA0125701304000000000000
B1855493814719S05958328WA0125801305000000015000
B1855533814749S05958253WA0126101311000000000000
B1855573814734S05958182WA0126801319000000000000
B1856013814688S05958174WA0127901330000000000000
B1856053814671S05958231WA0128501337000000000000
B1856093814717S05958284WA0128901340000000000000
B1856133814784S05958269WA0129501345000000000000
B1856173814813S05958196WA0130001351000000015000
B1856213814782S05958153WA0131101363000000015000
B1856253814747S05958185WA0131901367000000015000
B1856293814768S05958252WA0132101369000000000000
B1856333814835S05958265WA0132501375000000015000
B1856373814882S05958205WA0133101381000000015000
B1856413814868S05958144WA0133801389000000000000
B1856453814827S05958159WA0134201389000000000000
B1856493814843S05958227WA0134601397000000000000
B1856533814907S05958237WA0135201404000000015000
B1856573814943S05958169WA0135301403000000000000
B1857013814926S05958097WA0135201397000000000000
B1857053814882S05958037WA0134001385000000000000
B1857093814823S05957981WA0133201373000000000000
B1857133814761S05957918WA0132401367000000000000
B1857173814705S05957837WA0132401372000000015000
B1857213814645S05957792WA0134001403000000015000
B1857253814604S05957823WA0136901431000000000000
B1857293814610S05957890WA0138501437000000000000
B1857333814670S05957922WA0139001442000000015000
B1857373814725S05957870WA0139701449000000015000
B1857413814716S05957801WA0140401458000000015000
B1857453814671S05957805WA0141201465000000015000
B1857493814671S05957872WA0142001473000000000000
B1857533814731S05957903WA0142801484000000015000
B1857573814783S05957854WA0143701491000000015000
B1858013814777S05957788WA0144201501000000015000
B1858053814738S05957779WA0145601511000000015000
B1858093814722S05957834WA0145701509000000000000
B1858133814764S05957893WA0145901518000000000000
B1858173814830S05957883WA0146901527000000000000
B1858213814870S05957819WA0147701535000000000000
B1858253814851S05957760WA0148501542000000000000
B1858293814809S05957780WA0148801545000000000000
B1858333814818S05957847WA0149401553000000000000
B1858373814881S05957875WA0150201560000000015000
B1858413814931S05957819WA0150801568000000015000
B1858453814922S05957754WA0151901578000000015000
B1858493814881S05957754WA0152601582000000000000
B1858533814875S05957820WA0152601584000000000000
B1858573814935S05957857WA0153201592000000015000
B1859013814992S05957802WA0153601597000000015000
B1859053814990S05957728WA0154201612000000015000
B1859093814950S05957712WA0155601622000000015000
B1859133814930S05957766WA0155901620000000015000
B1859173814977S05957823WA0155901622000000000000
B1859213815046S05957798WA0156501628000000015000
B1859253815059S05957725WA0157601632000000015000
B1859293815018S05957698WA0157701635000000000000
B1859333814998S05957754WA0158301640000000000000
B1859373815050S05957803WA0158701640000000000000
B1859413815116S05957768WA0159201650000000015000
B1859453815134S05957693WA0159901652000000015000
B1859493815098S05957647WA0160001656000000015000
B1859533815059S05957676WA0160601662000000015000
B1859573815073S05957747WA0160701657000000000000
B1900013815148S05957763WA0160001652000000015000
B1900053815215S05957693WA0159801646000000000000
B1900093815276S05957600WA0158201624000000000000
B1900133815345S05957498WA0155901605000000000000
B1900173815414S05957389WA0154201587000000000000
B1900213815488S05957278WA0153101579000000000000
B1900253815566S05957181WA0153401594000000000000
B1900293815654S05957125WA0155401613000000000000
B1900333815731S05957056WA0155701603000000000000
B1900373815769S05956945WA0154501590000000000000
B1900413815784S05956823WA0153601576000000000000
B1900453815798S05956693WA0152101568000000000000
B1900493815818S05956567WA0153401589000000000000
B1900533815841S05956446WA0154101585000000000000
B1900573815867S05956319WA0153301570000000000000
B1901013815896S05956186WA0152001559000000000000
B1901053815932S05956051WA0151201552000000000000
B1901093815979S05955920WA0150601544000000000000
B1901133816040S05955797WA0150001537000000000000
B1901173816108S05955679WA0149001522000000000000
B1901213816178S05955559WA0147101501000000000000
B1901253816251S05955439WA0145201482000000000000
B1901293816325S05955316WA0144201475000000000000
B1901333816398S05955195WA0143401469000000000000
B1901373816473S05955078WA0143101468000000000000
B1901413816554S05954969WA0143201471000000000000
B1901453816634S05954861WA0143101472000000000000
B1901493816711S05954753WA0142801468000000000000
B1901533816788S05954643WA0142301461000000000000
B1901573816864S05954535WA0141901459000000000000
B1902013816941S05954427WA0141501455000000000000
B1902053817019S05954322WA0141101451000000000000
B1902093817096S05954215WA0140801448000000000000
B1902133817174S05954109WA0140401442000000000000
B1902173817248S05953998WA0139901438000000000000
B1902213817326S05953899WA0140001442000000000000
B1902253817407S05953811WA0139601430000000000000
B1902293817488S05953715WA0138001414000000000000
B1902333817570S05953619WA0137201415000000000000
B1902373817651S05953544WA0138601429000000000000
B1902413817732S05953473WA0138001408000000000000
B1902453817815S05953388WA0136001389000000000000
B1902493817893S05953291WA0134601380000000000000
B1902533817966S05953186WA0134201377000000000000
B1902573818033S05953079WA0133801372000000000000
B1903013818101S05952970WA0133001362000000000000
B1903053818171S05952859WA0132601364000000015000
B1903093818240S05952767WA0134301394000000000000
B1903133818307S05952698WA0137001417000000000000
B1903173818371S05952638WA0137801414000000000000
B1903213818413S05952554WA0137901421000000000000
B1903253818440S05952467WA0139301438000000000000
B1903293818456S05952381WA0140901456000000015000
B1903333818418S05952339WA0142601469000000015000
B1903373818384S05952390WA0143001476000000000000
B1903413818417S05952459WA0144201494000000000000
B1903453818484S05952468WA0145301506000000015000
B1903493818530S05952412WA0146501519000000015000
B1903533818517S05952347WA0147701532000000000000
B1903573818473S05952347WA0148801539000000015000
B1904013818467S05952416WA0149201545000000000000
B1904053818519S05952469WA0150101557000000015000
B1904093818590S05952455WA0151201571000000015000
B1904133818613S05952387WA0152901588000000015000
B1904173818578S05952352WA0153901594000000000000
B1904213818551S05952403WA0154801604000000015000
B1904253818592S05952465WA0156001619000000015000
B1904293818657S05952451WA0157401631000000015000
B1904333818679S05952382WA0158301637000000015000
B1904373818643S05952341WA0158901647000000000000
B1904413818609S05952377WA0160201662000000000000
B1904453818632S05952446WA0161101667000000015000
B1904493818701S05952463WA0161701675000000015000
B1904533818752S05952404WA0162801689000000000000
B1904573818742S05952339WA0163601697000000000000
B1905013818695S05952343WA0164601707000000000000
B1905053818696S05952413WA0165401716000000015000
B1905093818764S05952436WA0166001719000000015000
B1905133818808S05952371WA0166801728000000015000
B1905173818779S05952315WA0167601738000000015000
B1905213818744S05952352WA0169101756000000015000
B1905253818777S05952416WA0170001761000000000000
B1905293818846S05952406WA0170601767000000015000
B1905333818866S05952330WA0171101771000000015000
B1905373818825S05952290WA0171401777000000015000
B1905413818786S05952319WA0172601798000000000000
B1905453818795S05952384WA0174301803000000015000
B1905493818856S05952416WA0174501806000000015000
B1905533818912S05952368WA0175001811000000015000
B1905573818904S05952296WA0175301810000000000000
B1906013818856S05952283WA0175901825000000000000
B1906053818838S05952341WA0177201833000000000000
B1906093818885S05952398WA0177201833000000015000
B1906133818955S05952380WA0177801843000000015000
B1906173818987S05952306WA0178101834000000015000
B1906213819016S05952209WA0176501813000000015000
B1906253819055S05952099WA0174501784000000015000
B1906293819100S05951978WA0172101766000000000000
B1906333819154S05951856WA0170801754000000000000
B1906373819219S05951739WA0169701736000000000000
B1906413819288S05951620WA0168601728000000000000
B1906453819349S05951496WA0168001721000000000000
B1906493819407S05951367WA0167301714000000000000
B1906533819467S05951238WA0166101697000000000000
B1906573819529S05951106WA0164901688000000000000
B1907013819591S05950973WA0164301684000000000000
B1907053819653S05950843WA0163601678000000000000
B1907093819717S05950716WA0163101674000000000000
B1907133819791S05950600WA0162701669000000000000
B1907173819880S05950504WA0162201663000000000000
B1907213819974S05950415WA0161801659000000000000
B1907253820061S05950318WA0161201652000000000000
B1907293820144S05950214WA0160301644000000000000
B1907333820228S05950114WA0159601637000000000000
B1907373820309S05950008WA0158801628000000000000
B1907413820390S05949906WA0157901619000000000000
B1907453820472S05949807WA0157801621000000000000
B1907493820554S05949712WA0157601615000000000000
B1907533820638S05949620WA0156801603000000015000
B1907573820731S05949535WA0155501590000000015000
B1908013820831S05949462WA0154701586000000015000
B1908053820937S05949405WA0154801592000000015000
B1908093821043S05949357WA0155501605000000015000
B1908133821136S05949299WA0157301625000000015000
B1908173821210S05949222WA0159001643000000000000
B1908213821235S05949122WA0160601664000000015000
B1908253821214S05949039WA0162601682000000015000
B1908293821165S05949019WA0163601692000000000000
B1908333821144S05949075WA0164501699000000000000
B1908373821187S05949134WA0165101707000000015000
B1908413821253S05949101WA0165801714000000015000
B1908453821256S05949018WA0167001727000000000000
B1908493821209S05949001WA0167701735000000015000
B1908533821191S05949058WA0168501743000000015000
B1908573821231S05949110WA0169301751000000015000
B1909013821296S05949089WA0169801758000000015000
B1909053821318S05949007WA0170201763000000015000
B1909093821284S05948948WA0171101774000000015000
B1909133821240S05948963WA0171801778000000015000
B1909173821249S05949030WA0172601790000000000000
B1909213821310S05949041WA0173501797000000015000
B1909253821353S05948974WA0173901797000000015000
B1909293821334S05948898WA0174501806000000015000
B1909333821286S05948887WA0175101811000000015000
B1909373821262S05948940WA0175601816000000015000
B1909413821304S05948998WA0175501810000000015000
B1909453821375S05948965WA0175001806000000015000
B1909493821405S05948864WA0174501799000000000000
B1909533821427S05948754WA0173701788000000000000
B1909573821461S05948637WA0172201774000000000000
B1910013821508S05948520WA0171401767000000000000
B1910053821560S05948406WA0170701764000000000000
B1910093821603S05948291WA0170701765000000000000
B1910133821641S05948177WA0170501763000000000000
B1910173821680S05948062WA0169801753000000000000
B1910213821713S05947943WA0169001742000000000000
B1910253821751S05947822WA0168001733000000000000
B1910293821803S05947709WA0167001720000000000000
B1910333821873S05947607WA0165601706000000000000
B1910373821949S05947510WA0164701697000000000000
B1910413822027S05947412WA0163601686000000000000
B1910453822109S05947319WA0162701678000000000000
B1910493822193S05947230WA0161801667000000015000
B1910533822280S05947142WA0161001655000000000000
B1910573822367S05947051WA0159701643000000000000
B1911013822451S05946957WA0158701634000000000000
B1911053822535S05946866WA0157801622000000000000
B1911093822621S05946781WA0156701613000000000000
B1911133822707S05946692WA0155301595000000000000
B1911173822796S05946601WA0154901594000000000000
B1911213822881S05946508WA0154801594000000000000
B1911253822965S05946413WA0153901583000000015000
B1911293823047S05946315WA0153101578000000015000
B1911333823125S05946215WA0152901570000000015000
B1911373823199S05946111WA0151601557000000015000
B1911413823270S05946003WA0150801553000000015000
B1911453823336S05945899WA0150701558000000015000
B1911493823403S05945802WA0151201560000000015000
B1911533823463S05945698WA0151101560000000015000
B1911573823498S05945578WA0151001554000000015000
B1912013823518S05945448WA0149301534000000000000
B1912053823532S05945313WA0148101522000000000000
B1912093823543S05945178WA0147101512000000000000
B1912133823550S05945044WA0146101501000000000000
B1912173823557S05944911WA0145001491000000000000
B1912213823561S05944780WA0143901478000000000000
B1912253823562S05944647WA0143101472000000000000
B1912293823562S05944516WA0142701471000000000000
B1912333823563S05944385WA0142901464000000000000
B1912373823566S05944251WA0142301460000000000000
B1912413823572S05944118WA0142001454000000000000
B1912453823576S05943983WA0140901436000000000000
B1912493823582S05943844WA0139201422000000000000
B1912533823589S05943705WA0138001411000000000000
B1912573823596S05943564WA0136701394000000000000
B1913013823604S05943421WA0135301382000000000000
B1913053823611S05943278WA0133901368000000000000
B1913093823615S05943135WA0132601355000000000000
B1913133823615S05942992WA0131201342000000000000
B1913173823624S05942857WA0131201349000000000000
B1913213823657S05942735WA0131601357000000000000
B1913253823702S05942628WA0133001379000000000000
B1913293823743S05942532WA0134901397000000000000
B1913333823777S05942437WA0135201390000000000000
B1913373823788S05942335WA0134801388000000000000
B1913413823774S05942238WA0134901390000000000000
B1913453823751S05942146WA0134801385000000015000
B1913493823726S05942045WA0133801377000000015000
B1913533823702S05941942WA0133201370000000000000
B1913573823682S05941838WA0132401358000000000000
B1914013823674S05941726WA0131701357000000000000
B1914053823673S05941614WA0131701353000000000000
B1914093823676S05941499WA0131701356000000000000
B1914133823684S05941383WA0132001362000000000000
B1914173823693S05941269WA0132501368000000000000
B1914213823699S05941159WA0133701391000000000000
B1914253823669S05941083WA0137001419000000015000
B1914293823626S05941087WA0139401453000000015000
B1914333823634S05941150WA0141501462000000015000
B1914373823699S05941179WA0141701461000000015000
B1914413823760S05941127WA0141901468000000015000
B1914453823787S05941045WA0142801485000000015000
B1914493823770S05940981WA0144801505000000015000
B1914533823730S05940996WA0146101513000000000000
B1914573823741S05941067WA0146601523000000015000
B1915013823808S05941089WA0147701532000000015000
B1915053823862S05941032WA0148401541000000015000
B1915093823870S05940959WA0150101562000000000000
B1915133823830S05940944WA0151501574000000015000
B1915173823816S05941002WA0152401582000000000000
B1915213823866S05941054WA0153401594000000015000
B1915253823931S05941025WA0154901612000000015000
B1915293823940S05940955WA0155801617000000015000
B1915333823896S05940946WA0156201623000000015000
B1915373823894S05941016WA0157301642000000015000
B1915413823949S05941057WA0159401656000000015000
B1915453824004S05941010WA0159801655000000015000
B1915493823985S05940947WA0160301668000000015000
B1915533823947S05940968WA0162101686000000015000
B1915573823961S05941038WA0163201690000000015000
B1916013824033S05941063WA0163801700000000015000
B1916053824081S05941002WA0164801715000000015000
B1916093824060S05940942WA0165801720000000015000
B1916133824017S05940970WA0166401728000000000000
B1916173824030S05941044WA0167901744000000000000
B1916213824102S05941063WA0168801753000000015000
B1916253824148S05941001WA0169901763000000015000
B1916293824125S05940940WA0170701769000000015000
B1916333824078S05940962WA0171401778000000015000
B1916373824108S05941036WA0171401771000000015000
B1916413824195S05941031WA0171901792000000015000
B1916453824235S05940962WA0174901820000000015000
B1916493824228S05940892WA0175601819000000015000
B1916533824185S05940856WA0175501819000000000000
B1916573824141S05940884WA0175901826000000000000
B1917013824134S05940958WA0176901838000000000000
B1917053824189S05941012WA0178001848000000015000
B1917093824260S05940986WA0178801856000000015000
B1917133824293S05940910WA0179701870000000015000
B1917173824277S05940843WA0181101881000000015000
B1917213824234S05940834WA0181201877000000000000
B1917253824213S05940897WA0181501886000000015000
B1917293824248S05940967WA0182801899000000015000
B1917333824321S05940981WA0183901905000000015000
B1917373824375S05940920WA0184001907000000000000
B1917413824391S05940828WA0183801897000000015000
B1917453824386S05940723WA0182201875000000000000
B1917493824368S05940613WA0180901867000000000000
B1917533824350S05940502WA0180301859000000000000
B1917573824338S05940386WA0179301848000000000000
B1918013824333S05940265WA0178701845000000000000
B1918053824329S05940143WA0178101837000000000000
B1918093824323S05940019WA0177301830000000000000
B1918133824315S05939893WA0176801820000000000000
B1918173824310S05939766WA0175201801000000000000
B1918213824308S05939633WA0173801781000000000000
B1918253824315S05939498WA0171801768000000000000
B1918293824330S05939363WA0171001754000000000000
B1918333824346S05939226WA0169501743000000000000
B1918373824367S05939091WA0168601735000000000000
B1918413824401S05938960WA0168001729000000000000
B1918453824442S05938830WA0167301722000000000000
B1918493824488S05938701WA0166401713000000000000
B1918533824538S05938576WA0165701706000000000000
B1918573824588S05938453WA0165301700000000000000
B1919013824638S05938329WA0164901693000000000000
B1919053824690S05938208WA0163801681000000000000
B1919093824748S05938091WA0163201683000000000000
B1919133824810S05937985WA0163401686000000000000
B1919173824870S05937881WA0163801691000000000000
B1919213824927S05937777WA0164201694000000000000
B1919253824986S05937678WA0165001706000000000000
B1919293825052S05937595WA0166301720000000000000
B1919333825109S05937514WA0167101727000000015000
B1919373825125S05937422WA0167801735000000000000
B1919413825125S05937332WA0168101736000000000000
B1919453825109S05937246WA0168201736000000000000
B1919493825071S05937170WA0168001729000000000000
B1919533825021S05937101WA0167301721000000000000
B1919573824963S05937034WA0166501711000000015000
B1920013824900S05936972WA0165901707000000015000
B1920053824836S05936907WA0165801709000000000000
B1920093824778S05936838WA0166301711000000000000
B1920133824718S05936769WA0165801704000000000000
B1920173824655S05936704WA0165601708000000000000
B1920213824601S05936634WA0166501723000000000000
B1920253824558S05936559WA0167901739000000000000
B1920293824525S05936477WA0169501758000000000000
B1920333824531S05936390WA0171901787000000000000
B1920373824586S05936355WA0174501804000000000000
B1920413824636S05936395WA0174001781000000000000
B1920453824622S05936472WA0172001770000000000000
B1920493824566S05936488WA0172201776000000000000
B1920533824502S05936486WA0172401778000000000000
B1920573824437S05936468WA0173401789000000000000
B1921013824398S05936405WA0174801805000000000000
B1921053824402S05936321WA0175501806000000000000
B1921093824449S05936245WA0175101805000000015000
B1921133824520S05936212WA0175601819000000015000
B1921173824589S05936226WA0177101830000000015000
B1921213824631S05936288WA0177701836000000000000
B1921253824632S05936365WA0178501843000000000000
B1921293824590S05936395WA0179701860000000000000
B1921333824560S05936342WA0181001868000000000000
B1921373824598S05936274WA0181401870000000000000
B1921413824664S05936284WA0181901882000000000000
B1921453824694S05936348WA0183201893000000000000
B1921493824672S05936401WA0183801896000000000000
B1921533824627S05936381WA0184401904000000000000
B1921573824636S05936308WA0185101910000000000000
B1922013824700S05936282WA0185201911000000000000
B1922053824761S05936321WA0185701920000000000000
B1922093824770S05936392WA0186601927000000000000
B1922133824726S05936423WA0187201933000000000000
B1922173824692S05936369WA0188101944000000000000
B1922213824719S05936295WA0188701947000000000000
B1922253824788S05936287WA0188601941000000000000
B1922293824840S05936358WA0187401918000000000000
B1922333824866S05936468WA0185301902000000000000
B1922373824889S05936589WA0184001883000000000000
B1922413824922S05936719WA0182301856000000000000
B1922453824961S05936855WA0179301829000000000000
B1922493825001S05936997WA0177601813000000000000
B1922533825043S05937141WA0175901796000000000000
B1922573825080S05937285WA0175101793000000000000
B1923013825106S05937430WA0175401804000000000000
B1923053825113S05937570WA0176101808000000000000
B1923093825101S05937699WA0176701816000000000000
B1923133825084S05937825WA0176701805000000000000
B1923173825075S05937957WA0175401790000000000000
B1923213825071S05938094WA0173801777000000000000
B1923253825074S05938233WA0172701764000000000000
B1923293825078S05938373WA0171701758000000000000
B1923333825084S05938511WA0171101752000000000000
B1923373825092S05938650WA0170601744000000000000
B1923413825100S05938788WA0169701734000000000000
B1923453825104S05938929WA0168801721000000000000
B1923493825095S05939070WA0167601709000000000000
B1923533825079S05939212WA0166701704000000015000
B1923573825066S05939354WA0166301698000000015000
B1924013825056S05939497WA0165301685000000015000
B1924053825047S05939637WA0164401680000000015000
B1924093825039S05939775WA0164001679000000015000
B1924133825032S05939910WA0163601672000000015000
B1924173825027S05940045WA0163001666000000015000
B1924213825032S05940180WA0162401660000000015000
B1924253825051S05940312WA0162401673000000015000
B1924293825082S05940430WA0163701682000000015000
B1924333825112S05940544WA0163301673000000015000
B1924373825140S05940664WA0162801664000000015000
B1924413825170S05940788WA0162001659000000015000
B1924453825197S05940914WA0161301649000000015000
B1924493825208S05941042WA0160901647000000015000
B1924533825195S05941170WA0160801653000000015000
B1924573825177S05941287WA0162201680000000000000
B1925013825158S05941387WA0164701697000000000000
B1925053825131S05941479WA0164201675000000000000
B1925093825101S05941587WA0161701643000000000000
B1925133825073S05941707WA0159501623000000000000
B1925173825043S05941834WA0157801610000000000000
B1925213825009S05941959WA0156901604000000000000
B1925253824971S05942081WA0156301600000000000000
B1925293824935S05942201WA0155801596000000000000
B1925333824896S05942319WA0155101584000000000000
B1925373824859S05942440WA0153601569000000000000
B1925413824822S05942562WA0152601561000000000000
B1925453824783S05942684WA0151801553000000000000
B1925493824745S05942806WA0151101545000000000000
B1925533824707S05942930WA0150501538000000000000
B1925573824671S05943055WA0149901531000000000000
B1926013824635S05943180WA0149101523000000000000
B1926053824601S05943302WA0148601523000000000000
B1926093824570S05943425WA0148301515000000000000
B1926133824536S05943547WA0147101502000000000000
B1926173824505S05943670WA0146401496000000000000
B1926213824473S05943792WA0145301478000000000000
B1926253824440S05943917WA0143701466000000000000
B1926293824408S05944040WA0142801455000000000000
B1926333824375S05944164WA0141601442000000000000
B1926373824339S05944285WA0140501433000000000000
B1926413824298S05944402WA0139901429000000000000
B1926453824251S05944512WA0139201419000000000000
B1926493824207S05944621WA0138701420000000000000
B1926533824164S05944725WA0138901427000000000000
B1926573824121S05944824WA0139401428000000000000
B1927013824079S05944924WA0139001419000000000000
B1927053824043S05945031WA0137801405000000000000
B1927093824009S05945141WA0136901402000000000000
B1927133823987S05945254WA0136501394000000000000
B1927173823978S05945377WA0135101376000000000000
B1927213823978S05945504WA0133501358000000000000
B1927253823978S05945631WA0131901340000000000000
B1927293823981S05945761WA0130301327000000000000
B1927333823991S05945890WA0129101315000000000000
B1927373824013S05946020WA0128101302000000000000
B1927413824031S05946149WA0127501302000000000000
B1927453824048S05946272WA0127201294000000000000
B1927493824063S05946398WA0126101285000000000000
B1927533824085S05946519WA0125901288000000000000
B1927573824118S05946631WA0126001284000000000000
B1928013824142S05946748WA0124801267000000000000
B1928053824144S05946870WA0123601257000000000000
B1928093824133S05946991WA0123101252000000000000
B1928133824118S05947112WA0122301244000000015000
B1928173824102S05947232WA0121701238000000015000
B1928213824085S05947353WA0121101233000000015000
B1928253824073S05947476WA0120501227000000015000
B1928293824065S05947600WA0119901216000000015000
B1928333824068S05947724WA0118901210000000015000
B1928373824077S05947848WA0118201197000000015000
B1928413824072S05947969WA0116901186000000015000
B1928453824055S05948086WA0116201181000000015000
B1928493824037S05948203WA0115601169000000000000
B1928533824037S05948326WA0114001155000000000000
B1928573824042S05948451WA0112901142000000000000
B1929013824051S05948573WA0111601128000000000000
B1929053824065S05948699WA0110101113000000000000
B1929093824090S05948822WA0109101108000000000000
B1929133824116S05948939WA0109601126000000000000
B1929173824138S05949041WA0111801155000000000000
B1929213824170S05949122WA0114101173000000000000
B1929253824241S05949132WA0115601188000000015000
B1929293824284S05949067WA0116201192000000000000
B1929333824289S05948988WA0116701197000000000000
B1929373824254S05948941WA0116801198000000000000
B1929413824203S05948950WA0116601191000000000000
B1929453824151S05948983WA0116401194000000000000
B1929493824105S05949033WA0116501201000000000000
B1929533824087S05949108WA0118001221000000000000
B1929573824115S05949182WA0119701236000000000000
B1930013824182S05949189WA0120901247000000015000
B1930053824219S05949124WA0121201251000000000000
B1930093824199S05949061WA0121901263000000015000
B1930133824159S05949057WA0123401279000000015000
B1930173824151S05949122WA0124601285000000015000
B1930213824206S05949169WA0125201292000000015000
B1930253824265S05949131WA0125801298000000015000
B1930293824263S05949059WA0126301306000000015000
B1930333824220S05949036WA0127501320000000015000
B1930373824207S05949097WA0128801330000000000000
B1930413824264S05949143WA0129001330000000015000
B1930453824317S05949093WA0129901342000000015000
B1930493824312S05949019WA0130601346000000015000
B1930533824277S05948981WA0131701358000000015000
B1930573824241S05949013WA0132801367000000000000
B1931013824248S05949084WA0133201371000000000000
B1931053824310S05949127WA0133301373000000015000
B1931093824367S05949087WA0134001383000000015000
B1931133824360S05949023WA0134801390000000015000
B1931173824321S05949026WA0135701401000000000000
B1931213824317S05949091WA0136301403000000000000
B1931253824371S05949136WA0136701410000000000000
B1931293824427S05949100WA0137301415000000015000
B1931333824438S05949030WA0137501420000000000000
B1931373824408S05948989WA0138401428000000015000
B1931413824375S05949024WA0139001432000000015000
B1931453824398S05949096WA0139001432000000015000
B1931493824466S05949105WA0139701441000000015000
B1931533824501S05949045WA0140101441000000015000
B1931573824471S05948993WA0139901439000000015000
B1932013824419S05948997WA0140201450000000000000
B1932053824398S05949054WA0141401463000000000000
B1932093824437S05949114WA0142101462000000000000
B1932133824505S05949106WA0142201466000000000000
B1932173824549S05949046WA0142901475000000000000
B1932213824554S05948975WA0143601482000000000000
B1932253824518S05948946WA0144101484000000000000
B1932293824488S05949006WA0143201469000000015000
B1932333824482S05949108WA0141301453000000000000
B1932373824485S05949219WA0140401449000000000000
B1932413824510S05949322WA0141101463000000000000
B1932453824546S05949420WA0140601448000000000000
B1932493824567S05949530WA0139101438000000000000
B1932533824567S05949642WA0139101438000000000000
B1932573824562S05949751WA0139001436000000000000
B1933013824559S05949854WA0139401453000000000000
B1933053824562S05949942WA0141501467000000000000
B1933093824564S05950029WA0141601457000000000000
B1933133824555S05950132WA0139401435000000000000
B1933173824542S05950239WA0137901422000000000000
B1933213824527S05950348WA0136801409000000000000
B1933253824508S05950456WA0136101406000000000000
B1933293824486S05950561WA0135401391000000000000
B1933333824462S05950668WA0133901378000000000000
B1933373824436S05950774WA0133201370000000000000
B1933413824410S05950879WA0132701364000000000000
B1933453824378S05950981WA0131901354000000000000
B1933493824347S05951084WA0131201349000000000000
B1933533824319S05951189WA0130701346000000000000
B1933573824297S05951295WA0130601347000000000000
B1934013824281S05951401WA0131201361000000000000
B1934053824272S05951496WA0134301400000000000000
B1934093824312S05951562WA0137501429000000015000
B1934133824376S05951552WA0138801428000000015000
B1934173824401S05951480WA0137601410000000015000
B1934213824354S05951440WA0136301402000000000000
B1934253824294S05951483WA0136201407000000000000
B1934293824250S05951545WA0138201427000000000000
B1934333824212S05951592WA0140601455000000000000
B1934373824176S05951558WA0142101465000000000000
B1934413824198S05951493WA0142201461000000000000
B1934453824267S05951490WA0141201447000000000000
B1934493824310S05951567WA0140201440000000000000
B1934533824304S05951669WA0139001422000000000000
B1934573824267S05951767WA0137301406000000000000
B1935013824219S05951866WA0136001395000000000000
B1935053824167S05951964WA0135701389000000000000
B1935093824111S05952061WA0134701380000000000000
B1935133824056S05952156WA0134301380000000000000
B1935173824001S05952246WA0134301377000000000000
B1935213823947S05952335WA0133501368000000000000
B1935253823890S05952421WA0133001363000000000000
B1935293823830S05952503WA0132301358000000000000
B1935333823771S05952588WA0132001353000000000000
B1935373823714S05952672WA0131601348000000000000
B1935413823656S05952753WA0130901342000000000000
B1935453823597S05952831WA0130101331000000000000
B1935493823539S05952907WA0129301330000000000000
B1935533823483S05952983WA0129901336000000000000
B1935573823431S05953053WA0130101337000000000000
B1936013823376S05953123WA0129101319000000000000
B1936053823320S05953197WA0127701308000000000000
B1936093823266S05953274WA0127001302000000000000
B1936133823212S05953352WA0126501298000000000000
B1936173823162S05953430WA0126101294000000000000
B1936213823108S05953508WA0125701287000000000000
B1936253823054S05953590WA0124901278000000000000
B1936293823006S05953680WA0124301274000000000000
B1936333822968S05953778WA0124001272000000000000
B1936373822937S05953884WA0123401270000000000000
B1936413822908S05953990WA0123401268000000000000
B1936453822882S05954098WA0123301269000000000000
B1936493822854S05954205WA0123401271000000000000
B1936533822828S05954308WA0123801270000000000000
B1936573822803S05954413WA0122801254000000000000
B1937013822782S05954521WA0121801248000000000000
B1937053822760S05954626WA0121201240000000000000
B1937093822737S05954731WA0120101229000000000000
B1937133822711S05954834WA0119401223000000000000
B1937173822685S05954937WA0118801216000000000000
B1937213822664S05955042WA0118101204000000000000
B1937253822646S05955150WA0116901193000000000000
B1937293822630S05955258WA0116101187000000000000
B1937333822617S05955367WA0115401179000000000000
B1937373822607S05955479WA0114701173000000000000
B1937413822603S05955592WA0114001165000000000000
B1937453822599S05955704WA0113601163000000000000
B1937493822595S05955812WA0113901171000000000000
B1937533822591S05955913WA0114201167000000000000
B1937573822587S05956014WA0113401158000000000000
B1938013822579S05956117WA0113101155000000000000
B1938053822571S05956221WA0112901154000000000000
B1938093822562S05956325WA0113001156000000000000
B1938133822547S05956427WA0113201158000000000000
B1938173822530S05956527WA0113001153000000000000
B1938213822506S05956625WA0112301143000000000000
B1938253822487S05956728WA0111401135000000000000
B1938293822466S05956832WA0110901135000000000000
B1938333822444S05956934WA0110901135000000000000
B1938373822423S05957032WA0110901134000000000000
B1938413822393S05957127WA0110701127000000000000
B1938453822365S05957226WA0109701117000000000000
B1938493822343S05957331WA0109001111000000000000
B1938533822322S05957435WA0108201104000000000000
B1938573822304S05957539WA0107701099000000000000
B1939013822287S05957639WA0107101094000000000000
