ACAM3FF
HFDTE070125
HFFXA050
HFPLTPILOT:Ole Refsgaard           
HFGTYGLIDERTYPE:Nimbus 4T   
HFGIDGLIDERID:OY-LIX 4T   
HFDTM100GPSDATUM:
HFRFWFIRMWAREVERSION:F2.6
HFRHWHARDWAREVERSION:300 Series Version 2
HFFTYFRTYPE:CAMBRIDGE AERO INSTRUMENTS, 302+
HFGPS:GARMIN,LVS-25,12,18000
HFPRSPRESSALTSENSOR:INTERSEMA, MS5534-AP, 20000
I033638FXA3941ENL4247REX
LCAMSBVER:5FWVER:F26300
C230423093639230423000103
C0000000N00000000WTAKEOFF     
C5600850N00859833E0001ArnborgR
C5555633N00940883E0761NimKrk  
C5637383N00946250E0152FyrkatBr
C5558083N00944933E0170Oestbirk
C5600633N00900867E0851ArnborgF
C0000000N00000000WLANDING     
B1608583801982S06007835WA0020400191000048000000
B1609003801982S06007835WA0020300191000048000000
B1609023801982S06007835WA0020400191000044000000
B1609043801982S06007835WA0020300191000044000000
B1609063801982S06007835WA0020400191000052000000
B1609083801982S06007835WA0020400191000044000000
B1609103801982S06007835WA0020500191000040000000
B1609123801982S06007835WA0020400191000040000000
B1609143801982S06007835WA0020400191000032000000
B1609163801982S06007835WA0020400191000028000000
B1609183801982S06007835WA0020400191000024000000
B1609203801982S06007835WA0020400191000024000000
B1609223801982S06007835WA0020400191000024000000
B1609243801982S06007835WA0020400191000044000000
B1609263801981S06007837WA0020400191000144000000
B1609313801968S06007855WA0020500192000772000000
B1609353801947S06007885WA0020600192000996000000
B1609393801918S06007926WA0020600193000808000000
B1609433801882S06007978WA0020800193000652000000
B1609473801839S06008036WA0021200199000496000000
B1609513801796S06008094WA0022200212000416000000
B1609553801755S06008155WA0023000226000308000000
B1609593801713S06008220WA0023600233000236000000
B1610033801667S06008285WA0024200240000184000000
B1610073801618S06008349WA0025000248000144000000
B1610113801573S06008418WA0025800257000120000000
B1610153801528S06008493WA0026800269000116000000
B1610193801488S06008571WA0028000284000104000000
B1610233801463S06008660WA0029400300000100000000
B1610273801453S06008753WA0031100314000096000000
B1610313801452S06008848WA0032200328000096000000
B1610353801456S06008946WA0033500338000092000000
B1610393801461S06009043WA0034100342000092000000
B1610433801470S06009143WA0034700352000092000000
B1610473801479S06009243WA0035900364000092000000
B1610513801488S06009341WA0037300380000088000000
B1610553801495S06009440WA0038600393000088000000
B1610593801495S06009540WA0040100412000096000000
B1611033801491S06009636WA0041500423000104000000
B1611073801484S06009732WA0043100439000108000000
B1611113801478S06009828WA0044400449000100000000
B1611153801471S06009923WA0045300459000100000000
B1611193801461S06010014WA0046300472000092000000
B1611233801445S06010103WA0047500483000092000000
B1611273801428S06010190WA0048400491000092000000
B1611313801396S06010270WA0048900496000088000000
B1611353801350S06010337WA0049500504000088000000
B1611393801302S06010400WA0050600517000088000000
B1611433801251S06010459WA0051800528000088000000
B1611473801189S06010485WA0053000541000084000000
B1611513801121S06010482WA0053800547000084000000
B1611553801050S06010478WA0054700560000088000000
B1611593800977S06010468WA0056300580000100000000
B1612033800908S06010444WA0058100605000104000000
B1612073800847S06010402WA0060200620000104000000
B1612113800794S06010350WA0062000640000104000000
B1612153800744S06010295WA0063900659000104000000
B1612193800699S06010236WA0065500675000096000000
B1612233800656S06010174WA0066500685000084000000
B1612273800618S06010105WA0067400693000084000000
B1612313800586S06010030WA0068300704000084000000
B1612353800555S06009952WA0068800708000080000000
B1612393800525S06009871WA0069200714000080000000
B1612433800500S06009788WA0070300724000084000000
B1612473800475S06009714WA0071200732000084000000
B1612513800432S06009687WA0071500736000068000000
B1612553800392S06009718WA0072100739000064000000
B1612593800364S06009768WA0072100740000044000000
B1613033800353S06009831WA0072300741000036000000
B1613073800369S06009898WA0072100739000032000000
B1613113800403S06009963WA0072100737000028000000
B1613153800449S06010018WA0071800734000028000000
B1613193800503S06010067WA0071400729000024000000
B1613233800557S06010117WA0070700719000024000000
B1613273800614S06010164WA0070000713000024000000
B1613313800678S06010194WA0069200705000024000000
B1613353800748S06010195WA0068400698000024000000
B1613393800821S06010175WA0067600686000024000000
B1613433800895S06010151WA0066500676000032000000
B1613473800972S06010125WA0066100672000032000000
B1613513801049S06010103WA0065700665000032000000
B1613553801128S06010095WA0064900656000032000000
B1613593801209S06010103WA0064500658000032000000
B1614033801287S06010112WA0065100668000036000000
B1614073801365S06010119WA0066100678000040000000
B1614113801440S06010103WA0067200688000040000000
B1614153801504S06010051WA0068300699000044000000
B1614193801524S06009974WA0069200710000044000000
B1614233801488S06009931WA0070200717000040000000
B1614273801452S06009962WA0070500722000040015000
B1614313801469S06010034WA0071100726000040015000
B1614353801522S06010090WA0071500730000036015000
B1614393801596S06010108WA0072200736000040030000
B1614433801641S06010044WA0072800740000040030000
B1614473801608S06010004WA0073500751000044045000
B1614513801580S06010056WA0074500763000040045000
B1614553801626S06010116WA0075600772000040045000
B1614593801691S06010088WA0076300778000040060000
B1615033801713S06010013WA0076500778000040075000
B1615073801688S06009953WA0076700782000040075000
B1615113801647S06009982WA0077000784000044060000
B1615153801669S06010056WA0077100791000044045000
B1615193801742S06010061WA0077900800000044060000
B1615233801773S06009993WA0078100801000044060000
B1615273801736S06009953WA0078600805000044060000
B1615313801690S06009974WA0078600803000044045000
B1615353801645S06010023WA0078200804000048030000
B1615393801640S06010101WA0079500820000048030000
B1615433801709S06010136WA0080900839000052030000
B1615473801756S06010075WA0082700857000048030000
B1615513801730S06010023WA0083800866000044045000
B1615553801697S06010064WA0084500879000048045000
B1615593801736S06010121WA0086000894000048045000
B1616033801801S06010092WA0087300908000044060000
B1616073801807S06010022WA0088500915000044060000
B1616113801762S06010012WA0089000912000040060000
B1616153801755S06010082WA0089300919000048045000
B1616193801820S06010119WA0089900926000048060000
B1616233801878S06010061WA0090700937000048060000
B1616273801857S06009999WA0092000950000048060000
B1616313801809S06010012WA0093000953000048045000
B1616353801800S06010077WA0093700962000052045000
B1616393801860S06010114WA0094200962000048045000
B1616433801924S06010065WA0094200971000048045000
B1616473801925S06009987WA0095300983000048045000
B1616513801881S06009967WA0096300989000044060000
B1616553801853S06010027WA0096400992000048045000
B1616593801875S06010103WA0096700996000048045000
B1617033801942S06010140WA0097301005000048045000
B1617073802020S06010122WA0097501004000048045000
B1617113802082S06010060WA0097901014000052030000
B1617153802103S06009975WA0098501016000044030000
B1617193802072S06009909WA0098401013000044030000
B1617233802015S06009884WA0098001008000056030000
B1617273801956S06009910WA0097501006000068030000
B1617313801921S06009983WA0097701008000068015000
B1617353801926S06010071WA0097801007000064015000
B1617393801969S06010155WA0097201002000072015000
B1617433802041S06010207WA0097501006000064015000
B1617473802125S06010196WA0098101011000056015000
B1617513802177S06010121WA0098501020000052030000
B1617553802156S06010049WA0099701030000048030000
B1617593802103S06010060WA0100301039000048045000
B1618033802103S06010136WA0101401054000044045000
B1618073802168S06010178WA0102601063000040045000
B1618113802238S06010139WA0103101065000044045000
B1618153802256S06010056WA0103601070000044060000
B1618193802216S06010002WA0104001074000044060000
B1618233802163S06010021WA0105001084000048060000
B1618273802151S06010095WA0106001093000048045000
B1618313802195S06010165WA0106001089000048045000
B1618353802273S06010187WA0106001092000056045000
B1618393802346S06010149WA0106401099000052045000
B1618433802372S06010070WA0107101098000048060000
B1618473802343S06010000WA0106601093000048060000
B1618513802289S06009969WA0106801097000048045000
B1618553802238S06009983WA0107701111000048030000
B1618593802219S06010049WA0108001111000052030000
B1619033802243S06010127WA0107501107000056030000
B1619073802307S06010186WA0107201105000052015000
B1619113802386S06010214WA0107001106000052015000
B1619153802468S06010209WA0108001120000052015000
B1619193802532S06010161WA0109001125000052015000
B1619233802549S06010084WA0108901119000052015000
B1619273802512S06010023WA0108001108000048015000
B1619313802454S06009992WA0107101104000056015000
B1619353802395S06009980WA0107901113000056015000
B1619393802343S06010004WA0108401119000056015000
B1619433802328S06010074WA0108801123000056015000
B1619473802353S06010149WA0109401129000052015000
B1619513802418S06010197WA0109401129000048015000
B1619553802497S06010197WA0109101125000048015000
B1619593802563S06010148WA0109301129000044015000
B1620033802590S06010069WA0110001136000040015000
B1620073802563S06010008WA0110301134000040015000
B1620113802511S06010008WA0110001131000044030000
B1620153802468S06010056WA0110301138000048015000
B1620193802440S06010122WA0110801145000048015000
B1620233802437S06010201WA0111301150000044015000
B1620273802466S06010282WA0111401151000048015000
B1620313802519S06010347WA0111701155000044015000
B1620353802594S06010386WA0112001157000044015000
B1620393802675S06010376WA0112401163000044015000
B1620433802726S06010305WA0113001163000044015000
B1620473802706S06010230WA0113001164000052015000
B1620513802653S06010227WA0113301169000052030000
B1620553802645S06010305WA0113901177000052030000
B1620593802713S06010353WA0114201180000052030000
B1621033802779S06010303WA0114201177000052045000
B1621073802754S06010230WA0114101174000056045000
B1621113802702S06010248WA0114601190000052045000
B1621153802696S06010325WA0116001198000060045000
B1621193802730S06010403WA0116101206000060045000
B1621233802797S06010435WA0116801215000056045000
B1621273802856S06010392WA0117501220000048045000
B1621313802865S06010317WA0117601216000044045000
B1621353802827S06010269WA0117101210000044045000
B1621393802776S06010288WA0116601209000044045000
B1621433802757S06010360WA0116501204000052045000
B1621473802763S06010446WA0116401205000056030000
B1621513802808S06010519WA0116501209000052030000
B1621553802889S06010520WA0117201220000048030000
B1621593802926S06010444WA0118501230000048030000
B1622033802889S06010390WA0119201241000044045000
B1622073802843S06010416WA0120401246000044045000
B1622113802830S06010491WA0120501247000064030000
B1622153802850S06010577WA0120601245000068030000
B1622193802913S06010639WA0120401243000068030000
B1622233802995S06010636WA0120401246000060030000
B1622273803029S06010558WA0121201255000056030000
B1622313802987S06010516WA0122001260000060030000
B1622353802944S06010559WA0122301266000064045000
B1622393802966S06010637WA0123101275000060045000
B1622433803039S06010671WA0123101271000052045000
B1622473803122S06010660WA0123101274000052030000
B1622513803195S06010613WA0123401278000052030000
B1622553803246S06010541WA0123501276000060030000
B1622593803276S06010456WA0123401274000060015000
B1623033803287S06010370WA0123201271000064015000
B1623073803286S06010283WA0123301274000060015000
B1623113803270S06010199WA0123301273000068015000
B1623153803243S06010118WA0123301270000060015000
B1623193803201S06010053WA0123201270000056015000
B1623233803144S06010027WA0123601276000052015000
B1623273803087S06010041WA0124201282000056015000
B1623313803039S06010091WA0124601284000056015000
B1623353803026S06010174WA0124701287000048015000
B1623393803071S06010251WA0125601298000048015000
B1623433803148S06010269WA0126501305000048015000
B1623473803214S06010221WA0127001311000044030000
B1623513803243S06010138WA0127301315000048015000
B1623553803229S06010061WA0128101322000052015000
B1623593803182S06010030WA0128201323000068015000
B1624033803133S06010060WA0128401324000068015000
B1624073803104S06010127WA0128301322000056015000
B1624113803117S06010212WA0128501330000060015000
B1624153803174S06010270WA0129201334000064015000
B1624193803251S06010277WA0129101332000064015000
B1624233803328S06010234WA0129001328000064015000
B1624273803386S06010160WA0128501328000056015000
B1624313803416S06010066WA0128901332000064015000
B1624353803400S06009986WA0129401339000060015000
B1624393803350S06009950WA0129901340000052015000
B1624433803295S06009974WA0130101340000052030000
B1624473803259S06010036WA0130101341000044015000
B1624513803253S06010122WA0130101343000040015000
B1624553803285S06010205WA0130401346000044015000
B1624593803339S06010270WA0130301347000040015000
B1625033803417S06010288WA0130801351000040015000
B1625073803489S06010243WA0131101355000044015000
B1625113803524S06010164WA0131401355000044015000
B1625153803510S06010083WA0131301353000052015000
B1625193803465S06010031WA0131101350000056015000
B1625233803406S06010027WA0130701346000076015000
B1625273803350S06010065WA0130501345000080015000
B1625313803315S06010136WA0130101340000084015000
B1625353803321S06010229WA0129901338000084015000
B1625393803367S06010312WA0129801339000076015000
B1625433803445S06010350WA0130401350000084015000
B1625473803528S06010331WA0130901356000104015000
B1625513803597S06010265WA0131701359000084015000
B1625553803638S06010175WA0131901362000080015000
B1625593803640S06010083WA0132101365000068015000
B1626033803599S06010026WA0132601365000076015000
B1626073803543S06010031WA0132601363000068015000
B1626113803494S06010075WA0131801357000056015000
B1626153803456S06010145WA0131201349000060015000
B1626193803451S06010235WA0130801352000060015000
B1626233803493S06010314WA0131101354000056015000
B1626273803568S06010357WA0131501359000052015000
B1626313803653S06010387WA0132001365000052015000
B1626353803740S06010407WA0133101380000056015000
B1626393803822S06010374WA0134501393000060015000
B1626433803848S06010288WA0136301416000072015000
B1626473803810S06010246WA0138001427000080030000
B1626513803775S06010290WA0138401433000084030000
B1626553803788S06010368WA0139201440000088030000
B1626593803849S06010416WA0139901453000072030000
B1627033803918S06010383WA0141101463000056030000
B1627073803936S06010304WA0141701469000048045000
B1627113803897S06010262WA0142701480000060045000
B1627153803861S06010305WA0143801491000056045000
B1627193803870S06010382WA0144501498000056045000
B1627233803931S06010429WA0145301506000056045000
B1627273804007S06010413WA0145801508000056045000
B1627313804059S06010344WA0146001513000056030000
B1627353804074S06010257WA0146601517000056030000
B1627393804043S06010192WA0147501523000060030000
B1627433803991S06010186WA0147201518000068030000
B1627473803946S06010230WA0146701520000064030000
B1627513803929S06010301WA0147201526000060015000
B1627553803949S06010382WA0147701529000060015000
B1627593804011S06010438WA0147801531000052015000
B1628033804092S06010448WA0147901533000052015000
B1628073804169S06010415WA0148501538000052015000
B1628113804225S06010348WA0149001540000048015000
B1628153804231S06010260WA0148901539000072015000
B1628193804193S06010192WA0148901539000068015000
B1628233804134S06010177WA0149001538000060015000
B1628273804083S06010213WA0149101539000060030000
B1628313804053S06010279WA0149401545000068015000
B1628353804065S06010359WA0149801549000052015000
B1628393804123S06010418WA0150501557000052015000
B1628433804201S06010447WA0151301565000052015000
B1628473804284S06010438WA0152201577000052015000
B1628513804344S06010377WA0153101587000048015000
B1628553804362S06010295WA0153601588000048015000
B1628593804351S06010216WA0153501584000048015000
B1629033804317S06010155WA0153401585000052015000
B1629073804266S06010144WA0153801589000060015000
B1629113804227S06010178WA0154001593000056015000
B1629153804225S06010248WA0154001590000052015000
B1629193804261S06010324WA0153601584000052015000
B1629233804303S06010405WA0152601577000060015000
B1629273804365S06010477WA0153001586000064015000
B1629313804443S06010463WA0154101600000060015000
B1629353804455S06010392WA0155601612000056015000
B1629393804417S06010363WA0155801608000056015000
B1629433804369S06010377WA0155201604000052015000
B1629473804321S06010420WA0154901604000052015000
B1629513804275S06010477WA0154901600000056015000
B1629553804225S06010541WA0154901601000052015000
B1629593804173S06010607WA0154801598000048015000
B1630033804119S06010678WA0154101592000052015000
B1630073804063S06010756WA0153601586000052015000
B1630113804010S06010838WA0153401585000052015000
B1630153803958S06010920WA0153101580000056015000
B1630193803907S06010998WA0152901582000056000000
B1630233803859S06011074WA0152901578000048000000
B1630273803807S06011144WA0152201567000048000000
B1630313803747S06011205WA0150501548000052000000
B1630353803681S06011256WA0149001536000056000000
B1630393803608S06011288WA0148501533000064000000
B1630433803538S06011315WA0148501534000060000000
B1630473803486S06011374WA0149001544000052000000
B1630513803480S06011460WA0150501560000060000000
B1630553803529S06011530WA0151501570000056015000
B1630593803607S06011542WA0152501578000052015000
B1631033803673S06011488WA0152701578000052030000
B1631073803693S06011399WA0152901585000060030000
B1631113803659S06011341WA0154001593000056030000
B1631153803608S06011348WA0154101595000052030000
B1631193803581S06011404WA0154301600000044030000
B1631233803614S06011469WA0154901605000044030000
B1631273803688S06011474WA0155401611000040030000
B1631313803740S06011408WA0155501613000036030000
B1631353803727S06011334WA0156101621000040030000
B1631393803679S06011327WA0156901626000036030000
B1631433803662S06011387WA0157201630000036030000
B1631473803708S06011443WA0157701635000036030000
B1631513803779S06011417WA0158201638000036030000
B1631553803789S06011334WA0158201634000040030000
B1631593803741S06011302WA0158201635000040045000
B1632033803705S06011344WA0158501638000040030000
B1632073803727S06011410WA0159001644000040030000
B1632113803797S06011412WA0159501647000036030000
B1632153803835S06011334WA0159501642000036045000
B1632193803807S06011261WA0158701640000036045000
B1632233803755S06011274WA0159301649000036045000
B1632273803746S06011343WA0159801652000040030000
B1632313803799S06011392WA0160001658000040030000
B1632353803872S06011366WA0160401660000040045000
B1632393803911S06011284WA0160301661000040045000
B1632433803887S06011213WA0160401664000040045000
B1632473803833S06011209WA0161001664000040045000
B1632513803801S06011263WA0160901666000040030000
B1632553803802S06011335WA0160901664000040030000
B1632593803855S06011391WA0160601664000040030000
B1633033803929S06011370WA0160901670000040030000
B1633073803958S06011287WA0161501671000044030000
B1633113803924S06011226WA0162001681000040030000
B1633153803875S06011227WA0162701685000040030000
B1633193803850S06011279WA0162701682000036030000
B1633233803862S06011349WA0161901671000032015000
B1633273803915S06011406WA0160601662000032015000
B1633313803991S06011405WA0160701666000036015000
B1633353804043S06011344WA0161401675000044030000
B1633393804046S06011266WA0161901670000044030000
B1633433804005S06011218WA0161301665000048030000
B1633473803952S06011235WA0160901666000048030000
B1633513803926S06011296WA0160901662000048030000
B1633553803948S06011370WA0160401659000044015000
B1633593804015S06011399WA0160001650000040030000
B1634033804091S06011374WA0159301645000040015000
B1634073804143S06011305WA0159501652000040015000
B1634113804145S06011223WA0160301656000036015000
B1634153804106S06011178WA0160001652000044015000
B1634193804057S06011197WA0159901650000048030000
B1634233804031S06011257WA0159601646000048015000
B1634273804044S06011332WA0158901637000044015000
B1634313804104S06011380WA0157901629000040015000
B1634353804179S06011364WA0157201624000040015000
B1634393804232S06011293WA0157001621000036030000
B1634433804239S06011206WA0156901619000036030000
B1634473804208S06011133WA0157001620000072015000
B1634513804156S06011109WA0156901620000068015000
B1634553804108S06011143WA0156501613000068015000
B1634593804089S06011217WA0155701604000072015000
B1635033804104S06011304WA0154701593000068015000
B1635073804145S06011386WA0153601584000060015000
B1635113804213S06011439WA0153101582000064015000
B1635153804293S06011442WA0153401586000056015000
B1635193804362S06011393WA0153201583000056015000
B1635233804396S06011310WA0153001579000056015000
B1635273804394S06011223WA0153101582000056015000
B1635313804365S06011150WA0153201581000048015000
B1635353804318S06011104WA0152601574000044015000
B1635393804262S06011096WA0152201570000060015000
B1635433804223S06011145WA0152101572000052015000
B1635473804226S06011221WA0152201569000044015000
B1635513804270S06011286WA0151401560000036015000
B1635553804340S06011312WA0150801558000036015000
B1635593804410S06011288WA0150501554000032015000
B1636033804464S06011224WA0149901550000032015000
B1636073804491S06011144WA0149701548000032015000
B1636113804488S06011062WA0149701548000036015000
B1636153804469S06010992WA0150001551000040015000
B1636193804436S06010937WA0150301549000040015000
B1636233804391S06010918WA0149701545000040015000
B1636273804345S06010938WA0149201539000040015000
B1636313804314S06010989WA0148701532000044015000
B1636353804305S06011061WA0148001526000052000000
B1636393804331S06011136WA0147501521000052000000
B1636433804396S06011176WA0147001517000044015000
B1636473804468S06011149WA0146401511000044015000
B1636513804494S06011074WA0146201510000044015000
B1636553804464S06011018WA0145801501000040015000
B1636593804410S06011006WA0144401490000036015000
B1637033804353S06011022WA0143401480000040015000
B1637073804296S06011050WA0142501469000052015000
B1637113804240S06011087WA0141601457000052015000
B1637153804180S06011128WA0140301443000044015000
B1637193804118S06011172WA0139001429000044015000
B1637233804052S06011218WA0137901416000044015000
B1637273803983S06011262WA0137001406000044015000
B1637313803911S06011292WA0136301405000048015000
B1637353803841S06011292WA0136601407000052015000
B1637393803779S06011300WA0137501426000052000000
B1637433803747S06011360WA0139201441000044015000
B1637473803760S06011436WA0140201451000044000000
B1637513803822S06011487WA0140801461000048015000
B1637553803900S06011473WA0141801471000048015000
B1637593803950S06011403WA0142501474000044015000
B1638033803946S06011326WA0143201484000040015000
B1638073803906S06011306WA0143801490000040030000
B1638113803877S06011351WA0144201494000040015000
B1638153803889S06011422WA0144401493000040015000
B1638193803942S06011481WA0144601500000052015000
B1638233804023S06011490WA0145601507000048015000
B1638273804097S06011447WA0146401518000048030000
B1638313804137S06011367WA0146801516000044030000
B1638353804143S06011279WA0146401513000044030000
B1638393804111S06011215WA0147301522000048030000
B1638433804066S06011191WA0147901528000048015000
B1638473804023S06011219WA0148101530000060015000
B1638513804019S06011295WA0148001527000072015000
B1638553804079S06011357WA0147801529000064015000
B1638593804165S06011373WA0148201534000056030000
B1639033804248S06011343WA0148701539000052030000
B1639073804291S06011260WA0149301544000048030000
B1639113804266S06011195WA0149701548000044030000
B1639153804227S06011217WA0150401553000044030000
B1639193804238S06011286WA0150401555000040030000
B1639233804308S06011309WA0151001561000040030000
B1639273804362S06011247WA0151201564000044030000
B1639313804349S06011176WA0151201562000044030000
B1639353804305S06011161WA0151401563000048030000
B1639393804265S06011188WA0151201563000048030000
B1639433804249S06011245WA0151601567000044015000
B1639473804287S06011310WA0151901568000044015000
B1639513804366S06011323WA0151901574000044015000
B1639553804427S06011262WA0152901583000044030000
B1639593804438S06011182WA0152601575000044030000
B1640033804400S06011141WA0152201571000048030000
B1640073804364S06011169WA0152001569000048030000
B1640113804364S06011236WA0151901570000040030000
B1640153804409S06011297WA0152101573000044015000
B1640193804486S06011301WA0152301577000044015000
B1640233804543S06011239WA0152701578000060030000
B1640273804546S06011158WA0152701577000052030000
B1640313804511S06011122WA0152601577000048030000
B1640353804478S06011150WA0152601576000040030000
B1640393804479S06011213WA0152601576000040015000
B1640433804525S06011271WA0152701577000048015000
B1640473804603S06011274WA0152401580000044015000
B1640513804660S06011211WA0153101586000044015000
B1640553804670S06011131WA0153101582000044030000
B1640593804639S06011081WA0153101587000048030000
B1641033804602S06011087WA0153401588000064015000
B1641073804582S06011145WA0153101583000064015000
B1641113804587S06011218WA0153201587000072015000
B1641153804643S06011269WA0153401591000060015000
B1641193804713S06011235WA0154001598000052015000
B1641233804717S06011163WA0154501604000048015000
B1641273804676S06011150WA0154501598000048030000
B1641313804654S06011204WA0154001596000060030000
B1641353804694S06011266WA0153801600000052030000
B1641393804768S06011258WA0154301599000048030000
B1641433804811S06011184WA0153801595000048030000
B1641473804791S06011123WA0154001595000044030000
B1641513804756S06011135WA0153801591000044030000
B1641553804765S06011197WA0153501588000044030000
B1641593804828S06011237WA0153601592000052030000
B1642033804902S06011211WA0153401586000056030000
B1642073804946S06011132WA0152801582000056030000
B1642113804929S06011057WA0153201591000048030000
B1642153804890S06011046WA0154101596000048030000
B1642193804864S06011087WA0153901595000044030000
B1642233804842S06011145WA0153001583000056030000
B1642273804815S06011206WA0151601564000052015000
B1642313804778S06011263WA0150101551000048015000
B1642353804730S06011305WA0148801538000048015000
B1642393804676S06011335WA0147801529000048015000
B1642433804620S06011366WA0146901521000044015000
B1642473804564S06011404WA0146701523000040015000
B1642513804512S06011443WA0147501532000044015000
B1642553804468S06011488WA0148901552000056015000
B1642593804433S06011538WA0151401574000048015000
B1643033804442S06011609WA0152701588000040015000
B1643073804504S06011647WA0153601595000036015000
B1643113804568S06011607WA0154501608000036015000
B1643153804572S06011536WA0155801620000044015000
B1643193804527S06011538WA0156501627000044030000
B1643233804538S06011609WA0157801641000044030000
B1643273804607S06011631WA0159301651000048030000
B1643313804656S06011565WA0160301662000048030000
B1643353804626S06011512WA0161401675000040030000
B1643393804596S06011559WA0163001689000040030000
B1643433804639S06011622WA0164301703000048030000
B1643473804711S06011595WA0165401717000044030000
B1643513804709S06011518WA0166701728000044030000
B1643553804665S06011526WA0168001744000056030000
B1643593804676S06011601WA0169301753000044030000
B1644033804748S06011621WA0170601769000040030000
B1644073804782S06011546WA0172001780000040030000
B1644113804739S06011510WA0172901790000040045000
B1644153804712S06011570WA0173901803000044045000
B1644193804756S06011635WA0175401820000044045000
B1644233804828S06011609WA0177201834000052030000
B1644273804834S06011533WA0178101840000048030000
B1644313804786S06011531WA0178701845000052045000
B1644353804786S06011611WA0179101853000056045000
B1644393804859S06011642WA0180701874000048045000
B1644433804903S06011577WA0182201881000044045000
B1644473804875S06011517WA0182501887000040045000
B1644513804832S06011538WA0183901901000052030000
B1644553804837S06011609WA0185201907000044030000
B1644593804903S06011651WA0185601911000048030000
B1645033804972S06011611WA0186101923000048030000
B1645073804980S06011535WA0187401938000044030000
B1645113804940S06011513WA0188501950000044030000
B1645153804917S06011569WA0189701960000040030000
B1645193804953S06011638WA0190601968000040030000
B1645233805027S06011638WA0191601979000036030000
B1645273805066S06011572WA0192601991000036030000
B1645313805045S06011516WA0193601998000040030000
B1645353805003S06011531WA0194702016000036030000
B1645393804997S06011600WA0196202023000032030000
B1645433805047S06011660WA0196602029000032030000
B1645473805118S06011633WA0197402039000040030000
B1645513805127S06011559WA0197702036000044030000
B1645553805080S06011539WA0198302049000040030000
B1645593805063S06011604WA0200002065000036030000
B1646033805115S06011659WA0200602073000036045000
B1646073805185S06011630WA0201302078000036030000
B1646113805196S06011559WA0201802089000044030000
B1646153805157S06011543WA0202702094000048045000
B1646193805149S06011611WA0202802094000044045000
B1646233805211S06011661WA0203102103000040045000
B1646273805278S06011622WA0204202113000036030000
B1646313805275S06011555WA0205102122000040045000
B1646353805231S06011549WA0205602123000040045000
B1646393805220S06011618WA0205602125000036045000
B1646433805279S06011672WA0206002129000036045000
B1646473805348S06011635WA0205902127000036045000
B1646513805353S06011560WA0206402136000052045000
B1646553805310S06011543WA0207002137000048045000
B1646593805291S06011609WA0206302129000044045000
B1647033805340S06011682WA0206202132000040045000
B1647073805421S06011682WA0206502129000044045000
B1647113805465S06011609WA0205902125000068045000
B1647153805440S06011544WA0206302136000060045000
B1647193805392S06011557WA0206702134000048030000
B1647233805387S06011638WA0206002125000048030000
B1647273805454S06011696WA0205602128000048030000
B1647313805531S06011663WA0206002133000048030000
B1647353805553S06011583WA0206602141000048030000
B1647393805515S06011543WA0207002140000056030000
B1647433805475S06011585WA0206302133000048030000
B1647473805495S06011670WA0206002129000052030000
B1647513805571S06011707WA0205902128000048030000
B1647553805640S06011655WA0206002132000056030000
B1647593805643S06011577WA0206502136000052030000
B1648033805600S06011548WA0206602134000060030000
B1648073805566S06011599WA0206102128000056030000
B1648113805600S06011685WA0205502122000052030000
B1648153805683S06011708WA0205502124000048030000
B1648193805747S06011651WA0205902129000064030000
B1648233805751S06011573WA0205602118000056030000
B1648273805703S06011539WA0204702114000052045000
B1648313805668S06011592WA0205102119000060030000
B1648353805684S06011681WA0204702110000056030000
B1648393805756S06011741WA0203802106000052030000
B1648433805842S06011721WA0203302101000044030000
B1648473805879S06011640WA0203102100000044030000
B1648513805857S06011575WA0202902096000044030000
B1648553805803S06011555WA0202202083000044030000
B1648593805736S06011560WA0200802075000048030000
B1649033805668S06011573WA0201202085000048015000
B1649073805603S06011591WA0202202089000052015000
B1649113805538S06011617WA0201402079000052015000
B1649153805466S06011650WA0200002065000052015000
B1649193805400S06011699WA0199402064000048015000
B1649233805336S06011757WA0199302060000048015000
B1649273805287S06011835WA0199002055000044015000
B1649313805253S06011928WA0198102045000040015000
B1649353805224S06012025WA0196802033000044015000
B1649393805183S06012112WA0196402032000044015000
B1649433805131S06012184WA0195802022000044015000
B1649473805067S06012238WA0194702014000044015000
B1649513804998S06012270WA0194402013000056015000
B1649553804928S06012302WA0194002008000052000000
B1649593804862S06012348WA0193301997000052000000
B1650033804803S06012409WA0192501993000048000000
B1650073804747S06012470WA0192301996000044000000
B1650113804693S06012526WA0192401994000036000000
B1650153804642S06012587WA0192101989000036000000
B1650193804604S06012662WA0191801988000036000000
B1650233804577S06012747WA0191201979000048000000
B1650273804544S06012833WA0190301973000048000000
B1650313804501S06012909WA0189701965000044000000
B1650353804439S06012952WA0189101955000044000000
B1650393804368S06012959WA0187901943000044000000
B1650433804293S06012943WA0186701932000048000000
B1650473804222S06012913WA0186501931000048000000
B1650513804153S06012885WA0186201924000044000000
B1650553804085S06012856WA0184801910000044000000
B1650593804017S06012829WA0184401908000044000000
B1651033803950S06012803WA0184201903000044000000
B1651073803884S06012774WA0184001899000040000000
B1651113803816S06012748WA0183501894000048000000
B1651153803747S06012734WA0183201894000044000000
B1651193803680S06012723WA0182301879000044000000
B1651233803610S06012705WA0180601858000060000000
B1651273803534S06012683WA0178601842000060000000
B1651313803459S06012692WA0177601834000068000000
B1651353803393S06012730WA0177201832000056000000
B1651393803333S06012771WA0177001829000052000000
B1651433803270S06012796WA0176401823000044000000
B1651473803203S06012792WA0175801813000040000000
B1651513803135S06012769WA0174901806000040000000
B1651553803070S06012738WA0174401804000036000000
B1651593803008S06012706WA0174201798000032000000
B1652033802943S06012675WA0173401788000032000000
B1652073802875S06012639WA0172301778000044000000
B1652113802808S06012604WA0171501770000048000000
B1652153802739S06012563WA0170601758000044000000
B1652193802671S06012521WA0169701746000048000000
B1652233802606S06012479WA0169001745000060000000
B1652273802545S06012436WA0169101744000056000000
B1652313802484S06012397WA0168701745000060000000
B1652353802427S06012363WA0170001760000056000000
B1652393802373S06012339WA0170601763000048000000
B1652433802316S06012332WA0170901768000048000000
B1652473802265S06012359WA0172001782000044000000
B1652513802256S06012432WA0173401795000044000000
B1652553802311S06012484WA0174401808000040000000
B1652593802380S06012471WA0175201811000036015000
B1653033802420S06012409WA0175301814000036015000
B1653073802403S06012353WA0175901815000032015000
B1653113802367S06012311WA0175901816000036015000
B1653153802319S06012306WA0176101817000036015000
B1653193802298S06012371WA0176201821000036015000
B1653233802337S06012445WA0176801825000044015000
B1653273802412S06012469WA0176901830000048030000
B1653313802481S06012424WA0177301832000048030000
B1653353802509S06012344WA0177601834000048030000
B1653393802480S06012276WA0177701834000048030000
B1653433802428S06012251WA0178101840000044030000
B1653473802388S06012300WA0178201841000044030000
B1653513802384S06012383WA0178201838000044030000
B1653553802428S06012463WA0178201840000048030000
B1653593802510S06012498WA0178801841000048030000
B1654033802593S06012472WA0178401839000048030000
B1654073802640S06012394WA0178501843000044030000
B1654113802635S06012313WA0179301846000040030000
B1654153802584S06012290WA0179201846000036030000
B1654193802557S06012353WA0179201847000044045000
B1654233802605S06012420WA0179501851000060045000
B1654273802680S06012406WA0179701852000052030000
B1654313802713S06012332WA0179501851000056030000
B1654353802691S06012262WA0179501848000052030000
B1654393802644S06012212WA0178601837000044030000
B1654433802587S06012170WA0178001837000044030000
B1654473802532S06012118WA0177801831000044015000
B1654513802486S06012046WA0177701831000044015000
B1654553802446S06011965WA0177501829000044015000
B1654593802394S06011900WA0177801838000040015000
B1655033802332S06011869WA0178501841000044015000
B1655073802265S06011869WA0178501843000040015000
B1655113802216S06011919WA0178801845000040015000
B1655153802202S06012001WA0178701838000040015000
B1655193802237S06012082WA0178101834000040015000
B1655233802315S06012114WA0178001838000036015000
B1655273802389S06012067WA0178501843000036015000
B1655313802418S06011978WA0178801845000036015000
B1655353802380S06011911WA0178901846000036030000
B1655393802319S06011910WA0179101845000036030000
B1655433802269S06011962WA0178501832000040030000
B1655473802242S06012045WA0176801818000044030000
B1655513802267S06012136WA0175901816000044030000
B1655553802330S06012194WA0175801814000052030000
B1655593802411S06012222WA0174701803000044015000
B1656033802498S06012223WA0174701806000060015000
B1656073802580S06012193WA0175101809000056015000
B1656113802633S06012120WA0175401814000076015000
B1656153802645S06012032WA0175801815000060015000
B1656193802620S06011954WA0175601815000060015000
B1656233802571S06011907WA0175701818000060015000
B1656273802515S06011925WA0176201816000052015000
B1656313802483S06011989WA0175601807000052015000
B1656353802496S06012076WA0174901804000056015000
B1656393802557S06012132WA0174801806000052015000
B1656433802632S06012133WA0175001804000044015000
B1656473802685S06012068WA0174501797000040015000
B1656513802674S06011984WA0173801790000040030000
B1656553802620S06011934WA0173201784000036030000
B1656593802553S06011926WA0172501774000040015000
B1657033802485S06011943WA0171601761000044015000
B1657073802416S06011978WA0169701738000044015000
B1657113802345S06012016WA0167301715000044015000
B1657153802269S06012047WA0166301712000048015000
B1657193802198S06012082WA0166301715000048015000
B1657233802130S06012124WA0166001710000044015000
B1657273802065S06012173WA0165701708000040015000
B1657313802002S06012224WA0165201704000036015000
B1657353801938S06012268WA0164401695000036015000
B1657393801872S06012311WA0163901687000036015000
B1657433801804S06012350WA0162701676000036015000
B1657473801732S06012380WA0161701667000036000000
B1657513801662S06012413WA0161001661000036000000
B1657553801593S06012448WA0160501656000040000000
B1657593801526S06012484WA0159601648000040000000
B1658033801458S06012519WA0159201644000044000000
B1658073801391S06012554WA0158801640000040000000
B1658113801326S06012593WA0158301632000044000000
B1658153801259S06012632WA0157401627000044000000
B1658193801196S06012673WA0157101622000040000000
B1658233801131S06012708WA0156101610000044000000
B1658273801063S06012739WA0155201599000048000000
B1658313800994S06012771WA0153901588000048000000
B1658353800926S06012812WA0153101581000048000000
B1658393800860S06012861WA0152601576000044000000
B1658433800795S06012914WA0152201573000048000000
B1658473800730S06012965WA0152101572000052000000
B1658513800674S06013022WA0152201578000052000000
B1658553800625S06013086WA0152701580000052000000
B1658593800591S06013168WA0153101585000052000000
B1659033800565S06013254WA0153301586000048000000
B1659073800564S06013350WA0153701592000048000000
B1659113800622S06013420WA0154401604000048000000
B1659153800704S06013428WA0154901605000044015000
B1659193800786S06013394WA0154901605000044015000
B1659233800854S06013333WA0155901619000040015000
B1659273800877S06013247WA0157001634000040015000
B1659313800842S06013193WA0158601644000040015000
B1659353800794S06013210WA0159301650000044015000
B1659393800782S06013282WA0160201655000040030000
B1659433800830S06013349WA0160801662000040030000
B1659473800910S06013349WA0161601669000036030000
B1659513800959S06013280WA0162601682000040030000
B1659553800946S06013203WA0164001694000044030000
B1659593800895S06013182WA0164501697000040045000
B1700033800858S06013238WA0164801703000044045000
B1700073800876S06013323WA0165501708000048045000
B1700113800952S06013360WA0165801712000048045000
B1700153801025S06013310WA0166101716000048045000
B1700193801047S06013217WA0167001726000048045000
B1700233801014S06013146WA0168001735000044045000
B1700273800951S06013139WA0168501738000044045000
B1700313800906S06013198WA0168901742000040045000
B1700353800925S06013290WA0169201744000044045000
B1700393800999S06013340WA0169101742000048045000
B1700433801090S06013330WA0168701742000048045000
B1700473801164S06013268WA0169001750000048030000
B1700513801202S06013178WA0170701763000048030000
B1700553801176S06013098WA0171201763000052030000
B1700593801114S06013083WA0171101762000056030000
B1701033801060S06013134WA0171001765000052030000
B1701073801043S06013223WA0171201768000052030000
B1701113801092S06013306WA0171601771000056030000
B1701153801179S06013332WA0171601773000056030000
B1701193801261S06013285WA0171601771000052030000
B1701233801300S06013191WA0172101777000044030000
B1701273801280S06013102WA0172701780000044030000
B1701313801220S06013067WA0172901785000044030000
B1701353801166S06013104WA0173601790000044030000
B1701393801157S06013190WA0173701791000044045000
B1701433801209S06013267WA0174001794000056045000
B1701473801293S06013273WA0174001794000056045000
B1701513801345S06013197WA0174101799000052045000
B1701553801319S06013126WA0175101816000052045000
B1701593801270S06013141WA0176101818000056045000
B1702033801262S06013221WA0176301821000064045000
B1702073801322S06013280WA0176901827000068045000
B1702113801402S06013247WA0176301814000064045000
B1702153801431S06013150WA0175701816000060045000
B1702193801400S06013074WA0177101833000052045000
B1702233801345S06013068WA0178001838000044045000
B1702273801315S06013129WA0178201837000048045000
B1702313801346S06013210WA0177901837000048045000
B1702353801424S06013233WA0178101840000044045000
B1702393801496S06013186WA0178101837000040030000
B1702433801531S06013099WA0178501845000040030000
B1702473801509S06013022WA0179201849000040030000
B1702513801454S06012991WA0178501838000048045000
B1702553801406S06013038WA0178001838000044045000
B1702593801410S06013122WA0177801835000044030000
B1703033801465S06013194WA0177601831000048030000
B1703073801543S06013241WA0176901825000048030000
B1703113801632S06013259WA0176601817000048030000
B1703153801727S06013264WA0176001819000056015000
B1703193801818S06013293WA0176201820000052015000
B1703233801903S06013349WA0176001816000048015000
B1703273801983S06013412WA0175301808000052015000
B1703313802059S06013488WA0174501798000052015000
B1703353802122S06013576WA0173201787000056015000
B1703393802180S06013670WA0172601784000052015000
B1703433802232S06013766WA0172701788000048015000
B1703473802278S06013861WA0172601784000048015000
B1703513802315S06013962WA0172201776000052015000
B1703553802341S06014069WA0171401768000052015000
B1703593802364S06014178WA0170501758000048000000
B1704033802388S06014291WA0169401750000044000000
B1704073802414S06014404WA0169001746000044000000
B1704113802440S06014516WA0168701743000040000000
B1704153802457S06014629WA0168001737000044000000
B1704193802459S06014744WA0167701734000044000000
B1704233802454S06014855WA0167401728000052000000
B1704273802444S06014968WA0166601717000052000000
B1704313802432S06015085WA0165201704000052000000
B1704353802418S06015204WA0164501698000060000000
B1704393802403S06015318WA0164201698000056000000
B1704433802389S06015431WA0163601689000060000000
B1704473802375S06015544WA0162601679000060000000
B1704513802356S06015657WA0161501666000060000000
B1704553802336S06015773WA0160201650000060000000
B1704593802316S06015891WA0158701636000072000000
B1705033802295S06016011WA0157501626000080000000
B1705073802272S06016128WA0156701620000080000000
B1705113802249S06016244WA0156201616000076000000
B1705153802232S06016354WA0156801627000096000000
B1705193802216S06016460WA0157601632000096000000
B1705233802199S06016562WA0157801636000088000000
B1705273802180S06016662WA0157201627000100000000
B1705313802158S06016764WA0156301613000108000000
B1705353802133S06016866WA0155301605000096000000
B1705393802103S06016970WA0154801602000088000000
B1705433802073S06017068WA0154801603000080000000
B1705473802042S06017162WA0154201592000080000000
B1705513802008S06017255WA0152801579000076000000
B1705553801974S06017347WA0151601569000068000000
B1705593801938S06017440WA0150601558000056000000
B1706033801904S06017533WA0149201544000052000000
B1706073801870S06017630WA0148601539000052000000
B1706113801842S06017728WA0148201538000048000000
B1706153801816S06017828WA0148601542000052000000
B1706193801779S06017919WA0148801546000052000000
B1706233801747S06018005WA0149601557000052000000
B1706273801717S06018087WA0149801549000048000000
B1706313801682S06018169WA0147901532000044000000
B1706353801641S06018252WA0146501519000044000000
B1706393801599S06018334WA0145401510000044000000
B1706433801553S06018413WA0145001504000044000000
B1706473801505S06018489WA0144601502000044000000
B1706513801458S06018563WA0144201497000048000000
B1706553801417S06018633WA0144001498000044000000
B1706593801380S06018702WA0143901494000052000000
B1707033801348S06018775WA0143701496000056000000
B1707073801311S06018846WA0144101500000056000000
B1707113801274S06018914WA0145201514000052000000
B1707153801232S06018972WA0146001519000048000000
B1707193801214S06019049WA0146901532000044000000
B1707233801253S06019122WA0148201546000044000000
B1707273801329S06019149WA0149501556000040015000
B1707313801404S06019117WA0150201558000036015000
B1707353801436S06019036WA0150601567000036015000
B1707393801405S06018980WA0151901583000036030000
B1707433801363S06019014WA0153101590000036030000
B1707473801378S06019099WA0153901599000040045000
B1707513801450S06019122WA0155401613000044045000
B1707553801495S06019053WA0155501604000044045000
B1707593801449S06019014WA0155701612000044045000
B1708033801424S06019087WA0156701624000048045000
B1708073801476S06019162WA0158101639000044045000
B1708113801557S06019175WA0159101649000044045000
B1708153801617S06019119WA0159901654000040045000
B1708193801639S06019035WA0159601650000040030000
B1708233801613S06018962WA0160301663000040030000
B1708273801562S06018931WA0161601671000040030000
B1708313801511S06018958WA0162801680000044045000
B1708353801511S06019039WA0163801687000048045000
B1708393801578S06019092WA0164901702000044045000
B1708433801645S06019047WA0166201717000044045000
B1708473801647S06018963WA0166801723000044045000
B1708513801595S06018936WA0167601734000040045000
B1708553801560S06018995WA0168601743000048045000
B1708593801601S06019069WA0169401751000056045000
B1709033801680S06019041WA0170101759000068045000
B1709073801682S06018959WA0171001765000072045000
B1709113801627S06018952WA0171201767000064045000
B1709153801604S06019028WA0171401772000056060000
B1709193801644S06019112WA0172001784000056060000
B1709233801725S06019113WA0173601799000048045000
B1709273801764S06019037WA0174801809000044045000
B1709313801735S06018975WA0175401819000044045000
B1709353801686S06018979WA0176401823000040045000
B1709393801670S06019043WA0177001826000040045000
B1709433801714S06019117WA0176701830000044045000
B1709473801794S06019125WA0177301838000040045000
B1709513801851S06019060WA0178101842000044030000
B1709553801846S06018976WA0178401847000040045000
B1709593801791S06018959WA0179501859000040045000
B1710033801751S06019014WA0180301865000048045000
B1710073801761S06019096WA0180801870000052045000
B1710113801822S06019149WA0181401876000048045000
B1710153801899S06019143WA0182001881000040045000
B1710193801956S06019083WA0182401884000036030000
B1710233801952S06019001WA0182901890000044030000
B1710273801904S06018961WA0183101892000048030000
B1710313801853S06018995WA0183801901000048045000
B1710353801853S06019075WA0184201904000040045000
B1710393801914S06019132WA0184301910000044045000
B1710433801996S06019121WA0185001913000040045000
B1710473802061S06019062WA0185501919000060030000
B1710513802080S06018978WA0186201931000056030000
B1710553802047S06018913WA0187201938000056030000
B1710593801992S06018898WA0187801945000056030000
B1711033801956S06018949WA0188401952000048045000
B1711073801976S06019026WA0188701953000044045000
B1711113802048S06019058WA0188901959000044045000
B1711153802115S06019006WA0189801969000036045000
B1711193802135S06018917WA0190901975000036045000
B1711233802107S06018840WA0191201979000036045000
B1711273802055S06018849WA0191701989000036045000
B1711313802052S06018924WA0192201992000036045000
B1711353802108S06018985WA0192101987000036045000
B1711393802195S06018992WA0192001987000044045000
B1711433802288S06018974WA0192301991000044030000
B1711473802381S06018966WA0192601993000044030000
B1711513802473S06018979WA0193101999000044030000
B1711553802566S06018991WA0193402002000040015000
B1711593802657S06018998WA0193702004000040015000
B1712033802745S06019000WA0194202011000044015000
B1712073802831S06019001WA0194702013000040015000
B1712113802919S06019001WA0194102005000036015000
B1712153803008S06019001WA0192701990000048015000
B1712193803100S06019010WA0191501978000052015000
B1712233803192S06019022WA0190701965000056015000
B1712273803289S06019028WA0189001948000048015000
B1712313803387S06019040WA0187301932000040015000
B1712353803486S06019062WA0186901931000048000000
B1712393803581S06019078WA0187601947000048000000
B1712433803666S06019083WA0189301962000048000000
B1712473803745S06019069WA0189701962000044000000
B1712513803806S06019005WA0189601964000044000000
B1712553803802S06018918WA0190101969000040015000
B1712593803751S06018885WA0190701978000040015000
B1713033803710S06018922WA0191201980000036030000
B1713073803712S06018995WA0190301967000036015000
B1713113803768S06019057WA0189701961000040015000
B1713153803844S06019101WA0188501949000040015000
B1713193803927S06019127WA0187901943000040015000
B1713233804011S06019136WA0187701947000044015000
B1713273804095S06019139WA0188801959000040015000
B1713313804175S06019143WA0190101971000040015000
B1713353804241S06019097WA0191201986000036015000
B1713393804236S06019018WA0192601997000040015000
B1713433804188S06019013WA0193202001000040030000
B1713473804175S06019079WA0194002013000036045000
B1713513804218S06019138WA0194802026000036045000
B1713553804291S06019149WA0195902030000036045000
B1713593804370S06019123WA0196102034000036030000
B1714033804451S06019079WA0196002027000040030000
B1714073804533S06019032WA0195502026000040030000
B1714113804613S06018996WA0196002030000040015000
B1714153804695S06018965WA0196002031000036015000
B1714193804780S06018961WA0196202030000040015000
B1714233804850S06019019WA0195202015000044015000
B1714273804893S06019115WA0194302012000060015000
B1714313804954S06019196WA0194402021000056030000
B1714353805038S06019214WA0196002039000048030000
B1714393805109S06019170WA0196902040000044030000
B1714433805138S06019082WA0196802038000044030000
B1714473805122S06018995WA0196802037000044030000
B1714513805089S06018915WA0197202043000040015000
B1714553805041S06018855WA0197902052000040015000
B1714593804988S06018878WA0198902066000044030000
B1715033804979S06018954WA0199802070000044030000
B1715073805027S06019022WA0199602067000044030000
B1715113805101S06019056WA0199202066000040030000
B1715153805174S06019019WA0199802079000036030000
B1715193805203S06018943WA0200702076000036030000
B1715233805179S06018870WA0200202073000036045000
B1715273805125S06018835WA0200102071000036030000
B1715313805064S06018833WA0199602064000040030000
B1715353805001S06018854WA0198802053000040030000
B1715393804934S06018891WA0198302050000040015000
B1715433804872S06018933WA0198502052000044015000
B1715473804808S06018974WA0197902043000052015000
B1715513804752S06019018WA0197502040000052015000
B1715553804694S06019054WA0198302050000048015000
B1715593804637S06019083WA0199102060000048015000
B1716033804579S06019109WA0200502073000040015000
B1716073804535S06019161WA0201302086000040015000
B1716113804518S06019236WA0202402094000040015000
B1716153804550S06019312WA0203002102000032015000
B1716193804621S06019346WA0204102116000036015000
B1716233804695S06019317WA0205102127000044015000
B1716273804729S06019240WA0206402136000040030000
B1716313804699S06019175WA0207002136000040030000
B1716353804639S06019171WA0207202144000040045000
B1716393804589S06019214WA0207902149000040030000
B1716433804589S06019288WA0208802161000036045000
B1716473804639S06019346WA0209202158000036045000
B1716513804712S06019383WA0209402164000036030000
B1716553804793S06019375WA0210102173000032030000
B1716593804841S06019299WA0211102188000032030000
B1717033804825S06019221WA0212202196000032030000
B1717073804772S06019214WA0213002206000032045000
B1717113804754S06019287WA0213802215000032045000
B1717153804804S06019352WA0214902226000032045000
B1717193804882S06019335WA0215402232000032045000
B1717233804920S06019251WA0216002239000036045000
B1717273804897S06019169WA0216702245000040045000
B1717313804839S06019156WA0217202257000036060000
B1717353804807S06019222WA0218202263000036060000
B1717393804826S06019305WA0219102272000040045000
B1717433804895S06019346WA0220002279000044030000
B1717473804973S06019318WA0220202282000044030000
B1717513805031S06019245WA0220602287000040030000
B1717553805032S06019157WA0221402294000040030000
B1717593804984S06019112WA0222002300000040030000
B1718033804932S06019139WA0222402304000040045000
B1718073804916S06019217WA0222802309000044030000
B1718113804947S06019296WA0223702318000040030000
B1718153805014S06019344WA0224502327000036030000
B1718193805093S06019338WA0225202335000040030000
B1718233805151S06019279WA0225902338000036030000
B1718273805167S06019188WA0226002337000032015000
B1718313805146S06019101WA0226202341000032015000
B1718353805111S06019019WA0226402337000032015000
B1718393805070S06018933WA0226102342000044015000
B1718433805021S06018861WA0227202353000048015000
B1718473804968S06018796WA0227802356000040015000
B1718513804920S06018724WA0227402349000040015000
B1718553804878S06018640WA0226402340000036015000
B1718593804843S06018546WA0225502331000040015000
B1719033804813S06018445WA0224802320000040015000
B1719073804787S06018339WA0224002310000040015000
B1719113804765S06018231WA0223502310000036015000
B1719153804742S06018127WA0223602312000036015000
B1719193804721S06018025WA0224002318000040015000
B1719233804713S06017923WA0224602323000036000000
B1719273804720S06017821WA0224702323000032000000
B1719313804741S06017719WA0224502320000040000000
B1719353804763S06017620WA0224302317000040000000
B1719393804780S06017522WA0224102318000040000000
B1719433804784S06017428WA0224102318000040000000
B1719473804756S06017349WA0224002313000040000000
B1719513804703S06017307WA0223402308000040015000
B1719553804644S06017318WA0223202308000036015000
B1719593804612S06017385WA0223902318000052030000
B1720033804626S06017474WA0224002311000044015000
B1720073804700S06017528WA0223602312000044015000
B1720113804789S06017510WA0223502311000040015000
B1720153804849S06017432WA0223102310000044030000
B1720193804860S06017338WA0223202310000040030000
B1720233804837S06017256WA0222902304000040030000
B1720273804794S06017186WA0221902296000036030000
B1720313804748S06017115WA0221602295000036030000
B1720353804704S06017039WA0220902284000036015000
B1720393804661S06016957WA0219402270000036015000
B1720433804624S06016872WA0219302272000036015000
B1720473804586S06016790WA0218702263000032015000
B1720513804546S06016710WA0217902251000036015000
B1720553804504S06016630WA0216902242000032015000
B1720593804461S06016549WA0215802228000032015000
B1721033804414S06016462WA0214302213000036015000
B1721073804365S06016375WA0213402207000040015000
B1721113804314S06016292WA0213102208000040015000
B1721153804267S06016211WA0213002203000036015000
B1721193804223S06016128WA0212202195000036015000
B1721233804179S06016044WA0211202186000032015000
B1721273804134S06015959WA0210502179000044015000
B1721313804088S06015875WA0210102175000040000000
B1721353804045S06015791WA0209602171000044000000
B1721393804001S06015706WA0209102165000040000000
B1721433803957S06015621WA0208502159000036000000
B1721473803910S06015539WA0208202154000032000000
B1721513803859S06015462WA0207602150000032000000
B1721553803807S06015388WA0207302146000044000000
B1721593803758S06015312WA0207202144000040000000
B1722033803707S06015236WA0206402134000036000000
B1722073803656S06015157WA0205402126000044000000
B1722113803604S06015075WA0204702119000044000000
B1722153803551S06014996WA0203902112000044000000
B1722193803497S06014919WA0203502109000040000000
B1722233803442S06014849WA0203602113000044000000
B1722273803386S06014789WA0204002120000040000000
B1722313803331S06014736WA0204902128000040000000
B1722353803274S06014684WA0204902120000040000000
B1722393803213S06014628WA0203502107000040000000
B1722433803152S06014563WA0202502094000040000000
B1722473803090S06014497WA0201602092000040000000
B1722513803031S06014435WA0201502090000036000000
B1722553802974S06014376WA0201002084000036000000
B1722593802918S06014313WA0200402079000032000000
B1723033802862S06014251WA0199902075000036000000
B1723073802808S06014185WA0199402067000036000000
B1723113802754S06014113WA0198702058000036000000
B1723153802701S06014040WA0197702047000032000000
B1723193802648S06013962WA0196602036000036000000
B1723233802594S06013884WA0195702031000036000000
B1723273802540S06013808WA0195402027000036000000
B1723313802488S06013730WA0195002023000036000000
B1723353802437S06013652WA0194602017000036000000
B1723393802386S06013571WA0193802010000036000000
B1723433802337S06013489WA0193202001000036000000
B1723473802286S06013407WA0192401992000036000000
B1723513802234S06013327WA0191501986000036000000
B1723553802184S06013247WA0191501988000040000000
B1723593802132S06013173WA0191401986000040000000
B1724033802077S06013104WA0191201985000044000000
B1724073802024S06013042WA0191201984000040000000
B1724113801969S06012982WA0191001982000040000000
B1724153801918S06012918WA0190701978000036000000
B1724193801875S06012843WA0190201972000036000000
B1724233801838S06012762WA0189601963000036000000
B1724273801800S06012682WA0188601953000036000000
B1724313801761S06012602WA0187901947000036000000
B1724353801721S06012523WA0187501944000036000000
B1724393801667S06012456WA0187301942000036000000
B1724433801605S06012402WA0186801936000036000000
B1724473801537S06012365WA0186301933000040000000
B1724513801465S06012352WA0186201932000040000000
B1724553801393S06012365WA0186201935000044000000
B1724593801328S06012401WA0186801940000040000000
B1725033801271S06012450WA0186801939000040000000
B1725073801219S06012509WA0187301948000036000000
B1725113801171S06012570WA0188201956000040000000
B1725153801123S06012636WA0188301950000044000000
B1725193801073S06012710WA0187601944000052000000
B1725233801027S06012790WA0186201928000052000000
B1725273800973S06012864WA0185401922000056000000
B1725313800913S06012921WA0185701928000056000000
B1725353800858S06012970WA0186601940000048000000
B1725393800803S06013018WA0186801937000044000000
B1725433800747S06013068WA0186501933000040000000
B1725473800694S06013115WA0186001928000040000000
B1725513800640S06013167WA0185301919000044000000
B1725553800586S06013220WA0184201910000040000000
B1725593800530S06013269WA0183301902000044000000
B1726033800471S06013319WA0182801897000040000000
B1726073800416S06013375WA0182401891000044000000
B1726113800358S06013438WA0181501885000040015000
B1726153800309S06013505WA0181501887000040015000
B1726193800291S06013588WA0182301891000036015000
B1726233800315S06013671WA0183101900000032015000
B1726273800380S06013726WA0183101900000040015000
B1726313800460S06013739WA0183101900000036015000
B1726353800535S06013705WA0182801892000036015000
B1726393800594S06013635WA0182001885000048015000
B1726433800640S06013554WA0181501878000048015000
B1726473800683S06013467WA0180701868000044015000
B1726513800728S06013375WA0179601853000052015000
B1726553800777S06013281WA0178101840000056015000
B1726593800833S06013193WA0177301832000056015000
B1727033800893S06013107WA0176201822000052015000
B1727073800956S06013022WA0175401813000048000000
B1727113801019S06012939WA0175001811000048000000
B1727153801068S06012853WA0175801823000048000000
B1727193801090S06012761WA0177301839000048000000
B1727233801063S06012690WA0178701861000044015000
B1727273801010S06012680WA0180801877000040015000
B1727313800981S06012744WA0181901884000040030000
B1727353801012S06012823WA0182201888000044030000
B1727393801085S06012856WA0182401893000040030000
B1727433801158S06012836WA0183101901000040030000
B1727473801214S06012778WA0184201909000040030000
B1727513801238S06012699WA0184701911000036015000
B1727553801210S06012627WA0184601911000040030000
B1727593801149S06012621WA0185001918000040030000
B1728033801115S06012688WA0186101935000048045000
B1728073801142S06012773WA0187501945000044060000
B1728113801214S06012816WA0188501954000040060000
B1728153801285S06012773WA0189401970000040045000
B1728193801303S06012690WA0190901982000048060000
B1728233801264S06012638WA0191801992000040060000
B1728273801210S06012657WA0192902006000040060000
B1728313801181S06012727WA0193902013000036045000
B1728353801203S06012812WA0194402016000032030000
B1728393801274S06012855WA0194702022000036030000
B1728433801346S06012826WA0195602036000040030000
B1728473801388S06012755WA0196902045000044045000
B1728513801372S06012682WA0197302050000040045000
B1728553801316S06012679WA0197902055000040045000
B1728593801287S06012748WA0198802064000040060000
B1729033801327S06012818WA0199702075000040045000
B1729073801401S06012813WA0200702082000040045000
B1729113801440S06012745WA0201902094000052045000
B1729153801418S06012682WA0202502097000052060000
B1729193801362S06012684WA0202902105000044060000
B1729233801331S06012752WA0203802111000060075000
B1729273801355S06012831WA0204202116000064060000
B1729313801423S06012861WA0204402118000052045000
B1729353801487S06012820WA0204902125000044045000
B1729393801513S06012742WA0205302127000040045000
B1729433801482S06012669WA0205402131000040045000
B1729473801419S06012662WA0206002138000040045000
B1729513801374S06012721WA0206602140000040030000
B1729553801381S06012810WA0206402134000040030000
B1729593801446S06012866WA0205302117000040030000
E173000PEV
B1730003801469S06012870WA0204702116000044030000
B1730023801513S06012865WA0204402116000052030000
B1730033801535S06012859WA0204402116000072030000
B1730043801554S06012849WA0204502116000088030000
B1730053801573S06012838WA0204702119000088030000
B1730063801591S06012823WA0204902121000084030000
B1730073801606S06012808WA0205002124000076030000
B1730083801621S06012791WA0205402127000076030000
B1730093801632S06012770WA0205502128000072015000
B1730103801641S06012749WA0205502128000072015000
B1730113801647S06012726WA0205602128000068030000
B1730123801648S06012703WA0205702128000064030000
B1730133801647S06012679WA0205702130000060030000
B1730143801641S06012657WA0205702131000056030000
B1730153801632S06012638WA0205802134000052030000
B1730163801621S06012622WA0205902137000052030000
B1730173801608S06012609WA0206102139000048030000
B1730213801545S06012596WA0207202150000044045000
B1730253801495S06012647WA0208202160000044060000
B1730293801489S06012731WA0208802165000040060000
B1730333801528S06012812WA0208702154000040045000
B1730373801600S06012865WA0207402146000040030000
B1730413801684S06012877WA0207502152000040030000
B1730453801758S06012833WA0208202160000040030000
B1730493801790S06012748WA0208702162000036030000
B1730533801770S06012667WA0209002166000036030000
B1730573801716S06012634WA0209602172000032045000
B1731013801665S06012671WA0210602184000032045000
B1731053801654S06012753WA0210902186000036060000
B1731093801706S06012823WA0210602182000036060000
B1731133801784S06012813WA0210602185000044045000
B1731173801831S06012740WA0211402190000044045000
B1731213801822S06012658WA0211502190000048060000
B1731253801771S06012613WA0211702192000040060000
B1731293801709S06012632WA0211702195000036060000
B1731333801683S06012713WA0212202201000036060000
B1731373801719S06012797WA0212302200000044060000
B1731413801796S06012822WA0211802195000052045000
B1731453801861S06012773WA0211702198000064045000
B1731493801886S06012691WA0212502204000056045000
B1731533801861S06012612WA0212602205000048030000
B1731573801804S06012579WA0212802211000044045000
B1732013801749S06012622WA0213002208000040060000
B1732053801743S06012716WA0212402202000040060000
B1732093801801S06012784WA0211802197000044045000
B1732133801882S06012762WA0211402193000044045000
B1732173801924S06012683WA0211302189000044045000
B1732213801909S06012599WA0211902191000036045000
B1732253801851S06012569WA0212402195000048060000
B1732293801794S06012612WA0212602197000056060000
B1732333801766S06012696WA0211802186000056045000
B1732373801788S06012790WA0211002179000048030000
B1732413801860S06012847WA0210602175000044030000
B1732453801943S06012836WA0209502167000044030000
B1732493802004S06012764WA0208802166000044030000
B1732533802013S06012673WA0209202173000052045000
B1732573801976S06012606WA0209502172000044045000
B1733013801913S06012586WA0209302168000044060000
B1733053801865S06012644WA0208802164000044060000
B1733093801885S06012732WA0208002154000056060000
B1733133801959S06012755WA0207302150000048045000
B1733173802016S06012692WA0206602142000048045000
B1733213802009S06012612WA0206502144000044060000
B1733253801959S06012573WA0206302140000040060000
B1733293801895S06012579WA0205202124000044045000
B1733333801842S06012638WA0202802099000052045000
B1733373801847S06012735WA0202002098000056030000
B1733413801918S06012786WA0202502102000064030000
B1733453801995S06012749WA0202302096000060030000
B1733493802050S06012670WA0201202080000052030000
B1733533802093S06012579WA0200302077000044030000
B1733573802116S06012487WA0200502077000044030000
B1734013802103S06012398WA0200402078000044015000
B1734053802051S06012353WA0200402079000044030000
B1734093801990S06012371WA0200202075000056030000
B1734133801926S06012420WA0197702065000052030000
B1734173801872S06012485WA0195802038000048030000
B1734213801810S06012552WA0194202023000048015000
B1734253801748S06012619WA0193002016000048015000
B1734293801686S06012684WA0193202023000048015000
B1734333801627S06012744WA0194202031000044015000
B1734373801574S06012796WA0194202032000040015000
B1734413801524S06012849WA0193802030000040015000
B1734453801472S06012901WA0193402025000036015000
B1734493801420S06012957WA0192602018000036030000
B1734533801366S06013017WA0191402005000036015000
B1734573801307S06013076WA0190701999000036015000
B1735013801246S06013130WA0190001989000040015000
B1735053801180S06013182WA0189301984000044015000
B1735093801114S06013236WA0188601981000048015000
B1735133801049S06013288WA0188601980000044015000
B1735173800985S06013340WA0188001974000040015000
B1735213800920S06013393WA0187101967000044015000
B1735253800856S06013450WA0187301970000048015000
B1735293800795S06013506WA0187801975000048015000
B1735333800737S06013563WA0187401964000048015000
B1735373800672S06013622WA0186301952000052015000
B1735413800604S06013676WA0186501959000056015000
E173542PEV
B1735423800587S06013691WA0186601963000056015000
B1735423800587S06013691WA0186901963000056015000
B1735443800559S06013719WA0187301970000056015000
B1735453800544S06013735WA0187701973000072015000
B1735463800533S06013752WA0188001974000084015000
B1735473800522S06013770WA0188401975000080015000
B1735483800513S06013789WA0188501976000080015000
B1735493800507S06013811WA0188601977000076015000
B1735503800503S06013834WA0188801978000068015000
B1735513800500S06013857WA0188901978000064015000
B1735523800500S06013880WA0189001978000060015000
B1735533800503S06013904WA0189001977000056015000
B1735543800507S06013927WA0189001975000056015000
B1735553800512S06013952WA0188801973000056015000
B1735563800518S06013975WA0188501970000052015000
B1735573800525S06014000WA0188201966000048015000
B1735583800531S06014025WA0187901963000048015000
B1736023800559S06014129WA0187301956000044015000
B1736063800596S06014226WA0187501964000040015000
B1736103800661S06014292WA0188501973000040015000
B1736143800739S06014304WA0189401977000036015000
B1736183800807S06014261WA0190001984000036015000
B1736223800820S06014181WA0190601989000032015000
B1736263800772S06014136WA0191501998000036030000
B1736303800724S06014178WA0192502007000036045000
B1736343800737S06014259WA0193202010000036060000
B1736383800804S06014287WA0193302009000040045000
B1736423800852S06014224WA0193602014000036060000
B1736463800825S06014157WA0194302024000036060000
B1736503800767S06014170WA0195202029000040060000
B1736543800748S06014253WA0195602034000036075000
B1736583800793S06014333WA0196002038000040060000
B1737023800871S06014357WA0196102034000040045000
B1737063800937S06014303WA0195702032000044045000
B1737103800943S06014212WA0196002035000040060000
B1737143800893S06014157WA0196802049000036060000
B1737183800834S06014188WA0198302064000036060000
B1737223800824S06014273WA0198802066000036045000
B1737263800873S06014341WA0198602057000036030000
B1737303800955S06014344WA0197902050000036030000
B1737343801021S06014296WA0198002057000036030000
B1737383801045S06014214WA0199002069000036030000
B1737423801017S06014144WA0200002071000044030000
B1737463800963S06014108WA0200002072000040030000
B1737503800904S06014134WA0200602074000036030000
B1737543800872S06014204WA0201002079000032030000
B1737583800895S06014289WA0200902080000040030000
B1738023800964S06014320WA0201002081000040030000
B1738063801033S06014290WA0201202083000040030000
B1738103801072S06014214WA0201702088000040015000
B1738143801053S06014133WA0202002090000040030000
B1738183800995S06014104WA0202802105000044030000
B1738223800943S06014142WA0204402116000036030000
B1738263800925S06014213WA0204402112000036030000
B1738303800951S06014291WA0203402102000032030000
B1738343801010S06014352WA0202402093000032015000
B1738383801076S06014409WA0201202082000036015000
B1738423801147S06014467WA0200202075000036015000
B1738463801223S06014530WA0199002069000036015000
B1738503801298S06014595WA0197902064000036015000
B1738543801375S06014667WA0197102062000040015000
B1738583801449S06014742WA0197402066000048015000
B1739023801526S06014811WA0198202069000048015000
B1739063801614S06014835WA0198402072000048015000
B1739103801703S06014819WA0198002071000048015000
B1739143801781S06014760WA0197802069000048015000
B1739183801834S06014677WA0197902069000040015000
B1739223801859S06014586WA0198102068000040030000
B1739263801859S06014502WA0198202067000040030000
B1739303801830S06014433WA0199302078000036015000
B1739343801784S06014390WA0200002084000032015000
B1739383801727S06014373WA0200502083000028015000
B1739423801664S06014376WA0199802078000032030000
B1739463801601S06014393WA0200302085000032015000
B1739503801543S06014420WA0201102091000032015000
B1739543801488S06014461WA0201502092000032015000
B1739583801448S06014526WA0201802094000028015000
B1740023801449S06014614WA0201602089000028015000
B1740063801504S06014673WA0200602076000032015000
B1740103801579S06014646WA0198902068000044015000
B1740143801628S06014568WA0198002063000044015000
B1740183801654S06014477WA0198202064000044015000
B1740223801654S06014385WA0198602071000040015000
B1740263801634S06014303WA0199302077000040015000
B1740303801600S06014230WA0199602078000040015000
B1740343801558S06014160WA0200002081000040015000
B1740383801511S06014096WA0200002080000040015000
B1740423801463S06014035WA0199902073000036015000
B1740463801406S06013987WA0198802064000036015000
B1740503801342S06013951WA0198302062000040015000
B1740543801274S06013932WA0198702066000044015000
B1740583801210S06013956WA0198302064000044015000
B1741023801179S06014029WA0198302063000044015000
B1741063801183S06014116WA0197802059000044030000
B1741103801214S06014196WA0196802053000044030000
B1741143801271S06014263WA0194902044000044030000
B1741193801372S06014318WA0193102027000040030000
B1741233801452S06014352WA0191802009000040015000
B1741273801534S06014390WA0190501993000044015000
B1741313801612S06014446WA0189501983000044015000
B1741353801680S06014519WA0188701973000040015000
B1741393801755S06014581WA0188001965000040015000
B1741433801836S06014625WA0187601958000040015000
B1741473801920S06014651WA0187501960000036015000
B1741513802003S06014660WA0187701961000036015000
B1741553802083S06014654WA0187801963000036015000
B1741593802163S06014633WA0188101964000036015000
B1742033802234S06014590WA0188701967000036015000
B1742073802267S06014515WA0189501974000036015000
B1742113802237S06014455WA0190401985000036030000
B1742153802186S06014469WA0191101992000032045000
B1742193802172S06014546WA0191801997000032060000
B1742233802221S06014612WA0192201995000032045000
B1742273802295S06014602WA0192001995000036045000
B1742313802334S06014534WA0192501999000036045000
B1742353802316S06014469WA0193702009000036060000
B1742393802264S06014468WA0193802006000036045000
B1742433802236S06014543WA0193302006000036060000
B1742473802277S06014625WA0193602011000036045000
B1742513802355S06014632WA0193902012000036045000
B1742553802398S06014559WA0193501999000044045000
B1742593802369S06014481WA0192401997000044060000
B1743033802304S06014482WA0193202012000040060000
B1743073802275S06014564WA0194402018000040060000
B1743113802311S06014654WA0195102023000040060000
B1743153802389S06014690WA0195202020000040045000
B1743193802463S06014655WA0195502025000040045000
B1743233802483S06014580WA0196002029000040045000
B1743273802440S06014536WA0195902031000036060000
B1743313802382S06014563WA0196002033000036075000
B1743353802362S06014650WA0196302039000036075000
B1743393802405S06014731WA0196802042000032075000
B1743433802481S06014749WA0196602034000040060000
B1743473802553S06014705WA0195802025000036060000
B1743513802600S06014621WA0194802020000040045000
B1743553802581S06014546WA0195302027000040045000
B1743593802522S06014547WA0196202036000040060000
B1744033802494S06014627WA0196902041000040060000
B1744073802529S06014716WA0197202045000040060000
B1744113802606S06014734WA0197402051000040045000
B1744153802650S06014673WA0197902050000040045000
B1744193802627S06014614WA0197302043000040060000
B1744233802570S06014630WA0196802041000040060000
B1744273802545S06014711WA0197202047000040060000
B1744313802584S06014789WA0197702053000036045000
B1744353802659S06014789WA0197502050000040045000
B1744393802697S06014719WA0197002039000040045000
B1744433802685S06014640WA0196402034000040045000
B1744473802629S06014616WA0196002034000040045000
B1744513802587S06014680WA0196202039000040060000
B1744553802606S06014772WA0196802042000044045000
B1744593802676S06014812WA0196902040000040045000
B1745033802750S06014786WA0196702039000040030000
B1745073802793S06014719WA0196602035000068030000
B1745113802792S06014641WA0196102032000056030000
B1745153802743S06014604WA0196302035000060030000
B1745193802685S06014627WA0196402037000052030000
B1745233802666S06014708WA0196802040000048045000
B1745273802700S06014790WA0197202044000040045000
B1745313802767S06014823WA0197302042000036030000
B1745353802834S06014801WA0197202043000032030000
B1745393802883S06014749WA0196902035000032030000
B1745433802919S06014675WA0195802023000032030000
B1745473802953S06014594WA0195002020000032015000
B1745513802992S06014511WA0194902018000036015000
B1745553803036S06014433WA0195102021000036015000
B1745593803091S06014363WA0195402021000040015000
B1746033803153S06014302WA0195002018000048015000
B1746073803222S06014247WA0194402012000044015000
B1746113803296S06014201WA0194002006000040015000
B1746153803368S06014138WA0193702006000040015000
B1746193803394S06014049WA0194202010000036015000
B1746233803364S06013991WA0195102014000044030000
B1746273803321S06014001WA0195202014000044030000
B1746313803311S06014070WA0195602017000052030000
B1746353803360S06014131WA0195902022000044015000
B1746393803438S06014107WA0196102027000040030000
B1746433803460S06014022WA0196102026000040030000
B1746473803419S06013984WA0196102030000036045000
B1746513803380S06014030WA0196002029000040045000
B1746553803394S06014117WA0196102033000044045000
B1746593803465S06014165WA0196902046000040045000
B1747033803543S06014136WA0197502047000040030000
B1747073803595S06014057WA0197202043000052045000
B1747113803616S06013957WA0196602039000060045000
B1747153803616S06013858WA0196102032000056030000
B1747193803630S06013753WA0195002028000048030000
B1747233803669S06013648WA0194102020000040030000
B1747273803728S06013551WA0192902013000040030000
B1747313803794S06013455WA0191202003000040030000
B1747353803867S06013362WA0189801994000048030000
B1747393803940S06013267WA0188901985000048030000
B1747433804010S06013169WA0187701977000048030000
B1747473804079S06013072WA0187101965000048030000
B1747513804144S06012970WA0186101951000048030000
B1747553804208S06012865WA0185101934000052015000
B1747593804266S06012755WA0184201927000056015000
B1748033804318S06012641WA0184101926000052015000
B1748073804369S06012530WA0184001920000048015000
B1748113804416S06012417WA0183401913000052015000
B1748153804459S06012302WA0182801906000052015000
B1748193804496S06012185WA0181901900000048015000
B1748233804533S06012068WA0181301895000056015000
B1748273804568S06011951WA0181101892000052015000
B1748313804604S06011837WA0181101891000052015000
B1748353804641S06011724WA0181401896000052015000
B1748393804678S06011614WA0181701894000052015000
B1748433804717S06011507WA0181101885000048015000
B1748473804758S06011396WA0180501878000048015000
B1748513804797S06011284WA0179801873000048015000
B1748553804836S06011174WA0179501868000064015000
B1748593804876S06011061WA0179101859000056015000
B1749033804915S06010944WA0178101850000056015000
B1749073804953S06010827WA0177201840000056000000
B1749113804992S06010711WA0176401831000052000000
B1749153805032S06010597WA0175701825000048000000
B1749193805072S06010483WA0175401821000052000000
B1749233805106S06010370WA0174701816000056000000
B1749273805137S06010256WA0174301811000060000000
B1749313805168S06010139WA0174001809000060000000
B1749353805198S06010022WA0173701798000056000000
B1749393805223S06009901WA0172001778000060000000
B1749433805236S06009778WA0170401762000056000000
B1749473805244S06009651WA0168801749000060000000
B1749513805257S06009524WA0167901742000052000000
B1749553805279S06009397WA0167001731000048000000
B1749593805311S06009268WA0165901719000052000000
B1750033805349S06009142WA0164901713000052000000
B1750073805396S06009024WA0164501707000056000000
B1750113805452S06008907WA0163901700000056000000
B1750153805512S06008795WA0162801694000052000000
B1750193805574S06008686WA0162001689000048015000
B1750233805638S06008575WA0161201684000048015000
B1750273805699S06008466WA0160801682000052015000
B1750313805759S06008359WA0160701676000060015000
B1750353805817S06008251WA0160301673000060015000
B1750393805874S06008143WA0160001667000056015000
B1750433805930S06008038WA0159801662000056000000
B1750473805983S06007932WA0159301658000052000000
B1750513806034S06007826WA0159301659000052000000
B1750553806078S06007721WA0159301655000052000000
B1750593806121S06007614WA0158601646000052000000
B1751033806164S06007506WA0157801637000048000000
B1751073806211S06007399WA0157201631000052000000
B1751113806260S06007295WA0156701629000052000000
B1751153806308S06007189WA0156701630000052000000
B1751193806354S06007084WA0156601629000056000000
B1751233806396S06006979WA0157001630000064000000
B1751273806436S06006873WA0156101617000056000000
B1751313806474S06006763WA0154801597000052000000
B1751353806510S06006646WA0152801579000052000000
B1751393806549S06006528WA0151101564000052000000
B1751433806592S06006409WA0150001553000052000000
B1751473806632S06006288WA0149301549000052000000
B1751513806669S06006170WA0149001546000048000000
B1751553806704S06006053WA0148701541000048000000
B1751593806739S06005936WA0148101535000044000000
B1752033806774S06005822WA0148001538000044000000
B1752073806810S06005710WA0148101536000044000000
B1752113806848S06005598WA0147501527000052000000
B1752153806884S06005482WA0146901522000052000000
B1752193806922S06005367WA0146401517000048000000
B1752233806958S06005252WA0146101513000044000000
B1752273806990S06005138WA0145701509000044000000
B1752313807013S06005022WA0145001499000040000000
B1752353807036S06004906WA0144101494000040000000
B1752393807068S06004795WA0143601487000040000000
B1752433807109S06004684WA0142801482000040015000
B1752473807159S06004578WA0141901475000044015000
B1752513807207S06004470WA0141001468000048015000
B1752553807263S06004363WA0139701458000048015000
B1752593807320S06004258WA0139101451000052015000
B1753033807376S06004156WA0138701447000056015000
B1753073807426S06004055WA0138301441000052015000
B1753113807476S06003952WA0137801437000048015000
B1753153807520S06003844WA0137601434000048000000
B1753193807556S06003738WA0137601435000060000000
B1753233807593S06003632WA0137701430000056000000
B1753273807632S06003525WA0136501415000052000000
B1753313807676S06003414WA0135301404000056000000
B1753353807724S06003304WA0134401396000052000000
B1753393807779S06003198WA0134001394000060000000
B1753433807839S06003098WA0134301397000068015000
B1753473807901S06003001WA0135601403000060015000
B1753513807961S06002907WA0136701408000060015000
B1753553808017S06002816WA0138001415000056030000
B1753593808071S06002721WA0137701413000048030000
B1754033808127S06002622WA0136101407000048030000
B1754073808188S06002520WA0134401397000048030000
B1754113808252S06002418WA0133001389000044030000
B1754153808313S06002314WA0132001380000048030000
B1754193808373S06002208WA0130401374000056030000
B1754233808426S06002102WA0130201372000056030000
B1754273808472S06001998WA0130801374000048030000
B1754313808521S06001894WA0130401372000044030000
B1754353808580S06001788WA0129401366000044030000
B1754393808638S06001680WA0129001361000044030000
B1754433808695S06001572WA0128401356000044030000
B1754473808751S06001463WA0127701349000044030000
B1754513808804S06001356WA0127601345000044030000
B1754553808855S06001251WA0127201340000044030000
B1754593808905S06001147WA0126301332000044030000
B1755033808962S06001047WA0125301324000052030000
B1755073809023S06000948WA0124301317000052030000
B1755113809080S06000853WA0124501319000048045000
B1755153809140S06000762WA0124101314000052045000
B1755193809210S06000678WA0123401308000048045000
B1755233809280S06000589WA0122101298000048045000
B1755273809353S06000496WA0120001287000056045000
B1755313809430S06000406WA0118801280000056045000
B1755353809504S06000316WA0118401271000056045000
B1755393809574S06000224WA0118101267000060045000
B1755433809634S06000133WA0119201267000068045000
B1755473809678S06000044WA0120901269000052045000
B1755513809717S05959957WA0121001263000052045000
B1755553809768S05959878WA0121401264000048045000
B1755593809829S05959814WA0122001267000048045000
B1756033809912S05959803WA0122801274000048030000
B1756073809967S05959861WA0123501283000048030000
B1756113809972S05959927WA0124101286000040030000
B1756153809917S05959952WA0124701287000036030000
B1756193809872S05959924WA0125301288000036030000
B1756233809847S05959861WA0126101292000036030000
B1756273809873S05959781WA0126501298000036030000
B1756313809938S05959769WA0127501313000040030000
B1756353809968S05959831WA0128101316000040030000
B1756393809942S05959874WA0128501323000040030000
B1756433809915S05959823WA0129201327000036030000
B1756473809932S05959743WA0129201331000048030000
B1756513809991S05959713WA0130101341000040030000
B1756553810041S05959769WA0130701345000044030000
B1756593810025S05959836WA0130401360000052225000
B1757033809984S05959827WA0131301368000048090000
B1757073809986S05959755WA0132001371000044075000
B1757113810038S05959692WA0132101369000056060000
B1757153810110S05959682WA0132901387000064225000
B1757193810162S05959738WA0134001399000052135000
B1757233810155S05959805WA0134201400000044075000
B1757273810104S05959810WA0134101398000052060000
B1757313810075S05959752WA0134601403000048045000
B1757353810110S05959675WA0135401409000048045000
B1757393810181S05959677WA0136901426000048030000
B1757433810211S05959744WA0137301429000044030000
B1757473810179S05959790WA0137101431000040030000
B1757513810136S05959769WA0137501436000036030000
B1757553810112S05959703WA0137301436000040030000
B1757593810114S05959619WA0137201438000064030000
B1758033810128S05959536WA0137801442000072030000
B1758073810163S05959469WA0138201444000064030000
B1758113810201S05959406WA0139301450000052030000
B1758153810267S05959391WA0140001456000056030000
B1758193810322S05959444WA0140501462000052030000
B1758233810329S05959522WA0141401466000068030000
B1758273810286S05959550WA0142701474000068030000
B1758313810263S05959500WA0143601481000060030000
B1758353810289S05959427WA0143801479000072030000
B1758393810359S05959420WA0144001480000060030000
B1758433810414S05959476WA0144801489000060030000
B1758473810435S05959548WA0145601493000060030000
B1758513810388S05959576WA0147401507000068030000
B1758553810368S05959518WA0148201510000056030000
B1758593810401S05959444WA0148401518000052030000
B1759033810467S05959440WA0149701529000048030000
B1759073810505S05959509WA0150901542000052030000
B1759113810483S05959570WA0152401552000048030000
B1759153810437S05959556WA0153701564000040030000
B1759193810432S05959479WA0154201569000040030000
B1759233810478S05959407WA0154401572000044030000
B1759273810548S05959411WA0155601586000040030000
B1759313810591S05959479WA0156801601000040030000
B1759353810575S05959541WA0158401616000044030000
B1759393810528S05959534WA0160001634000040030000
B1759433810517S05959465WA0160801645000040030000
B1759473810559S05959406WA0161901658000036045000
B1759513810630S05959407WA0162301665000036045000
B1759553810696S05959465WA0162901675000040045000
B1759593810709S05959541WA0164501687000040030000
B1800033810663S05959563WA0166101714000040030000
B1800073810647S05959505WA0167601728000040030000
B1800113810687S05959439WA0168201732000040030000
B1800153810762S05959446WA0169401746000044030000
B1800193810793S05959513WA0170701763000044030000
B1800233810760S05959557WA0171801769000040030000
B1800273810722S05959522WA0173501793000036015000
B1800313810732S05959449WA0174601798000036030000
B1800353810784S05959381WA0175601806000036030000
B1800393810862S05959433WA0177001816000036030000
B1800433810882S05959515WA0177801827000052030000
B1800473810845S05959560WA0179001837000060030000
B1800513810805S05959532WA0180901858000052015000
B1800553810804S05959465WA0182401867000040015000
B1800593810845S05959391WA0182601871000040030000
B1801033810923S05959368WA0183001882000064030000
B1801073810978S05959444WA0185101907000064030000
B1801113810978S05959523WA0186901917000064015000
B1801153810934S05959557WA0187701929000056030000
B1801193810890S05959528WA0188801939000068030000
B1801233810871S05959457WA0189601948000052030000
B1801273810896S05959374WA0190201952000064030000
B1801313810962S05959320WA0191401960000064030000
B1801353811044S05959340WA0193501989000076030000
B1801393811077S05959407WA0195602003000068030000
B1801433811057S05959467WA0196802014000072030000
B1801473811008S05959479WA0198302026000064030000
B1801513810972S05959441WA0199802038000060015000
B1801553810965S05959365WA0200702049000048015000
B1801593811003S05959285WA0200802053000052030000
B1802033811068S05959240WA0201002054000048030000
B1802073811144S05959189WA0200402050000048030000
B1802113811216S05959120WA0200302047000060030000
B1802153811286S05959038WA0199802044000052030000
B1802193811358S05958947WA0198702040000048045000
B1802233811428S05958848WA0197602038000048030000
B1802273811495S05958746WA0196102033000044030000
B1802313811562S05958642WA0195102028000044030000
B1802353811627S05958538WA0194502024000052030000
B1802393811689S05958430WA0193702017000052030000
B1802433811752S05958319WA0192402012000064030000
B1802473811815S05958210WA0191602009000060030000
B1802513811871S05958096WA0190702002000064030000
B1802553811919S05957975WA0189801994000056030000
B1802593811962S05957849WA0188901984000052030000
B1803033812004S05957720WA0187801973000052045000
B1803073812044S05957590WA0187001954000056030000
B1803113812079S05957457WA0186401947000060030000
B1803153812112S05957326WA0186201945000060030000
B1803193812140S05957197WA0186001941000052030000
B1803233812164S05957067WA0185301934000052015000
B1803273812187S05956935WA0184301927000052030000
B1803313812212S05956804WA0183701924000064030000
B1803353812236S05956675WA0183601923000060030000
B1803393812260S05956546WA0183401920000060030000
B1803433812285S05956420WA0183001914000064030000
B1803473812309S05956294WA0182701909000068030000
B1803513812334S05956169WA0182201902000076030000
B1803553812360S05956042WA0181401896000076030000
B1803593812386S05955910WA0179801889000068030000
B1804033812412S05955780WA0178801880000064030000
B1804073812441S05955653WA0177701871000056030000
B1804113812468S05955522WA0176701863000056030000
B1804153812493S05955392WA0176101857000056030000
B1804193812524S05955266WA0175901853000056030000
B1804233812560S05955142WA0176001851000052030000
B1804273812599S05955020WA0175701846000052030000
B1804313812639S05954898WA0174901840000048030000
B1804353812686S05954779WA0174201834000048030000
B1804393812741S05954665WA0173701829000052030000
B1804433812794S05954552WA0173401822000052030000
B1804473812841S05954435WA0172701814000052030000
B1804513812885S05954314WA0171801807000052030000
B1804553812924S05954194WA0171401801000052030000
B1804593812954S05954074WA0170801795000060030000
B1805033812983S05953955WA0170501789000060030000
B1805073813005S05953843WA0170801788000056030000
B1805113813019S05953730WA0170801784000052030000
B1805153813032S05953617WA0170301778000052030000
B1805193813042S05953508WA0170101772000048030000
B1805233813053S05953398WA0169601768000048030000
B1805273813062S05953281WA0168301761000052030000
B1805313813071S05953160WA0166801754000056030000
B1805353813084S05953041WA0165601747000060030000
B1805393813097S05952923WA0164501740000056030000
B1805433813113S05952807WA0164001734000060030000
B1805473813126S05952689WA0163301727000060030000
B1805513813127S05952566WA0161401719000060030000
B1805553813130S05952450WA0161801719000060030000
B1805593813133S05952339WA0162301718000060030000
B1806033813150S05952230WA0162501715000068030000
B1806073813171S05952130WA0163601716000068030000
B1806113813158S05952043WA0166001723000056030000
B1806153813110S05952036WA0168001741000048030000
B1806193813101S05952104WA0169601744000048030000
B1806233813156S05952152WA0169901745000044030000
B1806273813222S05952114WA0170801751000040030000
B1806313813234S05952033WA0172201761000036030000
B1806353813191S05952016WA0173001773000048030000
B1806393813179S05952078WA0173501778000044030000
B1806433813236S05952117WA0173801788000044030000
B1806473813291S05952062WA0174801799000044030000
B1806513813274S05951992WA0175001803000040030000
B1806553813236S05952027WA0175501812000040030000
B1806593813284S05952083WA0175801815000056030000
B1807033813353S05952031WA0175701812000052045000
B1807073813379S05951929WA0175201808000056045000
B1807113813395S05951818WA0174601805000048030000
B1807153813412S05951697WA0173501802000048030000
B1807193813427S05951570WA0171701796000044030000
B1807233813442S05951438WA0170201788000044030000
B1807273813457S05951307WA0168601778000048030000
B1807313813481S05951176WA0167601768000064030000
B1807353813509S05951047WA0166601760000064030000
B1807393813547S05950922WA0166001753000064030000
B1807433813596S05950800WA0165301743000068030000
B1807473813646S05950677WA0164101729000072045000
B1807513813699S05950556WA0163401717000068060000
B1807553813752S05950436WA0162501704000060060000
B1807593813803S05950318WA0162001694000056045000
B1808033813850S05950198WA0161601689000052045000
B1808073813894S05950079WA0160901682000048045000
B1808113813942S05949958WA0159901677000056030000
B1808153813995S05949838WA0158801669000064045000
B1808193814050S05949724WA0158601667000072045000
B1808233814103S05949615WA0158801668000080045000
B1808273814155S05949511WA0159101671000076030000
B1808313814206S05949409WA0158701667000080030000
B1808353814255S05949304WA0158401663000084030000
B1808393814305S05949197WA0158201659000076030000
B1808433814353S05949091WA0158101657000068030000
B1808473814400S05948985WA0158501658000064030000
B1808513814446S05948881WA0158901660000060030000
B1808553814492S05948776WA0159101662000056030000
B1808593814536S05948669WA0158801657000056030000
B1809033814578S05948567WA0160101662000056030000
B1809073814618S05948467WA0161101667000068030000
B1809113814652S05948365WA0161301665000068030000
B1809153814665S05948259WA0160601659000068030000
B1809193814653S05948148WA0159301652000060030000
B1809233814628S05948036WA0157901645000060015000
B1809273814597S05947930WA0156801638000060015000
B1809313814565S05947827WA0155801633000060015000
B1809353814518S05947743WA0155201632000060030000
B1809393814461S05947676WA0155001630000056030000
B1809433814406S05947606WA0154501624000052015000
B1809473814357S05947524WA0153101615000056015000
B1809513814320S05947437WA0151901608000056015000
B1809553814294S05947345WA0151801599000052015000
B1809593814271S05947246WA0151601601000056015000
B1810033814245S05947160WA0154601636000056015000
B1810073814196S05947139WA0157901667000052015000
B1810113814197S05947213WA0160301679000056015000
B1810153814270S05947212WA0161901690000052015000
B1810193814280S05947143WA0163301704000056015000
B1810233814235S05947155WA0164901722000056015000
B1810273814275S05947225WA0166601735000060030000
B1810313814335S05947184WA0168101753000068030000
B1810353814307S05947137WA0170401771000060030000
B1810393814288S05947199WA0171901783000064030000
B1810433814352S05947247WA0173201791000056030000
B1810473814409S05947207WA0175301800000052030000
B1810513814401S05947124WA0176301805000056030000
B1810553814352S05947150WA0178101810000068030000
B1810593814372S05947229WA0179301823000056030000
B1811033814443S05947236WA0180701834000048030000
B1811073814492S05947171WA0182701841000044030000
B1811113814467S05947085WA0184101846000040030000
B1811153814422S05947120WA0185601848000048045000
B1811193814426S05947190WA0186701850000052045000
B1811233814470S05947282WA0187301850000048045000
B1811273814519S05947319WA0189001851000048045000
B1811313814575S05947265WA0191101850000044045000
B1811353814548S05947216WA0193001853015040045000
B1811393814505S05947187WA0194801860015040045000
B1811433814515S05947156WA0195701864015040060000
B1811473814543S05947230WA0196401869015040060000
B1811513814589S05947278WA0198001868015048060000
B1811553814615S05947320WA0199901866015044060000
B1811593814621S05947301WA0201801863015044075000
B1812033814587S05947297WA0202501863015040075000
B1812073814599S05947393WA0203501873015040075000
B1812113814662S05947395WA0204501879015060075000
B1812153814697S05947327WA0205901887015068090000
B1812193814722S05947181WA0207501921015060120000
B1812233814675S05947181WA0208501937030052105000
B1812273814649S05947297WA0209601952030048105000
B1812313814686S05947368WA0210201965030044045000
B1812353814744S05947372WA0211201979030044225000
B1812393814810S05947327WA0212501991030040195000
B1812433814804S05947245WA0213602004030040150000
B1812473814732S05947208WA0214202022030048030000
B1812513814692S05947265WA0215302042030052225000
B1812553814682S05947327WA0215802057030056210000
B1812593814726S05947394WA0216502061030060195000
B1813033814821S05947345WA0217802070030048180000
B1813073814869S05947264WA0218402086030044180000
B1813113814875S05947167WA0218002096030044165000
B1813153814872S05947060WA0218102107030056165000
B1813193814869S05946943WA0219902123015056150000
B1813233814869S05946839WA0220302132015056150000
B1813273814865S05946727WA0219902139015052150000
B1813313814860S05946612WA0219402144015052135000
B1813353814855S05946498WA0219802153015052135000
B1813393814849S05946387WA0219902160015056135000
B1813433814846S05946277WA0218702152015068120000
B1813473814842S05946163WA0217002137015064120000
B1813513814835S05946041WA0215702133015060120000
B1813553814825S05945917WA0215002133015056105000
B1813593814817S05945791WA0214302134015060105000
B1814033814813S05945664WA0213202134015056105000
B1814073814813S05945535WA0212302132015056105000
B1814113814820S05945412WA0211802126015056090000
B1814153814831S05945284WA0210702116015052090000
B1814193814847S05945150WA0208802100015056090000
B1814233814866S05945016WA0208102101000060075000
B1814273814885S05944884WA0207702100000072075000
B1814313814903S05944754WA0207102098000084075000
B1814353814921S05944625WA0206702098000068075000
B1814393814943S05944496WA0205702096000060075000
B1814433814965S05944368WA0204902093000072075000
B1814473814986S05944238WA0204002090000068060000
B1814513815007S05944108WA0203002082000060060000
B1814553815028S05943976WA0202402079000060060000
B1814593815042S05943846WA0201802075000060045000
B1815033815051S05943718WA0201302072000064045000
B1815073815057S05943593WA0201202078000068045000
B1815113815064S05943479WA0202502086000064045000
B1815153815070S05943368WA0202702086000060045000
B1815193815073S05943248WA0201502082000056045000
B1815233815082S05943125WA0200602077000052030000
B1815273815091S05943004WA0199802077000068030000
B1815313815107S05942886WA0199902081000064030000
B1815353815159S05942784WA0200102083000056030000
B1815393815237S05942713WA0199302080000052030000
B1815433815334S05942715WA0199302080000044030000
B1815473815414S05942787WA0199102080000048030000
B1815513815450S05942874WA0197802073000048030000
B1815553815447S05943003WA0196102064000064030000
B1815593815447S05943118WA0194502052000072030000
B1816033815445S05943239WA0192602043000072030000
B1816073815442S05943363WA0191702033000068030000
B1816113815440S05943490WA0190202020000064030000
B1816153815440S05943625WA0189002007000076030000
B1816193815441S05943766WA0188302001000080045000
B1816233815446S05943905WA0187501984000076060000
B1816273815447S05944041WA0187001975000076060000
B1816313815447S05944173WA0187001973000072045000
B1816353815446S05944299WA0186501963000072045000
B1816393815444S05944428WA0185001951000072045000
B1816433815449S05944560WA0184201938000068030000
B1816473815459S05944693WA0183001924000064030000
B1816513815473S05944824WA0181901913000068030000
B1816553815485S05944955WA0180901903000072030000
B1816593815498S05945087WA0180101894000068030000
B1817033815514S05945217WA0179701887000068030000
B1817073815528S05945348WA0179001879000068030000
B1817113815545S05945475WA0180001885000068030000
B1817153815563S05945588WA0180601886000064030000
B1817193815580S05945704WA0179601879000056030000
B1817233815600S05945826WA0178001869000060030000
B1817273815614S05945949WA0177701868000060030000
B1817313815623S05946069WA0177101852000056015000
B1817353815637S05946193WA0176101844000056015000
B1817393815658S05946314WA0175801839000052015000
B1817433815674S05946432WA0175201834000052015000
B1817473815685S05946549WA0174301828000048015000
B1817513815687S05946664WA0173201819000048015000
B1817553815679S05946781WA0171801810000060030000
B1817593815670S05946894WA0171601808000064030000
B1818033815654S05946992WA0172201811000060030000
B1818073815614S05947081WA0172501813000060030000
B1818113815554S05947129WA0173101816000064030000
B1818153815494S05947120WA0174701823000056015000
B1818193815473S05947056WA0176001825000056015000
B1818233815506S05946976WA0176301828000056015000
B1818273815575S05946943WA0177001832000052015000
B1818313815655S05947002WA0177701838000044015000
B1818353815698S05947090WA0178501848000048030000
B1818393815681S05947168WA0179601856000044015000
B1818433815628S05947190WA0179201855000044015000
B1818473815589S05947138WA0179301862000052015000
B1818513815589S05947059WA0180201868000052015000
B1818553815631S05946991WA0181501876000052015000
B1818593815698S05946930WA0181401875000044015000
B1819033815778S05946891WA0181101872000044015000
B1819073815871S05946904WA0181501873000052030000
B1819113815943S05946960WA0181901879000048030000
B1819153815957S05947043WA0181601880000044030000
B1819193815923S05947116WA0181701884000056030000
B1819233815866S05947139WA0181701885000052030000
B1819273815813S05947108WA0181701887000048015000
B1819313815785S05947038WA0182301894000044015000
B1819353815792S05946956WA0183001898000048015000
B1819393815847S05946883WA0183501900000056015000
B1819433815927S05946859WA0182501896000052030000
B1819473816026S05946908WA0181801892000056030000
B1819513816094S05946987WA0180801884000060030000
B1819553816146S05947086WA0179601877000076030000
B1819593816195S05947184WA0180101878000068030000
B1820033816246S05947278WA0179301872000060015000
B1820073816296S05947377WA0178801866000060015000
B1820113816343S05947479WA0178801866000056015000
B1820153816389S05947580WA0178101859000052015000
B1820193816435S05947684WA0176901850000048015000
B1820233816487S05947788WA0176601848000048015000
B1820273816533S05947882WA0177201850000044015000
B1820313816580S05947969WA0177101846000040015000
B1820353816627S05948055WA0176401841000036015000
B1820393816675S05948146WA0175401831000040015000
B1820433816728S05948238WA0173801823000044015000
B1820473816780S05948334WA0173001810000044015000
B1820513816831S05948428WA0173001813000052015000
B1820553816881S05948510WA0174101818000044015000
B1820593816931S05948588WA0174801819000044015000
B1821033816983S05948668WA0174601816000040015000
B1821073817036S05948750WA0175801822000036015000
B1821113817089S05948820WA0177301828000036015000
B1821153817144S05948887WA0177801830000032015000
B1821193817202S05948962WA0177901831000036015000
B1821233817257S05949040WA0179301837000040015000
B1821273817275S05949130WA0180101842000040015000
B1821313817236S05949200WA0181501855000040015000
B1821353817188S05949160WA0182701865000044015000
B1821393817188S05949071WA0183301867000044015000
B1821433817236S05948992WA0183101864000040015000
B1821473817303S05948932WA0183001862000044030000
B1821513817384S05948920WA0184501864000040030000
B1821553817466S05948933WA0185801869000036030000
