ACAM4IR
HFDTE050125
HFFXA050
HFPLTPILOT:DINO GHIONI             
HFGTYGLIDERTYPE:LS-4        
HFGIDGLIDERID:KC          
HFDTM100GPSDATUM:
HFRFWFIRMWAREVERSION:F2.6
HFRHWHARDWAREVERSION:300 Series Version 2
HFFTYFRTYPE:CAMBRIDGE AERO INSTRUMENTS, 302+
HFGPS:GARMIN,LVS-25,12,18000
HFPRSPRESSALTSENSOR:INTERSEMA, MS5534-AP, 20000
I033638FXA3941ENL4247REX
LCAMSBVER:5FWVER:F26300
C021223160536021223000102
C0000000N00000000WTAKEOFF     
C3526206S06253971WHARAS       
C3602217S06316383WLAS 3 MARIAS
C3600901S06241720WC.P.T.LAUQUE
C3530355S06259367W1-CLUB      
C0000000N00000000WLANDING     
B1733503802190S06008121WA0019100189000000000000
B1733523802190S06008121WA0019100189000000000000
B1733543802190S06008121WA0019200189000000000000
B1733563802190S06008121WA0019100189000000000000
B1733583802190S06008121WA0019100189000000000000
B1734003802190S06008121WA0019200189000000000000
B1734023802190S06008121WA0019100189000000000000
B1734043802190S06008121WA0019100189000000000000
B1734063802190S06008121WA0019000189000000000000
B1734083802190S06008121WA0019100189000000000000
B1734103802190S06008121WA0019100189000000000000
B1734123802190S06008121WA0019100189000000000000
B1734143802190S06008121WA0019100189000000000000
B1734163802187S06008121WA0019200189000000000000
B1734183802182S06008123WA0019200189000000000000
B1734233802156S06008124WA0019000190000000000000
B1734273802122S06008129WA0019000189000000000000
B1734313802076S06008136WA0018900191000000000000
B1734353802020S06008142WA0019000191000000000000
B1734393801960S06008149WA0019300199000000000000
B1734433801899S06008153WA0020600216000000000000
B1734473801835S06008156WA0022100228000000000000
B1734513801771S06008166WA0023000244000000000000
B1734553801709S06008173WA0024300253000000000000
B1734593801644S06008180WA0025300259000000000000
B1735033801580S06008190WA0025400269000000000000
B1735073801517S06008202WA0027000287000000000000
B1735113801456S06008228WA0028500303000000000000
B1735153801396S06008266WA0030000322000000000000
B1735193801340S06008314WA0031600335000000000000
B1735233801289S06008371WA0032900342000000000000
B1735273801240S06008439WA0033000347000000000000
B1735313801193S06008507WA0033800365000000000000
B1735353801142S06008569WA0035600378000000000000
B1735393801093S06008632WA0036600387000000000000
B1735433801043S06008696WA0037700399000000000000
B1735473800989S06008754WA0039000409000000000000
B1735513800937S06008817WA0039700417000000000000
B1735553800891S06008892WA0040400427000000000000
B1735593800852S06008970WA0041400440000000000000
B1736033800816S06009050WA0042800456000000000000
B1736073800778S06009126WA0044500476000000000000
B1736113800743S06009202WA0045900485000000000000
B1736153800707S06009277WA0047100499000000000000
B1736193800670S06009352WA0048800516000000000000
B1736233800625S06009417WA0050000522000000000000
B1736273800572S06009464WA0050900534000000000000
B1736313800513S06009492WA0052000543000000000000
B1736353800452S06009502WA0052400546000000000000
B1736393800392S06009489WA0052800551000000000000
B1736433800338S06009454WA0053600559000000000000
B1736473800289S06009403WA0054300565000000000000
B1736513800243S06009351WA0055100574000000000000
B1736553800193S06009298WA0055800580000000000000
B1736593800144S06009245WA0056800599000000000000
B1737033800101S06009183WA0058700619000000000000
B1737073800063S06009117WA0060900644000000000000
B1737113800033S06009046WA0062700666000000000000
B1737153800015S06008966WA0065100687000000000000
B1737193800005S06008884WA0066900706000000000000
B1737233759994S06008801WA0068400713000000000000
B1737273759981S06008717WA0069200724000000000000
B1737313759970S06008630WA0070200733000000000000
B1737353759962S06008541WA0071500750000000000000
B1737393759949S06008455WA0073000761000000000000
B1737433759915S06008393WA0073400761000000000000
B1737473759897S06008322WA0073500762000000000000
B1737513759903S06008246WA0073400755000000000000
B1737553759923S06008171WA0072900750000000000000
B1737593759951S06008099WA0072400742000000000000
B1738033759980S06008029WA0071500736000000000000
B1738073800010S06007960WA0071100736000000000000
B1738113800044S06007895WA0070900732000000000000
B1738153800081S06007829WA0070000722000000000000
B1738193800126S06007765WA0069600720000000000000
B1738233800171S06007703WA0069200709000000000000
B1738273800218S06007642WA0068200704000000000000
B1738313800265S06007587WA0067900705000000000000
B1738353800312S06007534WA0068500713000000000000
B1738393800341S06007477WA0069200720000000000000
B1738433800345S06007412WA0069300713000000000000
B1738473800331S06007344WA0068200701000000000000
B1738513800314S06007274WA0067600699000000000000
B1738553800280S06007215WA0067800708000000000000
B1738593800236S06007172WA0068600713000000000000
B1739033800195S06007127WA0069000722000000000000
B1739073800144S06007103WA0069900730000000000000
B1739113800104S06007166WA0070900741000000000000
B1739153800144S06007245WA0072200758000000000000
B1739193800211S06007232WA0073600770000000000000
B1739233800228S06007167WA0074900775000000000000
B1739273800191S06007118WA0075500782000000000000
B1739313800136S06007135WA0076200792000000000000
B1739353800130S06007217WA0076600793000000000000
B1739393800193S06007275WA0077400808000000000000
B1739433800258S06007252WA0078900822000000000000
B1739473800262S06007180WA0080100829000000000000
B1739513800209S06007152WA0080600837000000000000
B1739553800165S06007201WA0081400849000000000000
B1739593800176S06007284WA0082600862000000000000
B1740033800240S06007327WA0083700866000000000000
B1740073800304S06007288WA0084400879000000000000
B1740113800306S06007217WA0085700895000000000000
B1740153800257S06007187WA0086700899000000000000
B1740193800180S06007210WA0087401014000000000000
B1740233800201S06007310WA0088600933000000000000
B1740273800244S06007376WA0089400927000000000000
B1740313800310S06007380WA0090200949000000000000
B1740353800340S06007317WA0091100956000000000000
B1740393800304S06007270WA0092100961000000000000
B1740433800253S06007304WA0092800972000000000000
B1740473800263S06007386WA0094200984000000000000
B1740513800334S06007409WA0095100993000000000000
B1740553800378S06007357WA0096101003000000000000
B1740593800343S06007308WA0097201012000000000000
B1741033800302S06007366WA0097901022000000000000
B1741073800348S06007439WA0099101030000000000000
B1741113800417S06007417WA0100201043000000000000
B1741153800418S06007348WA0101501050000000000000
B1741193800369S06007330WA0102301063000000000000
B1741233800343S06007397WA0103201071000000000000
B1741273800392S06007464WA0104101075000000000000
B1741313800456S06007434WA0104901091000000000000
B1741353800449S06007365WA0106301103000000000000
B1741393800397S06007374WA0107301111000000000000
B1741433800403S06007460WA0108001119000000000000
B1741473800469S06007490WA0108801133000000000000
B1741513800505S06007431WA0110301144000000000000
B1741553800482S06007370WA0111001144000000000000
B1741593800425S06007379WA0111401155000000000000
B1742033800406S06007458WA0112101160000000000000
B1742073800453S06007523WA0113101175000000000000
B1742113800513S06007495WA0114301184000000000000
B1742153800509S06007423WA0115401196000000000000
B1742193800456S06007417WA0116301203000000000000
B1742233800432S06007488WA0116601206000000000000
B1742273800478S06007556WA0117201212000000000000
B1742313800547S06007545WA0118001224000000000000
B1742353800570S06007474WA0119201235000000000000
B1742393800535S06007421WA0120301246000000000000
B1742433800484S06007453WA0120901245000000000000
B1742473800479S06007538WA0121101251000000000000
B1742513800533S06007599WA0121701260000000000000
B1742553800601S06007591WA0122301262000000000000
B1742593800639S06007523WA0122801265000000000000
B1743033800629S06007448WA0123101274000000000000
B1743073800594S06007391WA0123901281000000000000
B1743113800548S06007350WA0124201281000000000000
B1743153800495S06007322WA0124501291000000000000
B1743193800442S06007310WA0125501297000000000000
B1743233800405S06007373WA0126001300000000000000
B1743273800431S06007453WA0125801298000000000000
B1743313800503S06007465WA0125701297000000000000
B1743353800557S06007412WA0125701301000000000000
B1743393800586S06007340WA0126001305000000000000
B1743433800591S06007263WA0126701308000000000000
B1743473800565S06007204WA0127001310000000000000
B1743513800512S06007196WA0126801305000000000000
B1743553800470S06007252WA0126201295000000000000
B1743593800470S06007340WA0125601297000000000000
B1744033800494S06007423WA0125901301000000000000
B1744073800520S06007506WA0125901301000000000000
B1744113800539S06007592WA0126101302000000000000
B1744153800569S06007677WA0125901294000000000000
B1744193800631S06007730WA0125301292000000000000
B1744233800704S06007729WA0125301296000000000000
B1744273800763S06007682WA0126101308000000000000
B1744313800774S06007608WA0126801313000000000000
B1744353800726S06007569WA0127201316000000000000
B1744393800676S06007610WA0127501314000000000000
B1744433800672S06007700WA0127001307000000000000
B1744473800715S06007774WA0127001313000000000000
B1744513800783S06007799WA0127601318000000000000
B1744553800852S06007785WA0127201306000000000000
B1744593800893S06007722WA0126001298000000000000
B1745033800890S06007651WA0125101289000000000000
B1745073800852S06007600WA0124801292000000000000
B1745113800798S06007584WA0125401303000000000000
B1745153800743S06007599WA0126101298000000000000
B1745193800690S06007639WA0126401311000000000000
B1745233800664S06007713WA0126601303000000000000
B1745273800695S06007798WA0125601289000000000000
B1745313800767S06007831WA0124601282000000000000
B1745353800838S06007803WA0124601290000000000000
B1745393800889S06007742WA0124801288000000000000
B1745433800902S06007662WA0124801295000000000000
B1745473800876S06007597WA0125501297000000000000
B1745513800830S06007552WA0125401291000000000000
B1745553800773S06007526WA0124901279000000000000
B1745593800708S06007518WA0124401278000000000000
B1746033800640S06007516WA0123401268000000000000
B1746073800570S06007516WA0122501263000000000000
B1746113800497S06007518WA0121601253000000000000
B1746153800423S06007519WA0120701243000000000000
B1746193800348S06007521WA0119801231000000000000
B1746233800271S06007522WA0118801222000000000000
B1746273800192S06007523WA0117601213000000000000
B1746313800110S06007522WA0116601203000000000000
B1746353800027S06007521WA0115901200000000000000
B1746393759945S06007526WA0115701198000000000000
B1746433759864S06007535WA0115901203000000000000
B1746473759785S06007540WA0115901201000000000000
B1746513759710S06007539WA0115901201000000000000
B1746553759634S06007525WA0115701199000000000000
B1746593759565S06007503WA0115701198000000000000
B1747033759494S06007488WA0115401190000000000000
B1747073759420S06007506WA0114601184000000000000
B1747113759355S06007558WA0114101179000000000000
B1747153759301S06007631WA0114101175000000000000
B1747193759256S06007713WA0113801171000000000000
B1747233759210S06007794WA0113601171000000000000
B1747273759161S06007873WA0113401165000000000000
B1747313759110S06007950WA0112901156000000000000
B1747353759058S06008025WA0112201151000000000000
B1747393759004S06008099WA0111501147000000000000
B1747433758952S06008176WA0111101141000000000000
B1747473758897S06008253WA0110501133000000000000
B1747513758832S06008315WA0109601125000000000000
B1747553758762S06008351WA0109501126000000000000
B1747593758690S06008377WA0109101121000000000000
B1748033758620S06008400WA0109001120000000000000
B1748073758554S06008416WA0108501112000000000000
B1748113758486S06008431WA0107301101000000000000
B1748153758423S06008475WA0105801092000000000000
B1748193758382S06008556WA0105401088000000000000
B1748233758363S06008652WA0105601086000000000000
B1748273758358S06008752WA0105001078000000000000
B1748313758356S06008853WA0103801073000000000000
B1748353758352S06008953WA0102901061000000000000
B1748393758343S06009052WA0102601067000000000000
B1748433758326S06009139WA0103401078000000000000
B1748473758321S06009224WA0104501080000000000000
B1748513758354S06009303WA0104401080000000000000
B1748553758417S06009346WA0104301075000000000000
B1748593758492S06009338WA0104101084000000000000
B1749033758557S06009315WA0105301093000000000000
B1749073758575S06009243WA0106401102000000000000
B1749113758528S06009203WA0106901101000000000000
B1749153758476S06009243WA0106701103000000000000
B1749193758475S06009334WA0107001110000000000000
B1749233758531S06009398WA0107901123000000000000
B1749273758603S06009403WA0108801123000000000000
B1749313758668S06009369WA0108901125000000000000
B1749353758702S06009303WA0109301135000000000000
B1749393758674S06009245WA0110301145000000000000
B1749433758616S06009252WA0110901145000000000000
B1749473758585S06009325WA0110901139000000000000
B1749513758615S06009412WA0110301136000000000000
B1749553758685S06009442WA0110401138000000000000
B1749593758753S06009423WA0110101137000000000000
B1750033758815S06009388WA0110501145000000000000
B1750073758850S06009323WA0110801147000000000000
B1750113758826S06009263WA0111101147000000000000
B1750153758766S06009263WA0110501137000000000000
B1750193758720S06009329WA0109801136000000000000
B1750233758697S06009419WA0110101141000000000000
B1750273758711S06009514WA0110801148000000000000
B1750313758768S06009575WA0111201152000000000000
B1750353758836S06009563WA0111301148000000000000
B1750393758870S06009497WA0110701137000000000000
B1750433758858S06009421WA0110101140000000000000
B1750473758822S06009368WA0110501147000000000000
B1750513758774S06009337WA0110901147000000000000
B1750553758716S06009341WA0111401156000000000000
B1750593758689S06009417WA0111201140000000000000
B1751033758728S06009502WA0110201138000000000000
B1751073758797S06009540WA0110001137000000000000
B1751113758861S06009508WA0110601147000000000000
B1751153758889S06009441WA0110701145000000000000
B1751193758872S06009369WA0111001155000000000000
B1751233758849S06009304WA0111801157000000000000
B1751273758814S06009245WA0111601152000000000000
B1751313758784S06009178WA0111501150000000000000
B1751353758755S06009109WA0111101147000000000000
B1751393758732S06009037WA0110501138000000000000
B1751433758710S06008962WA0110001137000000000000
B1751473758689S06008887WA0109301128000000000000
B1751513758683S06008808WA0109201134000000000000
B1751553758681S06008732WA0110201152000000000000
B1751593758663S06008667WA0111401154000000000000
B1752033758610S06008660WA0111501143000000000000
B1752073758568S06008721WA0110601141000000000000
B1752113758581S06008808WA0110001134000000000000
B1752153758644S06008858WA0109501128000000000000
B1752193758720S06008858WA0108901126000000000000
B1752233758793S06008836WA0109401132000000000000
B1752273758858S06008796WA0109801140000000000000
B1752313758893S06008725WA0110501147000000000000
B1752353758872S06008660WA0111201150000000000000
B1752393758819S06008662WA0110801139000000000000
B1752433758792S06008739WA0110001136000000000000
B1752473758804S06008834WA0109901139000000000000
B1752513758849S06008913WA0110501147000000000000
B1752553758923S06008901WA0111401154000000000000
B1752593758944S06008827WA0111801155000000000000
B1753033758902S06008778WA0111301147000000000000
B1753073758846S06008812WA0111401151000000000000
B1753113758831S06008901WA0111601153000000000000
B1753153758876S06008985WA0111801155000000000000
B1753193758953S06008995WA0112301158000000000000
B1753233759006S06008942WA0112101158000000000000
B1753273759013S06008864WA0111701151000000000000
B1753313758967S06008817WA0111201151000000000000
B1753353758910S06008799WA0111601161000000000000
B1753393758857S06008788WA0112301162000000000000
B1753433758800S06008788WA0111701150000000000000
B1753473758739S06008796WA0111201138000000000000
B1753513758671S06008799WA0110001127000000000000
B1753553758605S06008790WA0109301127000000000000
B1753593758541S06008779WA0109401133000000000000
B1754033758480S06008762WA0108901123000000000000
B1754073758419S06008744WA0108601128000000000000
B1754113758363S06008723WA0108801123000000000000
B1754153758303S06008705WA0107901109000000000000
B1754193758241S06008686WA0106601094000000000000
B1754233758173S06008669WA0105201087000000000000
B1754273758104S06008652WA0104501085000000000000
B1754313758039S06008636WA0104801087000000000000
B1754353757974S06008621WA0105101099000000000000
B1754393757923S06008598WA0107301116000000000000
B1754433757866S06008617WA0107901107000000000000
B1754473757801S06008639WA0106601099000000000000
B1754513757732S06008643WA0106201095000000000000
B1754553757666S06008628WA0106001091000000000000
B1754593757608S06008589WA0105601082000000000000
B1755033757558S06008531WA0104501072000000000000
B1755073757513S06008463WA0103401057000000000000
B1755113757472S06008388WA0102201049000000000000
B1755153757439S06008305WA0101401038000000000000
B1755193757406S06008220WA0100401031000000000000
B1755233757374S06008136WA0099701023000000000000
B1755273757338S06008051WA0098701010000000000000
B1755313757301S06007964WA0097701003000000000000
B1755353757262S06007874WA0096800991000000000000
B1755393757224S06007782WA0096100989000000000000
B1755433757189S06007688WA0095600979000000000000
B1755473757162S06007590WA0094500969000000000000
B1755513757141S06007487WA0093900965000000000000
B1755553757117S06007387WA0093900980000000000000
B1755593757098S06007305WA0096401004000000000000
B1756033757077S06007232WA0097301008000000000000
B1756073757046S06007171WA0097300998000000000000
B1756113756995S06007126WA0096500990000000000000
B1756153756951S06007072WA0096300991000000000000
B1756193756909S06007012WA0095500978000000000000
B1756233756868S06006944WA0094100966000000000000
B1756273756833S06006866WA0092900958000000000000
B1756313756800S06006782WA0092000950000000000000
B1756353756766S06006698WA0091100937000000000000
B1756393756731S06006612WA0089900930000000000000
B1756433756698S06006526WA0089000916000000000000
B1756473756664S06006434WA0087600905000000000000
B1756513756633S06006342WA0086800901000000000000
B1756553756605S06006251WA0086500898000000000000
B1756593756577S06006165WA0086400899000000000000
B1757033756552S06006080WA0086800911000000000000
B1757073756551S06006004WA0089100935000000000000
B1757113756553S06005933WA0090800940000000000000
B1757153756512S06005896WA0090600938000000000000
B1757193756466S06005949WA0090400932000000000000
B1757233756490S06006041WA0089800932000000000000
B1757273756557S06006080WA0090800946000000000000
B1757313756629S06006071WA0091300944000000000000
B1757353756673S06006010WA0091500948000000000000
B1757393756666S06005937WA0091200938000000000000
B1757433756614S06005902WA0089900926000000000000
B1757473756551S06005913WA0089300924000000000000
B1757513756491S06005932WA0089300922000000000000
B1757553756447S06006006WA0089200927000000000000
B1757593756464S06006101WA0089400928000000000000
B1758033756530S06006139WA0090200938000000000000
B1758073756582S06006088WA0091200950000000000000
B1758113756555S06006032WA0091900952000000000000
B1758153756501S06006071WA0092000952000000000000
B1758193756509S06006165WA0091700951000000000000
B1758233756575S06006201WA0092500960000000000000
B1758273756633S06006160WA0092600960000000000000
B1758313756620S06006091WA0092900961000000000000
B1758353756561S06006100WA0093200968000000000000
B1758393756535S06006182WA0093000964000000000000
B1758433756582S06006261WA0093000971000000000000
B1758473756659S06006264WA0093300964000000000000
B1758513756691S06006190WA0093500976000000000000
B1758553756657S06006140WA0094500982000000000000
B1758593756603S06006160WA0094800979000000000000
B1759033756579S06006242WA0094500976000000000000
B1759073756617S06006327WA0094500981000000000000
B1759113756688S06006352WA0094700977000000000000
B1759153756739S06006295WA0094200975000000000000
B1759193756733S06006219WA0094300979000000000000
B1759233756682S06006195WA0095100982000000000000
B1759273756634S06006244WA0095100976000000000000
B1759313756639S06006338WA0094900977000000000000
B1759353756703S06006398WA0095000975000000000000
B1759393756776S06006377WA0094500968000000000000
B1759433756798S06006300WA0094300974000000000000
B1759473756764S06006244WA0094600973000000000000
B1759513756711S06006214WA0094300968000000000000
B1759553756660S06006179WA0094400976000000000000
B1759593756612S06006144WA0094700973000000000000
B1800033756560S06006109WA0094200970000000000000
B1800073756509S06006076WA0094100970000000000000
B1800113756456S06006043WA0093500957000000000000
B1800153756402S06006006WA0092000945000000000000
B1800193756340S06005982WA0090700937000000000000
B1800233756274S06005974WA0091300955000000000000
B1800273756214S06005971WA0093600969000000000000
B1800313756170S06006034WA0094700978000000000000
B1800353756198S06006119WA0095200981000000000000
B1800393756269S06006126WA0095100982000000000000
B1800433756300S06006062WA0094900985000000000000
B1800473756298S06005993WA0095500989000000000000
B1800513756258S06005945WA0096100996000000000000
B1800553756209S06005987WA0096801008000000000000
B1800593756231S06006073WA0097801014000000000000
B1801033756301S06006074WA0098101015000000000000
B1801073756328S06006005WA0098701023000000000000
B1801113756300S06005948WA0099201029000000000000
B1801153756249S06005974WA0100201039000000000000
B1801193756253S06006061WA0100601039000000000000
B1801233756321S06006102WA0100701042000000000000
B1801273756367S06006045WA0101201051000000000000
B1801313756349S06005978WA0101401048000000000000
B1801353756302S06005946WA0102001057000000000000
B1801393756245S06005972WA0102101056000000000000
B1801433756235S06006062WA0102201059000000000000
B1801473756293S06006125WA0102501060000000000000
B1801513756357S06006086WA0103201071000000000000
B1801553756354S06006014WA0103901075000000000000
B1801593756300S06006006WA0104101076000000000000
B1802033756263S06006079WA0103901075000000000000
B1802073756297S06006164WA0104301078000000000000
B1802113756369S06006180WA0104801083000000000000
B1802153756417S06006123WA0105101082000000000000
B1802193756396S06006054WA0104901085000000000000
B1802233756335S06006048WA0105101079000000000000
B1802273756282S06006104WA0104901081000000000000
B1802313756269S06006195WA0105101080000000000000
B1802353756311S06006273WA0104801084000000000000
B1802393756382S06006286WA0105501089000000000000
B1802433756436S06006239WA0105801087000000000000
B1802473756461S06006162WA0105601087000000000000
B1802513756449S06006089WA0105601096000000000000
B1802553756426S06006023WA0105901087000000000000
B1802593756386S06005963WA0104501075000000000000
B1803033756344S06005906WA0104301081000000000000
B1803073756308S06005846WA0104301067000000000000
B1803113756269S06005781WA0102601057000000000000
B1803153756227S06005722WA0101801048000000000000
B1803193756189S06005649WA0100601034000000000000
B1803233756157S06005563WA0099001018000000000000
B1803273756126S06005468WA0097601002000000000000
B1803313756093S06005372WA0096100990000000000000
B1803353756059S06005278WA0095400991000000000000
B1803393756029S06005189WA0095300986000000000000
B1803433756007S06005099WA0094900981000000000000
B1803473755984S06005012WA0094300977000000000000
B1803513755959S06004926WA0094300975000000000000
B1803553755934S06004843WA0094700989000000000000
B1803593755914S06004766WA0096001003000000000000
B1804033755899S06004692WA0096801012000000000000
B1804073755882S06004623WA0097901015000000000000
B1804113755834S06004585WA0098301025000000000000
B1804153755781S06004628WA0099501026000000000000
B1804193755788S06004722WA0099601031000000000000
B1804233755856S06004760WA0100501041000000000000
B1804273755920S06004726WA0100901048000000000000
B1804313755938S06004653WA0101201050000000000000
B1804353755915S06004585WA0101501053000000000000
B1804393755866S06004555WA0101901060000000000000
B1804433755812S06004597WA0102101055000000000000
B1804473755806S06004693WA0102001056000000000000
B1804513755864S06004756WA0102401071000000000000
B1804553755931S06004736WA0103801078000000000000
B1804593755944S06004665WA0104301081000000000000
B1805033755899S06004624WA0104301075000000000000
B1805073755840S06004657WA0104201076000000000000
B1805113755814S06004743WA0104101078000000000000
B1805153755843S06004832WA0104401082000000000000
B1805193755914S06004871WA0105501088000000000000
B1805233755977S06004827WA0105601087000000000000
B1805273755993S06004743WA0105501086000000000000
B1805313755941S06004700WA0105901093000000000000
B1805353755880S06004736WA0106001087000000000000
B1805393755868S06004835WA0105901093000000000000
E180542PEV
B1805423755902S06004900WA0106501100000000000000
B1805433755916S06004917WA0106601101000000000000
B1805443755933S06004929WA0106801101000000000000
B1805453755953S06004935WA0106901102000000000000
B1805463755972S06004938WA0106901102000000000000
E180547PEV
B1805473755990S06004936WA0106901101000000000000
B1805483756007S06004927WA0106801099000000000000
B1805493756023S06004914WA0106801100000000000000
B1805503756035S06004897WA0106801103000000000000
B1805513756045S06004879WA0106801101000000000000
B1805523756053S06004861WA0106801097000000000000
B1805533756058S06004840WA0106801096000000000000
B1805543756062S06004819WA0106701094000000000000
B1805553756062S06004797WA0106401095000000000000
B1805563756059S06004778WA0106401097000000000000
B1805573756054S06004758WA0106401097000000000000
B1805583756045S06004741WA0106401097000000000000
B1805593756032S06004728WA0106501101000000000000
B1806003756019S06004718WA0106701107000000000000
B1806013756006S06004708WA0106801108000000000000
B1806023755994S06004696WA0107101107000000000000
B1806033755983S06004685WA0107301108000000000000
B1806073755932S06004645WA0107101112000000000000
B1806113755880S06004607WA0107801121000000000000
B1806153755827S06004572WA0108801125000000000000
B1806193755775S06004613WA0109701140000000000000
B1806233755791S06004695WA0110501144000000000000
B1806273755856S06004722WA0110601139000000000000
B1806313755911S06004671WA0110101133000000000000
B1806353755928S06004587WA0109701142000000000000
B1806393755914S06004511WA0111101154000000000000
B1806433755856S06004496WA0111501151000000000000
B1806473755824S06004571WA0110901145000000000000
B1806513755871S06004648WA0111001154000000000000
B1806553755946S06004648WA0112101167000000000000
B1806593756001S06004591WA0112801170000000000000
B1807033755993S06004510WA0113501169000000000000
B1807073755938S06004470WA0112401158000000000000
B1807113755880S06004498WA0112001154000000000000
B1807153755840S06004567WA0111201149000000000000
B1807193755828S06004657WA0111401159000000000000
B1807233755828S06004750WA0112401168000000000000
B1807273755886S06004804WA0113601184000000000000
B1807313755949S06004763WA0114901187000000000000
B1807353755945S06004682WA0115101190000000000000
B1807393755886S06004661WA0115401201000000000000
B1807433755846S06004723WA0116401207000000000000
B1807473755866S06004809WA0117101208000000000000
B1807513755938S06004826WA0117701220000000000000
B1807553755989S06004766WA0118401222000000000000
B1807593755977S06004683WA0118501223000000000000
B1808033755918S06004661WA0118901230000000000000
B1808073755877S06004730WA0119601235000000000000
B1808113755914S06004810WA0119201236000000000000
B1808153755990S06004808WA0120001246000000000000
B1808193756023S06004730WA0121201256000000000000
B1808233755989S06004662WA0121601256000000000000
B1808273755929S06004685WA0121901263000000000000
B1808313755908S06004767WA0122101260000000000000
B1808353755955S06004841WA0122801267000000000000
B1808393756033S06004852WA0123201268000000000000
B1808433756080S06004787WA0124201273000000000000
B1808473756066S06004683WA0124801275000000000000
B1808513756006S06004652WA0124601276000000000000
B1808553755944S06004669WA0124701277000000000000
B1808593755881S06004688WA0124301273000000000000
B1809033755819S06004696WA0124001270000000000000
B1809073755762S06004661WA0123401265000000000000
B1809113755728S06004589WA0123201266000000000000
B1809153755708S06004507WA0123301266000000000000
B1809193755699S06004422WA0123101262000000000000
B1809233755691S06004334WA0122501256000000000000
B1809273755684S06004247WA0122101255000000000000
B1809313755678S06004160WA0122001256000000000000
B1809353755673S06004073WA0122501261000000000000
B1809393755661S06003991WA0122801261000000000000
B1809433755611S06003937WA0122701265000000000000
B1809473755544S06003952WA0122601264000000000000
B1809513755508S06004021WA0122501262000000000000
B1809553755522S06004104WA0122301261000000000000
B1809593755561S06004181WA0121701249000000000000
B1810033755607S06004255WA0121201241000000000000
B1810073755660S06004324WA0120501236000000000000
B1810113755715S06004396WA0119901233000000000000
B1810153755768S06004468WA0119401223000000000000
B1810193755821S06004545WA0118501217000000000000
B1810233755868S06004627WA0118001212000000000000
B1810273755912S06004713WA0117701209000000000000
B1810313755940S06004806WA0117301204000000000000
B1810353755963S06004903WA0116501206000000000000
B1810393755972S06004996WA0117101219000000000000
B1810433755968S06005083WA0118601232000000000000
B1810473755973S06005169WA0118501214000000000000
B1810513755971S06005259WA0117501208000000000000
B1810553755960S06005343WA0116901212000000000000
B1810593755950S06005420WA0117301209000000000000
B1811033755953S06005501WA0116601196000000000000
B1811073755993S06005579WA0115101183000000000000
B1811113756055S06005633WA0114001172000000000000
B1811153756124S06005673WA0113301168000000000000
B1811193756196S06005719WA0112301154000000000000
B1811233756267S06005775WA0111101147000000000000
B1811273756339S06005833WA0110301140000000000000
B1811313756409S06005896WA0109901134000000000000
B1811353756477S06005963WA0109101127000000000000
B1811393756543S06006036WA0108601123000000000000
B1811433756604S06006117WA0108001117000000000000
B1811473756661S06006201WA0107401110000000000000
B1811513756716S06006288WA0106801106000000000000
B1811553756769S06006375WA0106301099000000000000
B1811593756817S06006466WA0105901099000000000000
B1812033756855S06006564WA0106401098000000000000
B1812073756893S06006659WA0106301093000000000000
B1812113756925S06006754WA0105701089000000000000
B1812153756947S06006851WA0105801096000000000000
B1812193756968S06006947WA0106501102000000000000
B1812233756986S06007041WA0107201104000000000000
B1812273757015S06007131WA0107001105000000000000
B1812313757075S06007192WA0107901116000000000000
B1812353757142S06007166WA0109001128000000000000
B1812393757155S06007092WA0109401125000000000000
B1812433757106S06007054WA0109001130000000000000
B1812473757055S06007098WA0109401134000000000000
B1812513757067S06007185WA0110001143000000000000
B1812553757136S06007192WA0110901150000000000000
B1812593757145S06007119WA0111801155000000000000
B1813033757089S06007098WA0112801164000000000000
B1813073757059S06007174WA0113501171000000000000
B1813113757102S06007245WA0114201178000000000000
B1813153757167S06007227WA0114901181000000000000
B1813193757175S06007153WA0114801187000000000000
B1813233757119S06007126WA0115601197000000000000
B1813273757073S06007185WA0116301199000000000000
B1813313757095S06007275WA0116701202000000000000
B1813353757166S06007297WA0117101205000000000000
B1813393757212S06007239WA0116901203000000000000
B1813433757190S06007167WA0117201210000000000000
B1813473757129S06007170WA0117901220000000000000
E181347PEV
B1813473757129S06007170WA0118201220000000000000
B1813493757110S06007201WA0118401221000000000000
B1813503757103S06007222WA0118501220000000000000
B1813513757103S06007245WA0118601220000000000000
B1813523757108S06007267WA0118601219000000000000
B1813533757119S06007289WA0118501220000000000000
B1813543757132S06007306WA0118501221000000000000
B1813553757149S06007317WA0118601222000000000000
B1813563757167S06007322WA0118501222000000000000
B1813573757185S06007323WA0118401219000000000000
B1813583757202S06007321WA0118301217000000000000
B1813593757219S06007314WA0118001214000000000000
B1814003757234S06007302WA0117801212000000000000
B1814013757246S06007285WA0117701212000000000000
B1814023757255S06007267WA0117601213000000000000
B1814033757260S06007248WA0117601214000000000000
B1814043757262S06007228WA0117601217000000000000
B1814083757249S06007153WA0118401226000000000000
B1814123757201S06007118WA0119101232000000000000
B1814163757150S06007165WA0119501237000000000000
B1814203757156S06007253WA0120101240000000000000
B1814243757215S06007308WA0120301247000000000000
B1814283757281S06007297WA0121001255000000000000
B1814323757318S06007235WA0121601256000000000000
B1814363757297S06007167WA0122001263000000000000
B1814403757246S06007142WA0122501264000000000000
B1814443757189S06007167WA0122801270000000000000
B1814483757163S06007241WA0123001265000000000000
B1814523757193S06007324WA0122201262000000000000
B1814563757262S06007349WA0122501265000000000000
B1815003757315S06007296WA0122601264000000000000
B1815043757312S06007215WA0122601264000000000000
B1815083757258S06007180WA0123201270000000000000
B1815123757198S06007204WA0123101272000000000000
B1815163757176S06007284WA0123201275000000000000
B1815203757208S06007366WA0123401271000000000000
B1815243757281S06007395WA0122701266000000000000
B1815283757340S06007345WA0122501264000000000000
B1815323757349S06007262WA0122301259000000000000
B1815363757312S06007194WA0121901262000000000000
B1815403757259S06007157WA0122301262000000000000
B1815443757198S06007162WA0122101257000000000000
B1815483757150S06007218WA0121901263000000000000
B1815523757128S06007297WA0121901252000000000000
B1815563757164S06007383WA0120901241000000000000
B1816003757236S06007419WA0120401233000000000000
B1816043757316S06007430WA0119701227000000000000
B1816083757396S06007453WA0119001219000000000000
B1816123757475S06007483WA0118501225000000000000
B1816163757550S06007523WA0119101224000000000000
B1816203757626S06007566WA0118401210000000000000
B1816243757705S06007609WA0117001199000000000000
B1816283757784S06007652WA0115901188000000000000
B1816323757862S06007694WA0115501188000000000000
B1816363757938S06007735WA0115201183000000000000
B1816403758021S06007748WA0114601176000000000000
B1816443758109S06007734WA0113601164000000000000
B1816483758196S06007705WA0112601157000000000000
B1816523758284S06007677WA0112401165000000000000
B1816563758364S06007662WA0113601174000000000000
B1817003758443S06007657WA0113601166000000000000
B1817043758524S06007652WA0112301155000000000000
B1817083758607S06007640WA0110501135000000000000
B1817123758690S06007629WA0110501152000000000000
B1817163758763S06007635WA0112201172000000000000
B1817203758831S06007648WA0113501174000000000000
B1817243758900S06007633WA0113601178000000000000
B1817283758962S06007601WA0114701190000000000000
B1817323758969S06007527WA0115601199000000000000
B1817363758919S06007501WA0116601208000000000000
B1817403758883S06007561WA0117001210000000000000
B1817443758909S06007642WA0117601217000000000000
B1817483758979S06007657WA0118501230000000000000
B1817523759017S06007596WA0119701239000000000000
B1817563758980S06007547WA0120001239000000000000
B1818003758934S06007594WA0120201245000000000000
B1818043758956S06007678WA0120901250000000000000
B1818083759026S06007696WA0121201258000000000000
B1818123759062S06007631WA0122001260000000000000
B1818163759023S06007578WA0122201263000000000000
B1818203758965S06007596WA0122301267000000000000
B1818243758927S06007662WA0123201280000000000000
B1818283758923S06007750WA0123801277000000000000
B1818323758969S06007824WA0123901286000000000000
B1818363759041S06007824WA0124901294000000000000
B1818403759074S06007750WA0125701298000000000000
B1818443759044S06007683WA0126301306000000000000
B1818483758984S06007707WA0127701325000000000000
B1818523758971S06007792WA0128801334000000000000
B1818563759023S06007860WA0129501344000000000000
B1819003759090S06007833WA0130801355000000000000
B1819043759096S06007756WA0131601360000000000000
B1819083759041S06007726WA0132101362000000000000
B1819123758993S06007777WA0132801372000000000000
B1819163759005S06007870WA0133901378000000000000
B1819203759082S06007900WA0134301389000000000000
B1819243759138S06007839WA0135301397000000000000
B1819283759127S06007759WA0135801401000000000000
B1819323759067S06007739WA0136301409000000000000
B1819363759027S06007807WA0137401425000000000000
B1819403759060S06007889WA0138701435000000000000
B1819443759131S06007880WA0139701449000000000000
B1819483759155S06007804WA0140301445000000000000
B1819523759108S06007751WA0140101445000000000000
B1819563759051S06007773WA0141301465000000000000
B1820003759030S06007847WA0142601471000000000000
B1820043759069S06007922WA0142701471000000000000
B1820083759140S06007930WA0143301485000000000000
B1820123759199S06007886WA0144001483000000000000
B1820163759231S06007812WA0143801479000000000000
B1820203759229S06007730WA0143401478000000000000
B1820243759190S06007665WA0143301475000000000000
B1820283759131S06007636WA0143001471000000000000
B1820323759069S06007652WA0143001469000000000000
B1820363759025S06007713WA0142901469000000000000
B1820403759028S06007803WA0142601463000000000000
B1820443759071S06007880WA0142301467000000000000
B1820483759135S06007928WA0142901474000000000000
B1820523759209S06007908WA0143501483000000000000
B1820563759261S06007842WA0144301486000000000000
B1821003759269S06007755WA0144701487000000000000
B1821043759233S06007687WA0144401485000000000000
B1821083759170S06007672WA0144301488000000000000
B1821123759114S06007712WA0144301488000000000000
B1821163759087S06007794WA0144201479000000000000
B1821203759096S06007885WA0144101488000000000000
B1821243759134S06007967WA0144301483000000000000
B1821283759205S06008003WA0144501489000000000000
B1821323759277S06007976WA0144901494000000000000
B1821363759316S06007898WA0145001492000000000000
B1821403759307S06007812WA0145101493000000000000
B1821443759256S06007763WA0145301494000000000000
B1821483759191S06007773WA0145101491000000000000
B1821523759145S06007839WA0144701488000000000000
B1821563759145S06007933WA0144801492000000000000
B1822003759192S06008007WA0145001494000000000000
B1822043759268S06008023WA0145201496000000000000
B1822083759338S06007987WA0145301494000000000000
B1822123759378S06007913WA0145101491000000000000
B1822163759381S06007825WA0144301484000000000000
B1822203759339S06007761WA0143901486000000000000
B1822243759279S06007733WA0143601481000000000000
B1822283759217S06007740WA0143301479000000000000
B1822323759166S06007792WA0143101471000000000000
B1822363759151S06007880WA0142801470000000000000
B1822403759160S06007967WA0143301473000000000000
B1822443759181S06008054WA0142801465000000000000
B1822483759214S06008143WA0141601457000000000000
B1822523759248S06008236WA0141301457000000000000
B1822563759290S06008323WA0141401459000000000000
B1823003759357S06008375WA0142001471000000000000
B1823043759430S06008355WA0142601470000000000000
B1823083759459S06008276WA0142501465000000000000
B1823123759426S06008206WA0142001459000000000000
B1823163759363S06008203WA0141701458000000000000
B1823203759309S06008257WA0141301461000000000000
B1823243759264S06008316WA0141901464000000000000
B1823283759257S06008401WA0142001464000000000000
B1823323759301S06008474WA0141901463000000000000
B1823363759372S06008491WA0142001461000000000000
B1823403759429S06008442WA0141601454000000000000
B1823443759431S06008359WA0140701451000000000000
B1823483759392S06008298WA0140501445000000000000
B1823523759335S06008260WA0140001443000000000000
B1823563759272S06008249WA0139501445000000000000
B1824003759210S06008279WA0140201448000000000000
B1824043759179S06008355WA0140501450000000000000
B1824083759199S06008442WA0140501448000000000000
B1824123759260S06008492WA0140201440000000000000
B1824163759334S06008497WA0139201436000000000000
B1824203759403S06008472WA0139101437000000000000
B1824243759443S06008400WA0139201436000000000000
B1824283759435S06008315WA0139101432000000000000
B1824323759386S06008260WA0138501422000000000000
B1824363759316S06008257WA0137601417000000000000
B1824403759252S06008299WA0137401417000000000000
B1824443759204S06008374WA0137501417000000000000
B1824483759179S06008466WA0137501415000000000000
B1824523759156S06008562WA0136801405000000000000
B1824563759148S06008666WA0136201407000000000000
B1825003759166S06008769WA0136501411000000000000
B1825043759200S06008862WA0136901413000000000000
B1825083759230S06008959WA0137001413000000000000
B1825123759257S06009052WA0137801428000000000000
B1825163759286S06009141WA0138301421000000000000
B1825203759325S06009228WA0137401409000000000000
B1825243759374S06009312WA0136301398000000000000
B1825283759403S06009412WA0135101385000000000000
B1825323759407S06009519WA0133801375000000000000
B1825363759400S06009625WA0132701363000000000000
B1825403759396S06009732WA0131601353000000000000
B1825443759392S06009840WA0130901349000000000000
B1825483759376S06009944WA0130601343000000000000
B1825523759348S06010048WA0129701335000000000000
B1825563759318S06010152WA0129001327000000000000
B1826003759290S06010259WA0128501323000000000000
B1826043759268S06010372WA0127601310000000000000
B1826083759260S06010493WA0126501298000000000000
B1826123759268S06010616WA0125801293000000000000
B1826163759278S06010741WA0125101285000000000000
B1826203759287S06010866WA0124101277000000000000
B1826243759296S06010993WA0123301267000000000000
B1826283759305S06011122WA0122501257000000000000
B1826323759313S06011250WA0121901256000000000000
B1826363759321S06011377WA0121601250000000000000
B1826403759329S06011504WA0121201250000000000000
B1826443759337S06011633WA0120601237000000000000
B1826483759346S06011764WA0119301226000000000000
B1826523759351S06011895WA0118701220000000000000
B1826563759357S06012028WA0117301202000000000000
B1827003759361S06012163WA0116001190000000000000
B1827043759364S06012300WA0115101179000000000000
B1827083759369S06012439WA0114501176000000000000
B1827123759376S06012574WA0114101177000000000000
B1827163759385S06012705WA0114001179000000000000
B1827203759394S06012829WA0114101174000000000000
B1827243759400S06012951WA0113401166000000000000
B1827283759404S06013070WA0113101172000000000000
B1827323759404S06013185WA0113601171000000000000
B1827363759404S06013298WA0113301164000000000000
B1827403759412S06013416WA0111801144000000000000
B1827443759434S06013540WA0110401130000000000000
B1827483759459S06013662WA0109201121000000000000
B1827523759480S06013784WA0108401114000000000000
B1827563759503S06013910WA0107201099000000000000
B1828003759529S06014036WA0106101091000000000000
B1828043759556S06014162WA0105301081000000000000
B1828083759567S06014291WA0104401078000000000000
B1828123759567S06014417WA0103301075000000000000
B1828163759559S06014543WA0103101069000000000000
B1828203759545S06014668WA0103001069000000000000
B1828243759528S06014788WA0103101085000000000000
B1828283759508S06014900WA0104701090000000000000
B1828323759486S06015009WA0104501082000000000000
B1828363759456S06015110WA0104701088000000000000
B1828403759418S06015191WA0105801111000000000000
B1828443759379S06015256WA0107301113000000000000
B1828483759335S06015319WA0107001106000000000000
B1828523759285S06015388WA0106101092000000000000
B1828563759256S06015485WA0104701076000000000000
B1829003759251S06015596WA0102801062000000000000
B1829043759265S06015712WA0101401044000000000000
B1829083759303S06015821WA0101201044000000000000
B1829123759346S06015927WA0100701035000000000000
B1829163759394S06016032WA0099401020000000000000
B1829203759442S06016140WA0098001007000000000000
B1829243759483S06016253WA0097301004000000000000
B1829283759520S06016369WA0096700997000000000000
B1829323759552S06016484WA0096400995000000000000
B1829363759577S06016604WA0096000989000000000000
B1829403759602S06016725WA0095300976000000000000
B1829443759625S06016846WA0094000970000000000000
B1829483759643S06016960WA0094400974000000000000
B1829523759659S06017074WA0093300959000000000000
B1829563759676S06017189WA0092400949000000000000
B1830003759693S06017305WA0091600941000000000000
B1830043759708S06017422WA0090900931000000000000
B1830083759715S06017539WA0089900924000000000000
B1830123759710S06017656WA0088900906000000000000
B1830163759702S06017782WA0086600878000000000000
B1830203759681S06017906WA0084800872000000000000
B1830243759647S06018016WA0085400898000000000000
B1830283759617S06018096WA0088700934000000000000
B1830323759574S06018129WA0091700960000000000000
B1830363759541S06018086WA0092800954000000000000
B1830403759580S06018020WA0092200957000000000000
B1830443759649S06018048WA0093100968000000000000
B1830483759677S06018126WA0093100963000000000000
B1830523759662S06018207WA0092800965000000000000
B1830563759641S06018285WA0093400974000000000000
B1831003759610S06018355WA0094100973000000000000
B1831043759584S06018434WA0094400970000000000000
B1831083759563S06018523WA0093800964000000000000
B1831123759541S06018618WA0093000957000000000000
B1831163759526S06018715WA0094100976000000000000
B1831203759512S06018807WA0095200991000000000000
B1831243759470S06018871WA0096501001000000000000
B1831283759413S06018868WA0097201006000000000000
B1831323759378S06018813WA0097501005000000000000
B1831363759383S06018731WA0096700999000000000000
B1831403759434S06018668WA0096501002000000000000
B1831443759495S06018629WA0097101008000000000000
B1831483759563S06018608WA0098001018000000000000
B1831523759626S06018641WA0099001028000000000000
B1831563759643S06018716WA0100001040000000000000
B1832003759598S06018758WA0100501045000000000000
B1832043759564S06018703WA0101301054000000000000
B1832083759616S06018646WA0101701058000000000000
B1832123759671S06018699WA0102801078000000000000
B1832163759646S06018761WA0104001072000000000000
B1832203759597S06018720WA0103801083000000000000
B1832243759615S06018646WA0104901092000000000000
B1832283759682S06018646WA0105801099000000000000
B1832323759711S06018714WA0106701108000000000000
B1832363759672S06018761WA0107101109000000000000
B1832403759625S06018719WA0107101113000000000000
B1832443759632S06018638WA0107901123000000000000
B1832483759690S06018592WA0108601128000000000000
B1832523759747S06018636WA0109401135000000000000
B1832563759751S06018716WA0109601133000000000000
B1833003759724S06018783WA0110101147000000000000
B1833043759671S06018793WA0110901157000000000000
B1833083759654S06018725WA0111801162000000000000
B1833123759711S06018680WA0112101165000000000000
B1833163759775S06018718WA0112701168000000000000
B1833203759821S06018781WA0112901173000000000000
B1833243759855S06018857WA0113301175000000000000
B1833283759840S06018935WA0114101188000000000000
B1833323759788S06018945WA0115801204000000000000
B1833363759764S06018885WA0116401207000000000000
B1833403759811S06018829WA0117101213000000000000
B1833443759877S06018862WA0117201214000000000000
B1833483759906S06018945WA0117601227000000000000
B1833523759890S06019021WA0119401249000000000000
B1833563759836S06019022WA0120901253000000000000
B1834003759819S06018952WA0121601268000000000000
B1834043759875S06018905WA0123201284000000000000
B1834083759938S06018940WA0124601299000000000000
B1834123759945S06019026WA0125601305000000000000
B1834163759902S06019087WA0126301312000000000000
B1834203759846S06019069WA0127501326000000000000
B1834243759853S06018991WA0128501334000000000000
B1834283759920S06018976WA0129801349000000000000
B1834323759977S06019039WA0131001366000000000000
B1834363759958S06019119WA0132901376000000000000
B1834403759897S06019096WA0133401379000000000000
B1834443759918S06019014WA0134101396000000000000
B1834483759993S06019019WA0135801411000000000000
B1834523800023S06019106WA0137001426000000000000
B1834563759974S06019157WA0138601438000000000000
B1835003759941S06019093WA0139601444000000000000
B1835043759997S06019047WA0140501458000000000000
B1835083800050S06019113WA0141501465000000000000
B1835123800003S06019178WA0142401476000000000000
B1835163759957S06019127WA0143301479000000000000
B1835203759996S06019056WA0143801492000000000000
B1835243800068S06019071WA0144901503000000000000
B1835283800092S06019161WA0146001509000000000000
B1835323800037S06019206WA0147001524000000000000
B1835363800002S06019145WA0147801523000000000000
B1835403800045S06019079WA0148401536000000000000
B1835443800118S06019088WA0149101543000000000000
B1835483800175S06019156WA0149601544000000000000
B1835523800211S06019247WA0150001554000000000000
B1835563800245S06019344WA0150101538000000000000
B1836003800280S06019451WA0148601524000000000000
B1836043800319S06019563WA0147401516000000000000
B1836083800362S06019677WA0146101503000000000000
B1836123800404S06019790WA0145401505000000000000
B1836163800439S06019901WA0146801520000000000000
B1836203800469S06020012WA0146201501000000000000
B1836243800495S06020127WA0145501510000000000000
B1836283800525S06020235WA0145701498000000000000
B1836323800566S06020339WA0144701496000000000000
B1836363800608S06020439WA0144801495000000000000
B1836403800655S06020536WA0144701488000000000000
B1836443800704S06020635WA0143801477000000000000
B1836483800757S06020737WA0142801475000000000000
B1836523800807S06020842WA0142901476000000000000
B1836563800850S06020950WA0142801476000000000000
B1837003800885S06021062WA0142701471000000000000
B1837043800917S06021176WA0142101467000000000000
B1837083800945S06021290WA0141801461000000000000
B1837123800965S06021406WA0141401461000000000000
B1837163800977S06021518WA0142001471000000000000
B1837203800986S06021627WA0142201464000000000000
B1837243800994S06021739WA0141401451000000000000
B1837283801008S06021853WA0140301443000000000000
B1837323801024S06021970WA0139301432000000000000
B1837363801027S06022091WA0138301423000000000000
B1837403801023S06022207WA0137801419000000000000
B1837443801011S06022319WA0137501419000000000000
B1837483800995S06022429WA0137601417000000000000
B1837523800978S06022544WA0137001407000000000000
B1837563800956S06022661WA0136301406000000000000
B1838003800933S06022776WA0136201405000000000000
B1838043800907S06022887WA0137201433000000000000
B1838083800878S06022975WA0140301465000000000000
B1838123800845S06023047WA0142901482000000000000
B1838163800821S06023122WA0144201488000000000000
B1838203800832S06023213WA0144001480000000000000
B1838243800837S06023313WA0143201470000000000000
B1838283800845S06023421WA0141901451000000000000
B1838323800863S06023537WA0139801433000000000000
B1838363800887S06023651WA0138601422000000000000
B1838403800917S06023764WA0137201409000000000000
B1838443800950S06023876WA0136101402000000000000
B1838483800981S06023987WA0135501387000000000000
B1838523801012S06024096WA0134101381000000000000
B1838563801042S06024202WA0133401369000000000000
B1839003801072S06024309WA0132101357000000000000
B1839043801101S06024418WA0131501353000000000000
B1839083801131S06024529WA0130601341000000000000
B1839123801158S06024642WA0129801339000000000000
B1839163801188S06024754WA0129701337000000000000
B1839203801214S06024867WA0129601335000000000000
B1839243801248S06024978WA0129401330000000000000
B1839283801292S06025085WA0128901333000000000000
B1839323801350S06025179WA0129001326000000000000
B1839363801423S06025261WA0128401323000000000000
B1839403801505S06025332WA0127901315000000000000
B1839443801589S06025401WA0126601300000000000000
B1839483801677S06025469WA0125401288000000000000
B1839523801764S06025540WA0124201277000000000000
B1839563801849S06025614WA0123701276000000000000
B1840003801934S06025687WA0123401271000000000000
B1840043802017S06025757WA0122901268000000000000
B1840083802102S06025825WA0122401258000000000000
B1840123802186S06025894WA0121601254000000000000
B1840163802269S06025963WA0121601254000000000000
B1840203802350S06026031WA0121301251000000000000
B1840243802431S06026100WA0120801246000000000000
B1840283802511S06026168WA0120101241000000000000
B1840323802593S06026233WA0119701231000000000000
B1840363802672S06026302WA0118901222000000000000
B1840403802749S06026376WA0117801209000000000000
B1840443802824S06026454WA0116601196000000000000
B1840483802897S06026537WA0115101180000000000000
B1840523802966S06026624WA0113401166000000000000
B1840563803034S06026714WA0112301157000000000000
B1841003803100S06026804WA0111701147000000000000
B1841043803170S06026895WA0110401129000000000000
B1841083803235S06026995WA0108901123000000000000
B1841123803285S06027099WA0109001128000000000000
B1841163803325S06027203WA0109601150000000000000
B1841203803355S06027295WA0111801164000000000000
B1841243803377S06027385WA0112101154000000000000
B1841283803389S06027482WA0110501133000000000000
B1841323803383S06027589WA0108401117000000000000
B1841363803372S06027682WA0109601148000000000000
B1841403803354S06027759WA0112101174000000000000
B1841443803304S06027784WA0113801177000000000000
B1841483803274S06027723WA0113801177000000000000
B1841523803324S06027679WA0113601169000000000000
B1841563803376S06027741WA0113101175000000000000
B1842003803387S06027828WA0114401189000000000000
B1842043803355S06027898WA0115601200000000000000
B1842083803299S06027862WA0116301200000000000000
B1842123803333S06027790WA0116301207000000000000
B1842163803400S06027814WA0117101214000000000000
B1842203803455S06027872WA0117801226000000000000
B1842243803503S06027935WA0118901233000000000000
B1842283803513S06028020WA0119301236000000000000
B1842323803464S06028076WA0119001228000000000000
B1842363803404S06028040WA0118201221000000000000
B1842403803378S06027962WA0117701215000000000000
B1842443803396S06027877WA0117201213000000000000
B1842483803463S06027850WA0118401236000000000000
B1842523803521S06027888WA0120001251000000000000
B1842563803523S06027968WA0121101257000000000000
B1843003803468S06027974WA0121301253000000000000
B1843043803463S06027894WA0121001255000000000000
B1843083803512S06027840WA0122101274000000000000
B1843123803576S06027861WA0123501277000000000000
B1843163803573S06027944WA0123701284000000000000
B1843203803516S06027923WA0124801296000000000000
B1843243803549S06027853WA0125601305000000000000
B1843283803611S06027890WA0126501310000000000000
B1843323803611S06027972WA0127001317000000000000
B1843363803562S06028002WA0127801327000000000000
B1843403803524S06027949WA0128001322000000000000
B1843443803532S06027868WA0128201335000000000000
B1843483803589S06027833WA0129501342000000000000
B1843523803643S06027881WA0129001328000000000000
B1843563803650S06027971WA0128301335000000000000
B1844003803625S06028049WA0129001335000000000000
B1844043803604S06028137WA0128301316000000000000
B1844083803595S06028240WA0126201298000000000000
B1844123803581S06028348WA0125201284000000000000
B1844163803565S06028459WA0124101270000000000000
B1844203803546S06028573WA0122701259000000000000
B1844243803521S06028687WA0121801254000000000000
B1844283803497S06028800WA0121601254000000000000
B1844323803468S06028910WA0121301248000000000000
B1844363803435S06029018WA0120401234000000000000
B1844403803398S06029123WA0119601226000000000000
B1844443803357S06029227WA0118501218000000000000
B1844483803315S06029328WA0117701209000000000000
B1844523803270S06029430WA0116901203000000000000
B1844563803229S06029530WA0116101193000000000000
B1845003803196S06029636WA0115301185000000000000
B1845043803164S06029747WA0114101172000000000000
B1845083803133S06029853WA0113801192000000000000
B1845123803101S06029941WA0115801204000000000000
B1845163803071S06030017WA0116601191000000000000
B1845203803048S06030111WA0114101156000000000000
B1845243803025S06030215WA0111001127000000000000
B1845283802997S06030323WA0108601109000000000000
B1845323802964S06030427WA0107201099000000000000
B1845363802927S06030531WA0106301093000000000000
B1845403802891S06030633WA0105401084000000000000
B1845443802853S06030731WA0104401071000000000000
B1845483802811S06030825WA0103501066000000000000
B1845523802765S06030908WA0103101058000000000000
B1845563802717S06030988WA0102201050000000000000
B1846003802663S06031062WA0101501041000000000000
B1846043802607S06031137WA0100501028000000000000
B1846083802544S06031203WA0099601028000000000000
B1846123802481S06031254WA0101101067000000000000
B1846163802429S06031281WA0104001092000000000000
B1846203802380S06031295WA0105001097000000000000
B1846243802332S06031298WA0105201093000000000000
B1846283802278S06031304WA0104601082000000000000
B1846323802238S06031363WA0103601071000000000000
B1846363802223S06031447WA0102701070000000000000
B1846403802206S06031524WA0103801098000000000000
B1846443802169S06031569WA0105801096000000000000
B1846483802129S06031616WA0104901082000000000000
B1846523802117S06031698WA0103701071000000000000
B1846563802137S06031790WA0102201055000000000000
B1847003802165S06031888WA0101201041000000000000
B1847043802206S06031987WA0099901026000000000000
B1847083802247S06032091WA0099101016000000000000
B1847123802288S06032200WA0098001007000000000000
B1847163802323S06032310WA0097500998000000000000
B1847203802354S06032425WA0096200983000000000000
B1847243802381S06032544WA0095000975000000000000
B1847283802407S06032665WA0093800961000000000000
B1847323802442S06032786WA0092700949000000000000
B1847363802485S06032905WA0091600941000000000000
B1847403802535S06033019WA0090600931000000000000
B1847443802588S06033129WA0089900918000000000000
B1847483802636S06033243WA0088600908000000000000
B1847523802683S06033357WA0087300891000000000000
B1847563802741S06033461WA0086700907000000000000
B1848003802826S06033499WA0089200935000000000000
B1848043802901S06033519WA0091400951000000000000
B1848083802975S06033544WA0092300952000000000000
B1848123803047S06033578WA0092500964000000000000
B1848163803109S06033625WA0093400963000000000000
B1848203803173S06033685WA0092400948000000000000
B1848243803235S06033765WA0090500930000000000000
B1848283803292S06033863WA0089200922000000000000
B1848323803346S06033968WA0088100901000000000000
B1848363803398S06034080WA0086100887000000000000
B1848403803450S06034192WA0085400877000000000000
B1848443803502S06034302WA0084500865000000000000
B1848483803552S06034411WA0083700861000000000000
B1848523803603S06034517WA0083000853000000000000
B1848563803651S06034622WA0082000842000000000000
B1849003803699S06034728WA0080100823000000000000
B1849043803747S06034836WA0078800813000000000000
B1849083803798S06034943WA0077900801000000000000
B1849123803849S06035042WA0077700807000000000000
B1849163803875S06035129WA0079600846000000000000
B1849203803888S06035204WA0081500843000000000000
B1849243803900S06035273WA0082100848000000000000
B1849283803910S06035343WA0082400854000000000000
B1849323803954S06035399WA0082700853000000000000
B1849363804026S06035394WA0083000864000000000000
B1849403804058S06035320WA0084100870000000000000
B1849443804023S06035267WA0084600870000000000000
B1849483803971S06035297WA0083800862000000000000
B1849523803968S06035380WA0083700869000000000000
B1849563804009S06035449WA0084800880000000000000
B1850003804053S06035510WA0085500887000000000000
B1850043804121S06035512WA0086500904000000000000
B1850083804145S06035437WA0088000920000000000000
B1850123804092S06035416WA0089500932000000000000
B1850163804079S06035497WA0090200940000000000000
B1850203804141S06035538WA0091000955000000000000
B1850243804200S06035494WA0092400968000000000000
B1850283804173S06035427WA0094100986000000000000
B1850323804126S06035466WA0095600992000000000000
B1850363804162S06035540WA0096101004000000000000
B1850403804226S06035499WA0097301018000000000000
B1850443804201S06035428WA0098901030000000000000
B1850483804150S06035467WA0099901037000000000000
B1850523804175S06035546WA0100901053000000000000
B1850563804248S06035549WA0102201066000000000000
B1851003804269S06035469WA0103801082000000000000
B1851043804214S06035450WA0105401097000000000000
B1851083804196S06035525WA0106201100000000000000
B1851123804254S06035580WA0107201116000000000000
B1851163804318S06035549WA0108401129000000000000
B1851203804297S06035477WA0110001146000000000000
B1851243804243S06035506WA0110801149000000000000
B1851283804265S06035588WA0111801163000000000000
B1851323804335S06035622WA0112701176000000000000
B1851363804396S06035589WA0113901192000000000000
B1851403804388S06035518WA0115801206000000000000
B1851443804330S06035502WA0116601207000000000000
B1851483804288S06035559WA0117401225000000000000
B1851523804326S06035632WA0118901232000000000000
B1851563804396S06035596WA0119601248000000000000
B1852003804391S06035514WA0121401264000000000000
B1852043804335S06035481WA0122701271000000000000
B1852083804296S06035541WA0123701287000000000000
B1852123804342S06035606WA0125401301000000000000
B1852163804404S06035564WA0126401315000000000000
B1852203804390S06035489WA0128101331000000000000
B1852243804331S06035492WA0129101334000000000000
B1852283804334S06035573WA0129801351000000000000
B1852323804405S06035585WA0131401361000000000000
B1852363804427S06035506WA0132701376000000000000
B1852403804374S06035469WA0133901387000000000000
B1852443804345S06035536WA0134901400000000000000
B1852483804407S06035579WA0136201413000000000000
B1852523804452S06035511WA0137401427000000000000
B1852563804408S06035453WA0138701438000000000000
B1853003804361S06035498WA0139701449000000000000
B1853043804394S06035571WA0140901463000000000000
B1853083804461S06035555WA0142501476000000000000
B1853123804468S06035475WA0143401488000000000000
B1853163804405S06035476WA0144501494000000000000
B1853203804404S06035555WA0145401512000000000000
B1853243804465S06035598WA0146901524000000000000
B1853283804518S06035545WA0148001533000000000000
B1853323804495S06035471WA0149301547000000000000
B1853363804439S06035502WA0150501558000000000000
B1853403804466S06035577WA0151301571000000000000
B1853443804535S06035554WA0152501582000000000000
B1853483804527S06035473WA0153701597000000000000
B1853523804470S06035475WA0155201607000000000000
B1853563804464S06035553WA0155901615000000000000
B1854003804531S06035572WA0157301632000000000000
B1854043804559S06035494WA0158401641000000000000
B1854083804511S06035443WA0159101650000000000000
B1854123804456S06035481WA0159601651000000000000
B1854163804451S06035567WA0160001660000000000000
B1854203804488S06035648WA0160701665000000000000
B1854243804537S06035727WA0161001663000000000000
B1854283804591S06035813WA0160001651000000000000
B1854323804650S06035901WA0159101639000000000000
B1854363804716S06035992WA0157701617000000000000
B1854403804786S06036086WA0156001602000000000000
B1854443804856S06036186WA0154301584000000000000
B1854483804933S06036285WA0153001577000000000000
B1854523805007S06036383WA0152701580000000000000
B1854563805077S06036486WA0152801578000000000000
B1855003805141S06036595WA0152501571000000000000
B1855043805197S06036714WA0151401557000000000000
B1855083805232S06036845WA0150401548000000000000
B1855123805245S06036980WA0149601542000000000000
B1855163805244S06037113WA0149301545000000000000
B1855203805241S06037243WA0149301544000000000000
B1855243805235S06037370WA0149101544000000000000
B1855283805227S06037488WA0149901567000000000000
B1855323805220S06037596WA0151801568000000000000
B1855363805215S06037707WA0151101548000000000000
B1855403805209S06037822WA0149101526000000000000
B1855443805203S06037941WA0147301512000000000000
B1855483805207S06038062WA0145601496000000000000
B1855523805218S06038186WA0144101484000000000000
B1855563805242S06038309WA0143101474000000000000
B1856003805267S06038432WA0142201466000000000000
B1856043805285S06038556WA0141701462000000000000
B1856083805300S06038680WA0141301457000000000000
B1856123805301S06038800WA0141101456000000000000
B1856163805310S06038918WA0140501448000000000000
B1856203805322S06039030WA0141201478000000000000
B1856243805331S06039128WA0143301491000000000000
B1856283805337S06039211WA0145301508000000000000
B1856323805341S06039289WA0146501521000000000000
B1856363805344S06039368WA0147601529000000000000
B1856403805345S06039453WA0146801511000000000000
B1856443805370S06039550WA0145301487000000000000
B1856483805417S06039650WA0143001478000000000000
B1856523805461S06039741WA0144701519000000000000
B1856563805495S06039817WA0148001539000000000000
B1857003805528S06039887WA0148501530000000000000
B1857043805569S06039964WA0147101510000000000000
B1857083805605S06040049WA0145901506000000000000
B1857123805631S06040147WA0145201485000000000000
B1857163805640S06040259WA0143101465000000000000
B1857203805662S06040376WA0141001452000000000000
B1857243805690S06040497WA0140501454000000000000
B1857283805716S06040616WA0140101439000000000000
B1857323805743S06040737WA0138901431000000000000
B1857363805768S06040859WA0138001422000000000000
B1857403805794S06040980WA0137801419000000000000
B1857443805825S06041100WA0136801407000000000000
B1857483805860S06041219WA0136001396000000000000
B1857523805896S06041340WA0135001389000000000000
B1857563805933S06041459WA0134501387000000000000
B1858003805970S06041576WA0134101383000000000000
B1858043806004S06041694WA0133901380000000000000
B1858083806039S06041812WA0133601376000000000000
B1858123806074S06041928WA0133301376000000000000
B1858163806110S06042042WA0133101369000000000000
B1858203806142S06042154WA0132501367000000000000
B1858243806175S06042265WA0132301359000000000000
B1858283806208S06042376WA0131501348000000000000
B1858323806240S06042491WA0130301335000000000000
B1858363806273S06042604WA0129001327000000000000
B1858403806308S06042714WA0128701324000000000000
B1858443806344S06042821WA0128201321000000000000
B1858483806377S06042926WA0128001316000000000000
B1858523806410S06043032WA0127401307000000000000
B1858563806435S06043136WA0127101311000000000000
B1859003806446S06043237WA0126501302000000000000
B1859043806444S06043340WA0125501291000000000000
B1859083806438S06043445WA0124101277000000000000
B1859123806416S06043539WA0124101298000000000000
B1859163806380S06043600WA0126701330000000000000
B1859203806333S06043623WA0129301340000000000000
B1859243806286S06043589WA0129801341000000000000
B1859283806306S06043509WA0129601340000000000000
B1859323806375S06043510WA0129801337000000000000
B1859363806406S06043579WA0129801345000000000000
B1859403806383S06043648WA0130301349000000000000
B1859443806347S06043701WA0131201362000000000000
B1859483806310S06043744WA0132001368000000000000
B1859523806263S06043771WA0132401367000000000000
B1859563806208S06043783WA0132401371000000000000
B1900003806168S06043739WA0133201381000000000000
B1900043806178S06043663WA0133301370000000000000
B1900083806249S06043633WA0132301370000000000000
B1900123806312S06043672WA0132901376000000000000
B1900163806358S06043732WA0133601383000000000000
B1900203806403S06043795WA0133801383000000000000
B1900243806451S06043858WA0133701382000000000000
B1900283806498S06043929WA0133501382000000000000
B1900323806544S06044001WA0133201378000000000000
B1900363806587S06044079WA0133501382000000000000
B1900403806627S06044159WA0133801381000000000000
B1900443806665S06044244WA0133301372000000000000
B1900483806711S06044328WA0132301364000000000000
B1900523806767S06044408WA0131901364000000000000
B1900563806819S06044486WA0132501382000000000000
B1901003806862S06044556WA0134401402000000000000
B1901043806891S06044631WA0135701402000000000000
B1901083806919S06044711WA0135001388000000000000
B1901123806944S06044807WA0133101366000000000000
B1901163806965S06044917WA0131101350000000000000
B1901203806981S06045028WA0130201343000000000000
B1901243806994S06045141WA0129901339000000000000
B1901283807017S06045252WA0129301326000000000000
B1901323807047S06045362WA0128601328000000000000
B1901363807091S06045463WA0128701333000000000000
B1901403807155S06045535WA0129301334000000000000
B1901443807222S06045598WA0129201334000000000000
B1901483807291S06045660WA0128401320000000000000
B1901523807361S06045725WA0127201308000000000000
B1901563807429S06045795WA0126801305000000000000
B1902003807488S06045875WA0126401299000000000000
B1902043807533S06045964WA0125701296000000000000
B1902083807568S06046061WA0125201290000000000000
B1902123807597S06046159WA0124501275000000000000
B1902163807625S06046263WA0122801259000000000000
B1902203807655S06046371WA0121501247000000000000
B1902243807681S06046482WA0121101245000000000000
B1902283807703S06046591WA0120201234000000000000
B1902323807732S06046698WA0119501227000000000000
B1902363807763S06046803WA0118701217000000000000
B1902403807794S06046908WA0118101209000000000000
B1902443807831S06047013WA0116801198000000000000
B1902483807866S06047116WA0115901189000000000000
B1902523807904S06047218WA0115001176000000000000
B1902563807939S06047319WA0113901170000000000000
B1903003807976S06047419WA0113201164000000000000
B1903043808013S06047519WA0112901160000000000000
B1903083808053S06047618WA0112501152000000000000
B1903123808092S06047714WA0112101155000000000000
B1903163808125S06047809WA0112401161000000000000
B1903203808131S06047903WA0113501174000000000000
B1903243808117S06047986WA0114701182000000000000
B1903283808106S06048069WA0114801190000000000000
B1903323808093S06048147WA0116101198000000000000
B1903363808073S06048219WA0117201215000000000000
B1903403808021S06048220WA0118501232000000000000
B1903443808017S06048147WA0119101229000000000000
B1903483808084S06048128WA0119601241000000000000
B1903523808109S06048208WA0120601251000000000000
B1903563808057S06048243WA0121601263000000000000
B1904003808031S06048180WA0122501270000000000000
B1904043808089S06048137WA0122801270000000000000
B1904083808141S06048207WA0123401281000000000000
B1904123808128S06048290WA0124301295000000000000
B1904163808074S06048308WA0125401301000000000000
B1904203808032S06048260WA0125001283000000000000
B1904243808052S06048173WA0122801266000000000000
B1904283808125S06048138WA0123201282000000000000
B1904323808195S06048168WA0124601294000000000000
B1904363808208S06048252WA0125501306000000000000
B1904403808153S06048272WA0126901318000000000000
B1904443808166S06048193WA0127501320000000000000
B1904483808234S06048216WA0128301331000000000000
B1904523808213S06048291WA0128901336000000000000
B1904563808160S06048259WA0129601343000000000000
B1905003808171S06048178WA0130301347000000000000
B1905043808244S06048198WA0130801360000000000000
B1905083808227S06048278WA0131801368000000000000
B1905123808174S06048251WA0132701376000000000000
B1905163808203S06048174WA0133601386000000000000
B1905203808270S06048199WA0134401390000000000000
B1905243808258S06048284WA0134701393000000000000
B1905283808200S06048276WA0135201402000000000000
B1905323808213S06048195WA0136001406000000000000
B1905363808286S06048186WA0136501417000000000000
B1905403808313S06048268WA0137101418000000000000
B1905443808255S06048307WA0137301420000000000000
B1905483808208S06048254WA0137901431000000000000
B1905523808210S06048174WA0138801430000000000000
B1905563808286S06048151WA0138701437000000000000
B1906003808346S06048208WA0139401444000000000000
B1906043808331S06048295WA0140001449000000000000
B1906083808268S06048284WA0140401455000000000000
B1906123808278S06048199WA0141401462000000000000
B1906163808351S06048181WA0141901472000000000000
B1906203808388S06048255WA0142801477000000000000
B1906243808355S06048325WA0142901477000000000000
B1906283808295S06048310WA0143101483000000000000
B1906323808290S06048234WA0144001490000000000000
B1906363808355S06048198WA0144201495000000000000
B1906403808398S06048267WA0144901497000000000000
B1906443808375S06048347WA0144901495000000000000
B1906483808331S06048415WA0144501494000000000000
B1906523808278S06048466WA0144501495000000000000
B1906563808221S06048506WA0144401489000000000000
B1907003808161S06048538WA0143701480000000000000
B1907043808099S06048570WA0142401466000000000000
B1907083808031S06048601WA0141001448000000000000
B1907123807956S06048628WA0139701433000000000000
B1907163807874S06048651WA0138701426000000000000
B1907203807789S06048672WA0138401438000000000000
B1907243807716S06048681WA0140501470000000000000
B1907283807655S06048677WA0143101485000000000000
B1907323807595S06048666WA0144201480000000000000
B1907363807528S06048654WA0142701458000000000000
B1907403807452S06048633WA0140801453000000000000
B1907443807382S06048603WA0142101480000000000000
B1907483807315S06048571WA0143601478000000000000
B1907523807241S06048537WA0142701462000000000000
B1907563807157S06048505WA0141201446000000000000
B1908003807066S06048477WA0139401430000000000000
B1908043806973S06048451WA0138101417000000000000
B1908083806875S06048432WA0137301409000000000000
B1908123806778S06048412WA0136101397000000000000
B1908163806679S06048397WA0135401393000000000000
B1908203806581S06048381WA0134701380000000000000
B1908243806484S06048367WA0133701377000000000000
B1908283806388S06048352WA0133301370000000000000
B1908323806294S06048337WA0132901373000000000000
B1908363806202S06048321WA0132901366000000000000
B1908403806111S06048303WA0132501367000000000000
B1908443806022S06048286WA0132601365000000000000
B1908483805933S06048264WA0132401360000000000000
B1908523805855S06048241WA0133501399000000000000
B1908563805791S06048216WA0136001411000000000000
B1909003805729S06048185WA0136701412000000000000
B1909043805664S06048157WA0136701418000000000000
B1909083805600S06048126WA0137401422000000000000
B1909123805535S06048087WA0136901411000000000000
B1909163805465S06048042WA0135501394000000000000
B1909203805385S06047998WA0134601391000000000000
B1909243805305S06047956WA0134201371000000000000
B1909283805219S06047914WA0132501359000000000000
B1909323805136S06047873WA0132301367000000000000
B1909363805054S06047835WA0132501366000000000000
B1909403804975S06047801WA0132601363000000000000
B1909443804893S06047767WA0131301344000000000000
B1909483804807S06047738WA0129901335000000000000
B1909523804717S06047715WA0128901326000000000000
B1909563804626S06047701WA0128101322000000000000
B1910003804537S06047689WA0128301322000000000000
B1910043804448S06047675WA0128301339000000000000
B1910083804374S06047652WA0131601380000000000000
B1910123804318S06047619WA0134601405000000000000
B1910163804300S06047553WA0137101418000000000000
B1910203804351S06047498WA0137501417000000000000
B1910243804409S06047548WA0138001429000000000000
B1910283804418S06047631WA0139201441000000000000
B1910323804374S06047689WA0139701439000000000000
B1910363804316S06047730WA0139501436000000000000
B1910403804249S06047761WA0138601420000000000000
B1910443804173S06047782WA0137301422000000000000
B1910483804097S06047791WA0138501431000000000000
B1910523804023S06047797WA0139201443000000000000
B1910563803950S06047801WA0139501434000000000000
B1911003803874S06047803WA0138401423000000000000
B1911043803792S06047797WA0137801438000000000000
B1911083803723S06047788WA0140701468000000000000
B1911123803666S06047770WA0142501481000000000000
B1911163803612S06047744WA0143501485000000000000
B1911203803562S06047714WA0144501501000000000000
B1911243803512S06047679WA0145701511000000000000
B1911283803454S06047683WA0146601521000000000000
B1911323803394S06047692WA0147801535000000000000
B1911363803361S06047628WA0149001544000000000000
B1911403803408S06047572WA0149401542000000000000
B1911443803465S06047622WA0149601557000000000000
B1911483803471S06047701WA0151501575000000000000
B1911523803429S06047754WA0153001590000000000000
B1911563803381S06047712WA0154201598000000000000
B1912003803411S06047639WA0154701601000000000000
B1912043803473S06047670WA0155201611000000000000
B1912083803460S06047749WA0156601627000000000000
B1912123803438S06047817WA0157501638000000000000
B1912163803469S06047891WA0158601649000000000000
B1912203803539S06047897WA0159801659000000000000
B1912243803568S06047819WA0160801670000000000000
B1912283803523S06047775WA0162101681000000000000
B1912323803468S06047805WA0162401679000000000000
B1912363803456S06047891WA0163001693000000000000
B1912403803490S06047969WA0164101701000000000000
B1912443803562S06047996WA0164301702000000000000
B1912483803629S06047960WA0165301721000000000000
B1912523803646S06047883WA0166501728000000000000
B1912563803597S06047839WA0166801732000000000000
B1913003803537S06047840WA0167801747000000000000
B1913043803517S06047914WA0169301761000000000000
B1913083803575S06047961WA0170601768000000000000
B1913123803633S06047914WA0170801774000000000000
B1913163803625S06047835WA0171501779000000000000
B1913203803569S06047787WA0172001783000000000000
B1913243803500S06047780WA0172801793000000000000
B1913283803429S06047786WA0173401784000000000000
B1913323803351S06047769WA0172601779000000000000
B1913363803276S06047725WA0172101772000000000000
B1913403803203S06047666WA0171501763000000000000
B1913443803123S06047611WA0170701756000000000000
B1913483803044S06047552WA0169701742000000000000
B1913523802966S06047487WA0168001728000000000000
B1913563802887S06047416WA0166801718000000000000
B1914003802809S06047346WA0166001711000000000000
B1914043802731S06047272WA0165101702000000000000
B1914083802653S06047198WA0164301695000000000000
B1914123802574S06047129WA0163701689000000000000
B1914163802494S06047062WA0163401691000000000000
B1914203802423S06046987WA0163301686000000000000
B1914243802354S06046912WA0163301690000000000000
B1914283802290S06046833WA0163501694000000000000
B1914323802230S06046753WA0163701689000000000000
B1914363802174S06046669WA0163201681000000000000
B1914403802124S06046579WA0162601679000000000000
B1914443802077S06046488WA0163101692000000000000
B1914483802039S06046397WA0163901703000000000000
B1914523802009S06046306WA0164701705000000000000
B1914563801977S06046214WA0164901708000000000000
B1915003801939S06046120WA0165101707000000000000
B1915043801899S06046027WA0164901705000000000000
B1915083801859S06045929WA0165201710000000000000
B1915123801817S06045833WA0165001704000000000000
B1915163801764S06045742WA0164101691000000000000
B1915203801692S06045671WA0163101680000000000000
B1915243801609S06045612WA0162301671000000000000
B1915283801522S06045563WA0161201662000000000000
B1915323801431S06045522WA0160401657000000000000
B1915363801339S06045487WA0159901649000000000000
B1915403801245S06045459WA0158701636000000000000
B1915443801149S06045433WA0157801629000000000000
B1915483801055S06045405WA0157201623000000000000
B1915523800964S06045377WA0156701620000000000000
B1915563800874S06045343WA0156401613000000000000
B1916003800787S06045305WA0155301598000000000000
B1916043800702S06045264WA0154401593000000000000
B1916083800617S06045218WA0153801591000000000000
B1916123800535S06045173WA0154701625000000000000
B1916163800470S06045127WA0158601658000000000000
B1916203800406S06045113WA0161601683000000000000
B1916243800369S06045177WA0163701697000000000000
B1916283800399S06045249WA0164201695000000000000
B1916323800466S06045242WA0163801693000000000000
B1916363800491S06045158WA0164201702000000000000
B1916403800462S06045078WA0165201719000000000000
B1916443800423S06045009WA0166701732000000000000
B1916483800367S06044961WA0167101726000000000000
B1916523800300S06044958WA0167701741000000000000
B1916563800235S06044970WA0168501747000000000000
B1917003800176S06045008WA0169001747000000000000
B1917043800123S06045060WA0169001747000000000000
B1917083800068S06045118WA0168201728000000000000
B1917123800005S06045175WA0166401713000000000000
B1917163759927S06045217WA0165101693000000000000
B1917203759840S06045231WA0163801688000000000000
B1917243759751S06045230WA0163301684000000000000
B1917283759663S06045221WA0163101683000000000000
B1917323759576S06045209WA0162901678000000000000
B1917363759489S06045193WA0162401674000000000000
B1917403759403S06045174WA0162001670000000000000
B1917443759316S06045152WA0161501662000000000000
B1917483759227S06045128WA0160801649000000000000
B1917523759140S06045102WA0159601649000000000000
B1917563759056S06045078WA0159501644000000000000
B1918003758970S06045058WA0158701634000000000000
B1918043758880S06045045WA0157601622000000000000
B1918083758787S06045043WA0156501611000000000000
B1918123758693S06045043WA0155601606000000000000
B1918163758601S06045048WA0155201598000000000000
B1918203758508S06045053WA0154001584000000000000
B1918243758416S06045058WA0153401585000000000000
B1918283758330S06045065WA0154101611000000000000
B1918323758260S06045070WA0157201641000000000000
B1918363758199S06045082WA0159501656000000000000
B1918403758138S06045097WA0160001651000000000000
B1918443758069S06045112WA0159901659000000000000
B1918483757999S06045122WA0160501661000000000000
B1918523757925S06045122WA0160301658000000000000
B1918563757848S06045112WA0159601644000000000000
B1919003757765S06045088WA0158601629000000000000
B1919043757679S06045060WA0157101615000000000000
B1919083757595S06045024WA0156601615000000000000
B1919123757506S06045009WA0156001604000000000000
B1919163757418S06045030WA0155001599000000000000
B1919203757340S06045076WA0155301615000000000000
B1919243757273S06045139WA0157001633000000000000
B1919283757214S06045204WA0158001635000000000000
B1919323757163S06045278WA0158101641000000000000
B1919363757116S06045352WA0158401643000000000000
B1919403757067S06045420WA0158601641000000000000
B1919443757010S06045478WA0157601620000000000000
B1919483756937S06045520WA0156101606000000000000
B1919523756856S06045533WA0155301595000000000000
B1919563756769S06045525WA0154101582000000000000
B1920003756682S06045511WA0152901574000000000000
B1920043756594S06045494WA0152101568000000000000
B1920083756506S06045473WA0152101565000000000000
B1920123756417S06045452WA0151701562000000000000
B1920163756326S06045437WA0150901552000000000000
B1920203756233S06045426WA0150001544000000000000
B1920243756141S06045420WA0149201535000000000000
B1920283756050S06045424WA0148601533000000000000
B1920323755962S06045440WA0148701539000000000000
B1920363755882S06045477WA0149801562000000000000
B1920403755821S06045522WA0152501590000000000000
B1920443755764S06045568WA0153601586000000000000
B1920483755708S06045620WA0153201583000000000000
B1920523755648S06045676WA0152201568000000000000
B1920563755581S06045728WA0151301565000000000000
B1921003755516S06045771WA0151701579000000000000
B1921043755457S06045804WA0153201588000000000000
B1921083755398S06045838WA0152801567000000000000
B1921123755325S06045855WA0151501555000000000000
B1921163755244S06045864WA0149501536000000000000
B1921203755158S06045871WA0148201524000000000000
B1921243755069S06045868WA0146401514000000000000
B1921283754982S06045863WA0146101503000000000000
B1921323754893S06045859WA0145501501000000000000
B1921363754805S06045862WA0145101496000000000000
B1921403754716S06045869WA0145001505000000000000
B1921443754637S06045875WA0146601532000000000000
B1921483754571S06045876WA0149501568000000000000
B1921523754524S06045837WA0152801591000000000000
B1921563754530S06045763WA0154101597000000000000
B1922003754595S06045739WA0154401596000000000000
B1922043754647S06045810WA0154901611000000000000
B1922083754632S06045892WA0155901617000000000000
B1922123754581S06045936WA0157201638000000000000
B1922163754541S06045886WA0159001653000000000000
B1922203754582S06045821WA0159901652000000000000
B1922243754655S06045856WA0160301666000000000000
B1922283754676S06045940WA0162001682000000000000
B1922323754623S06045967WA0163401693000000000000
B1922363754611S06045892WA0164101695000000000000
B1922403754684S06045868WA0164701714000000000000
B1922443754736S06045929WA0166601726000000000000
B1922483754706S06045998WA0167401735000000000000
B1922523754657S06045966WA0168201741000000000000
B1922563754663S06045886WA0168901751000000000000
B1923003754716S06045833WA0169701766000000000000
B1923043754783S06045872WA0170901775000000000000
B1923083754779S06045958WA0171801777000000000000
B1923123754718S06045983WA0171801780000000000000
B1923163754654S06045967WA0172801786000000000000
B1923203754588S06045949WA0172701778000000000000
B1923243754516S06045924WA0172201775000000000000
B1923283754443S06045897WA0171901776000000000000
B1923323754369S06045869WA0172901791000000000000
B1923363754291S06045858WA0173201792000000000000
B1923403754212S06045846WA0173301787000000000000
B1923443754134S06045823WA0173101787000000000000
B1923483754055S06045801WA0173001792000000000000
B1923523753977S06045782WA0173501791000000000000
B1923563753899S06045771WA0172901784000000000000
B1924003753819S06045756WA0172401781000000000000
B1924043753741S06045736WA0172701792000000000000
B1924083753667S06045708WA0173501793000000000000
B1924123753592S06045669WA0173001783000000000000
B1924163753511S06045626WA0172001760000000000000
B1924203753420S06045599WA0170001748000000000000
B1924243753328S06045580WA0169001748000000000000
B1924283753236S06045557WA0169301752000000000000
B1924323753149S06045525WA0169401749000000000000
B1924363753064S06045483WA0168801744000000000000
B1924403752983S06045433WA0168701744000000000000
B1924443752905S06045378WA0168501738000000000000
B1924483752829S06045320WA0168001731000000000000
B1924523752751S06045260WA0167401725000000000000
B1924563752673S06045200WA0166601721000000000000
B1925003752596S06045138WA0166001711000000000000
B1925043752519S06045073WA0165201705000000000000
B1925083752443S06045009WA0164901702000000000000
B1925123752366S06044948WA0164401697000000000000
B1925163752292S06044888WA0164001691000000000000
B1925203752218S06044828WA0163001681000000000000
B1925243752141S06044770WA0162001669000000000000
B1925283752063S06044716WA0161301665000000000000
B1925323751988S06044663WA0160701658000000000000
B1925363751912S06044611WA0160301655000000000000
B1925403751841S06044554WA0159701650000000000000
B1925443751767S06044499WA0159501653000000000000
B1925483751693S06044450WA0159501646000000000000
B1925523751612S06044413WA0159101647000000000000
B1925563751531S06044382WA0158101627000000000000
B1926003751442S06044367WA0156701611000000000000
B1926043751349S06044363WA0155101598000000000000
B1926083751256S06044364WA0154301595000000000000
B1926123751163S06044360WA0154301596000000000000
B1926163751072S06044352WA0154301595000000000000
B1926203750983S06044338WA0154101594000000000000
B1926243750893S06044328WA0154001592000000000000
B1926283750803S06044326WA0153601587000000000000
B1926323750711S06044328WA0152901579000000000000
B1926363750619S06044332WA0152601572000000000000
B1926403750525S06044334WA0151701561000000000000
B1926443750433S06044335WA0150801553000000000000
B1926483750339S06044339WA0149601538000000000000
B1926523750247S06044346WA0148601537000000000000
B1926563750155S06044354WA0148201526000000000000
B1927003750062S06044356WA0147501521000000000000
B1927043749971S06044356WA0146601514000000000000
B1927083749882S06044354WA0146201504000000000000
B1927123749792S06044342WA0145101492000000000000
B1927163749701S06044325WA0143901484000000000000
B1927203749618S06044300WA0144301502000000000000
B1927243749537S06044277WA0144801491000000000000
B1927283749453S06044248WA0143701477000000000000
B1927323749366S06044226WA0142501468000000000000
B1927363749278S06044230WA0142001470000000000000
B1927403749195S06044252WA0141801462000000000000
B1927443749113S06044274WA0140901452000000000000
B1927483749030S06044298WA0140201443000000000000
B1927523748947S06044322WA0139201433000000000000
B1927563748862S06044347WA0138301425000000000000
B1928003748779S06044364WA0137501418000000000000
B1928043748695S06044361WA0137001409000000000000
B1928083748613S06044333WA0135901400000000000000
B1928123748534S06044290WA0135001387000000000000
B1928163748454S06044238WA0134101384000000000000
B1928203748378S06044182WA0133601375000000000000
B1928243748302S06044118WA0132801366000000000000
B1928283748225S06044051WA0131901358000000000000
B1928323748150S06043982WA0131101350000000000000
B1928363748077S06043910WA0130701351000000000000
B1928403748006S06043841WA0130301344000000000000
B1928443747934S06043774WA0129701340000000000000
B1928483747864S06043704WA0128801327000000000000
B1928523747795S06043633WA0128501328000000000000
B1928563747728S06043565WA0128301325000000000000
B1929003747660S06043500WA0127901320000000000000
B1929043747598S06043429WA0127201315000000000000
B1929083747539S06043357WA0127001310000000000000
B1929123747482S06043282WA0126401303000000000000
B1929163747416S06043219WA0125401287000000000000
B1929203747344S06043165WA0124601289000000000000
B1929243747274S06043117WA0124501287000000000000
B1929283747205S06043073WA0125001297000000000000
B1929323747137S06043035WA0125101287000000000000
B1929363747068S06042999WA0124001274000000000000
B1929403746997S06042960WA0122801263000000000000
B1929443746931S06042917WA0122801288000000000000
B1929483746879S06042887WA0126001312000000000000
B1929523746820S06042885WA0126701311000000000000
B1929563746760S06042907WA0126301309000000000000
B1930003746699S06042920WA0126101296000000000000
B1930043746632S06042902WA0124301278000000000000
B1930083746563S06042863WA0122401256000000000000
B1930123746496S06042807WA0120801249000000000000
B1930163746433S06042747WA0120401239000000000000
B1930203746369S06042683WA0119101225000000000000
B1930243746304S06042616WA0118301219000000000000
B1930283746239S06042549WA0117901215000000000000
B1930323746179S06042482WA0118201241000000000000
B1930363746129S06042422WA0120301253000000000000
B1930403746082S06042365WA0121301254000000000000
B1930443746032S06042309WA0121201265000000000000
B1930483745983S06042253WA0122001262000000000000
B1930523745930S06042192WA0120901239000000000000
B1930563745867S06042124WA0118701222000000000000
B1931003745801S06042054WA0117101208000000000000
B1931043745732S06041984WA0116301196000000000000
B1931083745662S06041917WA0115501193000000000000
B1931123745590S06041852WA0115101186000000000000
B1931163745518S06041793WA0114601185000000000000
B1931203745447S06041751WA0115901216000000000000
B1931243745389S06041713WA0118701246000000000000
B1931283745334S06041707WA0121301260000000000000
B1931323745302S06041769WA0121901254000000000000
B1931363745343S06041842WA0121301252000000000000
B1931403745414S06041828WA0121001249000000000000
B1931443745436S06041745WA0120301247000000000000
B1931483745397S06041678WA0120901257000000000000
B1931523745350S06041631WA0122001272000000000000
B1931563745303S06041665WA0123001276000000000000
B1932003745315S06041747WA0122701264000000000000
B1932043745384S06041776WA0122101267000000000000
B1932083745449S06041738WA0121801259000000000000
B1932123745505S06041686WA0122201276000000000000
B1932163745544S06041620WA0123601289000000000000
B1932203745512S06041556WA0124901305000000000000
B1932243745466S06041591WA0126401318000000000000
B1932283745495S06041661WA0127501326000000000000
B1932323745563S06041654WA0128201331000000000000
B1932363745594S06041577WA0129001346000000000000
B1932403745557S06041521WA0130501361000000000000
B1932443745512S06041564WA0131401365000000000000
B1932483745553S06041635WA0132301378000000000000
B1932523745620S06041608WA0133801397000000000000
B1932563745624S06041525WA0135101405000000000000
B1933003745567S06041518WA0136201415000000000000
B1933043745558S06041596WA0137101426000000000000
B1933083745622S06041635WA0138101438000000000000
B1933123745679S06041581WA0139701459000000000000
B1933163745667S06041501WA0141201468000000000000
B1933203745609S06041490WA0141701469000000000000
B1933243745596S06041569WA0142201488000000000000
B1933283745645S06041625WA0143901498000000000000
B1933323745713S06041596WA0145101516000000000000
B1933363745711S06041514WA0146601526000000000000
B1933403745653S06041513WA0147601534000000000000
B1933443745650S06041595WA0148601548000000000000
B1933483745716S06041628WA0150001561000000000000
B1933523745771S06041570WA0151401575000000000000
B1933563745755S06041488WA0152201578000000000000
B1934003745696S06041469WA0152701583000000000000
B1934043745641S06041499WA0153701598000000000000
B1934083745622S06041569WA0154501607000000000000
B1934123745663S06041634WA0155201606000000000000
B1934163745736S06041642WA0155201614000000000000
B1934203745778S06041574WA0156701631000000000000
B1934243745740S06041514WA0158001640000000000000
B1934283745692S06041563WA0158401643000000000000
B1934323745713S06041644WA0159001648000000000000
B1934363745771S06041696WA0159501657000000000000
B1934403745839S06041665WA0160901673000000000000
B1934443745856S06041585WA0162401687000000000000
B1934483745807S06041535WA0162801686000000000000
B1934523745755S06041578WA0163601705000000000000
B1934563745767S06041663WA0164701703000000000000
B1935003745843S06041678WA0164901719000000000000
B1935043745885S06041608WA0166401726000000000000
B1935083745861S06041527WA0166701727000000000000
B1935123745798S06041482WA0166601721000000000000
B1935163745724S06041453WA0166401715000000000000
B1935203745640S06041438WA0165201698000000000000
B1935243745551S06041434WA0163501681000000000000
B1935283745459S06041446WA0162001673000000000000
B1935323745367S06041461WA0162301689000000000000
B1935363745280S06041481WA0163801700000000000000
B1935403745193S06041499WA0164501698000000000000
B1935443745104S06041516WA0164601704000000000000
B1935483745014S06041535WA0164601698000000000000
B1935523744926S06041555WA0164701708000000000000
B1935563744838S06041561WA0165201708000000000000
B1936003744751S06041540WA0165301707000000000000
B1936043744665S06041505WA0164601693000000000000
B1936083744580S06041453WA0163101682000000000000
B1936123744497S06041399WA0162201674000000000000
B1936163744415S06041343WA0161901669000000000000
B1936203744336S06041284WA0161401668000000000000
B1936243744257S06041226WA0160601650000000000000
B1936283744175S06041170WA0159201648000000000000
B1936323744097S06041114WA0159901668000000000000
B1936363744030S06041066WA0162701690000000000000
B1936403743967S06041022WA0163701685000000000000
B1936443743890S06040993WA0162401674000000000000
B1936483743803S06040988WA0161501663000000000000
B1936523743713S06041004WA0159901643000000000000
B1936563743617S06041030WA0158301627000000000000
B1937003743521S06041058WA0157101618000000000000
B1937043743421S06041085WA0156201608000000000000
B1937083743319S06041115WA0154901597000000000000
B1937123743218S06041141WA0154201591000000000000
B1937163743115S06041169WA0153801589000000000000
B1937203743015S06041199WA0153201582000000000000
B1937243742915S06041227WA0152701577000000000000
B1937283742816S06041252WA0152601578000000000000
B1937323742721S06041273WA0152601578000000000000
B1937363742625S06041291WA0152201566000000000000
B1937403742530S06041299WA0151201562000000000000
B1937443742443S06041299WA0152601593000000000000
B1937483742364S06041309WA0153701591000000000000
B1937523742294S06041348WA0154701612000000000000
B1937563742231S06041384WA0155801616000000000000
B1938003742164S06041375WA0156001620000000000000
B1938043742104S06041329WA0155801611000000000000
B1938083742049S06041257WA0154501593000000000000
B1938123741993S06041176WA0153501578000000000000
B1938163741936S06041091WA0152201562000000000000
B1938203741875S06041000WA0150301543000000000000
B1938243741810S06040910WA0148701530000000000000
B1938283741735S06040836WA0147701520000000000000
B1938323741649S06040783WA0146901514000000000000
B1938363741555S06040750WA0146101505000000000000
B1938403741458S06040732WA0144701491000000000000
B1938443741360S06040727WA0143401478000000000000
B1938483741261S06040732WA0142301462000000000000
B1938523741161S06040738WA0140901446000000000000
B1938563741060S06040745WA0139701447000000000000
B1939003740964S06040750WA0139501433000000000000
B1939043740869S06040758WA0138201419000000000000
B1939083740778S06040797WA0136901410000000000000
B1939123740689S06040846WA0136101405000000000000
B1939163740601S06040893WA0135901406000000000000
B1939203740519S06040948WA0136301417000000000000
B1939243740446S06041000WA0137401428000000000000
B1939283740376S06041039WA0138501440000000000000
B1939323740305S06041067WA0139001434000000000000
B1939363740228S06041070WA0138801434000000000000
B1939403740159S06041052WA0139201444000000000000
B1939443740103S06041022WA0141201476000000000000
B1939483740048S06041030WA0143101487000000000000
B1939523740034S06041106WA0144001495000000000000
B1939563740091S06041152WA0145101507000000000000
B1940003740151S06041113WA0145401501000000000000
B1940043740143S06041030WA0144801503000000000000
B1940083740097S06040975WA0145901519000000000000
B1940123740042S06040950WA0147001522000000000000
B1940163739982S06040948WA0147001528000000000000
B1940203739922S06040950WA0147401521000000000000
B1940243739861S06040949WA0147101526000000000000
B1940283739804S06040922WA0147401526000000000000
B1940323739753S06040879WA0147001520000000000000
B1940363739701S06040835WA0146301513000000000000
B1940403739655S06040793WA0146601522000000000000
B1940443739604S06040753WA0146401505000000000000
B1940483739544S06040716WA0144901489000000000000
B1940523739476S06040676WA0143801477000000000000
B1940563739405S06040634WA0142701470000000000000
B1941003739332S06040590WA0141701460000000000000
B1941043739258S06040542WA0141001452000000000000
B1941083739180S06040495WA0140301448000000000000
B1941123739099S06040451WA0139501439000000000000
B1941163739019S06040411WA0139201438000000000000
B1941203738938S06040372WA0138901433000000000000
B1941243738854S06040339WA0138501432000000000000
B1941283738771S06040312WA0138801449000000000000
B1941323738694S06040292WA0140601461000000000000
B1941363738621S06040290WA0142001478000000000000
B1941403738555S06040300WA0143801497000000000000
B1941443738491S06040309WA0145201504000000000000
B1941483738426S06040318WA0145701500000000000000
B1941523738351S06040316WA0144101476000000000000
B1941563738270S06040291WA0142501469000000000000
B1942003738192S06040255WA0141901465000000000000
B1942043738111S06040220WA0140801450000000000000
B1942083738028S06040185WA0139101445000000000000
B1942123737946S06040152WA0139101438000000000000
B1942163737861S06040136WA0138501421000000000000
B1942203737775S06040133WA0137701438000000000000
B1942243737705S06040126WA0140801480000000000000
B1942283737645S06040126WA0144001497000000000000
B1942323737616S06040192WA0145701510000000000000
B1942363737651S06040266WA0146001507000000000000
B1942403737724S06040259WA0146101510000000000000
B1942443737764S06040187WA0146201511000000000000
B1942483737794S06040109WA0146301515000000000000
B1942523737823S06040035WA0148201535000000000000
B1942563737811S06039962WA0148701535000000000000
B1943003737763S06039914WA0148001520000000000000
B1943043737699S06039901WA0147201521000000000000
B1943083737637S06039925WA0148301541000000000000
B1943123737598S06039978WA0149901557000000000000
B1943163737629S06040051WA0151301566000000000000
B1943203737701S06040043WA0151901573000000000000
B1943243737721S06039961WA0152201572000000000000
B1943283737673S06039908WA0153001588000000000000
B1943323737611S06039909WA0153501587000000000000
B1943363737563S06039962WA0154001594000000000000
B1943403737529S06040029WA0154901609000000000000
B1943443737569S06040100WA0156201622000000000000
B1943483737638S06040071WA0157501635000000000000
B1943523737637S06039986WA0158501640000000000000
B1943563737575S06039962WA0159001649000000000000
B1944003737526S06040018WA0160001659000000000000
B1944043737543S06040105WA0160901669000000000000
B1944083737619S06040131WA0162001676000000000000
B1944123737672S06040058WA0162401678000000000000
B1944163737646S06039967WA0162401678000000000000
B1944203737576S06039926WA0162401675000000000000
B1944243737495S06039912WA0161901672000000000000
B1944283737412S06039906WA0162101673000000000000
B1944323737326S06039901WA0161401657000000000000
B1944363737237S06039899WA0159901647000000000000
B1944403737144S06039902WA0158901633000000000000
B1944443737049S06039909WA0157801625000000000000
B1944483736953S06039918WA0157001620000000000000
B1944523736857S06039926WA0156901624000000000000
B1944563736763S06039928WA0157501631000000000000
B1945003736674S06039922WA0157601629000000000000
B1945043736581S06039919WA0157101614000000000000
B1945083736489S06039935WA0156001608000000000000
B1945123736407S06039986WA0155401603000000000000
B1945163736342S06040060WA0155601618000000000000
B1945203736286S06040134WA0156501614000000000000
B1945243736228S06040207WA0155901607000000000000
B1945283736160S06040264WA0155701606000000000000
B1945323736083S06040298WA0154901592000000000000
B1945363735998S06040305WA0154101585000000000000
B1945403735909S06040305WA0153301577000000000000
B1945443735818S06040292WA0152801573000000000000
B1945483735731S06040270WA0152301567000000000000
B1945523735645S06040250WA0151401550000000000000
B1945563735557S06040226WA0149901544000000000000
B1946003735467S06040221WA0149701546000000000000
B1946043735381S06040237WA0150101554000000000000
B1946083735297S06040259WA0150201543000000000000
B1946123735209S06040269WA0148801531000000000000
B1946163735120S06040272WA0148201531000000000000
B1946203735034S06040269WA0148001527000000000000
B1946243734947S06040263WA0147701527000000000000
B1946283734863S06040257WA0147201510000000000000
B1946323734776S06040265WA0145901500000000000000
