ACAM4PM
HFDTE161224
HFFXA050
HFPLTPILOT:Andres Totorica         
HFGTYGLIDERTYPE:SZD-48-2 Ja 
HFGIDGLIDERID:LV-DNP      
HFDTM100GPSDATUM:
HFRFWFIRMWAREVERSION:F2.6
HFRHWHARDWAREVERSION:300 Series Version 2
HFFTYFRTYPE:CAMBRIDGE AERO INSTRUMENTS, 302+
HFGPS:GARMIN,LVS-25,12,18000
HFPRSPRESSALTSENSOR:INTERSEMA, MS5534-AP, 20000
I033638FXA3941ENL4247REX
LCAMSBVER:5FWVER:F26300
C121224163105121224000103
C0000000N00000000WTAKEOFF     
C3801767S06008133W001-OttoBall
C3813900S05950083W122r75AoCrMt
C3815083S06044503W119Pter85/QS
C3749283S06028817W081JuanEBarr
C3801767S06008133W001-OttoBall
C0000000N00000000WLANDING     
B1619433801618S06008318WA0014800193000000000000
B1619453801618S06008318WA0014800193000000000000
B1619473801618S06008318WA0014800193000000000000
B1619493801619S06008318WA0014800193000000000000
B1619513801621S06008316WA0014800192000000000000
B1619533801621S06008315WA0014800192000000000000
B1619553801622S06008314WA0014700192000000000000
B1619573801623S06008312WA0014700192000004000000
B1619593801625S06008311WA0014700192000004000000
B1620013801625S06008311WA0014700192000004000000
B1620033801626S06008310WA0014800191000000000000
B1620053801627S06008309WA0014800191000000000000
B1620073801627S06008307WA0014800191000000000000
B1620093801628S06008306WA0014800191000000000000
B1620113801630S06008305WA0014800191000000000000
B1620143801635S06008297WA0014800191000000000000
B1620163801641S06008289WA0014600191000000000000
B1620183801651S06008277WA0014600190000000000000
B1620203801661S06008264WA0014700190000000000000
B1620223801674S06008249WA0014600190000000000000
B1620243801687S06008229WA0014500190000000000000
B1620263801703S06008207WA0014500190000000000000
B1620283801721S06008184WA0014500191000004000000
B1620303801740S06008159WA0014700192000000000000
B1620323801761S06008133WA0014800192000004000000
B1620343801782S06008104WA0014800195000004000000
B1620363801804S06008077WA0015000198000004000000
B1620383801827S06008050WA0015100202000000000000
B1620403801851S06008024WA0015800205000000000000
B1620423801874S06007995WA0016200209000000000000
B1620443801896S06007967WA0016300213000000000000
B1620463801918S06007937WA0016700217000000000000
B1620483801943S06007908WA0017100220000000000000
B1620503801966S06007880WA0017300226000000000000
B1620523801991S06007855WA0017800233000000000000
B1620543802015S06007829WA0019000240000000000000
B1620563802039S06007805WA0019300244000000000000
B1620583802067S06007785WA0019500246000000000000
B1621003802096S06007766WA0019800248000000000000
B1621023802128S06007753WA0020200252000004000000
B1621043802161S06007747WA0020700259000004000000
B1621063802195S06007747WA0021100266000004000000
B1621083802230S06007755WA0021700271000004000000
B1621103802264S06007768WA0022200276000004000000
B1621123802299S06007785WA0022600278000004000000
B1621143802334S06007807WA0023000280000000000000
B1621163802369S06007829WA0023200282000000000000
B1621183802403S06007856WA0023400284000000000000
B1621203802436S06007893WA0023800289000000000000
B1621223802467S06007937WA0023900289000000015000
B1621243802497S06007973WA0024300300000000000000
B1621263802531S06008006WA0025300310000000000000
B1621283802563S06008037WA0026000317000000000000
B1621303802593S06008072WA0026900324000000000000
B1621323802623S06008106WA0027700331000000000000
B1621343802654S06008140WA0028100333000000000000
B1621363802685S06008175WA0028300335000000000000
B1621383802717S06008208WA0028600339000000000000
B1621403802749S06008240WA0028900347000000000000
B1621423802782S06008273WA0029700358000000000000
B1621443802813S06008306WA0030700366000000000000
B1621463802844S06008340WA0031500371000004000000
B1621483802874S06008375WA0032000377000000000000
B1621503802902S06008411WA0032600382000004000000
B1621523802931S06008448WA0033100386000004000000
B1621543802961S06008481WA0033600388000004000000
B1621563802993S06008515WA0033800389000000000000
B1621583803023S06008550WA0033900392000000000000
B1622003803056S06008588WA0034600403000000000000
B1622023803088S06008618WA0035500413000000000000
B1622043803121S06008649WA0036500424000000000000
B1622063803155S06008680WA0037500433000000000000
B1622083803188S06008709WA0038400441000000000000
B1622103803225S06008731WA0039300452000004000000
B1622123803261S06008744WA0040800466000004000000
B1622143803298S06008757WA0042100476000004000000
B1622163803333S06008770WA0042500485000004000000
B1622183803369S06008775WA0043500490000004000000
B1622203803403S06008771WA0044300499000000000000
B1622223803435S06008760WA0044900505000004000000
B1622243803467S06008741WA0045600511000000000000
B1622263803498S06008722WA0046100519000000000000
B1622283803525S06008697WA0046800526000000000000
B1622303803551S06008670WA0047500533000000000000
B1622323803573S06008643WA0048200542000000000000
B1622343803597S06008614WA0049000546000000000000
B1622363803617S06008584WA0049400551000000000000
B1622383803640S06008554WA0049800554000004000000
B1622403803660S06008524WA0050000555000000000000
B1622423803679S06008492WA0050200556000000000000
B1622443803695S06008459WA0050300556000000000000
B1622463803711S06008422WA0050300556000000000000
B1622483803719S06008383WA0050400556000000000000
B1622503803725S06008341WA0050300556000000000000
B1622523803729S06008299WA0050400559000000000000
B1622543803729S06008258WA0050800566000000000000
B1622563803727S06008216WA0051400568000000000000
B1622583803723S06008176WA0051500569000000000000
B1623003803714S06008137WA0051800573000000000000
B1623023803701S06008098WA0052100573000000000000
B1623043803688S06008056WA0052000572000000000000
B1623063803671S06008016WA0052200578000000000000
B1623083803653S06007978WA0052900589000000000000
B1623103803634S06007941WA0053800598000000000000
B1623123803617S06007903WA0054600605000000000000
B1623143803599S06007865WA0055200609000000000000
B1623163803580S06007829WA0055700615000000000000
B1623183803562S06007791WA0056100621000000000000
B1623203803543S06007753WA0056900628000000000000
B1623223803524S06007717WA0057800637000000000000
B1623243803502S06007681WA0058300646000000000000
B1623263803484S06007643WA0059100656000004000000
B1623283803467S06007604WA0060100669000004000000
B1623303803450S06007565WA0061500684000004000000
B1623323803430S06007529WA0062800692000004000000
B1623343803415S06007493WA0063600702000004000000
B1623363803399S06007458WA0064700716000004000000
B1623383803385S06007423WA0065700724000004000000
B1623403803365S06007393WA0066400730000004000000
B1623423803338S06007386WA0066800732000004000000
B1623443803309S06007405WA0067000729000004000000
B1623463803296S06007447WA0066800724000004000000
B1623483803299S06007496WA0066600727000004000000
B1623503803311S06007544WA0066800733000004000000
B1623523803326S06007583WA0067100732000004000000
B1623543803352S06007604WA0067000731000004000000
B1623563803380S06007600WA0066700726000004000000
B1623583803395S06007577WA0066400721000004000000
B1624003803399S06007545WA0066000719000004000000
B1624023803400S06007514WA0065800719000004000000
B1624043803408S06007486WA0065800719000004000000
B1624063803424S06007464WA0065800717000004000000
B1624083803448S06007457WA0065600714000004000000
B1624103803474S06007464WA0065300711000004000000
B1624123803498S06007483WA0065200708000004000000
B1624143803517S06007516WA0064900704000004000000
B1624163803524S06007557WA0064600699000004000000
B1624183803513S06007599WA0064200692000004000000
B1624203803489S06007630WA0063800690000004000000
B1624223803459S06007648WA0063600690000004000000
B1624243803429S06007662WA0063700691000004000000
B1624263803399S06007674WA0063700691000004000000
B1624283803369S06007683WA0063700695000004000000
B1624303803341S06007691WA0064100699000000000000
B1624323803311S06007695WA0064600702000000000000
B1624343803282S06007698WA0065100705000000000000
B1624363803252S06007705WA0065300706000004000000
B1624383803230S06007730WA0065200704000004000000
B1624403803224S06007772WA0065000702000004000000
B1624423803238S06007809WA0064800700000004000000
B1624443803263S06007825WA0064600699000000000000
B1624463803287S06007817WA0064400696000000000000
B1624483803299S06007791WA0064200694000000000000
B1624503803294S06007761WA0064000691000000000000
B1624523803278S06007734WA0063800693000000000000
B1624543803260S06007707WA0063900697000000000000
B1624563803247S06007678WA0064400702000000000000
B1624583803244S06007647WA0064900705000000000000
B1625003803250S06007614WA0065100706000000000000
B1625023803248S06007583WA0065000702000000000000
B1625043803235S06007555WA0064300693000000000000
B1625063803208S06007542WA0063400682000000000000
B1625083803175S06007553WA0062300669000000000000
B1625103803148S06007588WA0061000654000004000000
B1625123803125S06007634WA0060100650000004000000
B1625143803104S06007681WA0059900650000004000000
B1625163803082S06007726WA0059900650000004000000
B1625183803056S06007764WA0059800649000004000000
B1625203803025S06007796WA0059800649000004000000
B1625223802992S06007828WA0059900652000004000000
B1625243802962S06007857WA0060000655000004000000
B1625263802936S06007894WA0060400661000004000000
B1625283802914S06007932WA0060900666000004000000
B1625303802896S06007971WA0061400671000004000000
B1625323802879S06008011WA0061800676000004000000
B1625343802867S06008052WA0062300680000004000000
B1625363802870S06008095WA0062700684000004000000
B1625383802892S06008125WA0063100686000004000000
B1625403802919S06008128WA0063400690000000000000
B1625423802936S06008106WA0063700693000004000000
B1625443802934S06008073WA0064000695000004000000
B1625463802912S06008054WA0064400698000004000000
B1625483802879S06008058WA0064600701000004000000
B1625503802856S06008088WA0064900704000000000000
B1625523802849S06008130WA0065300708000004000000
B1625543802865S06008168WA0065600711000004000000
B1625563802891S06008184WA0066000718000004000000
B1625583802915S06008172WA0066600723000004000000
B1626003802922S06008142WA0067100726000004000000
B1626023802909S06008114WA0067400730000004000000
B1626043802880S06008101WA0067800736000004000000
B1626063802849S06008111WA0068300740000004000000
B1626083802828S06008145WA0068700745000000000000
B1626103802826S06008188WA0069300750000004000000
B1626123802840S06008223WA0069800755000000000000
B1626143802866S06008237WA0070100759000000000000
B1626163802888S06008225WA0070500765000000000000
B1626183802895S06008197WA0071100768000000000000
B1626203802883S06008169WA0071400771000004000000
B1626223802853S06008158WA0071700773000004000000
B1626243802822S06008169WA0072000776000000000000
B1626263802802S06008205WA0072400781000000000000
B1626283802804S06008245WA0072800786000000000000
B1626303802823S06008273WA0073100788000000000000
B1626323802848S06008279WA0073500793000000000000
B1626343802866S06008260WA0073700796000000000000
B1626363802869S06008232WA0074000798000000000000
B1626383802852S06008206WA0074400802000000000000
B1626403802821S06008197WA0074800807000000000000
B1626423802789S06008210WA0075100809000000000000
B1626443802771S06008244WA0075400810000000000000
B1626463802774S06008284WA0075600811000000000000
B1626483802793S06008312WA0075600813000000000000
B1626503802819S06008319WA0075800818000000000000
B1626523802839S06008301WA0076100820000000000000
B1626543802841S06008270WA0076300820000004000000
B1626563802822S06008240WA0076500822000004000000
B1626583802789S06008231WA0076700827000000000000
B1627003802756S06008245WA0077100830000000000000
B1627023802737S06008280WA0077500836000004000000
B1627043802739S06008320WA0077900839000000000000
B1627063802758S06008348WA0078200841000000000000
B1627083802784S06008351WA0078400845000000000000
B1627103802804S06008336WA0078900852000000000000
B1627123802811S06008309WA0079600857000000000000
B1627153802791S06008267WA0080100858000004000000
B1627183802744S06008257WA0080200861000000000000
B1627203802715S06008276WA0080300861000000000000
B1627223802700S06008311WA0080400860000000000000
B1627243802701S06008350WA0080200858000000000000
B1627263802717S06008383WA0080000859000000000000
B1627283802743S06008398WA0080300863000000000000
B1627303802766S06008390WA0080900871000000000000
B1627323802778S06008364WA0081400875000004000000
B1627343802772S06008332WA0081800877000004000000
B1627363802750S06008307WA0081800878000004000000
B1627383802719S06008301WA0082000878000004000000
B1627403802688S06008319WA0082100877000004000000
B1627423802670S06008354WA0082000877000004000000
B1627443802671S06008394WA0082100879000004000000
B1627463802688S06008424WA0082200878000004000000
B1627483802713S06008437WA0082300884000004000000
B1627503802735S06008431WA0082700890000004000000
B1627523802749S06008409WA0083200893000004000000
B1627543802749S06008379WA0083400894000004000000
B1627563802737S06008350WA0083600897000004000000
B1627583802714S06008331WA0083800896000004000000
B1628003802683S06008327WA0083700894000004000000
B1628023802654S06008344WA0083300891000004000000
B1628043802635S06008377WA0083100886000004000000
B1628063802631S06008416WA0082700880000000000000
B1628083802646S06008449WA0082200873000000000000
B1628103802674S06008458WA0081500866000000000000
B1628123802693S06008437WA0080900863000000000000
B1628143802693S06008402WA0080600862000000000000
B1628163802685S06008367WA0080400860000000000000
B1628183802680S06008332WA0080200857000000000000
B1628203802683S06008298WA0080000855000000000000
B1628223802688S06008266WA0079700849000000000000
B1628243802701S06008236WA0079200841000004000000
B1628263802722S06008211WA0078400831000000000000
B1628283802745S06008189WA0077300819000000000000
B1628303802772S06008167WA0076100807000000000000
B1628323802802S06008146WA0074900793000000000000
B1628343802835S06008124WA0073500776000004000000
B1628363802871S06008103WA0072000765000004000000
B1628383802906S06008081WA0071100762000004000000
B1628403802940S06008062WA0070700760000004000000
B1628423802973S06008041WA0070500758000004000000
B1628443803000S06008012WA0070100750000004000000
B1628463803017S06007973WA0069500747000000000000
B1628483803019S06007929WA0069300747000004000000
B1628503803014S06007887WA0069200743000004000000
B1628523803003S06007846WA0068700737000004000000
B1628543802990S06007804WA0068000730000004000000
B1628563802975S06007763WA0067400722000004000000
B1628583802961S06007721WA0066700718000004000000
B1629003802947S06007679WA0066200714000004000000
B1629023802931S06007639WA0066000712000004000000
B1629043802913S06007600WA0065800712000004000000
B1629063802895S06007564WA0065700711000000000000
B1629083802878S06007527WA0065500708000000000000
B1629103802862S06007492WA0065400704000000000000
B1629123802844S06007458WA0065000702000000000000
B1629143802823S06007426WA0064900704000000000000
B1629163802798S06007396WA0064900706000000000000
B1629183802776S06007366WA0065100708000000000000
B1629203802763S06007334WA0065500711000000000000
B1629223802761S06007302WA0065700712000000000000
B1629243802769S06007274WA0065800711000000000000
B1629263802783S06007250WA0065600707000000000000
B1629283802797S06007227WA0065000700000000000000
B1629303802805S06007200WA0064300693000000000000
B1629323802793S06007171WA0063800690000000000000
B1629343802770S06007153WA0063500689000000000000
B1629363802739S06007144WA0063400689000000000000
B1629383802706S06007139WA0063600692000000000000
B1629403802674S06007132WA0063800696000000000000
B1629423802648S06007116WA0064000697000000000000
B1629443802624S06007094WA0064100695000000000000
B1629463802596S06007079WA0063900692000004000000
B1629483802562S06007081WA0063800697000000000000
B1629503802533S06007105WA0064300700000000000000
B1629523802516S06007142WA0064400699000000000000
B1629543802512S06007187WA0064400699000000000000
B1629563802519S06007227WA0064200694000004000000
B1629583802535S06007263WA0063600687000004000000
B1630003802553S06007300WA0063300680000004000000
B1630023802559S06007344WA0062700679000004000000
B1630043802549S06007388WA0062400676000000000000
B1630063802531S06007428WA0062100671000000000000
B1630083802506S06007464WA0061600665000000000000
B1630103802480S06007497WA0061100661000000000000
B1630123802455S06007535WA0060700655000000000000
B1630143802436S06007575WA0060000647000000000000
B1630163802423S06007622WA0059200639000000000000
B1630183802418S06007670WA0058500633000000000000
B1630203802414S06007720WA0058000628000000000000
B1630223802411S06007768WA0057400622000004000000
B1630243802412S06007816WA0056800615000000000000
B1630263802419S06007861WA0056100609000000000000
B1630283802431S06007904WA0055500602000004000000
B1630303802447S06007945WA0054800594000000000000
B1630323802467S06007984WA0053800582000000000000
B1630343802488S06008024WA0052600570000000000000
B1630363802509S06008065WA0051600561000000000000
B1630383802529S06008107WA0050700553000000000000
B1630403802550S06008151WA0049800543000000000000
B1630423802571S06008198WA0049300534000000000000
B1630443802590S06008246WA0048500525000004000000
B1630463802610S06008294WA0047600519000004000000
B1630483802629S06008341WA0047000517000004000000
B1630503802654S06008381WA0047100525000004000000
B1630523802684S06008401WA0047800535000004000000
B1630543802711S06008397WA0048600539000004000000
B1630563802733S06008381WA0048900535000004000000
B1630583802752S06008358WA0048500529000004000000
B1631003802762S06008329WA0048100524000004000000
B1631023802765S06008299WA0047500518000004000000
B1631043802749S06008273WA0046900510000000000000
B1631063802720S06008272WA0046200502000004000000
B1631083802694S06008298WA0045500497000000000000
B1631103802680S06008337WA0045100494000000000000
B1631123802671S06008381WA0044800489000000000000
B1631143802665S06008426WA0044100482000000000000
B1631163802654S06008471WA0043700479000000000000
B1631183802639S06008513WA0043600480000000000000
B1631203802619S06008550WA0043400476000000000000
B1631223802600S06008587WA0042900470000000000000
B1631243802580S06008624WA0042400467000000000000
B1631263802563S06008665WA0042100464000000000000
B1631283802548S06008705WA0041800460000000000000
B1631303802533S06008747WA0041400456000000000000
B1631323802516S06008787WA0041200451000000000000
B1631343802497S06008826WA0040600449000000000000
B1631363802471S06008857WA0040500450000000000000
B1631383802442S06008884WA0040500452000000000000
B1631403802412S06008905WA0040800457000000000000
B1631423802382S06008920WA0041200461000004000000
B1631443802353S06008940WA0041500460000000000000
B1631463802336S06008978WA0041600460000004000000
B1631483802343S06009021WA0041500463000000000000
B1631503802368S06009043WA0041800468000000000000
B1631523802393S06009035WA0042200471000000000000
B1631543802401S06009009WA0042500473000000000000
B1631563802385S06008988WA0042700477000000000000
B1631583802356S06008987WA0043000481000000000000
B1632003802330S06009008WA0043300480000000000000
B1632023802311S06009044WA0043400479000000000000
B1632043802310S06009089WA0043400482000000000000
B1632063802327S06009121WA0043600488000000000000
B1632083802353S06009134WA0044100492000000000000
B1632103802373S06009124WA0044500496000000000000
B1632123802381S06009098WA0044800498000004000000
B1632143802368S06009076WA0045100503000000000000
B1632163802341S06009069WA0045600507000004000000
B1632183802312S06009085WA0045900507000004000000
B1632203802293S06009120WA0045800506000004000000
B1632223802290S06009163WA0046000511000000000000
B1632243802308S06009194WA0046400515000000000000
B1632263802334S06009200WA0046700517000000000000
B1632283802353S06009183WA0047000520000004000000
B1632303802353S06009156WA0047500527000004000000
B1632323802333S06009138WA0048000533000004000000
B1632343802304S06009141WA0048400533000004000000
B1632363802280S06009169WA0048300531000004000000
B1632383802271S06009212WA0048200532000004000000
B1632403802284S06009251WA0048200532000004000000
B1632423802310S06009264WA0048300532000004000000
B1632443802330S06009250WA0048400534000004000000
B1632463802338S06009220WA0048700538000004000000
B1632483802336S06009190WA0049100543000004000000
B1632503802316S06009169WA0049300544000004000000
B1632523802285S06009176WA0049300541000004000000
B1632543802263S06009209WA0049100538000004000000
B1632563802262S06009255WA0049000538000000000000
B1632583802282S06009286WA0049200542000000000000
B1633003802310S06009293WA0049500544000000000000
B1633023802325S06009274WA0049700545000004000000
B1633043802327S06009246WA0049700546000004000000
B1633063802312S06009221WA0049800548000004000000
B1633083802284S06009221WA0050000551000004000000
B1633103802259S06009246WA0050100552000000000000
B1633123802247S06009285WA0050000547000000000000
B1633143802256S06009325WA0049800542000000000000
B1633163802280S06009350WA0049400542000000000000
B1633183802306S06009351WA0049400544000000000000
B1633203802321S06009332WA0049600546000000000000
B1633223802328S06009306WA0049700548000000000000
B1633243802327S06009278WA0049900549000000000000
B1633263802311S06009258WA0050100552000000000000
B1633283802282S06009258WA0050200552000000000000
B1633303802256S06009282WA0050200551000000000000
B1633323802246S06009326WA0050200550000004000000
B1633343802260S06009365WA0050100550000004000000
B1633363802286S06009381WA0050100550000004000000
B1633383802310S06009373WA0050200553000004000000
B1633403802320S06009351WA0050500558000000000000
B1633423802325S06009328WA0050900560000004000000
B1633443802328S06009303WA0051000559000000000000
B1633463802320S06009278WA0050800559000000000000
B1633483802295S06009268WA0050800558000000000000
B1633503802264S06009281WA0050800556000000000000
B1633523802243S06009320WA0050700556000004000000
B1633543802243S06009365WA0050900560000000000000
B1633563802258S06009401WA0051000561000004000000
B1633583802281S06009415WA0051000556000000000000
B1634003802301S06009406WA0050500552000000000000
B1634023802310S06009382WA0050500555000000000000
B1634043802311S06009358WA0050500554000000000000
B1634063802314S06009333WA0050300549000000000000
B1634083802317S06009307WA0049800544000000000000
B1634103802321S06009281WA0049300540000000000000
B1634123802327S06009254WA0048700533000000000000
B1634143802332S06009225WA0047900525000000000000
B1634163802330S06009191WA0047200518000000000000
B1634183802324S06009156WA0046900514000000000000
B1634203802315S06009122WA0046400509000000000000
B1634223802306S06009087WA0045900505000004000000
B1634243802297S06009053WA0045600504000004000000
B1634263802288S06009018WA0045400505000000000000
B1634283802277S06008986WA0045500505000000000000
B1634303802271S06008952WA0045500503000000000000
B1634323802267S06008918WA0045200498000004000000
B1634343802269S06008886WA0044800496000000000000
B1634363802277S06008856WA0044500494000000000000
B1634383802285S06008826WA0044300489000000000000
B1634403802291S06008795WA0043800486000000000000
B1634423802298S06008764WA0043400483000000000000
B1634443802306S06008734WA0043100480000000000000
B1634463802315S06008705WA0042900476000000000000
B1634483802320S06008674WA0042700476000000000000
B1634503802320S06008644WA0042600475000000000000
B1634523802319S06008615WA0042500471000000000000
B1634543802317S06008585WA0042200467000000000000
B1634563802317S06008556WA0041700461000000000000
B1634583802316S06008527WA0041200455000000000000
B1635003802315S06008496WA0040600449000000000000
B1635023802314S06008465WA0040100444000004000000
B1635043802311S06008432WA0039600440000004000000
B1635063802310S06008400WA0039200437000004000000
B1635083802308S06008366WA0038800434000004000000
B1635103802306S06008332WA0038700433000000000000
B1635123802302S06008299WA0038600435000000000000
B1635143802299S06008267WA0038800438000004000000
B1635163802298S06008236WA0039200441000000000000
B1635183802289S06008207WA0039400442000000000000
B1635203802268S06008189WA0039500444000000000000
B1635223802241S06008192WA0039700445000000000000
B1635243802212S06008205WA0039900448000004000000
B1635263802189S06008227WA0040000454000000000000
B1635283802176S06008263WA0040500457000000000000
B1635303802181S06008302WA0040700458000000000000
B1635323802203S06008324WA0041000459000000000000
B1635343802229S06008323WA0041100463000000000000
B1635363802246S06008302WA0041300465000000000000
B1635383802246S06008275WA0041500465000000000000
B1635403802230S06008251WA0041600467000000000000
B1635423802204S06008245WA0041700469000000000000
B1635443802177S06008250WA0041900468000000000000
B1635463802150S06008262WA0041800466000000000000
B1635483802124S06008286WA0041700468000000000000
B1635503802109S06008324WA0041900473000000000000
B1635523802115S06008363WA0042300478000000000000
B1635543802135S06008388WA0042700480000000000000
B1635563802159S06008388WA0042800480000000000000
B1635583802173S06008366WA0042900479000000000000
B1636003802169S06008337WA0042900479000000000000
B1636023802148S06008322WA0043200486000000000000
B1636043802121S06008325WA0043700490000004000000
B1636063802099S06008351WA0043900489000004000000
B1636083802090S06008392WA0044000492000004000000
B1636103802100S06008429WA0044200495000004000000
B1636123802124S06008449WA0044400498000004000000
B1636143802146S06008444WA0044700498000000000000
B1636163802156S06008422WA0044700497000000000000
B1636183802148S06008394WA0044700496000000000000
B1636203802128S06008375WA0044700498000000000000
B1636223802100S06008370WA0044800501000000000000
B1636243802074S06008390WA0045000502000000000000
B1636263802063S06008429WA0045100501000000000000
B1636283802070S06008468WA0045100499000000000000
B1636303802095S06008493WA0045100498000000000000
B1636323802122S06008491WA0045100500000004000000
B1636343802138S06008468WA0045300504000004000000
B1636363802137S06008440WA0045500505000004000000
B1636383802117S06008423WA0045700508000004000000
B1636403802089S06008426WA0046000510000004000000
B1636423802063S06008450WA0046200511000000000000
B1636443802051S06008489WA0046400514000000000000
B1636463802056S06008530WA0046400516000000000000
B1636483802076S06008558WA0046600516000000000000
B1636503802100S06008565WA0046700514000000000000
B1636523802121S06008550WA0046600516000000000000
B1636543802126S06008526WA0046700517000000000000
B1636563802116S06008504WA0046900519000000000000
B1636583802091S06008496WA0047000519000000000000
B1637003802064S06008506WA0046900516000000000000
B1637023802042S06008536WA0046700516000000000000
B1637033802035S06008557WA0046800519000000000000
B1637063802042S06008615WA0047000520000000000000
B1637083802063S06008640WA0047100519000000000000
B1637103802089S06008644WA0047000519000000000000
B1637123802108S06008631WA0047000520000000000000
B1637143802117S06008609WA0047100520000000000000
B1637163802122S06008583WA0046900515000000000000
B1637183802124S06008556WA0046700511000000000000
B1637203802126S06008527WA0046200506000000000000
B1637223802130S06008496WA0045800503000000000000
B1637243802134S06008466WA0045500499000000000000
B1637263802135S06008433WA0045000496000000000000
B1637283802132S06008400WA0044800498000000000000
B1637303802122S06008367WA0045000497000000000000
B1637323802113S06008336WA0044900495000000000000
B1637343802104S06008305WA0044700494000000000000
B1637363802095S06008272WA0044500492000004000000
B1637383802081S06008245WA0044500492000004000000
B1637403802057S06008227WA0044500492000004000000
B1637423802030S06008218WA0044300489000004000000
B1637443801998S06008220WA0044100488000004000000
B1637463801968S06008233WA0044000486000004000000
B1637483801940S06008255WA0043800486000004000000
B1637503801917S06008283WA0043800485000004000000
B1637523801891S06008309WA0043800485000004000000
B1637543801866S06008336WA0043800486000004000000
B1637563801848S06008370WA0044000489000004000000
B1637583801842S06008410WA0044200490000004000000
B1638003801843S06008452WA0044200489000004000000
B1638023801849S06008491WA0044200490000004000000
B1638043801856S06008531WA0044200490000004000000
B1638063801864S06008569WA0044000487000000000000
B1638083801874S06008606WA0043700484000000000000
B1638103801891S06008637WA0043600482000000000000
B1638123801913S06008662WA0043500482000000000000
B1638143801938S06008676WA0043200479000000000000
B1638163801963S06008679WA0042900476000000000000
B1638183801986S06008675WA0042700470000000000000
B1638203802009S06008666WA0042300468000000000000
B1638223802033S06008657WA0042100466000000000000
B1638243802057S06008647WA0042000469000000000000
B1638263802081S06008636WA0042200473000000000000
B1638283802104S06008624WA0042700476000004000000
B1638303802125S06008610WA0042900476000000000000
B1638323802134S06008585WA0042800474000000000000
B1638343802125S06008559WA0042600474000000000000
B1638363802102S06008548WA0042500472000000000000
B1638383802073S06008558WA0042100462000004000000
B1638403802054S06008592WA0041300450000004000000
B1638423802052S06008637WA0040400445000004000000
B1638443802065S06008676WA0040100447000000000000
B1638463802085S06008708WA0040200451000000000000
B1638483802107S06008728WA0040400450000004000000
B1638503802132S06008738WA0040400450000000000000
B1638523802156S06008735WA0040400449000000000000
B1638543802174S06008718WA0040100445000004000000
B1638563802190S06008693WA0039800442000004000000
B1638583802208S06008670WA0039400438000004000000
B1639003802230S06008649WA0039100436000004000000
B1639023802254S06008631WA0039000436000004000000
B1639043802276S06008613WA0039100436000004000000
B1639063802295S06008595WA0039100436000004000000
B1639083802312S06008575WA0038900434000004000000
B1639103802329S06008554WA0038700432000004000000
B1639123802340S06008531WA0038600433000004000000
B1639143802342S06008504WA0038500431000004000000
B1639163802341S06008475WA0038200426000004000000
B1639183802338S06008446WA0037900423000004000000
B1639203802333S06008418WA0037600419000000000000
B1639223802321S06008389WA0037100414000000000000
B1639243802304S06008364WA0036600410000000000000
B1639263802284S06008342WA0036300407000000000000
B1639283802263S06008320WA0035900403000000000000
B1639303802245S06008296WA0035600399000000000000
B1639323802232S06008267WA0035200397000000000000
B1639343802219S06008237WA0035000394000000000000
B1639363802204S06008208WA0034700392000000000000
B1639383802191S06008180WA0034600391000000000000
B1639403802181S06008149WA0034500391000000000000
B1639423802171S06008119WA0034700393000000000000
B1639443802154S06008097WA0034900397000000000000
B1639463802128S06008094WA0035300403000000000000
B1639483802102S06008115WA0035600402000000000000
B1639503802086S06008153WA0035600401000004000000
B1639523802089S06008195WA0035600404000004000000
B1639543802106S06008228WA0035800407000004000000
B1639563802130S06008240WA0036100410000004000000
B1639583802151S06008232WA0036400413000004000000
B1640003802160S06008208WA0036700415000004000000
B1640023802152S06008184WA0036800414000004000000
B1640043802132S06008171WA0036800413000004000000
B1640063802103S06008179WA0036700412000004000000
B1640083802081S06008207WA0036600412000000000000
B1640103802073S06008246WA0036700414000004000000
B1640123802082S06008284WA0036800415000004000000
B1640143802103S06008306WA0037100418000004000000
B1640163802126S06008310WA0037400422000000000000
B1640183802145S06008296WA0037600423000000000000
B1640203802148S06008270WA0037500421000000000000
B1640223802138S06008247WA0037500421000004000000
B1640243802115S06008238WA0037500421000004000000
B1640263802087S06008251WA0037400418000004000000
B1640283802068S06008284WA0037400418000004000000
B1640303802065S06008325WA0037500423000004000000
B1640323802080S06008361WA0037800428000004000000
B1640343802102S06008379WA0038300431000004000000
B1640363802124S06008376WA0038500431000004000000
B1640383802141S06008359WA0038400429000004000000
B1640403802150S06008333WA0038300428000000000000
B1640423802142S06008307WA0038200428000000000000
B1640443802120S06008293WA0038200428000000000000
B1640463802091S06008302WA0038300430000004000000
B1640483802069S06008332WA0038400431000004000000
B1640503802056S06008372WA0038500434000004000000
B1640523802051S06008414WA0038800437000004000000
B1640543802061S06008452WA0039000439000004000000
B1640563802082S06008471WA0039100439000004000000
B1640583802106S06008467WA0039200439000000000000
B1641003802119S06008445WA0039200437000000000000
B1641023802115S06008416WA0039100436000000000000
B1641043802095S06008398WA0039100439000000000000
B1641063802068S06008401WA0039300442000000000000
B1641083802043S06008424WA0039700445000000000000
B1641103802028S06008459WA0039900448000000000000
B1641123802025S06008500WA0040100448000000000000
B1641143802035S06008535WA0040000445000000000000
B1641163802059S06008554WA0039900446000000000000
B1641183802081S06008553WA0040100451000000000000
B1641203802098S06008536WA0040400451000000000000
B1641223802108S06008514WA0040100446000000000000
B1641243802119S06008489WA0039600441000000000000
B1641263802130S06008463WA0039300440000000000000
B1641283802142S06008436WA0039200438000004000000
B1641303802147S06008406WA0039000436000000000000
B1641323802148S06008374WA0038900435000004000000
B1641343802150S06008342WA0038800435000004000000
B1641363802152S06008311WA0038700434000004000000
B1641383802156S06008280WA0038600434000004000000
B1641403802161S06008247WA0038600437000000000000
B1641423802167S06008216WA0039000445000000000000
B1641443802165S06008186WA0039800451000000000000
B1641463802150S06008163WA0040400453000000000000
B1641483802124S06008158WA0040400454000000000000
B1641503802099S06008177WA0040500454000000000000
B1641523802086S06008215WA0040500451000004000000
B1641543802093S06008255WA0040200448000004000000
B1641563802116S06008284WA0040100446000000000000
B1641583802143S06008290WA0040000447000000000000
B1642003802167S06008275WA0040100451000000000000
B1642023802182S06008251WA0040500456000000000000
B1642043802194S06008225WA0041000461000000000000
B1642063802194S06008197WA0041400466000004000000
B1642083802177S06008173WA0041900469000004000000
B1642093802165S06008169WA0042100469000004000000
B1642123802125S06008188WA0042100467000004000000
B1642143802111S06008223WA0042000467000004000000
B1642163802112S06008264WA0041900466000004000000
B1642183802132S06008296WA0041900468000004000000
B1642203802160S06008306WA0042200472000004000000
B1642223802185S06008293WA0042800480000004000000
B1642243802202S06008271WA0043500485000004000000
B1642263802211S06008244WA0043800486000004000000
B1642283802206S06008215WA0043700485000004000000
B1642303802182S06008198WA0043700485000000000000
B1642323802152S06008206WA0043800488000000000000
B1642343802132S06008237WA0044100494000000000000
B1642363802129S06008277WA0044600501000000000000
B1642383802143S06008310WA0045100502000000000000
B1642403802171S06008324WA0045300498000000000000
B1642423802197S06008315WA0045100500000004000000
B1642443802211S06008289WA0045300508000000000000
B1642463802207S06008259WA0046000514000004000000
B1642483802187S06008240WA0046600517000000000000
B1642503802160S06008242WA0046800515000000000000
B1642523802138S06008268WA0046600512000000000000
B1642543802130S06008309WA0046300511000000000000
B1642563802142S06008348WA0046400517000000000000
B1642583802168S06008366WA0046900522000000000000
B1643003802195S06008359WA0047400527000000000000
B1643023802213S06008337WA0047800529000000000000
B1643043802219S06008307WA0048000529000000000000
B1643063802203S06008280WA0047900528000000000000
B1643083802174S06008273WA0047900528000000000000
B1643103802147S06008294WA0048000532000000000000
B1643123802137S06008335WA0048500541000004000000
B1643143802150S06008372WA0049300550000004000000
B1643163802176S06008388WA0050100556000004000000
B1643183802199S06008377WA0050700558000004000000
B1643203802207S06008349WA0050800557000004000000
B1643223802193S06008322WA0050800555000004000000
B1643243802165S06008316WA0050600555000004000000
B1643263802137S06008338WA0050600558000004000000
B1643283802120S06008376WA0051000565000004000000
B1643303802125S06008416WA0051600573000004000000
B1643323802150S06008440WA0052400580000004000000
B1643343802177S06008437WA0053100583000000000000
B1643363802190S06008411WA0053300585000004000000
B1643383802182S06008384WA0053500587000004000000
B1643403802158S06008374WA0053700588000000000000
B1643423802132S06008390WA0054000592000000000000
B1643443802121S06008428WA0054400596000000000000
B1643463802133S06008465WA0054800601000000000000
B1643483802160S06008480WA0055200607000000000000
B1643503802186S06008471WA0055800612000000000000
B1643523802194S06008442WA0056300616000000000000
B1643543802180S06008418WA0056600620000000000000
B1643563802154S06008416WA0056900624000000000000
B1643583802132S06008440WA0057300627000004000000
B1644003802125S06008479WA0057600630000004000000
B1644023802141S06008513WA0058100637000004000000
B1644043802167S06008523WA0058700643000004000000
B1644063802189S06008509WA0059100645000004000000
B1644083802193S06008480WA0059400649000004000000
B1644103802176S06008461WA0059800652000004000000
B1644123802150S06008463WA0060100656000000000000
B1644143802126S06008488WA0060500662000000000000
B1644163802120S06008527WA0061000666000000000000
B1644183802132S06008562WA0061500670000004000000
B1644203802156S06008580WA0061900675000000000000
B1644223802182S06008572WA0062400680000000000000
B1644243802194S06008548WA0062800683000004000000
B1644263802185S06008522WA0063200686000004000000
B1644283802161S06008511WA0063400687000000000000
B1644303802137S06008526WA0063500687000004000000
B1644323802124S06008561WA0063500687000004000000
B1644343802125S06008604WA0063600690000004000000
B1644363802141S06008639WA0064000696000004000000
B1644383802167S06008649WA0064500702000004000000
B1644403802190S06008637WA0064900703000004000000
B1644423802197S06008610WA0065000703000000000000
B1644443802184S06008584WA0065200708000000000000
B1644463802158S06008576WA0065600711000000000000
B1644483802132S06008595WA0066000714000000000000
B1644503802121S06008631WA0066300718000000000000
B1644523802132S06008666WA0066500721000000000000
B1644543802156S06008686WA0066800725000000000000
B1644563802182S06008683WA0067200727000000000000
B1644583802200S06008663WA0067500728000000000000
B1645003802203S06008635WA0067700731000000000000
B1645023802195S06008606WA0068000737000000000000
B1645043802176S06008588WA0068300740000000000000
B1645063802150S06008587WA0068500740000000000000
B1645083802126S06008611WA0068500739000000000000
B1645103802120S06008650WA0068500739000000000000
B1645123802135S06008683WA0068600742000000000000
B1645143802163S06008691WA0069000746000000000000
B1645163802184S06008673WA0069200747000000000000
B1645183802187S06008641WA0069400750000000000000
B1645203802171S06008617WA0069700755000000000000
B1645223802142S06008618WA0070300762000000000000
B1645243802120S06008645WA0070900765000000000000
B1645263802113S06008686WA0071200769000000000000
B1645283802126S06008719WA0071600774000000000000
B1645303802151S06008734WA0072000777000000000000
B1645323802174S06008725WA0072100777000000000000
B1645343802186S06008697WA0072200778000000000000
B1645363802178S06008667WA0072300781000004000000
B1645383802154S06008653WA0072800786000000000000
B1645403802125S06008661WA0073400792000000000000
B1645423802104S06008691WA0073900796000000000000
B1645443802102S06008728WA0074200799000000000000
B1645463802117S06008758WA0074700803000000000000
B1645483802141S06008770WA0074900805000000000000
B1645503802163S06008758WA0075100805000000000000
B1645523802171S06008731WA0075000802000000000000
B1645543802160S06008702WA0075000805000000000000
B1645563802135S06008686WA0075400813000000000000
B1645583802108S06008680WA0075700815000000000000
B1646003802080S06008695WA0075800815000000000000
B1646023802063S06008728WA0075800814000000000000
B1646043802065S06008769WA0075700812000000000000
B1646063802085S06008799WA0075800813000000000000
B1646083802113S06008810WA0075800815000000000000
B1646103802142S06008806WA0075900815000000000000
B1646123802160S06008783WA0076000817000000000000
B1646143802155S06008753WA0076300823000000000000
B1646163802132S06008739WA0076800827000000000000
B1646183802103S06008751WA0077100829000004000000
B1646203802085S06008782WA0077300829000004000000
B1646223802086S06008822WA0077400829000000000000
B1646243802107S06008852WA0077400829000000000000
B1646263802134S06008856WA0077500830000000000000
B1646283802155S06008836WA0077700834000000000000
B1646303802155S06008808WA0078000837000004000000
B1646323802137S06008790WA0078300840000004000000
B1646343802109S06008791WA0078300839000004000000
B1646363802086S06008816WA0078300838000004000000
B1646383802078S06008855WA0078200838000004000000
B1646403802090S06008892WA0078100839000004000000
B1646423802116S06008913WA0078300841000004000000
B1646443802143S06008910WA0078500843000004000000
B1646463802159S06008887WA0078600844000004000000
B1646483802158S06008858WA0078800846000004000000
B1646503802138S06008838WA0079000848000004000000
B1646523802111S06008839WA0079100849000000000000
B1646543802087S06008862WA0079200848000000000000
B1646563802078S06008901WA0079100847000000000000
B1646583802087S06008942WA0079100848000000000000
B1647003802112S06008965WA0079300850000000000000
B1647023802139S06008965WA0079400851000000000000
B1647043802158S06008944WA0079500851000000000000
B1647063802164S06008913WA0079500851000000000000
B1647083802164S06008881WA0079700854000000000000
B1647103802171S06008848WA0079800859000000000000
B1647123802180S06008816WA0080200864000000000000
B1647143802176S06008783WA0080600871000000000000
B1647163802154S06008765WA0081300877000000000000
B1647183802124S06008777WA0082000882000000000000
B1647203802109S06008813WA0082500885000000000000
B1647223802120S06008852WA0082800885000000000000
B1647243802147S06008868WA0082800883000000000000
B1647263802171S06008855WA0082700882000000000000
B1647283802174S06008823WA0082500882000000000000
B1647303802156S06008795WA0082500885000000000000
B1647323802129S06008778WA0082800892000000000000
B1647343802099S06008788WA0083300897000004000000
B1647363802085S06008829WA0083900899000000000000
B1647383802099S06008868WA0084100901000000000000
B1647403802129S06008878WA0084300906000000000000
B1647423802148S06008856WA0084900913000000000000
B1647443802142S06008826WA0085600920000000000000
B1647463802117S06008814WA0086300926000000000000
B1647483802089S06008829WA0086900930000000000000
B1647503802074S06008865WA0087300932000000000000
B1647523802081S06008905WA0087500933000000000000
B1647543802106S06008929WA0087700939000004000000
B1647563802132S06008925WA0088200949000004000000
B1647583802145S06008901WA0089100955000004000000
B1648003802141S06008874WA0089700958000004000000
B1648023802120S06008857WA0090000958000000000000
B1648043802091S06008862WA0090200960000004000000
B1648063802069S06008894WA0090200962000004000000
B1648083802065S06008935WA0090400963000004000000
B1648103802083S06008969WA0090500962000004000000
B1648123802113S06008977WA0090600968000004000000
B1648143802134S06008957WA0091200976000000000000
B1648163802135S06008927WA0091800982000000000000
B1648183802117S06008905WA0092400985000000000000
B1648203802089S06008904WA0092700987000000000000
B1648223802063S06008930WA0092800986000000000000
B1648243802055S06008973WA0092900987000004000000
B1648263802068S06009012WA0092800985000000000000
B1648283802095S06009030WA0092700986000004000000
B1648303802122S06009020WA0092900992000004000000
B1648323802134S06008992WA0093400999000000000000
B1648343802124S06008965WA0094001001000000000000
B1648363802098S06008952WA0094201001000000000000
B1648383802069S06008965WA0094201000000000000000
B1648403802050S06009000WA0094101000000000000000
B1648423802050S06009044WA0094201004000000000000
B1648443802069S06009076WA0094501008000000000000
B1648463802098S06009081WA0095001014000000000000
B1648483802119S06009064WA0095601021000000000000
B1648503802125S06009037WA0096001024000000000000
B1648523802112S06009011WA0096401026000000000000
B1648543802087S06008998WA0096601026000000000000
B1648563802059S06009004WA0096501025000004000000
B1648583802035S06009033WA0096301020000000000000
B1649003802028S06009077WA0095901018000004000000
B1649023802039S06009120WA0095901022000000000000
B1649043802065S06009143WA0096301028000000000000
B1649063802093S06009139WA0096901035000000000000
B1649083802109S06009117WA0097501041000000000000
B1649103802120S06009087WA0097901042000000000000
B1649123802115S06009056WA0098001041000000000000
B1649143802090S06009038WA0098001042000000000000
B1649163802059S06009044WA0098101046000000000000
B1649183802039S06009078WA0098401047000000000000
B1649203802037S06009121WA0098401043000000000000
B1649223802055S06009156WA0098001039000004000000
B1649243802083S06009167WA0097801036000004000000
B1649263802106S06009147WA0097301032000004000000
B1649283802112S06009113WA0097301037000004000000
B1649303802107S06009081WA0097801043000004000000
B1649323802100S06009047WA0098201046000004000000
B1649343802095S06009012WA0098601054000000000000
B1649363802095S06008977WA0099501061000000000000
B1649383802102S06008944WA0100101066000000000000
B1649403802112S06008913WA0100401068000000000000
B1649423802120S06008882WA0100601073000000000000
B1649443802115S06008851WA0100701070000000000000
B1649463802090S06008836WA0100401066000000000000
B1649483802061S06008852WA0100101062000000000000
B1649503802046S06008887WA0099801058000000000000
B1649523802050S06008929WA0099401052000000000000
B1649543802069S06008961WA0098901050000000000000
B1649563802094S06008985WA0099001058000000000000
B1649583802121S06008996WA0099501063000000000000
B1650003802146S06008987WA0100101070000000000000
B1650023802161S06008965WA0100801077000000000000
B1650043802174S06008940WA0101301077000000000000
B1650063802186S06008912WA0101001075000000000000
B1650083802200S06008884WA0100801073000004000000
B1650103802216S06008856WA0100601067000004000000
B1650123802232S06008827WA0100001060000000000000
B1650143802250S06008796WA0099301052000000000000
B1650163802269S06008765WA0098501047000000000000
B1650183802289S06008732WA0097901040000000000000
B1650203802307S06008699WA0097201034000000000000
B1650223802328S06008666WA0096801033000004000000
B1650243802350S06008635WA0096701031000000000000
B1650263802372S06008606WA0096401028000004000000
B1650283802395S06008578WA0096001025000000000000
B1650303802420S06008550WA0095701021000004000000
B1650323802445S06008524WA0095301017000000000000
B1650343802471S06008500WA0095101016000004000000
B1650363802494S06008472WA0095101014000000000000
B1650383802518S06008446WA0094801012000000000000
B1650403802541S06008419WA0094701012000004000000
B1650423802564S06008392WA0094701012000004000000
B1650443802588S06008363WA0094701012000004000000
B1650463802610S06008335WA0094901018000000000000
B1650483802629S06008306WA0095501028000000000000
B1650503802644S06008276WA0096401037000000000000
B1650523802644S06008244WA0097201045000000000000
B1650543802628S06008218WA0097901047000000000000
B1650563802600S06008207WA0098201047000000000000
B1650583802571S06008221WA0098201049000000000000
B1651003802553S06008255WA0098301046000000000000
B1651023802553S06008298WA0098101042000000000000
B1651043802572S06008331WA0097901042000004000000
B1651063802601S06008340WA0097801043000004000000
B1651083802626S06008325WA0098001046000004000000
B1651103802635S06008297WA0098301050000004000000
B1651123802626S06008267WA0098701054000004000000
B1651143802605S06008245WA0099201059000004000000
B1651163802577S06008237WA0099501061000000000000
B1651183802549S06008247WA0099601060000000000000
B1651203802525S06008276WA0099701062000000000000
B1651223802512S06008312WA0099901064000000000000
B1651243802511S06008351WA0099901064000000000000
B1651263802524S06008385WA0099801060000004000000
B1651283802549S06008402WA0099301052000000000000
B1651303802576S06008397WA0098801051000000000000
B1651323802596S06008375WA0098801057000000000000
B1651343802602S06008346WA0099201063000000000000
B1651363802603S06008316WA0099801065000000000000
B1651383802605S06008286WA0100001065000000000000
B1651403802601S06008257WA0099901062000000000000
B1651423802583S06008236WA0099701056000000000000
B1651443802555S06008231WA0099201052000004000000
B1651463802529S06008249WA0098701049000004000000
B1651483802516S06008285WA0098401044000000000000
B1651503802523S06008325WA0098001041000000000000
B1651523802542S06008361WA0097701042000000000000
B1651543802561S06008394WA0097901047000000000000
B1651563802576S06008432WA0098301051000004000000
B1651583802590S06008470WA0098801056000004000000
B1652003802603S06008510WA0099301063000000000000
B1652023802619S06008548WA0099901068000000000000
B1652043802644S06008562WA0100401071000004000000
B1652063802665S06008544WA0100701074000004000000
B1652083802662S06008510WA0100901076000004000000
B1652103802635S06008487WA0101101077000004000000
B1652123802600S06008498WA0101301081000004000000
B1652143802581S06008539WA0101901087000000000000
B1652163802589S06008582WA0102301093000000000000
B1652183802614S06008601WA0103001100000000000000
B1652203802637S06008587WA0103701107000000000000
B1652223802642S06008554WA0104301112000000000000
B1652243802626S06008524WA0104801117000000000000
B1652263802593S06008518WA0105201120000000000000
B1652283802566S06008544WA0105501122000000000000
B1652303802559S06008587WA0105801126000000000000
B1652323802574S06008624WA0106101131000004000000
B1652343802601S06008634WA0106701137000000000000
B1652363802619S06008614WA0107301144000004000000
B1652383802619S06008582WA0108101152000004000000
B1652403802600S06008556WA0108701157000004000000
B1652423802571S06008550WA0109101159000000000000
B1652443802542S06008569WA0109201158000004000000
B1652463802529S06008608WA0109201158000004000000
B1652483802538S06008647WA0109301161000004000000
B1652503802562S06008669WA0109601165000004000000
B1652523802588S06008665WA0110001171000004000000
B1652543802607S06008644WA0110501175000004000000
B1652563802613S06008611WA0111001180000004000000
B1652583802596S06008584WA0111501185000004000000
B1653003802566S06008579WA0112001189000004000000
B1653023802540S06008597WA0112301188000000000000
B1653043802527S06008634WA0111801179000000000000
B1653063802536S06008671WA0111101171000004000000
B1653083802562S06008693WA0110601170000000000000
B1653103802588S06008684WA0111001179000000000000
B1653123802606S06008658WA0111701186000000000000
B1653143802614S06008627WA0112101188000000000000
B1653163802602S06008597WA0112101187000000000000
B1653183802575S06008587WA0112001184000000000000
B1653203802546S06008606WA0111601177000000000000
B1653223802536S06008648WA0111101171000000000000
B1653243802550S06008687WA0110501168000000000000
B1653263802580S06008696WA0110401171000000000000
B1653283802602S06008676WA0111001179000000000000
B1653303802610S06008645WA0111601183000000000000
B1653323802613S06008613WA0111601179000000000000
B1653343802616S06008580WA0111301177000000000000
B1653363802624S06008548WA0111101175000000000000
B1653383802629S06008515WA0110801171000000000000
B1653403802637S06008483WA0110501168000000000000
B1653423802646S06008450WA0110101165000000000000
B1653443802661S06008419WA0109701159000000000000
B1653463802678S06008390WA0109201153000000000000
B1653483802694S06008361WA0108501145000000000000
B1653503802698S06008325WA0107701139000000000000
B1653523802683S06008293WA0107101131000000000000
B1653543802654S06008272WA0106401121000000000000
B1653563802620S06008257WA0105301110000000000000
B1653583802585S06008242WA0104301100000000000000
B1654003802549S06008228WA0103301089000004000000
B1654023802512S06008214WA0102201077000004000000
B1654043802472S06008198WA0100901067000000000000
B1654063802432S06008185WA0100101061000004000000
B1654083802390S06008175WA0099601057000004000000
B1654103802351S06008164WA0099101054000004000000
B1654123802312S06008154WA0099101052000004000000
B1654143802272S06008143WA0098801050000000000000
B1654163802233S06008132WA0098601048000004000000
B1654183802194S06008120WA0098501051000004000000
B1654203802156S06008104WA0098901059000004000000
B1654223802121S06008091WA0099801071000004000000
B1654243802087S06008081WA0100701080000004000000
B1654263802054S06008076WA0101601086000004000000
B1654283802020S06008072WA0102201093000000000000
B1654303801985S06008075WA0102801102000004000000
B1654323801957S06008098WA0103801114000004000000
B1654343801947S06008140WA0104901125000004000000
B1654363801956S06008177WA0105901133000000000000
B1654383801977S06008198WA0106601136000000000000
B1654403802003S06008198WA0107001138000000000000
B1654423802017S06008177WA0107201141000000000000
B1654443802012S06008149WA0107401142000000000000
B1654463801987S06008132WA0107601147000000000000
B1654483801957S06008143WA0108201155000000000000
B1654503801940S06008180WA0108901161000000000000
B1654523801943S06008220WA0109401166000000000000
B1654543801965S06008246WA0109901171000000000000
B1654563801991S06008250WA0110501175000000000000
B1654583802009S06008232WA0110901181000000000000
B1655003802011S06008203WA0111501187000000000000
B1655023801995S06008180WA0112001192000000000000
B1655043801969S06008172WA0112701201000000000000
B1655063801942S06008186WA0113401208000000000000
B1655083801922S06008220WA0114001214000000000000
B1655103801920S06008262WA0114601219000000000000
B1655123801934S06008294WA0115101224000000000000
B1655143801960S06008305WA0115501228000000000000
B1655163801981S06008289WA0115901228000000000000
B1655183801985S06008259WA0116101232000000000000
B1655203801973S06008229WA0116501235000000000000
B1655223801951S06008210WA0117001242000000000000
B1655243801921S06008214WA0117701252000000000000
B1655263801894S06008238WA0118701263000000000000
B1655283801877S06008276WA0119601271000000000000
B1655303801874S06008318WA0120201275000000000000
B1655323801885S06008354WA0120601279000000000000
B1655343801908S06008375WA0120901285000004000000
B1655363801933S06008375WA0121501290000004000000
B1655383801950S06008355WA0121901292000000000000
B1655403801952S06008327WA0122101295000004000000
B1655423801948S06008297WA0122401296000004000000
B1655443801933S06008271WA0122501300000000000000
B1655463801908S06008254WA0123101308000000000000
B1655483801881S06008246WA0123701312000004000000
B1655503801849S06008254WA0124001315000004000000
B1655523801821S06008279WA0124401318000004000000
B1655543801801S06008316WA0124701325000000000000
B1655563801796S06008358WA0125301332000004000000
B1655583801807S06008393WA0126101340000000000000
B1656003801829S06008415WA0126801346000004000000
B1656023801853S06008422WA0127301349000004000000
B1656043801874S06008409WA0127601352000004000000
B1656063801887S06008384WA0128001355000000000000
B1656083801888S06008354WA0128501361000004000000
B1656103801878S06008325WA0129201369000004000000
B1656123801856S06008306WA0129901377000000000000
B1656143801829S06008302WA0130401377000000000000
B1656163801800S06008315WA0130301371000004000000
B1656183801778S06008348WA0129801368000004000000
B1656203801764S06008390WA0129701371000004000000
B1656223801757S06008435WA0130101377000004000000
B1656243801766S06008472WA0130501386000004000000
B1656263801786S06008497WA0131301395000004000000
B1656283801809S06008513WA0132001397000004000000
B1656303801834S06008515WA0132301397000004000000
B1656323801857S06008504WA0132401401000004000000
B1656343801877S06008485WA0132901406000004000000
B1656363801891S06008459WA0133201408000000000000
B1656383801894S06008428WA0133401410000004000000
B1656403801882S06008398WA0133701413000000000000
B1656423801859S06008377WA0134001416000004000000
B1656443801830S06008372WA0134001413000000000000
B1656463801800S06008383WA0133901409000004000000
B1656483801770S06008402WA0133601405000004000000
B1656503801745S06008431WA0133301404000004000000
B1656523801727S06008468WA0133301407000004000000
B1656543801719S06008510WA0133701413000000000000
B1656563801719S06008552WA0134301421000000000000
B1656583801725S06008592WA0135001427000000000000
B1657003801734S06008628WA0135601434000004000000
B1657023801748S06008660WA0135801436000000000000
B1657043801770S06008676WA0136001436000000000000
B1657063801796S06008679WA0136101435000000000000
B1657083801818S06008669WA0136101436000000000000
B1657103801839S06008652WA0136301441000000000000
B1657123801857S06008632WA0136701446000000000000
B1657143801869S06008608WA0137101447000000000000
B1657163801869S06008579WA0137501451000000000000
B1657183801857S06008553WA0137701454000000000000
B1657203801835S06008540WA0137801450000000000000
B1657223801805S06008545WA0137401441000000000000
B1657243801775S06008569WA0136901444000000000000
B1657263801756S06008608WA0137301455000000000000
B1657283801757S06008649WA0138401468000000000000
B1657303801777S06008676WA0139501476000000000000
B1657323801803S06008683WA0140001477000004000000
B1657343801830S06008673WA0140001476000000000000
B1657363801849S06008649WA0140101478000000000000
B1657383801855S06008618WA0140701485000000000000
B1657403801846S06008588WA0141201488000000000000
B1657423801823S06008569WA0141201486000004000000
B1657443801794S06008563WA0140801480000000000000
B1657463801761S06008574WA0140501476000000000000
B1657483801732S06008600WA0140401478000000000000
B1657503801709S06008634WA0140501482000000000000
B1657523801686S06008669WA0140801487000000000000
B1657543801667S06008708WA0141201494000000000000
B1657563801656S06008751WA0142001504000000000000
B1657583801652S06008793WA0142801509000000000000
B1658003801660S06008831WA0143301511000000000000
B1658023801680S06008858WA0143601514000000000000
B1658043801705S06008870WA0143801518000000000000
B1658063801729S06008864WA0144201519000000000000
B1658083801745S06008842WA0144301518000000000000
B1658103801755S06008810WA0144201521000000000000
B1658123801758S06008778WA0144501522000000000000
B1658143801751S06008747WA0144701525000000000000
B1658163801729S06008726WA0145201532000000000000
B1658183801700S06008721WA0146001539000000000000
B1658203801670S06008727WA0146501544000000000000
B1658223801641S06008743WA0146901547000000000000
B1658243801617S06008773WA0147201552000000000000
B1658263801600S06008809WA0147701558000000000000
B1658283801589S06008849WA0148001560000000000000
B1658303801587S06008890WA0148201560000000000000
B1658323801595S06008926WA0148301559000004000000
B1658343801614S06008953WA0148201558000000000000
B1658363801639S06008964WA0148101558000000000000
B1658383801662S06008959WA0148001558000000000000
B1658403801684S06008943WA0148101559000000000000
B1658423801697S06008917WA0148201561000000000000
B1658443801699S06008887WA0148501563000004000000
B1658463801691S06008857WA0148501563000004000000
B1658483801673S06008832WA0148601562000000000000
B1658503801648S06008813WA0148601563000000000000
B1658523801618S06008803WA0148901567000004000000
B1658543801587S06008803WA0149301575000004000000
B1658563801556S06008812WA0150001581000004000000
B1658583801531S06008832WA0150301581000000000000
B1659003801514S06008866WA0150201578000000000000
B1659023801513S06008907WA0150001576000000000000
B1659043801528S06008942WA0149901576000000000000
B1659063801550S06008969WA0150001578000000000000
B1659083801575S06008991WA0150201583000000000000
B1659103801602S06009007WA0150501587000004000000
B1659123801630S06009008WA0150801589000000000000
B1659143801651S06008990WA0151201590000000000000
B1659163801653S06008960WA0151201589000000000000
B1659183801639S06008931WA0151101584000004000000
B1659203801615S06008908WA0150701582000004000000
B1659223801592S06008886WA0150501582000004000000
B1659243801561S06008877WA0150401585000004000000
B1659263801528S06008882WA0150901592000004000000
B1659283801500S06008896WA0151301593000004000000
B1659303801478S06008923WA0151401589000000000000
B1659323801469S06008964WA0151101587000000000000
B1659343801470S06009008WA0151101592000000000000
B1659363801478S06009048WA0151501595000000000000
B1659383801495S06009079WA0151701596000004000000
B1659403801518S06009099WA0151701595000004000000
B1659423801544S06009108WA0151701593000004000000
B1659443801571S06009108WA0151501591000004000000
B1659463801599S06009103WA0151201588000004000000
B1659483801619S06009083WA0151201590000004000000
B1659503801638S06009060WA0151301593000004000000
B1659523801656S06009040WA0151601595000004000000
B1659543801675S06009020WA0151701594000004000000
B1659563801688S06008994WA0151701594000004000000
B1659583801691S06008962WA0151701594000004000000
B1700003801684S06008933WA0151601587000004000000
B1700023801675S06008901WA0151001578000004000000
B1700043801675S06008869WA0150101571000000000000
B1700063801690S06008842WA0149401567000004000000
B1700083801710S06008822WA0149001564000004000000
B1700103801732S06008804WA0148701564000004000000
B1700123801751S06008780WA0148701563000004000000
B1700143801764S06008752WA0148401557000000000000
B1700163801775S06008719WA0147801550000000000000
B1700183801786S06008686WA0147001542000000000000
B1700203801796S06008648WA0146401538000000000000
B1700223801808S06008610WA0146001537000000000000
B1700243801820S06008574WA0145901533000004000000
B1700263801842S06008545WA0145701530000000000000
B1700283801870S06008530WA0145401527000004000000
B1700303801904S06008531WA0145001524000004000000
B1700323801939S06008546WA0144701521000004000000
B1700343801972S06008569WA0144401517000004000000
B1700363802005S06008593WA0144001512000000000000
B1700383802038S06008619WA0143501509000004000000
B1700403802072S06008645WA0143201507000004000000
B1700423802106S06008673WA0143101504000004000000
B1700443802138S06008699WA0142801504000004000000
B1700463802173S06008722WA0142701501000004000000
B1700483802208S06008745WA0142401497000004000000
B1700503802243S06008769WA0142001493000004000000
B1700523802280S06008791WA0141501490000004000000
B1700543802315S06008813WA0141301489000004000000
B1700563802350S06008834WA0141301489000000000000
B1700583802382S06008855WA0141401490000000000000
B1701003802414S06008874WA0141301489000000000000
B1701023802444S06008894WA0141201487000000000000
B1701043802473S06008914WA0141001484000000000000
B1701063802502S06008938WA0140801481000000000000
B1701083802531S06008965WA0140401478000000000000
B1701103802558S06008998WA0140101474000000000000
B1701123802587S06009031WA0139801467000000000000
B1701143802618S06009064WA0139201462000000000000
B1701163802649S06009098WA0138501456000000000000
B1701183802683S06009133WA0138101451000000000000
B1701203802717S06009169WA0137701450000004000000
B1701223802749S06009208WA0137601451000004000000
B1701243802780S06009247WA0137801456000004000000
B1701263802810S06009287WA0138201460000004000000
B1701283802840S06009325WA0138601464000004000000
B1701303802873S06009352WA0139201472000004000000
B1701323802904S06009363WA0140101482000004000000
B1701343802930S06009354WA0141001492000004000000
B1701363802947S06009332WA0141501494000004000000
B1701383802953S06009303WA0141601493000004000000
B1701403802953S06009271WA0141401490000000000000
B1701423802952S06009237WA0141201489000000000000
B1701443802952S06009202WA0141301488000004000000
B1701463802951S06009167WA0141201484000004000000
B1701483802948S06009129WA0140801479000004000000
B1701503802944S06009091WA0140401475000004000000
B1701523802938S06009052WA0140001472000004000000
B1701543802936S06009013WA0139701469000004000000
B1701563802936S06008973WA0139401469000004000000
B1701583802940S06008933WA0139401468000004000000
B1702003802947S06008894WA0139301465000004000000
B1702023802961S06008857WA0139101467000004000000
B1702043802980S06008825WA0139201472000004000000
B1702063802995S06008788WA0139701479000004000000
B1702083802991S06008751WA0140201483000004000000
B1702103802965S06008723WA0140801488000004000000
B1702123802930S06008721WA0141201490000004000000
B1702143802897S06008744WA0141301490000000000000
B1702163802878S06008787WA0141301488000000000000
B1702183802882S06008831WA0141101486000000000000
B1702203802904S06008862WA0140801483000000000000
B1702223802934S06008873WA0140601482000000000000
B1702243802962S06008865WA0140701485000000000000
B1702263802988S06008852WA0141101489000004000000
B1702283803004S06008825WA0141301491000000000000
B1702303803001S06008791WA0141601495000000000000
B1702323802978S06008767WA0142001498000000000000
B1702343802944S06008766WA0142301500000000000000
B1702363802915S06008790WA0142601503000000000000
B1702383802901S06008830WA0142701504000000000000
B1702403802901S06008873WA0142801504000000000000
B1702423802914S06008909WA0142701504000000000000
B1702443802939S06008934WA0142801507000000000000
B1702463802966S06008948WA0143201510000000000000
B1702483802996S06008949WA0143301508000000000000
B1702503803019S06008933WA0143301510000000000000
B1702523803027S06008901WA0143601516000000000000
B1702543803018S06008870WA0144001520000000000000
B1702563802995S06008847WA0144401521000004000000
B1702583802964S06008842WA0144601522000004000000
B1703003802931S06008853WA0144701523000004000000
B1703023802904S06008881WA0144801522000004000000
B1703043802891S06008921WA0144801522000004000000
B1703063802899S06008961WA0144801525000000000000
B1703083802922S06008985WA0144901526000000000000
B1703103802951S06008992WA0145001525000004000000
B1703123802978S06008986WA0144901525000004000000
B1703143802996S06008961WA0145101528000004000000
B1703163802999S06008927WA0145401531000004000000
B1703183802990S06008892WA0145601532000004000000
B1703203802970S06008862WA0145601535000004000000
B1703223802943S06008843WA0146001540000000000000
B1703243802912S06008838WA0146301541000000000000
B1703263802880S06008853WA0146501541000000000000
B1703283802858S06008884WA0146501540000000000000
B1703303802849S06008926WA0146301539000000000000
B1703323802854S06008965WA0146201535000000000000
B1703343802870S06008999WA0145801533000000000000
B1703363802893S06009025WA0145601533000000000000
B1703383802921S06009042WA0145601532000004000000
B1703403802949S06009046WA0145701535000000000000
B1703423802975S06009035WA0146201541000000000000
B1703443802992S06009011WA0146601544000000000000
B1703463802995S06008978WA0146801544000000000000
B1703483802992S06008942WA0146801543000000000000
B1703503802984S06008907WA0146701542000000000000
B1703523802970S06008873WA0146701545000000000000
B1703543802947S06008847WA0147001548000000000000
B1703563802914S06008839WA0147201549000000000000
B1703583802882S06008847WA0147301549000000000000
B1704003802850S06008864WA0147401548000000000000
B1704023802822S06008888WA0147201545000000000000
B1704043802804S06008923WA0146901544000000000000
B1704063802796S06008962WA0146701542000000000000
B1704083802800S06008999WA0146601541000000000000
B1704103802810S06009034WA0146401537000000000000
B1704123802824S06009065WA0146101533000000000000
B1704143802848S06009086WA0145801533000000000000
B1704163802875S06009092WA0145701533000004000000
B1704183802904S06009087WA0145801532000000000000
B1704203802927S06009069WA0145901537000004000000
B1704223802941S06009039WA0146201541000004000000
B1704243802948S06009005WA0146601543000004000000
B1704263802948S06008970WA0146501539000004000000
B1704283802936S06008933WA0146101534000004000000
B1704303802909S06008909WA0146101539000004000000
B1704323802875S06008907WA0146801548000004000000
B1704343802848S06008923WA0147501553000004000000
B1704363802828S06008952WA0147501548000004000000
B1704383802814S06008990WA0146801539000004000000
B1704403802810S06009033WA0146001533000004000000
B1704423802817S06009074WA0145801530000004000000
B1704443802836S06009103WA0145601531000004000000
B1704463802863S06009109WA0145601533000004000000
B1704483802883S06009092WA0145801533000004000000
B1704503802888S06009063WA0145701530000004000000
B1704523802884S06009029WA0145401525000004000000
B1704543802876S06008992WA0144901518000004000000
B1704563802871S06008955WA0144401512000004000000
B1704583802869S06008913WA0143801504000004000000
B1705003802867S06008870WA0143101499000004000000
B1705023802866S06008827WA0142501496000004000000
B1705043802863S06008784WA0142201491000000000000
B1705063802861S06008740WA0141601487000004000000
B1705083802856S06008696WA0141101482000004000000
B1705103802852S06008650WA0140601476000004000000
B1705123802848S06008605WA0140001467000000000000
B1705143802845S06008557WA0139201457000000000000
B1705163802843S06008506WA0138401455000000000000
B1705183802843S06008457WA0138201454000000000000
B1705203802844S06008409WA0138201456000000000000
B1705223802847S06008361WA0138401459000000000000
B1705243802849S06008314WA0138801462000000000000
B1705263802850S06008270WA0139101466000000000000
B1705283802849S06008225WA0139201466000000000000
B1705303802849S06008182WA0139201467000004000000
B1705323802850S06008142WA0139201468000000000000
B1705343802852S06008102WA0139301468000000000000
B1705363802854S06008063WA0139201467000000000000
B1705383802861S06008025WA0139301468000000000000
B1705403802870S06007990WA0139401467000000000000
B1705423802880S06007956WA0139201465000000000000
B1705443802889S06007921WA0138901459000000000000
B1705463802896S06007882WA0138301451000000000000
B1705483802895S06007841WA0137501444000000000000
B1705503802891S06007798WA0136801439000000000000
B1705523802886S06007756WA0136501440000000000000
B1705543802879S06007714WA0136501441000000000000
B1705563802873S06007675WA0136501440000000000000
B1705583802865S06007638WA0136401438000000000000
B1706003802860S06007597WA0136201435000000000000
B1706023802858S06007556WA0135901432000004000000
B1706043802861S06007516WA0135701430000004000000
B1706063802865S06007475WA0135501428000004000000
B1706083802869S06007435WA0135401426000004000000
B1706103802875S06007395WA0135101423000004000000
B1706123802879S06007353WA0134701418000004000000
B1706143802883S06007311WA0134101415000004000000
B1706163802889S06007271WA0133801413000000000000
B1706183802895S06007230WA0133701413000000000000
B1706203802900S06007189WA0133601412000004000000
B1706223802905S06007149WA0133501410000004000000
B1706243802910S06007107WA0133301412000004000000
B1706263802914S06007066WA0133501413000004000000
B1706283802922S06007024WA0133501413000000000000
B1706303802931S06006981WA0133601413000000000000
B1706323802941S06006940WA0133701415000004000000
B1706343802952S06006898WA0133801415000000000000
B1706363802962S06006855WA0133901417000004000000
B1706383802971S06006814WA0134001417000004000000
B1706403802980S06006772WA0134101417000004000000
B1706423802987S06006729WA0134201420000000000000
B1706443802990S06006686WA0134501424000000000000
B1706463802995S06006645WA0134801428000004000000
B1706483803004S06006604WA0135201433000000000000
B1706503803017S06006567WA0135501434000000000000
B1706523803032S06006530WA0135801435000000000000
B1706543803051S06006496WA0135901434000004000000
B1706563803071S06006464WA0135801434000004000000
B1706583803097S06006437WA0135701433000004000000
B1707003803125S06006411WA0135501431000004000000
B1707023803143S06006374WA0135401432000004000000
B1707043803146S06006333WA0135701438000004000000
B1707063803140S06006291WA0136501450000004000000
B1707083803133S06006253WA0137701462000004000000
B1707103803114S06006222WA0138901476000004000000
B1707123803087S06006205WA0140001486000004000000
B1707143803056S06006209WA0141001494000004000000
B1707163803031S06006236WA0141801500000004000000
B1707183803019S06006277WA0142401505000004000000
B1707203803021S06006321WA0142701505000004000000
B1707223803029S06006365WA0142801507000004000000
B1707243803044S06006405WA0143001510000004000000
B1707263803065S06006437WA0143301516000004000000
B1707283803092S06006450WA0143701521000004000000
B1707303803117S06006443WA0144301522000004000000
B1707323803136S06006421WA0144501525000004000000
B1707343803148S06006394WA0144801530000004000000
B1707363803147S06006362WA0145301536000004000000
B1707383803135S06006333WA0145901545000000000000
B1707403803114S06006309WA0146701551000000000000
B1707423803084S06006299WA0147301553000000000000
B1707443803052S06006303WA0147501556000004000000
B1707463803022S06006323WA0148001564000004000000
B1707483803003S06006359WA0148801572000004000000
B1707503802997S06006403WA0149501578000004000000
B1707523803005S06006444WA0150101581000004000000
B1707543803019S06006481WA0150201581000004000000
B1707563803044S06006503WA0150401582000004000000
B1707583803073S06006507WA0150601586000000000000
B1708003803097S06006494WA0151101592000004000000
B1708023803116S06006469WA0151301598000000000000
B1708043803125S06006439WA0151901603000000000000
B1708063803120S06006407WA0152601610000000000000
B1708083803103S06006379WA0153201614000000000000
B1708103803078S06006362WA0153601616000000000000
B1708123803047S06006362WA0153801618000000000000
B1708143803018S06006382WA0154001620000000000000
B1708163802996S06006414WA0154201622000004000000
B1708183802979S06006456WA0154401626000004000000
B1708203802975S06006502WA0154801629000004000000
B1708223802980S06006547WA0155001632000004000000
B1708243802995S06006586WA0155201633000004000000
B1708263803019S06006615WA0155501637000000000000
B1708283803047S06006628WA0155901641000000000000
B1708303803075S06006625WA0156301646000000000000
B1708323803099S06006609WA0156901652000004000000
B1708343803113S06006582WA0157401658000000000000
B1708363803118S06006551WA0157901661000000000000
B1708383803112S06006520WA0158301664000000000000
B1708403803096S06006490WA0158701668000000000000
B1708423803074S06006466WA0158901672000000000000
B1708443803048S06006450WA0159201674000004000000
B1708463803018S06006446WA0159401673000000000000
B1708483802986S06006455WA0159301670000004000000
B1708503802956S06006476WA0159301675000004000000
B1708523802931S06006508WA0159601681000004000000
B1708543802915S06006547WA0160201686000000000000
B1708563802910S06006590WA0160601689000000000000
B1708583802915S06006632WA0160901689000000000000
B1709003802930S06006667WA0160901688000004000000
B1709023802953S06006693WA0160901690000000000000
B1709043802979S06006707WA0161101692000000000000
B1709063803006S06006708WA0161301694000000000000
B1709083803032S06006700WA0161601697000000000000
B1709103803056S06006684WA0161801698000000000000
B1709123803073S06006660WA0162001702000000000000
B1709143803086S06006633WA0162201704000000000000
B1709163803088S06006602WA0162301703000000000000
B1709183803078S06006569WA0162201702000000000000
B1709203803055S06006544WA0162201702000000000000
B1709223803025S06006531WA0162201702000000000000
B1709243802992S06006530WA0162201698000000000000
B1709263802960S06006547WA0161901697000000000000
B1709283802934S06006576WA0161801701000000000000
B1709303802918S06006615WA0162301706000000000000
B1709323802910S06006658WA0162801710000000000000
B1709343802909S06006700WA0162901709000000000000
B1709363802915S06006743WA0162901709000000000000
B1709383802926S06006784WA0162901711000000000000
B1709403802943S06006821WA0163201715000000000000
B1709423802964S06006851WA0163601719000004000000
B1709443802988S06006873WA0164001724000000000000
B1709463803017S06006885WA0164501729000000000000
B1709483803044S06006885WA0165001735000000000000
B1709503803069S06006875WA0165601739000000000000
B1709523803088S06006854WA0165901744000000000000
B1709543803100S06006825WA0166501749000000000000
B1709563803105S06006794WA0166901752000000000000
B1709583803103S06006762WA0167201755000004000000
B1710003803090S06006730WA0167401757000004000000
B1710023803071S06006706WA0167601759000000000000
B1710043803045S06006686WA0167701758000000000000
B1710063803017S06006677WA0167401755000000000000
B1710083802986S06006680WA0167201753000000000000
B1710103802954S06006691WA0167101749000000000000
B1710123802925S06006712WA0166801748000004000000
B1710143802896S06006736WA0166801750000004000000
B1710163802873S06006764WA0166901749000004000000
B1710183802860S06006803WA0166801747000000000000
B1710203802858S06006846WA0166501744000000000000
B1710223802865S06006888WA0166201742000000000000
B1710243802879S06006924WA0166101742000000000000
B1710263802902S06006949WA0166201746000000000000
B1710283802928S06006959WA0166401746000000000000
B1710303802956S06006958WA0166201743000000000000
B1710323802983S06006949WA0166201745000000000000
B1710343803009S06006936WA0166401751000000000000
B1710363803034S06006918WA0167101757000000000000
B1710383803053S06006894WA0167501760000000000000
B1710403803065S06006866WA0167901762000000000000
B1710423803068S06006832WA0168001761000004000000
B1710443803062S06006798WA0167901757000004000000
B1710463803047S06006765WA0167601752000004000000
B1710483803026S06006739WA0167301750000004000000
B1710503802997S06006723WA0166901746000004000000
B1710523802966S06006716WA0166501742000000000000
B1710543802935S06006720WA0166001734000004000000
B1710563802905S06006741WA0165201726000004000000
B1710583802880S06006773WA0164501721000004000000
B1711003802862S06006812WA0164301721000004000000
B1711023802847S06006854WA0164301721000004000000
B1711043802834S06006897WA0164301721000004000000
B1711063802822S06006940WA0164201722000004000000
B1711083802813S06006983WA0164201720000004000000
B1711103802806S06007027WA0164001717000004000000
B1711123802798S06007072WA0163801715000004000000
B1711143802789S06007119WA0163601713000004000000
B1711163802783S06007166WA0163301710000004000000
B1711183802776S06007215WA0163101707000004000000
B1711203802770S06007265WA0162801705000004000000
B1711223802761S06007315WA0162401699000000000000
B1711243802753S06007366WA0161601690000000000000
B1711263802745S06007418WA0160801681000000000000
B1711283802739S06007473WA0159901675000000000000
B1711303802735S06007529WA0159301669000000000000
B1711323802728S06007587WA0158601661000000000000
B1711343802723S06007646WA0157901656000000000000
B1711363802718S06007707WA0157701656000000000000
B1711383802710S06007766WA0157801659000000000000
B1711403802702S06007826WA0158101662000004000000
B1711423802694S06007883WA0158301664000004000000
B1711443802685S06007942WA0158301659000004000000
B1711463802676S06008002WA0157701651000000000000
B1711483802667S06008063WA0157001646000004000000
B1711503802655S06008123WA0156701644000004000000
B1711523802646S06008182WA0156401641000000000000
B1711543802637S06008242WA0155901637000000000000
B1711563802627S06008302WA0155601633000000000000
B1711583802618S06008363WA0155201628000000000000
B1712003802610S06008423WA0154801625000000000000
B1712023802602S06008484WA0154601624000000000000
B1712043802594S06008544WA0154401620000000000000
B1712063802587S06008604WA0154101616000004000000
B1712083802579S06008663WA0153601614000000000000
B1712103802572S06008722WA0153501614000004000000
B1712123802566S06008779WA0153501613000004000000
B1712143802559S06008835WA0153201608000004000000
B1712163802549S06008890WA0152801604000004000000
B1712183802536S06008944WA0152601601000004000000
B1712203802522S06008999WA0152301598000004000000
B1712223802507S06009052WA0152101595000004000000
B1712243802494S06009107WA0151701590000004000000
B1712263802480S06009163WA0151201585000000000000
B1712283802468S06009219WA0150801580000004000000
B1712303802457S06009276WA0150401577000000000000
B1712323802446S06009332WA0150001575000000000000
B1712343802434S06009388WA0149901575000000000000
B1712363802423S06009442WA0150001576000000000000
B1712383802412S06009497WA0150001576000000000000
B1712403802401S06009550WA0149901574000000000000
B1712423802390S06009603WA0149801574000004000000
B1712443802377S06009655WA0149901575000004000000
B1712463802363S06009706WA0150001576000004000000
B1712483802347S06009757WA0149901573000004000000
B1712503802333S06009807WA0149901575000004000000
B1712523802319S06009856WA0150001578000004000000
B1712543802306S06009905WA0150101575000004000000
B1712563802293S06009956WA0149701567000004000000
B1712583802281S06010009WA0149101562000004000000
B1713003802269S06010062WA0148701560000004000000
B1713023802258S06010117WA0148501559000004000000
B1713043802246S06010169WA0148401558000004000000
B1713063802236S06010221WA0148301556000004000000
B1713083802225S06010273WA0148101555000004000000
B1713103802216S06010324WA0147901553000004000000
B1713123802207S06010374WA0147601551000004000000
B1713143802199S06010425WA0147301545000004000000
B1713163802190S06010478WA0146601537000000000000
B1713183802181S06010533WA0145901529000000000000
B1713203802173S06010590WA0145101520000000000000
B1713223802164S06010649WA0144201513000000000000
B1713243802156S06010707WA0143801510000004000000
B1713263802147S06010766WA0143601508000000000000
B1713283802139S06010824WA0143401507000000000000
B1713303802130S06010881WA0143301505000000000000
B1713323802121S06010938WA0143101502000000000000
B1713343802111S06010994WA0142801498000000000000
B1713363802102S06011052WA0142401494000004000000
B1713383802091S06011107WA0142001491000004000000
B1713403802082S06011162WA0141901491000004000000
B1713423802070S06011214WA0141701490000000000000
B1713443802059S06011266WA0141501486000000000000
B1713463802047S06011318WA0141101480000000000000
B1713483802035S06011371WA0140401470000000000000
B1713503802025S06011427WA0139101455000000000000
B1713523802015S06011486WA0138101451000000000000
B1713543802005S06011544WA0137901449000000000000
B1713563801998S06011603WA0137501442000000000000
B1713583801991S06011663WA0137001436000000000000
B1714003801987S06011722WA0136301429000000000000
B1714023801992S06011783WA0135401420000000000000
B1714043802005S06011845WA0135101411000000000000
B1714063802020S06011904WA0134401407000000000000
B1714083802034S06011964WA0133901402000004000000
B1714103802046S06012025WA0133501396000000000000
B1714123802059S06012088WA0133001391000000000000
B1714143802069S06012150WA0132401390000004000000
B1714163802078S06012212WA0132201390000000000000
B1714183802083S06012275WA0132501397000004000000
B1714203802076S06012335WA0133301406000000000000
B1714223802061S06012389WA0133801409000000000000
B1714243802046S06012441WA0134201410000000000000
B1714263802030S06012492WA0134101409000000000000
B1714283802015S06012543WA0134001410000000000000
B1714303802000S06012591WA0134201410000000000000
B1714323801985S06012641WA0134101407000000000000
B1714343801970S06012693WA0133601402000000000000
B1714363801956S06012745WA0133101398000004000000
B1714383801943S06012800WA0132901397000000000000
B1714403801930S06012855WA0132801395000000000000
B1714423801918S06012911WA0132601393000000000000
B1714443801908S06012966WA0132501391000004000000
B1714463801894S06013021WA0132201387000004000000
B1714483801879S06013076WA0132001385000000000000
B1714503801865S06013132WA0131801383000000000000
B1714523801852S06013189WA0131501380000000000000
B1714543801838S06013246WA0131301380000000000000
B1714563801823S06013302WA0131301379000000000000
B1714583801808S06013355WA0131201379000004000000
B1715003801794S06013410WA0130901377000000000000
B1715023801778S06013463WA0130201365000004000000
B1715043801760S06013516WA0129201355000004000000
B1715063801740S06013571WA0128401348000004000000
B1715083801719S06013626WA0127701343000004000000
B1715103801700S06013680WA0127401342000004000000
B1715123801680S06013736WA0127501345000004000000
B1715143801660S06013791WA0127801349000000000000
B1715163801640S06013844WA0128301358000000000000
B1715183801621S06013896WA0129001366000000000000
B1715203801602S06013947WA0129801372000000000000
B1715223801584S06013996WA0130301373000000000000
B1715243801567S06014043WA0130401373000000000000
B1715263801552S06014092WA0130301369000000000000
B1715283801535S06014142WA0130001364000000000000
B1715303801519S06014192WA0129401356000004000000
B1715323801504S06014247WA0128601346000000000000
B1715343801487S06014303WA0127601336000004000000
B1715363801471S06014360WA0126801330000000000000
B1715383801453S06014415WA0126501331000000000000
B1715403801436S06014468WA0126701336000004000000
B1715423801419S06014521WA0127201342000004000000
B1715443801405S06014575WA0127901351000000000000
B1715463801392S06014627WA0128801364000000000000
B1715483801388S06014677WA0130101376000000000000
B1715503801402S06014718WA0131301387000004000000
B1715523801432S06014738WA0132101392000004000000
B1715543801459S06014734WA0132601395000004000000
B1715563801475S06014711WA0133001399000004000000
B1715573801475S06014695WA0133301399000004000000
B1716003801452S06014654WA0133301399000000000000
B1716023801423S06014643WA0133401404000000000000
B1716043801393S06014651WA0134001412000000000000
B1716063801367S06014675WA0134601416000000000000
B1716073801357S06014690WA0135001418000004000000
B1716103801353S06014749WA0135101417000004000000
B1716123801375S06014777WA0135201417000004000000
B1716143801404S06014781WA0135301419000004000000
B1716163801424S06014764WA0135501421000004000000
B1716183801430S06014736WA0135501417000004000000
B1716203801418S06014706WA0135001412000000000000
B1716223801391S06014686WA0134801415000000000000
B1716243801359S06014679WA0135101421000004000000
B1716263801327S06014692WA0135701427000004000000
B1716283801306S06014724WA0136301434000004000000
B1716303801302S06014764WA0136801436000004000000
B1716323801315S06014799WA0136901437000004000000
B1716343801341S06014814WA0137001437000000000000
B1716363801365S06014802WA0136901436000004000000
B1716383801375S06014772WA0136901435000000000000
B1716403801363S06014741WA0137101439000000000000
B1716423801337S06014724WA0137601447000000000000
B1716443801307S06014733WA0138101452000000000000
B1716463801288S06014764WA0138301453000000000000
B1716483801285S06014805WA0138301452000000000000
B1716503801301S06014837WA0138401455000000000000
B1716523801327S06014850WA0138601456000000000000
B1716543801350S06014837WA0138701455000000000000
B1716563801361S06014807WA0138701453000000000000
B1716583801350S06014773WA0138701457000000000000
B1717003801324S06014757WA0139001464000000000000
B1717023801294S06014766WA0139701469000000000000
B1717043801275S06014796WA0140101469000000000000
B1717063801271S06014836WA0140101468000000000000
B1717083801284S06014871WA0140001469000000000000
B1717103801307S06014890WA0140001470000000000000
B1717123801333S06014887WA0140301472000000000000
B1717143801350S06014863WA0140501472000000000000
B1717163801350S06014829WA0140501473000000000000
B1717183801331S06014802WA0140601475000000000000
B1717203801302S06014796WA0140901477000000000000
B1717223801275S06014814WA0141001479000000000000
B1717243801259S06014850WA0141101479000000000000
B1717263801258S06014889WA0141201481000000000000
B1717283801272S06014923WA0141301482000000000000
B1717303801294S06014945WA0141301479000000000000
B1717323801322S06014942WA0141101477000004000000
B1717343801341S06014919WA0141101478000004000000
B1717363801341S06014885WA0141201482000000000000
B1717383801320S06014862WA0141601484000000000000
B1717403801292S06014859WA0141701484000004000000
B1717423801267S06014883WA0141601483000004000000
B1717443801257S06014922WA0141501481000000000000
B1717463801253S06014965WA0141201477000000000000
B1717483801251S06015009WA0140801474000004000000
B1717503801250S06015056WA0140401469000000000000
B1717523801246S06015104WA0139901464000000000000
B1717543801242S06015153WA0139201458000000000000
B1717563801236S06015206WA0138501452000000000000
B1717583801224S06015261WA0138001448000000000000
B1718003801210S06015316WA0137401443000004000000
B1718023801194S06015371WA0137201440000004000000
B1718043801179S06015429WA0136901437000004000000
B1718063801166S06015486WA0136601436000000000000
B1718083801151S06015544WA0136501434000000000000
B1718103801144S06015603WA0136201430000004000000
B1718123801136S06015661WA0135901427000000000000
B1718143801124S06015720WA0135601427000004000000
B1718163801107S06015773WA0135601428000004000000
B1718183801086S06015825WA0135601428000004000000
B1718203801060S06015872WA0135601431000004000000
B1718223801028S06015912WA0135801434000004000000
B1718243800991S06015943WA0136001436000004000000
B1718263800954S06015966WA0136201438000000000000
B1718283800915S06015969WA0136601443000004000000
B1718303800882S06015956WA0137001445000004000000
B1718323800861S06015929WA0137401449000000000000
B1718343800864S06015897WA0137801453000000000000
B1718363800884S06015877WA0138001454000000000000
B1718383800913S06015873WA0138201454000000000000
B1718403800943S06015890WA0138301455000000000000
B1718423800965S06015928WA0138401457000000000000
B1718443800973S06015977WA0138501460000000000000
B1718463800967S06016028WA0138801463000000000000
B1718483800956S06016077WA0139001462000000000000
B1718503800947S06016127WA0138801458000000000000
B1718523800937S06016180WA0138501453000000000000
B1718543800926S06016235WA0138201456000000000000
B1718563800916S06016288WA0138501461000000000000
B1718583800904S06016340WA0138901465000000000000
B1719003800894S06016392WA0139001458000004000000
B1719023800884S06016444WA0138201446000004000000
B1719043800874S06016500WA0137001436000004000000
B1719063800863S06016556WA0136201428000004000000
B1719083800850S06016613WA0135401421000004000000
B1719103800835S06016670WA0134801416000004000000
B1719123800817S06016727WA0134201410000000000000
B1719143800794S06016783WA0133701406000000000000
B1719163800768S06016839WA0133301405000004000000
B1719183800743S06016895WA0133401407000004000000
B1719203800720S06016952WA0133501410000004000000
B1719223800703S06017011WA0134101417000004000000
B1719243800692S06017069WA0134601423000004000000
B1719263800683S06017125WA0134901427000004000000
B1719283800676S06017181WA0135201426000004000000
B1719303800666S06017238WA0135001424000004000000
B1719323800656S06017294WA0134701421000004000000
B1719343800644S06017351WA0134601418000000000000
B1719363800631S06017409WA0134301416000000000000
B1719383800618S06017466WA0134001417000000000000
B1719403800608S06017523WA0134201420000004000000
B1719423800595S06017579WA0134601423000000000000
B1719443800583S06017633WA0135101429000000000000
B1719463800573S06017685WA0135601435000000000000
B1719483800562S06017737WA0135901437000000000000
B1719503800549S06017787WA0136101438000000000000
B1719523800536S06017836WA0136201438000000000000
B1719543800523S06017887WA0136201435000000000000
B1719563800512S06017938WA0135701431000004000000
B1719583800503S06017991WA0135101424000000000000
B1720003800492S06018043WA0134301417000004000000
B1720023800483S06018098WA0133701410000000000000
B1720043800473S06018152WA0133301403000000000000
B1720063800461S06018208WA0132701397000000000000
B1720083800447S06018265WA0132301394000000000000
B1720103800432S06018322WA0131901389000004000000
B1720123800421S06018381WA0131401385000004000000
B1720143800408S06018441WA0131001385000004000000
B1720163800393S06018501WA0131001388000004000000
B1720183800380S06018558WA0131601399000004000000
B1720203800369S06018615WA0132501408000004000000
B1720223800357S06018671WA0133401415000004000000
B1720243800344S06018724WA0133901419000004000000
B1720263800331S06018776WA0134201420000004000000
B1720283800322S06018827WA0134101418000004000000
B1720303800315S06018879WA0134001416000000000000
B1720323800310S06018932WA0133701413000004000000
B1720343800306S06018985WA0133201407000004000000
B1720363800300S06019039WA0132701401000000000000
B1720383800291S06019092WA0132401393000000000000
B1720403800282S06019148WA0131701385000004000000
B1720423800275S06019204WA0131001378000004000000
B1720443800275S06019261WA0130401372000000000000
B1720463800278S06019318WA0129701362000004000000
B1720483800284S06019375WA0128701353000004000000
B1720503800293S06019435WA0127801348000004000000
B1720523800301S06019494WA0127401343000004000000
B1720543800310S06019554WA0127001337000000000000
B1720563800318S06019613WA0126301328000000000000
B1720583800327S06019674WA0125701320000004000000
B1721003800336S06019737WA0124901313000004000000
B1721023800345S06019799WA0124401309000000000000
B1721043800354S06019862WA0123901306000000000000
B1721063800362S06019921WA0123701303000000000000
B1721083800370S06019981WA0123301299000000000000
B1721103800378S06020040WA0122701290000004000000
B1721123800387S06020101WA0121901284000004000000
B1721143800395S06020162WA0121401279000000000000
B1721163800399S06020222WA0121301283000000000000
B1721183800393S06020279WA0121601287000000000000
B1721203800383S06020332WA0122001288000000000000
B1721223800371S06020384WA0122101290000000000000
B1721243800360S06020436WA0122101289000004000000
B1721263800348S06020488WA0121901286000004000000
B1721283800338S06020540WA0121501284000004000000
B1721303800325S06020594WA0121401283000004000000
B1721323800310S06020646WA0121001275000004000000
B1721343800297S06020700WA0120301266000004000000
B1721363800283S06020755WA0119501260000000000000
B1721383800270S06020811WA0119101255000000000000
B1721403800256S06020867WA0118401248000004000000
B1721423800241S06020924WA0117801242000004000000
B1721443800227S06020981WA0117201235000004000000
B1721463800211S06021039WA0116501228000004000000
B1721483800196S06021098WA0115801222000000000000
B1721503800180S06021155WA0115201217000000000000
B1721523800167S06021214WA0115101213000000000000
B1721543800156S06021271WA0114601207000000000000
B1721563800140S06021327WA0114001202000004000000
B1721583800118S06021380WA0113501199000004000000
B1722003800096S06021429WA0113101196000004000000
B1722023800074S06021479WA0112801191000004000000
B1722043800052S06021530WA0112201183000004000000
B1722063800027S06021579WA0111601179000004000000
B1722083800000S06021622WA0111401180000004000000
B1722103759971S06021663WA0111301178000004000000
B1722123759945S06021708WA0111201175000004000000
B1722143759920S06021752WA0110801172000004000000
B1722163759896S06021797WA0110501168000004000000
B1722183759872S06021844WA0110101166000004000000
B1722203759853S06021892WA0110101167000004000000
B1722223759834S06021943WA0110101163000004000000
B1722243759815S06021992WA0109601155000004000000
B1722263759792S06022042WA0108901148000004000000
B1722283759768S06022091WA0108401145000004000000
B1722303759746S06022142WA0108101144000004000000
B1722323759725S06022194WA0108001141000004000000
B1722343759710S06022247WA0107501135000000000000
B1722363759698S06022303WA0107001130000004000000
B1722383759690S06022359WA0106101124000004000000
B1722403759682S06022416WA0105801115000004000000
B1722423759676S06022475WA0104901102000004000000
B1722443759671S06022536WA0103701092000000000000
B1722463759665S06022597WA0102601082000000000000
B1722483759660S06022659WA0101701074000000000000
B1722503759656S06022722WA0100901063000000000000
B1722523759654S06022785WA0099901052000000000000
B1722543759654S06022849WA0099501055000000000000
B1722563759658S06022910WA0099701058000000000000
B1722583759665S06022967WA0099901058000000000000
B1723003759675S06023025WA0099901053000000000000
B1723023759680S06023083WA0099501048000000000000
B1723043759680S06023142WA0098901042000000000000
B1723063759678S06023200WA0098201036000000000000
B1723083759676S06023259WA0097601031000000000000
B1723103759675S06023317WA0097101027000000000000
B1723123759673S06023376WA0096701021000000000000
B1723143759672S06023433WA0096101015000000000000
B1723163759671S06023491WA0095501008000000000000
B1723183759671S06023551WA0094700999000000000000
B1723203759669S06023611WA0094000992000000000000
B1723223759668S06023672WA0093300987000000000000
B1723243759671S06023733WA0092900983000000000000
B1723263759672S06023795WA0092500982000000000000
B1723283759669S06023858WA0092600985000000000000
B1723303759664S06023918WA0092800987000000000000
B1723323759658S06023977WA0093100991000004000000
B1723343759650S06024035WA0093300995000000000000
B1723363759642S06024091WA0093600998000000000000
B1723383759633S06024146WA0093901001000000000000
B1723403759625S06024201WA0094101002000000000000
B1723423759616S06024253WA0094301004000000000000
B1723443759608S06024305WA0094401004000000000000
B1723463759600S06024356WA0094301001000000000000
B1723483759593S06024408WA0093800994000000000000
B1723503759586S06024460WA0093200986000000000000
B1723523759580S06024514WA0092600982000000000000
B1723543759577S06024568WA0092200980000000000000
B1723563759581S06024621WA0092200980000000000000
B1723583759595S06024669WA0092100981000000000000
B1724003759620S06024703WA0092200980000000000000
B1724023759652S06024717WA0092100977000000000000
B1724043759682S06024712WA0091700973000000000000
B1724063759702S06024683WA0091300968000000000000
B1724083759701S06024646WA0090900962000004000000
B1724103759682S06024611WA0090400957000004000000
B1724123759654S06024585WA0090100955000004000000
B1724143759623S06024561WA0089800951000004000000
B1724163759590S06024536WA0089500950000004000000
B1724183759560S06024513WA0089200946000004000000
B1724203759530S06024488WA0088800939000004000000
B1724223759504S06024458WA0087900929000004000000
B1724243759483S06024421WA0087300915000004000000
B1724263759461S06024382WA0086200906000004000000
B1724283759435S06024344WA0085500903000004000000
B1724303759405S06024313WA0085100905000004000000
B1724323759372S06024289WA0085300908000004000000
B1724343759338S06024273WA0085500908000000000000
B1724363759301S06024258WA0085300904000000000000
B1724383759265S06024249WA0085000900000004000000
B1724403759226S06024249WA0084600898000000000000
B1724423759188S06024258WA0084300893000000000000
B1724443759151S06024274WA0083700882000000000000
B1724463759110S06024291WA0082700873000000000000
B1724483759070S06024310WA0081900865000000000000
B1724503759030S06024332WA0081400864000000000000
B1724523758991S06024354WA0081400866000000000000
B1724543758953S06024378WA0081300864000004000000
B1724563758914S06024401WA0081100862000004000000
B1724583758876S06024426WA0081000860000004000000
B1725003758837S06024452WA0080800860000004000000
B1725023758798S06024478WA0080700859000004000000
B1725043758759S06024501WA0080600860000004000000
B1725063758722S06024523WA0080800865000000000000
B1725083758685S06024542WA0081100870000000000000
B1725103758649S06024556WA0081500871000000000000
B1725123758612S06024569WA0081600871000000000000
B1725143758576S06024585WA0081700875000000000000
B1725163758544S06024608WA0082300885000004000000
B1725183758512S06024637WA0083100892000000000000
B1725203758480S06024659WA0083900899000000000000
B1725223758449S06024657WA0084700908000000000000
B1725243758429S06024633WA0085500916000004000000
B1725263758432S06024603WA0086100919000004000000
B1725283758451S06024585WA0086200915000004000000
B1725303758480S06024591WA0085900912000004000000
B1725323758501S06024627WA0085700912000004000000
B1725343758498S06024672WA0085900917000004000000
B1725363758476S06024703WA0086400924000000000000
B1725383758446S06024715WA0087000929000004000000
B1725403758417S06024705WA0087500934000000000000
B1725423758401S06024682WA0088100940000004000000
B1725443758402S06024656WA0088500943000004000000
B1725463758420S06024642WA0088500939000004000000
B1725483758445S06024644WA0088200934000004000000
B1725503758466S06024669WA0087800927000004000000
B1725523758476S06024709WA0087200924000004000000
B1725543758475S06024755WA0087200928000000000000
B1725563758464S06024798WA0087700935000004000000
B1725583758443S06024834WA0088600943000004000000
B1726003758415S06024856WA0089300950000004000000
B1726023758386S06024858WA0089700955000004000000
B1726043758365S06024839WA0090100958000004000000
B1726063758362S06024812WA0090300957000004000000
B1726083758373S06024790WA0090400957000004000000
B1726103758398S06024783WA0090400956000004000000
B1726123758425S06024796WA0090200954000004000000
B1726143758446S06024828WA0090100956000004000000
B1726163758454S06024868WA0090400962000004000000
B1726183758441S06024910WA0091000969000004000000
B1726203758415S06024934WA0091600976000004000000
B1726223758384S06024938WA0092200982000004000000
B1726243758362S06024921WA0092800988000000000000
B1726263758354S06024897WA0093300991000000000000
B1726283758362S06024874WA0093600990000000000000
B1726303758382S06024863WA0093600989000000000000
B1726323758408S06024871WA0093600990000004000000
B1726343758428S06024897WA0093800994000000000000
B1726363758434S06024937WA0094201000000004000000
B1726383758423S06024975WA0094801006000000000000
B1726403758395S06024997WA0095101008000004000000
B1726423758365S06024998WA0095301009000004000000
B1726443758343S06024978WA0095501013000004000000
B1726463758338S06024950WA0095901018000004000000
B1726483758351S06024929WA0096201018000004000000
B1726503758376S06024925WA0096101013000004000000
B1726523758401S06024946WA0095701012000004000000
B1726543758410S06024986WA0095601010000004000000
B1726563758397S06025030WA0095701013000004000000
B1726583758373S06025068WA0095901019000004000000
B1727003758343S06025086WA0096501024000004000000
B1727023758315S06025080WA0097001028000004000000
B1727043758298S06025056WA0097301033000004000000
B1727063758298S06025030WA0097801039000004000000
B1727083758313S06025012WA0098201039000004000000
B1727103758338S06025012WA0098001032000004000000
B1727123758364S06025036WA0097601029000000000000
B1727143758373S06025076WA0097801036000000000000
B1727163758360S06025118WA0098401043000004000000
B1727183758333S06025144WA0099001049000004000000
