ACAM4PM
HFDTE141224
HFFXA050
HFPLTPILOT:Andres Totorica         
HFGTYGLIDERTYPE:SZD-48-2 Ja 
HFGIDGLIDERID:LV-DNP      
HFDTM100GPSDATUM:
HFRFWFIRMWAREVERSION:F2.6
HFRHWHARDWAREVERSION:300 Series Version 2
HFFTYFRTYPE:CAMBRIDGE AERO INSTRUMENTS, 302+
HFGPS:GARMIN,LVS-25,12,18000
HFPRSPRESSALTSENSOR:INTERSEMA, MS5534-AP, 20000
I033638FXA3941ENL4247REX
LCAMSBVER:5FWVER:F26300
C121224163105121224000103
C0000000N00000000WTAKEOFF     
C3801767S06008133W001-OttoBall
C3813900S05950083W122r75AoCrMt
C3815083S06044503W119Pter85/QS
C3749283S06028817W081JuanEBarr
C3801767S06008133W001-OttoBall
C0000000N00000000WLANDING     
B1544083801619S06008309WA0018500197000000000000
B1544103801619S06008309WA0018600197000000000000
B1544123801619S06008309WA0018500197000000000000
B1544143801619S06008309WA0018600197000000000000
B1544163801619S06008309WA0018500197000000000000
B1544183801619S06008309WA0018500197000000000000
B1544203801619S06008309WA0018600197000000000000
B1544223801619S06008309WA0018600197000000000000
B1544243801619S06008309WA0018600197000000000000
B1544263801619S06008309WA0018500197000000000000
B1544283801619S06008309WA0018600197000000000000
B1544303801619S06008309WA0018600197000000000000
B1544323801619S06008309WA0018600197000000000000
B1544343801619S06008309WA0018500197000000000000
B1544363801622S06008305WA0018600197000000000000
B1544373801623S06008302WA0018600197000000000000
B1544393801630S06008296WA0018500196000000000000
B1544413801638S06008285WA0018400196000000000000
B1544433801648S06008272WA0018300196000000000000
B1544453801661S06008255WA0018200195000000000000
B1544473801674S06008236WA0018200194000000000000
B1544493801690S06008215WA0018100194000000000000
B1544513801706S06008190WA0018200194000000000000
B1544533801725S06008166WA0018200194000000000000
B1544553801745S06008138WA0018300194000000000000
B1544573801768S06008110WA0018400196000000000000
B1544593801788S06008080WA0018600198000000000000
B1545013801810S06008049WA0018800200000000000000
B1545033801834S06008019WA0019200206000000000000
B1545053801859S06007991WA0020100214000000000000
B1545073801883S06007963WA0020800221000000000000
B1545093801905S06007934WA0021500228000000000000
B1545113801931S06007907WA0022100234000000000000
B1545133801956S06007882WA0022800240000000000000
B1545153801979S06007856WA0023600249000000000000
B1545173801999S06007828WA0024000259000000000000
B1545193802018S06007800WA0024700264000000000000
B1545213802041S06007776WA0025300269000000000000
B1545233802065S06007756WA0025800274000000000000
B1545253802091S06007738WA0026600278000000000000
B1545273802116S06007721WA0026700283000000000000
B1545293802145S06007711WA0027100288000000000000
B1545313802173S06007708WA0027900292000000000000
B1545333802204S06007708WA0028100298000000000000
B1545353802236S06007712WA0028600300000000000000
B1545373802267S06007718WA0028900306000000000000
B1545393802295S06007729WA0029300312000000000000
B1545413802323S06007746WA0030000317000000000000
B1545433802350S06007763WA0030600322000000000000
B1545453802376S06007785WA0030900324000000000000
B1545473802402S06007812WA0031100324000000000000
B1545493802428S06007842WA0031300327000000000000
B1545513802453S06007876WA0031600330000000000000
B1545533802473S06007913WA0032200337000000000000
B1545553802494S06007950WA0032800343000000000000
B1545573802514S06007985WA0033400350000000000000
B1545593802535S06008019WA0034000356000000000000
B1546013802554S06008054WA0034600361000000000000
B1546033802576S06008089WA0034900361000000000000
B1546053802598S06008124WA0034800361000000000000
B1546073802622S06008159WA0034800361000000000000
B1546093802646S06008195WA0034900366000000000000
B1546113802671S06008232WA0035400373000000000000
B1546133802697S06008264WA0036100383000000000000
B1546153802723S06008296WA0037000393000000000000
B1546173802749S06008327WA0038000403000000000000
B1546193802775S06008357WA0039000414000000000000
B1546213802802S06008385WA0039900420000000000000
B1546233802831S06008410WA0040600427000000000000
B1546253802860S06008428WA0041300435000000000000
B1546273802888S06008444WA0042300449000000000000
B1546293802918S06008454WA0043500462000000000000
B1546313802948S06008463WA0044500470000000000000
B1546333802978S06008466WA0045300477000000000000
B1546353803008S06008463WA0046100484000000000000
B1546373803036S06008458WA0046800492000000000000
B1546393803064S06008452WA0047300493000000000000
B1546413803091S06008442WA0047500498000000000000
B1546433803117S06008428WA0048100506000000000000
B1546453803140S06008409WA0048700510000000000000
B1546473803165S06008388WA0049100510000000000000
B1546493803188S06008363WA0049300512000000000000
B1546513803209S06008336WA0049500516000000000000
B1546533803226S06008303WA0050000523000000000000
B1546553803240S06008272WA0050600529000000000000
B1546573803252S06008238WA0051200536000000000000
B1546593803263S06008202WA0051700538000000000000
B1547013803268S06008163WA0051900540000000000000
B1547033803272S06008124WA0052300546000000000000
B1547053803274S06008084WA0053000553000000000000
B1547073803277S06008045WA0053600560000000000000
B1547093803278S06008006WA0054500571000000000000
B1547113803277S06007965WA0055600579000000000000
B1547133803276S06007926WA0056400588000000000000
B1547153803274S06007885WA0056900598000000000000
B1547173803273S06007843WA0057800603000000000000
B1547193803270S06007800WA0058800619000000000000
B1547213803269S06007760WA0060000632000000000000
B1547233803269S06007718WA0061100641000000000000
B1547253803266S06007679WA0062100656000000000000
B1547273803263S06007642WA0063500671000000000000
B1547293803263S06007604WA0064800682000000000000
B1547313803261S06007566WA0065500685000000000000
B1547333803260S06007527WA0065700682000000000000
B1547353803256S06007488WA0065500681000000000000
B1547373803253S06007449WA0065400682000000000000
B1547393803250S06007410WA0065400682000000000000
B1547413803246S06007373WA0065600682000000000000
B1547433803240S06007334WA0065800684000000000000
B1547453803235S06007293WA0066100688000000000000
B1547473803230S06007254WA0066200687000000000000
B1547493803222S06007215WA0066200686000000000000
B1547513803216S06007178WA0066200688000000000000
B1547533803208S06007139WA0066300688000000000000
B1547553803200S06007100WA0066300688000000000000
B1547573803191S06007061WA0066300687000000000000
B1547593803182S06007022WA0066300686000000000000
B1548013803173S06006983WA0066200687000000000000
B1548033803164S06006944WA0066200687000000000000
B1548053803155S06006906WA0066300689000000000000
B1548073803143S06006868WA0066500692000000000000
B1548093803133S06006832WA0066700694000000000000
B1548113803123S06006793WA0066900693000000000000
B1548133803112S06006755WA0066900692000000000000
B1548153803101S06006716WA0066900693000000000000
B1548173803091S06006676WA0067000694000000000000
B1548193803083S06006635WA0067300698000000000000
B1548213803074S06006595WA0067800706000000000000
B1548233803060S06006557WA0068400712000000000000
B1548253803045S06006518WA0069100717000000000000
B1548273803036S06006478WA0069500720000000000000
B1548293803026S06006438WA0069900725000000000000
B1548313803016S06006399WA0070500732000000000000
B1548333803004S06006360WA0070800737000000000000
B1548353802993S06006322WA0071300742000000000000
B1548373802982S06006287WA0071700747000000000000
B1548393802971S06006252WA0072200751000000000000
B1548413802961S06006219WA0072600754000000000000
B1548433802951S06006184WA0072800755000000000000
B1548453802940S06006151WA0072800753000000000000
B1548473802931S06006117WA0072700751000000000000
B1548493802919S06006086WA0072300745000000000000
B1548513802899S06006060WA0071700738000000000000
B1548533802871S06006047WA0071100734000000000000
B1548553802840S06006053WA0070800730000000000000
B1548573802814S06006075WA0070300724000000000000
B1548593802797S06006110WA0069600719000000000000
B1549013802785S06006151WA0069300716000000000000
B1549033802776S06006191WA0069000713000000000000
B1549053802772S06006230WA0068600708000000000000
B1549073802776S06006269WA0068200704000000000000
B1549093802785S06006307WA0068000699000000000000
B1549113802797S06006343WA0067300687000000000000
B1549133802815S06006375WA0066200676000000000000
B1549153802837S06006404WA0065100665000000000000
B1549173802863S06006433WA0064000651000000000000
B1549193802891S06006463WA0062700635000000000000
B1549213802921S06006495WA0061400625000000000000
B1549233802951S06006528WA0060400621000000000000
B1549253802973S06006568WA0060500630000000000000
B1549273802987S06006608WA0061300640000000000000
B1549293802999S06006648WA0062100646000000000000
B1549313803006S06006687WA0062600650000000000000
B1549333803010S06006726WA0062900650000000000000
B1549353803014S06006764WA0062800649000000000000
B1549373803019S06006802WA0062700648000000000000
B1549393803029S06006840WA0062100637000000000000
B1549413803047S06006876WA0061100627000000000000
B1549433803071S06006908WA0060100615000000000000
B1549453803100S06006940WA0058800598000000000000
B1549473803133S06006970WA0057600590000000000000
B1549493803168S06006998WA0056900585000000000000
B1549513803201S06007025WA0056400580000000000000
B1549533803235S06007053WA0056000575000000000000
B1549553803269S06007079WA0055500572000000000000
B1549573803299S06007107WA0055400568000000000000
B1549593803328S06007140WA0054900562000000000000
B1550013803351S06007176WA0054300554000000000000
B1550033803373S06007215WA0053600547000000000000
B1550053803394S06007256WA0052900540000000000000
B1550073803415S06007297WA0052200535000000000000
B1550093803429S06007343WA0051800533000000000000
B1550113803438S06007389WA0051700535000000000000
B1550133803441S06007436WA0051800536000000000000
B1550153803438S06007482WA0051800537000000000000
B1550173803430S06007526WA0052000538000000000000
B1550193803419S06007568WA0052100539000000000000
B1550213803400S06007605WA0052200542000000000000
B1550233803377S06007638WA0052400545000000000000
B1550253803352S06007666WA0052600544000000000000
B1550273803324S06007691WA0052500543000000000000
B1550293803296S06007716WA0052400541000000000000
B1550313803266S06007739WA0052600545000000000000
B1550333803239S06007761WA0052900547000000000000
B1550353803220S06007792WA0053200548000000000000
B1550373803216S06007830WA0053300550000000000000
B1550393803230S06007863WA0053200549000000000000
B1550413803256S06007878WA0053300547000000000000
B1550433803282S06007874WA0053000544000000000000
B1550453803299S06007854WA0052800539000000000000
B1550473803302S06007824WA0052300533000000000000
B1550493803285S06007798WA0051900528000000000000
B1550513803255S06007789WA0051500527000000000000
B1550533803222S06007789WA0051300525000000000000
B1550553803190S06007790WA0051100522000000000000
B1550573803160S06007782WA0050900520000000000000
B1550593803133S06007769WA0050500515000000000000
B1551013803103S06007763WA0050100511000000000000
B1551033803074S06007774WA0049600506000000000000
B1551053803047S06007798WA0049100500000000000000
B1551073803021S06007825WA0048500495000000000000
B1551093802993S06007851WA0048100490000000000000
B1551113802967S06007880WA0047600487000000000000
B1551133802941S06007908WA0047300484000000000000
B1551153802914S06007935WA0046800478000000000000
B1551173802886S06007959WA0046500476000000000000
B1551193802857S06007982WA0046400473000000000000
B1551213802827S06008003WA0046200472000000000000
B1551233802795S06008017WA0046100470000000000000
B1551253802762S06008032WA0046000473000000000000
B1551273802730S06008043WA0046200477000000000000
B1551293802700S06008062WA0046600481000000000000
B1551313802672S06008085WA0046900484000000000000
B1551333802654S06008117WA0047000485000000000000
B1551353802653S06008156WA0047000482000000000000
B1551373802670S06008186WA0046700478000000000000
B1551393802696S06008195WA0046200469000000000000
B1551413802718S06008175WA0045200455000000000000
B1551433802715S06008137WA0044400452000000000000
B1551453802694S06008106WA0044300456000000000000
B1551473802667S06008080WA0044600457000000000000
B1551493802642S06008054WA0044600458000000000000
B1551513802620S06008024WA0044600459000000000000
B1551533802606S06007990WA0044600459000000000000
B1551553802598S06007954WA0044700459000000000000
B1551573802594S06007917WA0045000464000000000000
B1551593802585S06007885WA0045400469000000000000
B1552013802562S06007863WA0045900475000000000000
B1552033802532S06007863WA0046200479000000000000
B1552053802506S06007886WA0046500479000000000000
B1552073802493S06007928WA0046400476000000000000
B1552093802502S06007969WA0046300478000000000000
B1552113802528S06007990WA0046500480000000000000
B1552133802554S06007982WA0046600479000000000000
B1552153802563S06007954WA0046600478000000000000
B1552173802549S06007925WA0046600480000000000000
B1552193802518S06007921WA0046700481000000000000
B1552213802490S06007946WA0046800481000000000000
B1552233802481S06007987WA0046900480000000000000
B1552253802494S06008026WA0046900483000000000000
B1552273802520S06008041WA0047100487000000000000
B1552293802542S06008029WA0047300486000000000000
B1552313802551S06008002WA0047200482000000000000
B1552333802538S06007971WA0046900479000000000000
B1552353802515S06007948WA0046800482000000000000
B1552373802484S06007941WA0047000486000000000000
B1552393802455S06007959WA0047400489000000000000
B1552413802438S06007994WA0047600489000000000000
B1552433802441S06008036WA0047500486000000000000
B1552453802463S06008063WA0047200480000000000000
B1552473802492S06008064WA0046700475000000000000
B1552493802511S06008039WA0046300478000000000000
B1552513802522S06008008WA0046600482000000000000
B1552533802527S06007976WA0047000484000000000000
B1552553802525S06007941WA0047200485000000000000
B1552573802514S06007907WA0047300489000000000000
B1552593802486S06007890WA0047800495000000000000
B1553013802455S06007900WA0048200500000000000000
B1553033802434S06007934WA0048500500000000000000
B1553053802436S06007976WA0048600498000000000000
B1553073802453S06008006WA0048400495000000000000
B1553093802477S06008010WA0048200491000000000000
B1553113802494S06007989WA0047500483000000000000
B1553133802498S06007955WA0047100482000000000000
B1553153802496S06007919WA0047200486000000000000
B1553173802483S06007886WA0047600490000000000000
B1553193802462S06007861WA0047900496000000000000
B1553213802433S06007850WA0048300498000000000000
B1553233802401S06007861WA0048500499000000000000
B1553253802380S06007895WA0048700500000000000000
B1553273802379S06007935WA0048800501000000000000
B1553293802398S06007963WA0048700498000000000000
B1553313802423S06007967WA0048400496000000000000
B1553333802442S06007947WA0048200497000000000000
B1553353802454S06007921WA0048400499000000000000
B1553373802455S06007891WA0048700501000000000000
B1553393802445S06007861WA0048800502000000000000
B1553413802433S06007830WA0048900501000000000000
B1553433802416S06007800WA0048800503000000000000
B1553453802389S06007786WA0049000507000000000000
B1553473802358S06007799WA0049500513000000000000
B1553493802340S06007834WA0050000518000000000000
B1553513802341S06007873WA0050300516000000000000
B1553533802359S06007902WA0050300516000000000000
B1553553802385S06007908WA0050400521000000000000
B1553573802402S06007895WA0050900528000000000000
B1553593802406S06007868WA0051300532000000000000
B1554013802393S06007839WA0051700534000000000000
B1554033802366S06007822WA0051900533000000000000
B1554053802333S06007829WA0052000536000000000000
B1554073802308S06007860WA0052300543000000000000
B1554093802302S06007900WA0052900548000000000000
B1554113802315S06007937WA0053400552000000000000
B1554133802337S06007956WA0053700554000000000000
B1554153802360S06007952WA0054000555000000000000
B1554173802371S06007926WA0054200558000000000000
B1554193802362S06007895WA0054500563000000000000
B1554213802336S06007873WA0054900566000000000000
B1554233802302S06007870WA0055300571000000000000
B1554253802275S06007894WA0055800578000000000000
B1554273802263S06007932WA0056400583000000000000
B1554293802272S06007969WA0056600583000000000000
B1554313802293S06007991WA0056600582000000000000
B1554333802316S06007991WA0056700583000000000000
B1554353802330S06007969WA0056900588000000000000
B1554373802328S06007939WA0057500593000000000000
B1554393802308S06007913WA0057700594000000000000
B1554413802276S06007906WA0057800595000000000000
B1554433802246S06007924WA0058000596000000000000
B1554453802228S06007959WA0058100598000000000000
B1554473802228S06008000WA0058200600000000000000
B1554493802243S06008030WA0058400603000000000000
B1554513802268S06008039WA0058600600000000000000
B1554533802290S06008026WA0058500599000000000000
B1554553802306S06008002WA0058600606000000000000
B1554573802310S06007972WA0059000610000000000000
B1554593802293S06007945WA0059500615000000000000
B1555013802263S06007935WA0059800617000000000000
B1555033802232S06007954WA0060000616000000000000
B1555053802219S06007993WA0060000613000000000000
B1555073802228S06008030WA0059800615000000000000
B1555093802250S06008047WA0060100622000000000000
B1555113802273S06008041WA0060600627000000000000
B1555133802289S06008019WA0061000630000000000000
B1555153802284S06007987WA0061400632000000000000
B1555173802258S06007965WA0061600629000000000000
B1555193802223S06007972WA0061400629000000000000
B1555213802198S06008006WA0061400632000000000000
B1555233802195S06008047WA0061800636000000000000
B1555253802212S06008077WA0062100639000000000000
B1555273802237S06008081WA0062400642000000000000
B1555293802259S06008064WA0062800648000000000000
B1555313802273S06008038WA0063200655000000000000
B1555333802273S06008007WA0063800660000000000000
B1555353802254S06007982WA0064400664000000000000
B1555373802224S06007978WA0064800668000000000000
B1555393802197S06008002WA0065000670000000000000
B1555413802184S06008038WA0065100669000000000000
B1555433802187S06008076WA0065100669000000000000
B1555453802207S06008099WA0065300670000000000000
B1555473802232S06008098WA0065600677000000000000
B1555493802247S06008077WA0066300686000000000000
B1555513802247S06008049WA0067100693000000000000
B1555533802230S06008026WA0067500696000000000000
B1555553802203S06008020WA0067600695000000000000
B1555573802174S06008036WA0067400691000000000000
B1555593802155S06008071WA0067100688000000000000
B1556013802154S06008112WA0067100688000000000000
B1556033802171S06008141WA0067200689000000000000
B1556053802194S06008146WA0067100688000000000000
B1556073802215S06008129WA0067300690000000000000
B1556093802226S06008098WA0067700695000000000000
B1556113802228S06008064WA0067900700000000000000
B1556133802208S06008037WA0068100701000000000000
B1556153802176S06008033WA0068300703000000000000
B1556173802146S06008059WA0068500706000000000000
B1556193802134S06008101WA0068800708000000000000
B1556213802143S06008138WA0068900709000000000000
B1556233802167S06008151WA0069100712000000000000
B1556253802189S06008138WA0069200712000000000000
B1556273802203S06008112WA0069300715000000000000
B1556293802204S06008078WA0069600721000000000000
B1556313802187S06008051WA0070000726000000000000
B1556333802156S06008045WA0070400728000000000000
B1556353802128S06008067WA0070600727000000000000
B1556373802113S06008104WA0070600727000000000000
B1556393802115S06008145WA0070600729000000000000
B1556413802133S06008171WA0071000735000000000000
B1556433802156S06008176WA0071600742000000000000
B1556453802178S06008166WA0072100745000000000000
B1556473802198S06008146WA0072500746000000000000
B1556493802204S06008116WA0072700749000000000000
B1556513802194S06008084WA0072900752000000000000
B1556533802169S06008065WA0073200754000000000000
B1556553802139S06008068WA0073300756000000000000
B1556573802115S06008093WA0073500758000000000000
B1556593802103S06008130WA0073800761000000000000
B1557013802111S06008167WA0074100766000000000000
B1557033802132S06008189WA0074600771000000000000
B1557053802158S06008189WA0075200776000000000000
B1557073802177S06008169WA0075700781000000000000
B1557093802184S06008140WA0076100789000000000000
B1557113802176S06008110WA0076800793000000000000
B1557133802154S06008091WA0077000791000000000000
B1557153802125S06008090WA0076700788000000000000
B1557173802099S06008111WA0076500787000000000000
B1557193802085S06008146WA0076600788000000000000
B1557213802086S06008184WA0077000793000000000000
B1557233802104S06008210WA0077200802000000000000
B1557253802128S06008218WA0077800809000000000000
B1557273802148S06008205WA0078500813000000000000
B1557293802158S06008176WA0078900814000000000000
B1557313802151S06008146WA0079100816000000000000
B1557333802132S06008124WA0079300817000000000000
B1557353802104S06008120WA0079500820000000000000
B1557373802077S06008137WA0079600820000000000000
B1557393802060S06008169WA0079700822000000000000
B1557413802056S06008208WA0079900825000000000000
B1557433802068S06008241WA0080300830000000000000
B1557453802090S06008255WA0080800835000000000000
B1557473802111S06008246WA0081000837000000000000
B1557493802124S06008221WA0081100836000000000000
B1557513802119S06008190WA0081100837000000000000
B1557533802098S06008171WA0081400840000000000000
B1557553802069S06008172WA0081600844000000000000
B1557573802046S06008195WA0082000848000000000000
B1557593802034S06008232WA0082400851000000000000
B1558013802039S06008268WA0082800854000000000000
B1558033802059S06008292WA0083100860000000000000
B1558053802083S06008293WA0083400863000000000000
B1558073802106S06008279WA0083700866000000000000
B1558093802121S06008254WA0084000867000000000000
B1558113802122S06008225WA0084100868000000000000
B1558133802106S06008202WA0084100869000000000000
B1558153802078S06008195WA0084300871000000000000
B1558173802050S06008210WA0084600875000000000000
B1558193802029S06008241WA0085100880000000000000
B1558213802015S06008277WA0085300883000000000000
B1558233802015S06008316WA0085400884000000000000
B1558253802031S06008345WA0085600887000000000000
B1558273802057S06008350WA0085800889000000000000
B1558293802078S06008332WA0086100892000000000000
B1558313802087S06008302WA0086400892000000000000
B1558333802078S06008271WA0086500894000000000000
B1558353802055S06008251WA0086700898000000000000
B1558373802024S06008254WA0087200903000000000000
B1558393801999S06008279WA0087600908000000000000
B1558413801989S06008314WA0088100913000000000000
B1558433801995S06008350WA0088700918000000000000
B1558453802015S06008374WA0089000920000000000000
B1558473802039S06008376WA0089200920000000000000
B1558493802060S06008358WA0089200921000000000000
B1558513802068S06008329WA0089300923000000000000
B1558533802063S06008299WA0089600927000000000000
B1558553802042S06008280WA0090100931000000000000
B1558573802015S06008277WA0090500935000000000000
B1558593801987S06008293WA0090800938000000000000
B1559013801970S06008324WA0091100940000000000000
B1559033801968S06008362WA0091300941000000000000
B1559053801979S06008396WA0091500944000000000000
B1559073802002S06008414WA0091800948000000000000
B1559093802025S06008413WA0092100951000000000000
B1559113802043S06008394WA0092200950000000000000
B1559133802050S06008366WA0092100948000000000000
B1559153802039S06008337WA0092000950000000000000
B1559173802016S06008320WA0092200954000000000000
B1559193801987S06008322WA0092700959000000000000
B1559213801960S06008344WA0093200966000000000000
B1559233801944S06008377WA0093800972000000000000
B1559253801942S06008415WA0094300974000000000000
B1559273801953S06008449WA0094600975000000000000
B1559293801977S06008470WA0094700978000000000000
B1559313802002S06008470WA0094900981000000000000
B1559333802021S06008454WA0095100983000000000000
B1559353802030S06008426WA0095300983000000000000
B1559373802024S06008397WA0095400985000000000000
B1559393802004S06008376WA0095600987000000000000
B1559413801977S06008371WA0095900989000000000000
B1559433801948S06008385WA0096000990000000000000
B1559453801930S06008418WA0096300994000000000000
B1559473801926S06008458WA0096600998000000000000
B1559493801940S06008491WA0096901002000000000000
B1559513801964S06008506WA0097301005000000000000
B1559533801987S06008502WA0097401007000000000000
B1559553802005S06008481WA0097701007000000000000
B1559573802009S06008453WA0097701007000000000000
B1559593801998S06008426WA0097701008000000000000
B1600013801973S06008409WA0097801008000000000000
B1600033801943S06008413WA0097901009000000000000
B1600053801917S06008437WA0097901011000000000000
B1600073801898S06008471WA0098201016000000000000
B1600093801887S06008509WA0098601019000000000000
B1600113801892S06008546WA0098801020000000000000
B1600133801913S06008569WA0098901022000000000000
B1600153801938S06008569WA0099301025000000000000
B1600173801956S06008549WA0099501027000000000000
B1600193801960S06008518WA0099601026000000000000
B1600213801948S06008489WA0099501025000000000000
B1600233801922S06008474WA0099501024000000000000
B1600253801892S06008479WA0099501024000000000000
B1600273801868S06008507WA0099701030000000000000
B1600293801860S06008545WA0100301035000000000000
B1600313801866S06008582WA0100701039000000000000
B1600333801887S06008605WA0100901041000000000000
B1600353801912S06008610WA0101301044000000000000
B1600373801931S06008597WA0101501046000000000000
B1600393801943S06008571WA0101601044000000000000
B1600413801938S06008540WA0101501043000000000000
B1600433801920S06008517WA0101301044000000000000
B1600453801894S06008507WA0101401042000000000000
B1600473801865S06008518WA0101301040000000000000
B1600493801842S06008545WA0101101040000000000000
B1600513801834S06008583WA0101101045000000000000
B1600533801839S06008618WA0101701052000000000000
B1600553801855S06008641WA0102301056000000000000
B1600573801875S06008654WA0102401054000000000000
B1600593801899S06008654WA0102101049000000000000
B1601013801918S06008636WA0101601044000000000000
B1601033801927S06008606WA0101401044000000000000
B1601053801927S06008572WA0101601047000000000000
B1601073801927S06008539WA0101801049000000000000
B1601093801937S06008509WA0101901051000000000000
B1601113801951S06008483WA0102201054000000000000
B1601133801970S06008459WA0102201055000000000000
B1601153801987S06008436WA0102101052000000000000
B1601173802002S06008411WA0101901047000000000000
B1601193802017S06008385WA0101301040000000000000
B1601213802033S06008358WA0100601031000000000000
B1601233802048S06008329WA0099701018000000000000
B1601253802067S06008299WA0098501004000000000000
B1601273802090S06008268WA0097100990000000000000
B1601293802116S06008236WA0095800980000000000000
B1601313802142S06008203WA0094800971000000000000
B1601333802168S06008167WA0093800958000000000000
B1601353802194S06008130WA0092800951000000000000
B1601373802221S06008093WA0092300949000000000000
B1601393802247S06008055WA0092100948000000000000
B1601413802271S06008021WA0092200952000000000000
B1601433802293S06007989WA0092600957000000000000
B1601453802314S06007955WA0092800957000000000000
B1601473802336S06007922WA0092800958000000000000
B1601493802358S06007890WA0092900958000000000000
B1601513802384S06007861WA0092800956000000000000
B1601533802415S06007838WA0092700958000000000000
B1601553802447S06007820WA0093000965000000000000
B1601573802477S06007804WA0093900973000000000000
B1601593802505S06007787WA0094500981000000000000
B1602013802531S06007772WA0094900983000000000000
B1602033802557S06007757WA0095200985000000000000
B1602053802583S06007746WA0095300989000000000000
B1602073802610S06007734WA0095500992000000000000
B1602093802637S06007724WA0095800995000000000000
B1602113802662S06007711WA0096200998000000000000
B1602133802675S06007685WA0096501004000000000000
B1602153802668S06007655WA0097101009000000000000
B1602173802644S06007638WA0097501010000000000000
B1602193802613S06007642WA0097701011000000000000
B1602213802585S06007666WA0097901013000000000000
B1602233802575S06007705WA0098001017000000000000
B1602253802581S06007746WA0098401020000000000000
B1602273802602S06007772WA0098701023000000000000
B1602293802627S06007778WA0098901025000000000000
B1602313802646S06007764WA0099101025000000000000
B1602333802652S06007735WA0099101024000000000000
B1602353802641S06007705WA0099101025000000000000
B1602373802616S06007687WA0099301027000000000000
B1602393802587S06007688WA0099601031000000000000
B1602413802561S06007712WA0099901033000000000000
B1602433802550S06007750WA0100101034000000000000
B1602453802559S06007787WA0100201036000000000000
B1602473802583S06007809WA0100401041000000000000
B1602493802609S06007816WA0100801046000000000000
B1602513802631S06007804WA0101201047000000000000
B1602533802646S06007782WA0101301049000000000000
B1602553802658S06007756WA0101401049000000000000
B1602573802668S06007727WA0101301047000000000000
B1602593802680S06007698WA0101301045000000000000
B1603013802694S06007670WA0101001041000000000000
B1603033802710S06007643WA0100601034000000000000
B1603053802730S06007614WA0099801023000000000000
B1603073802752S06007584WA0098701014000000000000
B1603093802776S06007553WA0097901006000000000000
B1603113802802S06007521WA0097200999000000000000
B1603133802828S06007487WA0096400993000000000000
B1603153802858S06007453WA0095900990000000000000
B1603173802886S06007421WA0096201002000000000000
B1603193802909S06007386WA0097301016000000000000
B1603213802930S06007354WA0098301023000000000000
B1603233802952S06007324WA0098701023000000000000
B1603253802975S06007296WA0098301018000000000000
B1603273802997S06007269WA0097801012000000000000
B1603293803019S06007240WA0097301007000000000000
B1603313803043S06007213WA0096801001000000000000
B1603333803068S06007187WA0096300996000000000000
B1603353803095S06007161WA0095900995000000000000
B1603373803125S06007137WA0096501002000000000000
B1603393803156S06007119WA0097801020000000000000
B1603413803179S06007093WA0099301033000000000000
B1603433803179S06007057WA0100401043000000000000
B1603453803155S06007031WA0101501053000000000000
B1603473803121S06007025WA0102401061000000000000
B1603493803091S06007046WA0103501074000000000000
B1603513803078S06007081WA0104601085000000000000
B1603533803084S06007116WA0105201096000000000000
B1603553803104S06007136WA0106101106000000000000
B1603573803130S06007135WA0107001114000000000000
B1603593803147S06007113WA0107801121000000000000
B1604013803147S06007081WA0108801128000000000000
B1604033803127S06007053WA0109101132000000000000
B1604053803096S06007042WA0109601133000000000000
B1604073803065S06007057WA0109801139000000000000
B1604093803048S06007090WA0110401146000000000000
B1604113803052S06007124WA0111001149000000000000
B1604133803073S06007142WA0111301154000000000000
B1604153803097S06007137WA0111801160000000000000
B1604173803112S06007111WA0112401168000000000000
B1604193803105S06007079WA0113101173000000000000
B1604213803081S06007055WA0113701175000000000000
B1604233803045S06007055WA0114001180000000000000
B1604253803021S06007081WA0114601190000000000000
B1604273803017S06007118WA0115401198000000000000
B1604293803032S06007142WA0116101203000000000000
B1604313803057S06007144WA0116601205000000000000
B1604333803073S06007120WA0116901211000000000000
B1604353803069S06007087WA0117401216000000000000
B1604373803044S06007061WA0118001222000000000000
B1604393803010S06007062WA0118601230000000000000
B1604413802988S06007089WA0119301238000000000000
B1604433802986S06007123WA0120001244000000000000
B1604453803004S06007145WA0120501249000000000000
B1604473803027S06007144WA0121001253000000000000
B1604493803043S06007116WA0121301257000000000000
B1604513803036S06007081WA0121701261000000000000
B1604533803009S06007057WA0122301265000000000000
B1604553802973S06007058WA0122601273000000000000
B1604573802943S06007080WA0123301282000000000000
B1604593802931S06007115WA0124301290000000000000
B1605013802943S06007145WA0125101298000000000000
B1605033802967S06007149WA0125801304000000000000
B1605053802986S06007127WA0126401311000000000000
B1605073802984S06007092WA0127001317000000000000
B1605093802960S06007063WA0127601323000000000000
B1605113802927S06007059WA0128201329000000000000
B1605133802900S06007081WA0128801335000000000000
B1605153802892S06007116WA0129401338000000000000
B1605173802904S06007145WA0129901341000000000000
B1605193802927S06007149WA0130101345000000000000
B1605213802945S06007127WA0130501350000000000000
B1605233802944S06007092WA0131001356000000000000
B1605253802921S06007063WA0131501362000000000000
B1605273802887S06007059WA0132001366000000000000
B1605293802861S06007083WA0132401370000000000000
B1605313802849S06007118WA0132901375000000000000
B1605333802856S06007150WA0133201375000000000000
B1605353802875S06007172WA0133401378000000000000
B1605373802900S06007179WA0133801385000000000000
B1605393802919S06007163WA0134501393000000000000
B1605413802926S06007132WA0135201399000000000000
B1605433802913S06007100WA0135801402000000000000
B1605453802882S06007084WA0136101403000000000000
B1605473802849S06007093WA0136101403000000000000
B1605493802828S06007126WA0136101403000000000000
B1605513802830S06007162WA0136101405000000000000
B1605533802847S06007188WA0136201406000000000000
B1605553802873S06007194WA0136401409000000000000
B1605573802896S06007180WA0136601416000000000000
B1605593802912S06007153WA0137301426000000000000
B1606013802910S06007119WA0138401436000000000000
B1606033802889S06007092WA0139301441000000000000
B1606053802858S06007083WA0139601440000000000000
B1606073802827S06007097WA0139701441000000000000
B1606093802809S06007129WA0139801444000000000000
B1606113802810S06007166WA0140201448000000000000
B1606133802826S06007192WA0140601450000000000000
B1606153802850S06007202WA0140701453000000000000
B1606173802875S06007202WA0141001457000000000000
B1606193802893S06007183WA0141401463000000000000
B1606213802896S06007149WA0142001468000000000000
B1606233802879S06007119WA0142101466000000000000
B1606253802847S06007105WA0141901460000000000000
B1606273802813S06007114WA0141501459000000000000
B1606303802782S06007163WA0141601467000000000000
B1606323802784S06007198WA0142201472000000000000
B1606343802801S06007224WA0142601469000000000000
B1606363802826S06007241WA0142201465000000000000
B1606383802854S06007249WA0142001467000000000000
B1606403802882S06007240WA0142101471000000000000
B1606423802896S06007213WA0142601479000000000000
B1606443802895S06007178WA0143201484000000000000
B1606463802874S06007149WA0143701485000000000000
B1606483802843S06007136WA0143801482000000000000
B1606503802809S06007142WA0143701480000000000000
B1606523802784S06007168WA0143701486000000000000
B1606543802776S06007204WA0144101491000000000000
B1606563802785S06007235WA0144501493000000000000
B1606583802809S06007256WA0144301490000000000000
B1607003802836S06007262WA0144201489000000000000
B1607023802862S06007259WA0144201493000000000000
B1607043802879S06007237WA0144801499000000000000
B1607063802879S06007205WA0145201500000000000000
B1607083802862S06007176WA0145201497000000000000
B1607103802832S06007162WA0144901489000000000000
B1607123802800S06007171WA0144201484000000000000
B1607143802778S06007200WA0144001491000000000000
B1607163802774S06007236WA0144701500000000000000
B1607183802785S06007265WA0145301500000000000000
B1607203802805S06007282WA0145201495000000000000
B1607223802828S06007288WA0144901493000000000000
B1607243802850S06007276WA0144501491000000000000
B1607263802861S06007245WA0144301490000000000000
B1607283802852S06007207WA0144301491000000000000
B1607303802827S06007180WA0144201488000000000000
B1607323802795S06007174WA0144101487000000000000
B1607343802766S06007192WA0144101488000000000000
B1607363802750S06007226WA0144101488000000000000
B1607383802754S06007262WA0144101487000000000000
B1607403802769S06007292WA0143901482000000000000
B1607423802792S06007311WA0143401480000000000000
B1607443802817S06007313WA0143301484000000000000
B1607463802836S06007291WA0143701489000000000000
B1607483802843S06007257WA0144201491000000000000
B1607503802843S06007220WA0144301490000000000000
B1607523802830S06007187WA0144201487000000000000
B1607543802801S06007165WA0144001484000000000000
B1607563802766S06007166WA0143801485000000000000
B1607583802741S06007189WA0143801483000000000000
B1608003802735S06007226WA0143601478000000000000
B1608023802746S06007259WA0143101472000000000000
B1608043802767S06007289WA0142701472000000000000
B1608063802791S06007315WA0142901478000000000000
B1608083802818S06007326WA0143401487000000000000
B1608103802843S06007318WA0144201496000000000000
B1608123802860S06007295WA0144901498000000000000
B1608143802857S06007259WA0145001498000000000000
B1608163802836S06007231WA0145001496000000000000
B1608183802802S06007224WA0144901494000000000000
B1608203802771S06007243WA0144801494000000000000
B1608223802756S06007279WA0144901495000000000000
B1608243802761S06007317WA0145001498000000000000
B1608263802775S06007349WA0145301502000000000000
B1608283802797S06007367WA0145401504000000000000
B1608303802823S06007365WA0145601506000000000000
B1608323802839S06007337WA0145901507000000000000
B1608343802831S06007302WA0146001507000000000000
B1608363802802S06007279WA0146001507000000000000
B1608383802767S06007280WA0146001507000000000000
B1608403802739S06007304WA0146101508000000000000
B1608423802723S06007340WA0146201508000000000000
B1608443802719S06007382WA0146301512000000000000
B1608463802722S06007419WA0146501519000000000000
B1608483802735S06007451WA0147201524000000000000
B1608503802759S06007464WA0147701528000000000000
B1608523802785S06007457WA0148001531000000000000
B1608543802809S06007436WA0148301536000000000000
B1608563802818S06007405WA0149001542000000000000
B1608583802806S06007371WA0149401545000000000000
B1609003802780S06007349WA0149701545000000000000
B1609023802746S06007345WA0149701544000000000000
B1609043802717S06007363WA0149801544000000000000
B1609063802698S06007396WA0149901547000000000000
B1609083802689S06007434WA0150001548000000000000
B1609103802689S06007471WA0150101551000000000000
B1609123802701S06007503WA0150401557000000000000
B1609143802723S06007521WA0151001563000000000000
B1609163802748S06007523WA0151601569000000000000
B1609183802769S06007508WA0152101573000000000000
B1609203802779S06007478WA0152501578000000000000
B1609223802774S06007444WA0153001581000000000000
B1609243802753S06007418WA0153301582000000000000
B1609263802722S06007406WA0153301582000000000000
B1609283802689S06007417WA0153101579000000000000
B1609303802666S06007448WA0152901579000000000000
B1609323802662S06007487WA0153001581000000000000
B1609343802678S06007518WA0153301586000000000000
B1609363802702S06007538WA0153701591000000000000
B1609383802728S06007544WA0154201596000000000000
B1609403802752S06007526WA0154701603000000000000
B1609423802758S06007493WA0155301608000000000000
B1609443802748S06007460WA0155801610000000000000
B1609463802719S06007440WA0156001611000000000000
B1609483802685S06007444WA0156001610000000000000
B1609503802658S06007469WA0156001610000000000000
B1609523802646S06007506WA0156101613000000000000
B1609543802653S06007544WA0156501618000000000000
B1609563802668S06007577WA0156801622000000000000
B1609583802691S06007599WA0157101623000000000000
B1610003802715S06007596WA0157301626000000000000
B1610023802731S06007570WA0157601628000000000000
B1610043802727S06007535WA0157801630000000000000
B1610063802705S06007509WA0157901631000000000000
B1610083802671S06007504WA0158001631000000000000
B1610103802640S06007523WA0158001633000000000000
B1610123802620S06007557WA0158401640000000000000
B1610143802615S06007597WA0159101646000000000000
B1610163802623S06007634WA0159501646000000000000
B1610183802639S06007664WA0159401642000000000000
B1610203802665S06007670WA0159101641000000000000
B1610223802684S06007649WA0159001642000000000000
B1610243802687S06007614WA0159201646000000000000
B1610263802670S06007582WA0159501649000000000000
B1610283802640S06007565WA0159901652000000000000
B1610303802607S06007574WA0160401655000000000000
B1610323802585S06007607WA0160701659000000000000
B1610343802581S06007647WA0160901660000000000000
B1610363802596S06007678WA0160801659000000000000
B1610383802622S06007692WA0160801660000000000000
B1610403802650S06007698WA0160701659000000000000
B1610423802679S06007698WA0160601658000000000000
B1610443802707S06007690WA0160701661000000000000
B1610463802736S06007681WA0160801660000000000000
B1610483802765S06007670WA0160601657000000000000
B1610503802795S06007659WA0160401654000000000000
B1610523802824S06007648WA0160001649000000000000
B1610543802856S06007638WA0159501646000000000000
B1610563802887S06007630WA0159401645000000000000
B1610583802919S06007622WA0159201641000000000000
B1611003802951S06007614WA0158701636000000000000
B1611023802983S06007605WA0158101628000000000000
B1611043803017S06007597WA0157301620000000000000
B1611063803051S06007590WA0156601615000000000000
B1611083803087S06007584WA0156301612000000000000
B1611103803123S06007578WA0156201613000000000000
B1611123803161S06007574WA0156401618000000000000
B1611143803196S06007571WA0157101627000000000000
B1611163803230S06007573WA0157901635000000000000
B1611183803263S06007574WA0158501641000000000000
B1611203803294S06007575WA0158801642000000000000
B1611223803325S06007574WA0158801639000000000000
B1611243803356S06007568WA0158701639000000000000
B1611263803386S06007560WA0158701639000000000000
B1611283803416S06007552WA0158601635000000000000
B1611303803447S06007547WA0158201629000000000000
B1611323803478S06007539WA0157701622000000000000
B1611343803508S06007526WA0157201617000000000000
B1611363803538S06007509WA0156701613000000000000
B1611383803571S06007493WA0156301609000000000000
B1611403803604S06007486WA0155901603000000000000
B1611423803641S06007487WA0155301597000000000000
B1611443803677S06007493WA0154701593000000000000
B1611463803715S06007497WA0154301587000000000000
B1611483803754S06007500WA0153601580000000000000
B1611503803794S06007501WA0153001577000000000000
B1611523803833S06007501WA0152701576000000000000
B1611543803872S06007497WA0152701575000000000000
B1611563803911S06007496WA0152401571000000000000
B1611583803950S06007492WA0152001568000000000000
B1612003803988S06007487WA0151901565000000000000
B1612023804027S06007482WA0151601564000000000000
B1612043804065S06007478WA0151601565000000000000
B1612063804101S06007473WA0151601565000000000000
B1612083804137S06007470WA0151601563000000000000
B1612103804174S06007467WA0151401559000000000000
B1612123804213S06007469WA0150901555000000000000
B1612143804251S06007473WA0150601551000000000000
B1612163804290S06007477WA0150101544000000000000
B1612183804330S06007480WA0149401536000000000000
B1612203804369S06007484WA0148701531000000000000
B1612223804408S06007488WA0148301530000000000000
B1612243804447S06007491WA0148201530000000000000
B1612263804483S06007492WA0148101529000000000000
B1612283804518S06007495WA0148001525000000000000
B1612303804555S06007497WA0147501521000000000000
B1612323804590S06007501WA0147301514000000000000
B1612343804628S06007505WA0146601504000000000000
B1612363804665S06007510WA0145701496000000000000
B1612383804704S06007516WA0145001488000000000000
B1612403804743S06007522WA0144201482000000000000
B1612423804785S06007529WA0143501475000000000000
B1612443804825S06007536WA0142801469000000000000
B1612463804867S06007544WA0142401466000000000000
B1612483804908S06007552WA0142201466000000000000
B1612503804949S06007560WA0142201466000000000000
B1612523804989S06007565WA0142201466000000000000
B1612543805028S06007571WA0142401470000000000000
B1612563805066S06007575WA0142701475000000000000
B1612583805101S06007579WA0143101479000000000000
B1613003805135S06007583WA0143301478000000000000
B1613023805168S06007587WA0143201478000000000000
B1613043805200S06007592WA0143001474000000000000
B1613063805232S06007597WA0142701469000000000000
B1613083805265S06007601WA0142301465000000000000
B1613103805298S06007605WA0141701460000000000000
B1613123805332S06007608WA0141201455000000000000
B1613143805366S06007612WA0140701448000000000000
B1613163805401S06007616WA0140001440000000000000
B1613183805436S06007620WA0139101429000000000000
B1613203805474S06007625WA0137801412000000000000
B1613223805513S06007626WA0136401398000000000000
B1613243805553S06007629WA0135201389000000000000
B1613263805595S06007631WA0134401384000000000000
B1613283805635S06007635WA0134001381000000000000
B1613303805675S06007639WA0133601378000000000000
B1613323805716S06007643WA0133401375000000000000
B1613343805753S06007647WA0133401377000000000000
B1613363805791S06007651WA0133601380000000000000
B1613383805825S06007655WA0133701380000000000000
B1613403805859S06007659WA0133501377000000000000
B1613423805892S06007664WA0133101374000000000000
B1613443805925S06007669WA0133001369000000000000
B1613463805959S06007674WA0132401362000000000000
B1613483805994S06007681WA0131801358000000000000
B1613503806029S06007685WA0131301350000000000000
B1613523806065S06007688WA0130701346000000000000
B1613543806102S06007692WA0130401346000000000000
B1613563806138S06007698WA0130101343000000000000
B1613583806176S06007701WA0129801338000000000000
B1614003806214S06007705WA0129401332000000000000
B1614023806251S06007709WA0128901330000000000000
B1614043806290S06007714WA0128701330000000000000
B1614063806329S06007720WA0128801331000000000000
B1614083806368S06007730WA0128801332000000000000
B1614103806407S06007744WA0129001337000000000000
B1614123806445S06007759WA0129601346000000000000
B1614143806480S06007776WA0130501358000000000000
B1614163806513S06007794WA0131501367000000000000
B1614183806545S06007811WA0132301375000000000000
B1614203806576S06007817WA0133101385000000000000
B1614223806604S06007804WA0134001394000000000000
B1614243806619S06007778WA0135001401000000000000
B1614263806620S06007743WA0135601404000000000000
B1614283806607S06007709WA0135901406000000000000
B1614303806584S06007686WA0136201410000000000000
B1614323806552S06007682WA0136601413000000000000
B1614343806522S06007701WA0137001415000000000000
B1614363806503S06007739WA0137201420000000000000
B1614383806501S06007782WA0137701424000000000000
B1614403806506S06007824WA0138101428000000000000
B1614423806520S06007859WA0138301429000000000000
B1614443806546S06007872WA0138401430000000000000
B1614463806570S06007856WA0138501431000000000000
B1614483806574S06007822WA0138601432000000000000
B1614503806554S06007791WA0138801433000000000000
B1614523806520S06007786WA0139101436000000000000
B1614543806490S06007807WA0139401438000000000000
B1614563806472S06007844WA0139401439000000000000
B1614583806464S06007885WA0139701443000000000000
B1615003806474S06007922WA0139901444000000000000
B1615023806496S06007946WA0140101446000000000000
B1615043806523S06007947WA0140201449000000000000
B1615063806544S06007928WA0140401450000000000000
B1615083806550S06007894WA0140501452000000000000
B1615103806539S06007861WA0140701454000000000000
B1615123806511S06007842WA0141001456000000000000
B1615143806479S06007843WA0141201458000000000000
B1615163806450S06007865WA0141301457000000000000
B1615183806433S06007900WA0141501459000000000000
B1615203806427S06007942WA0141601463000000000000
B1615223806427S06007982WA0141901466000000000000
B1615243806440S06008016WA0142201470000000000000
B1615263806462S06008036WA0142601474000000000000
B1615283806485S06008036WA0142901476000000000000
B1615303806505S06008019WA0143001475000000000000
B1615323806516S06007991WA0142701471000000000000
B1615343806522S06007960WA0142501468000000000000
B1615363806524S06007926WA0142101466000000000000
B1615383806527S06007890WA0141901464000000000000
B1615403806528S06007852WA0141801463000000000000
B1615423806527S06007815WA0141801465000000000000
B1615443806524S06007777WA0141801466000000000000
B1615463806522S06007740WA0142101467000000000000
B1615483806518S06007704WA0142101467000000000000
B1615503806513S06007669WA0142201469000000000000
B1615523806505S06007634WA0142301470000000000000
B1615543806497S06007599WA0142301468000000000000
B1615563806489S06007561WA0142301465000000000000
B1615583806484S06007519WA0142001465000000000000
B1616003806481S06007478WA0142101469000000000000
B1616023806480S06007438WA0142301471000000000000
B1616043806480S06007397WA0142501472000000000000
B1616063806480S06007357WA0142501473000000000000
B1616083806480S06007317WA0142701473000000000000
B1616103806481S06007276WA0142701472000000000000
B1616123806484S06007235WA0142501470000000000000
B1616143806487S06007194WA0142301468000000000000
B1616163806490S06007152WA0142101459000000000000
B1616183806494S06007106WA0141101444000000000000
B1616203806500S06007055WA0139901434000000000000
B1616223806503S06007002WA0139001428000000000000
B1616243806509S06006947WA0138401421000000000000
B1616263806513S06006894WA0137801417000000000000
B1616283806516S06006841WA0137501417000000000000
B1616303806519S06006790WA0137201415000000000000
B1616323806519S06006741WA0136901411000000000000
B1616343806506S06006695WA0136401406000000000000
B1616363806484S06006652WA0135801397000000000000
B1616383806461S06006611WA0135001388000000000000
B1616403806437S06006567WA0134201381000000000000
B1616423806415S06006524WA0133701378000000000000
B1616443806393S06006479WA0133601377000000000000
B1616463806372S06006437WA0133501379000000000000
B1616483806353S06006392WA0133701381000000000000
B1616503806336S06006348WA0133801381000000000000
B1616523806321S06006301WA0133801381000000000000
B1616543806312S06006253WA0133801381000000000000
B1616563806308S06006206WA0133801381000000000000
B1616583806306S06006158WA0133701380000000000000
B1617003806305S06006112WA0133801382000000000000
B1617023806306S06006065WA0133901384000000000000
B1617043806306S06006018WA0134101385000000000000
B1617063806307S06005972WA0134201388000000000000
B1617083806308S06005927WA0134601394000000000000
B1617103806315S06005884WA0135301404000000000000
B1617123806325S06005845WA0136201415000000000000
B1617143806341S06005809WA0137201425000000000000
B1617163806357S06005775WA0137801428000000000000
B1617183806373S06005741WA0138101430000000000000
B1617203806392S06005709WA0138401434000000000000
B1617223806405S06005672WA0138801439000000000000
B1617243806399S06005634WA0139601450000000000000
B1617263806377S06005607WA0140601458000000000000
B1617283806346S06005597WA0141101459000000000000
B1617303806312S06005603WA0141401459000000000000
B1617323806280S06005619WA0141501463000000000000
B1617343806254S06005645WA0142001470000000000000
B1617363806246S06005683WA0142701478000000000000
B1617383806260S06005716WA0143501483000000000000
B1617403806284S06005741WA0144001489000000000000
B1617423806311S06005749WA0144501496000000000000
B1617443806332S06005731WA0145101499000000000000
B1617463806334S06005696WA0145201498000000000000
B1617483806314S06005668WA0145301498000000000000
B1617503806280S06005664WA0145301498000000000000
B1617523806251S06005689WA0145501503000000000000
B1617543806245S06005731WA0146101511000000000000
B1617563806255S06005771WA0146901521000000000000
B1617583806275S06005802WA0147701528000000000000
B1618003806302S06005809WA0148501535000000000000
B1618023806320S06005787WA0149201541000000000000
B1618043806320S06005753WA0149501543000000000000
B1618063806301S06005725WA0149601543000000000000
B1618083806271S06005719WA0149501541000000000000
B1618103806242S06005740WA0149501539000000000000
B1618123806234S06005781WA0149401538000000000000
B1618143806245S06005820WA0149601546000000000000
B1618163806260S06005854WA0150101553000000000000
B1618183806284S06005876WA0150301556000000000000
B1618203806310S06005874WA0150801560000000000000
B1618223806327S06005850WA0151201567000000000000
B1618243806327S06005818WA0151901570000000000000
B1618263806308S06005790WA0152201570000000000000
B1618283806277S06005784WA0152401570000000000000
B1618303806250S06005803WA0152501572000000000000
B1618323806236S06005839WA0152601576000000000000
B1618343806241S06005876WA0152901581000000000000
B1618363806258S06005902WA0153401585000000000000
B1618383806279S06005923WA0153801587000000000000
B1618403806302S06005931WA0153901589000000000000
B1618423806324S06005919WA0154101592000000000000
B1618443806333S06005892WA0154301593000000000000
B1618463806327S06005861WA0154501593000000000000
B1618483806305S06005837WA0154501591000000000000
B1618503806273S06005831WA0154301590000000000000
B1618523806241S06005845WA0154301592000000000000
B1618543806219S06005876WA0154701600000000000000
B1618563806210S06005911WA0155401608000000000000
B1618583806211S06005945WA0156101613000000000000
B1619003806225S06005972WA0156401613000000000000
B1619023806247S06005987WA0156301612000000000000
B1619043806272S06005985WA0156301615000000000000
B1619063806293S06005971WA0156701619000000000000
B1619083806307S06005946WA0157101621000000000000
B1619103806308S06005915WA0157301624000000000000
B1619123806297S06005885WA0157401624000000000000
B1619143806273S06005865WA0157401622000000000000
B1619163806242S06005857WA0157101617000000000000
B1619183806210S06005868WA0156901617000000000000
B1619203806184S06005897WA0157001624000000000000
B1619223806172S06005932WA0157501632000000000000
B1619243806173S06005969WA0158301636000000000000
B1619263806189S06005996WA0158601637000000000000
B1619283806211S06006009WA0158701638000000000000
B1619303806234S06006004WA0158801642000000000000
B1619323806251S06005983WA0159301648000000000000
B1619343806258S06005957WA0159801651000000000000
B1619363806254S06005928WA0159901645000000000000
B1619383806237S06005900WA0159301638000000000000
B1619403806208S06005881WA0158801636000000000000
B1619423806176S06005880WA0158701637000000000000
B1619443806145S06005898WA0158801636000000000000
B1619463806126S06005933WA0158901638000000000000
B1619483806126S06005974WA0159201644000000000000
B1619503806143S06006004WA0159601648000000000000
B1619523806168S06006013WA0160001652000000000000
B1619543806193S06006004WA0160201654000000000000
B1619563806216S06005988WA0160401654000000000000
B1619583806236S06005965WA0160401653000000000000
B1620003806243S06005933WA0160401655000000000000
B1620023806234S06005901WA0160501657000000000000
B1620043806210S06005879WA0160701658000000000000
B1620063806177S06005874WA0160801657000000000000
B1620083806149S06005892WA0160701654000000000000
B1620103806132S06005927WA0160301649000000000000
B1620123806132S06005966WA0159901644000000000000
B1620143806147S06005998WA0159401640000000000000
B1620163806171S06006017WA0159001637000000000000
B1620183806197S06006014WA0159001639000000000000
B1620203806220S06006000WA0159101638000000000000
B1620223806242S06005983WA0158901637000000000000
B1620243806260S06005959WA0158801637000000000000
B1620263806272S06005931WA0158901640000000000000
B1620283806277S06005900WA0159201642000000000000
B1620303806272S06005868WA0159201640000000000000
B1620323806259S06005839WA0158901636000000000000
B1620343806241S06005811WA0158601632000000000000
B1620363806216S06005790WA0158001627000000000000
B1620383806185S06005788WA0157801620000000000000
B1620403806155S06005810WA0157101609000000000000
B1620423806137S06005850WA0156201602000000000000
B1620443806130S06005896WA0155701601000000000000
B1620463806129S06005941WA0155501599000000000000
B1620483806130S06005987WA0155001591000000000000
B1620503806130S06006036WA0154301582000000000000
B1620523806128S06006089WA0153401573000000000000
B1620543806121S06006144WA0152801570000000000000
B1620563806112S06006200WA0152501571000000000000
B1620583806100S06006255WA0152701573000000000000
B1621003806090S06006309WA0152801575000000000000
B1621023806080S06006365WA0153001577000000000000
B1621043806069S06006418WA0153501586000000000000
B1621063806059S06006472WA0154301597000000000000
B1621083806047S06006522WA0155101603000000000000
B1621103806034S06006573WA0155701609000000000000
B1621123806021S06006624WA0156501620000000000000
B1621143806017S06006669WA0157701637000000000000
B1621163806034S06006700WA0159001650000000000000
B1621183806058S06006704WA0160101657000000000000
B1621203806074S06006685WA0160801660000000000000
B1621223806071S06006652WA0161001662000000000000
B1621243806045S06006628WA0161201664000000000000
B1621263806008S06006629WA0161601668000000000000
B1621283805980S06006655WA0162001675000000000000
B1621303805968S06006695WA0162601680000000000000
B1621323805977S06006732WA0163201683000000000000
B1621343805999S06006751WA0163501684000000000000
B1621363806022S06006739WA0163601689000000000000
B1621383806029S06006708WA0164301698000000000000
B1621403806013S06006678WA0165101706000000000000
B1621423805982S06006664WA0165701712000000000000
B1621443805948S06006673WA0166101714000000000000
B1621463805924S06006704WA0166501717000000000000
B1621483805917S06006745WA0166801719000000000000
B1621503805930S06006777WA0166901722000000000000
B1621523805955S06006788WA0167201724000000000000
B1621543805976S06006773WA0167601730000000000000
B1621563805981S06006743WA0168201738000000000000
B1621583805969S06006712WA0169001745000000000000
B1622003805944S06006690WA0169501750000000000000
B1622023805912S06006685WA0170101754000000000000
B1622043805878S06006697WA0170501759000000000000
B1622063805855S06006726WA0171201767000000000000
B1622083805846S06006765WA0171501774000000000000
B1622103805851S06006801WA0172101776000000000000
B1622123805869S06006823WA0172301772000000000000
B1622143805894S06006824WA0172101773000000000000
B1622163805909S06006803WA0172101777000000000000
B1622183805909S06006769WA0172601782000000000000
B1622203805890S06006739WA0173001786000000000000
B1622223805859S06006725WA0173401791000000000000
B1622243805824S06006730WA0173801798000000000000
B1622263805795S06006755WA0174601805000000000000
B1622283805779S06006793WA0175301811000000000000
B1622303805781S06006832WA0175901816000000000000
B1622323805798S06006860WA0176301820000000000000
B1622343805822S06006869WA0176801826000000000000
B1622363805843S06006859WA0177301831000000000000
B1622383805851S06006830WA0177701834000000000000
B1622403805844S06006797WA0178001836000000000000
B1622423805820S06006772WA0178201839000000000000
B1622443805785S06006763WA0178501843000000000000
B1622463805749S06006776WA0179001849000000000000
B1622483805722S06006807WA0179601855000000000000
B1622503805712S06006849WA0180201860000000000000
B1622523805721S06006884WA0180401862000000000000
B1622543805744S06006902WA0180901867000000000000
B1622563805769S06006897WA0181101873000000000000
B1622583805783S06006872WA0182001878000000000000
B1623003805778S06006838WA0182201881000000000000
B1623023805757S06006810WA0182601885000000000000
B1623043805723S06006799WA0183001890000000000000
B1623063805688S06006812WA0183401893000000000000
B1623083805665S06006847WA0184001897000000000000
B1623103805657S06006890WA0184201902000000000000
B1623123805665S06006927WA0184601905000000000000
B1623143805688S06006946WA0185001907000000000000
B1623163805712S06006937WA0185201909000000000000
B1623183805721S06006908WA0185401913000000000000
B1623203805710S06006875WA0185801918000000000000
B1623223805684S06006851WA0186201922000000000000
B1623243805649S06006850WA0186701927000000000000
B1623263805617S06006872WA0187101931000000000000
B1623283805599S06006911WA0187501934000000000000
B1623303805597S06006951WA0187801936000000000000
B1623323805613S06006981WA0188001936000000000000
B1623343805638S06006989WA0188101939000000000000
B1623363805660S06006975WA0188401944000000000000
B1623383805668S06006945WA0189001951000000000000
B1623403805658S06006912WA0189501955000000000000
B1623423805634S06006890WA0189901959000000000000
B1623443805601S06006886WA0190301963000000000000
B1623463805569S06006898WA0190601965000000000000
B1623483805543S06006925WA0190801967000000000000
B1623503805530S06006964WA0190801967000000000000
B1623523805532S06007003WA0191001969000000000000
B1623543805549S06007028WA0191301968000000000000
B1623563805574S06007032WA0191201967000000000000
B1623583805593S06007014WA0191201968000000000000
B1624003805596S06006980WA0191301971000000000000
B1624023805582S06006947WA0191301972000000000000
B1624043805551S06006927WA0191601976000000000000
B1624063805514S06006925WA0192001981000000000000
B1624083805480S06006945WA0192501986000000000000
B1624103805458S06006981WA0193001990000000000000
B1624123805454S06007023WA0193201990000000000000
B1624143805465S06007061WA0193101985000000000000
B1624163805484S06007090WA0192701982000000000000
B1624183805510S06007103WA0192601986000000000000
B1624203805534S06007096WA0193101988000000000000
B1624223805548S06007068WA0193301988000000000000
B1624243805540S06007032WA0193101988000000000000
B1624263805513S06007005WA0193301991000000000000
B1624283805476S06007002WA0193501995000000000000
B1624303805444S06007020WA0194102000000000000000
B1624323805421S06007054WA0194602003000000000000
B1624343805404S06007094WA0194502000000000000000
B1624363805387S06007136WA0193601988000000000000
B1624383805371S06007183WA0192301973000000000000
B1624403805356S06007233WA0191001959000000000000
B1624423805339S06007288WA0189701947000000000000
B1624443805320S06007344WA0188701940000000000000
B1624463805304S06007400WA0188101934000000000000
B1624483805285S06007456WA0187701927000000000000
B1624503805268S06007514WA0187201922000000000000
B1624523805252S06007573WA0186701920000000000000
B1624543805236S06007633WA0186401917000000000000
B1624563805219S06007692WA0185901911000000000000
B1624583805202S06007751WA0185501909000000000000
B1625003805185S06007808WA0185301906000000000000
B1625023805170S06007865WA0185201902000000000000
B1625043805153S06007924WA0184601894000000000000
B1625063805136S06007982WA0183801888000000000000
B1625083805116S06008039WA0183301884000000000000
B1625103805092S06008094WA0182901882000000000000
B1625123805064S06008146WA0182701879000000000000
B1625143805033S06008197WA0182501875000000000000
B1625163805002S06008245WA0182001870000000000000
B1625183804967S06008292WA0181601868000000000000
B1625203804933S06008337WA0181501867000000000000
B1625223804901S06008384WA0181401864000000000000
B1625243804868S06008429WA0180901860000000000000
B1625263804834S06008476WA0180601853000000000000
B1625283804802S06008526WA0180001845000000000000
B1625303804767S06008574WA0179401844000000000000
B1625323804729S06008617WA0179301847000000000000
B1625343804693S06008657WA0179501846000000000000
B1625363804655S06008697WA0179301840000000000000
B1625383804617S06008738WA0178501835000000000000
B1625403804579S06008777WA0178001830000000000000
B1625423804540S06008814WA0177301823000000000000
B1625443804501S06008851WA0176601813000000000000
B1625463804460S06008887WA0175801804000000000000
B1625483804416S06008917WA0174801794000000000000
B1625503804368S06008943WA0173701782000000000000
B1625523804317S06008965WA0172701774000000000000
B1625543804264S06008982WA0172001768000000000000
B1625563804209S06008998WA0171801767000000000000
B1625583804157S06009012WA0171801768000000000000
B1626003804108S06009025WA0171801769000000000000
B1626023804059S06009035WA0171701768000000000000
B1626043804013S06009042WA0171601766000000000000
B1626063803966S06009046WA0171501762000000000000
B1626083803919S06009051WA0170901754000000000000
B1626103803871S06009053WA0170501751000000000000
B1626123803823S06009056WA0170101750000000000000
B1626143803776S06009061WA0169901749000000000000
B1626163803729S06009068WA0169901749000000000000
B1626183803684S06009074WA0169901747000000000000
B1626203803638S06009081WA0169501742000000000000
B1626223803591S06009087WA0169001735000000000000
B1626243803545S06009095WA0168301728000000000000
B1626263803497S06009103WA0167501722000000000000
B1626283803448S06009109WA0166901718000000000000
B1626303803399S06009117WA0166601715000000000000
B1626323803352S06009128WA0166601718000000000000
B1626343803307S06009142WA0167101725000000000000
B1626363803268S06009163WA0167801732000000000000
B1626383803233S06009189WA0168301736000000000000
B1626403803208S06009226WA0168401736000000000000
B1626423803198S06009271WA0168401736000000000000
B1626443803201S06009316WA0168501737000000000000
B1626463803216S06009358WA0168501734000000000000
B1626483803237S06009397WA0168301729000000000000
B1626503803260S06009432WA0167601725000000000000
B1626523803287S06009466WA0167201724000000000000
B1626543803316S06009497WA0167101723000000000000
B1626563803344S06009525WA0167201725000000000000
B1626583803377S06009549WA0167301726000000000000
B1627003803409S06009564WA0167401726000000000000
B1627023803442S06009575WA0167301725000000000000
B1627043803474S06009576WA0167301724000000000000
B1627063803506S06009567WA0167101721000000000000
B1627083803537S06009555WA0166901718000000000000
B1627103803565S06009537WA0166501711000000000000
B1627123803590S06009506WA0166001707000000000000
B1627143803612S06009466WA0165501704000000000000
B1627163803630S06009421WA0165401705000000000000
B1627183803642S06009373WA0165501705000000000000
B1627203803654S06009326WA0165401703000000000000
B1627223803663S06009280WA0164901697000000000000
B1627243803669S06009230WA0164201688000000000000
B1627263803672S06009178WA0163301679000000000000
B1627283803676S06009125WA0163001670000000000000
B1627303803686S06009072WA0162201663000000000000
B1627323803701S06009020WA0161601659000000000000
B1627343803719S06008970WA0161101655000000000000
B1627363803738S06008922WA0160801654000000000000
B1627383803758S06008877WA0160801655000000000000
B1627403803777S06008832WA0160601653000000000000
B1627423803796S06008788WA0160201644000000000000
B1627443803814S06008741WA0159401634000000000000
B1627463803832S06008695WA0158401626000000000000
B1627483803851S06008647WA0157901627000000000000
B1627503803868S06008598WA0158201634000000000000
B1627523803881S06008550WA0159001641000000000000
B1627543803889S06008502WA0159301642000000000000
B1627563803894S06008453WA0159501645000000000000
B1627583803896S06008403WA0159701646000000000000
B1628003803894S06008354WA0159801646000000000000
B1628023803889S06008303WA0159601645000000000000
B1628043803881S06008253WA0159701647000000000000
B1628063803874S06008205WA0159801649000000000000
B1628083803864S06008156WA0159901645000000000000
B1628103803854S06008107WA0159501639000000000000
B1628123803844S06008058WA0159001635000000000000
B1628143803833S06008008WA0158701634000000000000
B1628163803824S06007959WA0158401630000000000000
B1628183803815S06007911WA0158001623000000000000
B1628203803814S06007863WA0157701622000000000000
B1628223803824S06007820WA0157501622000000000000
B1628243803838S06007778WA0157101616000000000000
B1628263803849S06007735WA0156601609000000000000
B1628283803858S06007690WA0155801601000000000000
B1628303803864S06007642WA0155201594000000000000
B1628323803870S06007592WA0154601587000000000000
B1628343803876S06007543WA0153801579000000000000
B1628363803883S06007492WA0153101574000000000000
B1628383803888S06007443WA0152601570000000000000
B1628403803892S06007392WA0152201566000000000000
B1628423803896S06007343WA0152101565000000000000
B1628443803900S06007292WA0152001566000000000000
B1628463803905S06007244WA0152001566000000000000
B1628483803913S06007194WA0152001566000000000000
B1628503803922S06007146WA0152101567000000000000
B1628523803940S06007103WA0152201568000000000000
B1628543803970S06007071WA0152201568000000000000
B1628563804007S06007049WA0152101568000000000000
B1628583804048S06007033WA0152101567000000000000
B1629003804091S06007023WA0151901566000000000000
B1629023804135S06007015WA0151701565000000000000
B1629043804178S06007010WA0151701565000000000000
B1629063804221S06007005WA0151801565000000000000
B1629083804262S06006999WA0151401559000000000000
B1629103804305S06006998WA0150801551000000000000
B1629123804348S06006999WA0150101544000000000000
B1629143804391S06007003WA0149401536000000000000
B1629163804435S06007009WA0148701529000000000000
B1629183804481S06007014WA0148301526000000000000
B1629203804526S06007019WA0148101524000000000000
B1629223804573S06007025WA0147801525000000000000
B1629243804617S06007032WA0148101534000000000000
B1629263804660S06007037WA0149001548000000000000
B1629283804699S06007045WA0150401560000000000000
B1629303804737S06007051WA0151301565000000000000
B1629323804772S06007050WA0151701566000000000000
B1629343804803S06007033WA0152001574000000000000
B1629363804821S06007002WA0152801585000000000000
B1629383804828S06006967WA0153701593000000000000
B1629403804824S06006932WA0154301595000000000000
B1629423804811S06006897WA0154601597000000000000
B1629443804793S06006864WA0154701598000000000000
B1629463804771S06006837WA0154801597000000000000
B1629483804743S06006815WA0154901598000000000000
B1629503804711S06006804WA0155101602000000000000
B1629523804677S06006799WA0155601608000000000000
B1629543804643S06006803WA0156101612000000000000
B1629563804612S06006823WA0156501616000000000000
B1629583804587S06006858WA0157001619000000000000
B1630003804573S06006899WA0157401623000000000000
B1630023804572S06006944WA0157901629000000000000
B1630043804590S06006977WA0158001635000000000000
B1630063804617S06006992WA0158701639000000000000
B1630083804646S06006989WA0159101644000000000000
B1630103804669S06006968WA0159401649000000000000
B1630123804677S06006934WA0159901650000000000000
B1630143804667S06006899WA0160001650000000000000
B1630163804641S06006876WA0160101653000000000000
B1630183804605S06006875WA0160401659000000000000
B1630203804572S06006888WA0161001664000000000000
B1630223804542S06006910WA0161401667000000000000
B1630243804522S06006947WA0161801670000000000000
B1630263804525S06006989WA0162201673000000000000
B1630283804546S06007015WA0162501675000000000000
B1630303804573S06007014WA0162601679000000000000
B1630323804590S06006989WA0163001684000000000000
B1630343804586S06006957WA0163401688000000000000
B1630363804563S06006932WA0164001695000000000000
B1630383804533S06006923WA0164601700000000000000
B1630403804501S06006925WA0164901699000000000000
B1630423804474S06006949WA0164901697000000000000
B1630443804462S06006986WA0164801698000000000000
B1630463804470S06007024WA0164901699000000000000
B1630483804492S06007046WA0165001700000000000000
B1630503804520S06007046WA0165101704000000000000
B1630523804543S06007032WA0165601711000000000000
B1630543804563S06007012WA0166201719000000000000
B1630563804573S06006983WA0167001725000000000000
B1630583804572S06006949WA0167501728000000000000
B1631003804555S06006918WA0168001734000000000000
B1631023804527S06006899WA0168301740000000000000
B1631043804495S06006902WA0168801744000000000000
B1631063804468S06006924WA0169201745000000000000
B1631083804455S06006962WA0169501746000000000000
B1631103804461S06006998WA0169601746000000000000
B1631123804485S06007018WA0169701751000000000000
B1631143804509S06007012WA0170101756000000000000
B1631163804526S06006988WA0170501760000000000000
B1631183804537S06006957WA0171101765000000000000
B1631203804531S06006923WA0171401767000000000000
B1631223804505S06006899WA0171701770000000000000
B1631243804472S06006902WA0172001771000000000000
B1631263804448S06006932WA0172101773000000000000
B1631283804444S06006972WA0172201772000000000000
B1631303804461S06007003WA0172101770000000000000
B1631323804488S06007009WA0172101771000000000000
B1631343804513S06006988WA0172401778000000000000
B1631363804527S06006958WA0172701785000000000000
B1631383804526S06006921WA0173301789000000000000
B1631403804505S06006892WA0173801790000000000000
B1631423804474S06006881WA0173901794000000000000
B1631443804443S06006893WA0174401800000000000000
B1631463804422S06006921WA0174801804000000000000
B1631483804417S06006958WA0175201806000000000000
B1631503804429S06006989WA0175201803000000000000
B1631523804451S06007005WA0174901799000000000000
B1631543804475S06006997WA0174501797000000000000
B1631563804488S06006970WA0174701801000000000000
B1631583804481S06006937WA0174901804000000000000
B1632003804461S06006910WA0175201806000000000000
B1632023804440S06006884WA0175401808000000000000
B1632043804416S06006859WA0175401810000000000000
B1632063804387S06006838WA0175701812000000000000
B1632083804357S06006821WA0176001812000000000000
B1632103804325S06006812WA0176001810000000000000
B1632123804293S06006820WA0175801807000000000000
B1632143804267S06006843WA0175501804000000000000
B1632163804254S06006880WA0175301804000000000000
B1632183804251S06006919WA0175301801000000000000
B1632203804256S06006959WA0175001794000000000000
B1632223804267S06007001WA0174201784000000000000
B1632243804286S06007045WA0173301778000000000000
B1632263804305S06007088WA0172801777000000000000
B1632283804325S06007131WA0172801780000000000000
B1632303804345S06007174WA0173201784000000000000
B1632323804365S06007214WA0173701788000000000000
B1632343804386S06007256WA0174101795000000000000
B1632363804405S06007296WA0174601798000000000000
B1632383804426S06007335WA0174801799000000000000
B1632403804447S06007371WA0175001802000000000000
B1632423804469S06007404WA0175701814000000000000
B1632443804488S06007434WA0176801825000000000000
B1632463804508S06007461WA0177501830000000000000
B1632483804529S06007482WA0177901832000000000000
B1632503804555S06007490WA0178001836000000000000
B1632523804578S06007479WA0178401839000000000000
B1632543804596S06007456WA0178501839000000000000
B1632563804603S06007423WA0178601841000000000000
B1632583804598S06007389WA0178901842000000000000
B1633003804578S06007362WA0179001842000000000000
B1633023804548S06007348WA0179001842000000000000
B1633043804516S06007354WA0179001844000000000000
B1633063804487S06007376WA0179101843000000000000
B1633083804470S06007412WA0179001840000000000000
B1633103804468S06007451WA0179001841000000000000
B1633123804481S06007482WA0179101843000000000000
B1633143804501S06007499WA0179101842000000000000
B1633163804526S06007506WA0178901841000000000000
B1633183804553S06007513WA0178501837000000000000
B1633203804583S06007518WA0178201833000000000000
B1633223804613S06007522WA0178001832000000000000
B1633243804641S06007516WA0178201836000000000000
B1633263804657S06007492WA0178401838000000000000
B1633283804655S06007458WA0178801838000000000000
B1633303804633S06007432WA0178801839000000000000
B1633323804600S06007425WA0178801837000000000000
B1633343804569S06007439WA0178401831000000000000
B1633363804546S06007471WA0178001828000000000000
B1633383804533S06007513WA0177901829000000000000
B1633403804527S06007557WA0177801824000000000000
B1633423804522S06007603WA0177301818000000000000
B1633443804516S06007652WA0176901818000000000000
B1633463804511S06007701WA0177101829000000000000
B1633483804518S06007744WA0178301845000000000000
B1633503804538S06007772WA0179501858000000000000
B1633523804563S06007776WA0180701868000000000000
B1633543804582S06007757WA0181601871000000000000
B1633563804586S06007724WA0182001871000000000000
B1633583804572S06007690WA0182001873000000000000
B1634003804542S06007673WA0182101876000000000000
B1634023804508S06007679WA0182501880000000000000
B1634043804479S06007704WA0182801885000000000000
B1634063804462S06007740WA0183401891000000000000
B1634083804466S06007778WA0184101896000000000000
B1634103804488S06007800WA0184601902000000000000
B1634123804516S06007803WA0185101909000000000000
B1634143804537S06007782WA0185601910000000000000
B1634163804540S06007744WA0185801912000000000000
B1634183804522S06007709WA0186101919000000000000
B1634203804490S06007694WA0186601925000000000000
B1634223804456S06007703WA0187201928000000000000
B1634243804431S06007735WA0187501930000000000000
B1634263804422S06007777WA0187801935000000000000
B1634283804426S06007818WA0188401942000000000000
B1634303804447S06007844WA0189201951000000000000
B1634323804474S06007847WA0189901960000000000000
B1634343804496S06007828WA0190901967000000000000
B1634363804507S06007794WA0191601974000000000000
B1634383804503S06007756WA0192101979000000000000
B1634403804483S06007724WA0192301984000000000000
B1634423804453S06007705WA0192801988000000000000
B1634443804421S06007703WA0193301993000000000000
B1634463804390S06007721WA0193701997000000000000
B1634483804370S06007753WA0194202002000000000000
B1634503804368S06007792WA0194702007000000000000
B1634523804382S06007825WA0195002010000000000000
B1634543804407S06007842WA0195302015000000000000
B1634563804435S06007843WA0196002024000000000000
B1634583804457S06007824WA0196802032000000000000
B1635003804464S06007787WA0197702038000000000000
B1635023804453S06007751WA0198202043000000000000
B1635043804431S06007720WA0198702047000000000000
B1635063804404S06007696WA0199002050000000000000
B1635083804371S06007688WA0199302052000000000000
B1635103804340S06007703WA0199502053000000000000
B1635123804321S06007734WA0199702055000000000000
B1635143804317S06007773WA0199802058000000000000
B1635163804329S06007805WA0200302063000000000000
B1635183804351S06007826WA0200802069000000000000
B1635203804377S06007838WA0201002075000000000000
B1635223804403S06007841WA0201502080000000000000
B1635243804427S06007829WA0202102088000000000000
B1635263804444S06007805WA0202802093000000000000
B1635283804455S06007774WA0203302096000000000000
B1635303804456S06007740WA0203702099000000000000
B1635323804451S06007705WA0203802099000000000000
B1635343804440S06007670WA0203802098000000000000
B1635363804420S06007640WA0203902099000000000000
B1635383804391S06007621WA0204102103000000000000
B1635403804358S06007616WA0204302104000000000000
B1635423804327S06007621WA0204302102000000000000
B1635443804295S06007633WA0204102099000000000000
B1635463804264S06007649WA0203802096000000000000
B1635483804243S06007681WA0203602094000000000000
B1635503804239S06007721WA0203502091000000000000
B1635523804254S06007753WA0203302092000000000000
B1635543804279S06007772WA0203202093000000000000
B1635563804306S06007782WA0203302096000000000000
B1635583804332S06007791WA0203602102000000000000
B1636003804357S06007798WA0204002103000000000000
B1636023804381S06007792WA0204202104000000000000
B1636043804401S06007777WA0204302105000000000000
B1636063804413S06007750WA0204502105000000000000
B1636083804413S06007716WA0204602106000000000000
B1636103804401S06007682WA0204702109000000000000
B1636123804382S06007651WA0204802112000000000000
B1636143804357S06007625WA0205102113000000000000
B1636163804327S06007604WA0205302113000000000000
B1636183804293S06007592WA0205302115000000000000
B1636203804258S06007588WA0205402115000000000000
B1636223804225S06007595WA0205502116000000000000
B1636243804193S06007613WA0205602116000000000000
B1636263804170S06007643WA0205602116000000000000
B1636283804158S06007681WA0205702115000000000000
B1636303804160S06007717WA0205502114000000000000
B1636323804170S06007748WA0205402112000000000000
B1636343804182S06007781WA0205202110000000000000
B1636363804195S06007812WA0205102109000000000000
B1636383804214S06007833WA0204802106000000000000
B1636403804239S06007839WA0204802108000000000000
B1636423804261S06007835WA0204902110000000000000
B1636443804279S06007818WA0205002109000000000000
B1636463804293S06007794WA0205002109000000000000
B1636483804305S06007765WA0204902109000000000000
B1636503804308S06007731WA0204902111000000000000
B1636523804296S06007698WA0205202114000000000000
B1636543804273S06007673WA0205502117000000000000
B1636563804241S06007660WA0205702118000000000000
B1636583804209S06007662WA0205702117000000000000
B1637003804176S06007678WA0205702118000000000000
B1637023804149S06007703WA0205702117000000000000
B1637043804130S06007734WA0205702114000000000000
B1637063804119S06007772WA0205302110000000000000
B1637083804113S06007812WA0205002106000000000000
B1637103804108S06007855WA0204502100000000000000
B1637123804104S06007900WA0203802092000000000000
B1637143804101S06007950WA0203302091000000000000
B1637163804096S06007999WA0203402098000000000000
B1637183804092S06008046WA0204002105000000000000
B1637203804089S06008091WA0204402109000000000000
B1637223804089S06008138WA0204902113000000000000
B1637243804093S06008182WA0205502120000000000000
B1637263804105S06008220WA0206702131000000000000
B1637283804123S06008253WA0207202139000000000000
B1637303804147S06008270WA0208102148000000000000
B1637323804171S06008263WA0208902158000000000000
B1637343804184S06008236WA0210002168000000000000
B1637373804171S06008189WA0211202175000000000000
B1637393804143S06008171WA0211402175000000000000
B1637413804108S06008176WA0211302173000000000000
B1637433804079S06008205WA0211502177000000000000
B1637453804066S06008246WA0212002184000000000000
B1637473804071S06008285WA0212602192000000000000
B1637493804089S06008312WA0213302199000000000000
B1637513804115S06008315WA0214002207000000000000
B1637533804134S06008294WA0214702214000000000000
B1637553804136S06008260WA0215302220000000000000
B1637573804119S06008228WA0215902225000000000000
B1637593804089S06008211WA0216402230000000000000
B1638013804056S06008216WA0216802233000000000000
B1638033804028S06008244WA0217102235000000000000
B1638053804010S06008283WA0217302238000000000000
B1638073804004S06008324WA0217502242000000000000
B1638093804014S06008361WA0218002250000000000000
B1638113804035S06008380WA0218702255000000000000
B1638133804058S06008377WA0219302261000000000000
B1638153804075S06008355WA0219902268000000000000
B1638173804078S06008323WA0220602275000000000000
B1638193804063S06008290WA0221202281000000000000
B1638213804037S06008267WA0221702284000000000000
B1638233804004S06008258WA0222002288000000000000
B1638253803968S06008264WA0222502291000000000000
B1638273803935S06008284WA0222902296000000000000
B1638293803910S06008316WA0223402301000000000000
B1638313803896S06008354WA0223802305000000000000
B1638333803896S06008394WA0224202308000000000000
B1638353803907S06008426WA0224702312000000000000
B1638373803928S06008444WA0224902315000000000000
B1638393803950S06008448WA0225202318000000000000
B1638413803974S06008440WA0225402322000000000000
B1638433803997S06008426WA0225802326000000000000
B1638453804017S06008405WA0226302332000000000000
B1638473804030S06008376WA0226602339000000000000
B1638493804032S06008342WA0227402348000000000000
B1638513804019S06008310WA0228302354000000000000
B1638533803993S06008286WA0228902356000000000000
B1638553803959S06008277WA0229102355000000000000
B1638573803923S06008288WA0229002354000000000000
B1638593803893S06008315WA0229102357000000000000
B1639013803872S06008353WA0229302362000000000000
B1639033803858S06008393WA0229802367000000000000
B1639053803851S06008433WA0230202370000000000000
B1639073803857S06008472WA0230502373000000000000
B1639093803874S06008497WA0231002379000000000000
B1639113803896S06008505WA0231502384000000000000
B1639133803918S06008494WA0231902385000000000000
B1639153803933S06008470WA0232102387000000000000
B1639173803944S06008439WA0232402391000000000000
B1639193803945S06008403WA0232902398000000000000
B1639213803935S06008368WA0233502405000000000000
B1639233803913S06008341WA0234002408000000000000
B1639253803880S06008327WA0234302408000000000000
B1639273803844S06008331WA0234202407000000000000
B1639293803811S06008353WA0234102406000000000000
B1639313803790S06008389WA0234202408000000000000
B1639333803781S06008431WA0234202411000000000000
B1639353803783S06008471WA0234502414000000000000
B1639373803797S06008502WA0235002419000000000000
B1639393803818S06008520WA0235402422000000000000
B1639413803840S06008526WA0235602425000000000000
B1639433803862S06008515WA0235902427000000000000
B1639453803876S06008491WA0236202431000000000000
B1639473803880S06008458WA0236702435000000000000
B1639493803876S06008422WA0237102438000000000000
B1639513803864S06008385WA0237502442000000000000
B1639533803844S06008354WA0237802446000000000000
B1639553803814S06008335WA0238202449000000000000
B1639573803780S06008332WA0238402450000000000000
B1639593803746S06008346WA0238302445000000000000
B1640013803721S06008379WA0237902440000000000000
B1640033803708S06008420WA0237702440000000000000
B1640053803706S06008462WA0237602442000000000000
B1640073803711S06008501WA0237802442000000000000
B1640093803729S06008526WA0238002446000000000000
B1640113803753S06008532WA0238202450000000000000
B1640133803777S06008528WA0238402451000000000000
B1640153803799S06008511WA0238402451000000000000
B1640173803820S06008488WA0238402453000000000000
B1640193803828S06008453WA0238802459000000000000
B1640213803820S06008414WA0239302465000000000000
B1640233803796S06008384WA0239902468000000000000
B1640253803762S06008366WA0240202471000000000000
B1640273803724S06008366WA0240402473000000000000
B1640293803689S06008383WA0240702475000000000000
B1640313803660S06008413WA0240802473000000000000
B1640333803642S06008452WA0240802471000000000000
B1640353803638S06008494WA0240602473000000000000
B1640373803647S06008531WA0240802475000000000000
B1640393803666S06008554WA0240902477000000000000
B1640413803692S06008563WA0241102478000000000000
B1640433803716S06008559WA0241302480000000000000
B1640453803741S06008546WA0241402482000000000000
B1640473803757S06008519WA0241702487000000000000
B1640493803760S06008484WA0242302492000000000000
B1640513803751S06008446WA0242702494000000000000
B1640533803733S06008410WA0242802494000000000000
B1640553803707S06008379WA0242902497000000000000
B1640573803673S06008354WA0243202499000000000000
B1640593803637S06008346WA0243302499000000000000
B1641013803599S06008350WA0243102494000000000000
B1641033803565S06008371WA0242702489000000000000
B1641053803541S06008406WA0242302486000000000000
B1641073803529S06008448WA0241902484000000000000
B1641093803529S06008491WA0241702483000000000000
B1641113803537S06008530WA0241602483000000000000
B1641133803554S06008559WA0241602482000000000000
B1641153803578S06008575WA0241602482000000000000
B1641173803604S06008582WA0241502482000000000000
B1641193803629S06008578WA0241602483000000000000
B1641213803654S06008569WA0241802485000000000000
B1641233803676S06008553WA0241902487000000000000
B1641253803694S06008531WA0242102490000000000000
B1641273803707S06008501WA0242502494000000000000
B1641293803714S06008465WA0242702496000000000000
B1641313803711S06008424WA0242702494000000000000
B1641333803698S06008385WA0242702497000000000000
B1641353803676S06008350WA0243002503000000000000
B1641373803649S06008322WA0243402505000000000000
B1641393803616S06008302WA0243602501000000000000
B1641413803580S06008298WA0243202493000000000000
B1641433803545S06008312WA0242502489000000000000
B1641453803515S06008338WA0242202488000000000000
B1641473803498S06008374WA0242102486000000000000
B1641493803489S06008413WA0241902483000000000000
B1641513803487S06008453WA0241602481000000000000
B1641533803491S06008492WA0241402480000000000000
B1641553803500S06008528WA0241302480000000000000
B1641573803515S06008559WA0241302481000000000000
B1641593803534S06008583WA0241402482000000000000
B1642013803556S06008597WA0241402482000000000000
B1642033803580S06008598WA0241302481000000000000
B1642053803602S06008588WA0241302480000000000000
B1642073803621S06008567WA0241202480000000000000
B1642093803633S06008536WA0241202482000000000000
B1642113803637S06008500WA0241302482000000000000
B1642133803633S06008461WA0241402482000000000000
B1642153803620S06008422WA0241302480000000000000
B1642173803598S06008384WA0241202476000000000000
B1642193803568S06008351WA0240802470000000000000
B1642213803532S06008323WA0240102459000000000000
B1642233803493S06008296WA0239202453000000000000
B1642253803454S06008268WA0238402443000000000000
B1642273803413S06008240WA0237402430000000000000
B1642293803370S06008210WA0236102417000000000000
B1642313803328S06008179WA0234902403000000000000
B1642333803283S06008146WA0233602391000000000000
B1642353803240S06008114WA0232602384000000000000
B1642373803198S06008080WA0231902379000000000000
B1642393803155S06008046WA0231402375000000000000
B1642413803114S06008010WA0231102372000000000000
B1642433803075S06007971WA0230802370000000000000
B1642453803039S06007932WA0230602368000000000000
B1642473803000S06007893WA0230302366000000000000
B1642493802964S06007852WA0230202365000000000000
B1642513802926S06007812WA0230102364000000000000
B1642533802891S06007769WA0230002365000000000000
B1642553802853S06007730WA0229902363000000000000
B1642573802811S06007703WA0230002371000000000000
B1642593802769S06007688WA0230802381000000000000
B1643013802728S06007696WA0231802391000000000000
B1643033802700S06007729WA0232502398000000000000
B1643053802694S06007772WA0233102401000000000000
B1643073802710S06007807WA0233402401000000000000
B1643093802739S06007817WA0233402400000000000000
B1643113802766S06007802WA0233302400000000000000
B1643133802783S06007766WA0233302398000000000000
B1643153802785S06007725WA0233202397000000000000
B1643173802779S06007682WA0233102394000000000000
B1643193802769S06007638WA0232902391000000000000
B1643213802753S06007595WA0232402388000000000000
B1643233802735S06007552WA0232402388000000000000
B1643253802715S06007510WA0232402391000000000000
B1643273802694S06007471WA0232602392000000000000
B1643293802674S06007432WA0232802392000000000000
B1643313802652S06007395WA0232702390000000000000
B1643333802627S06007357WA0232302387000000000000
B1643353802600S06007323WA0232202388000000000000
B1643373802570S06007293WA0232202387000000000000
B1643393802538S06007263WA0232202387000000000000
B1643413802507S06007237WA0232002386000000000000
B1643433802473S06007213WA0232002387000000000000
B1643453802438S06007192WA0231902383000000000000
B1643473802403S06007171WA0231702377000000000000
B1643493802366S06007150WA0231202369000000000000
B1643513802325S06007129WA0230302363000000000000
B1643533802284S06007107WA0229602357000000000000
B1643553802243S06007081WA0229002352000000000000
B1643573802202S06007055WA0228702348000000000000
B1643593802159S06007028WA0228302344000000000000
B1644013802116S06007001WA0227802338000000000000
B1644033802073S06006971WA0227202333000000000000
B1644053802033S06006937WA0226802330000000000000
B1644073801996S06006898WA0226502328000000000000
B1644093801959S06006860WA0226402328000000000000
B1644113801922S06006824WA0226202326000000000000
B1644133801885S06006790WA0225802321000000000000
B1644153801846S06006756WA0225302314000000000000
B1644173801807S06006723WA0224602306000000000000
B1644193801766S06006687WA0223802297000000000000
B1644213801725S06006651WA0223402292000000000000
B1644233801683S06006616WA0222902290000000000000
B1644253801640S06006583WA0222902291000000000000
B1644273801597S06006552WA0222902292000000000000
B1644293801556S06006521WA0222902292000000000000
B1644313801515S06006489WA0223102294000000000000
B1644333801476S06006457WA0223202299000000000000
B1644353801439S06006427WA0223502301000000000000
B1644373801401S06006396WA0223602299000000000000
B1644393801363S06006365WA0223402295000000000000
B1644413801324S06006336WA0222902291000000000000
B1644433801285S06006309WA0222402288000000000000
B1644453801246S06006283WA0222202285000000000000
B1644473801206S06006256WA0222202285000000000000
B1644493801167S06006229WA0222002284000000000000
B1644513801127S06006201WA0222002284000000000000
B1644533801088S06006173WA0222102287000000000000
B1644553801047S06006144WA0222202286000000000000
B1644573801008S06006117WA0222102282000000000000
B1644593800969S06006092WA0222002280000000000000
B1645013800929S06006069WA0221702275000000000000
B1645033800889S06006044WA0221102269000000000000
B1645053800847S06006021WA0220502263000000000000
B1645073800803S06006000WA0220002257000000000000
B1645093800760S06005978WA0219502252000000000000
B1645113800716S06005956WA0218902246000000000000
B1645133800672S06005931WA0218302240000000000000
B1645153800627S06005906WA0217802234000000000000
B1645173800583S06005879WA0217102229000000000000
B1645193800539S06005853WA0216502223000000000000
B1645213800495S06005828WA0216102218000000000000
B1645233800448S06005803WA0215602215000000000000
B1645253800403S06005780WA0215202211000000000000
B1645273800357S06005758WA0214902209000000000000
B1645293800310S06005737WA0214802210000000000000
B1645313800263S06005719WA0214902211000000000000
B1645333800218S06005702WA0214802213000000000000
B1645353800172S06005684WA0215002214000000000000
B1645373800128S06005664WA0215202215000000000000
B1645393800085S06005644WA0215102214000000000000
B1645413800041S06005623WA0215102213000000000000
B1645433759998S06005599WA0214902208000000000000
B1645453759957S06005569WA0214602204000000000000
B1645473759918S06005536WA0214102201000000000000
B1645493759880S06005501WA0213802200000000000000
B1645513759845S06005462WA0213802204000000000000
B1645533759812S06005419WA0214202207000000000000
B1645553759780S06005374WA0214502211000000000000
B1645573759749S06005330WA0215202221000000000000
B1645593759720S06005287WA0216202234000000000000
B1646013759690S06005250WA0217502248000000000000
B1646033759659S06005215WA0218702263000000000000
B1646053759628S06005182WA0219902271000000000000
B1646073759594S06005155WA0220802280000000000000
B1646093759556S06005153WA0222002294000000000000
B1646113759529S06005182WA0223402306000000000000
B1646133759528S06005221WA0224302315000000000000
B1646153759545S06005248WA0224802315000000000000
B1646173759571S06005252WA0224602310000000000000
B1646193759591S06005228WA0224302308000000000000
B1646213759587S06005187WA0224502313000000000000
B1646233759561S06005159WA0225202323000000000000
B1646253759526S06005147WA0225902330000000000000
B1646273759490S06005153WA0226402330000000000000
B1646293759468S06005187WA0226402327000000000000
B1646313759470S06005226WA0226302327000000000000
B1646333759494S06005243WA0226302327000000000000
B1646353759519S06005228WA0226002320000000000000
B1646373759525S06005190WA0225702319000000000000
B1646393759507S06005152WA0226002328000000000000
B1646413759478S06005125WA0226902337000000000000
B1646433759446S06005112WA0227702345000000000000
B1646453759415S06005127WA0228202348000000000000
B1646473759398S06005161WA0228302346000000000000
B1646493759403S06005195WA0227802338000000000000
B1646513759428S06005209WA0227002327000000000000
B1646533759455S06005196WA0226402326000000000000
B1646553759465S06005160WA0226902337000000000000
B1646573759454S06005126WA0228102350000000000000
B1646593759430S06005104WA0229102356000000000000
B1647013759402S06005091WA0229302357000000000000
B1647033759370S06005083WA0229302357000000000000
B1647053759337S06005075WA0229102355000000000000
B1647073759301S06005066WA0228902350000000000000
B1647093759264S06005052WA0228302345000000000000
B1647113759223S06005036WA0227802339000000000000
B1647133759181S06005021WA0227202331000000000000
B1647153759135S06005007WA0226502324000000000000
B1647173759087S06004991WA0226202319000000000000
B1647193759038S06004977WA0225502315000000000000
B1647213758988S06004962WA0225302309000000000000
B1647233758937S06004947WA0224702305000000000000
B1647253758887S06004932WA0224302302000000000000
B1647273758837S06004918WA0224002299000000000000
B1647293758788S06004904WA0223802300000000000000
B1647313758740S06004891WA0223802300000000000000
B1647333758693S06004879WA0223802298000000000000
B1647353758646S06004867WA0223602292000000000000
B1647373758601S06004857WA0223002288000000000000
B1647393758555S06004845WA0222602285000000000000
B1647413758511S06004834WA0222302286000000000000
B1647433758468S06004825WA0222402286000000000000
B1647453758425S06004814WA0222302281000000000000
B1647473758382S06004804WA0221702270000000000000
B1647493758338S06004789WA0220702261000000000000
B1647513758294S06004770WA0219902257000000000000
B1647533758250S06004748WA0219402252000000000000
B1647553758204S06004726WA0218802246000000000000
B1647573758159S06004704WA0218002238000000000000
B1647593758112S06004680WA0217302230000000000000
B1648013758064S06004657WA0216602223000000000000
B1648033758016S06004632WA0216102222000000000000
B1648053757969S06004611WA0216102221000000000000
B1648073757921S06004592WA0216002221000000000000
B1648093757874S06004572WA0216002220000000000000
B1648113757827S06004555WA0215902216000000000000
B1648133757780S06004536WA0215602213000000000000
B1648153757734S06004518WA0215202208000000000000
B1648173757687S06004498WA0214602203000000000000
B1648193757639S06004480WA0214302200000000000000
B1648213757592S06004461WA0214002197000000000000
B1648233757545S06004444WA0213702196000000000000
B1648253757498S06004425WA0213802199000000000000
B1648273757454S06004409WA0214002202000000000000
B1648293757409S06004393WA0214202203000000000000
B1648313757364S06004377WA0214502208000000000000
B1648333757323S06004363WA0214802211000000000000
B1648353757280S06004349WA0214702207000000000000
B1648373757237S06004333WA0214402205000000000000
B1648393757194S06004320WA0214302205000000000000
B1648413757151S06004307WA0214302205000000000000
B1648433757110S06004292WA0214502206000000000000
B1648453757067S06004277WA0214502205000000000000
B1648473757025S06004262WA0214302202000000000000
B1648493756981S06004247WA0214002198000000000000
B1648513756937S06004233WA0213502190000000000000
B1648533756890S06004219WA0212602178000000000000
B1648553756841S06004203WA0211602168000000000000
B1648573756792S06004185WA0210702161000000000000
B1648593756743S06004165WA0210102157000000000000
B1649013756695S06004145WA0209702154000000000000
B1649033756646S06004125WA0209502152000000000000
B1649053756597S06004106WA0209302149000000000000
B1649073756548S06004086WA0209002146000000000000
B1649083756525S06004077WA0208602145000000000000
B1649113756452S06004050WA0208502143000000000000
B1649133756404S06004032WA0208302141000000000000
B1649153756357S06004011WA0208202139000000000000
B1649173756310S06003987WA0208002135000000000000
B1649193756263S06003960WA0207702134000000000000
B1649213756219S06003933WA0207602134000000000000
B1649233756176S06003905WA0207602136000000000000
B1649253756135S06003877WA0207502134000000000000
B1649273756094S06003850WA0207402134000000000000
B1649293756055S06003821WA0207402136000000000000
B1649313756016S06003794WA0207502135000000000000
B1649333755979S06003766WA0207402132000000000000
B1649353755941S06003739WA0207002125000000000000
B1649373755901S06003710WA0206302116000000000000
B1649393755860S06003681WA0205502107000000000000
B1649413755820S06003652WA0204502098000000000000
B1649433755778S06003621WA0203902093000000000000
B1649453755738S06003590WA0203502091000000000000
B1649473755698S06003561WA0203102087000000000000
B1649493755658S06003534WA0202602081000000000000
B1649513755615S06003508WA0202102069000000000000
B1649533755570S06003479WA0201002059000000000000
B1649553755525S06003450WA0200102055000000000000
B1649573755478S06003427WA0199802055000000000000
B1649593755431S06003408WA0199802055000000000000
B1650013755385S06003392WA0199802055000000000000
B1650033755338S06003378WA0199702054000000000000
B1650053755291S06003366WA0199702055000000000000
B1650073755245S06003356WA0199802054000000000000
B1650093755201S06003345WA0199602054000000000000
B1650113755158S06003336WA0199702056000000000000
B1650133755115S06003328WA0199902057000000000000
B1650153755073S06003322WA0199902056000000000000
B1650173755030S06003317WA0199702052000000000000
B1650193754984S06003310WA0199102042000000000000
B1650213754937S06003305WA0198402034000000000000
B1650233754888S06003301WA0197902035000000000000
B1650253754841S06003298WA0198002038000000000000
B1650273754794S06003293WA0198202037000000000000
B1650293754748S06003287WA0197902032000000000000
B1650313754701S06003279WA0197502027000000000000
B1650333754653S06003271WA0197102028000000000000
B1650353754607S06003263WA0197202031000000000000
B1650373754564S06003254WA0197702037000000000000
B1650393754521S06003252WA0198302044000000000000
B1650413754481S06003250WA0198902048000000000000
B1650433754442S06003245WA0199102049000000000000
B1650453754403S06003236WA0199102047000000000000
B1650473754367S06003226WA0198902045000000000000
B1650493754332S06003211WA0198702045000000000000
B1650513754296S06003197WA0198502039000000000000
B1650533754260S06003181WA0197802029000000000000
B1650553754224S06003164WA0196602014000000000000
B1650573754186S06003144WA0195302001000000000000
B1650593754146S06003125WA0194101988000000000000
B1651013754103S06003111WA0193001978000000000000
B1651033754057S06003098WA0192001967000000000000
B1651053754009S06003086WA0190801957000000000000
B1651073753961S06003076WA0190201953000000000000
B1651093753913S06003067WA0189701949000000000000
B1651113753865S06003060WA0189601946000000000000
B1651133753818S06003050WA0189701947000000000000
B1651153753775S06003028WA0189801947000000000000
B1651173753737S06002998WA0189401943000000000000
B1651193753701S06002963WA0189001937000000000000
B1651213753667S06002923WA0188401929000000000000
B1651233753636S06002877WA0187701926000000000000
B1651253753611S06002825WA0187601928000000000000
B1651273753593S06002769WA0187801932000000000000
B1651293753578S06002715WA0188201934000000000000
B1651313753563S06002660WA0188601941000000000000
B1651333753549S06002607WA0189301950000000000000
B1651353753539S06002556WA0190001956000000000000
B1651373753533S06002505WA0190501962000000000000
B1651393753531S06002456WA0190901964000000000000
B1651413753528S06002408WA0191101966000000000000
