ACAM4PM
HFDTE121224
HFFXA050
HFPLTPILOT:Andres Totorica         
HFGTYGLIDERTYPE:SZD-48-2 Ja 
HFGIDGLIDERID:LV-DNP      
HFDTM100GPSDATUM:
HFRFWFIRMWAREVERSION:F2.6
HFRHWHARDWAREVERSION:300 Series Version 2
HFFTYFRTYPE:CAMBRIDGE AERO INSTRUMENTS, 302+
HFGPS:GARMIN,LVS-25,12,18000
HFPRSPRESSALTSENSOR:INTERSEMA, MS5534-AP, 20000
I033638FXA3941ENL4247REX
LCAMSBVER:5FWVER:F26300
C231124161753231124000102
C0000000N00000000WTAKEOFF     
C3305567S06037750W02 Partida2 
C3355250S06038967WPergam AeDr 
C3327483S06119100WBombal      
C3303183S06035917W00 Llegada01
C0000000N00000000WLANDING     
B1547533801977S06007824WA0024100199000000000000
B1547553801977S06007825WA0024000199000000000000
B1547573801976S06007826WA0024000198000000000000
B1547593801974S06007828WA0024100198000000000000
B1548013801973S06007829WA0024000197000000000000
B1548033801972S06007830WA0023900197000000000000
B1548053801970S06007833WA0024000196000000000000
B1548073801969S06007834WA0024000196000000000000
B1548093801968S06007835WA0024000195000000000000
B1548113801966S06007838WA0024000195000000000000
B1548133801965S06007839WA0024000195000000000000
B1548153801964S06007841WA0024000195000000000000
B1548173801963S06007843WA0024100194000000000000
B1548193801961S06007846WA0024000194000000000000
B1548213801959S06007848WA0023900194000000000000
B1548223801956S06007852WA0024000194000000000000
B1548243801951S06007859WA0023900194000000000000
B1548263801944S06007869WA0023900193000000000000
B1548283801934S06007881WA0023900193000000000000
B1548303801924S06007895WA0023900193000000000000
B1548323801911S06007912WA0023800192000000000000
B1548343801895S06007932WA0023800192000000000000
B1548363801879S06007954WA0023700192000000000000
B1548383801861S06007978WA0023600192000000000000
B1548403801843S06008004WA0023700194000000000000
B1548423801821S06008030WA0023900195000000000000
B1548443801800S06008058WA0024100196000000000000
B1548463801779S06008089WA0024200198000000000000
B1548483801757S06008121WA0024300199000000000000
B1548503801734S06008151WA0024500202000000000000
B1548523801710S06008181WA0025000209000000000000
B1548543801684S06008208WA0025500213000000000000
B1548563801657S06008229WA0026000220000000000000
B1548583801627S06008245WA0026800229000000000000
B1549003801596S06008255WA0027500235000000000000
B1549023801565S06008259WA0028200243000000000000
B1549043801535S06008258WA0028800249000000000000
B1549063801504S06008249WA0029400254000000000000
B1549083801474S06008238WA0029700256000000000000
B1549103801441S06008227WA0030000256000000000000
B1549123801409S06008208WA0030200258000000000000
B1549143801376S06008190WA0030400259000000000000
B1549163801345S06008172WA0030600261000000000000
B1549183801314S06008151WA0030800264000000000000
B1549203801283S06008129WA0031200268000000000000
B1549223801249S06008108WA0031600274000000000000
B1549243801214S06008088WA0031900277000000000000
B1549263801181S06008067WA0032400285000000000000
B1549283801150S06008047WA0033400296000000000000
B1549303801119S06008026WA0034200301000000000000
B1549323801088S06008008WA0034700305000000000000
B1549343801058S06007987WA0034900315000000000000
B1549363801028S06007968WA0035700319000000000000
B1549383800997S06007948WA0036100322000000000000
B1549403800967S06007928WA0036500326000000000000
B1549423800936S06007909WA0036700331000000000000
B1549443800906S06007891WA0037400338000000000000
B1549463800876S06007872WA0038000342000000000000
B1549483800846S06007855WA0038400348000000000000
B1549503800816S06007838WA0039100356000000000000
B1549523800786S06007822WA0039800363000000000000
B1549543800754S06007809WA0040300367000000000000
B1549563800721S06007792WA0040600368000000000000
B1549583800689S06007774WA0040600368000000000000
B1550003800656S06007759WA0040800370000000000000
B1550023800624S06007747WA0041200376000000000000
B1550043800591S06007734WA0041800381000000000000
B1550063800560S06007724WA0042300385000000000000
B1550083800527S06007722WA0042400385000000000000
B1550103800495S06007727WA0042400389000000000000
B1550123800462S06007734WA0042600391000000000000
B1550143800432S06007748WA0043100395000000000000
B1550163800404S06007768WA0043200397000000000000
B1550183800377S06007790WA0043500402000000000000
B1550203800353S06007816WA0043800405000000000000
B1550223800334S06007848WA0044200409000000000000
B1550243800318S06007882WA0044600414000000000000
B1550263800302S06007913WA0045200422000000000000
B1550283800291S06007947WA0046000431000000000000
B1550303800282S06007981WA0046700437000000000000
B1550323800275S06008015WA0047500445000000000000
B1550343800273S06008051WA0048100452000000000000
B1550363800273S06008088WA0048800457000000000000
B1550383800274S06008125WA0049500465000000000000
B1550403800276S06008162WA0050000470000000000000
B1550423800282S06008199WA0050300473000000000000
B1550443800286S06008237WA0050800479000000000000
B1550463800287S06008276WA0051200491000000000000
B1550483800295S06008314WA0052200499000000000000
B1550503800305S06008350WA0053000505000000000000
B1550523800315S06008390WA0053700509000000000000
B1550543800323S06008431WA0054100514000000000000
B1550563800330S06008471WA0054700523000000000000
B1550583800341S06008509WA0055500530000000000000
B1551003800353S06008546WA0056300538000000000000
B1551023800365S06008583WA0056900543000000000000
B1551043800378S06008618WA0057300545000000000000
B1551063800390S06008654WA0057800549000000000000
B1551083800403S06008688WA0058200553000000000000
B1551103800417S06008721WA0058400556000000000000
B1551123800431S06008754WA0058800560000000000000
B1551143800443S06008787WA0059300564000000000000
B1551163800456S06008821WA0059800567000000000000
B1551183800470S06008853WA0060200568000000000000
B1551203800482S06008887WA0060300572000000000000
B1551223800496S06008920WA0060800575000000000000
B1551243800513S06008949WA0061000574000000000000
B1551273800542S06008994WA0061000578000000000000
B1551293800562S06009026WA0061100576000000000000
B1551313800582S06009060WA0061000576000000000000
B1551333800607S06009090WA0060900577000000000000
B1551353800631S06009120WA0061200581000000000000
B1551373800655S06009150WA0061600586000000000000
B1551393800678S06009180WA0062000592000000000000
B1551413800703S06009208WA0062500595000000000000
B1551433800725S06009238WA0062800597000000000000
B1551453800748S06009268WA0063100601000000000000
B1551473800772S06009298WA0063400603000000000000
B1551493800799S06009326WA0063600605000000000000
B1551513800822S06009358WA0063900609000000000000
B1551533800843S06009389WA0064300615000000000000
B1551553800865S06009417WA0064500620000000000000
B1551573800886S06009447WA0065100624000000000000
B1551593800906S06009477WA0065600626000000000000
B1552013800928S06009507WA0065800626000000000000
B1552033800949S06009538WA0065800627000000000000
B1552053800969S06009571WA0066000630000000000000
B1552073800990S06009603WA0066300632000000000000
B1552093801010S06009635WA0066600637000000000000
B1552113801028S06009667WA0067100644000000000000
B1552133801047S06009701WA0067800651000000000000
B1552153801067S06009733WA0068400656000000000000
B1552173801088S06009765WA0069000662000000000000
B1552193801108S06009797WA0069700671000000000000
B1552213801129S06009827WA0070600681000000000000
B1552233801149S06009858WA0071700691000000000000
B1552253801168S06009892WA0072700701000000000000
B1552273801190S06009923WA0073500708000000000000
B1552293801211S06009954WA0073800716000000000000
B1552313801232S06009987WA0074600725000000000000
B1552333801251S06010018WA0075500735000000000000
B1552353801272S06010045WA0076300743000000000000
B1552373801301S06010057WA0077000747000000000000
B1552393801329S06010045WA0077300747000000000000
B1552413801348S06010014WA0077300741000000000000
B1552433801350S06009974WA0076800733000000000000
B1552453801335S06009936WA0076200727000000000000
B1552473801307S06009911WA0075800727000000000000
B1552493801277S06009888WA0076200731000000000000
B1552513801250S06009866WA0076500737000000000000
B1552533801224S06009845WA0076900740000000000000
B1552553801197S06009828WA0077300744000000000000
B1552573801172S06009828WA0077600747000000000000
B1552593801155S06009850WA0077900751000000000000
B1553013801157S06009882WA0078200751000000000000
B1553033801170S06009913WA0078100750000000000000
B1553053801192S06009936WA0078000751000000000000
B1553073801224S06009935WA0078000751000000000000
B1553093801250S06009905WA0078000749000000000000
B1553113801261S06009861WA0077800748000000000000
B1553133801251S06009817WA0077800748000000000000
B1553153801229S06009787WA0078000751000000000000
B1553173801202S06009775WA0078300755000000000000
B1553193801176S06009779WA0078600758000000000000
B1553213801154S06009794WA0078900762000000000000
B1553233801144S06009820WA0079200762000000000000
B1553253801149S06009849WA0079100760000000000000
B1553273801172S06009869WA0078900757000000000000
B1553293801205S06009863WA0078700754000000000000
B1553313801231S06009835WA0078600756000000000000
B1553333801244S06009792WA0078700755000000000000
B1553353801241S06009748WA0078600754000000000000
B1553373801228S06009706WA0078700756000000000000
B1553393801205S06009679WA0079000760000000000000
B1553413801177S06009675WA0079200763000000000000
B1553433801158S06009694WA0079400766000000000000
B1553453801153S06009727WA0079700768000000000000
B1553473801166S06009757WA0079900772000000000000
B1553493801193S06009772WA0080300773000000000000
B1553513801225S06009763WA0080400773000000000000
B1553533801251S06009733WA0080400776000000000000
B1553553801264S06009693WA0080600778000000000000
B1553573801259S06009651WA0080900779000000000000
B1553593801240S06009620WA0080900779000000000000
B1554013801214S06009609WA0081000780000000000000
B1554033801189S06009620WA0081200783000000000000
B1554053801176S06009650WA0081400784000000000000
B1554073801180S06009684WA0081500787000000000000
B1554093801199S06009713WA0081800790000000000000
B1554113801229S06009722WA0081900789000000000000
B1554133801263S06009709WA0082000789000000000000
B1554153801287S06009674WA0082000789000000000000
B1554173801296S06009629WA0082000789000000000000
B1554193801284S06009590WA0082000791000000000000
B1554213801259S06009570WA0082200794000000000000
B1554233801235S06009571WA0082500796000000000000
B1554253801216S06009592WA0082600797000000000000
B1554273801212S06009623WA0082700797000000000000
B1554293801223S06009654WA0082500797000000000000
B1554313801248S06009674WA0082700797000000000000
B1554333801279S06009675WA0082800796000000000000
B1554353801309S06009651WA0082700798000000000000
B1554373801326S06009614WA0082900799000000000000
B1554393801328S06009571WA0082900798000000000000
B1554413801315S06009532WA0082900796000000000000
B1554433801293S06009507WA0082900799000000000000
B1554453801266S06009501WA0083200804000000000000
B1554473801241S06009508WA0083600806000000000000
B1554493801216S06009520WA0083700806000000000000
B1554513801189S06009531WA0083800808000000000000
B1554533801163S06009540WA0083800809000000000000
B1554553801134S06009547WA0083700805000000000000
B1554573801102S06009557WA0083000790000000000000
B1554593801064S06009564WA0081800784000000000000
B1555013801025S06009571WA0081300788000000000000
B1555033800988S06009575WA0081900801000000000000
B1555053800950S06009575WA0082500803000000000000
B1555073800911S06009572WA0082800803000000000000
B1555093800871S06009562WA0082900805000000000000
B1555113800832S06009554WA0083400816000000000000
B1555133800798S06009562WA0084500832000000000000
B1555153800778S06009589WA0086000846000000000000
B1555173800785S06009622WA0087300858000000000000
B1555193800812S06009635WA0088300863000000000000
B1555213800841S06009616WA0089000867000000000000
B1555233800852S06009577WA0089300869000000000000
B1555253800842S06009536WA0089600873000000000000
B1555273800815S06009514WA0090100880000000000000
B1555293800786S06009516WA0090700887000000000000
B1555313800770S06009541WA0091500894000000000000
B1555333800772S06009572WA0092000899000000000000
B1555353800794S06009594WA0092400903000000000000
B1555373800824S06009596WA0093000911000000000000
B1555393800850S06009571WA0093800917000000000000
B1555413800856S06009532WA0094300921000000000000
B1555433800842S06009497WA0094700925000000000000
B1555453800815S06009481WA0095000928000000000000
B1555473800789S06009492WA0095500934000000000000
B1555493800780S06009519WA0096100940000000000000
B1555513800787S06009549WA0096600944000000000000
B1555533800811S06009568WA0097100949000000000000
B1555553800839S06009566WA0097600955000000000000
B1555573800864S06009541WA0098100961000000000000
B1555593800872S06009503WA0098600963000000000000
B1556013800864S06009464WA0098800964000000000000
B1556033800843S06009434WA0099100967000000000000
B1556053800815S06009421WA0099500974000000000000
B1556073800787S06009428WA0100000980000000000000
B1556093800772S06009451WA0100500985000000000000
B1556113800772S06009482WA0101000989000000000000
B1556133800789S06009507WA0101400993000000000000
B1556153800817S06009512WA0101800998000000000000
B1556173800847S06009497WA0102301003000000000000
B1556193800865S06009466WA0102601007000000000000
B1556213800868S06009424WA0103001012000000000000
B1556233800854S06009388WA0103501015000000000000
B1556253800832S06009359WA0103901018000000000000
B1556273800803S06009347WA0104201022000000000000
B1556293800778S06009356WA0104601027000000000000
B1556313800767S06009382WA0105101034000000000000
B1556333800770S06009411WA0105901042000000000000
B1556353800785S06009437WA0106601048000000000000
B1556373800809S06009449WA0107001050000000000000
B1556393800839S06009441WA0107301052000000000000
B1556413800867S06009417WA0107501055000000000000
B1556433800881S06009380WA0107801060000000000000
B1556453800877S06009339WA0108201065000000000000
B1556473800858S06009310WA0108701068000000000000
B1556493800830S06009300WA0109101072000000000000
B1556513800806S06009310WA0109401076000000000000
B1556533800793S06009334WA0109901082000000000000
B1556553800795S06009363WA0110401088000000000000
B1556573800812S06009385WA0110901092000000000000
B1556593800838S06009398WA0111201094000000000000
B1557013800865S06009397WA0111301093000000000000
B1557033800890S06009375WA0111201092000000000000
B1557053800898S06009336WA0111201093000000000000
B1557073800891S06009294WA0111301096000000000000
B1557093800878S06009258WA0111601099000000000000
B1557113800854S06009235WA0111801103000000000000
B1557133800828S06009230WA0112201108000000000000
B1557153800803S06009238WA0112601111000000000000
B1557173800786S06009259WA0113001114000000000000
B1557193800789S06009287WA0113301118000000000000
B1557213800807S06009310WA0113701124000000000000
B1557233800835S06009315WA0114301129000000000000
B1557253800863S06009298WA0114601131000000000000
B1557273800880S06009264WA0114801131000000000000
B1557293800881S06009225WA0114901131000000000000
B1557313800867S06009190WA0115001134000000000000
B1557333800843S06009172WA0115201135000000000000
B1557353800819S06009167WA0115501140000000000000
B1557373800795S06009174WA0115801144000000000000
B1557393800778S06009195WA0116301151000000000000
B1557413800774S06009221WA0117101159000000000000
B1557433800785S06009246WA0117801162000000000000
B1557453800807S06009263WA0118201168000000000000
B1557473800835S06009265WA0118601170000000000000
B1557493800864S06009251WA0118501169000000000000
B1557513800881S06009217WA0118401165000000000000
B1557533800878S06009174WA0118201164000000000000
B1557553800859S06009143WA0118101168000000000000
B1557573800832S06009133WA0118601174000000000000
B1557593800809S06009144WA0119101180000000000000
B1558013800800S06009169WA0119801187000000000000
B1558033800803S06009196WA0120401192000000000000
B1558053800812S06009224WA0120701195000000000000
B1558073800830S06009242WA0121001197000000000000
B1558093800858S06009243WA0121201198000000000000
B1558113800884S06009222WA0121301199000000000000
B1558133800897S06009187WA0121401200000000000000
B1558153800895S06009148WA0121601201000000000000
B1558173800884S06009112WA0121601202000000000000
B1558193800863S06009085WA0121901206000000000000
B1558213800838S06009074WA0122101209000000000000
B1558233800815S06009081WA0122501212000000000000
B1558253800799S06009099WA0122901217000000000000
B1558273800793S06009125WA0123401223000000000000
B1558293800793S06009150WA0123801226000000000000
B1558313800807S06009172WA0123801224000000000000
B1558333800830S06009182WA0123801223000000000000
B1558353800860S06009176WA0123601222000000000000
B1558373800889S06009160WA0123601221000000000000
B1558393800915S06009133WA0123601223000000000000
B1558413800928S06009095WA0123601227000000000000
B1558433800925S06009053WA0124001230000000000000
B1558453800908S06009018WA0124401233000000000000
B1558473800881S06008998WA0124601233000000000000
B1558493800852S06008996WA0124701235000000000000
B1558513800830S06009012WA0124901237000000000000
B1558533800821S06009039WA0125101241000000000000
B1558553800829S06009068WA0125501243000000000000
B1558573800847S06009091WA0125701244000000000000
B1558593800869S06009111WA0125601243000000000000
B1559013800894S06009128WA0125501242000000000000
B1559033800923S06009141WA0125301240000000000000
B1559053800951S06009152WA0125101239000000000000
B1559073800982S06009160WA0125201241000000000000
B1559093801012S06009168WA0125301244000000000000
B1559113801041S06009173WA0125601246000000000000
B1559133801069S06009177WA0125701243000000000000
B1559153801098S06009181WA0125401239000000000000
B1559173801129S06009186WA0125101237000000000000
B1559193801159S06009195WA0124901237000000000000
B1559213801188S06009209WA0124801237000000000000
B1559233801216S06009224WA0124801239000000000000
B1559253801245S06009235WA0124901240000000000000
B1559273801276S06009247WA0125001240000000000000
B1559293801307S06009258WA0125001240000000000000
B1559313801339S06009268WA0125001240000000000000
B1559333801368S06009281WA0125101243000000000000
B1559353801397S06009294WA0125801253000000000000
B1559373801424S06009307WA0126701260000000000000
B1559393801450S06009320WA0127301264000000000000
B1559413801478S06009326WA0127601268000000000000
B1559433801509S06009317WA0128001269000000000000
B1559453801536S06009287WA0128101272000000000000
B1559473801550S06009243WA0128501278000000000000
B1559493801549S06009199WA0128901281000000000000
B1559513801532S06009164WA0129101279000000000000
B1559533801506S06009146WA0129001276000000000000
B1559553801483S06009148WA0128901278000000000000
B1559573801467S06009168WA0129001280000000000000
B1559593801466S06009194WA0129201283000000000000
B1600013801480S06009217WA0129401287000000000000
B1600033801504S06009230WA0129801291000000000000
B1600053801534S06009232WA0130301293000000000000
B1600073801563S06009213WA0130601297000000000000
B1600093801586S06009177WA0131001300000000000000
B1600113801593S06009131WA0131101300000000000000
B1600133801592S06009086WA0130901296000000000000
B1600153801583S06009043WA0130701293000000000000
B1600173801562S06009011WA0130601292000000000000
B1600193801537S06009007WA0130301290000000000000
B1600213801522S06009025WA0130301291000000000000
B1600233801519S06009052WA0130501293000000000000
B1600243801522S06009066WA0130501293000000000000
B1600273801539S06009107WA0130501294000000000000
B1600293801552S06009135WA0130701297000000000000
B1600313801566S06009164WA0131001301000000000000
B1600333801583S06009189WA0131201302000000000000
B1600353801608S06009208WA0131401305000000000000
B1600373801635S06009224WA0131701311000000000000
B1600393801662S06009238WA0132201314000000000000
B1600413801691S06009251WA0132401317000000000000
B1600433801719S06009267WA0132901322000000000000
B1600453801748S06009280WA0133201327000000000000
B1600473801775S06009294WA0133701333000000000000
B1600493801804S06009308WA0134201337000000000000
B1600513801831S06009319WA0134701344000000000000
B1600533801859S06009329WA0135301349000000000000
B1600553801886S06009338WA0135701352000000000000
B1600573801913S06009345WA0136001353000000000000
B1600593801942S06009334WA0136101350000000000000
B1601013801964S06009302WA0135801345000000000000
B1601033801969S06009256WA0135501345000000000000
B1601053801956S06009215WA0135601346000000000000
B1601073801930S06009187WA0135701348000000000000
B1601093801900S06009173WA0135701348000000000000
B1601113801869S06009163WA0135901349000000000000
B1601133801838S06009151WA0136001351000000000000
B1601153801807S06009139WA0136201355000000000000
B1601173801775S06009125WA0136601359000000000000
B1601193801744S06009111WA0137101364000000000000
B1601213801714S06009096WA0137701370000000000000
B1601233801687S06009090WA0138001375000000000000
B1601253801669S06009105WA0138401378000000000000
B1601273801671S06009134WA0138701376000000000000
B1601293801693S06009155WA0138501374000000000000
B1601313801727S06009154WA0138301372000000000000
B1601333801757S06009128WA0138101370000000000000
B1601353801771S06009083WA0138001368000000000000
B1601373801764S06009039WA0137901368000000000000
B1601393801740S06009009WA0137801367000000000000
B1601413801712S06008991WA0137601360000000000000
B1601433801679S06008977WA0136801346000000000000
B1601453801641S06008964WA0135501331000000000000
B1601473801599S06008949WA0134301324000000000000
B1601493801554S06008934WA0133701320000000000000
B1601513801510S06008913WA0133401319000000000000
B1601533801470S06008881WA0133501324000000000000
B1601543801450S06008860WA0133901330000000000000
B1601573801401S06008793WA0134801343000000000000
B1601593801370S06008754WA0136001359000000000000
B1602013801337S06008727WA0137401376000000000000
B1602033801306S06008721WA0139001393000000000000
B1602053801284S06008734WA0140601408000000000000
B1602073801271S06008756WA0141601412000000000000
B1602093801268S06008786WA0141901412000000000000
B1602113801283S06008816WA0142001414000000000000
B1602133801310S06008827WA0142301419000000000000
B1602153801340S06008819WA0142701422000000000000
B1602173801365S06008792WA0142901422000000000000
B1602193801372S06008753WA0143001424000000000000
B1602213801362S06008715WA0143201427000000000000
B1602233801337S06008695WA0143301427000000000000
B1602253801310S06008697WA0143401427000000000000
B1602273801287S06008715WA0143601431000000000000
B1602293801275S06008743WA0143701434000000000000
B1602313801281S06008774WA0144001436000000000000
B1602333801303S06008796WA0144201438000000000000
B1602353801335S06008799WA0144501440000000000000
B1602373801365S06008778WA0144701441000000000000
B1602393801384S06008741WA0144901444000000000000
B1602413801388S06008700WA0145101450000000000000
B1602433801376S06008663WA0145701455000000000000
B1602453801353S06008641WA0146001455000000000000
B1602473801327S06008640WA0146201459000000000000
B1602493801307S06008657WA0146501462000000000000
B1602513801297S06008684WA0146801464000000000000
B1602533801296S06008715WA0147001465000000000000
B1602553801306S06008745WA0147101466000000000000
B1602573801327S06008767WA0147301467000000000000
B1602593801353S06008784WA0147501470000000000000
B1603013801376S06008805WA0147701474000000000000
B1603033801387S06008834WA0148101478000000000000
B1603053801384S06008862WA0148501481000000000000
B1603073801374S06008887WA0148701483000000000000
B1603093801362S06008912WA0148801484000000000000
B1603113801350S06008936WA0148801484000000000000
B1603133801337S06008961WA0148801485000000000000
B1603153801324S06008985WA0148801483000000000000
B1603173801310S06009008WA0148501476000000000000
B1603193801298S06009033WA0147901470000000000000
B1603213801285S06009057WA0147401464000000000000
B1603233801271S06009085WA0146701456000000000000
B1603253801257S06009113WA0146001448000000000000
B1603273801241S06009144WA0145301442000000000000
B1603293801225S06009176WA0144601436000000000000
B1603313801209S06009207WA0143801428000000000000
B1603333801188S06009241WA0143001418000000000000
B1603353801168S06009277WA0142101409000000000000
B1603373801147S06009315WA0141201401000000000000
B1603393801125S06009355WA0140101386000000000000
B1603413801102S06009398WA0138701369000000000000
B1603433801079S06009445WA0137301357000000000000
B1603453801055S06009492WA0136601356000000000000
B1603473801033S06009538WA0136701361000000000000
B1603493801014S06009581WA0137201368000000000000
B1603513800995S06009623WA0137501369000000000000
B1603533800977S06009663WA0137401366000000000000
B1603553800956S06009702WA0137201363000000000000
B1603573800937S06009741WA0137001361000000000000
B1603593800917S06009781WA0136801358000000000000
B1604013800895S06009823WA0136501358000000000000
B1604033800874S06009863WA0136401361000000000000
B1604053800854S06009901WA0136901369000000000000
B1604073800833S06009937WA0137601376000000000000
B1604093800813S06009971WA0138201383000000000000
B1604113800793S06010002WA0138801386000000000000
B1604133800773S06010032WA0139101388000000000000
B1604153800752S06010062WA0139101387000000000000
B1604173800733S06010091WA0139201388000000000000
B1604193800713S06010121WA0139201389000000000000
B1604213800691S06010148WA0139301391000000000000
B1604233800669S06010174WA0139301390000000000000
B1604253800644S06010199WA0139201386000000000000
B1604273800618S06010222WA0138901384000000000000
B1604293800595S06010246WA0138701384000000000000
B1604313800575S06010274WA0138601383000000000000
B1604333800570S06010309WA0138701387000000000000
B1604353800579S06010346WA0138901387000000000000
B1604373800592S06010382WA0139001384000000000000
B1604393800601S06010421WA0138701385000000000000
B1604413800608S06010461WA0138901388000000000000
B1604433800612S06010500WA0139301391000000000000
B1604453800614S06010538WA0139701393000000000000
B1604473800618S06010576WA0139901393000000000000
B1604493800622S06010612WA0139901393000000000000
B1604513800626S06010647WA0139901393000000000000
B1604533800630S06010682WA0139701391000000000000
B1604553800633S06010717WA0139601390000000000000
B1604573800633S06010753WA0139301381000000000000
B1604593800633S06010792WA0138101364000000000000
B1605013800633S06010837WA0136601348000000000000
B1605033800633S06010886WA0135301337000000000000
B1605053800633S06010937WA0134401330000000000000
B1605073800633S06010989WA0133901326000000000000
B1605093800631S06011041WA0133501324000000000000
B1605113800631S06011093WA0133301323000000000000
B1605133800631S06011143WA0133401326000000000000
B1605153800633S06011189WA0133601327000000000000
B1605173800634S06011236WA0133501325000000000000
B1605193800635S06011282WA0133301319000000000000
B1605213800635S06011328WA0132701312000000000000
B1605233800635S06011377WA0132101306000000000000
B1605253800634S06011423WA0131601304000000000000
B1605273800633S06011471WA0131401304000000000000
B1605293800633S06011517WA0131401304000000000000
B1605313800631S06011561WA0131301300000000000000
B1605333800629S06011607WA0131001297000000000000
B1605353800627S06011652WA0130601293000000000000
B1605373800626S06011698WA0130301289000000000000
B1605393800625S06011744WA0130001289000000000000
B1605413800622S06011787WA0130401299000000000000
B1605433800620S06011826WA0131101303000000000000
B1605453800617S06011867WA0131301304000000000000
B1605473800614S06011906WA0131201302000000000000
B1605493800613S06011946WA0130901298000000000000
B1605513800611S06011989WA0130601295000000000000
B1605533800609S06012030WA0130401294000000000000
B1605553800607S06012073WA0130401298000000000000
B1605573800605S06012115WA0130901307000000000000
B1605593800603S06012154WA0131801319000000000000
B1606013800600S06012190WA0132701326000000000000
B1606033800599S06012225WA0133401332000000000000
B1606053800607S06012258WA0133901335000000000000
B1606073800630S06012279WA0134201335000000000000
B1606093800661S06012277WA0134201337000000000000
B1606113800690S06012251WA0134401341000000000000
B1606133800705S06012210WA0134701341000000000000
B1606153800702S06012164WA0135001343000000000000
B1606173800679S06012131WA0135201346000000000000
B1606193800651S06012116WA0135601350000000000000
B1606213800624S06012124WA0135901353000000000000
B1606233800608S06012150WA0136101352000000000000
B1606253800609S06012183WA0136101353000000000000
B1606273800627S06012209WA0136101354000000000000
B1606293800657S06012214WA0136201355000000000000
B1606313800687S06012194WA0136401359000000000000
B1606333800704S06012158WA0136701360000000000000
B1606353800704S06012114WA0136801359000000000000
B1606373800685S06012076WA0137001362000000000000
B1606393800656S06012054WA0137301367000000000000
B1606413800626S06012046WA0137701370000000000000
B1606433800601S06012059WA0137801367000000000000
B1606453800592S06012090WA0137601365000000000000
B1606473800604S06012121WA0137501367000000000000
B1606493800630S06012136WA0137701368000000000000
B1606513800660S06012121WA0137801370000000000000
B1606533800682S06012088WA0137901374000000000000
B1606553800695S06012046WA0138301375000000000000
B1606573800689S06012003WA0138501376000000000000
B1606593800664S06011975WA0138501376000000000000
B1607013800634S06011973WA0138601378000000000000
B1607033800616S06011998WA0138701381000000000000
B1607053800617S06012030WA0139001384000000000000
B1607073800638S06012053WA0139301387000000000000
B1607093800666S06012055WA0139501390000000000000
B1607113800694S06012034WA0139801393000000000000
B1607133800709S06011998WA0140101394000000000000
B1607153800711S06011954WA0140301399000000000000
B1607173800702S06011912WA0140601401000000000000
B1607193800681S06011881WA0140801401000000000000
B1607213800651S06011873WA0140901402000000000000
B1607233800626S06011887WA0141101405000000000000
B1607253800616S06011916WA0141301406000000000000
B1607273800624S06011950WA0141401407000000000000
B1607293800647S06011969WA0141601413000000000000
B1607313800676S06011971WA0142201418000000000000
B1607333800703S06011952WA0142501420000000000000
B1607353800722S06011919WA0142801422000000000000
B1607373800731S06011878WA0142801420000000000000
B1607393800737S06011834WA0142801421000000000000
B1607413800735S06011791WA0142901421000000000000
B1607433800724S06011751WA0142901422000000000000
B1607453800702S06011718WA0142901422000000000000
B1607473800674S06011695WA0142901422000000000000
B1607493800644S06011677WA0142901422000000000000
B1607513800614S06011660WA0142901421000000000000
B1607533800583S06011644WA0142901420000000000000
B1607553800551S06011631WA0142701415000000000000
B1607573800518S06011617WA0142201410000000000000
B1607593800484S06011604WA0141901410000000000000
B1608013800451S06011591WA0141601405000000000000
B1608033800416S06011578WA0141301403000000000000
B1608053800382S06011568WA0140901399000000000000
B1608073800347S06011557WA0140601393000000000000
B1608093800312S06011544WA0140001385000000000000
B1608113800275S06011530WA0139301381000000000000
B1608133800240S06011514WA0139001378000000000000
B1608153800205S06011500WA0138701374000000000000
B1608173800169S06011486WA0138301370000000000000
B1608193800131S06011473WA0137801366000000000000
B1608213800094S06011460WA0137701363000000000000
B1608233800057S06011445WA0137201360000000000000
B1608253800020S06011432WA0137001359000000000000
B1608273759985S06011421WA0136901361000000000000
B1608293759950S06011406WA0137001365000000000000
B1608313759919S06011390WA0137701372000000000000
B1608333759892S06011365WA0138301380000000000000
B1608353759871S06011332WA0138801384000000000000
B1608373759859S06011292WA0139101384000000000000
B1608393759855S06011248WA0139301385000000000000
B1608413759845S06011206WA0139401385000000000000
B1608433759821S06011182WA0139401383000000000000
B1608453759795S06011184WA0139101377000000000000
B1608473759781S06011211WA0138801374000000000000
B1608493759789S06011244WA0138501377000000000000
B1608513759814S06011261WA0138701380000000000000
B1608533759846S06011257WA0138801380000000000000
B1608553759879S06011243WA0138601376000000000000
B1608573759912S06011226WA0138401376000000000000
B1608593759946S06011211WA0138401378000000000000
B1609013759979S06011197WA0138501382000000000000
B1609033800011S06011182WA0138901385000000000000
B1609053800042S06011163WA0139201389000000000000
B1609073800074S06011145WA0139501391000000000000
B1609093800105S06011124WA0139601392000000000000
B1609113800135S06011102WA0139901396000000000000
B1609133800165S06011078WA0140201400000000000000
B1609153800193S06011053WA0140501401000000000000
B1609173800221S06011024WA0140501399000000000000
B1609193800247S06010993WA0140301396000000000000
B1609213800267S06010955WA0140001391000000000000
B1609233800287S06010915WA0139401381000000000000
B1609253800308S06010870WA0138601373000000000000
B1609273800328S06010824WA0137801368000000000000
B1609293800349S06010776WA0137301361000000000000
B1609313800370S06010727WA0136701352000000000000
B1609333800391S06010676WA0135801341000000000000
B1609353800412S06010621WA0134801333000000000000
B1609373800434S06010567WA0134001327000000000000
B1609393800460S06010516WA0133501323000000000000
B1609413800491S06010468WA0132901317000000000000
B1609433800522S06010418WA0132301311000000000000
B1609453800555S06010370WA0131801307000000000000
B1609473800587S06010322WA0131801311000000000000
B1609493800618S06010275WA0132301316000000000000
B1609513800647S06010230WA0132401320000000000000
B1609533800676S06010186WA0132701318000000000000
B1609553800703S06010142WA0132601316000000000000
B1609573800730S06010096WA0132301312000000000000
B1609593800756S06010052WA0131901309000000000000
B1610013800781S06010005WA0131701309000000000000
B1610033800806S06009960WA0131601306000000000000
B1610053800830S06009911WA0131301301000000000000
B1610073800854S06009863WA0130801297000000000000
B1610093800877S06009813WA0130501297000000000000
B1610113800900S06009765WA0130701301000000000000
B1610133800924S06009716WA0130901301000000000000
B1610153800946S06009670WA0130801297000000000000
B1610173800968S06009620WA0130401295000000000000
B1610193800988S06009570WA0130301294000000000000
B1610213801006S06009518WA0130101293000000000000
B1610233801023S06009467WA0129901288000000000000
B1610253801041S06009412WA0129201278000000000000
B1610273801059S06009355WA0128201266000000000000
B1610293801079S06009297WA0127801261000000000000
B1610313801097S06009239WA0127401263000000000000
B1610333801118S06009183WA0127501264000000000000
B1610353801142S06009134WA0127701266000000000000
B1610373801172S06009090WA0127801269000000000000
B1610393801202S06009047WA0128001272000000000000
B1610413801231S06009005WA0128301275000000000000
B1610433801258S06008964WA0128501275000000000000
B1610453801281S06008921WA0128301272000000000000
B1610473801303S06008875WA0128201271000000000000
B1610493801323S06008830WA0128101269000000000000
B1610513801342S06008782WA0127601262000000000000
B1610533801362S06008731WA0126901255000000000000
B1610553801381S06008680WA0126201246000000000000
B1610573801402S06008628WA0125301235000000000000
B1610593801423S06008572WA0124501229000000000000
B1611013801443S06008517WA0124101228000000000000
B1611033801462S06008461WA0124201230000000000000
B1611053801480S06008406WA0124301232000000000000
B1611073801496S06008355WA0124601238000000000000
B1611093801513S06008305WA0125001239000000000000
B1611113801528S06008254WA0125101237000000000000
B1611133801543S06008202WA0124801234000000000000
B1611153801556S06008150WA0124601230000000000000
B1611173801569S06008098WA0124201227000000000000
B1611193801582S06008046WA0123901224000000000000
B1611213801595S06007993WA0123501217000000000000
B1611233801608S06007938WA0122901211000000000000
B1611253801618S06007882WA0122301206000000000000
B1611273801619S06007825WA0122001207000000000000
B1611293801615S06007770WA0122301211000000000000
B1611313801610S06007716WA0122701218000000000000
B1611333801605S06007665WA0123201223000000000000
B1611353801599S06007613WA0123901232000000000000
B1611373801591S06007564WA0124601237000000000000
B1611393801578S06007518WA0125001239000000000000
B1611413801565S06007473WA0125101244000000000000
B1611433801560S06007426WA0125601250000000000000
B1611453801566S06007380WA0126101252000000000000
B1611473801584S06007337WA0126201249000000000000
B1611493801608S06007298WA0126001246000000000000
B1611513801632S06007259WA0125601243000000000000
B1611533801657S06007217WA0125501240000000000000
B1611553801682S06007172WA0125101237000000000000
B1611573801708S06007126WA0124801238000000000000
B1611593801735S06007081WA0124901243000000000000
B1612013801760S06007040WA0125601254000000000000
B1612033801784S06006999WA0126401259000000000000
B1612053801809S06006959WA0126901263000000000000
B1612073801834S06006921WA0127301268000000000000
B1612093801857S06006885WA0127701268000000000000
B1612113801881S06006847WA0127801270000000000000
B1612133801904S06006811WA0127801270000000000000
B1612153801927S06006775WA0127801269000000000000
B1612173801951S06006739WA0127801269000000000000
B1612193801973S06006702WA0127801271000000000000
B1612213801995S06006665WA0128001274000000000000
B1612233802016S06006628WA0128301276000000000000
B1612253802035S06006590WA0128401276000000000000
B1612273802055S06006552WA0128401274000000000000
B1612293802077S06006515WA0128301274000000000000
B1612313802102S06006481WA0128301276000000000000
B1612333802126S06006446WA0128501278000000000000
B1612353802150S06006409WA0128801281000000000000
B1612373802172S06006372WA0128901283000000000000
B1612393802194S06006335WA0129201285000000000000
B1612413802217S06006300WA0129301285000000000000
B1612433802239S06006262WA0129201284000000000000
B1612453802256S06006219WA0129101283000000000000
B1612473802268S06006174WA0129001281000000000000
B1612493802276S06006126WA0128801278000000000000
B1612513802280S06006076WA0128501276000000000000
B1612533802282S06006027WA0128401276000000000000
B1612553802285S06005978WA0128301272000000000000
B1612573802288S06005927WA0127801266000000000000
B1612593802291S06005876WA0127401262000000000000
B1613013802294S06005826WA0127101261000000000000
B1613033802301S06005775WA0127101259000000000000
B1613053802317S06005731WA0127001259000000000000
B1613073802347S06005703WA0126901258000000000000
B1613093802380S06005702WA0126601256000000000000
B1613113802402S06005723WA0126501255000000000000
B1613133802412S06005753WA0126301252000000000000
B1613153802415S06005785WA0126001244000000000000
B1613173802410S06005820WA0125201232000000000000
B1613193802402S06005859WA0124201221000000000000
B1613213802394S06005900WA0123301213000000000000
B1613233802385S06005943WA0122501206000000000000
B1613253802375S06005985WA0121901204000000000000
B1613273802358S06006024WA0121701203000000000000
B1613293802340S06006062WA0121701203000000000000
B1613313802321S06006100WA0121701205000000000000
B1613333802302S06006136WA0121801207000000000000
B1613353802284S06006173WA0121901209000000000000
B1613373802265S06006209WA0122201214000000000000
B1613393802247S06006243WA0122801220000000000000
B1613413802228S06006273WA0123201224000000000000
B1613433802208S06006301WA0123601228000000000000
B1613453802190S06006331WA0124101232000000000000
B1613473802172S06006361WA0124501236000000000000
B1613493802156S06006391WA0124701239000000000000
B1613513802143S06006424WA0124701236000000000000
B1613533802142S06006459WA0124601235000000000000
B1613553802147S06006492WA0124301232000000000000
B1613573802147S06006526WA0123901229000000000000
B1613593802134S06006556WA0123801227000000000000
B1614013802116S06006581WA0123601226000000000000
B1614033802098S06006607WA0123601225000000000000
B1614053802082S06006635WA0123501221000000000000
B1614073802068S06006667WA0123001214000000000000
B1614093802055S06006699WA0122501209000000000000
B1614113802041S06006734WA0122101203000000000000
B1614133802025S06006769WA0121501196000000000000
B1614153802008S06006804WA0121301199000000000000
B1614173801990S06006837WA0121501201000000000000
B1614193801968S06006868WA0121501199000000000000
B1614213801943S06006897WA0121601206000000000000
B1614233801920S06006924WA0122401218000000000000
B1614253801895S06006949WA0123201224000000000000
B1614273801868S06006967WA0124001232000000000000
B1614293801848S06006990WA0124701240000000000000
B1614313801846S06007022WA0125301246000000000000
B1614333801862S06007048WA0125701250000000000000
B1614353801894S06007051WA0126001252000000000000
B1614373801922S06007028WA0126201254000000000000
B1614393801933S06006986WA0126601259000000000000
B1614413801924S06006947WA0126901262000000000000
B1614433801900S06006924WA0127101263000000000000
B1614453801873S06006923WA0127201264000000000000
B1614473801852S06006944WA0127401265000000000000
B1614493801846S06006975WA0127501268000000000000
B1614513801859S06007006WA0127801273000000000000
B1614533801885S06007022WA0128401278000000000000
B1614553801918S06007019WA0128801282000000000000
B1614573801948S06006996WA0129101284000000000000
B1614593801964S06006957WA0129301289000000000000
B1615013801960S06006914WA0129801294000000000000
B1615033801939S06006882WA0130101295000000000000
B1615053801911S06006871WA0130201295000000000000
B1615073801882S06006884WA0130201293000000000000
B1615093801868S06006915WA0130201295000000000000
B1615113801873S06006951WA0130601302000000000000
B1615133801896S06006976WA0131301308000000000000
B1615153801929S06006980WA0131801312000000000000
B1615173801959S06006959WA0132101315000000000000
B1615193801976S06006920WA0132401321000000000000
B1615213801972S06006876WA0133201329000000000000
B1615233801953S06006842WA0133901335000000000000
B1615253801925S06006827WA0134301338000000000000
B1615273801898S06006836WA0134701341000000000000
B1615293801882S06006862WA0134901344000000000000
B1615313801885S06006894WA0135301348000000000000
B1615333801904S06006916WA0135701353000000000000
B1615353801934S06006918WA0136201358000000000000
B1615373801963S06006898WA0136601361000000000000
B1615393801977S06006859WA0136801363000000000000
B1615413801981S06006814WA0137201370000000000000
B1615433801973S06006772WA0137801376000000000000
B1615453801952S06006741WA0138301379000000000000
B1615473801924S06006732WA0138301378000000000000
B1615493801899S06006746WA0138301379000000000000
B1615513801891S06006778WA0138501382000000000000
B1615533801903S06006808WA0138701384000000000000
B1615553801930S06006821WA0138901383000000000000
B1615573801963S06006806WA0139001388000000000000
B1615593801985S06006771WA0139301396000000000000
B1616013801990S06006728WA0140201405000000000000
B1616033801985S06006686WA0141001409000000000000
B1616053801965S06006655WA0141201408000000000000
B1616083801922S06006650WA0141101406000000000000
B1616103801905S06006676WA0141101406000000000000
B1616123801909S06006708WA0141101408000000000000
B1616143801930S06006734WA0141101409000000000000
B1616163801960S06006739WA0141201411000000000000
B1616183801990S06006728WA0141301413000000000000
B1616203802015S06006698WA0141501415000000000000
B1616223802028S06006656WA0141701418000000000000
B1616243802022S06006612WA0142101423000000000000
B1616263802000S06006580WA0142501429000000000000
B1616283801972S06006569WA0143101432000000000000
B1616303801947S06006580WA0143301433000000000000
B1616323801933S06006604WA0143401431000000000000
B1616343801933S06006635WA0143201430000000000000
B1616363801948S06006661WA0143101428000000000000
B1616383801974S06006674WA0143101430000000000000
B1616403802004S06006667WA0143201433000000000000
B1616423802028S06006641WA0143601435000000000000
B1616443802038S06006600WA0143801438000000000000
B1616453802037S06006578WA0144201443000000000000
B1616483802017S06006522WA0144701447000000000000
B1616503801996S06006492WA0144901448000000000000
B1616523801969S06006482WA0144901445000000000000
B1616543801946S06006495WA0144601440000000000000
B1616563801935S06006522WA0144001435000000000000
B1616583801944S06006552WA0143701430000000000000
B1617003801970S06006567WA0143201423000000000000
B1617023802002S06006557WA0142701422000000000000
B1617043802028S06006531WA0142701426000000000000
B1617063802052S06006502WA0143001429000000000000
B1617083802072S06006466WA0143301429000000000000
B1617103802077S06006424WA0143301430000000000000
B1617123802065S06006381WA0143401431000000000000
B1617143802042S06006348WA0143501432000000000000
B1617163802012S06006342WA0143701434000000000000
B1617183801990S06006359WA0143801436000000000000
B1617203801985S06006387WA0143801434000000000000
B1617223801996S06006414WA0143401430000000000000
B1617243802022S06006430WA0143101428000000000000
B1617263802052S06006424WA0142601422000000000000
B1617283802078S06006394WA0142301419000000000000
B1617303802091S06006351WA0142401423000000000000
B1617323802089S06006308WA0142701427000000000000
B1617343802072S06006273WA0143001430000000000000
B1617363802050S06006245WA0143201428000000000000
B1617383802024S06006222WA0142901421000000000000
B1617403801998S06006197WA0142401414000000000000
B1617423801970S06006173WA0141801409000000000000
B1617443801943S06006145WA0141401409000000000000
B1617463801916S06006122WA0141401407000000000000
B1617483801885S06006102WA0141201403000000000000
B1617503801852S06006086WA0140801400000000000000
B1617523801818S06006070WA0140601398000000000000
B1617543801783S06006061WA0140401396000000000000
B1617563801749S06006063WA0140201395000000000000
B1617583801719S06006079WA0140101395000000000000
B1618003801695S06006104WA0140001393000000000000
B1618023801673S06006134WA0139401380000000000000
B1618043801648S06006167WA0138201369000000000000
B1618063801623S06006203WA0137201361000000000000
B1618083801600S06006240WA0136401353000000000000
B1618103801575S06006281WA0135701347000000000000
B1618123801552S06006320WA0135301344000000000000
B1618143801528S06006360WA0134901340000000000000
B1618163801504S06006399WA0134701338000000000000
B1618183801480S06006437WA0134501335000000000000
B1618203801457S06006476WA0134401333000000000000
B1618223801435S06006513WA0134201330000000000000
B1618243801410S06006550WA0133801327000000000000
B1618263801384S06006583WA0133501323000000000000
B1618283801355S06006615WA0133101318000000000000
B1618303801327S06006645WA0132701314000000000000
B1618323801300S06006674WA0132301312000000000000
B1618343801271S06006703WA0132101310000000000000
B1618363801244S06006730WA0131801306000000000000
B1618383801212S06006752WA0131401302000000000000
B1618403801180S06006772WA0131001299000000000000
B1618423801146S06006785WA0130901299000000000000
B1618443801114S06006798WA0130801298000000000000
B1618463801086S06006824WA0130601297000000000000
B1618483801063S06006856WA0130601297000000000000
B1618503801041S06006889WA0130801300000000000000
B1618523801016S06006918WA0131501310000000000000
B1618543800999S06006945WA0132801328000000000000
B1618563800998S06006976WA0134101339000000000000
B1618583801014S06007005WA0134401345000000000000
B1619003801046S06007018WA0134901350000000000000
B1619023801081S06007007WA0135301356000000000000
B1619043801108S06006975WA0135901361000000000000
B1619063801119S06006931WA0136401365000000000000
B1619083801114S06006889WA0136701366000000000000
B1619103801094S06006859WA0136701364000000000000
B1619123801068S06006847WA0136701361000000000000
B1619143801047S06006859WA0136601362000000000000
B1619163801041S06006888WA0136901370000000000000
B1619183801051S06006915WA0137501375000000000000
B1619203801076S06006932WA0137901377000000000000
B1619223801108S06006932WA0137901375000000000000
B1619243801141S06006911WA0137901375000000000000
B1619263801162S06006871WA0138001377000000000000
B1619283801163S06006825WA0138101376000000000000
B1619303801146S06006789WA0138201377000000000000
B1619323801120S06006771WA0138301377000000000000
B1619343801095S06006777WA0138301378000000000000
B1619363801082S06006801WA0138601383000000000000
B1619383801085S06006832WA0139001387000000000000
B1619403801098S06006862WA0139201391000000000000
B1619423801125S06006877WA0139501392000000000000
B1619443801159S06006864WA0139701394000000000000
B1619463801181S06006830WA0139901396000000000000
B1619483801185S06006788WA0139901393000000000000
B1619503801170S06006752WA0139701391000000000000
B1619523801144S06006737WA0139601389000000000000
B1619543801120S06006745WA0139701392000000000000
B1619563801108S06006769WA0139901396000000000000
B1619583801108S06006799WA0140401401000000000000
B1620003801124S06006824WA0140601401000000000000
B1620023801155S06006828WA0140701402000000000000
B1620043801185S06006806WA0140801405000000000000
B1620063801202S06006768WA0141201407000000000000
B1620083801201S06006725WA0141301406000000000000
B1620103801184S06006694WA0141201404000000000000
B1620123801159S06006684WA0141001402000000000000
B1620143801138S06006698WA0141001406000000000000
B1620163801129S06006725WA0141301409000000000000
B1620183801129S06006756WA0141601413000000000000
B1620203801145S06006784WA0141901416000000000000
B1620223801173S06006794WA0142201420000000000000
B1620243801206S06006781WA0142601424000000000000
B1620263801231S06006750WA0143001427000000000000
B1620283801242S06006708WA0143101427000000000000
B1620303801238S06006665WA0143101427000000000000
B1620323801222S06006634WA0143101427000000000000
B1620343801196S06006620WA0143201427000000000000
B1620363801173S06006628WA0143301430000000000000
B1620383801160S06006651WA0143701435000000000000
B1620403801162S06006678WA0144201440000000000000
B1620423801176S06006706WA0144601443000000000000
B1620443801202S06006720WA0144701443000000000000
B1620463801236S06006713WA0144801444000000000000
B1620483801263S06006684WA0144801444000000000000
B1620503801275S06006638WA0144801444000000000000
B1620523801266S06006596WA0144901446000000000000
B1620543801242S06006572WA0145001446000000000000
B1620563801216S06006570WA0145001444000000000000
B1620583801201S06006593WA0144901444000000000000
B1621003801202S06006624WA0145001447000000000000
B1621023801212S06006656WA0145201452000000000000
B1621043801235S06006678WA0145601453000000000000
B1621063801267S06006681WA0145801454000000000000
B1621083801297S06006658WA0145901457000000000000
B1621103801314S06006617WA0146101457000000000000
B1621123801315S06006573WA0146101456000000000000
B1621143801301S06006534WA0146101456000000000000
B1621163801281S06006502WA0146101455000000000000
B1621183801255S06006481WA0146001454000000000000
B1621203801228S06006474WA0146001456000000000000
B1621223801202S06006478WA0146201459000000000000
B1621243801183S06006495WA0146401464000000000000
B1621263801175S06006520WA0147301471000000000000
B1621283801181S06006548WA0147501472000000000000
B1621303801203S06006568WA0147601471000000000000
B1621323801236S06006573WA0147501470000000000000
B1621343801270S06006559WA0147401471000000000000
B1621363801298S06006530WA0147501472000000000000
B1621383801326S06006500WA0147601473000000000000
B1621403801357S06006482WA0147701472000000000000
B1621423801389S06006483WA0147501470000000000000
B1621443801414S06006503WA0147401469000000000000
B1621463801423S06006533WA0147301465000000000000
B1621483801420S06006563WA0147001461000000000000
B1621503801411S06006590WA0146601458000000000000
B1621523801401S06006619WA0146001452000000000000
B1621543801389S06006651WA0145801448000000000000
B1621563801379S06006684WA0145401447000000000000
B1621583801367S06006716WA0145301448000000000000
B1622003801359S06006751WA0145501451000000000000
B1622023801350S06006784WA0145801453000000000000
B1622043801336S06006814WA0146001454000000000000
B1622063801319S06006842WA0146001455000000000000
B1622083801301S06006871WA0146101457000000000000
B1622103801285S06006901WA0146501461000000000000
B1622123801270S06006928WA0146601462000000000000
B1622143801255S06006957WA0146601460000000000000
B1622163801241S06006984WA0146501456000000000000
B1622183801228S06007014WA0146101450000000000000
B1622203801214S06007045WA0145401441000000000000
B1622223801198S06007077WA0144501434000000000000
B1622243801181S06007111WA0143801424000000000000
B1622263801164S06007148WA0142901415000000000000
B1622283801146S06007185WA0142101408000000000000
B1622303801129S06007224WA0141401398000000000000
B1622323801111S06007266WA0140601391000000000000
B1622343801090S06007306WA0139801388000000000000
B1622363801071S06007347WA0139601386000000000000
B1622383801050S06007386WA0139301384000000000000
B1622403801032S06007426WA0139201381000000000000
B1622423801012S06007465WA0139001379000000000000
B1622443800995S06007505WA0138701376000000000000
B1622463800977S06007545WA0138301371000000000000
B1622483800956S06007583WA0138001366000000000000
B1622503800932S06007617WA0137501363000000000000
B1622523800906S06007648WA0137101361000000000000
B1622543800880S06007678WA0137001360000000000000
B1622563800854S06007708WA0136801358000000000000
B1622583800829S06007738WA0136501354000000000000
B1623003800803S06007766WA0135901349000000000000
B1623023800777S06007794WA0135801347000000000000
B1623043800750S06007818WA0135601346000000000000
B1623063800724S06007844WA0135501344000000000000
B1623083800698S06007870WA0135201341000000000000
B1623103800672S06007896WA0135201345000000000000
B1623123800646S06007919WA0135601349000000000000
B1623143800620S06007939WA0135901350000000000000
B1623163800594S06007959WA0136101354000000000000
B1623183800568S06007976WA0136801364000000000000
B1623203800544S06007990WA0137601373000000000000
B1623223800526S06008011WA0138501381000000000000
B1623243800522S06008041WA0139101388000000000000
B1623263800534S06008069WA0139601393000000000000
B1623283800559S06008082WA0139901395000000000000
B1623303800588S06008075WA0140201398000000000000
B1623323800614S06008046WA0140301401000000000000
B1623343800625S06008006WA0140901407000000000000
B1623363800622S06007964WA0141401412000000000000
B1623383800605S06007933WA0141801415000000000000
B1623403800581S06007919WA0142201420000000000000
B1623423800557S06007924WA0142701425000000000000
B1623443800542S06007946WA0143101429000000000000
B1623463800540S06007974WA0143501432000000000000
B1623483800553S06008003WA0143701436000000000000
B1623503800579S06008016WA0144001441000000000000
B1623523800611S06008011WA0144501445000000000000
B1623543800637S06007985WA0144901450000000000000
B1623563800651S06007947WA0145401454000000000000
B1623583800651S06007906WA0145801458000000000000
B1624003800638S06007870WA0146201461000000000000
B1624023800614S06007848WA0146501463000000000000
B1624043800588S06007844WA0146901466000000000000
B1624063800566S06007857WA0147201471000000000000
B1624083800556S06007883WA0147601477000000000000
B1624103800557S06007913WA0148201480000000000000
B1624123800574S06007939WA0148501483000000000000
B1624143800600S06007952WA0148601485000000000000
B1624163800631S06007947WA0148901488000000000000
B1624183800660S06007922WA0149201493000000000000
B1624203800676S06007886WA0149701500000000000000
B1624223800679S06007844WA0150301504000000000000
B1624243800668S06007808WA0150601505000000000000
B1624263800646S06007783WA0150801506000000000000
B1624283800618S06007776WA0151001508000000000000
B1624303800596S06007787WA0151401512000000000000
B1624323800586S06007816WA0151701516000000000000
B1624343800594S06007848WA0151901521000000000000
B1624363800617S06007868WA0152401527000000000000
B1624383800648S06007868WA0152901533000000000000
B1624403800677S06007846WA0153401538000000000000
B1624423800692S06007808WA0154001543000000000000
B1624443800692S06007765WA0154401547000000000000
B1624463800678S06007730WA0154801548000000000000
B1624483800653S06007708WA0154901548000000000000
B1624503800626S06007701WA0155001549000000000000
B1624523800599S06007707WA0155201554000000000000
B1624543800575S06007722WA0155401559000000000000
B1624563800564S06007747WA0156101565000000000000
B1624583800566S06007778WA0156701568000000000000
B1625003800583S06007804WA0156701567000000000000
B1625023800611S06007816WA0156701568000000000000
B1625043800643S06007808WA0156701567000000000000
B1625063800670S06007779WA0156801569000000000000
B1625083800685S06007738WA0157101576000000000000
B1625103800682S06007696WA0157701583000000000000
B1625123800665S06007664WA0158301585000000000000
B1625143800638S06007646WA0158501585000000000000
B1625163800611S06007648WA0158501585000000000000
B1625183800592S06007670WA0158601588000000000000
B1625203800591S06007704WA0158901590000000000000
B1625223800605S06007734WA0159101592000000000000
B1625243800633S06007752WA0159101597000000000000
B1625263800665S06007750WA0159601603000000000000
B1625283800695S06007729WA0160201608000000000000
B1625303800717S06007696WA0160801612000000000000
B1625323800728S06007657WA0161201617000000000000
B1625343800721S06007618WA0161601619000000000000
B1625363800700S06007591WA0161801619000000000000
B1625383800673S06007583WA0161801617000000000000
B1625403800650S06007596WA0161701618000000000000
B1625423800642S06007626WA0161801621000000000000
B1625443800648S06007659WA0162101623000000000000
B1625463800660S06007691WA0162201624000000000000
B1625483800663S06007727WA0162401626000000000000
B1625503800661S06007764WA0162501628000000000000
B1625523800668S06007799WA0162601630000000000000
B1625543800685S06007831WA0162801629000000000000
B1625563800711S06007857WA0162801627000000000000
B1625583800737S06007885WA0162701627000000000000
B1626003800764S06007908WA0162801629000000000000
B1626023800798S06007916WA0163001632000000000000
B1626043800829S06007898WA0163101633000000000000
B1626063800845S06007857WA0163201632000000000000
B1626083800846S06007809WA0163101630000000000000
B1626103800835S06007763WA0163101635000000000000
B1626123800813S06007727WA0163701643000000000000
B1626143800783S06007713WA0164501651000000000000
B1626163800756S06007722WA0165301655000000000000
B1626183800741S06007751WA0165601656000000000000
B1626203800741S06007787WA0165601657000000000000
B1626223800755S06007818WA0165601657000000000000
B1626243800781S06007838WA0165801661000000000000
B1626263800812S06007846WA0166101663000000000000
B1626283800843S06007846WA0166201662000000000000
B1626303800877S06007843WA0166101661000000000000
B1626323800911S06007839WA0166101661000000000000
B1626343800946S06007835WA0166101662000000000000
B1626363800982S06007830WA0166101661000000000000
B1626383801020S06007826WA0165901657000000000000
B1626403801059S06007822WA0165501649000000000000
B1626423801101S06007821WA0164801641000000000000
B1626443801144S06007829WA0164101635000000000000
B1626463801183S06007847WA0163701632000000000000
B1626483801219S06007870WA0163201627000000000000
B1626503801257S06007895WA0162801621000000000000
B1626523801294S06007921WA0162101615000000000000
B1626543801332S06007948WA0161601609000000000000
B1626563801371S06007974WA0161101605000000000000
B1626583801409S06008000WA0160601601000000000000
B1627003801448S06008024WA0160301597000000000000
B1627023801485S06008047WA0159901592000000000000
B1627043801524S06008072WA0159101583000000000000
B1627063801565S06008097WA0158201574000000000000
B1627083801605S06008123WA0157401566000000000000
B1627103801645S06008149WA0156901558000000000000
B1627123801687S06008176WA0156201552000000000000
B1627143801727S06008203WA0155601547000000000000
B1627163801768S06008231WA0154901542000000000000
B1627183801808S06008258WA0154501536000000000000
B1627203801847S06008286WA0154001531000000000000
B1627223801887S06008314WA0153601528000000000000
B1627243801926S06008342WA0153301527000000000000
B1627263801965S06008371WA0153201524000000000000
B1627283802004S06008398WA0152901520000000000000
B1627303802043S06008424WA0152401516000000000000
B1627323802083S06008452WA0152101512000000000000
B1627343802124S06008478WA0151601508000000000000
B1627363802164S06008504WA0151201502000000000000
B1627383802206S06008531WA0150501496000000000000
B1627403802247S06008557WA0150101493000000000000
B1627423802288S06008584WA0149801491000000000000
B1627443802328S06008611WA0149701490000000000000
B1627463802367S06008639WA0149601488000000000000
B1627483802406S06008666WA0149401485000000000000
B1627503802445S06008691WA0149001480000000000000
B1627523802484S06008717WA0148601476000000000000
B1627543802523S06008743WA0148101471000000000000
B1627563802561S06008770WA0147601465000000000000
B1627583802598S06008800WA0147001459000000000000
B1628003802633S06008832WA0146301452000000000000
B1628023802667S06008868WA0145701445000000000000
B1628043802702S06008904WA0145001439000000000000
B1628063802737S06008942WA0144901441000000000000
B1628083802774S06008978WA0145301449000000000000
B1628103802808S06009013WA0146101460000000000000
B1628123802839S06009047WA0147101470000000000000
B1628143802869S06009081WA0147901477000000000000
B1628163802896S06009113WA0148701486000000000000
B1628183802923S06009143WA0149601496000000000000
B1628203802948S06009170WA0150601506000000000000
B1628223802973S06009196WA0151501514000000000000
B1628243802996S06009221WA0151901517000000000000
B1628263803019S06009248WA0152201517000000000000
B1628283803043S06009276WA0152101516000000000000
B1628303803068S06009303WA0152101515000000000000
B1628323803092S06009332WA0151901512000000000000
B1628343803118S06009360WA0151701509000000000000
B1628363803144S06009388WA0151301506000000000000
B1628383803172S06009416WA0150901502000000000000
B1628403803198S06009445WA0150801502000000000000
B1628423803225S06009473WA0150801503000000000000
B1628443803252S06009499WA0151001506000000000000
B1628463803278S06009527WA0151201507000000000000
B1628483803304S06009555WA0151301508000000000000
B1628503803329S06009584WA0151301505000000000000
B1628523803352S06009614WA0151001502000000000000
B1628543803377S06009645WA0150701499000000000000
B1628563803402S06009676WA0150401497000000000000
B1628583803426S06009706WA0150301492000000000000
B1629003803454S06009737WA0150001490000000000000
B1629023803481S06009767WA0149701485000000000000
B1629043803508S06009800WA0149101476000000000000
B1629063803537S06009833WA0148501473000000000000
B1629083803563S06009866WA0148401478000000000000
B1629103803588S06009898WA0148801483000000000000
B1629123803612S06009930WA0149201487000000000000
B1629143803636S06009960WA0149501490000000000000
B1629163803659S06009989WA0149801495000000000000
B1629183803680S06010021WA0150201499000000000000
B1629203803699S06010051WA0150601503000000000000
B1629223803719S06010080WA0150801504000000000000
B1629243803737S06010108WA0150901503000000000000
B1629263803758S06010136WA0150901503000000000000
B1629283803777S06010164WA0150801501000000000000
B1629303803797S06010192WA0150601497000000000000
B1629323803816S06010223WA0150101490000000000000
B1629343803836S06010259WA0149401485000000000000
B1629363803855S06010291WA0149301487000000000000
B1629383803876S06010324WA0149301492000000000000
B1629403803894S06010356WA0149801496000000000000
B1629423803909S06010390WA0150101497000000000000
B1629443803920S06010426WA0150201494000000000000
B1629463803928S06010464WA0150001490000000000000
B1629483803933S06010504WA0149501484000000000000
B1629503803940S06010546WA0149001480000000000000
B1629523803945S06010590WA0148601475000000000000
B1629543803950S06010634WA0148001465000000000000
B1629563803959S06010681WA0147001458000000000000
B1629583803979S06010724WA0146501457000000000000
B1630003804007S06010759WA0146601457000000000000
B1630023804036S06010793WA0146501458000000000000
B1630043804066S06010825WA0146601460000000000000
B1630063804093S06010857WA0146501458000000000000
B1630083804122S06010888WA0146301455000000000000
B1630103804149S06010920WA0146101454000000000000
B1630123804178S06010951WA0146001451000000000000
B1630143804205S06010984WA0145801448000000000000
B1630163804227S06011020WA0145601446000000000000
B1630183804241S06011062WA0145101439000000000000
B1630203804251S06011107WA0144501432000000000000
B1630223804256S06011156WA0143901427000000000000
B1630243804261S06011202WA0143701426000000000000
B1630263804265S06011249WA0143601426000000000000
B1630283804270S06011296WA0143601426000000000000
B1630303804275S06011341WA0143601427000000000000
B1630323804279S06011387WA0143601427000000000000
B1630343804283S06011431WA0143601427000000000000
B1630363804286S06011475WA0143701427000000000000
B1630383804290S06011521WA0143601426000000000000
B1630403804291S06011565WA0143501426000000000000
B1630423804291S06011611WA0143501428000000000000
B1630443804291S06011653WA0143701429000000000000
B1630463804291S06011696WA0143701430000000000000
B1630483804292S06011738WA0143801429000000000000
B1630503804292S06011780WA0143601428000000000000
B1630523804293S06011820WA0143501427000000000000
B1630543804293S06011861WA0143401426000000000000
B1630563804295S06011900WA0143301425000000000000
B1630583804296S06011941WA0143301423000000000000
B1631003804297S06011980WA0143101422000000000000
B1631023804299S06012020WA0143001422000000000000
B1631053804301S06012076WA0143001422000000000000
B1631083804304S06012132WA0142801415000000000000
B1631103804304S06012170WA0142301406000000000000
B1631123804304S06012210WA0141401398000000000000
B1631143804303S06012251WA0140801392000000000000
B1631163804300S06012294WA0140101385000000000000
B1631183804299S06012337WA0139601378000000000000
B1631203804299S06012381WA0139001374000000000000
B1631223804296S06012426WA0138501373000000000000
B1631243804293S06012470WA0138601376000000000000
B1631263804290S06012511WA0138801376000000000000
B1631283804284S06012554WA0138801378000000000000
B1631303804279S06012596WA0139101381000000000000
B1631323804273S06012636WA0139601390000000000000
B1631343804264S06012673WA0140401398000000000000
B1631363804252S06012706WA0141101405000000000000
B1631383804247S06012740WA0141901412000000000000
B1631403804256S06012770WA0142401417000000000000
B1631423804280S06012787WA0142701418000000000000
B1631443804313S06012784WA0142701415000000000000
B1631463804343S06012760WA0142601414000000000000
B1631483804358S06012718WA0142501415000000000000
B1631503804357S06012671WA0142501416000000000000
B1631523804340S06012635WA0142601413000000000000
B1631543804312S06012618WA0142501412000000000000
B1631563804283S06012621WA0142401415000000000000
B1631583804258S06012635WA0142601417000000000000
B1632013804226S06012662WA0143101423000000000000
B1632033804210S06012687WA0143401424000000000000
B1632053804212S06012718WA0143601425000000000000
B1632073804231S06012743WA0143701428000000000000
B1632093804264S06012747WA0143701429000000000000
B1632113804293S06012725WA0143801429000000000000
B1632133804309S06012684WA0143701426000000000000
B1632153804304S06012641WA0143501424000000000000
B1632173804282S06012612WA0143501425000000000000
B1632193804253S06012602WA0143701430000000000000
B1632213804228S06012609WA0144101434000000000000
B1632233804206S06012625WA0144401435000000000000
B1632253804187S06012644WA0144601437000000000000
B1632273804170S06012666WA0144801440000000000000
B1632293804158S06012693WA0145001441000000000000
B1632313804149S06012723WA0144901439000000000000
B1632333804140S06012756WA0144501432000000000000
B1632353804130S06012792WA0143801423000000000000
B1632373804119S06012830WA0143001416000000000000
B1632393804108S06012869WA0142301409000000000000
B1632413804097S06012909WA0141601400000000000000
B1632433804087S06012953WA0140701391000000000000
B1632453804078S06013000WA0139901383000000000000
B1632473804067S06013048WA0139201377000000000000
B1632493804056S06013095WA0138801377000000000000
B1632513804044S06013141WA0138601375000000000000
B1632533804032S06013186WA0138401370000000000000
B1632553804019S06013233WA0137901367000000000000
B1632573804006S06013278WA0137701365000000000000
B1632593803993S06013324WA0137501364000000000000
B1633013803980S06013367WA0137301363000000000000
B1633033803966S06013410WA0137501365000000000000
B1633053803952S06013449WA0137801371000000000000
B1633073803937S06013486WA0138501379000000000000
B1633093803923S06013520WA0138801383000000000000
B1633113803906S06013550WA0139201384000000000000
B1633133803885S06013575WA0139401388000000000000
B1633153803859S06013588WA0139701393000000000000
B1633173803831S06013587WA0140201397000000000000
B1633193803803S06013570WA0140701401000000000000
B1633213803780S06013538WA0141101402000000000000
B1633233803768S06013497WA0141101402000000000000
B1633253803770S06013451WA0141101401000000000000
B1633273803785S06013408WA0141401406000000000000
B1633293803814S06013382WA0141801411000000000000
B1633313803844S06013360WA0142201414000000000000
B1633333803867S06013327WA0142601417000000000000
B1633353803872S06013284WA0142901420000000000000
B1633373803855S06013250WA0143101419000000000000
B1633393803829S06013239WA0143001415000000000000
B1633413803806S06013255WA0142701412000000000000
B1633433803797S06013286WA0142401414000000000000
B1633453803790S06013319WA0142501417000000000000
B1633473803793S06013351WA0142701415000000000000
B1633493803814S06013377WA0142501411000000000000
B1633513803846S06013389WA0142201409000000000000
B1633533803880S06013392WA0142301415000000000000
B1633553803913S06013375WA0142601416000000000000
B1633573803937S06013338WA0142601414000000000000
B1633593803949S06013294WA0142501413000000000000
B1634013803954S06013247WA0142501412000000000000
B1634033803961S06013202WA0142501413000000000000
B1634053803975S06013159WA0142501418000000000000
B1634073803992S06013121WA0143001423000000000000
B1634093804005S06013082WA0143401425000000000000
B1634113804005S06013042WA0143601425000000000000
B1634133803992S06013008WA0143601422000000000000
B1634153803968S06012991WA0143301417000000000000
B1634173803945S06012994WA0142801408000000000000
B1634193803927S06013016WA0141901396000000000000
B1634213803922S06013054WA0140801390000000000000
B1634233803928S06013094WA0140601394000000000000
B1634253803937S06013134WA0141001402000000000000
B1634273803945S06013172WA0141601408000000000000
B1634293803950S06013210WA0142301413000000000000
B1634313803944S06013245WA0142701417000000000000
B1634333803936S06013277WA0143001418000000000000
B1634353803942S06013307WA0143101417000000000000
B1634373803966S06013325WA0143001416000000000000
B1634393803996S06013319WA0142901417000000000000
B1634413804017S06013289WA0143001416000000000000
B1634433804019S06013249WA0142901414000000000000
B1634453804005S06013212WA0142401407000000000000
B1634473803980S06013178WA0141601396000000000000
B1634493803954S06013145WA0140701389000000000000
B1634513803927S06013109WA0140201385000000000000
B1634533803897S06013073WA0140001385000000000000
B1634553803866S06013043WA0140201391000000000000
B1634573803833S06013028WA0140501395000000000000
B1634593803801S06013021WA0140701391000000000000
B1635013803768S06013020WA0140301385000000000000
B1635033803736S06013021WA0139801380000000000000
B1635053803703S06013022WA0139201373000000000000
B1635073803669S06013025WA0138601365000000000000
B1635093803634S06013029WA0137801359000000000000
B1635113803599S06013034WA0137101352000000000000
B1635133803563S06013041WA0136501347000000000000
B1635153803526S06013047WA0136001343000000000000
B1635173803490S06013055WA0135701341000000000000
B1635193803455S06013063WA0135401339000000000000
B1635213803419S06013069WA0135401337000000000000
B1635233803382S06013077WA0135101334000000000000
B1635253803347S06013086WA0134601326000000000000
B1635273803311S06013100WA0133801314000000000000
B1635293803272S06013117WA0132601304000000000000
B1635313803231S06013130WA0131901302000000000000
B1635333803190S06013142WA0131901303000000000000
B1635353803149S06013152WA0132001301000000000000
B1635373803109S06013164WA0131801295000000000000
B1635393803070S06013178WA0131201288000000000000
B1635413803032S06013197WA0130801290000000000000
B1635433802997S06013216WA0130801294000000000000
B1635453802967S06013242WA0130901290000000000000
B1635473802943S06013277WA0130601288000000000000
B1635493802918S06013306WA0130401291000000000000
B1635513802891S06013327WA0130701291000000000000
B1635533802861S06013343WA0130601288000000000000
B1635553802831S06013358WA0130101282000000000000
B1635573802800S06013373WA0129501274000000000000
B1635593802767S06013392WA0128801267000000000000
B1636013802735S06013411WA0128301265000000000000
B1636033802701S06013432WA0128201267000000000000
B1636053802668S06013453WA0128401268000000000000
B1636073802636S06013470WA0128401270000000000000
B1636093802605S06013488WA0128601271000000000000
B1636113802572S06013505WA0128501267000000000000
B1636133802538S06013522WA0128301268000000000000
B1636153802505S06013537WA0128501271000000000000
B1636173802472S06013553WA0128701272000000000000
B1636193802441S06013567WA0128801275000000000000
B1636213802410S06013581WA0129001273000000000000
B1636233802377S06013593WA0129001270000000000000
B1636253802342S06013602WA0128701270000000000000
B1636273802307S06013609WA0128601269000000000000
B1636293802272S06013616WA0128601269000000000000
B1636313802236S06013626WA0128501270000000000000
B1636333802199S06013631WA0128601273000000000000
B1636353802163S06013632WA0129001275000000000000
B1636373802126S06013633WA0129101277000000000000
B1636393802090S06013633WA0129301279000000000000
B1636413802056S06013633WA0129501282000000000000
B1636433802022S06013635WA0129801285000000000000
B1636453801991S06013640WA0130001285000000000000
B1636473801965S06013661WA0130001284000000000000
B1636493801951S06013692WA0129701278000000000000
B1636513801953S06013728WA0129301274000000000000
B1636533801972S06013758WA0129001276000000000000
B1636553801999S06013772WA0129101276000000000000
B1636573802030S06013767WA0129001275000000000000
B1636593802057S06013745WA0129001272000000000000
B1637013802076S06013710WA0128701269000000000000
B1637033802080S06013668WA0128501267000000000000
B1637053802073S06013628WA0128301262000000000000
B1637073802061S06013588WA0127701252000000000000
B1637093802047S06013545WA0126701242000000000000
B1637113802030S06013501WA0125901234000000000000
B1637133802013S06013454WA0125001217000000000000
B1637153801994S06013406WA0123601204000000000000
B1637173801972S06013355WA0122401195000000000000
B1637193801950S06013303WA0121801196000000000000
B1637213801929S06013251WA0122001201000000000000
B1637233801907S06013202WA0122501205000000000000
B1637253801885S06013154WA0122601206000000000000
B1637273801862S06013107WA0122901211000000000000
B1637293801842S06013060WA0123401218000000000000
B1637313801823S06013013WA0124101225000000000000
B1637333801810S06012965WA0124601230000000000000
B1637353801799S06012920WA0125201236000000000000
B1637373801781S06012879WA0125701241000000000000
B1637393801752S06012860WA0125901244000000000000
B1637413801722S06012869WA0126101244000000000000
B1637433801709S06012899WA0126101244000000000000
B1637453801712S06012934WA0126301246000000000000
B1637473801726S06012965WA0126301247000000000000
B1637493801751S06012982WA0126501247000000000000
B1637513801779S06012982WA0126501246000000000000
B1637533801807S06012961WA0126501247000000000000
B1637553801825S06012926WA0126401247000000000000
B1637573801829S06012882WA0126401245000000000000
B1637593801826S06012836WA0126501247000000000000
B1638013801823S06012794WA0126601248000000000000
B1638033801821S06012749WA0126801250000000000000
B1638053801817S06012706WA0126901251000000000000
B1638073801808S06012664WA0127101253000000000000
B1638093801788S06012627WA0127001251000000000000
B1638113801768S06012589WA0126801249000000000000
B1638133801753S06012547WA0126801251000000000000
B1638153801745S06012502WA0127001253000000000000
B1638173801740S06012456WA0127001253000000000000
B1638193801734S06012410WA0127001250000000000000
B1638213801729S06012363WA0126701246000000000000
B1638233801722S06012318WA0126501244000000000000
B1638253801713S06012271WA0126201242000000000000
B1638273801699S06012225WA0125801233000000000000
B1638293801684S06012177WA0125101224000000000000
B1638313801675S06012123WA0124301216000000000000
B1638333801677S06012066WA0123601210000000000000
B1638353801687S06012010WA0123001205000000000000
B1638373801703S06011955WA0122601202000000000000
B1638393801721S06011903WA0122201197000000000000
B1638413801740S06011850WA0121901194000000000000
B1638433801758S06011798WA0121501192000000000000
B1638453801778S06011746WA0121201190000000000000
B1638473801797S06011695WA0121201189000000000000
B1638493801817S06011644WA0121101187000000000000
B1638513801838S06011594WA0120701182000000000000
B1638533801857S06011542WA0120201175000000000000
B1638553801879S06011490WA0119401168000000000000
B1638573801901S06011436WA0118801162000000000000
B1638593801924S06011383WA0118601159000000000000
B1639013801946S06011328WA0118101153000000000000
B1639033801969S06011275WA0117401146000000000000
B1639053801994S06011222WA0116701141000000000000
B1639073802017S06011169WA0116501141000000000000
B1639093802041S06011117WA0116401139000000000000
B1639113802064S06011066WA0116001136000000000000
B1639133802086S06011014WA0115701131000000000000
B1639153802109S06010963WA0115201125000000000000
B1639173802133S06010912WA0114701119000000000000
B1639193802158S06010860WA0114101113000000000000
B1639213802181S06010808WA0113601108000000000000
B1639233802204S06010755WA0113001102000000000000
B1639253802228S06010702WA0112401094000000000000
B1639273802252S06010647WA0111501086000000000000
B1639293802277S06010594WA0110901080000000000000
B1639313802302S06010539WA0110301074000000000000
B1639333802325S06010485WA0110001068000000000000
B1639353802350S06010430WA0109501065000000000000
B1639373802373S06010376WA0109301066000000000000
B1639393802397S06010322WA0109201063000000000000
B1639413802420S06010269WA0108901059000000000000
B1639433802444S06010216WA0108401054000000000000
B1639453802467S06010164WA0108001049000000000000
B1639473802490S06010110WA0107601045000000000000
B1639493802512S06010057WA0107201045000000000000
B1639513802533S06010006WA0107301049000000000000
B1639533802554S06009958WA0107601051000000000000
B1639553802576S06009910WA0107601051000000000000
B1639573802597S06009861WA0107701053000000000000
B1639593802616S06009813WA0108001057000000000000
B1640013802637S06009763WA0108401062000000000000
B1640033802657S06009714WA0108901069000000000000
B1640053802676S06009667WA0109401070000000000000
B1640073802696S06009620WA0109301069000000000000
B1640093802715S06009573WA0109201071000000000000
B1640113802735S06009529WA0109401075000000000000
B1640133802756S06009484WA0109801078000000000000
B1640153802776S06009438WA0110201085000000000000
B1640173802798S06009395WA0110901094000000000000
B1640193802819S06009354WA0111801103000000000000
B1640213802834S06009312WA0112601109000000000000
B1640233802830S06009271WA0112901108000000000000
B1640253802806S06009247WA0112901101000000000000
B1640273802778S06009252WA0112401095000000000000
B1640293802761S06009281WA0111801095000000000000
B1640313802758S06009316WA0112001098000000000000
B1640333802763S06009351WA0112601102000000000000
B1640353802780S06009381WA0112901108000000000000
B1640373802809S06009393WA0113401116000000000000
B1640393802840S06009381WA0113901119000000000000
B1640413802865S06009350WA0114201120000000000000
B1640433802874S06009307WA0114301123000000000000
B1640453802865S06009267WA0114501124000000000000
B1640473802843S06009242WA0114501122000000000000
B1640493802818S06009238WA0114301116000000000000
B1640513802797S06009255WA0113801112000000000000
B1640533802791S06009284WA0113701111000000000000
B1640553802802S06009313WA0113601112000000000000
B1640573802826S06009333WA0113801115000000000000
B1640593802856S06009345WA0114001118000000000000
B1641013802883S06009362WA0114401122000000000000
B1641033802897S06009390WA0114701128000000000000
B1641053802899S06009421WA0115301136000000000000
B1641073802897S06009451WA0115901140000000000000
B1641093802908S06009481WA0116201139000000000000
B1641113802932S06009498WA0116101134000000000000
B1641123802949S06009497WA0115701129000000000000
B1641153802988S06009449WA0115301126000000000000
B1641173802987S06009403WA0115001126000000000000
B1641193802964S06009375WA0115201131000000000000
B1641213802935S06009372WA0115501136000000000000
B1641233802909S06009386WA0116101142000000000000
B1641253802891S06009410WA0116701145000000000000
B1641273802892S06009442WA0116901146000000000000
B1641293802914S06009464WA0116901146000000000000
B1641313802947S06009464WA0116801143000000000000
B1641333802977S06009436WA0116701141000000000000
B1641353802991S06009391WA0116501141000000000000
B1641373802983S06009347WA0116701142000000000000
B1641393802960S06009319WA0116801146000000000000
B1641413802930S06009308WA0117101149000000000000
B1641433802901S06009310WA0117601155000000000000
B1641453802882S06009330WA0118001159000000000000
B1641473802878S06009365WA0118401162000000000000
B1641493802893S06009395WA0118401161000000000000
B1641513802923S06009403WA0118201159000000000000
B1641533802956S06009384WA0117901154000000000000
B1641553802974S06009343WA0117701151000000000000
B1641573802971S06009297WA0117301148000000000000
B1641593802952S06009260WA0117201148000000000000
B1642013802923S06009247WA0117701157000000000000
B1642033802896S06009254WA0118401164000000000000
B1642053802871S06009267WA0119001169000000000000
B1642073802858S06009291WA0119201168000000000000
B1642093802869S06009319WA0119201164000000000000
B1642113802896S06009326WA0118601159000000000000
B1642133802925S06009308WA0118201150000000000000
B1642153802940S06009271WA0117401140000000000000
B1642173802934S06009225WA0116601133000000000000
B1642193802906S06009196WA0116301141000000000000
B1642213802879S06009193WA0116801153000000000000
B1642233802854S06009199WA0117501152000000000000
B1642253802832S06009212WA0117501148000000000000
B1642273802818S06009234WA0117301146000000000000
B1642293802813S06009263WA0117101143000000000000
B1642313802821S06009293WA0116801140000000000000
B1642333802835S06009319WA0116401139000000000000
B1642353802853S06009343WA0116301138000000000000
B1642373802866S06009371WA0116201136000000000000
B1642393802866S06009399WA0115901133000000000000
B1642413802856S06009425WA0115601131000000000000
B1642433802840S06009449WA0115401130000000000000
B1642453802823S06009473WA0115201126000000000000
B1642473802808S06009502WA0115001127000000000000
B1642493802791S06009529WA0115301130000000000000
B1642513802772S06009558WA0115501131000000000000
B1642533802754S06009586WA0115801135000000000000
B1642553802744S06009618WA0116201140000000000000
B1642573802753S06009646WA0116501143000000000000
B1642593802778S06009659WA0117101150000000000000
B1643013802806S06009648WA0117401157000000000000
B1643033802830S06009618WA0118001159000000000000
B1643053802837S06009575WA0118101159000000000000
B1643073802826S06009533WA0118101159000000000000
B1643093802801S06009506WA0118301160000000000000
B1643113802771S06009503WA0118501162000000000000
B1643133802750S06009523WA0118601162000000000000
B1643153802746S06009553WA0118501164000000000000
B1643173802757S06009580WA0118801168000000000000
B1643193802780S06009592WA0119301174000000000000
B1643213802809S06009586WA0119701177000000000000
B1643233802836S06009562WA0120001177000000000000
B1643253802852S06009523WA0120001177000000000000
B1643273802852S06009477WA0120001176000000000000
B1643293802836S06009437WA0120001179000000000000
B1643313802808S06009415WA0120301182000000000000
B1643333802778S06009415WA0120601185000000000000
B1643353802752S06009429WA0121001189000000000000
B1643373802733S06009455WA0121301193000000000000
B1643393802732S06009485WA0121701195000000000000
B1643413802745S06009511WA0121901199000000000000
B1643433802770S06009520WA0122401205000000000000
B1643453802800S06009512WA0122901209000000000000
B1643473802826S06009486WA0123301212000000000000
B1643493802840S06009446WA0123401213000000000000
B1643513802839S06009402WA0123401213000000000000
B1643533802822S06009363WA0123401214000000000000
B1643553802795S06009338WA0123601216000000000000
B1643573802766S06009337WA0123801219000000000000
B1643593802744S06009356WA0124101223000000000000
B1644013802735S06009388WA0124501227000000000000
B1644033802743S06009417WA0124801231000000000000
B1644053802762S06009438WA0125401238000000000000
B1644073802788S06009449WA0126101247000000000000
B1644093802817S06009438WA0126901251000000000000
B1644113802837S06009408WA0127201251000000000000
B1644133802844S06009365WA0127101248000000000000
B1644153802832S06009324WA0126901248000000000000
B1644173802806S06009299WA0126701249000000000000
B1644193802775S06009295WA0126801250000000000000
B1644213802753S06009313WA0126901249000000000000
B1644233802745S06009343WA0126901248000000000000
B1644253802745S06009377WA0127101253000000000000
B1644273802756S06009406WA0127701261000000000000
B1644293802782S06009417WA0128301267000000000000
B1644313802810S06009402WA0128701269000000000000
B1644333802830S06009367WA0129101273000000000000
B1644353802831S06009321WA0129301275000000000000
B1644373802815S06009284WA0129401274000000000000
B1644393802787S06009265WA0129301274000000000000
B1644413802758S06009271WA0129401273000000000000
B1644433802741S06009297WA0129501276000000000000
B1644453802740S06009328WA0129701283000000000000
B1644473802748S06009359WA0130201288000000000000
B1644493802769S06009377WA0130801293000000000000
B1644513802797S06009376WA0131301297000000000000
B1644533802823S06009350WA0131601300000000000000
B1644553802832S06009308WA0132001303000000000000
B1644573802823S06009267WA0132301305000000000000
B1644593802801S06009237WA0132401305000000000000
B1645013802771S06009228WA0132301303000000000000
B1645033802746S06009243WA0132301305000000000000
B1645053802739S06009272WA0132501310000000000000
B1645073802749S06009298WA0132901313000000000000
B1645093802772S06009311WA0133201315000000000000
B1645113802802S06009304WA0133301318000000000000
B1645133802827S06009277WA0133701323000000000000
B1645153802839S06009238WA0134101327000000000000
B1645173802837S06009195WA0134401327000000000000
B1645193802821S06009157WA0134301324000000000000
B1645213802793S06009138WA0134101321000000000000
B1645233802762S06009138WA0134101323000000000000
B1645253802740S06009157WA0134301327000000000000
B1645273802727S06009186WA0134701333000000000000
B1645293802720S06009215WA0135101338000000000000
B1645313802726S06009243WA0135701341000000000000
B1645333802743S06009263WA0135801342000000000000
B1645353802769S06009269WA0135901342000000000000
B1645373802796S06009255WA0135901341000000000000
B1645393802815S06009220WA0135901341000000000000
B1645413802818S06009174WA0135901342000000000000
B1645433802800S06009135WA0136101347000000000000
B1645453802771S06009120WA0136501353000000000000
B1645473802744S06009126WA0137101359000000000000
B1645493802728S06009151WA0137501362000000000000
B1645513802730S06009181WA0137801363000000000000
B1645533802741S06009207WA0137901362000000000000
B1645553802766S06009216WA0137801360000000000000
B1645573802795S06009199WA0137501356000000000000
B1645593802811S06009159WA0137301355000000000000
B1646013802811S06009112WA0137301357000000000000
B1646033802792S06009074WA0137601361000000000000
B1646053802762S06009060WA0138101368000000000000
B1646073802735S06009065WA0138701375000000000000
B1646093802715S06009085WA0139101375000000000000
B1646113802704S06009111WA0139001372000000000000
B1646133802706S06009141WA0138801370000000000000
B1646153802727S06009159WA0138701371000000000000
B1646173802757S06009156WA0138901374000000000000
B1646193802782S06009131WA0139101375000000000000
B1646213802793S06009090WA0139101373000000000000
B1646233802785S06009043WA0138901369000000000000
B1646253802759S06009011WA0138701368000000000000
B1646283802711S06009008WA0138801375000000000000
B1646303802693S06009030WA0139201380000000000000
B1646323802685S06009059WA0139601381000000000000
B1646343802681S06009090WA0139701381000000000000
B1646363802676S06009121WA0139701382000000000000
B1646383802668S06009150WA0139601377000000000000
B1646403802659S06009181WA0139001366000000000000
B1646423802649S06009217WA0138001357000000000000
B1646443802637S06009254WA0137301350000000000000
B1646463802627S06009294WA0136401337000000000000
B1646483802615S06009337WA0135001323000000000000
B1646503802603S06009382WA0133701312000000000000
E164650PEV
B1646503802603S06009382WA0133301312000000000000
B1646523802592S06009429WA0132801305000000000000
B1646533802585S06009454WA0132501302000000000000
B1646543802580S06009479WA0132201300000000000000
B1646553802575S06009503WA0131901298000000000000
B1646563802568S06009528WA0131901295000000000000
B1646573802563S06009553WA0131701293000000000000
B1646583802557S06009577WA0131501290000000000000
B1646593802551S06009602WA0131301288000000000000
B1647003802546S06009627WA0131001286000000000000
B1647013802541S06009651WA0130801285000000000000
B1647023802535S06009676WA0130601285000000000000
B1647033802529S06009700WA0130601285000000000000
B1647043802524S06009723WA0130601285000000000000
B1647053802519S06009748WA0130501284000000000000
B1647063802514S06009771WA0130401282000000000000
B1647073802509S06009794WA0130201281000000000000
B1647093802499S06009841WA0130001280000000000000
B1647113802490S06009888WA0129901280000000000000
B1647133802481S06009931WA0129901282000000000000
B1647153802471S06009974WA0130001282000000000000
B1647173802459S06010013WA0130101283000000000000
B1647193802447S06010052WA0130301284000000000000
B1647213802434S06010091WA0130101282000000000000
B1647233802421S06010129WA0129901282000000000000
B1647253802410S06010168WA0129901281000000000000
B1647273802397S06010207WA0129701278000000000000
B1647293802385S06010247WA0129501275000000000000
B1647313802375S06010288WA0129401272000000000000
B1647333802363S06010330WA0129001270000000000000
B1647353802353S06010373WA0128801267000000000000
B1647373802343S06010416WA0128601263000000000000
B1647393802336S06010460WA0128301259000000000000
B1647413802329S06010504WA0127801255000000000000
B1647433802323S06010548WA0127401250000000000000
B1647453802314S06010594WA0126901242000000000000
B1647473802303S06010639WA0126101237000000000000
B1647493802295S06010685WA0125701238000000000000
B1647513802286S06010729WA0125901241000000000000
B1647533802272S06010769WA0126301244000000000000
B1647553802251S06010806WA0126501249000000000000
B1647573802228S06010840WA0127101255000000000000
B1647593802204S06010870WA0127701261000000000000
B1648013802181S06010899WA0128301269000000000000
B1648033802158S06010928WA0129001276000000000000
B1648053802135S06010957WA0129501280000000000000
B1648073802113S06010987WA0130201287000000000000
B1648093802093S06011016WA0130501296000000000000
B1648113802073S06011044WA0131401305000000000000
B1648133802059S06011074WA0132101311000000000000
B1648153802057S06011107WA0132701315000000000000
B1648173802073S06011136WA0133001318000000000000
B1648193802102S06011148WA0133301320000000000000
B1648213802133S06011139WA0133701323000000000000
B1648233802160S06011113WA0133901324000000000000
B1648253802184S06011079WA0134001324000000000000
B1648273802200S06011039WA0134101326000000000000
B1648293802203S06010992WA0134401330000000000000
B1648313802189S06010954WA0134701333000000000000
B1648333802161S06010932WA0134901331000000000000
B1648353802132S06010922WA0135001334000000000000
B1648373802102S06010915WA0135201340000000000000
B1648393802073S06010910WA0135701345000000000000
B1648413802043S06010910WA0136301350000000000000
B1648433802020S06010923WA0136801356000000000000
B1648453802007S06010949WA0137401361000000000000
B1648473802009S06010977WA0137901364000000000000
B1648493802026S06011001WA0138001365000000000000
B1648513802055S06011009WA0138001363000000000000
B1648533802086S06010997WA0138001364000000000000
B1648553802111S06010970WA0138001366000000000000
B1648573802125S06010932WA0138201367000000000000
B1648593802125S06010889WA0138301367000000000000
B1649013802112S06010850WA0138301368000000000000
B1649033802091S06010818WA0138501373000000000000
B1649053802068S06010792WA0139101380000000000000
B1649073802041S06010780WA0139501382000000000000
B1649093802015S06010786WA0139701381000000000000
B1649113801996S06010810WA0139701382000000000000
B1649133801991S06010841WA0139901386000000000000
B1649153801998S06010872WA0140301390000000000000
B1649173802009S06010902WA0140701393000000000000
B1649193802028S06010925WA0141001395000000000000
B1649213802054S06010941WA0141001398000000000000
B1649233802083S06010940WA0141301400000000000000
B1649253802112S06010923WA0141501401000000000000
B1649273802134S06010892WA0141501402000000000000
B1649293802143S06010853WA0141501400000000000000
B1649313802139S06010811WA0141401398000000000000
B1649333802121S06010776WA0141201399000000000000
B1649353802095S06010756WA0141301404000000000000
B1649373802068S06010755WA0141801409000000000000
B1649393802042S06010764WA0142201412000000000000
B1649413802018S06010777WA0142401412000000000000
B1649433802005S06010803WA0142601412000000000000
B1649453802013S06010836WA0142601412000000000000
B1649473802038S06010858WA0142501410000000000000
B1649493802069S06010870WA0142501413000000000000
B1649513802102S06010863WA0142901420000000000000
B1649533802129S06010837WA0143401424000000000000
B1649553802150S06010802WA0143601425000000000000
B1649573802163S06010762WA0143601424000000000000
B1649593802171S06010717WA0143601424000000000000
B1650013802173S06010673WA0143701424000000000000
B1650033802176S06010628WA0143901427000000000000
B1650053802172S06010585WA0144001430000000000000
B1650073802155S06010548WA0144401436000000000000
B1650093802130S06010525WA0144801440000000000000
B1650113802102S06010515WA0145201441000000000000
B1650133802078S06010529WA0145301439000000000000
B1650153802069S06010559WA0145101436000000000000
B1650173802081S06010589WA0145001433000000000000
B1650193802108S06010602WA0144601430000000000000
B1650213802139S06010590WA0144401430000000000000
B1650233802161S06010556WA0144501432000000000000
B1650253802167S06010511WA0144601435000000000000
B1650273802160S06010467WA0144901439000000000000
B1650293802146S06010428WA0145201443000000000000
B1650313802120S06010403WA0145601447000000000000
B1650333802089S06010398WA0145901449000000000000
B1650353802063S06010415WA0146201453000000000000
B1650373802052S06010447WA0146701460000000000000
B1650393802059S06010481WA0147301464000000000000
B1650413802080S06010503WA0147501464000000000000
B1650433802108S06010504WA0147401461000000000000
B1650453802137S06010485WA0147201458000000000000
B1650473802152S06010446WA0146901455000000000000
B1650493802147S06010403WA0146801457000000000000
B1650513802125S06010372WA0147101462000000000000
B1650533802095S06010363WA0147701468000000000000
B1650553802065S06010366WA0147801471000000000000
B1650573802039S06010379WA0148301474000000000000
B1650593802024S06010407WA0148501471000000000000
B1651013802028S06010441WA0148201467000000000000
B1651033802048S06010464WA0147901466000000000000
B1651053802078S06010465WA0147801464000000000000
B1651073802107S06010443WA0147601463000000000000
B1651093802120S06010405WA0147401462000000000000
B1651113802116S06010363WA0147301460000000000000
B1651133802095S06010333WA0147301459000000000000
B1651153802065S06010326WA0147201462000000000000
B1651173802038S06010337WA0147401467000000000000
B1651193802016S06010356WA0147801469000000000000
B1651213801994S06010377WA0147901465000000000000
B1651233801978S06010403WA0147601462000000000000
B1651253801974S06010435WA0147401461000000000000
B1651273801987S06010464WA0147401462000000000000
B1651293802011S06010482WA0147501464000000000000
B1651313802039S06010490WA0147601464000000000000
B1651333802068S06010498WA0147501464000000000000
B1651353802098S06010506WA0147501464000000000000
B1651373802126S06010512WA0147401462000000000000
B1651393802159S06010515WA0147101458000000000000
B1651413802191S06010515WA0147001458000000000000
B1651433802225S06010508WA0146901458000000000000
B1651453802258S06010496WA0147001462000000000000
B1651473802285S06010474WA0147401468000000000000
B1651493802306S06010441WA0147901473000000000000
B1651513802315S06010402WA0148401475000000000000
B1651533802310S06010361WA0148601473000000000000
B1651553802293S06010326WA0148401470000000000000
B1651573802265S06010307WA0148101469000000000000
B1651593802237S06010305WA0148001470000000000000
B1652013802215S06010320WA0148101473000000000000
B1652033802203S06010344WA0148301470000000000000
B1652053802200S06010373WA0148001466000000000000
B1652073802210S06010402WA0147701465000000000000
B1652093802229S06010421WA0147501464000000000000
B1652113802256S06010424WA0147501464000000000000
B1652133802284S06010407WA0147501465000000000000
B1652153802303S06010374WA0147501463000000000000
B1652173802307S06010331WA0147401462000000000000
B1652193802299S06010287WA0147301462000000000000
B1652213802289S06010244WA0147201461000000000000
B1652233802280S06010200WA0147201460000000000000
B1652243802275S06010179WA0147001460000000000000
B1652273802256S06010117WA0146901460000000000000
B1652293802237S06010083WA0147001460000000000000
B1652313802210S06010067WA0147201463000000000000
B1652333802182S06010070WA0147301463000000000000
B1652353802158S06010083WA0147401463000000000000
B1652373802135S06010101WA0147401464000000000000
B1652393802112S06010119WA0147501466000000000000
B1652413802090S06010136WA0147801468000000000000
B1652433802067S06010155WA0148001471000000000000
B1652453802046S06010170WA0148101472000000000000
B1652473802025S06010187WA0148101472000000000000
B1652493802005S06010205WA0148101469000000000000
B1652513801985S06010223WA0148001468000000000000
B1652533801965S06010242WA0147901471000000000000
B1652553801946S06010260WA0148101473000000000000
B1652573801929S06010279WA0148301471000000000000
B1652593801911S06010299WA0148101470000000000000
B1653013801892S06010320WA0147901469000000000000
B1653033801873S06010339WA0147901469000000000000
B1653053801853S06010355WA0148001471000000000000
B1653073801834S06010369WA0148101470000000000000
B1653093801813S06010379WA0148001468000000000000
B1653113801790S06010379WA0147701462000000000000
B1653133801766S06010361WA0146901453000000000000
B1653153801752S06010327WA0146101445000000000000
B1653173801755S06010285WA0145401439000000000000
B1653193801773S06010247WA0145101440000000000000
B1653213801799S06010223WA0145001438000000000000
B1653233801829S06010209WA0144901435000000000000
B1653253801860S06010199WA0144701430000000000000
B1653273801892S06010188WA0144301428000000000000
B1653293801924S06010177WA0144201430000000000000
B1653313801956S06010166WA0144201429000000000000
B1653333801987S06010157WA0144201428000000000000
B1653353802020S06010148WA0144201429000000000000
B1653373802052S06010140WA0144101429000000000000
B1653393802083S06010130WA0144201432000000000000
B1653413802115S06010123WA0144501436000000000000
B1653433802146S06010118WA0144901441000000000000
B1653453802176S06010110WA0145401442000000000000
B1653473802202S06010088WA0145501443000000000000
B1653493802217S06010051WA0145401441000000000000
B1653513802219S06010008WA0145201438000000000000
B1653533802203S06009969WA0145001435000000000000
B1653553802177S06009943WA0144901436000000000000
B1653573802148S06009936WA0145001437000000000000
B1653593802124S06009949WA0145201437000000000000
B1654013802113S06009978WA0145101436000000000000
B1654033802120S06010009WA0145001437000000000000
B1654053802141S06010030WA0144901436000000000000
B1654073802169S06010035WA0144901438000000000000
B1654093802200S06010026WA0145001443000000000000
B1654113802230S06010015WA0145501445000000000000
B1654133802259S06010006WA0145701445000000000000
B1654153802286S06009989WA0145801446000000000000
B1654173802306S06009958WA0145901445000000000000
B1654193802314S06009918WA0145701443000000000000
B1654213802304S06009878WA0145401441000000000000
B1654233802282S06009848WA0145201442000000000000
B1654253802255S06009837WA0145401446000000000000
B1654273802230S06009846WA0145801447000000000000
B1654293802217S06009870WA0145801445000000000000
B1654313802219S06009900WA0145701444000000000000
B1654333802234S06009926WA0145601445000000000000
B1654353802258S06009940WA0145701448000000000000
B1654373802285S06009940WA0146001450000000000000
B1654393802310S06009927WA0146201451000000000000
B1654413802330S06009900WA0146201448000000000000
B1654433802343S06009862WA0145901445000000000000
B1654453802354S06009823WA0145801447000000000000
B1654473802366S06009784WA0145801447000000000000
B1654493802379S06009746WA0145701444000000000000
B1654513802393S06009706WA0145601441000000000000
B1654533802406S06009664WA0145401440000000000000
B1654553802416S06009620WA0145301438000000000000
B1654573802427S06009576WA0145101435000000000000
B1654593802441S06009532WA0144701433000000000000
B1655013802458S06009490WA0144501430000000000000
B1655033802476S06009447WA0144201426000000000000
B1655053802493S06009402WA0143901423000000000000
B1655073802506S06009356WA0143601423000000000000
B1655093802519S06009312WA0143301418000000000000
B1655113802532S06009265WA0142701407000000000000
B1655133802545S06009216WA0141701399000000000000
B1655153802553S06009165WA0141001393000000000000
