ACAM4PM
HFDTE151224
HFFXA050
HFPLTPILOT:Andres Totorica         
HFGTYGLIDERTYPE:SZD-48-2 Ja 
HFGIDGLIDERID:LV-DNP      
HFDTM100GPSDATUM:
HFRFWFIRMWAREVERSION:F2.6
HFRHWHARDWAREVERSION:300 Series Version 2
HFFTYFRTYPE:CAMBRIDGE AERO INSTRUMENTS, 302+
HFGPS:GARMIN,LVS-25,12,18000
HFPRSPRESSALTSENSOR:INTERSEMA, MS5534-AP, 20000
I033638FXA3941ENL4247REX
LCAMSBVER:5FWVER:F26300
C121224163105121224000103
C0000000N00000000WTAKEOFF     
C3801767S06008133W001-OttoBall
C3813900S05950083W122r75AoCrMt
C3815083S06044503W119Pter85/QS
C3749283S06028817W081JuanEBarr
C3801767S06008133W001-OttoBall
C0000000N00000000WLANDING     
B1603423801618S06008310WA0016100194000000000000
B1603443801618S06008310WA0016100194000000000000
B1603463801618S06008310WA0016100194000000000000
B1603483801618S06008309WA0016100194000000000000
B1603503801619S06008309WA0016200193000000000000
B1603523801619S06008307WA0016100193000000000000
B1603543801621S06008307WA0016100193000000000000
B1603563801622S06008306WA0016100193000000000000
B1603583801622S06008305WA0016100193000000000000
B1604003801623S06008305WA0016100193000000000000
B1604023801625S06008303WA0016100193000000000000
B1604043801626S06008302WA0016100192000000000000
B1604063801627S06008301WA0016100192000000000000
B1604083801628S06008299WA0016200192000000000000
B1604103801630S06008298WA0016100192000000000000
B1604133801638S06008290WA0016000191000000000000
B1604153801647S06008283WA0015900191000000000000
B1604173801657S06008271WA0015800191000000000000
B1604193801669S06008257WA0015900191000000000000
B1604213801683S06008238WA0015900190000000000000
B1604233801699S06008218WA0015800191000000000000
B1604253801716S06008195WA0015800191000000000000
B1604273801732S06008168WA0015900192000000000000
B1604293801752S06008140WA0016000193000000000000
B1604313801771S06008110WA0016100195000000000000
B1604333801794S06008080WA0016300200000000000000
B1604353801817S06008052WA0016800206000000000000
B1604373801840S06008026WA0017400212000000000000
B1604393801862S06008000WA0018100220000000000000
B1604413801885S06007974WA0018900226000000000000
B1604433801905S06007946WA0019500232000000000000
B1604453801925S06007920WA0020000239000000000000
B1604473801946S06007895WA0020700246000000000000
B1604493801966S06007869WA0021300253000000000000
B1604513801989S06007847WA0022100261000000000000
B1604533802012S06007829WA0022800266000000000000
B1604553802035S06007812WA0023300270000000000000
B1604573802061S06007800WA0023700276000000000000
B1604593802087S06007792WA0024200280000000000000
B1605013802115S06007791WA0024700285000000000000
B1605033802143S06007792WA0025100289000000000000
B1605053802172S06007800WA0025400291000000000000
B1605073802199S06007813WA0025700294000000000000
B1605093802226S06007831WA0026000297000000000000
B1605113802254S06007851WA0026500303000000000000
B1605133802278S06007873WA0026900307000000000000
B1605153802303S06007895WA0027400311000000000000
B1605173802327S06007920WA0027800313000000000000
B1605193802350S06007947WA0028000315000000000000
B1605213802375S06007974WA0028200317000000000000
B1605233802401S06007998WA0028400324000000000000
B1605253802424S06008020WA0029100336000000000000
B1605273802447S06008046WA0030100345000000000000
B1605293802468S06008073WA0030900349000000000000
B1605313802489S06008099WA0031500352000000000000
B1605333802512S06008125WA0031900356000000000000
B1605353802535S06008150WA0032100357000000000000
B1605373802558S06008176WA0032300360000000000000
B1605393802581S06008202WA0032600364000000000000
B1605413802606S06008227WA0033100369000000000000
B1605433802631S06008250WA0033600373000000000000
B1605453802658S06008275WA0033800376000000000000
B1605473802684S06008299WA0034100381000000000000
B1605493802709S06008327WA0034600387000000000000
B1605513802735S06008353WA0035100390000000000000
B1605533802759S06008377WA0035400393000000000000
B1605553802785S06008405WA0035800395000000000000
B1605573802810S06008432WA0036000398000000000000
B1605593802835S06008458WA0036300402000000000000
B1606013802862S06008484WA0037000415000000000000
B1606033802888S06008507WA0038100423000000000000
B1606053802914S06008532WA0038800427000000000000
B1606073802940S06008558WA0039300434000000000000
B1606093802966S06008582WA0039900441000000000000
B1606113802992S06008600WA0040600447000000000000
B1606133803021S06008618WA0041200453000000000000
B1606153803049S06008631WA0041800459000000000000
B1606173803079S06008637WA0042400465000000000000
B1606193803109S06008641WA0043100473000000000000
B1606213803138S06008644WA0043800481000000000000
B1606233803169S06008644WA0044500487000000000000
B1606253803198S06008641WA0044800487000000000000
B1606273803227S06008631WA0045000490000000000000
B1606293803256S06008621WA0045300493000000000000
B1606313803283S06008608WA0045800498000000000000
B1606333803309S06008592WA0046100504000000000000
B1606353803334S06008572WA0046500507000000000000
B1606373803359S06008552WA0047000514000000000000
B1606393803380S06008526WA0047700523000000000000
B1606413803400S06008501WA0048500532000000000000
B1606433803419S06008472WA0049500543000000000000
B1606453803435S06008442WA0050700556000000000000
B1606473803448S06008410WA0052100572000000000000
B1606493803459S06008377WA0053500584000000000000
B1606513803468S06008342WA0054500590000000000000
B1606533803472S06008303WA0054900591000000000000
B1606553803476S06008264WA0054900592000000000000
B1606573803478S06008224WA0054900591000000000000
B1606593803478S06008184WA0055200594000000000000
B1607013803476S06008146WA0055500599000000000000
B1607033803473S06008107WA0056100604000000000000
B1607053803469S06008069WA0056400608000000000000
B1607073803463S06008030WA0056600610000000000000
B1607093803456S06007991WA0056900612000000000000
B1607113803447S06007952WA0057100614000000000000
B1607133803438S06007912WA0057200616000000000000
B1607153803428S06007873WA0057400618000000000000
B1607173803416S06007833WA0057600621000000000000
B1607193803403S06007794WA0057900625000000000000
B1607213803389S06007755WA0058400629000000000000
B1607233803374S06007716WA0058700631000000000000
B1607253803361S06007678WA0058900635000000000000
B1607273803346S06007640WA0059300638000000000000
B1607293803328S06007604WA0059700641000000000000
B1607313803311S06007568WA0060000644000000000000
B1607333803295S06007530WA0060400647000000000000
B1607353803281S06007491WA0060700650000000000000
B1607373803264S06007453WA0060800651000000000000
B1607393803243S06007417WA0060900651000000000000
B1607413803221S06007379WA0061000652000000000000
B1607433803201S06007340WA0061000652000000000000
B1607453803181S06007300WA0061000654000000000000
B1607473803159S06007262WA0061300658000000000000
B1607493803135S06007223WA0061700662000000000000
B1607513803110S06007185WA0062100664000000000000
B1607533803086S06007146WA0062400670000000000000
B1607553803061S06007107WA0063100681000000000000
B1607573803036S06007071WA0064100692000000000000
B1607593803013S06007036WA0065000700000000000000
B1608013802990S06006999WA0065700702000000000000
B1608033802966S06006963WA0065900704000000000000
B1608053802941S06006927WA0066300708000000000000
B1608073802918S06006889WA0066700713000000000000
B1608093802893S06006850WA0067200720000000000000
B1608113802870S06006811WA0067800724000000000000
B1608133802845S06006772WA0068600736000000000000
B1608153802819S06006738WA0069900752000000000000
B1608173802787S06006719WA0071300765000000000000
B1608193802752S06006729WA0072500777000000000000
B1608213802728S06006763WA0073000785000000000000
B1608233802722S06006803WA0073800789000000000000
B1608253802733S06006837WA0074200791000000000000
B1608273802754S06006851WA0074400794000000000000
B1608293802774S06006842WA0074700793000000000000
B1608313802779S06006816WA0074700793000000000000
B1608333802771S06006786WA0074900799000000000000
B1608353802758S06006756WA0075300803000000000000
B1608373802733S06006737WA0075700809000000000000
B1608393802704S06006733WA0076200811000000000000
B1608413802674S06006751WA0076400807000000000000
B1608433802654S06006788WA0076100802000000000000
B1608453802654S06006829WA0075800801000000000000
B1608473802674S06006856WA0075800806000000000000
B1608493802697S06006860WA0076400814000000000000
B1608513802717S06006847WA0077000821000000000000
B1608533802727S06006824WA0077600825000000000000
B1608553802718S06006794WA0077900827000000000000
B1608573802693S06006775WA0078300829000000000000
B1608593802659S06006777WA0078400832000000000000
B1609013802632S06006804WA0078600833000000000000
B1609033802620S06006845WA0078500829000000000000
B1609053802631S06006882WA0078200825000000000000
B1609073802654S06006898WA0078000827000000000000
B1609093802676S06006888WA0078400834000000000000
B1609113802692S06006867WA0079100844000000000000
B1609133802698S06006841WA0079900850000000000000
B1609153802687S06006811WA0080400851000000000000
B1609173802657S06006797WA0080700855000000000000
B1609193802626S06006811WA0081100862000000000000
B1609213802607S06006846WA0081600866000000000000
B1609233802611S06006884WA0082000866000000000000
B1609253802632S06006906WA0082100867000000000000
B1609273802655S06006901WA0082200871000000000000
B1609293802675S06006882WA0082600877000000000000
B1609313802678S06006851WA0083200883000000000000
B1609333802658S06006823WA0083900890000000000000
B1609353802627S06006816WA0084500897000000000000
B1609373802597S06006836WA0085100901000000000000
B1609393802583S06006875WA0085600903000000000000
B1609413802592S06006914WA0085800906000000000000
B1609433802615S06006928WA0086200913000000000000
B1609453802636S06006915WA0086900920000000000000
B1609473802639S06006885WA0087500927000000000000
B1609493802622S06006856WA0088200934000000000000
B1609513802592S06006847WA0088900941000000000000
B1609533802561S06006862WA0089400945000000000000
B1609553802541S06006894WA0089800947000000000000
B1609573802538S06006934WA0090100947000000000000
B1609593802553S06006963WA0090200951000000000000
B1610013802575S06006970WA0090700958000000000000
B1610033802594S06006958WA0091400964000000000000
B1610053802605S06006936WA0091900968000000000000
B1610073802598S06006906WA0092200970000000000000
B1610093802574S06006886WA0092500974000000000000
B1610113802542S06006892WA0092800977000000000000
B1610133802519S06006921WA0093200982000000000000
B1610153802516S06006962WA0093700985000000000000
B1610173802532S06006992WA0094100988000000000000
B1610193802554S06006997WA0094400993000000000000
B1610213802570S06006976WA0094900999000000000000
B1610233802563S06006945WA0095301003000000000000
B1610253802537S06006925WA0095601007000000000000
B1610273802505S06006931WA0096101012000000000000
B1610293802480S06006959WA0096301017000000000000
B1610313802473S06006999WA0096801020000000000000
B1610333802485S06007033WA0097201023000000000000
B1610353802507S06007045WA0097601030000000000000
B1610373802525S06007032WA0098101038000000000000
B1610393802529S06007003WA0098801043000000000000
B1610413802511S06006976WA0099401047000000000000
B1610433802480S06006968WA0099901053000000000000
B1610453802450S06006985WA0100401058000000000000
B1610473802433S06007019WA0100801062000000000000
B1610493802434S06007058WA0101301066000000000000
B1610513802453S06007084WA0101601070000000000000
B1610533802476S06007087WA0102001076000000000000
B1610553802490S06007066WA0102601081000000000000
B1610573802486S06007035WA0103101084000000000000
B1610593802463S06007012WA0103601090000000000000
B1611013802429S06007012WA0104001096000000000000
B1611033802402S06007036WA0104601102000000000000
B1611053802392S06007076WA0105201108000000000000
B1611073802401S06007111WA0105701113000000000000
B1611093802421S06007128WA0106301120000000000000
B1611113802442S06007120WA0107001126000000000000
B1611133802450S06007096WA0107501128000000000000
B1611153802438S06007067WA0107701129000000000000
B1611173802408S06007053WA0107901134000000000000
B1611193802375S06007063WA0108401141000000000000
B1611213802350S06007094WA0109001148000000000000
B1611233802345S06007136WA0109701154000000000000
B1611253802356S06007171WA0110301158000000000000
B1611273802379S06007185WA0110701163000000000000
B1611293802398S06007175WA0111301168000000000000
B1611313802405S06007148WA0111701171000000000000
B1611333802390S06007120WA0112001173000000000000
B1611353802359S06007107WA0112201177000000000000
B1611373802325S06007122WA0112701182000000000000
B1611393802303S06007157WA0113301190000000000000
B1611413802299S06007200WA0113901195000000000000
B1611433802315S06007231WA0114401199000000000000
B1611453802337S06007240WA0114601203000000000000
B1611473802354S06007223WA0115101207000000000000
B1611493802355S06007193WA0115401210000000000000
B1611513802334S06007167WA0115801215000000000000
B1611533802302S06007161WA0116301221000000000000
B1611553802272S06007181WA0116901226000000000000
B1611573802256S06007222WA0117301230000000000000
B1611593802260S06007263WA0117501231000000000000
B1612013802281S06007291WA0117801234000000000000
B1612033802304S06007291WA0118001239000000000000
B1612053802319S06007269WA0118601243000000000000
B1612073802311S06007236WA0118901247000000000000
B1612093802284S06007217WA0119301251000000000000
B1612113802249S06007223WA0119501255000000000000
B1612133802221S06007253WA0120001259000000000000
B1612153802215S06007297WA0120401262000000000000
B1612173802226S06007335WA0120701264000000000000
B1612193802250S06007353WA0121001270000000000000
B1612213802272S06007345WA0121501276000000000000
B1612233802282S06007319WA0122101279000000000000
B1612253802278S06007288WA0122501282000000000000
B1612273802258S06007262WA0122601285000000000000
B1612293802225S06007256WA0123101291000000000000
B1612313802191S06007274WA0123501296000000000000
B1612333802172S06007311WA0124001300000000000000
B1612353802172S06007353WA0124401303000000000000
B1612373802189S06007383WA0124601304000000000000
B1612393802212S06007391WA0124801308000000000000
B1612413802232S06007378WA0125101311000000000000
B1612433802238S06007349WA0125401314000000000000
B1612453802224S06007318WA0125801317000000000000
B1612473802194S06007301WA0126201322000000000000
B1612493802159S06007306WA0126801327000000000000
B1612513802130S06007335WA0127301332000000000000
B1612533802119S06007376WA0127701336000000000000
B1612553802125S06007417WA0128101339000000000000
B1612573802146S06007443WA0128401341000000000000
B1612593802169S06007447WA0128801346000000000000
B1613013802187S06007431WA0129101351000000000000
B1613033802190S06007402WA0129401353000000000000
B1613053802176S06007374WA0129601353000000000000
B1613073802146S06007358WA0129901357000000000000
B1613093802111S06007365WA0130001362000000000000
B1613113802082S06007391WA0130601368000000000000
B1613133802068S06007430WA0131101372000000000000
B1613153802069S06007470WA0131401372000000000000
B1613173802086S06007501WA0131601374000000000000
B1613193802109S06007513WA0131701377000000000000
B1613213802130S06007505WA0132001378000000000000
B1613233802139S06007480WA0132101381000000000000
B1613253802133S06007451WA0132401383000000000000
B1613273802111S06007427WA0132601383000000000000
B1613293802077S06007421WA0132701385000000000000
B1613313802041S06007435WA0133001391000000000000
B1613333802015S06007466WA0133401397000000000000
B1613353802002S06007506WA0134101402000000000000
B1613373802004S06007545WA0134401402000000000000
B1613393802021S06007574WA0134301401000000000000
B1613413802044S06007586WA0134301401000000000000
B1613433802067S06007578WA0134501403000000000000
B1613453802078S06007555WA0134601406000000000000
B1613473802081S06007526WA0134901409000000000000
B1613493802085S06007497WA0135101410000000000000
B1613513802096S06007475WA0135301412000000000000
B1613533802115S06007458WA0135401415000000000000
B1613553802135S06007447WA0135701417000000000000
B1613573802158S06007435WA0135901418000000000000
B1613593802176S06007418WA0136001420000000000000
B1614013802193S06007395WA0136101421000000000000
B1614033802207S06007370WA0136301421000000000000
B1614053802224S06007348WA0136201420000000000000
B1614073802241S06007324WA0136001417000000000000
B1614093802259S06007301WA0135601413000000000000
B1614113802277S06007276WA0135201409000000000000
B1614133802297S06007250WA0134801406000000000000
B1614153802315S06007223WA0134801409000000000000
B1614173802332S06007194WA0134901409000000000000
B1614193802349S06007165WA0134801407000000000000
B1614213802366S06007133WA0134601406000000000000
B1614233802382S06007102WA0134401404000000000000
B1614253802399S06007071WA0133901396000000000000
B1614273802416S06007038WA0133001386000000000000
B1614293802436S06007003WA0131901374000000000000
B1614313802455S06006967WA0131001365000000000000
B1614333802476S06006931WA0130301360000000000000
B1614353802497S06006894WA0130001357000000000000
B1614373802518S06006858WA0129701355000000000000
B1614393802540S06006821WA0129501350000000000000
B1614413802561S06006784WA0129001345000000000000
B1614433802581S06006746WA0128501340000000000000
B1614453802601S06006708WA0128001337000000000000
B1614473802622S06006672WA0127601332000000000000
B1614493802644S06006634WA0127101327000000000000
B1614513802665S06006598WA0126701322000000000000
B1614533802684S06006559WA0126301318000000000000
B1614553802705S06006521WA0125901317000000000000
B1614573802726S06006483WA0125901320000000000000
B1614593802748S06006450WA0126401328000000000000
B1615013802769S06006418WA0127201336000000000000
B1615033802789S06006388WA0127801340000000000000
B1615053802809S06006360WA0128001340000000000000
B1615073802830S06006331WA0128101340000000000000
B1615093802850S06006303WA0128301343000000000000
B1615113802869S06006274WA0128501349000000000000
B1615133802878S06006242WA0128901352000000000000
B1615153802866S06006208WA0129401358000000000000
B1615173802836S06006191WA0129901364000000000000
B1615193802802S06006200WA0130701369000000000000
B1615213802774S06006230WA0131001375000000000000
B1615233802763S06006271WA0131501380000000000000
B1615253802774S06006308WA0132001383000000000000
B1615273802797S06006323WA0132401386000000000000
B1615293802821S06006317WA0132601388000000000000
B1615313802835S06006292WA0132701388000000000000
B1615333802831S06006261WA0132801386000000000000
B1615353802810S06006234WA0132801387000000000000
B1615373802782S06006218WA0133001392000000000000
B1615393802748S06006218WA0133301393000000000000
B1615413802720S06006244WA0133601397000000000000
B1615433802713S06006287WA0134101407000000000000
B1615453802726S06006322WA0134901415000000000000
B1615473802750S06006339WA0135501418000000000000
B1615493802774S06006330WA0135801420000000000000
B1615513802785S06006303WA0136101421000000000000
B1615533802776S06006270WA0136201422000000000000
B1615553802749S06006251WA0136501425000000000000
B1615573802717S06006257WA0136901430000000000000
B1615593802689S06006284WA0137301435000000000000
B1616013802667S06006318WA0137701439000000000000
B1616033802663S06006359WA0138101442000000000000
B1616053802680S06006388WA0138301444000000000000
B1616073802707S06006395WA0138401447000000000000
B1616093802730S06006375WA0138701449000000000000
B1616113802732S06006343WA0139001452000000000000
B1616133802715S06006313WA0139201455000000000000
B1616153802684S06006304WA0139601458000000000000
B1616173802653S06006318WA0140001461000000000000
B1616193802633S06006353WA0140301465000000000000
B1616213802633S06006395WA0140801470000000000000
B1616233802649S06006429WA0141401477000000000000
B1616253802670S06006452WA0141901482000000000000
B1616273802696S06006456WA0142101482000000000000
B1616293802714S06006437WA0142301485000000000000
B1616313802714S06006404WA0142601489000000000000
B1616333802697S06006378WA0143001491000000000000
B1616353802667S06006370WA0143101490000000000000
B1616373802636S06006385WA0143101489000000000000
B1616393802616S06006418WA0143101490000000000000
B1616413802616S06006461WA0143301494000000000000
B1616433802635S06006494WA0143501501000000000000
B1616453802662S06006504WA0144001506000000000000
B1616473802685S06006492WA0144501509000000000000
B1616493802696S06006464WA0144701510000000000000
B1616513802687S06006430WA0144801512000000000000
B1616533802662S06006408WA0145001515000000000000
B1616553802629S06006404WA0145301517000000000000
B1616573802600S06006422WA0145501518000000000000
B1616593802581S06006459WA0145701518000000000000
B1617013802581S06006500WA0145901520000000000000
B1617033802597S06006535WA0146101525000000000000
B1617053802622S06006554WA0146301528000000000000
B1617073802648S06006552WA0146601528000000000000
B1617093802668S06006534WA0146801531000000000000
B1617113802678S06006505WA0147101534000000000000
B1617133802672S06006474WA0147301534000000000000
B1617153802654S06006447WA0147301535000000000000
B1617173802626S06006433WA0147601538000000000000
B1617193802592S06006435WA0147901541000000000000
B1617213802563S06006459WA0148101545000000000000
B1617233802546S06006494WA0148401546000000000000
B1617253802545S06006533WA0148301544000000000000
B1617273802562S06006567WA0148201541000000000000
B1617293802589S06006581WA0148001541000000000000
B1617313802615S06006573WA0148001545000000000000
B1617333802632S06006550WA0148301552000000000000
B1617353802637S06006520WA0148901555000000000000
B1617373802632S06006489WA0149301558000000000000
B1617393802616S06006461WA0149601559000000000000
B1617413802588S06006447WA0149701558000000000000
B1617433802555S06006455WA0149601559000000000000
B1617453802528S06006482WA0149701562000000000000
B1617473802511S06006520WA0149901563000000000000
B1617493802499S06006561WA0150001562000000000000
B1617513802490S06006602WA0150101565000000000000
B1617533802485S06006642WA0150401569000000000000
B1617553802475S06006680WA0150601567000000000000
B1617573802464S06006717WA0150301563000000000000
B1617593802462S06006758WA0150101561000000000000
B1618013802473S06006794WA0149901560000000000000
B1618033802496S06006817WA0149901561000000000000
B1618053802522S06006825WA0149901560000000000000
B1618073802546S06006823WA0149701557000000000000
B1618093802568S06006808WA0149501555000000000000
B1618113802577S06006781WA0149301554000000000000
B1618133802572S06006750WA0149201553000000000000
B1618153802557S06006721WA0149101553000000000000
B1618173802538S06006693WA0149301555000000000000
B1618193802523S06006663WA0149301555000000000000
B1618213802518S06006632WA0149201553000000000000
B1618233802522S06006600WA0149101555000000000000
B1618253802535S06006574WA0149401559000000000000
B1618273802550S06006551WA0149901563000000000000
B1618293802568S06006530WA0150301568000000000000
B1618313802588S06006509WA0150701572000000000000
B1618333802607S06006490WA0151101576000000000000
B1618353802622S06006464WA0151601578000000000000
B1618373802616S06006433WA0151801578000000000000
B1618393802592S06006412WA0151801579000000000000
B1618413802557S06006414WA0152001584000000000000
B1618433802528S06006442WA0152401589000000000000
B1618453802516S06006485WA0152801592000000000000
B1618473802524S06006526WA0153001596000000000000
B1618493802548S06006552WA0153301598000000000000
B1618513802575S06006554WA0153401600000000000000
B1618533802594S06006531WA0153701602000000000000
B1618553802596S06006499WA0154001605000000000000
B1618573802580S06006470WA0154301607000000000000
B1618593802551S06006456WA0154401606000000000000
B1619013802519S06006466WA0154401609000000000000
B1619033802496S06006498WA0154701613000000000000
B1619053802486S06006539WA0155001613000000000000
B1619073802497S06006580WA0154901614000000000000
B1619093802520S06006603WA0154901612000000000000
B1619113802546S06006604WA0154801611000000000000
B1619133802568S06006587WA0154801613000000000000
B1619153802583S06006560WA0155001614000000000000
B1619173802584S06006528WA0155101616000000000000
B1619193802568S06006499WA0155201615000000000000
B1619213802542S06006483WA0155201615000000000000
B1619233802512S06006487WA0155201615000000000000
B1619253802486S06006512WA0155301616000000000000
B1619273802476S06006551WA0155401617000000000000
B1619293802481S06006590WA0155401616000000000000
B1619313802499S06006620WA0155201615000000000000
B1619333802525S06006633WA0155201616000000000000
B1619353802553S06006632WA0155201618000000000000
B1619373802575S06006616WA0155301617000000000000
B1619393802584S06006586WA0155401615000000000000
B1619413802576S06006556WA0155201614000000000000
B1619433802554S06006537WA0155001612000000000000
B1619453802524S06006538WA0154801606000000000000
B1619473802498S06006560WA0154301598000000000000
B1619493802484S06006599WA0153501591000000000000
B1619513802484S06006642WA0152901587000000000000
B1619533802502S06006674WA0152501586000000000000
B1619553802528S06006680WA0152501588000000000000
B1619573802545S06006661WA0152701590000000000000
B1619593802553S06006634WA0152701587000000000000
B1620013802557S06006606WA0152201581000000000000
B1620033802567S06006578WA0151601575000000000000
B1620053802581S06006554WA0151101570000000000000
B1620073802598S06006533WA0150301560000000000000
B1620093802615S06006508WA0149201547000000000000
B1620113802628S06006474WA0147901535000000000000
B1620133802636S06006435WA0146901525000000000000
B1620153802645S06006394WA0146101518000000000000
B1620173802654S06006352WA0145301510000000000000
B1620193802665S06006309WA0144601503000000000000
B1620213802678S06006268WA0143901497000000000000
B1620233802689S06006225WA0143501490000000000000
B1620253802702S06006182WA0143101488000000000000
B1620273802717S06006139WA0142801485000000000000
B1620293802730S06006097WA0142401479000000000000
B1620313802745S06006056WA0141701473000000000000
B1620333802762S06006017WA0141201468000000000000
B1620353802784S06005980WA0140701466000000000000
B1620373802810S06005950WA0140601465000000000000
B1620393802837S06005926WA0140601468000000000000
B1620413802866S06005902WA0140901473000000000000
B1620433802895S06005879WA0141401478000000000000
B1620453802922S06005857WA0142101487000000000000
B1620473802947S06005835WA0142801493000000000000
B1620493802970S06005813WA0143301495000000000000
B1620513802995S06005790WA0143501499000000000000
B1620533803017S06005768WA0143701498000000000000
B1620553803035S06005744WA0143501496000000000000
B1620573803053S06005718WA0143401493000000000000
B1620593803074S06005696WA0143201489000000000000
B1621013803097S06005681WA0142601480000000000000
B1621033803123S06005668WA0141801472000000000000
B1621053803151S06005657WA0140901463000000000000
B1621073803179S06005644WA0140101455000000000000
B1621093803209S06005632WA0139501451000000000000
B1621113803239S06005620WA0139101451000000000000
B1621133803269S06005610WA0139201450000000000000
B1621153803299S06005598WA0139101450000000000000
B1621173803329S06005586WA0139001452000000000000
B1621193803359S06005572WA0139301457000000000000
B1621213803385S06005551WA0139901463000000000000
B1621233803408S06005530WA0140201465000000000000
B1621253803432S06005508WA0140401466000000000000
B1621273803454S06005486WA0140601468000000000000
B1621293803476S06005464WA0140801471000000000000
B1621313803498S06005443WA0141001473000000000000
B1621333803520S06005423WA0141101473000000000000
B1621353803541S06005402WA0141101472000000000000
B1621373803562S06005381WA0141001471000000000000
B1621393803582S06005360WA0140901468000000000000
B1621413803602S06005341WA0140501461000000000000
B1621433803625S06005320WA0140001456000000000000
B1621453803649S06005299WA0139601454000000000000
B1621473803672S06005278WA0139501456000000000000
B1621493803695S06005257WA0139501455000000000000
B1621513803718S06005235WA0139401453000000000000
B1621533803741S06005215WA0139301455000000000000
B1621553803763S06005194WA0139401456000000000000
B1621573803785S06005176WA0139501455000000000000
B1621593803807S06005157WA0139301452000000000000
B1622013803831S06005139WA0138901445000000000000
B1622033803854S06005122WA0138201436000000000000
B1622053803883S06005113WA0137201427000000000000
B1622073803914S06005113WA0136401419000000000000
B1622093803946S06005124WA0135701412000000000000
B1622113803979S06005138WA0135201410000000000000
B1622133804011S06005153WA0135101409000000000000
B1622153804044S06005169WA0135001409000000000000
B1622173804076S06005173WA0135101415000000000000
B1622193804106S06005165WA0135701421000000000000
B1622213804134S06005150WA0136501430000000000000
B1622233804158S06005131WA0137201436000000000000
B1622253804182S06005112WA0137901445000000000000
B1622273804205S06005094WA0138801455000000000000
B1622293804215S06005065WA0139701462000000000000
B1622313804202S06005034WA0140401468000000000000
B1622333804170S06005017WA0140801470000000000000
B1622353804132S06005023WA0141101471000000000000
B1622373804105S06005059WA0141401474000000000000
B1622393804102S06005105WA0142001482000000000000
B1622413804118S06005138WA0142701491000000000000
B1622433804141S06005147WA0143401497000000000000
B1622453804157S06005130WA0143901500000000000000
B1622473804152S06005101WA0144001501000000000000
B1622493804126S06005079WA0144201501000000000000
B1622513804089S06005081WA0144201499000000000000
B1622533804057S06005109WA0144101499000000000000
B1622553804046S06005156WA0144301504000000000000
B1622573804058S06005198WA0144901513000000000000
B1622593804080S06005225WA0145501518000000000000
B1623013804105S06005225WA0146001521000000000000
B1623033804117S06005202WA0146301523000000000000
B1623053804106S06005170WA0146401525000000000000
B1623073804075S06005153WA0146601526000000000000
B1623093804037S06005164WA0146801529000000000000
B1623113804011S06005200WA0147201533000000000000
B1623133804006S06005246WA0147701540000000000000
B1623153804022S06005280WA0148301545000000000000
B1623173804046S06005290WA0148601545000000000000
B1623193804065S06005272WA0148601546000000000000
B1623213804061S06005241WA0148901550000000000000
B1623233804036S06005216WA0149301556000000000000
B1623253804002S06005212WA0149901562000000000000
B1623273803967S06005229WA0150301566000000000000
B1623293803942S06005265WA0150601568000000000000
B1623313803937S06005312WA0151001573000000000000
B1623333803952S06005347WA0151601580000000000000
B1623353803975S06005363WA0151901585000000000000
B1623373803997S06005354WA0152401588000000000000
B1623393804004S06005328WA0152701594000000000000
B1623413803992S06005300WA0153301601000000000000
B1623433803967S06005283WA0153901604000000000000
B1623453803935S06005283WA0154301605000000000000
B1623473803901S06005304WA0154401608000000000000
B1623493803879S06005342WA0154601611000000000000
B1623513803872S06005385WA0155001617000000000000
B1623533803884S06005421WA0155501622000000000000
B1623553803906S06005439WA0156101625000000000000
B1623573803928S06005436WA0156301627000000000000
B1623593803940S06005413WA0156401628000000000000
B1624013803935S06005385WA0156601630000000000000
B1624033803911S06005363WA0156801631000000000000
B1624053803877S06005359WA0156901633000000000000
B1624073803844S06005376WA0157201636000000000000
B1624093803819S06005413WA0157401638000000000000
B1624113803812S06005458WA0157701642000000000000
B1624133803824S06005497WA0158101646000000000000
B1624153803846S06005519WA0158401647000000000000
B1624173803872S06005515WA0158401646000000000000
B1624193803887S06005490WA0158401648000000000000
B1624213803883S06005456WA0158701654000000000000
B1624233803863S06005430WA0159401660000000000000
B1624253803833S06005416WA0159801662000000000000
B1624273803796S06005423WA0160001663000000000000
B1624293803764S06005450WA0160001665000000000000
B1624313803745S06005491WA0160301668000000000000
B1624333803745S06005537WA0160601674000000000000
B1624353803760S06005568WA0161101680000000000000
B1624373803784S06005579WA0161501682000000000000
B1624393803803S06005568WA0161701683000000000000
B1624413803811S06005541WA0162001683000000000000
B1624433803802S06005510WA0162201686000000000000
B1624453803776S06005489WA0162401690000000000000
B1624473803741S06005486WA0162701694000000000000
B1624493803707S06005508WA0163001695000000000000
B1624513803685S06005547WA0163201695000000000000
B1624533803677S06005592WA0163301698000000000000
B1624553803686S06005631WA0163401700000000000000
B1624573803708S06005653WA0163701703000000000000
B1624593803732S06005651WA0164001705000000000000
B1625013803749S06005632WA0164201707000000000000
B1625033803751S06005602WA0164301709000000000000
B1625053803736S06005572WA0164501709000000000000
B1625073803707S06005555WA0164601712000000000000
B1625093803672S06005556WA0165001717000000000000
B1625113803638S06005579WA0165301717000000000000
B1625133803615S06005616WA0165401718000000000000
B1625153803606S06005660WA0165701723000000000000
B1625173803611S06005701WA0166101728000000000000
B1625193803624S06005731WA0166301732000000000000
B1625213803645S06005745WA0166701735000000000000
B1625233803667S06005744WA0167101736000000000000
B1625253803682S06005728WA0167201739000000000000
B1625273803689S06005703WA0167401741000000000000
B1625293803682S06005676WA0167501741000000000000
B1625313803664S06005654WA0167501740000000000000
B1625333803636S06005640WA0167501739000000000000
B1625353803601S06005640WA0167401738000000000000
B1625373803567S06005657WA0167501740000000000000
B1625393803537S06005685WA0167601743000000000000
B1625413803517S06005723WA0167901741000000000000
B1625433803511S06005767WA0167501736000000000000
B1625453803507S06005814WA0167101735000000000000
B1625463803502S06005837WA0167201737000000000000
B1625493803471S06005898WA0167201733000000000000
B1625513803439S06005931WA0166701726000000000000
B1625533803406S06005959WA0166101721000000000000
B1625553803370S06005989WA0165501715000000000000
B1625573803334S06006021WA0165001709000000000000
B1625593803298S06006056WA0164301699000000000000
B1626013803259S06006093WA0163201686000000000000
B1626033803221S06006135WA0161901675000000000000
B1626053803183S06006179WA0160901667000000000000
B1626073803146S06006225WA0160201660000000000000
B1626093803107S06006269WA0159501656000000000000
B1626113803066S06006309WA0159201654000000000000
B1626133803026S06006348WA0159001653000000000000
B1626153802987S06006388WA0158901649000000000000
B1626173802948S06006427WA0158501646000000000000
B1626193802909S06006465WA0158201642000000000000
B1626213802871S06006505WA0157801638000000000000
B1626233802834S06006546WA0157601638000000000000
B1626253802796S06006585WA0157601639000000000000
B1626273802759S06006624WA0157601638000000000000
B1626293802723S06006664WA0157701644000000000000
B1626313802688S06006702WA0158201653000000000000
B1626333802655S06006737WA0158901655000000000000
B1626353802623S06006769WA0159101654000000000000
B1626373802587S06006798WA0159001654000000000000
B1626393802548S06006819WA0159001654000000000000
B1626413802506S06006838WA0159001654000000000000
B1626433802464S06006859WA0159001655000000000000
B1626453802421S06006879WA0158901653000000000000
B1626473802377S06006897WA0158801650000000000000
B1626493802334S06006914WA0158501646000000000000
B1626513802291S06006932WA0157901639000000000000
B1626533802249S06006947WA0157201631000000000000
B1626553802204S06006959WA0156401624000000000000
B1626573802160S06006973WA0156201620000000000000
B1626593802116S06006990WA0155701618000000000000
B1627013802073S06007011WA0155501618000000000000
B1627033802030S06007033WA0155301615000000000000
B1627053801986S06007061WA0155001610000000000000
B1627073801944S06007093WA0154501605000000000000
B1627093801903S06007127WA0154201604000000000000
B1627113801862S06007163WA0154101605000000000000
B1627133801821S06007197WA0154201608000000000000
B1627153801786S06007239WA0154601614000000000000
B1627173801761S06007288WA0155401625000000000000
B1627193801747S06007339WA0156401636000000000000
B1627213801749S06007386WA0157501647000000000000
B1627233801768S06007414WA0158601657000000000000
B1627253801791S06007418WA0159401663000000000000
B1627273801808S06007401WA0159801665000000000000
B1627293801809S06007373WA0160001667000000000000
B1627313801796S06007344WA0160301670000000000000
B1627333801769S06007326WA0160601672000000000000
B1627353801735S06007324WA0160701671000000000000
B1627373801701S06007343WA0160701672000000000000
B1627393801675S06007378WA0161001676000000000000
B1627413801662S06007421WA0161401679000000000000
B1627433801662S06007462WA0161601682000000000000
B1627453801671S06007499WA0161801683000000000000
B1627473801690S06007523WA0161901684000000000000
B1627493801710S06007536WA0162001684000000000000
B1627513801731S06007535WA0161901683000000000000
B1627533801747S06007519WA0161901683000000000000
B1627553801748S06007492WA0161901684000000000000
B1627573801738S06007465WA0162001685000000000000
B1627593801716S06007441WA0162201686000000000000
B1628013801684S06007426WA0162201687000000000000
B1628033801651S06007419WA0162301689000000000000
B1628053801615S06007427WA0162501691000000000000
B1628073801584S06007451WA0162801693000000000000
B1628093801561S06007487WA0163001696000000000000
B1628113801549S06007530WA0163301699000000000000
B1628133801550S06007570WA0163501700000000000000
B1628153801562S06007604WA0163501699000000000000
B1628173801580S06007625WA0163301695000000000000
B1628193801602S06007631WA0163101694000000000000
B1628213801623S06007625WA0162901692000000000000
B1628233801641S06007608WA0162601687000000000000
B1628253801660S06007586WA0162001679000000000000
B1628273801680S06007564WA0161401672000000000000
B1628293801704S06007540WA0160801667000000000000
B1628313801730S06007516WA0159901656000000000000
B1628333801757S06007488WA0158701643000000000000
B1628353801788S06007458WA0157701633000000000000
B1628373801820S06007428WA0157101629000000000000
B1628393801851S06007396WA0156901629000000000000
B1628413801881S06007363WA0157001635000000000000
B1628433801911S06007332WA0157501643000000000000
B1628453801939S06007304WA0158101648000000000000
B1628473801966S06007276WA0158401648000000000000
B1628493801992S06007246WA0158201641000000000000
B1628513802018S06007217WA0157601636000000000000
B1628533802043S06007188WA0157101631000000000000
B1628553802070S06007159WA0156701628000000000000
B1628573802096S06007132WA0156501626000000000000
B1628593802124S06007105WA0156301625000000000000
B1629013802150S06007079WA0156201624000000000000
B1629033802176S06007050WA0156101623000000000000
B1629053802202S06007020WA0156101622000000000000
B1629073802226S06006990WA0156301627000000000000
B1629093802252S06006963WA0156801632000000000000
B1629113802277S06006938WA0157401639000000000000
B1629133802301S06006915WA0157701640000000000000
B1629153802325S06006890WA0157501634000000000000
B1629173802351S06006864WA0156901628000000000000
B1629193802376S06006837WA0156201621000000000000
B1629213802401S06006808WA0155901615000000000000
B1629233802427S06006780WA0155201607000000000000
B1629253802453S06006750WA0154401599000000000000
B1629273802479S06006719WA0153701593000000000000
B1629293802505S06006687WA0153201589000000000000
B1629313802532S06006656WA0152801585000000000000
B1629333802559S06006626WA0152401581000000000000
B1629353802588S06006596WA0151901576000000000000
B1629373802616S06006568WA0151501572000000000000
B1629393802645S06006538WA0151101568000000000000
B1629413802675S06006512WA0150601566000000000000
B1629433802709S06006491WA0150601568000000000000
B1629453802744S06006476WA0150801568000000000000
B1629473802779S06006463WA0150701564000000000000
B1629493802815S06006452WA0150501565000000000000
B1629513802850S06006439WA0150801571000000000000
B1629533802876S06006412WA0151801582000000000000
B1629553802879S06006375WA0152301600000000000000
B1629573802860S06006347WA0153901614000000000000
B1629593802828S06006334WA0155301621000000000000
B1630013802792S06006334WA0155901621000000000000
B1630033802756S06006349WA0156001622000000000000
B1630053802720S06006378WA0156201625000000000000
B1630073802698S06006420WA0156501629000000000000
B1630093802691S06006465WA0156901632000000000000
B1630113802702S06006503WA0157001631000000000000
B1630133802723S06006525WA0157001630000000000000
B1630153802746S06006528WA0156801629000000000000
B1630173802765S06006515WA0156901632000000000000
B1630193802779S06006494WA0157101633000000000000
B1630213802791S06006470WA0157401634000000000000
B1630233802804S06006446WA0157301633000000000000
B1630253802811S06006416WA0157401636000000000000
B1630273802808S06006382WA0157801642000000000000
B1630293802789S06006353WA0158301646000000000000
B1630313802757S06006342WA0158601649000000000000
B1630333802722S06006359WA0158801650000000000000
B1630353802698S06006399WA0159101655000000000000
B1630373802694S06006448WA0159501662000000000000
B1630393802707S06006487WA0160101667000000000000
B1630413802730S06006508WA0160601670000000000000
B1630433802753S06006505WA0160901672000000000000
B1630453802769S06006485WA0161201676000000000000
B1630473802770S06006456WA0161601682000000000000
B1630493802758S06006430WA0162001683000000000000
B1630513802731S06006414WA0162001682000000000000
B1630533802696S06006417WA0162101682000000000000
B1630553802665S06006440WA0162201683000000000000
B1630573802637S06006476WA0162301687000000000000
B1630593802619S06006518WA0162601690000000000000
B1631013802614S06006564WA0162801694000000000000
B1631033802626S06006602WA0163201699000000000000
B1631053802645S06006622WA0163601702000000000000
B1631073802667S06006625WA0163801702000000000000
B1631093802683S06006611WA0163801701000000000000
B1631113802693S06006586WA0163801702000000000000
B1631133802693S06006556WA0164001707000000000000
B1631153802683S06006530WA0164501713000000000000
B1631173802663S06006509WA0164901716000000000000
B1631193802636S06006499WA0165201715000000000000
B1631213802603S06006503WA0165001712000000000000
B1631233802570S06006526WA0164901714000000000000
B1631253802548S06006563WA0165301722000000000000
B1631273802536S06006604WA0166101730000000000000
B1631293802538S06006643WA0166601732000000000000
B1631313802554S06006669WA0166701729000000000000
B1631333802576S06006676WA0166501725000000000000
B1631353802596S06006663WA0166201725000000000000
B1631373802609S06006639WA0166301728000000000000
B1631393802611S06006612WA0166501732000000000000
B1631413802600S06006583WA0166801735000000000000
B1631433802574S06006565WA0167201738000000000000
B1631453802540S06006564WA0167601741000000000000
B1631473802509S06006585WA0167901744000000000000
B1631493802488S06006624WA0168201748000000000000
B1631513802483S06006671WA0168301749000000000000
B1631533802493S06006713WA0168501750000000000000
B1631553802516S06006738WA0168601751000000000000
B1631573802541S06006739WA0168701753000000000000
B1631593802558S06006721WA0168801753000000000000
B1632013802558S06006691WA0168901752000000000000
B1632033802538S06006664WA0168901754000000000000
B1632053802507S06006650WA0169001756000000000000
B1632073802471S06006655WA0169301760000000000000
B1632093802440S06006682WA0169501763000000000000
B1632113802420S06006725WA0169901768000000000000
B1632133802419S06006772WA0170401772000000000000
B1632153802433S06006807WA0171001775000000000000
B1632173802455S06006824WA0171201774000000000000
B1632193802476S06006820WA0171001768000000000000
B1632213802492S06006799WA0170301763000000000000
B1632233802492S06006769WA0170001761000000000000
B1632253802476S06006741WA0169901760000000000000
B1632273802449S06006720WA0169901761000000000000
B1632293802418S06006703WA0169801760000000000000
B1632313802381S06006703WA0169901763000000000000
B1632333802347S06006721WA0170101765000000000000
B1632353802323S06006756WA0170201764000000000000
B1632373802315S06006803WA0170201764000000000000
B1632393802325S06006842WA0170201766000000000000
B1632413802346S06006866WA0170401768000000000000
B1632433802371S06006872WA0170301764000000000000
B1632453802392S06006862WA0169801758000000000000
B1632473802411S06006842WA0169601756000000000000
B1632493802428S06006817WA0169301754000000000000
B1632513802446S06006791WA0169101753000000000000
B1632533802466S06006764WA0168901751000000000000
B1632553802485S06006738WA0168801751000000000000
B1632573802505S06006713WA0168601744000000000000
B1632593802527S06006690WA0167901734000000000000
B1633013802551S06006665WA0166901724000000000000
B1633033802577S06006641WA0165701711000000000000
B1633053802605S06006616WA0164701700000000000000
B1633073802635S06006590WA0163501688000000000000
B1633093802665S06006564WA0162601680000000000000
B1633113802697S06006537WA0161801673000000000000
B1633133802728S06006508WA0161501672000000000000
B1633153802759S06006478WA0161501676000000000000
B1633173802789S06006448WA0161901680000000000000
B1633193802819S06006421WA0162301686000000000000
B1633213802847S06006394WA0162901694000000000000
B1633233802873S06006368WA0163501698000000000000
B1633253802897S06006342WA0163801701000000000000
B1633273802919S06006317WA0164001702000000000000
B1633293802943S06006294WA0164001700000000000000
B1633313802966S06006269WA0163601694000000000000
B1633333802990S06006244WA0163201691000000000000
B1633353803013S06006219WA0162801689000000000000
B1633373803036S06006193WA0162801691000000000000
B1633393803060S06006167WA0162901694000000000000
B1633413803084S06006141WA0163301698000000000000
B1633433803108S06006117WA0163801703000000000000
B1633453803133S06006093WA0164201709000000000000
B1633473803146S06006062WA0164901718000000000000
B1633493803136S06006027WA0165601726000000000000
B1633513803108S06006004WA0166401731000000000000
B1633533803071S06006001WA0166801734000000000000
B1633553803036S06006023WA0167001734000000000000
B1633573803014S06006065WA0167101734000000000000
B1633593803013S06006114WA0167301739000000000000
B1634013803026S06006153WA0167801746000000000000
B1634033803049S06006174WA0168501752000000000000
B1634053803074S06006175WA0169101755000000000000
B1634073803091S06006161WA0169301756000000000000
B1634093803092S06006134WA0169301755000000000000
B1634113803077S06006108WA0169201754000000000000
B1634133803045S06006096WA0169301755000000000000
B1634153803010S06006105WA0169501757000000000000
B1634173802982S06006135WA0169501759000000000000
B1634193802965S06006175WA0169801762000000000000
B1634213802966S06006221WA0170001763000000000000
B1634233802983S06006253WA0170101766000000000000
B1634253803005S06006277WA0170301768000000000000
B1634273803030S06006282WA0170601770000000000000
B1634293803045S06006266WA0170701771000000000000
B1634313803045S06006240WA0170901772000000000000
B1634333803027S06006219WA0170901770000000000000
B1634353802995S06006208WA0170401759000000000000
B1634373802956S06006201WA0169101741000000000000
B1634393802909S06006199WA0167601729000000000000
B1634413802857S06006197WA0166901732000000000000
B1634433802806S06006204WA0167501746000000000000
B1634453802763S06006231WA0169101766000000000000
B1634473802733S06006273WA0170901785000000000000
B1634493802714S06006317WA0172501797000000000000
B1634513802714S06006360WA0173601809000000000000
B1634533802731S06006387WA0174601817000000000000
B1634553802754S06006391WA0175001814000000000000
B1634573802775S06006374WA0174801812000000000000
B1634593802782S06006342WA0174801816000000000000
B1635013802767S06006312WA0175301824000000000000
B1635033802739S06006297WA0176001830000000000000
B1635053802704S06006307WA0176501832000000000000
B1635073802676S06006336WA0176701834000000000000
B1635093802663S06006379WA0177101838000000000000
B1635113802670S06006420WA0177301841000000000000
B1635133802691S06006444WA0177801846000000000000
B1635153802717S06006448WA0178301852000000000000
B1635173802739S06006437WA0178501853000000000000
B1635193802752S06006411WA0178601853000000000000
B1635213802745S06006379WA0178801856000000000000
B1635233802718S06006360WA0179201859000000000000
B1635253802683S06006364WA0179401860000000000000
B1635273802653S06006392WA0179401859000000000000
B1635293802640S06006437WA0179301859000000000000
B1635313802645S06006479WA0179601864000000000000
B1635333802666S06006505WA0179801871000000000000
B1635353802689S06006508WA0180501874000000000000
B1635373802706S06006490WA0180901873000000000000
B1635393802704S06006459WA0180701870000000000000
B1635413802679S06006437WA0180601873000000000000
B1635433802645S06006437WA0180901878000000000000
B1635453802615S06006460WA0181401880000000000000
B1635473802600S06006500WA0181501878000000000000
B1635503802613S06006556WA0181301877000000000000
B1635523802636S06006568WA0181401880000000000000
B1635543802655S06006556WA0181601879000000000000
B1635563802662S06006530WA0181401873000000000000
B1635583802649S06006499WA0181001871000000000000
B1636003802626S06006473WA0180801873000000000000
B1636023802596S06006455WA0181001877000000000000
B1636043802561S06006451WA0181301877000000000000
B1636063802525S06006470WA0181401878000000000000
B1636083802501S06006507WA0181301880000000000000
B1636103802492S06006550WA0181601882000000000000
B1636123802499S06006589WA0181801883000000000000
B1636143802519S06006613WA0182001884000000000000
B1636163802542S06006617WA0182101887000000000000
B1636183802561S06006606WA0182301888000000000000
B1636203802575S06006585WA0182401886000000000000
B1636223802580S06006556WA0182401888000000000000
B1636243802572S06006526WA0182601891000000000000
B1636263802554S06006500WA0182801894000000000000
B1636283802525S06006486WA0183001893000000000000
B1636303802490S06006491WA0182801891000000000000
B1636323802458S06006515WA0182701889000000000000
B1636343802436S06006554WA0182601892000000000000
B1636363802428S06006598WA0182701896000000000000
B1636383802431S06006638WA0183101896000000000000
B1636403802445S06006672WA0183101892000000000000
B1636423802464S06006695WA0182701890000000000000
B1636443802488S06006708WA0182601894000000000000
B1636463802510S06006708WA0182901898000000000000
B1636483802525S06006694WA0183401900000000000000
B1636503802531S06006669WA0183601900000000000000
B1636523802525S06006639WA0183501898000000000000
B1636543802511S06006611WA0183301896000000000000
B1636563802485S06006587WA0183201897000000000000
B1636583802453S06006577WA0183201898000000000000
B1637003802416S06006585WA0183301895000000000000
B1637023802382S06006611WA0183101894000000000000
B1637043802351S06006643WA0183201899000000000000
B1637063802328S06006684WA0183501903000000000000
B1637083802323S06006728WA0183901905000000000000
B1637103802333S06006764WA0183901902000000000000
B1637123802355S06006784WA0183501899000000000000
B1637143802380S06006789WA0183301895000000000000
B1637163802405S06006784WA0183101894000000000000
B1637183802431S06006776WA0183201898000000000000
B1637203802451S06006756WA0183301903000000000000
B1637223802460S06006729WA0183801906000000000000
B1637243802457S06006697WA0184101905000000000000
B1637263802436S06006669WA0184101907000000000000
B1637283802402S06006656WA0184201908000000000000
B1637303802366S06006661WA0184201906000000000000
B1637323802330S06006685WA0184101905000000000000
B1637343802304S06006723WA0183901902000000000000
B1637363802293S06006771WA0183801905000000000000
B1637383802294S06006819WA0184301914000000000000
B1637403802303S06006862WA0184901920000000000000
B1637423802323S06006895WA0185501923000000000000
B1637443802347S06006912WA0185601922000000000000
B1637463802373S06006908WA0185501921000000000000
B1637483802390S06006888WA0185401921000000000000
B1637503802397S06006859WA0185401921000000000000
B1637523802394S06006827WA0185301917000000000000
B1637543802379S06006797WA0185001914000000000000
B1637563802355S06006772WA0184601910000000000000
B1637583802323S06006754WA0184301905000000000000
B1638003802288S06006745WA0184101905000000000000
B1638023802250S06006746WA0184201908000000000000
B1638043802212S06006759WA0184301910000000000000
B1638063802180S06006782WA0184501914000000000000
B1638083802156S06006817WA0184901919000000000000
B1638103802143S06006860WA0185401921000000000000
B1638123802143S06006903WA0185401920000000000000
B1638143802155S06006942WA0185301919000000000000
B1638163802174S06006973WA0185201920000000000000
B1638183802198S06006990WA0185401922000000000000
B1638203802223S06006990WA0185801926000000000000
B1638223802242S06006977WA0186101931000000000000
B1638243802254S06006954WA0186601934000000000000
B1638263802258S06006925WA0186901938000000000000
B1638283802254S06006893WA0187301940000000000000
B1638303802242S06006863WA0187601943000000000000
B1638323802223S06006836WA0187701943000000000000
B1638343802194S06006819WA0187701941000000000000
B1638363802159S06006821WA0187601941000000000000
B1638383802128S06006842WA0187601942000000000000
B1638403802104S06006875WA0187601943000000000000
B1638423802095S06006916WA0187801945000000000000
B1638443802099S06006958WA0188001948000000000000
B1638463802112S06006994WA0188201952000000000000
B1638483802132S06007020WA0188701955000000000000
B1638503802158S06007029WA0189201962000000000000
B1638523802180S06007020WA0189601968000000000000
B1638543802190S06006998WA0190301973000000000000
B1638563802185S06006968WA0190701973000000000000
B1638583802163S06006945WA0190701972000000000000
B1639003802130S06006937WA0190601970000000000000
B1639023802095S06006949WA0190501970000000000000
B1639043802064S06006972WA0190401970000000000000
B1639063802035S06007003WA0190601973000000000000
B1639083802017S06007045WA0191001978000000000000
B1639103802017S06007089WA0191501986000000000000
B1639123802030S06007126WA0192201991000000000000
B1639143802048S06007154WA0192601993000000000000
B1639163802072S06007170WA0192801995000000000000
B1639183802094S06007166WA0193001997000000000000
B1639203802109S06007148WA0193002001000000000000
B1639223802115S06007120WA0193302005000000000000
B1639243802103S06007093WA0193702007000000000000
B1639263802080S06007071WA0194002008000000000000
B1639283802047S06007063WA0194202011000000000000
B1639303802012S06007071WA0194402015000000000000
B1639323801981S06007096WA0194702020000000000000
B1639343801957S06007132WA0195202023000000000000
B1639363801948S06007175WA0195702028000000000000
B1639383801952S06007218WA0196102032000000000000
B1639403801965S06007253WA0196302033000000000000
B1639423801985S06007274WA0196502033000000000000
B1639443802007S06007279WA0196502032000000000000
B1639463802024S06007267WA0196402032000000000000
B1639483802034S06007248WA0196402031000000000000
B1639503802034S06007219WA0196302031000000000000
B1639523802022S06007192WA0196202031000000000000
B1639543802002S06007167WA0196302032000000000000
B1639563801973S06007152WA0196402033000000000000
B1639583801940S06007142WA0196602036000000000000
B1640003801905S06007146WA0196702038000000000000
B1640023801873S06007166WA0197002040000000000000
B1640043801849S06007201WA0197102037000000000000
B1640063801842S06007245WA0197002035000000000000
B1640083801847S06007288WA0196902040000000000000
B1640103801862S06007319WA0197102042000000000000
B1640123801885S06007336WA0197302042000000000000
B1640143801909S06007343WA0197302042000000000000
B1640163801931S06007336WA0197402041000000000000
B1640183801946S06007317WA0197302041000000000000
B1640203801951S06007288WA0197402044000000000000
B1640223801944S06007257WA0197702048000000000000
B1640243801926S06007228WA0198002052000000000000
B1640263801900S06007209WA0198502057000000000000
B1640283801869S06007198WA0198802058000000000000
B1640303801834S06007204WA0199002059000000000000
B1640323801799S06007222WA0199002059000000000000
B1640343801770S06007252WA0198802057000000000000
B1640363801749S06007292WA0198702056000000000000
B1640383801736S06007335WA0198802056000000000000
B1640403801736S06007379WA0198702052000000000000
B1640423801751S06007415WA0198502051000000000000
B1640443801771S06007440WA0198402054000000000000
B1640463801794S06007452WA0198602056000000000000
B1640483801817S06007453WA0198802058000000000000
B1640503801838S06007444WA0198902058000000000000
B1640523801855S06007426WA0198902057000000000000
B1640543801862S06007399WA0198902058000000000000
B1640563801860S06007367WA0199102062000000000000
B1640583801848S06007339WA0199402065000000000000
B1641003801827S06007313WA0199702068000000000000
B1641023801800S06007293WA0200102074000000000000
B1641043801768S06007282WA0200702079000000000000
B1641063801734S06007282WA0201102081000000000000
B1641083801699S06007295WA0201202081000000000000
B1641103801667S06007322WA0201302083000000000000
B1641123801645S06007358WA0201302081000000000000
B1641143801636S06007400WA0201102078000000000000
B1641163801638S06007440WA0200702073000000000000
B1641183801652S06007473WA0200402068000000000000
B1641203801674S06007493WA0200002066000000000000
B1641223801699S06007505WA0199702067000000000000
B1641243801725S06007512WA0199702068000000000000
B1641263801749S06007512WA0199802067000000000000
B1641283801771S06007499WA0199702066000000000000
B1641303801787S06007475WA0199602065000000000000
B1641323801797S06007445WA0199502063000000000000
B1641343801810S06007417WA0199402063000000000000
B1641363801827S06007391WA0199302060000000000000
B1641383801835S06007358WA0199102054000000000000
B1641403801820S06007324WA0198602051000000000000
B1641423801786S06007310WA0198202049000000000000
B1641443801747S06007311WA0197702043000000000000
B1641463801706S06007322WA0197302038000000000000
B1641483801666S06007334WA0196702032000000000000
B1641503801623S06007345WA0196102026000000000000
B1641523801578S06007357WA0195502018000000000000
B1641543801530S06007370WA0194702010000000000000
B1641563801482S06007382WA0194202007000000000000
B1641583801432S06007395WA0194002004000000000000
B1642003801384S06007408WA0193602001000000000000
B1642023801336S06007415WA0193501998000000000000
B1642043801288S06007421WA0193101994000000000000
B1642063801241S06007430WA0192801992000000000000
B1642083801194S06007440WA0192701992000000000000
B1642103801149S06007447WA0192701991000000000000
B1642123801103S06007449WA0192501988000000000000
B1642143801058S06007451WA0192301987000000000000
B1642163801012S06007451WA0192201987000000000000
B1642183800969S06007451WA0192201988000000000000
B1642203800926S06007448WA0192101987000000000000
B1642223800884S06007445WA0192001986000000000000
B1642243800841S06007444WA0191801985000000000000
B1642263800798S06007443WA0191601982000000000000
B1642283800752S06007443WA0190901972000000000000
B1642303800705S06007440WA0190301967000000000000
B1642323800656S06007439WA0190001965000000000000
B1642343800608S06007438WA0189701962000000000000
B1642363800559S06007438WA0189401960000000000000
B1642383800510S06007438WA0189301958000000000000
B1642403800462S06007438WA0189201957000000000000
B1642423800414S06007439WA0189101959000000000000
B1642443800367S06007441WA0189201961000000000000
B1642463800322S06007443WA0189301962000000000000
B1642483800278S06007445WA0189401961000000000000
B1642503800234S06007452WA0189301958000000000000
B1642523800189S06007461WA0188901949000000000000
B1642543800141S06007471WA0188001941000000000000
B1642563800092S06007479WA0187101933000000000000
B1642583800041S06007486WA0186501927000000000000
B1643003759990S06007493WA0185801920000000000000
B1643023759938S06007500WA0185201913000000000000
B1643043759886S06007508WA0184601908000000000000
B1643063759834S06007518WA0184201907000000000000
B1643083759784S06007529WA0184001905000000000000
B1643103759733S06007538WA0183801903000000000000
B1643123759682S06007544WA0183601899000000000000
B1643143759632S06007552WA0183101895000000000000
B1643163759581S06007558WA0182801893000000000000
B1643183759530S06007565WA0182801895000000000000
B1643203759481S06007573WA0182901897000000000000
B1643223759431S06007579WA0183001895000000000000
B1643243759383S06007587WA0182901893000000000000
B1643263759334S06007594WA0182701891000000000000
B1643283759286S06007600WA0182501888000000000000
B1643303759236S06007605WA0182201884000000000000
B1643323759187S06007607WA0181901881000000000000
B1643343759138S06007608WA0181501878000000000000
B1643363759088S06007609WA0181201876000000000000
B1643383759039S06007610WA0181101874000000000000
B1643403758989S06007613WA0180901872000000000000
B1643423758941S06007614WA0180701869000000000000
B1643443758892S06007616WA0180001861000000000000
B1643463758841S06007617WA0179101852000000000000
B1643483758789S06007616WA0178601848000000000000
B1643503758739S06007613WA0178401846000000000000
B1643523758688S06007612WA0178201844000000000000
B1643543758637S06007612WA0178001843000000000000
B1643563758586S06007612WA0178001843000000000000
B1643583758537S06007613WA0178001843000000000000
B1644003758488S06007614WA0177901841000000000000
B1644023758438S06007614WA0177701841000000000000
B1644043758390S06007616WA0177601841000000000000
B1644063758342S06007617WA0177701840000000000000
B1644083758295S06007618WA0177701840000000000000
B1644103758248S06007621WA0177601839000000000000
B1644123758202S06007622WA0177501838000000000000
B1644143758154S06007626WA0177101832000000000000
B1644163758105S06007630WA0176701827000000000000
B1644183758057S06007635WA0176301827000000000000
B1644203758009S06007638WA0176301828000000000000
B1644223757964S06007642WA0176501828000000000000
B1644243757917S06007646WA0176401826000000000000
B1644263757870S06007648WA0176301824000000000000
B1644283757823S06007653WA0176001821000000000000
B1644303757777S06007657WA0175701819000000000000
B1644323757731S06007661WA0175601820000000000000
B1644343757687S06007665WA0175701824000000000000
B1644363757643S06007668WA0175901825000000000000
B1644383757600S06007673WA0176001823000000000000
B1644403757557S06007678WA0175701817000000000000
B1644423757513S06007685WA0175401814000000000000
B1644443757468S06007691WA0175001811000000000000
B1644463757423S06007696WA0174801809000000000000
B1644483757376S06007701WA0174401803000000000000
B1644503757329S06007703WA0173901797000000000000
B1644523757283S06007703WA0173401794000000000000
B1644543757234S06007703WA0173101789000000000000
B1644563757186S06007703WA0172501782000000000000
B1644583757138S06007704WA0171801776000000000000
B1645003757088S06007708WA0171601776000000000000
B1645023757037S06007713WA0171501774000000000000
B1645043756986S06007717WA0171301772000000000000
B1645063756937S06007721WA0171401779000000000000
B1645083756889S06007725WA0172101788000000000000
B1645103756843S06007730WA0172801795000000000000
B1645123756799S06007735WA0173401799000000000000
B1645143756755S06007740WA0173401798000000000000
B1645163756711S06007744WA0173501801000000000000
B1645183756668S06007747WA0173801803000000000000
B1645203756625S06007750WA0173801801000000000000
B1645223756579S06007750WA0173601798000000000000
B1645243756535S06007748WA0173201794000000000000
B1645263756490S06007743WA0172901789000000000000
B1645283756444S06007739WA0172401783000000000000
B1645303756395S06007739WA0171501775000000000000
B1645323756344S06007740WA0170901769000000000000
B1645343756291S06007746WA0170401767000000000000
B1645363756240S06007751WA0170301767000000000000
B1645383756189S06007757WA0170501771000000000000
B1645403756141S06007765WA0170701773000000000000
B1645423756092S06007772WA0170801773000000000000
B1645443756045S06007779WA0170901776000000000000
B1645463755998S06007787WA0171301779000000000000
B1645483755953S06007794WA0171501778000000000000
B1645503755907S06007802WA0171301775000000000000
B1645523755862S06007808WA0170901769000000000000
B1645543755815S06007815WA0170201760000000000000
B1645563755765S06007822WA0169201747000000000000
B1645583755715S06007830WA0168201738000000000000
B1646003755663S06007839WA0167401731000000000000
B1646023755611S06007848WA0166701725000000000000
B1646043755557S06007856WA0166101718000000000000
B1646063755505S06007865WA0165401710000000000000
B1646083755452S06007872WA0164701704000000000000
B1646103755398S06007878WA0164201700000000000000
B1646123755343S06007883WA0163801697000000000000
B1646143755290S06007890WA0163701697000000000000
B1646163755238S06007895WA0163601696000000000000
B1646183755187S06007902WA0163601697000000000000
B1646203755138S06007907WA0163801700000000000000
B1646223755089S06007913WA0164001703000000000000
B1646243755041S06007920WA0164201702000000000000
B1646263754995S06007926WA0164001699000000000000
B1646283754946S06007933WA0163601696000000000000
B1646303754900S06007938WA0163501694000000000000
B1646323754853S06007945WA0163301693000000000000
B1646343754807S06007952WA0163201692000000000000
B1646363754762S06007961WA0163001688000000000000
B1646383754715S06007972WA0162501682000000000000
B1646403754668S06007978WA0161901676000000000000
B1646423754623S06007984WA0161401671000000000000
B1646443754575S06007989WA0160801663000000000000
B1646463754527S06007994WA0160001654000000000000
B1646483754477S06008000WA0159301648000000000000
B1646503754426S06008007WA0158801644000000000000
B1646523754374S06008013WA0158501641000000000000
B1646543754322S06008019WA0158301640000000000000
B1646563754270S06008024WA0158201641000000000000
B1646583754220S06008032WA0158301643000000000000
B1647003754170S06008043WA0158501647000000000000
B1647023754121S06008062WA0158801650000000000000
B1647043754075S06008084WA0159101656000000000000
B1647063754033S06008106WA0159701661000000000000
B1647083753990S06008127WA0160201664000000000000
B1647103753947S06008146WA0160601672000000000000
B1647123753905S06008163WA0161401682000000000000
B1647143753866S06008181WA0162401693000000000000
B1647163753828S06008197WA0163401703000000000000
B1647183753792S06008212WA0164301710000000000000
B1647203753757S06008220WA0164901717000000000000
B1647223753723S06008219WA0165301718000000000000
B1647243753688S06008214WA0165401717000000000000
B1647263753650S06008207WA0165201713000000000000
B1647283753611S06008199WA0165001714000000000000
B1647303753578S06008184WA0165201718000000000000
B1647323753552S06008160WA0165701723000000000000
B1647343753528S06008134WA0165901723000000000000
B1647363753503S06008108WA0165801721000000000000
B1647383753479S06008080WA0165801723000000000000
B1647403753451S06008050WA0166001728000000000000
B1647423753419S06008030WA0166701737000000000000
B1647443753383S06008034WA0167801751000000000000
B1647463753357S06008063WA0169101764000000000000
B1647483753349S06008099WA0170101770000000000000
B1647503753358S06008132WA0170101762000000000000
B1647523753379S06008154WA0169301749000000000000
B1647543753407S06008155WA0168601745000000000000
B1647563753432S06008133WA0168801756000000000000
B1647583753449S06008103WA0169701765000000000000
B1648003753457S06008067WA0170401771000000000000
B1648023753453S06008030WA0170601772000000000000
B1648043753431S06007999WA0170901773000000000000
B1648063753396S06007990WA0171101778000000000000
B1648083753359S06008004WA0171401782000000000000
B1648103753325S06008030WA0171901789000000000000
B1648123753298S06008065WA0172601798000000000000
B1648143753285S06008108WA0173501807000000000000
B1648163753292S06008147WA0174401814000000000000
B1648183753311S06008173WA0175001816000000000000
B1648203753337S06008181WA0175201816000000000000
B1648223753359S06008167WA0175401820000000000000
B1648243753371S06008136WA0175701828000000000000
B1648263753366S06008099WA0176501835000000000000
B1648283753346S06008069WA0177101840000000000000
B1648303753318S06008047WA0177701846000000000000
B1648323753284S06008038WA0178301850000000000000
B1648343753249S06008051WA0178801856000000000000
B1648363753225S06008084WA0179401863000000000000
B1648383753219S06008127WA0180001869000000000000
B1648403753229S06008164WA0180601874000000000000
B1648423753251S06008185WA0181101878000000000000
B1648443753277S06008186WA0181401882000000000000
B1648463753298S06008168WA0181901888000000000000
B1648483753310S06008138WA0182501892000000000000
B1648503753306S06008103WA0182601896000000000000
B1648523753284S06008073WA0183001899000000000000
B1648543753251S06008060WA0183401903000000000000
B1648563753217S06008071WA0183801909000000000000
B1648583753191S06008101WA0184401915000000000000
B1649003753177S06008141WA0185001920000000000000
B1649023753178S06008184WA0185501925000000000000
B1649043753195S06008216WA0186101931000000000000
B1649063753220S06008233WA0186501934000000000000
B1649083753246S06008225WA0186901938000000000000
B1649103753262S06008198WA0187201942000000000000
B1649123753263S06008160WA0187501943000000000000
B1649143753249S06008124WA0187801946000000000000
B1649163753219S06008101WA0188201951000000000000
B1649183753184S06008097WA0188601955000000000000
B1649203753150S06008115WA0189201962000000000000
B1649223753123S06008145WA0189801967000000000000
B1649253753099S06008203WA0190601974000000000000
B1649273753106S06008244WA0190801980000000000000
B1649293753124S06008273WA0191301983000000000000
B1649313753150S06008284WA0191701983000000000000
B1649333753172S06008270WA0192001987000000000000
B1649353753182S06008240WA0192201992000000000000
B1649373753178S06008205WA0192601995000000000000
B1649393753159S06008172WA0192801997000000000000
B1649413753128S06008153WA0193202001000000000000
B1649433753093S06008151WA0193502006000000000000
B1649453753059S06008166WA0194002012000000000000
B1649473753029S06008192WA0194702018000000000000
B1649493753015S06008231WA0195202023000000000000
B1649513753019S06008270WA0195702028000000000000
B1649533753035S06008297WA0196202032000000000000
B1649553753060S06008306WA0196502034000000000000
B1649573753084S06008296WA0196702035000000000000
B1649593753098S06008270WA0196802036000000000000
B1650013753098S06008234WA0196902038000000000000
B1650033753084S06008201WA0197102039000000000000
B1650053753056S06008177WA0197402042000000000000
B1650073753021S06008167WA0197502045000000000000
B1650093752986S06008164WA0197802049000000000000
B1650113752950S06008173WA0198102053000000000000
B1650133752920S06008198WA0198502055000000000000
B1650153752902S06008236WA0198702056000000000000
B1650173752902S06008277WA0198802058000000000000
B1650193752916S06008310WA0199102062000000000000
B1650213752939S06008325WA0199702070000000000000
B1650233752963S06008324WA0200402078000000000000
B1650253752983S06008309WA0201102083000000000000
B1650273752995S06008280WA0201502087000000000000
B1650293752996S06008244WA0201802090000000000000
B1650313752985S06008208WA0202102092000000000000
B1650333752963S06008177WA0202502096000000000000
B1650353752931S06008158WA0203102103000000000000
B1650373752898S06008151WA0203602106000000000000
B1650393752863S06008151WA0203602105000000000000
B1650413752825S06008151WA0203302099000000000000
B1650433752786S06008149WA0203102093000000000000
B1650453752746S06008143WA0202502083000000000000
B1650473752703S06008130WA0201602073000000000000
B1650493752658S06008115WA0200502058000000000000
B1650513752612S06008097WA0199102047000000000000
B1650533752561S06008078WA0198002039000000000000
B1650553752510S06008056WA0197502032000000000000
B1650573752460S06008033WA0196802026000000000000
B1650593752406S06008012WA0196202023000000000000
B1651013752353S06007993WA0195802021000000000000
B1651033752300S06007977WA0195702020000000000000
B1651053752246S06007964WA0195502020000000000000
B1651073752193S06007956WA0195502021000000000000
B1651093752141S06007952WA0195602023000000000000
B1651113752089S06007948WA0195802024000000000000
B1651133752037S06007947WA0195902025000000000000
B1651153751986S06007947WA0195702022000000000000
B1651173751936S06007946WA0195302014000000000000
B1651193751884S06007945WA0194602005000000000000
B1651213751830S06007943WA0193701998000000000000
B1651233751776S06007942WA0193101993000000000000
B1651253751721S06007939WA0192801988000000000000
B1651273751665S06007938WA0192301982000000000000
B1651293751609S06007935WA0191801976000000000000
B1651313751553S06007933WA0191201971000000000000
B1651333751496S06007930WA0190701968000000000000
B1651353751440S06007929WA0190501970000000000000
B1651373751386S06007928WA0190701972000000000000
B1651393751332S06007926WA0190901976000000000000
B1651413751280S06007926WA0191301983000000000000
B1651433751230S06007926WA0191901986000000000000
B1651453751182S06007926WA0192201990000000000000
B1651473751135S06007928WA0192401992000000000000
B1651493751088S06007930WA0192601992000000000000
B1651513751043S06007932WA0192501991000000000000
B1651533750997S06007934WA0192201988000000000000
B1651553750952S06007935WA0191801983000000000000
B1651573750905S06007937WA0191101973000000000000
B1651593750857S06007935WA0190301965000000000000
B1652013750807S06007934WA0189701959000000000000
B1652033750757S06007932WA0189201956000000000000
B1652053750706S06007930WA0189101953000000000000
B1652073750655S06007929WA0188801950000000000000
B1652093750604S06007926WA0188501947000000000000
B1652113750552S06007924WA0188201945000000000000
B1652133750502S06007921WA0188001944000000000000
B1652153750451S06007919WA0187801943000000000000
B1652173750400S06007916WA0187801945000000000000
B1652193750352S06007913WA0187901945000000000000
B1652213750304S06007911WA0187901945000000000000
B1652233750257S06007907WA0187801943000000000000
B1652253750209S06007906WA0187601942000000000000
B1652273750162S06007904WA0187401938000000000000
B1652293750114S06007903WA0186901930000000000000
B1652313750066S06007902WA0186201924000000000000
B1652333750017S06007899WA0185701918000000000000
B1652353749966S06007898WA0185101913000000000000
B1652373749915S06007895WA0184801908000000000000
B1652393749865S06007891WA0184301903000000000000
B1652413749814S06007887WA0183901900000000000000
B1652433749763S06007883WA0183501898000000000000
B1652453749713S06007881WA0183301897000000000000
B1652473749663S06007878WA0183201895000000000000
B1652493749613S06007874WA0182901891000000000000
B1652513749563S06007872WA0182501887000000000000
B1652533749514S06007869WA0182201885000000000000
B1652553749464S06007868WA0182201886000000000000
B1652573749418S06007865WA0182201887000000000000
B1652593749372S06007863WA0182001883000000000000
B1653013749325S06007860WA0181701880000000000000
B1653033749278S06007857WA0181501878000000000000
B1653053749233S06007856WA0181201874000000000000
B1653073749187S06007854WA0180801871000000000000
B1653093749143S06007851WA0180701867000000000000
B1653113749098S06007850WA0180401864000000000000
B1653133749052S06007848WA0179901860000000000000
B1653153749008S06007847WA0179601857000000000000
B1653173748965S06007844WA0179501861000000000000
B1653193748924S06007843WA0179601861000000000000
B1653213748881S06007842WA0179801861000000000000
B1653233748839S06007841WA0179801862000000000000
B1653253748800S06007831WA0179701860000000000000
B1653273748762S06007818WA0179701859000000000000
B1653293748725S06007805WA0179401856000000000000
B1653313748688S06007791WA0179201856000000000000
B1653333748651S06007774WA0179001851000000000000
B1653353748610S06007763WA0178801850000000000000
B1653373748570S06007755WA0178501849000000000000
B1653393748528S06007748WA0178301846000000000000
B1653413748487S06007742WA0178001843000000000000
B1653433748446S06007733WA0177901841000000000000
B1653453748407S06007721WA0177801840000000000000
B1653473748371S06007704WA0177701837000000000000
B1653493748336S06007682WA0177101826000000000000
B1653513748300S06007656WA0176101817000000000000
B1653533748261S06007629WA0175401817000000000000
B1653553748220S06007608WA0175401818000000000000
B1653573748177S06007594WA0175301811000000000000
B1653593748133S06007583WA0174601805000000000000
B1654013748092S06007573WA0174201807000000000000
B1654033748053S06007555WA0174401811000000000000
B1654053748019S06007532WA0174701811000000000000
B1654073747985S06007509WA0174601808000000000000
B1654093747951S06007482WA0174301805000000000000
B1654113747919S06007456WA0174101807000000000000
B1654133747885S06007428WA0174201807000000000000
B1654153747852S06007400WA0174301806000000000000
B1654173747821S06007369WA0174101803000000000000
B1654193747791S06007335WA0173901804000000000000
B1654213747763S06007302WA0174101808000000000000
B1654233747733S06007271WA0174501815000000000000
B1654253747705S06007243WA0175201824000000000000
B1654273747677S06007214WA0176001832000000000000
B1654293747655S06007184WA0176701837000000000000
B1654313747635S06007152WA0177201839000000000000
B1654333747620S06007116WA0177401841000000000000
B1654353747605S06007081WA0177601841000000000000
B1654373747590S06007048WA0177501838000000000000
B1654393747568S06007019WA0177101833000000000000
B1654413747540S06006997WA0176701825000000000000
B1654433747505S06006980WA0175701812000000000000
B1654453747466S06006968WA0174701806000000000000
B1654473747425S06006960WA0174401808000000000000
B1654493747384S06006953WA0174701815000000000000
B1654513747345S06006944WA0175201819000000000000
B1654533747308S06006931WA0175701826000000000000
B1654553747273S06006919WA0176301833000000000000
B1654573747236S06006907WA0176701834000000000000
B1654593747201S06006894WA0176601831000000000000
B1655013747170S06006872WA0176401830000000000000
B1655033747145S06006842WA0176301829000000000000
B1655053747130S06006807WA0176301826000000000000
B1655073747113S06006769WA0175901819000000000000
B1655093747093S06006730WA0175201810000000000000
B1655113747075S06006687WA0174501804000000000000
B1655133747055S06006643WA0174001802000000000000
B1655153747037S06006599WA0173801802000000000000
B1655173747010S06006561WA0173901804000000000000
B1655193746977S06006534WA0174401809000000000000
B1655213746938S06006520WA0174701811000000000000
B1655233746898S06006515WA0174801811000000000000
B1655253746858S06006518WA0174701808000000000000
B1655273746816S06006518WA0174501807000000000000
B1655293746775S06006517WA0174401808000000000000
B1655313746733S06006515WA0174601812000000000000
B1655333746694S06006513WA0174901814000000000000
B1655353746655S06006516WA0175101813000000000000
B1655373746617S06006522WA0174901811000000000000
B1655393746578S06006526WA0174601805000000000000
B1655413746539S06006528WA0173901799000000000000
B1655433746499S06006529WA0173401797000000000000
B1655453746460S06006528WA0173301796000000000000
B1655473746420S06006518WA0172901787000000000000
B1655493746379S06006500WA0172101776000000000000
B1655513746338S06006474WA0171101767000000000000
B1655533746296S06006447WA0170301760000000000000
B1655553746255S06006417WA0169701756000000000000
B1655573746214S06006386WA0169301751000000000000
B1655593746173S06006353WA0168701745000000000000
B1656013746132S06006318WA0168501745000000000000
B1656033746093S06006282WA0168601750000000000000
B1656053746056S06006247WA0169201754000000000000
B1656073746017S06006214WA0169301756000000000000
B1656093745979S06006183WA0169301754000000000000
B1656113745940S06006154WA0169101750000000000000
B1656133745902S06006123WA0168701748000000000000
B1656153745863S06006095WA0168501744000000000000
B1656173745826S06006065WA0168301741000000000000
B1656193745788S06006036WA0168001738000000000000
B1656213745749S06006006WA0167701736000000000000
B1656233745711S06005978WA0167501736000000000000
B1656253745675S06005948WA0167301732000000000000
B1656273745640S06005917WA0167101730000000000000
B1656293745605S06005885WA0166801726000000000000
B1656313745570S06005852WA0166401718000000000000
B1656333745534S06005816WA0165701715000000000000
B1656353745499S06005780WA0165301711000000000000
B1656373745462S06005746WA0164801709000000000000
B1656393745420S06005720WA0164701708000000000000
B1656413745376S06005698WA0164701706000000000000
B1656433745334S06005675WA0164701704000000000000
B1656453745294S06005649WA0164501701000000000000
B1656473745255S06005621WA0163901695000000000000
B1656493745215S06005590WA0163001686000000000000
B1656513745176S06005558WA0162601677000000000000
B1656533745137S06005521WA0161401672000000000000
B1656553745098S06005484WA0161201668000000000000
B1656573745057S06005449WA0161001667000000000000
B1656593745017S06005415WA0160901668000000000000
B1657013744979S06005381WA0161101670000000000000
B1657033744942S06005347WA0161101671000000000000
B1657053744905S06005313WA0161101671000000000000
B1657073744869S06005280WA0161201670000000000000
B1657093744831S06005247WA0161001667000000000000
B1657113744795S06005216WA0160701665000000000000
B1657133744757S06005183WA0160401662000000000000
B1657153744719S06005152WA0160101658000000000000
B1657173744682S06005122WA0159701655000000000000
B1657193744644S06005091WA0159501655000000000000
B1657213744608S06005061WA0159401655000000000000
B1657233744571S06005034WA0159401654000000000000
B1657253744533S06005007WA0159201652000000000000
B1657273744498S06004979WA0159001649000000000000
B1657293744462S06004952WA0158901650000000000000
B1657313744427S06004925WA0159001649000000000000
B1657333744393S06004897WA0158901646000000000000
B1657353744358S06004869WA0158101639000000000000
B1657373744320S06004840WA0157701636000000000000
B1657393744281S06004812WA0157601636000000000000
B1657413744242S06004784WA0158201644000000000000
B1657433744205S06004760WA0159101653000000000000
B1657453744168S06004741WA0159601659000000000000
B1657473744130S06004730WA0160001663000000000000
B1657493744091S06004727WA0160201664000000000000
B1657513744056S06004743WA0160401666000000000000
B1657533744032S06004773WA0160701668000000000000
B1657553744021S06004810WA0160901667000000000000
B1657573744025S06004844WA0160801664000000000000
B1657593744041S06004865WA0160601660000000000000
B1658013744063S06004869WA0160101654000000000000
B1658033744085S06004857WA0159701651000000000000
B1658053744108S06004841WA0159301648000000000000
B1658073744132S06004828WA0159101647000000000000
B1658093744156S06004814WA0159001647000000000000
B1658113744180S06004797WA0159001647000000000000
B1658133744202S06004776WA0159001647000000000000
B1658153744216S06004745WA0159101650000000000000
B1658173744214S06004710WA0159601656000000000000
B1658193744195S06004680WA0160201662000000000000
B1658213744172S06004656WA0160501662000000000000
B1658233744149S06004633WA0160401660000000000000
B1658253744123S06004610WA0160101657000000000000
B1658273744097S06004588WA0159701652000000000000
B1658293744068S06004563WA0159101647000000000000
B1658313744042S06004536WA0158701644000000000000
B1658333744017S06004506WA0158601641000000000000
B1658353743991S06004477WA0158401639000000000000
B1658373743961S06004451WA0158101637000000000000
B1658393743928S06004433WA0158001637000000000000
B1658413743893S06004419WA0158001635000000000000
B1658433743855S06004411WA0157701630000000000000
B1658453743817S06004414WA0157201624000000000000
B1658473743779S06004419WA0156601616000000000000
B1658493743739S06004419WA0155801607000000000000
B1658513743698S06004414WA0154901595000000000000
B1658533743652S06004406WA0153801585000000000000
B1658553743607S06004396WA0152801576000000000000
B1658573743558S06004385WA0152101572000000000000
B1658593743510S06004376WA0151601569000000000000
B1659013743462S06004371WA0151301565000000000000
B1659033743413S06004372WA0151001559000000000000
B1659053743363S06004381WA0150301553000000000000
B1659073743315S06004392WA0149701548000000000000
B1659093743266S06004403WA0149301543000000000000
B1659113743215S06004412WA0149001538000000000000
B1659133743166S06004418WA0148401532000000000000
B1659153743116S06004414WA0147801530000000000000
B1659173743071S06004398WA0147701529000000000000
B1659193743028S06004373WA0147501526000000000000
B1659213742986S06004346WA0147101521000000000000
B1659233742945S06004319WA0146601515000000000000
B1659253742903S06004293WA0146101511000000000000
B1659273742862S06004267WA0145701510000000000000
B1659293742820S06004241WA0145501506000000000000
B1659313742778S06004216WA0145001500000000000000
B1659333742736S06004193WA0144401493000000000000
B1659353742694S06004167WA0143601485000000000000
B1659373742652S06004141WA0142701475000000000000
B1659393742611S06004113WA0141801467000000000000
B1659413742569S06004085WA0141101460000000000000
B1659433742528S06004055WA0140001446000000000000
B1659453742483S06004024WA0139101438000000000000
B1659473742437S06003993WA0138801439000000000000
B1659493742391S06003961WA0138801441000000000000
B1659513742347S06003935WA0138901446000000000000
B1659533742300S06003917WA0139501455000000000000
B1659553742255S06003908WA0140301461000000000000
B1659573742209S06003904WA0140901469000000000000
B1659593742166S06003902WA0141701482000000000000
B1700013742127S06003899WA0142701489000000000000
B1700033742089S06003895WA0143701497000000000000
B1700053742054S06003902WA0144401505000000000000
B1700073742023S06003929WA0145101512000000000000
B1700093742009S06003969WA0145601515000000000000
B1700113742010S06004013WA0145701509000000000000
B1700133742027S06004046WA0145301504000000000000
B1700153742053S06004058WA0145101509000000000000
B1700173742074S06004047WA0145501516000000000000
B1700193742083S06004025WA0146201521000000000000
B1700213742082S06003996WA0146401519000000000000
B1700233742075S06003965WA0146201514000000000000
B1700253742065S06003933WA0145801513000000000000
B1700273742047S06003900WA0145701512000000000000
B1700293742023S06003870WA0145701512000000000000
B1700313741996S06003843WA0145601510000000000000
B1700333741974S06003814WA0145601512000000000000
B1700353741963S06003782WA0146101515000000000000
B1700373741961S06003749WA0146101511000000000000
B1700393741965S06003717WA0145701508000000000000
B1700413741978S06003687WA0145601506000000000000
B1700433741995S06003658WA0145201505000000000000
B1700453742014S06003630WA0145101509000000000000
B1700473742039S06003610WA0145901517000000000000
B1700493742066S06003610WA0146801526000000000000
B1700513742092S06003630WA0147501532000000000000
B1700533742112S06003661WA0147901538000000000000
B1700553742126S06003697WA0148501547000000000000
B1700573742128S06003739WA0149201555000000000000
B1700593742121S06003782WA0149901560000000000000
B1701013742106S06003822WA0150401562000000000000
B1701033742086S06003857WA0150501564000000000000
B1701053742058S06003882WA0150801567000000000000
B1701073742027S06003894WA0151001566000000000000
B1701093741997S06003891WA0150901563000000000000
B1701113741974S06003870WA0150701558000000000000
B1701133741963S06003842WA0150501559000000000000
B1701153741966S06003814WA0150601564000000000000
B1701173741978S06003795WA0151001568000000000000
B1701193741993S06003783WA0151501573000000000000
B1701213742011S06003775WA0152101579000000000000
B1701233742031S06003781WA0152201579000000000000
B1701253742049S06003801WA0152101576000000000000
B1701273742062S06003834WA0152101579000000000000
B1701293742071S06003870WA0152401582000000000000
B1701313742075S06003911WA0152701585000000000000
B1701333742070S06003951WA0153001588000000000000
B1701353742056S06003987WA0153401590000000000000
B1701373742031S06004016WA0153301586000000000000
B1701393742001S06004032WA0152801579000000000000
B1701413741967S06004033WA0152201574000000000000
B1701433741936S06004020WA0152101577000000000000
B1701453741915S06003998WA0152501584000000000000
B1701473741901S06003974WA0153001588000000000000
B1701493741893S06003951WA0153101586000000000000
B1701513741889S06003924WA0152801581000000000000
B1701533741896S06003898WA0152401578000000000000
B1701553741910S06003874WA0152301579000000000000
B1701573741930S06003856WA0152401582000000000000
B1701593741953S06003846WA0152801586000000000000
B1702013741978S06003846WA0153101591000000000000
B1702033742002S06003857WA0153601598000000000000
B1702053742023S06003882WA0154301604000000000000
B1702073742037S06003916WA0154801607000000000000
B1702093742040S06003957WA0155101608000000000000
B1702113742027S06003998WA0155401612000000000000
B1702133742002S06004029WA0155701616000000000000
B1702153741972S06004045WA0156101617000000000000
B1702173741941S06004045WA0156201617000000000000
B1702193741914S06004032WA0156201619000000000000
B1702213741897S06004008WA0156301619000000000000
B1702233741891S06003980WA0156301618000000000000
B1702253741900S06003955WA0156301617000000000000
B1702273741920S06003939WA0156401621000000000000
B1702293741943S06003929WA0156801626000000000000
B1702313741966S06003924WA0157101630000000000000
B1702333741989S06003937WA0157501634000000000000
B1702353742006S06003967WA0157801635000000000000
B1702373742013S06004007WA0158001636000000000000
B1702393742009S06004051WA0158001636000000000000
B1702413741992S06004090WA0158001638000000000000
B1702433741962S06004116WA0158301641000000000000
B1702453741930S06004128WA0158401642000000000000
B1702473741897S06004124WA0158601642000000000000
B1702493741870S06004108WA0158701643000000000000
B1702513741852S06004084WA0158801644000000000000
B1702533741841S06004056WA0158701642000000000000
B1702553741839S06004025WA0158701644000000000000
B1702573741840S06003995WA0159001648000000000000
B1702593741848S06003969WA0159401653000000000000
B1703013741865S06003954WA0159801657000000000000
B1703033741887S06003956WA0160101657000000000000
B1703053741909S06003973WA0160101654000000000000
B1703073741926S06004004WA0160001657000000000000
B1703093741933S06004042WA0160401663000000000000
B1703113741933S06004080WA0161001667000000000000
B1703133741926S06004119WA0161201668000000000000
B1703153741909S06004154WA0161301668000000000000
B1703173741884S06004182WA0161301668000000000000
B1703193741854S06004202WA0161301668000000000000
B1703213741822S06004215WA0161101662000000000000
B1703233741787S06004225WA0160301655000000000000
B1703253741749S06004233WA0159701651000000000000
B1703273741710S06004238WA0159601651000000000000
B1703293741670S06004241WA0159501651000000000000
B1703313741631S06004240WA0159401650000000000000
B1703333741590S06004237WA0159401653000000000000
B1703353741550S06004233WA0159701658000000000000
B1703373741512S06004229WA0160101656000000000000
B1703393741472S06004223WA0159901652000000000000
B1703413741432S06004215WA0159501650000000000000
B1703433741391S06004207WA0159301650000000000000
B1703453741352S06004198WA0159201649000000000000
B1703473741315S06004186WA0159101646000000000000
B1703493741277S06004169WA0158701637000000000000
B1703513741237S06004147WA0157701624000000000000
B1703533741195S06004124WA0156601615000000000000
B1703553741152S06004099WA0155901615000000000000
B1703573741109S06004077WA0155901619000000000000
B1703593741068S06004055WA0156201621000000000000
B1704013741027S06004032WA0156301621000000000000
B1704033740986S06004008WA0156301622000000000000
B1704053740945S06003986WA0156501624000000000000
B1704073740905S06003964WA0156701627000000000000
B1704093740866S06003942WA0156901629000000000000
B1704113740827S06003920WA0157301635000000000000
B1704133740789S06003898WA0157801641000000000000
B1704153740754S06003876WA0158301644000000000000
B1704173740718S06003852WA0158401642000000000000
B1704193740682S06003829WA0158101638000000000000
B1704213740644S06003804WA0157701636000000000000
B1704233740607S06003779WA0157901639000000000000
B1704253740571S06003755WA0158701653000000000000
B1704273740537S06003734WA0160101667000000000000
B1704293740503S06003716WA0161001675000000000000
B1704313740468S06003696WA0161401674000000000000
B1704333740432S06003678WA0161401674000000000000
B1704353740393S06003661WA0161301673000000000000
B1704373740354S06003643WA0161001667000000000000
B1704393740315S06003626WA0160101655000000000000
B1704413740272S06003606WA0158601636000000000000
B1704433740227S06003586WA0157001622000000000000
B1704453740178S06003565WA0156401613000000000000
B1704473740132S06003541WA0155601606000000000000
B1704493740084S06003519WA0155001605000000000000
B1704513740037S06003497WA0154901607000000000000
B1704533739993S06003473WA0155001608000000000000
B1704553739950S06003447WA0155001608000000000000
B1704573739908S06003421WA0155001607000000000000
B1704593739866S06003393WA0154901607000000000000
B1705013739825S06003367WA0155001609000000000000
B1705033739785S06003341WA0155201612000000000000
B1705053739746S06003315WA0155301613000000000000
B1705073739707S06003291WA0155401612000000000000
B1705093739668S06003267WA0155301610000000000000
B1705113739630S06003244WA0155101608000000000000
B1705133739591S06003220WA0154901604000000000000
B1705153739551S06003200WA0154501602000000000000
B1705173739510S06003183WA0154401600000000000000
B1705193739469S06003171WA0154201599000000000000
B1705213739426S06003166WA0154201595000000000000
B1705233739382S06003166WA0153801591000000000000
B1705253739336S06003168WA0153401586000000000000
B1705273739291S06003172WA0152901584000000000000
B1705293739246S06003179WA0152501582000000000000
B1705313739201S06003185WA0152501582000000000000
B1705333739157S06003192WA0152401579000000000000
B1705353739112S06003197WA0152001571000000000000
B1705373739064S06003202WA0151101560000000000000
B1705393739016S06003209WA0150001550000000000000
B1705413738966S06003216WA0149101544000000000000
B1705433738916S06003227WA0148701540000000000000
B1705453738867S06003236WA0148401538000000000000
B1705473738817S06003244WA0148101536000000000000
B1705493738769S06003253WA0148001535000000000000
B1705513738722S06003262WA0148001535000000000000
B1705533738676S06003272WA0148001535000000000000
B1705553738629S06003281WA0147901533000000000000
B1705573738583S06003288WA0147701531000000000000
B1705593738537S06003294WA0147501525000000000000
B1706013738491S06003301WA0147101522000000000000
B1706033738443S06003309WA0146701520000000000000
B1706053738395S06003315WA0146401520000000000000
B1706073738347S06003320WA0146401519000000000000
B1706093738300S06003326WA0146501522000000000000
B1706113738254S06003328WA0146701523000000000000
B1706133738209S06003330WA0146601520000000000000
B1706153738163S06003333WA0146301518000000000000
B1706173738119S06003340WA0146101516000000000000
B1706193738075S06003348WA0145801514000000000000
B1706213738031S06003358WA0145601511000000000000
B1706233737987S06003370WA0145401508000000000000
B1706253737942S06003383WA0144801499000000000000
B1706273737897S06003396WA0144001490000000000000
B1706293737850S06003415WA0143201484000000000000
B1706313737803S06003440WA0142801480000000000000
B1706333737757S06003467WA0142401474000000000000
B1706353737708S06003492WA0142201469000000000000
B1706373737662S06003517WA0141601464000000000000
B1706393737614S06003539WA0140901454000000000000
B1706413737563S06003561WA0139801443000000000000
B1706433737512S06003583WA0138801434000000000000
B1706453737461S06003606WA0138001429000000000000
B1706473737412S06003631WA0137601426000000000000
B1706493737361S06003655WA0137401425000000000000
B1706513737312S06003675WA0137101421000000000000
B1706533737264S06003696WA0136701416000000000000
B1706553737216S06003718WA0136201410000000000000
B1706573737169S06003743WA0135601405000000000000
B1706593737123S06003770WA0135101400000000000000
B1707013737078S06003798WA0134401389000000000000
B1707033737030S06003826WA0133101371000000000000
B1707053736982S06003859WA0131901364000000000000
B1707073736935S06003892WA0131401362000000000000
B1707093736889S06003928WA0131301363000000000000
B1707113736845S06003961WA0131101361000000000000
B1707133736802S06003996WA0131001360000000000000
B1707153736759S06004029WA0130901360000000000000
B1707173736717S06004063WA0130801358000000000000
B1707193736674S06004095WA0130601358000000000000
B1707213736633S06004128WA0130701361000000000000
B1707233736593S06004158WA0131001366000000000000
B1707253736554S06004186WA0131301368000000000000
B1707273736514S06004214WA0131401366000000000000
B1707293736475S06004240WA0131301365000000000000
B1707313736436S06004266WA0131101363000000000000
B1707333736398S06004293WA0130901360000000000000
B1707353736362S06004320WA0130701358000000000000
B1707373736324S06004349WA0130501356000000000000
B1707393736289S06004377WA0130201352000000000000
B1707413736251S06004409WA0129501341000000000000
B1707433736215S06004440WA0128701337000000000000
B1707453736177S06004474WA0128301332000000000000
B1707473736142S06004509WA0127901330000000000000
B1707493736107S06004545WA0127801330000000000000
B1707513736073S06004581WA0127501324000000000000
B1707533736041S06004622WA0127001319000000000000
B1707553736009S06004665WA0126601317000000000000
B1707573735978S06004708WA0126601318000000000000
B1707593735940S06004740WA0126901324000000000000
B1708013735898S06004758WA0127301328000000000000
B1708033735853S06004766WA0127801334000000000000
B1708053735810S06004770WA0128401341000000000000
B1708073735768S06004774WA0129001347000000000000
B1708093735725S06004778WA0129601352000000000000
B1708113735684S06004791WA0130201360000000000000
B1708133735645S06004810WA0130901365000000000000
B1708153735606S06004828WA0131001366000000000000
B1708173735566S06004840WA0131301370000000000000
B1708193735527S06004836WA0131601371000000000000
B1708213735493S06004817WA0131801373000000000000
B1708233735470S06004788WA0131901373000000000000
B1708253735452S06004757WA0131901371000000000000
B1708273735436S06004726WA0131801370000000000000
B1708293735433S06004696WA0131701368000000000000
B1708313735445S06004676WA0131601365000000000000
B1708333735467S06004679WA0130901354000000000000
B1708353735492S06004705WA0129701334000000000000
B1708373735511S06004752WA0128301319000000000000
B1708393735526S06004806WA0127401315000000000000
B1708413735535S06004864WA0127201316000000000000
B1708433735536S06004921WA0127501322000000000000
B1708453735532S06004977WA0128001330000000000000
B1708473735523S06005033WA0128501337000000000000
B1708493735517S06005085WA0129101346000000000000
B1708513735510S06005134WA0129801355000000000000
B1708533735514S06005176WA0130501360000000000000
B1708553735535S06005203WA0131001365000000000000
B1708573735560S06005209WA0131501368000000000000
B1708593735583S06005196WA0131901372000000000000
B1709013735600S06005174WA0132201375000000000000
B1709033735605S06005143WA0132601378000000000000
B1709053735592S06005112WA0133001382000000000000
B1709073735563S06005094WA0133201387000000000000
B1709093735531S06005096WA0133701390000000000000
B1709113735502S06005120WA0134101388000000000000
B1709133735488S06005157WA0133901385000000000000
B1709153735495S06005192WA0133701382000000000000
B1709173735515S06005212WA0133301380000000000000
B1709193735541S06005216WA0133101379000000000000
B1709213735567S06005216WA0133001381000000000000
B1709233735592S06005217WA0133301387000000000000
B1709253735615S06005215WA0133901395000000000000
B1709273735634S06005203WA0134601404000000000000
B1709293735643S06005178WA0135301407000000000000
B1709313735632S06005147WA0135601405000000000000
B1709333735602S06005126WA0135601406000000000000
B1709353735566S06005124WA0135901416000000000000
B1709373735528S06005133WA0136701421000000000000
B1709393735495S06005152WA0137001422000000000000
B1709413735466S06005183WA0137201424000000000000
B1709433735448S06005222WA0137601430000000000000
B1709453735440S06005263WA0137901433000000000000
B1709473735445S06005302WA0138101434000000000000
B1709493735461S06005329WA0138301434000000000000
B1709513735484S06005337WA0138401435000000000000
B1709533735504S06005325WA0138501435000000000000
B1709553735515S06005299WA0138601439000000000000
B1709573735523S06005270WA0139301445000000000000
B1709593735530S06005242WA0139901452000000000000
B1710013735527S06005211WA0140301455000000000000
B1710033735502S06005189WA0140701458000000000000
B1710053735467S06005191WA0141201464000000000000
B1710073735440S06005220WA0141501469000000000000
B1710093735430S06005259WA0141801468000000000000
B1710113735437S06005295WA0141801464000000000000
B1710133735458S06005313WA0141501461000000000000
B1710153735480S06005303WA0141101458000000000000
B1710173735488S06005274WA0141101464000000000000
B1710193735485S06005243WA0141401471000000000000
B1710213735483S06005212WA0142201478000000000000
B1710233735476S06005181WA0142801481000000000000
B1710253735453S06005157WA0143101481000000000000
B1710273735419S06005156WA0143101482000000000000
B1710293735389S06005181WA0143301485000000000000
B1710313735378S06005220WA0143401484000000000000
B1710333735384S06005257WA0143301483000000000000
B1710353735405S06005278WA0143301484000000000000
B1710373735428S06005276WA0143601488000000000000
B1710393735446S06005256WA0144001495000000000000
B1710413735457S06005226WA0144501503000000000000
B1710433735449S06005194WA0145201508000000000000
B1710453735422S06005174WA0145801514000000000000
B1710473735388S06005179WA0146501522000000000000
B1710493735363S06005205WA0147101525000000000000
B1710513735353S06005244WA0147301523000000000000
B1710533735361S06005281WA0147101518000000000000
B1710553735381S06005303WA0146801517000000000000
B1710573735407S06005303WA0147001526000000000000
B1710593735424S06005285WA0147701533000000000000
B1711013735436S06005260WA0148401536000000000000
B1711033735433S06005230WA0148401534000000000000
B1711053735411S06005204WA0148101530000000000000
B1711073735375S06005200WA0147901529000000000000
B1711093735344S06005226WA0148001534000000000000
B1711113735332S06005269WA0148401539000000000000
B1711133735344S06005306WA0148701541000000000000
B1711153735367S06005320WA0149001543000000000000
B1711173735393S06005313WA0149301547000000000000
