ACAM3FF
HFDTE050125
HFFXA050
HFPLTPILOT:Ole Refsgaard           
HFGTYGLIDERTYPE:Nimbus 4T   
HFGIDGLIDERID:OY-LIX 4T   
HFDTM100GPSDATUM:
HFRFWFIRMWAREVERSION:F2.6
HFRHWHARDWAREVERSION:300 Series Version 2
HFFTYFRTYPE:CAMBRIDGE AERO INSTRUMENTS, 302+
HFGPS:GARMIN,LVS-25,12,18000
HFPRSPRESSALTSENSOR:INTERSEMA, MS5534-AP, 20000
I033638FXA3941ENL4247REX
LCAMSBVER:5FWVER:F26300
C230423093639230423000103
C0000000N00000000WTAKEOFF     
C5600850N00859833E0001ArnborgR
C5555633N00940883E0761NimKrk  
C5637383N00946250E0152FyrkatBr
C5558083N00944933E0170Oestbirk
C5600633N00900867E0851ArnborgF
C0000000N00000000WLANDING     
B1706173802160S06008121WA0019500211000076000000
B1706193802160S06008121WA0019500211000064000000
B1706213802160S06008121WA0019600211000056000000
B1706233802160S06008121WA0019600211000044000000
B1706253802160S06008121WA0019600211000036000000
B1706273802160S06008121WA0019500211000036000000
B1706293802160S06008121WA0019500211000028000000
B1706313802160S06008121WA0019500211000024000000
B1706333802160S06008121WA0019500211000020000000
B1706353802160S06008121WA0019500211000040000000
B1706373802160S06008121WA0019500211000040000000
B1706393802160S06008121WA0019500211000036000000
B1706413802160S06008121WA0019500211000028000000
B1706433802160S06008121WA0019500211000040000000
B1706453802156S06008121WA0019500210000176000000
E170648PEV
B1706483802143S06008120WA0019600210000448000000
B1706493802138S06008121WA0019500210000580000000
B1706503802132S06008121WA0019500209000692000000
B1706513802124S06008123WA0019600209000800000000
B1706523802116S06008124WA0019600209000908000000
B1706533802107S06008125WA0019700209000996000000
B1706543802098S06008127WA0019700209000996000000
B1706553802087S06008128WA0019700209000996000000
B1706563802076S06008129WA0019700209000980000000
B1706573802064S06008130WA0019700209000980000000
B1706583802052S06008132WA0019700209000908000000
B1706593802039S06008133WA0019900209000836000000
B1707003802025S06008136WA0019900209000772000000
B1707013802012S06008137WA0020000209000704000000
B1707023801998S06008138WA0020000210000648000000
B1707033801982S06008140WA0020000211000600000000
B1707043801968S06008141WA0020200212000564000000
B1707083801907S06008146WA0021000220000476000000
B1707123801844S06008154WA0021400229000328000000
B1707163801781S06008160WA0022300239000224000000
B1707203801717S06008168WA0023400251000172000000
B1707243801653S06008172WA0024600261000132000000
B1707283801588S06008177WA0025400269000112000000
B1707323801524S06008195WA0026500280000100000000
B1707363801463S06008232WA0027900296000096000000
B1707403801409S06008284WA0029700313000092000000
B1707443801363S06008349WA0030700320000092000000
B1707483801324S06008422WA0031600331000088000000
B1707523801293S06008502WA0033000345000084000000
B1707563801264S06008582WA0034200358000076000000
B1708003801232S06008660WA0035400370000076000000
B1708043801196S06008736WA0036600384000076000000
B1708083801160S06008817WA0038100403000080000000
B1708123801125S06008900WA0039700416000084000000
B1708163801088S06008983WA0041200433000080000000
B1708203801050S06009061WA0042400443000084000000
B1708243801010S06009137WA0043300450000080000000
B1708283800968S06009213WA0043800456000084000000
B1708323800923S06009286WA0045000470000084000000
B1708363800872S06009351WA0046300482000080000000
B1708403800817S06009406WA0047200492000076000000
B1708443800756S06009447WA0048300502000080000000
B1708483800696S06009486WA0049000507000076000000
B1708523800634S06009518WA0049600516000076000000
B1708563800572S06009540WA0050600524000076000000
B1709003800509S06009546WA0051900535000076000000
B1709043800445S06009544WA0052600544000076000000
B1709083800382S06009540WA0054000560000072000000
B1709123800318S06009527WA0055700576000072000000
B1709163800256S06009511WA0057700599000072000000
B1709203800193S06009490WA0059600615000080000000
B1709243800135S06009460WA0061100628000080000000
B1709283800080S06009417WA0061800633000076000000
B1709323800026S06009373WA0062600644000076000000
B1709363759975S06009329WA0063900658000068000000
B1709403759931S06009274WA0065100671000068000000
B1709443759890S06009216WA0066600684000064000000
B1709483759851S06009156WA0067700696000064000000
B1709523759814S06009094WA0068600702000068000000
B1709563759776S06009029WA0069100705000072000000
B1710003759742S06008961WA0069500712000072000000
B1710043759710S06008894WA0070000719000068000000
B1710083759681S06008825WA0070900727000088000000
B1710123759646S06008773WA0071300728000092000000
B1710163759599S06008777WA0071600730000072000000
B1710203759560S06008819WA0071300720000060000000
B1710243759524S06008875WA0070800721000056000000
B1710283759495S06008943WA0071000719000052000000
B1710323759486S06009026WA0070600717000048000000
B1710363759469S06009102WA0070300715000052000000
B1710403759441S06009168WA0070200713000048000000
B1710443759399S06009221WA0069500701000044000000
B1710483759347S06009264WA0067900689000040000000
B1710523759291S06009286WA0067400684000040000000
B1710563759235S06009299WA0066600675000040000000
B1711003759179S06009315WA0065700666000040000000
B1711043759125S06009336WA0064600653000048000000
B1711083759067S06009358WA0064100651000056000000
B1711123759012S06009378WA0064300654000064000000
B1711163758960S06009415WA0064300652000064000000
B1711203758917S06009467WA0064200654000060000000
B1711243758884S06009528WA0064600661000056000000
B1711283758863S06009597WA0065200662000056000000
B1711323758866S06009676WA0065100664000052000000
B1711363758898S06009753WA0065400669000052000000
B1711403758956S06009797WA0066100674000048000000
B1711443759014S06009772WA0066300675000044000000
B1711483759022S06009707WA0066600678000044015000
B1711523758986S06009671WA0066900681000044015000
B1711563758941S06009698WA0067000682000044030000
B1712003758944S06009775WA0067200684000044030000
B1712043758999S06009820WA0067600691000044045000
B1712083759052S06009789WA0068400697000040045000
B1712123759047S06009728WA0068800698000048045000
B1712163759000S06009736WA0069000702000048045000
B1712203758993S06009807WA0069500706000048045000
B1712243759048S06009853WA0069600709000048045000
B1712283759099S06009813WA0070200715000048045000
B1712323759088S06009752WA0070600719000052045000
B1712363759043S06009740WA0070700719000048045000
B1712403759008S06009787WA0070900720000056045000
B1712443759018S06009862WA0071200726000056045000
B1712483759064S06009917WA0071800733000052045000
B1712523759126S06009915WA0072300739000048045000
B1712563759160S06009862WA0073100744000048045000
B1713003759147S06009807WA0073200742000048045000
B1713043759101S06009809WA0073000742000048045000
B1713083759087S06009874WA0073400745000048045000
B1713123759130S06009935WA0073300746000052045000
B1713163759197S06009943WA0073700749000048045000
B1713203759248S06009901WA0074000750000048045000
B1713243759238S06009836WA0073700748000048045000
B1713283759192S06009811WA0073900751000052045000
B1713323759156S06009854WA0074300755000048045000
B1713363759173S06009928WA0074700758000048045000
B1713403759233S06009960WA0075000759000048045000
B1713443759283S06009922WA0074800756000048045000
B1713483759282S06009857WA0074200755000044045000
B1713523759236S06009840WA0074000756000044060000
B1713563759208S06009900WA0074100755000048060000
B1714003759230S06009979WA0074400757000048060000
B1714043759294S06010001WA0074700765000044045000
B1714083759331S06009949WA0075100759000048045000
B1714123759305S06009897WA0074400756000048045000
B1714163759259S06009914WA0074400760000048045000
B1714203759253S06009984WA0075100767000044060000
B1714243759298S06010043WA0075400771000048045000
B1714283759357S06010044WA0075700772000044045000
B1714323759385S06009986WA0075400766000048045000
B1714363759348S06009945WA0075000764000048045000
B1714403759309S06009987WA0075000766000044045000
B1714443759330S06010065WA0075600772000048045000
B1714483759392S06010086WA0075900774000048045000
B1714523759430S06010027WA0076100775000052045000
B1714563759398S06009980WA0076000778000048045000
B1715003759357S06010021WA0076000777000052045000
B1715043759376S06010100WA0076200780000052045000
B1715083759437S06010136WA0076500787000052045000
B1715123759493S06010100WA0077300791000052045000
B1715163759490S06010032WA0077400794000052045000
B1715203759442S06010032WA0077700794000048045000
B1715243759434S06010106WA0077500788000048045000
B1715283759491S06010149WA0076800785000048060000
B1715323759547S06010106WA0076800790000048045000
B1715363759539S06010038WA0077400792000052060000
B1715403759494S06010009WA0077200793000044060000
B1715443759455S06010056WA0077400791000048060000
B1715483759474S06010130WA0077900797000056060000
B1715523759538S06010145WA0077900788000052060000
B1715563759580S06010090WA0077200788000044060000
B1716003759567S06010030WA0077200788000044045000
B1716043759520S06010015WA0077000780000040045000
B1716083759469S06010028WA0076500779000040030000
B1716123759417S06010036WA0076100774000040030000
B1716163759365S06010023WA0076600778000044030000
B1716203759316S06010039WA0076900782000044030000
B1716243759304S06010112WA0077000784000048030000
B1716283759353S06010169WA0077200788000044030000
B1716323759417S06010148WA0077600789000048030000
B1716363759430S06010086WA0078400798000052030000
B1716403759408S06010032WA0078700800000048030000
B1716443759373S06009995WA0078500797000044030000
B1716483759329S06009983WA0077500784000040030000
B1716523759277S06009987WA0075700769000044015000
B1716563759222S06009996WA0075400768000044015000
B1717003759169S06010009WA0076100776000044015000
B1717043759119S06010043WA0076400774000044015000
B1717083759109S06010117WA0075900771000044015000
B1717123759149S06010177WA0075800771000040015000
B1717163759209S06010182WA0075700767000036030000
B1717203759260S06010143WA0074900756000036030000
B1717243759313S06010095WA0073400742000036015000
B1717283759357S06010036WA0073400748000040015000
B1717323759347S06009973WA0073900754000044015000
B1717363759301S06009978WA0074400759000044030000
B1717403759299S06010052WA0075000767000056030000
B1717443759359S06010088WA0075700771000056045000
B1717483759405S06010035WA0075700772000056060000
B1717523759386S06009976WA0076200776000068060000
B1717563759338S06009963WA0076600781000068060000
B1718003759305S06010013WA0076600778000060060000
B1718043759326S06010086WA0076700786000060060000
B1718083759389S06010100WA0077000777000052060000
B1718123759433S06010040WA0076300779000056060000
B1718163759422S06009974WA0077400793000048045000
B1718203759382S06009957WA0077800795000044045000
B1718243759360S06010012WA0077500784000048045000
B1718283759402S06010074WA0077000791000052060000
B1718323759467S06010062WA0078200799000052045000
B1718363759482S06009992WA0078600805000048060000
B1718403759438S06009975WA0078800806000052060000
B1718443759422S06010041WA0078800799000052060000
B1718483759473S06010101WA0078300805000060060000
B1718523759543S06010090WA0078700809000064045000
B1718563759569S06010022WA0079500814000056045000
B1719003759535S06009974WA0079800816000056045000
B1719043759489S06010001WA0079800815000048045000
B1719083759490S06010079WA0079300808000052045000
B1719123759551S06010125WA0079600818000052045000
B1719163759616S06010100WA0080100822000056045000
B1719203759633S06010032WA0080900831000048045000
B1719243759597S06009996WA0081100828000052045000
B1719283759556S06010039WA0080400822000052045000
B1719323759573S06010121WA0080000820000052045000
B1719363759642S06010153WA0080600829000052045000
B1719403759697S06010110WA0081300833000052045000
B1719443759686S06010048WA0081900838000052045000
B1719483759642S06010026WA0082100838000048045000
B1719523759606S06010070WA0082100836000052045000
B1719563759623S06010148WA0081700833000052045000
B1720003759686S06010187WA0081800839000056045000
B1720043759751S06010169WA0082400841000052045000
B1720083759795S06010110WA0082500846000048045000
B1720123759803S06010040WA0082900847000048045000
B1720163759786S06009975WA0082600840000044030000
B1720203759755S06009922WA0081900838000048030000
B1720243759712S06009893WA0082000838000040030000
B1720283759663S06009888WA0081100825000044015000
B1720323759611S06009896WA0080200815000044015000
B1720363759561S06009909WA0080500822000044015000
B1720403759525S06009958WA0080300818000044015000
B1720443759528S06010036WA0079800812000044030000
B1720483759576S06010100WA0079100810000044030000
B1720523759643S06010114WA0079200809000048030000
B1720563759698S06010075WA0078700799000048030000
B1721003759719S06010010WA0078100797000048030000
B1721043759716S06009944WA0077900800000048030000
B1721083759704S06009883WA0077600793000044015000
B1721123759685S06009826WA0076800785000040015000
B1721163759645S06009792WA0076500785000040015000
B1721203759595S06009781WA0076500783000044015000
B1721243759543S06009780WA0076100781000048015000
B1721283759489S06009781WA0076600788000060015000
B1721323759434S06009796WA0077600796000056015000
B1721363759415S06009872WA0078100799000052015000
B1721403759461S06009932WA0078200803000048015000
B1721443759512S06009906WA0078500809000048030000
B1721483759507S06009853WA0079500817000048030000
B1721523759464S06009837WA0080500827000048045000
B1721563759442S06009904WA0080600823000048045000
B1722003759486S06009963WA0080200818000044045000
B1722043759541S06009944WA0079900818000044045000
B1722083759552S06009883WA0080900821000048045000
B1722123759526S06009840WA0082200831000048045000
B1722163759485S06009874WA0082400829000048060000
B1722203759493S06009953WA0081900826000044045000
B1722243759551S06009980WA0081500826000056045000
B1722283759584S06009922WA0081500828000056060000
B1722323759576S06009856WA0082000838000056045000
B1722363759525S06009858WA0082600844000052060000
B1722403759511S06009939WA0082400834000048060000
B1722443759565S06009993WA0081700834000044045000
B1722483759615S06009962WA0082200842000044045000
B1722523759617S06009902WA0082600842000044045000
B1722563759590S06009854WA0082700844000044045000
B1723003759545S06009832WA0082400840000044030000
B1723043759494S06009817WA0081400828000040030000
B1723083759450S06009778WA0080100817000044030000
B1723123759431S06009710WA0079100803000040030000
B1723163759438S06009627WA0076500775000048015000
B1723203759463S06009537WA0075000754000052015000
B1723243759491S06009446WA0073100735000056015000
B1723283759522S06009355WA0071800730000056015000
B1723323759554S06009271WA0071700727000052015000
B1723363759580S06009190WA0071000718000048015000
B1723403759603S06009109WA0070100708000048015000
B1723443759628S06009027WA0069100699000048015000
B1723483759652S06008946WA0068600696000044015000
B1723523759680S06008868WA0068700698000044015000
B1723563759708S06008795WA0068400692000040015000
B1724003759740S06008721WA0067800685000040015000
B1724043759772S06008647WA0067400684000040015000
B1724083759803S06008578WA0067800692000044015000
B1724123759825S06008509WA0068500696000048000000
B1724163759810S06008449WA0068900703000044015000
B1724203759762S06008449WA0069500708000044015000
B1724243759741S06008518WA0069700709000044030000
B1724283759786S06008582WA0069900710000044030000
B1724323759855S06008575WA0069900710000044030000
B1724363759883S06008510WA0069800709000044045000
B1724403759845S06008472WA0069900715000044045000
B1724443759807S06008526WA0070300718000048060000
B1724483759837S06008604WA0070600721000052060000
B1724523759909S06008610WA0070600718000048060000
B1724563759950S06008548WA0070400716000052060000
B1725003759927S06008485WA0070500723000052060000
B1725043759879S06008511WA0071000724000048060000
B1725083759889S06008597WA0070900725000048060000
B1725123759955S06008630WA0071400734000044045000
B1725163800006S06008579WA0071900733000048045000
B1725203759981S06008523WA0071700734000048060000
B1725243759935S06008558WA0071800733000060060000
B1725283759946S06008645WA0071800735000056060000
B1725323800011S06008687WA0072200742000052060000
B1725363800076S06008656WA0073300751000052045000
B1725403800089S06008589WA0073700756000048045000
B1725443800044S06008578WA0073600753000052060000
B1725483800028S06008652WA0073600757000048045000
B1725523800079S06008709WA0074000759000048045000
B1725563800145S06008688WA0074600763000044045000
B1726003800171S06008623WA0074800763000040045000
B1726043800137S06008578WA0074500760000056045000
B1726083800088S06008605WA0074100759000056045000
B1726123800066S06008679WA0074200761000056045000
B1726163800094S06008757WA0074500764000056045000
B1726203800163S06008769WA0075000773000048045000
B1726243800200S06008710WA0075700775000044045000
B1726283800167S06008671WA0075900773000064060000
B1726323800127S06008719WA0075600775000064060000
B1726363800149S06008801WA0075900779000060045000
B1726403800218S06008818WA0076600787000052045000
B1726443800257S06008758WA0077200787000052045000
B1726483800223S06008714WA0076900787000060060000
B1726523800182S06008764WA0076900788000056060000
B1726563800204S06008845WA0077400795000056060000
B1727003800271S06008871WA0078200800000048045000
B1727043800321S06008819WA0078200799000048060000
B1727083800297S06008765WA0078400802000052060000
B1727123800254S06008799WA0078300801000048060000
B1727163800269S06008881WA0078300803000052060000
B1727203800336S06008904WA0078700811000048060000
B1727243800377S06008851WA0079500818000044060000
B1727283800367S06008792WA0079900818000048045000
B1727323800343S06008739WA0079300810000044030000
B1727363800315S06008682WA0078800808000048030000
B1727403800287S06008630WA0079300813000048030000
B1727443800237S06008622WA0079200814000048030000
B1727483800195S06008671WA0079500813000048030000
B1727523800205S06008756WA0079500816000048030000
B1727563800267S06008790WA0079900818000048030000
B1728003800315S06008744WA0080100817000048045000
B1728043800295S06008691WA0080200821000052045000
B1728083800249S06008726WA0080400823000056060000
B1728123800265S06008805WA0080500823000052060000
B1728163800328S06008830WA0081000829000052045000
B1728203800373S06008780WA0080900825000056045000
B1728243800374S06008715WA0080800828000048045000
B1728283800343S06008670WA0080900828000048045000
B1728323800293S06008662WA0081200830000060045000
B1728363800263S06008728WA0080900831000056045000
B1728403800292S06008806WA0081400833000052045000
B1728443800358S06008813WA0081600837000052045000
B1728483800386S06008756WA0081900839000048045000
B1728523800353S06008715WA0082000841000048045000
B1728563800310S06008747WA0081900840000056045000
B1729003800313S06008829WA0082000841000068045000
B1729043800371S06008869WA0082100843000068045000
B1729083800426S06008831WA0082000842000068045000
B1729123800423S06008766WA0082000841000064045000
B1729163800378S06008752WA0082000843000056045000
B1729203800344S06008809WA0082000841000060045000
B1729243800362S06008892WA0082000843000064045000
B1729283800426S06008921WA0082300842000064045000
B1729323800479S06008870WA0081800835000068045000
B1729363800488S06008797WA0081800842000064045000
B1729403800455S06008753WA0081900839000052045000
B1729443800401S06008767WA0081700839000052045000
B1729483800373S06008839WA0081400833000064045000
B1729523800391S06008927WA0081400839000056045000
B1729563800449S06008973WA0082000845000052045000
B1730003800513S06008955WA0082000840000048045000
B1730043800547S06008892WA0081800837000044045000
B1730083800538S06008827WA0081500835000044045000
B1730123800497S06008793WA0081400831000044045000
B1730163800444S06008804WA0080900832000044045000
B1730203800403S06008858WA0081000830000044045000
B1730243800406S06008946WA0080900830000044045000
B1730283800464S06009003WA0080900832000044045000
B1730323800529S06008987WA0081300833000044045000
B1730363800544S06008923WA0081100828000044045000
B1730403800501S06008894WA0080600824000044045000
B1730443800461S06008946WA0080300823000040060000
B1730483800477S06009030WA0080600826000044045000
B1730523800531S06009089WA0080900830000048045000
B1730563800596S06009081WA0081000832000044045000
B1731003800618S06009018WA0080900828000048045000
B1731043800579S06008990WA0080800830000044045000
B1731083800543S06009044WA0080500825000040060000
B1731123800566S06009128WA0080100826000040060000
B1731163800630S06009160WA0080700829000040045000
B1731203800687S06009128WA0080600825000040045000
B1731243800699S06009063WA0080400824000044045000
B1731283800665S06009022WA0080200821000040045000
B1731323800616S06009044WA0080000819000040045000
B1731363800603S06009121WA0079800818000036045000
B1731403800651S06009181WA0079800820000040045000
B1731443800715S06009169WA0079900819000040045000
B1731483800737S06009107WA0079600816000044045000
B1731523800700S06009064WA0079100812000044045000
B1731563800648S06009082WA0079000814000044045000
B1732003800622S06009155WA0079100813000068060000
B1732043800655S06009233WA0079400819000064045000
B1732083800720S06009243WA0080000823000056045000
B1732123800751S06009189WA0080100819000052045000
B1732163800726S06009135WA0079200808000044045000
B1732203800673S06009143WA0078200804000040045000
B1732243800638S06009207WA0078600812000044045000
B1732283800659S06009289WA0079500817000048045000
B1732323800722S06009317WA0079400815000048045000
B1732363800770S06009272WA0079500815000048045000
B1732403800765S06009209WA0079200812000056045000
B1732443800721S06009189WA0078800814000048045000
B1732483800677S06009226WA0079300817000052045000
B1732523800676S06009306WA0079700821000048045000
B1732563800730S06009360WA0079800818000064045000
B1733003800794S06009337WA0079400817000056045000
B1733043800808S06009271WA0079900821000056045000
B1733083800774S06009232WA0080000822000048045000
B1733123800725S06009259WA0079600819000048045000
B1733163800705S06009334WA0080000827000048060000
B1733203800750S06009399WA0080500827000048045000
B1733243800815S06009384WA0080500823000048045000
B1733283800829S06009316WA0080400828000048045000
B1733323800785S06009295WA0081100835000048045000
B1733363800756S06009359WA0081500838000044060000
B1733403800795S06009430WA0081600838000048060000
B1733443800861S06009419WA0081300833000044045000
B1733483800877S06009349WA0081200836000044045000
B1733523800835S06009312WA0081700842000044045000
B1733563800785S06009342WA0082300849000044045000
B1734003800786S06009421WA0082900855000044045000
B1734043800847S06009460WA0083000849000040045000
B1734083800900S06009415WA0082500848000040045000
B1734123800890S06009350WA0082900853000044045000
B1734163800838S06009332WA0083100855000056045000
B1734203800787S06009376WA0083400857000072060000
B1734243800786S06009464WA0084200870000068060000
B1734283800839S06009519WA0084800871000072045000
B1734323800904S06009498WA0084100861000060045000
B1734363800932S06009425WA0083800863000056045000
B1734403800908S06009360WA0084600875000048045000
B1734443800858S06009347WA0085400885000044045000
B1734483800824S06009412WA0086400892000040045000
B1734523800855S06009493WA0087000897000036045000
B1734563800924S06009503WA0087200898000040045000
B1735003800955S06009434WA0087600904000040045000
B1735043800916S06009388WA0088300913000044045000
B1735083800865S06009428WA0089400924000044045000
B1735123800869S06009515WA0090300932000040045000
B1735163800932S06009558WA0090600932000052045000
B1735203800989S06009515WA0090600936000052045000
B1735243800986S06009440WA0091200940000052045000
B1735283800937S06009411WA0091800948000052045000
B1735323800898S06009471WA0092600958000048045000
B1735363800921S06009553WA0093500962000060045000
B1735403800991S06009568WA0093400963000056045000
B1735443801033S06009506WA0093800966000052045000
B1735483801011S06009440WA0094200974000052045000
B1735523800955S06009438WA0094600981000052045000
B1735563800930S06009514WA0095300987000052045000
B1736003800975S06009584WA0096100993000048045000
B1736043801042S06009579WA0096600999000052045000
B1736083801077S06009516WA0097501007000048045000
B1736123801060S06009455WA0098501017000044045000
B1736163801011S06009451WA0099101022000044045000
B1736203800984S06009519WA0099701027000048045000
B1736243801021S06009589WA0100301036000044045000
B1736283801089S06009585WA0101301048000044030000
B1736323801115S06009521WA0102401059000044030000
B1736363801082S06009475WA0103401068000040045000
B1736403801041S06009512WA0104201076000040045000
B1736443801066S06009584WA0104701081000044045000
B1736483801131S06009586WA0105701089000044045000
B1736523801159S06009521WA0106301094000044045000
B1736563801129S06009471WA0107101104000044045000
B1737003801082S06009497WA0107401105000044060000
B1737043801082S06009576WA0107701109000044060000
B1737083801136S06009631WA0108201119000044045000
B1737123801203S06009622WA0109201122000048045000
B1737163801245S06009559WA0109301123000048045000
B1737203801228S06009494WA0109601133000048045000
B1737243801181S06009484WA0110201135000048045000
B1737283801138S06009533WA0110001135000048045000
B1737323801136S06009616WA0109901135000048060000
B1737363801194S06009672WA0110201141000052045000
B1737403801264S06009654WA0110601141000052045000
B1737443801297S06009585WA0111101148000056030000
B1737483801272S06009527WA0111801153000052030000
B1737523801219S06009542WA0111801153000052045000
B1737563801203S06009618WA0112501160000048045000
B1738003801245S06009689WA0113201165000048045000
B1738043801314S06009716WA0113001159000048045000
B1738083801376S06009675WA0112701161000052030000
B1738123801387S06009602WA0113201167000048030000
B1738163801355S06009553WA0113701170000048030000
B1738203801303S06009559WA0113301168000052045000
B1738243801274S06009627WA0113801177000052045000
B1738283801303S06009701WA0114901187000052045000
B1738323801370S06009720WA0115501186000052045000
B1738363801417S06009666WA0115301188000052030000
B1738403801404S06009602WA0115901196000048030000
B1738443801357S06009597WA0116201197000048045000
B1738483801331S06009662WA0116401201000048045000
B1738523801367S06009731WA0117201209000052045000
B1738563801435S06009731WA0117301202000060045000
B1739003801467S06009662WA0117001204000060045000
B1739043801437S06009609WA0117201206000072045000
B1739083801387S06009629WA0117001205000072045000
B1739123801384S06009709WA0117301210000068045000
B1739163801440S06009766WA0117801212000064045000
B1739203801514S06009757WA0117401203000060045000
B1739243801552S06009687WA0117001204000060030000
B1739283801522S06009625WA0116901202000056030000
B1739323801466S06009633WA0116801198000052045000
B1739363801443S06009714WA0116001191000056045000
B1739403801496S06009788WA0116001198000056045000
B1739443801570S06009784WA0116801200000064030000
B1739483801601S06009714WA0116501197000056030000
B1739523801571S06009655WA0116301197000060030000
B1739563801517S06009644WA0116201190000056045000
B1740003801454S06009650WA0114801175000052030000
B1740043801385S06009663WA0113901165000048030000
B1740083801315S06009675WA0113501161000056015000
B1740123801242S06009690WA0113101160000064015000
B1740163801171S06009709WA0113201160000064015000
B1740203801097S06009726WA0111801141000060015000
B1740243801019S06009754WA0110501131000056015000
B1740283800943S06009785WA0110501134000056015000
B1740323800872S06009817WA0110501132000052015000
B1740363800802S06009846WA0110001125000056015000
B1740403800733S06009876WA0109301117000052015000
B1740443800664S06009906WA0108301106000048015000
B1740483800594S06009936WA0107301099000056015000
B1740523800523S06009953WA0107101100000056015000
B1740563800462S06009921WA0106701090000056015000
B1741003800423S06009843WA0106501091000056015000
B1741043800361S06009794WA0107101108000052015000
B1741083800292S06009818WA0108501119000052030000
B1741123800258S06009901WA0108501112000052030000
B1741163800292S06009987WA0107701107000056030000
B1741203800362S06010015WA0107401104000048030000
B1741243800431S06009999WA0106901097000048030000
B1741283800482S06009948WA0106701101000048030000
B1741323800510S06009882WA0107701114000044015000
B1741363800516S06009813WA0109301127000040015000
B1741403800474S06009768WA0110101132000040015000
B1741443800425S06009820WA0111001143000056030000
B1741483800458S06009902WA0111501144000064030000
B1741523800529S06009895WA0111501147000060030000
B1741563800539S06009820WA0112301159000060030000
B1742003800495S06009774WA0113501173000056030000
B1742043800443S06009813WA0114601186000048030000
B1742083800465S06009896WA0115301188000052030000
B1742123800534S06009905WA0115301187000064030000
B1742163800556S06009836WA0115901199000060030000
B1742203800507S06009806WA0117001211000060030000
B1742243800468S06009869WA0118301218000052045000
B1742283800499S06009948WA0118601223000052045000
B1742323800564S06009953WA0119001223000048030000
B1742363800587S06009889WA0119601233000044030000
B1742403800546S06009849WA0120301238000064030000
B1742443800491S06009891WA0120701243000068045000
B1742483800490S06009978WA0121101246000064045000
B1742523800548S06010021WA0121401244000060030000
B1742563800594S06009974WA0121001245000056030000
B1743003800577S06009909WA0121601251000052030000
B1743043800525S06009884WA0122301259000052030000
B1743083800484S06009940WA0122601260000048045000
B1743123800510S06010012WA0122601260000048030000
B1743163800570S06010005WA0122501256000044030000
B1743203800574S06009941WA0122701265000048030000
B1743243800523S06009934WA0123501270000048030000
B1743283800499S06010000WA0123501267000064045000
B1743323800542S06010062WA0122801261000064030000
B1743363800605S06010044WA0122301252000056030000
B1743403800603S06009976WA0122701264000064030000
B1743443800547S06009970WA0123001264000060030000
B1743483800525S06010043WA0123301271000056030000
B1743523800572S06010095WA0123801269000056030000
B1743563800627S06010058WA0122901255000052030000
B1744003800635S06009978WA0122401255000052030000
B1744043800626S06009895WA0122601260000048030000
B1744083800613S06009814WA0122701261000052015000
B1744123800599S06009733WA0122601257000052015000
B1744163800587S06009648WA0121301239000052015000
B1744203800577S06009553WA0119601227000048015000
B1744243800568S06009455WA0118801217000048015000
B1744283800566S06009351WA0117701206000044015000
B1744323800573S06009242WA0117101201000044000000
B1744363800583S06009133WA0116301190000052000000
B1744403800595S06009027WA0116001194000056000000
B1744443800605S06008927WA0116401195000056000000
B1744483800617S06008830WA0116001193000052000000
B1744523800630S06008736WA0116201191000068000000
B1744563800642S06008643WA0115601187000076000000
B1745003800650S06008553WA0114901179000076000000
B1745043800661S06008463WA0114301174000068000000
B1745083800682S06008377WA0113601163000064000000
B1745123800709S06008294WA0112901155000056000000
B1745163800741S06008210WA0112101144000052000000
B1745203800773S06008127WA0110301126000052000000
B1745243800807S06008043WA0109701129000056000000
B1745283800843S06007967WA0110801139000056000000
B1745323800877S06007894WA0111101140000052000000
B1745363800902S06007818WA0110601134000044000000
B1745403800912S06007738WA0110301132000044000000
B1745443800886S06007674WA0111101142000044000000
B1745483800834S06007657WA0111901155000044000000
B1745523800790S06007704WA0112701159000044015000
B1745563800796S06007786WA0113001161000048030000
B1746003800860S06007828WA0113201164000048030000
B1746043800915S06007778WA0113701171000044030000
B1746083800898S06007709WA0114401179000044030000
B1746123800841S06007714WA0114801187000044030000
B1746163800812S06007787WA0115601191000048045000
B1746203800843S06007869WA0115801194000052045000
B1746243800911S06007899WA0116301201000048030000
B1746283800975S06007865WA0117101205000044030000
B1746323800994S06007794WA0117501206000048030000
B1746363800954S06007740WA0117201206000044030000
B1746403800893S06007747WA0117401210000044030000
B1746443800855S06007811WA0118101219000044030000
B1746483800872S06007891WA0118701217000044030000
B1746523800937S06007939WA0117901210000048030000
B1746563801010S06007920WA0118101214000048030000
B1747003801038S06007846WA0118401216000044030000
B1747043801010S06007783WA0118501219000044030000
B1747083800954S06007777WA0118601220000044030000
B1747123800912S06007835WA0118701221000044030000
B1747163800926S06007924WA0118701217000048045000
B1747203800995S06007965WA0118101211000052045000
B1747243801056S06007911WA0118001212000052030000
B1747283801049S06007833WA0118301214000056045000
B1747323800990S06007812WA0118101213000060030000
B1747363800929S06007847WA0117601207000056045000
B1747403800867S06007893WA0116901196000060030000
B1747443800795S06007928WA0116201185000068030000
B1747483800718S06007943WA0114601170000060015000
B1747523800637S06007929WA0113001151000060015000
B1747563800555S06007899WA0111701142000056015000
B1748003800470S06007869WA0110601129000052015000
B1748043800384S06007844WA0109601121000052015000
B1748083800299S06007828WA0109001116000056015000
B1748123800213S06007812WA0108401110000060015000
B1748163800127S06007796WA0108101107000072015000
B1748203800042S06007776WA0108101106000072000000
B1748243759959S06007750WA0108101105000068000000
B1748283759877S06007746WA0107701103000060000000
B1748323759795S06007768WA0107201095000056000000
B1748363759716S06007805WA0106601090000052000000
B1748403759638S06007852WA0106201085000048000000
B1748443759561S06007906WA0105801082000052000000
B1748483759487S06007963WA0106001089000056000000
B1748523759418S06008023WA0106801097000056000000
B1748563759353S06008086WA0107501105000056000000
B1749003759287S06008147WA0108401114000056000000
B1749043759223S06008207WA0108301109000056000000
B1749083759161S06008271WA0107301098000052000000
B1749123759099S06008338WA0106201085000056000000
B1749163759034S06008406WA0105401080000064000000
B1749203758967S06008472WA0104901076000068000000
B1749243758902S06008539WA0104401070000060000000
B1749283758841S06008609WA0103601063000056000000
B1749323758783S06008680WA0103001060000052000000
B1749363758722S06008747WA0103001062000052000000
B1749403758662S06008804WA0103301066000048000000
B1749443758607S06008862WA0103401064000044000000
B1749483758560S06008933WA0102701057000044000000
B1749523758520S06009014WA0102301053000040000000
B1749563758489S06009102WA0102001049000036000000
B1750003758481S06009198WA0101801051000036000000
B1750043758499S06009290WA0102401058000040000000
B1750083758536S06009373WA0102701059000040000000
B1750123758593S06009432WA0102901061000044000000
B1750163758662S06009463WA0103201061000044000000
B1750203758731S06009462WA0103101062000044000000
B1750243758781S06009416WA0103801071000048000000
B1750283758779S06009350WA0104801077000048015000
B1750323758729S06009326WA0105001077000044015000
B1750363758681S06009382WA0104801076000048015000
B1750403758702S06009472WA0105201084000048030000
B1750443758767S06009508WA0105701088000048030000
B1750483758824S06009469WA0106401095000044030000
B1750523758835S06009402WA0106801096000044030000
B1750563758800S06009349WA0106701095000044015000
B1751003758740S06009346WA0106701098000044015000
B1751043758700S06009414WA0107101101000048030000
B1751083758718S06009499WA0107201103000044030000
B1751123758781S06009542WA0107501101000048030000
B1751163758854S06009533WA0107001096000048030000
B1751203758897S06009469WA0107001099000048030000
B1751243758883S06009397WA0107401103000048030000
B1751283758826S06009369WA0107701107000048030000
B1751323758774S06009417WA0108201113000048045000
B1751363758770S06009505WA0108401112000048060000
B1751403758815S06009579WA0108401113000044045000
B1751443758885S06009594WA0108501115000044030000
B1751483758936S06009549WA0108401111000044030000
B1751523758935S06009475WA0108401113000044030000
B1751563758884S06009440WA0109101121000044030000
B1752003758830S06009476WA0109901129000044045000
B1752043758819S06009559WA0110501132000044045000
B1752083758866S06009632WA0109901122000044045000
B1752123758940S06009637WA0109301118000044030000
B1752163758983S06009575WA0109301123000048030000
B1752203758965S06009506WA0109901132000048030000
B1752243758906S06009499WA0110501135000048045000
B1752283758865S06009564WA0110701138000048060000
B1752323758871S06009657WA0111101142000048060000
B1752363758923S06009720WA0111001140000048045000
B1752403758991S06009724WA0110901135000044030000
B1752443759041S06009675WA0110601132000044030000
B1752483759056S06009601WA0110301130000044045000
B1752523759034S06009533WA0110301133000044045000
B1752563758979S06009511WA0110801140000044030000
B1753003758924S06009553WA0111501146000044045000
B1753043758909S06009636WA0111601150000048060000
B1753083758945S06009710WA0112001152000048045000
B1753123759009S06009733WA0111901147000056045000
B1753163759065S06009697WA0111901146000052045000
B1753203759092S06009625WA0112201150000060030000
B1753243759087S06009551WA0112301150000056030000
B1753283759040S06009503WA0112301154000052015000
B1753323758979S06009511WA0113201163000048030000
B1753363758936S06009577WA0113601153000052045000
B1753403758940S06009674WA0112001144000060060000
B1753443758993S06009748WA0111701144000056045000
B1753483759066S06009768WA0111801145000060030000
B1753523759122S06009720WA0112301151000056030000
B1753563759126S06009641WA0112901154000056030000
B1754003759095S06009567WA0112901150000056030000
B1754043759047S06009495WA0112501146000068015000
B1754083758997S06009419WA0111701136000072015000
B1754123758947S06009339WA0110301121000064015000
B1754163758896S06009258WA0109301111000068015000
B1754203758848S06009169WA0108001099000060015000
B1754243758797S06009083WA0107301095000056015000
B1754283758739S06009007WA0107001090000060015000
B1754323758672S06008946WA0106001081000060015000
B1754363758597S06008896WA0105001070000060015000
B1754403758521S06008855WA0104901071000064000000
B1754443758447S06008817WA0104601065000060000000
B1754483758375S06008780WA0104001060000056000000
B1754523758303S06008744WA0103101050000056000000
B1754563758232S06008714WA0102301045000056000000
B1755003758157S06008693WA0102201046000056000000
B1755043758085S06008680WA0102201045000060000000
B1755083758012S06008671WA0102901055000060000000
B1755123757940S06008662WA0104101069000056000000
B1755163757871S06008649WA0104601065000052000000
B1755203757804S06008621WA0103801061000052000000
B1755243757740S06008579WA0103501058000052000000
B1755283757682S06008527WA0102801049000044000000
B1755323757626S06008465WA0101301030000044000000
B1755363757574S06008389WA0099101005000052000000
B1755403757524S06008302WA0097100988000056000000
B1755443757479S06008208WA0095700975000056000000
B1755483757436S06008112WA0094600964000056000000
B1755523757394S06008016WA0094000958000056000000
B1755563757353S06007922WA0093400950000060000000
B1756003757314S06007828WA0092600948000064000000
B1756043757279S06007737WA0093400957000056000000
B1756083757247S06007646WA0093500952000052000000
B1756123757212S06007556WA0092300940000052000000
B1756163757173S06007464WA0091200930000056000000
B1756203757136S06007371WA0091400935000060000000
B1756243757099S06007287WA0091400933000052000000
B1756283757065S06007202WA0090800926000052000000
B1756323757033S06007116WA0090100917000056000000
B1756363756995S06007032WA0089300912000056000000
B1756403756955S06006949WA0089000906000056000000
B1756443756917S06006864WA0088100900000060000000
B1756483756880S06006784WA0087800895000052000000
B1756523756835S06006706WA0086600881000052000000
B1756563756786S06006628WA0085400871000052000000
B1757003756735S06006552WA0084900863000056000000
B1757043756685S06006479WA0084000859000056000000
B1757083756642S06006403WA0084300862000056000000
B1757123756612S06006320WA0084100861000056000000
B1757163756596S06006231WA0083900857000056000000
B1757203756609S06006136WA0083500850000056000000
B1757243756623S06006039WA0082900848000056000000
B1757283756608S06005954WA0083700859000056000000
B1757323756558S06005913WA0084200866000048000000
B1757363756497S06005924WA0084700868000040015000
B1757403756454S06005988WA0084700872000040015000
B1757443756470S06006075WA0085200877000044015000
B1757483756532S06006106WA0085700883000048015000
B1757523756590S06006070WA0086300884000044015000
B1757563756597S06006001WA0086400886000044030000
B1758003756555S06005966WA0086800891000044030000
B1758043756503S06005993WA0087000892000044030000
B1758083756480S06006071WA0087200895000044030000
B1758123756512S06006149WA0087300895000044030000
B1758163756578S06006148WA0087800902000048030000
B1758203756592S06006079WA0088100905000048030000
B1758243756544S06006056WA0088600910000044030000
B1758283756506S06006123WA0088500908000044030000
B1758323756542S06006204WA0088600910000048030000
B1758363756610S06006201WA0088900915000052030000
B1758403756635S06006134WA0089300920000060030000
B1758443756596S06006097WA0090200930000056030000
B1758483756553S06006149WA0090500928000048045000
B1758523756568S06006235WA0090400931000052030000
B1758563756629S06006274WA0091000936000048030000
B1759003756690S06006245WA0091000933000044030000
B1759043756699S06006178WA0091200936000044030000
B1759083756659S06006139WA0091300934000048030000
B1759123756603S06006164WA0090900933000048030000
B1759163756583S06006245WA0091100938000044030000
B1759203756621S06006323WA0091400937000044030000
B1759243756692S06006340WA0091200932000056030000
B1759283756750S06006292WA0091100931000056030000
B1759323756755S06006219WA0091000933000052030000
B1759363756709S06006184WA0091200934000048030000
B1759403756656S06006219WA0090900931000048030000
B1759443756636S06006308WA0090900931000048045000
B1759483756669S06006396WA0091400939000052045000
B1759523756739S06006431WA0091800943000048030000
B1759563756803S06006401WA0091600934000048030000
B1800003756831S06006327WA0090600926000048030000
B1800043756818S06006252WA0090500929000060030000
B1800083756779S06006200WA0090800928000052015000
B1800123756722S06006175WA0090700926000048015000
B1800163756661S06006199WA0090800924000048015000
B1800203756629S06006282WA0090400924000052030000
B1800243756642S06006379WA0090600929000060030000
B1800283756704S06006433WA0091300935000060030000
B1800323756769S06006404WA0091200931000060030000
B1800363756796S06006330WA0091200932000056030000
B1800403756778S06006257WA0091000930000052015000
B1800443756726S06006212WA0090700926000052015000
B1800483756662S06006187WA0089900919000052015000
B1800523756596S06006166WA0089300909000048015000
B1800563756527S06006140WA0088200894000048015000
B1801003756461S06006099WA0087300893000060015000
B1801043756409S06006037WA0088000902000060015000
B1801083756373S06005966WA0089100913000060000000
B1801123756322S06005926WA0090000925000056000000
B1801163756261S06005945WA0090700931000056015000
B1801203756213S06006008WA0091500940000060015000
B1801243756180S06006088WA0092500948000056015000
B1801283756187S06006177WA0093300958000056015000
B1801323756237S06006236WA0094500969000044015000
B1801363756301S06006232WA0094900971000044015000
B1801403756344S06006177WA0095100972000044015000
B1801443756358S06006104WA0095600979000048015000
B1801483756334S06006044WA0096200989000048015000
B1801523756280S06006040WA0097400997000048015000
B1801563756245S06006102WA0098201007000044015000
B1802003756269S06006177WA0098701013000048015000
B1802043756326S06006200WA0099101016000048015000
B1802083756375S06006161WA0099301013000048015000
B1802123756382S06006091WA0098901014000052030000
B1802163756345S06006043WA0099501019000052030000
B1802203756289S06006044WA0099601020000048045000
B1802243756246S06006101WA0099501020000056060000
B1802283756244S06006187WA0099601020000060045000
B1802323756289S06006252WA0099701023000056045000
B1802363756354S06006271WA0100101023000056045000
B1802403756419S06006247WA0099501018000056045000
B1802443756461S06006179WA0099301020000056045000
B1802483756449S06006106WA0099401018000060030000
B1802523756395S06006078WA0098801016000056030000
B1802563756339S06006113WA0098801018000052045000
B1803003756304S06006186WA0099001018000048030000
B1803043756301S06006278WA0099001019000048030000
B1803083756336S06006360WA0099301021000056030000
B1803123756402S06006400WA0099401027000056015000
B1803163756469S06006382WA0100001027000048030000
B1803203756506S06006313WA0100101029000052030000
B1803243756492S06006242WA0100201032000048045000
B1803283756440S06006210WA0100401036000048045000
B1803323756383S06006236WA0100801041000052060000
B1803363756345S06006309WA0101201044000052075000
B1803403756345S06006403WA0101301046000052045000
B1803443756396S06006469WA0101401048000048030000
B1803483756469S06006476WA0101601046000048030000
B1803523756519S06006418WA0102001051000060030000
B1803563756518S06006342WA0102501055000060045000
B1804003756469S06006305WA0103101063000056045000
B1804043756415S06006344WA0103801074000056045000
B1804083756401S06006429WA0104601077000052045000
B1804123756439S06006505WA0104701075000052045000
B1804163756505S06006505WA0105101081000052030000
B1804203756543S06006446WA0105501079000052045000
B1804243756531S06006374WA0105101080000052030000
B1804283756478S06006346WA0105901083000052030000
B1804323756422S06006390WA0106101089000052030000
B1804363756404S06006477WA0106801096000052030000
B1804403756436S06006557WA0106801096000052030000
B1804443756505S06006573WA0107101101000052030000
B1804483756558S06006525WA0107201099000048030000
B1804523756571S06006448WA0106601095000048030000
B1804563756534S06006385WA0107201101000048015000
B1805003756473S06006365WA0107401102000052030000
B1805043756410S06006405WA0107801108000048030000
B1805083756384S06006487WA0108301112000056030000
B1805123756405S06006570WA0108401114000056030000
B1805163756464S06006616WA0108301113000060015000
B1805203756531S06006613WA0108401115000056015000
B1805243756582S06006561WA0108501114000052015000
B1805283756597S06006483WA0109001123000056015000
B1805323756574S06006417WA0109901126000056015000
B1805363756514S06006404WA0109701125000060030000
B1805403756467S06006461WA0110401134000060030000
B1805443756467S06006546WA0110901141000056030000
B1805483756518S06006607WA0110601138000056030000
B1805523756586S06006602WA0110801140000056030000
B1805563756629S06006539WA0110901143000068045000
B1806003756635S06006461WA0111501152000060030000
B1806043756599S06006404WA0111801142000056030000
B1806083756534S06006394WA0110501131000060030000
B1806123756479S06006452WA0110201134000056045000
B1806163756474S06006547WA0110501137000060045000
B1806203756527S06006615WA0110801139000060030000
B1806243756600S06006609WA0110701138000060045000
B1806283756640S06006541WA0110801141000060045000
B1806323756639S06006457WA0110701136000064045000
B1806363756600S06006391WA0110501129000060045000
B1806403756536S06006364WA0109301117000056045000
B1806443756474S06006401WA0108801120000052045000
B1806483756452S06006485WA0109401125000048045000
B1806523756471S06006572WA0109401123000048030000
B1806563756525S06006632WA0109401119000048030000
B1807003756596S06006622WA0108301106000048030000
B1807043756630S06006548WA0108001111000052030000
B1807083756600S06006485WA0108601117000052030000
B1807123756540S06006479WA0108601116000056045000
B1807163756488S06006530WA0108401112000056060000
B1807203756474S06006613WA0108101111000052045000
B1807243756512S06006681WA0107801107000048030000
B1807283756579S06006690WA0106801094000052045000
B1807323756630S06006634WA0106001090000056045000
B1807363756634S06006554WA0105501084000056045000
B1807403756597S06006489WA0105101080000060030000
B1807443756535S06006481WA0104901075000052030000
B1807483756492S06006550WA0104301064000052045000
B1807523756492S06006646WA0103201057000052030000
B1807563756532S06006729WA0102301049000048030000
B1808003756601S06006785WA0101501038000052030000
B1808043756675S06006830WA0100901036000064015000
B1808083756747S06006881WA0101101040000064015000
B1808123756812S06006947WA0101201037000068015000
B1808163756873S06007027WA0100901035000068015000
B1808203756930S06007110WA0100701032000056015000
B1808243756994S06007181WA0100001025000056015000
B1808283757065S06007246WA0099301015000052015000
B1808323757116S06007332WA0098701010000056015000
B1808363757124S06007435WA0098201003000060015000
B1808403757133S06007539WA0098501018000064015000
B1808443757172S06007623WA0099901036000056015000
B1808483757240S06007651WA0101601051000052015000
B1808523757298S06007612WA0102701058000048015000
B1808563757309S06007536WA0103101061000044030000
B1809003757268S06007487WA0103601070000048030000
B1809043757214S06007501WA0104501075000048045000
B1809083757186S06007577WA0104901079000060045000
B1809123757220S06007653WA0105301089000056045000
B1809163757288S06007655WA0106301098000072030000
B1809203757320S06007584WA0107101105000060045000
B1809243757288S06007525WA0107701114000056045000
B1809283757231S06007535WA0108601122000056045000
B1809323757205S06007605WA0109601129000056030000
B1809363757238S06007678WA0110101134000072030000
B1809403757310S06007681WA0110501140000064030000
B1809443757357S06007618WA0111401149000056045000
B1809483757351S06007540WA0111901152000052045000
B1809523757302S06007508WA0112501159000052045000
B1809563757250S06007545WA0113101162000052045000
B1810003757232S06007625WA0113001159000052045000
B1810043757271S06007701WA0113601176000052045000
B1810083757342S06007708WA0114801188000052030000
B1810123757388S06007640WA0115501190000048045000
B1810163757370S06007562WA0115801196000052045000
B1810203757312S06007548WA0117101208000052045000
B1810243757273S06007603WA0117601210000052045000
B1810283757289S06007682WA0118201219000052045000
B1810323757358S06007704WA0118701224000048030000
B1810363757411S06007648WA0119001227000044045000
B1810403757405S06007566WA0119301230000048045000
B1810443757348S06007548WA0120001236000048045000
B1810483757307S06007608WA0120001230000048045000
B1810523757338S06007687WA0120201239000052030000
B1810563757413S06007683WA0120701243000072030000
B1811003757444S06007600WA0121201247000068045000
B1811043757411S06007525WA0121501250000060030000
B1811083757348S06007519WA0121901258000064030000
B1811123757316S06007587WA0122101254000060030000
B1811163757350S06007661WA0122101259000060030000
B1811203757422S06007678WA0122701267000060030000
B1811243757479S06007629WA0123501278000056045000
E181124PEV
B1811243757479S06007629WA0123801278000052045000
B1811263757492S06007592WA0124001280000052045000
B1811273757494S06007573WA0124301281000080030000
B1811283757494S06007553WA0124401281000096030000
B1811293757489S06007535WA0124501281000092030000
B1811303757481S06007519WA0124501281000088030000
B1811313757471S06007506WA0124401280000088030000
B1811323757459S06007496WA0124401280000088030000
B1811333757446S06007487WA0124501278000080030000
B1811343757432S06007483WA0124401276000072030000
B1811353757416S06007482WA0124401274000068030000
B1811363757401S06007483WA0124301271000068030000
B1811373757387S06007488WA0124101268000064030000
B1811383757372S06007499WA0123901266000060030000
B1811393757359S06007510WA0123601263000056030000
B1811403757349S06007527WA0123301259000056030000
B1811413757341S06007545WA0123001257000056030000
B1811453757340S06007634WA0122401260000056045000
B1811493757381S06007709WA0123101263000056030000
B1811533757453S06007722WA0124001275000052030000
B1811573757507S06007666WA0124901283000048030000
B1812013757505S06007588WA0125601291000048045000
B1812053757455S06007564WA0126201293000048045000
B1812093757415S06007613WA0125301283000052045000
B1812133757429S06007696WA0125001281000052045000
B1812173757493S06007746WA0125101287000052030000
B1812213757569S06007731WA0125501291000048045000
B1812253757617S06007665WA0125801287000048045000
B1812293757611S06007582WA0125301287000048045000
B1812333757557S06007549WA0125701292000052045000
B1812373757504S06007588WA0125801287000080045000
B1812413757497S06007672WA0125501289000068030000
B1812453757550S06007733WA0126101298000064030000
B1812493757621S06007722WA0126701302000056030000
B1812533757660S06007652WA0127101304000052045000
B1812573757647S06007573WA0127201307000048030000
B1813013757597S06007523WA0127301306000048030000
B1813053757535S06007523WA0126701295000048030000
B1813093757489S06007582WA0125501288000048045000
B1813133757500S06007665WA0125601294000060030000
B1813173757561S06007712WA0125601291000052030000
B1813213757634S06007685WA0125501295000048030000
B1813253757660S06007601WA0126201298000048045000
B1813293757632S06007523WA0125701287000048045000
B1813333757582S06007460WA0124101273000052030000
B1813373757526S06007400WA0123101264000056015000
B1813413757478S06007332WA0122801262000056015000
B1813453757427S06007275WA0122501261000048015000
B1813493757375S06007223WA0121901250000044015000
B1813533757322S06007170WA0120901245000048015000
B1813573757260S06007129WA0120701244000048015000
B1814013757190S06007128WA0120701246000052015000
B1814053757132S06007183WA0121301251000052015000
B1814093757115S06007274WA0121601255000052015000
B1814133757155S06007354WA0121801258000048015000
B1814173757227S06007375WA0121801254000048030000
B1814213757286S06007327WA0121401251000044030000
B1814253757298S06007245WA0121401252000044030000
B1814293757276S06007168WA0122001259000048030000
B1814333757216S06007149WA0122601267000044015000
B1814373757168S06007205WA0123101267000044030000
B1814413757173S06007298WA0122701261000048030000
B1814453757237S06007349WA0122601266000048030000
B1814493757301S06007315WA0122801264000044030000
B1814533757311S06007233WA0122401263000048030000
B1814573757266S06007179WA0122601266000048030000
B1815013757203S06007193WA0123001268000048030000
B1815053757186S06007276WA0123301275000048030000
B1815093757234S06007344WA0124001278000048030000
B1815133757303S06007331WA0123801275000048030000
B1815173757327S06007254WA0123701276000044045000
B1815213757289S06007200WA0124001278000048030000
B1815253757231S06007219WA0124001273000056045000
B1815293757210S06007305WA0123601271000056045000
B1815333757241S06007395WA0123601274000056045000
B1815373757312S06007413WA0124001273000052030000
B1815413757366S06007358WA0123601265000048045000
B1815453757374S06007272WA0122501256000044045000
B1815493757340S06007197WA0122001252000044030000
B1815533757276S06007163WA0121701249000044030000
B1815573757211S06007196WA0121401248000044030000
B1816013757180S06007280WA0121701252000048030000
B1816053757189S06007378WA0121601246000048030000
B1816093757240S06007457WA0121101241000056015000
B1816133757315S06007503WA0120701235000060015000
B1816173757397S06007522WA0119801225000056015000
B1816213757483S06007532WA0118701212000056015000
B1816253757569S06007538WA0118301207000056015000
B1816293757656S06007545WA0117301194000052015000
B1816333757743S06007569WA0116201185000048015000
B1816373757823S06007613WA0115601180000048015000
B1816413757899S06007661WA0114701170000048015000
B1816453757982S06007712WA0113601155000052015000
B1816493758069S06007747WA0112801155000056015000
B1816533758157S06007753WA0113101158000048015000
B1816573758242S06007748WA0113101158000044015000
B1817013758324S06007735WA0113201158000044015000
B1817053758403S06007716WA0112601151000044015000
B1817093758484S06007691WA0111401139000040015000
B1817133758566S06007664WA0110401126000040015000
B1817173758653S06007640WA0109301114000044015000
B1817213758735S06007631WA0110301132000048015000
B1817253758811S06007640WA0111201141000048015000
B1817293758883S06007647WA0112101150000048015000
B1817333758950S06007617WA0112801156000044015000
B1817373758984S06007544WA0113501163000044015000
B1817413758954S06007482WA0114001169000040015000
B1817453758898S06007509WA0114401169000048015000
B1817493758879S06007594WA0114601174000048030000
B1817533758898S06007682WA0115501183000044015000
B1817573758961S06007721WA0116601197000044015000
B1818013759014S06007673WA0117401205000040015000
B1818053759009S06007597WA0118101212000040030000
B1818093758958S06007568WA0118701217000040030000
B1818133758908S06007613WA0118701221000040030000
B1818173758909S06007701WA0119301225000048030000
B1818213758966S06007757WA0119701232000044030000
B1818253759034S06007738WA0121101246000040030000
B1818293759054S06007665WA0121901252000040045000
B1818333759015S06007616WA0122401257000040030000
B1818373758961S06007652WA0122701267000044030000
B1818413758950S06007739WA0123801281000048030000
B1818453758996S06007811WA0125001293000044030000
B1818493759066S06007808WA0125901305000040030000
B1818533759101S06007737WA0126301305000040045000
B1818573759075S06007665WA0126601310000040030000
B1819013759014S06007666WA0127601320000040030000
B1819053758973S06007735WA0128701330000040030000
B1819093758988S06007829WA0129201329000048030000
B1819133759057S06007869WA0129701337000048030000
B1819173759114S06007815WA0130501345000044030000
B1819213759103S06007734WA0130901348000048030000
B1819253759043S06007734WA0131901361000048030000
B1819293759026S06007817WA0133201373000044030000
B1819333759086S06007876WA0133601378000044030000
B1819373759142S06007822WA0134401389000040030000
B1819413759126S06007744WA0135401396000052030000
B1819453759066S06007738WA0136001405000048030000
B1819493759030S06007809WA0137301416000048045000
B1819533759052S06007896WA0138201425000048030000
B1819573759118S06007913WA0139001433000044030000
B1820013759168S06007852WA0139701437000044045000
B1820053759177S06007769WA0139901439000056030000
B1820093759129S06007727WA0140701453000064030000
B1820133759083S06007777WA0141701463000056030000
B1820173759083S06007861WA0142601469000052030000
B1820213759135S06007916WA0143301481000048030000
B1820253759199S06007893WA0144301486000044030000
B1820293759231S06007820WA0144201484000044015000
B1820333759221S06007738WA0143501476000044015000
B1820373759165S06007691WA0143301477000044015000
B1820413759099S06007700WA0144101483000044015000
B1820453759048S06007755WA0144101479000040015000
B1820493759045S06007843WA0144001483000044015000
B1820533759090S06007912WA0144401487000056015000
B1820573759160S06007933WA0144701490000052015000
B1821013759229S06007896WA0145201494000052015000
B1821053759275S06007824WA0145401498000048015000
B1821093759279S06007738WA0145901499000048015000
B1821133759239S06007674WA0145401492000048015000
B1821173759173S06007672WA0144901488000044015000
B1821213759119S06007725WA0144601484000044015000
B1821253759101S06007813WA0144301482000044015000
B1821293759118S06007907WA0144401486000048015000
B1821333759170S06007977WA0144401485000048015000
B1821373759248S06007990WA0144701490000052015000
B1821413759317S06007947WA0145001492000056015000
B1821453759346S06007864WA0145101491000052015000
B1821493759329S06007781WA0145101491000048015000
B1821533759273S06007744WA0144801488000044015000
B1821573759213S06007776WA0144901487000044015000
B1822013759182S06007854WA0144701483000048015000
B1822053759186S06007946WA0144401483000048015000
B1822093759231S06008021WA0144401483000052015000
B1822133759305S06008043WA0144701484000064015000
B1822173759372S06008003WA0144501481000056015000
B1822213759412S06007926WA0144101478000052015000
B1822253759417S06007838WA0143701474000048015000
B1822293759387S06007764WA0143701473000048015000
B1822333759333S06007720WA0143101463000044015000
B1822373759264S06007724WA0142001451000044015000
B1822413759204S06007772WA0141201445000040000000
B1822453759170S06007852WA0140801442000044000000
B1822493759171S06007947WA0140701444000048000000
B1822533759214S06008024WA0140801445000064000000
B1822573759288S06008039WA0140801443000056015000
B1823013759351S06007995WA0140601439000048015000
B1823053759374S06007917WA0140201435000044015000
B1823093759352S06007846WA0140001436000044015000
B1823133759300S06007816WA0139901431000036015000
B1823173759242S06007838WA0138701420000036015000
B1823213759207S06007911WA0138101418000036015000
B1823253759197S06008000WA0137901413000036015000
B1823293759208S06008094WA0137101406000040015000
B1823333759226S06008185WA0136901408000040000000
B1823373759247S06008272WA0137101411000048000000
B1823413759275S06008359WA0137201411000048000000
B1823453759312S06008444WA0137301414000048000000
B1823493759363S06008515WA0137401412000056000000
B1823533759437S06008530WA0137001412000052015000
B1823573759489S06008472WA0137001411000044015000
B1824013759489S06008393WA0137001411000052015000
B1824053759450S06008333WA0136701409000048015000
B1824093759394S06008301WA0136301403000052015000
B1824133759333S06008284WA0136201402000052015000
B1824173759269S06008281WA0136401406000056015000
B1824213759210S06008322WA0136501408000052015000
B1824253759197S06008406WA0136601408000052015000
B1824293759239S06008480WA0136501405000048015000
B1824333759311S06008493WA0135601400000044015000
B1824373759368S06008436WA0135401400000044030000
B1824413759369S06008350WA0135401400000048045000
B1824453759317S06008298WA0135401401000048030000
B1824493759252S06008319WA0135701403000052030000
B1824533759214S06008394WA0135701401000052030000
B1824573759201S06008491WA0134901389000052030000
B1825013759200S06008595WA0133701376000052015000
B1825053759208S06008701WA0133401380000056015000
B1825093759217S06008808WA0133601377000056015000
B1825133759229S06008917WA0133101374000056015000
B1825173759238S06009024WA0133401377000052015000
B1825213759252S06009128WA0133201373000052015000
B1825253759282S06009226WA0132701364000048015000
B1825293759326S06009323WA0131201348000044000000
B1825333759378S06009416WA0130001339000044000000
B1825373759420S06009514WA0129401332000048000000
B1825413759442S06009618WA0128601324000048000000
B1825453759442S06009723WA0128001312000048000000
B1825493759430S06009831WA0126201295000052000000
B1825533759409S06009939WA0125101285000056000000
B1825573759382S06010044WA0124201277000056000000
B1826013759346S06010144WA0123801275000060000000
B1826053759316S06010246WA0123501271000060000000
B1826093759296S06010353WA0122901266000056000000
B1826133759290S06010464WA0122701262000056000000
B1826173759295S06010576WA0121801255000056000000
B1826213759312S06010685WA0121701254000056000000
B1826253759327S06010797WA0120701238000052000000
B1826293759331S06010914WA0119501229000056000000
B1826333759324S06011031WA0118501219000056000000
B1826373759312S06011145WA0118101216000056000000
B1826413759305S06011258WA0117801215000056000000
B1826453759301S06011366WA0118001217000068000000
B1826493759301S06011477WA0117201204000064000000
B1826533759303S06011595WA0115901195000060000000
B1826573759309S06011709WA0115901195000060000000
B1827013759314S06011822WA0115301186000060000000
B1827053759320S06011937WA0114701181000060000000
B1827093759327S06012050WA0114301177000060000000
B1827133759335S06012164WA0113501168000060000000
B1827173759343S06012281WA0112901163000056000000
B1827213759346S06012401WA0112101154000056000000
B1827253759343S06012519WA0111501148000056000000
B1827293759340S06012635WA0111201147000056000000
B1827333759342S06012749WA0110601137000056000000
B1827373759347S06012864WA0109601128000052000000
B1827413759356S06012978WA0108601119000060000000
B1827453759369S06013090WA0108101115000056000000
B1827493759385S06013199WA0107901116000056000000
B1827533759403S06013304WA0107601110000052000000
B1827573759421S06013408WA0107101105000048000000
B1828013759442S06013512WA0106601099000048000000
B1828053759467S06013611WA0106401097000048000000
B1828093759490S06013711WA0105601085000048000000
B1828133759511S06013818WA0103701064000052000000
B1828173759542S06013931WA0102101051000052000000
B1828213759577S06014044WA0101501050000052000000
B1828253759606S06014155WA0101201042000048000000
B1828293759619S06014270WA0100301032000056000000
B1828333759625S06014393WA0098701016000060000000
B1828373759624S06014515WA0098701025000064000000
B1828413759613S06014628WA0099501031000060000000
B1828453759599S06014738WA0099801034000060000000
B1828493759581S06014842WA0100701045000056000000
B1828533759559S06014935WA0101501049000056000000
B1828573759534S06015023WA0101501051000052000000
B1829013759516S06015110WA0101901055000048000000
B1829053759508S06015206WA0101501046000052000000
B1829093759509S06015309WA0101001046000052000000
B1829133759503S06015408WA0102001057000052000000
B1829173759489S06015501WA0102701061000048000000
B1829213759473S06015595WA0102701059000052000000
B1829253759468S06015694WA0102201053000052000000
B1829293759473S06015797WA0101301042000056000000
B1829333759485S06015901WA0100101030000056000000
B1829373759500S06016008WA0098901020000052000000
B1829413759519S06016118WA0098201012000048000000
B1829453759537S06016229WA0097301003000048000000
B1829493759554S06016345WA0096500992000052000000
B1829533759572S06016462WA0096100992000052000000
B1829573759590S06016578WA0095800987000052000000
B1830013759611S06016694WA0095000977000052000000
B1830053759634S06016809WA0094100968000056000000
B1830093759662S06016918WA0093900972000056000000
B1830133759686S06017020WA0094300972000052000000
B1830173759708S06017119WA0093100955000048000000
B1830213759725S06017225WA0091400937000044000000
B1830253759732S06017336WA0090000924000048000000
B1830293759728S06017446WA0089100916000048000000
B1830333759716S06017553WA0088100907000068000000
B1830373759701S06017657WA0087200898000064000000
B1830413759685S06017760WA0086500889000060000000
B1830453759676S06017858WA0086000891000052000000
B1830493759671S06017953WA0086600897000048000000
B1830533759671S06018047WA0087300904000048000000
B1830573759668S06018138WA0087500904000052000000
B1831013759655S06018225WA0088300914000052000000
B1831053759638S06018306WA0089100919000052000000
B1831093759652S06018397WA0089200921000048000000
B1831133759676S06018494WA0089100919000048000000
B1831173759685S06018594WA0089100921000052000000
B1831213759664S06018685WA0089900933000052000000
B1831253759621S06018753WA0091000943000056000000
B1831293759564S06018793WA0091900954000052000000
B1831333759507S06018816WA0093300968000048000000
B1831373759451S06018803WA0093900973000048000000
B1831413759429S06018735WA0094500978000048000000
B1831453759443S06018655WA0094300972000056000000
B1831493759495S06018593WA0094100976000056000000
B1831533759564S06018573WA0094900983000052000000
B1831573759632S06018598WA0095300987000052000000
B1832013759680S06018659WA0095500989000048000000
B1832053759693S06018744WA0095800991000052000000
B1832093759665S06018813WA0096601000000048000000
B1832133759615S06018801WA0097901012000044000000
B1832173759599S06018733WA0098501014000052000000
B1832213759636S06018660WA0098901024000048015000
B1832253759703S06018666WA0100201041000044015000
B1832293759725S06018738WA0101101043000044030000
B1832333759682S06018780WA0101101047000048015000
B1832373759647S06018723WA0101601053000044015000
B1832413759682S06018651WA0102401067000044015000
B1832453759749S06018655WA0104001078000044015000
B1832493759798S06018720WA0103901072000048015000
B1832533759832S06018805WA0103701077000044015000
B1832573759815S06018880WA0105201096000048015000
B1833013759763S06018892WA0106801105000048015000
B1833053759733S06018835WA0107801121000048015000
B1833093759763S06018770WA0108901126000048015000
B1833133759831S06018753WA0108901131000052015000
B1833173759888S06018800WA0109701138000060030000
B1833213759920S06018874WA0109901136000068015000
B1833253759901S06018946WA0110501150000060015000
B1833293759847S06018976WA0112201163000048015000
B1833333759789S06018971WA0113001173000048015000
B1833373759747S06018919WA0114701195000044015000
B1833413759745S06018841WA0115801199000044015000
B1833453759785S06018775WA0116101205000048015000
B1833493759850S06018766WA0116901208000048015000
B1833533759915S06018805WA0117001208000048015000
B1833573759970S06018872WA0116901208000052015000
B1834013800000S06018958WA0118001224000052015000
B1834053759992S06019039WA0119701237000052015000
B1834093759942S06019075WA0120901244000044015000
B1834133759881S06019067WA0120901244000048000000
B1834173759846S06019004WA0122101268000048000000
B1834213759864S06018927WA0124101284000044000000
B1834253759924S06018880WA0125301294000044015000
B1834293800002S06018880WA0125901301000048015000
B1834333800066S06018932WA0126501308000048015000
B1834373800084S06019011WA0127401312000048015000
B1834413800052S06019079WA0128601316000044015000
B1834453759993S06019109WA0129601331000040015000
B1834493759937S06019083WA0130701350000044015000
B1834533759928S06019011WA0133001372000044015000
B1834573759972S06018956WA0134001388000044015000
B1835013800039S06018965WA0135601400000052015000
B1835053800072S06019032WA0136301410000052030000
B1835093800059S06019108WA0137101414000048030000
B1835133800010S06019158WA0137301416000044015000
B1835173759946S06019143WA0137701424000048015000
B1835213759915S06019065WA0138301434000052015000
B1835253759942S06018985WA0139301442000056015000
B1835293800011S06018963WA0139801447000072015000
B1835333800076S06019014WA0140701456000068015000
B1835373800118S06019097WA0141601470000064015000
B1835413800104S06019182WA0143101486000060015000
B1835453800046S06019196WA0144601500000052015000
B1835493800018S06019134WA0145401505000048015000
B1835533800052S06019065WA0146401518000048015000
B1835573800118S06019061WA0148201541000044015000
B1836013800167S06019119WA0149301542000040015000
B1836053800200S06019209WA0148501535000044015000
B1836093800227S06019313WA0148701538000048015000
B1836133800254S06019420WA0148301534000052015000
B1836183800293S06019555WA0147801525000052015000
B1836223800326S06019665WA0146901516000052000000
B1836263800358S06019776WA0146201512000052000000
B1836303800390S06019881WA0147401528000052000000
B1836343800421S06019981WA0147501521000056000000
B1836383800453S06020081WA0146501511000056000000
B1836423800484S06020184WA0145601502000060000000
B1836463800520S06020284WA0145001500000060000000
B1836503800556S06020378WA0145301504000056000000
B1836543800591S06020469WA0145201498000072000000
B1836583800626S06020561WA0144801493000068000000
B1837023800666S06020653WA0144001483000056000000
B1837063800709S06020748WA0142801472000056000000
B1837103800750S06020850WA0142201468000052000000
B1837143800790S06020955WA0142401472000056000000
B1837183800825S06021064WA0142101466000052000000
B1837223800854S06021180WA0141401455000052000000
B1837263800877S06021298WA0140601448000052000000
B1837303800895S06021418WA0139801441000056000000
B1837343800903S06021536WA0139701441000060000000
B1837383800897S06021650WA0139401436000060000000
B1837423800882S06021765WA0138701428000056000000
B1837463800860S06021878WA0137701417000056000000
B1837503800837S06021992WA0136501406000056000000
B1837543800815S06022105WA0136001400000056000000
B1837583800795S06022219WA0135201393000056000000
B1838023800785S06022336WA0135001393000056000000
B1838063800783S06022453WA0135201398000056000000
B1838103800785S06022568WA0136201410000052000000
B1838143800789S06022680WA0137201419000052000000
B1838183800793S06022787WA0138001427000052000000
B1838223800799S06022893WA0137901421000056000000
B1838263800803S06023008WA0137101413000056000000
B1838303800802S06023125WA0137101413000060000000
B1838343800798S06023243WA0137101412000060000000
B1838383800798S06023363WA0136501407000060000000
B1838423800806S06023478WA0135901400000056000000
B1838463800812S06023591WA0135301393000056000000
B1838503800824S06023702WA0134301384000060000000
B1838543800843S06023810WA0133501376000060000000
B1838583800867S06023915WA0132401364000060000000
B1839023800898S06024020WA0131501355000056000000
B1839063800930S06024126WA0130601344000056000000
B1839103800965S06024232WA0130301346000060000000
B1839143800997S06024334WA0130801348000056000000
B1839183801030S06024432WA0130301342000056000000
B1839223801067S06024534WA0129101326000056000000
B1839263801107S06024637WA0127801318000052000000
B1839303801145S06024743WA0127301310000052000000
B1839343801189S06024847WA0126701305000048000000
B1839383801246S06024942WA0126301300000044000000
B1839423801318S06025025WA0125701294000048000000
B1839463801397S06025094WA0125901299000052000000
B1839503801483S06025145WA0126101299000048000000
B1839543801573S06025177WA0125301289000044000000
B1839583801667S06025197WA0124001273000044000000
B1840023801765S06025210WA0122801258000044000000
B1840063801862S06025212WA0121401249000048000000
B1840103801961S06025209WA0121101250000052000000
B1840143802054S06025205WA0122401266000056000000
B1840183802141S06025206WA0123701272000056000000
B1840223802224S06025211WA0124301279000056000000
B1840263802302S06025229WA0124201272000048000000
B1840303802380S06025275WA0122601261000048000000
B1840343802453S06025348WA0121901260000048000000
B1840383802516S06025430WA0122401262000044000000
B1840423802575S06025515WA0121701250000044000000
B1840463802629S06025609WA0121001245000044000000
B1840503802681S06025705WA0120701242000044000000
B1840543802732S06025804WA0120101235000048000000
B1840583802784S06025900WA0119301227000052000000
B1841023802839S06025999WA0118901222000056000000
B1841063802897S06026094WA0118001213000048000000
B1841103802957S06026189WA0117301207000048000000
B1841143803016S06026286WA0116701196000048000000
B1841183803075S06026384WA0115701185000048000000
B1841223803138S06026483WA0114601173000052000000
B1841263803199S06026585WA0112901154000052000000
B1841303803260S06026693WA0111701145000056000000
B1841343803318S06026804WA0110601133000056000000
B1841383803377S06026913WA0109501124000060000000
B1841423803429S06027025WA0108901117000060000000
B1841463803474S06027138WA0108601116000060000000
B1841503803519S06027246WA0108101109000064000000
B1841543803565S06027350WA0107501103000060000000
B1841583803590S06027460WA0107001100000064000000
B1842023803576S06027560WA0107901110000060000000
B1842063803558S06027655WA0107401099000056000000
B1842103803533S06027754WA0106001085000056000000
B1842143803512S06027864WA0105401086000060000000
B1842183803476S06027954WA0107101105000060000000
B1842223803411S06027965WA0109301118000092000000
B1842263803346S06027944WA0108901122000084000000
B1842303803316S06027874WA0108701115000072000000
B1842343803357S06027807WA0107901115000072015000
B1842383803425S06027811WA0109101131000060015000
B1842423803489S06027851WA0110001139000052015000
B1842463803515S06027929WA0111301154000048015000
B1842503803474S06027980WA0112801163000048015000
B1842543803424S06027950WA0113001158000048015000
B1842583803413S06027877WA0112601160000048015000
B1843023803448S06027818WA0113301172000044015000
B1843063803513S06027832WA0114701180000040015000
B1843103803559S06027902WA0114301178000044015000
B1843143803542S06027984WA0114901188000044015000
B1843183803489S06027972WA0115901197000044015000
B1843223803497S06027900WA0116501202000044015000
B1843263803555S06027866WA0116901206000044030000
B1843303803614S06027910WA0117001209000048030000
B1843343803623S06027997WA0117401215000048030000
B1843383803584S06028053WA0117501220000044015000
B1843423803539S06028018WA0118101218000044015000
B1843463803528S06027945WA0117501212000044015000
B1843503803552S06027871WA0117801224000048015000
B1843543803616S06027861WA0118901231000052015000
B1843583803653S06027927WA0119501236000048015000
B1844023803624S06027994WA0119601244000048015000
B1844063803571S06027983WA0121001257000048015000
B1844103803554S06027916WA0121601256000048015000
B1844143803580S06027853WA0121901263000048015000
B1844183803640S06027846WA0122101258000048015000
B1844223803692S06027902WA0121501247000044015000
B1844263803724S06027992WA0120101239000056015000
B1844303803740S06028095WA0119901244000052015000
B1844343803745S06028199WA0120201238000052015000
B1844383803742S06028308WA0119201227000056015000
B1844423803729S06028416WA0118401220000056015000
B1844463803716S06028524WA0117401214000052015000
B1844503803710S06028634WA0116901210000052015000
B1844543803710S06028742WA0116501206000052015000
B1844583803708S06028849WA0115501199000056015000
B1845023803707S06028955WA0114401184000060015000
B1845063803705S06029066WA0114001185000072015000
B1845103803705S06029175WA0114601188000068015000
B1845143803706S06029284WA0114701190000072000000
B1845183803714S06029391WA0115301197000064000000
B1845223803720S06029493WA0116101206000060000000
B1845263803731S06029595WA0116501202000064000000
B1845303803742S06029703WA0115601192000068000000
B1845343803749S06029807WA0115901203000064000000
B1845383803751S06029904WA0116401200000064000000
B1845423803754S06030000WA0116101202000060000000
B1845463803762S06030095WA0116201198000052000000
B1845503803771S06030197WA0115501190000052000000
B1845543803780S06030302WA0115201189000056000000
B1845583803786S06030407WA0115101188000056000000
B1846023803792S06030515WA0114901184000052000000
B1846063803798S06030622WA0114901191000052000000
B1846103803806S06030727WA0115801198000052000000
B1846143803815S06030830WA0115501192000056000000
B1846183803827S06030940WA0114401189000060015000
B1846223803838S06031051WA0113601185000060015000
B1846263803848S06031159WA0112901183000068015000
B1846303803851S06031267WA0112301169000068015000
B1846343803858S06031374WA0111001155000060015000
B1846383803868S06031486WA0109701143000064015000
B1846423803881S06031597WA0109101136000076015000
B1846463803900S06031705WA0108501126000072015000
B1846503803922S06031809WA0107301114000064015000
B1846543803948S06031911WA0106301105000060015000
B1846583803968S06032014WA0105601097000056015000
B1847023803985S06032115WA0105101093000056015000
B1847063804011S06032213WA0104901095000056015000
B1847103804056S06032294WA0106701113000056015000
B1847143804115S06032344WA0107901118000052015000
B1847183804187S06032340WA0108601127000048015000
B1847223804240S06032283WA0109301139000048015000
B1847263804241S06032206WA0110601154000044015000
B1847303804199S06032180WA0111701158000044030000
B1847343804162S06032227WA0112001159000048030000
B1847383804182S06032296WA0112801163000044045000
B1847423804247S06032305WA0113601176000040075000
B1847463804295S06032248WA0114901184000040120000
B1847503804280S06032186WA0116201198000040150000
B1847543804235S06032192WA0117001197000040150000
B1847583804208S06032261WA0117201187000040135000
B1848023804244S06032322WA0117901190000048165000
B1848063804308S06032304WA0119101197000044165000
B1848103804322S06032229WA0119801204000044180000
B1848143804279S06032191WA0120501211000044180000
B1848183804234S06032227WA0120701219000048210000
B1848223804235S06032300WA0121501226000044225000
B1848263804290S06032330WA0122601233000044210000
B1848303804340S06032275WA0123201246000040195000
B1848343804332S06032201WA0124301257000040180000
B1848383804283S06032190WA0125101260000048165000
B1848423804251S06032245WA0125701265000048195000
B1848463804279S06032313WA0125801267000044225000
B1848503804344S06032317WA0126301275000048180000
B1848543804384S06032255WA0127401290000044180000
B1848583804366S06032191WA0128401298000040180000
B1849023804317S06032186WA0128701299000044150000
B1849063804275S06032235WA0128801300000044165000
B1849103804252S06032310WA0128301296000044165000
B1849143804243S06032401WA0127401294000048150000
B1849183804241S06032503WA0126601289000052150000
B1849223804248S06032607WA0126001288000056135000
B1849263804256S06032719WA0125301285000056135000
B1849303804267S06032833WA0125201285000060120000
B1849343804287S06032945WA0125501293000068120000
B1849383804313S06033051WA0126701307000060105000
B1849423804342S06033153WA0127301310000056090000
B1849463804369S06033252WA0127701307000052090000
B1849503804388S06033358WA0126101284000052075000
B1849543804399S06033477WA0123801261000056075000
B1849583804400S06033604WA0122301253000060075000
B1850023804392S06033731WA0122101255000060075000
B1850063804381S06033856WA0121801247000060060000
B1850103804366S06033980WA0120701236000060060000
B1850143804355S06034102WA0119501229000064060000
B1850183804344S06034223WA0119001226000064060000
B1850223804332S06034340WA0118001221000064060000
B1850263804318S06034457WA0117001217000068060000
B1850303804306S06034572WA0117101220000064075000
B1850343804293S06034684WA0116901218000056075000
B1850383804266S06034788WA0116601217000052075000
B1850423804228S06034879WA0116701219000048075000
B1850463804186S06034957WA0117201222000048075000
B1850503804147S06035030WA0118501230000048090000
B1850543804113S06035102WA0119401234000048090000
B1850583804084S06035174WA0120101247000048075000
B1851023804066S06035252WA0120401244000048075000
B1851063804067S06035341WA0119701239000052075000
B1851103804100S06035428WA0120501247000048075000
B1851143804162S06035463WA0122001252000048075000
B1851183804219S06035417WA0123001264000048075000
B1851223804223S06035343WA0124701277000040075000
B1851263804178S06035310WA0125801283000044090000
B1851303804135S06035351WA0126401290000044120000
B1851343804148S06035423WA0127101300000040150000
B1851383804209S06035445WA0128001305000040135000
B1851423804265S06035391WA0128201308000040120000
B1851463804266S06035310WA0129101323000048135000
B1851503804214S06035284WA0130801332000056135000
B1851543804175S06035341WA0131201335000052150000
B1851583804175S06035432WA0131201333000048165000
B1852023804195S06035527WA0131501327000052135000
B1852063804249S06035590WA0132701327000048120000
B1852103804323S06035583WA0133501339000044105000
B1852143804340S06035503WA0134901357000044120000
B1852183804287S06035481WA0136501370000040135000
B1852223804265S06035550WA0137601385000040150000
B1852263804308S06035614WA0138701397000040150000
B1852303804377S06035599WA0139401410000048150000
B1852343804388S06035516WA0140301421000052135000
B1852383804334S06035484WA0141401433000052150000
B1852423804304S06035554WA0142401444000048180000
B1852463804352S06035622WA0143401458000048195000
B1852503804420S06035598WA0144601473000048165000
B1852543804423S06035514WA0145501483000048180000
B1852583804362S06035502WA0146701501000044210000
B1853023804362S06035577WA0148601520000044225000
B1853063804430S06035592WA0149601528000040195000
B1853103804462S06035519WA0150901540000040180000
B1853143804413S06035472WA0151701545000044195000
B1853183804379S06035536WA0152501562000044225000
B1853223804427S06035594WA0154001572000044225000
B1853263804486S06035550WA0154601578000044180000
B1853303804453S06035485WA0155501591000044165000
B1853343804413S06035532WA0156801605000044195000
B1853383804456S06035590WA0157901614000040210000
B1853423804512S06035551WA0158701622000040180000
B1853463804491S06035481WA0159601634000040180000
B1853503804436S06035492WA0160501636000040180000
B1853543804436S06035566WA0161301644000040210000
B1853583804495S06035601WA0162101649000040180000
B1854023804560S06035567WA0162601657000044135000
B1854063804572S06035486WA0163701675000040135000
B1854103804531S06035436WA0164901680000036135000
B1854143804475S06035455WA0165101682000036150000
B1854183804460S06035527WA0165801692000036165000
B1854223804504S06035580WA0166801697000040180000
B1854263804561S06035533WA0166901701000040165000
B1854303804531S06035463WA0167701715000040180000
B1854343804483S06035499WA0168701721000044225000
B1854383804507S06035584WA0168501717000044210000
B1854423804560S06035663WA0168201714000044135000
B1854463804617S06035745WA0167901715000048105000
B1854503804676S06035833WA0167501712000056090000
B1854543804737S06035923WA0167401709000064075000
B1854583804803S06036014WA0165801690000068075000
B1855023804868S06036113WA0163801668000064060000
B1855063804930S06036222WA0162301655000060060000
B1855103804985S06036338WA0161401646000060045000
B1855143805033S06036457WA0160601640000060045000
B1855183805081S06036580WA0160001634000064045000
B1855223805125S06036701WA0159601633000064045000
B1855263805163S06036823WA0159501627000060045000
B1855303805200S06036945WA0158501615000064030000
B1855343805239S06037066WA0158101621000068030000
B1855383805271S06037180WA0159001627000064030000
B1855423805284S06037299WA0158901622000064030000
B1855463805283S06037416WA0158801624000060030000
B1855503805278S06037533WA0159001623000072030000
B1855543805272S06037650WA0158101614000068030000
B1855583805268S06037765WA0157301605000068030000
B1856023805272S06037881WA0155801589000068030000
B1856063805284S06037997WA0154901581000064030000
B1856103805298S06038111WA0154501578000060030000
B1856143805317S06038223WA0154101573000056030000
B1856183805339S06038332WA0153601564000060030000
B1856223805370S06038441WA0152201548000064015000
B1856263805401S06038553WA0150301533000068015000
B1856303805431S06038665WA0149801532000064015000
B1856343805457S06038774WA0149601529000060015000
B1856383805483S06038883WA0149401529000064015000
B1856423805506S06038989WA0149601532000060015000
B1856463805528S06039090WA0150201536000056015000
B1856503805548S06039191WA0149801531000052015000
B1856543805567S06039294WA0149801537000056015000
B1856583805586S06039394WA0151001548000056015000
B1857023805604S06039493WA0152401562000056015000
B1857063805625S06039590WA0153201568000052015000
B1857103805648S06039691WA0153401567000052015000
B1857143805677S06039791WA0152701560000052015000
B1857183805708S06039893WA0152001547000048015000
B1857223805738S06040003WA0151601553000052015000
B1857263805759S06040110WA0152401558000052015000
B1857303805772S06040218WA0152201551000048015000
B1857343805786S06040328WA0150701535000048015000
B1857383805801S06040443WA0149301522000044015000
B1857423805817S06040562WA0147801505000048015000
B1857463805834S06040684WA0146201490000052015000
B1857503805853S06040807WA0145201479000052015000
B1857543805877S06040929WA0144501472000052015000
B1857583805892S06041054WA0143601462000052015000
B1858023805904S06041180WA0142701450000052015000
B1858063805918S06041306WA0141901444000052015000
B1858103805937S06041433WA0141201437000048015000
B1858143805959S06041557WA0140401431000048015000
B1858183805983S06041682WA0140001425000044015000
B1858223806012S06041807WA0138901415000048015000
B1858263806034S06041937WA0137901401000056015000
B1858303806056S06042070WA0136801391000060015000
B1858343806081S06042197WA0136501390000060015000
B1858383806107S06042319WA0136201386000060015000
B1858423806136S06042436WA0135901384000064015000
B1858463806164S06042548WA0136101388000060015000
B1858503806191S06042655WA0136101385000064015000
B1858543806219S06042761WA0134901368000056015000
B1858583806254S06042869WA0133601359000052015000
B1859023806289S06042976WA0133101356000052015000
B1859063806325S06043080WA0132701352000052015000
B1859103806363S06043180WA0132401348000052015000
B1859143806392S06043280WA0132101344000048015000
B1859183806401S06043379WA0131901341000048015000
B1859223806396S06043476WA0131101331000052015000
B1859263806375S06043571WA0130301323000056015000
B1859303806308S06043624WA0130701332000056015000
B1859343806234S06043618WA0131401344000052015000
B1859383806198S06043541WA0133201362000052015000
B1859423806215S06043457WA0134501371000048030000
B1859463806268S06043396WA0134101367000044030000
B1859503806344S06043383WA0132901358000056030000
B1859543806412S06043427WA0132501353000060030000
B1859583806451S06043506WA0132201350000060030000
B1900023806471S06043596WA0132101348000060045000
B1900063806475S06043689WA0132301353000060030000
B1900103806471S06043784WA0132201353000060045000
B1900143806481S06043879WA0132301355000056045000
B1900183806502S06043971WA0132901357000056045000
B1900223806528S06044056WA0133501358000056045000
B1900263806555S06044139WA0133501359000072045000
B1900303806584S06044225WA0133501360000068045000
B1900343806615S06044311WA0133101357000076045000
B1900383806646S06044400WA0132201355000072045000
B1900423806674S06044497WA0131001352000068045000
B1900463806693S06044602WA0130501351000064060000
B1900503806715S06044706WA0130101352000064060000
B1900543806740S06044809WA0130001348000060045000
B1900583806765S06044910WA0129601340000052045000
B1901023806784S06045018WA0128501328000044045000
B1901063806800S06045128WA0127601319000044045000
B1901103806814S06045236WA0126901314000044045000
B1901143806828S06045338WA0127001316000044045000
B1901183806844S06045437WA0126601309000040045000
B1901223806858S06045534WA0126101304000044045000
B1901263806871S06045632WA0125501294000044045000
B1901303806886S06045733WA0124701286000052045000
B1901343806903S06045834WA0124101283000052045000
B1901383806930S06045932WA0123801279000048045000
B1901423806966S06046020WA0123601277000048045000
B1901463807009S06046102WA0122701268000052045000
B1901503807061S06046179WA0121601254000052045000
B1901543807116S06046261WA0120201239000048045000
B1901583807170S06046349WA0119001228000048045000
B1902023807225S06046440WA0118001217000048045000
B1902063807277S06046539WA0117501216000052045000
B1902103807322S06046640WA0118101226000052045000
B1902143807367S06046738WA0119401240000060045000
B1902183807406S06046831WA0120701250000060045000
B1902223807441S06046928WA0120601245000060045000
B1902263807481S06047024WA0121401262000056045000
B1902303807524S06047110WA0122601273000052045000
B1902343807572S06047190WA0122801270000052045000
B1902383807625S06047268WA0122101257000052045000
B1902423807684S06047344WA0120901246000048045000
B1902463807746S06047416WA0119801234000044045000
B1902503807810S06047492WA0118601221000040045000
B1902543807874S06047570WA0117401211000044045000
B1902583807935S06047650WA0116901206000044045000
B1903023807993S06047728WA0116701204000044045000
B1903063808053S06047800WA0117501216000048045000
B1903103808110S06047862WA0118701228000044045000
B1903143808161S06047926WA0119901228000044045000
B1903183808216S06047994WA0119501225000052045000
B1903223808283S06048052WA0119301225000052045000
B1903263808349S06048103WA0119801230000052045000
B1903303808414S06048157WA0119801224000060045000
B1903343808479S06048219WA0118801217000056045000
B1903383808541S06048282WA0118601214000052045000
B1903423808611S06048325WA0117701205000052045000
B1903463808668S06048280WA0117901214000044045000
B1903503808665S06048212WA0117901203000040060000
B1903543808615S06048176WA0115801183000040060000
B1903583808550S06048155WA0114401172000040060000
B1904023808482S06048144WA0113701167000048060000
B1904063808413S06048147WA0112801157000044045000
B1904103808342S06048164WA0112701162000048045000
B1904143808281S06048191WA0114001177000048045000
B1904183808230S06048238WA0114701182000044045000
B1904223808175S06048289WA0114501185000052045000
B1904263808121S06048268WA0115501203000048060000
B1904303808108S06048199WA0117201213000044060000
B1904343808145S06048139WA0117801217000044075000
B1904383808204S06048141WA0119001227000040090000
B1904423808230S06048203WA0119901228000036120000
B1904463808200S06048267WA0120001221000036105000
B1904503808156S06048246WA0121001231000036120000
B1904543808180S06048187WA0121901236000036150000
B1904583808234S06048216WA0122301240000036195000
B1905023808221S06048282WA0122901244000044210000
B1905063808175S06048267WA0123001250000056225000
B1905103808203S06048208WA0123901258000060000000
B1905143808260S06048235WA0124501266000060060000
B1905183808245S06048300WA0125301274000052105000
B1905223808204S06048282WA0126001291000052090000
B1905263808217S06048217WA0126801294000056090000
B1905303808278S06048200WA0126901301000052105000
B1905343808307S06048261WA0128101309000048165000
B1905383808270S06048319WA0127901302000048075000
B1905423808227S06048295WA0128601319000048045000
B1905463808252S06048235WA0129401320000044045000
B1905503808314S06048238WA0129401327000044075000
B1905543808323S06048307WA0130501332000044120000
B1905583808275S06048319WA0129901345000052090000
B1906023808260S06048258WA0130901359000048060000
B1906063808299S06048200WA0131201355000044045000
B1906103808361S06048195WA0131401357000044045000
B1906143808385S06048263WA0132001362000044060000
B1906183808342S06048307WA0132001357000048030000
B1906223808296S06048274WA0131601360000044015000
B1906263808287S06048203WA0131601361000048225000
B1906303808327S06048139WA0132101360000048210000
B1906343808392S06048135WA0133101363000048210000
B1906383808431S06048193WA0133201366000048210000
B1906423808429S06048278WA0133101367000044210000
B1906463808395S06048338WA0133201368000044195000
B1906503808344S06048373WA0132801368000044195000
B1906543808291S06048395WA0132601369000040180000
B1906583808240S06048423WA0131901365000040180000
B1907023808188S06048459WA0131001358000040165000
B1907063808138S06048505WA0130501354000036165000
B1907103808084S06048553WA0129701349000040165000
B1907143808023S06048599WA0128401341000044165000
B1907183807959S06048633WA0128901341000044150000
B1907223807894S06048649WA0130201347000044150000
B1907263807833S06048658WA0130901348000044135000
B1907303807776S06048661WA0132501352000040135000
B1907343807727S06048657WA0133401354000040135000
B1907383807666S06048645WA0132401351000044120000
B1907423807599S06048637WA0131201337000040120000
B1907463807530S06048624WA0129901325000040105000
B1907503807458S06048607WA0129601324000044105000
B1907543807385S06048589WA0130401339000044105000
B1907583807315S06048571WA0132101358000044090000
B1908023807251S06048554WA0132901355000044090000
B1908063807182S06048534WA0132201349000048090000
B1908103807112S06048514WA0132001345000048090000
B1908143807040S06048492WA0131401339000048075000
B1908183806968S06048466WA0130701332000052075000
B1908223806891S06048438WA0129801322000048075000
B1908263806812S06048414WA0128401308000044075000
B1908303806728S06048389WA0127601296000044075000
B1908343806643S06048367WA0126601285000052060000
B1908383806554S06048346WA0125401276000056060000
B1908423806470S06048326WA0125201279000056060000
B1908463806390S06048308WA0125701287000056060000
B1908503806312S06048291WA0126401291000056060000
B1908543806237S06048277WA0126801296000056060000
B1908583806162S06048264WA0126401288000056060000
B1909023806084S06048250WA0125501280000052060000
B1909063806003S06048232WA0125501283000052045000
B1909103805928S06048203WA0126001289000052045000
B1909143805856S06048167WA0126101288000048045000
B1909183805782S06048134WA0126101289000048045000
B1909223805709S06048102WA0126401294000048045000
B1909263805636S06048066WA0127201305000044045000
B1909303805573S06048021WA0128301314000044045000
B1909343805513S06047970WA0128501317000048045000
B1909383805450S06047926WA0129101321000044045000
B1909423805383S06047890WA0129101319000044045000
B1909463805314S06047858WA0128101304000040045000
B1909503805241S06047829WA0126901292000040045000
B1909543805164S06047801WA0126301289000040030000
B1909583805085S06047775WA0125901286000048030000
B1910023805005S06047749WA0125801288000052030000
B1910063804929S06047726WA0125601282000052030000
B1910103804851S06047706WA0125001275000048030000
B1910143804771S06047691WA0124401265000056030000
B1910183804689S06047678WA0123501262000060030000
B1910223804608S06047662WA0123501262000068030000
B1910263804529S06047661WA0123901275000064030000
B1910303804460S06047680WA0125901296000060030000
B1910343804399S06047714WA0127801311000056030000
B1910383804340S06047757WA0128501319000048030000
B1910423804287S06047797WA0129601327000048045000
B1910463804226S06047822WA0128801325000044045000
B1910503804156S06047830WA0128901332000044060000
B1910543804087S06047832WA0130101339000040075000
B1910583804022S06047839WA0131101342000036090000
B1911023803958S06047845WA0131201346000044060000
B1911063803893S06047853WA0131001344000044060000
B1911103803828S06047851WA0130801346000048060000
B1911143803764S06047836WA0131601355000048045000
B1911183803702S06047817WA0132101362000048045000
B1911223803641S06047799WA0133401376000044045000
B1911263803581S06047779WA0134101381000040045000
B1911303803519S06047765WA0134601385000040045000
B1911343803458S06047765WA0136801411000040045000
B1911383803406S06047793WA0138501422000040045000
B1911423803393S06047864WA0139801428000048045000
B1911463803441S06047923WA0141101434000044045000
B1911503803504S06047904WA0142401436000040045000
B1911543803513S06047839WA0144001443000036060000
B1911583803469S06047819WA0145201444000032060000
B1912023803439S06047878WA0146301445000032060000
B1912063803478S06047949WA0147601449000032075000
B1912103803542S06047944WA0148901455000036075000
B1912143803555S06047878WA0150101459000036075000
B1912183803507S06047856WA0150801460000036075000
B1912223803480S06047916WA0152401469000040090000
B1912263803520S06047979WA0154101479000036090000
B1912303803580S06047964WA0154701483000036090000
B1912343803580S06047896WA0155901495000040105000
B1912383803528S06047883WA0156701505000040105000
B1912423803504S06047960WA0157601515000040105000
B1912463803550S06048021WA0159101521000040105000
B1912503803607S06047995WA0160201531000036105000
B1912543803614S06047922WA0160601538000040105000
B1912583803562S06047913WA0161001553000040105000
B1913023803562S06047988WA0162401570000036135000
B1913063803627S06048004WA0163701580000036120000
B1913103803650S06047935WA0164601588000036120000
B1913143803607S06047882WA0164801593000040120000
B1913183803549S06047905WA0165801600000040120000
B1913223803560S06047985WA0167201608000040120000
B1913263803629S06048001WA0167501610000040120000
B1913303803681S06047942WA0168201617000036120000
B1913343803682S06047864WA0169401631000040105000
B1913383803637S06047814WA0169701639000040105000
B1913423803571S06047799WA0169601641000040105000
B1913463803499S06047792WA0169501643000052105000
B1913503803428S06047778WA0170301654000052105000
B1913543803359S06047752WA0170701662000052090000
B1913583803287S06047726WA0170101662000048090000
B1914023803217S06047695WA0169701664000048075000
B1914063803144S06047656WA0169401661000048075000
B1914103803075S06047605WA0168601654000052075000
B1914143803006S06047549WA0167901652000052060000
B1914183802935S06047500WA0166901645000056060000
B1914223802861S06047449WA0165501635000056060000
B1914263802787S06047393WA0164601627000052060000
B1914303802717S06047325WA0163801623000048060000
B1914343802650S06047254WA0163101615000048045000
B1914383802583S06047180WA0162001609000052045000
B1914423802515S06047107WA0161701609000056045000
B1914463802454S06047036WA0161701611000052045000
B1914503802395S06046961WA0161601614000052045000
B1914543802340S06046887WA0161901619000056045000
B1914583802289S06046812WA0161901620000052045000
B1915023802237S06046737WA0161601617000052030000
B1915063802187S06046664WA0161301614000052030000
B1915103802138S06046590WA0161001617000052030000
B1915143802090S06046517WA0161201618000044030000
B1915183802042S06046443WA0161001618000048030000
B1915223801992S06046369WA0160701616000048030000
B1915263801943S06046291WA0160201609000048030000
B1915303801895S06046206WA0159601605000048030000
B1915343801846S06046120WA0159201601000048030000
B1915383801792S06046036WA0158601590000048030000
B1915423801731S06045955WA0157701585000048030000
B1915463801664S06045886WA0157101578000048030000
B1915503801591S06045820WA0155901566000044030000
B1915543801515S06045759WA0154801556000048030000
B1915583801436S06045700WA0153401541000052030000
B1916023801357S06045635WA0152101528000056030000
B1916063801281S06045561WA0150801517000060030000
B1916103801203S06045491WA0149401504000060030000
B1916143801120S06045430WA0148501496000056015000
B1916183801036S06045378WA0147901490000060015000
B1916223800950S06045333WA0147501492000064015000
B1916263800871S06045292WA0147401488000060015000
B1916303800793S06045253WA0146701482000060015000
B1916343800713S06045214WA0145701475000060015000
B1916383800637S06045171WA0145701477000060015000
B1916423800565S06045117WA0146801493000060015000
B1916463800505S06045069WA0149201517000052015000
B1916503800440S06045052WA0150401528000048015000
B1916543800393S06045105WA0151201535000044015000
B1916583800421S06045178WA0152601544000044030000
B1917023800479S06045162WA0153901547000044030000
B1917063800482S06045087WA0154401548000044030000
B1917103800440S06045039WA0155601553000044030000
B1917143800384S06045031WA0156701559000044030000
B1917183800330S06045066WA0157101565000040030000
B1917223800267S06045089WA0158201573000036045000
B1917263800205S06045101WA0158701576000040045000
B1917303800143S06045104WA0159001580000040045000
B1917343800078S06045104WA0157801580000040045000
B1917383800007S06045102WA0157101577000040045000
B1917423759935S06045101WA0156001564000036045000
B1917463759859S06045093WA0154901557000040045000
B1917503759781S06045082WA0154201552000044045000
B1917543759702S06045066WA0153401543000044045000
B1917583759623S06045048WA0152501538000044045000
B1918023759543S06045026WA0151901531000048030000
B1918063759460S06045008WA0150901524000048030000
B1918103759377S06044992WA0150401517000052030000
B1918143759292S06044984WA0149401513000056030000
B1918183759208S06044980WA0149001510000056030000
B1918223759123S06044979WA0148101498000052030000
B1918263759036S06044979WA0147001490000052030000
B1918303758950S06044979WA0146601487000052030000
B1918343758865S06044982WA0146301486000056030000
B1918383758780S06044983WA0145601477000052030000
B1918423758692S06044988WA0144601468000052030000
B1918463758605S06045001WA0143701457000056030000
B1918503758518S06045022WA0142901455000056030000
B1918543758433S06045039WA0143001459000056030000
B1918583758347S06045050WA0143001455000052030000
B1919023758259S06045056WA0143001464000052030000
B1919063758180S06045054WA0145201490000048030000
B1919103758104S06045049WA0146501496000052030000
B1919143758027S06045040WA0146301493000056030000
