ACAM4IR
HFDTE070125
HFFXA050
HFPLTPILOT:DINO GHIONI             
HFGTYGLIDERTYPE:LS-4        
HFGIDGLIDERID:KC          
HFDTM100GPSDATUM:
HFRFWFIRMWAREVERSION:F2.6
HFRHWHARDWAREVERSION:300 Series Version 2
HFFTYFRTYPE:CAMBRIDGE AERO INSTRUMENTS, 302+
HFGPS:GARMIN,LVS-25,12,18000
HFPRSPRESSALTSENSOR:INTERSEMA, MS5534-AP, 20000
I033638FXA3941ENL4247REX
LCAMSBVER:5FWVER:F26300
C021223160536021223000102
C0000000N00000000WTAKEOFF     
C3526206S06253971WHARAS       
C3602217S06316383WLAS 3 MARIAS
C3600901S06241720WC.P.T.LAUQUE
C3530355S06259367W1-CLUB      
C0000000N00000000WLANDING     
B1615543801990S06007824WA0020000193000000000000
B1615563801990S06007824WA0020000193000000000000
B1615583801990S06007824WA0020000193000000000000
B1616003801990S06007824WA0019900193000000000000
B1616023801990S06007824WA0019900193000000000000
B1616043801990S06007824WA0020000193000000000000
B1616063801990S06007824WA0020000192000000000000
B1616083801990S06007824WA0020000192000000000000
B1616103801990S06007824WA0020000192000000000000
B1616123801990S06007824WA0019900191000000000000
B1616143801990S06007824WA0020000191000000000000
B1616163801990S06007824WA0020000191000000000000
B1616183801990S06007824WA0019900191000000000000
B1616203801990S06007824WA0019900192000000000000
B1616223801987S06007826WA0019900192000000000000
B1616253801978S06007838WA0019700192000000000000
B1616293801957S06007867WA0019500192000000000000
B1616333801926S06007908WA0019500193000000000000
B1616373801888S06007961WA0019500196000000000000
B1616413801851S06008020WA0020400212000000000000
B1616453801810S06008077WA0021800230000000000000
B1616493801774S06008141WA0023100247000000000000
B1616533801742S06008207WA0024900267000000000000
B1616573801706S06008272WA0026800281000000000000
B1617013801675S06008341WA0027900297000000000000
B1617053801648S06008414WA0029200304000000000000
B1617093801628S06008493WA0030000316000000000000
B1617133801618S06008576WA0031000325000000000000
B1617173801615S06008666WA0032000334000000000000
B1617213801615S06008757WA0032900349000000000000
B1617253801623S06008847WA0034700377000000000000
B1617293801634S06008933WA0037200403000000000000
B1617333801644S06009018WA0039900425000000000000
B1617373801654S06009104WA0041500438000000000000
B1617413801665S06009191WA0042800450000000000000
B1617453801677S06009278WA0043900461000000000000
B1617493801690S06009367WA0045100472000000000000
B1617533801700S06009456WA0046100484000000000000
B1617573801703S06009546WA0047700508000000000000
B1618013801699S06009633WA0050200533000000000000
B1618053801688S06009718WA0051900544000000000000
B1618093801673S06009800WA0053300560000000000000
B1618133801653S06009875WA0054400572000000000000
B1618173801630S06009947WA0055500583000000000000
B1618213801601S06010015WA0056700597000000000000
B1618253801565S06010070WA0057800612000000000000
B1618293801523S06010123WA0059400622000000000000
B1618333801480S06010171WA0060400637000000000000
B1618373801431S06010203WA0061600645000000000000
B1618413801378S06010231WA0062400652000000000000
B1618453801323S06010247WA0063400665000000000000
B1618493801267S06010256WA0064600676000000000000
B1618533801210S06010259WA0065700684000000000000
B1618573801154S06010257WA0066500696000000000000
B1619013801099S06010255WA0067300707000000000000
B1619053801042S06010246WA0068400719000000000000
B1619093800986S06010227WA0069700737000000000000
B1619133800930S06010205WA0071800762000000000000
B1619173800873S06010178WA0073800775000000000000
B1619213800822S06010184WA0075100782000000000000
B1619253800793S06010244WA0075300780000000000000
B1619293800811S06010324WA0075100778000000000000
B1619333800874S06010370WA0074800778000000000000
B1619373800947S06010355WA0074700778000000000000
B1619413801011S06010314WA0074800778000000000000
B1619453801062S06010256WA0075200780000000000000
B1619493801094S06010183WA0074900779000000000000
B1619533801088S06010110WA0075100778000000000000
B1619573801063S06010054WA0075400777000000000000
B1620013801016S06010048WA0074800772000000000000
B1620053800978S06010092WA0074600774000000000000
B1620093800955S06010155WA0074800776000000000000
B1620133800936S06010220WA0074900776000000000000
B1620173800919S06010288WA0074600769000000000000
B1620213800900S06010359WA0074100766000000000000
B1620253800885S06010433WA0073700762000000000000
B1620293800869S06010507WA0073100758000000000000
B1620333800852S06010577WA0072900755000000000000
B1620373800833S06010643WA0072400747000000000000
B1620413800803S06010701WA0071800741000000000000
B1620453800764S06010740WA0071500741000000000000
B1620493800721S06010760WA0071500740000000000000
B1620533800677S06010775WA0071000728000000000000
B1620573800630S06010782WA0069700717000000000000
B1621013800581S06010782WA0069000710000000000000
B1621053800534S06010780WA0068800718000000000000
B1621093800490S06010777WA0069600722000000000000
B1621133800447S06010772WA0069700719000000000000
B1621173800401S06010794WA0069100708000000000000
B1621213800387S06010864WA0068300705000000000000
B1621253800397S06010941WA0068100702000000000000
B1621293800448S06011003WA0067600697000000000000
B1621333800525S06011016WA0066500684000000000000
B1621373800601S06010979WA0065800680000000000000
B1621413800673S06010940WA0065900684000000000000
B1621453800741S06010894WA0065200669000000000000
B1621493800787S06010821WA0064100663000000000000
B1621533800820S06010747WA0064200667000000000000
B1621573800847S06010672WA0064000656000000000000
B1622013800864S06010594WA0063100647000000000000
B1622053800871S06010517WA0062400649000000000000
B1622093800874S06010443WA0062800652000000000000
B1622133800867S06010370WA0062900652000000000000
B1622173800841S06010309WA0063200656000000000000
B1622213800816S06010244WA0062700647000000000000
B1622253800796S06010171WA0062000636000000000000
B1622293800782S06010092WA0060900624000000000000
B1622333800768S06010009WA0059900618000000000000
B1622373800756S06009926WA0059300607000000000000
B1622413800748S06009839WA0058600607000000000000
B1622453800742S06009755WA0058800612000000000000
B1622493800756S06009675WA0059300612000000000000
B1622533800794S06009602WA0059500604000000000000
B1622573800813S06009516WA0058300598000000000000
B1623013800803S06009437WA0058000595000000000000
B1623053800786S06009359WA0057800593000000000000
B1623093800769S06009280WA0057400589000000000000
B1623133800752S06009200WA0056800580000000000000
B1623173800734S06009120WA0056000571000000000000
B1623213800715S06009037WA0055000561000000000000
B1623253800707S06008947WA0053900553000000000000
B1623293800713S06008856WA0053200545000000000000
B1623333800728S06008771WA0053600558000000000000
B1623373800729S06008695WA0054500569000000000000
B1623413800699S06008640WA0055600583000000000000
B1623453800650S06008639WA0056200583000000000000
B1623493800617S06008697WA0056000582000000000000
B1623533800620S06008774WA0056600591000000000000
B1623573800664S06008840WA0056800583000000000000
B1624013800737S06008857WA0055900576000000000000
B1624053800799S06008809WA0055600575000000000000
B1624093800822S06008732WA0055000574000000000000
B1624133800813S06008662WA0055800589000000000000
B1624173800791S06008602WA0056900589000000000000
B1624213800743S06008582WA0056700584000000000000
B1624253800704S06008634WA0056200584000000000000
B1624293800726S06008714WA0056500593000000000000
B1624333800796S06008745WA0057200594000000000000
B1624373800864S06008712WA0057300594000000000000
B1624413800874S06008640WA0057800605000000000000
B1624453800841S06008598WA0058100603000000000000
B1624493800791S06008617WA0057500597000000000000
B1624533800757S06008675WA0057200599000000000000
B1624573800751S06008751WA0057600602000000000000
B1625013800804S06008812WA0057300591000000000000
B1625053800880S06008797WA0056400584000000000000
B1625093800921S06008727WA0055900578000000000000
B1625133800912S06008654WA0055700581000000000000
B1625173800884S06008597WA0056000581000000000000
B1625213800839S06008559WA0055400572000000000000
B1625253800789S06008535WA0055100572000000000000
B1625293800737S06008514WA0055200576000000000000
B1625333800686S06008535WA0055600578000000000000
B1625373800664S06008605WA0055600576000000000000
B1625413800695S06008680WA0055800577000000000000
B1625453800767S06008705WA0055300572000000000000
B1625493800835S06008665WA0055000573000000000000
B1625533800890S06008611WA0056000589000000000000
B1625573800898S06008537WA0057000594000000000000
B1626013800860S06008494WA0056900587000000000000
B1626053800820S06008537WA0057000596000000000000
B1626093800833S06008613WA0057500594000000000000
B1626133800895S06008662WA0057200597000000000000
B1626173800964S06008641WA0057500603000000000000
B1626213800991S06008569WA0058600613000000000000
B1626253800963S06008514WA0059100613000000000000
B1626293800912S06008524WA0058800612000000000000
B1626333800898S06008596WA0058900610000000000000
B1626373800926S06008671WA0058800614000000000000
B1626413800994S06008710WA0059200616000000000000
B1626453801067S06008714WA0059600622000000000000
B1626493801123S06008665WA0059700621000000000000
B1626533801125S06008589WA0060000627000000000000
B1626573801084S06008550WA0060000625000000000000
B1627013801034S06008576WA0059900626000000000000
B1627053800995S06008623WA0060300631000000000000
B1627093800986S06008699WA0060400636000000000000
B1627133801037S06008764WA0060800638000000000000
B1627173801112S06008745WA0060600636000000000000
B1627213801133S06008669WA0061400643000000000000
B1627253801097S06008621WA0061900653000000000000
B1627293801049S06008647WA0062600651000000000000
B1627333801041S06008725WA0062300649000000000000
B1627373801086S06008793WA0062200650000000000000
B1627413801160S06008793WA0062800658000000000000
B1627453801202S06008728WA0063200660000000000000
B1627493801173S06008669WA0063500668000000000000
B1627533801128S06008696WA0064200669000000000000
B1627573801142S06008774WA0064500674000000000000
B1628013801209S06008809WA0064500673000000000000
B1628053801276S06008777WA0064300669000000000000
B1628093801298S06008696WA0063500662000000000000
B1628133801270S06008632WA0063800673000000000000
B1628173801227S06008595WA0064600678000000000000
B1628213801185S06008630WA0065400683000000000000
B1628253801193S06008708WA0065400686000000000000
B1628293801253S06008756WA0065700684000000000000
B1628333801328S06008734WA0065700686000000000000
B1628373801359S06008660WA0066200698000000000000
B1628413801329S06008601WA0066800702000000000000
B1628453801281S06008628WA0067400709000000000000
B1628493801287S06008706WA0068200715000000000000
B1628533801345S06008757WA0068300715000000000000
B1628573801418S06008744WA0068300716000000000000
B1629013801461S06008676WA0068600722000000000000
B1629053801445S06008610WA0069400731000000000000
B1629093801394S06008601WA0069800732000000000000
B1629133801365S06008665WA0070500743000000000000
B1629173801392S06008741WA0071200746000000000000
B1629213801461S06008774WA0071200745000000000000
B1629253801530S06008738WA0071000743000000000000
B1629293801553S06008661WA0071200750000000000000
B1629333801526S06008597WA0071500748000000000000
B1629373801472S06008597WA0071700755000000000000
B1629413801445S06008661WA0072500762000000000000
B1629453801482S06008734WA0073400769000000000000
B1629493801556S06008749WA0073400765000000000000
B1629533801608S06008692WA0073800772000000000000
B1629573801606S06008617WA0073900774000000000000
B1630013801561S06008589WA0074100774000000000000
B1630053801523S06008639WA0074400777000000000000
B1630093801539S06008719WA0074700783000000000000
B1630133801601S06008773WA0074800779000000000000
B1630173801677S06008754WA0074800788000000000000
B1630213801716S06008687WA0075300787000000000000
B1630253801699S06008619WA0075400789000000000000
B1630293801649S06008608WA0075500793000000000000
B1630333801600S06008624WA0076400798000000000000
B1630373801560S06008663WA0076400795000000000000
B1630413801532S06008728WA0076000791000000000000
B1630453801505S06008795WA0075500784000000000000
B1630493801492S06008873WA0075600792000000000000
B1630533801480S06008948WA0075700786000000000000
B1630573801478S06009033WA0074900782000000000000
B1631013801484S06009118WA0074900776000000000000
B1631053801508S06009208WA0074100766000000000000
B1631093801537S06009300WA0072900755000000000000
B1631133801566S06009391WA0072500755000000000000
B1631173801602S06009480WA0072000750000000000000
B1631213801641S06009566WA0071500742000000000000
B1631253801682S06009650WA0071300737000000000000
B1631293801721S06009735WA0070600731000000000000
B1631333801760S06009822WA0070000727000000000000
B1631373801801S06009910WA0069500721000000000000
B1631413801840S06010000WA0069300722000000000000
B1631453801877S06010090WA0069500727000000000000
B1631493801909S06010175WA0070000731000000000000
B1631533801946S06010257WA0070400737000000000000
B1631573801999S06010329WA0070800736000000000000
B1632013802082S06010333WA0071100749000000000000
B1632053802132S06010259WA0072300760000000000000
B1632093802111S06010191WA0073400765000000000000
B1632133802064S06010205WA0074000771000000000000
B1632173802046S06010275WA0074100774000000000000
B1632213802076S06010357WA0074500779000000000000
B1632253802142S06010404WA0075000782000000000000
B1632293802210S06010370WA0076000796000000000000
B1632333802213S06010296WA0076900803000000000000
B1632373802171S06010290WA0077600810000000000000
B1632413802173S06010370WA0078500817000000000000
B1632453802243S06010411WA0078600822000000000000
B1632493802303S06010359WA0079400834000000000000
B1632533802303S06010285WA0080400842000000000000
B1632573802258S06010274WA0081100849000000000000
B1633013802242S06010342WA0082200857000000000000
B1633053802301S06010404WA0082300856000000000000
B1633093802375S06010376WA0083000876000000000000
B1633133802395S06010300WA0084300881000000000000
B1633173802355S06010266WA0084700885000000000000
B1633213802332S06010325WA0085600900000000000000
B1633253802368S06010394WA0086600905000000000000
B1633293802442S06010394WA0087300918000000000000
B1633333802484S06010331WA0088000922000000000000
B1633373802455S06010279WA0088300931000000000000
B1633413802418S06010309WA0089300938000000000000
B1633453802420S06010386WA0089700940000000000000
B1633493802480S06010441WA0090000944000000000000
B1633533802554S06010411WA0090400966000000000000
B1633573802572S06010329WA0090800966000000000000
B1634013802528S06010294WA0091400975000000000000
B1634053802489S06010333WA0092100974000000000000
B1634093802489S06010413WA0091900973000000000000
B1634133802527S06010494WA0092400983000000000000
B1634173802593S06010539WA0093400989000000000000
B1634213802659S06010496WA0093900994000000000000
B1634253802657S06010421WA0093800991000000000000
B1634293802605S06010415WA0094100999000000000000
B1634333802570S06010467WA0095101007000000000000
B1634373802596S06010546WA0095701009000000000000
B1634413802670S06010569WA0096001016000000000000
B1634453802723S06010511WA0096801017000000000000
B1634493802720S06010431WA0096601013000000000000
B1634533802672S06010398WA0096801022000000000000
B1634573802626S06010421WA0097501025000000000000
B1635013802601S06010490WA0097701026000000000000
B1635053802613S06010573WA0098101029000000000000
B1635093802674S06010630WA0098401033000000000000
B1635133802748S06010621WA0098501032000000000000
B1635173802782S06010546WA0098801039000000000000
B1635213802750S06010485WA0099501047000000000000
B1635253802702S06010507WA0100401059000000000000
B1635293802713S06010590WA0101401063000000000000
B1635333802782S06010625WA0101801066000000000000
B1635373802849S06010587WA0101501061000000000000
B1635413802866S06010506WA0101701070000000000000
B1635453802831S06010448WA0102401072000000000000
B1635493802778S06010452WA0102601075000000000000
B1635533802741S06010509WA0102401066000000000000
B1635573802745S06010594WA0101901065000000000000
B1636013802778S06010676WA0102801079000000000000
B1636053802810S06010756WA0103201077000000000000
B1636093802874S06010805WA0102601070000000000000
B1636133802952S06010815WA0101601051000000000000
B1636173803019S06010771WA0100901060000000000000
B1636213803035S06010695WA0101701064000000000000
B1636253803003S06010639WA0101801065000000000000
B1636293802951S06010626WA0102501078000000000000
B1636333802912S06010676WA0103701086000000000000
B1636373802928S06010758WA0103801081000000000000
B1636413802997S06010789WA0102901066000000000000
B1636453803060S06010740WA0101701063000000000000
B1636493803074S06010659WA0101701063000000000000
B1636533803077S06010578WA0102201072000000000000
B1636573803057S06010507WA0102401069000000000000
B1637013803013S06010459WA0102201073000000000000
B1637053802969S06010416WA0102401067000000000000
B1637093802922S06010374WA0102101061000000000000
B1637133802867S06010339WA0100901044000000000000
B1637173802806S06010318WA0099401032000000000000
B1637213802744S06010300WA0098401025000000000000
B1637253802680S06010282WA0097901016000000000000
B1637293802615S06010260WA0097001011000000000000
B1637333802550S06010239WA0096801010000000000000
B1637373802484S06010220WA0096301006000000000000
B1637413802418S06010200WA0096201005000000000000
B1637453802350S06010183WA0096001007000000000000
B1637493802285S06010170WA0096301006000000000000
B1637533802219S06010156WA0095900997000000000000
B1637573802154S06010142WA0095300996000000000000
B1638013802089S06010130WA0095300990000000000000
B1638053802022S06010121WA0094500982000000000000
B1638093801957S06010125WA0093800978000000000000
B1638133801894S06010125WA0093300969000000000000
B1638173801833S06010122WA0093100961000000000000
B1638213801770S06010121WA0092400953000000000000
B1638253801708S06010123WA0091500949000000000000
B1638293801649S06010113WA0091700952000000000000
B1638333801599S06010084WA0092000959000000000000
B1638373801552S06010048WA0092500973000000000000
B1638413801502S06010034WA0094200981000000000000
B1638453801454S06010064WA0094200972000000000000
B1638493801405S06010095WA0093400975000000000000
B1638533801353S06010110WA0093900980000000000000
B1638573801303S06010109WA0094500984000000000000
B1639013801253S06010096WA0094500986000000000000
B1639053801202S06010079WA0094300979000000000000
B1639093801154S06010053WA0094600994000000000000
B1639133801108S06010038WA0095500994000000000000
B1639173801067S06010079WA0095500993000000000000
B1639213801040S06010145WA0095000987000000000000
B1639253801008S06010207WA0095100990000000000000
B1639293800975S06010270WA0094700983000000000000
B1639333800946S06010340WA0094900985000000000000
B1639373800926S06010418WA0094400978000000000000
B1639413800951S06010500WA0094100974000000000000
B1639453801004S06010563WA0093800973000000000000
B1639493801075S06010585WA0093300960000000000000
B1639533801150S06010572WA0091800941000000000000
B1639573801220S06010534WA0090300929000000000000
B1640013801293S06010489WA0088700908000000000000
B1640053801367S06010439WA0086900894000000000000
B1640093801426S06010368WA0086200902000000000000
B1640133801457S06010286WA0087000901000000000000
B1640173801493S06010207WA0086500894000000000000
B1640213801552S06010145WA0086600907000000000000
B1640253801618S06010103WA0087600912000000000000
B1640293801690S06010071WA0087400913000000000000
B1640333801765S06010061WA0088200927000000000000
B1640373801833S06010034WA0089100933000000000000
B1640413801875S06009965WA0089600939000000000000
B1640453801862S06009893WA0090500951000000000000
B1640493801812S06009883WA0091900960000000000000
B1640533801782S06009952WA0092700967000000000000
B1640573801818S06010031WA0093100973000000000000
B1641013801895S06010051WA0093500979000000000000
B1641053801964S06010009WA0094000984000000000000
B1641093802012S06009941WA0094500996000000000000
B1641133802000S06009870WA0095501003000000000000
B1641173801951S06009870WA0096601015000000000000
B1641213801938S06009950WA0097401014000000000000
B1641253802002S06010006WA0098701029000000000000
B1641293802073S06009966WA0099601036000000000000
B1641333802076S06009888WA0100001046000000000000
B1641373802026S06009882WA0101301065000000000000
B1641413802009S06009952WA0102801073000000000000
B1641453802059S06010017WA0103001075000000000000
B1641493802132S06009991WA0104001090000000000000
B1641533802145S06009915WA0104801098000000000000
B1641573802099S06009896WA0105801104000000000000
B1642013802072S06009961WA0106801122000000000000
B1642053802109S06010035WA0108101128000000000000
B1642093802185S06010039WA0108801137000000000000
B1642133802229S06009971WA0109501141000000000000
B1642173802207S06009908WA0109801147000000000000
B1642213802156S06009915WA0110801161000000000000
B1642253802138S06009986WA0112101169000000000000
B1642293802190S06010052WA0112501172000000000000
B1642333802264S06010031WA0113101180000000000000
B1642373802293S06009952WA0113901188000000000000
B1642413802255S06009902WA0114301196000000000000
B1642453802206S06009926WA0115001205000000000000
B1642493802207S06010009WA0116101217000000000000
B1642533802273S06010053WA0117101226000000000000
B1642573802345S06010017WA0117601232000000000000
B1643013802366S06009939WA0118701240000000000000
B1643053802328S06009887WA0119201243000000000000
B1643093802280S06009915WA0120001259000000000000
B1643133802285S06009996WA0121101268000000000000
B1643173802350S06010041WA0121401272000000000000
B1643213802421S06010006WA0122201284000000000000
B1643253802441S06009932WA0123301293000000000000
B1643293802408S06009883WA0123901296000000000000
B1643333802364S06009910WA0124901307000000000000
B1643373802364S06009991WA0125501315000000000000
B1643413802425S06010035WA0126601327000000000000
B1643453802493S06010002WA0127101324000000000000
B1643493802523S06009926WA0127601337000000000000
B1643533802501S06009866WA0128601344000000000000
B1643573802455S06009871WA0129101345000000000000
B1644013802442S06009944WA0129001345000000000000
B1644053802488S06010012WA0129601355000000000000
B1644093802563S06010019WA0130301361000000000000
B1644133802620S06009960WA0130901368000000000000
B1644173802631S06009880WA0131401374000000000000
B1644213802594S06009833WA0131801373000000000000
B1644253802549S06009856WA0131801376000000000000
B1644293802542S06009931WA0132101379000000000000
B1644333802577S06010009WA0132601386000000000000
B1644373802645S06010051WA0132901390000000000000
B1644413802720S06010027WA0133301397000000000000
B1644453802750S06009947WA0134201405000000000000
B1644493802718S06009887WA0134601404000000000000
B1644533802667S06009904WA0134801406000000000000
B1644573802658S06009982WA0135101413000000000000
B1645013802707S06010049WA0135901416000000000000
B1645053802787S06010061WA0136001412000000000000
B1645093802856S06010008WA0136201416000000000000
B1645133802874S06009918WA0136501426000000000000
B1645173802840S06009856WA0137201427000000000000
B1645213802785S06009856WA0137201427000000000000
B1645253802750S06009911WA0137401433000000000000
B1645293802758S06009991WA0137901439000000000000
B1645333802809S06010057WA0138201435000000000000
B1645373802880S06010106WA0137501423000000000000
B1645413802951S06010168WA0136301416000000000000
B1645453803021S06010235WA0135501416000000000000
B1645493803086S06010309WA0135901432000000000000
B1645533803142S06010379WA0137801443000000000000
B1645573803195S06010455WA0137601427000000000000
B1646013803244S06010537WA0136801421000000000000
B1646053803289S06010624WA0135701416000000000000
B1646093803329S06010714WA0135501412000000000000
B1646133803364S06010802WA0135201412000000000000
B1646173803395S06010888WA0135501413000000000000
B1646213803429S06010972WA0135401411000000000000
B1646253803464S06011059WA0135301407000000000000
B1646293803498S06011152WA0134501399000000000000
B1646333803532S06011244WA0134501412000000000000
B1646373803559S06011327WA0135801426000000000000
B1646413803581S06011405WA0137101434000000000000
B1646453803634S06011465WA0137601436000000000000
B1646493803712S06011462WA0137001422000000000000
B1646533803792S06011430WA0135901416000000000000
B1646573803875S06011401WA0135301409000000000000
B1647013803959S06011382WA0134701402000000000000
B1647053804048S06011373WA0134101383000000000000
B1647093804139S06011371WA0132501369000000000000
B1647133804230S06011374WA0131401358000000000000
B1647173804321S06011384WA0130501350000000000000
B1647213804408S06011397WA0129801347000000000000
B1647253804496S06011408WA0129501340000000000000
B1647293804586S06011417WA0128801332000000000000
B1647333804676S06011429WA0128001325000000000000
B1647373804764S06011444WA0127601319000000000000
B1647413804852S06011461WA0126901311000000000000
B1647453804940S06011479WA0126401310000000000000
B1647493805020S06011507WA0126701316000000000000
B1647533805098S06011534WA0126901311000000000000
B1647573805177S06011561WA0126001299000000000000
B1648013805258S06011588WA0125701305000000000000
B1648053805337S06011616WA0126001314000000000000
B1648093805408S06011646WA0127801329000000000000
B1648133805476S06011674WA0128401338000000000000
B1648173805552S06011672WA0129001348000000000000
B1648213805601S06011604WA0130301365000000000000
B1648253805573S06011544WA0132101387000000000000
B1648293805527S06011585WA0133701402000000000000
B1648333805551S06011663WA0135201421000000000000
B1648373805622S06011682WA0136901433000000000000
B1648413805688S06011637WA0138101449000000000000
B1648453805712S06011556WA0139601464000000000000
B1648493805669S06011512WA0141101479000000000000
B1648533805636S06011575WA0143401503000000000000
B1648573805671S06011653WA0145001520000000000000
B1649013805739S06011660WA0146901536000000000000
B1649053805774S06011583WA0148401548000000000000
B1649093805736S06011523WA0148901557000000000000
B1649133805686S06011557WA0150601576000000000000
B1649173805686S06011643WA0152001594000000000000
B1649213805753S06011694WA0153901611000000000000
B1649253805827S06011659WA0155401627000000000000
B1649293805837S06011577WA0157101645000000000000
B1649333805788S06011536WA0158501656000000000000
B1649373805749S06011591WA0160401674000000000000
B1649413805770S06011676WA0161801690000000000000
B1649453805840S06011716WA0163301706000000000000
B1649493805911S06011677WA0164501717000000000000
B1649533805921S06011594WA0165501734000000000000
B1649573805882S06011551WA0167101752000000000000
B1650013805839S06011592WA0168701762000000000000
B1650053805855S06011677WA0169601773000000000000
B1650093805926S06011708WA0171101789000000000000
B1650133805986S06011651WA0172001792000000000000
B1650173805976S06011574WA0173201810000000000000
B1650213805929S06011549WA0175001829000000000000
B1650253805891S06011591WA0176301836000000000000
B1650293805900S06011674WA0176401838000000000000
B1650333805968S06011729WA0176901850000000000000
B1650373806046S06011704WA0177601856000000000000
B1650413806087S06011626WA0178201862000000000000
B1650453806123S06011548WA0179501883000000000000
B1650493806159S06011475WA0181201895000000000000
B1650533806194S06011399WA0182101898000000000000
B1650573806194S06011319WA0181801889000000000000
B1651013806150S06011274WA0181101886000000000000
B1651053806095S06011274WA0181201887000000000000
B1651093806038S06011287WA0180701886000000000000
B1651133805980S06011300WA0181101892000000000000
B1651173805925S06011314WA0181901892000000000000
B1651213805864S06011331WA0181201882000000000000
B1651253805798S06011348WA0180201865000000000000
B1651293805727S06011365WA0178201847000000000000
B1651333805655S06011382WA0177601839000000000000
B1651373805579S06011395WA0177001835000000000000
B1651413805504S06011404WA0176301821000000000000
B1651453805427S06011409WA0175001809000000000000
B1651493805350S06011416WA0173901795000000000000
B1651533805274S06011426WA0172601785000000000000
B1651573805197S06011439WA0171801781000000000000
B1652013805119S06011445WA0170901769000000000000
B1652053805041S06011453WA0169701755000000000000
B1652093804963S06011460WA0168801752000000000000
B1652133804889S06011465WA0168901751000000000000
B1652173804815S06011471WA0168601743000000000000
B1652213804741S06011477WA0168101739000000000000
B1652253804667S06011481WA0167501729000000000000
B1652293804592S06011492WA0166401722000000000000
B1652333804520S06011509WA0165801717000000000000
B1652373804448S06011529WA0165401712000000000000
B1652413804375S06011538WA0165501719000000000000
B1652453804306S06011534WA0165501724000000000000
B1652493804241S06011525WA0165501718000000000000
B1652533804176S06011510WA0164901711000000000000
B1652573804110S06011492WA0163901699000000000000
B1653013804041S06011474WA0162601686000000000000
B1653053803968S06011462WA0161701684000000000000
B1653093803900S06011448WA0161701686000000000000
B1653133803832S06011436WA0161601684000000000000
B1653173803767S06011426WA0161501681000000000000
B1653213803703S06011414WA0161301682000000000000
B1653253803641S06011414WA0161201678000000000000
B1653293803577S06011418WA0160701670000000000000
B1653333803512S06011427WA0159901660000000000000
B1653373803447S06011444WA0158801647000000000000
B1653413803381S06011465WA0157601640000000000000
B1653453803316S06011487WA0157001632000000000000
B1653493803252S06011516WA0156301628000000000000
B1653533803190S06011547WA0155601618000000000000
B1653573803127S06011583WA0155101611000000000000
B1654013803065S06011621WA0154001604000000000000
B1654053803004S06011661WA0153501599000000000000
B1654093802943S06011704WA0153101599000000000000
B1654133802882S06011747WA0152701587000000000000
B1654173802819S06011790WA0151401576000000000000
B1654213802758S06011828WA0151401583000000000000
B1654253802697S06011860WA0151801586000000000000
B1654293802639S06011889WA0152601592000000000000
B1654333802579S06011912WA0152801595000000000000
B1654373802520S06011933WA0152901601000000000000
B1654413802463S06011951WA0153601601000000000000
B1654453802403S06011968WA0153101598000000000000
B1654493802342S06011981WA0153501608000000000000
B1654533802284S06011995WA0154501620000000000000
B1654573802233S06012021WA0155801627000000000000
B1655013802185S06012056WA0156101624000000000000
B1655053802146S06012116WA0155501614000000000000
B1655093802125S06012196WA0155001611000000000000
B1655133802145S06012280WA0155201615000000000000
B1655173802200S06012340WA0154901603000000000000
B1655213802276S06012358WA0154101600000000000000
B1655253802354S06012337WA0153501594000000000000
B1655293802415S06012270WA0153901607000000000000
B1655333802471S06012206WA0155601626000000000000
B1655373802484S06012121WA0156701635000000000000
B1655413802438S06012076WA0157201639000000000000
B1655453802395S06012121WA0157901647000000000000
B1655493802407S06012205WA0157901634000000000000
B1655533802479S06012248WA0157401643000000000000
B1655573802554S06012223WA0158001649000000000000
B1656013802623S06012175WA0158201649000000000000
B1656053802671S06012101WA0158701658000000000000
B1656093802700S06012019WA0159601666000000000000
B1656133802685S06011943WA0160401674000000000000
B1656173802636S06011915WA0160601673000000000000
B1656213802594S06011960WA0160701677000000000000
B1656253802607S06012042WA0161301686000000000000
B1656293802661S06012102WA0161701688000000000000
B1656333802736S06012107WA0162201695000000000000
B1656373802787S06012038WA0162501698000000000000
B1656413802780S06011955WA0162701704000000000000
B1656453802733S06011926WA0163501712000000000000
B1656493802696S06011972WA0163701711000000000000
B1656533802709S06012051WA0163801710000000000000
B1656573802767S06012112WA0163801715000000000000
B1657013802843S06012099WA0164401720000000000000
B1657053802876S06012021WA0164601721000000000000
B1657093802847S06011956WA0164901724000000000000
B1657133802797S06011967WA0165301727000000000000
B1657173802775S06012034WA0165301725000000000000
B1657213802795S06012115WA0165401729000000000000
B1657253802822S06012197WA0165201723000000000000
B1657293802837S06012284WA0164801719000000000000
B1657333802841S06012374WA0164701731000000000000
B1657373802865S06012452WA0166201749000000000000
B1657413802934S06012480WA0167701751000000000000
B1657453802996S06012431WA0167601752000000000000
B1657493802991S06012354WA0168101758000000000000
B1657533802944S06012323WA0168401759000000000000
B1657573802899S06012354WA0169001768000000000000
B1658013802866S06012405WA0169801770000000000000
B1658053802834S06012466WA0169501764000000000000
B1658093802804S06012532WA0169501771000000000000
B1658133802774S06012600WA0169001747000000000000
B1658173802744S06012678WA0167001730000000000000
B1658213802711S06012760WA0165201715000000000000
B1658253802676S06012843WA0164601704000000000000
B1658293802639S06012925WA0163601696000000000000
B1658333802597S06013003WA0162901694000000000000
B1658373802555S06013077WA0162501690000000000000
B1658413802518S06013156WA0162001684000000000000
B1658453802483S06013237WA0161401675000000000000
B1658493802454S06013325WA0160501668000000000000
B1658533802431S06013418WA0159301662000000000000
B1658573802408S06013507WA0158801659000000000000
B1659013802389S06013597WA0158801662000000000000
B1659053802371S06013683WA0159101664000000000000
B1659093802353S06013767WA0159201666000000000000
B1659133802334S06013850WA0159201665000000000000
B1659173802311S06013932WA0159201661000000000000
B1659213802285S06014012WA0158801663000000000000
B1659253802252S06014087WA0158701656000000000000
B1659293802217S06014157WA0159001677000000000000
B1659333802178S06014211WA0160601681000000000000
B1659373802137S06014260WA0161401690000000000000
B1659413802083S06014265WA0162601705000000000000
B1659453802039S06014227WA0163701712000000000000
B1659493801983S06014231WA0164301722000000000000
B1659533801970S06014317WA0165601732000000000000
B1659573802037S06014378WA0165701731000000000000
B1700013802109S06014342WA0165701730000000000000
B1700053802148S06014261WA0165601732000000000000
B1700093802168S06014175WA0166401750000000000000
B1700133802151S06014097WA0168001762000000000000
B1700173802096S06014074WA0169301778000000000000
B1700213802060S06014138WA0170901788000000000000
B1700253802089S06014225WA0171801796000000000000
B1700293802164S06014233WA0172901811000000000000
B1700333802213S06014174WA0174001817000000000000
B1700373802207S06014097WA0174801832000000000000
B1700413802158S06014069WA0176001843000000000000
B1700453802121S06014127WA0177101850000000000000
B1700493802147S06014211WA0177901854000000000000
B1700533802219S06014243WA0178401857000000000000
B1700573802282S06014198WA0179101865000000000000
B1701013802289S06014113WA0179901877000000000000
B1701053802242S06014071WA0180901887000000000000
B1701093802193S06014117WA0182001894000000000000
B1701133802197S06014208WA0182101894000000000000
B1701173802259S06014278WA0182001897000000000000
B1701213802338S06014285WA0182301904000000000000
B1701253802394S06014225WA0183401913000000000000
B1701293802390S06014139WA0183501921000000000000
B1701333802346S06014090WA0184601931000000000000
B1701373802294S06014123WA0186001944000000000000
B1701413802295S06014211WA0186601947000000000000
B1701453802359S06014259WA0187201956000000000000
B1701493802424S06014221WA0187801960000000000000
B1701533802433S06014139WA0188501967000000000000
B1701573802388S06014097WA0189001976000000000000
B1702013802342S06014146WA0189901982000000000000
B1702053802363S06014233WA0190101980000000000000
B1702093802434S06014270WA0190301987000000000000
B1702133802501S06014230WA0190801989000000000000
B1702173802525S06014147WA0190901991000000000000
B1702213802490S06014079WA0191501999000000000000
B1702253802432S06014074WA0192102007000000000000
B1702293802384S06014112WA0192602003000000000000
B1702333802379S06014196WA0191401989000000000000
B1702373802431S06014269WA0190901980000000000000
B1702413802512S06014282WA0190401976000000000000
B1702453802580S06014227WA0190201980000000000000
B1702493802598S06014136WA0190701978000000000000
B1702533802558S06014064WA0190601977000000000000
B1702573802494S06014058WA0190901987000000000000
B1703013802442S06014103WA0190601973000000000000
B1703053802412S06014181WA0189101960000000000000
B1703093802392S06014272WA0187701948000000000000
B1703133802377S06014370WA0186201937000000000000
B1703173802363S06014472WA0184701925000000000000
B1703213802349S06014576WA0183701914000000000000
B1703253802332S06014679WA0183201917000000000000
B1703293802315S06014780WA0183401921000000000000
B1703333802295S06014875WA0183601919000000000000
B1703373802275S06014970WA0183401914000000000000
B1703413802256S06015065WA0182701911000000000000
B1703453802237S06015162WA0182201908000000000000
B1703493802221S06015262WA0181901906000000000000
B1703533802210S06015361WA0181801903000000000000
B1703573802200S06015460WA0181801896000000000000
B1704013802190S06015556WA0181701894000000000000
B1704053802184S06015654WA0181001886000000000000
B1704093802176S06015750WA0180401882000000000000
B1704133802168S06015845WA0180201881000000000000
B1704173802160S06015941WA0179801875000000000000
B1704213802152S06016037WA0179301868000000000000
B1704253802146S06016136WA0178701866000000000000
B1704293802139S06016233WA0178501860000000000000
B1704333802133S06016331WA0177901852000000000000
B1704373802120S06016424WA0177201846000000000000
B1704413802100S06016518WA0176701838000000000000
B1704453802078S06016612WA0175801831000000000000
B1704493802056S06016707WA0175101819000000000000
B1704533802030S06016798WA0174901826000000000000
B1704573801999S06016878WA0175301832000000000000
B1705013801968S06016952WA0176401847000000015000
B1705053801937S06017012WA0177801857000000000000
B1705093801904S06017063WA0178401855000000000000
B1705133801870S06017123WA0176901853000000000000
B1705173801844S06017202WA0175001835000000015000
B1705213801816S06017286WA0173601819000000015000
B1705253801784S06017370WA0172601799000000000000
B1705293801753S06017458WA0171001783000000000000
B1705333801721S06017548WA0169901772000000000000
B1705373801688S06017635WA0169701773000000000000
B1705413801653S06017721WA0169801777000000000000
B1705453801621S06017805WA0170401785000000000000
B1705493801589S06017882WA0172201804000000000000
B1705533801558S06017945WA0173701812000000000000
B1705573801524S06018016WA0172501798000000000000
B1706013801489S06018094WA0171101785000000000000
B1706053801454S06018178WA0170301770000000000000
B1706093801419S06018265WA0169201762000000000000
B1706133801384S06018354WA0168601756000000000000
B1706173801352S06018443WA0168001744000000000000
B1706213801316S06018534WA0166901732000000000000
B1706253801285S06018627WA0165801724000000000000
B1706293801254S06018718WA0164901712000000000000
B1706333801223S06018809WA0164201705000000015000
B1706373801189S06018891WA0164501720000000000000
B1706413801167S06018966WA0166101744000000000000
B1706453801146S06019024WA0168101758000000000000
B1706493801121S06019079WA0169001764000000000000
B1706533801103S06019145WA0169501765000000000000
B1706573801090S06019218WA0170201764000000015000
B1707013801140S06019288WA0170201772000000000000
B1707053801219S06019282WA0171301782000000000000
B1707093801277S06019219WA0171601786000000000000
B1707133801301S06019138WA0171601785000000000000
B1707173801264S06019080WA0171801793000000000000
B1707213801216S06019054WA0173101805000000000000
B1707253801179S06019101WA0174401821000000000000
B1707293801202S06019179WA0175301827000000000000
B1707333801277S06019191WA0175701829000000000000
B1707373801329S06019122WA0175601828000000000000
B1707413801327S06019041WA0176401849000000000000
B1707453801298S06018991WA0178101854000000000000
B1707493801254S06019001WA0177801842000000000000
B1707533801242S06019075WA0176901837000000000000
B1707573801288S06019144WA0177501848000000000000
B1708013801359S06019170WA0178101853000000000000
B1708053801435S06019174WA0178101849000000000000
B1708093801509S06019140WA0177701843000000000000
B1708133801566S06019075WA0177701854000000000000
B1708173801576S06018998WA0178601862000000000000
B1708213801535S06018965WA0179401869000000000000
B1708253801500S06019014WA0179801869000000000000
B1708293801532S06019096WA0180501883000000000000
B1708333801610S06019113WA0182301900000000000000
B1708373801667S06019053WA0182701898000000000000
B1708413801654S06018976WA0182401897000000000000
B1708453801604S06018966WA0183601918000000000000
B1708493801580S06019027WA0184701921000000000000
B1708533801630S06019100WA0185801941000000000000
B1708573801708S06019114WA0187401953000000000000
B1709013801770S06019065WA0187701953000000000000
B1709053801777S06018983WA0187801957000000000000
B1709093801734S06018940WA0188501969000000000000
B1709133801692S06018980WA0189401973000000000000
B1709173801714S06019063WA0189801986000000000000
B1709213801790S06019088WA0191502000000000000000
B1709253801857S06019043WA0191701994000000000000
B1709293801878S06018958WA0191501997000000000000
B1709333801853S06018888WA0192802012000000000000
B1709373801805S06018870WA0193602019000000000000
B1709413801778S06018931WA0194102021000000000000
B1709453801816S06019002WA0194802032000000000000
B1709493801892S06019017WA0195202033000000000000
B1709533801953S06018956WA0195402039000000000000
B1709573801950S06018870WA0196002049000000000000
B1710013801899S06018840WA0197102054000000000000
B1710053801862S06018891WA0197602062000000000000
B1710093801885S06018969WA0198002063000000000000
B1710133801960S06018998WA0198702068000000000000
B1710173802029S06018946WA0199202072000000000000
B1710213802039S06018853WA0199302073000000000000
B1710253801990S06018809WA0200302084000000000000
B1710293801942S06018841WA0200302081000000000000
B1710333801933S06018922WA0200202079000000000000
B1710373801981S06018996WA0200202087000000000000
B1710413802061S06019015WA0201702099000000000000
B1710453802133S06018963WA0202202094000000000000
B1710493802148S06018870WA0201602093000000000000
B1710533802104S06018807WA0201902100000000000000
B1710573802047S06018823WA0202902112000000000000
B1711013802016S06018885WA0203202106000000015000
B1711053802030S06018972WA0203102116000000000000
B1711093802095S06019027WA0204302133000000000000
B1711133802174S06019002WA0205502135000000000000
B1711173802212S06018918WA0205402132000000000000
B1711213802190S06018839WA0205502137000000000000
B1711253802138S06018806WA0205502136000000000000
B1711293802090S06018833WA0205502132000000000000
B1711333802083S06018914WA0205502135000000000000
B1711373802135S06018983WA0205802139000000000000
B1711413802216S06019010WA0205902143000000000000
B1711453802302S06019019WA0206302145000000000000
B1711493802390S06019023WA0206202134000000000000
B1711533802485S06019026WA0204302120000000000000
B1711573802583S06019032WA0203302113000000000000
B1712013802681S06019040WA0202902107000000000000
B1712053802782S06019045WA0202602112000000000000
B1712093802880S06019050WA0202902110000000000000
B1712133802983S06019054WA0202802093000000000000
B1712173803087S06019056WA0201402085000000000000
B1712213803191S06019057WA0200602080000000000000
B1712253803292S06019060WA0199902070000000000000
B1712293803391S06019063WA0199402071000000000000
B1712333803487S06019070WA0199502077000000000000
B1712373803580S06019079WA0200502096000000000000
B1712413803658S06019088WA0203402121000000000000
B1712453803729S06019043WA0204402126000000000000
B1712493803755S06018950WA0205202135000000000000
B1712533803712S06018888WA0205502136000000000000
B1712573803660S06018918WA0205402132000000000000
B1713013803656S06019002WA0205302134000000000000
B1713053803702S06019070WA0205802150000000000000
B1713093803763S06019115WA0206502143000000000000
B1713133803846S06019119WA0205602135000000000000
B1713173803932S06019108WA0205202134000000000000
B1713213804013S06019108WA0205302132000000000000
B1713253804091S06019115WA0205102135000000000000
B1713293804166S06019127WA0205802145000000000000
B1713333804247S06019131WA0206402143000000000000
B1713373804329S06019106WA0206202146000000000000
B1713413804403S06019060WA0206602145000000000000
B1713453804479S06019008WA0205702127000000000000
B1713493804557S06018948WA0204602125000000000000
B1713533804631S06018883WA0204602127000000000000
B1713573804703S06018818WA0205202135000000000000
B1714013804773S06018754WA0204802123000000000000
B1714053804856S06018714WA0204902135000000000000
B1714093804930S06018741WA0206602156000000000000
B1714133804971S06018798WA0207802166000000000000
B1714173804969S06018870WA0208002168000000000000
B1714213804943S06018936WA0207802161000000000000
B1714253804915S06019006WA0207302160000000000000
B1714293804865S06019054WA0207302160000000000000
B1714333804807S06019086WA0206702149000000000000
B1714373804745S06019118WA0205702135000000000000
B1714413804680S06019153WA0204802126000000000000
B1714453804609S06019167WA0204202123000000000000
B1714493804546S06019201WA0204002121000000000000
B1714533804486S06019239WA0204702134000000000000
B1714573804430S06019275WA0206002148000000000000
B1715013804407S06019347WA0207102170000000000000
B1715053804449S06019414WA0208902185000000000000
B1715093804526S06019411WA0210002194000000000000
B1715133804577S06019342WA0210602185000000000000
B1715173804569S06019256WA0210102181000000000000
B1715213804521S06019221WA0210502194000000000000
B1715253804466S06019235WA0211602205000000000000
B1715293804434S06019292WA0212702213000000015000
B1715333804444S06019368WA0213702221000000000000
B1715373804512S06019396WA0214402234000000000000
B1715413804573S06019338WA0215402244000000000000
B1715453804568S06019249WA0216402258000000000000
B1715493804512S06019219WA0218102271000000000000
B1715533804461S06019264WA0218802274000000000000
B1715573804462S06019348WA0219302276000000000000
B1716013804514S06019413WA0219302274000000000000
B1716053804591S06019435WA0219902290000000000000
B1716093804669S06019421WA0221402308000000000000
B1716133804707S06019338WA0222502314000000000000
B1716173804689S06019251WA0223102318000000000000
B1716213804635S06019201WA0223602329000000000000
B1716253804576S06019223WA0224602335000000000000
B1716293804560S06019304WA0225002334000000000000
B1716333804605S06019379WA0225102338000000000000
B1716373804682S06019407WA0225802351000000000000
B1716413804763S06019413WA0226802361000000000000
B1716453804825S06019348WA0228002374000000000000
B1716493804821S06019256WA0228302365000000000000
B1716533804761S06019240WA0228502381000000000000
B1716573804726S06019303WA0229602385000000000000
B1717013804754S06019385WA0230102390000000000000
B1717053804825S06019429WA0230902403000000000000
B1717093804906S06019401WA0231802409000000000000
B1717133804945S06019314WA0232202409000000000000
B1717173804928S06019222WA0231402405000000000000
B1717213804872S06019179WA0232302416000000000000
B1717253804816S06019209WA0232802422000000000000
B1717293804799S06019291WA0233502425000000000000
B1717333804834S06019377WA0233702424000000000000
B1717373804914S06019417WA0234102432000000000000
B1717413805001S06019387WA0234402433000000000000
B1717453805054S06019295WA0234602436000000000000
B1717493805049S06019191WA0234802438000000000000
B1717533804998S06019126WA0235302448000000000000
B1717573804936S06019119WA0235902452000000000000
B1718013804880S06019166WA0235902449000000000000
B1718053804849S06019252WA0235302444000000000000
B1718093804871S06019356WA0234702441000000000000
B1718133804933S06019438WA0234202434000000000000
B1718173805024S06019470WA0234102439000000000000
B1718213805115S06019434WA0234802444000000000000
B1718253805179S06019348WA0234902444000000000000
B1718293805202S06019239WA0234902445000000000000
B1718333805198S06019130WA0235102443000000000000
B1718373805174S06019024WA0234802442000000000000
B1718413805140S06018924WA0234502433000000000000
B1718453805099S06018826WA0233502417000000000000
B1718493805055S06018723WA0232002407000000000000
B1718533805012S06018620WA0231402403000000000000
B1718573804968S06018519WA0231102399000000000000
B1719013804924S06018417WA0230502388000000000000
B1719053804882S06018313WA0230002387000000000000
B1719093804841S06018212WA0229602385000000000000
B1719133804803S06018109WA0229502379000000000000
B1719173804764S06018010WA0229402383000000000000
B1719213804730S06017905WA0229502383000000000000
B1719253804720S06017795WA0230202396000000000000
B1719293804732S06017688WA0231302408000000000000
B1719333804763S06017591WA0231902411000000000000
B1719373804798S06017498WA0232102403000000000000
B1719413804807S06017401WA0231002389000000000000
B1719453804787S06017310WA0229602375000000000000
B1719493804746S06017241WA0228502369000000000000
B1719533804689S06017207WA0227902366000000000000
B1719573804630S06017223WA0227902365000000000000
B1720013804592S06017285WA0228202370000000000000
B1720053804591S06017372WA0228602373000000000000
B1720093804609S06017459WA0228302364000000000000
B1720133804596S06017542WA0227502358000000000000
B1720173804547S06017583WA0227402355000000000000
B1720213804488S06017557WA0226602342000000000000
B1720253804440S06017488WA0224702320000000000000
B1720293804397S06017405WA0223402313000000000000
B1720333804355S06017319WA0222602305000000000000
B1720373804312S06017233WA0221902298000000000000
B1720413804270S06017147WA0221502292000000000000
B1720453804226S06017059WA0220802281000000000000
B1720493804176S06016968WA0219502268000000000000
B1720533804124S06016876WA0218202256000000000000
B1720573804071S06016781WA0216902246000000000000
B1721013804017S06016691WA0216502248000000000000
B1721053803962S06016606WA0216302245000000000000
B1721093803907S06016522WA0215802239000000000000
B1721133803857S06016437WA0215402231000000000000
B1721173803803S06016354WA0214702222000000000000
B1721213803749S06016270WA0213602212000000000000
B1721253803693S06016187WA0212802203000000000000
B1721293803638S06016101WA0212002200000000000000
B1721333803584S06016014WA0211702199000000000000
B1721373803529S06015929WA0211502196000000000000
B1721413803474S06015846WA0211202193000000000000
B1721453803420S06015763WA0210802185000000000000
B1721493803364S06015680WA0210002177000000000000
B1721533803307S06015596WA0209302173000000000000
B1721573803251S06015512WA0208802164000000000000
B1722013803195S06015429WA0208302158000000000000
B1722053803138S06015345WA0207702157000000000000
B1722093803082S06015264WA0207702156000000000000
B1722133803025S06015183WA0207502154000000000000
B1722173802967S06015101WA0207102148000000000000
B1722213802909S06015019WA0206702142000000000000
B1722253802853S06014936WA0206302140000000000000
B1722293802798S06014857WA0206302137000000000000
B1722333802744S06014776WA0206002136000000000000
B1722373802691S06014693WA0205702133000000000000
B1722413802640S06014612WA0205402131000000000000
B1722453802592S06014529WA0205202127000000000000
B1722493802541S06014451WA0204802124000000000000
B1722533802490S06014377WA0204602121000000000000
B1722573802438S06014307WA0204202117000000000000
B1723013802385S06014237WA0203502107000000000000
B1723053802332S06014162WA0202602100000000000000
B1723093802281S06014079WA0201902091000000000000
B1723133802230S06013993WA0201202084000000000000
B1723173802180S06013906WA0200702084000000000000
B1723213802128S06013822WA0200502082000000000000
B1723253802076S06013740WA0200502080000000000000
B1723293802025S06013659WA0200102078000000000000
B1723333801976S06013579WA0200102077000000000000
B1723373801927S06013499WA0200002074000000000000
B1723413801879S06013424WA0199602069000000000000
B1723453801830S06013346WA0199002061000000000000
B1723493801782S06013267WA0198402058000000000000
B1723533801732S06013190WA0198002054000000000000
B1723573801680S06013115WA0197702048000000000000
B1724013801627S06013043WA0197002043000000000000
B1724053801576S06012972WA0196902044000000000000
B1724093801528S06012899WA0196602032000000000000
B1724133801487S06012816WA0195602029000000000000
B1724173801457S06012727WA0195702031000000000000
B1724213801440S06012634WA0195602027000000000000
B1724253801432S06012539WA0195702032000000000000
B1724293801410S06012452WA0196002032000000000000
B1724333801355S06012410WA0196202039000000000000
B1724373801302S06012433WA0196902044000000000000
B1724413801272S06012498WA0196802043000000000000
B1724453801294S06012582WA0196802040000000000000
B1724493801363S06012631WA0196502043000000000000
B1724533801444S06012626WA0197202050000000000000
B1724573801504S06012569WA0197602051000000000000
B1725013801518S06012482WA0197702052000000000000
B1725053801493S06012405WA0197502047000000000000
B1725093801440S06012372WA0197302045000000000000
B1725133801384S06012392WA0196902040000000000000
B1725173801337S06012440WA0196402034000000000000
B1725213801289S06012491WA0195402027000000000000
B1725253801232S06012526WA0195802034000000000000
B1725293801172S06012552WA0196502045000000000000
B1725333801118S06012573WA0197402057000000000000
B1725373801063S06012589WA0198102044000000000000
B1725413801002S06012614WA0196102017000000000000
B1725453800937S06012644WA0194002009000000000000
B1725493800872S06012665WA0193402008000000000000
B1725533800807S06012682WA0193502019000000000000
B1725573800750S06012683WA0196102052000000000000
B1726013800709S06012730WA0198502068000000000000
B1726063800738S06012835WA0199302068000000000000
B1726103800815S06012849WA0199202069000000000000
B1726143800868S06012784WA0200002082000000000000
B1726183800877S06012705WA0200902092000000000000
B1726223800833S06012671WA0202402111000000000000
B1726263800803S06012736WA0203802121000000000000
B1726303800847S06012817WA0204302127000000000000
B1726343800923S06012801WA0205802145000000000000
B1726383800952S06012726WA0206702149000000000000
B1726423800913S06012678WA0207502160000000000000
B1726463800873S06012730WA0208802177000000000000
B1726503800904S06012816WA0209602177000000000000
B1726543800982S06012829WA0210202190000000000000
B1726583801037S06012769WA0211002192000000000000
B1727023801042S06012683WA0210902192000000000000
B1727063801008S06012622WA0211402200000000000000
B1727103800954S06012623WA0212302212000000000000
B1727143800923S06012692WA0213502222000000000000
B1727183800947S06012783WA0213502212000000000000
B1727223801021S06012842WA0212902215000000000000
B1727263801107S06012843WA0213502221000000000000
B1727303801166S06012781WA0214702234000000000000
B1727343801167S06012696WA0214902228000000000000
B1727383801123S06012651WA0214702227000000000000
B1727423801067S06012678WA0215002235000000000000
B1727463801040S06012753WA0215202243000000000000
B1727503801064S06012847WA0215502237000000000000
B1727543801141S06012892WA0215202244000000000000
B1727583801218S06012862WA0216002248000000000000
B1728023801261S06012788WA0216602256000000000000
B1728063801254S06012705WA0217202261000000000000
B1728103801203S06012665WA0217702266000000000000
B1728143801150S06012704WA0218902276000000000000
B1728183801134S06012794WA0219002271000000000000
B1728223801173S06012886WA0218802273000000000000
B1728263801251S06012924WA0219002273000000000000
B1728303801331S06012895WA0218802271000000000000
B1728343801375S06012816WA0218802271000000000000
B1728383801371S06012731WA0219502287000000000000
B1728423801340S06012669WA0220002282000000000000
B1728463801280S06012673WA0219702290000000000000
B1728503801250S06012743WA0220902300000000000000
B1728543801284S06012827WA0220902296000000000000
B1728583801363S06012853WA0220602297000000000000
B1729023801428S06012803WA0221002300000000000000
B1729063801428S06012722WA0221402302000000000000
B1729103801378S06012696WA0221902309000000000000
B1729143801337S06012745WA0222502313000000000000
B1729183801345S06012834WA0222102301000000000000
B1729223801410S06012895WA0221402297000000000000
B1729263801489S06012868WA0221402300000000000000
B1729303801531S06012790WA0221502301000000000000
B1729343801521S06012708WA0221602295000000000000
B1729383801469S06012671WA0221102296000000000000
B1729423801414S06012709WA0221402301000000000000
B1729463801401S06012797WA0221602298000000000000
B1729503801446S06012882WA0221102292000000000000
B1729543801530S06012904WA0220402290000000000000
B1729583801604S06012856WA0220702293000000000000
B1730023801634S06012766WA0220702291000000000000
E173005PEV
B1730053801619S06012703WA0220402288000000000000
B1730063801608S06012687WA0220402288000000000000
B1730073801595S06012673WA0220402289000000000000
B1730083801580S06012664WA0220402291000000000000
B1730093801565S06012658WA0220402291000000000000
E173010PEV
B1730103801548S06012657WA0220502293000000000000
B1730113801532S06012662WA0220702297000000000000
B1730123801517S06012671WA0220902299000000000000
B1730133801505S06012686WA0221002301000000000000
B1730143801495S06012703WA0221102302000000000000
B1730153801487S06012723WA0221302300000000000000
B1730163801482S06012747WA0221302298000000000000
B1730173801483S06012771WA0221302297000000000000
B1730183801488S06012796WA0221202296000000000000
B1730193801497S06012820WA0221102295000000000000
B1730203801510S06012840WA0221002291000000000000
B1730213801524S06012860WA0220802286000000000000
B1730223801543S06012875WA0220402283000000000000
B1730233801565S06012885WA0220002280000000000000
B1730243801586S06012891WA0219702279000000000000
B1730253801609S06012891WA0219502278000000000000
B1730263801631S06012885WA0219402280000000000000
B1730303801703S06012825WA0219302280000000000000
B1730343801735S06012730WA0219202276000000000000
B1730383801729S06012635WA0219302277000000000000
B1730423801696S06012557WA0219602284000000000000
B1730463801664S06012480WA0220302294000000000000
B1730503801635S06012404WA0221002302000000000000
B1730543801609S06012327WA0221402298000000000000
B1730583801583S06012248WA0221002291000000000000
B1731023801554S06012166WA0220902296000000000000
B1731063801513S06012095WA0220902290000000000000
B1731103801448S06012089WA0220702289000000000000
B1731143801405S06012150WA0220102280000000000000
B1731183801418S06012241WA0219502274000000000000
B1731223801463S06012322WA0218302261000000000000
B1731263801518S06012396WA0217202253000000000000
B1731303801570S06012470WA0216202241000000000000
B1731343801609S06012556WA0215302238000000000000
B1731383801647S06012641WA0214502221000000000000
B1731423801709S06012713WA0213702219000000000000
B1731463801788S06012753WA0213602217000000000000
B1731503801872S06012727WA0213502222000000000000
B1731543801908S06012641WA0214502232000000000000
B1731583801885S06012560WA0215002234000000000000
B1732023801825S06012535WA0215302240000000000000
B1732063801765S06012562WA0215402236000000000000
B1732103801718S06012625WA0215002231000000000000
B1732143801682S06012704WA0213902215000000000000
B1732183801679S06012799WA0213302217000000000000
B1732223801740S06012868WA0213702220000000000000
B1732263801825S06012875WA0213802216000000000000
B1732303801901S06012825WA0212802204000000000000
B1732343801947S06012739WA0212002203000000000000
B1732383801972S06012647WA0212102206000000000000
B1732423801970S06012554WA0212902211000000000000
B1732463801925S06012488WA0213102214000000000000
B1732503801861S06012491WA0213902225000000000000
B1732543801835S06012570WA0214402225000000000000
B1732583801866S06012654WA0214102215000000000000
B1733023801946S06012684WA0212702200000000000000
B1733063802013S06012628WA0212402195000000000000
B1733103802024S06012543WA0212702201000000000000
B1733143801996S06012466WA0212802206000000000000
B1733183801943S06012427WA0213502214000000000000
B1733223801895S06012472WA0214302215000000000000
B1733263801899S06012561WA0212902198000000000000
B1733303801960S06012623WA0211702188000000000000
B1733343802041S06012618WA0210902178000000000000
B1733383802093S06012547WA0210302184000000000000
B1733423802111S06012462WA0211302193000000000000
B1733463802113S06012374WA0211402191000000000000
B1733503802082S06012298WA0211202192000000000000
B1733543802024S06012289WA0211802197000000000000
B1733583801989S06012358WA0211502191000000000000
B1734023802012S06012446WA0210802183000000000000
B1734063802077S06012510WA0209902180000000000000
B1734103802155S06012535WA0209902177000000000000
B1734143802226S06012483WA0209902183000000000000
B1734183802277S06012410WA0210302176000000000000
B1734223802278S06012322WA0209602169000000000000
B1734263802232S06012263WA0208502157000000000000
B1734303802167S06012255WA0208002160000000000000
B1734343802102S06012271WA0207902158000000000000
B1734383802046S06012313WA0207702156000000000000
B1734423801995S06012362WA0206902142000000000000
B1734463801943S06012415WA0205802127000000000000
B1734503801888S06012471WA0204402115000000000000
B1734543801836S06012530WA0203302107000000000000
B1734583801782S06012586WA0203202114000000000000
B1735023801731S06012635WA0204402131000000000000
B1735063801682S06012674WA0205402130000000000000
B1735103801632S06012714WA0204802120000000000000
B1735143801583S06012758WA0204002110000000000000
B1735183801531S06012805WA0202702095000000000000
B1735223801480S06012857WA0201602087000000000000
B1735263801430S06012912WA0200902078000000000000
B1735303801379S06012968WA0199702065000000000000
B1735343801328S06013028WA0198402052000000000000
B1735383801280S06013086WA0198002054000000000000
B1735423801233S06013147WA0197602044000000000000
B1735463801189S06013215WA0196702040000000000000
E173548PEV
B1735483801167S06013251WA0196402034000000000000
B1735493801157S06013269WA0196202031000000000000
B1735503801146S06013289WA0196002030000000000000
B1735513801134S06013307WA0195802027000000000000
B1735523801123S06013325WA0195602025000000000000
E173552PEV
B1735523801123S06013325WA0195602025000000000000
B1735543801101S06013364WA0195502024000000000000
B1735553801089S06013382WA0195302026000000000000
B1735563801079S06013401WA0195302030000000000000
B1735573801067S06013419WA0195402036000000000000
B1735583801056S06013434WA0195702040000000000000
B1735593801045S06013449WA0196102046000000000000
B1736003801033S06013462WA0196502051000000000000
B1736013801023S06013475WA0196902051000000000000
B1736023801011S06013488WA0197102049000000000000
B1736033801001S06013501WA0197202045000000000000
B1736043800990S06013515WA0197202040000000000000
B1736053800978S06013529WA0196902038000000000000
B1736063800967S06013544WA0196702038000000000000
B1736073800954S06013558WA0196502041000000000000
B1736083800942S06013571WA0196402041000000000000
B1736093800929S06013583WA0196502039000000000000
B1736133800873S06013627WA0195902027000000000000
B1736173800812S06013661WA0195702037000000000000
B1736213800756S06013685WA0197102051000000000000
B1736253800704S06013718WA0197702054000000000000
B1736293800676S06013787WA0197502049000000000000
B1736333800663S06013874WA0196802044000000000000
B1736373800663S06013969WA0196302037000000000000
B1736413800682S06014068WA0196002031000000000000
B1736453800709S06014170WA0194502018000000000000
B1736493800747S06014279WA0194602025000000000000
B1736533800798S06014369WA0196102049000000000000
B1736573800873S06014408WA0197802062000000000000
B1737013800941S06014372WA0198602068000000000000
B1737053800971S06014290WA0198602062000000000000
B1737093800947S06014213WA0198602077000000000000
B1737133800895S06014183WA0200102087000000000000
B1737173800851S06014230WA0201002094000000000000
B1737213800867S06014313WA0201202092000000000000
B1737253800937S06014344WA0201002090000000000000
B1737293800998S06014299WA0201302094000000000000
B1737333801006S06014220WA0201602101000000000000
B1737373800981S06014153WA0202202104000000000000
B1737413800925S06014129WA0202402110000000000000
B1737453800878S06014181WA0203102116000000000000
B1737493800891S06014266WA0203602119000000000000
B1737533800959S06014300WA0203902117000000000000
B1737573801020S06014252WA0203902120000000000000
B1738013801030S06014165WA0204102124000000000000
B1738053800982S06014112WA0204702131000000000000
B1738093800921S06014133WA0205302136000000000000
B1738133800900S06014214WA0205202124000000000000
B1738173800942S06014302WA0204102116000000000000
B1738213801016S06014348WA0203602113000000000000
B1738253801097S06014383WA0203102105000000000000
B1738293801176S06014426WA0202502104000000000000
B1738333801249S06014482WA0202402099000000000000
B1738373801314S06014549WA0202002097000000000000
B1738413801370S06014624WA0202102098000000000000
B1738453801426S06014694WA0202302102000000000000
B1738493801498S06014741WA0202002095000000000000
B1738533801584S06014760WA0201802092000000000000
B1738573801670S06014770WA0201802098000000000000
B1739013801747S06014737WA0202202104000000000000
B1739053801807S06014681WA0202702104000000000000
B1739093801836S06014599WA0202402103000000000000
B1739133801844S06014520WA0202802107000000000000
B1739173801821S06014450WA0202502104000000000000
B1739213801779S06014396WA0202902111000000000000
B1739253801725S06014376WA0203302113000000000000
B1739293801667S06014402WA0202902100000000000000
B1739333801609S06014446WA0202202103000000000000
B1739373801545S06014458WA0202602116000000000000
B1739413801487S06014456WA0204302132000000000000
B1739453801439S06014491WA0205202132000000000000
B1739493801437S06014578WA0204602123000000000000
B1739533801491S06014649WA0203502114000000000000
B1739573801570S06014653WA0202202102000000000000
B1740013801632S06014594WA0202102105000000000000
B1740053801648S06014508WA0202702107000000000000
B1740093801615S06014439WA0202902112000000000000
B1740133801574S06014383WA0203302115000000000000
B1740173801534S06014325WA0203802120000000000000
B1740213801497S06014257WA0204102119000000000000
B1740253801465S06014182WA0203602113000000000000
B1740293801433S06014107WA0203702114000000000000
B1740333801384S06014049WA0203002104000000000000
B1740373801322S06014016WA0202502106000000000000
B1740413801259S06014001WA0203502117000000000000
B1740453801202S06014039WA0203502106000000000000
B1740493801180S06014125WA0202202087000000000000
B1740533801214S06014212WA0200702080000000000000
B1740573801270S06014276WA0199802068000000000000
B1741013801346S06014298WA0198502058000000000000
B1741053801414S06014255WA0198102055000000000000
B1741093801478S06014201WA0197702051000000000000
B1741133801556S06014199WA0198002057000000000000
B1741173801631S06014233WA0197402047000000000000
B1741213801703S06014281WA0197302055000000000000
B1741253801768S06014337WA0198602073000000000000
B1741293801826S06014394WA0199502071000000000000
B1741333801888S06014454WA0199202067000000000000
B1741373801948S06014524WA0199102077000000000000
B1741413802002S06014594WA0199902077000000000000
B1741453802072S06014645WA0199402076000000000000
B1741493802147S06014636WA0200702089000000000000
B1741533802190S06014564WA0201402095000000000000
B1741573802165S06014494WA0201702100000000000000
B1742013802106S06014517WA0202602109000000000000
B1742053802093S06014607WA0202802111000000000000
B1742093802154S06014676WA0202702107000000000000
B1742133802234S06014659WA0203102115000000000000
B1742173802284S06014599WA0203902118000000000000
B1742213802275S06014519WA0204202120000000000000
B1742253802215S06014517WA0204402128000000000000
B1742293802191S06014602WA0204802133000000000000
B1742333802234S06014684WA0205102140000000000000
B1742373802310S06014693WA0206702148000000000000
B1742413802356S06014627WA0206702147000000000000
B1742453802338S06014551WA0206302147000000000000
B1742493802280S06014546WA0206602156000000000000
B1742533802245S06014616WA0207302161000000000000
B1742573802267S06014705WA0207602161000000000000
B1743013802334S06014753WA0207702164000000000000
B1743053802414S06014744WA0207602161000000000000
B1743093802485S06014699WA0207602162000000000000
B1743133802548S06014642WA0207802166000000000000
B1743173802584S06014564WA0208402177000000000000
B1743213802567S06014494WA0209702180000000000000
B1743253802514S06014482WA0210102186000000000000
B1743293802473S06014542WA0210302189000000000000
B1743333802490S06014629WA0210602192000000000000
B1743373802559S06014672WA0211002194000000000000
B1743413802629S06014638WA0211202200000000000000
B1743453802657S06014563WA0211802197000000000000
B1743493802629S06014493WA0211302193000000000000
B1743533802570S06014478WA0211602199000000000000
B1743573802522S06014528WA0211902202000000000000
B1744013802515S06014615WA0212302205000000000000
B1744053802566S06014689WA0212202204000000000000
B1744093802646S06014697WA0212202203000000000000
B1744133802702S06014636WA0212202205000000000000
B1744173802692S06014554WA0212402207000000000000
B1744213802632S06014538WA0212902210000000000000
B1744253802590S06014601WA0212902212000000000000
B1744293802618S06014692WA0212902212000000000000
B1744333802694S06014731WA0213002211000000000000
B1744373802766S06014688WA0213002212000000000000
B1744413802780S06014603WA0213202215000000000000
B1744453802740S06014547WA0213402216000000000000
B1744493802679S06014546WA0213202210000000000000
B1744533802631S06014601WA0212902208000000000000
B1744573802619S06014692WA0212702208000000000000
B1745013802663S06014776WA0212502207000000000000
B1745053802743S06014803WA0212402204000000000000
B1745093802815S06014768WA0212402203000000000000
B1745133802862S06014697WA0212102201000000000000
B1745173802875S06014612WA0211802200000000000000
B1745213802848S06014543WA0212102201000000000000
B1745253802793S06014517WA0211802196000000000000
B1745293802739S06014556WA0211102188000000000000
B1745333802710S06014640WA0210202178000000000000
B1745373802714S06014740WA0209902178000000000000
B1745413802766S06014822WA0210202182000000000000
B1745453802847S06014850WA0209902171000000000000
B1745493802926S06014815WA0208802158000000000000
B1745533802995S06014750WA0207602150000000000000
B1745573803055S06014676WA0206902143000000000000
B1746013803112S06014598WA0206502147000000000000
B1746053803168S06014523WA0207102153000000000000
B1746093803225S06014451WA0207502155000000000000
B1746133803282S06014386WA0207802161000000000000
B1746173803339S06014316WA0208102159000000000000
B1746213803395S06014242WA0208002158000000000000
B1746253803439S06014160WA0208702169000000000000
B1746293803448S06014069WA0209302174000000000000
B1746333803419S06013999WA0209702169000000000000
B1746373803365S06013990WA0209302173000000000000
B1746413803339S06014058WA0209802180000000000000
B1746453803373S06014144WA0210302182000000000000
B1746493803459S06014170WA0210802195000000000000
B1746533803541S06014138WA0211402198000000000000
E174658PEV
B1746583803563S06014021WA0211702203000000000000
B1746593803554S06014003WA0211902206000000000000
B1747003803543S06013990WA0212002206000000000000
B1747013803533S06013978WA0212202203000000000000
B1747023803520S06013970WA0212202200000000000000
B1747033803507S06013970WA0212102199000000000000
B1747043803494S06013977WA0212002200000000000000
E174705PEV
B1747053803484S06013988WA0211902200000000000000
B1747063803474S06014003WA0211902200000000000000
B1747073803469S06014021WA0211802200000000000000
B1747083803465S06014040WA0211802198000000000000
B1747093803463S06014061WA0211702196000000000000
B1747103803464S06014084WA0211702197000000000000
B1747113803471S06014108WA0211602197000000000000
B1747123803478S06014130WA0211602195000000000000
B1747133803490S06014151WA0211502194000000000000
B1747143803502S06014174WA0211502193000000000000
B1747153803515S06014195WA0211502192000000000000
B1747163803532S06014212WA0211502199000000000000
B1747173803550S06014225WA0211702203000000000000
B1747183803569S06014235WA0212002204000000000000
B1747193803590S06014242WA0212302203000000000000
B1747203803612S06014243WA0212502204000000000000
B1747213803634S06014239WA0212602205000000000000
B1747253803702S06014181WA0212802206000000000000
B1747293803703S06014083WA0213002211000000000000
B1747333803656S06014031WA0213002208000000000000
B1747373803607S06014057WA0213402219000000000000
B1747413803590S06014127WA0213502216000000000000
B1747453803594S06014213WA0213402213000000000000
B1747493803640S06014292WA0213102212000000000000
B1747533803721S06014300WA0213402219000000000000
B1747573803788S06014238WA0213802220000000000000
B1748013803789S06014146WA0214002222000000000000
B1748053803744S06014096WA0213902216000000000000
B1748093803690S06014113WA0213602215000000000000
B1748133803649S06014156WA0213602216000000000000
B1748173803642S06014239WA0213102215000000000000
B1748213803697S06014315WA0212702217000000000000
B1748253803776S06014299WA0213502227000000000000
B1748293803811S06014212WA0213402225000000000000
B1748333803784S06014136WA0213002211000000000000
B1748373803727S06014139WA0212502220000000000000
B1748413803694S06014199WA0212902213000000000000
B1748453803716S06014292WA0212102207000000000000
B1748493803790S06014339WA0212302207000000000000
B1748533803874S06014312WA0212402206000000000000
B1748573803915S06014226WA0212802213000000000000
B1749013803913S06014138WA0213102207000000000000
B1749053803874S06014073WA0212102198000000000000
B1749093803819S06014055WA0212102205000000000000
B1749133803768S06014069WA0212602208000000000000
B1749173803747S06014136WA0212702208000000000000
B1749213803790S06014213WA0211802198000000000000
B1749253803874S06014214WA0211602204000000000000
B1749293803952S06014160WA0211402201000000000000
B1749333803954S06014073WA0210402192000000000000
B1749373803903S06014035WA0210202195000000000000
B1749413803851S06014048WA0210502197000000000000
B1749453803807S06014087WA0210702190000000000000
B1749493803776S06014149WA0210502189000000000000
B1749533803753S06014221WA0210502183000000000000
B1749573803773S06014307WA0210002185000000000000
B1750013803838S06014361WA0210102184000000000000
B1750053803919S06014376WA0209602168000000000000
B1750093803996S06014339WA0209002168000000000000
B1750133804044S06014265WA0208302160000000000000
B1750173804056S06014175WA0207502153000000000000
B1750213804057S06014086WA0207402158000000000000
B1750253804031S06014012WA0207302151000000000000
B1750293803979S06013993WA0207102158000000000000
B1750333803937S06014029WA0207302155000000000000
B1750373803939S06014107WA0206802150000000000000
B1750413803996S06014168WA0206202141000000000000
B1750453804078S06014169WA0205902142000000000000
B1750493804139S06014108WA0205702142000000000000
B1750533804176S06014030WA0205902141000000000000
B1750573804209S06013945WA0205102125000000000000
B1751013804201S06013858WA0204202126000000000000
B1751053804175S06013795WA0204402128000000000000
B1751093804147S06013735WA0204502127000000000000
B1751133804114S06013683WA0204302118000000000000
B1751173804062S06013672WA0203602122000000000000
B1751213804015S06013671WA0204702131000000000000
B1751253803992S06013726WA0204702126000000000000
B1751293804043S06013788WA0204802131000000000000
B1751333804122S06013774WA0205202131000000000000
B1751373804153S06013685WA0205102123000000000000
B1751413804115S06013619WA0204402130000000000000
B1751453804062S06013615WA0204902131000000000000
B1751493804019S06013653WA0204202113000000000000
B1751533804026S06013733WA0203302115000000000000
B1751573804061S06013808WA0203702114000000000000
B1752013804130S06013850WA0203502128000000000000
B1752053804200S06013801WA0204802133000000000000
B1752093804193S06013717WA0205002134000000000000
B1752133804143S06013711WA0205102136000000000000
B1752173804136S06013784WA0205202138000000000000
B1752213804199S06013837WA0205802144000000000000
B1752253804278S06013819WA0206202147000000000000
B1752293804310S06013736WA0206002149000000000000
B1752333804283S06013670WA0206202143000000000000
B1752373804234S06013683WA0205802148000000000000
B1752413804227S06013758WA0206202149000000000000
B1752453804287S06013813WA0206602157000000000000
B1752493804365S06013789WA0207302158000000000000
B1752533804405S06013707WA0206802153000000000000
B1752573804381S06013633WA0206502151000000000000
B1753013804327S06013635WA0206602155000000000000
B1753053804308S06013704WA0206902157000000000000
B1753093804358S06013774WA0207002158000000000000
B1753133804442S06013774WA0207202159000000000000
B1753173804492S06013696WA0207602161000000000000
B1753213804483S06013613WA0207402154000000000000
B1753253804431S06013588WA0206902151000000000000
B1753293804386S06013628WA0207502155000000000000
B1753333804378S06013705WA0207602154000000000000
B1753373804435S06013767WA0207802157000000000000
B1753413804517S06013758WA0207702153000000000000
B1753453804568S06013683WA0207602148000000000000
B1753493804555S06013594WA0206802148000000000000
B1753533804500S06013579WA0207402154000000000000
B1753573804477S06013648WA0207502150000000000000
B1754013804525S06013720WA0207602155000000000000
B1754053804607S06013718WA0207802155000000000000
B1754093804667S06013655WA0207802156000000000000
B1754133804664S06013571WA0208102159000000000000
B1754173804624S06013525WA0208202157000000000000
B1754213804577S06013548WA0208302159000000000000
B1754253804568S06013619WA0207702148000000000000
B1754293804620S06013691WA0206902146000000000000
B1754333804699S06013720WA0206502142000000000000
B1754373804781S06013691WA0206402142000000000000
B1754413804834S06013618WA0206602142000000000000
B1754453804828S06013525WA0206102133000000000000
B1754493804777S06013476WA0205402128000000000000
B1754533804722S06013483WA0205702137000000000000
B1754573804682S06013525WA0206102138000000000000
B1755013804682S06013603WA0205202130000000000000
B1755053804738S06013667WA0204902130000000000000
B1755093804820S06013675WA0204902132000000000000
B1755133804897S06013632WA0205002129000000000000
B1755173804928S06013546WA0205202129000000000000
B1755213804901S06013471WA0204802125000000000000
B1755253804850S06013454WA0204802125000000000000
B1755293804808S06013493WA0204602123000000000000
B1755333804804S06013564WA0204502119000000000000
B1755373804852S06013633WA0203702112000000000000
B1755413804934S06013649WA0203502114000000000000
B1755453805011S06013605WA0203102111000000000000
B1755493805073S06013527WA0202202099000000000000
B1755533805135S06013444WA0201302090000000000000
B1755573805187S06013351WA0200702083000000000000
B1756013805237S06013252WA0199502070000000000000
B1756053805288S06013151WA0198602062000000000000
B1756093805340S06013048WA0197602050000000000000
B1756133805392S06012944WA0197002043000000000000
B1756173805445S06012839WA0196302036000000000000
B1756213805497S06012732WA0195702035000000000000
B1756253805548S06012627WA0195602033000000000000
B1756293805597S06012523WA0195302029000000000000
B1756333805648S06012417WA0195002022000000000000
B1756373805696S06012307WA0193902009000000000000
B1756413805742S06012193WA0192802000000000000000
B1756453805786S06012073WA0192201994000000000000
B1756493805829S06011954WA0191401976000000000000
B1756533805869S06011833WA0189901965000000000000
B1756573805908S06011709WA0188701953000000000000
B1757013805947S06011586WA0187501943000000000000
B1757053805985S06011462WA0186901935000000000000
B1757093806019S06011336WA0185901928000000000000
B1757133806051S06011208WA0185101917000000000000
B1757173806086S06011080WA0184301907000000000000
B1757213806125S06010951WA0183401896000000000000
B1757253806167S06010824WA0182101886000000000000
B1757293806212S06010697WA0181401881000000000000
B1757333806256S06010572WA0181401892000000000000
B1757373806301S06010451WA0182101892000000000000
B1757413806346S06010334WA0181901886000000000000
B1757453806399S06010218WA0181201877000000000000
B1757493806459S06010103WA0180101868000000000000
B1757533806523S06009991WA0179601861000000000000
B1757573806589S06009884WA0179001856000000000000
B1758013806654S06009778WA0178501849000000000000
B1758053806719S06009674WA0177601837000000000000
B1758093806784S06009567WA0176401829000000000000
B1758133806847S06009460WA0175901826000000000000
B1758173806906S06009351WA0175701826000000000000
B1758213806964S06009241WA0175501823000000000000
B1758253807023S06009135WA0175501822000000000000
B1758293807075S06009021WA0175001812000000000000
B1758333807124S06008903WA0174001804000000000000
B1758373807173S06008782WA0173101795000000000000
B1758413807222S06008661WA0172201784000000000000
B1758453807272S06008537WA0171101776000000000000
B1758493807320S06008414WA0170201763000000000000
B1758533807369S06008289WA0169701763000000000000
B1758573807420S06008168WA0170101770000000000000
B1759013807472S06008047WA0169901757000000000000
B1759053807525S06007924WA0168601745000000000000
B1759093807579S06007796WA0167701735000000000000
B1759133807632S06007669WA0166701726000000000000
B1759173807684S06007542WA0166101722000000000000
B1759213807735S06007414WA0165701713000000000000
B1759253807787S06007288WA0164901705000000000000
B1759293807839S06007165WA0164001698000000000000
B1759333807892S06007042WA0163201685000000000000
B1759373807948S06006923WA0162501680000000000000
B1759413808004S06006804WA0161401666000000000000
B1759453808063S06006686WA0159801652000000000000
B1759493808123S06006568WA0159101647000000000000
B1759533808186S06006452WA0158501638000000000000
B1759573808247S06006338WA0157901641000000000000
B1800013808310S06006226WA0157901630000000000000
B1800053808370S06006109WA0156901623000000000000
B1800093808427S06005989WA0155901615000000000000
B1800133808483S06005870WA0155401610000000000000
B1800173808539S06005749WA0154901601000000000000
B1800213808595S06005628WA0154401603000000000000
B1800253808651S06005506WA0154201588000000000000
B1800293808706S06005381WA0152601578000000000000
B1800333808760S06005256WA0151801572000000000000
B1800373808815S06005131WA0151301564000000000000
B1800413808869S06005007WA0150201554000000000000
B1800453808924S06004887WA0150301565000000000000
B1800493808980S06004770WA0150601562000000000000
B1800533809037S06004654WA0150301558000000000000
B1800573809097S06004540WA0149901554000000000000
B1801013809158S06004423WA0149401545000000000000
B1801053809219S06004305WA0148501536000000000000
B1801093809278S06004184WA0147801531000000000000
B1801133809335S06004064WA0147201523000000000000
B1801173809393S06003946WA0146501518000000000000
B1801213809451S06003827WA0145701505000000000000
B1801253809509S06003708WA0145001500000000000000
B1801293809568S06003586WA0144401497000000000000
B1801333809626S06003463WA0144301497000000000000
B1801373809686S06003345WA0144201489000000000000
B1801413809744S06003224WA0143201480000000000000
B1801453809803S06003105WA0142401471000000000000
B1801493809861S06002985WA0141501461000000000000
B1801533809922S06002865WA0140601450000000000000
B1801573809980S06002745WA0139301436000000000000
B1802013810038S06002621WA0138101422000000000000
B1802053810093S06002495WA0136701409000000000000
B1802093810149S06002370WA0135901403000000000000
B1802133810205S06002245WA0135301400000000000000
B1802173810258S06002121WA0134801396000000000000
B1802213810312S06001996WA0134401390000000000000
B1802253810366S06001872WA0133901382000000000000
B1802293810419S06001749WA0132701369000000000000
B1802333810471S06001623WA0131401353000000000000
B1802373810526S06001499WA0130001338000000000000
B1802413810582S06001374WA0128901329000000000000
B1802453810637S06001251WA0127901318000000000000
B1802493810695S06001130WA0126801313000000000000
B1802533810751S06001009WA0126501318000000000000
B1802573810809S06000897WA0127601327000000000000
B1803013810870S06000789WA0127501309000000000000
B1803053810931S06000678WA0125401289000000000000
B1803093810994S06000564WA0123901279000000000000
B1803133811057S06000455WA0123001267000000000000
B1803173811121S06000349WA0121701252000000000000
B1803213811185S06000245WA0120901254000000000000
B1803253811251S06000145WA0121001254000000000000
B1803293811312S06000048WA0120901256000000000000
B1803333811369S05959972WA0123401312000000000000
B1803373811416S05959907WA0127901337000000000000
B1803413811399S05959829WA0129301341000000000000
B1803453811337S05959812WA0129801353000000000000
B1803493811316S05959879WA0131901368000000000000
B1803533811363S05959948WA0132301379000000000000
B1803573811432S05959921WA0133701396000000000000
B1804013811427S05959844WA0134801408000000000000
B1804053811375S05959822WA0135901416000000000000
B1804093811346S05959887WA0136601419000000000000
B1804133811390S05959960WA0136501428000000000000
B1804173811455S05959992WA0138201446000000000000
B1804213811511S05959947WA0139401454000000000000
B1804253811521S05959869WA0139801461000000000000
B1804293811494S05959810WA0141201477000000000000
B1804333811451S05959846WA0142701483000000000000
B1804373811469S05959929WA0142401475000000000000
B1804413811545S05959955WA0143201493000000000000
B1804453811605S05959909WA0144301503000000000000
B1804493811610S05959831WA0145001510000000000000
B1804533811576S05959768WA0145401513000000000000
B1804573811536S05959717WA0146501530000000000000
B1805013811488S05959749WA0148301547000000000000
B1805053811507S05959830WA0149001546000000000000
B1805093811581S05959849WA0148801541000000000000
B1805133811650S05959808WA0148401541000000000000
B1805173811697S05959735WA0149301561000000000000
B1805213811706S05959652WA0151101576000000000000
B1805253811654S05959622WA0152501585000000000000
B1805293811618S05959687WA0152601587000000000000
B1805333811651S05959770WA0152701594000000000000
B1805373811715S05959814WA0153901603000000000000
B1805413811792S05959810WA0154301614000000000000
B1805453811848S05959756WA0155501619000000000000
B1805493811883S05959677WA0155801622000000000000
B1805533811857S05959605WA0156801641000000000000
B1805573811804S05959626WA0158301649000000000000
B1806013811819S05959708WA0158901659000000000000
B1806053811892S05959714WA0159901667000000000000
B1806093811926S05959635WA0160601672000000000000
B1806133811882S05959586WA0161601685000000000000
B1806173811840S05959638WA0163001700000000000000
B1806213811874S05959712WA0163801704000000000000
B1806253811947S05959700WA0164201710000000000000
B1806293811975S05959621WA0165201715000000000000
B1806333811937S05959557WA0165701725000000000000
B1806373811883S05959588WA0167201737000000000000
B1806413811911S05959666WA0168601741000000000000
B1806453811989S05959653WA0169001752000000000000
B1806493812023S05959570WA0170001758000000000000
B1806533812010S05959485WA0171001777000000000000
B1806573811956S05959483WA0172901793000000000000
B1807013811944S05959565WA0173401794000000000000
B1807053812008S05959622WA0174401814000000000000
B1807093812080S05959595WA0175801826000000000000
B1807133812091S05959508WA0177101839000000000000
B1807173812035S05959491WA0178401852000000000000
B1807213812026S05959566WA0179301863000000000000
B1807253812095S05959602WA0180701875000000000000
B1807293812152S05959540WA0181101883000000000000
B1807333812131S05959465WA0182401903000000000000
B1807373812083S05959454WA0183401900000000000000
B1807413812054S05959534WA0182301895000000000000
B1807453812096S05959613WA0183101917000000000000
B1807493812158S05959664WA0184401919000000000000
B1807533812233S05959641WA0185101929000000000000
B1807573812281S05959575WA0185501928000000000000
B1808013812308S05959491WA0186601947000000000000
B1808053812288S05959420WA0188501966000000000000
B1808093812242S05959448WA0189101968000000000000
B1808133812253S05959532WA0188701962000000000000
B1808173812329S05959578WA0189201984000000000000
B1808213812402S05959537WA0191002002000000000000
B1808253812404S05959453WA0192302011000000000000
B1808293812350S05959441WA0193602021000000000000
B1808333812330S05959518WA0194002027000000000000
B1808373812368S05959600WA0194902040000000000000
B1808413812442S05959612WA0196202052000000000000
B1808453812480S05959532WA0197202059000000000000
B1808493812442S05959469WA0197802062000000000000
B1808533812385S05959496WA0198902078000000000000
B1808573812366S05959573WA0199502086000000000000
B1809013812396S05959651WA0200402085000000000000
B1809053812473S05959667WA0200602094000000000000
B1809093812545S05959641WA0201002088000000000000
B1809133812606S05959575WA0200502088000000000000
B1809173812617S05959483WA0201002094000000000000
B1809213812590S05959405WA0202102107000000000000
B1809253812538S05959387WA0203702118000000000000
B1809293812500S05959437WA0204002119000000000000
B1809333812524S05959523WA0204302129000000000000
B1809373812597S05959558WA0205102133000000000000
B1809413812675S05959537WA0205102129000000000000
B1809453812747S05959479WA0204502123000000000000
B1809493812815S05959401WA0204302124000000000000
B1809533812885S05959315WA0204702130000000000000
B1809573812957S05959218WA0205302135000000000000
B1810013813022S05959118WA0205502138000000000000
B1810053813083S05959012WA0205302131000000000000
B1810093813146S05958902WA0204902127000000000000
B1810133813209S05958793WA0203702109000000000000
B1810173813270S05958681WA0202702097000000000000
B1810213813332S05958564WA0201202079000000000000
B1810253813388S05958442WA0199702069000000000000
B1810293813444S05958318WA0198902062000000000000
B1810333813497S05958195WA0198402059000000000000
B1810373813547S05958070WA0197902055000000000000
B1810413813595S05957944WA0197602049000000000000
B1810453813642S05957811WA0196702039000000000000
B1810493813686S05957677WA0195902034000000000000
B1810533813730S05957543WA0195602028000000000000
B1810573813767S05957405WA0194802019000000000000
B1811013813802S05957269WA0194102015000000000000
B1811053813834S05957134WA0193502009000000000000
B1811093813867S05956999WA0192902001000000000000
B1811133813898S05956862WA0192201995000000000000
B1811173813929S05956728WA0191101978000000000000
B1811213813959S05956590WA0189901961000000000000
B1811253813985S05956453WA0188801957000000000000
B1811293814001S05956315WA0187901941000000000000
B1811333814006S05956176WA0186001919000000000000
B1811373814016S05956033WA0183901898000000000000
B1811413814028S05955886WA0182001883000000000000
B1811453814040S05955741WA0180901875000000000000
B1811493814053S05955597WA0180401875000000000000
B1811533814067S05955459WA0180301874000000000000
B1811573814081S05955324WA0179901866000000000000
B1812013814097S05955189WA0179001858000000000000
B1812053814112S05955055WA0178401851000000000000
B1812093814127S05954921WA0177801843000000000000
B1812133814134S05954791WA0177201839000000000000
B1812173814134S05954665WA0177101841000000000000
B1812213814141S05954542WA0177201847000000000000
B1812253814154S05954422WA0178001853000000000000
B1812293814170S05954306WA0178601861000000000000
B1812333814192S05954192WA0179401873000000000000
B1812373814219S05954084WA0180901892000000000000
B1812413814248S05953980WA0181901884000000000000
B1812453814276S05953868WA0180501864000000000000
B1812493814307S05953749WA0178601848000000000000
B1812533814339S05953624WA0177201838000000000000
B1812573814368S05953498WA0176401828000000000000
B1813013814396S05953372WA0175601823000000000000
B1813053814424S05953245WA0175101818000000000000
B1813093814454S05953123WA0174901813000000000000
B1813133814480S05953001WA0174401813000000000000
B1813173814508S05952880WA0174301808000000000000
B1813213814535S05952757WA0173301792000000000000
B1813253814563S05952629WA0171701782000000000000
B1813293814593S05952503WA0171101779000000000000
B1813333814622S05952378WA0170701772000000000000
B1813373814652S05952248WA0169701753000000000000
B1813413814686S05952113WA0168301748000000000000
B1813453814721S05951977WA0168201750000000000000
B1813493814756S05951841WA0168101746000000000000
B1813533814790S05951702WA0167601737000000000000
B1813573814822S05951563WA0166401720000000000000
B1814013814851S05951422WA0164901707000000000000
B1814053814878S05951280WA0163901696000000000000
B1814093814903S05951137WA0162601688000000000000
B1814133814927S05950996WA0161801679000000000000
B1814173814951S05950860WA0161101669000000000000
B1814213814976S05950722WA0160001652000000000000
B1814253814999S05950580WA0158201632000000000000
B1814293815024S05950436WA0156501617000000000000
B1814333815050S05950293WA0155301610000000000000
B1814373815074S05950153WA0154401605000000000000
B1814413815098S05950015WA0154101602000000000000
B1814453815121S05949878WA0153801597000000000000
B1814493815145S05949743WA0153201587000000000000
B1814533815165S05949605WA0152101570000000000000
B1814573815187S05949468WA0150401554000000000000
B1815013815210S05949332WA0149401551000000000000
B1815053815233S05949200WA0149101548000000000000
B1815093815255S05949067WA0148801547000000000000
B1815133815276S05948937WA0148501543000000000000
B1815173815297S05948806WA0147901531000000000000
B1815213815315S05948672WA0147101526000000000000
B1815253815330S05948537WA0146401517000000000000
B1815293815345S05948398WA0145401503000000000000
B1815333815358S05948257WA0144201488000000000000
B1815373815372S05948118WA0142901479000000000000
B1815413815385S05947979WA0141601461000000000000
B1815453815399S05947839WA0139801442000000000000
B1815493815414S05947700WA0139101455000000000000
B1815533815433S05947576WA0140701471000000000000
B1815573815463S05947458WA0141301473000000000000
B1816013815506S05947349WA0141801476000000000000
B1816053815542S05947247WA0142701491000000000000
B1816093815549S05947152WA0144701510000000000000
B1816133815532S05947073WA0146101523000000000000
B1816173815506S05947005WA0146701523000000000000
B1816213815460S05946972WA0147301534000000000000
B1816253815410S05946979WA0147701536000000000000
B1816293815362S05947004WA0148501547000000000000
B1816333815315S05947038WA0149601558000000000000
B1816373815317S05947120WA0150701564000000000000
B1816413815389S05947167WA0150801563000000000000
B1816453815463S05947125WA0151501579000000000000
B1816493815510S05947055WA0152401584000000000000
B1816533815501S05946978WA0153101592000000000000
B1816573815454S05946948WA0153501595000000000000
B1817013815403S05946966WA0153901606000000000000
B1817053815351S05946977WA0154501618000000000000
B1817093815323S05946918WA0156501640000000000000
B1817133815373S05946848WA0157901649000000000000
B1817173815453S05946859WA0158801658000000000000
B1817213815480S05946930WA0159901664000000000000
B1817253815446S05946986WA0160101665000000000000
B1817293815397S05947012WA0160901682000000000000
B1817333815356S05946978WA0162901704000000000000
B1817373815380S05946905WA0164901719000000000000
B1817413815454S05946875WA0165101712000000000000
B1817453815518S05946943WA0164901720000000000000
B1817493815522S05947029WA0166101734000000000000
B1817533815509S05947108WA0167501746000000000000
B1817573815460S05947135WA0168401749000000000000
B1818013815431S05947081WA0169001757000000000000
B1818053815467S05947012WA0170001768000000000000
B1818093815538S05946979WA0171001783000000000000
B1818133815607S05947025WA0172501793000000000000
B1818173815589S05947103WA0173301801000000000000
B1818213815533S05947099WA0174201807000000000000
B1818253815506S05947029WA0174801816000000000000
B1818293815541S05946950WA0176401834000000000000
B1818333815619S05946913WA0176601825000000000000
B1818373815706S05946943WA0176201838000000000000
B1818413815749S05947024WA0177801854000000000000
B1818453815728S05947104WA0178701851000000000000
B1818493815668S05947134WA0177901847000000000000
B1818533815648S05947061WA0179301873000000000000
B1818573815706S05947003WA0181201883000000000000
B1819013815785S05946985WA0181301884000000000000
B1819053815848S05947046WA0182101889000000000000
B1819093815827S05947122WA0182701894000000000000
B1819133815769S05947122WA0182301884000000000000
B1819173815737S05947054WA0182701902000000000000
B1819213815754S05946969WA0184001912000000000000
B1819253815827S05946922WA0184401906000000000000
B1819293815902S05946964WA0184301902000000000000
B1819333815897S05947043WA0185801915000000000000
B1819373815849S05947038WA0185901914000000000000
B1819413815845S05946952WA0185601908000000000000
B1819453815849S05946860WA0184401897000000000000
B1819493815858S05946757WA0183401892000000000000
B1819533815871S05946645WA0182401877000000000000
B1819573815888S05946526WA0180901868000000000000
B1820013815909S05946409WA0180001860000000000000
B1820053815930S05946290WA0179101849000000000000
B1820093815953S05946173WA0178101836000000000000
B1820133815982S05946056WA0176701827000000000000
B1820173816034S05945958WA0176501839000000000000
B1820213816120S05945955WA0178101854000000000000
B1820253816164S05946021WA0178401845000000000000
B1820293816170S05946105WA0176801828000000000000
B1820333816156S05946188WA0175101810000000000000
B1820373816139S05946274WA0173801799000000000000
B1820413816121S05946363WA0172501783000000000000
B1820453816096S05946454WA0170701768000000000000
B1820493816077S05946553WA0169001744000000000000
B1820533816083S05946670WA0166601721000000000000
B1820573816116S05946792WA0164801704000000000000
B1821013816164S05946911WA0163801695000000000000
B1821053816217S05947026WA0162901692000000000000
B1821093816272S05947137WA0163401696000000000000
B1821133816334S05947243WA0163301694000000000000
B1821173816402S05947347WA0162901684000000000000
B1821213816471S05947451WA0162201688000000000000
B1821253816541S05947553WA0162601686000000000000
B1821293816608S05947653WA0162001677000000000000
B1821333816676S05947753WA0160901664000000000000
B1821373816742S05947854WA0160001661000000000000
B1821413816810S05947957WA0159501649000000000000
B1821453816879S05948061WA0158301637000000000000
B1821493816945S05948169WA0157301627000000000000
B1821533817013S05948274WA0156301618000000000000
B1821573817080S05948376WA0155801618000000000000
B1822013817147S05948473WA0156101621000000000000
B1822053817213S05948558WA0157401646000000000000
B1822093817286S05948620WA0159501667000000000000
B1822133817356S05948677WA0161201678000000000000
B1822173817422S05948741WA0161701675000000000000
B1822213817482S05948819WA0161301674000000000000
B1822253817531S05948907WA0161301673000000000000
B1822293817574S05949005WA0161401684000000000000
B1822333817609S05949096WA0163501717000000000000
B1822373817633S05949182WA0165401718000000000000
B1822413817655S05949274WA0164901699000000000000
B1822453817669S05949381WA0163201681000000000000
B1822493817678S05949495WA0161001657000000000000
B1822533817683S05949618WA0158601635000000000000
B1822573817687S05949745WA0156601616000000000000
B1823013817689S05949872WA0155401610000000000000
B1823053817691S05949997WA0154401600000000000000
B1823093817696S05950120WA0154101596000000000000
B1823133817703S05950242WA0153401587000000000000
B1823173817711S05950366WA0152601580000000000000
B1823213817716S05950497WA0152001577000000000000
B1823253817725S05950616WA0151301570000000000000
B1823293817733S05950736WA0150701565000000000000
B1823333817741S05950856WA0150301558000000000000
B1823373817748S05950973WA0149801555000000000000
B1823413817756S05951089WA0149401548000000000000
B1823453817764S05951203WA0148801539000000000000
B1823493817780S05951318WA0147801527000000000000
B1823533817806S05951432WA0146401511000000000000
B1823573817838S05951549WA0145001496000000000000
B1824013817871S05951669WA0144201500000000000000
B1824053817903S05951792WA0144301496000000000000
B1824093817937S05951919WA0143901491000000000000
B1824133817973S05952047WA0143701493000000000000
B1824173818011S05952173WA0143801492000000000000
B1824213818050S05952300WA0143201483000000000000
B1824253818086S05952429WA0142701479000000000000
B1824293818122S05952558WA0142101475000000000000
B1824333818158S05952681WA0142001472000000000000
B1824373818196S05952802WA0141501464000000000000
B1824413818232S05952920WA0140901457000000000000
B1824453818272S05953039WA0140301454000000000000
B1824493818323S05953152WA0140301457000000000000
B1824533818371S05953265WA0140801471000000000000
B1824573818411S05953369WA0142901495000000000000
B1825013818452S05953464WA0145001521000000000000
B1825053818501S05953544WA0147301540000000000000
B1825093818579S05953578WA0148801554000000000000
B1825133818655S05953542WA0149801563000000000000
B1825173818677S05953461WA0150801568000000000000
B1825213818635S05953418WA0151901586000000000000
B1825253818586S05953435WA0153401601000000000000
B1825293818584S05953517WA0154701614000000000000
B1825333818661S05953548WA0156101628000000000000
B1825373818710S05953479WA0157001637000000000000
B1825413818666S05953439WA0158501656000000000000
B1825453818642S05953487WA0160201668000000000000
B1825493818713S05953539WA0161701688000000000000
B1825533818782S05953494WA0162601693000000000000
B1825573818757S05953435WA0163601713000000000000
B1826013818716S05953482WA0164901721000000000000
B1826053818760S05953563WA0166001738000000000000
B1826093818842S05953542WA0167401745000000000000
B1826133818865S05953465WA0168101760000000000000
B1826173818826S05953424WA0169001762000000000000
B1826213818779S05953459WA0170201778000000000000
B1826253818764S05953537WA0171401790000000000000
B1826293818813S05953607WA0172801805000000000000
B1826333818890S05953590WA0173701812000000000000
B1826373818902S05953512WA0174001814000000000000
B1826413818852S05953505WA0174801825000000000000
B1826453818838S05953587WA0175001827000000000000
B1826493818863S05953682WA0174701816000000000000
B1826533818890S05953793WA0173401789000000000000
B1826573818918S05953916WA0169801755000000000000
B1827013818947S05954049WA0168001733000000000000
B1827053818977S05954185WA0166201717000000000000
B1827093819007S05954323WA0165001710000000000000
