ACAM3FF
HFDTE060125
HFFXA050
HFPLTPILOT:Ole Refsgaard           
HFGTYGLIDERTYPE:Nimbus 4T   
HFGIDGLIDERID:OY-LIX 4T   
HFDTM100GPSDATUM:
HFRFWFIRMWAREVERSION:F2.6
HFRHWHARDWAREVERSION:300 Series Version 2
HFFTYFRTYPE:CAMBRIDGE AERO INSTRUMENTS, 302+
HFGPS:GARMIN,LVS-25,12,18000
HFPRSPRESSALTSENSOR:INTERSEMA, MS5534-AP, 20000
I033638FXA3941ENL4247REX
LCAMSBVER:5FWVER:F26300
C230423093639230423000103
C0000000N00000000WTAKEOFF     
C5600850N00859833E0001ArnborgR
C5555633N00940883E0761NimKrk  
C5637383N00946250E0152FyrkatBr
C5558083N00944933E0170Oestbirk
C5600633N00900867E0851ArnborgF
C0000000N00000000WLANDING     
B1732053802005S06007817WA0020800201000056105000
B1732073802005S06007817WA0020800201000072120000
B1732093802005S06007817WA0020800201000064120000
B1732113802005S06007817WA0020800201000060120000
B1732133802005S06007817WA0020800202000056120000
B1732153802005S06007817WA0020800202000056120000
B1732173802005S06007817WA0020900202000048135000
B1732193802005S06007817WA0020800202000040135000
B1732213802005S06007817WA0020800202000036135000
B1732233802005S06007817WA0020800202000036135000
B1732253802005S06007818WA0020800202000028135000
B1732273802005S06007818WA0020800202000024135000
B1732293802005S06007818WA0020800203000020135000
B1732313802005S06007818WA0020800203000024135000
B1732333802005S06007818WA0020800203000088135000
B1732363802000S06007825WA0020800203000356135000
B1732403801982S06007846WA0020800203000680135000
B1732443801955S06007883WA0020700203000520135000
B1732483801918S06007934WA0020800204000372135000
B1732523801875S06007997WA0021000204000292135000
B1732563801831S06008068WA0021600204000228135000
B1733003801790S06008141WA0023700207000168135000
B1733043801747S06008210WA0024900209000136135000
B1733083801708S06008284WA0026400212000112135000
B1733123801675S06008363WA0028000216000100135000
B1733163801649S06008446WA0030400222000096135000
B1733203801636S06008533WA0031900228000096135000
B1733243801640S06008626WA0033000234000088135000
B1733283801652S06008718WA0034200247000084135000
B1733323801666S06008813WA0036300260000080135000
B1733363801682S06008908WA0038000268000080135000
B1733403801697S06009003WA0040300277000076135000
B1733443801713S06009102WA0042000286000080150000
B1733483801726S06009200WA0043800303000080150000
B1733523801742S06009300WA0046000317000076180000
B1733563801757S06009399WA0048100324000072195000
B1734003801773S06009498WA0050200333000080225000
B1734043801787S06009598WA0051900331000076210000
B1734083801777S06009687WA0053800339000072210000
B1734123801744S06009765WA0054600340000076210000
B1734163801699S06009831WA0055500342000080210000
B1734203801638S06009875WA0056200344000076210000
B1734243801576S06009896WA0057900350000076210000
B1734283801514S06009906WA0059600354000080195000
B1734323801454S06009905WA0062000361000080195000
B1734363801394S06009885WA0063900366000088195000
B1734403801336S06009857WA0066200374000088195000
B1734443801285S06009802WA0068400384000088195000
B1734483801250S06009727WA0069900389000092195000
B1734523801214S06009640WA0070900401000100195000
B1734563801188S06009563WA0071400406000096195000
B1735003801166S06009488WA0071100398000080195000
B1735043801147S06009406WA0069900395000064195000
B1735083801138S06009311WA0069500408000052195000
B1735123801131S06009219WA0069800421000048195000
B1735163801116S06009131WA0070400433000048195000
B1735203801101S06009046WA0070900443000044195000
B1735243801081S06008964WA0071300453000044195000
B1735283801038S06008907WA0072100473000036180000
B1735323800985S06008887WA0072700485000036180000
B1735363800933S06008903WA0073000491000040180000
B1735403800893S06008947WA0073400504000044180000
B1735443800890S06009021WA0073700515000044180000
B1735483800941S06009076WA0074200528000048180000
B1735523801004S06009069WA0074400546000044165000
B1735563801062S06009012WA0074100547015048165000
B1736003801075S06008934WA0074500553015048180000
B1736043801038S06008890WA0075500563015048195000
B1736083800991S06008904WA0075700568015048195000
B1736123800976S06008970WA0075700576015048195000
B1736163801017S06009038WA0076100584015044210000
B1736203801084S06009050WA0077100591015048210000
B1736243801144S06008999WA0076800592015052210000
B1736283801167S06008920WA0077200597015048210000
B1736323801141S06008866WA0077900599015048210000
B1736363801095S06008879WA0078300598015052225000
B1736403801084S06008946WA0078200603015052225000
B1736443801136S06009007WA0078500609015048225000
B1736483801211S06008990WA0078700615015052210000
B1736523801240S06008908WA0078700620015052225000
B1736563801201S06008853WA0079100628015052015000
B1737003801153S06008878WA0079700628015052045000
B1737043801142S06008960WA0079700623015052015000
B1737083801176S06009038WA0080800626015048045000
B1737123801246S06009057WA0081600629015052030000
B1737163801305S06009005WA0081400635015056030000
B1737203801314S06008920WA0081600649015052015000
B1737243801274S06008874WA0081800648015052030000
B1737283801225S06008900WA0081900650015048030000
B1737323801229S06008979WA0081500659015048015000
B1737363801294S06009030WA0082400666015048030000
B1737403801368S06009004WA0083100673015052030000
B1737443801401S06008927WA0083700676015052045000
B1737483801380S06008865WA0084600682015052075000
B1737523801333S06008855WA0084900684015048060000
B1737563801298S06008897WA0084700693015048045000
B1738003801318S06008975WA0085100691015052045000
B1738043801376S06009009WA0086000709015048045000
B1738083801441S06008975WA0086500729015048000000
B1738123801475S06008896WA0086500731015052000000
B1738163801450S06008834WA0086800729015052015000
B1738203801398S06008831WA0087000732015052030000
B1738243801349S06008861WA0086900729015048030000
B1738283801297S06008883WA0087600734015048030000
B1738323801259S06008930WA0088600733015052030000
B1738363801263S06009003WA0090300751015044015000
B1738403801328S06009048WA0091200754015044015000
B1738443801400S06009022WA0091900755015044030000
B1738483801422S06008943WA0092300765015044015000
B1738523801389S06008896WA0093200770015044030000
B1738563801342S06008914WA0094300812015044225000
B1739003801372S06008986WA0095100813015048030000
B1739043801446S06008988WA0095600818015044015000
B1739083801482S06008910WA0096400838015048000000
B1739123801450S06008862WA0097500845015048030000
B1739163801415S06008904WA0098300857015044060000
B1739203801433S06008970WA0098900879015044030000
B1739243801509S06008996WA0098900875015048030000
B1739283801570S06008934WA0098300878015052045000
B1739323801562S06008848WA0098700890015052090000
B1739363801511S06008814WA0099900900015048150000
B1739403801459S06008831WA0100900912015052150000
B1739443801439S06008891WA0101900931015056090000
B1739483801476S06008951WA0102900967015052030000
B1739523801547S06008948WA0104300986015048225000
B1739563801587S06008877WA0105200998015052210000
B1740003801566S06008806WA0105801018015048210000
B1740043801517S06008810WA0107001035015052225000
B1740083801513S06008883WA0107901048015044195000
B1740123801569S06008923WA0109001061015048195000
B1740163801632S06008882WA0109501068015048165000
B1740203801641S06008800WA0109601077015048180000
B1740243801602S06008753WA0110601092015048210000
B1740283801562S06008782WA0111701103015052165000
B1740323801563S06008851WA0112601112015048150000
B1740363801628S06008892WA0113501121015044150000
B1740403801688S06008844WA0114601131015044135000
B1740443801679S06008773WA0115101143015044150000
B1740483801636S06008792WA0116101155015040165000
B1740523801665S06008864WA0116901168015048195000
B1740563801740S06008852WA0118001174015052165000
B1741003801758S06008770WA0118501182015052180000
B1741043801709S06008748WA0119201190015052210000
B1741083801678S06008812WA0119701201015052195000
B1741123801726S06008887WA0120401204015056165000
B1741163801803S06008869WA0122101215015060150000
B1741203801818S06008793WA0123001219015056150000
B1741243801775S06008766WA0123401224015052165000
B1741283801732S06008805WA0124201229015052150000
B1741323801777S06008870WA0125401238015048135000
B1741363801839S06008840WA0126801252015048135000
B1741403801848S06008769WA0127101251015052150000
B1741443801803S06008740WA0127701262015044135000
B1741483801752S06008771WA0128901268015044135000
B1741523801765S06008845WA0130601278015044120000
B1741563801833S06008853WA0132001290015044120000
B1742003801868S06008786WA0132901300015044120000
B1742043801830S06008744WA0133601315015048135000
B1742083801787S06008775WA0134901329015048135000
B1742123801794S06008847WA0136201340015044120000
B1742163801860S06008879WA0137401350015040120000
B1742203801918S06008830WA0138301359015040120000
B1742243801918S06008757WA0139301367015044120000
B1742283801872S06008749WA0140401387015052135000
B1742323801855S06008809WA0142201397015048120000
B1742363801888S06008874WA0143401408015044120000
B1742403801957S06008883WA0144501416015040105000
B1742443802018S06008831WA0145101422000044105000
B1742483802044S06008752WA0145501426000048105000
B1742523802026S06008680WA0146301436000056105000
B1742563801983S06008650WA0147801446000048120000
B1743003801944S06008679WA0149101460000048105000
B1743043801947S06008749WA0150001468000052105000
B1743083802008S06008788WA0151101480000048105000
B1743123802076S06008758WA0152101491000044105000
B1743163802120S06008696WA0152601498015048105000
B1743203802103S06008615WA0153601512015044105000
B1743243802055S06008595WA0154901524015040105000
B1743283802022S06008639WA0155601534015040105000
B1743323802043S06008709WA0156401548015040090000
B1743363802115S06008732WA0157401560015040090000
B1743403802182S06008679WA0157801568015044090000
B1743443802198S06008588WA0158001575015044090000
B1743483802174S06008509WA0158801581000048090000
B1743523802125S06008470WA0159401591000048105000
B1743563802068S06008485WA0159701595000048105000
B1744003802012S06008526WA0159001594000044105000
B1744043801952S06008572WA0157501594000048105000
B1744083801894S06008628WA0156501594000048090000
B1744123801834S06008678WA0156201594000044090000
B1744163801773S06008723WA0156101597000044090000
B1744203801712S06008761WA0155901598000044090000
B1744243801649S06008799WA0155401597000044090000
B1744283801588S06008838WA0155501600000044090000
B1744323801530S06008881WA0155201602000048090000
B1744363801472S06008918WA0155401606000048105000
B1744403801414S06008938WA0155301608000048105000
B1744443801359S06008956WA0155101608000044105000
B1744483801320S06009008WA0154401604000040090000
B1744523801300S06009086WA0153801601000040090000
B1744563801288S06009172WA0152901597000040090000
B1745003801288S06009260WA0152401594000040090000
B1745043801302S06009349WA0151801590000040090000
B1745083801333S06009432WA0151101586000040090000
B1745123801384S06009511WA0150701582000044090000
B1745163801454S06009576WA0151101582000052090000
B1745203801536S06009593WA0152201586000048090000
B1745243801610S06009542WA0152301584000048090000
B1745283801644S06009451WA0153301588000044090000
B1745323801622S06009372WA0154201589000044090000
B1745363801565S06009321WA0154701586000048105000
B1745403801498S06009311WA0153901583000052090000
B1745443801454S06009369WA0153201576000056090000
B1745483801471S06009456WA0153201579000052090000
B1745523801530S06009523WA0153301580000048090000
B1745563801612S06009549WA0153401583000052090000
B1746003801692S06009515WA0153901592000052090000
B1746043801735S06009433WA0155501603000044090000
B1746083801729S06009341WA0156401607000044090000
B1746123801684S06009268WA0156701608000044105000
B1746163801625S06009225WA0156201609000048105000
B1746203801573S06009254WA0156101609000044105000
B1746243801565S06009332WA0155701604000048105000
B1746283801595S06009415WA0155301598000044090000
B1746323801643S06009492WA0154901596000044090000
B1746363801718S06009533WA0155401600000048090000
B1746403801800S06009525WA0155801602000048090000
B1746443801870S06009471WA0156901607000068090000
B1746483801926S06009397WA0157101607000060075000
B1746523801942S06009306WA0157901613000052075000
B1746563801903S06009250WA0159301621000048090000
B1747003801849S06009254WA0160301621000044105000
B1747043801813S06009313WA0160501621000044090000
B1747083801805S06009391WA0160601619000048090000
B1747123801813S06009473WA0159601619000044090000
B1747163801834S06009554WA0158801615000048090000
B1747203801875S06009635WA0160101618015052090000
B1747243801951S06009670WA0160801621015056090000
B1747283802024S06009623WA0161201626015048090000
B1747323802038S06009532WA0162201632015048090000
B1747363801990S06009481WA0163401643015048105000
B1747403801955S06009534WA0164601664015048135000
B1747443801998S06009599WA0165601675015044120000
B1747483802073S06009592WA0166601685015044120000
B1747523802112S06009511WA0168201693015040120000
B1747563802087S06009437WA0169001701015040135000
B1748003802030S06009428WA0169701707015040150000
B1748043801986S06009475WA0170201715015044135000
B1748083801994S06009562WA0170801719015048120000
B1748123802046S06009624WA0171301728015052120000
B1748163802119S06009644WA0172601738015052105000
B1748203802184S06009594WA0173401746015048105000
B1748243802208S06009514WA0174301755015044105000
B1748283802180S06009449WA0174801748015044105000
B1748323802119S06009445WA0174501746015044120000
B1748363802077S06009494WA0175101753015044105000
B1748403802121S06009586WA0175901756015048105000
B1748443802198S06009601WA0176801763015048105000
B1748483802264S06009544WA0177501766015048105000
B1748523802280S06009453WA0178301770015044105000
B1748563802242S06009380WA0178501770015044120000
B1749003802177S06009360WA0178701775015044150000
B1749043802128S06009412WA0179201789015048180000
B1749083802124S06009495WA0179801802015048180000
B1749123802155S06009573WA0179801811015056150000
B1749163802223S06009629WA0179301810015056135000
B1749203802302S06009624WA0179801816015056135000
B1749243802362S06009557WA0180301821015052120000
B1749283802373S06009462WA0180501823015052120000
B1749323802346S06009372WA0181101830015052120000
B1749363802289S06009316WA0181401836015052135000
B1749403802220S06009317WA0181501842015052150000
B1749443802171S06009371WA0182201852015048135000
B1749483802150S06009441WA0182101861015060120000
B1749523802186S06009515WA0180501859015068120000
B1749563802262S06009559WA0179201853015064105000
B1750003802358S06009567WA0179001853015060105000
B1750043802433S06009511WA0179901856015060105000
B1750083802473S06009416WA0180701862015056090000
B1750123802470S06009316WA0181001865015056090000
B1750163802428S06009241WA0181601867015052090000
B1750203802363S06009208WA0181801864000052075000
B1750243802293S06009207WA0181501861000052075000
B1750283802225S06009224WA0181501859000052075000
B1750323802159S06009246WA0180101855000056090000
B1750363802094S06009278WA0178501849000052090000
B1750403802029S06009307WA0178001843000048090000
B1750443801959S06009328WA0176801838000052090000
B1750483801886S06009351WA0175101832015052090000
B1750523801810S06009371WA0173801826015052090000
B1750563801734S06009389WA0173201821015052090000
B1751003801658S06009406WA0173001820015048105000
B1751043801583S06009423WA0172101818015048105000
B1751083801506S06009437WA0171101814015044105000
B1751123801427S06009450WA0170501810015040105000
B1751163801346S06009454WA0169901807015044120000
B1751203801264S06009449WA0169401805015048120000
B1751243801180S06009446WA0168601802015048120000
B1751283801097S06009445WA0167901800015048120000
B1751323801016S06009442WA0167401799015048120000
B1751363800936S06009438WA0167001799015048120000
B1751403800859S06009433WA0166801801015048120000
B1751443800781S06009427WA0166601801015052120000
B1751483800709S06009434WA0166201799015052120000
B1751523800640S06009453WA0165801796015056135000
B1751563800572S06009477WA0165401795015060135000
B1752003800508S06009512WA0165201792015056135000
B1752043800447S06009550WA0165001793015048135000
B1752083800390S06009593WA0164501790015052135000
B1752123800331S06009635WA0164101790015052135000
B1752163800275S06009684WA0163401784015056150000
B1752203800219S06009735WA0163301784015056150000
B1752243800159S06009780WA0162801781015060150000
B1752283800094S06009811WA0162301779015056150000
B1752323800027S06009824WA0163501782015056165000
B1752363759959S06009836WA0164301785015052165000
B1752403759885S06009843WA0164001786015052165000
B1752443759814S06009872WA0163401781015056165000
B1752483759746S06009896WA0164101785015052165000
B1752523759676S06009913WA0163601783015052165000
B1752563759611S06009950WA0162901780015052180000
B1753003759546S06009979WA0162801781015052180000
B1753043759481S06009997WA0161701776015056195000
B1753083759415S06010022WA0160801770015052195000
B1753123759348S06010054WA0159501766015048195000
B1753163759285S06010095WA0158401758015052195000
B1753203759222S06010134WA0158301757015048195000
B1753243759161S06010175WA0157201753015048195000
B1753283759100S06010220WA0156401747015048195000
B1753323759039S06010270WA0154801741015048195000
B1753363758975S06010320WA0153701737015048195000
B1753403758917S06010373WA0153201736015048195000
B1753443758861S06010420WA0153501736015044195000
B1753483758805S06010465WA0152601729015044195000
B1753523758748S06010506WA0152201726015044195000
B1753563758688S06010539WA0151701721015048195000
B1754003758623S06010568WA0150401718015052210000
B1754043758567S06010611WA0148801711015060210000
B1754083758523S06010664WA0149101708015060210000
B1754123758489S06010741WA0149401706015056210000
B1754163758441S06010790WA0150301709015056210000
B1754203758406S06010850WA0152101713015052225000
B1754243758368S06010899WA0153301718015048225000
B1754283758333S06010959WA0154401723015040225000
B1754323758303S06011022WA0155201726015044225000
B1754363758281S06011092WA0156801728015044225000
B1754403758280S06011174WA0158101732015052225000
B1754443758339S06011247WA0158801732015064225000
B1754483758427S06011247WA0160201729015056225000
B1754523758480S06011185WA0161101719015052180000
B1754563758472S06011119WA0162401710015048165000
B1755003758424S06011118WA0163801711015044150000
B1755043758415S06011193WA0165101721015044150000
B1755083758486S06011237WA0166401724015044120000
B1755123758553S06011185WA0168001730015040120000
B1755163758546S06011104WA0169001736015044120000
B1755203758494S06011087WA0170201751015044120000
B1755243758471S06011153WA0172001748015040090000
B1755283758492S06011230WA0173501757015040090000
B1755323758571S06011252WA0174301760015040090000
B1755363758631S06011174WA0175701763015040090000
B1755403758609S06011098WA0176101769015044105000
B1755443758547S06011106WA0176301781015044105000
B1755483758533S06011187WA0178001791015044090000
B1755523758588S06011254WA0178501794015048090000
B1755563758671S06011257WA0179201802015044090000
B1756003758737S06011189WA0180401815000044075000
B1756043758744S06011094WA0181301821000044090000
B1756083758700S06011027WA0182001831000044105000
B1756123758636S06011022WA0182601841000044120000
B1756163758592S06011079WA0183401859015048120000
B1756203758609S06011165WA0183601870015060120000
B1756243758684S06011213WA0184201874015060105000
B1756283758767S06011179WA0184701878015056090000
B1756323758807S06011080WA0185701887015048075000
B1756363758793S06010983WA0186101893015048075000
B1756403758737S06010938WA0186801902015052090000
B1756443758676S06010968WA0187201909015052090000
B1756483758663S06011053WA0187101915015060075000
B1756523758727S06011131WA0187501919015060075000
B1756563758817S06011141WA0188601925015056075000
B1757003758888S06011083WA0190001934015048075000
B1757043758902S06010993WA0190401943015048075000
B1757083758836S06010914WA0190301945015052075000
B1757123758772S06010925WA0190501950015052090000
B1757163758748S06010998WA0191501958015052075000
B1757203758789S06011071WA0192001966015052075000
B1757243758869S06011118WA0192101965015052060000
B1757283758962S06011110WA0193001970015048060000
B1757323759010S06011020WA0194501974015052060000
B1757363759004S06010923WA0194501972015048060000
B1757403758949S06010859WA0194101969015048060000
B1757443758880S06010866WA0193801966015044060000
B1757483758833S06010925WA0194401968015048060000
B1757523758824S06011011WA0194701970015048060000
B1757563758858S06011089WA0194801972015056060000
B1758003758927S06011159WA0193901969015060060000
B1758043759023S06011213WA0194601971015056060000
B1758083759103S06011179WA0196501979015048060000
B1758123759152S06011114WA0197101985015048060000
B1758163759144S06011015WA0196201986015048060000
B1758203759087S06010922WA0196101987015048060000
B1758243759013S06010875WA0196001987015048060000
B1758283758939S06010880WA0195701985015052060000
B1758323758905S06010967WA0196401989015056060000
B1758363758918S06011061WA0197001991015056060000
B1758403758979S06011127WA0196501994015056060000
B1758443759060S06011150WA0196201993015056060000
B1758483759153S06011152WA0196801995015056060000
B1758523759230S06011106WA0197401998015052060000
B1758563759265S06011011WA0197902003015048060000
B1759003759248S06010918WA0197602003015044060000
B1759043759199S06010857WA0197401999015048060000
B1759083759136S06010816WA0197401998015052075000
B1759123759066S06010801WA0196801997015052075000
B1759163758991S06010808WA0195901994015056060000
B1759203758958S06010879WA0196601993015056060000
B1759243758969S06010966WA0195901989015056060000
B1759283759038S06011027WA0195601989015052060000
B1759323759121S06011028WA0195501989015048060000
B1759363759207S06011002WA0195001984015048075000
B1759403759292S06010966WA0195401984015052075000
B1759443759337S06010877WA0196001986015048075000
B1759483759334S06010777WA0196401985015048075000
B1759523759300S06010690WA0196201981015052075000
B1759563759244S06010624WA0196301984015048060000
B1800003759170S06010598WA0195401979015048060000
B1800043759108S06010634WA0194701976015048060000
B1800083759051S06010672WA0194401974015052060000
B1800123759017S06010742WA0193501971015052060000
B1800163759013S06010811WA0192301966015052060000
B1800203759061S06010890WA0191101957015056060000
B1800243759147S06010938WA0190801956015052060000
B1800283759226S06010977WA0190201953015052060000
B1800323759300S06011023WA0190201955015048060000
B1800363759366S06011063WA0190501958015060060000
B1800403759434S06011088WA0190401958015060060000
B1800443759525S06011091WA0189601956015056060000
B1800483759608S06011053WA0190401956015052060000
B1800523759630S06010964WA0191101957015052060000
B1800563759610S06010876WA0191401955015056060000
B1801003759551S06010837WA0191601957015056060000
B1801043759502S06010892WA0191501957015052060000
B1801083759496S06010981WA0191501958015052060000
B1801123759532S06011063WA0191201959015060060000
B1801163759606S06011115WA0191201960015052060000
B1801203759694S06011104WA0191601964015048060000
B1801243759758S06011039WA0191601962015044060000
B1801283759779S06010937WA0190601958015052060000
B1801323759764S06010849WA0190201953015048060000
B1801363759716S06010771WA0190301951015048060000
B1801403759658S06010716WA0190201950015048060000
B1801443759590S06010689WA0189301943015052060000
B1801483759517S06010682WA0189201940015052060000
B1801523759459S06010717WA0189301940015052060000
B1801563759429S06010788WA0189401943015052060000
B1802003759439S06010868WA0189001941015052060000
B1802043759476S06010927WA0187801937015056060000
B1802083759550S06010974WA0186201930015052060000
B1802123759645S06010984WA0185701927015048060000
B1802163759729S06010946WA0185301926015052060000
B1802203759807S06010889WA0184901925015048060000
B1802243759867S06010819WA0185201925015048060000
B1802283759905S06010727WA0184801925015048060000
B1802323759915S06010637WA0184701924015048075000
B1802363759892S06010548WA0185201925015048075000
B1802403759842S06010473WA0185601924015048060000
B1802443759768S06010437WA0184801918015052060000
B1802483759693S06010437WA0184001913015056075000
B1802523759621S06010441WA0183501912015052075000
B1802563759551S06010447WA0183501912015048075000
B1803003759485S06010467WA0182801906015048075000
B1803043759415S06010485WA0181301901015048075000
B1803083759346S06010511WA0179501892015056075000
B1803123759282S06010545WA0178601886015060090000
B1803163759225S06010589WA0178201881015056090000
B1803203759165S06010629WA0177601877015048090000
B1803243759104S06010667WA0177101875015044090000
B1803283759040S06010697WA0176701873015036105000
B1803323758975S06010724WA0176301871015040105000
B1803363758913S06010764WA0176401869015036105000
B1803403758852S06010808WA0176001865015040105000
B1803443758792S06010851WA0175701863015044105000
B1803483758733S06010897WA0175401860015044105000
B1803523758679S06010948WA0175101858015044105000
B1803563758625S06011000WA0174601856015044105000
B1804003758573S06011057WA0173801852015040105000
B1804043758527S06011122WA0173201846015040105000
B1804083758485S06011193WA0172701841015036105000
B1804123758445S06011262WA0172401839015036105000
B1804163758401S06011326WA0171701837015032120000
B1804203758351S06011378WA0171201835015032120000
B1804243758294S06011418WA0171001833015040120000
B1804283758238S06011455WA0171101831015044120000
B1804323758189S06011492WA0171801835015044120000
B1804363758134S06011525WA0171901836015040120000
B1804403758081S06011564WA0170901831015040120000
B1804443758030S06011611WA0170301826015040120000
B1804483757990S06011670WA0169801822015040120000
B1804523757959S06011744WA0170001821015048120000
B1804563757923S06011813WA0170501822015056120000
B1805003757897S06011898WA0170201812015056105000
B1805043757875S06011975WA0169301810015044105000
B1805083757861S06012056WA0168201806030040105000
B1805123757852S06012144WA0167701801030036105000
B1805163757844S06012235WA0166501796030036105000
B1805203757836S06012332WA0165901790030040105000
B1805243757826S06012427WA0164801786030044105000
B1805283757817S06012527WA0164101782030044120000
B1805323757805S06012625WA0164001782030044120000
B1805363757790S06012714WA0163801783030044120000
B1805403757773S06012805WA0163701782030040120000
B1805443757756S06012898WA0163401779030044120000
B1805483757741S06012989WA0163601781030044120000
B1805523757723S06013073WA0163401781030048120000
B1805563757702S06013158WA0162701777030040120000
B1806003757678S06013241WA0162101771030048120000
B1806043757650S06013323WA0162301767030044120000
B1806083757628S06013406WA0162201762030052120000
B1806123757604S06013486WA0162301760030060105000
B1806163757580S06013563WA0161701753030056105000
B1806203757561S06013629WA0161701745030060105000
B1806243757565S06013713WA0162701745030056105000
B1806283757580S06013805WA0162601744030052105000
B1806323757609S06013900WA0163001746030048105000
B1806363757658S06013988WA0163701745015048105000
B1806403757741S06014038WA0164701740015044090000
B1806443757817S06014012WA0165601735015040075000
B1806483757869S06013934WA0165301729015048075000
B1806523757888S06013865WA0165801724015044075000
B1806563757826S06013821WA0166501722015048060000
B1807003757766S06013860WA0167301724015048060000
B1807043757736S06013934WA0168101728015044060000
B1807083757736S06014018WA0168801731015044060000
B1807123757751S06014107WA0169001732015044060000
B1807163757769S06014191WA0168901732015048060000
B1807203757787S06014274WA0168801731015052060000
B1807243757812S06014355WA0168701730015056060000
B1807283757843S06014433WA0168801730015052060000
B1807323757881S06014510WA0168701729015048045000
B1807363757936S06014563WA0168701732015048045000
B1807403758014S06014550WA0168801733015044045000
B1807443758078S06014493WA0169301732015044045000
B1807483758076S06014389WA0169801729015044060000
B1807523758039S06014315WA0171101738015048045000
B1807563757985S06014302WA0172301749015044045000
B1808003757949S06014356WA0172801755015044045000
B1808043757972S06014439WA0173301759015052045000
B1808083758055S06014420WA0173601764015048060000
B1808123758087S06014337WA0174401774015048060000
B1808163758057S06014255WA0175601784015044060000
B1808203758009S06014300WA0176701786015040060000
B1808243758017S06014383WA0177701798015040060000
B1808283758073S06014420WA0178001795015044045000
B1808323758147S06014395WA0178301794015048045000
B1808363758191S06014330WA0180301804015044045000
B1808403758143S06014295WA0180901808015044060000
B1808443758102S06014343WA0181501818015048060000
B1808483758107S06014411WA0182801828015048060000
B1808523758150S06014422WA0183701831015048060000
B1808563758208S06014372WA0184201826015048060000
B1809003758220S06014291WA0184701818015048075000
B1809043758169S06014268WA0184901822015052090000
B1809083758133S06014320WA0186401824015052090000
B1809123758129S06014376WA0187401828015048105000
B1809163758176S06014342WA0187501827015052090000
B1809203758228S06014257WA0187201823015052090000
B1809243758267S06014174WA0187401816015052090000
B1809283758221S06014153WA0188501815015056090000
B1809323758215S06014198WA0189901815015052090000
B1809363758228S06014270WA0190001814015056090000
B1809403758234S06014303WA0190201812015056090000
B1809443758302S06014242WA0191001807030056090000
B1809483758300S06014181WA0191401804030052105000
B1809523758242S06014211WA0192701815030060135000
B1809563758274S06014350WA0193301856030064210000
B1810003758312S06014404WA0193001875030072030000
B1810043758390S06014355WA0193201912030076075000
B1810083758412S06014243WA0192901931030068045000
B1810123758363S06014201WA0192801937030064180000
B1810163758324S06014259WA0193801947030060150000
B1810203758330S06014331WA0194401956030056135000
B1810243758415S06014326WA0194901961030056120000
B1810283758480S06014242WA0194201965030056105000
B1810323758484S06014133WA0192601963030060105000
B1810363758430S06014096WA0192401966030064090000
B1810403758376S06014123WA0193901974030060075000
B1810443758352S06014195WA0195201984015056075000
B1810483758358S06014248WA0194801985015064075000
B1810523758445S06014296WA0194601985015060075000
B1810563758536S06014277WA0194401983015064075000
B1811003758619S06014230WA0193101978015064075000
B1811043758618S06014139WA0191601972030060075000
B1811083758532S06014092WA0191201964030060075000
B1811123758458S06014117WA0191601965030060075000
B1811163758408S06014186WA0192201968030060060000
B1811203758394S06014264WA0192301971030056060000
B1811243758421S06014326WA0191801969030048060000
B1811283758501S06014381WA0191101965030048060000
B1811323758584S06014409WA0190601962030044060000
B1811363758663S06014454WA0190501962030048060000
B1811403758732S06014510WA0189901959030052060000
B1811443758805S06014564WA0189001953030056045000
B1811483758887S06014593WA0188601948015056045000
B1811523758973S06014577WA0188301947015052045000
B1811563759030S06014506WA0187601943015056045000
B1812003759073S06014422WA0186501936015052045000
B1812043759074S06014338WA0187201935015052060000
B1812083759022S06014268WA0188401941015052045000
B1812123758962S06014242WA0188701946015052045000
B1812163758911S06014307WA0188401949015048045000
B1812203758905S06014391WA0188101947015048045000
B1812243758930S06014478WA0187401942015048045000
B1812283758989S06014550WA0186901938015048045000
B1812323759073S06014545WA0186801938015048045000
B1812363759156S06014516WA0185701933015052045000
B1812403759208S06014435WA0184501925015048045000
B1812443759265S06014364WA0184701923015048045000
B1812483759327S06014296WA0185201924015052060000
B1812523759383S06014216WA0184601920015048060000
B1812563759429S06014129WA0184201915015048060000
B1813003759442S06014051WA0184701915015044060000
B1813043759399S06013974WA0186001922015044045000
B1813083759342S06013969WA0187101925015044045000
B1813123759311S06014029WA0188401930015040045000
B1813163759340S06014104WA0189401936015040045000
B1813203759413S06014116WA0190001934015048045000
B1813243759478S06014053WA0190001932015052045000
B1813283759499S06013984WA0190201930015052045000
B1813323759448S06013931WA0190701932015048045000
B1813363759386S06013925WA0191101936015048045000
B1813403759351S06013982WA0191601943015048030000
B1813443759344S06014034WA0192101947015052045000
B1813483759400S06014107WA0192101946015048045000
B1813523759483S06014117WA0192801947015052045000
B1813563759554S06014064WA0192801944015052045000
B1814003759607S06014006WA0192801941015056045000
B1814043759610S06013939WA0193101941015048045000
B1814083759548S06013873WA0193301948015048045000
B1814123759490S06013892WA0193501955015048045000
B1814163759477S06013965WA0193901965015052045000
B1814203759515S06014040WA0194201968015048045000
B1814243759585S06014071WA0194601972015052045000
B1814283759664S06014038WA0194401970015048045000
B1814323759732S06013979WA0194001967015044045000
B1814363759737S06013891WA0194101963015048045000
B1814403759698S06013813WA0194701968015048045000
B1814443759639S06013767WA0195101976015048045000
B1814483759580S06013766WA0194701977015052045000
B1814523759534S06013815WA0194401976015056045000
B1814563759511S06013888WA0194401977015056045000
B1815003759511S06013970WA0194601980015048045000
B1815043759542S06014048WA0194501982015048045000
B1815083759598S06014109WA0194501981015048045000
B1815123759678S06014100WA0194501985015048045000
B1815163759743S06014038WA0194301983015048045000
B1815203759788S06013954WA0193301980015048045000
B1815243759811S06013858WA0192301975015044045000
B1815283759824S06013766WA0192701974015048045000
B1815323759820S06013672WA0192801975015060045000
B1815363759797S06013580WA0192701977015060045000
B1815403759772S06013499WA0193301981015060045000
B1815443759725S06013445WA0193601989015052045000
B1815483759668S06013438WA0194301995015044045000
B1815523759632S06013484WA0194501998015044030000
B1815563759634S06013563WA0194201998015048030000
B1816003759689S06013631WA0194501997015056030000
B1816043759777S06013639WA0193601993015060030000
B1816083759867S06013603WA0193601989015060045000
B1816123759916S06013515WA0194001986015056045000
B1816163759894S06013392WA0194401989015052045000
B1816203759847S06013319WA0194401989015048045000
B1816243759780S06013340WA0194401990015048045000
B1816283759742S06013421WA0194501996015048045000
B1816323759751S06013496WA0194501999015048045000
E181636PEV
B1816363759806S06013562WA0194402000015048030000
B1816373759824S06013574WA0194201999015052030000
B1816383759842S06013584WA0194101998015068030000
B1816393759862S06013590WA0193901998015092030000
B1816403759880S06013594WA0193901997015092030000
B1816413759899S06013596WA0193801996015120030000
B1816423759919S06013590WA0193801997015120030000
B1816433759940S06013580WA0193801997015128045000
B1816443759962S06013568WA0193901998015128045000
B1816453759980S06013551WA0194001999015120045000
B1816463759998S06013535WA0194101999015116045000
B1816473800014S06013516WA0194001999015108045000
B1816483800028S06013497WA0193901998015104045000
B1816493800042S06013477WA0193801997015096045000
B1816503800053S06013457WA0193601996015092045000
B1816513800058S06013433WA0193701996015088045000
B1816523800055S06013405WA0193601995015080045000
B1816563800023S06013301WA0192901991015064045000
B1817003759967S06013246WA0192101987015060045000
B1817043759903S06013239WA0191901984015052045000
B1817083759854S06013272WA0192001982015052045000
B1817123759831S06013342WA0192001982015052030000
B1817163759851S06013431WA0191701980015056030000
B1817203759920S06013493WA0191401976015056030000
B1817243800005S06013520WA0191201973015052030000
B1817283800089S06013490WA0191501972015048045000
B1817323800150S06013406WA0191901972015048045000
B1817363800175S06013295WA0191101969015048045000
B1817403800170S06013184WA0190101964015048045000
B1817443800149S06013078WA0189301958015048045000
B1817483800122S06012969WA0188001951015052045000
B1817523800106S06012852WA0187001944015052030000
B1817563800114S06012726WA0185501935015052030000
B1818003800154S06012613WA0184501927015052030000
B1818043800201S06012501WA0184501924015056045000
B1818083800244S06012409WA0185101923015056045000
B1818123800279S06012319WA0185501925015056045000
B1818163800335S06012242WA0185901927015064045000
B1818203800409S06012190WA0185401926015060045000
B1818243800495S06012158WA0184801921015052045000
B1818283800582S06012128WA0184301917015048045000
B1818323800670S06012098WA0183501911015044060000
B1818363800761S06012080WA0182901904015044060000
B1818403800846S06012043WA0181701900015048060000
B1818443800924S06011985WA0180801894015044060000
B1818483800982S06011911WA0181201893015044045000
B1818523801008S06011817WA0181801896015048045000
B1818563801001S06011725WA0182401899015052045000
B1819003800969S06011650WA0182901904015052045000
B1819043800917S06011608WA0183501905015060045000
B1819083800860S06011622WA0183601904015056030000
B1819123800826S06011687WA0183701902015048030000
B1819163800837S06011778WA0183601899015052030000
B1819203800899S06011839WA0183801896015052030000
B1819243800985S06011841WA0184201895015048030000
B1819283801056S06011781WA0184601896015048030000
B1819323801086S06011709WA0184901893015048030000
B1819363801041S06011630WA0185401895015044030000
B1819403800982S06011596WA0185701900015048030000
B1819443800941S06011625WA0185501899015048030000
B1819483800925S06011721WA0184501898015056030000
B1819523800964S06011806WA0184001897015056030000
B1819563801037S06011861WA0183601895015060030000
B1820003801111S06011915WA0183301893015060030000
B1820043801177S06011986WA0183001890015056030000
B1820083801235S06012062WA0182401885015052030000
B1820123801292S06012136WA0181601879015048030000
B1820163801350S06012212WA0181601876015052030000
B1820203801410S06012292WA0181301872015052030000
B1820243801472S06012368WA0180901867015048030000
B1820283801537S06012440WA0180201860015044030000
B1820323801605S06012514WA0179001853015044030000
B1820363801673S06012591WA0178101845015044030000
B1820403801740S06012669WA0177301838015044030000
B1820443801809S06012744WA0176801832015040030000
B1820483801877S06012818WA0176401827015040030000
B1820523801946S06012892WA0176101822015040030000
B1820563802017S06012960WA0175901821015044030000
B1821003802091S06013012WA0177001828015048030000
B1821043802167S06013052WA0177601831015044030000
B1821083802249S06013085WA0177001830015040030000
B1821123802330S06013113WA0176301827015036030000
B1821163802411S06013146WA0176001824015040030000
B1821203802492S06013182WA0175301820015036045000
B1821243802574S06013223WA0174201814015036045000
B1821283802655S06013265WA0173401806015036045000
B1821323802737S06013307WA0172401799015036045000
B1821363802819S06013353WA0171701792015036060000
B1821403802904S06013398WA0171201788015036060000
B1821443802986S06013442WA0170901785015036060000
B1821483803068S06013483WA0170601781030036060000
B1821523803149S06013523WA0170301779030040075000
B1821563803230S06013562WA0170201778030036075000
B1822003803312S06013602WA0169801775030036075000
B1822043803387S06013645WA0168901765030036075000
B1822083803458S06013698WA0168201754030040060000
B1822123803525S06013759WA0167701745015036045000
B1822163803581S06013835WA0167101738015040045000
B1822203803617S06013926WA0166601731015044045000
B1822243803643S06014025WA0166001723015044030000
B1822283803669S06014126WA0165101714015048030000
B1822323803702S06014220WA0164001705015048030000
B1822363803746S06014305WA0163101696015048030000
B1822403803786S06014393WA0162001688015048030000
B1822443803810S06014490WA0161101682015044030000
B1822483803816S06014589WA0160501674015044030000
B1822523803807S06014685WA0159801668015044030000
B1822563803792S06014781WA0159501663015040030000
B1823003803775S06014879WA0158801656015040030000
B1823043803755S06014968WA0158401650015040030000
B1823083803728S06015054WA0157701643015040030000
B1823123803697S06015136WA0156901636015040030000
B1823163803663S06015217WA0156101627015040030000
B1823203803627S06015295WA0155401619015040030000
B1823243803607S06015382WA0155701621015040030000
B1823283803604S06015466WA0156001620015040030000
B1823323803614S06015553WA0155401615015036030000
B1823363803607S06015638WA0154501606015040030000
B1823403803588S06015724WA0153701598015048030000
B1823443803565S06015803WA0153901595015056030000
B1823483803562S06015891WA0154401600015052030000
B1823523803586S06015971WA0154701603015052030000
B1823563803632S06016041WA0154701603015052030000
B1824003803694S06016109WA0154601600015052015000
B1824043803772S06016145WA0155301606015052015000
B1824083803849S06016115WA0157001612015048030000
B1824123803898S06016044WA0157701617015048030000
B1824163803862S06015956WA0158401622015040030000
B1824203803819S06015915WA0158901631015044030000
B1824243803777S06015969WA0159001635015048030000
B1824283803788S06016079WA0159501637015044030000
B1824323803841S06016150WA0160901643015044030000
B1824363803922S06016138WA0161901646015048045000
B1824403804001S06016089WA0162500000015048000064
B1824443804017S06016010WA0163701653015044045000
B1824483803972S06015890WA0164201656015048045000
B1824523803927S06015825WA0164201661015052045000
B1824563803857S06015878WA0163901665015052045000
B1825003803819S06015956WA0163901667015052045000
B1825043803824S06016050WA0165401671030052045000
B1825083803859S06016142WA0167001684015048045000
B1825123803931S06016155WA0167501687015048045000
B1825163804002S06016107WA0168301687015056045000
B1825203804053S06016029WA0168201683015056045000
B1825243804069S06015936WA0168701682015056060000
B1825283804032S06015832WA0169801683015056060000
B1825323803997S06015759WA0170301686015052060000
B1825363803967S06015729WA0170401689015052060000
B1825403803928S06015782WA0170001688015052075000
B1825443803910S06015878WA0169901689015052075000
B1825483803932S06015977WA0170901692015052075000
B1825523803967S06016075WA0172601703015048075000
B1825563804028S06016086WA0173801709015044060000
B1826003804102S06016034WA0173701705015048075000
B1826043804165S06015962WA0174001704015052075000
B1826083804196S06015875WA0174901707015048075000
B1826123804150S06015785WA0176301716015048090000
B1826163804114S06015709WA0176601720030048075000
B1826203804065S06015708WA0176800000030048000064
B1826243804056S06015706WA0177001737030044075000
B1826283804039S06015774WA0176601741030048075000
B1826323804044S06015876WA0176601747030048075000
B1826363804071S06015988WA0177401758030048075000
B1826403804128S06016050WA0178601769015048075000
B1826443804208S06016023WA0179401780015048075000
B1826483804269S06015950WA0181001789015052075000
B1826523804305S06015871WA0181801797015048075000
B1826563804293S06015787WA0182601808015044075000
B1827003804258S06015690WA0182801825030048060000
B1827043804199S06015663WA0182401833030048060000
B1827083804132S06015722WA0182000000030052000064
B1827123804092S06015823WA0182001853015052045000
B1827163804101S06015930WA0182901865015048045000
B1827203804163S06015985WA0183801873015048045000
B1827243804238S06016001WA0185201882015048045000
B1827283804322S06015960WA0186101889015048045000
B1827323804386S06015889WA0187001901015048045000
B1827363804416S06015817WA0187801907015048045000
B1827403804371S06015711WA0188201917015052045000
B1827443804308S06015647WA0188401925015048030000
B1827483804235S06015628WA0188401929015048030000
B1827523804176S06015667WA0188401932015052030000
B1827563804153S06015743WA0188501933015052030000
B1828003804176S06015833WA0189501939015048030000
B1828043804232S06015885WA0190001947015048030000
B1828083804306S06015911WA0190501952015048030000
B1828123804386S06015889WA0191301956015044030000
B1828163804457S06015829WA0191901958015044030000
B1828203804513S06015768WA0192101961015044030000
B1828243804483S06015652WA0192201965015048030000
B1828283804430S06015565WA0192401972015048030000
B1828323804364S06015527WA0192401976015048030000
B1828363804293S06015529WA0191901974015044030000
B1828403804238S06015577WA0191601973015048030000
B1828443804214S06015654WA0191901976015048030000
B1828483804236S06015735WA0192001980015048030000
B1828523804292S06015797WA0192101979015052030000
B1828563804365S06015833WA0192801984015056030000
B1829003804444S06015834WA0194001989015052030000
B1829043804525S06015793WA0194201992015052030000
B1829083804574S06015737WA0194501994015044030000
B1829123804517S06015620WA0194702000015048030000
B1829163804453S06015563WA0195102008015044030000
B1829203804388S06015565WA0195302014015040030000
B1829243804331S06015602WA0195502016015040030000
B1829283804303S06015668WA0195002011015044030000
B1829323804322S06015756WA0194102008015044030000
B1829363804373S06015845WA0194402011015052030000
B1829403804439S06015891WA0195702018015052030000
B1829443804517S06015873WA0196902024015048030000
B1829483804587S06015808WA0196902022015048030000
B1829523804643S06015729WA0196902021015048030000
B1829563804677S06015652WA0197202022015048030000
B1830003804652S06015551WA0197302027015044030000
B1830043804602S06015477WA0197302031015040030000
B1830083804537S06015440WA0197402034015040030000
B1830123804472S06015443WA0197302033015040030000
B1830163804417S06015479WA0197202032015044030000
B1830203804378S06015538WA0197002030015044030000
B1830243804358S06015613WA0196302027015048030000
B1830283804368S06015700WA0196102026015052030000
B1830323804400S06015778WA0196302031015052030000
B1830363804442S06015847WA0196802033015052030000
B1830403804507S06015898WA0196402029015052015000
B1830443804582S06015919WA0196502028015044015000
B1830483804665S06015907WA0197102028015044030000
B1830523804742S06015867WA0197002029015048030000
B1830563804795S06015791WA0196802028015048030000
B1831003804821S06015712WA0196402026015044030000
B1831043804767S06015613WA0195702023015044030000
B1831083804696S06015572WA0195502023015044030000
B1831123804631S06015563WA0195502024015044030000
B1831163804576S06015587WA0196102028015044030000
B1831203804539S06015650WA0196102028015044030000
B1831243804539S06015737WA0196302030015044030000
B1831283804589S06015802WA0196802032015044030000
B1831323804665S06015819WA0196902031015048030000
B1831363804735S06015778WA0197502031015044030000
B1831403804790S06015700WA0197302029015044030000
B1831443804785S06015607WA0197302029015044030000
B1831483804739S06015514WA0197302032015044030000
B1831523804672S06015499WA0197502038015048030000
B1831563804617S06015530WA0197902040015048030000
B1832003804587S06015596WA0197902040015048030000
B1832043804599S06015680WA0197702038015048030000
B1832083804654S06015745WA0197002033015048030000
B1832123804734S06015737WA0197002030015052030000
B1832163804808S06015695WA0197302029015056030000
B1832203804823S06015595WA0198102035015052030000
B1832243804776S06015478WA0198202041015048030000
B1832283804711S06015464WA0198302046015052030000
B1832323804660S06015503WA0198502047015048030000
B1832363804651S06015578WA0197902044015044030000
B1832403804690S06015652WA0197302040015040030000
B1832443804758S06015694WA0196602033015044030000
B1832483804838S06015659WA0196402030015048030000
B1832523804901S06015594WA0196602030015048030000
B1832563804904S06015498WA0196902034015052030000
B1833003804854S06015381WA0196602036015052030000
B1833043804800S06015362WA0196102039015056030000
B1833083804739S06015435WA0196002040015052030000
B1833123804733S06015517WA0195702038015048030000
B1833163804778S06015587WA0195302034015044030000
B1833203804854S06015613WA0194802029015048030000
B1833243804928S06015573WA0194402026015044030000
B1833283804979S06015490WA0194102022015048030000
B1833323804995S06015384WA0193602016015048030000
B1833363805018S06015275WA0192702008015052030000
B1833403805062S06015169WA0191402001015052030000
B1833443805114S06015072WA0190801995015044030000
B1833483805166S06014968WA0190201989015044030000
B1833523805216S06014863WA0188601980015040030000
B1833563805266S06014758WA0188001976015040030000
B1834003805309S06014654WA0187501973015044030000
B1834043805337S06014547WA0187501974015044045000
B1834083805356S06014439WA0187201973015040045000
B1834123805363S06014326WA0187001967015044030000
B1834163805372S06014214WA0186501960015044030000
B1834203805389S06014104WA0185901953015040030000
B1834243805408S06013991WA0185501947015040030000
B1834283805427S06013876WA0185001941015040030000
B1834323805445S06013759WA0184401934015040030000
B1834363805470S06013642WA0183501927015044030000
B1834403805496S06013524WA0182601920015044030000
B1834443805523S06013405WA0181801913015044030000
B1834483805554S06013284WA0181201907015044030000
B1834523805591S06013165WA0180301900015044030000
B1834563805629S06013043WA0179501893015044030000
B1835003805668S06012918WA0178501886015040030000
B1835043805708S06012799WA0177701879015048030000
B1835083805751S06012686WA0177301874015044030000
B1835123805787S06012566WA0177001871015048030000
B1835163805825S06012449WA0176301864015044030000
B1835203805860S06012318WA0175001859015040030000
B1835243805899S06012190WA0173001845015040030000
B1835283805938S06012056WA0171501829015044045000
B1835323805974S06011915WA0170001817015044045000
B1835363806009S06011774WA0168901805015044045000
B1835403806009S06011774WV0167300000000048000128
B1835443806009S06011774WV0166200000000052000128
B1835483806009S06011774WV0165500000000056000128
B1835523806227S06011317WA0165101747060052030000
B1835563806267S06011197WA0165201744060052180000
B1836003806307S06011074WA0165201743060052120000
B1836043806350S06010951WA0164701738060048105000
B1836083806394S06010829WA0163601733060048105000
B1836123806438S06010707WA0162501728060052105000
B1836163806438S06010707WV0161300000000052000128
B1836203806438S06010707WV0160700000000068000128
B1836243806438S06010707WV0161300000000064000128
B1836283806669S06010261WA0160101669135068165000
B1836323806718S06010140WA0159401666105064150000
B1836363806757S06010009WA0158801663105060150000
B1836403806813S06009909WA0157101620090064150000
B1836443806866S06009793WA0155801609075060180000
B1836483806916S06009668WA0155001605075060045000
B1836523806966S06009549WA0154501602075056225000
B1836563807017S06009428WA0154301603075056150000
B1837003807072S06009310WA0154001602075056120000
B1837043807122S06009190WA0154601615075056120000
B1837083807861S06010702WA0154600000135060000064
B1837123807911S06010595WA0154000000135056000064
B1837163807949S06010517WV0153200000000052000128
B1837203807949S06010517WV0152500000000052000128
B1837243807949S06010517WV0151700000000052000128
B1837283807355S06008545WA0151401410120056210000
B1837323807424S06008364WA0151001527060052090000
B1837363807484S06008231WA0150401553030060045000
B1837403807543S06008114WA0149601555030060180000
B1837443807601S06008003WA0148901551030060105000
B1837483807655S06007891WA0148301545030060090000
B1837523807709S06007778WA0147401538030060075000
B1837563807761S06007668WA0146701533030056060000
B1838003807810S06007562WA0146801535030056060000
B1838043807855S06007462WA0146701537030048060000
B1838083807893S06007345WA0145201531030048045000
B1838123807923S06007214WA0143801521015048045000
B1838163807956S06007101WA0143001517015056030000
B1838203807979S06006973WA0142301510015056030000
B1838243808002S06006847WA0141001501015056030000
B1838283808035S06006721WA0139501493015060045000
B1838323808082S06006595WA0139401506015064060000
B1838363808135S06006483WA0140101511015064060000
B1838403808167S06006359WA0140201517015064060000
B1838443808184S06006227WA0139501517015056060000
B1838483808199S06006096WA0139501517030056075000
B1838523808214S06005966WA0139801519030056075000
B1838563808229S06005826WA0139401519030052075000
B1839003808251S06005694WA0138401515030052075000
B1839043808275S06005560WA0137501505030056090000
B1839083808307S06005433WA0136101493030056105000
B1839123808338S06005304WA0134701473030060120000
B1839163808373S06005178WA0133001461030060135000
B1839203808409S06005055WA0132001448030060150000
B1839243808452S06004938WA0130901433030056165000
B1839283808496S06004823WA0129801423030052150000
B1839323808539S06004695WA0128801420030048150000
B1839363808590S06004572WA0127801409030052150000
B1839403808641S06004459WA0126301394030052165000
B1839443808682S06004336WA0125101387030056165000
B1839483808720S06004212WA0124301384030056165000
B1839523808760S06004091WA0124201383030056165000
B1839563808793S06003959WA0123801383030056165000
B1840003808829S06003835WA0123501379030056165000
B1840043808867S06003716WA0123101376030060180000
B1840083808895S06003591WA0123201377045060180000
B1840123808915S06003456WA0123601378045056180000
B1840163808937S06003320WA0122401371045052180000
B1840203808970S06003197WA0120501351045052195000
B1840243809005S06003068WA0118601330045056195000
B1840283809038S06002934WA0116801314045056210000
B1840323809077S06002807WA0115501301045056210000
B1840363809120S06002682WA0114501284045056225000
B1840403809162S06002560WA0113201270045060225000
B1840443809201S06002440WA0112701260045060225000
B1840483809245S06002322WA0111601242045060225000
B1840523809288S06002208WA0111401242045064225000
B1840563809331S06002097WA0111801241045064225000
B1841003809379S06001978WA0111801243045064225000
B1841043809428S06001863WA0111801245045064225000
B1841083809477S06001746WA0111401243045056225000
B1841123809522S06001627WA0110501238045060225000
B1841163809565S06001500WA0109201234045064225000
B1841203809617S06001389WA0108401229045064225000
B1841243809672S06001286WA0108801229045064225000
B1841283809722S06001182WA0109101228045064225000
B1841323809776S06001077WA0109001227045068225000
B1841363809830S06000966WA0108201224045064225000
B1841403809889S06000858WA0106801217060060225000
B1841443809945S06000753WA0106001213060056225000
B1841483809998S06000640WA0105501213060052225000
B1841523810056S06000533WA0104501208060056225000
B1841563810108S06000425WA0103701206060056225000
B1842003810158S06000316WA0103301205060056225000
B1842043810210S06000213WA0102201200060060225000
B1842083810247S06000100WA0101101196060056225000
B1842123810303S06000026WA0100801193060060225000
B1842163810337S05959931WA0102201199060068225000
B1842203810377S05959856WA0104101202060060225000
B1842243810431S05959777WA0104501203060056225000
B1842283810494S05959710WA0104701201060056225000
B1842323810579S05959678WA0104701196045056225000
B1842363810645S05959612WA0105500000045052000064
B1842403810712S05959541WA0105901203045052225000
B1842443810791S05959475WA0106201203045044225000
B1842483810866S05959413WA0105501206045048000000
B1842523810933S05959349WA0106301217045048045000
B1842563810999S05959280WA0106101203045044105000
B1843003811083S05959218WA0104701184045052225000
B1843043811177S05959146WA0102501201045060195000
B1843083811260S05959069WA0101101203030064180000
B1843123811343S05958990WA0099701196030072195000
B1843163811423S05958908WA0099001195045068090000
B1843203811507S05958826WA0098201196045064075000
B1843243811598S05958750WA0096801193045056090000
B1843283811681S05958661WA0095601192045052165000
B1843323811770S05958577WA0094301182045048210000
B1843363811879S05958730WA0092900912090052045000
B1843403811973S05958673WA0092400906090048045000
B1843443812061S05958536WA0091801041105048165000
B1843483812165S05958538WA0091000000105048000064
B1843523812265S05958557WA0090101019105048105000
B1843563812355S05958592WA0090800978045048225000
B1844003812444S05958588WA0092400983045052225000
B1844043812533S05958562WA0094100997045052225000
B1844083812551S05958460WA0095500000045052000064
B1844123812494S05958400WA0097100000045048000064
B1844163812463S05958392WA0098200000045048000064
B1844203812515S05958539WA0099201061045044015000
B1844243812590S05958507WA0099300000045048000064
B1844283812568S05958435WA0100101033030048225000
B1844323812524S05958425WA0101500000015044000064
B1844363812509S05958491WA0102301052030044225000
B1844403812556S05958546WA0103600000030044000064
B1844443812615S05958514WA0104101050030044210000
B1844483812621S05958442WA0104801052030044210000
B1844523812576S05958416WA0106201066030044015000
B1844563812558S05958408WA0107801082030044015000
B1845003812604S05958551WA0108801075030040030000
B1845043812678S05958514WA0109100000030048000064
B1845083812665S05958447WA0110301062030044030000
B1845123812629S05958449WA0111301088030044195000
B1845163812651S05958520WA0112100000030044000064
B1845203812724S05958531WA0112700000030044000064
B1845243812738S05958451WA0113901108030044165000
B1845283812693S05958416WA0115501110030044195000
B1845323812669S05958490WA0116301113030044030000
B1845363812723S05958542WA0117301117030048105000
B1845403812780S05958495WA0118701118030044045000
B1845443812754S05958429WA0119700000030044000064
B1845483812716S05958470WA0120601134030044165000
B1845523812755S05958530WA0121601135030044165000
B1845563812821S05958505WA0122601138030044195000
B1846003812832S05958403WA0123901202030040030000
B1846043812789S05958380WA0125201204030044030000
B1846083812767S05958451WA0126300000030044000064
B1846123812823S05958521WA0127400000030040000064
B1846163812888S05958500WA0128400000030048000064
B1846203812888S05958442WA0129401213030044090000
B1846243812849S05958405WA0131101226030044135000
B1846283812836S05958445WA0132001234030040225000
B1846323812855S05958542WA0132901231030040150000
B1846363812899S05958607WA0134401225030044120000
B1846403812946S05958663WA0135101217030044120000
B1846443813020S05958422WA0135001282045060135000
B1846483813044S05958313WA0135101314045064090000
B1846523813059S05958183WA0134901348045064180000
B1846563813078S05958057WA0134000000045060000064
B1847003813097S05957937WA0132701344045064120000
B1847043813111S05957811WA0131601342030064105000
B1847083813127S05957682WA0130801341030064105000
B1847123813145S05957554WA0130501340030068105000
B1847163813169S05957426WA0130301341030064120000
B1847203813197S05957301WA0129501340030064120000
B1847243813240S05957182WA0129201340030060075000
B1847283813297S05957070WA0128200000030064000064
B1847323813358S05956961WA0127800000030064000064
B1847363813423S05956854WA0127601336030060015000
B1847403813483S05956744WA0127101334030060015000
B1847443813542S05956629WA0126101332030060030000
B1847483813600S05956515WA0125001327030072030000
B1847523813640S05956384WA0125301328030072090000
B1847563813681S05956269WA0127201343030080090000
B1848003813721S05956156WA0127001346030076090000
B1848043813761S05956035WA0126800000030080000064
B1848083813808S05955909WA0125301348030080000000
B1848123813851S05955780WA0123901346030076015000
B1848163813893S05955652WA0123801346030076015000
B1848203813990S05955582WA0123301380045072105000
B1848243814102S05955699WA0122200000105068000064
B1848283814177S05955597WA0121301182105060000000
B1848323814262S05955530WA0120201154105056165000
B1848363814322S05955428WA0119401116105056120000
B1848403814396S05955342WA0118401080105052060000
B1848443814484S05955283WA0117701034105060045000
B1848483814548S05955175WA0116801009105076045000
B1848523814612S05955065WA0116100984105076045000
B1848563814612S05955065WV0116400000000076000128
B1849003814610S05954835WA0116600779120072060000
B1849043814688S05954639WA0116200000090072000064
B1849083814751S05954527WA0116100936090068090000
B1849123814833S05954427WA0115500952090064090000
B1849163814920S05954334WA0113900000090064000064
B1849203815007S05954249WA0112700000090076000064
B1849243815368S05954876WA0113600000165080000064
B1849283815446S05954796WA0113800000165072000064
B1849323815503S05954737WV0112200000000076000128
B1849363815503S05954737WV0111200000000076000128
B1849403815503S05954737WV0110700000000072000128
B1849443815503S05954737WV0111400000000076000128
B1849483815503S05954737WV0112600000000068000128
B1849523815247S05954696WA0113164443120064105000
B1849563815277S05954575WA0114264472105060030000
B1850003815345S05954518WA0116364469105052225000
B1850043815412S05954564WA0118064472105052120000
B1850083815393S05954646WA0118964478105048225000
B1850123815342S05954626WA0120364482105044135000
B1850163815337S05954548WA0121464491105040135000
B1850203815334S05954467WA0123164500105044135000
B1850243815333S05954406WV0124100000000048000128
B1850283815333S05954406WV0125100000000052000128
B1850323815333S05954406WV0126500000000052000128
B1850363815333S05954406WV0127300000000056000128
B1850403815333S05954406WV0128400000000060000128
B1850443815333S05954406WV0129800000000064000128
B1850483815333S05954406WV0130900000000056000128
B1850523815333S05954406WV0131600000000052000128
B1850553815333S05954406WV0133200000000052000128
B1851003815333S05954406WV0133900000000052000128
B1851043815333S05954406WV0134900000000052000128
B1851083815333S05954406WV0135900000000048000128
B1851123815333S05954406WV0137000000000048000128
B1851163815333S05954406WV0138400000000052000128
B1851203815333S05954406WV0139300000000048000128
B1851243815333S05954406WV0140500000000048000128
B1851283815333S05954406WV0141600000000048000128
B1851323815333S05954406WV0142500000000044000128
B1851363815333S05954406WV0143600000000044000128
B1851403815333S05954406WV0144700000000048000128
B1851443815333S05954406WV0145600000000052000128
B1851473815333S05954406WV0146500000000052000128
B1851513815333S05954406WV0147600000000048000128
B1851553815333S05954406WV0148500000000048000128
B1851593815333S05954406WV0149300000000048000128
B1852033815333S05954406WV0150300000000052000128
B1852073815333S05954406WV0150700000000056000128
B1852113815333S05954406WV0151600000000056000128
B1852153815333S05954406WV0153900000000052000128
B1852193815333S05954406WV0155500000000052000128
B1852233815333S05954406WV0156000000000052000128
B1852273815333S05954406WV0156000000000052000128
B1852313815333S05954406WV0157200000000068000128
B1852363815333S05954406WV0158500000000064000128
B1852403815333S05954406WV0160000000000056000128
B1852443815333S05954406WV0161500000000052000128
B1852483815333S05954406WV0161300000000052000128
B1852523815333S05954406WV0161100000000060000128
B1852563815333S05954406WV0162600000000056000128
B1853003815333S05954406WV0164000000000052000128
B1853043815333S05954406WV0165700000000048000128
B1853083815333S05954406WV0166700000000048000128
B1853123815333S05954406WV0166200000000048000128
B1853163815333S05954406WV0165900000000056000128
B1853203815333S05954406WV0166000000000052000128
B1853243815333S05954406WV0166100000000056000128
B1853283815333S05954406WV0165700000000056000128
B1853303815333S05954406WV0165600000000060000128
B1853323815333S05954406WV0165400000000056000128
B1853343815333S05954406WV0165300000000060000128
B1853363815333S05954406WV0165200000000060000128
B2359423815333S05954406WV0165500000000056000128
B2359443815333S05954406WV0165300000000056000128
B2359463815333S05954406WV0164800000000056000128
B2359483815333S05954406WV0164400000000064000128
B2359503815333S05954406WV0164400000000072000128
B2359523815333S05954406WV0164400000000068000128
B2359543815333S05954406WV0164300000000068000128
B2359563815333S05954406WV0163900000000064000128
B1853593815333S05954406WV0162600000000064000128
B1854033815333S05954406WV0161000000000060000128
B1854063815333S05954406WV0160100000000060000128
B1854103815333S05954406WV0159100000000068000128
B1854143815333S05954406WV0158800000000064000128
B1854183815333S05954406WV0158400000000060000128
B1854223815333S05954406WV0157700000000060000128
B1854263815333S05954406WV0157100000000056000128
B1854303815333S05954406WV0156800000000060000128
B1854343815333S05954406WV0155500000000060000128
B1854383815333S05954406WV0154400000000056000128
B1854423815333S05954406WV0153200000000056000128
B1854463815333S05954406WV0151900000000056000128
B1854513815333S05954406WV0150800000000072000128
B1854553817572S05950413WA0150601553015072135000
B1854593817625S05950297WA0149501542000064060000
B1855033817680S05950183WA0148601534000060225000
B1855073817741S05950073WA0148101525000060135000
B1855113817812S05949976WA0147401520000060090000
B1855153817897S05949908WA0147701523000060060000
B1855193817989S05949871WA0147401518000056045000
B1855233818088S05949846WA0146301505000056030000
B1855273818189S05949829WA0145201496000056030000
B1855313818291S05949816WA0144301487000064030000
B1855353818391S05949803WA0144601498000064015000
B1855393818484S05949790WA0145401506000060015000
B1855433818578S05949797WA0146201518000060015000
B1855473818668S05949793WA0148201541000060015000
B1855513818717S05949719WA0150401568000060015000
B1855553818695S05949646WA0153301594000060030000
B1855593818643S05949641WA0155101608000056030000
B1856033818612S05949704WA0156401621000048045000
B1856073818625S05949790WA0157601634000048045000
B1856113818688S05949845WA0159101654000044030000
B1856153818762S05949821WA0160301662000048030000
B1856193818791S05949738WA0161201679000052030000
B1856233818765S05949670WA0163501706000044030000
B1856273818713S05949677WA0165901727000048030000
B1856313818701S05949755WA0167801743000048030000
B1856353818760S05949811WA0169401760000044030000
B1856393818818S05949765WA0171201781000044030000
B1856433818807S05949696WA0173301800000044030000
B1856473818760S05949709WA0174901816000040030000
B1856513818768S05949786WA0176501833000040045000
B1856553818833S05949817WA0178001845000040030000
B1856593818885S05949765WA0179301860000040030000
B1857033818889S05949693WA0181001870000040030000
B1857073818843S05949664WA0181901882000040030000
B1857113818814S05949726WA0183401896000044030000
B1857153818852S05949799WA0184801913000044030000
B1857193818922S05949804WA0185701922000044030000
B1857233818980S05949747WA0186101921000044015000
B1857273819026S05949663WA0185601917000048015000
B1857313819078S05949572WA0185001909000060015000
B1857353819133S05949475WA0184601906000060015000
B1857393819184S05949379WA0185301921000064015000
B1857433819223S05949280WA0186601928000060015000
B1857473819266S05949180WA0187001933000056015000
B1857513819316S05949085WA0187101926000052015000
B1857553819376S05948994WA0186001915000052015000
B1857593819440S05948903WA0185901921000056015000
B1858033819498S05948814WA0186801927000056000000
B1858073819557S05948728WA0186301920000056000000
B1858113819619S05948642WA0185001903000052000000
B1858153819685S05948552WA0183601889000048000000
B1858193819750S05948456WA0182601879000052000000
B1858233819812S05948356WA0181901870000056000000
B1858273819869S05948253WA0181301863000060000000
B1858313819926S05948151WA0180201849000064000000
B1858353819984S05948045WA0178701836000056000000
B1858393820049S05947948WA0177601824000056000000
B1858433820125S05947861WA0176801816000056000000
B1858473820207S05947784WA0175901806000052000000
B1858513820290S05947707WA0174601794000048000000
B1858553820373S05947629WA0173201778000048000000
B1858593820456S05947546WA0171801764000048000000
B1859033820537S05947455WA0171001756000048000000
B1859073820608S05947356WA0170301758000056000000
B1859113820663S05947256WA0172201778000064000000
B1859153820710S05947158WA0173801789000068000000
B1859193820750S05947057WA0174501799000072000000
B1859233820781S05946960WA0176301821000064000000
B1859273820810S05946864WA0177501830000056000000
B1859313820840S05946768WA0177901832000056000000
B1859353820871S05946670WA0178001832000064000000
B1859393820905S05946571WA0178501841000060000000
B1859433820944S05946474WA0178601838000060000000
B1859473820982S05946374WA0178601839000056000000
B1859513821024S05946274WA0179001845000056000000
B1859553821075S05946188WA0179801851000056000000
B1859593821128S05946106WA0179601844000048000000
B1900033821183S05946023WA0178501836000048000000
B1900073821242S05945936WA0177801825000044000000
B1900113821301S05945848WA0177101820000048000000
B1900153821362S05945763WA0176801814000048000000
B1900193821425S05945673WA0175301800000048000000
B1900233821489S05945581WA0174101787000048000000
B1900273821552S05945494WA0174001787000048000000
B1900313821611S05945405WA0173701785000052000000
B1900353821665S05945322WA0174101793000052000000
B1900393821707S05945228WA0174601794000052000000
B1900433821726S05945122WA0174001782000052000000
B1900473821737S05945007WA0172801772000056000000
B1900513821750S05944889WA0172001767000060000000
B1900553821763S05944773WA0172001772000056000000
B1900593821782S05944660WA0172201757000064000000
B1901033821803S05944539WA0169901743000060000000
B1901073821829S05944415WA0168901736000060000000
B1901113821854S05944291WA0168201726000056000000
B1901153821877S05944165WA0167101713000060000000
B1901193821901S05944039WA0165501702000064000000
B1901233821925S05943914WA0165401704000060015000
B1901273821954S05943791WA0165301701000064015000
B1901313821986S05943664WA0164801695000064015000
B1901353822033S05943547WA0164701694000060015000
B1901393822094S05943443WA0164201687000056015000
B1901433822167S05943351WA0163501680000056000000
B1901473822245S05943271WA0164201692000060000000
B1901513822322S05943199WA0164901696000060015000
B1901553822395S05943126WA0165201706000060015000
B1901593822466S05943053WA0166301713000056000000
B1902033822534S05942978WA0167101730000052000000
B1902073822599S05942909WA0170101754000044000000
B1902113822664S05942844WA0170401751000044015000
B1902153822734S05942773WA0169701743000044015000
B1902193822807S05942699WA0169401740000048000000
B1902233822876S05942621WA0169401736000052000000
B1902273822946S05942536WA0167901721000052000000
B1902313823019S05942449WA0166801710000056000000
B1902353823094S05942362WA0165701698000056000000
B1902393823169S05942273WA0165301699000060000000
B1902433823241S05942190WA0165701707000064000000
B1902473823306S05942110WA0166501712000052000000
B1902513823368S05942032WA0166101706000052000000
B1902553823428S05941947WA0165501700000048000000
B1902593823491S05941861WA0164801692000048000000
B1903033823550S05941773WA0164201682000048000000
B1903073823613S05941681WA0162901671000048000000
B1903113823676S05941591WA0162501669000052000000
B1903153823739S05941506WA0162401668000052000000
B1903193823799S05941423WA0162201665000048000000
B1903233823855S05941335WA0161201655000048000000
B1903273823910S05941246WA0160601644000044000000
B1903313823966S05941152WA0159001629000044000000
B1903353824022S05941053WA0158401623000040000000
B1903393824077S05940954WA0157801615000044000000
B1903433824129S05940853WA0156501605000044000000
B1903473824174S05940749WA0155601594000048000000
B1903513824213S05940641WA0154301584000056000000
B1903553824242S05940530WA0153601575000064000000
B1903593824252S05940417WA0152201562000064000000
B1904033824246S05940303WA0151101552000064000000
B1904073824230S05940193WA0151101556000064000000
B1904113824217S05940083WA0150701547000056000000
B1904153824204S05939969WA0149701538000052000000
B1904193824195S05939852WA0149101532000048000000
B1904233824190S05939736WA0148601523000052000000
B1904273824177S05939618WA0147201509000048000000
B1904313824156S05939498WA0145801494000048000000
B1904353824122S05939382WA0144801484000052000000
B1904393824082S05939265WA0143301468000056000000
B1904433824038S05939148WA0142301461000056000000
B1904473823988S05939038WA0142101461000056000000
B1904513823939S05938930WA0141801454000056000000
B1904553823887S05938825WA0141201449000056000000
B1904593823832S05938723WA0141001449000060000000
B1905033823793S05938618WA0141601458000056000000
B1905073823769S05938514WA0141901458000048000000
B1905113823749S05938407WA0141601452000040000000
B1905153823732S05938301WA0141001446000048000000
B1905193823713S05938198WA0140501441000048000000
B1905233823687S05938103WA0140701448000052000000
B1905273823657S05938019WA0141601460000052000000
B1905313823617S05937948WA0141901455000052000000
B1905353823563S05937891WA0141301451000056000000
B1905393823507S05937840WA0141701457000056000000
B1905433823445S05937811WA0142001459000056000000
B1905473823380S05937837WA0142401466000056000000
B1905513823348S05937915WA0143701478000052015000
B1905553823355S05938003WA0145101493000048015000
B1905593823416S05938058WA0146401506000048015000
B1906033823491S05938038WA0146801507000048015000
B1906073823519S05937956WA0147801522000044030000
B1906113823479S05937911WA0149001533000044030000
B1906153823444S05937965WA0150201546000040045000
B1906193823483S05938035WA0151201558000040045000
B1906233823553S05938017WA0152501567000044045000
B1906273823561S05937939WA0153201574000040045000
B1906313823511S05937931WA0154101583000040045000
B1906353823510S05938006WA0155201595000036045000
B1906393823576S05938037WA0156001604000040045000
B1906433823631S05937980WA0157101612000040045000
B1906473823614S05937909WA0157901621000040045000
B1906513823565S05937925WA0158901629000044045000
B1906553823567S05938004WA0159401635000044060000
B1906593823634S05938038WA0160201645000044045000
B1907033823691S05937987WA0161301656000040045000
B1907073823678S05937921WA0162501666000040045000
B1907113823632S05937937WA0163101671000044045000
B1907153823637S05938016WA0163301675000040060000
B1907193823701S05938058WA0164101684000044045000
B1907233823761S05938013WA0164801689000044045000
B1907273823757S05937941WA0165401695000040045000
B1907313823708S05937926WA0165701698000048045000
B1907353823666S05937980WA0165901698000048045000
B1907393823649S05938063WA0166001703000044030000
B1907433823676S05938147WA0166901709000044030000
B1907473823749S05938173WA0167301713000044030000
B1907513823806S05938111WA0167501712000048030000
B1907553823830S05938019WA0166601701000052030000
B1907593823852S05937920WA0166401707000056030000
B1908033823890S05937831WA0167201715000052030000
B1908073823927S05937748WA0168201726000056015000
B1908113823965S05937665WA0168801730000052015000
B1908153823996S05937578WA0169001734000052015000
B1908193824024S05937487WA0169501734000056015000
B1908233824051S05937391WA0168601726000052015000
B1908273824085S05937293WA0168201715000052015000
B1908313824125S05937197WA0166801702000048015000
B1908353824173S05937101WA0165501689000052015000
B1908393824225S05937003WA0164001673000044015000
B1908433824281S05936907WA0162601659000048015000
B1908473824337S05936807WA0161101644000048015000
B1908513824395S05936703WA0160201637000044015000
B1908553824455S05936600WA0159501628000044015000
B1908593824512S05936496WA0158701621000048015000
B1909033824560S05936390WA0158301619000052015000
B1909073824603S05936282WA0158201616000052015000
B1909113824644S05936174WA0157601606000048015000
B1909153824683S05936062WA0156501597000052015000
B1909193824720S05935952WA0155701590000052015000
B1909233824762S05935840WA0154901582000048015000
B1909273824807S05935731WA0154501578000048015000
B1909313824852S05935623WA0154001574000048015000
B1909353824895S05935513WA0153201565000048015000
B1909393824936S05935402WA0152001551000052015000
B1909433824983S05935291WA0151201546000056015000
B1909473825043S05935194WA0151501551000060015000
B1909513825118S05935117WA0151901557000056015000
B1909553825210S05935090WA0152801566000060015000
B1909593825296S05935121WA0153801578000060015000
B1910033825356S05935194WA0154401579000072015000
B1910073825383S05935286WA0154601579000068015000
B1910113825376S05935382WA0153801569000064015000
B1910153825340S05935471WA0151901548000060015000
B1910193825285S05935547WA0150001530000064015000
B1910233825223S05935624WA0148801518000060015000
B1910273825162S05935702WA0148001512000056015000
B1910313825103S05935779WA0147301504000056015000
B1910353825041S05935853WA0146801502000056015000
B1910393824979S05935922WA0146301495000052000000
B1910433824915S05935991WA0145201480000048000000
B1910473824849S05936062WA0143501462000060000000
B1910513824781S05936137WA0142101450000060000000
B1910553824713S05936212WA0140901438000076000000
B1910593824646S05936288WA0139701426000076000000
B1911033824581S05936364WA0139001419000080000000
B1911073824521S05936446WA0138401410000072000000
B1911113824466S05936530WA0137301398000072000000
B1911153824410S05936617WA0136001383000064000000
B1911193824359S05936711WA0134401366000064000000
B1911233824315S05936811WA0133001354000068000000
B1911273824272S05936914WA0131601339000064000000
B1911313824228S05937014WA0130501329000064000000
B1911353824182S05937107WA0129401317000060000000
B1911393824135S05937201WA0128501309000064000000
B1911433824094S05937298WA0128001305000060000000
B1911473824051S05937393WA0128201317000064000000
B1911513824013S05937484WA0129701332000068000000
B1911553823978S05937571WA0130501334000060000000
B1911593823939S05937656WA0130901341000064000000
B1912033823905S05937746WA0131901349000064000000
B1912073823888S05937847WA0132601357000056000000
B1912113823909S05937948WA0133101367000060000000
B1912153823974S05937994WA0135401398000052000000
B1912193824038S05937964WA0136901401000052015000
B1912233824078S05937887WA0136501392000048000000
B1912273824095S05937791WA0136501398000052000000
B1912313824099S05937697WA0138301417000048000000
B1912353824070S05937625WA0139401432000048000000
B1912393824013S05937626WA0141001453000044015000
B1912433823991S05937694WA0143001472000040015000
B1912473824026S05937760WA0144401473000040030000
B1912513824096S05937764WA0144201476000044030000
B1912553824141S05937694WA0145101489000048030000
B1912593824137S05937610WA0146901500000040030000
B1913033824086S05937578WA0148601523000044030000
B1913073824042S05937618WA0150201535000052030000
B1913113824053S05937696WA0150901540000048045000
B1913153824116S05937735WA0151201545000052045000
B1913193824177S05937691WA0152201558000048030000
B1913233824185S05937605WA0153901576000048045000
B1913273824138S05937558WA0155201588000048045000
B1913313824089S05937599WA0156601603000048045000
B1913353824105S05937675WA0157701615000048045000
B1913393824170S05937697WA0158601623000048045000
B1913433824224S05937642WA0159701642000044030000
B1913473824212S05937564WA0161601661000040045000
B1913513824159S05937548WA0163201672000044045000
B1913553824125S05937604WA0164001678000044045000
B1913593824154S05937674WA0165101691000044045000
B1914033824220S05937674WA0165801698000048045000
B1914073824258S05937601WA0167101714000044045000
B1914113824229S05937535WA0169001732000048045000
B1914153824177S05937551WA0169901735000048045000
B1914193824174S05937626WA0170101739000048045000
B1914233824238S05937656WA0170701748000048030000
B1914273824289S05937591WA0171401759000044030000
B1914313824268S05937512WA0173201775000044045000
B1914353824215S05937536WA0174201780000048045000
B1914393824232S05937618WA0174001776000052045000
B1914433824306S05937630WA0174201788000052030000
B1914473824347S05937549WA0175201798000052045000
B1914513824299S05937499WA0176401813000056045000
B1914553824246S05937551WA0177501812000056045000
B1914593824229S05937645WA0176601804000056030000
B1915033824226S05937759WA0175501793000060030000
B1915073824225S05937877WA0174901787000064030000
B1915113824216S05937998WA0174101776000064030000
B1915153824206S05938120WA0172701760000064030000
B1915193824195S05938245WA0170801742000072015000
B1915233824187S05938370WA0169401729000072015000
B1915273824182S05938493WA0168301720000068015000
B1915313824185S05938617WA0167601714000064015000
B1915353824191S05938740WA0166501701000064015000
B1915393824206S05938860WA0164101685000068015000
B1915433824207S05938997WA0161901665000072015000
B1915473824202S05939134WA0161201661000072015000
B1915513824193S05939265WA0160701651000068015000
B1915553824176S05939394WA0159701637000064015000
B1915593824156S05939519WA0158401624000060015000
B1916033824134S05939641WA0157001610000060015000
B1916073824113S05939761WA0156101603000060015000
B1916113824095S05939878WA0155501597000056015000
B1916153824081S05939993WA0155101591000056015000
B1916193824070S05940105WA0154701588000056015000
B1916233824066S05940213WA0154101580000056015000
B1916273824070S05940320WA0153501576000060015000
B1916313824074S05940424WA0153601578000060000000
B1916353824078S05940525WA0153401571000072000000
B1916393824074S05940630WA0152501562000064000000
B1916433824059S05940737WA0152101561000064000000
B1916473824034S05940837WA0153001573000060000000
B1916513824014S05940938WA0153901581000060000000
B1916553824031S05941046WA0154901592000060000000
B1916593824070S05941149WA0155301592000060000000
B1917033824111S05941256WA0155201591000056000000
B1917073824141S05941370WA0155401594000060000000
B1917113824159S05941482WA0156101606000064000000
B1917153824174S05941594WA0156501604000060000000
B1917193824186S05941709WA0156001598000064000000
B1917233824199S05941829WA0155101585000064000000
B1917273824219S05941951WA0153601570000064000000
B1917313824239S05942073WA0152501562000060000000
B1917353824260S05942195WA0151501552000056000000
B1917393824277S05942319WA0150901547000056000000
B1917433824293S05942441WA0150401541000052000000
B1917473824307S05942563WA0150101536000052000000
B1917513824324S05942683WA0149701532000052000000
B1917553824342S05942803WA0148701519000056000000
B1917593824360S05942922WA0148001515000076000000
B1918033824377S05943037WA0147801516000068000000
B1918073824393S05943148WA0146901501000064000000
B1918113824410S05943264WA0145101479000060000000
B1918153824427S05943384WA0143101462000060000000
B1918193824447S05943505WA0141701447000056000000
B1918233824469S05943627WA0140301433000060000000
B1918273824489S05943749WA0139601426000056000000
B1918313824506S05943870WA0138801415000064000000
B1918353824521S05943991WA0137601401000068000000
B1918393824538S05944110WA0136301391000064000000
B1918433824545S05944227WA0135401384000060000000
B1918473824541S05944342WA0135201378000060000000
B1918513824531S05944454WA0133901368000056000000
B1918553824521S05944565WA0133301358000056000000
B1918593824515S05944678WA0132401351000052000000
B1919033824511S05944792WA0131901344000056000000
B1919073824508S05944906WA0130901338000060000000
B1919113824512S05945020WA0130601333000060000000
B1919153824518S05945135WA0129901322000068000000
B1919193824524S05945252WA0129001315000064000000
B1919233824532S05945367WA0128501312000060000000
B1919273824540S05945483WA0127601301000056000000
B1919313824549S05945599WA0126301286000056000000
B1919353824558S05945717WA0125101276000060000000
B1919393824559S05945833WA0124701271000060000000
B1919433824557S05945946WA0123901260000060000000
B1919473824550S05946060WA0122901250000060000000
B1919513824544S05946175WA0122201245000060000000
B1919553824537S05946283WA0122401250000060000000
B1919593824531S05946383WA0122901259000064000000
B1920033824511S05946469WA0123601267000068000000
B1920073824481S05946548WA0124601279000068000000
B1920113824449S05946625WA0125401281000060000000
B1920153824414S05946708WA0125201277000056000000
B1920193824373S05946795WA0124801277000056000000
B1920233824326S05946879WA0125301283000056000000
B1920273824278S05946963WA0125301279000056000000
B1920313824230S05947046WA0124701275000056000000
B1920353824186S05947133WA0125001276000056000000
B1920393824154S05947229WA0124101268000052000000
B1920433824130S05947333WA0124101269000052000000
B1920473824112S05947437WA0125001279000056000000
B1920513824095S05947537WA0125301280000052000000
B1920553824076S05947637WA0125201278000052000000
B1920593824051S05947735WA0125001273000056000000
B1921033824020S05947828WA0124101263000056000000
B1921073823983S05947918WA0123001254000048000000
B1921113823939S05948000WA0122401248000048000000
B1921153823891S05948078WA0121801242000044000000
B1921193823843S05948152WA0121601239000056000000
B1921233823793S05948226WA0120801230000052000000
B1921273823743S05948302WA0119801221000052000000
B1921313823687S05948374WA0119301216000052000000
B1921353823632S05948439WA0119301216000048000000
B1921393823572S05948495WA0118601205000048000000
B1921433823507S05948550WA0117001188000048000000
B1921473823440S05948606WA0115701176000052000000
B1921513823371S05948660WA0114901167000052000000
B1921553823305S05948716WA0114201160000052000000
B1921593823249S05948785WA0113401154000052000000
B1922033823202S05948861WA0112601143000060000000
B1922073823154S05948939WA0110901119000064000000
B1922113823101S05949019WA0108401094000064000000
B1922153823046S05949105WA0106701082000060000000
B1922193822990S05949191WA0106001078000068000000
B1922233822935S05949279WA0105601071000068000000
B1922273822881S05949369WA0104701060000064000000
B1922313822834S05949464WA0104301062000072000000
B1922353822794S05949565WA0104801068000076000000
B1922393822760S05949669WA0104001051000076000000
B1922433822725S05949776WA0102101035000072000000
B1922473822687S05949885WA0100401019000064000000
B1922513822648S05949989WA0099401012000064000000
B1922553822609S05950088WA0098901003000060000000
B1922593822571S05950185WA0097800990000064000000
B1923033822543S05950288WA0096900983000068000000
B1923073822523S05950393WA0096100978000068000000
B1923113822508S05950497WA0096300982000072000000
B1923153822490S05950590WA0096900985000068000000
B1923193822467S05950681WA0096700977000064000000
B1923233822441S05950773WA0095700968000064000000
B1923273822425S05950870WA0095800983000068000000
B1923313822413S05950963WA0097500991000064000000
B1923353822397S05951058WA0096800982000056000000
B1923393822376S05951158WA0096600978000056000000
B1923433822349S05951260WA0096100974000060000000
B1923473822315S05951362WA0096200979000068000000
B1923513822282S05951459WA0096200974000068000000
B1923553822240S05951555WA0095400966000068000000
B1923593822194S05951652WA0094700958000072000000
B1924033822152S05951750WA0094300961000076000000
B1924073822110S05951844WA0094500957000068000000
B1924113822066S05951936WA0093800945000068000000
B1924153822024S05952033WA0093000938000076000000
B1924193821986S05952130WA0092100925000080000000
B1924233821957S05952230WA0090800917000084000000
B1924273821929S05952329WA0090300913000080000000
B1924313821895S05952423WA0089800907000112000000
B1924353821843S05952503WA0088900889000096000000
B1924393821780S05952573WA0087300876000088000000
B1924433821711S05952640WA0085800860000080000000
B1924473821641S05952702WA0084800853000072000000
B1924513821570S05952757WA0084400848000072000000
B1924553821500S05952809WA0083400834000076000000
B1924593821431S05952862WA0081800819000076000000
B1925033821364S05952913WA0081100818000076000000
B1925073821297S05952963WA0081100818000076000000
B1925113821236S05953015WA0081500820000068000000
B1925153821182S05953073WA0081100814000060000000
B1925193821130S05953139WA0080100801000060000000
B1925233821084S05953214WA0078900789000052000000
B1925273821041S05953297WA0077700776000056000000
B1925313820996S05953381WA0077100772000056000000
B1925353820963S05953470WA0077500777000056000000
B1925393820979S05953569WA0078600797000056000000
B1925433821044S05953635WA0080500818000052000000
B1925473821127S05953635WA0082400832000056015000
B1925513821177S05953573WA0082400831000056015000
B1925553821154S05953516WA0082400831000048015000
B1925593821106S05953524WA0082000829000048030000
B1926033821062S05953572WA0081600827000048015000
B1926073821043S05953645WA0082400840000052015000
B1926113821110S05953700WA0084200859000052015000
B1926153821170S05953646WA0085900872000056030000
B1926193821161S05953572WA0086500879000052030000
B1926233821121S05953563WA0087600894000056030000
B1926273821108S05953625WA0088800900000052030000
B1926313821162S05953689WA0089700909000052030000
B1926353821230S05953642WA0091200926000052030000
B1926393821213S05953574WA0092300934000052045000
B1926433821178S05953616WA0093500946000056030000
B1926473821229S05953689WA0094600960000072030000
B1926513821303S05953647WA0096600981000068030000
B1926553821292S05953573WA0098000994000064030000
B1926593821252S05953593WA0099601013000060030000
B1927033821275S05953669WA0101101026000052030000
B1927073821361S05953694WA0102001036000056030000
B1927113821427S05953634WA0102801048000060030000
B1927153821409S05953572WA0104201065000056030000
B1927193821370S05953598WA0105301070000056030000
B1927233821399S05953680WA0105701075000056030000
B1927273821482S05953697WA0106401077000060030000
B1927313821530S05953621WA0106301079000064030000
B1927353821503S05953555WA0107001086000064030000
B1927393821451S05953552WA0107501092000064030000
B1927433821448S05953630WA0108501109000068030000
B1927473821518S05953674WA0109901115000068030000
B1927513821587S05953628WA0110201116000068030000
B1927553821591S05953544WA0110201118000068030000
B1927593821542S05953525WA0111201127000068030000
B1928033821509S05953577WA0111601130000064030000
B1928073821544S05953658WA0112101140000064030000
B1928113821624S05953671WA0113001145000064030000
B1928153821681S05953608WA0113201145000060030000
B1928193821674S05953533WA0113301151000060030000
B1928233821629S05953522WA0113901157000064030000
B1928273821590S05953564WA0114401160000064030000
B1928313821557S05953626WA0114701166000064015000
B1928353821525S05953697WA0115201176000060015000
B1928393821487S05953763WA0116601187000060015000
B1928433821486S05953846WA0117601204000068015000
B1928473821551S05953889WA0119601226000080015000
B1928513821607S05953841WA0121401237000072015000
B1928553821595S05953782WA0121801237000064015000
B1928593821550S05953788WA0121101229000064030000
B1929033821508S05953837WA0121201229000064015000
B1929073821500S05953911WA0121501239000060015000
B1929113821554S05953963WA0122801251000060015000
B1929153821625S05953945WA0123301255000056015000
B1929193821658S05953867WA0123801264000056015000
B1929233821633S05953798WA0124201260000060030000
B1929273821581S05953806WA0123801264000064030000
B1929313821563S05953875WA0124401271000060030000
B1929353821616S05953927WA0125201276000060030000
B1929393821676S05953875WA0125301277000064030000
B1929433821660S05953797WA0125301275000068030000
B1929473821607S05953806WA0125501282000064030000
B1929513821589S05953877WA0126101284000064030000
B1929553821622S05953950WA0126201284000064030000
B1929593821699S05953966WA0126301288000060030000
B1930033821764S05953916WA0127101295000064030000
B1930073821776S05953830WA0127801304000064030000
B1930113821736S05953777WA0128301309000064030000
B1930153821681S05953794WA0128401309000064030000
B1930193821643S05953859WA0128201302000064030000
B1930233821616S05953944WA0127301289000060015000
B1930273821591S05954040WA0126201277000056015000
B1930313821561S05954140WA0125401271000056015000
B1930353821533S05954241WA0124601259000052015000
B1930393821508S05954348WA0122801240000052015000
B1930433821485S05954456WA0121201225000052015000
B1930473821466S05954566WA0119501208000056015000
B1930513821460S05954681WA0118301196000056015000
B1930553821459S05954798WA0117001182000056015000
B1930593821465S05954920WA0116001168000056015000
B1931033821476S05955043WA0114701155000056015000
B1931073821490S05955167WA0113501144000056000000
B1931113821505S05955289WA0112501134000056000000
B1931153821520S05955410WA0111601126000056000000
B1931193821535S05955530WA0111201121000056000000
B1931233821550S05955647WA0110901124000056000000
B1931273821560S05955758WA0110801118000056000000
B1931313821577S05955869WA0110001111000056000000
B1931353821608S05955972WA0110101115000056000000
B1931393821643S05956070WA0109801108000052000000
B1931433821668S05956167WA0110101118000056000000
B1931473821678S05956263WA0110301115000052000000
B1931513821671S05956355WA0110901130000056000000
B1931553821651S05956432WA0112401148000056000000
B1931593821629S05956502WA0114101164000052000000
B1932033821594S05956558WA0115101169000048000000
B1932073821538S05956559WA0115801181000052000000
B1932113821515S05956486WA0116201182000052015000
B1932153821561S05956416WA0116501184000048015000
B1932193821635S05956425WA0116501179000044015000
B1932233821703S05956468WA0116801188000044015000
B1932273821759S05956525WA0118201204000048015000
B1932313821749S05956596WA0119501216000048015000
B1932353821698S05956609WA0119801220000048015000
B1932393821663S05956554WA0120801232000048015000
B1932433821684S05956477WA0122001242000044015000
B1932473821749S05956443WA0122701249000044015000
B1932513821812S05956481WA0123401259000052015000
B1932553821850S05956557WA0124001258000052015000
B1932593821862S05956650WA0123101245000060015000
B1933033821858S05956757WA0121701232000060015000
B1933073821846S05956870WA0120901221000064015000
B1933113821827S05956984WA0119301207000064015000
B1933153821802S05957100WA0118501200000064015000
B1933193821776S05957213WA0118201195000064015000
B1933233821746S05957325WA0117301184000068015000
B1933273821713S05957439WA0116301172000064000000
B1933313821681S05957554WA0115401166000064000000
B1933353821647S05957665WA0115001162000064000000
B1933393821615S05957777WA0114501157000064000000
B1933433821585S05957890WA0113601146000064000000
B1933473821557S05958005WA0112701138000060000000
B1933513821533S05958120WA0112001131000060000000
B1933553821507S05958232WA0111201123000064000000
B1933593821479S05958345WA0110201111000068000000
B1934033821450S05958457WA0109601106000068000000
B1934073821424S05958568WA0109301104000068000000
B1934113821404S05958676WA0109501112000068000000
B1934153821396S05958782WA0110501123000064000000
B1934193821399S05958885WA0111401132000064000000
B1934233821433S05958981WA0112101140000064000000
B1934273821509S05958990WA0114001167000056000000
B1934313821544S05958924WA0115301165000056015000
B1934353821512S05958865WA0114901164000052015000
B1934393821460S05958886WA0115701177000056030000
B1934433821455S05958965WA0116801184000052030000
B1934473821513S05959025WA0117101186000048030000
B1934513821587S05959003WA0117701194000048015000
B1934553821617S05958926WA0118101200000048030000
B1934593821595S05958859WA0118501209000048030000
B1935033821546S05958832WA0119501213000044015000
B1935073821496S05958860WA0120001217000048015000
B1935113821496S05958949WA0120501222000060015000
B1935153821557S05959011WA0121001228000056015000
B1935193821637S05958994WA0121601234000056015000
B1935233821665S05958913WA0122301244000056015000
B1935273821625S05958860WA0122901247000052030000
B1935313821565S05958867WA0123001247000056030000
B1935353821511S05958919WA0122901241000056015000
B1935393821472S05959006WA0122901245000056015000
B1935433821442S05959099WA0123101248000056015000
B1935473821414S05959192WA0122901243000060015000
B1935513821383S05959281WA0122701242000060015000
B1935553821351S05959365WA0122901244000060015000
B1935593821316S05959444WA0122801243000056015000
B1936033821283S05959527WA0122501238000056015000
B1936073821253S05959617WA0121601229000056000000
B1936113821219S05959708WA0121001224000056000000
B1936153821175S05959790WA0121101231000060000000
B1936193821121S05959853WA0122401245000056000000
B1936233821060S05959907WA0122801246000056000000
B1936273820996S05959960WA0122601241000056000000
B1936313820936S06000021WA0121501229000060000000
B1936353820887S06000095WA0120501217000064000000
B1936393820846S06000184WA0119201203000068000000
B1936433820811S06000277WA0117801186000068000000
B1936473820779S06000369WA0116501177000068000000
B1936513820751S06000459WA0115801174000068000000
B1936553820728S06000549WA0116101177000060000000
B1936593820705S06000639WA0115601169000052000000
B1937033820675S06000728WA0114601160000056000000
B1937073820636S06000813WA0114001154000056000000
B1937113820590S06000888WA0113801154000056000000
B1937153820540S06000956WA0113801149000056000000
B1937193820486S06001025WA0112601131000060000000
B1937233820428S06001096WA0110801118000060000000
B1937273820372S06001173WA0110201113000052000000
B1937313820319S06001255WA0109601104000060000000
B1937353820267S06001342WA0108301089000060000000
B1937393820215S06001432WA0107301085000060000000
B1937433820165S06001521WA0106901079000064000000
B1937473820118S06001615WA0106201072000076000000
B1937513820066S06001698WA0106601081000072000000
B1937553820007S06001764WA0107301090000068000000
B1937593819951S06001822WA0108901112000060000000
B1938033819905S06001888WA0109701108000052000000
B1938073819869S06001971WA0108901098000060000000
B1938113819843S06002070WA0108101090000056000000
B1938153819826S06002178WA0107401085000056000000
B1938193819814S06002287WA0107501087000064000000
B1938233819806S06002399WA0107401087000068000000
B1938273819799S06002514WA0107301085000072000000
B1938313819796S06002633WA0106601077000068000000
B1938353819791S06002755WA0105601066000068000000
B1938393819787S06002878WA0105101067000064000000
B1938433819784S06002997WA0105801072000064000000
B1938473819784S06003116WA0105701070000064000000
B1938513819786S06003233WA0105801074000068000000
B1938553819787S06003346WA0105801069000064000000
B1938593819787S06003460WA0104701057000060000000
B1939033819788S06003573WA0103801046000056000000
B1939073819792S06003690WA0102501033000052000000
B1939113819799S06003808WA0101501024000060000000
B1939153819810S06003925WA0101001018000064000000
B1939193819827S06004043WA0099901009000068000000
B1939233819856S06004159WA0099901010000068000000
B1939273819887S06004272WA0099501003000068000000
B1939313819919S06004381WA0099100999000072000000
B1939353819958S06004487WA0098100982000064000000
B1939393820008S06004592WA0096100962000064000000
B1939433820068S06004698WA0094300943000068000000
B1939473820129S06004806WA0093500942000068000000
B1939513820186S06004912WA0093100935000068000000
B1939553820243S06005014WA0092500929000064000000
B1939593820298S06005118WA0092100925000064000000
B1940033820350S06005222WA0091800922000068000000
B1940073820403S06005324WA0091600917000072000000
B1940113820456S06005426WA0090900911000064000000
B1940153820510S06005529WA0090000901000064000000
B1940193820560S06005636WA0089300896000064000000
B1940233820611S06005741WA0089200896000056000000
B1940273820662S06005842WA0089300899000056000000
B1940313820714S06005940WA0090000908000056000000
B1940353820774S06006028WA0091100917000068000000
B1940393820833S06006113WA0091400920000064000000
B1940433820885S06006201WA0091600925000060000000
B1940473820927S06006295WA0092300933000060000000
B1940513820949S06006391WA0093100943000056000000
B1940553820928S06006473WA0094100953000048000000
B1940593820872S06006490WA0094800960000048000000
B1941033820837S06006426WA0095100959000052000000
B1941073820857S06006335WA0094500953000052015000
B1941113820924S06006277WA0094500959000060015000
B1941153821009S06006278WA0095400965000056015000
B1941193821087S06006313WA0095500967000060015000
B1941233821115S06006398WA0096300981000064015000
B1941273821076S06006446WA0097800990000072015000
B1941313821032S06006408WA0098400993000068015000
B1941353821032S06006325WA0098500995000064015000
B1941393821070S06006242WA0098600995000060015000
B1941433821136S06006179WA0098800998000056015000
B1941473821219S06006167WA0099201009000060015000
B1941513821261S06006238WA0100801020000068015000
B1941553821239S06006303WA0101101021000060015000
B1941593821184S06006317WA0101201024000060015000
B1942033821141S06006270WA0101301034000060015000
B1942073821169S06006193WA0102601042000056015000
B1942113821244S06006170WA0103101046000056015000
B1942153821316S06006200WA0103201050000056015000
B1942193821339S06006278WA0103801056000056015000
B1942233821310S06006335WA0104301063000060015000
B1942273821257S06006336WA0104801064000060015000
B1942313821225S06006275WA0105101071000056015000
B1942353821248S06006193WA0106101077000056015000
B1942393821316S06006148WA0106301075000052015000
B1942433821394S06006171WA0106201077000060015000
B1942473821430S06006244WA0107101086000060015000
B1942513821416S06006316WA0107501088000064015000
B1942553821372S06006361WA0107501084000060015000
B1942593821317S06006401WA0107101083000056015000
B1943033821277S06006472WA0107101082000052015000
B1943073821264S06006568WA0107101083000052015000
B1943113821279S06006669WA0107201086000056015000
B1943153821317S06006763WA0107901095000060000000
B1943193821373S06006843WA0108301094000060000000
B1943233821424S06006927WA0108101089000052000000
B1943273821456S06007023WA0106601069000044000000
B1943313821473S06007133WA0104301046000052000000
B1943353821482S06007250WA0102501029000056000000
B1943393821487S06007373WA0100901013000060000000
B1943433821491S06007500WA0099501000000080000000
B1943473821495S06007627WA0098600990000076000000
B1943513821502S06007752WA0098100986000088000000
B1943553821511S06007876WA0097600978000084000000
B1943593821515S06007997WA0096400964000084000000
B1944033821512S06008119WA0094700945000076000000
B1944073821505S06008242WA0092900928000072000000
B1944113821495S06008364WA0091700916000068000000
B1944153821479S06008484WA0090000898000064000000
B1944193821465S06008606WA0088400881000076000000
B1944233821455S06008731WA0087000868000072000000
B1944273821452S06008857WA0086100861000068000000
B1944313821465S06008981WA0085800860000072000000
B1944353821487S06009099WA0085800858000064000000
B1944393821505S06009216WA0085200849000060000000
B1944433821526S06009334WA0083800834000076000000
B1944473821547S06009455WA0082700823000072000000
B1944513821569S06009579WA0081700810000068000000
B1944553821591S06009702WA0080400799000064000000
B1944593821611S06009826WA0079600792000060000000
B1945033821632S06009947WA0079100788000056000000
B1945073821650S06010065WA0079100788000056000000
B1945113821658S06010179WA0078600778000056000000
B1945153821659S06010294WA0078100778000056000000
B1945193821671S06010402WA0078500785000052000000
B1945233821699S06010495WA0080000806000056000000
B1945273821725S06010582WA0080900807000068000000
B1945313821736S06010671WA0080600802000064000000
