ACAM4IR
HFDTE110125
HFFXA050
HFPLTPILOT:DINO GHIONI             
HFGTYGLIDERTYPE:LS-4        
HFGIDGLIDERID:KC          
HFDTM100GPSDATUM:
HFRFWFIRMWAREVERSION:F2.6
HFRHWHARDWAREVERSION:300 Series Version 2
HFFTYFRTYPE:CAMBRIDGE AERO INSTRUMENTS, 302+
HFGPS:GARMIN,LVS-25,12,18000
HFPRSPRESSALTSENSOR:INTERSEMA, MS5534-AP, 20000
I033638FXA3941ENL4247REX
LCAMSBVER:5FWVER:F26300
C021223160536021223000102
C0000000N00000000WTAKEOFF     
C3526206S06253971WHARAS       
C3602217S06316383WLAS 3 MARIAS
C3600901S06241720WC.P.T.LAUQUE
C3530355S06259367W1-CLUB      
C0000000N00000000WLANDING     
B1717033802181S06008110WA0016800188000000000000
B1717053802181S06008110WA0016800188000000000000
B1717073802181S06008110WA0016900188000000000000
B1717093802181S06008110WA0016900188000000000000
B1717113802181S06008110WA0016900188000000000000
B1717133802181S06008110WA0016800188000000000000
B1717153802181S06008110WA0016800188000000000000
B1717173802181S06008110WA0016800188000000000000
B1717193802181S06008110WA0016900187000000000000
B1717213802181S06008110WA0016900187000000000000
B1717233802181S06008110WA0016800187000000000000
B1717253802181S06008110WA0016800187000000000000
B1717273802181S06008110WA0016800187000000000000
B1717293802181S06008110WA0016800187000000000000
B1717313802174S06008111WA0016800187000000000000
B1717363802154S06008114WA0016700187000000000000
B1717403802124S06008117WA0016600188000000000000
B1717443802083S06008120WA0016300187000000000000
B1717483802034S06008124WA0016300188000000000000
B1717523801976S06008128WA0016300189000000000000
B1717563801911S06008138WA0016300191000000000000
B1718003801842S06008143WA0016700201000000000000
B1718043801774S06008153WA0018000215000000000000
B1718083801705S06008167WA0019200223000000000000
B1718123801638S06008180WA0020100233000000000000
B1718163801567S06008198WA0021000242000000000000
B1718203801498S06008219WA0021600250000000000000
B1718243801430S06008238WA0022800262000000000000
B1718283801359S06008268WA0023400266000000000000
B1718323801293S06008318WA0024200277000000000000
B1718363801231S06008372WA0025500290000000000000
B1718403801173S06008433WA0026500302000000000000
B1718443801124S06008501WA0028200320000000000000
B1718483801082S06008576WA0029100328000000000000
B1718523801049S06008660WA0030000339000000000000
B1718563801021S06008747WA0031300354000000000000
B1719003800995S06008832WA0033000369000000000000
B1719043800972S06008921WA0034000380000000000000
B1719083800950S06009009WA0034900392000000000000
B1719123800930S06009104WA0035900400000000000000
B1719163800910S06009200WA0036600410000000000000
B1719203800890S06009295WA0038100428000000000000
B1719243800873S06009386WA0039700441000000000000
B1719283800847S06009476WA0040600448000000000000
B1719323800812S06009562WA0041900465000000000000
B1719363800770S06009638WA0043300487000000000000
B1719403800721S06009709WA0045300502000000000000
B1719443800663S06009762WA0046800518000000000000
B1719483800596S06009792WA0048300534000000000000
B1719523800527S06009800WA0049800553000000000000
B1719563800462S06009785WA0052300582000000000000
B1720003800399S06009765WA0054400590000000000000
B1720043800338S06009732WA0054800592000000000000
B1720083800286S06009681WA0055300599000000000000
B1720123800239S06009624WA0056100611000000000000
B1720163800191S06009568WA0057100618000000000000
B1720203800141S06009515WA0057400619000000000000
B1720243800093S06009456WA0057500618000000000000
B1720283800050S06009398WA0058100634000000000000
B1720323800007S06009339WA0059200644000000000000
B1720363759966S06009280WA0059900649000000000000
B1720403759929S06009215WA0060500652000000000000
B1720443759903S06009141WA0060900658000000000000
B1720483759883S06009063WA0061600665000000000000
B1720523759872S06008983WA0062300678000000000000
B1720563759864S06008904WA0063500687000000000000
B1721003759855S06008823WA0064300694000000000000
B1721043759845S06008743WA0065000704000000000000
B1721083759834S06008658WA0066500727000000000000
B1721123759828S06008575WA0069000754000000000000
B1721163759818S06008501WA0071300763000000000000
B1721203759777S06008450WA0071200754000000000000
B1721243759715S06008436WA0070000742000000000000
B1721283759651S06008428WA0069700748000000000000
B1721323759591S06008424WA0070300751000000000000
B1721363759533S06008429WA0070500754000000000000
B1721403759481S06008471WA0070700755000000000000
B1721443759448S06008537WA0071200762000000000000
B1721483759455S06008619WA0071200762000000000000
B1721523759509S06008665WA0071300764000000000000
B1721563759565S06008639WA0071600768000000000000
B1722003759577S06008567WA0072000775000000000000
B1722043759534S06008517WA0072300774000000000000
B1722083759470S06008531WA0072300775000000000000
B1722123759426S06008598WA0072700780000000000000
B1722163759435S06008680WA0072900788000000000000
B1722203759495S06008717WA0072800784000000000000
B1722243759555S06008695WA0072800789000000000000
B1722283759602S06008647WA0073400793000000000000
B1722323759589S06008579WA0073900794000000000000
B1722363759533S06008554WA0073700790000000000000
B1722403759478S06008601WA0073600793000000000000
B1722443759467S06008687WA0074200802000000000000
B1722483759513S06008743WA0074900802000000000000
B1722523759571S06008718WA0074800804000000000000
B1722563759574S06008648WA0075100809000000000000
B1723003759528S06008610WA0075300809000000000000
B1723043759465S06008619WA0075400811000000000000
B1723083759415S06008663WA0075900816000000000000
B1723123759418S06008741WA0075700813000000000000
B1723163759473S06008786WA0075200809000000000000
B1723203759532S06008804WA0075400815000000000000
B1723243759586S06008790WA0075800819000000000000
B1723283759597S06008726WA0076200819000000000000
B1723323759546S06008693WA0075800817000000000000
B1723363759491S06008743WA0075800816000000000000
B1723403759494S06008832WA0076000817000000000000
B1723443759550S06008875WA0076100819000000000000
B1723483759603S06008843WA0076500824000000000000
B1723523759632S06008783WA0076800829000000000000
B1723563759608S06008723WA0077400835000000000000
B1724003759547S06008727WA0077800836000000000000
B1724043759521S06008810WA0077800838000000000000
B1724083759572S06008866WA0078200839000000000000
B1724123759626S06008847WA0078100843000000000000
B1724163759638S06008777WA0078500853000000000000
B1724203759611S06008715WA0079500860000000000000
B1724243759548S06008706WA0079900862000000000000
B1724283759507S06008775WA0079800858000000000000
B1724323759528S06008862WA0079600857000000000000
B1724363759593S06008887WA0080000857000000000000
B1724403759642S06008849WA0079900864000000000000
B1724443759655S06008778WA0080900876000000000000
B1724483759625S06008717WA0082000883000000000000
B1724523759563S06008721WA0082200877000000000000
B1724563759532S06008800WA0081300863000000000000
B1725003759574S06008873WA0080200857000000000000
B1725043759639S06008873WA0080200875000000000000
B1725083759694S06008848WA0081500878000000000000
B1725123759708S06008775WA0082200887000000000000
B1725163759654S06008732WA0083200896000000000000
B1725203759599S06008775WA0084200898000000000000
B1725243759591S06008865WA0083400883000000000000
B1725283759652S06008916WA0083600903000000000000
B1725323759712S06008910WA0084700912000000000000
B1725363759721S06008838WA0086000925000000000000
B1725403759659S06008819WA0087100936000000000000
B1725443759626S06008894WA0087900939000000000000
B1725483759665S06008959WA0087900937000000000000
B1725523759723S06008940WA0088100950000000000000
B1725563759755S06008882WA0089700963000000000000
B1726003759723S06008822WA0090900967000000000000
B1726043759659S06008844WA0091200973000000000000
B1726083759650S06008927WA0091900979000000000000
B1726123759702S06008966WA0092100981000000000000
B1726163759742S06008917WA0092900995000000000000
B1726203759717S06008849WA0093500996000000000000
B1726243759652S06008857WA0094601013000000000000
B1726283759639S06008938WA0095301011000000000000
B1726323759690S06008982WA0095401021000000000000
B1726363759734S06008943WA0096701035000000000000
B1726403759723S06008874WA0097201036000000000000
B1726443759660S06008869WA0098001048000000000000
B1726483759632S06008943WA0098501045000000000000
B1726523759671S06009004WA0098401053000000000000
B1726563759727S06008982WA0099201064000000000000
B1727003759729S06008908WA0100401072000000000000
B1727043759671S06008878WA0101401084000000000000
B1727083759630S06008944WA0102201089000000000000
B1727123759662S06009016WA0102301095000000000000
B1727163759721S06009022WA0103201107000000000000
B1727203759746S06008956WA0104101113000000000000
B1727243759698S06008899WA0104701122000000000000
B1727283759632S06008914WA0105701125000000000000
B1727323759612S06008998WA0105801128000000000000
B1727363759651S06009065WA0105701126000000000000
B1727403759715S06009064WA0106101132000000000000
B1727443759738S06008998WA0107301149000000000000
B1727483759717S06008927WA0108701159000000000000
B1727523759664S06008887WA0109401160000000000000
B1727563759604S06008918WA0109101158000000000000
B1728003759595S06009004WA0108801154000000000000
B1728043759646S06009063WA0108101147000000000000
B1728083759711S06009048WA0108601158000000000000
B1728123759759S06008998WA0109601170000000000000
B1728163759779S06008925WA0110501179000000000000
B1728203759750S06008858WA0111101171000000000000
B1728243759685S06008853WA0110301168000000000000
B1728283759646S06008927WA0110001165000000000000
B1728323759669S06009016WA0109701162000000000000
B1728363759732S06009059WA0109701166000000000000
B1728403759790S06009051WA0110401171000000000000
B1728443759825S06008979WA0110701168000000000000
B1728483759810S06008899WA0110201159000000000000
B1728523759751S06008858WA0109301153000000000000
B1728563759682S06008851WA0108701146000000000000
B1729003759611S06008858WA0108201149000000000000
B1729043759542S06008871WA0108501152000000000000
B1729083759473S06008881WA0108601152000000000000
B1729123759407S06008878WA0109301162000000000000
B1729163759343S06008869WA0110101169000000000000
B1729203759281S06008857WA0110901175000000000000
B1729243759218S06008852WA0111401189000000000000
B1729283759166S06008899WA0112301188000000000000
B1729323759165S06008985WA0111601179000000000000
B1729363759220S06009035WA0110901179000000000000
B1729403759287S06009017WA0110801173000000000000
B1729443759339S06008962WA0110101168000000000000
B1729483759387S06008895WA0110201171000000000000
B1729523759428S06008822WA0110701174000000000000
B1729563759454S06008741WA0110701177000000000000
B1730003759439S06008660WA0111101179000000000000
B1730043759392S06008605WA0111101178000000000000
B1730083759334S06008575WA0110801170000000000000
B1730123759270S06008543WA0109701157000000000000
B1730163759204S06008509WA0108501143000000000000
B1730203759134S06008474WA0107101131000000000000
B1730243759061S06008439WA0106601128000000000000
B1730283758989S06008406WA0106101126000000000000
B1730323758919S06008372WA0106001123000000000000
B1730363758846S06008340WA0105501117000000000000
B1730403758774S06008307WA0104801113000000000000
B1730443758702S06008273WA0104701111000000000000
B1730483758632S06008238WA0104501107000000000000
B1730523758563S06008198WA0104001102000000000000
B1730563758494S06008159WA0103301096000000000000
B1731003758429S06008115WA0102801091000000000000
B1731043758367S06008065WA0102501083000000000000
B1731083758304S06008012WA0101601078000000000000
B1731123758243S06007959WA0101301074000000000000
B1731163758186S06007902WA0101001074000000000000
B1731203758129S06007843WA0100801068000000000000
B1731243758070S06007785WA0100501068000000000000
B1731283758014S06007726WA0100701073000000000000
B1731323757960S06007665WA0101401081000000000000
B1731363757903S06007620WA0103001102000000000000
B1731403757847S06007652WA0104701113000000000000
B1731443757848S06007734WA0105601121000000000000
B1731483757912S06007772WA0106301136000000000000
B1731523757974S06007722WA0107101134000000000000
B1731563757965S06007635WA0107401147000000000000
B1732003757910S06007600WA0108701156000000000000
B1732043757855S06007631WA0109001153000000000000
B1732083757816S06007700WA0108801156000000000000
B1732123757796S06007779WA0109701169000000000000
B1732163757831S06007850WA0110801180000000000000
B1732203757899S06007847WA0111401181000000000000
B1732243757942S06007782WA0111301179000000000000
B1732283757935S06007695WA0111401189000000000000
B1732323757896S06007626WA0112201195000000000000
B1732363757832S06007622WA0112901202000000000000
B1732403757803S06007698WA0113201201000000000000
B1732443757847S06007766WA0113601210000000000000
B1732483757918S06007751WA0114001212000000000000
B1732523757940S06007668WA0114501220000000000000
B1732563757887S06007614WA0115201224000000000000
B1733003757826S06007649WA0115301221000000000000
B1733043757819S06007737WA0115201229000000000000
B1733083757871S06007794WA0116001236000000000000
B1733123757942S06007800WA0116901249000000000000
B1733163757992S06007744WA0117901255000000000000
B1733203757966S06007666WA0118101256000000000000
B1733243757900S06007656WA0117801250000000000000
B1733283757852S06007720WA0117501249000000000000
B1733323757861S06007808WA0117701254000000000000
B1733363757917S06007868WA0118301267000000000000
B1733403757987S06007850WA0119801282000000000000
B1733443758009S06007773WA0120801286000000000000
B1733483757962S06007712WA0120801286000000000000
B1733523757901S06007740WA0121101290000000000000
B1733563757878S06007817WA0121401291000000000000
B1734003757914S06007894WA0121801299000000000000
B1734043757985S06007902WA0123101312000000000000
B1734083758031S06007838WA0123501315000000000000
B1734123758007S06007760WA0123701320000000000000
B1734163757944S06007753WA0124301321000000000000
B1734203757894S06007800WA0124401323000000000000
B1734243757860S06007869WA0124801326000000000000
B1734283757864S06007955WA0125401335000000000000
B1734323757913S06008015WA0126301345000000000000
B1734363757978S06007994WA0126801341000000000000
B1734403758007S06007916WA0126301340000000000000
B1734443757981S06007839WA0126601350000000000000
B1734483757921S06007820WA0127601355000000000000
B1734523757866S06007861WA0127801355000000000000
B1734563757844S06007946WA0128001360000000000000
B1735003757877S06008024WA0129001376000000000000
B1735043757946S06008036WA0129801374000000000000
B1735083757985S06007961WA0129501372000000000000
B1735123757946S06007882WA0129401374000000000000
B1735163757871S06007880WA0129601376000000000000
B1735203757809S06007937WA0129501379000000000000
B1735243757761S06008006WA0130501389000000000000
B1735283757732S06008089WA0131401395000000000000
B1735323757728S06008185WA0131101381000000000000
B1735363757758S06008281WA0129801365000000000000
B1735403757813S06008366WA0128501358000000000000
B1735443757874S06008439WA0128101353000000000000
B1735483757938S06008502WA0127901356000000000000
B1735523758001S06008563WA0128001357000000000000
B1735563758063S06008624WA0128501362000000000000
B1736003758121S06008684WA0129001364000000000000
B1736043758181S06008741WA0129501373000000000000
B1736083758252S06008754WA0130201380000000000000
B1736123758306S06008706WA0130301375000000000000
B1736163758312S06008627WA0130101374000000000000
B1736203758272S06008570WA0129701370000000000000
B1736243758213S06008571WA0130001377000000000000
B1736283758181S06008639WA0130401380000000000000
B1736323758191S06008723WA0130501381000000000000
B1736363758251S06008779WA0130701385000000000000
B1736403758319S06008756WA0131101388000000000000
B1736443758334S06008679WA0130801380000000000000
B1736483758297S06008623WA0129901376000000000000
B1736523758239S06008619WA0129801378000000000000
B1736563758196S06008673WA0130101380000000000000
B1737003758187S06008754WA0130101380000000000000
B1737043758195S06008840WA0130001372000000000000
B1737083758235S06008920WA0129901374000000000000
B1737123758302S06008969WA0129601370000000000000
B1737163758373S06008948WA0129501375000000000000
B1737203758421S06008891WA0130001377000000000000
B1737243758432S06008810WA0129901375000000000000
B1737283758397S06008748WA0129601370000000000000
B1737323758336S06008736WA0129001364000000000000
B1737363758276S06008774WA0128501360000000000000
B1737403758234S06008845WA0128201355000000000000
B1737443758203S06008930WA0127701352000000000000
B1737483758176S06009021WA0127301347000000000000
B1737523758163S06009116WA0127301351000000000000
B1737563758161S06009212WA0127401347000000000000
B1738003758167S06009310WA0127001342000000000000
B1738043758172S06009406WA0126401335000000000000
B1738083758176S06009503WA0125901332000000000000
B1738123758177S06009593WA0126201335000000000000
B1738163758182S06009677WA0126101328000000000000
B1738203758189S06009770WA0125001309000000000000
B1738243758199S06009866WA0123501302000000000000
B1738283758211S06009965WA0122501291000000000000
B1738323758216S06010062WA0122001291000000000000
B1738363758213S06010156WA0122401297000000000000
B1738403758196S06010244WA0123001305000000000000
B1738443758167S06010322WA0124301317000000000000
B1738483758137S06010396WA0125101323000000000000
B1738523758107S06010474WA0125001315000000000000
B1738563758076S06010556WA0124301306000000000000
B1739003758044S06010642WA0123301298000000000000
B1739043758018S06010733WA0122501292000000000000
B1739083757995S06010824WA0122001291000000000000
B1739123757975S06010909WA0122201290000000000000
B1739163757960S06011000WA0121501280000000000000
B1739203757944S06011093WA0120401270000000000000
B1739243757929S06011188WA0119701264000000000000
B1739283757910S06011284WA0119101259000000000000
B1739323757891S06011380WA0118701252000000000000
B1739363757870S06011479WA0118001246000000000000
B1739403757843S06011578WA0117301239000000000000
B1739443757799S06011665WA0116901240000000000000
B1739483757745S06011737WA0117001240000000000000
B1739523757691S06011800WA0117401245000000000000
B1739563757637S06011856WA0118401260000000000000
B1740003757606S06011930WA0119501265000000000000
B1740043757624S06012019WA0119901267000000000000
B1740083757660S06012097WA0120101267000000000000
B1740123757710S06012158WA0120501279000000000000
B1740163757778S06012160WA0121201283000000000000
B1740203757810S06012099WA0121601287000000000000
B1740243757778S06012042WA0121901290000000000000
B1740283757721S06012033WA0122301295000000000000
B1740323757669S06012016WA0123101305000000000000
B1740363757628S06011973WA0123601304000000000000
B1740403757569S06011986WA0123401304000000000000
B1740443757554S06012068WA0123701312000000000000
B1740483757611S06012120WA0124601318000000000000
B1740523757679S06012099WA0124901322000000000000
B1740563757696S06012024WA0125401324000000000000
B1741003757652S06011965WA0126001334000000000000
B1741043757588S06011976WA0126401338000000000000
B1741083757563S06012056WA0127001347000000000000
B1741123757613S06012124WA0128001358000000000000
B1741163757686S06012111WA0128501357000000000000
B1741203757702S06012032WA0128701364000000000000
B1741243757650S06011982WA0129401370000000000000
B1741283757583S06012014WA0129701374000000000000
B1741323757532S06012066WA0130601384000000000000
B1741363757518S06012145WA0131201388000000000000
B1741403757536S06012228WA0131101381000000000000
B1741443757567S06012310WA0130501374000000000000
B1741483757580S06012401WA0130301379000000000000
B1741523757589S06012488WA0130701382000000000000
B1741563757587S06012574WA0130701376000000000000
B1742003757563S06012656WA0130201372000000000000
B1742043757527S06012727WA0130101380000000000000
B1742083757493S06012791WA0131201389000000000000
B1742123757463S06012853WA0131801388000000000000
B1742163757478S06012934WA0131501386000000000000
B1742203757543S06012969WA0131001379000000000000
B1742243757608S06012937WA0130601379000000000000
B1742283757622S06012856WA0130101375000000000000
B1742323757598S06012786WA0130301382000000000000
B1742363757570S06012725WA0130401378000000000000
B1742403757514S06012703WA0130301381000000000000
B1742443757465S06012747WA0130501379000000000000
B1742483757424S06012808WA0130301376000000000000
B1742523757380S06012873WA0129801371000000000000
B1742563757350S06012953WA0129401366000000000000
B1743003757368S06013043WA0129001365000000000000
B1743043757431S06013094WA0128901364000000000000
B1743083757501S06013083WA0129001360000000000000
B1743123757559S06013033WA0128001355000000000000
B1743163757588S06012953WA0127401351000000000000
B1743203757609S06012868WA0127201349000000000000
B1743243757628S06012784WA0127401354000000000000
B1743283757640S06012708WA0128001361000000000000
B1743323757645S06012630WA0128701369000000000000
B1743363757645S06012561WA0129701372000000000000
B1743403757641S06012489WA0129501368000000000000
B1743443757636S06012411WA0129201364000000000000
B1743483757626S06012332WA0129001363000000000000
B1743523757601S06012258WA0129301370000000000000
B1743563757570S06012185WA0129601366000000000000
B1744003757524S06012110WA0128101351000000000000
B1744043757475S06012036WA0128101358000000000000
B1744083757422S06011968WA0128401362000000000000
B1744123757363S06011906WA0128101349000000000000
B1744163757314S06011828WA0127201338000000000000
B1744203757289S06011734WA0126001326000000000000
B1744243757283S06011633WA0124901315000000000000
B1744283757294S06011534WA0124201313000000000000
B1744323757319S06011439WA0123701302000000000000
B1744363757353S06011345WA0123501295000000000000
B1744403757394S06011256WA0122801286000000000000
B1744443757442S06011171WA0122001281000000000000
B1744483757497S06011091WA0121501276000000000000
B1744523757550S06011009WA0120101269000000000000
B1744563757604S06010928WA0119701265000000000000
B1745003757654S06010849WA0119501264000000000000
B1745043757702S06010769WA0119101259000000000000
B1745083757748S06010686WA0118701258000000000000
B1745123757788S06010600WA0118901257000000000000
B1745163757832S06010515WA0118601253000000000000
B1745203757878S06010433WA0118301248000000000000
B1745243757920S06010347WA0117701243000000000000
B1745283757953S06010260WA0117401242000000000000
B1745323757978S06010173WA0117301237000000000000
B1745363757987S06010082WA0116401226000000000000
B1745403757978S06009987WA0115201215000000000000
B1745443757961S06009891WA0114201202000000000000
B1745483757940S06009792WA0113101190000000000000
B1745523757918S06009690WA0112201175000000000000
B1745563757894S06009586WA0111101169000000000000
B1746003757866S06009486WA0110601166000000000000
B1746043757836S06009385WA0109901156000000000000
B1746083757805S06009284WA0109201149000000000000
B1746123757773S06009180WA0108501145000000000000
B1746163757743S06009076WA0108401144000000000000
B1746203757718S06008973WA0108101143000000000000
B1746243757693S06008871WA0108101140000000000000
B1746283757674S06008769WA0107501134000000000000
B1746323757658S06008666WA0106901128000000000000
B1746363757645S06008563WA0106401126000000000000
B1746403757640S06008465WA0107001134000000000000
B1746443757663S06008383WA0108201157000000000000
B1746483757689S06008307WA0109601165000000000000
B1746523757695S06008227WA0110201168000000000000
B1746563757665S06008155WA0110501171000000000000
B1747003757605S06008128WA0110601173000000000000
B1747043757543S06008164WA0110601172000000000000
B1747083757518S06008250WA0110801176000000000000
B1747123757548S06008335WA0111301190000000000000
B1747163757609S06008375WA0113101208000000000000
B1747203757671S06008350WA0114101213000000000000
B1747243757686S06008275WA0115001221000000000000
B1747283757644S06008219WA0115801228000000000000
B1747323757582S06008219WA0116201232000000000000
B1747363757536S06008280WA0116201232000000000000
B1747403757543S06008368WA0116801243000000000000
B1747443757601S06008420WA0118101256000000000000
B1747483757666S06008400WA0118801264000000000000
B1747523757692S06008331WA0119301269000000000000
B1747563757650S06008270WA0119901273000000000000
B1748003757584S06008279WA0120301278000000000000
B1748043757546S06008346WA0120901287000000000000
B1748083757558S06008428WA0122201300000000000000
B1748123757614S06008476WA0123201308000000000000
B1748163757676S06008444WA0123701309000000000000
B1748203757691S06008361WA0123801311000000000000
B1748243757653S06008294WA0124501325000000000000
B1748283757592S06008284WA0125301329000000000000
B1748323757544S06008341WA0125401324000000000000
B1748363757535S06008432WA0125301339000000000000
B1748403757540S06008515WA0127001350000000000000
B1748443757593S06008565WA0127701356000000000000
B1748483757657S06008531WA0128301362000000000000
B1748523757674S06008454WA0128401364000000000000
B1748563757639S06008384WA0128901374000000000000
B1749003757574S06008368WA0129701379000000000000
B1749043757520S06008429WA0129801384000000000000
B1749083757527S06008526WA0130701395000000000000
B1749123757585S06008583WA0131301392000000000000
B1749163757661S06008580WA0131401396000000000000
B1749203757719S06008523WA0131901402000000000000
B1749243757738S06008431WA0132401405000000000000
B1749283757708S06008340WA0131901395000000000000
B1749323757634S06008288WA0130601385000000000000
B1749363757543S06008315WA0130301385000000000000
B1749403757480S06008400WA0130801393000000000000
B1749443757450S06008511WA0131401400000000000000
B1749483757446S06008631WA0132201404000000000000
B1749523757462S06008747WA0132901416000000000000
B1749563757498S06008843WA0134301430000000000000
B1750003757553S06008914WA0135301433000000000000
B1750043757604S06008983WA0135501428000000000000
B1750083757650S06009057WA0134901422000000000000
B1750123757704S06009130WA0134101408000000000000
B1750163757773S06009190WA0132901403000000000000
B1750203757855S06009219WA0132101393000000000000
B1750243757926S06009168WA0131401389000000000000
B1750283757942S06009077WA0130901384000000000000
B1750323757929S06008987WA0130501376000000000000
B1750363757904S06008901WA0129701368000000000000
B1750403757874S06008817WA0129501369000000000000
B1750443757845S06008734WA0129301367000000000000
B1750483757819S06008649WA0129301367000000000000
B1750523757788S06008566WA0129001362000000000000
B1750563757747S06008484WA0128501358000000000000
B1751003757692S06008415WA0128101354000000000000
B1751043757624S06008363WA0127701357000000000000
B1751083757550S06008335WA0128501366000000000000
B1751123757475S06008319WA0129501375000000000000
B1751163757400S06008311WA0130601382000000000000
B1751203757325S06008307WA0131701392000000000000
B1751243757251S06008307WA0132801399000000000000
B1751283757179S06008311WA0132601391000000000000
B1751323757104S06008315WA0132201388000000000000
B1751363757030S06008320WA0131901386000000000000
B1751403756952S06008323WA0131101375000000000000
B1751443756873S06008320WA0130501365000000000000
B1751483756791S06008311WA0129401356000000000000
B1751523756709S06008299WA0128701350000000000000
B1751563756630S06008288WA0128401348000000000000
B1752003756551S06008276WA0128101346000000000000
B1752043756470S06008266WA0127601340000000000000
B1752083756391S06008258WA0126801334000000000000
B1752123756311S06008250WA0125601324000000000000
B1752163756232S06008246WA0125601318000000000000
B1752203756154S06008245WA0125201315000000000000
B1752243756080S06008242WA0125201325000000000000
B1752283756011S06008240WA0126001325000000000000
B1752323755942S06008234WA0126001322000000000000
B1752363755872S06008237WA0125701322000000000000
B1752403755806S06008253WA0125801321000000000000
B1752443755745S06008301WA0125601324000000000000
B1752483755690S06008355WA0126501334000000000000
B1752523755652S06008429WA0126801336000000000000
B1752563755678S06008513WA0127301351000000000000
B1753003755736S06008572WA0127901355000000000000
B1753043755801S06008559WA0128901366000000000000
B1753083755829S06008491WA0129201360000000000000
B1753123755812S06008413WA0128801357000000000000
B1753163755781S06008340WA0128301353000000000000
B1753203755739S06008276WA0128301358000000000000
B1753243755680S06008251WA0129401374000000000000
B1753283755625S06008293WA0130001370000000000000
B1753323755629S06008390WA0130001381000000000000
B1753363755693S06008442WA0131001393000000000000
B1753403755762S06008416WA0131901396000000000000
B1753443755790S06008342WA0132101400000000000000
B1753483755760S06008266WA0132401401000000000000
B1753523755695S06008229WA0132301396000000000000
B1753563755624S06008203WA0131401388000000000000
B1754003755551S06008162WA0131101393000000000000
B1754043755477S06008117WA0132101394000000000000
B1754083755404S06008081WA0132601410000000000000
B1754123755338S06008063WA0134401423000000000000
B1754163755270S06008051WA0134401405000000000000
B1754203755193S06008045WA0132601387000000000000
B1754243755110S06008041WA0131201378000000000000
B1754283755024S06008038WA0130901377000000000000
B1754323754939S06008039WA0130401369000000000000
B1754363754849S06008041WA0129501360000000000000
B1754403754759S06008039WA0128701352000000000000
B1754443754668S06008034WA0128201347000000000000
B1754483754580S06008029WA0127801344000000000000
B1754523754490S06008021WA0127501342000000000000
B1754563754400S06008017WA0127001337000000000000
B1755003754312S06008015WA0126901337000000000000
B1755043754225S06008013WA0127001334000000000000
B1755083754139S06008008WA0126601332000000000000
B1755123754057S06008003WA0126001336000000000000
B1755163753984S06008007WA0127101348000000000000
B1755203753917S06008028WA0127301342000000000000
B1755243753848S06008049WA0126801339000000000000
B1755283753780S06008072WA0127001343000000000000
B1755323753715S06008094WA0127301344000000000000
B1755363753652S06008099WA0127901356000000000000
B1755403753596S06008091WA0129101367000000000000
B1755443753542S06008084WA0129601368000000000000
B1755483753489S06008080WA0129801366000000000000
B1755523753432S06008077WA0129101357000000000000
B1755563753373S06008080WA0128501353000000000000
B1756003753315S06008085WA0128301350000000000000
B1756043753256S06008094WA0127801345000000000000
B1756083753194S06008108WA0126901336000000000000
B1756123753129S06008121WA0126401331000000000000
B1756163753063S06008134WA0125801326000000000000
B1756203752996S06008147WA0125401320000000000000
B1756243752935S06008167WA0124901322000000000000
B1756283752877S06008198WA0124401307000000000000
B1756323752816S06008231WA0123501297000000000000
B1756363752748S06008254WA0122201289000000000000
B1756403752681S06008272WA0121801293000000000000
B1756443752617S06008288WA0121601282000000000000
B1756483752548S06008301WA0120201266000000000000
B1756523752476S06008307WA0118601252000000000000
B1756563752404S06008311WA0117901248000000000000
B1757003752331S06008312WA0117401240000000000000
B1757043752257S06008315WA0116601229000000000000
B1757083752181S06008316WA0115701222000000000000
B1757123752107S06008319WA0115201223000000000000
B1757163752034S06008323WA0115301223000000000000
B1757203751966S06008325WA0115801228000000000000
B1757243751901S06008340WA0115901224000000000000
B1757283751841S06008380WA0115901224000000000000
B1757323751787S06008435WA0116301241000000000000
B1757363751752S06008500WA0117901254000000000000
B1757403751781S06008574WA0119201266000000000000
B1757443751846S06008574WA0120001273000000000000
B1757483751872S06008505WA0120101276000000000000
B1757523751836S06008446WA0120601286000000000000
B1757563751777S06008450WA0121701294000000000000
B1758003751750S06008519WA0122501297000000000000
B1758043751790S06008587WA0122801305000000000000
B1758083751856S06008578WA0123701313000000000000
B1758123751886S06008509WA0124301319000000000000
B1758163751846S06008461WA0125201332000000000000
B1758203751800S06008496WA0126001334000000000000
B1758243751819S06008578WA0126301341000000000000
B1758283751882S06008598WA0127101348000000000000
B1758323751924S06008540WA0127501350000000000000
B1758363751902S06008471WA0127401354000000000000
B1758403751847S06008446WA0128101363000000000000
B1758443751789S06008454WA0129001369000000000000
B1758483751754S06008522WA0129701379000000000000
B1758523751797S06008588WA0130501388000000000000
B1758563751854S06008550WA0131501398000000000000
B1759003751832S06008483WA0132301405000000000000
B1759043751776S06008504WA0133501419000000000000
B1759083751782S06008588WA0134301428000000000000
B1759123751847S06008614WA0135201437000000000000
B1759163751880S06008552WA0136301446000000000000
B1759203751843S06008500WA0136901453000000000000
B1759243751786S06008517WA0137801459000000000000
B1759283751780S06008600WA0138001463000000000000
B1759323751842S06008648WA0138801478000000000000
B1759363751904S06008623WA0139801483000000000000
B1759403751928S06008552WA0140501485000000000000
B1759443751889S06008492WA0140801495000000000000
B1759483751829S06008504WA0141801505000000000000
B1759523751806S06008582WA0142501508000000000000
B1759563751846S06008657WA0142801513000000000000
B1800003751919S06008688WA0143101507000000000000
B1800043751998S06008660WA0141701493000000000000
B1800083752050S06008578WA0141101489000000000000
B1800123752045S06008479WA0141201500000000000000
B1800163752002S06008410WA0142601518000000000000
B1800203751947S06008375WA0143801519000000000000
B1800243751891S06008403WA0144401533000000000000
B1800283751847S06008444WA0145301524000000000000
B1800323751803S06008492WA0144401516000000000000
B1800363751747S06008536WA0143201503000000000000
B1800403751682S06008553WA0142201498000000000000
B1800443751618S06008539WA0141701497000000000000
B1800483751564S06008504WA0142101502000000000000
B1800523751514S06008468WA0142701502000000000000
B1800563751466S06008429WA0142201491000000000000
B1801003751416S06008385WA0141301485000000000000
B1801043751365S06008338WA0140701479000000000000
B1801083751312S06008293WA0140001470000000000000
B1801123751260S06008245WA0139401466000000000000
B1801163751210S06008190WA0138601456000000000000
B1801203751165S06008129WA0137901449000000000000
B1801243751121S06008063WA0137201447000000000000
B1801283751080S06007997WA0137601455000000000000
B1801323751040S06007933WA0138401462000000000000
B1801363751001S06007874WA0138901469000000000000
B1801403750958S06007821WA0139501472000000000000
B1801443750909S06007778WA0140601488000000000000
B1801483750849S06007783WA0141901503000000000000
B1801523750818S06007852WA0143201512000000000000
B1801563750859S06007917WA0143801514000000000000
B1802003750926S06007896WA0143801517000000000000
B1802043750952S06007816WA0144301530000000000000
B1802083750929S06007743WA0145601540000000000000
B1802123750881S06007691WA0146101538000000000000
B1802163750823S06007659WA0146301547000000000000
B1802203750762S06007700WA0147201559000000000000
B1802243750742S06007792WA0148201567000000000000
B1802283750775S06007883WA0148501567000000000000
B1802323750829S06007954WA0148901581000000000000
B1802363750871S06008033WA0149801584000000000000
B1802403750892S06008121WA0150301584000000000000
B1802443750949S06008186WA0149801578000000000000
B1802483751028S06008192WA0149601579000000000000
B1802523751097S06008142WA0149501577000000000000
B1802563751144S06008055WA0149201565000000000000
B1803003751179S06007945WA0147001547000000000000
B1803043751175S06007821WA0146201540000000000000
B1803083751126S06007717WA0146301545000000000000
B1803123751049S06007652WA0146601549000000000000
B1803163750962S06007635WA0147701559000000000000
B1803203750877S06007649WA0148401566000000000000
B1803243750798S06007692WA0148201554000000000000
B1803283750741S06007777WA0147801555000000000000
B1803323750684S06007861WA0147401555000000000000
B1803363750633S06007942WA0148301564000000000000
B1803403750607S06008034WA0149001572000000000000
B1803443750621S06008129WA0149201566000000000000
B1803483750681S06008193WA0148501553000000000000
B1803523750762S06008208WA0147101538000000000000
B1803563750841S06008180WA0146101538000000000000
B1804003750914S06008138WA0146201539000000000000
B1804043750992S06008111WA0146601544000000000000
B1804083751071S06008098WA0147701559000000000000
B1804123751152S06008104WA0149001569000000000000
B1804163751222S06008168WA0149301570000000000000
B1804203751275S06008259WA0149901587000000000000
B1804243751334S06008337WA0151801597000000000000
B1804283751407S06008394WA0151201580000000000000
B1804323751491S06008422WA0149901569000000000000
B1804363751578S06008445WA0148701556000000000000
B1804403751669S06008470WA0147401545000000000000
B1804443751760S06008498WA0146501540000000000000
B1804483751849S06008541WA0146501541000000000000
B1804523751938S06008536WA0146801551000000000000
B1804563752005S06008480WA0147401556000000000000
B1805003752041S06008400WA0148001561000000000000
B1805043752028S06008319WA0148501557000000000000
B1805083751969S06008293WA0147901553000000000000
B1805123751919S06008329WA0147601550000000000000
B1805163751886S06008402WA0146901543000000000000
B1805203751855S06008478WA0146301541000000000000
B1805243751843S06008566WA0146001545000000000000
B1805283751876S06008647WA0146401539000000000000
B1805323751942S06008697WA0145201523000000000000
B1805363752025S06008705WA0143901513000000000000
B1805403752102S06008662WA0142901503000000000000
B1805443752175S06008604WA0141801489000000000000
B1805483752246S06008536WA0140401478000000000000
B1805523752318S06008461WA0138701458000000000000
B1805563752391S06008384WA0137401450000000000000
B1806003752465S06008306WA0136301440000000000000
B1806043752541S06008227WA0135301430000000000000
B1806083752617S06008146WA0134601419000000000000
B1806123752687S06008062WA0134501414000000000000
B1806163752752S06007973WA0133501414000000000000
B1806203752813S06007887WA0133701416000000000000
B1806243752874S06007804WA0133701414000000000000
B1806283752942S06007733WA0134201415000000000000
B1806323753012S06007670WA0134201413000000000000
B1806363753085S06007617WA0134001410000000000000
B1806403753162S06007577WA0134101411000000000000
B1806443753242S06007545WA0133801405000000000000
B1806483753325S06007529WA0133701409000000000000
B1806523753410S06007521WA0134001411000000000000
B1806563753492S06007522WA0135801439000000000000
B1807003753562S06007495WA0136901447000000000000
B1807043753626S06007462WA0138501463000000000000
B1807083753688S06007434WA0139301458000000000000
B1807123753762S06007425WA0138501449000000000000
B1807163753844S06007444WA0137301430000000000000
B1807203753922S06007493WA0135901423000000000000
B1807243753997S06007552WA0135001415000000000000
B1807283754070S06007617WA0134101403000000000000
B1807323754144S06007690WA0133001394000000000000
B1807363754212S06007766WA0132701398000000000000
B1807403754276S06007846WA0132701392000000000000
B1807443754334S06007924WA0133201412000000000000
B1807483754391S06007993WA0135501435000000000000
B1807523754463S06008023WA0137701452000000000000
B1807563754520S06007974WA0138801472000000000000
B1808003754511S06007899WA0140501483000000000000
B1808043754452S06007873WA0141401486000000000000
B1808083754403S06007930WA0141701495000000000000
B1808123754403S06008019WA0142401513000000000000
B1808163754459S06008065WA0144201523000000000000
B1808203754519S06008029WA0144701526000000000000
B1808243754520S06007946WA0145301534000000000000
B1808283754462S06007904WA0146101544000000000000
B1808323754397S06007947WA0146601549000000000000
B1808363754380S06008045WA0147001554000000000000
B1808403754424S06008133WA0148101564000000000000
B1808443754494S06008186WA0148601570000000000000
B1808483754568S06008206WA0148701560000000000000
B1808523754641S06008168WA0147501546000000000000
B1808563754679S06008094WA0147501553000000000000
B1809003754670S06008012WA0147801555000000000000
B1809043754631S06007952WA0147201545000000000000
B1809083754576S06007909WA0146501538000000000000
B1809123754514S06007881WA0146001531000000000000
B1809163754439S06007896WA0144901521000000000000
B1809203754390S06007973WA0144401526000000000000
B1809243754381S06008073WA0144701532000000000000
B1809283754416S06008163WA0145901546000000000000
B1809323754484S06008223WA0146501545000000000000
B1809363754563S06008251WA0146801554000000000000
B1809403754638S06008273WA0147201552000000000000
B1809443754707S06008314WA0147001547000000000000
B1809483754771S06008370WA0146701548000000000000
B1809523754839S06008419WA0146301535000000000000
B1809563754919S06008407WA0145401533000000000000
B1810003754988S06008368WA0145401532000000000000
B1810043755043S06008307WA0145101529000000000000
B1810083755105S06008264WA0144901524000000000000
B1810123755175S06008232WA0144201514000000000000
B1810163755248S06008207WA0143401509000000000000
B1810203755323S06008192WA0142801503000000000000
B1810243755399S06008184WA0142401496000000000000
B1810283755477S06008176WA0141701487000000000000
B1810323755556S06008172WA0140901484000000000000
B1810363755635S06008185WA0140501482000000000000
B1810403755719S06008199WA0140001472000000000000
B1810443755804S06008199WA0139301470000000000000
B1810483755888S06008192WA0138901462000000000000
B1810523755973S06008177WA0138301456000000000000
B1810563756057S06008153WA0137601449000000000000
B1811003756139S06008123WA0137301447000000000000
B1811043756219S06008089WA0137501444000000000000
B1811083756295S06008049WA0137301444000000000000
B1811123756371S06008012WA0137001437000000000000
B1811163756453S06007986WA0136101424000000000000
B1811203756539S06007960WA0134801410000000000000
B1811243756626S06007930WA0133401397000000000000
B1811283756716S06007899WA0132701388000000000000
B1811323756804S06007867WA0131701383000000000000
B1811363756890S06007834WA0131401385000000000000
B1811403756972S06007800WA0131801387000000000000
B1811443757050S06007759WA0131201382000000000000
B1811483757114S06007698WA0131901397000000000000
B1811523757162S06007626WA0132701404000000000000
B1811563757197S06007549WA0134001410000000000000
B1812003757236S06007478WA0134301409000000000000
B1812043757285S06007408WA0133801398000000000000
B1812083757350S06007348WA0133001392000000000000
B1812123757423S06007300WA0132001378000000000000
B1812163757505S06007262WA0130901370000000000000
B1812203757589S06007233WA0130301364000000000000
B1812243757675S06007209WA0129401356000000000000
B1812283757764S06007188WA0128701347000000000000
B1812323757852S06007167WA0128201346000000000000
B1812363757938S06007145WA0128001344000000000000
B1812403758024S06007122WA0127601336000000000000
B1812443758108S06007100WA0127001332000000000000
B1812483758191S06007076WA0126701333000000000000
B1812523758272S06007055WA0126301330000000000000
B1812563758355S06007033WA0125401320000000000000
B1813003758441S06007011WA0124901312000000000000
B1813043758529S06006993WA0124401304000000000000
B1813083758616S06006976WA0124201303000000000000
B1813123758702S06006958WA0123901302000000000000
B1813163758788S06006942WA0123801301000000000000
B1813203758874S06006925WA0123501300000000000000
B1813243758958S06006906WA0123301295000000000000
B1813283759045S06006881WA0122001283000000000000
B1813323759134S06006859WA0121201281000000000000
B1813363759221S06006836WA0120701276000000000000
B1813403759305S06006815WA0120401276000000000000
B1813443759386S06006794WA0121301276000000000000
B1813483759463S06006777WA0121201272000000000000
B1813523759539S06006762WA0120301267000000000000
B1813563759613S06006746WA0120001269000000000000
B1814003759682S06006741WA0120401279000000000000
B1814043759747S06006741WA0121501293000000000000
B1814083759803S06006720WA0122501296000000000000
B1814123759824S06006658WA0123101300000000000000
B1814163759790S06006599WA0122801296000000000000
B1814203759728S06006598WA0122501293000000000000
B1814243759685S06006664WA0122301296000000000000
B1814283759694S06006755WA0122701300000000000000
B1814323759741S06006825WA0122901302000000000000
B1814363759807S06006855WA0123001303000000000000
B1814403759872S06006860WA0123501305000000000000
B1814443759937S06006841WA0123001293000000000000
B1814483759998S06006795WA0122201292000000000000
B1814523800027S06006723WA0122501302000000000000
B1814563759997S06006658WA0123801311000000000000
B1815003759936S06006645WA0123601304000000000000
B1815043759890S06006706WA0123701304000000000000
B1815083759894S06006795WA0123601301000000000000
B1815123759948S06006858WA0123301301000000000000
B1815163800016S06006855WA0123201295000000000000
B1815203800057S06006789WA0122501298000000000000
B1815243800036S06006716WA0123301307000000000000
B1815283759975S06006703WA0123701305000000000000
B1815323759923S06006762WA0123001294000000000000
B1815363759914S06006859WA0122501295000000000000
B1815403759936S06006953WA0122701297000000000000
B1815443759989S06007018WA0122901298000000000000
B1815483800062S06007049WA0122601285000000000000
B1815523800144S06007058WA0120901270000000000000
B1815563800228S06007066WA0119601259000000000000
B1816003800317S06007075WA0118501250000000000000
B1816043800406S06007090WA0117701244000000000000
B1816083800495S06007114WA0117101238000000000000
B1816123800582S06007145WA0116401231000000000000
B1816163800670S06007180WA0115501223000000000000
B1816203800757S06007215WA0115001216000000000000
B1816243800846S06007250WA0114401209000000000000
B1816283800933S06007289WA0113701202000000000000
B1816323801017S06007332WA0113301200000000000000
B1816363801099S06007376WA0113101200000000000000
B1816403801179S06007421WA0113201202000000000000
B1816443801251S06007471WA0113801214000000000000
B1816483801313S06007531WA0114901217000000000000
B1816523801368S06007599WA0114301206000000000000
B1816563801422S06007675WA0113701202000000000000
B1817003801461S06007759WA0114001211000000000000
B1817043801489S06007841WA0114201206000000000000
B1817083801521S06007926WA0113501194000000000000
B1817123801554S06008015WA0112201179000000000000
B1817163801588S06008107WA0110901166000000000000
B1817203801626S06008203WA0109701157000000000000
B1817243801662S06008301WA0109001154000000000000
B1817283801699S06008397WA0108801153000000000000
B1817323801734S06008492WA0108701151000000000000
B1817363801768S06008587WA0108301142000000000000
B1817403801799S06008686WA0107901139000000000000
B1817443801827S06008784WA0107501131000000000000
B1817483801843S06008883WA0107701147000000000000
B1817523801827S06008968WA0109401170000000000000
B1817563801821S06009050WA0110901178000000000000
B1818003801879S06009091WA0111801191000000000000
B1818043801926S06009039WA0112101188000000000000
B1818083801890S06008975WA0112501198000000000000
B1818123801827S06008973WA0113601211000000000000
B1818163801799S06009048WA0115001223000000000000
B1818203801843S06009117WA0116101228000000000000
B1818243801908S06009094WA0116801233000000000000
B1818283801916S06009020WA0117401241000000000000
B1818323801860S06008991WA0118501256000000000000
B1818363801810S06009042WA0119501265000000000000
B1818403801829S06009131WA0120201276000000000000
B1818443801892S06009156WA0121101281000000000000
B1818483801934S06009094WA0121301285000000000000
B1818523801899S06009030WA0122001297000000000000
B1818563801839S06009059WA0123201308000000000000
B1819003801844S06009148WA0124201321000000000000
B1819043801909S06009169WA0125201331000000000000
B1819083801934S06009102WA0126301338000000000000
B1819123801885S06009066WA0127001345000000000000
B1819163801839S06009125WA0127701352000000000000
B1819203801868S06009211WA0128501359000000000000
B1819243801934S06009211WA0129401373000000000000
B1819283801953S06009142WA0130401377000000000000
B1819323801901S06009108WA0130901387000000000000
B1819363801853S06009159WA0131801394000000000000
B1819403801865S06009248WA0132401398000000000000
B1819443801931S06009280WA0132601404000000000000
B1819483801985S06009238WA0133101406000000000000
B1819523801991S06009168WA0133501408000000000000
B1819563801947S06009121WA0133601414000000000000
B1820003801890S06009150WA0134001421000000000000
B1820043801862S06009233WA0134301420000000000000
B1820083801891S06009321WA0134601425000000000000
B1820123801956S06009360WA0134801423000000000000
B1820163802021S06009330WA0134701423000000000000
B1820203802050S06009255WA0134501416000000000000
B1820243802024S06009176WA0134001414000000000000
B1820283801959S06009148WA0134801422000000000000
B1820323801895S06009186WA0135301428000000000000
B1820363801873S06009280WA0135901433000000000000
B1820403801912S06009364WA0136101436000000000000
B1820443801979S06009408WA0136201431000000000000
B1820483802056S06009438WA0135601421000000000000
B1820523802138S06009462WA0134401409000000000000
B1820563802221S06009484WA0133701407000000000000
B1821003802303S06009508WA0133901413000000000000
B1821043802382S06009541WA0134601419000000000000
B1821083802458S06009579WA0134701420000000000000
B1821123802533S06009622WA0134101412000000000000
B1821163802611S06009666WA0133101402000000000000
B1821203802685S06009715WA0132701401000000000000
B1821243802758S06009767WA0132701403000000000000
B1821283802830S06009824WA0132501403000000000000
B1821323802895S06009887WA0133101412000000000000
B1821363802957S06009948WA0134401429000000000000
B1821403803030S06009975WA0135501431000000000000
B1821443803099S06009941WA0135901436000000000000
B1821483803118S06009862WA0136201439000000000000
B1821523803079S06009807WA0136501441000000000000
B1821563803022S06009827WA0136401441000000000000
B1822003803004S06009906WA0136501444000000000000
B1822043803044S06009982WA0137101448000000000000
B1822083803114S06010000WA0137601453000000000000
B1822123803170S06009947WA0137401444000000000000
B1822163803179S06009858WA0136301436000000000000
B1822203803133S06009796WA0136001436000000000000
B1822243803066S06009793WA0135501429000000000000
B1822283803018S06009858WA0135501440000000000000
B1822323803017S06009950WA0136901443000000000000
B1822363803065S06010028WA0137001443000000000000
B1822403803146S06010052WA0137001441000000000000
B1822443803222S06010017WA0136801438000000000000
B1822483803265S06009935WA0136701437000000000000
B1822523803255S06009846WA0136201438000000000000
B1822563803207S06009791WA0135801432000000000000
B1823003803143S06009762WA0134601418000000000000
B1823043803078S06009732WA0134201409000000000000
B1823083803012S06009698WA0133401406000000000000
B1823123802944S06009667WA0132601396000000000000
B1823163802873S06009642WA0131701386000000000000
B1823203802801S06009615WA0130801380000000000000
B1823243802731S06009584WA0130501377000000000000
B1823283802662S06009547WA0130601385000000000000
B1823323802600S06009507WA0131301388000000000000
B1823363802542S06009467WA0131901395000000000000
B1823403802489S06009427WA0132601402000000000000
B1823443802437S06009389WA0132901398000000000000
B1823483802381S06009351WA0132601397000000000000
B1823523802323S06009310WA0132301395000000000000
B1823563802263S06009278WA0132701404000000000000
B1824003802203S06009295WA0134001423000000000000
B1824043802176S06009363WA0135301426000000000000
B1824083802211S06009434WA0135401427000000000000
B1824123802278S06009437WA0135901435000000000000
B1824163802311S06009369WA0136901448000000000000
B1824203802273S06009319WA0138301460000000000000
B1824243802215S06009346WA0138801462000000000000
B1824283802202S06009429WA0138501459000000000000
B1824323802255S06009494WA0138601465000000000000
B1824363802327S06009484WA0139001468000000000000
B1824403802369S06009417WA0139501471000000000000
B1824443802354S06009339WA0140501483000000000000
B1824483802295S06009308WA0141101485000000000000
B1824523802237S06009351WA0141401487000000000000
B1824563802226S06009442WA0141201484000000000000
B1825003802278S06009516WA0141301487000000000000
B1825043802358S06009507WA0142001498000000000000
B1825083802405S06009433WA0142601505000000000000
B1825123802402S06009341WA0143001510000000000000
B1825163802362S06009267WA0143401510000000000000
B1825203802295S06009237WA0143401506000000000000
B1825243802226S06009261WA0142801502000000000000
B1825283802181S06009332WA0142501497000000000000
B1825323802160S06009420WA0141901489000000000000
B1825363802159S06009514WA0141101484000000000000
B1825403802176S06009606WA0140901484000000000000
B1825443802224S06009687WA0141001480000000000000
B1825483802294S06009733WA0140301475000000000000
B1825523802373S06009739WA0139701462000000000000
B1825563802442S06009694WA0139001461000000000000
B1826003802494S06009627WA0138901462000000000000
B1826043802533S06009553WA0139201464000000000000
B1826083802536S06009466WA0139401470000000000000
B1826123802503S06009393WA0139501472000000000000
B1826163802441S06009365WA0139701478000000000000
B1826203802382S06009401WA0140701482000000000000
B1826243802353S06009481WA0141101483000000000000
B1826283802360S06009583WA0141201483000000000000
B1826323802399S06009677WA0141601493000000000000
B1826363802457S06009765WA0142001489000000000000
B1826403802522S06009848WA0141001471000000000000
B1826443802600S06009917WA0139601464000000000000
B1826483802683S06009974WA0139301466000000000000
B1826523802772S06010009WA0139701474000000000000
B1826563802861S06010019WA0140201476000000000000
B1827003802949S06010005WA0140301474000000000000
B1827043803034S06009978WA0139901471000000000000
B1827083803114S06009936WA0139601462000000000000
B1827123803183S06009872WA0139101459000000000000
B1827163803220S06009781WA0138701456000000000000
B1827203803214S06009688WA0138301452000000000000
B1827243803178S06009611WA0137901451000000000000
B1827283803120S06009559WA0137901452000000000000
B1827323803051S06009540WA0137501445000000000000
B1827363802978S06009534WA0136401436000000000000
B1827403802905S06009524WA0135601434000000000000
B1827443802836S06009511WA0135401430000000000000
B1827483802765S06009502WA0135401426000000000000
B1827523802692S06009498WA0135401425000000000000
B1827563802620S06009508WA0135701430000000000000
B1828003802554S06009524WA0136301436000000000000
B1828043802492S06009563WA0136601435000000000000
B1828083802446S06009635WA0136401439000000000000
B1828123802440S06009729WA0137001452000000000000
B1828163802486S06009804WA0138701472000000000000
B1828203802559S06009797WA0140201482000000000000
B1828243802590S06009716WA0140801483000000000000
B1828283802545S06009645WA0141401491000000000000
B1828323802475S06009645WA0141901493000000000000
B1828363802432S06009723WA0141801491000000000000
B1828403802453S06009826WA0142101497000000000000
B1828443802524S06009888WA0142901506000000000000
B1828483802614S06009893WA0143301504000000000000
B1828523802698S06009843WA0142501490000000000000
B1828563802759S06009749WA0141401487000000000000
B1829003802780S06009635WA0141601491000000000000
B1829043802758S06009528WA0142301500000000000000
B1829083802701S06009458WA0142801503000000000000
B1829123802626S06009440WA0142401496000000000000
B1829163802555S06009481WA0142001489000000000000
B1829203802503S06009559WA0141401483000000000000
B1829243802476S06009655WA0140901481000000000000
B1829283802483S06009762WA0141001486000000000000
B1829323802510S06009865WA0141701495000000000000
B1829363802549S06009967WA0142801504000000000000
B1829403802611S06010053WA0143201510000000000000
B1829443802688S06010113WA0143901509000000000000
B1829483802778S06010130WA0143501503000000000000
B1829523802865S06010105WA0142901500000000000000
B1829563802944S06010058WA0142601499000000000000
B1830003803014S06009997WA0142601497000000000000
B1830043803078S06009928WA0142001499000000000000
B1830083803118S06009846WA0142001496000000000000
B1830123803122S06009755WA0141501490000000000000
B1830163803096S06009674WA0141101488000000000000
B1830203803066S06009596WA0140601480000000000000
B1830243803026S06009528WA0140001474000000000000
B1830283802971S06009475WA0139501470000000000000
B1830323802908S06009450WA0139401469000000000000
B1830363802840S06009458WA0139301458000000000000
B1830403802772S06009494WA0138201448000000000000
B1830443802706S06009544WA0137401440000000000000
B1830483802640S06009588WA0136601437000000000000
B1830523802575S06009622WA0136601433000000000000
B1830563802518S06009670WA0136101428000000000000
B1831003802477S06009741WA0135401420000000000000
B1831043802467S06009835WA0134701411000000000000
B1831083802481S06009932WA0133401393000000000000
B1831123802507S06010028WA0132401398000000000000
B1831163802550S06010109WA0133101408000000000000
B1831203802620S06010149WA0134001414000000000000
B1831243802696S06010145WA0134301415000000000000
B1831283802765S06010108WA0134201420000000000000
B1831323802818S06010047WA0134801426000000000000
B1831363802837S06009963WA0135701435000000000000
B1831403802835S06009880WA0136501440000000000000
B1831443802809S06009806WA0136901440000000000000
B1831483802756S06009759WA0136501433000000000000
B1831523802689S06009761WA0136401438000000000000
B1831563802632S06009793WA0136801440000000000000
B1832003802588S06009848WA0136701433000000000000
B1832043802570S06009928WA0135701421000000000000
B1832083802574S06010010WA0135201419000000000000
B1832123802598S06010095WA0134701417000000000000
B1832163802645S06010166WA0134901428000000000000
B1832203802702S06010221WA0135801433000000000000
E183223PEV
B1832233802758S06010240WA0136101433000000000000
B1832243802778S06010240WA0136101436000000000000
B1832253802797S06010239WA0136101436000000000000
B1832263802817S06010234WA0136201434000000000000
E183227PEV
B1832273802835S06010227WA0136301433000000000000
B1832283802853S06010216WA0136301435000000000000
B1832293802870S06010204WA0136301436000000000000
B1832303802884S06010190WA0136401438000000000000
B1832313802897S06010171WA0136501438000000000000
B1832323802906S06010152WA0136601440000000000000
B1832333802914S06010131WA0136701442000000000000
B1832343802918S06010109WA0136801444000000000000
B1832353802921S06010088WA0137001445000000000000
B1832363802921S06010066WA0137201445000000000000
B1832373802919S06010044WA0137301447000000000000
B1832383802915S06010023WA0137401450000000000000
B1832393802910S06010004WA0137601455000000000000
B1832403802906S06009984WA0137601458000000000000
B1832413802901S06009966WA0137901459000000000000
B1832423802895S06009948WA0138201457000000000000
B1832433802887S06009930WA0138201456000000000000
B1832473802837S06009876WA0137701450000000000000
B1832513802772S06009870WA0137101447000000000000
B1832553802710S06009892WA0137101449000000000000
B1832593802654S06009931WA0137601447000000000000
B1833033802618S06009999WA0136901433000000000000
B1833073802620S06010091WA0135101425000000000000
B1833113802654S06010171WA0135401438000000000000
B1833153802706S06010230WA0136401447000000000000
B1833193802771S06010264WA0136701449000000000000
B1833233802845S06010265WA0137401456000000000000
B1833273802913S06010227WA0138501465000000000000
B1833313802958S06010155WA0138301467000000000000
B1833353802970S06010069WA0138701470000000000000
B1833393802948S06009987WA0138701467000000000000
B1833433802897S06009930WA0138301463000000000000
B1833473802827S06009914WA0137501454000000000000
B1833513802762S06009948WA0137301444000000000000
B1833553802719S06010025WA0136701440000000000000
B1833593802709S06010121WA0136201432000000000000
B1834033802735S06010216WA0135701430000000000000
B1834073802788S06010288WA0136101445000000000000
B1834113802852S06010343WA0137601455000000000000
B1834153802927S06010364WA0138201460000000000000
B1834193803005S06010352WA0138901462000000000000
B1834233803073S06010296WA0138801459000000000000
B1834273803104S06010209WA0138401464000000000000
B1834313803096S06010121WA0138801468000000000000
B1834353803055S06010054WA0138901465000000000000
B1834393802992S06010026WA0138501458000000000000
B1834433802925S06010049WA0137601452000000000000
B1834473802867S06010103WA0137601447000000000000
B1834513802831S06010183WA0137101441000000000000
B1834553802821S06010275WA0137001445000000000000
B1834593802834S06010366WA0137801457000000000000
B1835033802869S06010452WA0138701460000000000000
B1835073802928S06010524WA0138501459000000000000
B1835113803005S06010569WA0138101458000000000000
B1835153803091S06010576WA0137801458000000000000
B1835193803166S06010539WA0138201462000000000000
B1835233803216S06010468WA0138101457000000000000
B1835273803237S06010379WA0137901454000000000000
B1835313803222S06010292WA0138301459000000000000
B1835353803179S06010227WA0138601459000000000000
B1835393803118S06010195WA0138501456000000000000
B1835433803051S06010203WA0138001449000000000000
B1835473802984S06010242WA0137301441000000000000
B1835513802927S06010294WA0137101451000000000000
B1835553802878S06010350WA0138101459000000000000
B1835593802847S06010426WA0138901464000000000000
B1836033802844S06010519WA0139201465000000000000
B1836073802880S06010606WA0139001465000000000000
B1836113802945S06010669WA0138501465000000000000
B1836153803027S06010684WA0138401458000000000000
B1836193803103S06010632WA0137701454000000000000
B1836233803142S06010545WA0138001457000000000000
B1836273803133S06010451WA0138501468000000000000
B1836313803086S06010387WA0139701471000000000000
B1836353803021S06010357WA0139601469000000000000
B1836393802947S06010374WA0139401471000000000000
B1836433802883S06010426WA0139501476000000000000
B1836473802858S06010519WA0140101483000000000000
B1836513802889S06010608WA0140901488000000000000
B1836553802961S06010656WA0140901488000000000000
B1836593803042S06010643WA0140901488000000000000
B1837033803114S06010595WA0141201491000000000000
B1837073803168S06010515WA0140901492000000000000
B1837113803191S06010417WA0141601495000000000000
B1837153803168S06010325WA0141901499000000000000
B1837193803105S06010274WA0141901493000000000000
B1837233803032S06010285WA0141501488000000000000
B1837273802971S06010340WA0140601477000000000000
B1837313802928S06010421WA0140201480000000000000
B1837353802917S06010519WA0140601481000000000000
B1837393802938S06010619WA0140701486000000000000
B1837433802990S06010698WA0141201491000000000000
B1837473803068S06010740WA0141501491000000000000
B1837513803151S06010732WA0141601491000000000000
B1837553803222S06010682WA0141601491000000000000
B1837593803268S06010599WA0141901498000000000000
B1838033803281S06010502WA0141801494000000000000
B1838073803255S06010412WA0141701493000000000000
B1838113803195S06010350WA0141101483000000000000
B1838153803121S06010330WA0140901483000000000000
B1838193803053S06010357WA0140901487000000000000
B1838233803008S06010428WA0140801480000000000000
B1838273802986S06010520WA0140101476000000000000
B1838313802965S06010616WA0139801473000000000000
B1838353802926S06010704WA0139601468000000000000
B1838393802883S06010792WA0138801460000000000000
B1838433802836S06010873WA0138201456000000000000
B1838473802783S06010951WA0137601448000000000000
B1838513802724S06011026WA0136901439000000000000
B1838553802663S06011089WA0136301440000000000000
B1838593802601S06011140WA0136201434000000000000
B1839033802549S06011200WA0136001433000000000000
B1839073802522S06011286WA0135701432000000000000
B1839113802514S06011375WA0136001431000000000000
B1839153802544S06011458WA0135701427000000000000
B1839193802588S06011534WA0135601428000000000000
B1839233802636S06011604WA0135801430000000000000
B1839273802697S06011660WA0135501422000000000000
B1839313802762S06011721WA0134501411000000000000
B1839353802826S06011791WA0133001391000000000000
B1839393802886S06011871WA0131701383000000000000
B1839433802943S06011952WA0130801372000000000000
B1839473803001S06012038WA0129601361000000000000
B1839513803057S06012128WA0128801354000000000000
B1839553803113S06012218WA0128001344000000000000
B1839593803166S06012307WA0127901349000000000000
B1840033803212S06012397WA0127301348000000000000
B1840073803239S06012487WA0128001359000000000000
B1840113803255S06012571WA0129001367000000000000
B1840153803265S06012653WA0129801371000000000000
B1840193803309S06012722WA0129801368000000000000
B1840233803380S06012727WA0129701373000000000000
B1840273803420S06012664WA0130201370000000000000
B1840313803398S06012593WA0129901368000000000000
B1840353803341S06012579WA0129901372000000000000
B1840393803291S06012621WA0130301379000000000000
B1840433803266S06012692WA0130701378000000000000
B1840473803294S06012773WA0130901379000000000000
B1840513803361S06012808WA0130601376000000000000
B1840553803425S06012770WA0130301374000000000000
B1840593803454S06012696WA0130501379000000000000
B1841033803476S06012621WA0131001380000000000000
B1841073803494S06012540WA0130701375000000000000
B1841113803473S06012465WA0130501380000000000000
B1841153803419S06012456WA0130901380000000000000
B1841193803376S06012510WA0130401373000000000000
B1841233803373S06012592WA0130101372000000000000
B1841273803381S06012677WA0130101376000000000000
B1841313803385S06012756WA0130501379000000000000
B1841353803381S06012831WA0130801378000000000000
B1841393803437S06012888WA0129901369000000000000
B1841433803510S06012875WA0129001357000000000000
B1841473803550S06012804WA0128501359000000000000
B1841513803572S06012725WA0128501353000000000000
B1841553803591S06012639WA0127901347000000000000
B1841593803606S06012547WA0126801336000000000000
B1842033803620S06012449WA0125801327000000000000
B1842073803633S06012352WA0125301320000000000000
B1842113803647S06012253WA0124901310000000000000
B1842153803666S06012151WA0123801296000000000000
B1842193803686S06012050WA0123001293000000000000
B1842233803710S06011949WA0122801296000000000000
B1842273803732S06011854WA0123001296000000000000
B1842313803759S06011763WA0123101298000000000000
B1842353803790S06011678WA0124101312000000000000
B1842393803819S06011595WA0125201325000000000000
B1842433803810S06011516WA0125801339000000000000
B1842473803757S06011499WA0127401352000000000000
B1842513803721S06011560WA0128201354000000000000
B1842553803754S06011638WA0128401360000000000000
B1842593803827S06011656WA0128801364000000000000
B1843033803885S06011605WA0129601375000000000000
B1843073803898S06011531WA0130601383000000000000
B1843113803863S06011477WA0130901383000000000000
B1843153803806S06011483WA0130601381000000000000
B1843193803766S06011548WA0130801378000000000000
B1843233803754S06011635WA0131301387000000000000
B1843273803788S06011716WA0131901394000000000000
B1843313803855S06011757WA0132001394000000000000
B1843353803927S06011729WA0132201402000000000000
B1843393803967S06011664WA0133401414000000000000
B1843433803944S06011601WA0134501424000000000000
B1843473803890S06011605WA0135101423000000000000
B1843513803850S06011666WA0135201427000000000000
B1843553803857S06011750WA0135601431000000000000
B1843593803914S06011807WA0135401432000000000000
B1844033803987S06011790WA0135701436000000000000
B1844073804020S06011718WA0136001438000000000000
B1844113804014S06011637WA0135701432000000000000
B1844153803981S06011564WA0135401430000000000000
B1844193803928S06011505WA0135201417000000000000
B1844233803861S06011458WA0133801404000000000000
B1844273803785S06011421WA0133001399000000000000
B1844313803705S06011393WA0132401395000000000000
B1844353803624S06011374WA0132601400000000000000
B1844393803545S06011356WA0132501394000000000000
B1844433803463S06011339WA0131901382000000000000
B1844473803380S06011319WA0130901367000000000000
B1844513803291S06011305WA0129301356000000000000
B1844553803204S06011289WA0128601350000000000000
B1844593803120S06011267WA0128201348000000000000
B1845033803036S06011247WA0127901346000000000000
B1845073802954S06011228WA0127801344000000000000
B1845113802873S06011223WA0127201337000000000000
B1845153802788S06011231WA0126301326000000000000
B1845193802705S06011244WA0125801320000000000000
B1845233802623S06011261WA0125101314000000000000
B1845273802541S06011276WA0124601313000000000000
B1845313802460S06011301WA0124501316000000000000
B1845353802388S06011327WA0125301325000000000000
B1845393802317S06011353WA0125201312000000000000
B1845433802241S06011371WA0123401289000000000000
B1845473802160S06011380WA0121201265000000000000
B1845513802074S06011380WA0119501246000000000000
B1845553801985S06011374WA0117801236000000000000
B1845593801895S06011356WA0117301238000000000000
B1846033801816S06011334WA0118801273000000000000
B1846073801748S06011317WA0121401286000000000000
B1846113801682S06011297WA0121101266000000000000
B1846153801606S06011271WA0118701241000000000000
B1846193801526S06011243WA0116701225000000000000
B1846233801444S06011208WA0116101216000000000000
B1846273801361S06011170WA0114801203000000000000
B1846313801280S06011128WA0114601209000000000000
B1846353801202S06011089WA0114501201000000000000
B1846393801121S06011055WA0114001196000000000000
B1846433801038S06011027WA0113801199000000000000
B1846473800955S06011003WA0113401194000000000000
B1846513800871S06010985WA0113001197000000000000
B1846553800793S06010967WA0114101221000000000000
B1846593800728S06010953WA0116801245000000000000
B1847033800669S06010942WA0118801259000000000000
B1847073800613S06010933WA0119601262000000000000
B1847113800557S06010928WA0119901265000000000000
B1847153800499S06010942WA0119501256000000000000
B1847193800431S06010953WA0117501234000000000000
B1847233800354S06010950WA0116001217000000000000
B1847273800278S06010936WA0114501208000000000000
B1847313800202S06010910WA0114501205000000000000
B1847353800128S06010884WA0114101201000000000000
B1847393800054S06010862WA0113301192000000000000
B1847433759984S06010837WA0113901206000000000000
B1847473759918S06010823WA0114601215000000000000
B1847513759859S06010807WA0115601236000000000000
B1847553759810S06010798WA0117601246000000000000
B1847593759758S06010797WA0118101242000000000000
B1848033759695S06010803WA0116101211000000000000
B1848073759621S06010802WA0114001196000000000000
B1848113759542S06010793WA0112701180000000000000
B1848153759463S06010766WA0111801178000000000000
B1848193759387S06010758WA0112701206000000000000
B1848233759326S06010767WA0114301207000000000000
B1848273759262S06010782WA0113501198000000000000
B1848313759195S06010795WA0113901216000000000000
B1848353759136S06010815WA0115701235000000000000
B1848393759116S06010890WA0116701236000000000000
B1848433759166S06010945WA0116701233000000000000
B1848473759222S06010903WA0116401231000000000000
B1848513759230S06010825WA0116301230000000000000
B1848553759208S06010743WA0115701221000000000000
B1848593759171S06010663WA0114601211000000000000
B1849033759119S06010586WA0114201212000000000000
B1849073759069S06010508WA0114201211000000000000
B1849113759014S06010431WA0113801200000000000000
B1849153758953S06010357WA0112801187000000000000
B1849193758889S06010285WA0111801170000000000000
B1849233758820S06010210WA0110001156000000000000
B1849273758754S06010132WA0109301150000000000000
B1849313758687S06010056WA0108701148000000000000
B1849353758619S06009984WA0108301141000000000000
B1849393758550S06009917WA0108101140000000000000
B1849433758481S06009849WA0107801133000000000000
B1849473758410S06009787WA0107101128000000000000
B1849513758338S06009723WA0106301119000000000000
B1849553758265S06009657WA0105301107000000000000
B1849593758194S06009589WA0104301096000000000000
B1850033758120S06009520WA0103201086000000000000
B1850073758048S06009450WA0102201078000000000000
B1850113757974S06009384WA0101601074000000000000
B1850153757900S06009317WA0101001062000000000000
B1850193757830S06009247WA0100201056000000000000
B1850233757762S06009178WA0099401046000000000000
B1850273757695S06009111WA0098501035000000000000
B1850313757627S06009039WA0097301023000000000000
B1850353757559S06008966WA0095401009000000000000
B1850393757494S06008894WA0094401004000000000000
B1850433757429S06008825WA0094400997000000000000
B1850473757377S06008753WA0094701014000000000000
B1850513757338S06008680WA0095901024000000000000
B1850553757298S06008609WA0096201031000000000000
B1850593757262S06008541WA0097201029000000000000
B1851033757216S06008472WA0095901013000000000000
B1851073757173S06008394WA0094901015000000000000
B1851113757158S06008315WA0097101051000000000000
B1851153757145S06008247WA0099301056000000000000
B1851193757111S06008188WA0098901046000000000000
B1851233757050S06008167WA0099401062000000000000
B1851273757011S06008232WA0101101081000000000000
B1851313757047S06008306WA0101901085000000000000
B1851353757114S06008318WA0102601093000000000000
B1851393757141S06008253WA0103601104000000000000
B1851433757110S06008199WA0104201108000000000000
B1851473757050S06008205WA0104901122000000000000
B1851513757028S06008273WA0106201129000000000000
B1851553757080S06008323WA0106801140000000000000
B1851593757124S06008284WA0107701146000000000000
B1852033757103S06008221WA0108201153000000000000
B1852073757051S06008219WA0109401164000000000000
B1852113757013S06008272WA0109201160000000000000
B1852153757045S06008349WA0109201166000000000000
B1852193757097S06008394WA0110201178000000000000
B1852233757156S06008402WA0110701179000000000000
B1852273757201S06008353WA0110801182000000000000
B1852313757210S06008281WA0110801178000000000000
B1852353757175S06008215WA0110601178000000000000
B1852393757132S06008155WA0110501174000000000000
B1852433757085S06008091WA0110401180000000000000
B1852473757045S06008034WA0112201204000000000000
B1852513756994S06008026WA0113901209000000000000
B1852553756937S06008037WA0113701201000000000000
B1852593756873S06008020WA0112201174000000000000
B1853033756808S06007964WA0110301171000000000000
B1853073756751S06007887WA0110501166000000000000
B1853113756699S06007805WA0110001148000000000000
B1853153756646S06007717WA0107601129000000000000
B1853193756595S06007625WA0106401126000000000000
B1853233756544S06007531WA0105601111000000000000
B1853273756493S06007436WA0104201101000000000000
B1853313756444S06007343WA0103801099000000000000
B1853353756400S06007245WA0103501092000000000000
B1853393756360S06007144WA0102701083000000000000
B1853433756321S06007045WA0102001078000000000000
B1853473756280S06006950WA0101701086000000000000
B1853513756249S06006863WA0102501100000000000000
B1853553756211S06006782WA0103201087000000000000
B1853593756167S06006699WA0102901102000000000000
B1854033756123S06006620WA0103001098000000000000
B1854073756070S06006547WA0102501088000000000000
B1854113756005S06006481WA0101301075000000000000
B1854153755932S06006422WA0100601068000000000000
B1854193755854S06006370WA0100901070000000000000
B1854233755776S06006322WA0100401071000000000000
B1854273755697S06006282WA0100801082000000000000
B1854313755616S06006257WA0101301078000000000000
B1854353755534S06006243WA0101401081000000000000
B1854393755459S06006221WA0102701085000000000000
B1854433755381S06006195WA0101301076000000000000
B1854473755304S06006164WA0101101079000000000000
B1854513755225S06006131WA0100801064000000000000
B1854553755145S06006099WA0099601056000000000000
B1854593755065S06006065WA0098901048000000000000
B1855033754983S06006028WA0098401052000000000000
B1855073754906S06005995WA0099101066000000000000
B1855113754841S06005963WA0101501095000000000000
B1855153754787S06005933WA0104001120000000000000
B1855193754738S06005902WA0106101134000000000000
B1855233754688S06005879WA0107101140000000000000
B1855273754629S06005881WA0107701141000000000000
B1855313754592S06005945WA0108101156000000000000
B1855353754603S06006028WA0109301164000000000000
B1855393754660S06006070WA0109901168000000000000
B1855433754725S06006048WA0109701160000000000000
B1855473754772S06005989WA0110101182000000000000
B1855513754792S06005923WA0112001191000000000000
B1855553754755S06005874WA0112701196000000000000
B1855593754701S06005897WA0113201201000000000000
B1856033754684S06005978WA0113401207000000000000
B1856073754722S06006052WA0114501221000000000000
B1856113754783S06006076WA0115501235000000000000
B1856153754813S06006014WA0117001247000000000000
B1856193754774S06005970WA0118101257000000000000
B1856233754729S06006015WA0118801259000000000000
B1856273754740S06006104WA0119301273000000000000
B1856313754801S06006132WA0120601288000000000000
B1856353754835S06006074WA0122001300000000000000
B1856393754793S06006034WA0123101311000000000000
B1856433754751S06006088WA0124101318000000000000
B1856473754779S06006169WA0124901327000000000000
B1856513754844S06006165WA0125801339000000000000
B1856553754850S06006095WA0127101351000000000000
B1856593754797S06006088WA0128201365000000000000
B1857033754777S06006162WA0129401372000000000000
B1857073754824S06006225WA0129901374000000000000
B1857113754885S06006200WA0130501382000000000000
B1857153754888S06006130WA0131901399000000000000
B1857193754835S06006123WA0132901409000000000000
B1857233754816S06006199WA0134101419000000000000
B1857273754870S06006252WA0134801430000000000000
B1857313754919S06006205WA0135601436000000000000
B1857353754892S06006144WA0136901455000000000000
B1857393754841S06006169WA0138101462000000000000
B1857433754839S06006255WA0138601462000000000000
B1857473754885S06006320WA0139301479000000000000
B1857513754950S06006312WA0140001477000000000000
B1857553754983S06006247WA0140601492000000000000
B1857593754952S06006192WA0142101509000000000000
B1858033754904S06006231WA0143401521000000000000
B1858073754924S06006313WA0144401528000000000000
B1858113754991S06006314WA0145201536000000000000
B1858153755015S06006247WA0145701541000000000000
B1858193754976S06006201WA0147101562000000000000
B1858233754935S06006252WA0148301569000000000000
B1858273754965S06006333WA0149001575000000000000
B1858313755031S06006317WA0150001587000000000000
B1858353755039S06006247WA0151401601000000000000
B1858393754991S06006222WA0152401611000000000000
B1858433754956S06006286WA0152801612000000000000
B1858473754995S06006362WA0153201621000000000000
B1858513755066S06006365WA0154101630000000000000
B1858553755106S06006296WA0154501635000000000000
B1858593755084S06006218WA0155001639000000000000
B1859033755035S06006160WA0154801629000000000000
B1859073754974S06006104WA0153501609000000000000
B1859113754907S06006037WA0151901585000000000000
B1859153754839S06005954WA0149601567000000000000
B1859193754780S06005857WA0148601565000000000000
B1859233754732S06005755WA0148401563000000000000
B1859273754694S06005653WA0148501564000000000000
B1859313754670S06005547WA0148301560000000000000
B1859353754653S06005442WA0148201560000000000000
B1859393754640S06005335WA0148001556000000000000
B1859433754627S06005230WA0147401548000000000000
B1859473754618S06005124WA0146601537000000000000
B1859513754608S06005012WA0145501525000000000000
B1859553754598S06004903WA0144601522000000000000
B1859593754584S06004795WA0144801524000000000000
B1900033754545S06004705WA0145301539000000000000
B1900073754499S06004632WA0145901551000000000000
B1900113754446S06004580WA0147501570000000000000
B1900153754393S06004542WA0149101571000000000000
B1900193754330S06004511WA0149001567000000000000
B1900233754261S06004468WA0147801551000000000000
B1900273754186S06004422WA0146901548000000000000
B1900313754109S06004380WA0147901561000000000000
B1900353754030S06004346WA0148001550000000000000
B1900393753948S06004315WA0147601553000000000000
B1900433753867S06004284WA0146901540000000000000
B1900473753784S06004256WA0146501536000000000000
B1900513753700S06004233WA0146101530000000000000
B1900553753614S06004210WA0145501528000000000000
B1900593753533S06004172WA0145601536000000000000
B1901033753458S06004124WA0146301537000000000000
B1901073753377S06004078WA0146001532000000000000
B1901113753297S06004035WA0145901538000000000000
B1901153753219S06003993WA0146601549000000000000
B1901193753145S06003952WA0146901541000000000000
B1901233753068S06003911WA0146101529000000000000
B1901273752989S06003870WA0145101522000000000000
B1901313752908S06003830WA0144501518000000000000
B1901353752829S06003794WA0144201517000000000000
B1901393752752S06003756WA0144001514000000000000
B1901433752674S06003718WA0143701509000000000000
B1901473752597S06003681WA0142901500000000000000
B1901513752519S06003644WA0142301497000000000000
B1901553752441S06003606WA0141901490000000000000
B1901593752363S06003569WA0141301478000000000000
B1902033752284S06003530WA0140101466000000000000
B1902073752202S06003489WA0138801456000000000000
B1902113752122S06003448WA0137801444000000000000
B1902153752038S06003409WA0136701435000000000000
B1902193751954S06003372WA0135701426000000000000
B1902233751871S06003333WA0135101419000000000000
B1902273751789S06003293WA0134401409000000000000
B1902313751707S06003250WA0133301401000000000000
B1902353751624S06003210WA0132801397000000000000
B1902393751540S06003180WA0132501392000000000000
B1902433751456S06003155WA0131901386000000000000
B1902473751377S06003131WA0132401399000000000000
B1902513751300S06003098WA0132501392000000000000
B1902553751226S06003049WA0131801384000000000000
B1902593751156S06002989WA0131101379000000000000
B1903033751091S06002919WA0130701375000000000000
B1903073751027S06002846WA0130501374000000000000
B1903113750963S06002773WA0130401372000000000000
B1903153750902S06002698WA0129801362000000000000
B1903193750840S06002618WA0129101351000000000000
B1903233750777S06002539WA0128001342000000000000
B1903273750714S06002459WA0126901328000000000000
B1903313750650S06002378WA0125601315000000000000
B1903353750584S06002299WA0124201306000000000000
B1903393750520S06002218WA0123801300000000000000
B1903433750456S06002139WA0123201297000000000000
B1903473750394S06002063WA0123301299000000000000
B1903513750333S06001991WA0123301299000000000000
B1903553750276S06001918WA0123101294000000000000
B1903593750217S06001844WA0122401280000000000000
B1904033750155S06001768WA0121001271000000000000
B1904073750094S06001692WA0120401267000000000000
B1904113750035S06001616WA0119901263000000000000
B1904153749977S06001539WA0119401252000000000000
B1904193749917S06001463WA0118501244000000000000
B1904233749856S06001389WA0117701238000000000000
B1904273749797S06001313WA0117201231000000000000
B1904313749737S06001240WA0116401223000000000000
B1904353749678S06001168WA0115301214000000000000
B1904393749618S06001094WA0114701205000000000000
B1904433749558S06001017WA0113901200000000000000
B1904473749498S06000945WA0113501197000000000000
B1904513749436S06000876WA0113101190000000000000
B1904553749371S06000814WA0112801193000000000000
B1904593749307S06000753WA0112901195000000000000
B1905033749245S06000696WA0113001192000000000000
B1905073749178S06000649WA0112901193000000000000
B1905113749109S06000611WA0112801188000000000000
B1905153749041S06000576WA0112801191000000000000
B1905193748981S06000522WA0112501181000000000000
B1905233748933S06000447WA0111601173000000000000
B1905273748890S06000367WA0111001167000000000000
B1905313748836S06000295WA0110501163000000000000
B1905353748766S06000246WA0109601149000000000000
B1905393748682S06000224WA0108301136000000000000
B1905433748593S06000225WA0107301129000000000000
B1905473748504S06000242WA0106701123000000000000
B1905513748418S06000262WA0106701134000000000000
B1905553748340S06000282WA0107201139000000000000
B1905593748261S06000306WA0107401134000000000000
B1906033748192S06000351WA0107901151000000000000
B1906073748138S06000406WA0109501164000000000000
B1906113748099S06000472WA0110801179000000000000
B1906153748079S06000542WA0111401185000000000000
B1906193748105S06000622WA0111301178000000000000
B1906233748162S06000672WA0111301186000000000000
B1906273748227S06000671WA0112001196000000000000
B1906313748262S06000611WA0113001198000000000000
B1906353748242S06000541WA0112701191000000000000
B1906393748181S06000524WA0111501182000000000000
B1906433748131S06000580WA0111501189000000000000
B1906473748116S06000659WA0112301196000000000000
B1906513748136S06000740WA0112601195000000000000
B1906553748190S06000796WA0112701202000000000000
B1906593748254S06000808WA0113401209000000000000
B1907033748296S06000757WA0113601204000000000000
B1907073748284S06000679WA0112701193000000000000
B1907113748233S06000618WA0112001195000000000000
B1907153748166S06000580WA0112501193000000000000
B1907193748094S06000550WA0112301192000000000000
B1907233748020S06000527WA0112501198000000000000
B1907273747949S06000510WA0113001204000000000000
B1907313747884S06000499WA0114501227000000000000
B1907353747830S06000529WA0116201236000000000000
B1907393747835S06000611WA0116601235000000000000
B1907433747900S06000635WA0116601237000000000000
B1907473747941S06000574WA0116401234000000000000
B1907513747916S06000497WA0116201243000000000000
B1907553747874S06000444WA0117501252000000000000
B1907593747817S06000433WA0118201255000000000000
B1908033747755S06000453WA0117601236000000000000
B1908073747679S06000457WA0115201213000000000000
B1908113747599S06000437WA0113001193000000000000
B1908153747516S06000406WA0112101183000000000000
B1908193747435S06000366WA0111401177000000000000
B1908233747353S06000327WA0110801170000000000000
B1908273747273S06000286WA0110401171000000000000
B1908313747196S06000246WA0109901172000000000000
B1908353747130S06000200WA0111001189000000000000
B1908393747072S06000158WA0112501198000000000000
B1908433747016S06000112WA0112501188000000000000
B1908473746959S06000059WA0110801163000000000000
B1908513746896S06000003WA0109001147000000000000
B1908553746829S05959951WA0107901145000000000000
B1908593746760S05959904WA0107201139000000000000
B1909033746691S05959862WA0107001136000000000000
B1909073746623S05959830WA0107001140000000000000
B1909113746551S05959803WA0106501130000000000000
B1909153746481S05959781WA0106401130000000000000
B1909193746409S05959758WA0106401124000000000000
B1909233746337S05959732WA0106101120000000000000
B1909273746262S05959705WA0105701117000000000000
B1909313746190S05959679WA0105301112000000000000
B1909353746113S05959654WA0104101106000000000000
B1909393746036S05959640WA0104001109000000000000
B1909433745958S05959640WA0104001106000000000000
B1909473745882S05959638WA0103901110000000000000
B1909513745811S05959634WA0105401126000000000000
B1909553745749S05959631WA0107001136000000000000
B1909593745690S05959627WA0107101136000000000000
B1910033745627S05959634WA0106901133000000000000
B1910073745567S05959628WA0107101134000000000000
B1910113745515S05959589WA0106701133000000000000
B1910153745466S05959550WA0106801126000000000000
B1910193745406S05959511WA0105401111000000000000
B1910233745341S05959475WA0105301126000000000000
B1910273745290S05959448WA0107901157000000000000
B1910313745243S05959479WA0109201161000000000000
B1910353745248S05959562WA0109301162000000000000
B1910393745313S05959595WA0109601167000000000000
B1910433745365S05959541WA0109001155000000000000
B1910473745352S05959465WA0108601157000000000000
B1910513745306S05959420WA0108701154000000000000
B1910553745247S05959391WA0108101145000000000000
B1910593745185S05959372WA0108201151000000000000
B1911033745124S05959359WA0108801158000000000000
B1911073745064S05959353WA0109201164000000000000
B1911113745007S05959350WA0109701165000000000000
B1911153744944S05959350WA0109001152000000000000
B1911193744874S05959345WA0108501148000000000000
B1911233744803S05959341WA0108501159000000000000
B1911273744739S05959341WA0110601189000000000000
B1911313744702S05959402WA0112601199000000000000
B1911353744747S05959467WA0113001200000000000000
B1911393744797S05959424WA0113901214000000000000
B1911433744769S05959358WA0115001222000000000000
B1911473744709S05959389WA0115901231000000000000
B1911513744723S05959475WA0116601237000000000000
B1911553744791S05959478WA0117201241000000000000
B1911593744801S05959406WA0118801259000000000000
B1912033744744S05959379WA0119601266000000000000
B1912073744712S05959450WA0120401274000000000000
B1912113744753S05959522WA0120701274000000000000
B1912153744823S05959505WA0121301282000000000000
B1912193744842S05959435WA0123001297000000000000
B1912233744790S05959400WA0124001310000000000000
B1912273744749S05959463WA0124401312000000000000
B1912313744791S05959537WA0124501320000000000000
B1912353744858S05959545WA0125701339000000000000
B1912393744896S05959487WA0127201348000000000000
B1912433744860S05959427WA0128101360000000000000
B1912473744809S05959478WA0129301372000000000000
B1912513744842S05959554WA0129601377000000000000
B1912553744908S05959532WA0130401386000000000000
B1912593744914S05959454WA0131801404000000000000
B1913033744858S05959439WA0133301415000000000000
B1913073744832S05959513WA0133901413000000000000
B1913113744890S05959566WA0134101427000000000000
B1913153744947S05959522WA0135501440000000000000
B1913193744935S05959446WA0136701451000000000000
B1913233744877S05959441WA0137701459000000000000
B1913273744843S05959509WA0138101463000000000000
B1913313744862S05959589WA0138701471000000000000
B1913353744916S05959635WA0139801486000000000000
B1913393744966S05959596WA0140801488000000000000
B1913433744961S05959519WA0140501485000000000000
B1913473744921S05959459WA0140601492000000000000
B1913513744873S05959406WA0140801484000000000000
B1913553744821S05959339WA0139801463000000000000
B1913593744770S05959257WA0137901446000000000000
B1914033744718S05959166WA0136401434000000000000
B1914073744667S05959071WA0135501427000000000000
B1914113744619S05958973WA0135201425000000000000
B1914153744572S05958876WA0134801417000000000000
B1914193744530S05958778WA0134501418000000000000
B1914233744492S05958682WA0134101413000000000000
B1914273744455S05958585WA0133601405000000000000
B1914313744422S05958486WA0133401407000000000000
B1914353744397S05958380WA0133401404000000000000
B1914393744376S05958274WA0132601395000000000000
B1914433744358S05958167WA0132201394000000000000
B1914473744342S05958061WA0131901389000000000000
B1914513744328S05957954WA0131301384000000000000
B1914553744315S05957847WA0130901380000000000000
B1914593744302S05957741WA0130301374000000000000
B1915033744286S05957638WA0130801397000000000000
B1915073744275S05957550WA0133501422000000000000
B1915113744250S05957474WA0135101430000000000000
B1915153744211S05957405WA0135201415000000000000
B1915193744160S05957331WA0133701399000000000000
B1915233744101S05957255WA0132001387000000000000
B1915273744039S05957179WA0131501396000000000000
B1915313743980S05957108WA0131801407000000000000
B1915353743932S05957048WA0134501444000000000000
B1915393743895S05957001WA0137501460000000000000
B1915433743855S05956958WA0137701444000000000000
B1915473743800S05956909WA0135401419000000000000
B1915513743733S05956857WA0133901415000000000000
B1915553743662S05956807WA0134401433000000000000
B1915593743599S05956770WA0137201460000000000000
B1916033743540S05956752WA0139101481000000000000
B1916073743497S05956806WA0140501487000000000000
B1916113743526S05956884WA0141001488000000000000
B1916153743599S05956882WA0140801489000000000000
B1916193743634S05956806WA0141201500000000000000
B1916233743648S05956731WA0142401510000000000000
B1916273743629S05956654WA0142901515000000000000
B1916313743597S05956590WA0143401515000000000000
B1916353743545S05956544WA0142901503000000000000
B1916393743483S05956497WA0140701479000000000000
B1916433743412S05956443WA0139401464000000000000
B1916473743340S05956385WA0137801455000000000000
B1916513743267S05956326WA0136901449000000000000
B1916553743194S05956273WA0136801449000000000000
B1916593743120S05956220WA0135901429000000000000
B1917033743045S05956163WA0134801416000000000000
B1917073742967S05956105WA0133401400000000000000
B1917113742888S05956047WA0132101390000000000000
B1917153742811S05955985WA0131501384000000000000
B1917193742736S05955926WA0131001379000000000000
B1917233742661S05955866WA0130601370000000000000
B1917273742587S05955805WA0129701362000000000000
B1917313742513S05955743WA0128801355000000000000
B1917353742439S05955679WA0128301350000000000000
B1917393742366S05955617WA0128001347000000000000
B1917433742294S05955556WA0127601341000000000000
B1917473742222S05955496WA0127101339000000000000
B1917513742151S05955437WA0126701332000000000000
B1917553742078S05955377WA0125901320000000000000
B1917593742004S05955318WA0124701306000000000000
B1918033741927S05955258WA0123901306000000000000
B1918073741849S05955199WA0123401296000000000000
B1918113741770S05955138WA0122401286000000000000
B1918153741690S05955078WA0121801282000000000000
B1918193741614S05955013WA0121301274000000000000
B1918233741540S05954947WA0121301278000000000000
B1918273741471S05954877WA0121501285000000000000
B1918313741402S05954811WA0121601274000000000000
B1918353741326S05954750WA0120801270000000000000
B1918393741247S05954699WA0121101290000000000000
B1918433741176S05954655WA0123001311000000000000
B1918473741113S05954620WA0125401334000000000000
B1918513741057S05954590WA0127201349000000000000
B1918553740999S05954562WA0127201334000000000000
B1918593740927S05954534WA0125901324000000000000
B1919033740848S05954505WA0126101336000000000000
B1919073740774S05954478WA0127701352000000000000
B1919113740702S05954453WA0128301352000000000000
B1919153740630S05954428WA0127501336000000000000
B1919193740549S05954406WA0125901325000000000000
B1919233740466S05954386WA0125501325000000000000
B1919273740379S05954369WA0124501315000000000000
B1919313740289S05954358WA0123601309000000000000
B1919353740201S05954343WA0123301309000000000000
B1919393740116S05954322WA0123301307000000000000
B1919433740030S05954298WA0122701301000000000000
B1919473739946S05954276WA0122601295000000000000
B1919513739860S05954253WA0121601286000000000000
B1919553739778S05954226WA0121301292000000000000
B1919593739704S05954198WA0122201300000000000000
B1920033739630S05954171WA0122201293000000000000
B1920073739554S05954140WA0122301290000000000000
B1920113739478S05954105WA0122001285000000000000
B1920153739404S05954067WA0122201305000000000000
B1920193739346S05954031WA0124501324000000000000
B1920233739296S05953990WA0125701318000000000000
B1920273739232S05953960WA0124201302000000000000
B1920313739157S05953941WA0122401284000000000000
B1920353739079S05953920WA0120801273000000000000
B1920393738998S05953889WA0120001262000000000000
B1920433738919S05953850WA0119301261000000000000
B1920473738843S05953810WA0119601263000000000000
B1920513738771S05953764WA0119401257000000000000
B1920553738700S05953717WA0119501277000000000000
B1920593738642S05953677WA0122001303000000000000
B1921033738585S05953654WA0123501306000000000000
B1921073738525S05953630WA0122901290000000000000
B1921113738456S05953598WA0120901265000000000000
B1921153738375S05953556WA0118901243000000000000
B1921193738292S05953511WA0117601236000000000000
B1921233738209S05953464WA0116701226000000000000
B1921273738124S05953418WA0115901220000000000000
B1921313738043S05953370WA0115101209000000000000
B1921353737961S05953321WA0114301203000000000000
B1921393737880S05953273WA0113501193000000000000
B1921433737798S05953225WA0112501184000000000000
B1921473737716S05953178WA0111601176000000000000
B1921513737633S05953134WA0111001169000000000000
B1921553737551S05953088WA0110401165000000000000
B1921593737469S05953043WA0109901157000000000000
B1922033737389S05952996WA0109301156000000000000
B1922073737311S05952950WA0109301154000000000000
B1922113737233S05952905WA0109001148000000000000
B1922153737153S05952859WA0108501146000000000000
B1922193737075S05952810WA0108301143000000000000
B1922233736999S05952759WA0108201154000000000000
B1922273736932S05952718WA0110301186000000000000
B1922313736876S05952686WA0113101214000000000000
B1922353736832S05952654WA0115301225000000000000
B1922393736795S05952610WA0116301237000000000000
B1922433736814S05952542WA0117401249000000000000
B1922473736880S05952541WA0118501256000000000000
B1922513736909S05952627WA0118401253000000000000
B1922553736862S05952698WA0118501267000000000000
B1922593736808S05952727WA0120401285000000000000
B1923033736774S05952672WA0122001300000000000000
B1923073736827S05952631WA0122801310000000000000
B1923113736866S05952702WA0124001319000000000000
B1923153736815S05952757WA0124301328000000000000
B1923193736774S05952707WA0125901339000000000000
B1923233736828S05952658WA0127101344000000000000
B1923273736871S05952736WA0128101355000000000000
B1923313736821S05952777WA0129501372000000000000
B1923353736801S05952711WA0130401377000000000000
B1923393736874S05952698WA0131401392000000000000
B1923433736886S05952792WA0132601406000000000000
B1923473736828S05952798WA0134401423000000000000
B1923513736832S05952722WA0135301432000000000000
B1923553736902S05952725WA0136701446000000000000
B1923593736913S05952816WA0137401450000000000000
B1924033736860S05952820WA0138401469000000000000
B1924073736857S05952757WA0139601475000000000000
B1924113736928S05952785WA0140401480000000000000
B1924153736904S05952867WA0141201494000000000000
B1924193736857S05952826WA0142901505000000000000
B1924233736897S05952763WA0144201517000000000000
B1924273736957S05952802WA0145601532000000000000
B1924313736939S05952878WA0146601541000000000000
B1924353736889S05952850WA0147401554000000000000
B1924393736923S05952785WA0148801568000000000000
B1924433736983S05952828WA0149701575000000000000
B1924473736967S05952905WA0150701591000000000000
B1924513736914S05952922WA0151801599000000000000
B1924553736899S05952854WA0152601608000000000000
B1924593736966S05952826WA0153501618000000000000
B1925033736999S05952910WA0154201625000000000000
B1925073736948S05952963WA0155501643000000000000
B1925113736895S05952950WA0157301654000000000000
B1925153736893S05952883WA0158201666000000000000
B1925193736980S05952881WA0159101682000000000000
B1925233736987S05952970WA0160501690000000000000
B1925273736926S05952993WA0161101702000000000000
B1925313736909S05952919WA0162301713000000000000
B1925353736977S05952894WA0163401724000000000000
B1925393737006S05952979WA0164401740000000000000
B1925433736961S05953035WA0166001760000000000000
B1925473736925S05952982WA0167601773000000000000
B1925513736973S05952931WA0168501779000000000000
B1925553737031S05952987WA0169201784000000000000
B1925593736995S05953060WA0170201799000000000000
B1926033736934S05953058WA0171201816000000000000
B1926073736918S05952992WA0172701828000000000000
B1926113736982S05952956WA0173201819000000000000
B1926153737043S05953026WA0173001834000000000000
B1926193737009S05953101WA0175401859000000000000
B1926233736951S05953122WA0176501858000000000000
B1926273736919S05953058WA0176801871000000000000
B1926313736970S05953006WA0178101880000000000000
B1926353737034S05953053WA0178701881000000000000
B1926393737027S05953149WA0179201894000000000000
B1926433736978S05953209WA0180401900000000000000
B1926473736913S05953238WA0180701898000000000000
B1926513736843S05953234WA0180401896000000000000
B1926553736774S05953217WA0180401894000000000000
B1926593736700S05953197WA0180301887000000000000
B1927033736622S05953177WA0180101886000000000000
B1927073736540S05953160WA0179501883000000000000
B1927113736458S05953145WA0180401899000000000000
B1927153736389S05953130WA0182401922000000000000
B1927193736319S05953115WA0182801914000000000000
B1927233736242S05953101WA0182101902000000000000
B1927273736159S05953088WA0181101889000000000000
B1927313736073S05953079WA0179901880000000000000
B1927353735986S05953074WA0178801864000000000000
B1927393735895S05953070WA0177301857000000000000
B1927433735804S05953060WA0176501845000000000000
B1927473735710S05953044WA0175101832000000000000
B1927513735618S05953022WA0174201826000000000000
B1927553735528S05952995WA0173901824000000000000
B1927593735441S05952963WA0173601820000000000000
B1928033735355S05952928WA0173201815000000000000
B1928073735270S05952894WA0172701808000000000000
B1928113735185S05952862WA0172001803000000000000
B1928153735099S05952829WA0171201794000000000000
B1928193735014S05952797WA0170601787000000000000
B1928233734926S05952764WA0169701777000000000000
B1928273734838S05952733WA0169001769000000000000
B1928313734750S05952703WA0168001761000000000000
B1928353734660S05952677WA0167801766000000000000
B1928393734585S05952659WA0169801816000000000000
B1928433734534S05952625WA0173901839000000000000
B1928473734538S05952556WA0175501850000000000000
B1928513734604S05952547WA0175801851000000000000
B1928553734642S05952628WA0176201854000000000000
B1928593734624S05952723WA0176301853000000000000
B1929033734575S05952792WA0176401857000000000000
B1929073734510S05952829WA0176301848000000000000
B1929113734438S05952858WA0174701821000000000000
B1929153734354S05952884WA0172001795000000000000
B1929193734266S05952904WA0169801775000000000000
B1929233734172S05952920WA0168101764000000000000
B1929273734080S05952937WA0167301757000000000000
B1929313733988S05952953WA0166801755000000000000
B1929353733896S05952969WA0166501748000000000000
B1929393733805S05952984WA0165901747000000000000
B1929433733720S05953009WA0166101746000000000000
B1929473733646S05953065WA0166301750000000000000
B1929513733607S05953164WA0166401751000000000000
B1929553733590S05953274WA0165301743000000000000
B1929593733600S05953398WA0163501720000000000000
B1930033733621S05953525WA0161201695000000000000
B1930073733642S05953658WA0159201676000000000000
B1930113733662S05953793WA0157801666000000000000
B1930153733680S05953931WA0156901655000000000000
B1930193733693S05954067WA0156401652000000000000
B1930233733703S05954204WA0156001641000000000000
B1930273733712S05954339WA0155601637000000000000
B1930313733717S05954473WA0154801627000000000000
B1930353733719S05954607WA0153901617000000000000
B1930393733720S05954740WA0152801605000000000000
