ACAM4IR
HFDTE130125
HFFXA050
HFPLTPILOT:DINO GHIONI             
HFGTYGLIDERTYPE:LS-4        
HFGIDGLIDERID:KC          
HFDTM100GPSDATUM:
HFRFWFIRMWAREVERSION:F2.6
HFRHWHARDWAREVERSION:300 Series Version 2
HFFTYFRTYPE:CAMBRIDGE AERO INSTRUMENTS, 302+
HFGPS:GARMIN,LVS-25,12,18000
HFPRSPRESSALTSENSOR:INTERSEMA, MS5534-AP, 20000
I033638FXA3941ENL4247REX
LCAMSBVER:5FWVER:F26300
C021223160536021223000102
C0000000N00000000WTAKEOFF     
C3526206S06253971WHARAS       
C3602217S06316383WLAS 3 MARIAS
C3600901S06241720WC.P.T.LAUQUE
C3530355S06259367W1-CLUB      
C0000000N00000000WLANDING     
B1658023801952S06007863WA0022500192000000000000
B1658043801952S06007863WA0022500192000000000000
B1658063801952S06007863WA0022500192000000000000
B1658083801952S06007863WA0022500192000000000000
B1658103801952S06007863WA0022500192000000000000
B1658123801952S06007863WA0022600192000000000000
B1658143801952S06007863WA0022600192000000000000
B1658163801952S06007863WA0022600192000000000000
B1658183801952S06007863WA0022500192000000000000
B1658203801952S06007863WA0022500192000000000000
B1658223801952S06007863WA0022500191000000000000
B1658243801952S06007863WA0022500191000000000000
B1658263801952S06007863WA0022500191000000000000
B1658283801951S06007867WA0022400191000000000000
B1658303801947S06007873WA0022400191000000000000
B1658333801938S06007887WA0022300190000000000000
B1658373801921S06007915WA0022100191000000000000
B1658413801894S06007951WA0022000190000000000000
B1658453801860S06007995WA0021800190000000000000
B1658493801823S06008049WA0022000193000000000000
B1658533801783S06008104WA0022400204000000000000
B1658573801747S06008158WA0023600219000000000000
B1659013801710S06008207WA0025000232000000000000
B1659053801677S06008258WA0026400244000000000000
B1659093801644S06008314WA0027400253000000000000
B1659133801617S06008380WA0028000259000000000000
B1659173801600S06008450WA0029000273000000000000
B1659213801588S06008519WA0030600291000000000000
B1659253801588S06008588WA0032200306000000000000
B1659293801593S06008656WA0033500321000000000000
B1659333801609S06008725WA0034800331000000000000
B1659373801625S06008797WA0035700341000000000000
B1659413801647S06008869WA0036600352000000000000
B1659453801664S06008940WA0037400363000000000000
B1659493801682S06009013WA0038100369000000000000
B1659533801700S06009087WA0038700371000000000000
B1659573801716S06009161WA0039200380000000000000
B1700013801729S06009237WA0040000388000000000000
B1700053801740S06009316WA0041000396000000000000
B1700093801751S06009393WA0042000410000000000000
B1700133801761S06009467WA0043300422000000000000
B1700173801774S06009545WA0044300434000000000000
B1700213801784S06009619WA0045400454000000000000
B1700253801790S06009693WA0047300473000000000000
B1700293801796S06009763WA0049200490000000000000
B1700333801800S06009832WA0050500499000000000000
B1700373801790S06009902WA0050900502000000000000
B1700413801768S06009965WA0051400506000000000000
B1700453801740S06010019WA0052300519000000000000
B1700493801705S06010070WA0053000522000000000000
B1700533801664S06010112WA0053500529000000000000
B1700573801619S06010143WA0054100537000000000000
B1701013801571S06010169WA0054900548000000000000
B1701053801519S06010182WA0056100560000000000000
B1701093801465S06010183WA0056900564000000000000
B1701133801407S06010169WA0057500578000000000000
B1701173801352S06010148WA0059000594000000000000
B1701213801297S06010112WA0060700612000000000000
B1701253801240S06010066WA0062200623000000000000
B1701293801188S06010001WA0063600643000000000000
B1701333801145S06009937WA0065400668000000000000
B1701373801101S06009880WA0067900693000000000000
B1701413801054S06009826WA0070100711000000000000
B1701453801007S06009832WA0070700710000000000000
B1701493801016S06009898WA0070900711000000000000
B1701533801085S06009927WA0071300717000000000000
B1701573801157S06009884WA0071400716000000000000
B1702013801193S06009796WA0071700721000000000000
B1702053801199S06009702WA0071800723000000000000
B1702093801201S06009610WA0071700713000000000000
B1702133801196S06009516WA0070700711000000000000
B1702173801190S06009428WA0070900714000000000000
B1702213801181S06009341WA0070500697000000000000
B1702253801175S06009248WA0069100684000000000000
B1702293801168S06009154WA0067800671000000000000
B1702333801164S06009057WA0066900667000000000000
B1702373801159S06008964WA0067100674000000000000
B1702413801153S06008875WA0067800680000000000000
B1702453801136S06008793WA0068000676000000000000
B1702493801115S06008714WA0067300670000000000000
B1702533801108S06008624WA0067000670000000000000
B1702573801110S06008532WA0067200672000000000000
B1703013801120S06008440WA0067100670000000000000
B1703053801141S06008348WA0067300676000000000000
B1703093801167S06008260WA0067700678000000000000
B1703133801192S06008172WA0068000680000000000000
B1703173801211S06008085WA0069000694000000000000
B1703213801194S06008008WA0069500701000000000000
B1703253801146S06007991WA0070100704000000000000
B1703293801129S06008041WA0070000704000000000000
B1703333801172S06008093WA0070300707000000000000
B1703373801238S06008103WA0070900713000000000000
B1703413801309S06008107WA0071000713000000000000
B1703453801381S06008088WA0071700727000000000000
B1703493801423S06008013WA0072700735000000000000
B1703533801401S06007941WA0072900734000000000000
B1703573801355S06007961WA0073500742000000000000
B1704013801370S06008032WA0074500758000000000000
B1704053801441S06008049WA0076100774000000000000
B1704093801497S06007985WA0077000782000000000000
B1704133801492S06007904WA0077900790000000000000
B1704173801452S06007891WA0078800796000000000000
B1704213801450S06007955WA0079800807000000000000
B1704253801519S06007987WA0080600820000000000000
B1704293801588S06007958WA0081600826000000000000
B1704333801566S06007846WA0082500837000000000000
B1704373801521S06007842WA0083600850000000000000
B1704413801515S06007902WA0084400860000000000000
B1704453801576S06007942WA0085700874000000000000
B1704493801643S06007887WA0086700883000000000000
B1704533801643S06007800WA0087600892000000000000
B1704573801599S06007776WA0088800906000000000000
B1705013801578S06007828WA0089300913000000000000
B1705053801619S06007887WA0090400926000000000000
B1705093801696S06007883WA0091000929000000000000
B1705133801740S06007800WA0091800941000000000000
B1705173801726S06007720WA0092900949000000000000
B1705213801679S06007704WA0093900960000000000000
B1705253801662S06007760WA0094500972000000000000
B1705293801713S06007812WA0095700978000000000000
B1705333801792S06007787WA0096000982000000000000
B1705373801829S06007696WA0097000994000000000000
B1705413801808S06007616WA0097701001000000000000
B1705453801760S06007597WA0098501007000000000000
B1705493801738S06007656WA0099101016000000000000
B1705533801756S06007725WA0099901023000000000000
B1705573801827S06007750WA0100701032000000000000
B1706013801896S06007696WA0101301036000000000000
B1706053801914S06007607WA0102401050000000000000
B1706093801873S06007561WA0103201059000000000000
B1706133801838S06007599WA0103901065000000000000
B1706173801865S06007669WA0104601073000000000000
B1706213801943S06007679WA0105101078000000000000
B1706253802003S06007614WA0105701088000000000000
B1706293802005S06007526WA0106601097000000000000
B1706333801964S06007480WA0107101102000000000000
B1706373801927S06007517WA0107701106000000000000
B1706413801951S06007586WA0108301117000000000000
B1706453802016S06007610WA0109001121000000000000
B1706493802083S06007552WA0109201125000000000000
B1706533802103S06007458WA0110001129000000000000
B1706573802078S06007378WA0110101133000000000000
B1707013802029S06007350WA0110801145000000000000
B1707053802000S06007396WA0112501159000000000000
B1707093802033S06007461WA0113101159000000000000
B1707133802113S06007469WA0112901156000000000000
B1707173802178S06007404WA0113001161000000000000
B1707213802194S06007304WA0113501165000000000000
B1707253802167S06007220WA0114301176000000000000
B1707293802119S06007184WA0115901188000000000000
B1707333802082S06007226WA0116901197000000000000
B1707373802108S06007296WA0117201199000000000000
B1707413802186S06007323WA0116801193000000000000
B1707453802260S06007263WA0117401201000000000000
B1707493802278S06007165WA0118101212000000000000
B1707533802260S06007079WA0119101228000000000000
B1707573802215S06007038WA0120401234000000000000
B1708013802177S06007081WA0120201229000000000000
B1708053802216S06007152WA0120701250000000000000
B1708093802291S06007150WA0122501261000000000000
B1708133802333S06007068WA0123301270000000000000
B1708173802314S06006985WA0124401284000000000000
B1708213802263S06006984WA0125201283000000000000
B1708253802251S06007051WA0125201292000000000000
B1708293802303S06007103WA0126401300000000000000
B1708333802384S06007093WA0126501298000000000000
B1708373802431S06007010WA0127101315000000000000
B1708413802428S06006916WA0128501326000000000000
B1708453802386S06006859WA0129401331000000000000
B1708493802332S06006845WA0129401325000000000000
B1708533802272S06006841WA0129301331000000000000
B1708573802213S06006847WA0129001321000000000000
B1709013802154S06006866WA0127501303000000000000
B1709053802091S06006892WA0126101294000000000000
B1709093802028S06006916WA0125501285000000000000
B1709133801963S06006942WA0124601274000000000000
B1709173801898S06006966WA0123601263000000000000
B1709213801830S06006983WA0122901268000000000000
B1709253801765S06006990WA0123201266000000000000
B1709293801700S06006985WA0123601273000000000000
B1709333801636S06006973WA0124301278000000000000
B1709373801575S06006958WA0125001289000000000000
B1709413801517S06006942WA0126201300000000000000
B1709453801461S06006936WA0127001312000000000000
B1709493801426S06006983WA0127801312000000000000
B1709533801444S06007055WA0128101319000000000000
B1709573801515S06007084WA0128901326000000000000
B1710013801592S06007037WA0128501314000000000000
B1710053801631S06006937WA0128101321000000000000
B1710093801638S06006834WA0129301338000000000000
B1710133801599S06006773WA0130601348000000000000
B1710173801557S06006799WA0131601353000000000000
B1710213801575S06006866WA0132101359000000000000
B1710253801648S06006886WA0132301368000000000000
B1710293801721S06006828WA0132901374000000000000
B1710333801738S06006726WA0134001386000000000000
B1710373801700S06006654WA0134501389000000000000
B1710413801648S06006651WA0135101396000000000000
B1710453801644S06006711WA0136001403000000000000
B1710493801706S06006750WA0135901401000000000000
B1710533801787S06006711WA0136101405000000000000
B1710573801818S06006613WA0137001415000000000000
B1711013801786S06006535WA0137601417000000000000
B1711053801731S06006535WA0137701414000000000000
B1711093801710S06006589WA0138001420000000000000
B1711133801748S06006646WA0138401425000000000000
B1711173801827S06006654WA0138701426000000000000
B1711213801895S06006586WA0138901428000000000000
B1711253801904S06006477WA0139101435000000000000
B1711293801859S06006413WA0140001444000000000000
B1711333801807S06006418WA0140201441000000000000
B1711373801791S06006477WA0140301442000000000000
B1711413801813S06006544WA0140301448000000000000
B1711453801865S06006594WA0141001450000000000000
B1711493801947S06006583WA0141501460000000000000
B1711533801998S06006509WA0142001464000000000000
B1711573801965S06006385WA0142401467000000000000
B1712013801912S06006374WA0142501471000000000000
B1712053801898S06006437WA0143201480000000000000
B1712093801953S06006491WA0143801483000000000000
B1712133802035S06006473WA0144401495000000000000
B1712173802086S06006392WA0145201499000000000000
B1712213802069S06006301WA0145501502000000000000
B1712253802013S06006278WA0145501499000000000000
B1712293801961S06006294WA0145401500000000000000
B1712333801909S06006308WA0145501502000000000000
B1712373801859S06006321WA0145501494000000000000
B1712413801804S06006335WA0145001486000000000000
B1712453801747S06006348WA0144401486000000000000
B1712493801691S06006360WA0144201483000000000000
B1712533801635S06006372WA0144101486000000000000
B1712573801583S06006382WA0144701489000000000000
B1713013801534S06006392WA0145501501000000000000
B1713053801484S06006399WA0146101505000000000000
B1713093801439S06006408WA0147001519000000000000
B1713133801428S06006464WA0147401513000000000000
B1713173801489S06006503WA0146901509000000000000
B1713213801558S06006461WA0146601509000000000000
B1713253801570S06006360WA0146301512000000000000
B1713293801531S06006290WA0146501514000000000000
B1713333801478S06006255WA0147401528000000000000
B1713373801426S06006225WA0148601544000000000000
B1713413801375S06006214WA0150201556000000000000
B1713453801353S06006264WA0150701559000000000000
B1713493801402S06006316WA0151401572000000000000
B1713533801478S06006288WA0152301572000000000000
B1713573801504S06006192WA0152101571000000000000
B1714013801463S06006119WA0152701586000000000000
B1714053801410S06006093WA0154001595000000000000
B1714093801365S06006118WA0155101602000000000000
B1714133801362S06006186WA0155201600000000000000
B1714173801419S06006235WA0155801613000000000000
B1714213801492S06006187WA0157101630000000000000
B1714253801492S06006088WA0158401642000000000000
B1714293801437S06006058WA0159401657000000000000
B1714333801405S06006101WA0160101652000000000000
B1714373801435S06006169WA0160101663000000000000
B1714413801511S06006179WA0161201674000000000000
B1714453801578S06006119WA0162101682000000000000
B1714493801587S06006018WA0163101696000000000000
B1714533801539S06005965WA0164801712000000000000
B1714573801500S06006000WA0165301710000000000000
B1715013801527S06006069WA0165601716000000000000
B1715053801602S06006084WA0166701730000000000000
B1715093801674S06006034WA0167401736000000000000
B1715133801697S06005935WA0168001736000000000000
B1715173801660S06005850WA0168401752000000000000
B1715213801605S06005844WA0169701760000000000000
B1715253801597S06005911WA0169701754000000000000
B1715293801660S06005963WA0169901762000000000000
B1715333801739S06005944WA0171801785000000000000
B1715373801794S06005867WA0172601787000000000000
B1715413801800S06005766WA0173001796000000000000
B1715453801749S06005725WA0174501812000000000000
B1715493801705S06005750WA0175201814000000000000
B1715533801699S06005813WA0175101805000000000000
B1715573801740S06005878WA0175201813000000000000
B1716013801816S06005900WA0176201827000000000000
B1716053801895S06005867WA0176901826000000000000
B1716093801946S06005781WA0177001825000000000000
B1716133801940S06005684WA0176701826000000000000
B1716173801894S06005623WA0176901833000000000000
B1716213801839S06005614WA0178601852000000000000
B1716253801800S06005653WA0179301850000000000000
B1716293801812S06005728WA0179101852000000000000
B1716333801875S06005779WA0179801868000000000000
B1716373801959S06005768WA0180701875000000000000
B1716413802016S06005683WA0181701876000000000000
B1716453802024S06005581WA0181701880000000000000
B1716493801999S06005501WA0182201885000000000000
B1716533801946S06005481WA0183001899000000000000
B1716573801896S06005495WA0183901898000000000000
B1717013801874S06005555WA0182901889000000000000
B1717053801901S06005629WA0182801893000000000000
B1717093801968S06005680WA0183301905000000000000
B1717133802054S06005676WA0184401913000000000000
B1717173802129S06005618WA0185101913000000000000
B1717213802169S06005519WA0184501906000000000000
B1717253802148S06005423WA0184701903000000000000
B1717293802093S06005369WA0184501903000000000000
B1717333802030S06005347WA0185001914000000000000
B1717373801970S06005326WA0184801907000000000000
B1717413801908S06005322WA0184101891000000000000
B1717453801847S06005339WA0182701879000000000000
B1717493801791S06005374WA0181301872000000000000
B1717533801739S06005413WA0181201880000000000000
B1717573801690S06005450WA0181701879000000000000
B1718013801641S06005490WA0181601872000000000000
B1718053801599S06005547WA0180501861000000000000
B1718093801556S06005611WA0179601856000000000000
B1718133801513S06005675WA0179201852000000000000
B1718173801469S06005737WA0178901849000000000000
B1718213801422S06005798WA0178701848000000000000
B1718253801371S06005854WA0179001852000000000000
B1718293801322S06005909WA0179001852000000000000
B1718333801271S06005963WA0179001848000000000000
B1718373801218S06006019WA0178401840000000000000
B1718413801163S06006078WA0177801834000000000000
B1718453801107S06006134WA0177201829000000000000
B1718493801051S06006192WA0176801826000000000000
B1718533800998S06006248WA0176901823000000000000
B1718573800946S06006303WA0176201815000000000000
B1719013800894S06006357WA0175501810000000000000
B1719053800841S06006409WA0175001802000000000000
B1719093800789S06006461WA0174401799000000000000
B1719133800737S06006513WA0173901794000000000000
B1719173800687S06006570WA0173101783000000000000
B1719213800639S06006630WA0172001772000000000000
B1719253800592S06006693WA0171301764000000000000
B1719293800547S06006758WA0170301754000000000000
B1719333800501S06006827WA0169601748000000000000
B1719373800458S06006898WA0169301747000000000000
B1719413800416S06006971WA0169001745000000000000
B1719453800375S06007042WA0169001748000000000000
B1719493800335S06007111WA0169301749000000000000
B1719533800297S06007180WA0169601752000000000000
B1719573800260S06007243WA0170301757000000000000
B1720013800221S06007306WA0169801744000000000000
B1720053800176S06007376WA0168601733000000000000
B1720093800133S06007448WA0167401723000000000000
B1720133800091S06007522WA0166601719000000000000
B1720173800046S06007596WA0166301716000000000000
B1720213800005S06007669WA0166601730000000000000
B1720253759966S06007733WA0168001739000000000000
B1720293759928S06007787WA0169601760000000000000
B1720333759893S06007830WA0171001767000000000000
B1720373759855S06007870WA0171401764000000000000
B1720413759815S06007916WA0170601748000000000000
B1720453759772S06007977WA0168601728000000000000
B1720493759727S06008049WA0166701710000000000000
B1720533759684S06008127WA0164901693000000000000
B1720573759647S06008212WA0163601687000000000000
B1721013759610S06008296WA0163101683000000000000
B1721053759568S06008375WA0162601676000000000000
B1721093759526S06008454WA0161901672000000000000
B1721133759485S06008532WA0161401667000000000000
B1721173759441S06008609WA0161001660000000000000
B1721213759395S06008684WA0160301656000000000000
B1721253759350S06008757WA0160201653000000000000
B1721293759303S06008826WA0159901645000000000000
B1721333759252S06008890WA0159701640000000000000
B1721373759200S06008949WA0159001636000000000000
B1721413759145S06009005WA0158901633000000000000
B1721453759092S06009061WA0158401629000000000000
B1721493759038S06009115WA0157901622000000000000
B1721533758983S06009167WA0157401617000000000000
B1721573758928S06009216WA0157101619000000000000
B1722013758876S06009263WA0157501623000000000000
B1722053758824S06009308WA0157801622000000000000
B1722093758772S06009352WA0157401624000000000000
B1722133758722S06009395WA0157401623000000000000
B1722173758671S06009438WA0157401625000000000000
B1722213758616S06009477WA0157601632000000000000
B1722253758555S06009493WA0158601648000000000000
B1722293758498S06009498WA0160301661000000000000
B1722333758441S06009501WA0161201662000000000000
B1722373758381S06009524WA0160701656000000000000
B1722413758321S06009557WA0160701669000000000000
B1722453758280S06009599WA0162401686000000000000
B1722493758258S06009655WA0164001697000000000000
B1722533758228S06009707WA0164201690000000000000
B1722573758183S06009754WA0163101673000000000000
B1723013758129S06009796WA0160901649000000000000
B1723053758066S06009819WA0161401679000000000000
B1723093758005S06009841WA0162001671000000000000
B1723133757946S06009852WA0162601680000000000000
B1723173757886S06009861WA0162501673000000000000
B1723213757827S06009878WA0162701685000000000000
B1723253757773S06009880WA0164301707000000000000
B1723293757735S06009919WA0166801724000000000000
B1723333757774S06009983WA0168301745000000000000
B1723373757857S06009957WA0170001764000000000000
B1723413757879S06009861WA0171901787000000000000
B1723453757832S06009807WA0173901803000000000000
B1723493757793S06009849WA0175501818000000000000
B1723533757821S06009926WA0177301843000000000000
B1723573757900S06009936WA0179201853000000000000
B1724013757955S06009862WA0180301867000000000000
B1724053757944S06009767WA0181801882000000000000
B1724093757894S06009726WA0183101895000000000000
B1724133757851S06009766WA0184601915000000000000
B1724173757857S06009839WA0186901936000000000000
B1724213757923S06009874WA0187901944000000000000
B1724253757992S06009814WA0188401952000000000000
B1724293757998S06009720WA0189901969000000000000
B1724333757949S06009675WA0191001983000000000000
B1724373757908S06009724WA0192601997000000000000
B1724413757936S06009802WA0193602005000000000000
B1724453758013S06009809WA0194202016000000000000
B1724493758060S06009733WA0195502031000000000000
B1724533758043S06009645WA0196602037000000000000
B1724573757982S06009624WA0197402054000000000000
B1725013757948S06009685WA0198902065000000000000
B1725053757981S06009759WA0199602067000000000000
B1725093758057S06009766WA0199802068000000000000
B1725133758103S06009684WA0200402077000000000000
B1725173758089S06009592WA0201302087000000000000
B1725213758044S06009520WA0202102096000000000000
B1725253757979S06009495WA0202602104000000000000
B1725293757922S06009531WA0203402111000000000000
B1725333757887S06009603WA0203902104000000000000
B1725373757894S06009694WA0203202096000000000000
B1725413757946S06009767WA0201602083000000000000
B1725453758026S06009784WA0201002067000000000000
B1725493758108S06009748WA0199302051000000000000
B1725533758167S06009667WA0198802057000000000000
B1725573758195S06009570WA0199102059000000000000
B1726013758196S06009467WA0199102058000000000000
B1726053758164S06009381WA0199402064000000000000
B1726093758108S06009338WA0200102071000000000000
B1726133758048S06009333WA0200802073000000000000
B1726173757996S06009371WA0200502067000000000000
B1726213757970S06009449WA0200202062000000000000
B1726253757983S06009536WA0199602056000000000000
B1726293758040S06009599WA0198502044000000000000
B1726333758125S06009599WA0197102034000000000000
B1726373758204S06009536WA0195802028000000000000
B1726413758248S06009443WA0195202024000000000000
B1726453758259S06009338WA0195202024000000000000
B1726493758234S06009242WA0195702033000000000000
B1726533758193S06009163WA0196202031000000000000
B1726573758135S06009113WA0196102032000000000000
B1727013758070S06009111WA0196302031000000000000
B1727053758021S06009163WA0195902025000000000000
B1727093758009S06009246WA0195102011000000000000
B1727133758053S06009323WA0194702013000000000000
B1727173758130S06009360WA0193701997000000000000
B1727213758217S06009352WA0192401981000000000000
B1727253758304S06009319WA0191601982000000000000
B1727293758393S06009284WA0192101992000000000000
B1727333758481S06009243WA0192701994000000000000
B1727373758570S06009199WA0192901994000000000000
B1727413758659S06009157WA0192801990000000000000
B1727453758752S06009117WA0192201984000000000000
B1727493758841S06009078WA0191901980000000000000
B1727533758931S06009046WA0191601978000000000000
B1727573759018S06009012WA0191301974000000000000
B1728013759105S06008978WA0190701963000000000000
B1728053759192S06008960WA0190501970000000000000
B1728093759275S06008953WA0190801964000000000000
B1728133759356S06008913WA0190001956000000000000
B1728173759431S06008829WA0189801953000000000000
B1728213759464S06008736WA0190501964000000000000
B1728253759444S06008648WA0190901968000000000000
B1728293759387S06008615WA0191001969000000000000
B1728333759340S06008656WA0191101975000000000000
B1728373759344S06008734WA0191401975000000000000
B1728413759404S06008791WA0191501977000000000000
B1728453759485S06008796WA0191101975000000000000
B1728493759560S06008758WA0191401978000000000000
B1728533759599S06008674WA0191401977000000000000
B1728573759602S06008580WA0191401979000000000000
B1729013759565S06008509WA0191701982000000000000
B1729053759513S06008470WA0192001984000000000000
B1729093759460S06008479WA0191901985000000000000
B1729133759433S06008537WA0191901984000000000000
B1729173759464S06008609WA0192001987000000000000
B1729213759545S06008626WA0192101987000000000000
B1729253759620S06008572WA0192001984000000000000
B1729293759638S06008472WA0192601991000000000000
B1729333759599S06008402WA0192801996000000000000
B1729373759545S06008405WA0193201997000000000000
B1729413759516S06008465WA0192802000000000000000
B1729453759550S06008531WA0193602007000000000000
B1729493759626S06008537WA0194002007000000000000
B1729533759681S06008463WA0193902008000000000000
B1729573759660S06008376WA0193702004000000000000
B1730013759603S06008350WA0193201997000000000000
B1730053759559S06008398WA0192501990000000000000
B1730093759574S06008478WA0192301990000000000000
B1730133759651S06008502WA0192501991000000000000
B1730173759723S06008439WA0192301986000000000000
B1730213759730S06008332WA0192301985000000000000
B1730253759682S06008266WA0192201985000000000000
B1730293759623S06008264WA0192101982000000000000
B1730333759600S06008332WA0192001981000000000000
B1730373759647S06008400WA0192001981000000000000
B1730413759732S06008396WA0192101985000000000000
B1730453759797S06008332WA0192101985000000000000
B1730493759792S06008233WA0192201985000000000000
B1730533759736S06008184WA0192001983000000000000
B1730573759680S06008212WA0192101983000000000000
B1731013759676S06008288WA0191801983000000000000
B1731053759737S06008340WA0191301980000000000000
B1731093759819S06008312WA0191101979000000000000
B1731133759866S06008232WA0191401983000000000000
B1731173759845S06008138WA0191701986000000000000
B1731213759788S06008090WA0191701985000000000000
B1731253759728S06008058WA0191601979000000000000
B1731293759665S06008028WA0191001974000000000000
B1731333759602S06008002WA0190801974000000000000
B1731373759535S06007984WA0190101961000000000000
B1731413759467S06007968WA0189101954000000000000
B1731453759398S06007952WA0188401946000000000000
B1731493759330S06007937WA0187701942000000000000
B1731533759264S06007920WA0187801940000000000000
B1731573759197S06007907WA0187301938000000000000
B1732013759130S06007896WA0186901931000000000000
B1732053759064S06007903WA0186401925000000000000
B1732093758999S06007924WA0185701916000000000000
B1732133758934S06007950WA0184501904000000000000
B1732173758870S06007976WA0183801903000000000000
B1732213758810S06008000WA0183701900000000000000
B1732253758749S06008026WA0183301892000000000000
B1732293758688S06008052WA0182801894000000000000
B1732333758629S06008071WA0183901909000000000000
B1732373758573S06008081WA0184401904000000000000
B1732413758514S06008090WA0183701894000000000000
B1732453758453S06008095WA0183101888000000000000
B1732493758391S06008102WA0182301883000000000000
B1732533758329S06008108WA0181601872000000000000
B1732573758267S06008119WA0180501864000000000000
B1733013758206S06008117WA0180401865000000000000
B1733053758143S06008121WA0180201855000000000000
B1733093758082S06008153WA0179101847000000000000
B1733133758027S06008198WA0178501842000000000000
B1733173757974S06008249WA0177601834000000000000
B1733213757925S06008301WA0177101829000000000000
B1733253757873S06008354WA0176301820000000000000
B1733293757821S06008405WA0175501813000000000000
B1733333757771S06008459WA0175201814000000000000
B1733373757723S06008518WA0174701804000000000000
B1733413757676S06008578WA0174201800000000000000
B1733453757628S06008637WA0173601799000000000000
B1733493757580S06008695WA0173501795000000000000
B1733533757544S06008764WA0173401795000000000000
B1733573757514S06008834WA0173501794000000000000
B1734013757484S06008901WA0174101802000000000000
B1734053757449S06008957WA0174601805000000000000
B1734093757410S06009007WA0174901808000000000000
B1734133757370S06009051WA0175101806000000000000
B1734173757328S06009094WA0174801802000000000000
B1734213757283S06009137WA0174401799000000000000
B1734253757233S06009177WA0174001800000000000000
B1734293757182S06009206WA0174501808000000000000
B1734333757133S06009226WA0175101804000000000000
B1734373757077S06009238WA0173801786000000000000
B1734413757026S06009282WA0172601779000000000000
B1734453757006S06009356WA0172101775000000000000
B1734493757003S06009440WA0171501767000000000000
B1734533757004S06009520WA0170701765000000000000
B1734573756998S06009593WA0171301775000000000000
B1735013756989S06009661WA0171901777000000000000
B1735053756973S06009720WA0172201780000000000000
B1735093756958S06009781WA0172601781000000000000
B1735133756984S06009845WA0172601782000000000000
B1735173757055S06009872WA0171501766000000000000
B1735213757133S06009878WA0171001768000000000000
B1735253757210S06009882WA0171401777000000000000
B1735293757280S06009888WA0172601784000000000000
B1735333757344S06009833WA0172701781000000000000
B1735373757351S06009736WA0171701766000000000000
B1735413757301S06009684WA0170901765000000000000
B1735453757258S06009720WA0170201765000000000000
B1735493757249S06009789WA0171301782000000000000
B1735533757250S06009856WA0172501788000000000000
B1735573757299S06009905WA0171901772000000000000
B1736013757377S06009884WA0170801762000000000000
B1736053757429S06009806WA0169801758000000000000
B1736093757413S06009713WA0169901765000000000000
B1736133757359S06009663WA0170201762000000000000
B1736173757298S06009670WA0170301770000000000000
B1736213757242S06009683WA0171501780000000000000
B1736253757195S06009714WA0172301785000000000000
B1736293757211S06009781WA0172601782000000000000
B1736333757286S06009793WA0171301765000000000000
B1736373757345S06009714WA0170601765000000000000
B1736413757345S06009610WA0171301773000000000000
B1736453757312S06009524WA0171801784000000000000
B1736493757255S06009480WA0172601783000000000000
B1736533757210S06009520WA0172501777000000000000
B1736573757218S06009594WA0171501765000000000000
B1737013757241S06009671WA0170101749000000000000
B1737053757262S06009753WA0169301744000000000000
B1737093757296S06009832WA0168301734000000000000
B1737133757370S06009865WA0167901733000000000000
B1737173757450S06009845WA0167801731000000000000
B1737213757530S06009810WA0167301725000000000000
B1737253757608S06009774WA0167001723000000000000
B1737293757686S06009736WA0166601716000000000000
B1737333757764S06009696WA0165901707000000000000
B1737373757844S06009653WA0164701693000000000000
B1737413757930S06009638WA0163801689000000000000
B1737453758007S06009659WA0163701686000000000000
B1737493758079S06009693WA0163101679000000000000
B1737533758154S06009722WA0161901663000000000000
B1737573758238S06009707WA0161101657000000000000
B1738013758320S06009667WA0160201644000000000000
B1738053758397S06009606WA0159301640000000000000
B1738093758472S06009546WA0159001638000000000000
B1738133758546S06009486WA0159001640000000000000
B1738173758615S06009427WA0159301640000000000000
B1738213758681S06009363WA0159201641000000000000
B1738253758746S06009293WA0158901632000000000000
B1738293758811S06009213WA0158101628000000000000
B1738333758871S06009133WA0158301637000000000000
B1738373758926S06009043WA0158801647000000000000
B1738413758971S06008959WA0160001652000000000000
B1738453758991S06008861WA0160301653000000000000
B1738493758997S06008764WA0160401659000000000000
B1738533758984S06008676WA0160801659000000000000
B1738573758962S06008591WA0160101648000000000000
B1739013758932S06008507WA0159401639000000000000
B1739053758897S06008427WA0159101645000000000000
B1739093758863S06008350WA0159501643000000000000
B1739133758823S06008281WA0159301635000000000000
B1739173758768S06008240WA0158601630000000000000
B1739213758726S06008176WA0158201628000000000000
B1739253758726S06008084WA0158001626000000000000
B1739293758772S06008006WA0157901621000000000000
B1739333758846S06007965WA0156901609000000000000
B1739373758924S06007973WA0156201605000000000000
B1739413758984S06008020WA0156001604000000000000
B1739453759018S06008089WA0155701603000000000000
B1739493759045S06008159WA0155501598000000000000
B1739533759073S06008231WA0155101594000000000000
B1739573759093S06008302WA0155401602000000000000
B1740013759138S06008366WA0155101594000000000000
B1740053759191S06008428WA0154701590000000000000
B1740093759229S06008498WA0154401586000000000000
B1740133759279S06008562WA0154201588000000000000
B1740173759324S06008631WA0154501591000000000000
B1740213759352S06008706WA0154701593000000000000
B1740253759369S06008777WA0155201602000000000000
B1740293759383S06008847WA0155801603000000000000
B1740333759391S06008918WA0156301610000000000000
B1740373759398S06008987WA0156801612000000000000
B1740413759402S06009055WA0157001619000000000000
B1740453759412S06009122WA0157301612000000000000
B1740493759468S06009177WA0156501610000000000000
B1740533759546S06009151WA0156401607000000000000
B1740573759573S06009059WA0155801600000000000000
B1741013759541S06008983WA0154901591000000000000
B1741053759486S06008951WA0154601592000000000000
B1741093759430S06008948WA0154601593000000000000
E174111PEV
B1741113759402S06008949WA0154501588000000000000
B1741123759387S06008952WA0154401585000000000000
B1741133759373S06008953WA0154301586000000000000
B1741143759357S06008953WA0154201590000000000000
E174115PEV
B1741153759344S06008953WA0154301594000000000000
B1741163759330S06008953WA0154401599000000000000
B1741173759317S06008952WA0154701604000000000000
B1741183759303S06008952WA0155201607000000000000
B1741193759290S06008951WA0155401610000000000000
B1741203759278S06008951WA0155401612000000000000
B1741213759265S06008952WA0155801612000000000000
B1741223759252S06008959WA0156101612000000000000
B1741233759242S06008968WA0156301611000000000000
B1741243759233S06008979WA0156401609000000000000
B1741253759227S06008995WA0156401611000000000000
B1741263759226S06009016WA0156401616000000000000
B1741273759230S06009035WA0156601619000000000000
B1741283759238S06009053WA0156801620000000000000
B1741293759251S06009069WA0157001621000000000000
B1741303759268S06009081WA0157201621000000000000
B1741313759287S06009086WA0157201621000000000000
B1741353759359S06009046WA0157201617000000000000
B1741393759369S06008951WA0157801629000000000000
B1741433759325S06008901WA0158301632000000000000
B1741473759270S06008921WA0158101630000000000000
B1741513759238S06008968WA0159101645000000000000
B1741553759251S06009034WA0160501660000000000000
B1741593759322S06009060WA0161101659000000000000
B1742033759386S06008991WA0161301668000000000000
B1742073759383S06008901WA0161801668000000000000
B1742113759335S06008871WA0162401677000000000000
B1742153759303S06008918WA0162601682000000000000
B1742193759340S06008988WA0163501695000000000000
B1742233759420S06009004WA0164401699000000000000
B1742273759486S06008938WA0165301711000000000000
B1742313759498S06008847WA0165901714000000000000
B1742353759459S06008784WA0166201719000000000000
B1742393759409S06008782WA0166901725000000000000
B1742433759389S06008839WA0167501732000000000000
B1742473759438S06008899WA0168501744000000000000
B1742513759519S06008866WA0169001751000000000000
B1742553759556S06008775WA0169601753000000000000
B1742593759542S06008687WA0169901761000000000000
B1743033759502S06008639WA0170901768000000000000
B1743073759456S06008652WA0171001768000000000000
B1743113759426S06008702WA0171301776000000000000
B1743153759460S06008767WA0172101783000000000000
B1743193759541S06008760WA0172101776000000000000
B1743233759593S06008678WA0172701784000000000000
B1743273759577S06008591WA0174001794000000000000
B1743313759535S06008556WA0174901805000000000000
B1743353759504S06008602WA0174901804000000000000
B1743393759548S06008669WA0175001810000000000000
B1743433759633S06008666WA0175501812000000000000
B1743473759684S06008580WA0176201826000000000000
B1743513759664S06008496WA0177101825000000000000
B1743553759611S06008475WA0177401830000000000000
B1743593759576S06008510WA0177801832000000000000
B1744033759606S06008582WA0177901835000000000000
B1744073759689S06008595WA0178001834000000000000
B1744113759763S06008533WA0178601849000000000000
B1744153759766S06008440WA0179701852000000000000
B1744193759714S06008406WA0179501844000000000000
B1744233759673S06008442WA0179301847000000000000
B1744273759667S06008510WA0179701857000000000000
B1744313759702S06008579WA0180201862000000000000
B1744353759763S06008628WA0180601866000000000000
B1744393759844S06008589WA0181201873000000000000
B1744433759853S06008498WA0182301884000000000000
B1744473759802S06008470WA0182901885000000000000
B1744513759780S06008520WA0183301888000000000000
B1744553759828S06008583WA0183101888000000000000
B1744593759914S06008588WA0183401897000000000000
B1745033759970S06008510WA0184101901000000000000
B1745073759953S06008424WA0184201896000000000000
B1745113759894S06008414WA0183701892000000000000
B1745153759880S06008480WA0184101901000000000000
B1745193759938S06008540WA0184901906000000000000
B1745233800026S06008517WA0185401915000000000000
B1745273800067S06008427WA0185601913000000000000
B1745313800048S06008340WA0185101905000000000000
B1745353759998S06008292WA0184301898000000000000
B1745393759941S06008263WA0183801897000000000000
B1745433759886S06008273WA0184101909000000000000
B1745473759857S06008329WA0185201914000000000000
B1745513759875S06008403WA0185201908000000000000
B1745553759949S06008437WA0184201900000000000000
B1745593800024S06008387WA0184001903000000000000
B1746033800063S06008294WA0184601904000000000000
B1746073800059S06008195WA0184901908000000000000
B1746113800011S06008147WA0185301911000000000000
B1746153759961S06008158WA0185701916000000000000
B1746193759946S06008221WA0186301921000000000000
B1746233759975S06008293WA0186001913000000000000
B1746273800050S06008324WA0185201906000000000000
B1746313800132S06008294WA0185101914000000000000
B1746353800191S06008216WA0185701923000000000000
B1746393800208S06008117WA0185601908000000000000
B1746433800169S06008042WA0184301903000000000000
B1746473800114S06008011WA0184001902000000000000
B1746513800059S06007999WA0184001900000000000000
B1746553800003S06008003WA0184401909000000000000
B1746593759975S06008054WA0184901913000000000000
B1747033759998S06008128WA0184401904000000000000
B1747073800068S06008166WA0184001907000000000000
B1747113800148S06008141WA0184001899000000000000
B1747153800206S06008065WA0183501898000000000000
B1747193800223S06007964WA0183401893000000000000
B1747233800200S06007873WA0182901890000000000000
B1747273800150S06007815WA0182701894000000000000
B1747313800101S06007765WA0183701896000000000000
B1747353800045S06007752WA0183601901000000000000
B1747393759990S06007757WA0183801893000000000000
B1747433759951S06007807WA0182201870000000000000
B1747473759964S06007885WA0181101868000000000000
B1747513800013S06007946WA0180301857000000000000
B1747553800079S06007985WA0179801856000000000000
B1747593800152S06008007WA0179501856000000000000
B1748033800231S06008011WA0179501854000000000000
B1748073800309S06007976WA0179501859000000000000
B1748113800364S06007900WA0180201864000000000000
B1748153800354S06007809WA0180601866000000000000
B1748193800302S06007770WA0180401858000000000000
B1748233800254S06007800WA0179601852000000000000
B1748273800254S06007873WA0179501857000000000000
B1748313800288S06007937WA0180001862000000000000
B1748353800360S06007958WA0179901853000000000000
B1748393800435S06007926WA0179601855000000000000
B1748433800507S06007878WA0179901859000000000000
B1748473800575S06007822WA0179501846000000000000
B1748513800640S06007751WA0178001829000000000000
B1748553800699S06007675WA0176501815000000000000
B1748593800764S06007590WA0175701808000000000000
B1749033800829S06007505WA0175501810000000000000
B1749073800893S06007427WA0176001822000000000000
B1749113800954S06007356WA0177201828000000000000
B1749153801014S06007284WA0177501825000000000000
B1749193801076S06007211WA0176801813000000000000
B1749233801141S06007136WA0175701805000000000000
B1749273801212S06007061WA0174601796000000000000
B1749313801287S06006986WA0173901787000000000000
B1749353801362S06006914WA0173201779000000000000
B1749393801440S06006842WA0172401770000000000000
B1749433801521S06006775WA0172001768000000000000
B1749473801601S06006708WA0172101768000000000000
B1749513801679S06006641WA0172201774000000000000
B1749553801756S06006572WA0172501775000000000000
B1749593801833S06006508WA0172201778000000000000
B1750033801901S06006442WA0172801788000000000000
B1750073801914S06006346WA0173901799000000000000
B1750113801861S06006309WA0174801804000000000000
B1750153801848S06006373WA0175201810000000000000
B1750193801912S06006405WA0175801814000000000000
B1750233801981S06006347WA0176001815000000000000
B1750273801973S06006251WA0176401820000000000000
B1750313801920S06006214WA0176301809000000000000
B1750353801888S06006268WA0176401824000000000000
B1750393801920S06006334WA0177501827000000000000
B1750433801999S06006348WA0177401827000000000000
B1750473802069S06006286WA0177401825000000000000
B1750513802093S06006193WA0177701833000000000000
B1750553802065S06006114WA0178301832000000000000
B1750593802012S06006089WA0177801828000000000000
B1751033801981S06006139WA0177501826000000000000
B1751073801995S06006206WA0177701835000000000000
B1751113802024S06006269WA0178501840000000000000
B1751153802081S06006316WA0178601839000000000000
B1751193802150S06006349WA0178201836000000000000
B1751233802228S06006326WA0178101836000000000000
B1751273802282S06006251WA0178101839000000000000
B1751313802301S06006161WA0178501836000000000000
B1751353802269S06006091WA0177601820000000000000
B1751393802211S06006076WA0176201811000000000000
B1751433802171S06006122WA0175701814000000000000
B1751473802152S06006182WA0176301828000000000000
B1751513802133S06006236WA0177001824000000000000
B1751553802125S06006299WA0176901828000000000000
B1751593802142S06006365WA0177101822000000000000
B1752033802197S06006418WA0176401821000000000000
B1752073802262S06006461WA0176501824000000000000
B1752113802324S06006503WA0177001827000000000000
B1752153802386S06006539WA0176401817000000000000
B1752193802449S06006580WA0176001819000000000000
B1752233802510S06006624WA0175701815000000000000
B1752273802550S06006690WA0175601815000000000000
B1752313802536S06006764WA0175401808000000000000
B1752353802484S06006806WA0174001795000000000000
B1752393802415S06006807WA0172501779000000000000
B1752433802340S06006789WA0171301765000000000000
B1752473802263S06006763WA0171001756000000000000
B1752513802184S06006736WA0169701742000000000000
B1752553802103S06006702WA0168701733000000000000
B1752593802022S06006671WA0167901720000000000000
B1753033801940S06006637WA0166501712000000000000
B1753073801859S06006603WA0165601700000000000000
B1753113801778S06006564WA0164801693000000000000
B1753153801699S06006516WA0164701695000000000000
B1753193801621S06006466WA0164901700000000000000
B1753233801544S06006416WA0165101694000000000000
B1753273801465S06006361WA0164401686000000000000
B1753313801383S06006307WA0163301680000000000000
B1753353801300S06006251WA0163001674000000000000
B1753393801216S06006193WA0162201664000000000000
B1753433801134S06006135WA0161701661000000000000
B1753473801053S06006079WA0161201657000000000000
B1753513800972S06006026WA0160601648000000000000
B1753553800893S06005969WA0159701640000000000000
B1753593800817S06005904WA0159101626000000000000
B1754033800734S06005852WA0158001621000000000000
B1754073800647S06005809WA0157501616000000000000
B1754113800559S06005771WA0157201610000000000000
B1754153800466S06005736WA0156501603000000000000
B1754193800373S06005701WA0155701596000000000000
B1754233800276S06005670WA0154801583000000000000
B1754273800179S06005640WA0153501571000000000000
B1754313800081S06005610WA0152301556000000000000
B1754353759980S06005580WA0151101542000000000000
B1754393759880S06005550WA0149901534000000000000
B1754433759781S06005521WA0149501536000000000000
B1754473759685S06005493WA0149301529000000000000
B1754513759589S06005465WA0148601524000000000000
B1754553759494S06005438WA0148301526000000000000
B1754593759403S06005415WA0149801549000000000000
B1755033759316S06005394WA0150901549000000000000
B1755073759227S06005376WA0150101539000000000000
B1755113759139S06005360WA0149701532000000000000
B1755153759051S06005342WA0148901520000000000000
B1755193758960S06005312WA0148101518000000000000
B1755233758871S06005274WA0147601506000000000000
B1755273758780S06005243WA0146401493000000000000
B1755313758690S06005212WA0145401487000000000000
B1755353758602S06005186WA0144601480000000000000
B1755393758514S06005164WA0143801469000000000000
B1755433758424S06005146WA0142601455000000000000
B1755473758333S06005130WA0141701448000000000000
B1755513758243S06005114WA0140901438000000000000
B1755553758154S06005099WA0140101434000000000000
B1755593758064S06005086WA0139401425000000000000
B1756033757974S06005073WA0138501414000000000000
B1756073757884S06005060WA0137501410000000000000
B1756113757795S06005048WA0137501406000000000000
B1756153757705S06005038WA0137501419000000000000
B1756193757628S06005031WA0139701447000000000000
B1756233757557S06005027WA0140601428000000000000
B1756273757478S06005014WA0138601409000000000000
B1756313757396S06004997WA0137201404000000000000
B1756353757312S06004979WA0137001405000000000000
B1756393757232S06004956WA0137401416000000000000
B1756433757156S06004927WA0139101440000000000000
B1756473757088S06004899WA0141201457000000000000
B1756513757017S06004873WA0142501470000000000000
B1756553756947S06004848WA0142901460000000000000
B1756593756870S06004823WA0142001449000000000000
B1757033756789S06004801WA0140601433000000000000
B1757073756701S06004780WA0138901409000000000000
B1757113756610S06004761WA0136601388000000000000
B1757153756517S06004744WA0135201383000000000000
B1757193756426S06004727WA0134701378000000000000
B1757233756334S06004710WA0134301376000000000000
B1757273756243S06004692WA0134101371000000000000
B1757313756152S06004674WA0133301357000000000000
B1757353756058S06004653WA0132301354000000000000
B1757393755964S06004631WA0132001349000000000000
B1757433755871S06004609WA0131401335000000000000
B1757473755777S06004583WA0130201328000000000000
B1757513755686S06004555WA0129301317000000000000
B1757553755595S06004523WA0128501309000000000000
B1757593755505S06004487WA0127901308000000000000
B1758033755425S06004432WA0128201316000000000000
B1758073755347S06004372WA0128801329000000000000
B1758113755283S06004316WA0131601375000000000000
B1758153755226S06004305WA0135301404000000000000
B1758193755199S06004359WA0137601429000000000000
B1758233755243S06004418WA0139401438000000000000
B1758273755320S06004389WA0140401447000000000000
B1758313755357S06004301WA0141101457000000000000
B1758353755355S06004210WA0142301467000000000000
B1758393755304S06004173WA0143301484000000000000
B1758433755265S06004216WA0144601493000000000000
B1758473755284S06004292WA0146001513000000000000
B1758513755359S06004306WA0147601529000000000000
B1758553755417S06004243WA0149001539000000000000
B1758593755414S06004158WA0149801551000000000000
B1759033755365S06004128WA0150401552000000000000
B1759073755316S06004141WA0151301566000000000000
B1759113755288S06004197WA0152801583000000000000
B1759153755325S06004259WA0153901592000000000000
B1759193755401S06004246WA0154801600000000000000
B1759233755434S06004159WA0156001615000000000000
B1759273755400S06004094WA0157801637000000000000
B1759313755348S06004089WA0159301646000000000000
B1759353755334S06004149WA0160401656000000000000
B1759393755391S06004199WA0160901666000000000000
B1759433755466S06004173WA0161901679000000000000
B1759473755504S06004091WA0163201699000000000000
B1759513755489S06004016WA0165101712000000000000
B1759553755438S06003986WA0166401720000000000000
B1759593755407S06004028WA0167601734000000000000
B1800033755452S06004085WA0168601740000000000000
B1800073755529S06004055WA0169501752000000000000
B1800113755555S06003967WA0170601763000000000000
B1800153755518S06003903WA0171901777000000000000
B1800193755466S06003905WA0172901792000000000000
B1800233755448S06003967WA0173501792000000000000
B1800273755491S06004033WA0174101799000000000000
B1800313755573S06004025WA0174401810000000000000
B1800353755615S06003938WA0175501819000000000000
B1800393755596S06003848WA0176601832000000000000
B1800433755547S06003813WA0177901847000000000000
B1800473755511S06003847WA0179001849000000000000
B1800513755528S06003924WA0178701842000000000000
B1800553755602S06003960WA0178901853000000000000
B1800593755674S06003912WA0179701864000000000000
B1801033755694S06003820WA0180601867000000000000
B1801073755654S06003752WA0180701869000000000000
B1801113755596S06003716WA0180501861000000000000
B1801153755528S06003688WA0179401847000000000000
B1801193755451S06003662WA0178201828000000000000
B1801233755368S06003638WA0176401811000000000000
B1801273755282S06003614WA0175301802000000000000
B1801313755195S06003592WA0173801776000000000000
B1801353755101S06003579WA0171601762000000000000
B1801393755008S06003569WA0170701760000000000000
B1801433754917S06003558WA0170901764000000000000
B1801473754828S06003545WA0170801760000000000000
B1801513754740S06003534WA0170301753000000000000
B1801553754653S06003513WA0169801747000000000000
B1801593754567S06003488WA0169101735000000000000
B1802033754478S06003466WA0167701721000000000000
B1802073754389S06003443WA0166201703000000000000
B1802113754298S06003415WA0165301700000000000000
B1802153754208S06003387WA0164701695000000000000
B1802193754118S06003362WA0164001686000000000000
B1802233754026S06003339WA0163001677000000000000
B1802273753936S06003315WA0162701668000000000000
B1802313753844S06003291WA0161601657000000000000
B1802353753753S06003268WA0160801654000000000000
B1802393753663S06003245WA0160401648000000000000
B1802433753575S06003222WA0159601636000000000000
B1802473753485S06003197WA0158201620000000000000
B1802513753393S06003174WA0156801606000000000000
B1802553753301S06003150WA0155601594000000000000
B1802593753207S06003129WA0154901593000000000000
B1803033753116S06003109WA0154801593000000000000
B1803073753028S06003089WA0154901594000000000000
B1803113752942S06003070WA0155001593000000000000
B1803153752856S06003050WA0154301581000000000000
B1803193752768S06003032WA0153001568000000000000
B1803233752677S06003012WA0151901557000000000000
B1803273752588S06002990WA0150901550000000000000
B1803313752499S06002967WA0150201542000000000000
B1803353752410S06002942WA0149701535000000000000
B1803393752322S06002919WA0149101529000000000000
B1803433752235S06002895WA0148501526000000000000
B1803473752149S06002871WA0148301523000000000000
B1803513752063S06002842WA0147801516000000000000
B1803553751979S06002812WA0147301509000000000000
B1803593751893S06002784WA0146401498000000000000
B1804033751806S06002752WA0145201488000000000000
B1804073751721S06002721WA0144601485000000000000
B1804113751638S06002689WA0144401480000000000000
B1804153751555S06002657WA0143801473000000000000
B1804193751473S06002625WA0143101468000000000000
B1804233751391S06002592WA0142601460000000000000
B1804273751309S06002563WA0141701452000000000000
B1804313751226S06002535WA0141101447000000000000
B1804353751144S06002507WA0140701444000000000000
B1804393751065S06002479WA0140401439000000000000
B1804433750984S06002449WA0139901434000000000000
B1804473750906S06002421WA0139801437000000000000
B1804513750829S06002392WA0139601429000000000000
B1804553750751S06002364WA0138901422000000000000
B1804593750671S06002334WA0138201413000000000000
B1805033750589S06002304WA0137301405000000000000
B1805073750507S06002274WA0136601401000000000000
B1805113750426S06002244WA0136101393000000000000
B1805153750347S06002214WA0135601392000000000000
B1805193750268S06002184WA0135301384000000000000
B1805233750187S06002156WA0134601377000000000000
B1805273750107S06002128WA0134001369000000000000
B1805313750026S06002100WA0133201362000000000000
B1805353749943S06002072WA0132401354000000000000
B1805393749861S06002044WA0131801349000000000000
B1805433749782S06002010WA0132101357000000000000
B1805473749705S06001974WA0132201355000000000000
B1805513749629S06001935WA0131701344000000000000
B1805553749551S06001898WA0130901338000000000000
B1805593749475S06001863WA0130501333000000000000
B1806033749399S06001829WA0129901329000000000000
B1806073749325S06001794WA0129901331000000000000
B1806113749254S06001758WA0129601321000000000000
B1806153749178S06001721WA0128401308000000000000
B1806193749103S06001681WA0127301296000000000000
B1806233749028S06001634WA0126101286000000000000
B1806273748953S06001586WA0125401280000000000000
B1806313748879S06001538WA0124801272000000000000
B1806353748805S06001497WA0123801260000000000000
B1806393748730S06001464WA0123001258000000000000
B1806433748658S06001430WA0123501271000000000000
B1806473748589S06001402WA0124601287000000000000
B1806513748535S06001383WA0127101317000000000000
B1806553748493S06001342WA0129501344000000000000
B1806593748505S06001256WA0131401355000000000000
B1807033748570S06001216WA0131701355000000000000
B1807073748621S06001261WA0132101362000000000000
B1807113748623S06001326WA0132501364000000000000
B1807153748604S06001385WA0133001372000000000000
B1807193748557S06001403WA0134001387000000000000
B1807233748509S06001391WA0134801387000000000000
B1807273748461S06001357WA0135401398000000000000
B1807313748445S06001279WA0136501407000000000000
B1807353748495S06001211WA0137801422000000000000
B1807393748557S06001229WA0139101430000000000000
B1807433748557S06001291WA0139201433000000000000
B1807473748509S06001279WA0140001445000000000000
B1807513748467S06001240WA0140001434000000000000
B1807553748415S06001200WA0139401435000000000000
B1807593748365S06001162WA0139501432000000000000
B1808033748309S06001127WA0138701416000000000000
B1808073748248S06001092WA0137101396000000000000
B1808113748180S06001055WA0135301379000000000000
B1808153748108S06001014WA0134101366000000000000
B1808193748036S06000975WA0133001358000000000000
B1808233747960S06000944WA0132301352000000000000
B1808273747886S06000910WA0131701347000000000000
B1808313747813S06000876WA0131201341000000000000
B1808353747739S06000843WA0130301331000000000000
B1808393747665S06000809WA0129701325000000000000
B1808433747588S06000791WA0129101319000000000000
B1808473747514S06000784WA0128501312000000000000
B1808513747439S06000778WA0127501301000000000000
B1808553747362S06000766WA0126701293000000000000
B1808593747288S06000741WA0125801284000000000000
B1809033747215S06000714WA0125001274000000000000
B1809073747144S06000683WA0124101266000000000000
B1809113747075S06000646WA0123701262000000000000
B1809153747009S06000598WA0123301257000000000000
B1809193746942S06000546WA0122601245000000000000
B1809233746870S06000503WA0121401233000000000000
B1809273746793S06000462WA0120101222000000000000
B1809313746716S06000421WA0119401216000000000000
B1809353746641S06000381WA0119401224000000000000
B1809393746574S06000347WA0121401260000000000000
B1809433746525S06000324WA0124901289000000000000
B1809473746474S06000332WA0125801281000000000000
B1809513746415S06000330WA0124801268000000000000
B1809553746347S06000307WA0122801245000000000000
B1809593746275S06000271WA0120901238000000000000
B1810033746204S06000230WA0120101230000000000000
B1810073746131S06000191WA0119801219000000000000
B1810113746057S06000150WA0119101213000000000000
B1810153745983S06000107WA0118201202000000000000
B1810193745908S06000070WA0117601206000000000000
B1810233745833S06000041WA0117801209000000000000
B1810273745770S06000005WA0119501234000000000000
B1810313745716S05959974WA0121301236000000000000
B1810353745657S05959942WA0119501208000000000000
B1810393745589S05959908WA0117001182000000000000
B1810433745516S05959869WA0115201165000000000000
B1810473745442S05959827WA0113901157000000000000
B1810513745367S05959790WA0113001149000000000000
B1810553745293S05959749WA0112301142000000000000
B1810593745216S05959709WA0111501133000000000000
B1811033745141S05959671WA0110801126000000000000
B1811073745065S05959635WA0110101119000000000000
B1811113744991S05959599WA0109601114000000000000
B1811153744917S05959561WA0109001105000000000000
B1811193744840S05959521WA0108201098000000000000
B1811233744764S05959480WA0107701095000000000000
B1811273744687S05959441WA0107001082000000000000
B1811313744609S05959404WA0105901071000000000000
B1811353744531S05959361WA0104701058000000000000
B1811393744454S05959318WA0103401047000000000000
B1811433744377S05959272WA0102401036000000000000
B1811473744301S05959229WA0101501025000000000000
B1811513744223S05959190WA0100601017000000000000
B1811553744146S05959151WA0099701009000000000000
B1811593744069S05959108WA0098900999000000000000
B1812033743991S05959067WA0097800990000000000000
B1812073743913S05959025WA0096800977000000000000
B1812113743833S05958982WA0095900973000000000000
B1812153743755S05958936WA0095300965000000000000
B1812193743677S05958891WA0094600955000000000000
B1812233743599S05958848WA0093500941000000000000
B1812273743521S05958804WA0092300928000000000000
B1812313743444S05958759WA0091300921000000000000
B1812353743366S05958713WA0090500910000000000000
B1812393743287S05958673WA0089700910000000000000
B1812433743210S05958644WA0089900906000000000000
B1812473743132S05958616WA0089300897000000000000
B1812513743054S05958591WA0088700895000000000000
B1812553742976S05958566WA0088200884000000000000
B1812593742899S05958539WA0087200877000000000000
B1813033742825S05958512WA0086800874000000000000
B1813073742752S05958483WA0086400868000000000000
B1813113742681S05958456WA0085600860000000000000
B1813153742608S05958427WA0084400844000000000000
B1813193742535S05958395WA0083100829000000000000
B1813233742463S05958362WA0081800817000000000000
B1813273742390S05958336WA0081500827000000000000
B1813313742326S05958321WA0082300829000000000000
B1813353742262S05958309WA0082200827000000000000
B1813393742199S05958300WA0081900818000000000000
B1813433742131S05958276WA0080800806000000000000
B1813473742063S05958245WA0079500791000000000000
B1813513741996S05958208WA0078800792000000000000
B1813553741930S05958170WA0078800791000000000000
B1813593741866S05958131WA0079300800000000000000
B1814033741814S05958092WA0081100836000000000000
B1814073741771S05958072WA0083300837000000000000
B1814113741720S05958058WA0082100808000000000000
B1814153741659S05958023WA0079500784000000000000
B1814193741592S05957977WA0076800766000000000000
B1814233741521S05957929WA0075500750000000000000
B1814273741451S05957876WA0074300736000000000000
B1814313741381S05957818WA0073300728000000000000
B1814353741311S05957759WA0072500716000000000000
B1814393741242S05957701WA0071300704000000000000
B1814433741170S05957645WA0070200692000000000000
B1814473741100S05957589WA0069200684000000000000
B1814513741031S05957535WA0068600678000000000000
B1814553740968S05957473WA0067900671000000000000
B1814593740905S05957412WA0067300663000000000000
B1815033740844S05957346WA0066300652000000000000
B1815073740778S05957281WA0065700660000000000000
B1815113740721S05957229WA0067900691000000000000
B1815153740671S05957183WA0070500714000000000000
B1815193740620S05957183WA0071800719000000000000
B1815233740622S05957248WA0071800721000000000000
B1815273740692S05957270WA0071800722000000000000
B1815313740747S05957196WA0072200736000000000000
B1815353740752S05957108WA0073600745000000000000
B1815393740714S05957056WA0074200750000000000000
B1815433740672S05957070WA0074500747000000000000
B1815473740640S05957105WA0074600748000000000000
B1815513740648S05957173WA0074200749000000000000
B1815553740696S05957227WA0075200763000000000000
B1815593740761S05957251WA0075700763000000000000
B1816033740830S05957212WA0076300772000000000000
B1816073740845S05957129WA0077000782000000000000
B1816113740801S05957103WA0078400789000000000000
B1816153740793S05957165WA0078800793000000000000
B1816193740862S05957192WA0079200804000000000000
B1816233740919S05957129WA0080000814000000000000
B1816273740905S05957048WA0081300828000000000000
B1816313740860S05957043WA0082400836000000000000
B1816353740861S05957104WA0083100843000000000000
B1816393740921S05957142WA0083600850000000000000
B1816433740988S05957099WA0084600857000000000000
B1816473740994S05957015WA0085500870000000000000
B1816513740945S05957001WA0086900883000000000000
B1816553740944S05957062WA0087600886000000000000
B1816593741013S05957086WA0087800897000000000000
B1817033741082S05957049WA0089000908000000000000
B1817073741101S05956969WA0090100921000000000000
B1817113741055S05956935WA0091100928000000000000
B1817153741034S05956991WA0091900934000000000000
B1817193741088S05957036WA0092500946000000000000
B1817233741159S05956993WA0093400950000000000000
B1817273741159S05956908WA0093900960000000000000
B1817313741104S05956885WA0095100970000000000000
B1817353741085S05956945WA0095900978000000000000
B1817393741139S05956992WA0096500988000000000000
B1817433741211S05956948WA0097701003000000000000
B1817473741221S05956862WA0098901014000000000000
B1817513741172S05956844WA0100301026000000000000
B1817553741156S05956904WA0100801031000000000000
B1817593741218S05956937WA0101701044000000000000
B1818033741277S05956871WA0102701057000000000000
B1818073741260S05956792WA0103701068000000000000
B1818113741209S05956798WA0104801075000000000000
B1818153741216S05956870WA0105201080000000000000
B1818193741290S05956888WA0106001093000000000000
B1818233741346S05956817WA0107301107000000000000
B1818273741329S05956740WA0108701122000000000000
B1818313741281S05956739WA0109901126000000000000
B1818353741277S05956804WA0110201131000000000000
B1818393741341S05956841WA0111001144000000000000
B1818433741411S05956801WA0112001155000000000000
B1818473741417S05956715WA0113201165000000000000
B1818513741368S05956693WA0114301173000000000000
B1818553741352S05956755WA0114701180000000000000
B1818593741413S05956802WA0115801194000000000000
B1819033741484S05956759WA0117001206000000000000
B1819073741491S05956674WA0118101216000000000000
B1819113741445S05956654WA0119101223000000000000
B1819153741434S05956719WA0119901234000000000000
B1819193741504S05956749WA0120901245000000000000
B1819233741566S05956683WA0121601256000000000000
B1819273741549S05956606WA0122701270000000000000
B1819313741499S05956598WA0123501274000000000000
B1819353741475S05956655WA0124601291000000000000
B1819393741519S05956711WA0126201304000000000000
B1819433741592S05956680WA0126901310000000000000
B1819473741608S05956597WA0127701317000000000000
B1819513741562S05956563WA0128701328000000000000
B1819553741532S05956612WA0129801339000000000000
B1819593741569S05956679WA0130701345000000000000
B1820033741650S05956672WA0131201352000000000000
B1820073741696S05956592WA0132401368000000000000
B1820113741681S05956510WA0133201376000000000000
B1820153741629S05956493WA0134101384000000000000
B1820193741607S05956554WA0134901396000000000000
B1820233741657S05956615WA0136101406000000000000
B1820273741733S05956588WA0136901415000000000000
B1820313741763S05956499WA0137701426000000000000
B1820353741740S05956425WA0139001439000000000000
B1820393741693S05956433WA0140301450000000000000
B1820433741697S05956503WA0141001458000000000000
B1820473741768S05956532WA0142001468000000000000
B1820513741831S05956472WA0142601473000000000000
B1820553741822S05956380WA0143301480000000000000
B1820593741768S05956351WA0144201497000000000000
B1821033741732S05956398WA0145301503000000000000
B1821073741771S05956467WA0145801512000000000000
B1821113741848S05956479WA0146901518000000000000
B1821153741910S05956415WA0147401527000000000000
B1821193741915S05956323WA0148101534000000000000
B1821233741870S05956277WA0149401550000000000000
B1821273741827S05956308WA0150201551000000000000
B1821313741848S05956388WA0150401560000000000000
B1821353741919S05956420WA0152001575000000000000
B1821393741989S05956373WA0152501579000000000000
B1821433742008S05956281WA0153001583000000000000
B1821473741980S05956200WA0153301588000000000000
B1821513741936S05956134WA0152901569000000000000
B1821553741880S05956069WA0151101552000000000000
B1821593741822S05955998WA0150001537000000000000
B1822033741768S05955909WA0149001527000000000000
B1822073741729S05955808WA0148201522000000000000
B1822113741699S05955699WA0147301510000000000000
B1822153741677S05955587WA0146301499000000000000
B1822193741660S05955471WA0145401485000000000000
B1822233741663S05955354WA0144401481000000000000
B1822273741677S05955237WA0143601466000000000000
B1822313741683S05955120WA0142101447000000000000
B1822353741670S05955000WA0140401435000000000000
B1822393741653S05954881WA0139601427000000000000
B1822433741619S05954770WA0138401419000000000000
B1822473741566S05954681WA0138201418000000000000
B1822513741498S05954620WA0137701414000000000000
B1822553741424S05954582WA0137401404000000000000
B1822593741345S05954560WA0136201388000000000000
B1823033741263S05954536WA0134501371000000000000
B1823073741179S05954512WA0133401364000000000000
B1823113741098S05954479WA0132701356000000000000
B1823153741021S05954431WA0132401356000000000000
B1823193740951S05954376WA0132101355000000000000
B1823233740883S05954317WA0131901349000000000000
B1823273740819S05954249WA0131401346000000000000
B1823313740758S05954179WA0131001342000000000000
B1823353740701S05954113WA0131601359000000000000
B1823393740652S05954054WA0133301377000000000000
B1823433740601S05954012WA0134301377000000000000
B1823473740541S05953975WA0133601357000000000000
B1823513740472S05953934WA0132101348000000000000
B1823553740398S05953892WA0131001341000000000000
B1823593740321S05953843WA0129801321000000000000
B1824033740241S05953788WA0128401310000000000000
B1824073740159S05953732WA0127701310000000000000
B1824113740082S05953680WA0128701325000000000000
B1824153740008S05953628WA0129201323000000000000
B1824193739937S05953574WA0129001317000000000000
B1824233739868S05953511WA0128401307000000000000
B1824273739795S05953447WA0126801289000000000000
B1824313739720S05953382WA0125501278000000000000
B1824353739644S05953317WA0124301269000000000000
B1824393739567S05953253WA0123601262000000000000
B1824433739491S05953192WA0122901254000000000000
B1824473739415S05953131WA0122201245000000000000
B1824513739343S05953069WA0121401236000000000000
B1824553739270S05953009WA0120601225000000000000
B1824593739197S05952950WA0119701216000000000000
B1825033739123S05952889WA0118801204000000000000
B1825073739049S05952829WA0117801202000000000000
B1825113738976S05952768WA0117501199000000000000
B1825153738903S05952703WA0117101192000000000000
B1825193738829S05952637WA0116401183000000000000
B1825233738755S05952569WA0115701184000000000000
B1825273738693S05952514WA0117801237000000000000
B1825313738647S05952472WA0121701258000000000000
B1825353738602S05952437WA0123101260000000000000
B1825393738552S05952400WA0122801250000000000000
B1825433738499S05952360WA0122601263000000000000
B1825473738456S05952320WA0124301282000000000000
B1825513738421S05952277WA0125701292000000000000
B1825553738383S05952230WA0125501273000000000000
B1825593738335S05952176WA0122101238000000000000
B1826033738275S05952113WA0119501218000000000000
B1826073738213S05952048WA0118401216000000000000
B1826113738148S05951984WA0117501201000000000000
B1826153738082S05951921WA0117301198000000000000
B1826193738015S05951861WA0117201196000000000000
B1826233737946S05951808WA0117001194000000000000
B1826273737880S05951761WA0118001225000000000000
B1826313737824S05951732WA0120801263000000000000
B1826353737781S05951736WA0124401281000000000000
B1826393737780S05951801WA0125201282000000000000
B1826433737851S05951826WA0125801293000000000000
B1826473737911S05951765WA0126501300000000000000
B1826513737914S05951676WA0127401318000000000000
B1826553737888S05951610WA0129301336000000000000
B1826593737840S05951596WA0130501339000000000000
B1827033737788S05951575WA0129601320000000000000
B1827073737724S05951544WA0127501294000000000000
B1827113737655S05951502WA0125101267000000000000
B1827153737582S05951449WA0122801251000000000000
B1827193737512S05951386WA0121601238000000000000
B1827233737442S05951324WA0120801230000000000000
B1827273737373S05951260WA0119801222000000000000
B1827313737303S05951197WA0119101209000000000000
B1827353737231S05951133WA0117601192000000000000
B1827393737156S05951069WA0115601174000000000000
B1827433737083S05950999WA0114901171000000000000
B1827473737016S05950925WA0114401166000000000000
B1827513736951S05950850WA0114501173000000000000
B1827553736895S05950773WA0115501190000000000000
B1827593736853S05950707WA0117901219000000000000
B1828033736821S05950645WA0119701224000000000000
B1828073736782S05950596WA0119801223000000000000
B1828113736732S05950591WA0120001230000000000000
B1828153736687S05950584WA0120501231000000000000
B1828193736639S05950580WA0119601207000000000000
B1828233736577S05950575WA0117101182000000000000
B1828273736507S05950566WA0115101166000000000000
B1828313736431S05950554WA0113301147000000000000
B1828353736351S05950539WA0111501131000000000000
B1828393736271S05950518WA0110001115000000000000
B1828433736189S05950497WA0108401099000000000000
B1828473736106S05950474WA0106901083000000000000
B1828513736022S05950448WA0105801067000000000000
B1828553735940S05950422WA0104201053000000000000
B1828593735859S05950392WA0102901049000000000000
B1829033735782S05950359WA0103001046000000000000
B1829073735703S05950330WA0102001029000000000000
B1829113735618S05950301WA0100301012000000000000
B1829153735537S05950270WA0099901022000000000000
B1829193735466S05950240WA0100601025000000000000
B1829233735396S05950207WA0100801024000000000000
B1829273735327S05950175WA0100601023000000000000
B1829313735268S05950145WA0101601055000000000000
B1829353735224S05950112WA0104301073000000000000
B1829393735180S05950077WA0105201069000000000000
B1829433735128S05950066WA0106201085000000000000
B1829473735077S05950085WA0106201081000000000000
B1829513735027S05950094WA0106301095000000000000
B1829553734980S05950102WA0107401103000000000000
B1829593734962S05950155WA0108001104000000000000
B1830033735015S05950203WA0108301114000000000000
B1830073735086S05950187WA0109701129000000000000
B1830113735131S05950114WA0110201126000000000000
B1830153735121S05950029WA0110501138000000000000
B1830193735076S05949986WA0111701149000000000000
B1830233735032S05950016WA0112201156000000000000
B1830273735042S05950083WA0112901161000000000000
B1830313735102S05950111WA0114001177000000000000
B1830353735171S05950086WA0115001180000000000000
B1830393735219S05950016WA0115001189000000000000
B1830433735205S05949933WA0116401204000000000000
B1830473735155S05949923WA0117601210000000000000
B1830513735145S05949986WA0117701207000000000000
B1830553735201S05950032WA0117401206000000000000
B1830593735274S05950015WA0117301208000000000000
B1831033735324S05949946WA0118101221000000000000
B1831073735333S05949858WA0119301236000000000000
B1831113735328S05949776WA0120601246000000000000
B1831153735284S05949732WA0121301246000000000000
B1831193735233S05949748WA0121001243000000000000
B1831233735186S05949781WA0120801247000000000000
B1831273735140S05949813WA0121301251000000000000
B1831313735093S05949847WA0121301250000000000000
B1831353735042S05949882WA0120101229000000000000
B1831393734985S05949920WA0117801203000000000000
B1831433734921S05949959WA0115901181000000000000
B1831473734858S05949997WA0114601169000000000000
B1831513734791S05950036WA0113501155000000000000
B1831553734724S05950073WA0112401151000000000000
B1831593734655S05950111WA0111901140000000000000
B1832033734582S05950148WA0110601126000000000000
B1832073734508S05950185WA0109501117000000000000
B1832113734431S05950226WA0108501104000000000000
B1832153734358S05950263WA0108001107000000000000
B1832193734287S05950298WA0107801099000000000000
B1832233734217S05950333WA0106801083000000000000
B1832273734146S05950367WA0105601077000000000000
B1832313734076S05950398WA0105301072000000000000
B1832353734006S05950430WA0104501064000000000000
B1832393733937S05950457WA0104801079000000000000
B1832433733876S05950480WA0106401099000000000000
B1832473733821S05950500WA0107801113000000000000
B1832513733768S05950523WA0108401114000000000000
B1832553733714S05950548WA0108701120000000000000
B1832593733663S05950567WA0109701134000000000000
B1833033733615S05950583WA0111201145000000000000
B1833073733565S05950600WA0111701143000000000000
B1833113733515S05950616WA0111701143000000000000
B1833153733460S05950623WA0111501149000000000000
B1833193733407S05950621WA0111601141000000000000
B1833233733347S05950616WA0110201122000000000000
B1833273733283S05950610WA0108801116000000000000
B1833313733223S05950604WA0108701114000000000000
B1833353733162S05950597WA0108101105000000000000
B1833393733101S05950593WA0107501100000000000000
B1833433733038S05950591WA0106701091000000000000
B1833473732973S05950590WA0105901081000000000000
B1833513732908S05950592WA0104701067000000000000
B1833553732839S05950603WA0103401056000000000000
B1833593732771S05950618WA0102401046000000000000
B1834033732703S05950631WA0101301033000000000000
B1834073732632S05950643WA0100201019000000000000
B1834113732559S05950655WA0098901003000000000000
B1834153732485S05950675WA0097100986000000000000
B1834193732412S05950710WA0095900973000000000000
B1834233732345S05950761WA0095200965000000000000
B1834273732284S05950822WA0094100952000000000000
B1834313732222S05950890WA0093100945000000000000
B1834353732163S05950954WA0092200934000000000000
B1834393732100S05951019WA0091400921000000000000
B1834433732038S05951081WA0089800915000000000000
B1834473731979S05951139WA0089400913000000000000
B1834513731922S05951190WA0089200907000000000000
B1834553731866S05951241WA0088900910000000000000
B1834593731818S05951264WA0090600937000000000000
B1835033731777S05951275WA0092500952000000000000
B1835073731739S05951284WA0093600951000000000000
B1835113731700S05951310WA0093000936000000000000
B1835153731688S05951375WA0092000937000000000000
B1835193731709S05951442WA0091600922000000000000
B1835233731725S05951516WA0089700900000000000000
B1835273731723S05951594WA0088500902000000000000
B1835313731697S05951648WA0088700902000000000000
B1835353731662S05951689WA0088700901000000000000
B1835393731615S05951685WA0088900900000000000000
B1835433731571S05951661WA0088400890000000000000
B1835473731522S05951641WA0087000872000000000000
B1835513731480S05951676WA0085900863000000000000
B1835553731479S05951749WA0084700855000000000000
B1835593731509S05951822WA0083400846000000000000
B1836033731556S05951879WA0083500864000000000000
B1836073731597S05951932WA0084900868000000000000
B1836113731654S05951971WA0085200865000000000000
B1836153731731S05951956WA0084900869000000000000
B1836193731787S05951896WA0085500871000000000000
B1836233731769S05951818WA0085700879000000000000
B1836273731717S05951825WA0087200893000000000000
B1836313731721S05951904WA0087900898000000000000
B1836353731790S05951938WA0088400902000000000000
B1836393731851S05951878WA0088600909000000000000
B1836433731845S05951799WA0089500916000000000000
B1836473731793S05951784WA0090500930000000000000
B1836513731778S05951851WA0091400933000000000000
B1836553731831S05951905WA0091600936000000000000
B1836593731908S05951886WA0091600935000000000000
B1837033731961S05951814WA0092100940000000000000
B1837073731969S05951728WA0093100958000000000000
B1837113731920S05951709WA0094400969000000000000
B1837153731904S05951773WA0095100969000000000000
B1837193731962S05951819WA0095500981000000000000
B1837233732035S05951792WA0096900995000000000000
B1837273732059S05951711WA0098101005000000000000
B1837313732012S05951685WA0098901014000000000000
B1837353731999S05951750WA0099401017000000000000
B1837393732056S05951800WA0100501034000000000000
B1837433732128S05951767WA0101901048000000000000
B1837473732143S05951684WA0102601053000000000000
B1837513732095S05951661WA0103201065000000000000
B1837553732074S05951721WA0104201069000000000000
B1837593732125S05951783WA0104701081000000000000
B1838033732202S05951779WA0106001096000000000000
B1838073732242S05951704WA0107301103000000000000
B1838113732212S05951641WA0107701104000000000000
B1838153732168S05951671WA0108001112000000000000
B1838193732187S05951745WA0108801126000000000000
B1838233732254S05951779WA0110401143000000000000
B1838273732312S05951721WA0111801150000000000000
B1838313732294S05951646WA0112101152000000000000
B1838353732247S05951665WA0112201154000000000000
B1838393732254S05951741WA0112901167000000000000
B1838433732295S05951805WA0114201180000000000000
B1838473732371S05951800WA0115101187000000000000
B1838513732399S05951718WA0115601188000000000000
B1838553732360S05951669WA0115701195000000000000
B1838593732320S05951706WA0116401202000000000000
B1839033732347S05951782WA0117301212000000000000
B1839073732423S05951802WA0118301223000000000000
B1839113732484S05951745WA0119001222000000000000
B1839153732510S05951658WA0119001223000000000000
B1839193732527S05951566WA0118701223000000000000
B1839233732528S05951472WA0118701220000000000000
B1839273732514S05951384WA0118501224000000000000
B1839313732519S05951294WA0119201229000000000000
B1839353732538S05951206WA0119801234000000000000
B1839393732562S05951124WA0120301238000000000000
B1839433732589S05951045WA0120801243000000000000
B1839473732611S05950963WA0121501250000000000000
B1839513732585S05950895WA0121701255000000000000
B1839553732534S05950879WA0122701265000000000000
B1839593732502S05950920WA0122401256000000000000
B1840033732502S05950989WA0121501249000000000000
B1840073732511S05951060WA0122101261000000000000
B1840113732512S05951130WA0122901272000000000000
B1840153732508S05951197WA0124101286000000000000
B1840193732505S05951262WA0125301289000000000000
B1840233732499S05951331WA0125501291000000000000
B1840273732492S05951397WA0126101304000000000000
B1840313732488S05951464WA0127101307000000000000
B1840353732527S05951531WA0127501318000000000000
B1840393732601S05951550WA0128301324000000000000
B1840433732658S05951484WA0129401340000000000000
B1840473732638S05951409WA0130501348000000000000
B1840513732590S05951422WA0131201353000000000000
B1840553732596S05951497WA0131701361000000000000
B1840593732651S05951550WA0132501368000000000000
B1841033732727S05951550WA0133501384000000000000
B1841073732771S05951477WA0134701391000000000000
B1841113732746S05951407WA0135201392000000000000
B1841153732690S05951414WA0135101395000000000000
B1841193732683S05951487WA0136201413000000000000
B1841233732731S05951546WA0137201414000000000000
B1841273732810S05951537WA0138001430000000000000
B1841313732850S05951462WA0139101441000000000000
B1841353732818S05951401WA0139801446000000000000
B1841393732768S05951427WA0140201453000000000000
B1841433732770S05951501WA0140801459000000000000
B1841473732823S05951562WA0141401463000000000000
B1841513732902S05951565WA0142601484000000000000
B1841553732950S05951498WA0143801489000000000000
B1841593732930S05951427WA0144001488000000000000
B1842033732875S05951441WA0144001487000000000000
B1842073732876S05951519WA0144501497000000000000
B1842113732911S05951589WA0145901518000000000000
B1842153732971S05951622WA0147701530000000000000
B1842193733022S05951563WA0148001523000000000000
B1842233732993S05951493WA0147601523000000000000
B1842273732940S05951502WA0147401527000000000000
B1842313732902S05951548WA0148501542000000000000
B1842353732882S05951614WA0149101537000000000000
B1842393732905S05951693WA0148701527000000000000
B1842433732975S05951744WA0147701522000000000000
B1842473733053S05951717WA0147901536000000000000
B1842513733101S05951645WA0148701537000000000000
B1842553733091S05951565WA0149401547000000000000
B1842593733041S05951535WA0149501544000000000000
B1843033732992S05951574WA0149701547000000000000
B1843073732970S05951649WA0149401538000000000000
B1843113732967S05951740WA0148101524000000000000
B1843153732962S05951839WA0146701505000000000000
B1843193732949S05951942WA0145401486000000000000
B1843233732931S05952051WA0143601466000000000000
B1843273732910S05952163WA0141501448000000000000
B1843313732887S05952277WA0140301438000000000000
B1843353732863S05952391WA0139101423000000000000
B1843393732837S05952504WA0138301417000000000000
B1843433732811S05952616WA0137601404000000000000
B1843473732784S05952729WA0136201391000000000000
B1843513732758S05952844WA0135001378000000000000
B1843553732733S05952958WA0134101374000000000000
B1843593732709S05953070WA0133701372000000000000
B1844033732684S05953180WA0133401366000000000000
B1844073732659S05953290WA0132801359000000000000
B1844113732633S05953398WA0132201351000000000000
B1844153732606S05953505WA0131801345000000000000
B1844193732581S05953612WA0130901336000000000000
B1844233732558S05953721WA0130001323000000000000
B1844273732532S05953830WA0128801309000000000000
B1844313732503S05953938WA0127701305000000000000
B1844353732473S05954044WA0127001298000000000000
B1844393732443S05954148WA0126001285000000000000
B1844433732412S05954252WA0124801273000000000000
B1844473732381S05954354WA0123701264000000000000
B1844513732349S05954457WA0123201258000000000000
B1844553732316S05954555WA0122801263000000000000
B1844593732282S05954644WA0123401261000000000000
B1845033732250S05954735WA0122801247000000000000
B1845073732219S05954829WA0122201251000000000000
B1845113732186S05954917WA0122401255000000000000
B1845153732155S05954998WA0122801254000000000000
B1845193732121S05955078WA0122001240000000000000
B1845233732085S05955160WA0120901231000000000000
B1845273732048S05955242WA0120401224000000000000
B1845313732009S05955323WA0119501217000000000000
B1845353731972S05955403WA0118601203000000000000
B1845393731946S05955493WA0117601194000000000000
B1845433731925S05955587WA0116701185000000000000
B1845473731914S05955683WA0116401184000000000000
B1845513731917S05955778WA0116001180000000000000
B1845553731933S05955874WA0115401170000000000000
B1845593731960S05955966WA0115201179000000000000
B1846033732012S05956034WA0115901187000000000000
B1846073732063S05956096WA0116201183000000000000
B1846113732104S05956170WA0115301165000000000000
B1846153732138S05956258WA0114101164000000000000
B1846193732164S05956339WA0114801182000000000000
B1846233732182S05956419WA0115101179000000000000
B1846273732185S05956497WA0115101179000000000000
B1846313732183S05956577WA0114401160000000000000
B1846353732186S05956667WA0112301140000000000000
B1846393732198S05956761WA0110701128000000000000
B1846433732209S05956856WA0109501116000000000000
B1846473732224S05956954WA0108101101000000000000
B1846513732241S05957051WA0107601101000000000000
B1846553732260S05957147WA0107101093000000000000
B1846593732280S05957247WA0106401083000000000000
B1847033732299S05957351WA0105101066000000000000
B1847073732317S05957457WA0104101072000000000000
B1847113732328S05957552WA0106001093000000000000
B1847153732337S05957630WA0108101111000000000000
B1847193732342S05957704WA0109001111000000000000
B1847233732343S05957776WA0109001107000000000000
B1847273732345S05957854WA0108101088000000000000
B1847313732350S05957946WA0106501078000000000000
B1847353732351S05958041WA0105101075000000000000
B1847393732349S05958136WA0105201084000000000000
B1847433732343S05958224WA0106001090000000000000
B1847473732336S05958312WA0105901076000000000000
B1847513732326S05958404WA0104201057000000000000
B1847553732319S05958501WA0102301035000000000000
B1847593732324S05958603WA0100601022000000000000
B1848033732336S05958708WA0099701011000000000000
B1848073732346S05958816WA0098600994000000000000
B1848113732354S05958928WA0097400978000000000000
B1848153732362S05959041WA0096000967000000000000
B1848193732375S05959154WA0094800954000000000000
B1848233732391S05959267WA0093600938000000000000
B1848273732406S05959379WA0092500936000000000000
B1848313732417S05959485WA0092600944000000000000
B1848353732425S05959582WA0093000947000000000000
B1848393732433S05959673WA0093000947000000000000
B1848433732447S05959762WA0092900947000000000000
B1848473732463S05959851WA0092800937000000000000
B1848513732494S05959939WA0091800930000000000000
B1848553732541S06000020WA0091100925000000000000
B1848593732590S06000098WA0090700918000000000000
B1849033732633S06000178WA0090400916000000000000
B1849073732662S06000264WA0090000916000000000000
B1849113732672S06000349WA0089900907000000000000
B1849153732676S06000434WA0089300905000000000000
B1849193732677S06000520WA0089000903000000000000
B1849233732671S06000600WA0089300914000000000000
B1849273732635S06000642WA0090800933000000000000
B1849313732594S06000603WA0092400940000000000000
B1849353732622S06000523WA0092500941000000000000
B1849393732694S06000529WA0093100949000000000000
B1849433732739S06000589WA0093500950000000000000
B1849473732731S06000657WA0093600954000000000000
B1849513732684S06000667WA0094200961000000000000
B1849553732666S06000594WA0094800966000000000000
B1849593732715S06000527WA0095000965000000000000
B1850033732791S06000522WA0095100977000000000000
B1850073732824S06000583WA0096500987000000000000
B1850113732797S06000627WA0097100984000000000000
B1850153732755S06000589WA0096700982000000000000
B1850193732776S06000505WA0096700984000000000000
B1850233732831S06000444WA0097500996000000000000
B1850273732898S06000438WA0098301001000000000000
B1850313732945S06000492WA0098300992000000000000
B1850353732986S06000557WA0097900994000000000000
B1850393733008S06000628WA0098401006000000000000
B1850433732975S06000671WA0099301017000000000000
B1850473732932S06000633WA0099801014000000000000
B1850513732956S06000550WA0099601014000000000000
B1850553733027S06000525WA0100401026000000000000
B1850593733083S06000568WA0101001027000000000000
B1851033733078S06000645WA0100901025000000000000
B1851073733028S06000655WA0101601038000000000000
B1851113733006S06000587WA0102501041000000000000
B1851153733044S06000511WA0102801047000000000000
B1851193733114S06000484WA0103401054000000000000
B1851233733171S06000531WA0103701054000000000000
B1851273733165S06000602WA0103801059000000000000
B1851313733116S06000619WA0104501068000000000000
B1851353733073S06000562WA0105001069000000000000
B1851393733088S06000473WA0105301077000000000000
B1851433733149S06000414WA0105901081000000000000
B1851473733226S06000412WA0106401087000000000000
B1851513733269S06000476WA0106701087000000000000
B1851553733257S06000548WA0106601088000000000000
B1851593733235S06000611WA0107501102000000000000
B1852033733194S06000639WA0108401104000000000000
B1852073733147S06000594WA0107801091000000000000
B1852113733144S06000501WA0107201093000000000000
B1852153733194S06000423WA0107101095000000000000
B1852193733269S06000389WA0107601102000000000000
B1852233733338S06000414WA0109001114000000000000
B1852273733386S06000470WA0109301114000000000000
B1852313733395S06000545WA0109501117000000000000
B1852353733373S06000609WA0109901124000000000000
B1852393733327S06000640WA0110101119000000000000
B1852433733272S06000641WA0109601121000000000000
B1852473733222S06000600WA0110001127000000000000
B1852513733214S06000519WA0110601134000000000000
B1852553733249S06000447WA0111401134000000000000
B1852593733317S06000411WA0111301134000000000000
B1853033733389S06000416WA0111001132000000000000
B1853073733447S06000455WA0111001133000000000000
B1853113733473S06000527WA0111001138000000000000
B1853153733454S06000588WA0111801139000000000000
B1853193733400S06000601WA0111001133000000000000
B1853233733361S06000541WA0111401139000000000000
B1853273733377S06000454WA0112001148000000000000
B1853313733442S06000415WA0113401161000000000000
B1853353733494S06000455WA0113701153000000000000
B1853393733506S06000525WA0112901147000000000000
B1853433733546S06000584WA0112501140000000000000
B1853473733617S06000610WA0111401130000000000000
B1853513733697S06000601WA0110301122000000000000
B1853553733766S06000545WA0109501116000000000000
B1853593733824S06000473WA0109101122000000000000
B1854033733860S06000395WA0110201128000000000000
B1854073733844S06000324WA0110701129000000000000
B1854113733795S06000297WA0110001116000000000000
B1854153733745S06000321WA0108801106000000000000
B1854193733698S06000359WA0108601110000000000000
B1854233733655S06000402WA0108801111000000000000
B1854273733620S06000460WA0109201119000000000000
B1854313733594S06000525WA0109301113000000000000
B1854353733573S06000600WA0108901112000000000000
B1854393733548S06000672WA0108901112000000000000
B1854433733528S06000749WA0108801105000000000000
B1854473733509S06000832WA0107901095000000000000
B1854513733491S06000917WA0107101085000000000000
B1854553733476S06001006WA0105601067000000000000
B1854593733468S06001101WA0104201058000000000000
B1855033733464S06001199WA0103401051000000000000
B1855073733456S06001295WA0102801040000000000000
B1855113733451S06001391WA0101501026000000000000
B1855153733463S06001486WA0100701020000000000000
B1855193733477S06001580WA0100401015000000000000
B1855233733502S06001655WA0101901052000000000000
B1855273733532S06001715WA0104201059000000000000
B1855313733584S06001762WA0104201050000000000000
B1855353733630S06001819WA0103401047000000000000
B1855393733649S06001892WA0102801048000000000000
B1855433733626S06001949WA0102701044000000000000
B1855473733581S06001928WA0102601044000000000000
B1855513733582S06001846WA0102401041000000000000
B1855553733637S06001775WA0102201036000000000000
B1855593733702S06001708WA0101701032000000000000
B1856033733760S06001641WA0101401033000000000000
B1856073733789S06001556WA0102201049000000000000
B1856113733780S06001478WA0103001046000000000000
B1856153733741S06001434WA0102701046000000000000
B1856193733701S06001455WA0102501038000000000000
B1856233733717S06001528WA0101501031000000000000
B1856273733784S06001564WA0101701038000000000000
B1856313733850S06001595WA0101701035000000000000
B1856353733903S06001643WA0101901039000000000000
B1856393733958S06001693WA0102201042000000000000
B1856433734011S06001744WA0103101057000000000000
B1856473734080S06001753WA0104101065000000000000
B1856513734124S06001682WA0104801068000000000000
B1856553734089S06001625WA0105001075000000000000
B1856593734046S06001655WA0105801084000000000000
B1857033734058S06001725WA0106801096000000000000
B1857073734124S06001755WA0107901104000000000000
B1857113734182S06001699WA0108601115000000000000
B1857153734169S06001627WA0109301118000000000000
B1857193734120S06001630WA0109501125000000000000
B1857233734115S06001699WA0110101127000000000000
B1857273734179S06001744WA0111301142000000000000
B1857313734244S06001711WA0112401156000000000000
B1857353734258S06001637WA0113501157000000000000
B1857393734219S06001598WA0113501163000000000000
B1857433734179S06001625WA0114201168000000000000
B1857473734182S06001695WA0114701176000000000000
B1857513734237S06001746WA0115801191000000000000
B1857553734306S06001719WA0116701196000000000000
B1857593734308S06001642WA0117401207000000000000
B1858033734262S06001647WA0118701221000000000000
B1858073734267S06001719WA0119501228000000000000
B1858113734338S06001744WA0120401238000000000000
B1858153734388S06001685WA0120701240000000000000
B1858193734374S06001617WA0121301253000000000000
B1858233734330S06001624WA0122501262000000000000
B1858273734325S06001693WA0123201266000000000000
B1858313734383S06001742WA0124001279000000000000
B1858353734453S06001716WA0124301273000000000000
B1858393734468S06001634WA0124601287000000000000
B1858433734436S06001590WA0126001300000000000000
B1858473734393S06001615WA0126801303000000000000
B1858513734400S06001689WA0127501315000000000000
B1858553734466S06001725WA0128501321000000000000
B1858593734530S06001679WA0128501324000000000000
B1859033734530S06001601WA0129601338000000000000
B1859073734487S06001576WA0130601344000000000000
B1859113734456S06001629WA0131201353000000000000
B1859153734491S06001702WA0132001357000000000000
B1859193734569S06001715WA0131901353000000000000
B1859233734630S06001658WA0132001365000000000000
B1859273734634S06001580WA0133201375000000000000
B1859313734594S06001547WA0134401388000000000000
B1859353734555S06001580WA0135101393000000000000
B1859393734559S06001654WA0136101403000000000000
B1859433734614S06001705WA0136601405000000000000
B1859473734689S06001682WA0136301395000000000000
B1859513734731S06001608WA0136101410000000000000
B1859553734756S06001533WA0137501416000000000000
B1859593734731S06001468WA0137901422000000000000
B1900033734687S06001456WA0138801434000000000000
B1900073734659S06001510WA0139601432000000000000
B1900113734686S06001588WA0139501438000000000000
B1900153734755S06001623WA0140301448000000000000
B1900193734826S06001588WA0140801449000000000000
B1900233734846S06001507WA0141301455000000000000
B1900273734813S06001452WA0141701465000000000000
B1900313734767S06001461WA0142801474000000000000
B1900353734747S06001525WA0143301478000000000000
B1900393734794S06001598WA0143501482000000000000
B1900433734867S06001610WA0144601495000000000000
B1900473734916S06001550WA0145101493000000000000
B1900513734907S06001476WA0145201498000000000000
B1900553734861S06001450WA0145801507000000000000
B1900593734825S06001491WA0146901518000000000000
B1901033734841S06001571WA0147201516000000000000
B1901073734910S06001611WA0147201522000000000000
B1901113734981S06001577WA0147601522000000000000
B1901153735003S06001497WA0148301536000000000000
B1901193734977S06001438WA0149301540000000000000
B1901233734930S06001448WA0150001544000000000000
B1901273734904S06001510WA0150501548000000000000
B1901313734897S06001589WA0150101539000000000000
B1901353734895S06001677WA0148801528000000000000
B1901393734895S06001772WA0147401508000000000000
B1901433734894S06001874WA0145901499000000000000
B1901473734891S06001975WA0145301486000000000000
B1901513734882S06002076WA0144201473000000000000
B1901553734873S06002180WA0143101461000000000000
B1901593734864S06002286WA0141901450000000000000
B1902033734858S06002392WA0140801439000000000000
B1902073734850S06002498WA0139701428000000000000
B1902113734843S06002604WA0138901419000000000000
B1902153734837S06002713WA0138201410000000000000
B1902193734832S06002821WA0137201402000000000000
B1902233734822S06002930WA0136301391000000000000
B1902273734812S06003038WA0135401382000000000000
B1902313734800S06003146WA0134701376000000000000
B1902353734786S06003254WA0133901367000000000000
B1902393734770S06003363WA0133101361000000000000
B1902433734756S06003471WA0132801358000000000000
B1902473734743S06003578WA0132301351000000000000
B1902513734729S06003684WA0131801344000000000000
B1902553734716S06003795WA0130901333000000000000
B1902593734698S06003905WA0129901321000000000000
B1903033734673S06004017WA0128801315000000000000
B1903073734652S06004128WA0128101308000000000000
B1903113734630S06004237WA0127301296000000000000
B1903153734609S06004347WA0126501291000000000000
B1903193734588S06004454WA0126001286000000000000
B1903233734569S06004559WA0125601282000000000000
B1903273734549S06004665WA0125201275000000000000
B1903313734529S06004769WA0124401264000000000000
B1903353734507S06004875WA0123201252000000000000
B1903393734481S06004979WA0122101243000000000000
B1903433734453S06005085WA0121401235000000000000
B1903473734425S06005192WA0120601225000000000000
B1903513734392S06005300WA0119501216000000000000
B1903553734360S06005407WA0118701209000000000000
B1903593734325S06005512WA0118101200000000000000
B1904033734286S06005618WA0117501192000000000000
B1904073734248S06005720WA0117001188000000000000
B1904113734210S06005823WA0116201181000000000000
B1904153734172S06005922WA0115601178000000000000
B1904193734133S06006019WA0115001167000000000000
B1904233734094S06006115WA0114101157000000000000
B1904273734054S06006209WA0113701156000000000000
B1904313734015S06006301WA0113601153000000000000
B1904353733977S06006394WA0113301152000000000000
B1904393733938S06006486WA0113201152000000000000
B1904433733898S06006574WA0113301158000000000000
B1904473733854S06006655WA0113601155000000000000
B1904513733806S06006732WA0113601161000000000000
B1904553733756S06006794WA0114801182000000000000
B1904593733711S06006834WA0117701216000000000000
B1905033733671S06006804WA0120401239000000000000
B1905073733678S06006730WA0121601244000000000000
B1905113733740S06006684WA0121701246000000000000
B1905153733814S06006695WA0122201253000000000000
B1905193733849S06006763WA0122501254000000000000
B1905233733841S06006830WA0123101264000000000000
B1905273733798S06006847WA0124301279000000000000
B1905313733781S06006786WA0125701289000000000000
B1905353733828S06006723WA0126301298000000000000
B1905393733901S06006734WA0126901300000000000000
B1905433733945S06006794WA0127601312000000000000
B1905473733928S06006853WA0128501321000000000000
B1905513733884S06006840WA0129501333000000000000
B1905553733894S06006764WA0130501337000000000000
B1905593733966S06006738WA0130901349000000000000
B1906033734005S06006802WA0132201363000000000000
B1906073733971S06006843WA0132901361000000000000
B1906113733935S06006797WA0133501377000000000000
B1906153733970S06006724WA0134501382000000000000
B1906193734040S06006725WA0135501394000000000000
B1906233734072S06006790WA0136101399000000000000
B1906273734037S06006829WA0136401401000000000000
B1906313734010S06006767WA0137501413000000000000
B1906353734055S06006706WA0138601424000000000000
B1906393734126S06006717WA0139401433000000000000
B1906433734135S06006789WA0139901427000000000000
B1906473734079S06006799WA0139401438000000000000
B1906513734066S06006729WA0140901455000000000000
B1906553734126S06006678WA0142401467000000000000
B1906593734192S06006716WA0143301478000000000000
B1907033734193S06006788WA0144301485000000000000
B1907073734145S06006806WA0144801492000000000000
B1907113734114S06006755WA0145601500000000000000
B1907153734146S06006682WA0146301506000000000000
B1907193734221S06006672WA0147001518000000000000
B1907233734257S06006742WA0148001527000000000000
B1907273734222S06006789WA0148601528000000000000
B1907313734183S06006742WA0149101538000000000000
B1907353734215S06006671WA0149901544000000000000
B1907393734293S06006661WA0150001547000000000000
B1907433734345S06006723WA0151101565000000000000
B1907473734331S06006789WA0152401569000000000000
B1907513734282S06006777WA0152801575000000000000
B1907553734291S06006700WA0153401581000000000000
B1907593734365S06006680WA0154101589000000000000
B1908033734397S06006751WA0155001599000000000000
B1908073734357S06006785WA0155701603000000000000
B1908113734319S06006734WA0156001611000000000000
B1908153734341S06006659WA0156701619000000000000
B1908193734416S06006651WA0157501627000000000000
B1908233734436S06006728WA0158001632000000000000
B1908273734383S06006743WA0158501636000000000000
B1908313734374S06006669WA0159301644000000000000
B1908353734443S06006624WA0159501645000000000000
B1908393734509S06006671WA0160401660000000000000
B1908433734504S06006741WA0161501668000000000000
B1908473734453S06006726WA0162101672000000000000
B1908513734464S06006647WA0162501676000000000000
B1908553734538S06006621WA0162401671000000000000
B1908593734607S06006665WA0162601689000000000000
B1909033734613S06006741WA0164001692000000000000
B1909073734565S06006763WA0164501696000000000000
B1909113734535S06006702WA0164801698000000000000
B1909153734583S06006638WA0165401702000000000000
B1909193734659S06006663WA0165401702000000000000
B1909233734692S06006743WA0165201700000000000000
B1909273734695S06006834WA0164901693000000000000
B1909313734683S06006928WA0164401683000000000000
B1909353734668S06007031WA0162701660000000000000
B1909393734646S06007139WA0160601647000000000000
B1909433734624S06007248WA0160301651000000000000
B1909473734601S06007358WA0160001641000000000000
B1909513734577S06007470WA0159201633000000000000
B1909553734549S06007582WA0158601624000000000000
B1909593734523S06007696WA0157701616000000000000
B1910033734497S06007811WA0156901608000000000000
B1910073734474S06007926WA0156201602000000000000
B1910113734449S06008042WA0155501590000000000000
B1910153734425S06008158WA0154401579000000000000
B1910193734397S06008275WA0153401575000000000000
B1910233734374S06008389WA0153001569000000000000
B1910273734348S06008504WA0152601562000000000000
B1910313734323S06008618WA0151701553000000000000
B1910353734299S06008732WA0151001546000000000000
B1910393734273S06008847WA0150301543000000000000
B1910433734249S06008962WA0150101540000000000000
B1910473734228S06009078WA0149801534000000000000
B1910513734208S06009194WA0149101528000000000000
B1910553734188S06009308WA0148601524000000000000
B1910593734170S06009423WA0148301518000000000000
B1911033734153S06009536WA0147601509000000000000
B1911073734136S06009650WA0146901503000000000000
B1911113734110S06009757WA0146201497000000000000
B1911153734080S06009858WA0145501486000000000000
B1911193734049S06009960WA0144401471000000000000
B1911233734022S06010065WA0143201465000000000000
B1911273733993S06010168WA0142401457000000000000
B1911313733962S06010268WA0141901451000000000000
B1911353733932S06010368WA0141601443000000000000
