ACAM3FF
HFDTE120125
HFFXA050
HFPLTPILOT:Ole Refsgaard           
HFGTYGLIDERTYPE:Nimbus 4T   
HFGIDGLIDERID:OY-LIX 4T   
HFDTM100GPSDATUM:
HFRFWFIRMWAREVERSION:F2.6
HFRHWHARDWAREVERSION:300 Series Version 2
HFFTYFRTYPE:CAMBRIDGE AERO INSTRUMENTS, 302+
HFGPS:GARMIN,LVS-25,12,18000
HFPRSPRESSALTSENSOR:INTERSEMA, MS5534-AP, 20000
I033638FXA3941ENL4247REX
LCAMSBVER:5FWVER:F26300
C230423093639230423000103
C0000000N00000000WTAKEOFF     
C5600850N00859833E0001ArnborgR
C5555633N00940883E0761NimKrk  
C5637383N00946250E0152FyrkatBr
C5558083N00944933E0170Oestbirk
C5600633N00900867E0851ArnborgF
C0000000N00000000WLANDING     
B1609533801961S06007877WA0020000191000044000000
B1609553801961S06007877WA0020000191000048000000
B1609573801961S06007877WA0019900191000048000000
B1609593801961S06007877WA0019900191000048000000
B1610013801961S06007877WA0019900191000048000000
B1610033801961S06007877WA0019900191000044000000
B1610053801961S06007877WA0019900191000044000000
B1610073801961S06007877WA0020000191000048000000
B1610093801961S06007877WA0020000191000052000000
B1610113801961S06007877WA0020000191000052000000
B1610133801961S06007877WA0020000191000048000000
B1610153801961S06007877WA0019900191000048000000
B1610173801961S06007877WA0019900191000056000000
B1610193801961S06007877WA0019900191000064000000
B1610213801960S06007880WA0019900191000152000000
B1610263801946S06007896WA0020000191000708000000
B1610303801925S06007921WA0020000192000996000000
B1610343801899S06007956WA0020000192000840000000
B1610383801868S06008002WA0020200193000680000000
B1610423801830S06008054WA0020400194000548000000
B1610463801788S06008111WA0020200198000420000000
B1610503801744S06008167WA0020400207000320000000
B1610543801704S06008223WA0021800221000228000000
B1610583801666S06008283WA0023000234000176000000
B1611023801644S06008353WA0024300244000152000000
B1611063801640S06008433WA0024900251000136000000
B1611103801654S06008517WA0026000263000128000000
B1611143801677S06008595WA0027300277000112000000
B1611183801701S06008674WA0028100284000092000000
B1611223801718S06008752WA0028900294000088000000
B1611263801736S06008830WA0029600301000084000000
B1611303801752S06008908WA0030200308000080000000
B1611343801761S06008986WA0031100317000080000000
B1611383801762S06009063WA0032500332000076000000
B1611423801756S06009141WA0033300341000072000000
B1611463801748S06009216WA0034600354000072000000
B1611503801738S06009290WA0035700365000080000000
B1611543801726S06009365WA0036700376000076000000
B1611583801709S06009438WA0037800389000080000000
B1612023801700S06009516WA0039100400000084000000
B1612063801700S06009593WA0041000423000092000000
B1612103801704S06009667WA0042600437000084000000
B1612143801693S06009737WA0043300440000076000000
B1612183801666S06009797WA0043300439000076000000
B1612223801626S06009841WA0043300439000076000000
B1612263801578S06009872WA0043300441000076000000
B1612303801528S06009892WA0044000453000084000000
B1612343801479S06009892WA0045500467000072000000
B1612383801428S06009862WA0046400470000068000000
B1612423801380S06009809WA0047000480000064000000
B1612463801335S06009740WA0048100495000072000000
B1612503801290S06009677WA0050400519000072000000
B1612543801257S06009602WA0051800525000068000000
B1612583801235S06009514WA0052100535000068000000
B1613023801212S06009429WA0053000545000072000000
B1613063801183S06009352WA0054200558000076000000
B1613103801138S06009293WA0055500570000080000000
B1613143801090S06009237WA0056400579000080000000
B1613183801043S06009173WA0057800596000088000000
B1613223801006S06009100WA0059500615000080000000
B1613263800982S06009020WA0061100629000072000000
B1613303800969S06008935WA0062100637000068000000
B1613343800951S06008851WA0062400640000072000000
B1613383800919S06008778WA0063000648000076000000
B1613423800884S06008706WA0064000660000072000000
B1613463800854S06008632WA0065200673000064000000
B1613503800820S06008563WA0066400684000068000000
B1613543800776S06008502WA0067100691000076000000
B1613583800733S06008435WA0068300705000080000000
B1614023800700S06008362WA0070100727000072000000
B1614063800682S06008280WA0072100752000088000000
B1614103800666S06008207WA0073900765000092000000
B1614143800646S06008138WA0074100759000076000000
B1614183800625S06008063WA0073400751000060000000
B1614223800608S06007985WA0073000751000052000000
B1614263800592S06007907WA0073200751000044000000
B1614303800575S06007833WA0073000748000044000000
B1614343800553S06007761WA0073100752000044000000
B1614383800527S06007699WA0073800759000044000000
B1614423800490S06007661WA0074300764000044000000
B1614463800456S06007692WA0074700769000048000000
B1614503800482S06007752WA0075300776000048000000
B1614543800549S06007753WA0075700780000048015000
B1614583800591S06007690WA0076100784000052015000
B1615023800573S06007629WA0076400784000052030000
B1615063800534S06007644WA0076600785000052030000
B1615103800556S06007705WA0076800789000052045000
B1615143800629S06007696WA0077300792000052045000
B1615183800652S06007618WA0077900805000052045000
B1615223800616S06007583WA0079000813000048045000
B1615263800588S06007620WA0079400819000044045000
B1615303800612S06007678WA0079900820000040045000
B1615343800677S06007700WA0080000824000044045000
B1615383800742S06007661WA0080200826000044030000
B1615423800786S06007590WA0080500833000048030000
B1615463800791S06007512WA0081300839000048030000
B1615503800761S06007458WA0081600840000048030000
B1615543800718S06007443WA0081100834000048015000
B1615583800679S06007465WA0080800835000048015000
B1616023800650S06007499WA0081800845000048015000
B1616063800640S06007553WA0082100847000052015000
B1616103800661S06007617WA0081600842000052015000
B1616143800708S06007670WA0081500839000044015000
B1616183800769S06007704WA0081200837000048015000
B1616223800835S06007726WA0081300834000048015000
B1616263800907S06007722WA0080700832000044015000
B1616303800960S06007656WA0080600831000048015000
B1616343800952S06007575WA0080500833000048015000
B1616383800907S06007569WA0080800832000048030000
B1616423800908S06007631WA0080300827000040030000
B1616463800971S06007669WA0080100824000040030000
B1616503801040S06007629WA0080400831000040045000
B1616543801064S06007544WA0080800832000044045000
B1616583801056S06007462WA0080800834000044030000
B1617023801027S06007400WA0081200840000044030000
B1617063800981S06007389WA0081500841000052030000
B1617103800978S06007451WA0081300835000048030000
B1617143801051S06007457WA0080800830000044030000
B1617183801082S06007374WA0080800832000044030000
B1617223801042S06007324WA0081200835000052030000
B1617263800990S06007324WA0081000834000052030000
B1617303800950S06007354WA0080900831000048030000
B1617343800963S06007422WA0080500828000052030000
B1617383801032S06007439WA0080400827000056030000
B1617423801085S06007373WA0079600822000048030000
B1617463801077S06007292WA0079400821000044030000
B1617503801033S06007276WA0079100817000044030000
B1617543801020S06007331WA0078600812000048030000
B1617583801047S06007397WA0078200805000048030000
B1618023801093S06007461WA0077000792000048030000
B1618063801145S06007522WA0076000782000044015000
B1618103801196S06007584WA0075600784000044015000
B1618143801241S06007647WA0075400778000044015000
B1618183801287S06007711WA0074800773000056015000
B1618223801333S06007770WA0075000778000060015000
B1618263801384S06007821WA0075600783000056015000
B1618303801448S06007859WA0076100794000056015000
B1618343801522S06007867WA0077200804000052015000
B1618383801588S06007815WA0077800811000052015000
B1618423801625S06007733WA0078800819000048015000
B1618463801615S06007659WA0079700825000048015000
B1618503801574S06007669WA0079900827000052015000
B1618543801588S06007735WA0080700837000052030000
B1618583801647S06007782WA0081600843000052030000
B1619023801722S06007769WA0082200851000052045000
B1619063801760S06007690WA0083000859000048045000
B1619103801727S06007644WA0083600868000048045000
B1619143801708S06007692WA0084600876000048045000
B1619183801755S06007743WA0085400889000048045000
B1619223801826S06007738WA0086600897000048045000
B1619263801883S06007679WA0087200907000048045000
B1619303801891S06007599WA0088300915000048045000
B1619343801857S06007551WA0088700917000048045000
B1619383801814S06007566WA0088600914000052030000
B1619423801775S06007604WA0089300926000060030000
B1619463801766S06007665WA0089900933000064030000
B1619503801805S06007725WA0091000939000064030000
B1619543801881S06007726WA0090800938000056030000
B1619583801946S06007664WA0090800934000064030000
B1620023801966S06007578WA0091000945000060030000
B1620063801924S06007571WA0091800950000056030000
B1620103801955S06007630WA0092100954000052030000
B1620143802025S06007594WA0092700962000056030000
B1620183802044S06007508WA0093600972000052030000
B1620223802012S06007460WA0094300977000048045000
B1620263801977S06007487WA0094900985000048045000
B1620303801977S06007551WA0095600991000044030000
B1620343802015S06007612WA0095900994000044030000
B1620383802076S06007653WA0096000997000048015000
B1620423802151S06007647WA0096501004000048015000
B1620463802216S06007595WA0097501016000048015000
B1620503802258S06007516WA0098501023000052015000
B1620543802271S06007427WA0099001028000052015000
B1620583802254S06007353WA0099601034000052015000
B1621023802219S06007310WA0100501040000052015000
B1621063802178S06007314WA0101001045000044015000
B1621103802158S06007366WA0101301046000044015000
B1621143802160S06007434WA0102001053000044015000
B1621183802223S06007462WA0102201055000052015000
B1621223802269S06007388WA0102401059000052015000
B1621263802237S06007334WA0103201068000052015000
B1621303802210S06007376WA0103701074000052030000
B1621343802260S06007422WA0104401084000052030000
B1621383802327S06007379WA0104901089000052030000
B1621423802341S06007293WA0105501093000052030000
B1621463802315S06007227WA0105901095000056030000
B1621503802272S06007219WA0106201100000052030000
B1621543802277S06007278WA0106701105000052030000
B1621583802341S06007310WA0107201111000052030000
B1622023802403S06007262WA0108101120000052030000
B1622063802410S06007184WA0108901126000048030000
B1622103802371S06007158WA0109101126000052030000
B1622143802355S06007211WA0108801123000056030000
B1622183802397S06007270WA0109201131000052030000
B1622223802473S06007265WA0109601134000048030000
B1622263802518S06007187WA0109801138000048030000
B1622303802486S06007133WA0110301144000048030000
B1622343802454S06007170WA0110601143000048030000
B1622383802498S06007227WA0110701148000052030000
B1622423802574S06007204WA0111101151000052030000
B1622463802585S06007120WA0111501157000052030000
B1622503802542S06007111WA0111801157000048045000
B1622543802545S06007176WA0112001162000052030000
B1622583802592S06007230WA0112501170000052045000
B1623023802661S06007213WA0113201174000052030000
B1623063802696S06007140WA0113301174000048030000
B1623103802681S06007064WA0113201175000048030000
B1623143802646S06007011WA0113701181000052030000
B1623183802603S06007014WA0114301185000056030000
B1623223802590S06007067WA0114501188000060030000
B1623263802640S06007114WA0114501189000056030000
B1623303802709S06007080WA0114801190000060030000
B1623343802715S06006999WA0114501187000056030000
B1623383802671S06006972WA0114501189000052030000
B1623423802629S06006998WA0114401186000056030000
B1623463802611S06007055WA0115101194000060015000
B1623503802667S06007093WA0116201206000060030000
B1623543802731S06007041WA0117101211000060030000
B1623583802718S06006971WA0117201212000064030000
B1624023802689S06006998WA0117701220000064030000
B1624063802737S06007045WA0118401227000060030000
B1624103802809S06007001WA0118701230000056030000
B1624143802811S06006916WA0118801235000056030000
B1624183802771S06006899WA0119801243000052030000
B1624223802763S06006957WA0120201244000052030000
B1624263802822S06006998WA0120701258000052030000
B1624303802883S06006944WA0122001266000048030000
B1624343802863S06006877WA0122101261000052030000
B1624383802828S06006907WA0121801262000052030000
B1624423802854S06006976WA0122501272000052030000
B1624463802930S06006979WA0123601287000048030000
B1624503802970S06006901WA0124601289000048030000
B1624543802941S06006842WA0124501289000044030000
B1624583802910S06006872WA0124801294000044030000
B1625023802951S06006932WA0125401298000044045000
B1625063803027S06006934WA0126301310000044030000
B1625103803069S06006860WA0126801308000044030000
B1625143803042S06006804WA0126701311000052030000
B1625183803005S06006821WA0126901314000052030000
B1625223803001S06006880WA0127401321000048030000
B1625263803056S06006914WA0128601336000064030000
B1625303803118S06006873WA0129801340000060030000
B1625343803139S06006794WA0129601331000060030000
B1625383803109S06006737WA0128801333000060030000
B1625423803077S06006758WA0129501342000056030000
B1625463803099S06006819WA0130401347000052030000
B1625503803161S06006849WA0131101356000048030000
B1625543803216S06006789WA0131501358000048030000
B1625583803200S06006721WA0131201354000048030000
B1626023803162S06006741WA0131401358000048030000
B1626063803181S06006803WA0132101371000044030000
B1626103803251S06006802WA0133301381000044030000
B1626143803281S06006726WA0133601382000048030000
B1626183803244S06006684WA0133201373000044030000
B1626223803220S06006734WA0133001385000048030000
B1626263803268S06006785WA0134501399000044045000
B1626303803334S06006747WA0135501402000060030000
B1626343803339S06006665WA0135401403000068030000
B1626383803298S06006639WA0136101411000060030000
B1626423803272S06006681WA0136901415000056030000
B1626463803312S06006738WA0137101421000056030000
B1626503803383S06006717WA0138001432000052030000
B1626543803400S06006637WA0138801438000052030000
B1626583803359S06006602WA0139201442000048030000
B1627023803329S06006642WA0139701446000056030000
B1627063803352S06006711WA0139601442000068030000
B1627103803420S06006758WA0139501442000068045000
B1627143803504S06006773WA0139601449000068030000
B1627183803585S06006741WA0140001451000068030000
B1627223803630S06006659WA0140201450000064030000
B1627263803612S06006577WA0139901447000056030000
B1627303803560S06006552WA0139501440000056030000
B1627343803506S06006578WA0138501435000056030000
B1627383803456S06006621WA0139001443000056015000
B1627423803409S06006667WA0139501444000056015000
B1627463803361S06006712WA0139001432000048015000
B1627503803307S06006759WA0137101411000048015000
B1627543803246S06006804WA0135401399000088015000
B1627583803191S06006862WA0134601394000096015000
B1628023803140S06006921WA0134201390000096015000
B1628063803091S06006977WA0134301394000080015000
B1628103803042S06007027WA0134201389000064015000
B1628143802988S06007072WA0132901376000056015000
B1628183802931S06007119WA0131901362000048015000
B1628223802870S06007165WA0130701352000048015000
B1628263802805S06007206WA0130301349000048015000
B1628303802741S06007246WA0129601343000048015000
B1628343802676S06007282WA0128901338000048015000
B1628383802609S06007306WA0128701336000044015000
B1628423802540S06007324WA0127801326000044000000
B1628463802468S06007339WA0126801315000068000000
B1628503802397S06007352WA0126101307000072000000
B1628543802324S06007366WA0125401297000092000000
B1628583802252S06007380WA0124601296000080000000
B1629023802185S06007395WA0124501293000068000000
B1629063802116S06007408WA0124001284000060000000
B1629103802048S06007418WA0123601283000064000000
B1629143801983S06007427WA0124001288000076000000
B1629183801922S06007439WA0124201290000076000000
B1629223801862S06007449WA0124701296000076000000
B1629263801804S06007462WA0125101301000068000000
B1629303801745S06007473WA0125701304000064000000
B1629343801688S06007486WA0126101313000060000000
B1629383801634S06007508WA0126301311000052000000
B1629423801583S06007549WA0126901328000048000000
B1629463801563S06007614WA0129201348000048000000
B1629503801622S06007661WA0130501361000044000000
B1629543801691S06007614WA0131201361000048015000
B1629583801683S06007543WA0132001372000048015000
B1630023801638S06007540WA0132901376000044015000
B1630063801632S06007596WA0133401380000048015000
B1630103801699S06007616WA0134101388000044030000
B1630143801747S06007545WA0134501388000052030000
B1630183801721S06007487WA0134601391000052030000
B1630223801678S06007506WA0135001395000060030000
B1630263801686S06007570WA0134901400000056030000
B1630303801751S06007605WA0135601408000072030000
B1630343801825S06007581WA0136301413000076030000
B1630383801861S06007503WA0136901418000088030000
B1630423801831S06007454WA0137001418000100030000
B1630463801807S06007493WA0136901415000080030000
B1630503801847S06007547WA0136801419000076030000
B1630543801920S06007557WA0137101419000072045000
B1630583801983S06007505WA0136701416000064030000
B1631023801976S06007426WA0137001422000056030000
B1631063801934S06007431WA0137801428000056045000
B1631103801944S06007496WA0137701425000056045000
B1631143802016S06007506WA0137801427000056045000
B1631183802055S06007430WA0138001430000052045000
B1631223802025S06007367WA0138401438000060030000
B1631263801982S06007366WA0139301441000060030000
B1631303802002S06007428WA0139601450000056045000
B1631343802070S06007423WA0140401454000052030000
B1631383802098S06007347WA0140401454000052030000
B1631423802065S06007300WA0141101463000048030000
B1631463802024S06007301WA0141301461000048030000
B1631503802003S06007354WA0140401456000040030000
B1631543802047S06007417WA0140501462000044030000
B1631583802124S06007415WA0141201469000044030000
B1632023802171S06007343WA0141401466000044030000
B1632063802165S06007257WA0141301466000044030000
B1632103802129S06007202WA0141601471000040030000
B1632143802083S06007197WA0141901471000040030000
B1632183802052S06007236WA0141701470000040030000
B1632223802074S06007308WA0141901472000044030000
B1632263802148S06007336WA0142201476000060030000
B1632303802215S06007283WA0142701483000056030000
B1632343802221S06007204WA0143001483000048030000
B1632383802181S06007162WA0142801478000048030000
B1632423802128S06007148WA0141501458000052030000
B1632463802064S06007142WA0140001443000056015000
B1632503801995S06007141WA0139501446000056015000
B1632543801927S06007146WA0140001446000060015000
B1632583801857S06007153WA0138901429000060015000
B1633023801783S06007158WA0137601419000064015000
B1633063801709S06007161WA0136501406000064015000
B1633103801631S06007158WA0135101390000064015000
B1633143801554S06007135WA0134101384000060015000
B1633183801482S06007101WA0134301387000060015000
B1633223801414S06007066WA0134401389000120015000
B1633263801348S06007031WA0135201401000112000000
B1633303801285S06006998WA0135901408000096000000
B1633343801222S06006968WA0136501412000084000000
B1633383801159S06006945WA0137101421000080000000
B1633423801098S06006919WA0137101413000080000000
B1633463801036S06006893WA0136201407000072000000
B1633503800973S06006866WA0136501410000072000000
B1633543800916S06006836WA0136701415000060000000
B1633583800861S06006806WA0137101417000052000000
B1634023800806S06006776WA0136801413000044000000
B1634063800746S06006746WA0136001403000052000000
B1634103800683S06006717WA0135601402000056000000
B1634143800621S06006695WA0135901408000056000000
B1634183800557S06006677WA0136501411000056000000
B1634223800491S06006663WA0136001404000052000000
B1634263800423S06006656WA0135701402000052000000
B1634303800354S06006651WA0135401399000048000000
B1634343800287S06006650WA0135701405000048000000
B1634383800222S06006651WA0136201410000052000000
B1634423800157S06006650WA0136601411000052000000
B1634463800092S06006646WA0136201405000056000000
B1634503800031S06006638WA0136501414000052000000
B1634543759974S06006628WA0136301406000048000000
B1634583759912S06006620WA0135401396000052000000
B1635023759849S06006611WA0135201398000048000000
B1635063759789S06006593WA0135401402000044000000
B1635103759730S06006570WA0135201393000044000000
B1635143759664S06006554WA0133901380000044000000
B1635183759598S06006538WA0133801384000044000000
B1635223759538S06006530WA0134901399000044000000
B1635263759485S06006538WA0135801406000056000000
B1635303759433S06006557WA0136201412000068000000
B1635343759382S06006583WA0136001405000060000000
B1635383759327S06006617WA0135801406000056000000
B1635423759270S06006648WA0135601395000056000000
B1635463759209S06006681WA0133901377000056000000
B1635503759143S06006710WA0132501368000052000000
B1635543759077S06006728WA0132101365000048000000
B1635583759013S06006743WA0132201370000048000000
B1636023758953S06006752WA0132801378000048000000
B1636063758900S06006767WA0133601386000044000000
B1636103758861S06006804WA0134401393000044000000
B1636143758854S06006864WA0134901396000040000000
B1636183758896S06006920WA0134801397000044000000
B1636223758970S06006899WA0135501407000048000000
B1636263758988S06006817WA0136101411000044015000
B1636303758944S06006788WA0136101411000044015000
B1636343758934S06006843WA0136501416000048030000
B1636383758993S06006876WA0136901423000048030000
B1636423759052S06006819WA0137201423000044030000
B1636463759049S06006736WA0137601428000044030000
B1636503759005S06006726WA0137901429000060045000
B1636543759010S06006789WA0137801429000052045000
B1636583759077S06006806WA0138101433000048045000
B1637023759121S06006742WA0138701437000048045000
B1637063759095S06006684WA0139001441000044045000
B1637103759048S06006684WA0138901439000048030000
B1637143759043S06006739WA0138601438000044030000
B1637183759103S06006768WA0139001444000044030000
B1637223759165S06006720WA0139201442000048030000
B1637263759171S06006641WA0139301445000048045000
B1637303759126S06006616WA0139301446000048045000
B1637343759104S06006664WA0139201440000048045000
B1637383759148S06006720WA0139001439000048045000
B1637423759222S06006715WA0138901439000048030000
B1637463759274S06006648WA0139101441000044030000
B1637503759265S06006568WA0139201441000044030000
B1637543759221S06006522WA0139201438000044030000
B1637583759173S06006525WA0138701433000044030000
B1638023759151S06006578WA0138601432000040030000
B1638063759160S06006646WA0138401430000040015000
B1638103759222S06006680WA0138201429000044030000
B1638143759286S06006625WA0138501435000044030000
B1638183759282S06006547WA0138801437000048030000
B1638223759239S06006520WA0138501433000052045000
B1638263759196S06006539WA0138001420000052030000
B1638303759149S06006574WA0136201403000052030000
B1638343759097S06006604WA0135201396000052015000
B1638383759041S06006630WA0134501389000092015000
B1638423758983S06006658WA0133501379000144015000
B1638463758923S06006687WA0132501369000128015000
B1638503758859S06006717WA0131501359000096015000
B1638543758793S06006750WA0130401346000096015000
B1638583758723S06006784WA0129401332000088015000
B1639023758654S06006816WA0128101324000076015000
B1639063758585S06006847WA0127101311000072015000
B1639103758515S06006879WA0125901300000068015000
B1639143758446S06006911WA0125201294000068015000
B1639183758376S06006944WA0124101284000064015000
B1639223758306S06006979WA0123301275000060000000
B1639263758237S06007015WA0122401266000060000000
B1639303758169S06007055WA0121601256000072000000
B1639343758103S06007100WA0121001251000068000000
B1639383758040S06007148WA0120201244000072000000
B1639423757977S06007196WA0119501238000072000000
B1639463757917S06007246WA0118901231000064000000
B1639503757857S06007298WA0118101222000060000000
B1639543757799S06007349WA0117301217000060000000
B1639583757739S06007397WA0117101214000056000000
B1640023757676S06007439WA0116701211000056000000
B1640063757613S06007473WA0116701213000060000000
B1640103757554S06007510WA0116801214000056000000
B1640143757497S06007551WA0116701213000048000000
B1640183757446S06007600WA0117001217000048000000
B1640223757409S06007666WA0117601222000052000000
B1640263757407S06007748WA0117901228000052000000
B1640303757455S06007815WA0118901238000056000000
B1640343757533S06007831WA0119701247000052015000
B1640383757600S06007777WA0120601261000052015000
B1640423757601S06007698WA0121901271000048030000
B1640463757554S06007692WA0122501277000048030000
B1640503757552S06007760WA0122901282000048045000
B1640543757615S06007800WA0123801292000048045000
B1640583757678S06007750WA0125001298000048045000
B1641023757658S06007681WA0125701306000052045000
B1641063757618S06007703WA0126401315000048045000
B1641103757635S06007768WA0127501327000044045000
B1641143757697S06007795WA0128301333000040045000
B1641183757757S06007748WA0129101338000040045000
B1641223757744S06007678WA0129801348000044045000
B1641263757708S06007708WA0130801357000048060000
B1641303757754S06007763WA0131601367000044060000
B1641343757814S06007714WA0132701379000040060000
B1641383757795S06007649WA0133401385000044060000
B1641423757761S06007685WA0134201392000044060000
B1641463757804S06007742WA0134901401000044060000
B1641503757874S06007713WA0135901413000040045000
B1641543757890S06007634WA0137001424000044045000
B1641583757849S06007609WA0137801429000044045000
B1642023757844S06007674WA0138101432000044045000
B1642063757910S06007716WA0138501439000048045000
B1642103757981S06007672WA0139301448000044045000
B1642143757974S06007592WA0140401459000044045000
B1642183757931S06007609WA0141301468000044045000
B1642223757959S06007681WA0142301477000040045000
B1642263758037S06007682WA0143201488000040045000
B1642303758074S06007607WA0144601500000040045000
B1642343758046S06007545WA0145301503000036045000
B1642383758000S06007564WA0146001514000036045000
B1642423758020S06007634WA0147201527000036045000
B1642463758092S06007634WA0148501538000040045000
B1642503758117S06007553WA0149201544000044045000
B1642543758073S06007534WA0149901555000044045000
B1642583758081S06007597WA0151001566000044045000
B1643023758152S06007608WA0151801575000056045000
B1643063758194S06007534WA0153001589000056045000
B1643103758177S06007464WA0153801589000052045000
B1643143758129S06007445WA0153701594000052045000
B1643183758117S06007509WA0154201600000064045000
B1643223758182S06007545WA0155001609000068045000
B1643263758233S06007474WA0156201622000060045000
B1643303758204S06007412WA0157101631000052045000
B1643343758173S06007454WA0157401632000048045000
B1643383758228S06007506WA0158301645000048045000
B1643423758291S06007452WA0159701659000044045000
B1643463758290S06007366WA0160401662000048045000
B1643503758241S06007341WA0160901668000048045000
B1643543758219S06007399WA0161901679000048045000
B1643583758268S06007454WA0162601686000056045000
B1644023758346S06007434WA0163301695000060045000
B1644063758394S06007356WA0164101696000072045000
B1644103758381S06007267WA0163901695000060045000
B1644143758330S06007227WA0164301704000056045000
B1644183758286S06007265WA0165101713000072045000
B1644223758297S06007339WA0165901719000068045000
B1644263758363S06007382WA0166501726000064045000
B1644303758443S06007353WA0167101734000056045000
B1644343758486S06007269WA0168001738000072045000
B1644383758468S06007181WA0168001736000076045000
B1644423758410S06007149WA0167801738000068045000
B1644463758359S06007181WA0168501751000076045000
B1644503758364S06007256WA0169401757000072045000
B1644543758420S06007309WA0169701761000080045000
B1644583758499S06007304WA0170401771000064030000
B1645023758559S06007237WA0171401775000056030000
B1645063758567S06007144WA0171301773000060030000
B1645103758524S06007085WA0171001770000060045000
B1645143758467S06007085WA0171001773000064045000
B1645183758425S06007129WA0171601779000072030000
B1645223758429S06007204WA0172201785000072030000
B1645263758481S06007259WA0172701790000072030000
B1645303758557S06007257WA0173401798000060030000
B1645343758612S06007193WA0174101805000056030000
B1645383758619S06007102WA0174401805000048030000
B1645423758580S06007038WA0174501811000044030000
B1645463758524S06007025WA0175101815000052045000
B1645503758482S06007067WA0175401813000052030000
B1645543758479S06007141WA0175001809000056030000
B1645583758531S06007202WA0175101811000052030000
B1646023758607S06007210WA0175401816000052030000
B1646063758668S06007149WA0176001822000052030000
B1646103758677S06007059WA0176601825000048030000
B1646143758644S06006994WA0176801828000048030000
B1646183758592S06006997WA0177001831000060030000
B1646223758572S06007058WA0177001829000064030000
B1646263758596S06007133WA0176501824000064030000
B1646303758654S06007189WA0176301825000052030000
B1646343758735S06007198WA0176301824000060030000
B1646383758802S06007136WA0176501830000060030000
B1646423758815S06007038WA0177201835000060030000
B1646463758772S06006984WA0177601837000056030000
B1646503758726S06007009WA0177801839000052030000
B1646543758714S06007077WA0177301835000052030000
B1646583758753S06007146WA0177201835000048030000
B1647023758827S06007176WA0177201833000044030000
B1647063758905S06007142WA0177301839000044030000
B1647103758940S06007055WA0177901846000044030000
B1647143758923S06006975WA0178401850000044030000
B1647183758875S06006941WA0178601851000044030000
B1647223758830S06006964WA0178801849000048030000
B1647263758805S06007022WA0178501846000048030000
B1647303758820S06007093WA0178301843000048030000
B1647343758884S06007140WA0177901839000048030000
B1647383758965S06007139WA0177601840000048030000
B1647423759034S06007080WA0177901846000056015000
B1647463759062S06006989WA0178501849000056015000
B1647503759045S06006903WA0178601850000056030000
B1647543758997S06006855WA0178401846000048030000
B1647583758941S06006866WA0178101842000044030000
B1648023758908S06006918WA0178101843000048015000
B1648063758915S06006992WA0178001840000044015000
B1648103758960S06007057WA0177801836000040015000
B1648143759027S06007102WA0177101826000040015000
B1648183759109S06007128WA0176301825000040015000
B1648223759197S06007129WA0176301823000048015000
B1648263759270S06007072WA0177201842000048015000
B1648303759298S06006981WA0178901850000044015000
B1648343759281S06006898WA0179201853000044015000
B1648383759234S06006855WA0179601854000044030000
B1648423759184S06006860WA0179501855000044015000
B1648463759162S06006911WA0180101860000048015000
B1648503759174S06006980WA0180101857000048015000
B1648543759214S06007048WA0179801853000048015000
B1648583759277S06007103WA0179601856000056015000
B1649023759353S06007131WA0179901859000064015000
B1649063759435S06007114WA0179801859000080015000
B1649103759494S06007048WA0180501871000084015000
B1649143759504S06006963WA0181401871000072015000
B1649183759465S06006907WA0180801867000068015000
B1649223759415S06006910WA0180801866000064030000
B1649263759381S06006959WA0180901868000056015000
B1649303759385S06007035WA0180801868000056015000
B1649343759428S06007105WA0180901870000056015000
B1649383759499S06007146WA0181001871000052015000
B1649423759582S06007135WA0180901871000048015000
B1649463759645S06007067WA0181001871000052015000
B1649503759663S06006975WA0181101873000060015000
B1649543759632S06006899WA0181401874000052015000
B1649583759580S06006867WA0181801881000052015000
B1650023759532S06006892WA0182201883000052015000
B1650063759512S06006954WA0182001878000052015000
B1650103759534S06007032WA0181701878000048015000
B1650143759597S06007090WA0181801880000052015000
B1650183759678S06007107WA0181701877000060015000
B1650223759762S06007070WA0181601877000060015000
B1650263759805S06006985WA0181601876000068015000
B1650303759794S06006894WA0181301873000060030000
B1650343759749S06006840WA0181201873000056030000
B1650383759691S06006823WA0181201871000060015000
B1650423759639S06006846WA0181101868000076015000
B1650463759620S06006910WA0181101870000064015000
B1650503759650S06006983WA0181101868000056015000
B1650543759723S06007023WA0180801865000056015000
B1650583759808S06007029WA0180101857000052015000
B1651023759896S06007009WA0179601858000052015000
B1651063759968S06006958WA0180501867000044015000
B1651103800013S06006879WA0180801869000056015000
B1651143800015S06006791WA0181101871000068015000
B1651183759977S06006726WA0180901865000072015000
B1651223759922S06006704WA0180201859000060015000
B1651263759866S06006720WA0179801857000060015000
B1651303759827S06006772WA0179601854000064015000
B1651343759840S06006849WA0179801860000060015000
B1651383759885S06006915WA0179801855000056015000
B1651423759964S06006945WA0178701847000056015000
B1651463800049S06006918WA0178201843000056015000
B1651503800109S06006838WA0178001843000060015000
B1651543800122S06006745WA0179001851000056030000
B1651583800084S06006676WA0178601843000056030000
B1652023800027S06006664WA0177901833000056045000
B1652063759975S06006695WA0177201831000052030000
B1652103759945S06006759WA0176901831000056030000
B1652143759954S06006840WA0177601835000064015000
B1652183800006S06006901WA0177501836000056015000
B1652223800085S06006923WA0176901829000052030000
B1652263800169S06006898WA0176001819000048015000
B1652303800227S06006824WA0175701819000044015000
B1652343800234S06006729WA0175601814000044015000
B1652383800213S06006641WA0175001807000048015000
B1652423800167S06006572WA0174301800000048015000
B1652463800106S06006551WA0173801793000052015000
B1652503800041S06006551WA0172601779000060015000
B1652543759976S06006561WA0171601773000084015000
B1652583759910S06006573WA0171901779000080015000
B1653023759846S06006578WA0172401783000076015000
B1653063759781S06006578WA0171901773000068015000
B1653103759714S06006580WA0170501760000092015000
B1653143759643S06006585WA0170101758000092015000
B1653183759577S06006590WA0170201761000080015000
B1653223759515S06006600WA0170201760000064015000
B1653263759452S06006613WA0170201760000060000000
B1653303759389S06006625WA0170301761000072000000
B1653343759327S06006641WA0169801751000064000000
B1653383759261S06006659WA0168601737000060000000
B1653423759190S06006669WA0167501730000064000000
B1653463759118S06006669WA0167401730000060000000
B1653503759048S06006668WA0167201727000056000000
B1653543758976S06006671WA0166601718000052000000
B1653583758906S06006678WA0165701713000048000000
B1654023758839S06006690WA0165701716000048000000
B1654063758779S06006702WA0165901718000048000000
B1654103758724S06006716WA0166201721000044000000
B1654143758674S06006734WA0165601707000044000000
B1654183758616S06006755WA0164101692000048000000
B1654223758558S06006781WA0163201685000052000000
B1654263758499S06006814WA0162301675000048000000
B1654303758436S06006851WA0161301666000052000000
B1654343758368S06006884WA0161001667000060000000
B1654383758302S06006912WA0161601673000056000000
B1654423758237S06006938WA0161401669000052000000
B1654463758172S06006964WA0160901661000064000000
B1654503758112S06007001WA0160201656000056000000
B1654543758056S06007048WA0160101657000048000000
B1654583758005S06007098WA0160601664000044000000
B1655023757962S06007158WA0161401677000048000000
B1655063757944S06007239WA0162501686000048000000
B1655103757970S06007322WA0163901703000048000000
B1655143758040S06007357WA0165201720000048000000
B1655183758105S06007313WA0166701735000044015000
B1655223758111S06007237WA0168201748000040015000
B1655263758068S06007209WA0169001752000052030000
B1655303758037S06007258WA0169901757000060030000
B1655343758072S06007322WA0170701766000052030000
B1655383758143S06007324WA0170901765000048030000
B1655423758193S06007252WA0171301776000044030000
B1655463758180S06007172WA0172101783000056045000
B1655503758129S06007159WA0172801793000052045000
B1655543758108S06007224WA0173701801000044045000
B1655583758154S06007288WA0173901799000048045000
B1656023758233S06007275WA0173901801000052045000
B1656063758274S06007191WA0174301809000044045000
B1656103758246S06007115WA0174701813000048045000
B1656143758190S06007120WA0175101816000052045000
B1656183758163S06007191WA0175201817000052045000
B1656223758200S06007266WA0175501823000052045000
B1656263758280S06007283WA0176001823000052045000
B1656303758351S06007230WA0176001825000052045000
B1656343758373S06007139WA0176801836000052045000
B1656383758352S06007059WA0177201834000044045000
B1656423758299S06007024WA0176801835000048045000
B1656463758248S06007050WA0177501839000048045000
B1656503758226S06007115WA0178101844000048030000
B1656543758247S06007189WA0178401842000044030000
B1656583758312S06007231WA0178201841000044030000
B1657023758393S06007220WA0177801839000044030000
B1657063758460S06007158WA0177701842000044030000
B1657103758492S06007071WA0178301846000048015000
B1657143758477S06006986WA0178301839000044015000
B1657183758424S06006932WA0177801840000048030000
B1657223758364S06006938WA0178101846000048030000
B1657263758328S06006997WA0178701854000052030000
B1657303758326S06007075WA0178201845000048030000
B1657343758365S06007148WA0177701839000048030000
B1657383758438S06007174WA0177601844000060030000
B1657423758512S06007140WA0178101847000056030000
B1657463758559S06007063WA0178101845000052015000
B1657503758568S06006968WA0178001844000048015000
B1657543758534S06006893WA0177901842000064015000
B1657583758477S06006877WA0178001844000068030000
B1658023758427S06006916WA0177701839000064030000
B1658063758394S06006985WA0176601822000056015000
B1658103758391S06007074WA0174901807000052015000
B1658143758438S06007148WA0173801800000052015000
B1658183758515S06007159WA0173201787000048030000
B1658223758581S06007097WA0171501772000048030000
B1658263758607S06006999WA0171001773000048030000
B1658303758570S06006929WA0171301782000056030000
B1658343758514S06006938WA0171801779000056030000
B1658383758464S06006992WA0170601770000052030000
B1658423758421S06007055WA0168801749000068030000
B1658463758377S06007116WA0167101734000064015000
B1658503758323S06007171WA0166201728000060015000
B1658543758263S06007207WA0166701737000060015000
B1658583758208S06007233WA0167701746000060015000
B1659023758165S06007271WA0168001745000048015000
B1659063758130S06007319WA0167401739000044015000
B1659103758095S06007373WA0166301725000044015000
B1659143758055S06007426WA0165201717000040015000
B1659183758017S06007483WA0164401709000040015000
B1659223757988S06007553WA0163101695000044015000
B1659263757981S06007638WA0161501679000048015000
B1659303758003S06007729WA0160501668000052015000
B1659343758063S06007796WA0160201670000052015000
B1659383758144S06007807WA0160401671000048015000
B1659423758203S06007738WA0161001686000052030000
B1659463758191S06007659WA0162301696000052030000
B1659503758142S06007655WA0163201700000052045000
B1659543758135S06007726WA0164001706000052045000
B1659583758193S06007783WA0164101702000056045000
B1700023758276S06007785WA0164101702000056045000
B1700063758341S06007726WA0165101714000052030000
B1700103758347S06007639WA0166101723000056045000
B1700143758304S06007592WA0166601730000056045000
B1700183758261S06007623WA0167001733000056045000
B1700223758265S06007698WA0167501738000056045000
B1700263758323S06007753WA0167801738000052045000
B1700303758402S06007748WA0168301748000052045000
B1700343758466S06007688WA0169501756000048045000
B1700383758486S06007600WA0169901761000052030000
B1700423758458S06007529WA0170601767000052030000
B1700463758410S06007491WA0170901769000052030000
B1700503758355S06007495WA0171001773000048030000
B1700543758321S06007548WA0171701778000056030000
B1700583758317S06007627WA0171501767000052015000
B1701023758358S06007707WA0170601760000044015000
B1701063758432S06007750WA0170201760000048030000
B1701103758515S06007737WA0170301765000048015000
B1701143758576S06007674WA0171001774000052015000
B1701183758594S06007591WA0172001782000048015000
B1701223758560S06007527WA0172401789000048015000
B1701263758511S06007523WA0173001793000048015000
B1701303758488S06007581WA0173501797000044030000
B1701343758529S06007644WA0173901798000048030000
B1701383758605S06007644WA0174001801000048030000
B1701423758661S06007581WA0174301805000048030000
B1701463758671S06007499WA0175301810000044030000
B1701503758635S06007443WA0176301817000044045000
B1701543758584S06007448WA0176501816000044045000
B1701583758559S06007504WA0176601818000048030000
B1702023758588S06007577WA0176101812000048030000
B1702063758662S06007613WA0175401813000056030000
B1702103758737S06007577WA0175901818000056030000
B1702143758779S06007496WA0176201820000052030000
B1702183758775S06007409WA0176401826000056030000
B1702223758727S06007362WA0177401833000056030000
B1702263758675S06007375WA0177401833000068030000
B1702303758658S06007444WA0177201831000064030000
B1702343758690S06007522WA0176901829000060030000
B1702383758765S06007560WA0176401830000060030000
B1702423758840S06007525WA0176801832000056030000
B1702463758876S06007441WA0177201835000052045000
B1702503758857S06007365WA0177001835000052045000
B1702543758807S06007332WA0177001833000048045000
B1702583758757S06007352WA0176201824000048030000
B1703023758748S06007428WA0176201827000052030000
B1703063758789S06007501WA0176601829000052030000
B1703103758866S06007523WA0176301824000052030000
B1703143758944S06007487WA0176101828000052030000
B1703183759005S06007418WA0176501833000048030000
B1703223759035S06007330WA0176901834000044015000
B1703263759014S06007256WA0176601834000040015000
B1703303758966S06007235WA0176301830000048030000
B1703343758932S06007276WA0176201830000052030000
B1703383758935S06007348WA0175701821000072030000
B1703423758988S06007412WA0175301820000060015000
B1703463759069S06007409WA0175501826000068030000
B1703503759139S06007352WA0176101829000064015000
B1703543759181S06007267WA0176001824000064015000
B1703583759194S06007176WA0175801820000072015000
B1704023759153S06007126WA0174901814000064015000
B1704063759112S06007158WA0174901820000068030000
B1704103759126S06007227WA0175601824000060030000
B1704143759194S06007259WA0176001827000064030000
B1704183759265S06007222WA0176501827000060045000
B1704223759305S06007142WA0175801815000056030000
B1704263759320S06007048WA0174601802000060030000
B1704303759325S06006949WA0173301787000068030000
E170433PEV
B1704333759326S06006872WA0172501782000072015000
B1704333759326S06006872WA0172301782000072015000
B1704353759324S06006821WA0172201780000068015000
B1704363759321S06006797WA0172101778000104015000
B1704373759317S06006772WA0171901777000112015000
B1704383759311S06006749WA0171801776000108015000
B1704393759303S06006726WA0171601776000100015000
B1704403759292S06006707WA0171501776000092015000
B1704413759282S06006689WA0171401777000092015000
B1704423759270S06006673WA0171501778000096015000
B1704433759257S06006659WA0171601780000092015000
B1704443759243S06006648WA0171801782000092015000
B1704453759229S06006639WA0171901782000084015000
B1704463759213S06006634WA0172001782000080015000
B1704473759199S06006633WA0172001783000076015000
B1704483759184S06006639WA0172001784000076015000
B1704493759173S06006648WA0172101785000076015000
B1704533759153S06006716WA0172301787000068015000
B1704573759191S06006784WA0172101779000064015000
B1705013759269S06006799WA0171301773000060015000
B1705053759348S06006760WA0171301777000056015000
B1705093759412S06006684WA0171401777000052015000
B1705133759439S06006583WA0171001769000048015000
B1705173759412S06006498WA0170901768000052015000
B1705213759356S06006472WA0170601765000048030000
B1705253759308S06006504WA0170701769000044030000
B1705293759290S06006569WA0171001769000052015000
B1705333759325S06006639WA0171001769000048015000
B1705373759398S06006669WA0171001772000048015000
B1705413759478S06006646WA0171501777000052030000
B1705453759545S06006580WA0171401769000048015000
B1705493759580S06006483WA0170201756000048015000
B1705533759556S06006395WA0169401751000048015000
B1705573759500S06006369WA0168901750000048030000
B1706013759459S06006411WA0168901748000048030000
B1706053759443S06006482WA0168301744000052030000
B1706093759468S06006557WA0168901750000056015000
B1706133759541S06006587WA0168801749000048015000
B1706173759611S06006530WA0168801750000052030000
B1706213759628S06006433WA0168601743000068045000
B1706253759591S06006360WA0167401737000060045000
B1706293759534S06006333WA0167401737000072045000
B1706333759487S06006357WA0167401736000060030000
B1706373759474S06006422WA0167001726000060030000
B1706413759490S06006498WA0166401716000064030000
B1706453759515S06006580WA0165501708000060030000
B1706493759521S06006661WA0164801705000060015000
B1706533759491S06006728WA0164601705000056015000
B1706573759442S06006772WA0164501703000056015000
B1707013759420S06006842WA0164401707000052015000
B1707053759438S06006920WA0165201716000052015000
B1707093759499S06006970WA0166201730000056015000
B1707133759573S06006944WA0167301742000056015000
B1707173759602S06006859WA0168101744000060030000
B1707213759571S06006797WA0168201748000052045000
B1707253759528S06006817WA0168801752000056045000
B1707293759546S06006888WA0169501761000052045000
B1707333759617S06006902WA0170201768000056045000
B1707373759675S06006836WA0170801771000052045000
B1707413759662S06006752WA0171001774000048045000
B1707453759607S06006746WA0171201778000048060000
B1707493759585S06006804WA0171901782000048060000
B1707533759626S06006864WA0172601789000044045000
B1707573759699S06006854WA0173301799000040045000
B1708013759741S06006777WA0174101802000044045000
B1708053759725S06006695WA0173701798000048060000
B1708093759675S06006667WA0174001808000052060000
B1708133759647S06006711WA0174701814000048060000
B1708173759690S06006765WA0174901814000048060000
B1708213759764S06006752WA0174901812000052045000
B1708253759792S06006669WA0175501820000048045000
B1708293759754S06006615WA0175801821000048045000
B1708333759708S06006637WA0176101823000044045000
B1708373759703S06006699WA0176501827000044030000
B1708413759749S06006755WA0176801830000044030000
B1708453759825S06006741WA0176401828000052030000
B1708493759866S06006659WA0177301840000044030000
B1708533759842S06006585WA0177701841000048045000
B1708573759789S06006573WA0177601841000052045000
B1709013759762S06006625WA0177601841000048045000
B1709053759795S06006697WA0177801849000052045000
B1709093759868S06006713WA0178501853000060045000
B1709133759931S06006659WA0178901858000060045000
B1709173759946S06006570WA0179101854000056045000
B1709213759920S06006495WA0178701851000056045000
B1709253759871S06006472WA0178501848000052045000
B1709293759829S06006504WA0178201844000048030000
B1709333759828S06006576WA0178001838000052030000
B1709373759885S06006635WA0178001845000052030000
B1709413759967S06006628WA0178401846000048030000
B1709453800018S06006552WA0178301849000048045000
B1709493800006S06006469WA0179001854000052045000
B1709533759961S06006442WA0179201855000072045000
B1709573759923S06006478WA0178801850000076045000
B1710013759919S06006555WA0178101841000068030000
B1710053759963S06006628WA0178501847000072030000
B1710093800040S06006639WA0178801853000064030000
B1710133800104S06006574WA0178901852000060030000
B1710173800124S06006481WA0178701851000056045000
B1710213800097S06006403WA0178301851000052045000
B1710253800048S06006377WA0178401854000060060000
B1710293800005S06006408WA0178501852000056045000
B1710333759989S06006479WA0177901839000048030000
B1710373800013S06006561WA0177801843000044030000
B1710413800071S06006619WA0178901854000044030000
B1710453800149S06006619WA0179401859000048030000
B1710493800213S06006556WA0179301858000048030000
B1710533800237S06006463WA0179001856000048030000
B1710573800215S06006387WA0179301863000044030000
B1711013800170S06006357WA0179301858000040045000
B1711053800131S06006391WA0178201845000044030000
B1711093800133S06006469WA0177701844000044030000
B1711133800206S06006503WA0177801851000048030000
B1711173800267S06006437WA0178301853000052045000
B1711213800261S06006351WA0178001848000048060000
B1711253800213S06006318WA0177501846000048060000
B1711293800166S06006343WA0177401842000048060000
B1711333800154S06006412WA0177001834000040060000
B1711373800195S06006477WA0177501838000044060000
B1711413800270S06006482WA0177701840000048045000
B1711453800339S06006424WA0177201830000040045000
B1711493800367S06006327WA0176001823000044045000
B1711533800341S06006249WA0175601821000044060000
B1711573800287S06006230WA0175401817000056060000
B1712013800243S06006269WA0174901809000076045000
B1712053800234S06006344WA0174701807000128030000
B1712093800269S06006420WA0174801805000116030000
B1712133800327S06006482WA0174601803000104030000
B1712173800390S06006539WA0174301800000100030000
B1712213800452S06006595WA0173901800000084015000
B1712253800517S06006647WA0173801797000068015000
B1712293800598S06006668WA0173501796000064015000
B1712333800677S06006633WA0173801801000056015000
B1712373800708S06006538WA0174401811000056015000
B1712413800677S06006468WA0175401824000056030000
B1712453800626S06006478WA0176201832000056045000
B1712493800612S06006548WA0177001835000064075000
B1712533800642S06006620WA0176801836000064060000
B1712573800709S06006663WA0176701832000056060000
B1713013800787S06006637WA0176601838000052045000
B1713053800825S06006560WA0177901842000064045000
B1713093800802S06006486WA0178301851000060045000
B1713133800752S06006464WA0179401858000056045000
B1713173800712S06006500WA0179601860000060045000
B1713213800711S06006572WA0179601853000064030000
B1713253800764S06006625WA0179501853000060030000
B1713293800841S06006621WA0179001849000060030000
B1713333800907S06006569WA0179301857000064030000
B1713373800925S06006489WA0179901861000060030000
B1713413800902S06006417WA0180201865000056030000
B1713453800850S06006395WA0180201861000068045000
B1713493800806S06006437WA0180101862000060060000
B1713533800795S06006508WA0180201863000056030000
B1713573800835S06006572WA0180101864000056030000
B1714013800910S06006589WA0179801861000052030000
B1714053800984S06006552WA0179801862000052015000
B1714093801033S06006474WA0179601856000060015000
B1714133801047S06006375WA0179101850000056030000
B1714173801047S06006274WA0179001851000056015000
B1714213801047S06006174WA0179001848000056015000
B1714253801060S06006070WA0178501842000052015000
B1714293801071S06005962WA0177901836000056015000
B1714333801071S06005855WA0177601834000052015000
B1714373801060S06005753WA0177201834000052015000
B1714413801056S06005650WA0178101846000056015000
B1714453801068S06005549WA0179001853000052015000
B1714493801071S06005443WA0178801844000052015000
B1714533801045S06005347WA0177601832000052015000
B1714573801006S06005257WA0176101819000068015000
B1715013800960S06005173WA0175201811000068015000
B1715053800911S06005092WA0174501803000068015000
B1715093800860S06005010WA0173101787000068015000
B1715133800803S06004934WA0172201779000072015000
B1715173800739S06004862WA0171401766000064015000
B1715213800672S06004792WA0170101756000060015000
B1715253800609S06004711WA0169401749000056000000
B1715293800553S06004624WA0168601747000056015000
B1715333800499S06004541WA0168501744000052000000
B1715373800447S06004462WA0167701737000076000000
B1715413800396S06004380WA0166601722000076000000
B1715453800344S06004294WA0164901705000068000000
B1715493800287S06004210WA0164101697000068000000
B1715533800230S06004126WA0163401689000072000000
B1715573800171S06004047WA0162401678000072000000
B1716013800111S06003968WA0161501671000064000000
B1716053800053S06003891WA0160901665000060000000
B1716093759998S06003813WA0160301662000060000000
B1716133759954S06003739WA0161801685000064000000
B1716173759910S06003707WA0163901700000060000000
B1716213759859S06003697WA0163001684000056015000
B1716253759803S06003673WA0161101666000056015000
B1716293759759S06003618WA0161301666000056015000
B1716333759743S06003536WA0160501657000060015000
B1716373759730S06003449WA0159701646000052015000
B1716413759699S06003375WA0159401648000048015000
B1716453759660S06003315WA0159901660000048015000
B1716493759617S06003268WA0160401659000048015000
B1716533759571S06003223WA0159501648000044015000
B1716573759516S06003181WA0158501643000044015000
B1717013759459S06003171WA0159101650000040015000
B1717053759402S06003180WA0159801656000044015000
B1717093759350S06003193WA0160701671000044015000
B1717133759326S06003236WA0162301681000048015000
B1717173759385S06003270WA0162901690000048015000
B1717213759437S06003207WA0163701701000044015000
B1717253759428S06003133WA0164801714000044030000
B1717293759389S06003129WA0165801720000044030000
B1717333759403S06003188WA0166001724000048030000
B1717373759472S06003188WA0166601730000060030000
B1717413759512S06003115WA0167401739000064030000
B1717453759500S06003037WA0168001746000060045000
B1717493759461S06003028WA0168701756000048045000
B1717533759457S06003083WA0169301757000048045000
B1717573759512S06003120WA0169801768000060045000
B1718013759576S06003081WA0171001777000056030000
B1718053759586S06003005WA0171501779000052045000
B1718093759554S06002942WA0171301772000052045000
B1718133759511S06002884WA0170801770000056030000
B1718173759464S06002823WA0170701769000056030000
B1718213759415S06002759WA0170301764000056030000
B1718253759364S06002687WA0169801758000056030000
B1718293759309S06002620WA0170201771000068015000
B1718333759259S06002556WA0170601768000060015000
B1718373759207S06002486WA0169501754000056015000
B1718413759157S06002408WA0168501747000052015000
B1718453759112S06002323WA0167901737000048015000
B1718493759071S06002226WA0166701723000048015000
B1718533759031S06002127WA0165501712000052015000
B1718573758986S06002036WA0164901710000052015000
B1719013758941S06001949WA0164901709000052015000
B1719053758906S06001859WA0165001713000048015000
B1719093758878S06001770WA0165201711000044015000
B1719133758849S06001679WA0164401704000040015000
B1719173758817S06001586WA0164001699000040015000
B1719213758778S06001498WA0163401692000036015000
B1719253758729S06001419WA0163101692000044015000
B1719293758677S06001373WA0164801709000044015000
B1719333758622S06001331WA0165001706000040015000
B1719373758562S06001287WA0163801701000048015000
B1719413758511S06001238WA0164701707000048015000
B1719453758464S06001186WA0164401699000044015000
B1719493758415S06001130WA0163101684000060015000
B1719533758364S06001071WA0162801687000052015000
B1719573758317S06001017WA0162501678000052015000
B1720013758264S06000962WA0160601659000048015000
B1720053758206S06000901WA0159201640000052015000
B1720093758142S06000836WA0157801629000052015000
B1720133758081S06000770WA0157201624000068015000
B1720173758022S06000698WA0156601617000056015000
B1720213757965S06000626WA0155701607000052015000
B1720253757913S06000540WA0154301593000052000000
B1720293757865S06000445WA0153201583000052000000
B1720333757818S06000350WA0151801566000056000000
B1720373757770S06000252WA0150301553000056000000
B1720413757723S06000154WA0149901552000064000000
B1720453757676S06000076WA0150601570000080000000
B1720493757634S06000018WA0152801588000072000000
B1720533757587S05959981WA0153401593000060000000
B1720573757540S05959982WA0154201600000056000000
B1721013757496S06000002WA0154201595000052000000
B1721053757449S06000021WA0153901596000056000000
B1721093757405S06000033WA0154301601000048000000
B1721133757363S06000041WA0154401597000044000000
B1721173757316S06000043WA0153401586000040000000
B1721213757267S06000034WA0152701577000036000000
B1721253757214S06000013WA0151301562000040000000
B1721293757156S05959986WA0150001552000040015000
B1721333757098S05959950WA0149501546000040015000
B1721373757038S05959909WA0148501534000036015000
B1721413756974S05959862WA0147301521000044015000
B1721453756908S05959816WA0146301511000044015000
B1721493756841S05959769WA0145301504000044015000
B1721533756773S05959727WA0144901498000044015000
B1721573756705S05959688WA0144001489000044015000
B1722013756638S05959649WA0143301484000048015000
B1722053756578S05959627WA0143901493000044015000
B1722093756522S05959625WA0144101484000044015000
B1722133756469S05959644WA0144601489000048015000
B1722173756441S05959697WA0146601499000048015000
B1722213756480S05959756WA0147901516000048015000
B1722253756548S05959735WA0149501527000052015000
B1722293756558S05959664WA0150901542000044030000
B1722333756518S05959643WA0152001557000040045000
B1722373756505S05959697WA0153001573000036045000
B1722413756561S05959735WA0154101589000036030000
B1722453756618S05959688WA0155301597000048045000
B1722493756610S05959621WA0156101611000056045000
B1722533756570S05959623WA0156901621000056045000
B1722573756581S05959688WA0157701635000052045000
B1723013756649S05959691WA0158801652000048045000
B1723053756683S05959623WA0160201661000044045000
B1723093756656S05959575WA0160701671000044060000
B1723133756630S05959615WA0161401678000056060000
B1723173756675S05959667WA0162201686000056045000
B1723213756737S05959619WA0163201691000056045000
B1723253756722S05959547WA0163701701000064045000
B1723293756683S05959567WA0164501708000056060000
B1723333756709S05959635WA0165101715000052045000
B1723373756783S05959615WA0166201728000056045000
B1723413756795S05959532WA0167401739000052045000
B1723453756753S05959496WA0168101744000048045000
B1723493756717S05959534WA0168601749000048045000
B1723533756739S05959602WA0169701764000044045000
B1723573756808S05959617WA0171101774000044030000
B1724013756850S05959545WA0171801780000044045000
B1724053756818S05959483WA0172501791000044060000
B1724093756776S05959511WA0173401800000044060000
B1724133756800S05959578WA0174501812000052045000
B1724173756869S05959565WA0175201820000048045000
B1724213756889S05959482WA0175701826000048045000
B1724253756850S05959439WA0176701841000044060000
B1724293756812S05959475WA0177901845000044045000
B1724333756822S05959547WA0178101847000048045000
B1724373756889S05959567WA0179001860000044030000
B1724413756929S05959504WA0180201868000056045000
B1724453756908S05959435WA0180101865000064045000
B1724493756861S05959388WA0180101869000056045000
B1724533756807S05959344WA0179701865000068030000
B1724573756747S05959292WA0179001855000064030000
B1725013756687S05959231WA0178101844000064030000
B1725053756618S05959167WA0176501825000064030000
B1725093756547S05959102WA0174801808000060030000
B1725133756473S05959038WA0173501799000068015000
B1725173756400S05958975WA0173001794000072015000
B1725213756323S05958911WA0172601791000072015000
B1725253756249S05958848WA0172501793000068015000
B1725293756176S05958789WA0172701796000060015000
B1725333756106S05958731WA0172801795000052015000
B1725373756036S05958677WA0172701794000048015000
B1725413755967S05958626WA0172601791000044015000
B1725453755898S05958575WA0172001784000044015000
B1725493755830S05958521WA0171501781000048015000
B1725533755765S05958466WA0171101777000052015000
B1725573755699S05958413WA0171001777000052015000
B1726013755630S05958364WA0170101764000060015000
B1726053755554S05958315WA0168901757000068015000
B1726093755477S05958270WA0168801759000076015000
B1726133755398S05958228WA0168501750000080015000
B1726173755318S05958184WA0168201753000072015000
B1726213755245S05958140WA0168701755000072015000
B1726253755171S05958091WA0168201750000068015000
B1726293755089S05958040WA0167201748000068015000
B1726333755013S05958000WA0168601753000068015000
B1726373754950S05957971WA0170201758000060030000
B1726413754894S05957932WA0171301763000056030000
B1726453754837S05957886WA0171401764000060030000
B1726493754777S05957828WA0170201762000056030000
B1726533754729S05957758WA0169601753000060030000
B1726573754690S05957675WA0168501742000060030000
B1727013754651S05957584WA0167501731000052015000
B1727053754615S05957487WA0166701726000052015000
B1727093754577S05957389WA0166301724000048015000
B1727133754536S05957288WA0166001716000044015000
B1727173754491S05957188WA0164701705000048015000
B1727213754445S05957088WA0164001701000048015000
B1727253754397S05956989WA0163301693000048015000
B1727293754348S05956891WA0163001688000044015000
B1727333754298S05956793WA0162501684000056015000
B1727373754248S05956697WA0161601675000060015000
B1727413754199S05956602WA0161101673000056015000
B1727453754155S05956510WA0161301679000052015000
B1727493754113S05956419WA0161401675000056015000
B1727533754069S05956325WA0160901669000060015000
B1727573754025S05956233WA0160801669000056015000
B1728013753977S05956141WA0160301662000072015000
B1728053753927S05956044WA0159501657000072015000
B1728093753878S05955949WA0159101654000068015000
B1728133753834S05955860WA0159101653000056015000
B1728173753792S05955771WA0158901653000052000000
B1728213753756S05955688WA0159001653000056000000
B1728253753721S05955600WA0157901637000064000000
B1728293753684S05955509WA0156901624000068000000
B1728333753646S05955411WA0155301609000068000000
B1728373753610S05955309WA0154201596000064000000
B1728413753576S05955202WA0153601595000064000000
B1728453753540S05955094WA0153301588000068000000
B1728493753502S05954985WA0152801588000068000000
B1728533753466S05954881WA0152601584000060000000
B1728573753428S05954779WA0152101573000056000000
B1729013753385S05954677WA0150501554000060000000
B1729053753337S05954571WA0148901542000064000000
B1729093753286S05954467WA0148001535000068000000
B1729133753234S05954367WA0147301529000064000000
B1729173753180S05954276WA0147301534000072000000
B1729213753132S05954188WA0147601534000068000000
B1729253753086S05954098WA0146901523000064000000
B1729293753045S05954010WA0146301525000060000000
B1729333753006S05953931WA0148301545000060000000
B1729373752963S05953881WA0150101571000060000000
B1729413752920S05953850WA0153101592000060000000
B1729453752885S05953879WA0154201604000060000000
B1729493752915S05953942WA0155201605000052015000
B1729533752982S05953938WA0155101604000060015000
B1729573753011S05953866WA0154901606000056030000
B1730013752991S05953794WA0155601617000052045000
B1730053752946S05953801WA0156601621000048045000
B1730093752959S05953867WA0157801635000052030000
B1730133753028S05953854WA0159001651000048030000
B1730173753041S05953782WA0160601665000044045000
B1730213752999S05953778WA0161301670000048045000
B1730253753016S05953846WA0161801676000056045000
B1730293753085S05953816WA0162401686000052030000
B1730333753071S05953747WA0163801704000048030000
B1730373753028S05953769WA0164701712000044045000
B1730413753060S05953836WA0165601722000044030000
B1730453753128S05953804WA0166801735000044030000
B1730493753130S05953733WA0168101749000040030000
B1730533753087S05953728WA0168901757000040045000
B1730573753097S05953795WA0169901767000040030000
B1731013753164S05953799WA0170601771000040030000
B1731053753194S05953729WA0171301781000040030000
B1731093753164S05953681WA0172201788000036045000
B1731133753123S05953697WA0173101792000040030000
B1731173753126S05953769WA0173201793000056030000
B1731213753184S05953824WA0173301799000052030000
B1731253753254S05953807WA0174101806000060030000
B1731293753285S05953736WA0174701815000056045000
B1731333753268S05953658WA0175101811000056045000
B1731373753233S05953583WA0174301809000060030000
B1731413753188S05953517WA0174301812000068030000
B1731453753129S05953461WA0174001805000060030000
B1731493753063S05953408WA0172801792000060030000
B1731533752991S05953343WA0171701777000060015000
B1731573752916S05953270WA0169501753000068015000
B1732013752837S05953191WA0168001738000068015000
B1732053752761S05953106WA0166801726000068015000
B1732093752692S05953013WA0165601711000068015000
B1732133752623S05952917WA0164201701000072015000
B1732173752557S05952818WA0163201691000072015000
B1732213752493S05952716WA0162601686000072015000
B1732253752435S05952610WA0162201681000080015000
B1732293752379S05952501WA0161201671000076015000
B1732333752322S05952393WA0160401665000072015000
B1732373752265S05952289WA0159901654000076015000
B1732413752206S05952183WA0158701644000076015000
B1732453752146S05952079WA0158101637000072015000
B1732493752085S05951977WA0157101623000072015000
B1732533752019S05951874WA0155601610000076015000
B1732573751950S05951778WA0154601601000076015000
B1733013751881S05951682WA0153801593000076000000
B1733053751811S05951584WA0153101589000080000000
B1733093751743S05951492WA0153101589000092000000
B1733133751677S05951402WA0152901586000092000000
B1733173751615S05951308WA0152101574000096000000
B1733213751555S05951211WA0151301568000092000000
B1733253751498S05951111WA0150401558000104000000
B1733293751439S05951011WA0149101543000088000000
B1733333751378S05950908WA0147801532000080000000
B1733373751316S05950808WA0146901525000072000000
B1733413751253S05950710WA0146501522000068000000
B1733453751192S05950613WA0146301520000068000000
B1733493751136S05950514WA0146101518000076000000
B1733533751083S05950415WA0145801513000072000000
B1733573751032S05950315WA0145101505000076000000
B1734013750983S05950215WA0144301497000068000000
B1734053750935S05950112WA0143201483000064000000
B1734093750887S05950010WA0142201477000064000000
B1734133750844S05949912WA0142701487000060000000
B1734173750810S05949819WA0144301506000060000000
B1734213750773S05949746WA0146101522000060000000
B1734253750736S05949687WA0147301533000060000000
B1734293750701S05949630WA0147501534000060000000
B1734333750663S05949582WA0147701536000064015000
B1734373750617S05949561WA0148301539000060015000
B1734413750572S05949546WA0149301544000052015000
B1734453750530S05949533WA0150301551000044015000
B1734493750486S05949514WA0150501552000044015000
B1734533750438S05949512WA0150301551000044030000
B1734573750385S05949504WA0149901548000040030000
B1735013750335S05949483WA0150001550000044030000
B1735053750290S05949453WA0150201552000044030000
B1735093750246S05949407WA0149501548000044030000
B1735133750200S05949339WA0147901543000044030000
B1735173750156S05949254WA0145801536000048030000
B1735213750110S05949158WA0143601528000052030000
B1735253750058S05949056WA0141301518000056030000
B1735293750012S05948948WA0139801513000072030000
B1735333749970S05948837WA0138901511000080030000
B1735373749927S05948723WA0137901505000076030000
B1735413749884S05948607WA0137501503000068030000
B1735453749843S05948495WA0137101502000064045000
B1735493749804S05948386WA0136301495000072045000
B1735533749762S05948273WA0135601484000068045000
B1735573749719S05948159WA0134601478000068045000
B1736013749679S05948048WA0134201473000060045000
B1736053749640S05947939WA0133701464000056045000
B1736093749598S05947834WA0132601452000056045000
B1736133749557S05947726WA0131501442000060045000
B1736173749516S05947620WA0130801436000060045000
B1736213749477S05947522WA0130401430000060045000
B1736253749436S05947429WA0129801421000056045000
B1736293749390S05947338WA0129101411000056045000
B1736333749349S05947256WA0128801405000056045000
B1736373749312S05947178WA0129701402000048045000
B1736413749276S05947104WA0129901395000048030000
B1736453749242S05947043WA0131701396000056030000
B1736493749200S05947005WA0133401400000052030000
B1736533749151S05947008WA0133901400000052030000
B1736573749104S05946996WA0134301400000048030000
B1737013749061S05946973WA0135001401000048030000
B1737053749015S05946961WA0136101405000044030000
B1737093748989S05947007WA0136901415000044030000
B1737133749031S05947054WA0138001425000040030000
B1737173749087S05947017WA0139001436000040030000
B1737213749098S05946944WA0140301444000064030000
B1737253749048S05946930WA0141201451000056030000
B1737293749035S05946989WA0142001463000052030000
B1737333749081S05947035WA0143001469000052030000
B1737373749135S05946995WA0143701481000060030000
B1737413749126S05946929WA0145001493000060030000
B1737453749082S05946930WA0145701503000056030000
B1737493749077S05946990WA0146801515000056030000
B1737533749129S05947030WA0147401520000048030000
B1737573749189S05946999WA0147901530000060030000
B1738013749199S05946929WA0149301545000052045000
B1738053749163S05946895WA0150501550000044045000
B1738093749130S05946926WA0151901560000044030000
B1738133749139S05946991WA0151901560000048030000
B1738173749193S05947035WA0152001566000052030000
B1738213749258S05947024WA0152201571000056030000
B1738253749310S05946961WA0152501576000056030000
B1738293749325S05946878WA0153001581000060030000
B1738333749302S05946809WA0153501585000064030000
B1738373749256S05946766WA0153601588000060030000
B1738413749204S05946735WA0153101587000056030000
B1738453749146S05946718WA0153401589000052030000
B1738493749099S05946743WA0154501595000056030000
B1738533749086S05946814WA0155301603000048030000
B1738573749112S05946887WA0155901610000052030000
B1739013749168S05946935WA0156001613000052030000
B1739053749236S05946946WA0155801613000048030000
B1739093749301S05946911WA0155401609000044030000
B1739133749351S05946834WA0154701604000052030000
B1739173749353S05946751WA0155901609000048030000
B1739213749315S05946703WA0157201618000048030000
B1739253749256S05946703WA0157201624000048030000
B1739293749211S05946730WA0158401631000044030000
B1739333749210S05946799WA0159501637000044030000
B1739373749268S05946826WA0159601635000048030000
B1739413749337S05946790WA0159301636000048045000
B1739453749372S05946708WA0159801643000048045000
B1739493749345S05946645WA0160601654000048030000
B1739533749295S05946662WA0161401663000048030000
B1739573749295S05946727WA0162201672000044030000
B1740013749338S05946778WA0162701677000048030000
B1740053749405S05946781WA0162901676000052030000
B1740093749468S05946730WA0162501674000104030000
B1740133749496S05946645WA0163101682000084045000
B1740173749473S05946558WA0162401679000068030000
B1740213749418S05946514WA0161501678000056045000
B1740253749355S05946508WA0160701678000060045000
B1740293749294S05946530WA0160501678000060045000
B1740333749242S05946573WA0160901679000060045000
B1740373749185S05946601WA0160801679000052045000
B1740413749121S05946610WA0160101674000052045000
B1740453749055S05946591WA0159501669000048045000
B1740493748994S05946536WA0158301660000048030000
B1740533748940S05946463WA0157601652000048030000
B1740573748895S05946383WA0156901644000048030000
B1741013748852S05946300WA0156501637000048030000
B1741053748812S05946219WA0155901631000044030000
B1741093748770S05946138WA0155801627000040015000
B1741133748730S05946056WA0155501622000044015000
B1741173748693S05945973WA0155301619000044015000
B1741213748658S05945890WA0154901616000040015000
B1741253748621S05945809WA0154601609000040015000
B1741293748580S05945728WA0153301593000036015000
B1741333748539S05945640WA0151701579000036015000
B1741373748498S05945538WA0150001572000044015000
B1741413748453S05945436WA0149601570000048015000
B1741453748407S05945343WA0148901565000048015000
B1741503748348S05945226WA0147801557000056015000
B1741543748300S05945136WA0146501541000056015000
B1741583748246S05945044WA0145301528000064015000
B1742023748190S05944954WA0144501519000064015000
B1742063748136S05944866WA0144401521000064015000
B1742103748086S05944786WA0145001526000060015000
B1742143748038S05944712WA0145101521000060015000
B1742183747988S05944641WA0144201509000064015000
B1742223747936S05944568WA0143101497000080015000
B1742263747884S05944493WA0142201488000076000000
B1742303747832S05944416WA0141901484000072000000
B1742343747783S05944338WA0141701484000064000000
B1742383747739S05944265WA0142101491000060000000
B1742423747702S05944195WA0142501490000068000000
B1742463747664S05944125WA0141901479000052000000
B1742503747621S05944049WA0140501471000052000000
B1742543747572S05943971WA0139101463000052015000
B1742583747523S05943895WA0138801464000056015000
B1743023747479S05943823WA0139001466000052015000
B1743063747431S05943749WA0137801460000048015000
B1743103747380S05943674WA0136301450000048015000
B1743143747328S05943593WA0135401443000052015000
B1743183747271S05943523WA0133801436000056030000
B1743223747209S05943472WA0133901437000052030000
B1743263747144S05943430WA0133701434000052030000
B1743303747071S05943391WA0132601427000056030000
B1743343746997S05943347WA0133601425000060030000
B1743383746958S05943356WA0136101430000056030000
B1743423746914S05943364WA0137101435000048030000
B1743463746871S05943398WA0137401434000048030000
B1743503746829S05943432WA0137801435000048030000
B1743543746789S05943414WA0138301440000048030000
B1743583746784S05943354WA0138701443000048015000
B1744023746823S05943298WA0139001446000052015000
B1744063746885S05943281WA0139101449000056030000
B1744103746950S05943319WA0139601453000052030000
B1744143746974S05943391WA0139901456000068030000
B1744183746937S05943446WA0139901456000072030000
B1744223746880S05943442WA0139701453000080030000
B1744263746833S05943428WA0139901454000072030000
B1744303746790S05943398WA0139701452000064030000
B1744343746758S05943346WA0139501450000068030000
B1744383746727S05943289WA0139701451000072030000
B1744423746691S05943232WA0140001453000068030000
B1744463746643S05943183WA0139701450000068030000
B1744503746585S05943143WA0138601445000064030000
B1744543746521S05943104WA0137201439000056030000
B1744583746454S05943068WA0135901431000056030000
B1745023746383S05943025WA0135001424000080030000
B1745063746314S05942978WA0134401412000080015000
B1745103746243S05942927WA0133501402000072015000
B1745143746174S05942873WA0133201396000076015000
B1745183746105S05942817WA0132501386000068015000
B1745223746034S05942762WA0131401373000060015000
B1745263745958S05942712WA0130501368000072015000
B1745303745880S05942660WA0129901363000072015000
B1745343745806S05942606WA0130901366000068015000
B1745383745741S05942565WA0130801366000068015000
B1745423745671S05942522WA0130601364000064015000
B1745463745607S05942488WA0131701370000060015000
B1745503745550S05942465WA0133701379000052015000
B1745543745498S05942467WA0135301386000052015000
B1745583745453S05942483WA0136201391000044030000
B1746023745404S05942485WA0135401389000040030000
B1746063745346S05942431WA0134301383000044030000
B1746103745289S05942371WA0133801382000048030000
B1746143745235S05942312WA0133901382000048045000
B1746183745186S05942259WA0135201401000048030000
B1746223745138S05942236WA0136901416000048015000
B1746263745089S05942244WA0136501421000048030000
B1746303745039S05942223WA0136701427000040030000
B1746343744995S05942190WA0137901435000044030000
B1746383744960S05942219WA0139001441000044030000
B1746423744918S05942250WA0138201435000044030000
B1746463744869S05942232WA0137501429000040030000
B1746503744827S05942169WA0136201422000044030000
B1746543744793S05942099WA0134801413000048030000
B1746583744762S05942020WA0133201405000048030000
B1747023744731S05941942WA0131801382000060015000
B1747063744697S05941854WA0130601371000064015000
B1747103744661S05941769WA0131001377000060015000
B1747143744619S05941718WA0132501394000060015000
B1747183744579S05941739WA0133601399000048015000
B1747223744589S05941809WA0134101398000048015000
B1747263744654S05941830WA0134401402000044015000
B1747303744706S05941779WA0134501402000044030000
B1747343744705S05941708WA0134501397000040030000
B1747383744673S05941665WA0134201394000040030000
B1747423744635S05941635WA0134201392000044030000
B1747463744591S05941631WA0134501392000044030000
B1747503744548S05941646WA0135501396000040030000
B1747543744527S05941700WA0135701400000048030000
B1747583744575S05941751WA0136501402000056030000
B1748023744634S05941711WA0136501404000056030000
B1748063744643S05941636WA0137201414000048030000
B1748103744610S05941604WA0138501427000044030000
B1748143744589S05941649WA0138901431000056030000
B1748183744635S05941701WA0139001432000076015000
B1748223744700S05941678WA0139001435000068015000
B1748263744710S05941604WA0139701442000064030000
B1748303744676S05941558WA0140301450000056030000
B1748343744636S05941575WA0140801454000052030000
B1748383744648S05941638WA0141401458000056030000
B1748423744713S05941651WA0141401456000068030000
B1748463744758S05941591WA0141301459000064030000
B1748503744748S05941523WA0141801466000060030000
B1748543744704S05941508WA0142101473000052030000
B1748583744678S05941557WA0142601478000048030000
B1749023744702S05941626WA0142801477000052030000
B1749063744740S05941699WA0142401476000060030000
B1749103744749S05941777WA0142301474000056030000
B1749143744732S05941850WA0141901471000056030000
B1749183744706S05941921WA0142201470000060030000
B1749223744684S05941989WA0143101476000052030000
B1749263744650S05942049WA0143801481000048030000
B1749303744605S05942095WA0144701491000048030000
B1749343744552S05942088WA0146001503000040030000
B1749383744548S05942016WA0147301510000044015000
B1749423744596S05941959WA0148001511000048030000
B1749463744666S05942000WA0148701519000044030000
B1749503744682S05942047WA0149101523000044030000
B1749543744641S05942076WA0150001527000036030000
B1749583744606S05942038WA0150601531000040030000
B1750023744624S05941984WA0151301539000044030000
B1750063744683S05941995WA0151901546000044030000
B1750103744709S05942051WA0152501555000040030000
B1750143744658S05942086WA0153301564000048015000
B1750183744614S05942042WA0153901574000044015000
B1750223744643S05941967WA0154801581000052030000
B1750263744709S05941961WA0155501593000052030000
B1750303744736S05942020WA0156301601000052030000
B1750343744705S05942060WA0156801615000048030000
B1750383744661S05942045WA0157701623000052015000
B1750423744647S05941976WA0158101628000044015000
B1750463744684S05941907WA0158701630000052015000
B1750503744760S05941916WA0159401636000052030000
B1750543744814S05941969WA0159501642000052030000
B1750583744825S05942038WA0160301647000052030000
B1751023744790S05942093WA0160601652000056030000
B1751063744739S05942114WA0160201652000064030000
B1751103744680S05942106WA0160401655000064030000
B1751143744627S05942112WA0161101662000060030000
B1751183744609S05942182WA0162301673000064030000
B1751223744653S05942236WA0164001682000056015000
B1751263744719S05942224WA0163201679000060015000
B1751303744751S05942149WA0161901674000060030000
B1751343744745S05942065WA0161701672000064030000
B1751383744721S05941990WA0162901680000064015000
B1751423744679S05941947WA0164201689000056015000
B1751463744627S05941921WA0164901697000048015000
B1751503744610S05941844WA0164901699000048015000
B1751543744649S05941778WA0165301702000044015000
B1751583744714S05941772WA0165701708000040015000
B1752023744765S05941821WA0165601711000048015000
B1752063744803S05941886WA0165701716000052015000
B1752103744804S05941955WA0166501724000048015000
B1752143744758S05941980WA0167901733000044015000
B1752183744730S05941922WA0169101735000040015000
B1752223744765S05941839WA0169301730000048015000
B1752263744835S05941848WA0170301729000052030000
B1752303744868S05941916WA0171201735000056030000
B1752343744831S05941958WA0171801751000060030000
B1752383744786S05941947WA0173001763000056030000
B1752423744735S05941904WA0173001768000056030000
B1752463744680S05941861WA0171301763000048030000
B1752503744614S05941794WA0169401758000056030000
B1752543744548S05941725WA0168101752000056030000
B1752583744481S05941652WA0166901747000060030000
B1753023744419S05941583WA0166001735000060015000
B1753063744354S05941512WA0165501728000060015000
B1753103744289S05941445WA0165101721000056015000
B1753143744223S05941380WA0164201709000052015000
B1753183744155S05941314WA0163001694000052015000
B1753223744085S05941246WA0161701686000052015000
B1753263744016S05941176WA0161101678000052015000
B1753303743948S05941105WA0160301669000052015000
B1753343743880S05941029WA0159401657000052000000
B1753383743811S05940954WA0158201646000068000000
B1753423743743S05940888WA0158201653000068000000
B1753463743682S05940832WA0159401666000060000000
B1753503743626S05940777WA0160001669000060000000
B1753543743574S05940725WA0159801660000056000000
B1753583743516S05940677WA0158201645000052000000
B1754023743451S05940638WA0157401642000052000000
B1754063743393S05940609WA0158901664000048000000
B1754103743343S05940593WA0159901666000048000000
B1754143743291S05940593WA0159901666000048000000
B1754183743245S05940608WA0160101667000040000000
B1754223743192S05940621WA0159601667000048015000
B1754263743140S05940602WA0159301665000044015000
B1754303743092S05940552WA0158701658000052015000
B1754343743046S05940490WA0157901651000052015000
B1754383742997S05940431WA0157101645000060015000
B1754423742946S05940368WA0156201636000060015000
B1754463742898S05940301WA0154601609000060015000
B1754503742847S05940226WA0153201597000052015000
B1754543742795S05940149WA0152201588000052015000
B1754583742745S05940069WA0151501581000060015000
B1755023742695S05939988WA0150801575000056000000
B1755063742648S05939910WA0150401567000064000000
B1755103742603S05939835WA0149701556000064000000
B1755143742561S05939768WA0149801557000064000000
B1755183742513S05939723WA0150801561000060015000
B1755223742459S05939694WA0150601559000048015000
B1755263742400S05939670WA0149901554000052015000
B1755303742338S05939636WA0150601556000052015000
B1755343742295S05939631WA0152201564000048015000
B1755383742248S05939624WA0153201578000064015000
B1755423742205S05939649WA0154001588000068015000
B1755463742161S05939672WA0155101598000060015000
B1755503742117S05939649WA0156000000000060000064
B1755543742174S05939592WA0158001618000072015000
B1755583742232S05939628WA0158801623000064030000
B1756023742238S05939699WA0159501638000056030000
B1756063742196S05939724WA0160601651000048030000
B1756103742170S05939676WA0161801658000048030000
B1756143742234S05939640WA0163201673000044045000
B1756183742284S05939698WA0164601690000052030000
B1756223742265S05939755WA0165801710000052030000
B1756263742222S05939742WA0166901728000052030000
B1756303742231S05939676WA0167701738000048030000
B1756343742297S05939662WA0169101758000044030000
B1756383742339S05939732WA0170701768000044030000
B1756423742308S05939788WA0171601776000056030000
B1756463742264S05939767WA0172701786000060030000
B1756503742247S05939710WA0173401793000048030000
B1756543742261S05939647WA0174001802000044030000
B1756583742310S05939603WA0175201809000040030000
B1757023742381S05939614WA0175601816000040030000
B1757063742420S05939683WA0175801824000048030000
B1757103742385S05939738WA0177101830000048030000
B1757143742351S05939711WA0178001837000048015000
B1757183742357S05939638WA0178401835000048015000
B1757223742398S05939563WA0178501836000052030000
B1757263742447S05939498WA0179201836000052030000
B1757303742473S05939428WA0180101844000052030000
B1757343742459S05939355WA0181401857000048030000
B1757383742417S05939325WA0182201868000048030000
B1757423742382S05939364WA0183601875000052015000
B1757463742396S05939436WA0184701885000060015000
B1757503742452S05939465WA0185701884000048030000
B1757543742512S05939425WA0186501884000048030000
B1757583742508S05939346WA0187501884000044030000
B1758023742492S05939285WA0187701887000052030000
B1758063742460S05939285WA0188401890000052045000
B1758103742443S05939367WA0189001902000056045000
B1758143742492S05939413WA0190201909000048045000
B1758183742559S05939393WA0191201915000048045000
B1758223742578S05939347WA0192101920015052045000
B1758263742520S05939329WA0193301923015052045000
B1758303742490S05939341WA0194301928015052045000
B1758343742529S05939397WA0194501926015052060000
B1758383742587S05939403WA0195001923015060060000
B1758423742628S05939385WA0195401917015068060000
B1758463742611S05939299WA0195901919015072060000
B1758503742574S05939247WA0196101924015076060000
B1758543742576S05939326WA0196101934015072060000
B1758583742642S05939359WA0196701942015060060000
B1759023742704S05939313WA0197601949015056060000
B1759063742729S05939241WA0198201955015048060000
B1759103742676S05939176WA0198501961015048075000
B1759143742595S05939195WA0196501964015052075000
B1759183742520S05939211WA0196101967015060090000
B1759223742452S05939177WA0197001968015068090000
B1759263742399S05939124WA0198201974015064090000
B1759303742348S05939068WA0197501974015068090000
B1759343742299S05938977WA0195801962015068090000
B1759383742258S05938874WA0194301946015072090000
B1759423742222S05938769WA0192801931015072075000
B1759463742187S05938658WA0191201918015072075000
B1759503742152S05938545WA0190201909015088075000
B1759543742121S05938429WA0189001897015084075000
B1759583742093S05938307WA0187601882015080075000
B1800023742069S05938180WA0186301871015088075000
B1800063742045S05938055WA0186301878015084060000
B1800103742019S05937933WA0186101872015080075000
B1800143741996S05937811WA0185101863015076060000
B1800183741975S05937687WA0184501860015076060000
B1800223741956S05937565WA0184301861015076060000
B1800263741939S05937444WA0183501849015076060000
B1800303741922S05937320WA0181901836015072060000
B1800343741901S05937197WA0180701826015084060000
B1800383741879S05937075WA0180501830015084045000
B1800423741858S05936954WA0180801842015092045000
B1800463741845S05936839WA0181901855000084045000
B1800503741835S05936733WA0182601862000084045000
B1800543741814S05936637WA0183501879000084045000
B1800583741797S05936551WA0185201901000076045000
B1801023741783S05936470WA0186301905000076045000
B1801063741766S05936386WA0185401896000072030000
B1801103741744S05936299WA0185501903000060030000
B1801143741719S05936212WA0185801904000056030000
B1801183741693S05936122WA0185101894000064030000
B1801223741668S05936024WA0183601878000080030000
B1801263741640S05935922WA0181801858000076030000
B1801303741607S05935823WA0180401851000072015000
B1801343741575S05935720WA0179001846000068015000
B1801383741545S05935611WA0177901838000060000000
B1801423741514S05935499WA0177001830000072000000
B1801463741477S05935394WA0176501831000088000000
B1801503741434S05935300WA0176801836000072000000
B1801543741385S05935216WA0176701832000064000000
B1801583741333S05935136WA0176301830000056000000
B1802023741282S05935058WA0176401836000060000000
B1802063741237S05934980WA0176901833000052000000
B1802103741190S05934901WA0175601817000048000000
B1802143741139S05934817WA0173601800000052000000
B1802183741085S05934731WA0172301786000048000000
B1802223741030S05934645WA0171401779000052000000
B1802263740981S05934555WA0171201777000052000000
B1802303740939S05934463WA0171201786000052000000
B1802343740904S05934375WA0171801782000052000000
B1802383740865S05934288WA0170701771000056000000
B1802423740825S05934200WA0169701763000060000000
B1802463740789S05934108WA0169401760000064000000
B1802503740762S05934012WA0168901752000064000000
B1802543740739S05933912WA0168201744000060000000
B1802583740719S05933808WA0167601740000060000000
B1803023740698S05933704WA0166701729000064000000
B1803063740680S05933595WA0165601722000064000000
B1803103740669S05933482WA0165201717000056000000
B1803143740661S05933365WA0164801713000064000000
B1803183740654S05933248WA0164501707000068000000
B1803223740643S05933131WA0163801702000068000000
B1803263740624S05933019WA0163701702000060000000
B1803303740600S05932913WA0163501698000052000000
B1803343740571S05932809WA0162801691000052000000
B1803383740542S05932707WA0162601689000052000000
B1803423740520S05932605WA0162301688000052000000
B1803463740510S05932504WA0162401689000044000000
B1803503740509S05932400WA0161701677000044000000
B1803543740515S05932289WA0160501665000048000000
B1803583740514S05932180WA0160201668000044000000
B1804023740497S05932081WA0160501672000048000000
B1804063740477S05931993WA0161601690000048000000
B1804103740450S05931922WA0163401703000048000000
B1804143740420S05931866WA0164501708000056000000
B1804183740393S05931803WA0164501707000052000000
B1804223740368S05931733WA0164001702000044000000
B1804263740345S05931651WA0162901697000040000000
B1804303740333S05931567WA0163001704000044000000
B1804343740329S05931477WA0163001695000040000000
B1804383740331S05931378WA0161501676000036000000
B1804423740337S05931272WA0159901659000040000000
B1804463740345S05931161WA0158201645000040000000
B1804503740351S05931048WA0156901629000040000000
B1804543740362S05930932WA0156001622000044000000
B1804583740376S05930817WA0155001612000044000000
B1805023740392S05930700WA0154301604000052000000
B1805063740410S05930581WA0153601596000056000000
B1805103740427S05930462WA0152801590000056000000
B1805143740440S05930343WA0152301582000056000000
B1805183740455S05930222WA0151201572000056000000
B1805223740470S05930102WA0150601563000056000000
B1805263740481S05929981WA0149501552000060000000
B1805303740492S05929858WA0148301540000060000000
B1805343740505S05929735WA0147501538000060000000
B1805383740519S05929617WA0147501536000060000000
B1805423740531S05929500WA0147001530000068000000
B1805463740550S05929385WA0146901533000064000000
B1805503740576S05929277WA0147201534000056000000
B1805543740606S05929172WA0146601527000048000000
B1805583740635S05929063WA0145401522000044000000
B1806023740659S05928955WA0144901521000044000000
B1806063740675S05928848WA0144701520000044015000
B1806103740685S05928742WA0143701514000044015000
B1806143740695S05928630WA0142501507000040015000
B1806183740706S05928516WA0141001497000040015000
B1806223740723S05928404WA0139901478000044015000
B1806263740737S05928289WA0139001468000044015000
B1806303740740S05928176WA0138001457000056000000
B1806343740735S05928068WA0138101459000052000000
B1806383740730S05927963WA0137701447000048000000
B1806423740735S05927854WA0136501432000048000000
B1806463740747S05927741WA0135201419000048000000
B1806503740766S05927626WA0134401412000048000000
B1806543740791S05927517WA0134001409000048000000
B1806583740819S05927414WA0134201412000048000000
B1807023740852S05927317WA0133901407000044000000
B1807063740880S05927214WA0132701400000044000000
B1807103740909S05927113WA0131901397000044000000
B1807143740935S05927014WA0131801398000048015000
B1807183740957S05926931WA0133301402000048015000
B1807223740969S05926854WA0134201405000044015000
B1807263740983S05926764WA0133501399000040015000
B1807303740992S05926676WA0133401400000040015000
B1807343741001S05926598WA0135101407000048015000
B1807383741005S05926525WA0136101410000048015000
B1807423740979S05926467WA0136701416000056015000
B1807463740934S05926456WA0137501430000056015000
B1807503740905S05926504WA0138701436000044015000
B1807543740945S05926575WA0139601444000044015000
B1807583741013S05926575WA0139901443000044015000
B1808023741048S05926521WA0140301445000044015000
B1808063741018S05926459WA0140801450000040015000
B1808103740971S05926450WA0141401458000040030000
B1808143741008S05926551WA0142401467000040030000
B1808183741072S05926537WA0143101472000040030000
B1808223741074S05926473WA0143501481000040030000
B1808263741036S05926460WA0144201495000048030000
B1808303741022S05926534WA0144701498000052045000
B1808343741083S05926585WA0145401507000056045000
B1808383741137S05926543WA0145801510000052045000
B1808423741120S05926486WA0146301519000052030000
B1808463741077S05926516WA0146801516000052030000
B1808503741044S05926569WA0146701522000052030000
B1808543741023S05926638WA0147701526000052030000
B1808583741075S05926694WA0148301535000052030000
B1809023741133S05926653WA0149501541000048030000
B1809063741127S05926585WA0149901551000044015000
B1809103741083S05926585WA0151201556000044015000
B1809143741090S05926654WA0152001564000044015000
B1809183741155S05926681WA0152601569000044015000
B1809223741204S05926625WA0152601570000056015000
B1809263741185S05926572WA0153101585000048015000
B1809303741155S05926605WA0153901590000048015000
B1809343741161S05926679WA0154601595000044015000
B1809383741216S05926725WA0155301603000044030000
B1809423741280S05926689WA0156001601000048045000
B1809463741289S05926611WA0155901604000048030000
B1809503741255S05926562WA0156201613000048015000
B1809543741218S05926589WA0156501616000044015000
B1809583741224S05926663WA0157301620000040015000
B1810023741287S05926697WA0157901627000044015000
B1810063741334S05926640WA0158501635000048015000
B1810103741316S05926585WA0159201644000048015000
B1810143741280S05926603WA0159201645000068030000
B1810183741256S05926672WA0159701647000060030000
B1810223741281S05926740WA0160601656000056015000
B1810263741343S05926758WA0161001657000052015000
B1810303741402S05926701WA0160601655000052015000
B1810343741425S05926615WA0160301655000064015000
B1810383741450S05926527WA0160301658000056015000
B1810423741475S05926434WA0159701657000052015000
B1810463741495S05926342WA0159801660000048015000
B1810503741517S05926255WA0160501665000048015000
B1810543741542S05926179WA0162101673000044015000
B1810583741566S05926099WA0162701675000052015000
B1811023741590S05926018WA0163401692000052015000
B1811063741624S05925944WA0164101697000060015000
B1811103741670S05925867WA0163901692000056015000
B1811143741727S05925791WA0162901685000068015000
B1811183741788S05925710WA0161401680000064015000
B1811223741852S05925639WA0161001680000056015000
B1811263741935S05925652WA0161601684000048015000
B1811303741952S05925737WA0161701681000044015000
B1811343741922S05925808WA0159801674000040030000
B1811383741887S05925884WA0158301665000048030000
B1811423741846S05925953WA0158001659000048030000
B1811463741806S05926021WA0158601663000048030000
B1811503741770S05926091WA0159001667000056030000
B1811543741736S05926165WA0159101668000056030000
B1811583741705S05926238WA0160001672000068030000
B1812023741668S05926311WA0160201673000064030000
B1812063741632S05926393WA0159601668000052030000
B1812103741595S05926480WA0159001662000052030000
B1812143741572S05926579WA0158801659000048030000
B1812183741563S05926668WA0160501664000052030000
B1812223741556S05926757WA0163101674000048030000
B1812263741545S05926813WA0162601680000040030000
B1812303741517S05926849WA0159501680000044030000
B1812343741477S05926902WA0157101681000048045000
B1812383741432S05926972WA0155401683000056045000
B1812423741389S05927054WA0154601685000060060000
B1812463741345S05927128WA0153801686000056060000
B1812503741298S05927209WA0152501687015056075000
B1812543741243S05927310WA0151801687015060075000
B1812583741189S05927390WA0151201684015068075000
B1813023741135S05927470WA0151401683015076090000
B1813063741083S05927551WA0151601682015072090000
B1813103741030S05927624WA0151101679015060090000
B1813143740982S05927704WA0150401676015060105000
B1813183740938S05927794WA0149801672015056105000
B1813223740910S05927899WA0149001669015064120000
B1813263740882S05928102WA0149401659015064120000
B1813303740871S05928184WA0152201655015056105000
B1813343740856S05928243WA0154101656015056105000
B1813383740845S05928293WA0155701656015052105000
B1813423740819S05928326WA0157001654015040060000
B1813463740770S05928323WA0158401655000040030000
B1813503740753S05928256WA0159901658000036015000
B1813543740788S05928179WA0159801655000040015000
B1813583740852S05928162WA0160701656000044030000
B1814023740908S05928218WA0161701664000044030000
B1814063740895S05928275WA0163101680000044015000
B1814103740841S05928271WA0164201693000048015000
B1814143740840S05928200WA0165101704000048015000
B1814183740892S05928154WA0165901709000048015000
B1814223740957S05928174WA0166801718000048015000
B1814263740969S05928243WA0167701728000048015000
B1814303740940S05928289WA0168901738000052015000
B1814343740896S05928269WA0169701746000056015000
B1814383740910S05928192WA0169701745000056015000
B1814423740966S05928155WA0170001748000064030000
B1814463741030S05928189WA0170601755000056030000
B1814503741039S05928248WA0171101760000048045000
B1814543741009S05928306WA0171601767000044045000
B1814583740955S05928306WA0172201778000056030000
B1815023740962S05928230WA0173001790000052015000
B1815063741016S05928191WA0173601796000052015000
B1815103741070S05928214WA0173701803000048015000
B1815143741075S05928288WA0173801809000064030000
B1815183741064S05928350WA0174201815000068030000
B1815223741020S05928366WA0175101819000084015000
B1815263741010S05928301WA0176301822000076015000
B1815303741060S05928244WA0176101817000076015000
B1815343741127S05928244WA0176501817000080030000
B1815383741172S05928285WA0177501822000080030000
B1815423741186S05928347WA0177701827000080030000
B1815463741189S05928413WA0178301833000080030000
B1815503741182S05928477WA0179401841000084030000
B1815543741159S05928540WA0179501844000068030000
B1815583741127S05928604WA0179001842000072030000
B1816023741088S05928678WA0177601837000076030000
B1816063741049S05928746WA0176601835000072030000
B1816103741030S05928826WA0178501851000064015000
B1816143741057S05928909WA0180901864000064015000
B1816183741098S05928985WA0181001863000064015000
B1816223741117S05929076WA0181101865000080015000
B1816263741108S05929154WA0181401868000080015000
B1816303741087S05929214WA0180601864000084015000
B1816343741051S05929281WA0178101853000072030000
B1816383741004S05929384WA0175701845000064030000
B1816423740957S05929480WA0174101836000056030000
B1816463740912S05929575WA0173201829000064030000
B1816503740864S05929674WA0172201822000064030000
B1816543740813S05929777WA0170701815000072030000
B1816583740762S05929881WA0169601808000068045000
B1817023740711S05929985WA0169001803000076045000
B1817063740663S05930085WA0168601802000076045000
B1817103740617S05930181WA0168401804000072045000
B1817143740574S05930276WA0168301807000064045000
B1817183740533S05930369WA0168101810000056060000
B1817223740489S05930467WA0166901807000068060000
B1817263740444S05930572WA0165101801000068060000
B1817303740401S05930679WA0163801795000068060000
B1817343740355S05930789WA0163101794000064075000
B1817383740310S05930891WA0162201790000060075000
B1817423740294S05930914WA0161701758015060060000
B1817463740254S05931014WA0161501755015060060000
B1817503740215S05931113WA0160901752015060060000
B1817543740173S05931210WA0159701746015060060000
B1817583740126S05931316WA0157901740015060060000
B1818023740086S05931400WA0157001723015060060000
B1818063740043S05931493WA0156901714015064060000
B1818103739995S05931573WA0156801712015080060000
B1818143739946S05931656WA0157101712015076060000
B1818183739898S05931730WA0156901714015068075000
B1818223739851S05931816WA0156901713015068075000
B1818263739803S05931896WA0156401710015064075000
B1818303739785S05931909WA0158201701015072075000
B1818343739791S05931974WA0161101698015064060000
B1818383739837S05932045WA0163001702000064045000
B1818423739907S05932055WA0162801697000068045000
B1818463739960S05932006WA0162901692000056060000
B1818503739963S05931940WA0162901687000052075000
B1818543739926S05931914WA0162901685000048075000
B1818583739879S05931932WA0163501684000056075000
B1819023739843S05931961WA0163401685000084075000
B1819063739827S05931987WA0162001680000084090000
B1819103739813S05932026WA0160301675000072090000
B1819143739801S05932068WA0158901670015076090000
B1819183739787S05932114WA0157201664015068105000
B1819223739755S05932196WA0155801660015064105000
B1819263739733S05932261WA0154501657015064105000
B1819303739710S05932326WA0153601653015088105000
B1819343739694S05932375WV0154300000000136000128
B1819383739509S05932738WA0154701664045120045000
B1819423739486S05932834WA0154601659045096180000
B1819463739471S05932889WA0152601645045080105000
B1819503739456S05932936WA0150901644045092225000
B1819543739443S05932973WA0149601643045088210000
B1819583739423S05933024WA0148301644045092165000
B1820023739397S05933093WA0147301651045088150000
B1820063739378S05933158WA0145901653045092150000
B1820103739358S05933223WA0144601656045088150000
B1820143739358S05933223WV0143500000000084000128
B1820183739358S05933223WV0142200000000096000128
B1820223739358S05933223WV0142100000000112000128
B1820263739358S05933223WV0142500000000096000128
B1820303739358S05933223WV0141600000000100000128
B1820343739358S05933223WV0140000000000096000128
B1820383739358S05933223WV0138700000000084000128
B1820423739358S05933223WV0137000000000072000128
B1820463738973S05934304WA0135701619075076045000
B1820503738934S05934405WA0135001611075072030000
B1820543738901S05934502WA0133801601075080015000
B1820583738860S05934614WA0133101598075072015000
B1821023738824S05934715WA0132601595090072000000
B1821063738784S05934817WA0131701592090068000000
B1821103738742S05934918WA0131301588090068225000
B1821143738703S05935014WA0130601584090072225000
B1821183738664S05935107WA0129401578090076210000
B1821223738615S05935205WA0129201575090076195000
B1821263738570S05935308WA0129001566090072150000
B1821303738531S05935399WA0129001563090080135000
B1821343738499S05935490WA0129001562090080120000
B1821383738466S05935573WA0128601559075068090000
B1821423738430S05935664WA0128401557075064075000
B1821463738378S05935766WA0128901551045064000000
B1821503738339S05935850WA0129201532030068180000
B1821543738326S05935949WA0130101529030076150000
B1821583738330S05936032WA0130701531030076210000
B1822023738355S05936122WA0131201537030116030000
B1822063738405S05936208WA0132201536030096210000
B1822103738475S05936212WA0133601526030096135000
B1822143738508S05936134WA0135401530030072120000
B1822183738482S05936063WA0136701533030064105000
B1822223738431S05936082WA0137801535030052075000
B1822263738435S05936153WA0139101535030052075000
B1822303738455S05936228WA0140001533030044075000
B1822343738473S05936303WA0140701530030044075000
B1822383738561S05936123WA0141600000045048000064
B1822423738547S05936053WA0142400000045044000064
B1822463738499S05936054WA0143601524135040105000
B1822503738494S05936179WA0144401510105044120000
B1822543738559S05936209WA0145701541105048105000
B1822583738628S05936179WA0147201562090052225000
B1823023738642S05936113WA0148301557090048075000
B1823063738602S05936074WA0148701556060076105000
B1823103738568S05936113WA0149001574060076180000
B1823143738570S05936204WA0149801587060064165000
B1823183738574S05936296WA0150301598060072165000
B1823223738577S05936387WA0151601609060060165000
B1823263738577S05936387WV0153000000000068000128
B1823303738577S05936387WV0154400000000064000128
B1823343738577S05936387WV0154700000000064000128
B1823383738687S05936160WA0155901622075060000000
B1823423738737S05936260WA0157901644030060075000
